{
  "contractName": "AssetDonator",
  "abi": [
    {
      "constant": false,
      "inputs": [],
      "name": "claimContractOwnership",
      "outputs": [
        {
          "name": "",
          "type": "bool"
        }
      ],
      "payable": false,
      "stateMutability": "nonpayable",
      "type": "function"
    },
    {
      "constant": false,
      "inputs": [
        {
          "name": "_to",
          "type": "address"
        }
      ],
      "name": "changeContractOwnership",
      "outputs": [
        {
          "name": "",
          "type": "bool"
        }
      ],
      "payable": false,
      "stateMutability": "nonpayable",
      "type": "function"
    },
    {
      "constant": true,
      "inputs": [],
      "name": "pendingContractOwner",
      "outputs": [
        {
          "name": "",
          "type": "address"
        }
      ],
      "payable": false,
      "stateMutability": "view",
      "type": "function"
    },
    {
      "constant": true,
      "inputs": [
        {
          "name": "",
          "type": "address"
        }
      ],
      "name": "timeDonations",
      "outputs": [
        {
          "name": "",
          "type": "bool"
        }
      ],
      "payable": false,
      "stateMutability": "view",
      "type": "function"
    },
    {
      "constant": false,
      "inputs": [],
      "name": "destroy",
      "outputs": [],
      "payable": false,
      "stateMutability": "nonpayable",
      "type": "function"
    },
    {
      "constant": false,
      "inputs": [
        {
          "name": "_to",
          "type": "address"
        }
      ],
      "name": "transferContractOwnership",
      "outputs": [
        {
          "name": "",
          "type": "bool"
        }
      ],
      "payable": false,
      "stateMutability": "nonpayable",
      "type": "function"
    },
    {
      "constant": true,
      "inputs": [],
      "name": "contractOwner",
      "outputs": [
        {
          "name": "",
          "type": "address"
        }
      ],
      "payable": false,
      "stateMutability": "view",
      "type": "function"
    },
    {
      "constant": false,
      "inputs": [
        {
          "name": "tokens",
          "type": "address[]"
        },
        {
          "name": "_to",
          "type": "address"
        }
      ],
      "name": "withdrawnTokens",
      "outputs": [
        {
          "name": "",
          "type": "uint256"
        }
      ],
      "payable": false,
      "stateMutability": "nonpayable",
      "type": "function"
    },
    {
      "constant": false,
      "inputs": [
        {
          "name": "_contractManager",
          "type": "address"
        }
      ],
      "name": "init",
      "outputs": [],
      "payable": false,
      "stateMutability": "nonpayable",
      "type": "function"
    },
    {
      "constant": false,
      "inputs": [],
      "name": "sendTime",
      "outputs": [
        {
          "name": "",
          "type": "bool"
        }
      ],
      "payable": false,
      "stateMutability": "nonpayable",
      "type": "function"
    }
  ],
  "bytecode": "0x606060405260008054600160a060020a033316600160a060020a0319909116179055610736806100306000396000f30060606040526004361061008a5763ffffffff60e060020a60003504166319ab453c811461008f5780634592cd1d146100b0578063557f4bc9146100d75780635aa77d3c146100f657806378fe391c1461012557806383197ef014610144578063a843c51f14610157578063aa58a5b014610176578063ce606ee014610189578063d8f9659b1461019c575b600080fd5b341561009a57600080fd5b6100ae600160a060020a0360043516610208565b005b34156100bb57600080fd5b6100c3610260565b604051901515815260200160405180910390f35b34156100e257600080fd5b6100c3600160a060020a03600435166102b8565b341561010157600080fd5b610109610317565b604051600160a060020a03909116815260200160405180910390f35b341561013057600080fd5b6100c3600160a060020a0360043516610326565b341561014f57600080fd5b6100ae61033b565b341561016257600080fd5b6100c3600160a060020a0360043516610360565b341561018157600080fd5b6100c36103f1565b341561019457600080fd5b6101096105c6565b34156101a757600080fd5b6101f6600460248135818101908301358060208181020160405190810160405280939291908181526020018383602002808284375094965050509235600160a060020a031692506105d5915050565b60405190815260200160405180910390f35b60005433600160a060020a039081169116141561025d57600160a060020a038116151561023457600080fd5b6002805473ffffffffffffffffffffffffffffffffffffffff1916600160a060020a0383161790555b50565b60015460009033600160a060020a03908116911614610281575060006102b5565b50600180546000805473ffffffffffffffffffffffffffffffffffffffff19908116600160a060020a038416179091551681555b90565b6000805433600160a060020a039081169116141561031257600160a060020a03821615156102e857506000610312565b506001805473ffffffffffffffffffffffffffffffffffffffff1916600160a060020a0383161781555b919050565b600154600160a060020a031681565b60036020526000908152604090205460ff1681565b60005433600160a060020a039081169116141561035e5733600160a060020a0316ff5b565b6000805433600160a060020a039081169116141561031257600160a060020a038216151561039057506000610312565b600154600160a060020a0316156103bf576001805473ffffffffffffffffffffffffffffffffffffffff191690555b5060008054600160a060020a03831673ffffffffffffffffffffffffffffffffffffffff199091161790556001919050565b600160a060020a0333166000908152600360205260408120548190819060ff161561041f57600092506105c1565b600254600160a060020a031663bc65792760405160e060020a63ffffffff83160281527f45524332304d616e6167657200000000000000000000000000000000000000006004820152602401602060405180830381600087803b151561048457600080fd5b5af1151561049157600080fd5b5050506040518051925050600160a060020a03821663fa7fdeb77f54494d450000000000000000000000000000000000000000000000000000000060405160e060020a63ffffffff84160281526004810191909152602401602060405180830381600087803b151561050257600080fd5b5af1151561050f57600080fd5b5050506040518051915050600160a060020a03811663a9059cbb33633b9aca0060405160e060020a63ffffffff8516028152600160a060020a0390921660048301526024820152604401602060405180830381600087803b151561057257600080fd5b5af1151561057f57600080fd5b50505060405180519050151561059857600092506105c1565b600160a060020a0333166000908152600360205260409020805460ff1916600190811790915592505b505090565b600054600160a060020a031681565b6000805481908190819033600160a060020a039081169116141561070157600092505b85518310156106fc5785838151811061060d57fe5b90602001906020020151915081600160a060020a03166370a082313060405160e060020a63ffffffff8416028152600160a060020a039091166004820152602401602060405180830381600087803b151561066757600080fd5b5af1151561067457600080fd5b505050604051805191505080156106f15781600160a060020a031663a9059cbb868360405160e060020a63ffffffff8516028152600160a060020a0390921660048301526024820152604401602060405180830381600087803b15156106d957600080fd5b5af115156106e657600080fd5b505050604051805150505b6001909201916105f8565b600193505b505050929150505600a165627a7a723058208f5d6e6e53c23fe86f67967c5ec39666a7937ff891246215a3939114a5b60a370029",
  "source": "/**\n * Copyright 2017–2018, LaborX PTY\n * Licensed under the AGPL Version 3 license.\n */\n\npragma solidity ^0.4.11;\n\nimport \"../core/contracts/ContractsManagerInterface.sol\";\nimport \"../core/erc20/ERC20Manager.sol\";\nimport \"../core/erc20/ERC20Interface.sol\";\nimport \"../core/common/Object.sol\";\n\n/**\n*  @title AssetDonator\n*\n*  @notice Created only for test purposes! Do not allow to deploy this contract\n*  in production network.\n*\n*/\ncontract AssetDonator is Object {\n    address contractManager;\n    mapping (address => bool) public timeDonations;\n\n    function init(address _contractManager) onlyContractOwner public {\n        require(_contractManager != 0x0);\n        contractManager = _contractManager;\n    }\n\n    /**\n    *  @notice Sends 10 TIME to caller.\n    *  @notice It is permitted to send TIMEs only once.\n    *\n    *  @return success or not\n    */\n    function sendTime() public returns (bool) {\n        if (timeDonations[msg.sender]) {\n           return false;\n        }\n\n        address erc20Manager = ContractsManagerInterface(contractManager)\n              .getContractAddressByType(\"ERC20Manager\");\n        address token = ERC20Manager(erc20Manager).getTokenAddressBySymbol(bytes32(\"TIME\"));\n\n\n        if (!ERC20Interface(token).transfer(msg.sender, 1000000000)) {\n            return false;\n        }\n\n        timeDonations[msg.sender] = true;\n        return true;\n    }\n}\n",
  "sourcePath": "/Users/mikefluff/Documents/Programming/Chronobank/test/SmartContracts/contracts/helpers/AssetDonator.sol",
  "compiler": {
    "name": "solc",
    "version": "0.4.21+commit.dfe3193c.Emscripten.clang"
  },
  "schemaVersion": "2.0.0",
  "updatedAt": "2018-04-11T08:15:03.946Z"
}