{
  "contractName": "AssetsManagerMock",
  "abi": [
    {
      "payable": false,
      "stateMutability": "nonpayable",
      "type": "fallback"
    },
    {
      "constant": false,
      "inputs": [
        {
          "name": "_contractsManager",
          "type": "address"
        }
      ],
      "name": "init",
      "outputs": [
        {
          "name": "",
          "type": "bool"
        }
      ],
      "payable": false,
      "stateMutability": "nonpayable",
      "type": "function"
    },
    {
      "constant": true,
      "inputs": [
        {
          "name": "_symbol",
          "type": "bytes32"
        }
      ],
      "name": "isAssetSymbolExists",
      "outputs": [
        {
          "name": "",
          "type": "bool"
        }
      ],
      "payable": false,
      "stateMutability": "view",
      "type": "function"
    },
    {
      "constant": true,
      "inputs": [],
      "name": "getAssetsSymbols",
      "outputs": [
        {
          "name": "",
          "type": "bytes32[]"
        }
      ],
      "payable": false,
      "stateMutability": "view",
      "type": "function"
    },
    {
      "constant": true,
      "inputs": [],
      "name": "getAssetsSymbolsCount",
      "outputs": [
        {
          "name": "",
          "type": "uint256"
        }
      ],
      "payable": false,
      "stateMutability": "view",
      "type": "function"
    },
    {
      "constant": true,
      "inputs": [
        {
          "name": "symbol",
          "type": "bytes32"
        }
      ],
      "name": "getAssetBySymbol",
      "outputs": [
        {
          "name": "",
          "type": "address"
        }
      ],
      "payable": false,
      "stateMutability": "view",
      "type": "function"
    },
    {
      "constant": false,
      "inputs": [
        {
          "name": "asset",
          "type": "address"
        },
        {
          "name": "_symbol",
          "type": "bytes32"
        },
        {
          "name": "",
          "type": "address"
        }
      ],
      "name": "addAsset",
      "outputs": [
        {
          "name": "",
          "type": "bool"
        }
      ],
      "payable": false,
      "stateMutability": "nonpayable",
      "type": "function"
    },
    {
      "constant": true,
      "inputs": [
        {
          "name": "",
          "type": "address"
        },
        {
          "name": "",
          "type": "address"
        }
      ],
      "name": "getAssetsForOwner",
      "outputs": [
        {
          "name": "",
          "type": "bytes32[]"
        }
      ],
      "payable": false,
      "stateMutability": "view",
      "type": "function"
    },
    {
      "constant": true,
      "inputs": [
        {
          "name": "",
          "type": "address"
        },
        {
          "name": "",
          "type": "address"
        }
      ],
      "name": "getAssetsForOwnerCount",
      "outputs": [
        {
          "name": "",
          "type": "uint256"
        }
      ],
      "payable": false,
      "stateMutability": "view",
      "type": "function"
    },
    {
      "constant": true,
      "inputs": [
        {
          "name": "",
          "type": "address"
        },
        {
          "name": "",
          "type": "address"
        },
        {
          "name": "_index",
          "type": "uint256"
        }
      ],
      "name": "getAssetForOwnerAtIndex",
      "outputs": [
        {
          "name": "",
          "type": "bytes32"
        }
      ],
      "payable": false,
      "stateMutability": "view",
      "type": "function"
    },
    {
      "constant": true,
      "inputs": [
        {
          "name": "",
          "type": "bytes32"
        },
        {
          "name": "",
          "type": "address"
        }
      ],
      "name": "isAssetOwner",
      "outputs": [
        {
          "name": "",
          "type": "bool"
        }
      ],
      "payable": false,
      "stateMutability": "view",
      "type": "function"
    },
    {
      "constant": true,
      "inputs": [
        {
          "name": "",
          "type": "address"
        }
      ],
      "name": "getTokenExtension",
      "outputs": [
        {
          "name": "",
          "type": "address"
        }
      ],
      "payable": false,
      "stateMutability": "view",
      "type": "function"
    },
    {
      "constant": false,
      "inputs": [
        {
          "name": "",
          "type": "address"
        }
      ],
      "name": "requestTokenExtension",
      "outputs": [
        {
          "name": "",
          "type": "uint256"
        }
      ],
      "payable": false,
      "stateMutability": "nonpayable",
      "type": "function"
    }
  ],
  "bytecode": "0x6060604052341561000f57600080fd5b6106248061001e6000396000f3006060604052600436106100b95763ffffffff7c01000000000000000000000000000000000000000000000000000000006000350416630c01940381146100c957806317db10711461010657806319ab453c1461013d5780631d7cda761461015c57806325742b46146101c257806328aea08b146101e4578063296618c1146102165780632cd060ce146102295780632dede55a14610251578063c97f578714610276578063d5ed0d1714610295578063e5ebb7a5146102ab575b34156100c457600080fd5b600080fd5b34156100d457600080fd5b6100f2600160a060020a0360043581169060243590604435166102ca565b604051901515815260200160405180910390f35b341561011157600080fd5b61012b600160a060020a036004358116906024351661034f565b60405190815260200160405180910390f35b341561014857600080fd5b6100f2600160a060020a0360043516610357565b341561016757600080fd5b61016f61046a565b60405160208082528190810183818151815260200191508051906020019060200280838360005b838110156101ae578082015183820152602001610196565b505050509050019250505060405180910390f35b34156101cd57600080fd5b6100f2600435600160a060020a03602435166104ca565b34156101ef57600080fd5b6101fa6004356104d2565b604051600160a060020a03909116815260200160405180910390f35b341561022157600080fd5b61012b6104ed565b341561023457600080fd5b61012b600160a060020a03600435811690602435166044356104f3565b341561025c57600080fd5b61016f600160a060020a0360043581169060243516610519565b341561028157600080fd5b61012b600160a060020a036004351661057b565b34156102a057600080fd5b6100f2600435610582565b34156102b657600080fd5b6101fa600160a060020a036004351661057b565b600082815260026020526040812054600160a060020a0316151561034457600180548082016102f9838261059f565b5060009182526020808320919091018590558482526002905260409020805473ffffffffffffffffffffffffffffffffffffffff1916600160a060020a038616179055506001610348565b5060005b9392505050565b505060015490565b600080548190600160a060020a0316156103745760009150610464565b82600160a060020a031663b7c46cd5306000604051602001526040517c010000000000000000000000000000000000000000000000000000000063ffffffff8416028152600160a060020a0390911660048201527f4173736574734d616e61676572000000000000000000000000000000000000006024820152604401602060405180830381600087803b151561040a57600080fd5b6102c65a03f1151561041b57600080fd5b5050506040518051915050600181146104375760009150610464565b6000805473ffffffffffffffffffffffffffffffffffffffff1916600160a060020a038516179055600191505b50919050565b6104726105c8565b60018054806020026020016040519081016040528092919081815260200182805480156104bf57602002820191906000526020600020905b815481526001909101906020018083116104aa575b505050505090505b90565b600192915050565b600090815260026020526040902054600160a060020a031690565b60015490565b600060018281548110151561050457fe5b90600052602060002090015490509392505050565b6105216105c8565b600180548060200260200160405190810160405280929190818152602001828054801561056e57602002820191906000526020600020905b81548152600190910190602001808311610559575b5050505050905092915050565b6000806000fd5b600090815260026020526040902054600160a060020a0316151590565b8154818355818115116105c3576000838152602090206105c39181019083016105da565b505050565b60206040519081016040526000815290565b6104c791905b808211156105f457600081556001016105e0565b50905600a165627a7a72305820b0bb664d5c73c43a1b27b66f20cc23566c0292d4148dfaa3ed5dcff5355eb2d00029",
  "source": "pragma solidity ^0.4.11;\n\nimport \"../core/contracts/ContractsManagerInterface.sol\";\nimport \"../assets/AssetsManagerInterface.sol\";\n\ncontract AssetsManagerMock is AssetsManagerInterface {\n    uint constant OK = 1;\n\n    address contractsManager;\n    bytes32[] symbols;\n    mapping(bytes32 => address) assets;\n\n    function init(address _contractsManager) public returns (bool) {\n        if(contractsManager != 0x0) {\n            return false;\n        }\n\n        uint errorCode = ContractsManagerInterface(_contractsManager).addContract(this, \"AssetsManager\");\n        if (OK != errorCode) {\n            return false;\n        }\n\n        contractsManager = _contractsManager;\n        return true;\n    }\n\n\n    function isAssetSymbolExists(bytes32 _symbol) public view returns (bool) {\n        return assets[_symbol] != 0x0;\n    }\n\n    function getAssetsSymbols() public view returns (bytes32[]) {\n        return symbols;\n    }\n\n    function getAssetsSymbolsCount() public view returns (uint) {\n        return symbols.length;\n    }\n\n    function getAssetBySymbol(bytes32 symbol) public view returns (address) {\n        return assets[symbol];\n    }\n    \n    function addAsset(address asset, bytes32 _symbol, address) public returns (bool) {\n        if (assets[_symbol] == 0x0) {\n            symbols.push(_symbol);\n            assets[_symbol] = asset;\n            return true;\n        }\n        return false;\n    }\n\n    function getAssetsForOwner(address, address) public view returns (bytes32[]) {\n        return symbols;\n    }\n\n    function getAssetsForOwnerCount(address, address) public view returns (uint) {\n        return symbols.length;\n    }\n\n    function getAssetForOwnerAtIndex(address, address, uint _index) public view returns (bytes32) {\n        return symbols[_index];\n    }\n\n    function isAssetOwner(bytes32, address) public view returns (bool) {\n        return true;\n    }\n\n    function getTokenExtension(address) public view returns (address) {\n        revert();\n    }\n\n    function requestTokenExtension(address) public returns (uint) {\n        revert();\n    }\n\n    function() public {\n        revert();\n    }\n}\n",
  "sourcePath": "/Users/ahiatsevich/Development/chronobank/SmartContracts/contracts/helpers/AssetsManagerMock.sol",
  "compiler": {
    "name": "solc",
    "version": "0.4.19+commit.c4cbbb05.Emscripten.clang"
  },
  "schemaVersion": "1.0.1",
  "updatedAt": "2018-02-18T14:59:26.338Z"
}