{
  "contractName": "AssetsManagerMock",
  "abi": [
    {
      "payable": false,
      "stateMutability": "nonpayable",
      "type": "fallback"
    },
    {
      "constant": false,
      "inputs": [
        {
          "name": "_contractsManager",
          "type": "address"
        }
      ],
      "name": "init",
      "outputs": [
        {
          "name": "",
          "type": "bool"
        }
      ],
      "payable": false,
      "stateMutability": "nonpayable",
      "type": "function"
    },
    {
      "constant": true,
      "inputs": [
        {
          "name": "_symbol",
          "type": "bytes32"
        }
      ],
      "name": "isAssetSymbolExists",
      "outputs": [
        {
          "name": "",
          "type": "bool"
        }
      ],
      "payable": false,
      "stateMutability": "view",
      "type": "function"
    },
    {
      "constant": true,
      "inputs": [],
      "name": "getAssetsSymbols",
      "outputs": [
        {
          "name": "",
          "type": "bytes32[]"
        }
      ],
      "payable": false,
      "stateMutability": "view",
      "type": "function"
    },
    {
      "constant": true,
      "inputs": [],
      "name": "getAssetsSymbolsCount",
      "outputs": [
        {
          "name": "",
          "type": "uint256"
        }
      ],
      "payable": false,
      "stateMutability": "view",
      "type": "function"
    },
    {
      "constant": true,
      "inputs": [
        {
          "name": "symbol",
          "type": "bytes32"
        }
      ],
      "name": "getAssetBySymbol",
      "outputs": [
        {
          "name": "",
          "type": "address"
        }
      ],
      "payable": false,
      "stateMutability": "view",
      "type": "function"
    },
    {
      "constant": false,
      "inputs": [
        {
          "name": "asset",
          "type": "address"
        },
        {
          "name": "_symbol",
          "type": "bytes32"
        },
        {
          "name": "",
          "type": "address"
        }
      ],
      "name": "addAsset",
      "outputs": [
        {
          "name": "",
          "type": "bool"
        }
      ],
      "payable": false,
      "stateMutability": "nonpayable",
      "type": "function"
    },
    {
      "constant": true,
      "inputs": [
        {
          "name": "",
          "type": "address"
        },
        {
          "name": "",
          "type": "address"
        }
      ],
      "name": "getAssetsForOwner",
      "outputs": [
        {
          "name": "",
          "type": "bytes32[]"
        }
      ],
      "payable": false,
      "stateMutability": "view",
      "type": "function"
    },
    {
      "constant": true,
      "inputs": [
        {
          "name": "",
          "type": "address"
        },
        {
          "name": "",
          "type": "address"
        }
      ],
      "name": "getAssetsForOwnerCount",
      "outputs": [
        {
          "name": "",
          "type": "uint256"
        }
      ],
      "payable": false,
      "stateMutability": "view",
      "type": "function"
    },
    {
      "constant": true,
      "inputs": [
        {
          "name": "",
          "type": "address"
        },
        {
          "name": "",
          "type": "address"
        },
        {
          "name": "_index",
          "type": "uint256"
        }
      ],
      "name": "getAssetForOwnerAtIndex",
      "outputs": [
        {
          "name": "",
          "type": "bytes32"
        }
      ],
      "payable": false,
      "stateMutability": "view",
      "type": "function"
    },
    {
      "constant": true,
      "inputs": [
        {
          "name": "",
          "type": "bytes32"
        },
        {
          "name": "",
          "type": "address"
        }
      ],
      "name": "isAssetOwner",
      "outputs": [
        {
          "name": "",
          "type": "bool"
        }
      ],
      "payable": false,
      "stateMutability": "view",
      "type": "function"
    },
    {
      "constant": true,
      "inputs": [
        {
          "name": "",
          "type": "address"
        }
      ],
      "name": "getTokenExtension",
      "outputs": [
        {
          "name": "",
          "type": "address"
        }
      ],
      "payable": false,
      "stateMutability": "view",
      "type": "function"
    },
    {
      "constant": false,
      "inputs": [
        {
          "name": "",
          "type": "address"
        }
      ],
      "name": "requestTokenExtension",
      "outputs": [
        {
          "name": "",
          "type": "uint256"
        }
      ],
      "payable": false,
      "stateMutability": "nonpayable",
      "type": "function"
    }
  ],
  "bytecode": "0x6060604052341561000f57600080fd5b6106178061001e6000396000f3006060604052600436106100b95763ffffffff7c01000000000000000000000000000000000000000000000000000000006000350416630c01940381146100c957806317db10711461010657806319ab453c1461013d5780631d7cda761461015c57806325742b46146101c257806328aea08b146101e4578063296618c1146102165780632cd060ce146102295780632dede55a14610251578063c97f578714610276578063d5ed0d1714610295578063e5ebb7a5146102ab575b34156100c457600080fd5b600080fd5b34156100d457600080fd5b6100f2600160a060020a0360043581169060243590604435166102ca565b604051901515815260200160405180910390f35b341561011157600080fd5b61012b600160a060020a036004358116906024351661034f565b60405190815260200160405180910390f35b341561014857600080fd5b6100f2600160a060020a0360043516610357565b341561016757600080fd5b61016f61045d565b60405160208082528190810183818151815260200191508051906020019060200280838360005b838110156101ae578082015183820152602001610196565b505050509050019250505060405180910390f35b34156101cd57600080fd5b6100f2600435600160a060020a03602435166104bd565b34156101ef57600080fd5b6101fa6004356104c5565b604051600160a060020a03909116815260200160405180910390f35b341561022157600080fd5b61012b6104e0565b341561023457600080fd5b61012b600160a060020a03600435811690602435166044356104e6565b341561025c57600080fd5b61016f600160a060020a036004358116906024351661050c565b341561028157600080fd5b61012b600160a060020a036004351661056e565b34156102a057600080fd5b6100f2600435610575565b34156102b657600080fd5b6101fa600160a060020a036004351661056e565b600082815260026020526040812054600160a060020a0316151561034457600180548082016102f98382610592565b5060009182526020808320919091018590558482526002905260409020805473ffffffffffffffffffffffffffffffffffffffff1916600160a060020a038616179055506001610348565b5060005b9392505050565b505060015490565b600080548190600160a060020a0316156103745760009150610457565b82600160a060020a031663b7c46cd5306040517c010000000000000000000000000000000000000000000000000000000063ffffffff8416028152600160a060020a0390911660048201527f4173736574734d616e61676572000000000000000000000000000000000000006024820152604401602060405180830381600087803b151561040157600080fd5b5af1151561040e57600080fd5b50505060405180519150506001811461042a5760009150610457565b6000805473ffffffffffffffffffffffffffffffffffffffff1916600160a060020a038516179055600191505b50919050565b6104656105bb565b60018054806020026020016040519081016040528092919081815260200182805480156104b257602002820191906000526020600020905b8154815260019091019060200180831161049d575b505050505090505b90565b600192915050565b600090815260026020526040902054600160a060020a031690565b60015490565b60006001828154811015156104f757fe5b90600052602060002090015490509392505050565b6105146105bb565b600180548060200260200160405190810160405280929190818152602001828054801561056157602002820191906000526020600020905b8154815260019091019060200180831161054c575b5050505050905092915050565b6000806000fd5b600090815260026020526040902054600160a060020a0316151590565b8154818355818115116105b6576000838152602090206105b69181019083016105cd565b505050565b60206040519081016040526000815290565b6104ba91905b808211156105e757600081556001016105d3565b50905600a165627a7a723058209781fa4baf43aba215028d852f6a2d7d35c29da8c2129bdfa117f9f5056e3d6d0029",
  "source": "/**\n * Copyright 2017–2018, LaborX PTY\n * Licensed under the AGPL Version 3 license.\n */\n\npragma solidity ^0.4.11;\n\nimport \"../core/contracts/ContractsManagerInterface.sol\";\nimport \"../assets/AssetsManagerInterface.sol\";\n\ncontract AssetsManagerMock is AssetsManagerInterface {\n    uint constant OK = 1;\n\n    address contractsManager;\n    bytes32[] symbols;\n    mapping(bytes32 => address) assets;\n\n    function init(address _contractsManager) public returns (bool) {\n        if(contractsManager != 0x0) {\n            return false;\n        }\n\n        uint errorCode = ContractsManagerInterface(_contractsManager).addContract(this, \"AssetsManager\");\n        if (OK != errorCode) {\n            return false;\n        }\n\n        contractsManager = _contractsManager;\n        return true;\n    }\n\n\n    function isAssetSymbolExists(bytes32 _symbol) public view returns (bool) {\n        return assets[_symbol] != 0x0;\n    }\n\n    function getAssetsSymbols() public view returns (bytes32[]) {\n        return symbols;\n    }\n\n    function getAssetsSymbolsCount() public view returns (uint) {\n        return symbols.length;\n    }\n\n    function getAssetBySymbol(bytes32 symbol) public view returns (address) {\n        return assets[symbol];\n    }\n    \n    function addAsset(address asset, bytes32 _symbol, address) public returns (bool) {\n        if (assets[_symbol] == 0x0) {\n            symbols.push(_symbol);\n            assets[_symbol] = asset;\n            return true;\n        }\n        return false;\n    }\n\n    function getAssetsForOwner(address, address) public view returns (bytes32[]) {\n        return symbols;\n    }\n\n    function getAssetsForOwnerCount(address, address) public view returns (uint) {\n        return symbols.length;\n    }\n\n    function getAssetForOwnerAtIndex(address, address, uint _index) public view returns (bytes32) {\n        return symbols[_index];\n    }\n\n    function isAssetOwner(bytes32, address) public view returns (bool) {\n        return true;\n    }\n\n    function getTokenExtension(address) public view returns (address) {\n        revert();\n    }\n\n    function requestTokenExtension(address) public returns (uint) {\n        revert();\n    }\n\n    function() public {\n        revert();\n    }\n}\n",
  "sourcePath": "/Users/mikefluff/Documents/Programming/Chronobank/test/SmartContracts/contracts/helpers/AssetsManagerMock.sol",
  "compiler": {
    "name": "solc",
    "version": "0.4.21+commit.dfe3193c.Emscripten.clang"
  },
  "schemaVersion": "2.0.0",
  "updatedAt": "2018-04-11T07:40:05.556Z"
}