{
  "contractName": "AssetsManager",
  "abi": [
    {
      "constant": true,
      "inputs": [
        {
          "name": "_platform",
          "type": "address"
        },
        {
          "name": "_owner",
          "type": "address"
        }
      ],
      "name": "getAssetsForOwnerCount",
      "outputs": [
        {
          "name": "count",
          "type": "uint256"
        }
      ],
      "payable": false,
      "stateMutability": "view",
      "type": "function"
    },
    {
      "constant": false,
      "inputs": [
        {
          "name": "_contractsManager",
          "type": "address"
        },
        {
          "name": "_tokenExtensionFactory",
          "type": "address"
        },
        {
          "name": "_tokenFactory",
          "type": "address"
        }
      ],
      "name": "init",
      "outputs": [
        {
          "name": "",
          "type": "uint256"
        }
      ],
      "payable": false,
      "stateMutability": "nonpayable",
      "type": "function"
    },
    {
      "constant": true,
      "inputs": [
        {
          "name": "_symbol",
          "type": "bytes32"
        },
        {
          "name": "_user",
          "type": "address"
        }
      ],
      "name": "isAssetOwner",
      "outputs": [
        {
          "name": "",
          "type": "bool"
        }
      ],
      "payable": false,
      "stateMutability": "view",
      "type": "function"
    },
    {
      "constant": true,
      "inputs": [
        {
          "name": "_symbol",
          "type": "bytes32"
        }
      ],
      "name": "getAssetBySymbol",
      "outputs": [
        {
          "name": "",
          "type": "address"
        }
      ],
      "payable": false,
      "stateMutability": "view",
      "type": "function"
    },
    {
      "constant": true,
      "inputs": [
        {
          "name": "_platform",
          "type": "address"
        },
        {
          "name": "_owner",
          "type": "address"
        },
        {
          "name": "_idx",
          "type": "uint256"
        }
      ],
      "name": "getAssetForOwnerAtIndex",
      "outputs": [
        {
          "name": "",
          "type": "bytes32"
        }
      ],
      "payable": false,
      "stateMutability": "view",
      "type": "function"
    },
    {
      "constant": false,
      "inputs": [
        {
          "name": "_tokenExtension",
          "type": "address"
        }
      ],
      "name": "emitTokenExtensionUnregistered",
      "outputs": [],
      "payable": false,
      "stateMutability": "nonpayable",
      "type": "function"
    },
    {
      "constant": false,
      "inputs": [
        {
          "name": "_tokenFactory",
          "type": "address"
        }
      ],
      "name": "setTokenFactory",
      "outputs": [
        {
          "name": "",
          "type": "uint256"
        }
      ],
      "payable": false,
      "stateMutability": "nonpayable",
      "type": "function"
    },
    {
      "constant": true,
      "inputs": [],
      "name": "getTokenExtensionFactory",
      "outputs": [
        {
          "name": "",
          "type": "address"
        }
      ],
      "payable": false,
      "stateMutability": "view",
      "type": "function"
    },
    {
      "constant": false,
      "inputs": [],
      "name": "claimContractOwnership",
      "outputs": [
        {
          "name": "",
          "type": "bool"
        }
      ],
      "payable": false,
      "stateMutability": "nonpayable",
      "type": "function"
    },
    {
      "constant": true,
      "inputs": [
        {
          "name": "_identifier",
          "type": "bytes32"
        }
      ],
      "name": "lookupManager",
      "outputs": [
        {
          "name": "manager",
          "type": "address"
        }
      ],
      "payable": false,
      "stateMutability": "view",
      "type": "function"
    },
    {
      "constant": true,
      "inputs": [],
      "name": "contractsManager",
      "outputs": [
        {
          "name": "",
          "type": "address"
        }
      ],
      "payable": false,
      "stateMutability": "view",
      "type": "function"
    },
    {
      "constant": false,
      "inputs": [
        {
          "name": "_to",
          "type": "address"
        }
      ],
      "name": "changeContractOwnership",
      "outputs": [
        {
          "name": "",
          "type": "bool"
        }
      ],
      "payable": false,
      "stateMutability": "nonpayable",
      "type": "function"
    },
    {
      "constant": true,
      "inputs": [],
      "name": "pendingContractOwner",
      "outputs": [
        {
          "name": "",
          "type": "address"
        }
      ],
      "payable": false,
      "stateMutability": "view",
      "type": "function"
    },
    {
      "constant": false,
      "inputs": [
        {
          "name": "_eventsHistory",
          "type": "address"
        }
      ],
      "name": "setEventsHistory",
      "outputs": [],
      "payable": false,
      "stateMutability": "nonpayable",
      "type": "function"
    },
    {
      "constant": true,
      "inputs": [
        {
          "name": "_tokenExtension",
          "type": "address"
        }
      ],
      "name": "containsTokenExtension",
      "outputs": [
        {
          "name": "",
          "type": "bool"
        }
      ],
      "payable": false,
      "stateMutability": "view",
      "type": "function"
    },
    {
      "constant": false,
      "inputs": [
        {
          "name": "_contractsManager",
          "type": "address"
        }
      ],
      "name": "setContractsManager",
      "outputs": [],
      "payable": false,
      "stateMutability": "nonpayable",
      "type": "function"
    },
    {
      "constant": false,
      "inputs": [],
      "name": "destroy",
      "outputs": [],
      "payable": false,
      "stateMutability": "nonpayable",
      "type": "function"
    },
    {
      "constant": false,
      "inputs": [
        {
          "name": "_tokenExtension",
          "type": "address"
        }
      ],
      "name": "registerTokenExtension",
      "outputs": [
        {
          "name": "",
          "type": "uint256"
        }
      ],
      "payable": false,
      "stateMutability": "nonpayable",
      "type": "function"
    },
    {
      "constant": false,
      "inputs": [
        {
          "name": "_platform",
          "type": "address"
        },
        {
          "name": "_tokenExtension",
          "type": "address"
        }
      ],
      "name": "emitTokenExtensionRegistered",
      "outputs": [],
      "payable": false,
      "stateMutability": "nonpayable",
      "type": "function"
    },
    {
      "constant": true,
      "inputs": [],
      "name": "getTokenFactory",
      "outputs": [
        {
          "name": "",
          "type": "address"
        }
      ],
      "payable": false,
      "stateMutability": "view",
      "type": "function"
    },
    {
      "constant": false,
      "inputs": [
        {
          "name": "_platform",
          "type": "address"
        },
        {
          "name": "_tokenExtension",
          "type": "address"
        }
      ],
      "name": "emitTokenExtensionRequested",
      "outputs": [],
      "payable": false,
      "stateMutability": "nonpayable",
      "type": "function"
    },
    {
      "constant": false,
      "inputs": [
        {
          "name": "_to",
          "type": "address"
        }
      ],
      "name": "transferContractOwnership",
      "outputs": [
        {
          "name": "",
          "type": "bool"
        }
      ],
      "payable": false,
      "stateMutability": "nonpayable",
      "type": "function"
    },
    {
      "constant": false,
      "inputs": [
        {
          "name": "_tokenExtensionFactory",
          "type": "address"
        }
      ],
      "name": "setTokenExtensionFactory",
      "outputs": [
        {
          "name": "",
          "type": "uint256"
        }
      ],
      "payable": false,
      "stateMutability": "nonpayable",
      "type": "function"
    },
    {
      "constant": false,
      "inputs": [
        {
          "name": "_platform",
          "type": "address"
        }
      ],
      "name": "requestTokenExtension",
      "outputs": [
        {
          "name": "",
          "type": "uint256"
        }
      ],
      "payable": false,
      "stateMutability": "nonpayable",
      "type": "function"
    },
    {
      "constant": true,
      "inputs": [],
      "name": "contractOwner",
      "outputs": [
        {
          "name": "",
          "type": "address"
        }
      ],
      "payable": false,
      "stateMutability": "view",
      "type": "function"
    },
    {
      "constant": true,
      "inputs": [
        {
          "name": "_symbol",
          "type": "bytes32"
        }
      ],
      "name": "isAssetSymbolExists",
      "outputs": [
        {
          "name": "",
          "type": "bool"
        }
      ],
      "payable": false,
      "stateMutability": "view",
      "type": "function"
    },
    {
      "constant": false,
      "inputs": [
        {
          "name": "tokens",
          "type": "address[]"
        },
        {
          "name": "_to",
          "type": "address"
        }
      ],
      "name": "withdrawnTokens",
      "outputs": [
        {
          "name": "",
          "type": "uint256"
        }
      ],
      "payable": false,
      "stateMutability": "nonpayable",
      "type": "function"
    },
    {
      "constant": false,
      "inputs": [
        {
          "name": "_tokenExtension",
          "type": "address"
        }
      ],
      "name": "unregisterTokenExtension",
      "outputs": [
        {
          "name": "",
          "type": "uint256"
        }
      ],
      "payable": false,
      "stateMutability": "nonpayable",
      "type": "function"
    },
    {
      "constant": false,
      "inputs": [
        {
          "name": "errorCode",
          "type": "uint256"
        }
      ],
      "name": "emitError",
      "outputs": [],
      "payable": false,
      "stateMutability": "nonpayable",
      "type": "function"
    },
    {
      "constant": true,
      "inputs": [
        {
          "name": "_platform",
          "type": "address"
        }
      ],
      "name": "getTokenExtension",
      "outputs": [
        {
          "name": "",
          "type": "address"
        }
      ],
      "payable": false,
      "stateMutability": "view",
      "type": "function"
    },
    {
      "constant": true,
      "inputs": [
        {
          "name": "key",
          "type": "address"
        }
      ],
      "name": "isAuthorized",
      "outputs": [
        {
          "name": "",
          "type": "bool"
        }
      ],
      "payable": false,
      "stateMutability": "view",
      "type": "function"
    },
    {
      "constant": true,
      "inputs": [],
      "name": "getEventsHistory",
      "outputs": [
        {
          "name": "",
          "type": "address"
        }
      ],
      "payable": false,
      "stateMutability": "view",
      "type": "function"
    },
    {
      "inputs": [
        {
          "name": "_store",
          "type": "address"
        },
        {
          "name": "_crate",
          "type": "bytes32"
        }
      ],
      "payable": false,
      "stateMutability": "nonpayable",
      "type": "constructor"
    },
    {
      "anonymous": false,
      "inputs": [
        {
          "indexed": true,
          "name": "self",
          "type": "address"
        },
        {
          "indexed": false,
          "name": "errorCode",
          "type": "uint256"
        }
      ],
      "name": "Error",
      "type": "event"
    },
    {
      "anonymous": false,
      "inputs": [
        {
          "indexed": true,
          "name": "self",
          "type": "address"
        },
        {
          "indexed": false,
          "name": "platform",
          "type": "address"
        },
        {
          "indexed": false,
          "name": "tokenExtension",
          "type": "address"
        }
      ],
      "name": "TokenExtensionRequested",
      "type": "event"
    },
    {
      "anonymous": false,
      "inputs": [
        {
          "indexed": true,
          "name": "self",
          "type": "address"
        },
        {
          "indexed": false,
          "name": "platform",
          "type": "address"
        },
        {
          "indexed": false,
          "name": "tokenExtension",
          "type": "address"
        }
      ],
      "name": "TokenExtensionRegistered",
      "type": "event"
    },
    {
      "anonymous": false,
      "inputs": [
        {
          "indexed": true,
          "name": "self",
          "type": "address"
        },
        {
          "indexed": false,
          "name": "tokenExtension",
          "type": "address"
        }
      ],
      "name": "TokenExtensionUnregistered",
      "type": "event"
    }
  ],
  "bytecode": "0x606060405234156200001057600080fd5b6040516040806200285c8339810160405280805191906020018051915082905081818181816200005160008383640100000000620022776200017f82021704565b505060028054600160a060020a03338116600160a060020a03199283161790925560058054309093169290911691909117905550620000c69250600691507f746f6b656e457874656e73696f6e466163746f7279000000000000000000000090506401000000006200229d620001a582021704565b6200010160077f746f6b656e466163746f727900000000000000000000000000000000000000006401000000006200229d620001a582021704565b6200013c60087f7631706c6174666f726d546f457874656e73696f6e0000000000000000000000640100000000620022ad620001c582021704565b6200017760097f7631746f6b656e457874656e73696f6e73000000000000000000000000000000640100000000620022b7620001e382021704565b5050620003d4565b8254600160a060020a031916600160a060020a0392909216919091178255600190910155565b8154620001c19082640100000000620022c1620001fd82021704565b9055565b620001df82826401000000006200229d620001a582021704565b5050565b620001df8282640100000000620022e36200021582021704565b811515806200020a575080155b15620001df57600080fd5b6200026c82826040519081527f75696e742f636f756e74000000000000000000000000000000000000000000006020820152602a016040518091039020620001a5640100000000026200229d176401000000009004565b620002c682600101826040519081527f75696e742f6669727374000000000000000000000000000000000000000000006020820152602a016040518091039020620001a5640100000000026200229d176401000000009004565b6200032082600201826040519081527f75696e742f6c617374000000000000000000000000000000000000000000000060208201526029016040518091039020620001a5640100000000026200229d176401000000009004565b6200037a82600301826040519081527f75696e742f6e657874000000000000000000000000000000000000000000000060208201526029016040518091039020620001a5640100000000026200229d176401000000009004565b620001df82600401826040519081527f75696e742f70726576000000000000000000000000000000000000000000000060208201526029016040518091039020620001a5640100000000026200229d176401000000009004565b61247880620003e46000396000f30060606040526004361061017c5763ffffffff60e060020a60003504166317db10718114610181578063184b9559146101b857806325742b46146101e357806328aea08b146102195780632cd060ce1461024b5780632d305c82146102735780632f73a9f81461029457806344ef3ea5146102b35780634592cd1d146102c65780634fe59012146102d957806353253d31146102ef578063557f4bc9146103025780635aa77d3c146103215780636521afd7146103345780636bc8acf51461035357806371d3b5731461037257806383197ef01461039157806389c165d0146103a45780638f8068bb146103c3578063925d6ba2146103e85780639e6c2765146103fb578063a843c51f14610420578063b5fb84211461043f578063c97f57871461045e578063ce606ee01461047d578063d5ed0d1714610490578063d8f9659b146104a6578063db06471f14610500578063df26ca081461051f578063e5ebb7a514610535578063fe9fbb8014610554578063fff10aba14610573575b600080fd5b341561018c57600080fd5b6101a6600160a060020a0360043581169060243516610586565b60405190815260200160405180910390f35b34156101c357600080fd5b6101a6600160a060020a0360043581169060243581169060443516610770565b34156101ee57600080fd5b610205600435600160a060020a03602435166107d5565b604051901515815260200160405180910390f35b341561022457600080fd5b61022f60043561093a565b604051600160a060020a03909116815260200160405180910390f35b341561025657600080fd5b6101a6600160a060020a03600435811690602435166044356109d5565b341561027e57600080fd5b610292600160a060020a0360043516610bdb565b005b341561029f57600080fd5b6101a6600160a060020a0360043516610c2c565b34156102be57600080fd5b61022f610c76565b34156102d157600080fd5b610205610c8f565b34156102e457600080fd5b61022f600435610cdb565b34156102fa57600080fd5b61022f610d5f565b341561030d57600080fd5b610205600160a060020a0360043516610d6e565b341561032c57600080fd5b61022f610dc5565b341561033f57600080fd5b610292600160a060020a0360043516610dd4565b341561035e57600080fd5b610205600160a060020a0360043516610e0a565b341561037d57600080fd5b610292600160a060020a0360043516610e24565b341561039c57600080fd5b610292610e5b565b34156103af57600080fd5b6101a6600160a060020a0360043516610ef1565b34156103ce57600080fd5b610292600160a060020a03600435811690602435166110a8565b34156103f357600080fd5b61022f611103565b341561040657600080fd5b610292600160a060020a0360043581169060243516611116565b341561042b57600080fd5b610205600160a060020a0360043516611171565b341561044a57600080fd5b6101a6600160a060020a03600435166111ea565b341561046957600080fd5b6101a6600160a060020a036004351661122c565b341561048857600080fd5b61022f6112fa565b341561049b57600080fd5b610205600435611309565b34156104b157600080fd5b6101a6600460248135818101908301358060208181020160405190810160405280939291908181526020018383602002808284375094965050509235600160a060020a03169250611325915050565b341561050b57600080fd5b6101a6600160a060020a0360043516611476565b341561052a57600080fd5b610292600435611683565b341561054057600080fd5b61022f600160a060020a03600435166116ca565b341561055f57600080fd5b610205600160a060020a03600435166116de565b341561057e57600080fd5b61022f611784565b600080600080600080610598886116ca565b945084600160a060020a03166394d0169f6000604051602001526040518163ffffffff1660e060020a028152600401602060405180830381600087803b15156105e057600080fd5b6102c65a03f115156105f157600080fd5b5050506040518051945050600160a060020a03841663ecac7f4b6000604051602001526040518163ffffffff1660e060020a028152600401602060405180830381600087803b151561064257600080fd5b6102c65a03f1151561065357600080fd5b5050506040518051935060009250505b828210156107655783600160a060020a031663ccce413b8360006040516020015260405160e060020a63ffffffff84160281526004810191909152602401602060405180830381600087803b15156106ba57600080fd5b6102c65a03f115156106cb57600080fd5b5050506040518051915050600160a060020a03841663ccc11f11888360006040516020015260405160e060020a63ffffffff8516028152600160a060020a0390921660048301526024820152604401602060405180830381600087803b151561073357600080fd5b6102c65a03f1151561074457600080fd5b505050604051805190501561075a578560010195505b816001019150610663565b505050505092915050565b60025460009033600160a060020a03908116911614156107ce576107b4847f4173736574734d616e6167657200000000000000000000000000000000000000611793565b506107be836111ea565b506107c882610c2c565b50600190505b9392505050565b60008060008060006107e68761093a565b935083600160a060020a03166349752baf6000604051602001526040518163ffffffff1660e060020a028152600401602060405180830381600087803b151561082e57600080fd5b6102c65a03f1151561083f57600080fd5b505050604051805190509250610854836116ca565b915081600160a060020a03166394d0169f6000604051602001526040518163ffffffff1660e060020a028152600401602060405180830381600087803b151561089c57600080fd5b6102c65a03f115156108ad57600080fd5b5050506040518051915050600160a060020a03811663ccc11f11878960006040516020015260405160e060020a63ffffffff8516028152600160a060020a0390921660048301526024820152604401602060405180830381600087803b151561091557600080fd5b6102c65a03f1151561092657600080fd5b505050604051805198975050505050505050565b60006109657f45524332304d616e616765720000000000000000000000000000000000000000610cdb565b600160a060020a031663fa7fdeb78360006040516020015260405160e060020a63ffffffff84160281526004810191909152602401602060405180830381600087803b15156109b357600080fd5b6102c65a03f115156109c457600080fd5b50505060405180519150505b919050565b60008060008060008060006109e98a6116ca565b955085600160a060020a03166394d0169f6000604051602001526040518163ffffffff1660e060020a028152600401602060405180830381600087803b1515610a3157600080fd5b6102c65a03f11515610a4257600080fd5b505050604051805195505060001988019350600160a060020a03851663ecac7f4b6000604051602001526040518163ffffffff1660e060020a028152600401602060405180830381600087803b1515610a9a57600080fd5b6102c65a03f11515610aab57600080fd5b50505060405180519350889250505b82821015610bce5784600160a060020a031663ccce413b8360006040516020015260405160e060020a63ffffffff84160281526004810191909152602401602060405180830381600087803b1515610b1157600080fd5b6102c65a03f11515610b2257600080fd5b5050506040518051915050600160a060020a03851663ccc11f118a8360006040516020015260405160e060020a63ffffffff8516028152600160a060020a0390921660048301526024820152604401602060405180830381600087803b1515610b8a57600080fd5b6102c65a03f11515610b9b57600080fd5b505050604051805190508015610bb657508784600101945084145b15610bc357809650610bce565b816001019150610aba565b5050505050509392505050565b610be3611984565b600160a060020a03167f3f50f7daabc6e49127dd3b03b7f7326b60b1ae07a5f8956899da1fd1b51b055482604051600160a060020a03909116815260200160405180910390a250565b60025460009033600160a060020a03908116911614156109d057600160a060020a0382161515610c5b57600080fd5b610c6e600060078463ffffffff61198816565b506001919050565b6000610c8981600663ffffffff611a0a16565b90505b90565b60035460009033600160a060020a03908116911614610cb057506000610c8c565b506003805460028054600160a060020a0319908116600160a060020a03841617909155169055600190565b600454600090600160a060020a031663bc65792783836040516020015260405160e060020a63ffffffff84160281526004810191909152602401602060405180830381600087803b1515610d2e57600080fd5b6102c65a03f11515610d3f57600080fd5b5050506040518051915050600160a060020a03811615156109d057600080fd5b600454600160a060020a031681565b60025460009033600160a060020a03908116911614156109d057600160a060020a0382161515610da0575060006109d0565b5060038054600160a060020a038316600160a060020a03199091161790556001919050565b600354600160a060020a031681565b60025433600160a060020a0390811691161415610e075760058054600160a060020a031916600160a060020a0383161790555b50565b6000610e1e8160098463ffffffff611a6916565b92915050565b60025433600160a060020a0390811691161415610e075760048054600160a060020a038316600160a060020a031990911617905550565b60025433600160a060020a0390811691161415610eef57600454600160a060020a031663c375c2ef3060006040516020015260405160e060020a63ffffffff8416028152600160a060020a039091166004820152602401602060405180830381600087803b1515610ecb57600080fd5b6102c65a03f11515610edc57600080fd5b5050506040518051905050610eef611a87565b565b60008082600160a060020a0316634bde38c86000604051602001526040518163ffffffff1660e060020a028152600401602060405180830381600087803b1515610f3a57600080fd5b6102c65a03f11515610f4b57600080fd5b5050506040518051905033600160a060020a031681600160a060020a031663ce606ee06000604051602001526040518163ffffffff1660e060020a028152600401602060405180830381600087803b1515610fa557600080fd5b6102c65a03f11515610fb657600080fd5b50505060405180519050600160a060020a031614156110a157610fe2600060098663ffffffff611a6916565b15610ff957610ff2617533611aaa565b92506110a1565b83600160a060020a0316634bde38c86000604051602001526040518163ffffffff1660e060020a028152600401602060405180830381600087803b151561103f57600080fd5b6102c65a03f1151561105057600080fd5b5050506040518051925061106f9050600060088463ffffffff611b1316565b600160a060020a03161561108857610ff2617533611aaa565b6110928285611b29565b61109c8285611bd5565b600192505b5050919050565b6110b0611984565b600160a060020a03167fadaec20b36aa073df965798f4aa38bd5cedd19491766793d87792ae08c4bae9d8383604051600160a060020a039283168152911660208201526040908101905180910390a25050565b6000610c8981600763ffffffff611a0a16565b61111e611984565b600160a060020a03167ff149a753669bf8ae72a54d5becee2a0f78297c8513b9c74bac5aa1acd59a84268383604051600160a060020a039283168152911660208201526040908101905180910390a25050565b60025460009033600160a060020a03908116911614156109d057600160a060020a03821615156111a3575060006109d0565b600354600160a060020a0316156111c55760038054600160a060020a03191690555b5060028054600160a060020a038316600160a060020a03199091161790556001919050565b60025460009033600160a060020a03908116911614156109d057600160a060020a038216151561121957600080fd5b610c6e600060068463ffffffff61198816565b600080600061123a846116ca565b9150600160a060020a0382161561125e576112558483611c4a565b600192506110a1565b6112706000600663ffffffff611a0a16565b905080600160a060020a0316635218dbea8560006040516020015260405160e060020a63ffffffff8416028152600160a060020a039091166004820152602401602060405180830381600087803b15156112c957600080fd5b6102c65a03f115156112da57600080fd5b5050506040518051905091506112f08483611b29565b61109c8483611c4a565b600254600160a060020a031681565b60006113148261093a565b600160a060020a0316151592915050565b60025460009081908190819033600160a060020a039081169116141561146d57600092505b85518310156114685785838151811061135f57fe5b90602001906020020151915081600160a060020a03166370a082313060006040516020015260405160e060020a63ffffffff8416028152600160a060020a039091166004820152602401602060405180830381600087803b15156113c257600080fd5b6102c65a03f115156113d357600080fd5b5050506040518051915050801561145d5781600160a060020a031663a9059cbb868360006040516020015260405160e060020a63ffffffff8516028152600160a060020a0390921660048301526024820152604401602060405180830381600087803b151561144157600080fd5b6102c65a03f1151561145257600080fd5b505050604051805150505b60019092019161134a565b600193505b50505092915050565b600081600160a060020a0316634bde38c86000604051602001526040518163ffffffff1660e060020a028152600401602060405180830381600087803b15156114be57600080fd5b6102c65a03f115156114cf57600080fd5b5050506040518051905033600160a060020a031681600160a060020a031663ce606ee06000604051602001526040518163ffffffff1660e060020a028152600401602060405180830381600087803b151561152957600080fd5b6102c65a03f1151561153a57600080fd5b50505060405180519050600160a060020a0316141561167d57611566600060098563ffffffff611a6916565b151561157e57611577617532611aaa565b915061167d565b611591600060098563ffffffff611ca716565b611606600884600160a060020a0316634bde38c86000604051602001526040518163ffffffff1660e060020a028152600401602060405180830381600087803b15156115dc57600080fd5b6102c65a03f115156115ed57600080fd5b505050604051805160009291508263ffffffff611cc016565b61160e611784565b600160a060020a031663ab0da5a98460405160e060020a63ffffffff8416028152600160a060020a039091166004820152602401600060405180830381600087803b151561165b57600080fd5b6102c65a03f1151561166c57600080fd5b50505061167883611cde565b600191505b50919050565b61168b611984565b600160a060020a03167f9cf38cf2dbf9139f5c32639950507b10775fbbe0421f3e168bc2d1bb1ae3208c8260405190815260200160405180910390a250565b6000610e1e8160088463ffffffff611b1316565b60008061170a7f557365724d616e61676572000000000000000000000000000000000000000000610cdb565b905080600160a060020a0316632aa09e5a8460006040516020015260405160e060020a63ffffffff8416028152600160a060020a039091166004820152602401602060405180830381600087803b151561176357600080fd5b6102c65a03f1151561177457600080fd5b5050506040518051949350505050565b600554600160a060020a031690565b60025460009081908190819033600160a060020a039081169116146117b757600080fd5b600160a060020a03861615156117cc57600080fd5b600454600160a060020a03161580159350806117f65750600454600160a060020a03878116911614155b156118175760048054600160a060020a031916600160a060020a0388161790555b600454600160a060020a031691508163bc65792760006040516020015260405160e060020a63ffffffff83160281527f4d756c74694576656e7473486973746f727900000000000000000000000000006004820152602401602060405180830381600087803b151561188857600080fd5b6102c65a03f1151561189957600080fd5b5050506040518051915050600160a060020a038116158015906118ca5750600554600160a060020a03828116911614155b156118eb5760058054600160a060020a031916600160a060020a0383161790555b84156119725781600160a060020a031663b7c46cd5308760006040516020015260405160e060020a63ffffffff8516028152600160a060020a0390921660048301526024820152604401602060405180830381600087803b151561194e57600080fd5b6102c65a03f1151561195f57600080fd5b5050506040518051600114905061197257fe5b82156114685760069695505050505050565b3390565b825460018401548354600160a060020a03909216916379a7cfee91908460405160e060020a63ffffffff861602815260048101939093526024830191909152600160a060020a03166044820152606401600060405180830381600087803b15156119f157600080fd5b6102c65a03f11515611a0257600080fd5b505050505050565b815460018301548254600092600160a060020a03169163d3a3968691846040516020015260405160e060020a63ffffffff851602815260048101929092526024820152604401602060405180830381600087803b151561176357600080fd5b6000611a7f8484600160a060020a038516611d44565b949350505050565b60025433600160a060020a0390811691161415610eef5733600160a060020a0316ff5b6000611ab4611784565b600160a060020a031663df26ca088360405160e060020a63ffffffff84160281526004810191909152602401600060405180830381600087803b1515611af957600080fd5b6102c65a03f11515611b0a57600080fd5b50929392505050565b6000611a7f8484600160a060020a038516611d72565b611b31611784565b600160a060020a031663b6a5d7de8260006040516020015260405160e060020a63ffffffff8416028152600160a060020a039091166004820152602401602060405180830381600087803b1515611b8757600080fd5b6102c65a03f11515611b9857600080fd5b505050604051805190501515611baa57fe5b611bbd600060098363ffffffff611e0c16565b611bd160006008848463ffffffff611cc016565b5050565b611bdd611784565b600160a060020a0316638f8068bb838360405160e060020a63ffffffff8516028152600160a060020a03928316600482015291166024820152604401600060405180830381600087803b1515611c3257600080fd5b6102c65a03f11515611c4357600080fd5b5050505050565b611c52611784565b600160a060020a0316639e6c2765838360405160e060020a63ffffffff8516028152600160a060020a03928316600482015291166024820152604401600060405180830381600087803b1515611c3257600080fd5b611cbb8383600160a060020a038416611e20565b505050565b611cd88484600160a060020a03808616908516611e4c565b50505050565b611ce6611784565b600160a060020a0316632d305c828260405160e060020a63ffffffff8416028152600160a060020a039091166004820152602401600060405180830381600087803b1515611d3357600080fd5b6102c65a03f11515611cd857600080fd5b6000611a7f84847f6f7264657265645f73657400000000000000000000000000000000000000000085611ede565b825460018401548354600092600160a060020a0316916337d9d7fc9185604051918252602082015260409081019051809103902060006040516020015260405160e060020a63ffffffff851602815260048101929092526024820152604401602060405180830381600087803b1515611dea57600080fd5b6102c65a03f11515611dfb57600080fd5b505050604051805195945050505050565b611cbb8383600160a060020a038416611f1b565b611cbb83837f6f7264657265645f73657400000000000000000000000000000000000000000084611f47565b835460018501548454600160a060020a039092169163a14ff85791908560405191825260208201526040908101905180910390208460405160e060020a63ffffffff8616028152600481019390935260248301919091526044820152606401600060405180830381600087803b1515611ec457600080fd5b6102c65a03f11515611ed557600080fd5b50505050505050565b60008115801590611f125750611ef985856003018585612047565b151580611f12575081611f10866002870186611d72565b145b95945050505050565b611cbb83837f6f7264657265645f7365740000000000000000000000000000000000000000008461206c565b611f5384848484611ede565b1515611f5e57611cd8565b611f8a848460030184611f7688886004018888612047565b611f8589896003018989612047565b61212f565b611fb1848460040184611fa288886003018888612047565b611f8589896004018989612047565b611fbf848460010184611d72565b811415611fe357611fe3848460010184611fde88886003018888612047565b611e4c565b611ff1848460020184611d72565b81141561201057612010848460020184611fde88886004018888612047565b61201f84846003018484612142565b61202e84846004018484612142565b611cd88484846001612041848484612156565b036121ce565b6000611f12858585856040519182526020820152604090810190518091039020611d72565b80151561207857600080fd5b61208484848484611ede565b1561208e57611cd8565b612099848484612246565b15156120ae576120ae84846001018484611e4c565b6120bc848460020184611d72565b156120f6576120de8484600301846120d8888860020188611d72565b8561212f565b6120f684846004018484611f85898960020189611d72565b61210784600385018484600061212f565b61211684846002018484611e4c565b611cd8848484612127838383612156565b6001016121ce565b8115611c4357611c438585858585612253565b8015611cd857611cd8848484846000612253565b825460018401548354600092600160a060020a0316916353aa3f5e9185604051918252602082015260409081019051809103902060006040516020015260405160e060020a63ffffffff851602815260048101929092526024820152604401602060405180830381600087803b1515611dea57600080fd5b835460018501548454600160a060020a03909216916353e7168b91908560405191825260208201526040908101905180910390208460405160e060020a63ffffffff8616028152600481019390935260248301919091526044820152606401600060405180830381600087803b1515611ec457600080fd5b6000611a7f848484612156565b611c4385858585604051918252602082015260409081019051809103902084611e4c565b8254600160a060020a031916600160a060020a0392909216919091178255600190910155565b81546122a990826122c1565b9055565b611bd1828261229d565b611bd182826122e3565b811515806122cd575080155b15611bd157600080fd5b81546122a990826122c1565b61232482826040519081527f75696e742f636f756e74000000000000000000000000000000000000000000006020820152602a01604051809103902061229d565b61236882600101826040519081527f75696e742f6669727374000000000000000000000000000000000000000000006020820152602a01604051809103902061229d565b6123ac82600201826040519081527f75696e742f6c61737400000000000000000000000000000000000000000000006020820152602901604051809103902061229d565b6123f082600301826040519081527f75696e742f6e65787400000000000000000000000000000000000000000000006020820152602901604051809103902061229d565b611bd182600401826040519081527f75696e742f7072657600000000000000000000000000000000000000000000006020820152602901604051809103902061229d565b81546122a990826122c1565b81546122a990826122c15600a165627a7a723058201529f2a5d30e1c3b5274a0f360f88d488fd85b61e779a0c618421fe1aed5bdf00029",
  "source": "pragma solidity ^0.4.11;\n\nimport \"../core/common/BaseManager.sol\";\nimport \"../core/common/Once.sol\";\nimport \"../core/erc20/ERC20ManagerInterface.sol\";\nimport \"../core/platform/ChronoBankAssetProxyInterface.sol\";\nimport \"../core/platform/ChronoBankAssetOwnershipManager.sol\";\nimport \"../core/platform/ChronoBankPlatformInterface.sol\";\nimport \"../core/platform/ChronoBankPlatform.sol\";\nimport \"./TokenManagementInterface.sol\";\nimport \"./AssetsManagerInterface.sol\";\nimport \"./AssetsManagerEmitter.sol\";\n\n\ncontract OwnedContract {\n    address public contractOwner;\n}\n\n\ncontract TokenExtensionsFactory {\n    function createTokenExtension(address _platform) public returns (address);\n}\n\n\ncontract EventsHistory {\n    function authorize(address _eventEmitter) public returns (bool);\n    function reject(address _eventEmitter) public;\n}\n\n\n/// @title AssetsManager is a helper contract which allows centralized access to tokens' management\n/// on top of chronobank platforms. It is used in pair with PlatformsManager and provides\n/// a creation of token extensions for platforms.\n/// Contract also has methods for quick access to token info such as:\n/// - token address by symbol,\n/// - if token exists in a system,\n/// - if a user is a owner of a token.\ncontract AssetsManager is AssetsManagerInterface, TokenExtensionRegistry, BaseManager, AssetsManagerEmitter {\n\n    /** Error codes */\n\n    uint constant ERROR_ASSETS_MANAGER_SCOPE = 30000;\n    uint constant ERROR_ASSETS_MANAGER_INVALID_INVOCATION = ERROR_ASSETS_MANAGER_SCOPE + 2;\n    uint constant ERROR_ASSETS_MANAGER_EXTENSION_ALREADY_EXISTS = ERROR_ASSETS_MANAGER_SCOPE + 3;\n\n    /** Storage keys */\n\n    /// @dev address of a token extension factory contract\n    StorageInterface.Address tokenExtensionFactory;\n\n    /// @dev address of a token and proxy factory contract\n    StorageInterface.Address tokenFactory;\n\n    /// @dev mapping (address => address) stands for (platform => tokenExtension)\n    StorageInterface.AddressAddressMapping platformToExtension;\n\n    /// @dev collection of addresses of token extensions registered in AssetsManager\n    StorageInterface.OrderedAddressesSet tokenExtensions;\n\n    /// @dev Guards methods for callers that are owners of a platform\n    modifier onlyPlatformOwner(address _platform) {\n        if (OwnedContract(_platform).contractOwner() == msg.sender) {\n            _;\n        }\n    }\n\n    /// @notice Constructor function\n    /// @param _store link to a global storage\n    /// @param _crate namespace in a storage\n    function AssetsManager(Storage _store, bytes32 _crate) BaseManager(_store, _crate) public {\n        tokenExtensionFactory.init(\"tokenExtensionFactory\");\n        tokenFactory.init(\"tokenFactory\");\n        platformToExtension.init(\"v1platformToExtension\");\n        tokenExtensions.init(\"v1tokenExtensions\");\n    }\n\n    /// @notice Initalizer. Used by contract owner to initialize and re-initialize contract after deploying new versions\n    /// of related dependencies.\n    ///\n    /// @param _contractsManager contracts manager\n    /// @param _tokenExtensionFactory token extension factory address\n    /// @param _tokenFactory token and proxy factory address\n    ///\n    /// @return result code of an operation. `OK` if all went well\n    function init(\n        address _contractsManager,\n        address _tokenExtensionFactory,\n        address _tokenFactory\n    )\n    onlyContractOwner\n    public\n    returns (uint)\n    {\n        BaseManager.init(_contractsManager, \"AssetsManager\");\n        setTokenExtensionFactory(_tokenExtensionFactory);\n        setTokenFactory(_tokenFactory);\n\n        return OK;\n    }\n\n    /// @notice Gets an address of currenty used token extension factory\n    /// @return address of a factory\n    function getTokenExtensionFactory() public view returns (address) {\n        return store.get(tokenExtensionFactory);\n    }\n\n    /// @notice Sets a new address of token extension factory contract as currently used in AssetsManager\n    /// @param _tokenExtensionFactory address of an updated token extension factory contract\n    /// @return result code of an operation. `OK` if all went well\n    function setTokenExtensionFactory(address _tokenExtensionFactory) onlyContractOwner public returns (uint) {\n        require(_tokenExtensionFactory != 0x0);\n\n        store.set(tokenExtensionFactory, _tokenExtensionFactory);\n        return OK;\n    }\n\n    /// @notice Gets an address of currenty used token and proxy factory\n    /// @return address of a factory\n    function getTokenFactory() public view returns (address) {\n        return store.get(tokenFactory);\n    }\n\n    /// @notice Sets a new address of token and proxy factory contract as currently used in AssetsManager\n    /// @param _tokenFactory address of an updated token and proxy factory contract\n    /// @return result code of an operation. `OK` if all went well\n    function setTokenFactory(address _tokenFactory) onlyContractOwner public returns (uint) {\n        require(_tokenFactory != 0x0);\n\n        store.set(tokenFactory, _tokenFactory);\n        return OK;\n    }\n\n    /// @dev Checks if a provided token extension address is a part of the system\n    /// @param _tokenExtension address of a token extension\n    /// @return `true` if a token extension is inside AssetsManager, `false` otherwise\n    function containsTokenExtension(address _tokenExtension) public view returns (bool) {\n        return store.includes(tokenExtensions, _tokenExtension);\n    }\n\n    /// @notice Registers and stores token extension of a platform into the system. Mostly this method should be used\n    /// when platform's token extention was removed manually from AssetsManager or there was no token extension at all.\n    /// It is preferred to create token extension by calling requestTokenExtension: this will ensure that the latest\n    /// version of token extension contract will be used.\n    /// There might be ONLY ONE token extension at a time associated with a platform and be registered in the system.\n    /// Can be used only by platform's owner associated with this token extension.\n    ///\n    /// @param _tokenExtension address of token extension\n    ///\n    /// @return result code of an operation. ERROR_ASSETS_MANAGER_EXTENSION_ALREADY_EXISTS might be returned.\n    function registerTokenExtension(address _tokenExtension)\n    onlyPlatformOwner(TokenManagementInterface(_tokenExtension).platform())\n    public\n    returns (uint)\n    {\n        if (store.includes(tokenExtensions, _tokenExtension)) {\n            return _emitError(ERROR_ASSETS_MANAGER_EXTENSION_ALREADY_EXISTS);\n        }\n\n        address _platform = TokenManagementInterface(_tokenExtension).platform();\n        if (store.get(platformToExtension, _platform) != 0x0) {\n            return _emitError(ERROR_ASSETS_MANAGER_EXTENSION_ALREADY_EXISTS);\n        }\n\n        _setupTokenExtension(_platform, _tokenExtension);\n        _emitTokenExtensionRegistered(_platform, _tokenExtension);\n        return OK;\n    }\n\n    /// @notice Unregisters and removes token extension from the system. It should be used when you know what are you doing,\n    /// because it will remove record of token extension for a platform and to continue using an associated token extension\n    /// with platform you should register a new token extension address or request a brand new one (see `requestTokenExtension` method).\n    /// Can be used only by platform's owner associated with this token extension.\n    ///\n    /// @param _tokenExtension address of a token extension\n    ///\n    /// @return result code of an operation. ERROR_ASSETS_MANAGER_INVALID_INVOCATION might be returned.\n    function unregisterTokenExtension(address _tokenExtension)\n    onlyPlatformOwner(TokenManagementInterface(_tokenExtension).platform())\n    public\n    returns (uint)\n    {\n        if (!store.includes(tokenExtensions, _tokenExtension)) {\n            return _emitError(ERROR_ASSETS_MANAGER_INVALID_INVOCATION);\n        }\n\n        store.remove(tokenExtensions, _tokenExtension);\n        store.set(platformToExtension, TokenManagementInterface(_tokenExtension).platform(), 0x0);\n        EventsHistory(getEventsHistory()).reject(_tokenExtension);\n\n        _emitTokenExtensionUnregistered(_tokenExtension);\n        return OK;\n    }\n\n    /// @notice Provides a way to \"request\" (meant check if a token extension exists for a passed platform and if it doesn't then\n    /// create a new one).\n    /// @param _platform address of a platform for which token extension is requested\n    /// @return result code of an operation.\n    function requestTokenExtension(address _platform) public returns (uint) {\n        address _tokenExtension = getTokenExtension(_platform);\n        if (_tokenExtension != 0x0) {\n            _emitTokenExtensionRequested(_platform, _tokenExtension);\n            return OK;\n        }\n\n        TokenExtensionsFactory _extensionsFactory = TokenExtensionsFactory(store.get(tokenExtensionFactory));\n        _tokenExtension = _extensionsFactory.createTokenExtension(_platform);\n        _setupTokenExtension(_platform, _tokenExtension);\n\n        _emitTokenExtensionRequested(_platform, _tokenExtension);\n        return OK;\n    }\n\n    /// @notice Gets an associated token extension address with provided platform. If no token extension was found\n    /// then return 0x0.\n    /// @param _platform platform address for associated token extension\n    /// @return address of found token extension\n    function getTokenExtension(address _platform) public view returns (address) {\n        return store.get(platformToExtension, _platform);\n    }\n\n    /// @notice Checks if a user has access rights and an owner of a token with provided symbol\n    /// @param _symbol symbol associated with some token\n    /// @param _user a user which should be tested for ownership\n    /// @return `true` if a user is an owner, `false` otherwise\n    function isAssetOwner(bytes32 _symbol, address _user) public view returns (bool) {\n        address _token = getAssetBySymbol(_symbol);\n        address _platform = ChronoBankAssetProxyInterface(_token).chronoBankPlatform();\n        address _tokenExtension = getTokenExtension(_platform);\n        address _assetOwnershipManager = TokenManagementInterface(_tokenExtension).getAssetOwnershipManager();\n        return ChronoBankAssetOwnershipManager(_assetOwnershipManager).hasAssetRights(_user, _symbol);\n    }\n\n    /// @notice Checks if a token with such symbol is registered in the system\n    /// @param _symbol symbol associated with some token\n    /// @return `true` if token with passed symbol exists, `false` otherwise\n    function isAssetSymbolExists(bytes32 _symbol) public view returns (bool) {\n        return getAssetBySymbol(_symbol) != 0x0;\n    }\n\n    /// @notice Gets token's address which is associated with a symbol\n    /// @param _symbol symbol associated with some token\n    /// @return address of a token with passed symbol\n    function getAssetBySymbol(bytes32 _symbol) public view returns (address) {\n        return ERC20ManagerInterface(lookupManager(\"ERC20Manager\")).getTokenAddressBySymbol(_symbol);\n    }\n\n    /// @notice Gets a number of assets in a platform where passed user is an owner.\n    /// @param _platform hosting platform\n    /// @param _owner user to be checked for ownership\n    /// @return a number of assets in user's ownership\n    function getAssetsForOwnerCount(address _platform, address _owner) public view returns (uint count) {\n        TokenManagementInterface _tokenExtension = TokenManagementInterface(getTokenExtension(_platform));\n        ChronoBankAssetOwnershipManager _assetsOwnershipManager = ChronoBankAssetOwnershipManager(_tokenExtension.getAssetOwnershipManager());\n\n        uint symbolsCount = _assetsOwnershipManager.symbolsCount();\n        for (uint symbolsIdx = 0; symbolsIdx < symbolsCount; ++symbolsIdx) {\n            bytes32 _symbol = _assetsOwnershipManager.symbols(symbolsIdx);\n            if (_assetsOwnershipManager.hasAssetRights(_owner, _symbol)) {\n                ++count;\n            }\n        }\n    }\n\n    /// @notice Returns the exact asset symbol hosted in a platform with passed user as an owner by accessing it by index.\n    ///\n    /// @param _platform hosting platform\n    /// @param _owner user to be checked for ownership\n    /// @param _idx index of a symbol. Should no more than number of assets for this owner minus 1\n    ///\n    /// @return symbol of an asset\n    function getAssetForOwnerAtIndex(\n        address _platform,\n        address _owner,\n        uint _idx\n    )\n    public\n    view\n    returns (bytes32)\n    {\n        TokenManagementInterface _tokenExtension = TokenManagementInterface(getTokenExtension(_platform));\n        ChronoBankAssetOwnershipManager _assetsOwnershipManager = ChronoBankAssetOwnershipManager(_tokenExtension.getAssetOwnershipManager());\n\n        uint currentIdx = _idx - 1;\n        uint symbolsCount = _assetsOwnershipManager.symbolsCount();\n        for (uint symbolsIdx = _idx; symbolsIdx < symbolsCount; ++symbolsIdx) {\n            bytes32 _symbol = _assetsOwnershipManager.symbols(symbolsIdx);\n            if (_assetsOwnershipManager.hasAssetRights(_owner, _symbol) && ++currentIdx == _idx) {\n                return _symbol;\n            }\n        }\n    }\n\n    /** Helper functions */\n\n    /// @dev Binds some internal variables during token extension setup. PRIVATE\n    function _setupTokenExtension(address _platform, address _tokenExtension) private {\n        assert(EventsHistory(getEventsHistory()).authorize(_tokenExtension));\n\n        store.add(tokenExtensions, _tokenExtension);\n        store.set(platformToExtension, _platform, _tokenExtension);\n    }\n\n    /** Events emitting */\n\n    function _emitError(uint _errorCode) private returns (uint) {\n        AssetsManagerEmitter(getEventsHistory()).emitError(_errorCode);\n        return _errorCode;\n    }\n\n    function _emitTokenExtensionRequested(address _platform, address _tokenExtension) private {\n        AssetsManagerEmitter(getEventsHistory()).emitTokenExtensionRequested(_platform, _tokenExtension);\n    }\n\n    function _emitTokenExtensionRegistered(address _platform, address _tokenExtension) private {\n        AssetsManagerEmitter(getEventsHistory()).emitTokenExtensionRegistered(_platform, _tokenExtension);\n    }\n\n    function _emitTokenExtensionUnregistered(address _tokenExtension) private {\n        AssetsManagerEmitter(getEventsHistory()).emitTokenExtensionUnregistered(_tokenExtension);\n    }\n}\n",
  "sourcePath": "/Users/alesanro/Documents/Projects/ChronoBank/SmartContracts/contracts/assets/AssetsManager.sol",
  "compiler": {
    "name": "solc",
    "version": "0.4.19+commit.c4cbbb05.Emscripten.clang"
  },
  "schemaVersion": "2.0.0",
  "updatedAt": "2018-04-03T12:49:13.583Z"
}