{
  "contractName": "AssetsManager",
  "abi": [
    {
      "constant": false,
      "inputs": [
        {
          "name": "_tokenExtension",
          "type": "address"
        }
      ],
      "name": "emitTokenExtensionUnregistered",
      "outputs": [],
      "payable": false,
      "stateMutability": "nonpayable",
      "type": "function"
    },
    {
      "constant": false,
      "inputs": [],
      "name": "claimContractOwnership",
      "outputs": [
        {
          "name": "",
          "type": "bool"
        }
      ],
      "payable": false,
      "stateMutability": "nonpayable",
      "type": "function"
    },
    {
      "constant": true,
      "inputs": [
        {
          "name": "_identifier",
          "type": "bytes32"
        }
      ],
      "name": "lookupManager",
      "outputs": [
        {
          "name": "manager",
          "type": "address"
        }
      ],
      "payable": false,
      "stateMutability": "view",
      "type": "function"
    },
    {
      "constant": true,
      "inputs": [],
      "name": "contractsManager",
      "outputs": [
        {
          "name": "",
          "type": "address"
        }
      ],
      "payable": false,
      "stateMutability": "view",
      "type": "function"
    },
    {
      "constant": false,
      "inputs": [
        {
          "name": "_to",
          "type": "address"
        }
      ],
      "name": "changeContractOwnership",
      "outputs": [
        {
          "name": "",
          "type": "bool"
        }
      ],
      "payable": false,
      "stateMutability": "nonpayable",
      "type": "function"
    },
    {
      "constant": true,
      "inputs": [],
      "name": "pendingContractOwner",
      "outputs": [
        {
          "name": "",
          "type": "address"
        }
      ],
      "payable": false,
      "stateMutability": "view",
      "type": "function"
    },
    {
      "constant": false,
      "inputs": [
        {
          "name": "_eventsHistory",
          "type": "address"
        }
      ],
      "name": "setEventsHistory",
      "outputs": [],
      "payable": false,
      "stateMutability": "nonpayable",
      "type": "function"
    },
    {
      "constant": false,
      "inputs": [
        {
          "name": "_contractsManager",
          "type": "address"
        }
      ],
      "name": "setContractsManager",
      "outputs": [],
      "payable": false,
      "stateMutability": "nonpayable",
      "type": "function"
    },
    {
      "constant": false,
      "inputs": [],
      "name": "destroy",
      "outputs": [],
      "payable": false,
      "stateMutability": "nonpayable",
      "type": "function"
    },
    {
      "constant": false,
      "inputs": [
        {
          "name": "_platform",
          "type": "address"
        },
        {
          "name": "_tokenExtension",
          "type": "address"
        }
      ],
      "name": "emitTokenExtensionRegistered",
      "outputs": [],
      "payable": false,
      "stateMutability": "nonpayable",
      "type": "function"
    },
    {
      "constant": false,
      "inputs": [
        {
          "name": "_platform",
          "type": "address"
        },
        {
          "name": "_tokenExtension",
          "type": "address"
        }
      ],
      "name": "emitTokenExtensionRequested",
      "outputs": [],
      "payable": false,
      "stateMutability": "nonpayable",
      "type": "function"
    },
    {
      "constant": false,
      "inputs": [
        {
          "name": "_to",
          "type": "address"
        }
      ],
      "name": "transferContractOwnership",
      "outputs": [
        {
          "name": "",
          "type": "bool"
        }
      ],
      "payable": false,
      "stateMutability": "nonpayable",
      "type": "function"
    },
    {
      "constant": true,
      "inputs": [],
      "name": "contractOwner",
      "outputs": [
        {
          "name": "",
          "type": "address"
        }
      ],
      "payable": false,
      "stateMutability": "view",
      "type": "function"
    },
    {
      "constant": false,
      "inputs": [
        {
          "name": "tokens",
          "type": "address[]"
        },
        {
          "name": "_to",
          "type": "address"
        }
      ],
      "name": "withdrawnTokens",
      "outputs": [
        {
          "name": "",
          "type": "uint256"
        }
      ],
      "payable": false,
      "stateMutability": "nonpayable",
      "type": "function"
    },
    {
      "constant": false,
      "inputs": [
        {
          "name": "errorCode",
          "type": "uint256"
        }
      ],
      "name": "emitError",
      "outputs": [],
      "payable": false,
      "stateMutability": "nonpayable",
      "type": "function"
    },
    {
      "constant": true,
      "inputs": [
        {
          "name": "key",
          "type": "address"
        }
      ],
      "name": "isAuthorized",
      "outputs": [
        {
          "name": "",
          "type": "bool"
        }
      ],
      "payable": false,
      "stateMutability": "view",
      "type": "function"
    },
    {
      "constant": true,
      "inputs": [],
      "name": "getEventsHistory",
      "outputs": [
        {
          "name": "",
          "type": "address"
        }
      ],
      "payable": false,
      "stateMutability": "view",
      "type": "function"
    },
    {
      "inputs": [
        {
          "name": "_store",
          "type": "address"
        },
        {
          "name": "_crate",
          "type": "bytes32"
        }
      ],
      "payable": false,
      "stateMutability": "nonpayable",
      "type": "constructor"
    },
    {
      "anonymous": false,
      "inputs": [
        {
          "indexed": true,
          "name": "self",
          "type": "address"
        },
        {
          "indexed": false,
          "name": "errorCode",
          "type": "uint256"
        }
      ],
      "name": "Error",
      "type": "event"
    },
    {
      "anonymous": false,
      "inputs": [
        {
          "indexed": true,
          "name": "self",
          "type": "address"
        },
        {
          "indexed": false,
          "name": "platform",
          "type": "address"
        },
        {
          "indexed": false,
          "name": "tokenExtension",
          "type": "address"
        }
      ],
      "name": "TokenExtensionRequested",
      "type": "event"
    },
    {
      "anonymous": false,
      "inputs": [
        {
          "indexed": true,
          "name": "self",
          "type": "address"
        },
        {
          "indexed": false,
          "name": "platform",
          "type": "address"
        },
        {
          "indexed": false,
          "name": "tokenExtension",
          "type": "address"
        }
      ],
      "name": "TokenExtensionRegistered",
      "type": "event"
    },
    {
      "anonymous": false,
      "inputs": [
        {
          "indexed": true,
          "name": "self",
          "type": "address"
        },
        {
          "indexed": false,
          "name": "tokenExtension",
          "type": "address"
        }
      ],
      "name": "TokenExtensionUnregistered",
      "type": "event"
    },
    {
      "constant": false,
      "inputs": [
        {
          "name": "_contractsManager",
          "type": "address"
        },
        {
          "name": "_tokenExtensionFactory",
          "type": "address"
        },
        {
          "name": "_tokenFactory",
          "type": "address"
        }
      ],
      "name": "init",
      "outputs": [
        {
          "name": "",
          "type": "uint256"
        }
      ],
      "payable": false,
      "stateMutability": "nonpayable",
      "type": "function"
    },
    {
      "constant": true,
      "inputs": [],
      "name": "getTokenExtensionFactory",
      "outputs": [
        {
          "name": "",
          "type": "address"
        }
      ],
      "payable": false,
      "stateMutability": "view",
      "type": "function"
    },
    {
      "constant": false,
      "inputs": [
        {
          "name": "_tokenExtensionFactory",
          "type": "address"
        }
      ],
      "name": "setTokenExtensionFactory",
      "outputs": [
        {
          "name": "",
          "type": "uint256"
        }
      ],
      "payable": false,
      "stateMutability": "nonpayable",
      "type": "function"
    },
    {
      "constant": true,
      "inputs": [],
      "name": "getTokenFactory",
      "outputs": [
        {
          "name": "",
          "type": "address"
        }
      ],
      "payable": false,
      "stateMutability": "view",
      "type": "function"
    },
    {
      "constant": false,
      "inputs": [
        {
          "name": "_tokenFactory",
          "type": "address"
        }
      ],
      "name": "setTokenFactory",
      "outputs": [
        {
          "name": "",
          "type": "uint256"
        }
      ],
      "payable": false,
      "stateMutability": "nonpayable",
      "type": "function"
    },
    {
      "constant": true,
      "inputs": [
        {
          "name": "_tokenExtension",
          "type": "address"
        }
      ],
      "name": "containsTokenExtension",
      "outputs": [
        {
          "name": "",
          "type": "bool"
        }
      ],
      "payable": false,
      "stateMutability": "view",
      "type": "function"
    },
    {
      "constant": false,
      "inputs": [
        {
          "name": "_tokenExtension",
          "type": "address"
        }
      ],
      "name": "registerTokenExtension",
      "outputs": [
        {
          "name": "",
          "type": "uint256"
        }
      ],
      "payable": false,
      "stateMutability": "nonpayable",
      "type": "function"
    },
    {
      "constant": false,
      "inputs": [
        {
          "name": "_tokenExtension",
          "type": "address"
        }
      ],
      "name": "unregisterTokenExtension",
      "outputs": [
        {
          "name": "",
          "type": "uint256"
        }
      ],
      "payable": false,
      "stateMutability": "nonpayable",
      "type": "function"
    },
    {
      "constant": false,
      "inputs": [
        {
          "name": "_platform",
          "type": "address"
        }
      ],
      "name": "requestTokenExtension",
      "outputs": [
        {
          "name": "",
          "type": "uint256"
        }
      ],
      "payable": false,
      "stateMutability": "nonpayable",
      "type": "function"
    },
    {
      "constant": true,
      "inputs": [
        {
          "name": "_platform",
          "type": "address"
        }
      ],
      "name": "getTokenExtension",
      "outputs": [
        {
          "name": "",
          "type": "address"
        }
      ],
      "payable": false,
      "stateMutability": "view",
      "type": "function"
    },
    {
      "constant": true,
      "inputs": [
        {
          "name": "_symbol",
          "type": "bytes32"
        },
        {
          "name": "_user",
          "type": "address"
        }
      ],
      "name": "isAssetOwner",
      "outputs": [
        {
          "name": "",
          "type": "bool"
        }
      ],
      "payable": false,
      "stateMutability": "view",
      "type": "function"
    },
    {
      "constant": true,
      "inputs": [
        {
          "name": "_symbol",
          "type": "bytes32"
        }
      ],
      "name": "isAssetSymbolExists",
      "outputs": [
        {
          "name": "",
          "type": "bool"
        }
      ],
      "payable": false,
      "stateMutability": "view",
      "type": "function"
    },
    {
      "constant": true,
      "inputs": [
        {
          "name": "_symbol",
          "type": "bytes32"
        }
      ],
      "name": "getAssetBySymbol",
      "outputs": [
        {
          "name": "",
          "type": "address"
        }
      ],
      "payable": false,
      "stateMutability": "view",
      "type": "function"
    },
    {
      "constant": true,
      "inputs": [
        {
          "name": "_platform",
          "type": "address"
        },
        {
          "name": "_owner",
          "type": "address"
        }
      ],
      "name": "getAssetsForOwnerCount",
      "outputs": [
        {
          "name": "count",
          "type": "uint256"
        }
      ],
      "payable": false,
      "stateMutability": "view",
      "type": "function"
    },
    {
      "constant": true,
      "inputs": [
        {
          "name": "_platform",
          "type": "address"
        },
        {
          "name": "_owner",
          "type": "address"
        },
        {
          "name": "_idx",
          "type": "uint256"
        }
      ],
      "name": "getAssetForOwnerAtIndex",
      "outputs": [
        {
          "name": "",
          "type": "bytes32"
        }
      ],
      "payable": false,
      "stateMutability": "view",
      "type": "function"
    },
    {
      "constant": true,
      "inputs": [
        {
          "name": "_platforms",
          "type": "address[]"
        }
      ],
      "name": "getOwnedAssetsFromPlatforms",
      "outputs": [
        {
          "name": "_foundPlatforms",
          "type": "address[]"
        },
        {
          "name": "_foundAssets",
          "type": "address[]"
        }
      ],
      "payable": false,
      "stateMutability": "view",
      "type": "function"
    },
    {
      "constant": true,
      "inputs": [
        {
          "name": "_platforms",
          "type": "address[]"
        },
        {
          "name": "_user",
          "type": "address"
        }
      ],
      "name": "_getOwnedAssetsFromPlatforms",
      "outputs": [
        {
          "name": "_associatedPlatforms",
          "type": "address[]"
        },
        {
          "name": "_foundAssets",
          "type": "address[]"
        }
      ],
      "payable": false,
      "stateMutability": "view",
      "type": "function"
    },
    {
      "constant": true,
      "inputs": [
        {
          "name": "_asset",
          "type": "address"
        }
      ],
      "name": "getManagersForAsset",
      "outputs": [
        {
          "name": "_managers",
          "type": "address[]"
        }
      ],
      "payable": false,
      "stateMutability": "view",
      "type": "function"
    },
    {
      "constant": false,
      "inputs": [
        {
          "name": "",
          "type": "bytes32"
        },
        {
          "name": "",
          "type": "address"
        },
        {
          "name": "",
          "type": "address"
        }
      ],
      "name": "assetOwnerAdded",
      "outputs": [],
      "payable": false,
      "stateMutability": "nonpayable",
      "type": "function"
    },
    {
      "constant": false,
      "inputs": [
        {
          "name": "",
          "type": "bytes32"
        },
        {
          "name": "",
          "type": "address"
        },
        {
          "name": "",
          "type": "address"
        }
      ],
      "name": "assetOwnerRemoved",
      "outputs": [],
      "payable": false,
      "stateMutability": "nonpayable",
      "type": "function"
    }
  ],
  "bytecode": "0x606060405234156200001057600080fd5b60405160408062002ddc8339810160405280805191906020018051915082905081818181816200005160008383640100000000620027f76200017f82021704565b505060028054600160a060020a03338116600160a060020a03199283161790925560058054309093169290911691909117905550620000c69250600691507f746f6b656e457874656e73696f6e466163746f7279000000000000000000000090506401000000006200281d620001a582021704565b6200010160077f746f6b656e466163746f727900000000000000000000000000000000000000006401000000006200281d620001a582021704565b6200013c60087f7631706c6174666f726d546f457874656e73696f6e00000000000000000000006401000000006200282d620001c582021704565b6200017760097f7631746f6b656e457874656e73696f6e7300000000000000000000000000000064010000000062002837620001e382021704565b5050620003d4565b8254600160a060020a031916600160a060020a0392909216919091178255600190910155565b8154620001c1908264010000000062002841620001fd82021704565b9055565b620001df82826401000000006200281d620001a582021704565b5050565b620001df8282640100000000620028636200021582021704565b811515806200020a575080155b15620001df57600080fd5b6200026c82826040519081527f75696e742f636f756e74000000000000000000000000000000000000000000006020820152602a016040518091039020620001a5640100000000026200281d176401000000009004565b620002c682600101826040519081527f75696e742f6669727374000000000000000000000000000000000000000000006020820152602a016040518091039020620001a5640100000000026200281d176401000000009004565b6200032082600201826040519081527f75696e742f6c617374000000000000000000000000000000000000000000000060208201526029016040518091039020620001a5640100000000026200281d176401000000009004565b6200037a82600301826040519081527f75696e742f6e657874000000000000000000000000000000000000000000000060208201526029016040518091039020620001a5640100000000026200281d176401000000009004565b620001df82600401826040519081527f75696e742f70726576000000000000000000000000000000000000000000000060208201526029016040518091039020620001a5640100000000026200281d176401000000009004565b6129f880620003e46000396000f3006060604052600436106101b35763ffffffff60e060020a60003504166317db107181146101b8578063184b9559146101ef57806325742b461461021a578063260467431461025057806328aea08b1461027a5780632cd060ce146102ac5780632d305c82146102d45780632f73a9f8146102f3578063406aa8fc1461031257806344ef3ea5146103845780634592cd1d146103975780634fe59012146103aa57806353253d31146103c0578063557f4bc9146103d35780635aa77d3c146103f25780636521afd714610405578063660a333e146102505780636bc8acf51461042457806371d3b5731461044357806372c355641461046257806383197ef01461055557806389c165d0146105685780638f8068bb14610587578063925d6ba2146105ac5780639e6c2765146105bf578063a843c51f146105e4578063b5fb842114610603578063c97f578714610622578063ce606ee014610641578063d5ed0d1714610654578063d8f9659b1461066a578063db06471f146106c4578063df26ca08146106e3578063e5ebb7a5146106f9578063f79d187714610718578063fe9fbb8014610767578063fff10aba14610786575b600080fd5b34156101c357600080fd5b6101dd600160a060020a0360043581169060243516610799565b60405190815260200160405180910390f35b34156101fa57600080fd5b6101dd600160a060020a036004358116906024358116906044351661094f565b341561022557600080fd5b61023c600435600160a060020a03602435166109b4565b604051901515815260200160405180910390f35b341561025b57600080fd5b610278600435600160a060020a0360243581169060443516610af2565b005b341561028557600080fd5b610290600435610af7565b604051600160a060020a03909116815260200160405180910390f35b34156102b757600080fd5b6101dd600160a060020a0360043581169060243516604435610b85565b34156102df57600080fd5b610278600160a060020a0360043516610d57565b34156102fe57600080fd5b6101dd600160a060020a0360043516610da8565b341561031d57600080fd5b610331600160a060020a0360043516610df2565b60405160208082528190810183818151815260200191508051906020019060200280838360005b83811015610370578082015183820152602001610358565b505050509050019250505060405180910390f35b341561038f57600080fd5b610290611044565b34156103a257600080fd5b61023c61105d565b34156103b557600080fd5b6102906004356110a9565b34156103cb57600080fd5b610290611121565b34156103de57600080fd5b61023c600160a060020a0360043516611130565b34156103fd57600080fd5b610290611187565b341561041057600080fd5b610278600160a060020a0360043516611196565b341561042f57600080fd5b61023c600160a060020a03600435166111cc565b341561044e57600080fd5b610278600160a060020a03600435166111e6565b341561046d57600080fd5b6104bc600460248135818101908301358060208181020160405190810160405280939291908181526020018383602002808284375094965050509235600160a060020a0316925061121d915050565b604051808060200180602001838103835285818151815260200191508051906020019060200280838360005b838110156105005780820151838201526020016104e8565b50505050905001838103825284818151815260200191508051906020019060200280838360005b8381101561053f578082015183820152602001610527565b5050505090500194505050505060405180910390f35b341561056057600080fd5b610278611497565b341561057357600080fd5b6101dd600160a060020a0360043516611520565b341561059257600080fd5b610278600160a060020a03600435811690602435166116b0565b34156105b757600080fd5b61029061170b565b34156105ca57600080fd5b610278600160a060020a036004358116906024351661171e565b34156105ef57600080fd5b61023c600160a060020a0360043516611779565b341561060e57600080fd5b6101dd600160a060020a03600435166117f2565b341561062d57600080fd5b6101dd600160a060020a0360043516611834565b341561064c57600080fd5b6102906118f5565b341561065f57600080fd5b61023c600435611904565b341561067557600080fd5b6101dd600460248135818101908301358060208181020160405190810160405280939291908181526020018383602002808284375094965050509235600160a060020a03169250611920915050565b34156106cf57600080fd5b6101dd600160a060020a0360043516611a57565b34156106ee57600080fd5b610278600435611c39565b341561070457600080fd5b610290600160a060020a0360043516611c80565b341561072357600080fd5b6104bc6004602481358181019083013580602081810201604051908101604052809392919081815260200183836020028082843750949650611c9495505050505050565b341561077257600080fd5b61023c600160a060020a0360043516611cb7565b341561079157600080fd5b610290611d50565b6000806000806000806107ab88611c80565b945084600160a060020a03166394d0169f6040518163ffffffff1660e060020a028152600401602060405180830381600087803b15156107ea57600080fd5b5af115156107f757600080fd5b5050506040518051945050600160a060020a03841663ecac7f4b6040518163ffffffff1660e060020a028152600401602060405180830381600087803b151561083f57600080fd5b5af1151561084c57600080fd5b5050506040518051935060009250505b828210156109445783600160a060020a031663ccce413b8360405160e060020a63ffffffff84160281526004810191909152602401602060405180830381600087803b15156108aa57600080fd5b5af115156108b757600080fd5b5050506040518051915050600160a060020a03841663ccc11f11888360405160e060020a63ffffffff8516028152600160a060020a0390921660048301526024820152604401602060405180830381600087803b151561091657600080fd5b5af1151561092357600080fd5b5050506040518051905015610939578560010195505b81600101915061085c565b505050505092915050565b60025460009033600160a060020a03908116911614156109ad57610993847f4173736574734d616e6167657200000000000000000000000000000000000000611d5f565b5061099d836117f2565b506109a782610da8565b50600190505b9392505050565b60008060008060006109c587610af7565b935083600160a060020a03166349752baf6040518163ffffffff1660e060020a028152600401602060405180830381600087803b1515610a0457600080fd5b5af11515610a1157600080fd5b505050604051805190509250610a2683611c80565b915081600160a060020a03166394d0169f6040518163ffffffff1660e060020a028152600401602060405180830381600087803b1515610a6557600080fd5b5af11515610a7257600080fd5b5050506040518051915050600160a060020a03811663ccc11f11878960405160e060020a63ffffffff8516028152600160a060020a0390921660048301526024820152604401602060405180830381600087803b1515610ad157600080fd5b5af11515610ade57600080fd5b505050604051805198975050505050505050565b505050565b6000610b227f45524332304d616e6167657200000000000000000000000000000000000000006110a9565b600160a060020a031663fa7fdeb78360405160e060020a63ffffffff84160281526004810191909152602401602060405180830381600087803b1515610b6757600080fd5b5af11515610b7457600080fd5b50505060405180519150505b919050565b6000806000806000806000610b998a611c80565b955085600160a060020a03166394d0169f6040518163ffffffff1660e060020a028152600401602060405180830381600087803b1515610bd857600080fd5b5af11515610be557600080fd5b505050604051805195505060001988019350600160a060020a03851663ecac7f4b6040518163ffffffff1660e060020a028152600401602060405180830381600087803b1515610c3457600080fd5b5af11515610c4157600080fd5b50505060405180519350889250505b82821015610d4a5784600160a060020a031663ccce413b8360405160e060020a63ffffffff84160281526004810191909152602401602060405180830381600087803b1515610c9e57600080fd5b5af11515610cab57600080fd5b5050506040518051915050600160a060020a03851663ccc11f118a8360405160e060020a63ffffffff8516028152600160a060020a0390921660048301526024820152604401602060405180830381600087803b1515610d0a57600080fd5b5af11515610d1757600080fd5b505050604051805190508015610d3257508784600101945084145b15610d3f57809650610d4a565b816001019150610c50565b5050505050509392505050565b610d5f611f36565b600160a060020a03167f3f50f7daabc6e49127dd3b03b7f7326b60b1ae07a5f8956899da1fd1b51b055482604051600160a060020a03909116815260200160405180910390a250565b60025460009033600160a060020a0390811691161415610b8057600160a060020a0382161515610dd757600080fd5b610dea600060078463ffffffff611f3a16565b506001919050565b610dfa6127e5565b8160008080808080600160a060020a0387166349752baf6040518163ffffffff1660e060020a028152600401602060405180830381600087803b1515610e3f57600080fd5b5af11515610e4c57600080fd5b5050506040518051965050600160a060020a03871663cb4e75bb6040518163ffffffff1660e060020a028152600401602060405180830381600087803b1515610e9457600080fd5b5af11515610ea157600080fd5b5050506040518051955050600160a060020a038616636b4ed21b6040518163ffffffff1660e060020a028152600401602060405180830381600087803b1515610ee957600080fd5b5af11515610ef657600080fd5b50505060405180519050935083604051805910610f105750595b9080825280602002602001820160405250975060009250600191505b8382116110385785600160a060020a0316632a11ced08360405160e060020a63ffffffff84160281526004810191909152602401602060405180830381600087803b1515610f7957600080fd5b5af11515610f8657600080fd5b5050506040518051915050600160a060020a03861663ccc11f11828760405160e060020a63ffffffff8516028152600160a060020a0390921660048301526024820152604401602060405180830381600087803b1515610fe557600080fd5b5af11515610ff257600080fd5b505050604051805190501561102d578088848151811061100e57fe5b600160a060020a03909216602092830290910190910152600192909201915b816001019150610f2c565b50505050505050919050565b600061105781600663ffffffff611fb816565b90505b90565b60035460009033600160a060020a0390811691161461107e5750600061105a565b506003805460028054600160a060020a0319908116600160a060020a03841617909155169055600190565b600454600090600160a060020a031663bc6579278360405160e060020a63ffffffff84160281526004810191909152602401602060405180830381600087803b15156110f457600080fd5b5af1151561110157600080fd5b5050506040518051915050600160a060020a0381161515610b8057600080fd5b600454600160a060020a031681565b60025460009033600160a060020a0390811691161415610b8057600160a060020a038216151561116257506000610b80565b5060038054600160a060020a038316600160a060020a03199091161790556001919050565b600354600160a060020a031681565b60025433600160a060020a03908116911614156111c95760058054600160a060020a031916600160a060020a0383161790555b50565b60006111e08160098463ffffffff61200f16565b92915050565b60025433600160a060020a03908116911614156111c95760048054600160a060020a038316600160a060020a031990911617905550565b6112256127e5565b61122d6127e5565b60008060008060008089516040518059106112455750595b9080825280602002602001820160405250975089516040518059106112675750595b9080825280602002602001820160405250965060009550600094505b895185101561148a5789858151811061129857fe5b90602001906020020151935083600160a060020a031663ecac7f4b6040518163ffffffff1660e060020a028152600401602060405180830381600087803b15156112e157600080fd5b5af115156112ee57600080fd5b5050506040518051935060009250505b8282101561147f5783600160a060020a031663ccce413b8360405160e060020a63ffffffff84160281526004810191909152602401602060405180830381600087803b151561134c57600080fd5b5af1151561135957600080fd5b5050506040518051915050600160a060020a03841663ccc11f118a8360405160e060020a63ffffffff8516028152600160a060020a0390921660048301526024820152604401602060405180830381600087803b15156113b857600080fd5b5af115156113c557600080fd5b5050506040518051905015611474578384600160a060020a0316636932af368360405160e060020a63ffffffff84160281526004810191909152602401602060405180830381600087803b151561141b57600080fd5b5af1151561142857600080fd5b5050506040518051905089888151811061143e57fe5b90602001906020020189898151811061145357fe5b600160a060020a039384166020918202909201015291169052600195909501945b8160010191506112fe565b846001019450611283565b5050505050509250929050565b60025433600160a060020a039081169116141561151e57600454600160a060020a031663c375c2ef3060405160e060020a63ffffffff8416028152600160a060020a039091166004820152602401602060405180830381600087803b15156114fe57600080fd5b5af1151561150b57600080fd5b505050604051805190505061151e61202d565b565b60008082600160a060020a0316634bde38c86040518163ffffffff1660e060020a028152600401602060405180830381600087803b151561156057600080fd5b5af1151561156d57600080fd5b5050506040518051905033600160a060020a031681600160a060020a031663ce606ee06040518163ffffffff1660e060020a028152600401602060405180830381600087803b15156115be57600080fd5b5af115156115cb57600080fd5b50505060405180519050600160a060020a031614156116a9576115f7600060098663ffffffff61200f16565b1561160e57611607617533612050565b92506116a9565b83600160a060020a0316634bde38c86040518163ffffffff1660e060020a028152600401602060405180830381600087803b151561164b57600080fd5b5af1151561165857600080fd5b505050604051805192506116779050600060088463ffffffff6120b516565b600160a060020a03161561169057611607617533612050565b61169a82856120cb565b6116a4828561216a565b600192505b5050919050565b6116b8611f36565b600160a060020a03167fadaec20b36aa073df965798f4aa38bd5cedd19491766793d87792ae08c4bae9d8383604051600160a060020a039283168152911660208201526040908101905180910390a25050565b600061105781600763ffffffff611fb816565b611726611f36565b600160a060020a03167ff149a753669bf8ae72a54d5becee2a0f78297c8513b9c74bac5aa1acd59a84268383604051600160a060020a039283168152911660208201526040908101905180910390a25050565b60025460009033600160a060020a0390811691161415610b8057600160a060020a03821615156117ab57506000610b80565b600354600160a060020a0316156117cd5760038054600160a060020a03191690555b5060028054600160a060020a038316600160a060020a03199091161790556001919050565b60025460009033600160a060020a0390811691161415610b8057600160a060020a038216151561182157600080fd5b610dea600060068463ffffffff611f3a16565b600080600061184284611c80565b9150600160a060020a038216156118665761185d84836121db565b600192506116a9565b6118786000600663ffffffff611fb816565b905080600160a060020a0316635218dbea8560405160e060020a63ffffffff8416028152600160a060020a039091166004820152602401602060405180830381600087803b15156118c857600080fd5b5af115156118d557600080fd5b5050506040518051905091506118eb84836120cb565b6116a484836121db565b600254600160a060020a031681565b600061190f82610af7565b600160a060020a0316151592915050565b60025460009081908190819033600160a060020a0390811691161415611a4e57600092505b8551831015611a495785838151811061195a57fe5b90602001906020020151915081600160a060020a03166370a082313060405160e060020a63ffffffff8416028152600160a060020a039091166004820152602401602060405180830381600087803b15156119b457600080fd5b5af115156119c157600080fd5b50505060405180519150508015611a3e5781600160a060020a031663a9059cbb868360405160e060020a63ffffffff8516028152600160a060020a0390921660048301526024820152604401602060405180830381600087803b1515611a2657600080fd5b5af11515611a3357600080fd5b505050604051805150505b600190920191611945565b600193505b50505092915050565b600081600160a060020a0316634bde38c86040518163ffffffff1660e060020a028152600401602060405180830381600087803b1515611a9657600080fd5b5af11515611aa357600080fd5b5050506040518051905033600160a060020a031681600160a060020a031663ce606ee06040518163ffffffff1660e060020a028152600401602060405180830381600087803b1515611af457600080fd5b5af11515611b0157600080fd5b50505060405180519050600160a060020a03161415611c3357611b2d600060098563ffffffff61200f16565b1515611b4557611b3e617532612050565b9150611c33565b611b58600060098563ffffffff61223816565b611bc0600884600160a060020a0316634bde38c86040518163ffffffff1660e060020a028152600401602060405180830381600087803b1515611b9a57600080fd5b5af11515611ba757600080fd5b505050604051805160009291508263ffffffff61224c16565b611bc8611d50565b600160a060020a031663ab0da5a98460405160e060020a63ffffffff8416028152600160a060020a039091166004820152602401600060405180830381600087803b1515611c1557600080fd5b5af11515611c2257600080fd5b505050611c2e8361226a565b600191505b50919050565b611c41611f36565b600160a060020a03167f9cf38cf2dbf9139f5c32639950507b10775fbbe0421f3e168bc2d1bb1ae3208c8260405190815260200160405180910390a250565b60006111e08160088463ffffffff6120b516565b611c9c6127e5565b611ca46127e5565b611cae833361121d565b91509150915091565b600080611ce37f557365724d616e616765720000000000000000000000000000000000000000006110a9565b905080600160a060020a0316632aa09e5a8460405160e060020a63ffffffff8416028152600160a060020a039091166004820152602401602060405180830381600087803b1515611d3357600080fd5b5af11515611d4057600080fd5b5050506040518051949350505050565b600554600160a060020a031690565b60025460009081908190819033600160a060020a03908116911614611d8357600080fd5b600160a060020a0386161515611d9857600080fd5b600454600160a060020a0316158015935080611dc25750600454600160a060020a03878116911614155b15611de35760048054600160a060020a031916600160a060020a0388161790555b600454600160a060020a031691508163bc65792760405160e060020a63ffffffff83160281527f4d756c74694576656e7473486973746f727900000000000000000000000000006004820152602401602060405180830381600087803b1515611e4b57600080fd5b5af11515611e5857600080fd5b5050506040518051915050600160a060020a03811615801590611e895750600554600160a060020a03828116911614155b15611eaa5760058054600160a060020a031916600160a060020a0383161790555b8415611f245781600160a060020a031663b7c46cd5308760405160e060020a63ffffffff8516028152600160a060020a0390921660048301526024820152604401602060405180830381600087803b1515611f0457600080fd5b5af11515611f1157600080fd5b50505060405180516001149050611f2457fe5b8215611a495760069695505050505050565b3390565b825460018401548354600160a060020a03909216916379a7cfee91908460405160e060020a63ffffffff861602815260048101939093526024830191909152600160a060020a03166044820152606401600060405180830381600087803b1515611fa357600080fd5b5af11515611fb057600080fd5b505050505050565b815460018301548254600092600160a060020a03169163d3a396869160405160e060020a63ffffffff851602815260048101929092526024820152604401602060405180830381600087803b1515611d3357600080fd5b60006120258484600160a060020a0385166122cc565b949350505050565b60025433600160a060020a039081169116141561151e5733600160a060020a0316ff5b600061205a611d50565b600160a060020a031663df26ca088360405160e060020a63ffffffff84160281526004810191909152602401600060405180830381600087803b151561209f57600080fd5b5af115156120ac57600080fd5b50929392505050565b60006120258484600160a060020a0385166122fa565b6120d3611d50565b600160a060020a031663b6a5d7de8260405160e060020a63ffffffff8416028152600160a060020a039091166004820152602401602060405180830381600087803b151561212057600080fd5b5af1151561212d57600080fd5b50505060405180519050151561213f57fe5b612152600060098363ffffffff61238716565b61216660006008848463ffffffff61224c16565b5050565b612172611d50565b600160a060020a0316638f8068bb838360405160e060020a63ffffffff8516028152600160a060020a03928316600482015291166024820152604401600060405180830381600087803b15156121c757600080fd5b5af115156121d457600080fd5b5050505050565b6121e3611d50565b600160a060020a0316639e6c2765838360405160e060020a63ffffffff8516028152600160a060020a03928316600482015291166024820152604401600060405180830381600087803b15156121c757600080fd5b610af28383600160a060020a03841661239b565b6122648484600160a060020a038086169085166123c7565b50505050565b612272611d50565b600160a060020a0316632d305c828260405160e060020a63ffffffff8416028152600160a060020a039091166004820152602401600060405180830381600087803b15156122bf57600080fd5b5af1151561226457600080fd5b600061202584847f6f7264657265645f73657400000000000000000000000000000000000000000085612455565b825460018401548354600092600160a060020a0316916337d9d7fc9185604051918252602082015260409081019051809103902060405160e060020a63ffffffff851602815260048101929092526024820152604401602060405180830381600087803b151561236957600080fd5b5af1151561237657600080fd5b505050604051805195945050505050565b610af28383600160a060020a038416612492565b610af283837f6f7264657265645f736574000000000000000000000000000000000000000000846124be565b835460018501548454600160a060020a039092169163a14ff85791908560405191825260208201526040908101905180910390208460405160e060020a63ffffffff8616028152600481019390935260248301919091526044820152606401600060405180830381600087803b151561243f57600080fd5b5af1151561244c57600080fd5b50505050505050565b600081158015906124895750612470858560030185856125be565b1515806124895750816124878660028701866122fa565b145b95945050505050565b610af283837f6f7264657265645f736574000000000000000000000000000000000000000000846125e3565b6124ca84848484612455565b15156124d557612264565b6125018484600301846124ed888860040188886125be565b6124fc898960030189896125be565b6126a6565b612528848460040184612519888860030188886125be565b6124fc898960040189896125be565b6125368484600101846122fa565b81141561255a5761255a848460010184612555888860030188886125be565b6123c7565b6125688484600201846122fa565b81141561258757612587848460020184612555888860040188886125be565b612596848460030184846126b9565b6125a5848460040184846126b9565b61226484848460016125b88484846126cd565b0361273c565b60006124898585858560405191825260208201526040908101905180910390206122fa565b8015156125ef57600080fd5b6125fb84848484612455565b1561260557612264565b6126108484846127b4565b151561262557612625848460010184846123c7565b6126338484600201846122fa565b1561266d5761265584846003018461264f8888600201886122fa565b856126a6565b61266d848460040184846124fc8989600201896122fa565b61267e8460038501848460006126a6565b61268d848460020184846123c7565b61226484848461269e8383836126cd565b60010161273c565b81156121d4576121d485858585856127c1565b8015612264576122648484848460006127c1565b825460018401548354600092600160a060020a0316916353aa3f5e9185604051918252602082015260409081019051809103902060405160e060020a63ffffffff851602815260048101929092526024820152604401602060405180830381600087803b151561236957600080fd5b835460018501548454600160a060020a03909216916353e7168b91908560405191825260208201526040908101905180910390208460405160e060020a63ffffffff8616028152600481019390935260248301919091526044820152606401600060405180830381600087803b151561243f57600080fd5b60006120258484846126cd565b6121d4858585856040519182526020820152604090810190518091039020846123c7565b60206040519081016040526000815290565b8254600160a060020a031916600160a060020a0392909216919091178255600190910155565b81546128299082612841565b9055565b612166828261281d565b6121668282612863565b8115158061284d575080155b1561216657600080fd5b81546128299082612841565b6128a482826040519081527f75696e742f636f756e74000000000000000000000000000000000000000000006020820152602a01604051809103902061281d565b6128e882600101826040519081527f75696e742f6669727374000000000000000000000000000000000000000000006020820152602a01604051809103902061281d565b61292c82600201826040519081527f75696e742f6c61737400000000000000000000000000000000000000000000006020820152602901604051809103902061281d565b61297082600301826040519081527f75696e742f6e65787400000000000000000000000000000000000000000000006020820152602901604051809103902061281d565b61216682600401826040519081527f75696e742f7072657600000000000000000000000000000000000000000000006020820152602901604051809103902061281d565b81546128299082612841565b815461282990826128415600a165627a7a72305820b7988a2bf146f2518b54c95bc16333ecf0abc6a81aba3b85fdea1d24662859ae0029",
  "source": "pragma solidity ^0.4.11;\n\nimport \"../core/common/BaseManager.sol\";\nimport \"../core/common/Once.sol\";\nimport \"../core/erc20/ERC20ManagerInterface.sol\";\nimport \"../core/platform/ChronoBankAssetProxyInterface.sol\";\nimport \"../core/platform/ChronoBankAssetOwnershipManager.sol\";\nimport \"../core/platform/ChronoBankPlatformInterface.sol\";\nimport \"../core/platform/ChronoBankPlatform.sol\";\nimport \"./TokenManagementInterface.sol\";\nimport \"./AssetsManagerInterface.sol\";\nimport \"./AssetsManagerEmitter.sol\";\n\n\ncontract OwnedContract {\n    address public contractOwner;\n}\n\n\ncontract TokenExtensionsFactory {\n    function createTokenExtension(address _platform) public returns (address);\n}\n\n\ncontract EventsHistory {\n    function authorize(address _eventEmitter) public returns (bool);\n    function reject(address _eventEmitter) public;\n}\n\n\n/// @title AssetsManager is a helper contract which allows centralized access to tokens' management\n/// on top of chronobank platforms. It is used in pair with PlatformsManager and provides\n/// a creation of token extensions for platforms.\n/// Contract also has methods for quick access to token info such as:\n/// - token address by symbol,\n/// - if token exists in a system,\n/// - if a user is a owner of a token.\ncontract AssetsManager is AssetsManagerInterface, TokenExtensionRegistry, BaseManager, AssetsManagerEmitter {\n\n    /** Error codes */\n\n    uint constant ERROR_ASSETS_MANAGER_SCOPE = 30000;\n    uint constant ERROR_ASSETS_MANAGER_INVALID_INVOCATION = ERROR_ASSETS_MANAGER_SCOPE + 2;\n    uint constant ERROR_ASSETS_MANAGER_EXTENSION_ALREADY_EXISTS = ERROR_ASSETS_MANAGER_SCOPE + 3;\n\n    /** Storage keys */\n\n    /// @dev address of a token extension factory contract\n    StorageInterface.Address tokenExtensionFactory;\n\n    /// @dev address of a token and proxy factory contract\n    StorageInterface.Address tokenFactory;\n\n    /// @dev mapping (address => address) stands for (platform => tokenExtension)\n    StorageInterface.AddressAddressMapping platformToExtension;\n\n    /// @dev collection of addresses of token extensions registered in AssetsManager\n    StorageInterface.OrderedAddressesSet tokenExtensions;\n\n    /// @dev Guards methods for callers that are owners of a platform\n    modifier onlyPlatformOwner(address _platform) {\n        if (OwnedContract(_platform).contractOwner() == msg.sender) {\n            _;\n        }\n    }\n\n    /// @notice Constructor function\n    /// @param _store link to a global storage\n    /// @param _crate namespace in a storage\n    function AssetsManager(Storage _store, bytes32 _crate) BaseManager(_store, _crate) public {\n        tokenExtensionFactory.init(\"tokenExtensionFactory\");\n        tokenFactory.init(\"tokenFactory\");\n        platformToExtension.init(\"v1platformToExtension\");\n        tokenExtensions.init(\"v1tokenExtensions\");\n    }\n\n    /// @notice Initalizer. Used by contract owner to initialize and re-initialize contract after deploying new versions\n    /// of related dependencies.\n    ///\n    /// @param _contractsManager contracts manager\n    /// @param _tokenExtensionFactory token extension factory address\n    /// @param _tokenFactory token and proxy factory address\n    ///\n    /// @return result code of an operation. `OK` if all went well\n    function init(\n        address _contractsManager,\n        address _tokenExtensionFactory,\n        address _tokenFactory\n    )\n    onlyContractOwner\n    public\n    returns (uint)\n    {\n        BaseManager.init(_contractsManager, \"AssetsManager\");\n        setTokenExtensionFactory(_tokenExtensionFactory);\n        setTokenFactory(_tokenFactory);\n\n        return OK;\n    }\n\n    /// @notice Gets an address of currenty used token extension factory\n    /// @return address of a factory\n    function getTokenExtensionFactory() public view returns (address) {\n        return store.get(tokenExtensionFactory);\n    }\n\n    /// @notice Sets a new address of token extension factory contract as currently used in AssetsManager\n    /// @param _tokenExtensionFactory address of an updated token extension factory contract\n    /// @return result code of an operation. `OK` if all went well\n    function setTokenExtensionFactory(address _tokenExtensionFactory) onlyContractOwner public returns (uint) {\n        require(_tokenExtensionFactory != 0x0);\n\n        store.set(tokenExtensionFactory, _tokenExtensionFactory);\n        return OK;\n    }\n\n    /// @notice Gets an address of currenty used token and proxy factory\n    /// @return address of a factory\n    function getTokenFactory() public view returns (address) {\n        return store.get(tokenFactory);\n    }\n\n    /// @notice Sets a new address of token and proxy factory contract as currently used in AssetsManager\n    /// @param _tokenFactory address of an updated token and proxy factory contract\n    /// @return result code of an operation. `OK` if all went well\n    function setTokenFactory(address _tokenFactory) onlyContractOwner public returns (uint) {\n        require(_tokenFactory != 0x0);\n\n        store.set(tokenFactory, _tokenFactory);\n        return OK; \n    }\n\n    /// @dev Checks if a provided token extension address is a part of the system\n    /// @param _tokenExtension address of a token extension\n    /// @return `true` if a token extension is inside AssetsManager, `false` otherwise\n    function containsTokenExtension(address _tokenExtension) public view returns (bool) {\n        return store.includes(tokenExtensions, _tokenExtension);\n    }\n\n    /// @notice Registers and stores token extension of a platform into the system. Mostly this method should be used\n    /// when platform's token extention was removed manually from AssetsManager or there was no token extension at all.\n    /// It is preferred to create token extension by calling requestTokenExtension: this will ensure that the latest\n    /// version of token extension contract will be used.\n    /// There might be ONLY ONE token extension at a time associated with a platform and be registered in the system.\n    /// Can be used only by platform's owner associated with this token extension.\n    ///\n    /// @param _tokenExtension address of token extension\n    ///\n    /// @return result code of an operation. ERROR_ASSETS_MANAGER_EXTENSION_ALREADY_EXISTS might be returned.\n    function registerTokenExtension(address _tokenExtension)\n    onlyPlatformOwner(TokenManagementInterface(_tokenExtension).platform())\n    public\n    returns (uint)\n    {\n        if (store.includes(tokenExtensions, _tokenExtension)) {\n            return _emitError(ERROR_ASSETS_MANAGER_EXTENSION_ALREADY_EXISTS);\n        }\n\n        address _platform = TokenManagementInterface(_tokenExtension).platform();\n        if (store.get(platformToExtension, _platform) != 0x0) {\n            return _emitError(ERROR_ASSETS_MANAGER_EXTENSION_ALREADY_EXISTS);\n        }\n\n        _setupTokenExtension(_platform, _tokenExtension);\n        _emitTokenExtensionRegistered(_platform, _tokenExtension);\n        return OK;\n    }\n\n    /// @notice Unregisters and removes token extension from the system. It should be used when you know what are you doing,\n    /// because it will remove record of token extension for a platform and to continue using an associated token extension\n    /// with platform you should register a new token extension address or request a brand new one (see `requestTokenExtension` method).\n    /// Can be used only by platform's owner associated with this token extension.\n    ///\n    /// @param _tokenExtension address of a token extension\n    ///\n    /// @return result code of an operation. ERROR_ASSETS_MANAGER_INVALID_INVOCATION might be returned.\n    function unregisterTokenExtension(address _tokenExtension)\n    onlyPlatformOwner(TokenManagementInterface(_tokenExtension).platform())\n    public\n    returns (uint)\n    {\n        if (!store.includes(tokenExtensions, _tokenExtension)) {\n            return _emitError(ERROR_ASSETS_MANAGER_INVALID_INVOCATION);\n        }\n\n        store.remove(tokenExtensions, _tokenExtension);\n        store.set(platformToExtension, TokenManagementInterface(_tokenExtension).platform(), 0x0);\n        EventsHistory(getEventsHistory()).reject(_tokenExtension);\n\n        _emitTokenExtensionUnregistered(_tokenExtension);\n        return OK;\n    }\n\n    /// @notice Provides a way to \"request\" (meant check if a token extension exists for a passed platform and if it doesn't then\n    /// create a new one).\n    /// @param _platform address of a platform for which token extension is requested\n    /// @return result code of an operation.\n    function requestTokenExtension(address _platform) public returns (uint) {\n        address _tokenExtension = getTokenExtension(_platform);\n        if (_tokenExtension != 0x0) {\n            _emitTokenExtensionRequested(_platform, _tokenExtension);\n            return OK;\n        }\n\n        TokenExtensionsFactory _extensionsFactory = TokenExtensionsFactory(store.get(tokenExtensionFactory));\n        _tokenExtension = _extensionsFactory.createTokenExtension(_platform);\n        _setupTokenExtension(_platform, _tokenExtension);\n\n        _emitTokenExtensionRequested(_platform, _tokenExtension);\n        return OK;\n    }\n\n    /// @notice Gets an associated token extension address with provided platform. If no token extension was found\n    /// then return 0x0.\n    /// @param _platform platform address for associated token extension\n    /// @return address of found token extension\n    function getTokenExtension(address _platform) public view returns (address) {\n        return store.get(platformToExtension, _platform);\n    }\n\n    /// @notice Checks if a user has access rights and an owner of a token with provided symbol\n    /// @param _symbol symbol associated with some token\n    /// @param _user a user which should be tested for ownership\n    /// @return `true` if a user is an owner, `false` otherwise\n    function isAssetOwner(bytes32 _symbol, address _user) public view returns (bool) {\n        address _token = getAssetBySymbol(_symbol);\n        address _platform = ChronoBankAssetProxyInterface(_token).chronoBankPlatform();\n        address _tokenExtension = getTokenExtension(_platform);\n        address _assetOwnershipManager = TokenManagementInterface(_tokenExtension).getAssetOwnershipManager();\n        return ChronoBankAssetOwnershipManager(_assetOwnershipManager).hasAssetRights(_user, _symbol);\n    }\n\n    /// @notice Checks if a token with such symbol is registered in the system\n    /// @param _symbol symbol associated with some token\n    /// @return `true` if token with passed symbol exists, `false` otherwise\n    function isAssetSymbolExists(bytes32 _symbol) public view returns (bool) {\n        return getAssetBySymbol(_symbol) != 0x0;\n    }\n\n    /// @notice Gets token's address which is associated with a symbol\n    /// @param _symbol symbol associated with some token\n    /// @return address of a token with passed symbol\n    function getAssetBySymbol(bytes32 _symbol) public view returns (address) {\n        return ERC20ManagerInterface(lookupManager(\"ERC20Manager\")).getTokenAddressBySymbol(_symbol);\n    }\n\n    /// @notice Gets a number of assets in a platform where passed user is an owner.\n    /// @param _platform hosting platform\n    /// @param _owner user to be checked for ownership\n    /// @return a number of assets in user's ownership\n    function getAssetsForOwnerCount(address _platform, address _owner) public view returns (uint count) {\n        TokenManagementInterface _tokenExtension = TokenManagementInterface(getTokenExtension(_platform));\n        ChronoBankAssetOwnershipManager _assetsOwnershipManager = ChronoBankAssetOwnershipManager(_tokenExtension.getAssetOwnershipManager());\n\n        uint symbolsCount = _assetsOwnershipManager.symbolsCount();\n        for (uint symbolsIdx = 0; symbolsIdx < symbolsCount; ++symbolsIdx) {\n            bytes32 _symbol = _assetsOwnershipManager.symbols(symbolsIdx);\n            if (_assetsOwnershipManager.hasAssetRights(_owner, _symbol)) {\n                ++count;\n            }\n        }\n    }\n\n    /// @notice Returns the exact asset symbol hosted in a platform with passed user as an owner by accessing it by index.\n    ///\n    /// @param _platform hosting platform\n    /// @param _owner user to be checked for ownership\n    /// @param _idx index of a symbol. Should no more than number of assets for this owner minus 1\n    ///\n    /// @return symbol of an asset\n    function getAssetForOwnerAtIndex(\n        address _platform,\n        address _owner,\n        uint _idx\n    )\n    public\n    view\n    returns (bytes32)\n    {\n        TokenManagementInterface _tokenExtension = TokenManagementInterface(getTokenExtension(_platform));\n        ChronoBankAssetOwnershipManager _assetsOwnershipManager = ChronoBankAssetOwnershipManager(_tokenExtension.getAssetOwnershipManager());\n\n        uint currentIdx = _idx - 1;\n        uint symbolsCount = _assetsOwnershipManager.symbolsCount();\n        for (uint symbolsIdx = _idx; symbolsIdx < symbolsCount; ++symbolsIdx) {\n            bytes32 _symbol = _assetsOwnershipManager.symbols(symbolsIdx);\n            if (_assetsOwnershipManager.hasAssetRights(_owner, _symbol) && ++currentIdx == _idx) {\n                return _symbol;\n            }\n        }\n    }\n\n    function getOwnedAssetsFromPlatforms(address[] _platforms) public view returns (address[] _foundPlatforms, address[] _foundAssets) {\n        return _getOwnedAssetsFromPlatforms(_platforms, msg.sender);\n    }\n\n    function _getOwnedAssetsFromPlatforms(address[] _platforms, address _user) public view returns (address[] _associatedPlatforms, address[] _foundAssets) {\n        _associatedPlatforms = new address[](_platforms.length);\n        _foundAssets = new address[](_platforms.length);\n\n        uint _assetsPointer = 0;\n        for (uint _platformIdx = 0; _platformIdx < _platforms.length; ++_platformIdx) {\n            ChronoBankPlatformInterface _platform = ChronoBankPlatformInterface(_platforms[_platformIdx]);\n            \n            uint _assetsCount = _platform.symbolsCount();\n            for (uint _assetIdx = 0; _assetIdx < _assetsCount; ++_assetIdx) {\n                bytes32 _symbol = _platform.symbols(_assetIdx);\n                if (_platform.hasAssetRights(_user, _symbol)) {\n                    (_associatedPlatforms[_assetsPointer], _foundAssets[_assetsPointer]) = (address(_platform), _platform.proxies(_symbol));\n                    _assetsPointer += 1;\n                }\n            }\n        }\n    }\n\n    function getManagersForAsset(address _asset) public view returns (address[] _managers) {\n        ChronoBankAssetProxyInterface _assetProxy = ChronoBankAssetProxyInterface(_asset);\n        ChronoBankPlatform _platform = ChronoBankPlatform(_assetProxy.chronoBankPlatform());\n        bytes32 _symbol = _assetProxy.smbl();\n        uint _holdersCount = _platform.holdersCount();\n        _managers = new address[](_holdersCount);\n        \n        uint _managerPointer = 0;\n        for (uint _holderIdx = 1; _holderIdx <= _holdersCount; ++_holderIdx) {\n            address _holderAddress = _platform.holders(_holderIdx);\n            if (_platform.hasAssetRights(_holderAddress, _symbol)) {\n                _managers[_managerPointer] = _holderAddress;\n                _managerPointer += 1;\n            }\n        }\n    }\n\n    /** Backward compatibility */\n\n    /// @notice This method is deprecated and used only for backward compatibility with platforms\n    function assetOwnerAdded(bytes32, address, address) public {\n    }\n\n    /// @notice This method is deprecated and used only for backward compatibility with platforms\n    function assetOwnerRemoved(bytes32, address, address) public {\n    }\n\n    /** Helper functions */\n\n    /// @dev Binds some internal variables during token extension setup. PRIVATE\n    function _setupTokenExtension(address _platform, address _tokenExtension) private {\n        assert(EventsHistory(getEventsHistory()).authorize(_tokenExtension));\n\n        store.add(tokenExtensions, _tokenExtension);\n        store.set(platformToExtension, _platform, _tokenExtension);\n    }\n\n    /** Events emitting */\n\n    function _emitError(uint _errorCode) private returns (uint) {\n        AssetsManagerEmitter(getEventsHistory()).emitError(_errorCode);\n        return _errorCode;\n    }\n\n    function _emitTokenExtensionRequested(address _platform, address _tokenExtension) private {\n        AssetsManagerEmitter(getEventsHistory()).emitTokenExtensionRequested(_platform, _tokenExtension);\n    }\n\n    function _emitTokenExtensionRegistered(address _platform, address _tokenExtension) private {\n        AssetsManagerEmitter(getEventsHistory()).emitTokenExtensionRegistered(_platform, _tokenExtension);\n    }\n\n    function _emitTokenExtensionUnregistered(address _tokenExtension) private {\n        AssetsManagerEmitter(getEventsHistory()).emitTokenExtensionUnregistered(_tokenExtension);\n    }\n}\n",
  "sourcePath": "/Users/alesanro/Documents/Projects/ChronoBank/SmartContracts/contracts/assets/AssetsManager.sol",
  "compiler": {
    "name": "solc",
    "version": "0.4.21+commit.dfe3193c.Emscripten.clang"
  },
  "schemaVersion": "2.0.0",
  "updatedAt": "2018-04-06T09:20:58.181Z"
}