{
  "contractName": "AssetsManagerEmitter",
  "abi": [
    {
      "anonymous": false,
      "inputs": [
        {
          "indexed": true,
          "name": "self",
          "type": "address"
        },
        {
          "indexed": false,
          "name": "errorCode",
          "type": "uint256"
        }
      ],
      "name": "Error",
      "type": "event"
    },
    {
      "anonymous": false,
      "inputs": [
        {
          "indexed": true,
          "name": "self",
          "type": "address"
        },
        {
          "indexed": false,
          "name": "platform",
          "type": "address"
        },
        {
          "indexed": false,
          "name": "tokenExtension",
          "type": "address"
        }
      ],
      "name": "TokenExtensionRequested",
      "type": "event"
    },
    {
      "anonymous": false,
      "inputs": [
        {
          "indexed": true,
          "name": "self",
          "type": "address"
        },
        {
          "indexed": false,
          "name": "platform",
          "type": "address"
        },
        {
          "indexed": false,
          "name": "tokenExtension",
          "type": "address"
        }
      ],
      "name": "TokenExtensionRegistered",
      "type": "event"
    },
    {
      "anonymous": false,
      "inputs": [
        {
          "indexed": true,
          "name": "self",
          "type": "address"
        },
        {
          "indexed": false,
          "name": "tokenExtension",
          "type": "address"
        }
      ],
      "name": "TokenExtensionUnregistered",
      "type": "event"
    },
    {
      "constant": false,
      "inputs": [
        {
          "name": "errorCode",
          "type": "uint256"
        }
      ],
      "name": "emitError",
      "outputs": [],
      "payable": false,
      "stateMutability": "nonpayable",
      "type": "function"
    },
    {
      "constant": false,
      "inputs": [
        {
          "name": "_platform",
          "type": "address"
        },
        {
          "name": "_tokenExtension",
          "type": "address"
        }
      ],
      "name": "emitTokenExtensionRequested",
      "outputs": [],
      "payable": false,
      "stateMutability": "nonpayable",
      "type": "function"
    },
    {
      "constant": false,
      "inputs": [
        {
          "name": "_platform",
          "type": "address"
        },
        {
          "name": "_tokenExtension",
          "type": "address"
        }
      ],
      "name": "emitTokenExtensionRegistered",
      "outputs": [],
      "payable": false,
      "stateMutability": "nonpayable",
      "type": "function"
    },
    {
      "constant": false,
      "inputs": [
        {
          "name": "_tokenExtension",
          "type": "address"
        }
      ],
      "name": "emitTokenExtensionUnregistered",
      "outputs": [],
      "payable": false,
      "stateMutability": "nonpayable",
      "type": "function"
    }
  ],
  "bytecode": "0x6060604052341561000f57600080fd5b6102658061001e6000396000f3006060604052600436106100615763ffffffff7c01000000000000000000000000000000000000000000000000000000006000350416632d305c8281146100665780638f8068bb146100875780639e6c2765146100ac578063df26ca08146100d1575b600080fd5b341561007157600080fd5b610085600160a060020a03600435166100e7565b005b341561009257600080fd5b610085600160a060020a0360043581169060243516610138565b34156100b757600080fd5b610085600160a060020a0360043581169060243516610193565b34156100dc57600080fd5b6100856004356101ee565b6100ef610235565b600160a060020a03167f3f50f7daabc6e49127dd3b03b7f7326b60b1ae07a5f8956899da1fd1b51b055482604051600160a060020a03909116815260200160405180910390a250565b610140610235565b600160a060020a03167fadaec20b36aa073df965798f4aa38bd5cedd19491766793d87792ae08c4bae9d8383604051600160a060020a039283168152911660208201526040908101905180910390a25050565b61019b610235565b600160a060020a03167ff149a753669bf8ae72a54d5becee2a0f78297c8513b9c74bac5aa1acd59a84268383604051600160a060020a039283168152911660208201526040908101905180910390a25050565b6101f6610235565b600160a060020a03167f9cf38cf2dbf9139f5c32639950507b10775fbbe0421f3e168bc2d1bb1ae3208c8260405190815260200160405180910390a250565b33905600a165627a7a72305820030bf30f04519ea337617ecb0589bb9de4ecb308309fabe062b551d4870d875a0029",
  "source": "pragma solidity ^0.4.11;\n\nimport '../core/event/MultiEventsHistoryAdapter.sol';\n\n/**\n* @title Emitter with support of events history for AssetsManager\n*/\ncontract AssetsManagerEmitter is MultiEventsHistoryAdapter {\n\n    /** error event */\n    event Error(address indexed self, uint errorCode);\n\n    /** event for requesting token extension */\n    event TokenExtensionRequested(address indexed self, address platform, address tokenExtension);\n\n    /** event for registering token extension */\n    event TokenExtensionRegistered(address indexed self, address platform, address tokenExtension);\n\n    /** event for unregistering token extension */\n    event TokenExtensionUnregistered(address indexed self, address tokenExtension);\n\n    /** Emitting events */\n\n    function emitError(uint errorCode) public {\n        Error(_self(), errorCode);\n    }\n\n    function emitTokenExtensionRequested(address _platform, address _tokenExtension) public {\n        TokenExtensionRequested(_self(), _platform, _tokenExtension);\n    }\n\n    function emitTokenExtensionRegistered(address _platform, address _tokenExtension) public {\n        TokenExtensionRegistered(_self(), _platform, _tokenExtension);\n    }\n\n    function emitTokenExtensionUnregistered(address _tokenExtension) public {\n        TokenExtensionUnregistered(_self(), _tokenExtension);\n    }\n}\n",
  "sourcePath": "/Users/alesanro/Documents/Projects/ChronoBank/SmartContracts/contracts/assets/AssetsManagerEmitter.sol",
  "compiler": {
    "name": "solc",
    "version": "0.4.21+commit.dfe3193c.Emscripten.clang"
  },
  "schemaVersion": "2.0.0",
  "updatedAt": "2018-04-06T09:20:58.186Z"
}