{
  "contractName": "BaseManager",
  "abi": [
    {
      "constant": false,
      "inputs": [],
      "name": "claimContractOwnership",
      "outputs": [
        {
          "name": "",
          "type": "bool"
        }
      ],
      "payable": false,
      "stateMutability": "nonpayable",
      "type": "function"
    },
    {
      "constant": true,
      "inputs": [
        {
          "name": "_identifier",
          "type": "bytes32"
        }
      ],
      "name": "lookupManager",
      "outputs": [
        {
          "name": "manager",
          "type": "address"
        }
      ],
      "payable": false,
      "stateMutability": "view",
      "type": "function"
    },
    {
      "constant": true,
      "inputs": [],
      "name": "contractsManager",
      "outputs": [
        {
          "name": "",
          "type": "address"
        }
      ],
      "payable": false,
      "stateMutability": "view",
      "type": "function"
    },
    {
      "constant": false,
      "inputs": [
        {
          "name": "_to",
          "type": "address"
        }
      ],
      "name": "changeContractOwnership",
      "outputs": [
        {
          "name": "",
          "type": "bool"
        }
      ],
      "payable": false,
      "stateMutability": "nonpayable",
      "type": "function"
    },
    {
      "constant": true,
      "inputs": [],
      "name": "pendingContractOwner",
      "outputs": [
        {
          "name": "",
          "type": "address"
        }
      ],
      "payable": false,
      "stateMutability": "view",
      "type": "function"
    },
    {
      "constant": false,
      "inputs": [
        {
          "name": "_contractsManager",
          "type": "address"
        }
      ],
      "name": "setContractsManager",
      "outputs": [],
      "payable": false,
      "stateMutability": "nonpayable",
      "type": "function"
    },
    {
      "constant": false,
      "inputs": [
        {
          "name": "_to",
          "type": "address"
        }
      ],
      "name": "transferContractOwnership",
      "outputs": [
        {
          "name": "",
          "type": "bool"
        }
      ],
      "payable": false,
      "stateMutability": "nonpayable",
      "type": "function"
    },
    {
      "constant": true,
      "inputs": [],
      "name": "contractOwner",
      "outputs": [
        {
          "name": "",
          "type": "address"
        }
      ],
      "payable": false,
      "stateMutability": "view",
      "type": "function"
    },
    {
      "constant": false,
      "inputs": [
        {
          "name": "tokens",
          "type": "address[]"
        },
        {
          "name": "_to",
          "type": "address"
        }
      ],
      "name": "withdrawnTokens",
      "outputs": [
        {
          "name": "",
          "type": "uint256"
        }
      ],
      "payable": false,
      "stateMutability": "nonpayable",
      "type": "function"
    },
    {
      "constant": true,
      "inputs": [
        {
          "name": "key",
          "type": "address"
        }
      ],
      "name": "isAuthorized",
      "outputs": [
        {
          "name": "",
          "type": "bool"
        }
      ],
      "payable": false,
      "stateMutability": "view",
      "type": "function"
    },
    {
      "inputs": [
        {
          "name": "_store",
          "type": "address"
        },
        {
          "name": "_crate",
          "type": "bytes32"
        }
      ],
      "payable": false,
      "stateMutability": "nonpayable",
      "type": "constructor"
    },
    {
      "constant": false,
      "inputs": [
        {
          "name": "_eventsHistory",
          "type": "address"
        }
      ],
      "name": "setEventsHistory",
      "outputs": [],
      "payable": false,
      "stateMutability": "nonpayable",
      "type": "function"
    },
    {
      "constant": true,
      "inputs": [],
      "name": "getEventsHistory",
      "outputs": [
        {
          "name": "",
          "type": "address"
        }
      ],
      "payable": false,
      "stateMutability": "view",
      "type": "function"
    },
    {
      "constant": false,
      "inputs": [],
      "name": "destroy",
      "outputs": [],
      "payable": false,
      "stateMutability": "nonpayable",
      "type": "function"
    }
  ],
  "bytecode": "0x6060604052341561000f57600080fd5b60405160408061083e8339810160405280805191906020018051915082905081818161004a6000838364010000000061073061008782021704565b505060028054600160a060020a03338116600160a060020a031992831617909255600580543090931692909116919091179055506100ad92505050565b8254600160a060020a031916600160a060020a0392909216919091178255600190910155565b610782806100bc6000396000f3006060604052600436106100ab5763ffffffff60e060020a6000350416634592cd1d81146100b05780634fe59012146100d757806353253d3114610109578063557f4bc91461011c5780635aa77d3c1461013b5780636521afd71461014e57806371d3b5731461016f57806383197ef01461018e578063a843c51f146101a1578063ce606ee0146101c0578063d8f9659b146101d3578063fe9fbb801461023f578063fff10aba1461025e575b600080fd5b34156100bb57600080fd5b6100c3610271565b604051901515815260200160405180910390f35b34156100e257600080fd5b6100ed6004356102be565b604051600160a060020a03909116815260200160405180910390f35b341561011457600080fd5b6100ed61033b565b341561012757600080fd5b6100c3600160a060020a036004351661034a565b341561014657600080fd5b6100ed6103a1565b341561015957600080fd5b61016d600160a060020a03600435166103b0565b005b341561017a57600080fd5b61016d600160a060020a03600435166103e6565b341561019957600080fd5b61016d61041d565b34156101ac57600080fd5b6100c3600160a060020a03600435166104a6565b34156101cb57600080fd5b6100ed61051f565b34156101de57600080fd5b61022d600460248135818101908301358060208181020160405190810160405280939291908181526020018383602002808284375094965050509235600160a060020a0316925061052e915050565b60405190815260200160405180910390f35b341561024a57600080fd5b6100c3600160a060020a0360043516610665565b341561026957600080fd5b6100ed6106fe565b60035460009033600160a060020a03908116911614610292575060006102bb565b506003805460028054600160a060020a0319908116600160a060020a0384161790915516905560015b90565b600454600090600160a060020a031663bc6579278360405160e060020a63ffffffff84160281526004810191909152602401602060405180830381600087803b151561030957600080fd5b5af1151561031657600080fd5b5050506040518051915050600160a060020a038116151561033657600080fd5b919050565b600454600160a060020a031681565b60025460009033600160a060020a039081169116141561033657600160a060020a038216151561037c57506000610336565b5060038054600160a060020a038316600160a060020a03199091161790556001919050565b600354600160a060020a031681565b60025433600160a060020a03908116911614156103e35760058054600160a060020a031916600160a060020a0383161790555b50565b60025433600160a060020a03908116911614156103e35760048054600160a060020a038316600160a060020a031990911617905550565b60025433600160a060020a03908116911614156104a457600454600160a060020a031663c375c2ef3060405160e060020a63ffffffff8416028152600160a060020a039091166004820152602401602060405180830381600087803b151561048457600080fd5b5af1151561049157600080fd5b50505060405180519050506104a461070d565b565b60025460009033600160a060020a039081169116141561033657600160a060020a03821615156104d857506000610336565b600354600160a060020a0316156104fa5760038054600160a060020a03191690555b5060028054600160a060020a038316600160a060020a03199091161790556001919050565b600254600160a060020a031681565b60025460009081908190819033600160a060020a039081169116141561065c57600092505b85518310156106575785838151811061056857fe5b90602001906020020151915081600160a060020a03166370a082313060405160e060020a63ffffffff8416028152600160a060020a039091166004820152602401602060405180830381600087803b15156105c257600080fd5b5af115156105cf57600080fd5b5050506040518051915050801561064c5781600160a060020a031663a9059cbb868360405160e060020a63ffffffff8516028152600160a060020a0390921660048301526024820152604401602060405180830381600087803b151561063457600080fd5b5af1151561064157600080fd5b505050604051805150505b600190920191610553565b600193505b50505092915050565b6000806106917f557365724d616e616765720000000000000000000000000000000000000000006102be565b905080600160a060020a0316632aa09e5a8460405160e060020a63ffffffff8416028152600160a060020a039091166004820152602401602060405180830381600087803b15156106e157600080fd5b5af115156106ee57600080fd5b5050506040518051949350505050565b600554600160a060020a031690565b60025433600160a060020a03908116911614156104a45733600160a060020a0316ff5b8254600160a060020a031916600160a060020a03929092169190911782556001909101555600a165627a7a72305820df904cc9318bd8d8a4febcb427a3313cb84f2b7dacc9aa95d2c8138187e8cc550029",
  "source": "pragma solidity ^0.4.11;\n\nimport \"./Managed.sol\";\n\ncontract BaseManager is Managed {\n    address eventsEmmiter;\n\n    uint constant REINITIALIZED = 6;\n\n    function BaseManager(Storage _store, bytes32 _crate) Managed(_store, _crate) {\n        eventsEmmiter = this;\n    }\n\n    /**\n    *  @dev Designed to be used by ancestors, inits internal fields.\n    *  Will rollback transaction if something goes wrong during initialization.\n    *  Registers contract as a service in ContractManager with given `_type`.\n    *\n    *  @param _contractsManager is contract manager, must be not 0x0\n    *  @param _type is an identificator, could be 0x0\n    *  @return OK if newly initialized and everything is OK,\n    *  or REINITIALIZED if storage already contains some data. Will crash in any other cases.\n    */\n    function init(address _contractsManager, bytes32 _type) internal returns (uint resultCode) {\n        // since this method is designed to be used by ancestors\n        // do not even allow non-owner to call this\n        require(contractOwner == msg.sender);\n        require(_contractsManager != 0x0);\n\n        bool reinitialized = (contractsManager != 0x0);\n\n        if(contractsManager == 0x0 || contractsManager != _contractsManager) {\n            contractsManager = _contractsManager;\n        }\n\n        ContractsManagerInterface serviceProvider = ContractsManagerInterface(contractsManager);\n\n        address multiEventsHistory = serviceProvider.getContractAddressByType(\"MultiEventsHistory\");\n        if (multiEventsHistory != 0x0 && multiEventsHistory != eventsEmmiter) {\n            eventsEmmiter = multiEventsHistory;\n        }\n\n        if (_type != 0x0) {\n            assert(OK == serviceProvider.addContract(this, _type));\n        }\n\n        return !reinitialized ? OK : REINITIALIZED;\n    }\n\n    function setEventsHistory(address _eventsHistory) onlyContractOwner {\n        eventsEmmiter = _eventsHistory;\n    }\n\n    function getEventsHistory() constant returns (address) {\n        return eventsEmmiter;\n    }\n\n    function destroy() onlyContractOwner {\n        ContractsManagerInterface(contractsManager).removeContract(this);\n\n        Owned.destroy();\n    }\n}\n",
  "sourcePath": "/Users/alesanro/Documents/Projects/ChronoBank/SmartContracts/contracts/core/common/BaseManager.sol",
  "compiler": {
    "name": "solc",
    "version": "0.4.21+commit.dfe3193c.Emscripten.clang"
  },
  "schemaVersion": "2.0.0",
  "updatedAt": "2018-04-06T09:20:58.321Z"
}