{
  "contractName": "BlockLimitedCrowdsaleFactory",
  "abi": [
    {
      "constant": false,
      "inputs": [],
      "name": "claimContractOwnership",
      "outputs": [
        {
          "name": "",
          "type": "bool"
        }
      ],
      "payable": false,
      "stateMutability": "nonpayable",
      "type": "function"
    },
    {
      "constant": true,
      "inputs": [
        {
          "name": "_identifier",
          "type": "bytes32"
        }
      ],
      "name": "lookupManager",
      "outputs": [
        {
          "name": "manager",
          "type": "address"
        }
      ],
      "payable": false,
      "stateMutability": "view",
      "type": "function"
    },
    {
      "constant": true,
      "inputs": [],
      "name": "contractsManager",
      "outputs": [
        {
          "name": "",
          "type": "address"
        }
      ],
      "payable": false,
      "stateMutability": "view",
      "type": "function"
    },
    {
      "constant": false,
      "inputs": [
        {
          "name": "_to",
          "type": "address"
        }
      ],
      "name": "changeContractOwnership",
      "outputs": [
        {
          "name": "",
          "type": "bool"
        }
      ],
      "payable": false,
      "stateMutability": "nonpayable",
      "type": "function"
    },
    {
      "constant": true,
      "inputs": [],
      "name": "pendingContractOwner",
      "outputs": [
        {
          "name": "",
          "type": "address"
        }
      ],
      "payable": false,
      "stateMutability": "view",
      "type": "function"
    },
    {
      "constant": false,
      "inputs": [
        {
          "name": "_priceTiker",
          "type": "address"
        }
      ],
      "name": "setPriceTicker",
      "outputs": [],
      "payable": false,
      "stateMutability": "nonpayable",
      "type": "function"
    },
    {
      "constant": false,
      "inputs": [
        {
          "name": "_eventsHistory",
          "type": "address"
        }
      ],
      "name": "setEventsHistory",
      "outputs": [],
      "payable": false,
      "stateMutability": "nonpayable",
      "type": "function"
    },
    {
      "constant": false,
      "inputs": [
        {
          "name": "_contractsManager",
          "type": "address"
        }
      ],
      "name": "setContractsManager",
      "outputs": [],
      "payable": false,
      "stateMutability": "nonpayable",
      "type": "function"
    },
    {
      "constant": true,
      "inputs": [],
      "name": "getPriceTicker",
      "outputs": [
        {
          "name": "",
          "type": "address"
        }
      ],
      "payable": false,
      "stateMutability": "view",
      "type": "function"
    },
    {
      "constant": false,
      "inputs": [],
      "name": "destroy",
      "outputs": [],
      "payable": false,
      "stateMutability": "nonpayable",
      "type": "function"
    },
    {
      "constant": false,
      "inputs": [
        {
          "name": "_to",
          "type": "address"
        }
      ],
      "name": "transferContractOwnership",
      "outputs": [
        {
          "name": "",
          "type": "bool"
        }
      ],
      "payable": false,
      "stateMutability": "nonpayable",
      "type": "function"
    },
    {
      "constant": true,
      "inputs": [],
      "name": "contractOwner",
      "outputs": [
        {
          "name": "",
          "type": "address"
        }
      ],
      "payable": false,
      "stateMutability": "view",
      "type": "function"
    },
    {
      "constant": false,
      "inputs": [
        {
          "name": "tokens",
          "type": "address[]"
        },
        {
          "name": "_to",
          "type": "address"
        }
      ],
      "name": "withdrawnTokens",
      "outputs": [
        {
          "name": "",
          "type": "uint256"
        }
      ],
      "payable": false,
      "stateMutability": "nonpayable",
      "type": "function"
    },
    {
      "constant": false,
      "inputs": [
        {
          "name": "_contractsManager",
          "type": "address"
        },
        {
          "name": "_priceTiker",
          "type": "address"
        }
      ],
      "name": "init",
      "outputs": [
        {
          "name": "",
          "type": "uint256"
        }
      ],
      "payable": false,
      "stateMutability": "nonpayable",
      "type": "function"
    },
    {
      "constant": true,
      "inputs": [
        {
          "name": "key",
          "type": "address"
        }
      ],
      "name": "isAuthorized",
      "outputs": [
        {
          "name": "",
          "type": "bool"
        }
      ],
      "payable": false,
      "stateMutability": "view",
      "type": "function"
    },
    {
      "constant": true,
      "inputs": [],
      "name": "getEventsHistory",
      "outputs": [
        {
          "name": "",
          "type": "address"
        }
      ],
      "payable": false,
      "stateMutability": "view",
      "type": "function"
    },
    {
      "inputs": [
        {
          "name": "_store",
          "type": "address"
        },
        {
          "name": "_crate",
          "type": "bytes32"
        }
      ],
      "payable": false,
      "stateMutability": "nonpayable",
      "type": "constructor"
    },
    {
      "constant": false,
      "inputs": [
        {
          "name": "_symbol",
          "type": "bytes32"
        }
      ],
      "name": "createCrowdsale",
      "outputs": [
        {
          "name": "",
          "type": "address"
        }
      ],
      "payable": false,
      "stateMutability": "nonpayable",
      "type": "function"
    }
  ],
  "bytecode": "0x6060604052341561000f57600080fd5b60405160408061395b833981016040528080519190602001805191508290508181818181818161004e60008383640100000000610cc56100c982021704565b505060028054600160a060020a03338116600160a060020a031992831617909255600580543090931692909116919091179055506100c09250600691507f707269636554696b6572000000000000000000000000000000000000000000009050640100000000610ceb6100ef82021704565b50505050610126565b8254600160a060020a031916600160a060020a0392909216919091178255600190910155565b81546101089082640100000000610cfd61010c82021704565b9055565b81151580610118575080155b1561012257600080fd5b5050565b613826806101356000396000f300606060405260043610620000e95763ffffffff60e060020a6000350416634592cd1d8114620000ee5780634fe59012146200011857806353253d31146200014d578063557f4bc914620001635780635aa77d3c14620001855780635e8fac66146200019b5780636521afd714620001bf57806371d3b57314620001e15780637ea91547146200020357806383197ef01462000219578063a843c51f146200022f578063ce606ee01462000251578063d8f9659b1462000267578063f09a401614620002d6578063f40444d714620002fe578063fe9fbb801462000317578063fff10aba1462000339575b600080fd5b3415620000fa57600080fd5b620001046200034f565b604051901515815260200160405180910390f35b34156200012457600080fd5b620001316004356200039e565b604051600160a060020a03909116815260200160405180910390f35b34156200015957600080fd5b620001316200041e565b34156200016f57600080fd5b62000104600160a060020a03600435166200042d565b34156200019157600080fd5b6200013162000487565b3415620001a757600080fd5b620001bd600160a060020a036004351662000496565b005b3415620001cb57600080fd5b620001bd600160a060020a0360043516620004dc565b3415620001ed57600080fd5b620001bd600160a060020a036004351662000514565b34156200020f57600080fd5b620001316200054c565b34156200022557600080fd5b620001bd62000566565b34156200023b57600080fd5b62000104600160a060020a0360043516620005f4565b34156200025d57600080fd5b6200013162000671565b34156200027357600080fd5b620002c4600460248135818101908301358060208181020160405190810160405280939291908181526020018383602002808284375094965050509235600160a060020a0316925062000680915050565b60405190815260200160405180910390f35b3415620002e257600080fd5b620002c4600160a060020a0360043581169060243516620007c0565b34156200030a57600080fd5b6200013160043562000802565b34156200032357600080fd5b62000104600160a060020a036004351662000928565b34156200034557600080fd5b62000131620009c5565b60035460009033600160a060020a0390811691161462000372575060006200039b565b506003805460028054600160a060020a0319908116600160a060020a0384161790915516905560015b90565b600454600090600160a060020a031663bc6579278360405160e060020a63ffffffff84160281526004810191909152602401602060405180830381600087803b1515620003ea57600080fd5b5af11515620003f857600080fd5b5050506040518051915050600160a060020a03811615156200041957600080fd5b919050565b600454600160a060020a031681565b60025460009033600160a060020a03908116911614156200041957600160a060020a0382161515620004625750600062000419565b5060038054600160a060020a038316600160a060020a03199091161790556001919050565b600354600160a060020a031681565b60025433600160a060020a0390811691161415620004d957600160a060020a0381161515620004c457600080fd5b620004d9600060068363ffffffff620009d416565b50565b60025433600160a060020a0390811691161415620004d95760058054600160a060020a038316600160a060020a031990911617905550565b60025433600160a060020a0390811691161415620004d95760048054600160a060020a038316600160a060020a031990911617905550565b60006200056181600663ffffffff62000a5416565b905090565b60025433600160a060020a0390811691161415620005f257600454600160a060020a031663c375c2ef3060405160e060020a63ffffffff8416028152600160a060020a039091166004820152602401602060405180830381600087803b1515620005cf57600080fd5b5af11515620005dd57600080fd5b5050506040518051905050620005f262000aac565b565b60025460009033600160a060020a03908116911614156200041957600160a060020a0382161515620006295750600062000419565b600354600160a060020a0316156200064c5760038054600160a060020a03191690555b5060028054600160a060020a038316600160a060020a03199091161790556001919050565b600254600160a060020a031681565b60025460009081908190819033600160a060020a0390811691161415620007b757600092505b8551831015620007b257858381518110620006bd57fe5b90602001906020020151915081600160a060020a03166370a082313060405160e060020a63ffffffff8416028152600160a060020a039091166004820152602401602060405180830381600087803b15156200071857600080fd5b5af115156200072657600080fd5b50505060405180519150508015620007a65781600160a060020a031663a9059cbb868360405160e060020a63ffffffff8516028152600160a060020a0390921660048301526024820152604401602060405180830381600087803b15156200078d57600080fd5b5af115156200079b57600080fd5b505050604051805150505b600190920191620006a6565b600193505b50505092915050565b60025460009033600160a060020a0390811691161415620007fc57620007ec8360006001015462000ad0565b50620007f88262000496565b5060015b92915050565b600080620008307f43726f776473616c654d616e61676572000000000000000000000000000000006200039e565b600160a060020a031633600160a060020a0316141562000922578215156200085757600080fd5b600454600160a060020a0316836200086e6200054c565b6200087862000cb4565b600160a060020a039384168152602081019290925290911660408083019190915260609091019051809103906000f0801515620008b457600080fd5b905080600160a060020a031663557f4bc93360405160e060020a63ffffffff8416028152600160a060020a039091166004820152602401602060405180830381600087803b15156200090557600080fd5b5af115156200091357600080fd5b50505060405180519050508091505b50919050565b600080620009567f557365724d616e616765720000000000000000000000000000000000000000006200039e565b905080600160a060020a0316632aa09e5a8460405160e060020a63ffffffff8416028152600160a060020a039091166004820152602401602060405180830381600087803b1515620009a757600080fd5b5af11515620009b557600080fd5b5050506040518051949350505050565b600554600160a060020a031690565b825460018401548354600160a060020a03909216916379a7cfee91908460405160e060020a63ffffffff861602815260048101939093526024830191909152600160a060020a03166044820152606401600060405180830381600087803b151562000a3e57600080fd5b5af1151562000a4c57600080fd5b505050505050565b815460018301548254600092600160a060020a03169163d3a396869160405160e060020a63ffffffff851602815260048101929092526024820152604401602060405180830381600087803b1515620009a757600080fd5b60025433600160a060020a0390811691161415620005f25733600160a060020a0316ff5b60025460009081908190819033600160a060020a0390811691161462000af557600080fd5b600160a060020a038616151562000b0b57600080fd5b600454600160a060020a031615801593508062000b365750600454600160a060020a03878116911614155b1562000b585760048054600160a060020a031916600160a060020a0388161790555b600454600160a060020a031691508163bc65792760405160e060020a63ffffffff83160281527f4d756c74694576656e7473486973746f727900000000000000000000000000006004820152602401602060405180830381600087803b151562000bc157600080fd5b5af1151562000bcf57600080fd5b5050506040518051915050600160a060020a0381161580159062000c015750600554600160a060020a03828116911614155b1562000c235760058054600160a060020a031916600160a060020a0383161790555b841562000ca15781600160a060020a031663b7c46cd5308760405160e060020a63ffffffff8516028152600160a060020a0390921660048301526024820152604401602060405180830381600087803b151562000c7f57600080fd5b5af1151562000c8d57600080fd5b5050506040518051600114905062000ca157fe5b8215620007b25760069695505050505050565b604051612ae18062000d1a83390190565b8254600160a060020a031916600160a060020a0392909216919091178255600190910155565b815462000cf9908262000cfd565b9055565b8115158062000d0a575080155b1562000d1557600080fd5b505056006060604052600060035534156200001557600080fd5b60405160608062002ae183398101604052808051919060200180519190602001805160008054600160a060020a03191633600160a060020a03908116919091179091559092508491508390839083908390839083908390821615156200007a57600080fd5b8015156200008757600080fd5b60048054600160a060020a031916600160a060020a038416179055620000ba6401000000006200018681026200174b1704565b600160a060020a031663d5ed0d17826040517c010000000000000000000000000000000000000000000000000000000063ffffffff84160281526004810191909152602401602060405180830381600087803b15156200011957600080fd5b5af115156200012757600080fd5b5050506040518051905015156200013d57600080fd5b60025550600160a060020a03811615156200015757600080fd5b60098054600160a060020a031916600160a060020a0392909216919091179055506200025f9650505050505050565b6000620001c17f4173736574734d616e6167657200000000000000000000000000000000000000640100000000620017ed620001c682021704565b905090565b600454600090600160a060020a031663bc657927836040517c010000000000000000000000000000000000000000000000000000000063ffffffff84160281526004810191909152602401602060405180830381600087803b15156200022b57600080fd5b5af115156200023957600080fd5b5050506040518051915050600160a060020a03811615156200025a57600080fd5b919050565b612872806200026f6000396000f3006060604052600436106101d45763ffffffff60e060020a6000350416631507040181146102ba5780632014e5d1146102df5780632bac85ad1461030657806337b6ee7e1461031c5780633ccfd60b1461033e5780634207ad67146103535780634592cd1d146103755780634b6585f114610388578063522d8083146103d75780635471b709146103ea578063557f4bc91461040c578063590e1ae31461042b5780635aa77d3c1461043e5780635e8fac661461046d57806365ef326c1461048c578063692a1960146104b45780636e94a629146104c75780637123778e146104db5780637507db0a146104fa57806379502c55146105145780637ea915471461053f57806381a73ad51461055257806383197ef0146105715780638522585a146105845780638fe858d91461059a578063a843c51f146105ad578063b0744a60146105cc578063b60d4288146105e2578063b97a7d24146105f5578063bfd7ae7714610639578063c18c35da1461064f578063c91122d014610671578063ce606ee014610685578063d8f9659b14610698578063ecb70fb7146106f2578063ee7c0db014610705578063f07d76f114610718578063f416334014610767578063f50bf0291461077a578063fc09e49314610796575b6101dc6107a9565b15156101e757600080fd5b601154600160a060020a031615156101fe57600080fd5b30600160a060020a0316637507db0a333460405160e060020a63ffffffff8516028152600160a060020a039092166004830152602482015260eb60020a6208aa89026044820152606401600060405180830381600087803b151561026157600080fd5b5af1151561026e57600080fd5b50505033600160a060020a031630600160a060020a03167feeec398a06c4cfafcea2052bdb0817bab61da1505bf6b2a84e69deb00815f2933460405190815260200160405180910390a3005b34156102c557600080fd5b6102cd6107d3565b60405190815260200160405180910390f35b34156102ea57600080fd5b6102f26107a9565b604051901515815260200160405180910390f35b341561031157600080fd5b6102cd6004356107d9565b341561032757600080fd5b6102cd600160a060020a03600435166024356107eb565b341561034957600080fd5b610351610861565b005b341561035e57600080fd5b610351600160a060020a0360043516602435610981565b341561038057600080fd5b6102f2610a09565b341561039357600080fd5b6102cd6004602481358181019083013580602081810201604051908101604052809392919081815260200183836020028082843750949650610a5395505050505050565b34156103e257600080fd5b6102cd610bc7565b34156103f557600080fd5b6102cd600435600160a060020a0360243516610c6c565b341561041757600080fd5b6102f2600160a060020a0360043516610c89565b341561043657600080fd5b610351610cdb565b341561044957600080fd5b610451610de0565b604051600160a060020a03909116815260200160405180910390f35b341561047857600080fd5b610351600160a060020a0360043516610def565b341561049757600080fd5b61035160043560243560443560643560843560a43560c435610e9e565b34156104bf57600080fd5b6102f2610f9b565b610351600160a060020a0360043516610fa5565b34156104e657600080fd5b6102cd600160a060020a0360043516611268565b610351600160a060020a036004351660243560443561132f565b341561051f57600080fd5b610527611635565b60405191825260208201526040908101905180910390f35b341561054a57600080fd5b61045161163e565b341561055d57600080fd5b6102cd600160a060020a036004351661164d565b341561057c57600080fd5b6103516116fc565b341561058f57600080fd5b610451600435611730565b34156105a557600080fd5b61045161174b565b34156105b857600080fd5b6102f2600160a060020a0360043516611776565b34156105d757600080fd5b6104516004356117ed565b34156105ed57600080fd5b610451611865565b341561060057600080fd5b610608611874565b60405194855260208501939093526040808501929092526060840152608083019190915260a0909101905180910390f35b341561064457600080fd5b61045160043561188a565b341561065a57600080fd5b610351600160a060020a03600435166024356118a5565b610351600160a060020a0360043516611929565b341561069057600080fd5b610451611c11565b34156106a357600080fd5b6102cd600460248135818101908301358060208181020160405190810160405280939291908181526020018383602002808284375094965050509235600160a060020a03169250611c20915050565b34156106fd57600080fd5b6102f2611d55565b341561071057600080fd5b6102cd611dba565b341561072357600080fd5b6102cd6004602481358181019083013580602081810201604051908101604052809392919081815260200183836020028082843750949650611dc095505050505050565b341561077257600080fd5b6102f2611f24565b341561078557600080fd5b610351600435602435604435611f41565b34156107a157600080fd5b6104516120c7565b601354600090431180156107be575060145443105b80156107cd57506107cd6120f2565b90505b90565b60025490565b60076020526000908152604090205481565b6000818152600860205260408120548190839033600160a060020a0390811691161461081657600080fd5b61081e611f24565b151561082957600080fd5b6000848152600660209081526040808320600160a060020a038916845290915290205491506108598585846120fc565b509392505050565b600061086b610f9b565b151561087657600080fd5b61087e61174b565b600160a060020a03166325742b466002543360405160e060020a63ffffffff85160281526004810192909252600160a060020a03166024820152604401602060405180830381600087803b15156108d457600080fd5b5af115156108e157600080fd5b505050604051805190501561097e57601154600160a060020a0316151561090757600080fd5b50601154600160a060020a0330811631911681156108fc0282604051600060405180830381858888f19350505050151561094057600080fd5b30600160a060020a03167fdb35132c111efe920cede025e819975671cfd1b8fcc1174762c8670c4e94c2118260405190815260200160405180910390a25b50565b61098961174b565b600160a060020a03166325742b466002543360405160e060020a63ffffffff85160281526004810192909252600160a060020a03166024820152604401602060405180830381600087803b15156109df57600080fd5b5af115156109ec57600080fd5b5050506040518051905015610a0557610a05828261223b565b5050565b60015460009033600160a060020a03908116911614610a2a575060006107d0565b506001805460008054600160a060020a0319908116600160a060020a0384161790915516815590565b600080600080610a6161174b565b600160a060020a03166325742b466002543360405160e060020a63ffffffff85160281526004810192909252600160a060020a03166024820152604401602060405180830381600087803b1515610ab757600080fd5b5af11515610ac457600080fd5b5050506040518051905015610bbf57610adb6120c7565b9250600091505b8451821015610bba5782600160a060020a031663fa7fdeb7868481518110610b0657fe5b9060200190602002015160405160e060020a63ffffffff84160281526004810191909152602401602060405180830381600087803b1515610b4657600080fd5b5af11515610b5357600080fd5b5050506040518051915050600160a060020a03811615610baf57600160a060020a0381166000908152601260205260409020805460ff19166001179055610baf30868481518110610ba057fe5b906020019060200201516122ce565b600190910190610ae2565b600193505b505050919050565b6000610bd161174b565b600160a060020a03166325742b466002543360405160e060020a63ffffffff85160281526004810192909252600160a060020a03166024820152604401602060405180830381600087803b1515610c2757600080fd5b5af11515610c3457600080fd5b50505060405180519050156107d05760118054600160a060020a0319169055610c663060eb60020a6208aa890261223b565b50600190565b600660209081526000928352604080842090915290825290205481565b6000805433600160a060020a0390811691161415610cd657600160a060020a0382161515610cb957506000610cd6565b5060018054600160a060020a031916600160a060020a0383161781555b919050565b6000610ce5611f24565b1515610cf057600080fd5b30600160a060020a03166337b6ee7e3360405160e060020a63ffffffff8416028152600160a060020a03909116600482015260eb60020a6208aa89026024820152604401602060405180830381600087803b1515610d4d57600080fd5b5af11515610d5a57600080fd5b5050506040518051915050600160a060020a03331681156108fc0282604051600060405180830381858888f193505050501515610d9657600080fd5b33600160a060020a031630600160a060020a03167f26fc102d9e9d6a9441e7a052f6e93961cbe7bc481f0453332f956352c6480aa28360405190815260200160405180910390a350565b600154600160a060020a031681565b610df761174b565b600160a060020a03166325742b466002543360405160e060020a63ffffffff85160281526004810192909252600160a060020a03166024820152604401602060405180830381600087803b1515610e4d57600080fd5b5af11515610e5a57600080fd5b505050604051805190501561097e57600160a060020a0381161515610e7e57600080fd5b60098054600160a060020a038316600160a060020a031990911617905550565b610ea661174b565b600160a060020a03166325742b466002543360405160e060020a63ffffffff85160281526004810192909252600160a060020a03166024820152604401602060405180830381600087803b1515610efc57600080fd5b5af11515610f0957600080fd5b5050506040518051905015610f925760008035600160e060020a03191681526005602052604090205460ff161515610f9257818111610f4757600080fd5b43819010610f5457600080fd5b610f618787878787612369565b6013829055601481905560008035600160e060020a03191681526005602052604090208054600160ff199091161790555b50505050505050565b600c546010541190565b6000806000610fb2611f24565b1515610fbd57600080fd5b600160a060020a0384161515610fd257600080fd5b610fda6120c7565b600160a060020a0316639ed4fa5a8560405160e060020a63ffffffff8416028152600160a060020a039091166004820152602401602060405180830381600087803b151561102757600080fd5b5af1151561103457600080fd5b50505060405180519050151561104957600080fd5b30600160a060020a03166337b6ee7e336110628761164d565b60405160e060020a63ffffffff8516028152600160a060020a0390921660048301526024820152604401602060405180830381600087803b15156110a557600080fd5b5af115156110b257600080fd5b5050506040518051905092506110c78461164d565b915083600160a060020a03166370a082313060405160e060020a63ffffffff8416028152600160a060020a039091166004820152602401602060405180830381600087803b151561111757600080fd5b5af1151561112457600080fd5b5050506040518051915050600160a060020a03841663a9059cbb338560405160e060020a63ffffffff8516028152600160a060020a0390921660048301526024820152604401602060405180830381600087803b151561118357600080fd5b5af1151561119057600080fd5b5050506040518051905015156111a557600080fd5b83600160a060020a03166370a082313060405160e060020a63ffffffff8416028152600160a060020a039091166004820152602401602060405180830381600087803b15156111f357600080fd5b5af1151561120057600080fd5b505050604051805182038414905061121457fe5b33600160a060020a031630600160a060020a03167f3bfaaea2fb6654fc1575d7b03c0581fb4f6e32636c683a69f3b2ad35568a6e2e858560405191825260208201526040908101905180910390a350505050565b600061127261174b565b600160a060020a03166325742b466002543360405160e060020a63ffffffff85160281526004810192909252600160a060020a03166024820152604401602060405180830381600087803b15156112c857600080fd5b5af115156112d557600080fd5b5050506040518051905015610cd657600160a060020a03821615156112f957600080fd5b60118054600160a060020a031916600160a060020a0384161790556113273060eb60020a6208aa89026122ce565b506001919050565b6000818152600860205260408120548190839033600160a060020a0390811691161461135a57600080fd5b6113626107a9565b151561136d57600080fd5b600160a060020a038616151561138257600080fd5b83151561138e57600080fd5b6000848152600660209081526040808320600160a060020a038a1684529091529020546113c1908663ffffffff61247e16565b6000858152600660209081526040808320600160a060020a038b168452825280832093909355868252600790522054611400908663ffffffff61247e16565b6000858152600760205260409081902091909155600954600b54600160a060020a039091169163e5a59e079187915160e060020a63ffffffff851602815260048101929092526024820152604401602060405180830381600087803b151561146757600080fd5b5af1151561147457600080fd5b50505060405180519050156114e35733600160a060020a03167f0fe32763974f828f27ba609ad471890fffc7812b1b048ba7c43434c4fb27ff3b878787604051600160a060020a03909316835260208301919091526040808301919091526060909101905180910390a261162d565b600954600b54600160a060020a03909116906306915ba390869060405160e060020a63ffffffff8516028152600481019290925260248201526044016040805180830381600087803b151561153757600080fd5b5af1151561154457600080fd5b5050506040518051906020018051919450909250506001821461156357fe5b60606040519081016040908152600160a060020a038816825260208083018790528183018890526000868152600a9091522081518154600160a060020a031916600160a060020a039190911617815560208201516001820155604082015160029091015550600160a060020a0333167f5e131299f28a97769167a3143422eb7beea2089bbf30ff00e36501db77f541a787878787604051600160a060020a039094168452602084019290925260408084019190915260608301919091526080909101905180910390a25b505050505050565b60135460145482565b600954600160a060020a031690565b6000806000806000806000806116616120c7565b600160a060020a0316637abccac98a60405160e060020a63ffffffff8416028152600160a060020a03909116600482015260240160e060405180830381600087803b15156116ae57600080fd5b5af115156116bb57600080fd5b505050604051805190602001805190602001805190602001805190602001805190602001805190602001805150939f9e505050505050505050505050505050565b60005433600160a060020a039081169116141561172e5761171b611d55565b151561172657600080fd5b61172e612494565b565b600860205260009081526040902054600160a060020a031681565b60006107cd7f4173736574734d616e61676572000000000000000000000000000000000000006117ed565b6000805433600160a060020a0390811691161415610cd657600160a060020a03821615156117a657506000610cd6565b600154600160a060020a0316156117c85760018054600160a060020a03191690555b5060008054600160a060020a038316600160a060020a03199091161790556001919050565b600454600090600160a060020a031663bc6579278360405160e060020a63ffffffff84160281526004810191909152602401602060405180830381600087803b151561183857600080fd5b5af1151561184557600080fd5b5050506040518051915050600160a060020a0381161515610cd657600080fd5b601154600160a060020a031681565b600b54600c54600d54600e54600f549091929394565b600090815260086020526040902054600160a060020a031690565b6118ad61174b565b600160a060020a03166325742b466002543360405160e060020a63ffffffff85160281526004810192909252600160a060020a03166024820152604401602060405180830381600087803b151561190357600080fd5b5af1151561191057600080fd5b5050506040518051905015610a0557610a0582826122ce565b60008060006119366107a9565b151561194157600080fd5b83600160a060020a03811615806119715750600160a060020a03811660009081526012602052604090205460ff16155b1561197b57600080fd5b84600160a060020a031663dd62ed3e333060405160e060020a63ffffffff8516028152600160a060020a03928316600482015291166024820152604401602060405180830381600087803b15156119d157600080fd5b5af115156119de57600080fd5b5050506040518051905093506119f38561164d565b925084600160a060020a03166370a082313060405160e060020a63ffffffff8416028152600160a060020a039091166004820152602401602060405180830381600087803b1515611a4357600080fd5b5af11515611a5057600080fd5b5050506040518051925050600160a060020a0385166323b872dd33308760405160e060020a63ffffffff8616028152600160a060020a0393841660048201529190921660248201526044810191909152606401602060405180830381600087803b1515611abc57600080fd5b5af11515611ac957600080fd5b505050604051805190501515611ade57600080fd5b8185600160a060020a03166370a082313060405160e060020a63ffffffff8416028152600160a060020a039091166004820152602401602060405180830381600087803b1515611b2d57600080fd5b5af11515611b3a57600080fd5b505050604051805190500384141515611b4f57fe5b30600160a060020a0316637507db0a33868660405160e060020a63ffffffff8616028152600160a060020a03909316600484015260248301919091526044820152606401600060405180830381600087803b1515611bac57600080fd5b5af11515611bb957600080fd5b50505033600160a060020a031630600160a060020a03167fd1ba297d0f06cabe07bab03006be067cb42e2655372ddc334314f806210c7eba868660405191825260208201526040908101905180910390a35050505050565b600054600160a060020a031681565b6000805481908190819033600160a060020a0390811691161415611d4c57600092505b8551831015611d4757858381518110611c5857fe5b90602001906020020151915081600160a060020a03166370a082313060405160e060020a63ffffffff8416028152600160a060020a039091166004820152602401602060405180830381600087803b1515611cb257600080fd5b5af11515611cbf57600080fd5b50505060405180519150508015611d3c5781600160a060020a031663a9059cbb868360405160e060020a63ffffffff8516028152600160a060020a0390921660048301526024820152604401602060405180830381600087803b1515611d2457600080fd5b5af11515611d3157600080fd5b505050604051805150505b600190920191611c43565b600193505b50505092915050565b6000611d5f610f9b565b8015611d755750600030600160a060020a031631115b15611d82575060006107d0565b611d8a611f24565b8015611d9857506000600354115b15611da5575060006107d0565b611dad6107a9565b15610c66575060006107d0565b60035490565b600080600080611dce61174b565b600160a060020a03166325742b466002543360405160e060020a63ffffffff85160281526004810192909252600160a060020a03166024820152604401602060405180830381600087803b1515611e2457600080fd5b5af11515611e3157600080fd5b5050506040518051905015610bbf57611e486120c7565b9250600091505b8451821015610bba5782600160a060020a031663fa7fdeb7868481518110611e7357fe5b9060200190602002015160405160e060020a63ffffffff84160281526004810191909152602401602060405180830381600087803b1515611eb357600080fd5b5af11515611ec057600080fd5b5050506040518051915050600160a060020a03811615611f1957600160a060020a0381166000908152601260205260409020805460ff19169055611f1930868481518110611f0a57fe5b9060200190602002015161223b565b600190910190611e4f565b601454600090431180156107cd5750611f3b610f9b565b15905090565b611f49612826565b60095433600160a060020a03908116911614611f6457600080fd5b6000848152600a602052604090819020906060905190810160409081528254600160a060020a03168252600183015460208301526002909201549181019190915290508051600160a060020a03161515611fbd57600080fd5b600083111561204057611fd78151826040015185856124b7565b600160a060020a0333167f0fe32763974f828f27ba609ad471890fffc7812b1b048ba7c43434c4fb27ff3b825183604001518460200151604051600160a060020a03909316835260208301919091526040808301919091526060909101905180910390a26120c1565b600160a060020a0333167fbd690f6d499e86a225f39764c1dfa72f9f877999f6615fb72bcb98bbd76d15aa82518360400151846020015188604051600160a060020a039094168452602084019290925260408084019190915260608301919091526080909101905180910390a26120c18151826020015183604001516120fc565b50505050565b60006107cd7f45524332304d616e6167657200000000000000000000000000000000000000006117ed565b600d546010541090565b6000600160a060020a038416151561211357600080fd5b82151561211f57600080fd5b506000828152600660209081526040808320600160a060020a03871684529091529020548082111561215057600080fd5b6000838152600660209081526040808320600160a060020a0388168452909152902054612183908363ffffffff61252716565b6000848152600660209081526040808320600160a060020a03891684528252808320939093558582526007905220546121c2908363ffffffff61252716565b6000848152600760205260409020556121da84612539565b33600160a060020a03167f0ca340c7eb0c72255d18072bcd6ba161aaa02d6eeb2e444248c36cc1b2e1cd7f858486604051600160a060020a03909316835260208301919091526040808301919091526060909101905180910390a250505050565b600160a060020a038216151561225057600080fd5b80151561225c57600080fd5b600081815260086020526040908190208054600160a060020a031916905533600160a060020a0316907fabca56d1f15a292caf4603c5e711645fa6e448a933e81739491bfd8396eb5bce908490849051600160a060020a03909216825260208201526040908101905180910390a25050565b600160a060020a03821615156122e357600080fd5b8015156122ef57600080fd5b600081815260086020526040908190208054600160a060020a031916600160a060020a03858116919091179091553316907f3dbb1ba766df8e6bad32efd25596d9834cb129d8c22929c5f361e2dd25728084908490849051600160a060020a03909216825260208201526040908101905180910390a25050565b61237161174b565b600160a060020a03166325742b466002543360405160e060020a63ffffffff85160281526004810192909252600160a060020a03166024820152604401602060405180830381600087803b15156123c757600080fd5b5af115156123d457600080fd5b50505060405180519050156124775760008035600160e060020a03191681526005602052604090205460ff1615156124775784151561241257600080fd5b83151561241e57600080fd5b82151561242a57600080fd5b6000821161243757600080fd5b600b859055600c849055600d839055600e829055600f81905560008035600160e060020a03191681526005602052604090208054600160ff199091161790555b5050505050565b60008282018381101561248d57fe5b9392505050565b60005433600160a060020a039081169116141561172e5733600160a060020a0316ff5b600080600a83900a6124cf868663ffffffff6125b516565b8115156124d857fe5b0491506124f08260105461247e90919063ffffffff16565b601055600f54600e54600a9190910a9061251190849063ffffffff6125b516565b81151561251a57fe5b04905061162d86826125d9565b60008282111561253357fe5b50900390565b612541611f24565b151561254c57600080fd5b60035461256090600063ffffffff61252716565b600355600160a060020a0330167f037238854fe57fbf51f09946f854fc3916fe83938d6521f09bd05463839f1304826000604051600160a060020a03909216825260208201526040908101905180910390a250565b60008282028315806125d157508284828115156125ce57fe5b04145b151561248d57fe5b60008060006125e66107a9565b15156125f157600080fd5b600354612604908563ffffffff61247e16565b6003556126307f45524332304d616e6167657200000000000000000000000000000000000000006117ed565b925082600160a060020a031663fa7fdeb760025460405160e060020a63ffffffff84160281526004810191909152602401602060405180830381600087803b151561267a57600080fd5b5af1151561268757600080fd5b5050506040518051925050600160a060020a0382166349752baf6040518163ffffffff1660e060020a028152600401602060405180830381600087803b15156126cf57600080fd5b5af115156126dc57600080fd5b505050604051805190509050600181600160a060020a031663e0873c066002548760405160e060020a63ffffffff851602815260048101929092526024820152604401602060405180830381600087803b151561273857600080fd5b5af1151561274557600080fd5b5050506040518051905014151561275b57600080fd5b81600160a060020a031663a9059cbb868660405160e060020a63ffffffff8516028152600160a060020a0390921660048301526024820152604401602060405180830381600087803b15156127af57600080fd5b5af115156127bc57600080fd5b5050506040518051905015156127d157600080fd5b30600160a060020a03167f2912ae33cd67a6df1c3e8a1fe3899ad8722819df1ed47e86aae4ac8d85cfe0418686604051600160a060020a03909216825260208201526040908101905180910390a25050505050565b6060604051908101604090815260008083526020830181905290820152905600a165627a7a72305820ed2a563172838c0fcc9d4161f18132892bf44b4a7de4a5a75655aa79cf11c5650029a165627a7a723058208060e6fced5836b318a8d1f0c37958be80470e46c724470b897e48730671d7210029",
  "source": "/**\n * Copyright 20172018, LaborX PTY\n * Licensed under the AGPL Version 3 license.\n */\n\npragma solidity ^0.4.11;\n\nimport \"./crowdsales/BlockLimitedCrowdsale.sol\";\nimport \"./crowdsales/TimeLimitedCrowdsale.sol\";\nimport \"../core/common/BaseManager.sol\";\n\n/**\n*  @title CrowdsaleFactory\n*\n*  Is not designed for direct crowdsale creation via external calls from web application.\n*  Only CrowdsaleManager is authorised to create and delete crowdsale.\n*\n*  See CrowdsaleManager.\n*/\ncontract CrowdsaleFactory is BaseManager {\n    StorageInterface.Address priceTiker;\n\n    modifier onlyCrowdsaleManager() {\n        if (msg.sender == lookupManager(\"CrowdsaleManager\")) {\n            _;\n        }\n    }\n\n    function CrowdsaleFactory(Storage _store, bytes32 _crate) BaseManager(_store, _crate) {\n        priceTiker.init(\"priceTiker\");\n    }\n\n    function init(address _contractsManager, address _priceTiker) onlyContractOwner returns (uint) {\n        BaseManager.init(_contractsManager, store.crate);\n\n        setPriceTicker(_priceTiker);\n        return OK;\n    }\n\n    function setPriceTicker(address _priceTiker) onlyContractOwner {\n        require(_priceTiker != 0x0);\n\n        store.set(priceTiker, _priceTiker);\n    }\n\n    function createCrowdsale(bytes32 _symbol) returns (address);\n\n    function getPriceTicker() constant returns (address) {\n        return store.get(priceTiker);\n    }\n}\n\n/**\n*  @title TimeLimitedCrowdsaleFactory\n*\n*  Instantiates a TimeLimitedCrowdsale contract.\n*/\ncontract TimeLimitedCrowdsaleFactory is CrowdsaleFactory {\n    function TimeLimitedCrowdsaleFactory(Storage _store, bytes32 _crate) CrowdsaleFactory(_store, _crate) {\n    }\n\n    function createCrowdsale(bytes32 _symbol) onlyCrowdsaleManager returns (address) {\n        require(_symbol != 0x0);\n\n        address crowdsale = new TimeLimitedCrowdsale(contractsManager, _symbol, getPriceTicker());\n        BaseCrowdsale(crowdsale).changeContractOwnership(msg.sender);\n\n        return crowdsale;\n    }\n}\n\n/**\n*  @title BlockLimitedCrowdsaleFactory\n*\n*  Instantiates a BlockLimitedCrowdsale contract.\n*/\ncontract BlockLimitedCrowdsaleFactory is CrowdsaleFactory {\n    function BlockLimitedCrowdsaleFactory(Storage _store, bytes32 _crate) CrowdsaleFactory(_store, _crate) {\n    }\n\n    function createCrowdsale(bytes32 _symbol) onlyCrowdsaleManager returns (address) {\n        require(_symbol != 0x0);\n\n        address crowdsale = new BlockLimitedCrowdsale(contractsManager, _symbol, getPriceTicker());\n        BaseCrowdsale(crowdsale).changeContractOwnership(msg.sender);\n\n        return crowdsale;\n    }\n}\n",
  "sourcePath": "/Users/mikefluff/Documents/Programming/Chronobank/test/SmartContracts/contracts/crowdsale/CrowdsaleFactory.sol",
  "compiler": {
    "name": "solc",
    "version": "0.4.21+commit.dfe3193c.Emscripten.clang"
  },
  "schemaVersion": "2.0.0",
  "updatedAt": "2018-04-11T07:40:05.368Z"
}