{
  "contractName": "ChronoBankAsset",
  "abi": [
    {
      "constant": true,
      "inputs": [],
      "name": "paused",
      "outputs": [
        {
          "name": "",
          "type": "bool"
        }
      ],
      "payable": false,
      "stateMutability": "view",
      "type": "function"
    },
    {
      "constant": true,
      "inputs": [],
      "name": "proxy",
      "outputs": [
        {
          "name": "",
          "type": "address"
        }
      ],
      "payable": false,
      "stateMutability": "view",
      "type": "function"
    },
    {
      "constant": false,
      "inputs": [
        {
          "name": "",
          "type": "bytes"
        },
        {
          "name": "",
          "type": "address"
        }
      ],
      "name": "__process",
      "outputs": [],
      "payable": true,
      "stateMutability": "payable",
      "type": "function"
    },
    {
      "constant": true,
      "inputs": [
        {
          "name": "",
          "type": "address"
        }
      ],
      "name": "blacklist",
      "outputs": [
        {
          "name": "",
          "type": "bool"
        }
      ],
      "payable": false,
      "stateMutability": "view",
      "type": "function"
    },
    {
      "anonymous": false,
      "inputs": [
        {
          "indexed": true,
          "name": "symbol",
          "type": "bytes32"
        },
        {
          "indexed": false,
          "name": "restricted",
          "type": "address"
        }
      ],
      "name": "Restricted",
      "type": "event"
    },
    {
      "anonymous": false,
      "inputs": [
        {
          "indexed": true,
          "name": "symbol",
          "type": "bytes32"
        },
        {
          "indexed": false,
          "name": "unrestricted",
          "type": "address"
        }
      ],
      "name": "Unrestricted",
      "type": "event"
    },
    {
      "anonymous": false,
      "inputs": [
        {
          "indexed": true,
          "name": "symbol",
          "type": "bytes32"
        }
      ],
      "name": "Paused",
      "type": "event"
    },
    {
      "anonymous": false,
      "inputs": [
        {
          "indexed": true,
          "name": "symbol",
          "type": "bytes32"
        }
      ],
      "name": "Unpaused",
      "type": "event"
    },
    {
      "constant": false,
      "inputs": [
        {
          "name": "_proxy",
          "type": "address"
        }
      ],
      "name": "init",
      "outputs": [
        {
          "name": "",
          "type": "bool"
        }
      ],
      "payable": false,
      "stateMutability": "nonpayable",
      "type": "function"
    },
    {
      "constant": true,
      "inputs": [],
      "name": "eventsHistory",
      "outputs": [
        {
          "name": "",
          "type": "address"
        }
      ],
      "payable": false,
      "stateMutability": "view",
      "type": "function"
    },
    {
      "constant": false,
      "inputs": [
        {
          "name": "_restricted",
          "type": "address[]"
        }
      ],
      "name": "restrict",
      "outputs": [
        {
          "name": "",
          "type": "bool"
        }
      ],
      "payable": false,
      "stateMutability": "nonpayable",
      "type": "function"
    },
    {
      "constant": false,
      "inputs": [
        {
          "name": "_unrestricted",
          "type": "address[]"
        }
      ],
      "name": "unrestrict",
      "outputs": [
        {
          "name": "",
          "type": "bool"
        }
      ],
      "payable": false,
      "stateMutability": "nonpayable",
      "type": "function"
    },
    {
      "constant": false,
      "inputs": [],
      "name": "pause",
      "outputs": [
        {
          "name": "",
          "type": "bool"
        }
      ],
      "payable": false,
      "stateMutability": "nonpayable",
      "type": "function"
    },
    {
      "constant": false,
      "inputs": [],
      "name": "unpause",
      "outputs": [
        {
          "name": "",
          "type": "bool"
        }
      ],
      "payable": false,
      "stateMutability": "nonpayable",
      "type": "function"
    },
    {
      "constant": false,
      "inputs": [
        {
          "name": "_to",
          "type": "address"
        },
        {
          "name": "_value",
          "type": "uint256"
        },
        {
          "name": "_reference",
          "type": "string"
        },
        {
          "name": "_sender",
          "type": "address"
        }
      ],
      "name": "__transferWithReference",
      "outputs": [
        {
          "name": "",
          "type": "bool"
        }
      ],
      "payable": false,
      "stateMutability": "nonpayable",
      "type": "function"
    },
    {
      "constant": false,
      "inputs": [
        {
          "name": "_from",
          "type": "address"
        },
        {
          "name": "_to",
          "type": "address"
        },
        {
          "name": "_value",
          "type": "uint256"
        },
        {
          "name": "_reference",
          "type": "string"
        },
        {
          "name": "_sender",
          "type": "address"
        }
      ],
      "name": "__transferFromWithReference",
      "outputs": [
        {
          "name": "",
          "type": "bool"
        }
      ],
      "payable": false,
      "stateMutability": "nonpayable",
      "type": "function"
    },
    {
      "constant": false,
      "inputs": [
        {
          "name": "_spender",
          "type": "address"
        },
        {
          "name": "_value",
          "type": "uint256"
        },
        {
          "name": "_sender",
          "type": "address"
        }
      ],
      "name": "__approve",
      "outputs": [
        {
          "name": "",
          "type": "bool"
        }
      ],
      "payable": false,
      "stateMutability": "nonpayable",
      "type": "function"
    },
    {
      "constant": false,
      "inputs": [
        {
          "name": "_symbol",
          "type": "bytes32"
        },
        {
          "name": "_restricted",
          "type": "address"
        }
      ],
      "name": "emitRestricted",
      "outputs": [],
      "payable": false,
      "stateMutability": "nonpayable",
      "type": "function"
    },
    {
      "constant": false,
      "inputs": [
        {
          "name": "_symbol",
          "type": "bytes32"
        },
        {
          "name": "_unrestricted",
          "type": "address"
        }
      ],
      "name": "emitUnrestricted",
      "outputs": [],
      "payable": false,
      "stateMutability": "nonpayable",
      "type": "function"
    },
    {
      "constant": false,
      "inputs": [
        {
          "name": "_symbol",
          "type": "bytes32"
        }
      ],
      "name": "emitPaused",
      "outputs": [],
      "payable": false,
      "stateMutability": "nonpayable",
      "type": "function"
    },
    {
      "constant": false,
      "inputs": [
        {
          "name": "_symbol",
          "type": "bytes32"
        }
      ],
      "name": "emitUnpaused",
      "outputs": [],
      "payable": false,
      "stateMutability": "nonpayable",
      "type": "function"
    }
  ],
  "bytecode": "0x60606040526002805460ff19169055341561001957600080fd5b61121c806100286000396000f3006060604052600436106100d75763ffffffff60e060020a60003504166319ab453c81146100dc57806322ccf6781461010f578063339d8b45146101275780633f4ba83a146101495780635c975abb1461015c5780636a630ee71461016f5780637b7054c8146101df5780637df5fd35146102085780638456cb591461021e5780638c8f488014610231578063be57771a14610253578063ec55688914610271578063ec698a28146102a0578063ee47af0014610317578063f07629f814610335578063f2d6e0ab14610348578063f9f92be414610399575b600080fd5b34156100e757600080fd5b6100fb600160a060020a03600435166103b8565b604051901515815260200160405180910390f35b341561011a57600080fd5b610125600435610403565b005b341561013257600080fd5b610125600435600160a060020a0360243516610433565b341561015457600080fd5b6100fb610475565b341561016757600080fd5b6100fb6105ac565b341561017a57600080fd5b6100fb60048035600160a060020a03169060248035919060649060443590810190830135806020601f8201819004810201604051908101604052818152929190602084018383808284375094965050509235600160a060020a031692506105b5915050565b34156101ea57600080fd5b6100fb600160a060020a0360043581169060243590604435166105e4565b341561021357600080fd5b610125600435610611565b341561022957600080fd5b6100fb610641565b341561023c57600080fd5b610125600435600160a060020a0360243516610772565b341561025e57600080fd5b6100fb60048035602481019101356107b4565b341561027c57600080fd5b610284610940565b604051600160a060020a03909116815260200160405180910390f35b34156102ab57600080fd5b6100fb600160a060020a036004803582169160248035909116916044359160849060643590810190830135806020601f8201819004810201604051908101604052818152929190602084018383808284375094965050509235600160a060020a0316925061094f915050565b341561032257600080fd5b6100fb6004803560248101910135610980565b341561034057600080fd5b610284610afa565b61012560046024813581810190830135806020601f8201819004810201604051908101604052818152929190602084018383808284375094965050509235600160a060020a031692506100d7915050565b34156103a457600080fd5b6100fb600160a060020a0360043516610c19565b60008054600160a060020a0316156103d2575060006103fe565b506000805473ffffffffffffffffffffffffffffffffffffffff1916600160a060020a03831617905560015b919050565b807fd05bfc2250abb0f8fd265a54c53a24359c5484af63cad2e4ce87c78ab751395a60405160405180910390a250565b817fd097e4d83d4e07fdd04ead2330f40bccf48350dd3f12caf1e36ef45049494c1782604051600160a060020a03909116815260200160405180910390a25050565b600080548190600160a060020a03166349752baf6040518163ffffffff1660e060020a028152600401602060405180830381600087803b15156104b757600080fd5b5af115156104c457600080fd5b5050506040518051600054909250600160a060020a03808416925063ccc11f119133911663cb4e75bb6040518163ffffffff1660e060020a028152600401602060405180830381600087803b151561051b57600080fd5b5af1151561052857600080fd5b5050506040518051905060405160e060020a63ffffffff8516028152600160a060020a0390921660048301526024820152604401602060405180830381600087803b151561057557600080fd5b5af1151561058257600080fd5b50505060405180519050156105a8576002805460ff191690556105a3610c2e565b600191505b5090565b60025460ff1681565b6000805433600160a060020a03908116911614156105dc576105d985858585610cde565b90505b949350505050565b6000805433600160a060020a039081169116141561060a57610607848484610e41565b90505b9392505050565b807f0cb09dc71d57eeec2046f6854976717e4874a3cf2d6ddeddde337e5b6de6ba3160405160405180910390a250565b600080548190600160a060020a03166349752baf6040518163ffffffff1660e060020a028152600401602060405180830381600087803b151561068357600080fd5b5af1151561069057600080fd5b5050506040518051600054909250600160a060020a03808416925063ccc11f119133911663cb4e75bb6040518163ffffffff1660e060020a028152600401602060405180830381600087803b15156106e757600080fd5b5af115156106f457600080fd5b5050506040518051905060405160e060020a63ffffffff8516028152600160a060020a0390921660048301526024820152604401602060405180830381600087803b151561074157600080fd5b5af1151561074e57600080fd5b50505060405180519050156105a8576002805460ff191660011790556105a3610f0e565b817f791b5fd6715e4832fb6052f31b1eba08447cceeced1bf87aeb13c242b7cef49282604051600160a060020a03909116815260200160405180910390a25050565b60008054819081908190600160a060020a03166349752baf6040518163ffffffff1660e060020a028152600401602060405180830381600087803b15156107fa57600080fd5b5af1151561080757600080fd5b5050506040518051600054909250600160a060020a03808416925063ccc11f119133911663cb4e75bb6040518163ffffffff1660e060020a028152600401602060405180830381600087803b151561085e57600080fd5b5af1151561086b57600080fd5b5050506040518051905060405160e060020a63ffffffff8516028152600160a060020a0390921660048301526024820152604401602060405180830381600087803b15156108b857600080fd5b5af115156108c557600080fd5b505050604051805190501561093757600092505b84831015610932578585848181106108ed57fe5b60209081029290920135600160a060020a0316600081815260019384905260409020805460ff191690931790925550915061092782610f5f565b6001909201916108d9565b600193505b50505092915050565b600054600160a060020a031681565b6000805433600160a060020a039081169116141561097757610974868686868661101f565b90505b95945050505050565b60008054819081908190600160a060020a03166349752baf6040518163ffffffff1660e060020a028152600401602060405180830381600087803b15156109c657600080fd5b5af115156109d357600080fd5b5050506040518051600054909250600160a060020a03808416925063ccc11f119133911663cb4e75bb6040518163ffffffff1660e060020a028152600401602060405180830381600087803b1515610a2a57600080fd5b5af11515610a3757600080fd5b5050506040518051905060405160e060020a63ffffffff8516028152600160a060020a0390921660048301526024820152604401602060405180830381600087803b1515610a8457600080fd5b5af11515610a9157600080fd5b505050604051805190501561093757600092505b8483101561093257858584818110610ab957fe5b60209081029290920135600160a060020a0316600081815260019093526040909220805460ff19169055509150610aef8261119f565b600190920191610aa5565b600080548190600160a060020a03166349752baf6040518163ffffffff1660e060020a028152600401602060405180830381600087803b1515610b3c57600080fd5b5af11515610b4957600080fd5b5050506040518051915050600160a060020a0381168063f07629f86040518163ffffffff1660e060020a028152600401602060405180830381600087803b1515610b9257600080fd5b5af11515610b9f57600080fd5b50505060405180519050600160a060020a03161415610bbe5730610c13565b80600160a060020a031663f07629f86040518163ffffffff1660e060020a028152600401602060405180830381600087803b1515610bfb57600080fd5b5af11515610c0857600080fd5b505050604051805190505b91505090565b60016020526000908152604090205460ff1681565b610c36610afa565b600054600160a060020a03918216916322ccf678911663cb4e75bb6040518163ffffffff1660e060020a028152600401602060405180830381600087803b1515610c7f57600080fd5b5af11515610c8c57600080fd5b5050506040518051905060405160e060020a63ffffffff84160281526004810191909152602401600060405180830381600087803b1515610ccc57600080fd5b5af11515610cd957600080fd5b505050565b60025460009060ff1615156105dc57600160a060020a038516600090815260016020526040902054859060ff161515610e3857600160a060020a038316600090815260016020526040902054839060ff161515610e3657600054600160a060020a0316636a630ee7888888886040518563ffffffff1660e060020a0281526004018085600160a060020a0316600160a060020a031681526020018481526020018060200183600160a060020a0316600160a060020a03168152602001828103825284818151815260200191508051906020019080838360005b83811015610dcf578082015183820152602001610db7565b50505050905090810190601f168015610dfc5780820380516001836020036101000a031916815260200191505b5095505050505050602060405180830381600087803b1515610e1d57600080fd5b5af11515610e2a57600080fd5b50505060405180519350505b505b50949350505050565b600160a060020a038316600090815260016020526040812054849060ff161515610f0657600160a060020a038316600090815260016020526040902054839060ff161515610f0457600054600160a060020a0316637b7054c887878760405160e060020a63ffffffff8616028152600160a060020a03938416600482015260248101929092529091166044820152606401602060405180830381600087803b1515610eeb57600080fd5b5af11515610ef857600080fd5b50505060405180519350505b505b509392505050565b610f16610afa565b600054600160a060020a0391821691637df5fd35911663cb4e75bb6040518163ffffffff1660e060020a028152600401602060405180830381600087803b1515610c7f57600080fd5b610f67610afa565b600054600160a060020a039182169163339d8b45911663cb4e75bb6040518163ffffffff1660e060020a028152600401602060405180830381600087803b1515610fb057600080fd5b5af11515610fbd57600080fd5b505050604051805190508360405160e060020a63ffffffff85160281526004810192909252600160a060020a03166024820152604401600060405180830381600087803b151561100c57600080fd5b5af1151561101957600080fd5b50505050565b60025460009060ff16151561097757600160a060020a038616600090815260016020526040902054869060ff16151561119557600160a060020a038616600090815260016020526040902054869060ff16151561119357600160a060020a038416600090815260016020526040902054849060ff16151561119157600054600160a060020a031663ec698a288a8a8a8a8a60405160e060020a63ffffffff8816028152600160a060020a0380871660048301908152868216602484015260448301869052908316608483015260a060648301908152909160a40184818151815260200191508051906020019080838360005b83811015611129578082015183820152602001611111565b50505050905090810190601f1680156111565780820380516001836020036101000a031916815260200191505b509650505050505050602060405180830381600087803b151561117857600080fd5b5af1151561118557600080fd5b50505060405180519450505b505b505b5095945050505050565b6111a7610afa565b600054600160a060020a0391821691638c8f4880911663cb4e75bb6040518163ffffffff1660e060020a028152600401602060405180830381600087803b1515610fb057600080fd00a165627a7a72305820da983639c0e0916eef484726890cead75fdf0b456cafc5f35398b35a6db883d90029",
  "source": "/**\n * Copyright 2017–2018, LaborX PTY\n * Licensed under the AGPL Version 3 license.\n */\n\npragma solidity ^0.4.21;\n\n\nimport \"./ChronoBankAssetInterface.sol\";\nimport {ChronoBankAssetProxyInterface as ChronoBankAssetProxy} from \"./ChronoBankAssetProxyInterface.sol\";\nimport {ChronoBankPlatformInterface as ChronoBankPlatform} from \"./ChronoBankPlatformInterface.sol\";\n\n\n/// @title ChronoBank Asset implementation contract.\n///\n/// Basic asset implementation contract, without any additional logic.\n/// Every other asset implementation contracts should derive from this one.\n/// Receives calls from the proxy, and calls back immediatly without arguments modification.\n///\n/// Note: all the non constant functions return false instead of throwing in case if state change\n/// didn't happen yet.\ncontract ChronoBankAsset is ChronoBankAssetInterface {\n\n    // @dev Assigned asset proxy contract, immutable.\n    ChronoBankAssetProxy public proxy;\n\n    // @dev banned addresses\n    mapping (address => bool) public blacklist;\n\n    // @dev stops asset transfers\n    bool public paused = false;\n\n    // @dev restriction/Unrestriction events\n    event Restricted(bytes32 indexed symbol, address restricted);\n    event Unrestricted(bytes32 indexed symbol, address unrestricted);\n\n    // @dev Paused/Unpaused events\n    event Paused(bytes32 indexed symbol);\n    event Unpaused(bytes32 indexed symbol);\n\n    /// @dev Only assigned proxy is allowed to call.\n    modifier onlyProxy {\n        if (proxy == msg.sender) {\n            _;\n        }\n    }\n\n    /// @dev Only not paused tokens could go further.\n    modifier onlyNotPaused {\n        if (!paused) {\n            _;\n        }\n    }\n\n    /// @dev Only acceptable (not in blacklist) addresses are allowed to call.\n    modifier onlyAcceptable(address _address) {\n        if (!blacklist[_address]) {\n            _;\n        }\n    }\n\n    /// @dev Only assets's admins are allowed to execute\n    modifier onlyAuthorized {\n        ChronoBankPlatform platform = ChronoBankPlatform(proxy.chronoBankPlatform());\n        if (platform.hasAssetRights(msg.sender, proxy.smbl())) {\n            _;\n        }\n    }\n\n    /// @notice Sets asset proxy address.\n    /// Can be set only once.\n    /// @dev function is final, and must not be overridden.\n    /// @param _proxy asset proxy contract address.\n    /// @return success.\n    function init(ChronoBankAssetProxy _proxy) public returns(bool) {\n        if (address(proxy) != 0x0) {\n            return false;\n        }\n        proxy = _proxy;\n        return true;\n    }\n\n    /// @notice Gets eventsHistory contract used for events' triggering\n    function eventsHistory() public view returns (address) {\n        ChronoBankPlatform platform = ChronoBankPlatform(proxy.chronoBankPlatform());\n        return platform.eventsHistory() != address(platform) ? platform.eventsHistory() : this;\n    }\n\n    /// @notice Lifts the ban on transfers for given addresses\n    function restrict(address [] _restricted) onlyAuthorized external returns (bool) {\n        for (uint i = 0; i < _restricted.length; i++) {\n            address restricted = _restricted[i];\n            blacklist[restricted] = true;\n            _emitRestricted(restricted);\n        }\n        return true;\n    }\n\n    /// @notice Revokes the ban on transfers for given addresses\n    function unrestrict(address [] _unrestricted) onlyAuthorized external returns (bool) {\n        for (uint i = 0; i < _unrestricted.length; i++) {\n            address unrestricted = _unrestricted[i];\n            delete blacklist[unrestricted];\n            _emitUnrestricted(unrestricted);\n        }\n        return true;\n    }\n\n    /// @notice called by the owner to pause, triggers stopped state\n    /// Only admin is allowed to execute this method.\n    function pause() onlyAuthorized external returns (bool) {\n        paused = true;\n        _emitPaused();\n        return true;\n    }\n\n    /// @notice called by the owner to unpause, returns to normal state\n    /// Only admin is allowed to execute this method.\n    function unpause() onlyAuthorized external returns (bool) {\n        paused = false;\n        _emitUnpaused();\n        return true;\n    }\n\n    /// @notice Passes execution into virtual function.\n    /// Can only be called by assigned asset proxy.\n    /// @dev function is final, and must not be overridden.\n    /// @return success.\n    function __transferWithReference(\n        address _to, \n        uint _value, \n        string _reference, \n        address _sender\n    ) \n    onlyProxy \n    public \n    returns (bool) \n    {\n        return _transferWithReference(_to, _value, _reference, _sender);\n    }\n\n    /// @notice Calls back without modifications if an asset is not stopped.\n    /// Checks whether _from/_sender are not in blacklist.\n    /// @dev function is virtual, and meant to be overridden.\n    /// @return success.\n    function _transferWithReference(\n        address _to, \n        uint _value, \n        string _reference, \n        address _sender\n    )\n    onlyNotPaused\n    onlyAcceptable(_to)\n    onlyAcceptable(_sender)\n    internal\n    returns (bool)\n    {\n        return proxy.__transferWithReference(_to, _value, _reference, _sender);\n    }\n\n    /// @notice Passes execution into virtual function.\n    /// Can only be called by assigned asset proxy.\n    /// @dev function is final, and must not be overridden.\n    /// @return success.\n    function __transferFromWithReference(\n        address _from, \n        address _to, \n        uint _value, \n        string _reference, \n        address _sender\n    ) \n    onlyProxy \n    public \n    returns (bool) \n    {\n        return _transferFromWithReference(_from, _to, _value, _reference, _sender);\n    }\n\n    /// @notice Calls back without modifications if an asset is not stopped.\n    /// Checks whether _from/_sender are not in blacklist.\n    /// @dev function is virtual, and meant to be overridden.\n    /// @return success.\n    function _transferFromWithReference(\n        address _from, \n        address _to, \n        uint _value, \n        string _reference, \n        address _sender\n    )\n    onlyNotPaused\n    onlyAcceptable(_from)\n    onlyAcceptable(_to)\n    onlyAcceptable(_sender)\n    internal\n    returns (bool)\n    {\n        return proxy.__transferFromWithReference(_from, _to, _value, _reference, _sender);\n    }\n\n    /// @notice Passes execution into virtual function.\n    /// Can only be called by assigned asset proxy.\n    /// @dev function is final, and must not be overridden.\n    /// @return success.\n    function __approve(address _spender, uint _value, address _sender) onlyProxy public returns (bool) {\n        return _approve(_spender, _value, _sender);\n    }\n\n    /// @notice Calls back without modifications.\n    /// @dev function is virtual, and meant to be overridden.\n    /// @return success.\n    function _approve(address _spender, uint _value, address _sender)\n    onlyAcceptable(_spender)\n    onlyAcceptable(_sender)\n    internal\n    returns (bool)\n    {\n        return proxy.__approve(_spender, _value, _sender);\n    }\n\n    function _emitRestricted(address _restricted) private {\n        ChronoBankAsset(eventsHistory()).emitRestricted(proxy.smbl(), _restricted);\n    }\n\n    function _emitUnrestricted(address _unrestricted) private {\n        ChronoBankAsset(eventsHistory()).emitUnrestricted(proxy.smbl(), _unrestricted);\n    }\n\n    function _emitPaused() private {\n        ChronoBankAsset(eventsHistory()).emitPaused(proxy.smbl());\n    }\n\n    function _emitUnpaused() private {\n        ChronoBankAsset(eventsHistory()).emitUnpaused(proxy.smbl());\n    }\n\n    function emitRestricted(bytes32 _symbol, address _restricted) public {\n        emit Restricted(_symbol, _restricted);\n    }\n\n    function emitUnrestricted(bytes32 _symbol, address _unrestricted) public {\n        emit Unrestricted(_symbol, _unrestricted);\n    }\n\n    function emitPaused(bytes32 _symbol) public {\n        emit Paused(_symbol);\n    }\n\n    function emitUnpaused(bytes32 _symbol) public {\n        emit Unpaused(_symbol);\n    }\n}\n",
  "sourcePath": "/Users/mikefluff/Documents/Programming/Chronobank/test/SmartContracts/contracts/core/platform/ChronoBankAsset.sol",
  "compiler": {
    "name": "solc",
    "version": "0.4.21+commit.dfe3193c.Emscripten.clang"
  },
  "schemaVersion": "2.0.0",
  "updatedAt": "2018-04-11T07:40:05.110Z"
}