{
  "contractName": "ChronoBankAssetProxy",
  "abi": [
    {
      "constant": true,
      "inputs": [],
      "name": "name",
      "outputs": [
        {
          "name": "",
          "type": "string"
        }
      ],
      "payable": false,
      "stateMutability": "view",
      "type": "function"
    },
    {
      "constant": true,
      "inputs": [],
      "name": "chronoBankPlatform",
      "outputs": [
        {
          "name": "",
          "type": "address"
        }
      ],
      "payable": false,
      "stateMutability": "view",
      "type": "function"
    },
    {
      "constant": true,
      "inputs": [],
      "name": "symbol",
      "outputs": [
        {
          "name": "",
          "type": "string"
        }
      ],
      "payable": false,
      "stateMutability": "view",
      "type": "function"
    },
    {
      "constant": true,
      "inputs": [],
      "name": "smbl",
      "outputs": [
        {
          "name": "",
          "type": "bytes32"
        }
      ],
      "payable": false,
      "stateMutability": "view",
      "type": "function"
    },
    {
      "payable": true,
      "stateMutability": "payable",
      "type": "fallback"
    },
    {
      "anonymous": false,
      "inputs": [
        {
          "indexed": false,
          "name": "newVersion",
          "type": "address"
        }
      ],
      "name": "UpgradeProposal",
      "type": "event"
    },
    {
      "anonymous": false,
      "inputs": [
        {
          "indexed": true,
          "name": "from",
          "type": "address"
        },
        {
          "indexed": true,
          "name": "to",
          "type": "address"
        },
        {
          "indexed": false,
          "name": "value",
          "type": "uint256"
        }
      ],
      "name": "Transfer",
      "type": "event"
    },
    {
      "anonymous": false,
      "inputs": [
        {
          "indexed": true,
          "name": "from",
          "type": "address"
        },
        {
          "indexed": true,
          "name": "spender",
          "type": "address"
        },
        {
          "indexed": false,
          "name": "value",
          "type": "uint256"
        }
      ],
      "name": "Approval",
      "type": "event"
    },
    {
      "constant": false,
      "inputs": [
        {
          "name": "_chronoBankPlatform",
          "type": "address"
        },
        {
          "name": "_symbol",
          "type": "string"
        },
        {
          "name": "_name",
          "type": "string"
        }
      ],
      "name": "init",
      "outputs": [
        {
          "name": "",
          "type": "bool"
        }
      ],
      "payable": false,
      "stateMutability": "nonpayable",
      "type": "function"
    },
    {
      "constant": true,
      "inputs": [
        {
          "name": "source",
          "type": "string"
        }
      ],
      "name": "stringToBytes32",
      "outputs": [
        {
          "name": "result",
          "type": "bytes32"
        }
      ],
      "payable": false,
      "stateMutability": "pure",
      "type": "function"
    },
    {
      "constant": true,
      "inputs": [],
      "name": "totalSupply",
      "outputs": [
        {
          "name": "",
          "type": "uint256"
        }
      ],
      "payable": false,
      "stateMutability": "view",
      "type": "function"
    },
    {
      "constant": true,
      "inputs": [
        {
          "name": "_owner",
          "type": "address"
        }
      ],
      "name": "balanceOf",
      "outputs": [
        {
          "name": "",
          "type": "uint256"
        }
      ],
      "payable": false,
      "stateMutability": "view",
      "type": "function"
    },
    {
      "constant": true,
      "inputs": [
        {
          "name": "_from",
          "type": "address"
        },
        {
          "name": "_spender",
          "type": "address"
        }
      ],
      "name": "allowance",
      "outputs": [
        {
          "name": "",
          "type": "uint256"
        }
      ],
      "payable": false,
      "stateMutability": "view",
      "type": "function"
    },
    {
      "constant": true,
      "inputs": [],
      "name": "decimals",
      "outputs": [
        {
          "name": "",
          "type": "uint8"
        }
      ],
      "payable": false,
      "stateMutability": "view",
      "type": "function"
    },
    {
      "constant": false,
      "inputs": [
        {
          "name": "_to",
          "type": "address"
        },
        {
          "name": "_value",
          "type": "uint256"
        }
      ],
      "name": "transfer",
      "outputs": [
        {
          "name": "",
          "type": "bool"
        }
      ],
      "payable": false,
      "stateMutability": "nonpayable",
      "type": "function"
    },
    {
      "constant": false,
      "inputs": [
        {
          "name": "_to",
          "type": "address"
        },
        {
          "name": "_value",
          "type": "uint256"
        },
        {
          "name": "_reference",
          "type": "string"
        }
      ],
      "name": "transferWithReference",
      "outputs": [
        {
          "name": "",
          "type": "bool"
        }
      ],
      "payable": false,
      "stateMutability": "nonpayable",
      "type": "function"
    },
    {
      "constant": false,
      "inputs": [
        {
          "name": "_to",
          "type": "address"
        },
        {
          "name": "_value",
          "type": "uint256"
        },
        {
          "name": "_reference",
          "type": "string"
        },
        {
          "name": "_sender",
          "type": "address"
        }
      ],
      "name": "__transferWithReference",
      "outputs": [
        {
          "name": "",
          "type": "bool"
        }
      ],
      "payable": false,
      "stateMutability": "nonpayable",
      "type": "function"
    },
    {
      "constant": false,
      "inputs": [
        {
          "name": "_from",
          "type": "address"
        },
        {
          "name": "_to",
          "type": "address"
        },
        {
          "name": "_value",
          "type": "uint256"
        }
      ],
      "name": "transferFrom",
      "outputs": [
        {
          "name": "",
          "type": "bool"
        }
      ],
      "payable": false,
      "stateMutability": "nonpayable",
      "type": "function"
    },
    {
      "constant": false,
      "inputs": [
        {
          "name": "_from",
          "type": "address"
        },
        {
          "name": "_to",
          "type": "address"
        },
        {
          "name": "_value",
          "type": "uint256"
        },
        {
          "name": "_reference",
          "type": "string"
        },
        {
          "name": "_sender",
          "type": "address"
        }
      ],
      "name": "__transferFromWithReference",
      "outputs": [
        {
          "name": "",
          "type": "bool"
        }
      ],
      "payable": false,
      "stateMutability": "nonpayable",
      "type": "function"
    },
    {
      "constant": false,
      "inputs": [
        {
          "name": "_spender",
          "type": "address"
        },
        {
          "name": "_value",
          "type": "uint256"
        }
      ],
      "name": "approve",
      "outputs": [
        {
          "name": "",
          "type": "bool"
        }
      ],
      "payable": false,
      "stateMutability": "nonpayable",
      "type": "function"
    },
    {
      "constant": false,
      "inputs": [
        {
          "name": "_spender",
          "type": "address"
        },
        {
          "name": "_value",
          "type": "uint256"
        },
        {
          "name": "_sender",
          "type": "address"
        }
      ],
      "name": "__approve",
      "outputs": [
        {
          "name": "",
          "type": "bool"
        }
      ],
      "payable": false,
      "stateMutability": "nonpayable",
      "type": "function"
    },
    {
      "constant": false,
      "inputs": [
        {
          "name": "_from",
          "type": "address"
        },
        {
          "name": "_to",
          "type": "address"
        },
        {
          "name": "_value",
          "type": "uint256"
        }
      ],
      "name": "emitTransfer",
      "outputs": [],
      "payable": false,
      "stateMutability": "nonpayable",
      "type": "function"
    },
    {
      "constant": false,
      "inputs": [
        {
          "name": "_from",
          "type": "address"
        },
        {
          "name": "_spender",
          "type": "address"
        },
        {
          "name": "_value",
          "type": "uint256"
        }
      ],
      "name": "emitApprove",
      "outputs": [],
      "payable": false,
      "stateMutability": "nonpayable",
      "type": "function"
    },
    {
      "constant": true,
      "inputs": [
        {
          "name": "_sender",
          "type": "address"
        }
      ],
      "name": "getVersionFor",
      "outputs": [
        {
          "name": "",
          "type": "address"
        }
      ],
      "payable": false,
      "stateMutability": "view",
      "type": "function"
    },
    {
      "constant": true,
      "inputs": [],
      "name": "getLatestVersion",
      "outputs": [
        {
          "name": "",
          "type": "address"
        }
      ],
      "payable": false,
      "stateMutability": "view",
      "type": "function"
    },
    {
      "constant": true,
      "inputs": [],
      "name": "getPendingVersion",
      "outputs": [
        {
          "name": "",
          "type": "address"
        }
      ],
      "payable": false,
      "stateMutability": "view",
      "type": "function"
    },
    {
      "constant": true,
      "inputs": [],
      "name": "getPendingVersionTimestamp",
      "outputs": [
        {
          "name": "",
          "type": "uint256"
        }
      ],
      "payable": false,
      "stateMutability": "view",
      "type": "function"
    },
    {
      "constant": false,
      "inputs": [
        {
          "name": "_newVersion",
          "type": "address"
        }
      ],
      "name": "proposeUpgrade",
      "outputs": [
        {
          "name": "",
          "type": "bool"
        }
      ],
      "payable": false,
      "stateMutability": "nonpayable",
      "type": "function"
    },
    {
      "constant": false,
      "inputs": [],
      "name": "purgeUpgrade",
      "outputs": [
        {
          "name": "",
          "type": "bool"
        }
      ],
      "payable": false,
      "stateMutability": "nonpayable",
      "type": "function"
    },
    {
      "constant": false,
      "inputs": [],
      "name": "commitUpgrade",
      "outputs": [
        {
          "name": "",
          "type": "bool"
        }
      ],
      "payable": false,
      "stateMutability": "nonpayable",
      "type": "function"
    },
    {
      "constant": false,
      "inputs": [],
      "name": "optOut",
      "outputs": [
        {
          "name": "",
          "type": "bool"
        }
      ],
      "payable": false,
      "stateMutability": "nonpayable",
      "type": "function"
    },
    {
      "constant": false,
      "inputs": [],
      "name": "optIn",
      "outputs": [
        {
          "name": "",
          "type": "bool"
        }
      ],
      "payable": false,
      "stateMutability": "nonpayable",
      "type": "function"
    }
  ],
  "bytecode": "0x6060604052341561000f57600080fd5b6116138061001e6000396000f3006060604052600436106101505763ffffffff60e060020a60003504166306fdde0381146101e2578063095ea7b31461026c5780630ba12c83146102a25780630e6d1de9146102b557806318160ddd146102e4578063233850891461030957806323b872dd1461033357806323de66511461035b578063313ce5671461038357806349752baf146103ac5780634bfaf2e8146103bf5780634dfe950d146103d25780635b48684e146103e55780636a630ee7146103f857806370a08231146104685780637b7054c81461048757806395d89b41146104b0578063a883fb90146104c3578063a9059cbb146104d6578063ac35caee146104f8578063b2b45df51461055d578063c915fc93146105fe578063cb4e75bb1461061d578063cfb5192814610630578063d4eec5a614610681578063dd62ed3e14610694578063ec698a28146106b9578063fe8beb7114610730575b61015861074f565b600160a060020a031663f2d6e0ab346000363360405160e060020a63ffffffff8716028152600160a060020a03821660248201526040600482019081526044820184905290819060640185858082843782019150509450505050506000604051808303818588803b15156101cb57600080fd5b6125ee5a03f115156101dc57600080fd5b50505050005b34156101ed57600080fd5b6101f5610760565b60405160208082528190810183818151815260200191508051906020019080838360005b83811015610231578082015183820152602001610219565b50505050905090810190601f16801561025e5780820380516001836020036101000a031916815260200191505b509250505060405180910390f35b341561027757600080fd5b61028e600160a060020a03600435166024356107fe565b604051901515815260200160405180910390f35b34156102ad57600080fd5b61028e6108ab565b34156102c057600080fd5b6102c861090f565b604051600160a060020a03909116815260200160405180910390f35b34156102ef57600080fd5b6102f761091e565b60405190815260200160405180910390f35b341561031457600080fd5b610331600160a060020a0360043581169060243516604435610994565b005b341561033e57600080fd5b61028e600160a060020a03600435811690602435166044356109f8565b341561036657600080fd5b610331600160a060020a0360043581169060243516604435610abd565b341561038e57600080fd5b610396610b20565b60405160ff909116815260200160405180910390f35b34156103b757600080fd5b6102c8610b77565b34156103ca57600080fd5b6102f7610b86565b34156103dd57600080fd5b61028e610b8c565b34156103f057600080fd5b61028e610c47565b341561040357600080fd5b61028e60048035600160a060020a03169060248035919060649060443590810190830135806020601f8201819004810201604051908101604052818152929190602084018383808284375094965050509235600160a060020a03169250610c72915050565b341561047357600080fd5b6102f7600160a060020a0360043516610dae565b341561049257600080fd5b61028e600160a060020a036004358116906024359060443516610e36565b34156104bb57600080fd5b6101f5610eff565b34156104ce57600080fd5b6102c8610f6a565b34156104e157600080fd5b61028e600160a060020a0360043516602435610f79565b341561050357600080fd5b61028e60048035600160a060020a03169060248035919060649060443590810190830135806020601f82018190048102016040519081016040528181529291906020840183838082843750949650610faa95505050505050565b341561056857600080fd5b61028e60048035600160a060020a03169060446024803590810190830135806020601f8201819004810201604051908101604052818152929190602084018383808284378201915050505050509190803590602001908201803590602001908080601f016020809104026020016040519081016040528181529291906020840183838082843750949650610fcd95505050505050565b341561060957600080fd5b61028e600160a060020a0360043516611042565b341561062857600080fd5b6102f7611192565b341561063b57600080fd5b6102f760046024813581810190830135806020601f8201819004810201604051908101604052818152929190602084018383808284375094965061119895505050505050565b341561068c57600080fd5b61028e6111a5565b341561069f57600080fd5b6102f7600160a060020a0360043581169060243516611205565b34156106c457600080fd5b61028e600160a060020a036004803582169160248035909116916044359160849060643590810190830135806020601f8201819004810201604051908101604052818152929190602084018383808284375094965050509235600160a060020a0316925061129a915050565b341561073b57600080fd5b6102c8600160a060020a03600435166113e2565b600061075a336113e2565b90505b90565b60038054600181600116156101000203166002900480601f0160208091040260200160405190810160405280929190818152602001828054600181600116156101000203166002900480156107f65780601f106107cb576101008083540402835291602001916107f6565b820191906000526020600020905b8154815290600101906020018083116107d957829003601f168201915b505050505081565b6000600160a060020a038316156108a15761081761074f565b600160a060020a0316637b7054c884843360006040516020015260405160e060020a63ffffffff8616028152600160a060020a03938416600482015260248101929092529091166044820152606401602060405180830381600087803b151561087f57600080fd5b6102c65a03f1151561089057600080fd5b5050506040518051905090506108a5565b5060005b92915050565b600654600090600160a060020a031615156108c85750600061075d565b426203f4806007540111156108df5750600061075d565b506006805460058054600160a060020a0319908116600160a060020a038416179091551690556000600755600190565b600554600160a060020a031690565b600154600254600091600160a060020a03169063b524abcf90836040516020015260405160e060020a63ffffffff84160281526004810191909152602401602060405180830381600087803b151561097557600080fd5b6102c65a03f1151561098657600080fd5b505050604051805191505090565b60015433600160a060020a03908116911614156109f35781600160a060020a031683600160a060020a03167f8c5be1e5ebec7d5bd14f71427d1e84f3dd0314c0f7b2291e5b200ac8c7c3b9258360405190815260200160405180910390a35b505050565b6000600160a060020a03831615610ab257610a1161074f565b600160a060020a031663ec698a288585853360006040516020015260405160e060020a63ffffffff8716028152600160a060020a03948516600482015292841660248401526044830191909152909116608482015260a06064820152600060a482015260e401602060405180830381600087803b1515610a9057600080fd5b6102c65a03f11515610aa157600080fd5b505050604051805190509050610ab6565b5060005b9392505050565b60015433600160a060020a03908116911614156109f35781600160a060020a031683600160a060020a03167fddf252ad1be2c89b69c2b068fc378daa952ba7f163c4a11628f55a4df523b3ef8360405190815260200160405180910390a3505050565b600154600254600091600160a060020a03169063dc86e6f090836040516020015260405160e060020a63ffffffff84160281526004810191909152602401602060405180830381600087803b151561097557600080fd5b600154600160a060020a031681565b60075490565b600154600254600091600160a060020a03169063e96b462a903390846040516020015260405160e060020a63ffffffff8516028152600160a060020a0390921660048301526024820152604401602060405180830381600087803b1515610bf257600080fd5b6102c65a03f11515610c0357600080fd5b505050604051805190501561075d57600654600160a060020a03161515610c2c5750600061075d565b5060068054600160a060020a03191690556000600755600190565b600160a060020a03331660009081526008602052604090208054600160a060020a0319169055600190565b60008133600160a060020a0316610c88826113e2565b600160a060020a03161415610da55760018054600254600160a060020a03909116906357a96dd09089908990898960006040516020015260405160e060020a63ffffffff8816028152600160a060020a03808716600483019081526024830187905260448301869052908316608483015260a060648301908152909160a40184818151815260200191508051906020019080838360005b83811015610d37578082015183820152602001610d1f565b50505050905090810190601f168015610d645780820380516001836020036101000a031916815260200191505b509650505050505050602060405180830381600087803b1515610d8657600080fd5b6102c65a03f11515610d9757600080fd5b505050604051805190501491505b50949350505050565b600154600254600091600160a060020a031690634d30b6be908490846040516020015260405160e060020a63ffffffff8516028152600160a060020a0390921660048301526024820152604401602060405180830381600087803b1515610e1457600080fd5b6102c65a03f11515610e2557600080fd5b50505060405180519150505b919050565b60008133600160a060020a0316610e4c826113e2565b600160a060020a03161415610ef75760018054600254600160a060020a03909116906314712e2f90889088908860006040516020015260405160e060020a63ffffffff8716028152600160a060020a039485166004820152602481019390935260448301919091529091166064820152608401602060405180830381600087803b1515610ed857600080fd5b6102c65a03f11515610ee957600080fd5b505050604051805190501491505b509392505050565b60048054600181600116156101000203166002900480601f0160208091040260200160405190810160405280929190818152602001828054600181600116156101000203166002900480156107f65780601f106107cb576101008083540402835291602001916107f6565b600654600160a060020a031690565b6000600160a060020a038316156108a157610fa38383602060405190810160405260008152611435565b90506108a5565b6000600160a060020a03841615610ab257610fc6848484611435565b9050610ab6565b600154600090600160a060020a031615610fe957506000610ab6565b60018054600160a060020a031916600160a060020a038616179055600483805161101792916020019061154f565b5061102183611198565b600255600382805161103792916020019061154f565b506001949350505050565b600154600254600091600160a060020a03169063e96b462a903390846040516020015260405160e060020a63ffffffff8516028152600160a060020a0390921660048301526024820152604401602060405180830381600087803b15156110a857600080fd5b6102c65a03f115156110b957600080fd5b5050506040518051905015610e3157600654600160a060020a0316156110e157506000610e31565b600160a060020a03821615156110f957506000610e31565b600554600160a060020a0316151561112e575060058054600160a060020a031916600160a060020a0383161790556001610e31565b60068054600160a060020a031916600160a060020a038416179055426007557faf574319215a31df9b528258f1bdeef2b12b169dc85ff443a49373248c77493a82604051600160a060020a03909116815260200160405180910390a1506001919050565b60025481565b6000602082015192915050565b600160a060020a03338116600090815260086020526040812054909116156111cf5750600061075d565b5060055433600160a060020a0390811660009081526008602052604090208054600160a060020a03191691909216179055600190565b600154600254600091600160a060020a031690631c8d5d389085908590856040516020015260405160e060020a63ffffffff8616028152600160a060020a0393841660048201529190921660248201526044810191909152606401602060405180830381600087803b151561127957600080fd5b6102c65a03f1151561128a57600080fd5b5050506040518051949350505050565b60008133600160a060020a03166112b0826113e2565b600160a060020a031614156113d85760018054600254600160a060020a039091169063161ff662908a908a908a908a8a60006040516020015260405160e060020a63ffffffff8916028152600160a060020a03808816600483019081528782166024840152604483018790526064830186905290831660a483015260c060848301908152909160c40184818151815260200191508051906020019080838360005b83811015611369578082015183820152602001611351565b50505050905090810190601f1680156113965780820380516001836020036101000a031916815260200191505b50975050505050505050602060405180830381600087803b15156113b957600080fd5b6102c65a03f115156113ca57600080fd5b505050604051805190501491505b5095945050505050565b600160a060020a038082166000908152600860205260408120549091161561142457600160a060020a03808316600090815260086020526040902054166108a5565b5050600554600160a060020a031690565b600061143f61074f565b600160a060020a0316636a630ee7858585336000604051602001526040518563ffffffff1660e060020a0281526004018085600160a060020a0316600160a060020a031681526020018481526020018060200183600160a060020a0316600160a060020a03168152602001828103825284818151815260200191508051906020019080838360005b838110156114df5780820151838201526020016114c7565b50505050905090810190601f16801561150c5780820380516001836020036101000a031916815260200191505b5095505050505050602060405180830381600087803b151561152d57600080fd5b6102c65a03f1151561153e57600080fd5b505050604051805195945050505050565b828054600181600116156101000203166002900490600052602060002090601f016020900481019282601f1061159057805160ff19168380011785556115bd565b828001600101855582156115bd579182015b828111156115bd5782518255916020019190600101906115a2565b506115c99291506115cd565b5090565b61075d91905b808211156115c957600081556001016115d35600a165627a7a723058206c6a5ebd787df08b95bdd8372598f1ea5233e5aa03addb800cab4f709971ff230029",
  "source": "pragma solidity ^0.4.11;\n\nimport {ChronoBankPlatformInterface as ChronoBankPlatform} from \"./ChronoBankPlatformInterface.sol\";\nimport {ChronoBankAssetInterface as ChronoBankAsset} from \"./ChronoBankAssetInterface.sol\";\nimport {ERC20Interface as ERC20} from \"../erc20/ERC20Interface.sol\";\n\n/**\n * @title ChronoBank Asset Proxy.\n *\n * Proxy implements ERC20 interface and acts as a gateway to a single platform asset.\n * Proxy adds symbol and caller(sender) when forwarding requests to platform.\n * Every request that is made by caller first sent to the specific asset implementation\n * contract, which then calls back to be forwarded onto platform.\n *\n * Calls flow: Caller ->\n *             Proxy.func(...) ->\n *             Asset.__func(..., Caller.address) ->\n *             Proxy.__func(..., Caller.address) ->\n *             Platform.proxyFunc(..., symbol, Caller.address)\n *\n * Asset implementation contract is mutable, but each user have an option to stick with\n * old implementation, through explicit decision made in timely manner, if he doesn't agree\n * with new rules.\n * Each user have a possibility to upgrade to latest asset contract implementation, without the\n * possibility to rollback.\n *\n * Note: all the non constant functions return false instead of throwing in case if state change\n * didn't happen yet.\n */\ncontract ChronoBankAssetProxy is ERC20 {\n\n    // Supports ChronoBankPlatform ability to return error codes from methods\n    uint constant OK = 1;\n\n    // Assigned platform, immutable.\n    ChronoBankPlatform public chronoBankPlatform;\n\n    // Assigned symbol, immutable.\n    bytes32 public smbl;\n\n    // Assigned name, immutable.\n    string public name;\n\n    string public symbol;\n\n    /**\n     * Sets platform address, assigns symbol and name.\n     *\n     * Can be set only once.\n     *\n     * @param _chronoBankPlatform platform contract address.\n     * @param _symbol assigned symbol.\n     * @param _name assigned name.\n     *\n     * @return success.\n     */\n    function init(ChronoBankPlatform _chronoBankPlatform, string _symbol, string _name) public returns(bool) {\n        if (address(chronoBankPlatform) != 0x0) {\n            return false;\n        }\n        chronoBankPlatform = _chronoBankPlatform;\n        symbol = _symbol;\n        smbl = stringToBytes32(_symbol);\n        name = _name;\n        return true;\n    }\n\n    function stringToBytes32(string memory source) public pure returns (bytes32 result) {\n        assembly {\n           result := mload(add(source, 32))\n        }\n    }\n\n    /**\n     * Only platform is allowed to call.\n     */\n    modifier onlyChronoBankPlatform() {\n        if (msg.sender == address(chronoBankPlatform)) {\n            _;\n        }\n    }\n\n    /**\n     * Only current asset owner is allowed to call.\n     */\n    modifier onlyAssetOwner() {\n        if (chronoBankPlatform.isOwner(msg.sender, smbl)) {\n            _;\n        }\n    }\n\n    /**\n     * Returns asset implementation contract for current caller.\n     *\n     * @return asset implementation contract.\n     */\n    function _getAsset() internal view returns(ChronoBankAsset) {\n        return ChronoBankAsset(getVersionFor(msg.sender));\n    }\n\n    /**\n     * Returns asset total supply.\n     *\n     * @return asset total supply.\n     */\n    function totalSupply() public view returns(uint) {\n        return chronoBankPlatform.totalSupply(smbl);\n    }\n\n    /**\n     * Returns asset balance for a particular holder.\n     *\n     * @param _owner holder address.\n     *\n     * @return holder balance.\n     */\n    function balanceOf(address _owner) public view returns(uint) {\n        return chronoBankPlatform.balanceOf(_owner, smbl);\n    }\n\n    /**\n     * Returns asset allowance from one holder to another.\n     *\n     * @param _from holder that allowed spending.\n     * @param _spender holder that is allowed to spend.\n     *\n     * @return holder to spender allowance.\n     */\n    function allowance(address _from, address _spender) public view returns(uint) {\n        return chronoBankPlatform.allowance(_from, _spender, smbl);\n    }\n\n    /**\n     * Returns asset decimals.\n     *\n     * @return asset decimals.\n     */\n    function decimals() public view returns(uint8) {\n        return chronoBankPlatform.baseUnit(smbl);\n    }\n\n    /**\n     * Transfers asset balance from the caller to specified receiver.\n     *\n     * @param _to holder address to give to.\n     * @param _value amount to transfer.\n     *\n     * @return success.\n     */\n    function transfer(address _to, uint _value) public returns(bool) {\n        if (_to != 0x0) {\n          return _transferWithReference(_to, _value, \"\");\n        }\n        else {\n            return false;\n        }\n    }\n\n    /**\n     * Transfers asset balance from the caller to specified receiver adding specified comment.\n     *\n     * @param _to holder address to give to.\n     * @param _value amount to transfer.\n     * @param _reference transfer comment to be included in a platform's Transfer event.\n     *\n     * @return success.\n     */\n    function transferWithReference(address _to, uint _value, string _reference) public returns(bool) {\n        if (_to != 0x0) {\n            return _transferWithReference(_to, _value, _reference);\n        } else {\n            return false;\n        }\n    }\n\n    /**\n     * Resolves asset implementation contract for the caller and forwards there arguments along with\n     * the caller address.\n     *\n     * @return success.\n     */\n    function _transferWithReference(address _to, uint _value, string _reference) internal returns(bool) {\n        return _getAsset().__transferWithReference(_to, _value, _reference, msg.sender);\n    }\n\n    /**\n     * Performs transfer call on the platform by the name of specified sender.\n     *\n     * Can only be called by asset implementation contract assigned to sender.\n     *\n     * @param _to holder address to give to.\n     * @param _value amount to transfer.\n     * @param _reference transfer comment to be included in a platform's Transfer event.\n     * @param _sender initial caller.\n     *\n     * @return success.\n     */\n    function __transferWithReference(address _to, uint _value, string _reference, address _sender) public  onlyAccess(_sender) returns(bool) {\n        return chronoBankPlatform.proxyTransferWithReference(_to, _value, smbl, _reference, _sender) == OK;\n    }\n\n    /**\n     * Prforms allowance transfer of asset balance between holders.\n     *\n     * @param _from holder address to take from.\n     * @param _to holder address to give to.\n     * @param _value amount to transfer.\n     *\n     * @return success.\n     */\n    function transferFrom(address _from, address _to, uint _value) public returns(bool) {\n        if (_to != 0x0) {\n            return _getAsset().__transferFromWithReference(_from, _to, _value, \"\", msg.sender);\n         } else {\n             return false;\n         }\n    }\n\n    /**\n     * Performs allowance transfer call on the platform by the name of specified sender.\n     *\n     * Can only be called by asset implementation contract assigned to sender.\n     *\n     * @param _from holder address to take from.\n     * @param _to holder address to give to.\n     * @param _value amount to transfer.\n     * @param _reference transfer comment to be included in a platform's Transfer event.\n     * @param _sender initial caller.\n     *\n     * @return success.\n     */\n    function __transferFromWithReference(address _from, address _to, uint _value, string _reference, address _sender) public onlyAccess(_sender) returns(bool) {\n        return chronoBankPlatform.proxyTransferFromWithReference(_from, _to, _value, smbl, _reference, _sender) == OK;\n    }\n\n    /**\n     * Sets asset spending allowance for a specified spender.\n     *\n     * @param _spender holder address to set allowance to.\n     * @param _value amount to allow.\n     *\n     * @return success.\n     */\n    function approve(address _spender, uint _value) public returns(bool) {\n        if (_spender != 0x0) {\n             return _getAsset().__approve(_spender, _value, msg.sender);\n        }\n        else {\n            return false;\n        }\n    }\n\n    /**\n     * Performs allowance setting call on the platform by the name of specified sender.\n     *\n     * Can only be called by asset implementation contract assigned to sender.\n     *\n     * @param _spender holder address to set allowance to.\n     * @param _value amount to allow.\n     * @param _sender initial caller.\n     *\n     * @return success.\n     */\n    function __approve(address _spender, uint _value, address _sender) public onlyAccess(_sender) returns(bool) {\n        return chronoBankPlatform.proxyApprove(_spender, _value, smbl, _sender) == OK;\n    }\n\n    /**\n     * Emits ERC20 Transfer event on this contract.\n     *\n     * Can only be, and, called by assigned platform when asset transfer happens.\n     */\n    function emitTransfer(address _from, address _to, uint _value) public onlyChronoBankPlatform() {\n        Transfer(_from, _to, _value);\n    }\n\n    /**\n     * Emits ERC20 Approval event on this contract.\n     *\n     * Can only be, and, called by assigned platform when asset allowance set happens.\n     */\n    function emitApprove(address _from, address _spender, uint _value) public onlyChronoBankPlatform() {\n        Approval(_from, _spender, _value);\n    }\n\n    /**\n     * Resolves asset implementation contract for the caller and forwards there transaction data,\n     * along with the value. This allows for proxy interface growth.\n     */\n    function () public payable {\n        _getAsset().__process.value(msg.value)(msg.data, msg.sender);\n    }\n\n    /**\n     * Indicates an upgrade freeze-time start, and the next asset implementation contract.\n     */\n    event UpgradeProposal(address newVersion);\n\n    // Current asset implementation contract address.\n    address latestVersion;\n\n    // Proposed next asset implementation contract address.\n    address pendingVersion;\n\n    // Upgrade freeze-time start.\n    uint pendingVersionTimestamp;\n\n    // Timespan for users to review the new implementation and make decision.\n    uint constant UPGRADE_FREEZE_TIME = 3 days;\n\n    // Asset implementation contract address that user decided to stick with.\n    // 0x0 means that user uses latest version.\n    mapping(address => address) userOptOutVersion;\n\n    /**\n     * Only asset implementation contract assigned to sender is allowed to call.\n     */\n    modifier onlyAccess(address _sender) {\n        if (getVersionFor(_sender) == msg.sender) {\n            _;\n        }\n    }\n\n    /**\n     * Returns asset implementation contract address assigned to sender.\n     *\n     * @param _sender sender address.\n     *\n     * @return asset implementation contract address.\n     */\n    function getVersionFor(address _sender) public view returns(address) {\n        return userOptOutVersion[_sender] == 0 ? latestVersion : userOptOutVersion[_sender];\n    }\n\n    /**\n     * Returns current asset implementation contract address.\n     *\n     * @return asset implementation contract address.\n     */\n    function getLatestVersion() public view returns(address) {\n        return latestVersion;\n    }\n\n    /**\n     * Returns proposed next asset implementation contract address.\n     *\n     * @return asset implementation contract address.\n     */\n    function getPendingVersion() public view returns(address) {\n        return pendingVersion;\n    }\n\n    /**\n     * Returns upgrade freeze-time start.\n     *\n     * @return freeze-time start.\n     */\n    function getPendingVersionTimestamp() public view returns(uint) {\n        return pendingVersionTimestamp;\n    }\n\n    /**\n     * Propose next asset implementation contract address.\n     *\n     * Can only be called by current asset owner.\n     *\n     * Note: freeze-time should not be applied for the initial setup.\n     *\n     * @param _newVersion asset implementation contract address.\n     *\n     * @return success.\n     */\n    function proposeUpgrade(address _newVersion) public onlyAssetOwner() returns(bool) {\n        // Should not already be in the upgrading process.\n        if (pendingVersion != 0x0) {\n            return false;\n        }\n        // New version address should be other than 0x0.\n        if (_newVersion == 0x0) {\n            return false;\n        }\n        // Don't apply freeze-time for the initial setup.\n        if (latestVersion == 0x0) {\n            latestVersion = _newVersion;\n            return true;\n        }\n        pendingVersion = _newVersion;\n        pendingVersionTimestamp = now;\n        UpgradeProposal(_newVersion);\n        return true;\n    }\n\n    /**\n     * Cancel the pending upgrade process.\n     *\n     * Can only be called by current asset owner.\n     *\n     * @return success.\n     */\n    function purgeUpgrade() public onlyAssetOwner() returns(bool) {\n        if (pendingVersion == 0x0) {\n            return false;\n        }\n        delete pendingVersion;\n        delete pendingVersionTimestamp;\n        return true;\n    }\n\n    /**\n     * Finalize an upgrade process setting new asset implementation contract address.\n     *\n     * Can only be called after an upgrade freeze-time.\n     *\n     * @return success.\n     */\n    function commitUpgrade() public returns(bool) {\n        if (pendingVersion == 0x0) {\n            return false;\n        }\n        if (pendingVersionTimestamp + UPGRADE_FREEZE_TIME > now) {\n            return false;\n        }\n        latestVersion = pendingVersion;\n        delete pendingVersion;\n        delete pendingVersionTimestamp;\n        return true;\n    }\n\n    /**\n     * Disagree with proposed upgrade, and stick with current asset implementation\n     * until further explicit agreement to upgrade.\n     *\n     * @return success.\n     */\n    function optOut() public returns(bool) {\n        if (userOptOutVersion[msg.sender] != 0x0) {\n            return false;\n        }\n        userOptOutVersion[msg.sender] = latestVersion;\n        return true;\n    }\n\n    /**\n     * Implicitly agree to upgrade to current and future asset implementation upgrades,\n     * until further explicit disagreement.\n     *\n     * @return success.\n     */\n    function optIn() public returns(bool) {\n        delete userOptOutVersion[msg.sender];\n        return true;\n    }\n}\n",
  "sourcePath": "/Users/alesanro/Documents/Projects/ChronoBank/SmartContracts/contracts/core/platform/ChronoBankAssetProxy.sol",
  "compiler": {
    "name": "solc",
    "version": "0.4.19+commit.c4cbbb05.Emscripten.clang"
  },
  "schemaVersion": "2.0.0",
  "updatedAt": "2018-04-02T15:00:02.259Z"
}