{
  "contractName": "ChronoBankAssetWithFee",
  "abi": [
    {
      "constant": false,
      "inputs": [
        {
          "name": "_proxy",
          "type": "address"
        }
      ],
      "name": "init",
      "outputs": [
        {
          "name": "",
          "type": "bool"
        }
      ],
      "payable": false,
      "stateMutability": "nonpayable",
      "type": "function"
    },
    {
      "constant": false,
      "inputs": [
        {
          "name": "_symbol",
          "type": "bytes32"
        }
      ],
      "name": "emitUnpaused",
      "outputs": [],
      "payable": false,
      "stateMutability": "nonpayable",
      "type": "function"
    },
    {
      "constant": false,
      "inputs": [
        {
          "name": "_symbol",
          "type": "bytes32"
        },
        {
          "name": "_restricted",
          "type": "address"
        }
      ],
      "name": "emitRestricted",
      "outputs": [],
      "payable": false,
      "stateMutability": "nonpayable",
      "type": "function"
    },
    {
      "constant": false,
      "inputs": [],
      "name": "unpause",
      "outputs": [
        {
          "name": "",
          "type": "bool"
        }
      ],
      "payable": false,
      "stateMutability": "nonpayable",
      "type": "function"
    },
    {
      "constant": true,
      "inputs": [],
      "name": "feeAddress",
      "outputs": [
        {
          "name": "",
          "type": "address"
        }
      ],
      "payable": false,
      "stateMutability": "view",
      "type": "function"
    },
    {
      "constant": false,
      "inputs": [],
      "name": "claimContractOwnership",
      "outputs": [
        {
          "name": "",
          "type": "bool"
        }
      ],
      "payable": false,
      "stateMutability": "nonpayable",
      "type": "function"
    },
    {
      "constant": false,
      "inputs": [
        {
          "name": "_to",
          "type": "address"
        }
      ],
      "name": "changeContractOwnership",
      "outputs": [
        {
          "name": "",
          "type": "bool"
        }
      ],
      "payable": false,
      "stateMutability": "nonpayable",
      "type": "function"
    },
    {
      "constant": true,
      "inputs": [],
      "name": "pendingContractOwner",
      "outputs": [
        {
          "name": "",
          "type": "address"
        }
      ],
      "payable": false,
      "stateMutability": "view",
      "type": "function"
    },
    {
      "constant": true,
      "inputs": [],
      "name": "paused",
      "outputs": [
        {
          "name": "",
          "type": "bool"
        }
      ],
      "payable": false,
      "stateMutability": "view",
      "type": "function"
    },
    {
      "constant": false,
      "inputs": [
        {
          "name": "_to",
          "type": "address"
        },
        {
          "name": "_value",
          "type": "uint256"
        },
        {
          "name": "_reference",
          "type": "string"
        },
        {
          "name": "_sender",
          "type": "address"
        }
      ],
      "name": "__transferWithReference",
      "outputs": [
        {
          "name": "",
          "type": "bool"
        }
      ],
      "payable": false,
      "stateMutability": "nonpayable",
      "type": "function"
    },
    {
      "constant": false,
      "inputs": [
        {
          "name": "_spender",
          "type": "address"
        },
        {
          "name": "_value",
          "type": "uint256"
        },
        {
          "name": "_sender",
          "type": "address"
        }
      ],
      "name": "__approve",
      "outputs": [
        {
          "name": "",
          "type": "bool"
        }
      ],
      "payable": false,
      "stateMutability": "nonpayable",
      "type": "function"
    },
    {
      "constant": false,
      "inputs": [
        {
          "name": "_symbol",
          "type": "bytes32"
        }
      ],
      "name": "emitPaused",
      "outputs": [],
      "payable": false,
      "stateMutability": "nonpayable",
      "type": "function"
    },
    {
      "constant": true,
      "inputs": [],
      "name": "feePercent",
      "outputs": [
        {
          "name": "",
          "type": "uint32"
        }
      ],
      "payable": false,
      "stateMutability": "view",
      "type": "function"
    },
    {
      "constant": false,
      "inputs": [],
      "name": "destroy",
      "outputs": [],
      "payable": false,
      "stateMutability": "nonpayable",
      "type": "function"
    },
    {
      "constant": false,
      "inputs": [],
      "name": "pause",
      "outputs": [
        {
          "name": "",
          "type": "bool"
        }
      ],
      "payable": false,
      "stateMutability": "nonpayable",
      "type": "function"
    },
    {
      "constant": false,
      "inputs": [
        {
          "name": "_symbol",
          "type": "bytes32"
        },
        {
          "name": "_unrestricted",
          "type": "address"
        }
      ],
      "name": "emitUnrestricted",
      "outputs": [],
      "payable": false,
      "stateMutability": "nonpayable",
      "type": "function"
    },
    {
      "constant": false,
      "inputs": [
        {
          "name": "_to",
          "type": "address"
        }
      ],
      "name": "transferContractOwnership",
      "outputs": [
        {
          "name": "",
          "type": "bool"
        }
      ],
      "payable": false,
      "stateMutability": "nonpayable",
      "type": "function"
    },
    {
      "constant": false,
      "inputs": [
        {
          "name": "_restricted",
          "type": "address[]"
        }
      ],
      "name": "restrict",
      "outputs": [
        {
          "name": "",
          "type": "bool"
        }
      ],
      "payable": false,
      "stateMutability": "nonpayable",
      "type": "function"
    },
    {
      "constant": true,
      "inputs": [],
      "name": "contractOwner",
      "outputs": [
        {
          "name": "",
          "type": "address"
        }
      ],
      "payable": false,
      "stateMutability": "view",
      "type": "function"
    },
    {
      "constant": true,
      "inputs": [],
      "name": "proxy",
      "outputs": [
        {
          "name": "",
          "type": "address"
        }
      ],
      "payable": false,
      "stateMutability": "view",
      "type": "function"
    },
    {
      "constant": false,
      "inputs": [
        {
          "name": "_from",
          "type": "address"
        },
        {
          "name": "_to",
          "type": "address"
        },
        {
          "name": "_value",
          "type": "uint256"
        },
        {
          "name": "_reference",
          "type": "string"
        },
        {
          "name": "_sender",
          "type": "address"
        }
      ],
      "name": "__transferFromWithReference",
      "outputs": [
        {
          "name": "",
          "type": "bool"
        }
      ],
      "payable": false,
      "stateMutability": "nonpayable",
      "type": "function"
    },
    {
      "constant": false,
      "inputs": [
        {
          "name": "_unrestricted",
          "type": "address[]"
        }
      ],
      "name": "unrestrict",
      "outputs": [
        {
          "name": "",
          "type": "bool"
        }
      ],
      "payable": false,
      "stateMutability": "nonpayable",
      "type": "function"
    },
    {
      "constant": true,
      "inputs": [],
      "name": "eventsHistory",
      "outputs": [
        {
          "name": "",
          "type": "address"
        }
      ],
      "payable": false,
      "stateMutability": "view",
      "type": "function"
    },
    {
      "constant": false,
      "inputs": [
        {
          "name": "",
          "type": "bytes"
        },
        {
          "name": "",
          "type": "address"
        }
      ],
      "name": "__process",
      "outputs": [],
      "payable": true,
      "stateMutability": "payable",
      "type": "function"
    },
    {
      "constant": true,
      "inputs": [
        {
          "name": "",
          "type": "address"
        }
      ],
      "name": "blacklist",
      "outputs": [
        {
          "name": "",
          "type": "bool"
        }
      ],
      "payable": false,
      "stateMutability": "view",
      "type": "function"
    },
    {
      "anonymous": false,
      "inputs": [
        {
          "indexed": true,
          "name": "symbol",
          "type": "bytes32"
        },
        {
          "indexed": false,
          "name": "restricted",
          "type": "address"
        }
      ],
      "name": "Restricted",
      "type": "event"
    },
    {
      "anonymous": false,
      "inputs": [
        {
          "indexed": true,
          "name": "symbol",
          "type": "bytes32"
        },
        {
          "indexed": false,
          "name": "unrestricted",
          "type": "address"
        }
      ],
      "name": "Unrestricted",
      "type": "event"
    },
    {
      "anonymous": false,
      "inputs": [
        {
          "indexed": true,
          "name": "symbol",
          "type": "bytes32"
        }
      ],
      "name": "Paused",
      "type": "event"
    },
    {
      "anonymous": false,
      "inputs": [
        {
          "indexed": true,
          "name": "symbol",
          "type": "bytes32"
        }
      ],
      "name": "Unpaused",
      "type": "event"
    },
    {
      "constant": false,
      "inputs": [
        {
          "name": "_feeAddress",
          "type": "address"
        },
        {
          "name": "_feePercent",
          "type": "uint32"
        }
      ],
      "name": "setupFee",
      "outputs": [
        {
          "name": "",
          "type": "bool"
        }
      ],
      "payable": false,
      "stateMutability": "nonpayable",
      "type": "function"
    },
    {
      "constant": false,
      "inputs": [
        {
          "name": "_feeAddress",
          "type": "address"
        }
      ],
      "name": "setFeeAddress",
      "outputs": [
        {
          "name": "",
          "type": "bool"
        }
      ],
      "payable": false,
      "stateMutability": "nonpayable",
      "type": "function"
    },
    {
      "constant": false,
      "inputs": [
        {
          "name": "_feePercent",
          "type": "uint32"
        }
      ],
      "name": "setFee",
      "outputs": [],
      "payable": false,
      "stateMutability": "nonpayable",
      "type": "function"
    },
    {
      "constant": true,
      "inputs": [
        {
          "name": "_value",
          "type": "uint256"
        }
      ],
      "name": "calculateFee",
      "outputs": [
        {
          "name": "",
          "type": "uint256"
        }
      ],
      "payable": false,
      "stateMutability": "view",
      "type": "function"
    }
  ],
  "bytecode": "0x606060405260028054600160a860020a03191661010033600160a060020a0316021790556118cf806100326000396000f30060606040526004361061015b5763ffffffff60e060020a60003504166319ab453c81146101605780631ab971ab1461019357806322ccf678146101b1578063339d8b45146101c75780633f4ba83a146101e957806341275358146101fc5780634592cd1d1461022b578063557f4bc91461023e5780635aa77d3c1461025d5780635c975abb146102705780636a630ee7146102835780637b7054c8146102f35780637df5fd351461031c5780637fd6f15c1461033257806383197ef01461035e5780638456cb59146103715780638705fcd4146103845780638c8f4880146103a357806399a5d747146103c5578063a843c51f146103ed578063ae8800fa1461040c578063be57771a14610434578063ce606ee014610452578063ec55688914610465578063ec698a2814610478578063ee47af00146104ef578063f07629f81461050d578063f2d6e0ab14610520578063f9f92be414610571575b600080fd5b341561016b57600080fd5b61017f600160a060020a0360043516610590565b604051901515815260200160405180910390f35b341561019e57600080fd5b6101af63ffffffff600435166105db565b005b34156101bc57600080fd5b6101af60043561063b565b34156101d257600080fd5b6101af600435600160a060020a036024351661066b565b34156101f457600080fd5b61017f6106ad565b341561020757600080fd5b61020f6107e4565b604051600160a060020a03909116815260200160405180910390f35b341561023657600080fd5b61017f6107f3565b341561024957600080fd5b61017f600160a060020a0360043516610865565b341561026857600080fd5b61020f6108ce565b341561027b57600080fd5b61017f6108dd565b341561028e57600080fd5b61017f60048035600160a060020a03169060248035919060649060443590810190830135806020601f8201819004810201604051908101604052818152929190602084018383808284375094965050509235600160a060020a031692506108e6915050565b34156102fe57600080fd5b61017f600160a060020a036004358116906024359060443516610915565b341561032757600080fd5b6101af600435610942565b341561033d57600080fd5b610345610972565b60405163ffffffff909116815260200160405180910390f35b341561036957600080fd5b6101af610996565b341561037c57600080fd5b61017f6109c0565b341561038f57600080fd5b61017f600160a060020a0360043516610af1565b34156103ae57600080fd5b6101af600435600160a060020a0360243516610b60565b34156103d057600080fd5b6103db600435610ba2565b60405190815260200160405180910390f35b34156103f857600080fd5b61017f600160a060020a0360043516610bec565b341561041757600080fd5b61017f600160a060020a036004351663ffffffff60243516610c89565b341561043f57600080fd5b61017f6004803560248101910135610cc3565b341561045d57600080fd5b61020f610e4f565b341561047057600080fd5b61020f610e63565b341561048357600080fd5b61017f600160a060020a036004803582169160248035909116916044359160849060643590810190830135806020601f8201819004810201604051908101604052818152929190602084018383808284375094965050509235600160a060020a03169250610e72915050565b34156104fa57600080fd5b61017f6004803560248101910135610ea3565b341561051857600080fd5b61020f61101d565b6101af60046024813581810190830135806020601f8201819004810201604051908101604052818152929190602084018383808284375094965050509235600160a060020a0316925061015b915050565b341561057c57600080fd5b61017f600160a060020a036004351661113c565b60008054600160a060020a0316156105aa575060006105d6565b506000805473ffffffffffffffffffffffffffffffffffffffff1916600160a060020a03831617905560015b919050565b60025433600160a060020a03908116610100909204161415610638576004805477ffffffff000000000000000000000000000000000000000019167401000000000000000000000000000000000000000063ffffffff8416021790555b50565b807fd05bfc2250abb0f8fd265a54c53a24359c5484af63cad2e4ce87c78ab751395a60405160405180910390a250565b817fd097e4d83d4e07fdd04ead2330f40bccf48350dd3f12caf1e36ef45049494c1782604051600160a060020a03909116815260200160405180910390a25050565b600080548190600160a060020a03166349752baf6040518163ffffffff1660e060020a028152600401602060405180830381600087803b15156106ef57600080fd5b5af115156106fc57600080fd5b5050506040518051600054909250600160a060020a03808416925063ccc11f119133911663cb4e75bb6040518163ffffffff1660e060020a028152600401602060405180830381600087803b151561075357600080fd5b5af1151561076057600080fd5b5050506040518051905060405160e060020a63ffffffff8516028152600160a060020a0390921660048301526024820152604401602060405180830381600087803b15156107ad57600080fd5b5af115156107ba57600080fd5b50505060405180519050156107e0576002805460ff191690556107db611151565b600191505b5090565b600454600160a060020a031681565b60035460009033600160a060020a0390811691161461081457506000610862565b50600380546002805474ffffffffffffffffffffffffffffffffffffffff001916610100600160a060020a0384160217905573ffffffffffffffffffffffffffffffffffffffff1916905560015b90565b60025460009033600160a060020a039081166101009092041614156105d657600160a060020a038216151561089c575060006105d6565b5060038054600160a060020a03831673ffffffffffffffffffffffffffffffffffffffff199091161790556001919050565b600354600160a060020a031681565b60025460ff1681565b6000805433600160a060020a039081169116141561090d5761090a85858585611201565b90505b949350505050565b6000805433600160a060020a039081169116141561093b5761093884848461121e565b90505b9392505050565b807f0cb09dc71d57eeec2046f6854976717e4874a3cf2d6ddeddde337e5b6de6ba3160405160405180910390a250565b60045474010000000000000000000000000000000000000000900463ffffffff1681565b60025433600160a060020a039081166101009092041614156109be5733600160a060020a0316ff5b565b600080548190600160a060020a03166349752baf6040518163ffffffff1660e060020a028152600401602060405180830381600087803b1515610a0257600080fd5b5af11515610a0f57600080fd5b5050506040518051600054909250600160a060020a03808416925063ccc11f119133911663cb4e75bb6040518163ffffffff1660e060020a028152600401602060405180830381600087803b1515610a6657600080fd5b5af11515610a7357600080fd5b5050506040518051905060405160e060020a63ffffffff8516028152600160a060020a0390921660048301526024820152604401602060405180830381600087803b1515610ac057600080fd5b5af11515610acd57600080fd5b50505060405180519050156107e0576002805460ff191660011790556107db6112eb565b60025460009033600160a060020a039081166101009092041614156105d657600454600160a060020a0383811691161415610b2e575060006105d6565b5060048054600160a060020a03831673ffffffffffffffffffffffffffffffffffffffff199091161790556001919050565b817f791b5fd6715e4832fb6052f31b1eba08447cceeced1bf87aeb13c242b7cef49282604051600160a060020a03909116815260200160405180910390a25050565b60045460009074010000000000000000000000000000000000000000900463ffffffff168202612710810615610bd9576001610bdc565b60005b60ff166127108204019392505050565b60025460009033600160a060020a039081166101009092041614156105d657600160a060020a0382161515610c23575060006105d6565b600354600160a060020a031615610c52576003805473ffffffffffffffffffffffffffffffffffffffff191690555b5060028054600160a060020a0383166101000274ffffffffffffffffffffffffffffffffffffffff00199091161790556001919050565b60025460009033600160a060020a03908116610100909204161415610cbd57610cb1826105db565b610cba83610af1565b90505b92915050565b60008054819081908190600160a060020a03166349752baf6040518163ffffffff1660e060020a028152600401602060405180830381600087803b1515610d0957600080fd5b5af11515610d1657600080fd5b5050506040518051600054909250600160a060020a03808416925063ccc11f119133911663cb4e75bb6040518163ffffffff1660e060020a028152600401602060405180830381600087803b1515610d6d57600080fd5b5af11515610d7a57600080fd5b5050506040518051905060405160e060020a63ffffffff8516028152600160a060020a0390921660048301526024820152604401602060405180830381600087803b1515610dc757600080fd5b5af11515610dd457600080fd5b5050506040518051905015610e4657600092505b84831015610e4157858584818110610dfc57fe5b60209081029290920135600160a060020a0316600081815260019384905260409020805460ff1916909317909255509150610e368261133c565b600190920191610de8565b600193505b50505092915050565b6002546101009004600160a060020a031681565b600054600160a060020a031681565b6000805433600160a060020a0390811691161415610e9a57610e9786868686866113fc565b90505b95945050505050565b60008054819081908190600160a060020a03166349752baf6040518163ffffffff1660e060020a028152600401602060405180830381600087803b1515610ee957600080fd5b5af11515610ef657600080fd5b5050506040518051600054909250600160a060020a03808416925063ccc11f119133911663cb4e75bb6040518163ffffffff1660e060020a028152600401602060405180830381600087803b1515610f4d57600080fd5b5af11515610f5a57600080fd5b5050506040518051905060405160e060020a63ffffffff8516028152600160a060020a0390921660048301526024820152604401602060405180830381600087803b1515610fa757600080fd5b5af11515610fb457600080fd5b5050506040518051905015610e4657600092505b84831015610e4157858584818110610fdc57fe5b60209081029290920135600160a060020a0316600081815260019093526040909220805460ff191690555091506110128261141a565b600190920191610fc8565b600080548190600160a060020a03166349752baf6040518163ffffffff1660e060020a028152600401602060405180830381600087803b151561105f57600080fd5b5af1151561106c57600080fd5b5050506040518051915050600160a060020a0381168063f07629f86040518163ffffffff1660e060020a028152600401602060405180830381600087803b15156110b557600080fd5b5af115156110c257600080fd5b50505060405180519050600160a060020a031614156110e15730611136565b80600160a060020a031663f07629f86040518163ffffffff1660e060020a028152600401602060405180830381600087803b151561111e57600080fd5b5af1151561112b57600080fd5b505050604051805190505b91505090565b60016020526000908152604090205460ff1681565b61115961101d565b600054600160a060020a03918216916322ccf678911663cb4e75bb6040518163ffffffff1660e060020a028152600401602060405180830381600087803b15156111a257600080fd5b5af115156111af57600080fd5b5050506040518051905060405160e060020a63ffffffff84160281526004810191909152602401600060405180830381600087803b15156111ef57600080fd5b5af115156111fc57600080fd5b505050565b600061090a8585858560206040519081016040526000815261146b565b600160a060020a038316600090815260016020526040812054849060ff1615156112e357600160a060020a038316600090815260016020526040902054839060ff1615156112e157600054600160a060020a0316637b7054c887878760405160e060020a63ffffffff8616028152600160a060020a03938416600482015260248101929092529091166044820152606401602060405180830381600087803b15156112c857600080fd5b5af115156112d557600080fd5b50505060405180519350505b505b509392505050565b6112f361101d565b600054600160a060020a0391821691637df5fd35911663cb4e75bb6040518163ffffffff1660e060020a028152600401602060405180830381600087803b15156111a257600080fd5b61134461101d565b600054600160a060020a039182169163339d8b45911663cb4e75bb6040518163ffffffff1660e060020a028152600401602060405180830381600087803b151561138d57600080fd5b5af1151561139a57600080fd5b505050604051805190508360405160e060020a63ffffffff85160281526004810192909252600160a060020a03166024820152604401600060405180830381600087803b15156113e957600080fd5b5af115156113f657600080fd5b50505050565b6000610e9786868686866020604051908101604052600081526114c0565b61142261101d565b600054600160a060020a0391821691638c8f4880911663cb4e75bb6040518163ffffffff1660e060020a028152600401602060405180830381600087803b151561138d57600080fd5b60008285848461147c848484611517565b156114b35761148d8a8a8a8a611586565b151586528551945080511580156114a957506114a984846116e9565b156114b357600080fd5b5050505095945050505050565b6000868584846114d1848484611517565b15611509576114e38b8b8b8b8b611723565b151586528551945080511580156114ff57506114ff84846116e9565b1561150957600080fd5b505050509695505050505050565b600061152384846116e9565b15156115315750600161093b565b600454610938908590600160a060020a031661154c86610ba2565b60408051908101604052600f81527f5472616e73616374696f6e206665650000000000000000000000000000000000602082015286611723565b60025460009060ff16151561090d57600160a060020a038516600090815260016020526040902054859060ff1615156116e057600160a060020a038316600090815260016020526040902054839060ff1615156116de57600054600160a060020a0316636a630ee7888888886040518563ffffffff1660e060020a0281526004018085600160a060020a0316600160a060020a031681526020018481526020018060200183600160a060020a0316600160a060020a03168152602001828103825284818151815260200191508051906020019080838360005b8381101561167757808201518382015260200161165f565b50505050905090810190601f1680156116a45780820380516001836020036101000a031916815260200191505b5095505050505050602060405180830381600087803b15156116c557600080fd5b5af115156116d257600080fd5b50505060405180519350505b505b50949350505050565b600454600090600160a060020a0316158015906117145750600454600160a060020a03848116911614155b8015610cba5750501515919050565b60025460009060ff161515610e9a57600160a060020a038616600090815260016020526040902054869060ff16151561189957600160a060020a038616600090815260016020526040902054869060ff16151561189757600160a060020a038416600090815260016020526040902054849060ff16151561189557600054600160a060020a031663ec698a288a8a8a8a8a60405160e060020a63ffffffff8816028152600160a060020a0380871660048301908152868216602484015260448301869052908316608483015260a060648301908152909160a40184818151815260200191508051906020019080838360005b8381101561182d578082015183820152602001611815565b50505050905090810190601f16801561185a5780820380516001836020036101000a031916815260200191505b509650505050505050602060405180830381600087803b151561187c57600080fd5b5af1151561188957600080fd5b50505060405180519450505b505b505b50959450505050505600a165627a7a72305820d52b28b8c6005e95627ae4cabb6d09dac8db9f2b081c9b69006efa5960f637010029",
  "source": "/**\n * Copyright 2017–2018, LaborX PTY\n * Licensed under the AGPL Version 3 license.\n */\n\npragma solidity ^0.4.21;\n\n\nimport \"./ChronoBankAsset.sol\";\nimport \"../common/Owned.sol\";\n\n\n/// @title ChronoBank Asset With Fee implementation contract.\n///\n/// Asset implementation contract that takes percent fee on top of every transfer.\n/// Fee amount is always rounded up.\n///\n/// Note: all the non constant functions return false instead of throwing in case if state change\n/// didn't happen yet.\ncontract ChronoBankAssetWithFee is ChronoBankAsset, Owned {\n    \n    /// @dev Fee collecting address, immutable.\n    address public feeAddress;\n\n    /// @dev Fee percent, immutable. 1 is 0.01%, 10000 is 100%.\n    uint32 public feePercent;\n\n    /// @dev Allows the call if fee was successfully taken, throws if the call failed in the end.\n    modifier takeFee(address _from, uint _fromValue, address _sender, bool[1] memory _success) {\n        if (_transferFee(_from, _fromValue, _sender)) {\n            _;\n            if (!_success[0] && _subjectToFees(_from, _fromValue)) {\n                revert();\n            }\n        }\n    }\n\n    /// @notice Sets fee collecting address and fee percent.\n    /// @param _feeAddress fee collecting address.\n    /// @param _feePercent fee percent, 1 is 0.01%, 10000 is 100%.\n    /// @return success.\n    function setupFee(address _feeAddress, uint32 _feePercent) onlyContractOwner public returns (bool) {\n        setFee(_feePercent);\n        return setFeeAddress(_feeAddress);\n    }\n\n    /// @notice Sets fee address separate from setting fee percent value. Can be set only once\n    /// @param _feeAddress fee collecting address\n    /// @return result of the operation\n    function setFeeAddress(address _feeAddress) onlyContractOwner public returns (bool) {\n        if (feeAddress == _feeAddress) {\n            return false;\n        }\n\n        feeAddress = _feeAddress;\n        return true;\n    }\n\n    /// @notice Sets fee percent value. Can be changed multiple times\n    /// @param _feePercent fee percent, 1 is 0.01%, 10000 is 100%.\n    function setFee(uint32 _feePercent) onlyContractOwner public {\n        feePercent = _feePercent;\n    }\n\n    /// @notice Passes execution into modified function with function-modifier partially shared scope.\n    /// @return success.\n    function _transferWithReference(\n        address _to, \n        uint _value, \n        string _reference, \n        address _sender\n    ) \n    internal \n    returns (bool) \n    {\n        return _transferWithReference(_to, _value, _reference, _sender, [false]);\n    }\n\n    /// @dev Transfers asset balance from the specified sender to specified receiver adding specified comment.\n    ///\n    /// Will be executed only in case of successful fee payment from the sender.\n    ///\n    /// @param _to holder address to give to.\n    /// @param _value amount to transfer.\n    /// @param _reference transfer comment to be included in a platform's Transfer event.\n    /// @param _sender initial caller.\n    /// @param _success function-modifier shared scope, so that modifier knows the result of a call.\n    ///\n    /// @return success.\n    function _transferWithReference(\n        address _to, \n        uint _value, \n        string _reference, \n        address _sender, \n        bool[1] memory _success\n    ) \n    takeFee(_sender, _value, _sender, _success) \n    internal \n    returns (bool) \n    {\n        _success[0] = super._transferWithReference(_to, _value, _reference, _sender);\n        return _success[0];\n    }\n\n    /// @dev Passes execution into modified function with function-modifier partially shared scope.\n    /// @return success.\n    function _transferFromWithReference(\n        address _from, \n        address _to, \n        uint _value, \n        string _reference, \n        address _sender   \n    ) \n    internal \n    returns (bool) \n    {\n        return _transferFromWithReference(_from, _to, _value, _reference, _sender, [false]);\n    }\n\n    /// @dev Performs allowance transfer of asset balance from the specified payer to specified receiver adding specified comment.\n    ///\n    /// Will be executed only in case of successful fee payment from the payer.\n    ///\n    /// @param _from holder address to take from.\n    /// @param _to holder address to give to.\n    /// @param _value amount to transfer.\n    /// @param _reference transfer comment to be included in a platform's Transfer event.\n    /// @param _sender initial caller.\n    /// @param _success function-modifier shared scope, so that modifier knows the result of a call.\n    ///\n    /// @return success.\n    function _transferFromWithReference(\n        address _from, \n        address _to, \n        uint _value, \n        string _reference, \n        address _sender, \n        bool[1] memory _success\n    ) \n    takeFee(_from, _value, _sender, _success) \n    internal \n    returns (bool) \n    {\n        _success[0] = super._transferFromWithReference(_from, _to, _value, _reference, _sender);\n        return _success[0];\n    }\n\n    /// @dev Transfers fee from the specified payer to fee collecting address.\n    /// Will be executed only if payer and amount are subjects to fees.\n    /// @param _feeFrom payer to take fee from.\n    /// @param _fromValue amount to apply fee percent.\n    /// @param _sender initial caller.\n    /// @return success.\n    function _transferFee(address _feeFrom, uint _fromValue, address _sender) internal returns (bool) {\n        if (!_subjectToFees(_feeFrom, _fromValue)) {\n            return true;\n        }\n        \n        return super._transferFromWithReference(_feeFrom, feeAddress, calculateFee(_fromValue), \"Transaction fee\", _sender);\n    }\n\n    /// @dev Check if specified payer and amount are subjects to fees.\n    /// Fee is not taken if:\n    ///  - Fee collecting address is not set;\n    ///  - Payer is fee collecting address itself;\n    ///  - Amount equals 0;\n    /// @return true if fee needs to be taken.\n    function _subjectToFees(address _feeFrom, uint _fromValue) internal view returns (bool) {\n        return feeAddress != 0x0\n            && feeAddress != _feeFrom\n            && _fromValue != 0;\n    }\n\n    /// @notice Return fee that needs to be taken based on specified amount.\n    /// Fee amount is always rounded up.\n    /// @return fee amount.\n    function calculateFee(uint _value) public view returns (uint) {\n        uint feeRaw = _value * feePercent;\n        return (feeRaw / 10000) + (feeRaw % 10000 == 0 ? 0 : 1);\n    }\n}\n",
  "sourcePath": "/Users/mikefluff/Documents/Programming/Chronobank/test/SmartContracts/contracts/core/platform/ChronoBankAssetWithFee.sol",
  "compiler": {
    "name": "solc",
    "version": "0.4.21+commit.dfe3193c.Emscripten.clang"
  },
  "schemaVersion": "2.0.0",
  "updatedAt": "2018-04-11T07:40:05.263Z"
}