{
  "contractName": "ChronoBankTokenExtensionFactory",
  "abi": [
    {
      "inputs": [
        {
          "name": "_contractsManager",
          "type": "address"
        }
      ],
      "payable": false,
      "stateMutability": "nonpayable",
      "type": "constructor"
    },
    {
      "constant": false,
      "inputs": [
        {
          "name": "_platform",
          "type": "address"
        }
      ],
      "name": "createTokenExtension",
      "outputs": [
        {
          "name": "",
          "type": "address"
        }
      ],
      "payable": false,
      "stateMutability": "nonpayable",
      "type": "function"
    }
  ],
  "bytecode": "0x6060604052341561000f57600080fd5b6040516020806106158339810160405280805160008054600160a060020a03909216600160a060020a031990921691909117905550506105c1806100546000396000f3006060604052600436106100405763ffffffff7c01000000000000000000000000000000000000000000000000000000006000350416635218dbea8114610045575b600080fd5b341561005057600080fd5b61007173ffffffffffffffffffffffffffffffffffffffff6004351661009a565b60405173ffffffffffffffffffffffffffffffffffffffff909116815260200160405180910390f35b60008054819073ffffffffffffffffffffffffffffffffffffffff16836100bf610101565b73ffffffffffffffffffffffffffffffffffffffff92831681529116602082015260409081019051809103906000f08015156100fa57600080fd5b9392505050565b604051610484806101128339019056006060604052341561000f57600080fd5b604051604080610484833981016040528080519190602001805160008054600160a060020a03958616600160a060020a0319918216179091556001805495909216941693909317909255505061041a8061006a6000396000f30060606040526004361061006c5763ffffffff7c01000000000000000000000000000000000000000000000000000000006000350416630252fbce81146100a657806322629b26146100d75780634bde38c814610106578063ae8bb1bc14610135578063df26ca0814610164575b60008061007761017a565b905036600060405137602060405136604051846102bc5a03f491506001821461009f57600080fd5b6020604051f35b34156100b157600080fd5b6100d5600160a060020a036004358116906024359060443581169060643516610235565b005b34156100e257600080fd5b6100d5600160a060020a0360043581169060243590604435811690606435166102aa565b341561011157600080fd5b61011961031f565b604051600160a060020a03909116815260200160405180910390f35b341561014057600080fd5b6100d5600160a060020a03600435811690602435906044358116906064351661032e565b341561016f57600080fd5b6100d56004356103a3565b60008054600160a060020a031663bc65792782604051602001526040517c010000000000000000000000000000000000000000000000000000000063ffffffff83160281527f546f6b656e457874656e73696f6e4761746577617900000000000000000000006004820152602401602060405180830381600087803b151561020157600080fd5b6102c65a03f1151561021257600080fd5b5050506040518051915050600160a060020a038116151561023257600080fd5b90565b80600160a060020a03166102476103ea565b600160a060020a03167fc6867e4e81e56199e17568c0d06dbd3f28cb4967dcafca727f074a945eeaf55b868686604051600160a060020a03938416815260208101929092529091166040808301919091526060909101905180910390a350505050565b80600160a060020a03166102bc6103ea565b600160a060020a03167f8a1e3d1b07283e4c133a6cc3779cd8c05688adb2efed51aa9d621b6fb95b0586868686604051600160a060020a03938416815260208101929092529091166040808301919091526060909101905180910390a350505050565b600154600160a060020a031681565b80600160a060020a03166103406103ea565b600160a060020a03167fa4ceb18b61ee798a9ace28050c416a4652c89c3d203ee542e193ed6da3d13d7c868686604051600160a060020a03938416815260208101929092529091166040808301919091526060909101905180910390a350505050565b6103ab6103ea565b600160a060020a03167f9cf38cf2dbf9139f5c32639950507b10775fbbe0421f3e168bc2d1bb1ae3208c8260405190815260200160405180910390a250565b33905600a165627a7a723058204701db8ed5dcf5acb5510576e6f3625b2616b1f281c727ca7ff0287e3ad7cb350029a165627a7a723058200cefe86d0dfdb6d6fa0bd2d2787b3f798ed80e511343b2e9f9833af41304a3a10029",
  "source": "pragma solidity ^0.4.11;\n\nimport \"./extensions/TokenExtensionRouter.sol\";\n\n/**\n* @title Token extension factory. Provides a way to create chronobank token extensions\n*/\ncontract ChronoBankTokenExtensionFactory {\n\n    /** address of ContractsManager contract interface */\n    address contractsManager;\n\n    function ChronoBankTokenExtensionFactory(address _contractsManager) {\n        contractsManager = _contractsManager;\n    }\n\n    /**\n    * @dev Creates token extension based on provided platform\n    *\n    * @param _platform platform address for which token extension will be created\n    *\n    * @return address of newly created token extension\n    */\n    function createTokenExtension(address _platform) public returns (address) {\n        address tokenExtension = new TokenExtensionRouter(contractsManager, _platform);\n        return tokenExtension;\n    }\n}\n",
  "sourcePath": "/Users/alesanro/Documents/Projects/ChronoBank/SmartContracts/contracts/assets/ChronoBankTokenExtensionFactory.sol",
  "compiler": {
    "name": "solc",
    "version": "0.4.19+commit.c4cbbb05.Emscripten.clang"
  },
  "schemaVersion": "2.0.0",
  "updatedAt": "2018-04-02T15:09:02.298Z"
}