{
  "contractName": "ChronoBankWalletFallbackSupporter",
  "abi": [
    {
      "constant": false,
      "inputs": [],
      "name": "claimContractOwnership",
      "outputs": [
        {
          "name": "",
          "type": "bool"
        }
      ],
      "payable": false,
      "stateMutability": "nonpayable",
      "type": "function"
    },
    {
      "constant": true,
      "inputs": [
        {
          "name": "_identifier",
          "type": "bytes32"
        }
      ],
      "name": "lookupManager",
      "outputs": [
        {
          "name": "manager",
          "type": "address"
        }
      ],
      "payable": false,
      "stateMutability": "view",
      "type": "function"
    },
    {
      "constant": true,
      "inputs": [],
      "name": "contractsManager",
      "outputs": [
        {
          "name": "",
          "type": "address"
        }
      ],
      "payable": false,
      "stateMutability": "view",
      "type": "function"
    },
    {
      "constant": false,
      "inputs": [
        {
          "name": "_to",
          "type": "address"
        }
      ],
      "name": "changeContractOwnership",
      "outputs": [
        {
          "name": "",
          "type": "bool"
        }
      ],
      "payable": false,
      "stateMutability": "nonpayable",
      "type": "function"
    },
    {
      "constant": true,
      "inputs": [],
      "name": "pendingContractOwner",
      "outputs": [
        {
          "name": "",
          "type": "address"
        }
      ],
      "payable": false,
      "stateMutability": "view",
      "type": "function"
    },
    {
      "constant": false,
      "inputs": [
        {
          "name": "_contractsManager",
          "type": "address"
        }
      ],
      "name": "setContractsManager",
      "outputs": [],
      "payable": false,
      "stateMutability": "nonpayable",
      "type": "function"
    },
    {
      "constant": false,
      "inputs": [],
      "name": "destroy",
      "outputs": [],
      "payable": false,
      "stateMutability": "nonpayable",
      "type": "function"
    },
    {
      "constant": false,
      "inputs": [
        {
          "name": "_to",
          "type": "address"
        }
      ],
      "name": "transferContractOwnership",
      "outputs": [
        {
          "name": "",
          "type": "bool"
        }
      ],
      "payable": false,
      "stateMutability": "nonpayable",
      "type": "function"
    },
    {
      "constant": true,
      "inputs": [],
      "name": "contractOwner",
      "outputs": [
        {
          "name": "",
          "type": "address"
        }
      ],
      "payable": false,
      "stateMutability": "view",
      "type": "function"
    },
    {
      "constant": false,
      "inputs": [
        {
          "name": "tokens",
          "type": "address[]"
        },
        {
          "name": "_to",
          "type": "address"
        }
      ],
      "name": "withdrawnTokens",
      "outputs": [
        {
          "name": "",
          "type": "uint256"
        }
      ],
      "payable": false,
      "stateMutability": "nonpayable",
      "type": "function"
    },
    {
      "constant": true,
      "inputs": [
        {
          "name": "key",
          "type": "address"
        }
      ],
      "name": "isAuthorized",
      "outputs": [
        {
          "name": "",
          "type": "bool"
        }
      ],
      "payable": false,
      "stateMutability": "view",
      "type": "function"
    },
    {
      "inputs": [
        {
          "name": "_store",
          "type": "address"
        },
        {
          "name": "_crate",
          "type": "bytes32"
        }
      ],
      "payable": false,
      "stateMutability": "nonpayable",
      "type": "constructor"
    },
    {
      "constant": false,
      "inputs": [
        {
          "name": "_symbol",
          "type": "bytes32"
        }
      ],
      "name": "fallbackAsset",
      "outputs": [
        {
          "name": "",
          "type": "bool"
        }
      ],
      "payable": false,
      "stateMutability": "nonpayable",
      "type": "function"
    },
    {
      "constant": false,
      "inputs": [
        {
          "name": "_symbol",
          "type": "bytes32"
        },
        {
          "name": "_from",
          "type": "address"
        },
        {
          "name": "_data",
          "type": "bytes"
        }
      ],
      "name": "fallbackAssetInvoke",
      "outputs": [
        {
          "name": "",
          "type": "bool"
        }
      ],
      "payable": false,
      "stateMutability": "nonpayable",
      "type": "function"
    },
    {
      "constant": false,
      "inputs": [
        {
          "name": "_symbol",
          "type": "bytes32"
        },
        {
          "name": "_to",
          "type": "address"
        }
      ],
      "name": "fallbackAssetPassOwnership",
      "outputs": [
        {
          "name": "",
          "type": "bool"
        }
      ],
      "payable": false,
      "stateMutability": "nonpayable",
      "type": "function"
    }
  ],
  "bytecode": "0x6060604052341561000f57600080fd5b604051604080610b3e8339810160405280805191906020018051915082905081818161004a60008383640100000000610a3961007182021704565b505060028054600160a060020a03191633600160a060020a03161790555061009792505050565b8254600160a060020a031916600160a060020a0392909216919091178255600190910155565b610a98806100a66000396000f3006060604052600436106100b65763ffffffff60e060020a600035041663306a547d81146100bb57806344fc19cc146100e55780634592cd1d146101075780634fe590121461011a57806351ae07d91461014c57806353253d31146101b1578063557f4bc9146101c45780635aa77d3c146101e357806371d3b573146101f657806383197ef014610217578063a843c51f1461022a578063ce606ee014610249578063d8f9659b1461025c578063fe9fbb80146102c8575b600080fd5b34156100c657600080fd5b6100d16004356102e7565b604051901515815260200160405180910390f35b34156100f057600080fd5b6100d1600435600160a060020a036024351661038a565b341561011257600080fd5b6100d16104f3565b341561012557600080fd5b61013060043561054d565b604051600160a060020a03909116815260200160405180910390f35b341561015757600080fd5b6100d1600480359060248035600160a060020a0316919060649060443590810190830135806020601f820181900481020160405190810160405281815292919060208401838380828437509496506105c595505050505050565b34156101bc57600080fd5b6101306106dd565b34156101cf57600080fd5b6100d1600160a060020a03600435166106ec565b34156101ee57600080fd5b610130610750565b341561020157600080fd5b610215600160a060020a036004351661075f565b005b341561022257600080fd5b6102156107a2565b341561023557600080fd5b6100d1600160a060020a03600435166107c7565b341561025457600080fd5b61013061085a565b341561026757600080fd5b6102b6600460248135818101908301358060208181020160405190810160405280939291908181526020018383602002808284375094965050509235600160a060020a03169250610869915050565b60405190815260200160405180910390f35b34156102d357600080fd5b6100d1600160a060020a03600435166109a0565b60006103127f4173736574734d616e616765720000000000000000000000000000000000000061054d565b600160a060020a0316636bc8acf53360405160e060020a63ffffffff8416028152600160a060020a039091166004820152602401602060405180830381600087803b151561035f57600080fd5b5af1151561036c57600080fd5b50505060405180519050151561038157600080fd5b5060015b919050565b6000806103b67f4173736574734d616e616765720000000000000000000000000000000000000061054d565b600160a060020a0316636bc8acf53360405160e060020a63ffffffff8416028152600160a060020a039091166004820152602401602060405180830381600087803b151561040357600080fd5b5af1151561041057600080fd5b50505060405180519050151561042557600080fd5b33600160a060020a0316634bde38c86040518163ffffffff1660e060020a028152600401602060405180830381600087803b151561046257600080fd5b5af1151561046f57600080fd5b505050604051805190509050600181600160a060020a031663fd83915e868660405160e060020a63ffffffff85160281526004810192909252600160a060020a03166024820152604401602060405180830381600087803b15156104d257600080fd5b5af115156104df57600080fd5b505050604051805190501491505092915050565b60035460009033600160a060020a039081169116146105145750600061054a565b50600380546002805473ffffffffffffffffffffffffffffffffffffffff19908116600160a060020a0384161790915516905560015b90565b600454600090600160a060020a031663bc6579278360405160e060020a63ffffffff84160281526004810191909152602401602060405180830381600087803b151561059857600080fd5b5af115156105a557600080fd5b5050506040518051915050600160a060020a038116151561038557600080fd5b60006105f07f4173736574734d616e616765720000000000000000000000000000000000000061054d565b600160a060020a0316636bc8acf53360405160e060020a63ffffffff8416028152600160a060020a039091166004820152602401602060405180830381600087803b151561063d57600080fd5b5af1151561064a57600080fd5b50505060405180519050151561065f57600080fd5b82600160a060020a03168260405180828051906020019080838360005b8381101561069457808201518382015260200161067c565b50505050905090810190601f1680156106c15780820380516001836020036101000a031916815260200191505b509150506000604051808303816000865af19695505050505050565b600454600160a060020a031681565b60025460009033600160a060020a039081169116141561038557600160a060020a038216151561071e57506000610385565b5060038054600160a060020a03831673ffffffffffffffffffffffffffffffffffffffff199091161790556001919050565b600354600160a060020a031681565b60025433600160a060020a039081169116141561079f576004805473ffffffffffffffffffffffffffffffffffffffff1916600160a060020a0383161790555b50565b60025433600160a060020a03908116911614156107c55733600160a060020a0316ff5b565b60025460009033600160a060020a039081169116141561038557600160a060020a03821615156107f957506000610385565b600354600160a060020a031615610828576003805473ffffffffffffffffffffffffffffffffffffffff191690555b5060028054600160a060020a03831673ffffffffffffffffffffffffffffffffffffffff199091161790556001919050565b600254600160a060020a031681565b60025460009081908190819033600160a060020a039081169116141561099757600092505b8551831015610992578583815181106108a357fe5b90602001906020020151915081600160a060020a03166370a082313060405160e060020a63ffffffff8416028152600160a060020a039091166004820152602401602060405180830381600087803b15156108fd57600080fd5b5af1151561090a57600080fd5b505050604051805191505080156109875781600160a060020a031663a9059cbb868360405160e060020a63ffffffff8516028152600160a060020a0390921660048301526024820152604401602060405180830381600087803b151561096f57600080fd5b5af1151561097c57600080fd5b505050604051805150505b60019092019161088e565b600193505b50505092915050565b6000806109cc7f557365724d616e6167657200000000000000000000000000000000000000000061054d565b905080600160a060020a0316632aa09e5a8460405160e060020a63ffffffff8416028152600160a060020a039091166004820152602401602060405180830381600087803b1515610a1c57600080fd5b5af11515610a2957600080fd5b5050506040518051949350505050565b825473ffffffffffffffffffffffffffffffffffffffff1916600160a060020a03929092169190911782556001909101555600a165627a7a72305820991bccd017fdfe9dbcc89d1101bc2329c796aa63035fd0a63cb3a035c79178280029",
  "source": "pragma solidity ^0.4.11;\n\nimport \"./TokenExtensionFallbackInterface.sol\";\nimport \"../core/common/Managed.sol\";\nimport \"../core/platform/ChronoBankPlatformInterface.sol\";\nimport \"../assets/AssetsManagerInterface.sol\";\nimport \"../assets/TokenManagementInterface.sol\";\n\n/**\n* @title This contract is currently deprecated and should not be used througout the system.\n* Initial idea that stands behind its creation was supporting old implementation of\n* ChronoBankPlatform to be compatible with token extensions and assets manager. But since\n* this implementation is currently used only for hosting TIME tokens and all new tokens\n* will be created on another version of platform contract, so it is obvious not to use\n* it anymore\n*\n* DEPRECATED.\n*/\ncontract ChronoBankWalletFallbackSupporter is Managed, TokenExtensionFallbackInterface {\n\n    /**\n    * @dev Guards methods for calling only by one of platform token extensions.\n    */\n    modifier onlyTokenExtension() {\n        if (!TokenExtensionRegistry(lookupManager(\"AssetsManager\")).containsTokenExtension(msg.sender)) {\n            revert();\n        }\n        _;\n    }\n\n    function ChronoBankWalletFallbackSupporter(Storage _store, bytes32 _crate) Managed(_store, _crate) {\n    }\n\n    /**\n    * @dev Designed to check if a wallet supports fallback interface. Should be simple and return `true` or `false`\n    * depending on wether a contract wants to support this interface or not.\n    *\n    * @param _symbol asset's symbol\n    *\n    * @return `true` if a contract (wallet) supports fallback interface, `false` otherwise\n    */\n    function fallbackAsset(bytes32 _symbol) public onlyTokenExtension returns (bool)  {\n        return true;\n    }\n\n    /**\n    * @dev Defines main operation that will be performed throughout fallback interface. This method will be invoked only in case\n    * if `fallbackAsset` returns `true`. Purpose is to delegate invocation of any method that contract is allowed to call to\n    * a token extension.\n    *\n    * @param _symbol asset's symbol\n    * @param _from destination of calling. Contract that will be proposed to be called with data\n    * @param _data data passed to `call` on _from address\n    *\n    * @return `true` if call is successful, `false` otherwise\n    */\n    function fallbackAssetInvoke(bytes32 _symbol, address _from, bytes _data) public onlyTokenExtension returns (bool) {\n        return _from.call(_data);\n    }\n\n    /**\n    * @dev Helper method to provide a way to pass ownership of the platform after all operations are done to its real owner.\n    *\n    * @param _symbol asset's symbol\n    * @param _to real platform owner\n    *\n    * @return `true` if passing ownership is successful, `false` otherwise\n    */\n    function fallbackAssetPassOwnership(bytes32 _symbol, address _to) public onlyTokenExtension returns (bool) {\n        address _platform = TokenManagementInterface(msg.sender).platform();\n        return ChronoBankPlatformInterface(_platform).changeOwnership(_symbol, _to) == OK;\n    }\n}\n",
  "sourcePath": "/Users/alesanro/Documents/Projects/ChronoBank/SmartContracts/contracts/assets/ChronoBankWalletFallbackSupporter.sol",
  "compiler": {
    "name": "solc",
    "version": "0.4.21+commit.dfe3193c.Emscripten.clang"
  },
  "schemaVersion": "2.0.0",
  "updatedAt": "2018-04-06T09:20:58.189Z"
}