{
  "contractName": "ChronoBankPlatformTestable",
  "abi": [
    {
      "constant": true,
      "inputs": [
        {
          "name": "_symbol",
          "type": "bytes32"
        }
      ],
      "name": "owner",
      "outputs": [
        {
          "name": "",
          "type": "address"
        }
      ],
      "payable": false,
      "stateMutability": "view",
      "type": "function"
    },
    {
      "constant": false,
      "inputs": [
        {
          "name": "_eventsHistory",
          "type": "address"
        }
      ],
      "name": "setupEventsHistory",
      "outputs": [
        {
          "name": "errorCode",
          "type": "uint256"
        }
      ],
      "payable": false,
      "stateMutability": "nonpayable",
      "type": "function"
    },
    {
      "constant": false,
      "inputs": [
        {
          "name": "_symbol",
          "type": "bytes32"
        },
        {
          "name": "_partowner",
          "type": "address"
        }
      ],
      "name": "addAssetPartOwner",
      "outputs": [
        {
          "name": "",
          "type": "uint256"
        }
      ],
      "payable": false,
      "stateMutability": "nonpayable",
      "type": "function"
    },
    {
      "constant": false,
      "inputs": [
        {
          "name": "_symbol",
          "type": "bytes32"
        },
        {
          "name": "_value",
          "type": "uint256"
        },
        {
          "name": "_name",
          "type": "string"
        },
        {
          "name": "_description",
          "type": "string"
        },
        {
          "name": "_baseUnit",
          "type": "uint8"
        },
        {
          "name": "_isReissuable",
          "type": "bool"
        }
      ],
      "name": "issueAsset",
      "outputs": [
        {
          "name": "",
          "type": "uint256"
        }
      ],
      "payable": false,
      "stateMutability": "nonpayable",
      "type": "function"
    },
    {
      "constant": true,
      "inputs": [
        {
          "name": "_holder",
          "type": "address"
        }
      ],
      "name": "getHolderId",
      "outputs": [
        {
          "name": "",
          "type": "uint256"
        }
      ],
      "payable": false,
      "stateMutability": "view",
      "type": "function"
    },
    {
      "constant": false,
      "inputs": [
        {
          "name": "_partowner",
          "type": "address"
        }
      ],
      "name": "removePartOwner",
      "outputs": [
        {
          "name": "",
          "type": "uint256"
        }
      ],
      "payable": false,
      "stateMutability": "nonpayable",
      "type": "function"
    },
    {
      "constant": false,
      "inputs": [
        {
          "name": "_spender",
          "type": "address"
        },
        {
          "name": "_value",
          "type": "uint256"
        },
        {
          "name": "_symbol",
          "type": "bytes32"
        },
        {
          "name": "_sender",
          "type": "address"
        }
      ],
      "name": "proxyApprove",
      "outputs": [
        {
          "name": "",
          "type": "uint256"
        }
      ],
      "payable": false,
      "stateMutability": "nonpayable",
      "type": "function"
    },
    {
      "constant": false,
      "inputs": [
        {
          "name": "_from",
          "type": "address"
        },
        {
          "name": "_to",
          "type": "address"
        },
        {
          "name": "_value",
          "type": "uint256"
        },
        {
          "name": "_symbol",
          "type": "bytes32"
        },
        {
          "name": "_reference",
          "type": "string"
        },
        {
          "name": "_sender",
          "type": "address"
        }
      ],
      "name": "proxyTransferFromWithReference",
      "outputs": [
        {
          "name": "",
          "type": "uint256"
        }
      ],
      "payable": false,
      "stateMutability": "nonpayable",
      "type": "function"
    },
    {
      "constant": true,
      "inputs": [
        {
          "name": "_from",
          "type": "address"
        },
        {
          "name": "_spender",
          "type": "address"
        },
        {
          "name": "_symbol",
          "type": "bytes32"
        }
      ],
      "name": "allowance",
      "outputs": [
        {
          "name": "",
          "type": "uint256"
        }
      ],
      "payable": false,
      "stateMutability": "view",
      "type": "function"
    },
    {
      "constant": true,
      "inputs": [
        {
          "name": "",
          "type": "uint256"
        }
      ],
      "name": "holders",
      "outputs": [
        {
          "name": "addr",
          "type": "address"
        }
      ],
      "payable": false,
      "stateMutability": "view",
      "type": "function"
    },
    {
      "constant": true,
      "inputs": [
        {
          "name": "_symbol",
          "type": "bytes32"
        }
      ],
      "name": "isCreated",
      "outputs": [
        {
          "name": "",
          "type": "bool"
        }
      ],
      "payable": false,
      "stateMutability": "view",
      "type": "function"
    },
    {
      "constant": false,
      "inputs": [],
      "name": "claimContractOwnership",
      "outputs": [
        {
          "name": "",
          "type": "bool"
        }
      ],
      "payable": false,
      "stateMutability": "nonpayable",
      "type": "function"
    },
    {
      "constant": false,
      "inputs": [
        {
          "name": "_to",
          "type": "address"
        }
      ],
      "name": "trust",
      "outputs": [
        {
          "name": "",
          "type": "uint256"
        }
      ],
      "payable": false,
      "stateMutability": "nonpayable",
      "type": "function"
    },
    {
      "constant": true,
      "inputs": [
        {
          "name": "_holder",
          "type": "address"
        },
        {
          "name": "_symbol",
          "type": "bytes32"
        }
      ],
      "name": "balanceOf",
      "outputs": [
        {
          "name": "",
          "type": "uint256"
        }
      ],
      "payable": false,
      "stateMutability": "view",
      "type": "function"
    },
    {
      "constant": false,
      "inputs": [
        {
          "name": "_from",
          "type": "address"
        },
        {
          "name": "_to",
          "type": "address"
        },
        {
          "name": "_symbol",
          "type": "bytes32"
        },
        {
          "name": "_value",
          "type": "uint256"
        },
        {
          "name": "_reference",
          "type": "string"
        }
      ],
      "name": "emitTransfer",
      "outputs": [],
      "payable": false,
      "stateMutability": "nonpayable",
      "type": "function"
    },
    {
      "constant": false,
      "inputs": [
        {
          "name": "_to",
          "type": "address"
        }
      ],
      "name": "changeContractOwnership",
      "outputs": [
        {
          "name": "",
          "type": "bool"
        }
      ],
      "payable": false,
      "stateMutability": "nonpayable",
      "type": "function"
    },
    {
      "constant": false,
      "inputs": [
        {
          "name": "_to",
          "type": "address"
        },
        {
          "name": "_value",
          "type": "uint256"
        },
        {
          "name": "_symbol",
          "type": "bytes32"
        },
        {
          "name": "_reference",
          "type": "string"
        },
        {
          "name": "_sender",
          "type": "address"
        }
      ],
      "name": "proxyTransferWithReference",
      "outputs": [
        {
          "name": "",
          "type": "uint256"
        }
      ],
      "payable": false,
      "stateMutability": "nonpayable",
      "type": "function"
    },
    {
      "constant": true,
      "inputs": [],
      "name": "pendingContractOwner",
      "outputs": [
        {
          "name": "",
          "type": "address"
        }
      ],
      "payable": false,
      "stateMutability": "view",
      "type": "function"
    },
    {
      "constant": true,
      "inputs": [
        {
          "name": "_holderId",
          "type": "uint256"
        },
        {
          "name": "_symbol",
          "type": "bytes32"
        }
      ],
      "name": "_balanceOf",
      "outputs": [
        {
          "name": "",
          "type": "uint256"
        }
      ],
      "payable": false,
      "stateMutability": "view",
      "type": "function"
    },
    {
      "constant": false,
      "inputs": [
        {
          "name": "_proxyAddress",
          "type": "address"
        },
        {
          "name": "_symbol",
          "type": "bytes32"
        }
      ],
      "name": "setProxy",
      "outputs": [
        {
          "name": "",
          "type": "uint256"
        }
      ],
      "payable": false,
      "stateMutability": "nonpayable",
      "type": "function"
    },
    {
      "constant": false,
      "inputs": [
        {
          "name": "_from",
          "type": "address"
        },
        {
          "name": "_to",
          "type": "address"
        }
      ],
      "name": "recover",
      "outputs": [
        {
          "name": "errorCode",
          "type": "uint256"
        }
      ],
      "payable": false,
      "stateMutability": "nonpayable",
      "type": "function"
    },
    {
      "constant": true,
      "inputs": [
        {
          "name": "_from",
          "type": "address"
        },
        {
          "name": "_to",
          "type": "address"
        }
      ],
      "name": "isTrusted",
      "outputs": [
        {
          "name": "",
          "type": "bool"
        }
      ],
      "payable": false,
      "stateMutability": "view",
      "type": "function"
    },
    {
      "constant": true,
      "inputs": [
        {
          "name": "_holderId",
          "type": "uint256"
        }
      ],
      "name": "_address",
      "outputs": [
        {
          "name": "",
          "type": "address"
        }
      ],
      "payable": false,
      "stateMutability": "view",
      "type": "function"
    },
    {
      "constant": true,
      "inputs": [
        {
          "name": "_symbol",
          "type": "bytes32"
        }
      ],
      "name": "name",
      "outputs": [
        {
          "name": "",
          "type": "string"
        }
      ],
      "payable": false,
      "stateMutability": "view",
      "type": "function"
    },
    {
      "constant": true,
      "inputs": [
        {
          "name": "",
          "type": "bytes32"
        }
      ],
      "name": "proxies",
      "outputs": [
        {
          "name": "",
          "type": "address"
        }
      ],
      "payable": false,
      "stateMutability": "view",
      "type": "function"
    },
    {
      "constant": true,
      "inputs": [],
      "name": "holdersCount",
      "outputs": [
        {
          "name": "",
          "type": "uint256"
        }
      ],
      "payable": false,
      "stateMutability": "view",
      "type": "function"
    },
    {
      "constant": false,
      "inputs": [],
      "name": "destroy",
      "outputs": [],
      "payable": false,
      "stateMutability": "nonpayable",
      "type": "function"
    },
    {
      "constant": true,
      "inputs": [
        {
          "name": "",
          "type": "bytes32"
        }
      ],
      "name": "assets",
      "outputs": [
        {
          "name": "owner",
          "type": "uint256"
        },
        {
          "name": "totalSupply",
          "type": "uint256"
        },
        {
          "name": "name",
          "type": "string"
        },
        {
          "name": "description",
          "type": "string"
        },
        {
          "name": "isReissuable",
          "type": "bool"
        },
        {
          "name": "baseUnit",
          "type": "uint8"
        }
      ],
      "payable": false,
      "stateMutability": "view",
      "type": "function"
    },
    {
      "constant": false,
      "inputs": [
        {
          "name": "_symbol",
          "type": "bytes32"
        },
        {
          "name": "_value",
          "type": "uint256"
        },
        {
          "name": "_name",
          "type": "string"
        },
        {
          "name": "_description",
          "type": "string"
        },
        {
          "name": "_baseUnit",
          "type": "uint8"
        },
        {
          "name": "_isReissuable",
          "type": "bool"
        },
        {
          "name": "_account",
          "type": "address"
        }
      ],
      "name": "issueAsset",
      "outputs": [
        {
          "name": "",
          "type": "uint256"
        }
      ],
      "payable": false,
      "stateMutability": "nonpayable",
      "type": "function"
    },
    {
      "constant": false,
      "inputs": [
        {
          "name": "_partowner",
          "type": "address"
        }
      ],
      "name": "addPartOwner",
      "outputs": [
        {
          "name": "",
          "type": "uint256"
        }
      ],
      "payable": false,
      "stateMutability": "nonpayable",
      "type": "function"
    },
    {
      "constant": false,
      "inputs": [
        {
          "name": "_to",
          "type": "address"
        }
      ],
      "name": "transferContractOwnership",
      "outputs": [
        {
          "name": "",
          "type": "bool"
        }
      ],
      "payable": false,
      "stateMutability": "nonpayable",
      "type": "function"
    },
    {
      "constant": false,
      "inputs": [
        {
          "name": "_from",
          "type": "address"
        },
        {
          "name": "_to",
          "type": "address"
        },
        {
          "name": "_symbol",
          "type": "bytes32"
        }
      ],
      "name": "emitOwnershipChange",
      "outputs": [],
      "payable": false,
      "stateMutability": "nonpayable",
      "type": "function"
    },
    {
      "constant": false,
      "inputs": [
        {
          "name": "_symbol",
          "type": "bytes32"
        },
        {
          "name": "_value",
          "type": "uint256"
        },
        {
          "name": "_by",
          "type": "address"
        }
      ],
      "name": "emitIssue",
      "outputs": [],
      "payable": false,
      "stateMutability": "nonpayable",
      "type": "function"
    },
    {
      "constant": true,
      "inputs": [
        {
          "name": "_symbol",
          "type": "bytes32"
        }
      ],
      "name": "totalSupply",
      "outputs": [
        {
          "name": "",
          "type": "uint256"
        }
      ],
      "payable": false,
      "stateMutability": "view",
      "type": "function"
    },
    {
      "constant": true,
      "inputs": [
        {
          "name": "_symbol",
          "type": "bytes32"
        }
      ],
      "name": "description",
      "outputs": [
        {
          "name": "",
          "type": "string"
        }
      ],
      "payable": false,
      "stateMutability": "view",
      "type": "function"
    },
    {
      "constant": true,
      "inputs": [
        {
          "name": "_symbol",
          "type": "bytes32"
        }
      ],
      "name": "isReissuable",
      "outputs": [
        {
          "name": "",
          "type": "bool"
        }
      ],
      "payable": false,
      "stateMutability": "view",
      "type": "function"
    },
    {
      "constant": false,
      "inputs": [
        {
          "name": "_symbol",
          "type": "bytes32"
        },
        {
          "name": "_value",
          "type": "uint256"
        },
        {
          "name": "_by",
          "type": "address"
        }
      ],
      "name": "emitRevoke",
      "outputs": [],
      "payable": false,
      "stateMutability": "nonpayable",
      "type": "function"
    },
    {
      "constant": false,
      "inputs": [
        {
          "name": "_symbol",
          "type": "bytes32"
        },
        {
          "name": "_value",
          "type": "uint256"
        }
      ],
      "name": "revokeAsset",
      "outputs": [
        {
          "name": "",
          "type": "uint256"
        }
      ],
      "payable": false,
      "stateMutability": "nonpayable",
      "type": "function"
    },
    {
      "constant": true,
      "inputs": [
        {
          "name": "",
          "type": "address"
        }
      ],
      "name": "partowners",
      "outputs": [
        {
          "name": "",
          "type": "bool"
        }
      ],
      "payable": false,
      "stateMutability": "view",
      "type": "function"
    },
    {
      "constant": true,
      "inputs": [
        {
          "name": "_owner",
          "type": "address"
        },
        {
          "name": "_symbol",
          "type": "bytes32"
        }
      ],
      "name": "hasAssetRights",
      "outputs": [
        {
          "name": "",
          "type": "bool"
        }
      ],
      "payable": false,
      "stateMutability": "view",
      "type": "function"
    },
    {
      "constant": true,
      "inputs": [
        {
          "name": "",
          "type": "uint256"
        }
      ],
      "name": "symbols",
      "outputs": [
        {
          "name": "",
          "type": "bytes32"
        }
      ],
      "payable": false,
      "stateMutability": "view",
      "type": "function"
    },
    {
      "constant": false,
      "inputs": [
        {
          "name": "addresses",
          "type": "address[]"
        },
        {
          "name": "values",
          "type": "uint256[]"
        },
        {
          "name": "_symbol",
          "type": "bytes32"
        }
      ],
      "name": "massTransfer",
      "outputs": [
        {
          "name": "errorCode",
          "type": "uint256"
        },
        {
          "name": "count",
          "type": "uint256"
        }
      ],
      "payable": false,
      "stateMutability": "nonpayable",
      "type": "function"
    },
    {
      "constant": true,
      "inputs": [],
      "name": "contractOwner",
      "outputs": [
        {
          "name": "",
          "type": "address"
        }
      ],
      "payable": false,
      "stateMutability": "view",
      "type": "function"
    },
    {
      "constant": false,
      "inputs": [
        {
          "name": "_from",
          "type": "address"
        },
        {
          "name": "_spender",
          "type": "address"
        },
        {
          "name": "_symbol",
          "type": "bytes32"
        },
        {
          "name": "_value",
          "type": "uint256"
        }
      ],
      "name": "emitApprove",
      "outputs": [],
      "payable": false,
      "stateMutability": "nonpayable",
      "type": "function"
    },
    {
      "constant": false,
      "inputs": [
        {
          "name": "tokens",
          "type": "address[]"
        },
        {
          "name": "_to",
          "type": "address"
        }
      ],
      "name": "withdrawnTokens",
      "outputs": [
        {
          "name": "",
          "type": "uint256"
        }
      ],
      "payable": false,
      "stateMutability": "nonpayable",
      "type": "function"
    },
    {
      "constant": true,
      "inputs": [
        {
          "name": "_symbol",
          "type": "bytes32"
        }
      ],
      "name": "baseUnit",
      "outputs": [
        {
          "name": "",
          "type": "uint8"
        }
      ],
      "payable": false,
      "stateMutability": "view",
      "type": "function"
    },
    {
      "constant": false,
      "inputs": [
        {
          "name": "_errorCode",
          "type": "uint256"
        }
      ],
      "name": "emitError",
      "outputs": [],
      "payable": false,
      "stateMutability": "nonpayable",
      "type": "function"
    },
    {
      "constant": false,
      "inputs": [
        {
          "name": "_symbol",
          "type": "bytes32"
        },
        {
          "name": "_value",
          "type": "uint256"
        }
      ],
      "name": "reissueAsset",
      "outputs": [
        {
          "name": "",
          "type": "uint256"
        }
      ],
      "payable": false,
      "stateMutability": "nonpayable",
      "type": "function"
    },
    {
      "constant": true,
      "inputs": [
        {
          "name": "_owner",
          "type": "address"
        },
        {
          "name": "_symbol",
          "type": "bytes32"
        }
      ],
      "name": "isOwner",
      "outputs": [
        {
          "name": "",
          "type": "bool"
        }
      ],
      "payable": false,
      "stateMutability": "view",
      "type": "function"
    },
    {
      "constant": false,
      "inputs": [
        {
          "name": "_from",
          "type": "address"
        },
        {
          "name": "_to",
          "type": "address"
        },
        {
          "name": "_by",
          "type": "address"
        }
      ],
      "name": "emitRecovery",
      "outputs": [],
      "payable": false,
      "stateMutability": "nonpayable",
      "type": "function"
    },
    {
      "constant": false,
      "inputs": [
        {
          "name": "_symbol",
          "type": "bytes32"
        },
        {
          "name": "_partowner",
          "type": "address"
        }
      ],
      "name": "removeAssetPartOwner",
      "outputs": [
        {
          "name": "",
          "type": "uint256"
        }
      ],
      "payable": false,
      "stateMutability": "nonpayable",
      "type": "function"
    },
    {
      "constant": true,
      "inputs": [],
      "name": "symbolsCount",
      "outputs": [
        {
          "name": "",
          "type": "uint256"
        }
      ],
      "payable": false,
      "stateMutability": "view",
      "type": "function"
    },
    {
      "constant": true,
      "inputs": [],
      "name": "eventsHistory",
      "outputs": [
        {
          "name": "",
          "type": "address"
        }
      ],
      "payable": false,
      "stateMutability": "view",
      "type": "function"
    },
    {
      "constant": false,
      "inputs": [
        {
          "name": "_to",
          "type": "address"
        }
      ],
      "name": "distrust",
      "outputs": [
        {
          "name": "",
          "type": "uint256"
        }
      ],
      "payable": false,
      "stateMutability": "nonpayable",
      "type": "function"
    },
    {
      "constant": false,
      "inputs": [
        {
          "name": "_symbol",
          "type": "bytes32"
        },
        {
          "name": "_newOwner",
          "type": "address"
        }
      ],
      "name": "changeOwnership",
      "outputs": [
        {
          "name": "",
          "type": "uint256"
        }
      ],
      "payable": false,
      "stateMutability": "nonpayable",
      "type": "function"
    },
    {
      "anonymous": false,
      "inputs": [
        {
          "indexed": true,
          "name": "from",
          "type": "address"
        },
        {
          "indexed": true,
          "name": "to",
          "type": "address"
        },
        {
          "indexed": true,
          "name": "symbol",
          "type": "bytes32"
        },
        {
          "indexed": false,
          "name": "value",
          "type": "uint256"
        },
        {
          "indexed": false,
          "name": "reference",
          "type": "string"
        }
      ],
      "name": "Transfer",
      "type": "event"
    },
    {
      "anonymous": false,
      "inputs": [
        {
          "indexed": true,
          "name": "symbol",
          "type": "bytes32"
        },
        {
          "indexed": false,
          "name": "value",
          "type": "uint256"
        },
        {
          "indexed": true,
          "name": "by",
          "type": "address"
        }
      ],
      "name": "Issue",
      "type": "event"
    },
    {
      "anonymous": false,
      "inputs": [
        {
          "indexed": true,
          "name": "symbol",
          "type": "bytes32"
        },
        {
          "indexed": false,
          "name": "value",
          "type": "uint256"
        },
        {
          "indexed": true,
          "name": "by",
          "type": "address"
        }
      ],
      "name": "Revoke",
      "type": "event"
    },
    {
      "anonymous": false,
      "inputs": [
        {
          "indexed": true,
          "name": "from",
          "type": "address"
        },
        {
          "indexed": true,
          "name": "to",
          "type": "address"
        },
        {
          "indexed": true,
          "name": "symbol",
          "type": "bytes32"
        }
      ],
      "name": "OwnershipChange",
      "type": "event"
    },
    {
      "anonymous": false,
      "inputs": [
        {
          "indexed": true,
          "name": "from",
          "type": "address"
        },
        {
          "indexed": true,
          "name": "spender",
          "type": "address"
        },
        {
          "indexed": true,
          "name": "symbol",
          "type": "bytes32"
        },
        {
          "indexed": false,
          "name": "value",
          "type": "uint256"
        }
      ],
      "name": "Approve",
      "type": "event"
    },
    {
      "anonymous": false,
      "inputs": [
        {
          "indexed": true,
          "name": "from",
          "type": "address"
        },
        {
          "indexed": true,
          "name": "to",
          "type": "address"
        },
        {
          "indexed": false,
          "name": "by",
          "type": "address"
        }
      ],
      "name": "Recovery",
      "type": "event"
    },
    {
      "anonymous": false,
      "inputs": [
        {
          "indexed": false,
          "name": "errorCode",
          "type": "uint256"
        }
      ],
      "name": "Error",
      "type": "event"
    },
    {
      "constant": false,
      "inputs": [
        {
          "name": "_to",
          "type": "address"
        },
        {
          "name": "_value",
          "type": "uint256"
        },
        {
          "name": "_symbol",
          "type": "bytes32"
        }
      ],
      "name": "transfer",
      "outputs": [
        {
          "name": "",
          "type": "bool"
        }
      ],
      "payable": false,
      "stateMutability": "nonpayable",
      "type": "function"
    },
    {
      "constant": false,
      "inputs": [
        {
          "name": "_to",
          "type": "address"
        },
        {
          "name": "_value",
          "type": "uint256"
        },
        {
          "name": "_symbol",
          "type": "bytes32"
        },
        {
          "name": "_reference",
          "type": "string"
        }
      ],
      "name": "transferWithReference",
      "outputs": [
        {
          "name": "",
          "type": "bool"
        }
      ],
      "payable": false,
      "stateMutability": "nonpayable",
      "type": "function"
    },
    {
      "constant": false,
      "inputs": [
        {
          "name": "_spender",
          "type": "address"
        },
        {
          "name": "_value",
          "type": "uint256"
        },
        {
          "name": "_symbol",
          "type": "bytes32"
        }
      ],
      "name": "approve",
      "outputs": [
        {
          "name": "",
          "type": "bool"
        }
      ],
      "payable": false,
      "stateMutability": "nonpayable",
      "type": "function"
    },
    {
      "constant": false,
      "inputs": [
        {
          "name": "_from",
          "type": "address"
        },
        {
          "name": "_to",
          "type": "address"
        },
        {
          "name": "_value",
          "type": "uint256"
        },
        {
          "name": "_symbol",
          "type": "bytes32"
        }
      ],
      "name": "transferFrom",
      "outputs": [
        {
          "name": "",
          "type": "bool"
        }
      ],
      "payable": false,
      "stateMutability": "nonpayable",
      "type": "function"
    },
    {
      "constant": false,
      "inputs": [
        {
          "name": "_from",
          "type": "address"
        },
        {
          "name": "_to",
          "type": "address"
        },
        {
          "name": "_value",
          "type": "uint256"
        },
        {
          "name": "_symbol",
          "type": "bytes32"
        },
        {
          "name": "_reference",
          "type": "string"
        }
      ],
      "name": "transferFromWithReference",
      "outputs": [
        {
          "name": "",
          "type": "bool"
        }
      ],
      "payable": false,
      "stateMutability": "nonpayable",
      "type": "function"
    }
  ],
  "bytecode": "0x606060405260008054600160a060020a033316600160a060020a0319909116179055612e25806100306000396000f3006060604052600436106102b05763ffffffff60e060020a60003504166302571be381146102b557806302927d20146102e7578063048ae1bb14610318578063085a47051461033a5780630af3e660146103e45780631286e3931461040357806314712e2f14610422578063161ff6621461044f5780631c8d5d38146104cb5780632a11ced0146104f35780632f553d311461050957806331c6c4cf14610533578063401e3367146105a45780634592cd1d146105cf5780634637d827146105e25780634d30b6be14610601578063515c145714610623578063557f4bc91461069657806357a96dd0146106b557806357cfeeee146107285780635aa77d3c1461074d5780635b7da33814610760578063638a9ce914610779578063648bf7741461079b5780636713e230146107c05780636825c843146107e5578063691f3431146107fb5780636932af36146108885780636b4ed21b1461089e5780636e293817146108b15780638180f2fc1461091957806383197ef01461093e5780639fda5b6614610951578063a3ff0ea214610a6a578063a831751d14610b23578063a843c51f14610b42578063a9612f7214610b61578063abafaa1614610b89578063b524abcf14610bae578063bebcc04514610bc4578063c4eeeeb914610bda578063c70bbc1314610bf0578063ca448a8814610c15578063cb59646614610c2e578063ccc11f1114610c4d578063ccce413b14610c6f578063cdeb148514610c85578063ce606ee014610cca578063d54c8c8714610cdd578063d8f9659b14610d08578063dc86e6f014610d62578063df26ca0814610d8e578063e0873c0614610da4578063e96b462a14610dbd578063ea14457e14610ddf578063ec77809f14610e0a578063ecac7f4b14610e2c578063f07629f814610e3f578063f0c06aa514610e52578063fd83915e14610e71575b600080fd5b34156102c057600080fd5b6102cb600435610e93565b604051600160a060020a03909116815260200160405180910390f35b34156102f257600080fd5b610306600160a060020a0360043516610ebe565b60405190815260200160405180910390f35b341561032357600080fd5b610306600435600160a060020a0360243516610efb565b341561034557600080fd5b610306600480359060248035919060649060443590810190830135806020601f8201819004810201604051908101604052818152929190602084018383808284378201915050505050509190803590602001908201803590602001908080601f0160208091040260200160405190810160405281815292919060208401838380828437509496505060ff853516946020013515159350610fc592505050565b34156103ef57600080fd5b610306600160a060020a0360043516610fe3565b341561040e57600080fd5b610306600160a060020a0360043516610ffe565b341561042d57600080fd5b610306600160a060020a0360043581169060243590604435906064351661103b565b341561045a57600080fd5b610306600160a060020a0360048035821691602480359091169160443591606435919060a49060843590810190830135806020601f8201819004810201604051908101604052818152929190602084018383808284375094965050509235600160a060020a03169250611088915050565b34156104d657600080fd5b610306600160a060020a03600435811690602435166044356110e1565b34156104fe57600080fd5b6102cb600435611106565b341561051457600080fd5b61051f600435611121565b604051901515815260200160405180910390f35b341561053e57600080fd5b61051f600160a060020a0360048035821691602480359091169160443591606435919060a49060843590810190830135806020601f8201819004810201604051908101604052818152929190602084018383808284375094965061113595505050505050565b34156105af57600080fd5b61051f600160a060020a0360043581169060243516604435606435611165565b34156105da57600080fd5b61051f61118b565b34156105ed57600080fd5b610306600160a060020a03600435166111d6565b341561060c57600080fd5b610306600160a060020a036004351660243561125b565b341561062e57600080fd5b610694600160a060020a0360048035821691602480359091169160443591606435919060a49060843590810190830135806020601f8201819004810201604051908101604052818152929190602084018383808284375094965061127895505050505050565b005b34156106a157600080fd5b61051f600160a060020a036004351661132e565b34156106c057600080fd5b61030660048035600160a060020a03169060248035916044359160849060643590810190830135806020601f8201819004810201604051908101604052818152929190602084018383808284375094965050509235600160a060020a03169250611381915050565b341561073357600080fd5b61051f600160a060020a03600435166024356044356113bf565b341561075857600080fd5b6102cb6113db565b341561076b57600080fd5b6103066004356024356113ea565b341561078457600080fd5b610306600160a060020a036004351660243561140a565b34156107a657600080fd5b610306600160a060020a036004358116906024351661149d565b34156107cb57600080fd5b61051f600160a060020a03600435811690602435166115db565b34156107f057600080fd5b6102cb60043561161f565b341561080657600080fd5b61081160043561163a565b60405160208082528190810183818151815260200191508051906020019080838360005b8381101561084d578082015183820152602001610835565b50505050905090810190601f16801561087a5780820380516001836020036101000a031916815260200191505b509250505060405180910390f35b341561089357600080fd5b6102cb600435611700565b34156108a957600080fd5b61030661171b565b34156108bc57600080fd5b61051f60048035600160a060020a03169060248035916044359160849060643590810190830135806020601f8201819004810201604051908101604052818152929190602084018383808284375094965061172195505050505050565b341561092457600080fd5b61051f600160a060020a036004351660243560443561173b565b341561094957600080fd5b61069461175f565b341561095c57600080fd5b610967600435611784565b60405186815260208101869052821515608082015260ff821660a082015260c060408201818152906060830190830187818151815260200191508051906020019080838360005b838110156109c65780820151838201526020016109ae565b50505050905090810190601f1680156109f35780820380516001836020036101000a031916815260200191505b50838103825286818151815260200191508051906020019080838360005b83811015610a29578082015183820152602001610a11565b50505050905090810190601f168015610a565780820380516001836020036101000a031916815260200191505b509850505050505050505060405180910390f35b3415610a7557600080fd5b610306600480359060248035919060649060443590810190830135806020601f8201819004810201604051908101604052818152929190602084018383808284378201915050505050509190803590602001908201803590602001908080601f0160208091040260200160405190810160405281815292919060208401838380828437509496505050833560ff169360208101351515935060400135600160a060020a031691506118f69050565b3415610b2e57600080fd5b610306600160a060020a0360043516611b34565b3415610b4d57600080fd5b61051f600160a060020a0360043516611b75565b3415610b6c57600080fd5b610694600160a060020a0360043581169060243516604435611bec565b3415610b9457600080fd5b610694600435602435600160a060020a0360443516611c2c565b3415610bb957600080fd5b610306600435611c6f565b3415610bcf57600080fd5b610811600435611c84565b3415610be557600080fd5b61051f600435611d13565b3415610bfb57600080fd5b610694600435602435600160a060020a0360443516611d2b565b3415610c2057600080fd5b610306600435602435611d6e565b3415610c3957600080fd5b61051f600160a060020a0360043516611ea7565b3415610c5857600080fd5b61051f600160a060020a0360043516602435611ebc565b3415610c7a57600080fd5b610306600435611f18565b3415610c9057600080fd5b610cb26024600480358281019290820135918135918201910135604435611f37565b60405191825260208201526040908101905180910390f35b3415610cd557600080fd5b6102cb612120565b3415610ce857600080fd5b610694600160a060020a036004358116906024351660443560643561212f565b3415610d1357600080fd5b610306600460248135818101908301358060208181020160405190810160405280939291908181526020018383602002808284375094965050509235600160a060020a03169250612177915050565b3415610d6d57600080fd5b610d786004356122aa565b60405160ff909116815260200160405180910390f35b3415610d9957600080fd5b6106946004356122c7565b3415610daf57600080fd5b6103066004356024356122fd565b3415610dc857600080fd5b61051f600160a060020a0360043516602435612444565b3415610dea57600080fd5b610694600160a060020a0360043581169060243581169060443516612477565b3415610e1557600080fd5b610306600435600160a060020a03602435166124cd565b3415610e3757600080fd5b610306612576565b3415610e4a57600080fd5b6102cb61257c565b3415610e5d57600080fd5b610306600160a060020a036004351661258b565b3415610e7c57600080fd5b610306600435600160a060020a03602435166125f1565b60008181526006602090815260408083205483526003909152902054600160a060020a03165b919050565b6000805433600160a060020a0390811691161415610eb9575060098054600160a060020a038316600160a060020a03199091161790556001919050565b60008083610f093382611ebc565b15610fbd57610f17846126ec565b60008681526006602081815260408084208585529092019052808220805460ff19166001179055600954929450600160a060020a039092169163a9612f729190879089905160e060020a63ffffffff8616028152600160a060020a0393841660048201529190921660248201526044810191909152606401600060405180830381600087803b1515610fa857600080fd5b5af11515610fb557600080fd5b505050600192505b505092915050565b6000610fd6878787878787336118f6565b90505b9695505050505050565b600160a060020a031660009081526004602052604090205490565b6000805433600160a060020a0390811691161415610eb95750600160a060020a03166000908152600860205260409020805460ff19169055600190565b600082815260076020526040812054839033600160a060020a039081169116141561107f5761107c61106c876126ec565b8686611077876126ec565b612757565b91505b50949350505050565b600083815260076020526040812054849033600160a060020a03908116911614156110d6576110d36110b989610fe3565b6110c2896126ec565b8888886110ce89610fe3565b61293c565b91505b509695505050505050565b60006110fe6110ef85610fe3565b6110f885610fe3565b84612b39565b949350505050565b600360205260009081526040902054600160a060020a031681565b600090815260066020526040902054151590565b6000600161115a61114588610fe3565b61114e886126ec565b8787876110ce33610fe3565b149695505050505050565b600061118285858585602060405190810160405260008152611135565b95945050505050565b60015460009033600160a060020a039081169116146111ac575060006111d3565b506001805460008054600160a060020a0319908116600160a060020a038416179091551681555b90565b6000806111e2336126ec565b90506111ed83610fe3565b811415611206576111ff613a99612b67565b9150611255565b61121033846115db565b15611220576111ff613aa3612b67565b6000818152600360209081526040808320600160a060020a03871684526001908101909252909120805460ff19168217905591505b50919050565b600061126f61126984610fe3565b836113ea565b90505b92915050565b82600160a060020a038086169087167f8f1b83868d2ecc962fd90cfee71c9c52455fe10940937bc7571d90ba404c5c3b858560405182815260406020820181815290820183818151815260200191508051906020019080838360005b838110156112ec5780820151838201526020016112d4565b50505050905090810190601f1680156113195780820380516001836020036101000a031916815260200191505b50935050505060405180910390a45050505050565b6000805433600160a060020a0390811691161415610eb957600160a060020a038216151561135e57506000610eb9565b5060018054600160a060020a038316600160a060020a0319909116178155919050565b600083815260076020526040812054849033600160a060020a03908116911614156113b5576113b26110b984610fe3565b91505b5095945050505050565b60006110fe848484602060405190810160405260008152611721565b600154600160a060020a031681565b600090815260066020908152604080832093835260059093019052205490565b6000805433600160a060020a03908116911614806114405750600160a060020a03331660009081526008602052604090205460ff165b1561127257600082815260076020526040902054600160a060020a03161561146b5750613a98611272565b5060008181526007602052604090208054600160a060020a038416600160a060020a0319909116179055600192915050565b60008083336114ac82826115db565b156115d2576114ba85610fe3565b156114d1576114ca613aa4612b67565b93506115d2565b600360006114de88610fe3565b81526020810191909152604001600090812054600160a060020a03169350859060039061150a89610fe3565b815260208101919091526040016000208054600160a060020a031916600160a060020a039290921691909117905561154186610fe3565b600160a060020a038087166000908152600460205260409081902092909255600954169063ea14457e908590889033905160e060020a63ffffffff8616028152600160a060020a03938416600482015291831660248301529091166044820152606401600060405180830381600087803b15156115bd57600080fd5b5af115156115ca57600080fd5b505050600193505b50505092915050565b6000600360006115ea85610fe3565b815260208082019290925260409081016000908120600160a060020a038616825260010190925290205460ff16905092915050565b600090815260036020526040902054600160a060020a031690565b611642612d26565b6006600083600019166000191681526020019081526020016000206002018054600181600116156101000203166002900480601f0160208091040260200160405190810160405280929190818152602001828054600181600116156101000203166002900480156116f45780601f106116c9576101008083540402835291602001916116f4565b820191906000526020600020905b8154815290600101906020018083116116d757829003601f168201915b50505050509050919050565b600760205260009081526040902054600160a060020a031681565b60025481565b6000600161173161114533610fe3565b1495945050505050565b6000600161175661174b866126ec565b8585611077336126ec565b14949350505050565b60005433600160a060020a03908116911614156117825733600160a060020a0316ff5b565b6006602052806000526040600020600091509050806000015490806001015490806002018054600181600116156101000203166002900480601f01602080910402602001604051908101604052809291908181526020018280546001816001161561010002031660029004801561183c5780601f106118115761010080835404028352916020019161183c565b820191906000526020600020905b81548152906001019060200180831161181f57829003601f168201915b505050505090806003018054600181600116156101000203166002900480601f0160208091040260200160405190810160405280929190818152602001828054600181600116156101000203166002900480156118da5780601f106118af576101008083540402835291602001916118da565b820191906000526020600020905b8154815290600101906020018083116118bd57829003601f168201915b5050506004909301549192505060ff8082169161010090041686565b600080548190819033600160a060020a03908116911614806119305750600160a060020a03331660009081526008602052604090205460ff165b15611b275788158015611941575084155b1561195857611951613a9e612b67565b9250611b27565b6119618a611121565b1561197157611951613a9d612b67565b61197a846126ec565b915033600160a060020a031684600160a060020a0316146119a35761199e336126ec565b6119a5565b815b9050600580548060010182816119bb9190612d38565b5060009182526020909120018a905560c0604051908101604090815282825260208083018c90528183018b9052606083018a9052871515608084015260ff891660a084015260008d81526006909152208151815560208201518160010155604082015181600201908051611a33929160200190612d61565b50606082015181600301908051611a4e929160200190612d61565b50608082015160048201805460ff191691151591909117905560a08201516004909101805460ff929092166101000261ff00199092169190911790555060008a81526006602090815260408083208584526005019091529020899055600954600160a060020a031663abafaa168b8b611ac68661161f565b60405160e060020a63ffffffff861602815260048101939093526024830191909152600160a060020a03166044820152606401600060405180830381600087803b1515611b1257600080fd5b5af11515611b1f57600080fd5b505050600192505b5050979650505050505050565b6000805433600160a060020a0390811691161415610eb95750600160a060020a03166000908152600860205260409020805460ff1916600190811790915590565b6000805433600160a060020a0390811691161415610eb957600160a060020a0382161515611ba557506000610eb9565b600154600160a060020a031615611bc75760018054600160a060020a03191690555b5060008054600160a060020a038316600160a060020a03199091161790556001919050565b80600160a060020a038084169085167f0de92ba2d86c482d7f947cc22a580692bb78d6277988023434905f44b8cd261a60405160405180910390a4505050565b600160a060020a038116837fd03c2206e12a8eb3553d780874e1a7941b9c67f3a726ce6edb4a9fd65e25ec988460405190815260200160405180910390a3505050565b60009081526006602052604090206001015490565b611c8c612d26565b6006600083600019166000191681526020019081526020016000206003018054600181600116156101000203166002900480601f0160208091040260200160405190810160405280929190818152602001828054600181600116156101000203166002900480156116f45780601f106116c9576101008083540402835291602001916116f4565b60009081526006602052604090206004015460ff1690565b600160a060020a038116837fa4e2520a41c90422e37fc8ba7153c519a427a62ea5f494a14a218a7b9bceb6ca8460405190815260200160405180910390a3505050565b60008080831515611d8b57611d84613a9a612b67565b9250610fbd565b60008581526006602052604090209150611da433610fe3565b600081815260058401602052604090205490915084901015611dcb57611d84613aa1612b67565b6000818152600583016020526040902054611dec908563ffffffff612bc816565b60008281526005840160205260409020556001820154611e12908563ffffffff612bc816565b6001830155600954600160a060020a031663c70bbc138686611e338561161f565b60405160e060020a63ffffffff861602815260048101939093526024830191909152600160a060020a03166044820152606401600060405180830381600087803b1515611e7f57600080fd5b5af11515611e8c57600080fd5b505050611e9c8160008688612bda565b506001949350505050565b60086020526000908152604090205460ff1681565b600080611ec884610fe3565b9050611ed383611121565b80156110fe57506000838152600660205260409020548114806110fe57506000838152600660208181526040808420858552909201905290205460ff16949350505050565b6005805482908110611f2657fe5b600091825260209091200154905081565b600080600080600080600087611f4d3382611ebc565b15612110578b8a14611f5e57600080fd5b881515611f6a57600080fd5b611f73336126ec565b955060009450600093505b8b84108015611f8f57506201adb05a115b15612108578a8a85818110611fa057fe5b9050602002013592508260001415611fc357611fbd613a9a612b67565b506120fd565b82611fce878b6113ea565b1015611fdf57611fbd613a9b612b67565b8c8c85818110611feb57fe5b90506020020135600160a060020a0316600160a060020a031633600160a060020a0316141561201f57611fbd613a99612b67565b6120438d8d8681811061202e57fe5b90506020020135600160a060020a03166126ec565b91506120518683858c612c8d565b600954600160a060020a031663515c1457338f8f8881811061206f57fe5b90506020020135600160a060020a03168c8760405160e060020a63ffffffff8716028152600160a060020a0394851660048201529290931660248301526044820152606481019190915260a06084820152600060a4820181905260e49091019060405180830381600087803b15156120e657600080fd5b5af115156120f357600080fd5b5050600190950194505b600190930192611f7e565b600185975097505b5050505050509550959350505050565b600054600160a060020a031681565b81600160a060020a038085169086167f859b1cddb4da93a04541d62c27d7d83aa8173a1b37bbccd3c60ceb4ee19ee13e8460405190815260200160405180910390a450505050565b6000805481908190819033600160a060020a03908116911614156115d257600092505b855183101561229e578583815181106121af57fe5b90602001906020020151915081600160a060020a03166370a082313060405160e060020a63ffffffff8416028152600160a060020a039091166004820152602401602060405180830381600087803b151561220957600080fd5b5af1151561221657600080fd5b505050604051805191505080156122935781600160a060020a031663a9059cbb868360405160e060020a63ffffffff8516028152600160a060020a0390921660048301526024820152604401602060405180830381600087803b151561227b57600080fd5b5af1151561228857600080fd5b505050604051805150505b60019092019161219a565b50600195945050505050565b600090815260066020526040902060040154610100900460ff1690565b7f2e36a7093f25f22bd4cbdeb6040174c3ba4c5fe8f1abc04e7c3c48f26c7413e08160405190815260200160405180910390a150565b60008060008461230d3382611ebc565b156115d257841515612324576114ca613a9a612b67565b6000868152600660205260409020600481015490935060ff16151561234e576114ca613a9f612b67565b60018301548581011015612367576114ca613aa0612b67565b61237033610fe3565b6000818152600585016020526040902054909250612394908663ffffffff612d1016565b600083815260058501602052604090205560018301546123ba908663ffffffff612d1016565b6001840155600954600160a060020a031663abafaa1687876123db8661161f565b60405160e060020a63ffffffff861602815260048101939093526024830191909152600160a060020a03166044820152606401600060405180830381600087803b151561242757600080fd5b5af1151561243457600080fd5b50505061229e6000838789612bda565b600061244f82611121565b801561126f575061245f83610fe3565b60008381526006602052604090205414905092915050565b81600160a060020a031683600160a060020a03167f6c0468512076e943ed3d1c5aae1d6903c72162713d86aedd1381b3ac19e10cec83604051600160a060020a03909116815260200160405180910390a3505050565b600080836124db3382611ebc565b15610fbd576124e984610fe3565b60008681526006602081815260408084208585529092019052808220805460ff19169055600954929450600160a060020a039092169163a9612f7291879189905160e060020a63ffffffff8616028152600160a060020a0393841660048201529190921660248201526044810191909152606401600060405180830381600087803b1515610fa857600080fd5b60055490565b600954600160a060020a031681565b6000338261259982826115db565b156125ea576000600360006125ad33610fe3565b815260208082019290925260409081016000908120600160a060020a0389168252600190810190935220805460ff19169215159290921790915592505b5050919050565b600080600080856126023382612444565b156126e257600160a060020a038616151561262957612622613aa2612b67565b94506126e2565b60008781526006602052604090209350612642866126ec565b845490935083141561265957612622613a99612b67565b83546126649061161f565b838555600954909250600160a060020a031663a9612f7283888a60405160e060020a63ffffffff8616028152600160a060020a0393841660048201529190921660248201526044810191909152606401600060405180830381600087803b15156126cd57600080fd5b5af115156126da57600080fd5b505050600194505b5050505092915050565b600160a060020a0381166000908152600460205260408120548015156112725750600280546001019081905560008181526003602090815260408083208054600160a060020a031916600160a060020a03881690811790915583526004909152902081905592915050565b600061276283611121565b151561277a57612773613aa5612b67565b90506110fe565b8482141561278d57612773613a99612b67565b60008381526006602090815260408083208584526005018252808320888452600101909152902054158015906127c257508315155b156127d257612773613aa9612b67565b600083815260066020908152604080832085845260050182528083208884526001019091529020849055600954600160a060020a031663d54c8c876128168461161f565b61281f8861161f565b868860405160e060020a63ffffffff8716028152600160a060020a03948516600482015292909316602483015260448201526064810191909152608401600060405180830381600087803b151561287557600080fd5b5af1151561288257600080fd5b505050600083815260076020526040902054600160a060020a031615611e9c57600083815260076020526040902054600160a060020a031663233850896128c88461161f565b6128d18861161f565b8760405160e060020a63ffffffff8616028152600160a060020a0393841660048201529190921660248201526044810191909152606401600060405180830381600087803b151561292157600080fd5b5af1151561292e57600080fd5b505050506001949350505050565b60008587141561295857612951613a99612b67565b9050610fd9565b84151561296a57612951613a9a612b67565b8461297588866113ea565b101561298657612951613a9b612b67565b81871415801561299f57508461299d888487612b39565b105b156129af57612951613a9c612b67565b6129bb87878787612c8d565b868214612a235760008481526006602090815260408083208a845260050182528083208584526001019091529020546129fa908663ffffffff612bc816565b60008581526006602090815260408083208b845260050182528083208684526001019091529020555b600954600160a060020a031663515c1457612a3d8961161f565b612a468961161f565b87898860405160e060020a63ffffffff8816028152600160a060020a03808716600483019081529086166024830152604482018590526064820184905260a060848301908152909160a40183818151815260200191508051906020019080838360005b83811015612ac1578082015183820152602001612aa9565b50505050905090810190601f168015612aee5780820380516001836020036101000a031916815260200191505b509650505050505050600060405180830381600087803b1515612b1057600080fd5b5af11515612b1d57600080fd5b505050612b2c87878787612bda565b5060019695505050505050565b6000908152600660209081526040808320948352600590940181528382209282526001909201909152205490565b600954600090600160a060020a031663df26ca088360405160e060020a63ffffffff84160281526004810191909152602401600060405180830381600087803b1515612bb257600080fd5b5af11515612bbf57600080fd5b50929392505050565b600082821115612bd457fe5b50900390565b600081815260076020526040902054600160a060020a031615612c8757600081815260076020526040902054600160a060020a03166323de6651612c1d8661161f565b612c268661161f565b8560405160e060020a63ffffffff8616028152600160a060020a0393841660048201529190921660248201526044810191909152606401600060405180830381600087803b1515612c7657600080fd5b5af11515612c8357600080fd5b5050505b50505050565b6000818152600660209081526040808320878452600501909152902054612cba908363ffffffff612bc816565b6000828152600660209081526040808320888452600501909152808220929092558481522054612cea9083612d10565b600091825260066020908152604080842095845260059095019052929020919091555050565b600082820183811015612d1f57fe5b9392505050565b60206040519081016040526000815290565b815481835581811511612d5c57600083815260209020612d5c918101908301612ddf565b505050565b828054600181600116156101000203166002900490600052602060002090601f016020900481019282601f10612da257805160ff1916838001178555612dcf565b82800160010185558215612dcf579182015b82811115612dcf578251825591602001919060010190612db4565b50612ddb929150612ddf565b5090565b6111d391905b80821115612ddb5760008155600101612de55600a165627a7a72305820eebdd3cdc7d1773ef1804ded8932ed71026bedcfa43cf9f31870202eca5554c80029",
  "source": "pragma solidity ^0.4.4;\n\nimport \"../core/platform/ChronoBankPlatform.sol\";\n\n// For testing purposes.\ncontract ChronoBankPlatformTestable is ChronoBankPlatform {\n    function transfer(address _to, uint _value, bytes32 _symbol) public returns (bool) {\n        return transferWithReference(_to, _value, _symbol, \"\");\n    }\n\n    function transferWithReference(address _to, uint _value, bytes32 _symbol, string _reference) public returns (bool) {\n        return _transfer(getHolderId(msg.sender), _createHolderId(_to), _value, _symbol, _reference, getHolderId(msg.sender)) == OK;\n    }\n\n    function approve(address _spender, uint _value, bytes32 _symbol) public returns (bool) {\n        return _approve(_createHolderId(_spender), _value, _symbol, _createHolderId(msg.sender)) == OK;\n    }\n\n    function transferFrom(address _from, address _to, uint _value, bytes32 _symbol) public returns (bool) {\n        return transferFromWithReference(_from, _to, _value, _symbol, \"\");\n    }\n\n    function transferFromWithReference(address _from, address _to, uint _value, bytes32 _symbol, string _reference) public returns (bool) {\n        return _transfer(getHolderId(_from), _createHolderId(_to), _value, _symbol, _reference, getHolderId(msg.sender)) == OK;\n    }\n}\n",
  "sourcePath": "/Users/alesanro/Documents/Projects/ChronoBank/SmartContracts/contracts/helpers/ChronoBankPlatformTestable.sol",
  "compiler": {
    "name": "solc",
    "version": "0.4.21+commit.dfe3193c.Emscripten.clang"
  },
  "schemaVersion": "2.0.0",
  "updatedAt": "2018-04-06T09:20:58.724Z"
}