{
  "contractName": "ChronoBankAssetWithFeeProxy",
  "abi": [
    {
      "constant": true,
      "inputs": [],
      "name": "name",
      "outputs": [
        {
          "name": "",
          "type": "string"
        }
      ],
      "payable": false,
      "stateMutability": "view",
      "type": "function"
    },
    {
      "constant": false,
      "inputs": [
        {
          "name": "_spender",
          "type": "address"
        },
        {
          "name": "_value",
          "type": "uint256"
        }
      ],
      "name": "approve",
      "outputs": [
        {
          "name": "",
          "type": "bool"
        }
      ],
      "payable": false,
      "stateMutability": "nonpayable",
      "type": "function"
    },
    {
      "constant": false,
      "inputs": [],
      "name": "commitUpgrade",
      "outputs": [
        {
          "name": "",
          "type": "bool"
        }
      ],
      "payable": false,
      "stateMutability": "nonpayable",
      "type": "function"
    },
    {
      "constant": true,
      "inputs": [],
      "name": "getLatestVersion",
      "outputs": [
        {
          "name": "",
          "type": "address"
        }
      ],
      "payable": false,
      "stateMutability": "view",
      "type": "function"
    },
    {
      "constant": true,
      "inputs": [],
      "name": "totalSupply",
      "outputs": [
        {
          "name": "",
          "type": "uint256"
        }
      ],
      "payable": false,
      "stateMutability": "view",
      "type": "function"
    },
    {
      "constant": false,
      "inputs": [
        {
          "name": "_from",
          "type": "address"
        },
        {
          "name": "_spender",
          "type": "address"
        },
        {
          "name": "_value",
          "type": "uint256"
        }
      ],
      "name": "emitApprove",
      "outputs": [],
      "payable": false,
      "stateMutability": "nonpayable",
      "type": "function"
    },
    {
      "constant": false,
      "inputs": [
        {
          "name": "_from",
          "type": "address"
        },
        {
          "name": "_to",
          "type": "address"
        },
        {
          "name": "_value",
          "type": "uint256"
        }
      ],
      "name": "transferFrom",
      "outputs": [
        {
          "name": "",
          "type": "bool"
        }
      ],
      "payable": false,
      "stateMutability": "nonpayable",
      "type": "function"
    },
    {
      "constant": false,
      "inputs": [
        {
          "name": "_from",
          "type": "address"
        },
        {
          "name": "_to",
          "type": "address"
        },
        {
          "name": "_value",
          "type": "uint256"
        }
      ],
      "name": "emitTransfer",
      "outputs": [],
      "payable": false,
      "stateMutability": "nonpayable",
      "type": "function"
    },
    {
      "constant": true,
      "inputs": [],
      "name": "decimals",
      "outputs": [
        {
          "name": "",
          "type": "uint8"
        }
      ],
      "payable": false,
      "stateMutability": "view",
      "type": "function"
    },
    {
      "constant": true,
      "inputs": [],
      "name": "chronoBankPlatform",
      "outputs": [
        {
          "name": "",
          "type": "address"
        }
      ],
      "payable": false,
      "stateMutability": "view",
      "type": "function"
    },
    {
      "constant": true,
      "inputs": [],
      "name": "getPendingVersionTimestamp",
      "outputs": [
        {
          "name": "",
          "type": "uint256"
        }
      ],
      "payable": false,
      "stateMutability": "view",
      "type": "function"
    },
    {
      "constant": false,
      "inputs": [],
      "name": "purgeUpgrade",
      "outputs": [
        {
          "name": "",
          "type": "bool"
        }
      ],
      "payable": false,
      "stateMutability": "nonpayable",
      "type": "function"
    },
    {
      "constant": false,
      "inputs": [],
      "name": "optIn",
      "outputs": [
        {
          "name": "",
          "type": "bool"
        }
      ],
      "payable": false,
      "stateMutability": "nonpayable",
      "type": "function"
    },
    {
      "constant": false,
      "inputs": [
        {
          "name": "_to",
          "type": "address"
        },
        {
          "name": "_value",
          "type": "uint256"
        },
        {
          "name": "_reference",
          "type": "string"
        },
        {
          "name": "_sender",
          "type": "address"
        }
      ],
      "name": "__transferWithReference",
      "outputs": [
        {
          "name": "",
          "type": "bool"
        }
      ],
      "payable": false,
      "stateMutability": "nonpayable",
      "type": "function"
    },
    {
      "constant": true,
      "inputs": [
        {
          "name": "_owner",
          "type": "address"
        }
      ],
      "name": "balanceOf",
      "outputs": [
        {
          "name": "",
          "type": "uint256"
        }
      ],
      "payable": false,
      "stateMutability": "view",
      "type": "function"
    },
    {
      "constant": false,
      "inputs": [
        {
          "name": "_spender",
          "type": "address"
        },
        {
          "name": "_value",
          "type": "uint256"
        },
        {
          "name": "_sender",
          "type": "address"
        }
      ],
      "name": "__approve",
      "outputs": [
        {
          "name": "",
          "type": "bool"
        }
      ],
      "payable": false,
      "stateMutability": "nonpayable",
      "type": "function"
    },
    {
      "constant": true,
      "inputs": [],
      "name": "symbol",
      "outputs": [
        {
          "name": "",
          "type": "string"
        }
      ],
      "payable": false,
      "stateMutability": "view",
      "type": "function"
    },
    {
      "constant": true,
      "inputs": [],
      "name": "getPendingVersion",
      "outputs": [
        {
          "name": "",
          "type": "address"
        }
      ],
      "payable": false,
      "stateMutability": "view",
      "type": "function"
    },
    {
      "constant": false,
      "inputs": [
        {
          "name": "_to",
          "type": "address"
        },
        {
          "name": "_value",
          "type": "uint256"
        }
      ],
      "name": "transfer",
      "outputs": [
        {
          "name": "",
          "type": "bool"
        }
      ],
      "payable": false,
      "stateMutability": "nonpayable",
      "type": "function"
    },
    {
      "constant": false,
      "inputs": [
        {
          "name": "_to",
          "type": "address"
        },
        {
          "name": "_value",
          "type": "uint256"
        },
        {
          "name": "_reference",
          "type": "string"
        }
      ],
      "name": "transferWithReference",
      "outputs": [
        {
          "name": "",
          "type": "bool"
        }
      ],
      "payable": false,
      "stateMutability": "nonpayable",
      "type": "function"
    },
    {
      "constant": false,
      "inputs": [
        {
          "name": "_chronoBankPlatform",
          "type": "address"
        },
        {
          "name": "_symbol",
          "type": "string"
        },
        {
          "name": "_name",
          "type": "string"
        }
      ],
      "name": "init",
      "outputs": [
        {
          "name": "",
          "type": "bool"
        }
      ],
      "payable": false,
      "stateMutability": "nonpayable",
      "type": "function"
    },
    {
      "constant": false,
      "inputs": [
        {
          "name": "_newVersion",
          "type": "address"
        }
      ],
      "name": "proposeUpgrade",
      "outputs": [
        {
          "name": "",
          "type": "bool"
        }
      ],
      "payable": false,
      "stateMutability": "nonpayable",
      "type": "function"
    },
    {
      "constant": true,
      "inputs": [],
      "name": "smbl",
      "outputs": [
        {
          "name": "",
          "type": "bytes32"
        }
      ],
      "payable": false,
      "stateMutability": "view",
      "type": "function"
    },
    {
      "constant": true,
      "inputs": [
        {
          "name": "source",
          "type": "string"
        }
      ],
      "name": "stringToBytes32",
      "outputs": [
        {
          "name": "result",
          "type": "bytes32"
        }
      ],
      "payable": false,
      "stateMutability": "pure",
      "type": "function"
    },
    {
      "constant": false,
      "inputs": [],
      "name": "optOut",
      "outputs": [
        {
          "name": "",
          "type": "bool"
        }
      ],
      "payable": false,
      "stateMutability": "nonpayable",
      "type": "function"
    },
    {
      "constant": true,
      "inputs": [
        {
          "name": "_from",
          "type": "address"
        },
        {
          "name": "_spender",
          "type": "address"
        }
      ],
      "name": "allowance",
      "outputs": [
        {
          "name": "",
          "type": "uint256"
        }
      ],
      "payable": false,
      "stateMutability": "view",
      "type": "function"
    },
    {
      "constant": false,
      "inputs": [
        {
          "name": "_from",
          "type": "address"
        },
        {
          "name": "_to",
          "type": "address"
        },
        {
          "name": "_value",
          "type": "uint256"
        },
        {
          "name": "_reference",
          "type": "string"
        },
        {
          "name": "_sender",
          "type": "address"
        }
      ],
      "name": "__transferFromWithReference",
      "outputs": [
        {
          "name": "",
          "type": "bool"
        }
      ],
      "payable": false,
      "stateMutability": "nonpayable",
      "type": "function"
    },
    {
      "constant": true,
      "inputs": [
        {
          "name": "_sender",
          "type": "address"
        }
      ],
      "name": "getVersionFor",
      "outputs": [
        {
          "name": "",
          "type": "address"
        }
      ],
      "payable": false,
      "stateMutability": "view",
      "type": "function"
    },
    {
      "payable": true,
      "stateMutability": "payable",
      "type": "fallback"
    },
    {
      "anonymous": false,
      "inputs": [
        {
          "indexed": false,
          "name": "newVersion",
          "type": "address"
        }
      ],
      "name": "UpgradeProposal",
      "type": "event"
    },
    {
      "anonymous": false,
      "inputs": [
        {
          "indexed": true,
          "name": "from",
          "type": "address"
        },
        {
          "indexed": true,
          "name": "to",
          "type": "address"
        },
        {
          "indexed": false,
          "name": "value",
          "type": "uint256"
        }
      ],
      "name": "Transfer",
      "type": "event"
    },
    {
      "anonymous": false,
      "inputs": [
        {
          "indexed": true,
          "name": "from",
          "type": "address"
        },
        {
          "indexed": true,
          "name": "spender",
          "type": "address"
        },
        {
          "indexed": false,
          "name": "value",
          "type": "uint256"
        }
      ],
      "name": "Approval",
      "type": "event"
    }
  ],
  "bytecode": "0x6060604052341561000f57600080fd5b61157d8061001e6000396000f3006060604052600436106101505763ffffffff60e060020a60003504166306fdde0381146101de578063095ea7b3146102685780630ba12c831461029e5780630e6d1de9146102b157806318160ddd146102e0578063233850891461030557806323b872dd1461032f57806323de665114610357578063313ce5671461037f57806349752baf146103a85780634bfaf2e8146103bb5780634dfe950d146103ce5780635b48684e146103e15780636a630ee7146103f457806370a08231146104645780637b7054c81461048357806395d89b41146104ac578063a883fb90146104bf578063a9059cbb146104d2578063ac35caee146104f4578063b2b45df514610559578063c915fc93146105fa578063cb4e75bb14610619578063cfb519281461062c578063d4eec5a61461067d578063dd62ed3e14610690578063ec698a28146106b5578063fe8beb711461072c575b61015861074b565b600160a060020a031663f2d6e0ab346000363360405160e060020a63ffffffff8716028152600160a060020a03821660248201526040600482019081526044820184905290819060640185858082843782019150509450505050506000604051808303818588803b15156101cb57600080fd5b5af115156101d857600080fd5b50505050005b34156101e957600080fd5b6101f161075c565b60405160208082528190810183818151815260200191508051906020019080838360005b8381101561022d578082015183820152602001610215565b50505050905090810190601f16801561025a5780820380516001836020036101000a031916815260200191505b509250505060405180910390f35b341561027357600080fd5b61028a600160a060020a03600435166024356107fa565b604051901515815260200160405180910390f35b34156102a957600080fd5b61028a61089a565b34156102bc57600080fd5b6102c46108fe565b604051600160a060020a03909116815260200160405180910390f35b34156102eb57600080fd5b6102f361090d565b60405190815260200160405180910390f35b341561031057600080fd5b61032d600160a060020a0360043581169060243516604435610977565b005b341561033a57600080fd5b61028a600160a060020a03600435811690602435166044356109db565b341561036257600080fd5b61032d600160a060020a0360043581169060243516604435610a93565b341561038a57600080fd5b610392610af6565b60405160ff909116815260200160405180910390f35b34156103b357600080fd5b6102c4610b45565b34156103c657600080fd5b6102f3610b54565b34156103d957600080fd5b61028a610b5a565b34156103ec57600080fd5b61028a610c09565b34156103ff57600080fd5b61028a60048035600160a060020a03169060248035919060649060443590810190830135806020601f8201819004810201604051908101604052818152929190602084018383808284375094965050509235600160a060020a03169250610c34915050565b341561046f57600080fd5b6102f3600160a060020a0360043516610d63565b341561048e57600080fd5b61028a600160a060020a036004358116906024359060443516610ddf565b34156104b757600080fd5b6101f1610e9b565b34156104ca57600080fd5b6102c4610f06565b34156104dd57600080fd5b61028a600160a060020a0360043516602435610f15565b34156104ff57600080fd5b61028a60048035600160a060020a03169060248035919060649060443590810190830135806020601f82018190048102016040519081016040528181529291906020840183838082843750949650610f4695505050505050565b341561056457600080fd5b61028a60048035600160a060020a03169060446024803590810190830135806020601f8201819004810201604051908101604052818152929190602084018383808284378201915050505050509190803590602001908201803590602001908080601f016020809104026020016040519081016040528181529291906020840183838082843750949650610f6995505050505050565b341561060557600080fd5b61028a600160a060020a0360043516610fde565b341561062457600080fd5b6102f3611122565b341561063757600080fd5b6102f360046024813581810190830135806020601f8201819004810201604051908101604052818152929190602084018383808284375094965061112895505050505050565b341561068857600080fd5b61028a611135565b341561069b57600080fd5b6102f3600160a060020a0360043581169060243516611195565b34156106c057600080fd5b61028a600160a060020a036004803582169160248035909116916044359160849060643590810190830135806020601f8201819004810201604051908101604052818152929190602084018383808284375094965050509235600160a060020a0316925061121e915050565b341561073757600080fd5b6102c4600160a060020a0360043516611359565b600061075633611359565b90505b90565b60038054600181600116156101000203166002900480601f0160208091040260200160405190810160405280929190818152602001828054600181600116156101000203166002900480156107f25780601f106107c7576101008083540402835291602001916107f2565b820191906000526020600020905b8154815290600101906020018083116107d557829003601f168201915b505050505081565b6000600160a060020a038316156108905761081361074b565b600160a060020a0316637b7054c884843360405160e060020a63ffffffff8616028152600160a060020a03938416600482015260248101929092529091166044820152606401602060405180830381600087803b151561087257600080fd5b5af1151561087f57600080fd5b505050604051805190509050610894565b5060005b92915050565b600654600090600160a060020a031615156108b757506000610759565b426203f4806007540111156108ce57506000610759565b506006805460058054600160a060020a0319908116600160a060020a038416179091551690556000600755600190565b600554600160a060020a031690565b600154600254600091600160a060020a03169063b524abcf9060405160e060020a63ffffffff84160281526004810191909152602401602060405180830381600087803b151561095c57600080fd5b5af1151561096957600080fd5b505050604051805191505090565b60015433600160a060020a03908116911614156109d65781600160a060020a031683600160a060020a03167f8c5be1e5ebec7d5bd14f71427d1e84f3dd0314c0f7b2291e5b200ac8c7c3b9258360405190815260200160405180910390a35b505050565b6000600160a060020a03831615610a88576109f461074b565b600160a060020a031663ec698a288585853360405160e060020a63ffffffff8716028152600160a060020a03948516600482015292841660248401526044830191909152909116608482015260a06064820152600060a482015260e401602060405180830381600087803b1515610a6a57600080fd5b5af11515610a7757600080fd5b505050604051805190509050610a8c565b5060005b9392505050565b60015433600160a060020a03908116911614156109d65781600160a060020a031683600160a060020a03167fddf252ad1be2c89b69c2b068fc378daa952ba7f163c4a11628f55a4df523b3ef8360405190815260200160405180910390a3505050565b600154600254600091600160a060020a03169063dc86e6f09060405160e060020a63ffffffff84160281526004810191909152602401602060405180830381600087803b151561095c57600080fd5b600154600160a060020a031681565b60075490565b600154600254600091600160a060020a03169063e96b462a90339060405160e060020a63ffffffff8516028152600160a060020a0390921660048301526024820152604401602060405180830381600087803b1515610bb857600080fd5b5af11515610bc557600080fd5b505050604051805190501561075957600654600160a060020a03161515610bee57506000610759565b5060068054600160a060020a03191690556000600755600190565b600160a060020a03331660009081526008602052604090208054600160a060020a0319169055600190565b60008133600160a060020a0316610c4a82611359565b600160a060020a03161415610d5a5760018054600254600160a060020a03909116906357a96dd09089908990898960405160e060020a63ffffffff8816028152600160a060020a03808716600483019081526024830187905260448301869052908316608483015260a060648301908152909160a40184818151815260200191508051906020019080838360005b83811015610cf0578082015183820152602001610cd8565b50505050905090810190601f168015610d1d5780820380516001836020036101000a031916815260200191505b509650505050505050602060405180830381600087803b1515610d3f57600080fd5b5af11515610d4c57600080fd5b505050604051805190501491505b50949350505050565b600154600254600091600160a060020a031690634d30b6be90849060405160e060020a63ffffffff8516028152600160a060020a0390921660048301526024820152604401602060405180830381600087803b1515610dc157600080fd5b5af11515610dce57600080fd5b50505060405180519150505b919050565b60008133600160a060020a0316610df582611359565b600160a060020a03161415610e935760018054600254600160a060020a03909116906314712e2f90889088908860405160e060020a63ffffffff8716028152600160a060020a039485166004820152602481019390935260448301919091529091166064820152608401602060405180830381600087803b1515610e7857600080fd5b5af11515610e8557600080fd5b505050604051805190501491505b509392505050565b60048054600181600116156101000203166002900480601f0160208091040260200160405190810160405280929190818152602001828054600181600116156101000203166002900480156107f25780601f106107c7576101008083540402835291602001916107f2565b600654600160a060020a031690565b6000600160a060020a0383161561089057610f3f83836020604051908101604052600081526113ac565b9050610894565b6000600160a060020a03841615610a8857610f628484846113ac565b9050610a8c565b600154600090600160a060020a031615610f8557506000610a8c565b60018054600160a060020a031916600160a060020a0386161790556004838051610fb39291602001906114b9565b50610fbd83611128565b6002556003828051610fd39291602001906114b9565b506001949350505050565b600154600254600091600160a060020a03169063e96b462a90339060405160e060020a63ffffffff8516028152600160a060020a0390921660048301526024820152604401602060405180830381600087803b151561103c57600080fd5b5af1151561104957600080fd5b5050506040518051905015610dda57600654600160a060020a03161561107157506000610dda565b600160a060020a038216151561108957506000610dda565b600554600160a060020a031615156110be575060058054600160a060020a031916600160a060020a0383161790556001610dda565b60068054600160a060020a031916600160a060020a038416179055426007557faf574319215a31df9b528258f1bdeef2b12b169dc85ff443a49373248c77493a82604051600160a060020a03909116815260200160405180910390a1506001919050565b60025481565b6000602082015192915050565b600160a060020a033381166000908152600860205260408120549091161561115f57506000610759565b5060055433600160a060020a0390811660009081526008602052604090208054600160a060020a03191691909216179055600190565b600154600254600091600160a060020a031690631c8d5d38908590859060405160e060020a63ffffffff8616028152600160a060020a0393841660048201529190921660248201526044810191909152606401602060405180830381600087803b151561120157600080fd5b5af1151561120e57600080fd5b5050506040518051949350505050565b60008133600160a060020a031661123482611359565b600160a060020a0316141561134f5760018054600254600160a060020a039091169063161ff662908a908a908a908a8a60405160e060020a63ffffffff8916028152600160a060020a03808816600483019081528782166024840152604483018790526064830186905290831660a483015260c060848301908152909160c40184818151815260200191508051906020019080838360005b838110156112e45780820151838201526020016112cc565b50505050905090810190601f1680156113115780820380516001836020036101000a031916815260200191505b50975050505050505050602060405180830381600087803b151561133457600080fd5b5af1151561134157600080fd5b505050604051805190501491505b5095945050505050565b600160a060020a038082166000908152600860205260408120549091161561139b57600160a060020a0380831660009081526008602052604090205416610894565b5050600554600160a060020a031690565b60006113b661074b565b600160a060020a0316636a630ee7858585336040518563ffffffff1660e060020a0281526004018085600160a060020a0316600160a060020a031681526020018481526020018060200183600160a060020a0316600160a060020a03168152602001828103825284818151815260200191508051906020019080838360005b8381101561144d578082015183820152602001611435565b50505050905090810190601f16801561147a5780820380516001836020036101000a031916815260200191505b5095505050505050602060405180830381600087803b151561149b57600080fd5b5af115156114a857600080fd5b505050604051805195945050505050565b828054600181600116156101000203166002900490600052602060002090601f016020900481019282601f106114fa57805160ff1916838001178555611527565b82800160010185558215611527579182015b8281111561152757825182559160200191906001019061150c565b50611533929150611537565b5090565b61075991905b80821115611533576000815560010161153d5600a165627a7a7230582026a9fc6d69a16ce4c38eff0587e392f3a988771f4d6018f3466f17c9c1cfa0fe0029",
  "source": "pragma solidity ^0.4.11;\n\nimport \"./ChronoBankAssetProxy.sol\";\n\ncontract ChronoBankAssetWithFeeProxy is ChronoBankAssetProxy {\n\n}\n",
  "sourcePath": "/Users/alesanro/Documents/Projects/ChronoBank/SmartContracts/contracts/core/platform/ChronoBankAssetWithFeeProxy.sol",
  "compiler": {
    "name": "solc",
    "version": "0.4.21+commit.dfe3193c.Emscripten.clang"
  },
  "schemaVersion": "2.0.0",
  "updatedAt": "2018-04-06T09:20:58.419Z"
}