{
  "contractName": "ChronoBankAsset",
  "abi": [
    {
      "constant": true,
      "inputs": [],
      "name": "paused",
      "outputs": [
        {
          "name": "",
          "type": "bool"
        }
      ],
      "payable": false,
      "stateMutability": "view",
      "type": "function"
    },
    {
      "constant": true,
      "inputs": [],
      "name": "proxy",
      "outputs": [
        {
          "name": "",
          "type": "address"
        }
      ],
      "payable": false,
      "stateMutability": "view",
      "type": "function"
    },
    {
      "constant": false,
      "inputs": [
        {
          "name": "_data",
          "type": "bytes"
        },
        {
          "name": "_sender",
          "type": "address"
        }
      ],
      "name": "__process",
      "outputs": [],
      "payable": true,
      "stateMutability": "payable",
      "type": "function"
    },
    {
      "constant": true,
      "inputs": [
        {
          "name": "",
          "type": "address"
        }
      ],
      "name": "blacklist",
      "outputs": [
        {
          "name": "",
          "type": "bool"
        }
      ],
      "payable": false,
      "stateMutability": "view",
      "type": "function"
    },
    {
      "anonymous": false,
      "inputs": [
        {
          "indexed": true,
          "name": "symbol",
          "type": "bytes32"
        },
        {
          "indexed": false,
          "name": "restricted",
          "type": "address"
        }
      ],
      "name": "Restricted",
      "type": "event"
    },
    {
      "anonymous": false,
      "inputs": [
        {
          "indexed": true,
          "name": "symbol",
          "type": "bytes32"
        },
        {
          "indexed": false,
          "name": "unrestricted",
          "type": "address"
        }
      ],
      "name": "Unrestricted",
      "type": "event"
    },
    {
      "anonymous": false,
      "inputs": [
        {
          "indexed": true,
          "name": "symbol",
          "type": "bytes32"
        }
      ],
      "name": "Paused",
      "type": "event"
    },
    {
      "anonymous": false,
      "inputs": [
        {
          "indexed": true,
          "name": "symbol",
          "type": "bytes32"
        }
      ],
      "name": "Unpaused",
      "type": "event"
    },
    {
      "constant": false,
      "inputs": [
        {
          "name": "_proxy",
          "type": "address"
        }
      ],
      "name": "init",
      "outputs": [
        {
          "name": "",
          "type": "bool"
        }
      ],
      "payable": false,
      "stateMutability": "nonpayable",
      "type": "function"
    },
    {
      "constant": false,
      "inputs": [
        {
          "name": "_restricted",
          "type": "address[]"
        }
      ],
      "name": "restrict",
      "outputs": [
        {
          "name": "",
          "type": "bool"
        }
      ],
      "payable": false,
      "stateMutability": "nonpayable",
      "type": "function"
    },
    {
      "constant": false,
      "inputs": [
        {
          "name": "_unrestricted",
          "type": "address[]"
        }
      ],
      "name": "unrestrict",
      "outputs": [
        {
          "name": "",
          "type": "bool"
        }
      ],
      "payable": false,
      "stateMutability": "nonpayable",
      "type": "function"
    },
    {
      "constant": false,
      "inputs": [],
      "name": "pause",
      "outputs": [
        {
          "name": "",
          "type": "bool"
        }
      ],
      "payable": false,
      "stateMutability": "nonpayable",
      "type": "function"
    },
    {
      "constant": false,
      "inputs": [],
      "name": "unpause",
      "outputs": [
        {
          "name": "",
          "type": "bool"
        }
      ],
      "payable": false,
      "stateMutability": "nonpayable",
      "type": "function"
    },
    {
      "constant": false,
      "inputs": [
        {
          "name": "_to",
          "type": "address"
        },
        {
          "name": "_value",
          "type": "uint256"
        },
        {
          "name": "_reference",
          "type": "string"
        },
        {
          "name": "_sender",
          "type": "address"
        }
      ],
      "name": "__transferWithReference",
      "outputs": [
        {
          "name": "",
          "type": "bool"
        }
      ],
      "payable": false,
      "stateMutability": "nonpayable",
      "type": "function"
    },
    {
      "constant": false,
      "inputs": [
        {
          "name": "_from",
          "type": "address"
        },
        {
          "name": "_to",
          "type": "address"
        },
        {
          "name": "_value",
          "type": "uint256"
        },
        {
          "name": "_reference",
          "type": "string"
        },
        {
          "name": "_sender",
          "type": "address"
        }
      ],
      "name": "__transferFromWithReference",
      "outputs": [
        {
          "name": "",
          "type": "bool"
        }
      ],
      "payable": false,
      "stateMutability": "nonpayable",
      "type": "function"
    },
    {
      "constant": false,
      "inputs": [
        {
          "name": "_spender",
          "type": "address"
        },
        {
          "name": "_value",
          "type": "uint256"
        },
        {
          "name": "_sender",
          "type": "address"
        }
      ],
      "name": "__approve",
      "outputs": [
        {
          "name": "",
          "type": "bool"
        }
      ],
      "payable": false,
      "stateMutability": "nonpayable",
      "type": "function"
    },
    {
      "constant": false,
      "inputs": [
        {
          "name": "_symbol",
          "type": "bytes32"
        },
        {
          "name": "_restricted",
          "type": "address"
        }
      ],
      "name": "emitRestricted",
      "outputs": [],
      "payable": false,
      "stateMutability": "nonpayable",
      "type": "function"
    },
    {
      "constant": false,
      "inputs": [
        {
          "name": "_symbol",
          "type": "bytes32"
        },
        {
          "name": "_unrestricted",
          "type": "address"
        }
      ],
      "name": "emitUnrestricted",
      "outputs": [],
      "payable": false,
      "stateMutability": "nonpayable",
      "type": "function"
    },
    {
      "constant": false,
      "inputs": [
        {
          "name": "_symbol",
          "type": "bytes32"
        }
      ],
      "name": "emitPaused",
      "outputs": [],
      "payable": false,
      "stateMutability": "nonpayable",
      "type": "function"
    },
    {
      "constant": false,
      "inputs": [
        {
          "name": "_symbol",
          "type": "bytes32"
        }
      ],
      "name": "emitUnpaused",
      "outputs": [],
      "payable": false,
      "stateMutability": "nonpayable",
      "type": "function"
    },
    {
      "constant": true,
      "inputs": [],
      "name": "eventsHistory",
      "outputs": [
        {
          "name": "",
          "type": "address"
        }
      ],
      "payable": false,
      "stateMutability": "view",
      "type": "function"
    }
  ],
  "bytecode": "0x60606040526002805460ff19169055341561001957600080fd5b611354806100286000396000f3006060604052600436106100d75763ffffffff60e060020a60003504166319ab453c81146100dc57806322ccf6781461010f578063339d8b45146101275780633f4ba83a146101495780635c975abb1461015c5780636a630ee71461016f5780637b7054c8146101df5780637df5fd35146102085780638456cb591461021e5780638c8f488014610231578063be57771a14610253578063ec55688914610271578063ec698a28146102a0578063ee47af0014610317578063f07629f814610335578063f2d6e0ab14610348578063f9f92be414610399575b600080fd5b34156100e757600080fd5b6100fb600160a060020a03600435166103b8565b604051901515815260200160405180910390f35b341561011a57600080fd5b610125600435610403565b005b341561013257600080fd5b610125600435600160a060020a0360243516610433565b341561015457600080fd5b6100fb610475565b341561016757600080fd5b6100fb6105d4565b341561017a57600080fd5b6100fb60048035600160a060020a03169060248035919060649060443590810190830135806020601f8201819004810201604051908101604052818152929190602084018383808284375094965050509235600160a060020a031692506105dd915050565b34156101ea57600080fd5b6100fb600160a060020a03600435811690602435906044351661060c565b341561021357600080fd5b610125600435610639565b341561022957600080fd5b6100fb610669565b341561023c57600080fd5b610125600435600160a060020a03602435166107c2565b341561025e57600080fd5b6100fb6004803560248101910135610804565b341561027c57600080fd5b6102846109b8565b604051600160a060020a03909116815260200160405180910390f35b34156102ab57600080fd5b6100fb600160a060020a036004803582169160248035909116916044359160849060643590810190830135806020601f8201819004810201604051908101604052818152929190602084018383808284375094965050509235600160a060020a031692506109c7915050565b341561032257600080fd5b6100fb60048035602481019101356109f8565b341561034057600080fd5b610284610b9a565b61012560046024813581810190830135806020601f8201819004810201604051908101604052818152929190602084018383808284375094965050509235600160a060020a031692506100d7915050565b34156103a457600080fd5b6100fb600160a060020a0360043516610cdf565b60008054600160a060020a0316156103d2575060006103fe565b506000805473ffffffffffffffffffffffffffffffffffffffff1916600160a060020a03831617905560015b919050565b807fd05bfc2250abb0f8fd265a54c53a24359c5484af63cad2e4ce87c78ab751395a60405160405180910390a250565b817fd097e4d83d4e07fdd04ead2330f40bccf48350dd3f12caf1e36ef45049494c1782604051600160a060020a03909116815260200160405180910390a25050565b600080548190600160a060020a03166349752baf82604051602001526040518163ffffffff1660e060020a028152600401602060405180830381600087803b15156104bf57600080fd5b6102c65a03f115156104d057600080fd5b505050604051805160008054919350600160a060020a03808516935063ccc11f1192339291169063cb4e75bb90604051602001526040518163ffffffff1660e060020a028152600401602060405180830381600087803b151561053257600080fd5b6102c65a03f1151561054357600080fd5b5050506040518051905060006040516020015260405160e060020a63ffffffff8516028152600160a060020a0390921660048301526024820152604401602060405180830381600087803b151561059957600080fd5b6102c65a03f115156105aa57600080fd5b50505060405180519050156105d0576002805460ff191690556105cb610cf4565b600191505b5090565b60025460ff1681565b6000805433600160a060020a03908116911614156106045761060185858585610db7565b90505b949350505050565b6000805433600160a060020a03908116911614156106325761062f848484610f2c565b90505b9392505050565b807f0cb09dc71d57eeec2046f6854976717e4874a3cf2d6ddeddde337e5b6de6ba3160405160405180910390a250565b600080548190600160a060020a03166349752baf82604051602001526040518163ffffffff1660e060020a028152600401602060405180830381600087803b15156106b357600080fd5b6102c65a03f115156106c457600080fd5b505050604051805160008054919350600160a060020a03808516935063ccc11f1192339291169063cb4e75bb90604051602001526040518163ffffffff1660e060020a028152600401602060405180830381600087803b151561072657600080fd5b6102c65a03f1151561073757600080fd5b5050506040518051905060006040516020015260405160e060020a63ffffffff8516028152600160a060020a0390921660048301526024820152604401602060405180830381600087803b151561078d57600080fd5b6102c65a03f1151561079e57600080fd5b50505060405180519050156105d0576002805460ff191660011790556105cb61100a565b817f791b5fd6715e4832fb6052f31b1eba08447cceeced1bf87aeb13c242b7cef49282604051600160a060020a03909116815260200160405180910390a25050565b60008054819081908190600160a060020a03166349752baf82604051602001526040518163ffffffff1660e060020a028152600401602060405180830381600087803b151561085257600080fd5b6102c65a03f1151561086357600080fd5b505050604051805160008054919350600160a060020a03808516935063ccc11f1192339291169063cb4e75bb90604051602001526040518163ffffffff1660e060020a028152600401602060405180830381600087803b15156108c557600080fd5b6102c65a03f115156108d657600080fd5b5050506040518051905060006040516020015260405160e060020a63ffffffff8516028152600160a060020a0390921660048301526024820152604401602060405180830381600087803b151561092c57600080fd5b6102c65a03f1151561093d57600080fd5b50505060405180519050156109af57600092505b848310156109aa5785858481811061096557fe5b60209081029290920135600160a060020a0316600081815260019384905260409020805460ff191690931790925550915061099f82611066565b600190920191610951565b600193505b50505092915050565b600054600160a060020a031681565b6000805433600160a060020a03908116911614156109ef576109ec8686868686611139565b90505b95945050505050565b60008054819081908190600160a060020a03166349752baf82604051602001526040518163ffffffff1660e060020a028152600401602060405180830381600087803b1515610a4657600080fd5b6102c65a03f11515610a5757600080fd5b505050604051805160008054919350600160a060020a03808516935063ccc11f1192339291169063cb4e75bb90604051602001526040518163ffffffff1660e060020a028152600401602060405180830381600087803b1515610ab957600080fd5b6102c65a03f11515610aca57600080fd5b5050506040518051905060006040516020015260405160e060020a63ffffffff8516028152600160a060020a0390921660048301526024820152604401602060405180830381600087803b1515610b2057600080fd5b6102c65a03f11515610b3157600080fd5b50505060405180519050156109af57600092505b848310156109aa57858584818110610b5957fe5b60209081029290920135600160a060020a0316600081815260019093526040909220805460ff19169055509150610b8f826112cc565b600190920191610b45565b600080548190600160a060020a03166349752baf82604051602001526040518163ffffffff1660e060020a028152600401602060405180830381600087803b1515610be457600080fd5b6102c65a03f11515610bf557600080fd5b5050506040518051915050600160a060020a0381168063f07629f86000604051602001526040518163ffffffff1660e060020a028152600401602060405180830381600087803b1515610c4757600080fd5b6102c65a03f11515610c5857600080fd5b50505060405180519050600160a060020a03161415610c775730610cd9565b80600160a060020a031663f07629f86000604051602001526040518163ffffffff1660e060020a028152600401602060405180830381600087803b1515610cbd57600080fd5b6102c65a03f11515610cce57600080fd5b505050604051805190505b91505090565b60016020526000908152604090205460ff1681565b610cfc610b9a565b60008054600160a060020a03928316926322ccf6789291169063cb4e75bb90604051602001526040518163ffffffff1660e060020a028152600401602060405180830381600087803b1515610d5057600080fd5b6102c65a03f11515610d6157600080fd5b5050506040518051905060405160e060020a63ffffffff84160281526004810191909152602401600060405180830381600087803b1515610da157600080fd5b6102c65a03f11515610db257600080fd5b505050565b60025460009060ff16151561060457600160a060020a038516600090815260016020526040902054859060ff161515610f2357600160a060020a038316600090815260016020526040902054839060ff161515610f215760008054600160a060020a031690636a630ee7908990899089908990604051602001526040518563ffffffff1660e060020a0281526004018085600160a060020a0316600160a060020a031681526020018481526020018060200183600160a060020a0316600160a060020a03168152602001828103825284818151815260200191508051906020019080838360005b83811015610eb6578082015183820152602001610e9e565b50505050905090810190601f168015610ee35780820380516001836020036101000a031916815260200191505b5095505050505050602060405180830381600087803b1515610f0457600080fd5b6102c65a03f11515610f1557600080fd5b50505060405180519350505b505b50949350505050565b600160a060020a038316600090815260016020526040812054849060ff16151561100257600160a060020a038316600090815260016020526040902054839060ff1615156110005760008054600160a060020a031690637b7054c8908890889088906040516020015260405160e060020a63ffffffff8616028152600160a060020a03938416600482015260248101929092529091166044820152606401602060405180830381600087803b1515610fe357600080fd5b6102c65a03f11515610ff457600080fd5b50505060405180519350505b505b509392505050565b611012610b9a565b60008054600160a060020a0392831692637df5fd359291169063cb4e75bb90604051602001526040518163ffffffff1660e060020a028152600401602060405180830381600087803b1515610d5057600080fd5b61106e610b9a565b60008054600160a060020a039283169263339d8b459291169063cb4e75bb90604051602001526040518163ffffffff1660e060020a028152600401602060405180830381600087803b15156110c257600080fd5b6102c65a03f115156110d357600080fd5b505050604051805190508360405160e060020a63ffffffff85160281526004810192909252600160a060020a03166024820152604401600060405180830381600087803b151561112257600080fd5b6102c65a03f1151561113357600080fd5b50505050565b60025460009060ff1615156109ef57600160a060020a038616600090815260016020526040902054869060ff1615156112c257600160a060020a038616600090815260016020526040902054869060ff1615156112c057600160a060020a038416600090815260016020526040902054849060ff1615156112be5760008054600160a060020a03169063ec698a28908b908b908b908b908b906040516020015260405160e060020a63ffffffff8816028152600160a060020a0380871660048301908152868216602484015260448301869052908316608483015260a060648301908152909160a40184818151815260200191508051906020019080838360005b8381101561125257808201518382015260200161123a565b50505050905090810190601f16801561127f5780820380516001836020036101000a031916815260200191505b509650505050505050602060405180830381600087803b15156112a157600080fd5b6102c65a03f115156112b257600080fd5b50505060405180519450505b505b505b5095945050505050565b6112d4610b9a565b60008054600160a060020a0392831692638c8f48809291169063cb4e75bb90604051602001526040518163ffffffff1660e060020a028152600401602060405180830381600087803b15156110c257600080fd00a165627a7a72305820d31f99da7af4aa82e3fc254a75079d59934ae137b1ef9430d3d655c685580ee70029",
  "source": "pragma solidity ^0.4.11;\n\nimport \"./ChronoBankAssetInterface.sol\";\nimport {ChronoBankAssetProxyInterface as ChronoBankAssetProxy} from \"./ChronoBankAssetProxyInterface.sol\";\nimport {ChronoBankPlatformInterface as ChronoBankPlatform} from \"./ChronoBankPlatformInterface.sol\";\n\n/**\n * @title ChronoBank Asset implementation contract.\n *\n * Basic asset implementation contract, without any additional logic.\n * Every other asset implementation contracts should derive from this one.\n * Receives calls from the proxy, and calls back immediatly without arguments modification.\n *\n * Note: all the non constant functions return false instead of throwing in case if state change\n * didn't happen yet.\n */\ncontract ChronoBankAsset is ChronoBankAssetInterface {\n\n    // Assigned asset proxy contract, immutable.\n    ChronoBankAssetProxy public proxy;\n\n    // banned addresses\n    mapping (address => bool) public blacklist;\n\n    // stops asset transfers\n    bool public paused = false;\n\n    // restriction/Unrestriction events\n    event Restricted(bytes32 indexed symbol, address restricted);\n    event Unrestricted(bytes32 indexed symbol, address unrestricted);\n\n    // Paused/Unpaused events\n    event Paused(bytes32 indexed symbol);\n    event Unpaused(bytes32 indexed symbol);\n\n    /**\n     * Only assigned proxy is allowed to call.\n     */\n    modifier onlyProxy() {\n        if (proxy == msg.sender) {\n            _;\n        }\n    }\n\n    modifier onlyNotPaused() {\n        if (!paused) {\n            _;\n        }\n    }\n\n    modifier onlyAcceptable(address _address) {\n        if (!blacklist[_address]) {\n            _;\n        }\n    }\n\n    /**\n    *  Only assets's admins are allowed to execute\n    */\n    modifier onlyAuthorized() {\n        ChronoBankPlatform platform = ChronoBankPlatform(proxy.chronoBankPlatform());\n        if (platform.hasAssetRights(msg.sender, proxy.smbl())) {\n            _;\n        }\n    }\n\n    /**\n     * Sets asset proxy address.\n     *\n     * Can be set only once.\n     *\n     * @param _proxy asset proxy contract address.\n     *\n     * @return success.\n     * @dev function is final, and must not be overridden.\n     */\n    function init(ChronoBankAssetProxy _proxy) public returns(bool) {\n        if (address(proxy) != 0x0) {\n            return false;\n        }\n        proxy = _proxy;\n        return true;\n    }\n\n    /**\n    *  @dev Lifts the ban on transfers for given addresses\n    */\n    function restrict(address [] _restricted) external onlyAuthorized returns (bool) {\n        for (uint i = 0; i < _restricted.length; i++) {\n            address restricted = _restricted[i];\n            blacklist[restricted] = true;\n            _emitRestricted(restricted);\n        }\n        return true;\n    }\n\n    /**\n    *  @dev Revokes the ban on transfers for given addresses\n    */\n    function unrestrict(address [] _unrestricted) external onlyAuthorized returns (bool) {\n        for (uint i = 0; i < _unrestricted.length; i++) {\n            address unrestricted = _unrestricted[i];\n            delete blacklist[unrestricted];\n            _emitUnrestricted(unrestricted);\n        }\n        return true;\n    }\n\n    /**\n    * @dev called by the owner to pause, triggers stopped state\n    * Only admin is allowed to execute this method.\n    */\n    function pause() external onlyAuthorized returns (bool) {\n        paused = true;\n        _emitPaused();\n        return true;\n    }\n\n    /**\n    * @dev called by the owner to unpause, returns to normal state\n    * Only admin is allowed to execute this method.\n    */\n    function unpause() external onlyAuthorized returns (bool) {\n        paused = false;\n        _emitUnpaused();\n        return true;\n    }\n\n    /**\n     * Passes execution into virtual function.\n     *\n     * Can only be called by assigned asset proxy.\n     *\n     * @return success.\n     * @dev function is final, and must not be overridden.\n     */\n    function __transferWithReference(address _to, uint _value, string _reference, address _sender) public onlyProxy() returns(bool) {\n        return _transferWithReference(_to, _value, _reference, _sender);\n    }\n\n    /**\n     * Calls back without modifications if an asset is not stopped.\n     * Checks whether _from/_sender are not in blacklist.\n     *\n     * @return success.\n     * @dev function is virtual, and meant to be overridden.\n     */\n    function _transferWithReference(address _to, uint _value, string _reference, address _sender)\n    internal\n    onlyNotPaused\n    onlyAcceptable(_to)\n    onlyAcceptable(_sender)\n    returns(bool)\n    {\n        return proxy.__transferWithReference(_to, _value, _reference, _sender);\n    }\n\n    /**\n     * Passes execution into virtual function.\n     *\n     * Can only be called by assigned asset proxy.\n     *\n     * @return success.\n     * @dev function is final, and must not be overridden.\n     */\n    function __transferFromWithReference(address _from, address _to, uint _value, string _reference, address _sender) public onlyProxy() returns(bool) {\n        return _transferFromWithReference(_from, _to, _value, _reference, _sender);\n    }\n\n    /**\n     * Calls back without modifications if an asset is not stopped.\n     * Checks whether _from/_sender are not in blacklist.\n     *\n     * @return success.\n     * @dev function is virtual, and meant to be overridden.\n     */\n    function _transferFromWithReference(address _from, address _to, uint _value, string _reference, address _sender)\n    internal\n    onlyNotPaused\n    onlyAcceptable(_from)\n    onlyAcceptable(_to)\n    onlyAcceptable(_sender)\n    returns(bool)\n    {\n        return proxy.__transferFromWithReference(_from, _to, _value, _reference, _sender);\n    }\n\n    /**\n     * Passes execution into virtual function.\n     *\n     * Can only be called by assigned asset proxy.\n     *\n     * @return success.\n     * @dev function is final, and must not be overridden.\n     */\n    function __approve(address _spender, uint _value, address _sender) public onlyProxy() returns(bool) {\n        return _approve(_spender, _value, _sender);\n    }\n\n    /**\n     * Calls back without modifications.\n     *\n     * @return success.\n     * @dev function is virtual, and meant to be overridden.\n     */\n    function _approve(address _spender, uint _value, address _sender)\n    internal\n    onlyAcceptable(_spender)\n    onlyAcceptable(_sender)\n    returns(bool)\n    {\n        return proxy.__approve(_spender, _value, _sender);\n    }\n\n\n    function _emitRestricted(address _restricted) private {\n        ChronoBankAsset(eventsHistory()).emitRestricted(proxy.smbl(), _restricted);\n    }\n\n    function _emitUnrestricted(address _unrestricted) private {\n        ChronoBankAsset(eventsHistory()).emitUnrestricted(proxy.smbl(), _unrestricted);\n    }\n\n    function _emitPaused() private {\n        ChronoBankAsset(eventsHistory()).emitPaused(proxy.smbl());\n    }\n\n    function _emitUnpaused() private {\n        ChronoBankAsset(eventsHistory()).emitUnpaused(proxy.smbl());\n    }\n\n    function emitRestricted(bytes32 _symbol, address _restricted) public {\n        Restricted(_symbol, _restricted);\n    }\n\n    function emitUnrestricted(bytes32 _symbol, address _unrestricted) public {\n        Unrestricted(_symbol, _unrestricted);\n    }\n\n    function emitPaused(bytes32 _symbol) public {\n        Paused(_symbol);\n    }\n\n    function emitUnpaused(bytes32 _symbol) public {\n        Unpaused(_symbol);\n    }\n\n    function eventsHistory() public view returns (address) {\n        ChronoBankPlatform platform = ChronoBankPlatform(proxy.chronoBankPlatform());\n        return platform.eventsHistory() != address(platform) ? platform.eventsHistory() : this;\n    }\n}\n",
  "sourcePath": "/Users/alesanro/Documents/Projects/ChronoBank/SmartContracts/contracts/core/platform/ChronoBankAsset.sol",
  "compiler": {
    "name": "solc",
    "version": "0.4.19+commit.c4cbbb05.Emscripten.clang"
  },
  "schemaVersion": "2.0.0",
  "updatedAt": "2018-04-02T14:47:30.876Z"
}