{
  "contractName": "Clock",
  "abi": [
    {
      "constant": true,
      "inputs": [],
      "name": "time",
      "outputs": [
        {
          "name": "",
          "type": "uint256"
        }
      ],
      "payable": false,
      "stateMutability": "view",
      "type": "function"
    }
  ],
  "bytecode": "0x60606040523415600e57600080fd5b60958061001c6000396000f300606060405260043610603e5763ffffffff7c010000000000000000000000000000000000000000000000000000000060003504166316ada54781146043575b600080fd5b3415604d57600080fd5b60536065565b60405190815260200160405180910390f35b42905600a165627a7a723058203a7bfa6f84f39a2126413e1e876dd5166d3a6f7835e3821014e86013a7fba9d70029",
  "source": "pragma solidity ^0.4.11;\n\ncontract Clock {\n    function time() public view returns (uint) {\n        return now;\n    }\n}\n",
  "sourcePath": "/Users/alesanro/Documents/Projects/ChronoBank/SmartContracts/contracts/helpers/Clock.sol",
  "compiler": {
    "name": "solc",
    "version": "0.4.21+commit.dfe3193c.Emscripten.clang"
  },
  "schemaVersion": "2.0.0",
  "updatedAt": "2018-04-06T09:20:58.720Z"
}