{
  "contractName": "ContractsManager",
  "abi": [
    {
      "constant": false,
      "inputs": [],
      "name": "claimContractOwnership",
      "outputs": [
        {
          "name": "",
          "type": "bool"
        }
      ],
      "payable": false,
      "stateMutability": "nonpayable",
      "type": "function"
    },
    {
      "constant": false,
      "inputs": [
        {
          "name": "_to",
          "type": "address"
        }
      ],
      "name": "changeContractOwnership",
      "outputs": [
        {
          "name": "",
          "type": "bool"
        }
      ],
      "payable": false,
      "stateMutability": "nonpayable",
      "type": "function"
    },
    {
      "constant": true,
      "inputs": [],
      "name": "pendingContractOwner",
      "outputs": [
        {
          "name": "",
          "type": "address"
        }
      ],
      "payable": false,
      "stateMutability": "view",
      "type": "function"
    },
    {
      "constant": false,
      "inputs": [],
      "name": "destroy",
      "outputs": [],
      "payable": false,
      "stateMutability": "nonpayable",
      "type": "function"
    },
    {
      "constant": false,
      "inputs": [
        {
          "name": "_to",
          "type": "address"
        }
      ],
      "name": "transferContractOwnership",
      "outputs": [
        {
          "name": "",
          "type": "bool"
        }
      ],
      "payable": false,
      "stateMutability": "nonpayable",
      "type": "function"
    },
    {
      "constant": true,
      "inputs": [],
      "name": "contractOwner",
      "outputs": [
        {
          "name": "",
          "type": "address"
        }
      ],
      "payable": false,
      "stateMutability": "view",
      "type": "function"
    },
    {
      "constant": false,
      "inputs": [
        {
          "name": "tokens",
          "type": "address[]"
        },
        {
          "name": "_to",
          "type": "address"
        }
      ],
      "name": "withdrawnTokens",
      "outputs": [
        {
          "name": "",
          "type": "uint256"
        }
      ],
      "payable": false,
      "stateMutability": "nonpayable",
      "type": "function"
    },
    {
      "inputs": [
        {
          "name": "_store",
          "type": "address"
        },
        {
          "name": "_crate",
          "type": "bytes32"
        }
      ],
      "payable": false,
      "stateMutability": "nonpayable",
      "type": "constructor"
    },
    {
      "payable": false,
      "stateMutability": "nonpayable",
      "type": "fallback"
    },
    {
      "anonymous": false,
      "inputs": [
        {
          "indexed": true,
          "name": "contractAddress",
          "type": "address"
        },
        {
          "indexed": false,
          "name": "t",
          "type": "bytes32"
        }
      ],
      "name": "LogAddContract",
      "type": "event"
    },
    {
      "anonymous": false,
      "inputs": [
        {
          "indexed": true,
          "name": "contractAddress",
          "type": "address"
        },
        {
          "indexed": false,
          "name": "t",
          "type": "bytes32"
        }
      ],
      "name": "LogContractAddressChange",
      "type": "event"
    },
    {
      "anonymous": false,
      "inputs": [
        {
          "indexed": true,
          "name": "self",
          "type": "address"
        },
        {
          "indexed": false,
          "name": "errorCode",
          "type": "uint256"
        }
      ],
      "name": "Error",
      "type": "event"
    },
    {
      "constant": true,
      "inputs": [],
      "name": "getContractAddresses",
      "outputs": [
        {
          "name": "",
          "type": "address[]"
        }
      ],
      "payable": false,
      "stateMutability": "view",
      "type": "function"
    },
    {
      "constant": true,
      "inputs": [
        {
          "name": "_type",
          "type": "bytes32"
        }
      ],
      "name": "getContractAddressByType",
      "outputs": [
        {
          "name": "contractAddress",
          "type": "address"
        }
      ],
      "payable": false,
      "stateMutability": "view",
      "type": "function"
    },
    {
      "constant": false,
      "inputs": [
        {
          "name": "_contract",
          "type": "address"
        },
        {
          "name": "_type",
          "type": "bytes32"
        }
      ],
      "name": "addContract",
      "outputs": [
        {
          "name": "",
          "type": "uint256"
        }
      ],
      "payable": false,
      "stateMutability": "nonpayable",
      "type": "function"
    },
    {
      "constant": false,
      "inputs": [
        {
          "name": "_contract",
          "type": "address"
        }
      ],
      "name": "removeContract",
      "outputs": [
        {
          "name": "",
          "type": "uint256"
        }
      ],
      "payable": false,
      "stateMutability": "nonpayable",
      "type": "function"
    },
    {
      "constant": true,
      "inputs": [
        {
          "name": "_contract",
          "type": "address"
        }
      ],
      "name": "isExists",
      "outputs": [
        {
          "name": "",
          "type": "bool"
        }
      ],
      "payable": false,
      "stateMutability": "view",
      "type": "function"
    }
  ],
  "bytecode": "0x606060405234156200001057600080fd5b604051604080620012f7833981016040528080519190602001805160008054600160a060020a03191633600160a060020a03161790559150829050816200006860028383640100000000620000e9810262000ef31704565b50620000a6905060047f636f6e747261637473000000000000000000000000000000000000000000000064010000000062000f266200010f82021704565b620000e160077f636f6e747261637454797065730000000000000000000000000000000000000064010000000062000f346200012d82021704565b50506200028a565b8254600160a060020a031916600160a060020a0392909216919091178255600190910155565b62000129828264010000000062000f3e6200014782021704565b5050565b620001298282640100000000620010036200025282021704565b6200019e82826040519081527f636f756e7400000000000000000000000000000000000000000000000000000060208201526025016040518091039020620002526401000000000262001003176401000000009004565b620001f882600101826040519081527f696e64657865730000000000000000000000000000000000000000000000000060208201526027016040518091039020620002526401000000000262001003176401000000009004565b6200012982600201826040519081527f76616c756573000000000000000000000000000000000000000000000000000060208201526026016040518091039020620002526401000000000262001003176401000000009004565b81546200026e90826401000000006200101b6200027282021704565b9055565b811515806200027f575080155b156200012957600080fd5b61105d806200029a6000396000f3006060604052600436106100a05763ffffffff60e060020a6000350416634592cd1d81146100b0578063557f4bc9146100d75780635aa77d3c146100f657806383197ef014610125578063953874d21461013a578063a843c51f146101a0578063b7c46cd5146101bf578063bc657927146101f3578063c375c2ef14610209578063ce606ee014610228578063d8f9659b1461023b578063e0d4f1c314610295575b34156100ab57600080fd5b600080fd5b34156100bb57600080fd5b6100c36102b4565b604051901515815260200160405180910390f35b34156100e257600080fd5b6100c3600160a060020a036004351661030c565b341561010157600080fd5b61010961036b565b604051600160a060020a03909116815260200160405180910390f35b341561013057600080fd5b61013861037a565b005b341561014557600080fd5b61014d61039f565b60405160208082528190810183818151815260200191508051906020019060200280838360005b8381101561018c578082015183820152602001610174565b505050509050019250505060405180910390f35b34156101ab57600080fd5b6100c3600160a060020a03600435166103be565b34156101ca57600080fd5b6101e1600160a060020a036004351660243561044f565b60405190815260200160405180910390f35b34156101fe57600080fd5b610109600435610605565b341561021457600080fd5b6101e1600160a060020a036004351661061a565b341561023357600080fd5b61010961072f565b341561024657600080fd5b6101e1600460248135818101908301358060208181020160405190810160405280939291908181526020018383602002808284375094965050509235600160a060020a0316925061073e915050565b34156102a057600080fd5b6100c3600160a060020a0360043516610873565b60015460009033600160a060020a039081169116146102d557506000610309565b50600180546000805473ffffffffffffffffffffffffffffffffffffffff19908116600160a060020a038416179091551681555b90565b6000805433600160a060020a039081169116141561036657600160a060020a038216151561033c57506000610366565b506001805473ffffffffffffffffffffffffffffffffffffffff1916600160a060020a0383161781555b919050565b600154600160a060020a031681565b60005433600160a060020a039081169116141561039d5733600160a060020a0316ff5b565b6103a7610ee1565b6103b96002600463ffffffff61088816565b905090565b6000805433600160a060020a039081169116141561036657600160a060020a03821615156103ee57506000610366565b600154600160a060020a03161561041d576001805473ffffffffffffffffffffffffffffffffffffffff191690555b5060008054600160a060020a03831673ffffffffffffffffffffffffffffffffffffffff199091161790556001919050565b6000805433600160a060020a03908116911614806105235750600254600160a060020a031663481c6a756040518163ffffffff1660e060020a028152600401602060405180830381600087803b15156104a757600080fd5b5af115156104b457600080fd5b50505060405180519050600160a060020a03166395a078e83360405160e060020a63ffffffff8416028152600160a060020a039091166004820152602401602060405180830381600087803b151561050b57600080fd5b5af1151561051857600080fd5b505050604051805190505b156105ff5761053183610873565b15610548576105416127106108a9565b90506105ff565b61055b600260078463ffffffff6108ec16565b600160a060020a031615156105825761057d600260048563ffffffff61090116565b6105aa565b6105aa600461059a600260078663ffffffff6108ec16565b600291908663ffffffff61091a16565b6105be60026007848663ffffffff61093816565b82600160a060020a03167f78d9711b4e43a110a220145d4f6de39235c995d1f4a0054cd049d5273fe3faac8360405190815260200160405180910390a25060015b92915050565b60006105ff600260078463ffffffff6108ec16565b6000805433600160a060020a03908116911614806106ee5750600254600160a060020a031663481c6a756040518163ffffffff1660e060020a028152600401602060405180830381600087803b151561067257600080fd5b5af1151561067f57600080fd5b50505060405180519050600160a060020a03166395a078e83360405160e060020a63ffffffff8416028152600160a060020a039091166004820152602401602060405180830381600087803b15156106d657600080fd5b5af115156106e357600080fd5b505050604051805190505b15610366576106fc82610873565b15156107145761070d6127116108a9565b9050610366565b610727600260048463ffffffff61094d16565b506001919050565b600054600160a060020a031681565b6000805481908190819033600160a060020a039081169116141561086a57600092505b85518310156108655785838151811061077657fe5b90602001906020020151915081600160a060020a03166370a082313060405160e060020a63ffffffff8416028152600160a060020a039091166004820152602401602060405180830381600087803b15156107d057600080fd5b5af115156107dd57600080fd5b5050506040518051915050801561085a5781600160a060020a031663a9059cbb868360405160e060020a63ffffffff8516028152600160a060020a0390921660048301526024820152604401602060405180830381600087803b151561084257600080fd5b5af1151561084f57600080fd5b505050604051805150505b600190920191610761565b600193505b50505092915050565b60006105ff600260048463ffffffff61096116565b610890610ee1565b6108a261089d8484610977565b610993565b9392505050565b600033600160a060020a03167f9cf38cf2dbf9139f5c32639950507b10775fbbe0421f3e168bc2d1bb1ae3208c8360405190815260200160405180910390a25090565b60006108f9848484610a1d565b949350505050565b6109158383600160a060020a038416610aaa565b505050565b6109328484600160a060020a03808616908516610abf565b50505050565b610932848484600160a060020a038516610ad5565b6109158383600160a060020a038416610b63565b60006108f98484600160a060020a038516610b78565b61097f610ee1565b6108a2838360ea60020a621cd95d02610b8f565b61099b610ee1565b6109a3610ee1565b600083516040518059106109b45750595b90808252806020026020018201604052509150600090505b8351811015610a16578381815181106109e157fe5b906020019060200201518282815181106109f757fe5b600160a060020a039092166020928302909101909101526001016109cc565b5092915050565b825460018401548354600092600160a060020a0316916337d9d7fc9185604051918252602082015260409081019051809103902060405160e060020a63ffffffff851602815260048101929092526024820152604401602060405180830381600087803b1515610a8c57600080fd5b5af11515610a9957600080fd5b505050604051805195945050505050565b610915838360ea60020a621cd95d0284610c08565b610932848460ea60020a621cd95d028585610c63565b835460018501548454600160a060020a039092169163a14ff85791908560405191825260208201526040908101905180910390208460405160e060020a63ffffffff8616028152600481019390935260248301919091526044820152606401600060405180830381600087803b1515610b4d57600080fd5b5af11515610b5a57600080fd5b50505050505050565b610915838360ea60020a621cd95d0284610cc6565b60006108f9848460ea60020a621cd95d0285610d6b565b610b97610ee1565b600080610ba5868686610d87565b915081604051805910610bb55750595b90808252806020026020018201604052509250600090505b81811015610bff57610be186868684610d94565b838281518110610bed57fe5b60209081029091010152600101610bcd565b50509392505050565b6000610c1685858585610d6b565b15610c2057610c5c565b610c2b858585610d87565b6001019050610c408560028601858486610db1565b610c508560018601858585610db1565b610c5c85858584610dd5565b5050505050565b6000610c7186868686610d6b565b1515610c7c57610cbe565b610c8b86866001018686610e4d565b9050610c9d8660028701868486610db1565b610cad8660018701868585610db1565b610cbe866001870186866000610db1565b505050505050565b6000806000610cd787878787610d6b565b1515610ce257610b5a565b610ced878787610d87565b9250610cfe87600288018786610e4d565b9150610d0f87876001018787610e4d565b905082811015610d3957610d298760018801878585610db1565b610d398760028801878486610db1565b610d4a876001880187876000610db1565b610d5b876002880187866000610db1565b610b5a8787876000198701610dd5565b6000610d7c85856001018585610e4d565b151595945050505050565b60006108f9848484610e72565b6000610da885600286018560018601610e4d565b95945050505050565b610c5c85858585604051918252602082015260409081019051809103902084610ad5565b835460018501548454600160a060020a03909216916353e7168b91908560405191825260208201526040908101905180910390208460405160e060020a63ffffffff8616028152600481019390935260248301919091526044820152606401600060405180830381600087803b1515610b4d57600080fd5b6000610da8858585856040519182526020820152604090810190518091039020610a1d565b825460018401548354600092600160a060020a0316916353aa3f5e9185604051918252602082015260409081019051809103902060405160e060020a63ffffffff851602815260048101929092526024820152604401602060405180830381600087803b1515610a8c57600080fd5b60206040519081016040526000815290565b825473ffffffffffffffffffffffffffffffffffffffff1916600160a060020a0392909216919091178255600190910155565b610f308282610f3e565b5050565b610f308282611003565b610f7f82826040519081527f636f756e7400000000000000000000000000000000000000000000000000000060208201526025016040518091039020611003565b610fc382600101826040519081527f696e64657865730000000000000000000000000000000000000000000000000060208201526027016040518091039020611003565b610f3082600201826040519081527f76616c7565730000000000000000000000000000000000000000000000000000602082015260260160405180910390205b815461100f908261101b565b9055565b815461100f90825b81151580611027575080155b15610f3057600080fd00a165627a7a72305820eacde82e0142dc6f30ec6d273453c10c3e0e0050c1086657488c5c71c98d863e0029",
  "source": "/**\n * Copyright 2017–2018, LaborX PTY\n * Licensed under the AGPL Version 3 license.\n */\n\npragma solidity ^0.4.11;\n\nimport \"../common/Object.sol\";\nimport \"../storage/StorageAdapter.sol\";\nimport \"../common/OwnedInterface.sol\";\nimport \"./ContractsManagerInterface.sol\";\n\n/**\n*  @title ContractsManager\n*/\ncontract ContractsManager is Object, StorageAdapter, ContractsManagerInterface {\n    uint constant ERROR_CONTRACT_EXISTS = 10000;\n    uint constant ERROR_CONTRACT_NOT_EXISTS = 10001;\n\n    StorageInterface.AddressesSet contractsAddresses;\n    StorageInterface.Bytes32AddressMapping contractsTypes;\n\n    event LogAddContract(address indexed contractAddress, bytes32 t);\n    event LogContractAddressChange(address indexed contractAddress, bytes32 t);\n    event Error(address indexed self, uint errorCode);\n\n    /**\n    *  @notice Constructor that sets `storage` and `crate` to given values.\n    */\n    function ContractsManager(Storage _store, bytes32 _crate) StorageAdapter(_store, _crate) {\n        contractsAddresses.init('contracts');\n        contractsTypes.init('contractTypes');\n    }\n\n    /**\n    *   @dev Returns an array containing all contracts addresses.\n    *   @return Array of token addresses.\n    */\n    function getContractAddresses() constant returns (address[]) {\n        return store.get(contractsAddresses);\n    }\n\n    /**\n    *   @dev Returns a contracts address by given type.\n    *   @return contractAddress\n    */\n    function getContractAddressByType(bytes32 _type) constant returns (address contractAddress) {\n        return store.get(contractsTypes, _type);\n    }\n\n    /**\n    *  @dev Allow owner to add new contract\n    *\n    *  @param _contract contacts address\n    *  @param _type contracts type\n    *\n    *  @return result code, 1 if success, otherwise error code\n    */\n    function addContract(address _contract, bytes32 _type) onlyAllowed() returns (uint) {\n        if (isExists(_contract)) {\n            return emitError(ERROR_CONTRACT_EXISTS);\n        }\n\n        if (store.get(contractsTypes, _type) == 0x0) {\n            store.add(contractsAddresses, _contract);\n        } else {\n            store.set(contractsAddresses, store.get(contractsTypes, _type), _contract);\n        }\n\n        store.set(contractsTypes, _type, _contract);\n\n        LogAddContract(_contract, _type);\n        return OK;\n    }\n\n    /**\n    *  @dev Allow owner to add new contract\n    *\n    *  @param _contract contacts address\n    *\n    *  @return result code, 1 if success, otherwise error code\n    */\n    function removeContract(address _contract) onlyAllowed() returns (uint) {\n        if (!isExists(_contract)) {\n            return emitError(ERROR_CONTRACT_NOT_EXISTS);\n        }\n\n        store.remove(contractsAddresses, _contract);\n        //store.set(contractsTypes, _type, 0x0); TODO: ahiatsevich: remove type\n\n        return OK;\n    }\n\n    /**\n    *  @dev Tells whether a contract wit a given address exists.\n    *\n    *  @return `true` if a contract has been registers, otherwise `false`\n    */\n    function isExists(address _contract) constant returns (bool) {\n        return store.includes(contractsAddresses, _contract);\n    }\n\n    /**\n    *  @dev Util function which throws error event with a given error\n    */\n    function emitError(uint e) private returns (uint)  {\n        Error(msg.sender, e);\n        return e;\n    }\n\n    /**\n    *  @return true if `caller` is  a contact owner or authorized to make changes in Storage\n    */\n    modifier onlyAllowed() {\n        if (contractOwner == msg.sender ||\n                store.store.manager().hasAccess(msg.sender)) {\n            _;\n        }\n    }\n\n    /**\n    *  Default fallback function.\n    */\n    function() {\n        throw;\n    }\n}\n",
  "sourcePath": "/Users/mikefluff/Documents/Programming/Chronobank/test/SmartContracts/contracts/core/contracts/ContractsManager.sol",
  "compiler": {
    "name": "solc",
    "version": "0.4.21+commit.dfe3193c.Emscripten.clang"
  },
  "schemaVersion": "2.0.0",
  "updatedAt": "2018-04-11T08:31:35.733Z"
}