{
  "contractName": "CrowdsaleManagerEmitter",
  "abi": [
    {
      "anonymous": false,
      "inputs": [
        {
          "indexed": true,
          "name": "self",
          "type": "address"
        },
        {
          "indexed": true,
          "name": "creator",
          "type": "address"
        },
        {
          "indexed": false,
          "name": "symbol",
          "type": "bytes32"
        },
        {
          "indexed": false,
          "name": "crowdsale",
          "type": "address"
        }
      ],
      "name": "CrowdsaleCreated",
      "type": "event"
    },
    {
      "anonymous": false,
      "inputs": [
        {
          "indexed": true,
          "name": "self",
          "type": "address"
        },
        {
          "indexed": false,
          "name": "crowdsale",
          "type": "address"
        }
      ],
      "name": "CrowdsaleDeleted",
      "type": "event"
    },
    {
      "anonymous": false,
      "inputs": [
        {
          "indexed": true,
          "name": "self",
          "type": "address"
        },
        {
          "indexed": false,
          "name": "errorCode",
          "type": "uint256"
        }
      ],
      "name": "Error",
      "type": "event"
    },
    {
      "constant": false,
      "inputs": [
        {
          "name": "creator",
          "type": "address"
        },
        {
          "name": "symbol",
          "type": "bytes32"
        },
        {
          "name": "crowdsale",
          "type": "address"
        }
      ],
      "name": "emitCrowdsaleCreated",
      "outputs": [],
      "payable": false,
      "stateMutability": "nonpayable",
      "type": "function"
    },
    {
      "constant": false,
      "inputs": [
        {
          "name": "crowdsale",
          "type": "address"
        }
      ],
      "name": "emitCrowdsaleDeleted",
      "outputs": [],
      "payable": false,
      "stateMutability": "nonpayable",
      "type": "function"
    },
    {
      "constant": false,
      "inputs": [
        {
          "name": "errorCode",
          "type": "uint256"
        }
      ],
      "name": "emitError",
      "outputs": [],
      "payable": false,
      "stateMutability": "nonpayable",
      "type": "function"
    }
  ],
  "bytecode": "0x6060604052341561000f57600080fd5b6101e68061001e6000396000f3006060604052600436106100565763ffffffff7c010000000000000000000000000000000000000000000000000000000060003504166307a43948811461005b57806388df7f081461007c578063df26ca08146100a5575b600080fd5b341561006657600080fd5b61007a600160a060020a03600435166100bb565b005b341561008757600080fd5b61007a600160a060020a03600435811690602435906044351661010c565b34156100b057600080fd5b61007a60043561016f565b6100c36101b6565b600160a060020a03167f699a26ba1c584c971265ac63a760223314dfca6b4324db7107d1a507feafa32982604051600160a060020a03909116815260200160405180910390a250565b82600160a060020a031661011e6101b6565b600160a060020a03167f7426fc132caba2be6bfdce63e05224374c024756fbd57f886c45ffd4a54020d38484604051918252600160a060020a031660208201526040908101905180910390a3505050565b6101776101b6565b600160a060020a03167f9cf38cf2dbf9139f5c32639950507b10775fbbe0421f3e168bc2d1bb1ae3208c8260405190815260200160405180910390a250565b33905600a165627a7a723058202086bbddc427c8be8daf3d16afd018ee495f329085b910432936fec72aefbc620029",
  "source": "pragma solidity ^0.4.11;\n\nimport \"../core/event/MultiEventsHistoryAdapter.sol\";\n\ncontract CrowdsaleManagerEmitter is MultiEventsHistoryAdapter {\n    event CrowdsaleCreated(address indexed self, address indexed creator, bytes32 symbol, address crowdsale);\n    event CrowdsaleDeleted(address indexed self, address crowdsale);\n    event Error(address indexed self, uint errorCode);\n\n    function emitCrowdsaleCreated(address creator, bytes32 symbol, address crowdsale) {\n        CrowdsaleCreated(_self(), creator, symbol, crowdsale);\n    }\n\n    function emitCrowdsaleDeleted(address crowdsale) {\n        CrowdsaleDeleted(_self(), crowdsale);\n    }\n\n    function emitError(uint errorCode) {\n        Error(_self(), errorCode);\n    }\n}\n",
  "sourcePath": "/Users/ahiatsevich/Development/chronobank/SmartContracts/contracts/crowdsale/CrowdsaleManagerEmitter.sol",
  "compiler": {
    "name": "solc",
    "version": "0.4.21+commit.dfe3193c.Emscripten.clang"
  },
  "schemaVersion": "2.0.0",
  "updatedAt": "2018-04-05T14:52:03.706Z"
}