{
  "contractName": "CrowdsaleManager",
  "abi": [
    {
      "constant": false,
      "inputs": [
        {
          "name": "crowdsale",
          "type": "address"
        }
      ],
      "name": "emitCrowdsaleDeleted",
      "outputs": [],
      "payable": false,
      "stateMutability": "nonpayable",
      "type": "function"
    },
    {
      "constant": false,
      "inputs": [],
      "name": "claimContractOwnership",
      "outputs": [
        {
          "name": "",
          "type": "bool"
        }
      ],
      "payable": false,
      "stateMutability": "nonpayable",
      "type": "function"
    },
    {
      "constant": true,
      "inputs": [
        {
          "name": "_identifier",
          "type": "bytes32"
        }
      ],
      "name": "lookupManager",
      "outputs": [
        {
          "name": "manager",
          "type": "address"
        }
      ],
      "payable": false,
      "stateMutability": "view",
      "type": "function"
    },
    {
      "constant": true,
      "inputs": [],
      "name": "contractsManager",
      "outputs": [
        {
          "name": "",
          "type": "address"
        }
      ],
      "payable": false,
      "stateMutability": "view",
      "type": "function"
    },
    {
      "constant": false,
      "inputs": [
        {
          "name": "_to",
          "type": "address"
        }
      ],
      "name": "changeContractOwnership",
      "outputs": [
        {
          "name": "",
          "type": "bool"
        }
      ],
      "payable": false,
      "stateMutability": "nonpayable",
      "type": "function"
    },
    {
      "constant": true,
      "inputs": [],
      "name": "pendingContractOwner",
      "outputs": [
        {
          "name": "",
          "type": "address"
        }
      ],
      "payable": false,
      "stateMutability": "view",
      "type": "function"
    },
    {
      "constant": false,
      "inputs": [
        {
          "name": "_eventsHistory",
          "type": "address"
        }
      ],
      "name": "setEventsHistory",
      "outputs": [],
      "payable": false,
      "stateMutability": "nonpayable",
      "type": "function"
    },
    {
      "constant": false,
      "inputs": [
        {
          "name": "_contractsManager",
          "type": "address"
        }
      ],
      "name": "setContractsManager",
      "outputs": [],
      "payable": false,
      "stateMutability": "nonpayable",
      "type": "function"
    },
    {
      "constant": false,
      "inputs": [],
      "name": "destroy",
      "outputs": [],
      "payable": false,
      "stateMutability": "nonpayable",
      "type": "function"
    },
    {
      "constant": false,
      "inputs": [
        {
          "name": "creator",
          "type": "address"
        },
        {
          "name": "symbol",
          "type": "bytes32"
        },
        {
          "name": "crowdsale",
          "type": "address"
        }
      ],
      "name": "emitCrowdsaleCreated",
      "outputs": [],
      "payable": false,
      "stateMutability": "nonpayable",
      "type": "function"
    },
    {
      "constant": false,
      "inputs": [
        {
          "name": "_to",
          "type": "address"
        }
      ],
      "name": "transferContractOwnership",
      "outputs": [
        {
          "name": "",
          "type": "bool"
        }
      ],
      "payable": false,
      "stateMutability": "nonpayable",
      "type": "function"
    },
    {
      "constant": true,
      "inputs": [],
      "name": "contractOwner",
      "outputs": [
        {
          "name": "",
          "type": "address"
        }
      ],
      "payable": false,
      "stateMutability": "view",
      "type": "function"
    },
    {
      "constant": false,
      "inputs": [
        {
          "name": "tokens",
          "type": "address[]"
        },
        {
          "name": "_to",
          "type": "address"
        }
      ],
      "name": "withdrawnTokens",
      "outputs": [
        {
          "name": "",
          "type": "uint256"
        }
      ],
      "payable": false,
      "stateMutability": "nonpayable",
      "type": "function"
    },
    {
      "constant": false,
      "inputs": [
        {
          "name": "errorCode",
          "type": "uint256"
        }
      ],
      "name": "emitError",
      "outputs": [],
      "payable": false,
      "stateMutability": "nonpayable",
      "type": "function"
    },
    {
      "constant": true,
      "inputs": [
        {
          "name": "key",
          "type": "address"
        }
      ],
      "name": "isAuthorized",
      "outputs": [
        {
          "name": "",
          "type": "bool"
        }
      ],
      "payable": false,
      "stateMutability": "view",
      "type": "function"
    },
    {
      "constant": true,
      "inputs": [],
      "name": "getEventsHistory",
      "outputs": [
        {
          "name": "",
          "type": "address"
        }
      ],
      "payable": false,
      "stateMutability": "view",
      "type": "function"
    },
    {
      "inputs": [
        {
          "name": "_store",
          "type": "address"
        },
        {
          "name": "_crate",
          "type": "bytes32"
        }
      ],
      "payable": false,
      "stateMutability": "nonpayable",
      "type": "constructor"
    },
    {
      "anonymous": false,
      "inputs": [
        {
          "indexed": true,
          "name": "self",
          "type": "address"
        },
        {
          "indexed": true,
          "name": "creator",
          "type": "address"
        },
        {
          "indexed": false,
          "name": "symbol",
          "type": "bytes32"
        },
        {
          "indexed": false,
          "name": "crowdsale",
          "type": "address"
        }
      ],
      "name": "CrowdsaleCreated",
      "type": "event"
    },
    {
      "anonymous": false,
      "inputs": [
        {
          "indexed": true,
          "name": "self",
          "type": "address"
        },
        {
          "indexed": false,
          "name": "crowdsale",
          "type": "address"
        }
      ],
      "name": "CrowdsaleDeleted",
      "type": "event"
    },
    {
      "anonymous": false,
      "inputs": [
        {
          "indexed": true,
          "name": "self",
          "type": "address"
        },
        {
          "indexed": false,
          "name": "errorCode",
          "type": "uint256"
        }
      ],
      "name": "Error",
      "type": "event"
    },
    {
      "constant": false,
      "inputs": [
        {
          "name": "_contractsManager",
          "type": "address"
        }
      ],
      "name": "init",
      "outputs": [
        {
          "name": "",
          "type": "uint256"
        }
      ],
      "payable": false,
      "stateMutability": "nonpayable",
      "type": "function"
    },
    {
      "constant": false,
      "inputs": [
        {
          "name": "_creator",
          "type": "address"
        },
        {
          "name": "_symbol",
          "type": "bytes32"
        },
        {
          "name": "_factoryName",
          "type": "bytes32"
        }
      ],
      "name": "createCrowdsale",
      "outputs": [
        {
          "name": "",
          "type": "address"
        },
        {
          "name": "",
          "type": "uint256"
        }
      ],
      "payable": false,
      "stateMutability": "nonpayable",
      "type": "function"
    },
    {
      "constant": false,
      "inputs": [
        {
          "name": "crowdsale",
          "type": "address"
        }
      ],
      "name": "deleteCrowdsale",
      "outputs": [
        {
          "name": "",
          "type": "uint256"
        }
      ],
      "payable": false,
      "stateMutability": "nonpayable",
      "type": "function"
    },
    {
      "constant": true,
      "inputs": [
        {
          "name": "_factoryName",
          "type": "bytes32"
        }
      ],
      "name": "getCrowdsaleFactory",
      "outputs": [
        {
          "name": "",
          "type": "address"
        }
      ],
      "payable": false,
      "stateMutability": "view",
      "type": "function"
    }
  ],
  "bytecode": "0x606060405234156200001057600080fd5b604051604080620019c1833981016040528080519190602001805191508290508181818181620000516000838364010000000062001609620000ce82021704565b505060028054600160a060020a03338116600160a060020a03199283161790925560058054309093169290911691909117905550620000c69250600691507f636f6d7061696e7300000000000000000000000000000000000000000000000090506401000000006200162f620000f482021704565b505062000255565b8254600160a060020a031916600160a060020a0392909216919091178255600190910155565b6200010e82826401000000006200163d6200011282021704565b5050565b6200016982826040519081527f636f756e74000000000000000000000000000000000000000000000000000000602082015260250160405180910390206200021d6401000000000262001702176401000000009004565b620001c382600101826040519081527f696e646578657300000000000000000000000000000000000000000000000000602082015260270160405180910390206200021d6401000000000262001702176401000000009004565b6200010e82600201826040519081527f76616c7565730000000000000000000000000000000000000000000000000000602082015260260160405180910390206200021d6401000000000262001702176401000000009004565b81546200023990826401000000006200171a6200023d82021704565b9055565b811515806200024a575080155b156200010e57600080fd5b61175c80620002656000396000f3006060604052600436106100f85763ffffffff60e060020a60003504166307a4394881146100fd57806319ab453c1461011e5780634592cd1d1461014f5780634fe590121461017657806353253d31146101a8578063557f4bc9146101bb5780635aa77d3c146101da5780636521afd7146101ed578063690719ff1461020c57806371d3b5731461025357806383197ef01461027257806388df7f0814610285578063a843c51f146102ae578063ce606ee0146102cd578063d8f9659b146102e0578063df26ca081461033a578063e7c360c114610350578063eae224b614610366578063fe9fbb8014610385578063fff10aba146103a4575b600080fd5b341561010857600080fd5b61011c600160a060020a03600435166103b7565b005b341561012957600080fd5b61013d600160a060020a0360043516610408565b60405190815260200160405180910390f35b341561015a57600080fd5b610162610457565b604051901515815260200160405180910390f35b341561018157600080fd5b61018c6004356104a4565b604051600160a060020a03909116815260200160405180910390f35b34156101b357600080fd5b61018c61051c565b34156101c657600080fd5b610162600160a060020a036004351661052b565b34156101e557600080fd5b61018c610582565b34156101f857600080fd5b61011c600160a060020a0360043516610591565b341561021757600080fd5b610231600160a060020a03600435166024356044356105c7565b604051600160a060020a03909216825260208201526040908101905180910390f35b341561025e57600080fd5b61011c600160a060020a03600435166107f0565b341561027d57600080fd5b61011c610827565b341561029057600080fd5b61011c600160a060020a0360043581169060243590604435166108b0565b34156102b957600080fd5b610162600160a060020a0360043516610913565b34156102d857600080fd5b61018c61098c565b34156102eb57600080fd5b61013d600460248135818101908301358060208181020160405190810160405280939291908181526020018383602002808284375094965050509235600160a060020a0316925061099b915050565b341561034557600080fd5b61011c600435610ad2565b341561035b57600080fd5b61018c600435610b19565b341561037157600080fd5b61013d600160a060020a0360043516610b2a565b341561039057600080fd5b610162600160a060020a0360043516610d9c565b34156103af57600080fd5b61018c610e35565b6103bf610e44565b600160a060020a03167f699a26ba1c584c971265ac63a760223314dfca6b4324db7107d1a507feafa32982604051600160a060020a03909116815260200160405180910390a250565b60025460009033600160a060020a03908116911614156104525761044c827f43726f776473616c654d616e6167657200000000000000000000000000000000610e48565b50600190505b919050565b60035460009033600160a060020a03908116911614610478575060006104a1565b506003805460028054600160a060020a0319908116600160a060020a0384161790915516905560015b90565b600454600090600160a060020a031663bc6579278360405160e060020a63ffffffff84160281526004810191909152602401602060405180830381600087803b15156104ef57600080fd5b5af115156104fc57600080fd5b5050506040518051915050600160a060020a038116151561045257600080fd5b600454600160a060020a031681565b60025460009033600160a060020a039081169116141561045257600160a060020a038216151561055d57506000610452565b5060038054600160a060020a038316600160a060020a03199091161790556001919050565b600354600160a060020a031681565b60025433600160a060020a03908116911614156105c45760058054600160a060020a031916600160a060020a0383161790555b50565b60008060006105f57f4173736574734d616e61676572000000000000000000000000000000000000006104a4565b600160a060020a0316636bc8acf53360405160e060020a63ffffffff8416028152600160a060020a039091166004820152602401602060405180830381600087803b151561064257600080fd5b5af1151561064f57600080fd5b505050604051805190501515610664576107e7565b61066c61101f565b600160a060020a03166325742b46868860405160e060020a63ffffffff85160281526004810192909252600160a060020a03166024820152604401602060405180830381600087803b15156106c057600080fd5b5af115156106cd57600080fd5b5050506040518051905015156106f45760006106ea610bba61104f565b90935091506107e7565b6106fd84610b19565b600160a060020a031663f40444d78660405160e060020a63ffffffff84160281526004810191909152602401602060405180830381600087803b151561074257600080fd5b5af1151561074f57600080fd5b5050506040518051915050600160a060020a038116634592cd1d6040518163ffffffff1660e060020a028152600401602060405180830381600087803b151561079757600080fd5b5af115156107a457600080fd5b5050506040518051905015156107c15760006106ea610bb861104f565b6107d4600060068363ffffffff6110b416565b6107df8686836110cd565b806001925092505b50935093915050565b60025433600160a060020a03908116911614156105c45760048054600160a060020a038316600160a060020a031990911617905550565b60025433600160a060020a03908116911614156108ae57600454600160a060020a031663c375c2ef3060405160e060020a63ffffffff8416028152600160a060020a039091166004820152602401602060405180830381600087803b151561088e57600080fd5b5af1151561089b57600080fd5b50505060405180519050506108ae611149565b565b82600160a060020a03166108c2610e44565b600160a060020a03167f7426fc132caba2be6bfdce63e05224374c024756fbd57f886c45ffd4a54020d38484604051918252600160a060020a031660208201526040908101905180910390a3505050565b60025460009033600160a060020a039081169116141561045257600160a060020a038216151561094557506000610452565b600354600160a060020a0316156109675760038054600160a060020a03191690555b5060028054600160a060020a038316600160a060020a03199091161790556001919050565b600254600160a060020a031681565b60025460009081908190819033600160a060020a0390811691161415610ac957600092505b8551831015610ac4578583815181106109d557fe5b90602001906020020151915081600160a060020a03166370a082313060405160e060020a63ffffffff8416028152600160a060020a039091166004820152602401602060405180830381600087803b1515610a2f57600080fd5b5af11515610a3c57600080fd5b50505060405180519150508015610ab95781600160a060020a031663a9059cbb868360405160e060020a63ffffffff8516028152600160a060020a0390921660048301526024820152604401602060405180830381600087803b1515610aa157600080fd5b5af11515610aae57600080fd5b505050604051805150505b6001909201916109c0565b600193505b50505092915050565b610ada610e44565b600160a060020a03167f9cf38cf2dbf9139f5c32639950507b10775fbbe0421f3e168bc2d1bb1ae3208c8260405190815260200160405180910390a250565b6000610b24826104a4565b92915050565b6000610b557f4173736574734d616e61676572000000000000000000000000000000000000006104a4565b600160a060020a0316636bc8acf53360405160e060020a63ffffffff8416028152600160a060020a039091166004820152602401602060405180830381600087803b1515610ba257600080fd5b5af11515610baf57600080fd5b505050604051805190501515610bc457610452565b610bcc61101f565b600160a060020a03166325742b4683600160a060020a031663150704016040518163ffffffff1660e060020a028152600401602060405180830381600087803b1515610c1757600080fd5b5af11515610c2457600080fd5b505050604051805190508460405160e060020a63ffffffff85160281526004810192909252600160a060020a03166024820152604401602060405180830381600087803b1515610c7357600080fd5b5af11515610c8057600080fd5b505050604051805190501515610ca257610c9b610bba61104f565b9050610452565b610cb5600060068463ffffffff61116c16565b1515610cc657610c9b610bbb61104f565b81600160a060020a031663ecb70fb76040518163ffffffff1660e060020a028152600401602060405180830381600087803b1515610d0357600080fd5b5af11515610d1057600080fd5b505050604051805190501515610d2b57610c9b610bb861104f565b610d3e600060068463ffffffff61118a16565b81600160a060020a03166383197ef06040518163ffffffff1660e060020a028152600401600060405180830381600087803b1515610d7b57600080fd5b5af11515610d8857600080fd5b505050610d948261119e565b506001919050565b600080610dc87f557365724d616e616765720000000000000000000000000000000000000000006104a4565b905080600160a060020a0316632aa09e5a8460405160e060020a63ffffffff8416028152600160a060020a039091166004820152602401602060405180830381600087803b1515610e1857600080fd5b5af11515610e2557600080fd5b5050506040518051949350505050565b600554600160a060020a031690565b3390565b60025460009081908190819033600160a060020a03908116911614610e6c57600080fd5b600160a060020a0386161515610e8157600080fd5b600454600160a060020a0316158015935080610eab5750600454600160a060020a03878116911614155b15610ecc5760048054600160a060020a031916600160a060020a0388161790555b600454600160a060020a031691508163bc65792760405160e060020a63ffffffff83160281527f4d756c74694576656e7473486973746f727900000000000000000000000000006004820152602401602060405180830381600087803b1515610f3457600080fd5b5af11515610f4157600080fd5b5050506040518051915050600160a060020a03811615801590610f725750600554600160a060020a03828116911614155b15610f935760058054600160a060020a031916600160a060020a0383161790555b841561100d5781600160a060020a031663b7c46cd5308760405160e060020a63ffffffff8516028152600160a060020a0390921660048301526024820152604401602060405180830381600087803b1515610fed57600080fd5b5af11515610ffa57600080fd5b5050506040518051600114905061100d57fe5b8215610ac45760069695505050505050565b600061104a7f4173736574734d616e61676572000000000000000000000000000000000000006104a4565b905090565b6000611059610e35565b600160a060020a031663df26ca088360405160e060020a63ffffffff84160281526004810191909152602401600060405180830381600087803b151561109e57600080fd5b5af115156110ab57600080fd5b50929392505050565b6110c88383600160a060020a038416611206565b505050565b6110d5610e35565b600160a060020a03166388df7f0884848460405160e060020a63ffffffff8616028152600160a060020a03938416600482015260248101929092529091166044820152606401600060405180830381600087803b151561113457600080fd5b5af1151561114157600080fd5b505050505050565b60025433600160a060020a03908116911614156108ae5733600160a060020a0316ff5b60006111828484600160a060020a038516611232565b949350505050565b6110c88383600160a060020a038416611260565b6111a6610e35565b600160a060020a03166307a439488260405160e060020a63ffffffff8416028152600160a060020a039091166004820152602401600060405180830381600087803b15156111f357600080fd5b5af1151561120057600080fd5b50505050565b6110c883837f73657400000000000000000000000000000000000000000000000000000000008461128c565b600061118284847f7365740000000000000000000000000000000000000000000000000000000000856112e7565b6110c883837f736574000000000000000000000000000000000000000000000000000000000084611303565b600061129a858585856112e7565b156112a4576112e0565b6112af8585856113b1565b60010190506112c485600286018584866113be565b6112d485600186018585856113be565b6112e0858585846113e2565b5050505050565b60006112f885856001018585611467565b151595945050505050565b6000806000611314878787876112e7565b151561131f576113a8565b61132a8787876113b1565b925061133b87600288018786611467565b915061134c87876001018787611467565b9050828110156113765761136687600188018785856113be565b61137687600288018784866113be565b6113878760018801878760006113be565b6113988760028801878660006113be565b6113a887878760001987016113e2565b50505050505050565b6000611182848484611495565b6112e085858585604051918252602082015260409081019051809103902084611522565b835460018501548454600160a060020a03909216916353e7168b91908560405191825260208201526040908101905180910390208460405160e060020a63ffffffff8616028152600481019390935260248301919091526044820152606401600060405180830381600087803b151561145a57600080fd5b5af115156113a857600080fd5b600061148c85858585604051918252602082015260409081019051809103902061159a565b95945050505050565b825460018401548354600092600160a060020a0316916353aa3f5e9185604051918252602082015260409081019051809103902060405160e060020a63ffffffff851602815260048101929092526024820152604401602060405180830381600087803b151561150457600080fd5b5af1151561151157600080fd5b505050604051805195945050505050565b835460018501548454600160a060020a039092169163a14ff85791908560405191825260208201526040908101905180910390208460405160e060020a63ffffffff8616028152600481019390935260248301919091526044820152606401600060405180830381600087803b151561145a57600080fd5b825460018401548354600092600160a060020a0316916337d9d7fc9185604051918252602082015260409081019051809103902060405160e060020a63ffffffff851602815260048101929092526024820152604401602060405180830381600087803b151561150457600080fd5b8254600160a060020a031916600160a060020a0392909216919091178255600190910155565b611639828261163d565b5050565b61167e82826040519081527f636f756e7400000000000000000000000000000000000000000000000000000060208201526025016040518091039020611702565b6116c282600101826040519081527f696e64657865730000000000000000000000000000000000000000000000000060208201526027016040518091039020611702565b61163982600201826040519081527f76616c7565730000000000000000000000000000000000000000000000000000602082015260260160405180910390205b815461170e908261171a565b9055565b815461170e90825b81151580611726575080155b1561163957600080fd00a165627a7a723058206407e8287291b8d041fdc3f115815c7915a4e8c1c6fcad8095d54d88b29f09780029",
  "source": "pragma solidity ^0.4.11;\n\nimport \"../core/common/BaseManager.sol\";\nimport \"../assets/AssetsManagerInterface.sol\";\nimport \"./base/BaseCrowdsale.sol\";\nimport \"./CrowdsaleFactory.sol\";\nimport \"./CrowdsaleManagerEmitter.sol\";\n\n/**\n *  @title CrowdsaleManager\n *\n *  Is not designed for direct crowdsale management via external calls\n *  from web application.\n *\n *  Only AssetsManager is authorised to execute CrowdsaleManager's methods.\n */\ncontract CrowdsaleManager is CrowdsaleManagerEmitter, BaseManager {\n    uint constant ERROR_CROWDFUNDING_INVALID_INVOCATION = 3000;\n    uint constant ERROR_CROWDFUNDING_ADD_CONTRACT = 3001;\n    uint constant ERROR_CROWDFUNDING_NOT_ASSET_OWNER = 3002;\n    uint constant ERROR_CROWDFUNDING_DOES_NOT_EXIST = 3003;\n\n    StorageInterface.AddressesSet compains;\n\n    modifier onlyAssetAuthorizedContract() {\n        if (!TokenExtensionRegistry(lookupManager(\"AssetsManager\")).containsTokenExtension(msg.sender)) return;\n        _;\n    }\n\n    /**\n    *  Constructor\n    */\n    function CrowdsaleManager(Storage _store, bytes32 _crate) BaseManager(_store, _crate) {\n        compains.init('compains');\n    }\n\n    /**\n    *  Initialize\n    */\n    function init(address _contractsManager) onlyContractOwner returns (uint) {\n        BaseManager.init(_contractsManager, \"CrowdsaleManager\");\n\n        return OK;\n    }\n\n    /**\n    *  Creates Crowdsale with a type produced by CrowdsaleFactory with given _factoryName.\n    */\n    function createCrowdsale(address _creator, bytes32 _symbol, bytes32 _factoryName)\n    onlyAssetAuthorizedContract\n    returns (address, uint) {\n        if (!lookupAssetsManager().isAssetOwner(_symbol, _creator)) {\n            return (0x0, _emitError(ERROR_CROWDFUNDING_NOT_ASSET_OWNER));\n        }\n\n        address crowdsale = getCrowdsaleFactory(_factoryName).createCrowdsale(_symbol);\n\n        if (!BaseCrowdsale(crowdsale).claimContractOwnership()) {\n            return (0x0, _emitError(ERROR_CROWDFUNDING_INVALID_INVOCATION));\n        }\n\n        store.add(compains, crowdsale);\n        _emitCrowdsaleCreated(_creator, _symbol, crowdsale);\n\n        return (crowdsale, OK);\n    }\n\n    /**\n    *  Deletes Crowdsale if It is allowed.\n    */\n    function deleteCrowdsale(address crowdsale) onlyAssetAuthorizedContract returns (uint) {\n        if (!lookupAssetsManager().isAssetOwner(BaseCrowdsale(crowdsale).getSymbol(), crowdsale)) {\n            return _emitError(ERROR_CROWDFUNDING_NOT_ASSET_OWNER);\n        }\n\n        if (!store.includes(compains, crowdsale)) {\n            return _emitError(ERROR_CROWDFUNDING_DOES_NOT_EXIST);\n        }\n\n        if (!BaseCrowdsale(crowdsale).hasEnded()) {\n            return _emitError(ERROR_CROWDFUNDING_INVALID_INVOCATION);\n        }\n\n        store.remove(compains, crowdsale);\n\n        BaseCrowdsale(crowdsale).destroy(); // TODO: @ahiatsevich refund to CrowdsaleManager??\n\n        _emitCrowdsaleDeleted(crowdsale);\n        return OK;\n    }\n\n    /**\n    *  Returns CrowdsaleFactory by given _factoryName.\n    */\n    function getCrowdsaleFactory(bytes32 _factoryName) constant returns (CrowdsaleFactory) {\n        return CrowdsaleFactory(lookupManager(_factoryName));\n    }\n\n    /**\n    *  Returns AssetsManager.\n    */\n    function lookupAssetsManager() internal constant returns (AssetsManagerInterface) {\n        return AssetsManagerInterface(lookupManager(\"AssetsManager\"));\n    }\n\n    function _emitCrowdsaleCreated(address creator, bytes32 symbol, address crowdsale) internal {\n        CrowdsaleManager(getEventsHistory()).emitCrowdsaleCreated(creator, symbol, crowdsale);\n    }\n\n    function _emitCrowdsaleDeleted(address crowdsale) internal {\n        CrowdsaleManager(getEventsHistory()).emitCrowdsaleDeleted(crowdsale);\n    }\n\n    function _emitError(uint error) internal returns (uint) {\n        CrowdsaleManager(getEventsHistory()).emitError(error);\n        return error;\n    }\n}\n",
  "sourcePath": "/Users/ahiatsevich/Development/chronobank/SmartContracts/contracts/crowdsale/CrowdsaleManager.sol",
  "compiler": {
    "name": "solc",
    "version": "0.4.21+commit.dfe3193c.Emscripten.clang"
  },
  "schemaVersion": "2.0.0",
  "updatedAt": "2018-04-05T14:52:03.489Z"
}