{
  "contractName": "CryptocomparePriceTicker",
  "abi": [
    {
      "constant": false,
      "inputs": [],
      "name": "claimContractOwnership",
      "outputs": [
        {
          "name": "",
          "type": "bool"
        }
      ],
      "payable": false,
      "stateMutability": "nonpayable",
      "type": "function"
    },
    {
      "constant": false,
      "inputs": [
        {
          "name": "_to",
          "type": "address"
        }
      ],
      "name": "changeContractOwnership",
      "outputs": [
        {
          "name": "",
          "type": "bool"
        }
      ],
      "payable": false,
      "stateMutability": "nonpayable",
      "type": "function"
    },
    {
      "constant": true,
      "inputs": [],
      "name": "pendingContractOwner",
      "outputs": [
        {
          "name": "",
          "type": "address"
        }
      ],
      "payable": false,
      "stateMutability": "view",
      "type": "function"
    },
    {
      "constant": false,
      "inputs": [],
      "name": "destroy",
      "outputs": [],
      "payable": false,
      "stateMutability": "nonpayable",
      "type": "function"
    },
    {
      "constant": false,
      "inputs": [
        {
          "name": "_to",
          "type": "address"
        }
      ],
      "name": "transferContractOwnership",
      "outputs": [
        {
          "name": "",
          "type": "bool"
        }
      ],
      "payable": false,
      "stateMutability": "nonpayable",
      "type": "function"
    },
    {
      "constant": true,
      "inputs": [],
      "name": "contractOwner",
      "outputs": [
        {
          "name": "",
          "type": "address"
        }
      ],
      "payable": false,
      "stateMutability": "view",
      "type": "function"
    },
    {
      "constant": false,
      "inputs": [
        {
          "name": "tokens",
          "type": "address[]"
        },
        {
          "name": "_to",
          "type": "address"
        }
      ],
      "name": "withdrawnTokens",
      "outputs": [
        {
          "name": "",
          "type": "uint256"
        }
      ],
      "payable": false,
      "stateMutability": "nonpayable",
      "type": "function"
    },
    {
      "anonymous": false,
      "inputs": [
        {
          "indexed": false,
          "name": "initiator",
          "type": "address"
        },
        {
          "indexed": true,
          "name": "fsym",
          "type": "bytes32"
        },
        {
          "indexed": true,
          "name": "tsym",
          "type": "bytes32"
        },
        {
          "indexed": true,
          "name": "updateTime",
          "type": "uint256"
        },
        {
          "indexed": false,
          "name": "exchangePrice",
          "type": "uint256"
        },
        {
          "indexed": false,
          "name": "rateDecimals",
          "type": "uint256"
        }
      ],
      "name": "ExchangePriceUpdated",
      "type": "event"
    },
    {
      "constant": true,
      "inputs": [
        {
          "name": "_fsym",
          "type": "bytes32"
        },
        {
          "name": "_tsym",
          "type": "bytes32"
        }
      ],
      "name": "isPriceAvailable",
      "outputs": [
        {
          "name": "",
          "type": "bool"
        }
      ],
      "payable": false,
      "stateMutability": "view",
      "type": "function"
    },
    {
      "constant": true,
      "inputs": [
        {
          "name": "_fsym",
          "type": "bytes32"
        },
        {
          "name": "_tsym",
          "type": "bytes32"
        }
      ],
      "name": "price",
      "outputs": [
        {
          "name": "",
          "type": "uint256"
        }
      ],
      "payable": false,
      "stateMutability": "view",
      "type": "function"
    },
    {
      "constant": false,
      "inputs": [
        {
          "name": "_fsym",
          "type": "bytes32"
        },
        {
          "name": "_tsym",
          "type": "bytes32"
        }
      ],
      "name": "requestPrice",
      "outputs": [
        {
          "name": "",
          "type": "bytes32"
        },
        {
          "name": "",
          "type": "uint256"
        }
      ],
      "payable": true,
      "stateMutability": "payable",
      "type": "function"
    },
    {
      "constant": false,
      "inputs": [
        {
          "name": "_queryId",
          "type": "bytes32"
        },
        {
          "name": "_result",
          "type": "string"
        }
      ],
      "name": "__callback",
      "outputs": [],
      "payable": false,
      "stateMutability": "nonpayable",
      "type": "function"
    }
  ],
  "bytecode": "0x606060405260008054600160a060020a033316600160a060020a03199091161790556107ef806100306000396000f3006060604052600436106100955763ffffffff60e060020a60003504166306915ba3811461009a57806327dc297e146100c05780634592cd1d14610118578063557f4bc91461013f5780635aa77d3c1461015e5780637d5ecbab1461018d57806383197ef0146101b8578063a843c51f146101cb578063ce606ee0146101ea578063d8f9659b146101fd578063e5a59e0714610257575b600080fd5b6100a8600435602435610270565b60405191825260208201526040908101905180910390f35b34156100cb57600080fd5b610116600480359060446024803590810190830135806020601f8201819004810201604051908101604052818152929190602084018383808284375094965061009595505050505050565b005b341561012357600080fd5b61012b6102ef565b604051901515815260200160405180910390f35b341561014a57600080fd5b61012b600160a060020a0360043516610347565b341561016957600080fd5b6101716103a6565b604051600160a060020a03909116815260200160405180910390f35b341561019857600080fd5b6101a66004356024356103b5565b60405190815260200160405180910390f35b34156101c357600080fd5b610116610430565b34156101d657600080fd5b61012b600160a060020a0360043516610455565b34156101f557600080fd5b6101716104e6565b341561020857600080fd5b6101a6600460248135818101908301358060208181020160405190810160405280939291908181526020018383602002808284375094965050509235600160a060020a031692506104f5915050565b341561026257600080fd5b61012b60043560243561062a565b60008060008061028086866106a5565b1561028757fe5b8585141561029d5760009350615dc492506102e6565b6102a7868661062a565b156102ba5760009350615dc492506102e6565b6102c5868633610777565b9092509050600181146102de57600093509150816102e6565b816001935093505b50509250929050565b60015460009033600160a060020a0390811691161461031057506000610344565b50600180546000805473ffffffffffffffffffffffffffffffffffffffff19908116600160a060020a038416179091551681555b90565b6000805433600160a060020a03908116911614156103a157600160a060020a0382161515610377575060006103a1565b506001805473ffffffffffffffffffffffffffffffffffffffff1916600160a060020a0383161781555b919050565b600154600160a060020a031681565b60006103bf6107ac565b6103c984846106a5565b156103d75760019150610429565b6002600085856040519182526020820152604090810190519081900390208152602081019190915260409081016000209080519081016040528154815260019091015460208201529050601281510a91505b5092915050565b60005433600160a060020a03908116911614156104535733600160a060020a0316ff5b565b6000805433600160a060020a03908116911614156103a157600160a060020a0382161515610485575060006103a1565b600154600160a060020a0316156104b4576001805473ffffffffffffffffffffffffffffffffffffffff191690555b5060008054600160a060020a03831673ffffffffffffffffffffffffffffffffffffffff199091161790556001919050565b600054600160a060020a031681565b6000805481908190819033600160a060020a039081169116141561062157600092505b855183101561061c5785838151811061052d57fe5b90602001906020020151915081600160a060020a03166370a082313060405160e060020a63ffffffff8416028152600160a060020a039091166004820152602401602060405180830381600087803b151561058757600080fd5b5af1151561059457600080fd5b505050604051805191505080156106115781600160a060020a031663a9059cbb868360405160e060020a63ffffffff8516028152600160a060020a0390921660048301526024820152604401602060405180830381600087803b15156105f957600080fd5b5af1151561060657600080fd5b505050604051805150505b600190920191610518565b600193505b50505092915050565b60006106346107ac565b61063e84846106a5565b1561064c5760019150610429565b600260008585604051918252602082015260409081019051908190039020815260208101919091526040908101600020908051908101604052815481526001909101546020820190815290915042905110949350505050565b6000828214156106b757506001610771565b7f45746865720000000000000000000000000000000000000000000000000000008314801561070557507f455448000000000000000000000000000000000000000000000000000000000082145b1561071257506001610771565b7f45544800000000000000000000000000000000000000000000000000000000008314801561076057507f457468657200000000000000000000000000000000000000000000000000000082145b1561076d57506001610771565b5060005b92915050565b60008061078485856106a5565b1561078b57fe5b600160a060020a038316151561079d57fe5b50600094615dc4945092505050565b6040805190810160405260008082526020820152905600a165627a7a7230582020197a2a5447b352e6279692ea41f6757eb42b7f69395447771dc55ba3a0e2cd0029",
  "source": "pragma solidity ^0.4.11;\n\nimport \"../../core/common/Object.sol\";\nimport \"../../priceticker/PriceTicker.sol\";\n\n/**\n*  @title CryptoCompare Price Ticker\n*/\ncontract CryptocomparePriceTicker is PriceTicker, Object {\n    uint constant EXCHANGE_RATE_DECIMALS = 18;\n    uint constant TTL = 60000;\n\n    struct ExchangePrice {\n        uint rate;\n        uint expiry;\n    }\n\n    struct Query {\n        address sender;\n        bytes32 hash;\n    }\n\n    /* bytes32(from, to) -> price * 10**EXCHANGE_RATE_DECIMALS */\n    mapping (bytes32 => ExchangePrice) exchangePrices;\n    /* query id -> original sender */\n    mapping (bytes32 => Query) queries;\n\n    /**\n    *  Only Oraclize access rights checks\n    */\n    modifier onlyOraclize() {\n        _;\n    }\n\n    /**\n    *  Implement PriceTicker interface.\n    */\n    function isPriceAvailable(bytes32 _fsym, bytes32 _tsym) constant returns (bool) {\n        if (isEquivalentSymbol(_fsym, _tsym)) return true;\n\n        ExchangePrice memory exchangePrice = exchangePrices[sha3(_fsym, _tsym)];\n        return exchangePrice.expiry < now;\n    }\n\n    /**\n    *  Implement PriceTicker interface.\n    */\n    function price(bytes32 _fsym, bytes32 _tsym) constant returns (uint) {\n        if (isEquivalentSymbol(_fsym, _tsym)) return (1 ** 18);\n\n        ExchangePrice memory exchangePrice = exchangePrices[sha3(_fsym, _tsym)];\n        return (exchangePrice.rate ** EXCHANGE_RATE_DECIMALS);\n    }\n\n    /**\n    *  Implement PriceTicker interface.\n    */\n    function requestPrice(bytes32 _fsym, bytes32 _tsym) payable returns (bytes32, uint) {\n        assert(!isEquivalentSymbol(_fsym, _tsym));\n\n        if (_fsym == _tsym) {\n            return (0x0, PRICE_TICKER_INVALID_INVOCATION);\n        }\n\n        if (isPriceAvailable(_fsym, _tsym)) {\n            return (0x0, PRICE_TICKER_INVALID_INVOCATION);\n        }\n\n        var (queryId, resultCode) = updatePrice(_fsym, _tsym, msg.sender);\n        if (resultCode != OK) {\n            return (0x0, resultCode);\n        }\n\n        return (queryId, OK);\n    }\n\n    /**\n    *  Oraclize query callback.\n    */\n    function __callback(bytes32 _queryId, string _result) onlyOraclize {\n        revert();\n    }\n\n    /**\n    *\n    */\n    function updatePrice(bytes32 _fsym, bytes32 _tsym, address _sender) internal returns (bytes32, uint) {\n        assert(!isEquivalentSymbol(_fsym, _tsym));\n        assert(_sender != 0x0);\n\n        return (0x0, PRICE_TICKER_INVALID_INVOCATION);\n    }\n\n    function isEquivalentSymbol(bytes32 _fsym, bytes32 _tsym) internal constant returns (bool) {\n        if (_fsym == _tsym) return true;\n        if (_fsym == \"Ether\" && _tsym == \"ETH\") return true;\n        if (_fsym == \"ETH\" && _tsym == \"Ether\") return true;\n\n        return false;\n    }\n}\n",
  "sourcePath": "/Users/alesanro/Documents/Projects/ChronoBank/SmartContracts/contracts/crowdsale/pricetickers/CryptocomparePriceTicker.sol",
  "compiler": {
    "name": "solc",
    "version": "0.4.21+commit.dfe3193c.Emscripten.clang"
  },
  "schemaVersion": "2.0.0",
  "updatedAt": "2018-04-06T09:20:58.642Z"
}