{
  "contractName": "Deposits",
  "abi": [
    {
      "constant": false,
      "inputs": [],
      "name": "claimContractOwnership",
      "outputs": [
        {
          "name": "",
          "type": "bool"
        }
      ],
      "payable": false,
      "stateMutability": "nonpayable",
      "type": "function"
    },
    {
      "constant": true,
      "inputs": [
        {
          "name": "_identifier",
          "type": "bytes32"
        }
      ],
      "name": "lookupManager",
      "outputs": [
        {
          "name": "manager",
          "type": "address"
        }
      ],
      "payable": false,
      "stateMutability": "view",
      "type": "function"
    },
    {
      "constant": true,
      "inputs": [],
      "name": "contractsManager",
      "outputs": [
        {
          "name": "",
          "type": "address"
        }
      ],
      "payable": false,
      "stateMutability": "view",
      "type": "function"
    },
    {
      "constant": false,
      "inputs": [
        {
          "name": "_to",
          "type": "address"
        }
      ],
      "name": "changeContractOwnership",
      "outputs": [
        {
          "name": "",
          "type": "bool"
        }
      ],
      "payable": false,
      "stateMutability": "nonpayable",
      "type": "function"
    },
    {
      "constant": true,
      "inputs": [],
      "name": "pendingContractOwner",
      "outputs": [
        {
          "name": "",
          "type": "address"
        }
      ],
      "payable": false,
      "stateMutability": "view",
      "type": "function"
    },
    {
      "constant": false,
      "inputs": [
        {
          "name": "_eventsHistory",
          "type": "address"
        }
      ],
      "name": "setEventsHistory",
      "outputs": [],
      "payable": false,
      "stateMutability": "nonpayable",
      "type": "function"
    },
    {
      "constant": false,
      "inputs": [
        {
          "name": "_contractsManager",
          "type": "address"
        }
      ],
      "name": "setContractsManager",
      "outputs": [],
      "payable": false,
      "stateMutability": "nonpayable",
      "type": "function"
    },
    {
      "constant": false,
      "inputs": [],
      "name": "destroy",
      "outputs": [],
      "payable": false,
      "stateMutability": "nonpayable",
      "type": "function"
    },
    {
      "constant": false,
      "inputs": [
        {
          "name": "_to",
          "type": "address"
        }
      ],
      "name": "transferContractOwnership",
      "outputs": [
        {
          "name": "",
          "type": "bool"
        }
      ],
      "payable": false,
      "stateMutability": "nonpayable",
      "type": "function"
    },
    {
      "constant": true,
      "inputs": [],
      "name": "contractOwner",
      "outputs": [
        {
          "name": "",
          "type": "address"
        }
      ],
      "payable": false,
      "stateMutability": "view",
      "type": "function"
    },
    {
      "constant": false,
      "inputs": [
        {
          "name": "tokens",
          "type": "address[]"
        },
        {
          "name": "_to",
          "type": "address"
        }
      ],
      "name": "withdrawnTokens",
      "outputs": [
        {
          "name": "",
          "type": "uint256"
        }
      ],
      "payable": false,
      "stateMutability": "nonpayable",
      "type": "function"
    },
    {
      "constant": true,
      "inputs": [
        {
          "name": "key",
          "type": "address"
        }
      ],
      "name": "isAuthorized",
      "outputs": [
        {
          "name": "",
          "type": "bool"
        }
      ],
      "payable": false,
      "stateMutability": "view",
      "type": "function"
    },
    {
      "constant": true,
      "inputs": [],
      "name": "getEventsHistory",
      "outputs": [
        {
          "name": "",
          "type": "address"
        }
      ],
      "payable": false,
      "stateMutability": "view",
      "type": "function"
    },
    {
      "inputs": [
        {
          "name": "_store",
          "type": "address"
        },
        {
          "name": "_crate",
          "type": "bytes32"
        }
      ],
      "payable": false,
      "stateMutability": "nonpayable",
      "type": "constructor"
    },
    {
      "constant": true,
      "inputs": [
        {
          "name": "_address",
          "type": "address"
        }
      ],
      "name": "depositBalance",
      "outputs": [
        {
          "name": "",
          "type": "uint256"
        }
      ],
      "payable": false,
      "stateMutability": "view",
      "type": "function"
    }
  ],
  "bytecode": "0x606060405234156200001057600080fd5b60405160408062001215833981016040528080519190602001805191508290508181818181620000516000838364010000000062000b4d6200023082021704565b505060028054600160a060020a03338116600160a060020a03199283161790925560058054309093169290911691909117905550620000c69250600691507f7368617265686f6c646572730000000000000000000000000000000000000000905064010000000062000b736200025682021704565b62000101600b7f6465706f7369747300000000000000000000000000000000000000000000000064010000000062000b816200027482021704565b6200013c60107f6465706f736974734964436f756e74657200000000000000000000000000000064010000000062000b8b6200028e82021704565b6200017760117f616d6f756e74730000000000000000000000000000000000000000000000000064010000000062000b9b620002ae82021704565b620001b260127f74696d657374616d70730000000000000000000000000000000000000000000064010000000062000b9b620002ae82021704565b620001ed60137f746f74616c53686172657353746f72616765000000000000000000000000000064010000000062000b8b6200028e82021704565b6200022860147f736861726573436f6e747261637453746f72616765000000000000000000000064010000000062000b8b6200028e82021704565b50506200049f565b8254600160a060020a031916600160a060020a0392909216919091178255600190910155565b62000270828264010000000062000bb1620002c882021704565b5050565b62000270828264010000000062000b736200025682021704565b8154620002aa908264010000000062000d0c6200048782021704565b9055565b62000270828264010000000062000b8b6200028e82021704565b6200031f82826040519081527f75696e742f636f756e74000000000000000000000000000000000000000000006020820152602a0160405180910390206200028e6401000000000262000b8b176401000000009004565b6200037982600101826040519081527f75696e742f6669727374000000000000000000000000000000000000000000006020820152602a0160405180910390206200028e6401000000000262000b8b176401000000009004565b620003d382600201826040519081527f75696e742f6c6173740000000000000000000000000000000000000000000000602082015260290160405180910390206200028e6401000000000262000b8b176401000000009004565b6200042d82600301826040519081527f75696e742f6e6578740000000000000000000000000000000000000000000000602082015260290160405180910390206200028e6401000000000262000b8b176401000000009004565b6200027082600401826040519081527f75696e742f707265760000000000000000000000000000000000000000000000602082015260290160405180910390206200028e6401000000000262000b8b176401000000009004565b8115158062000494575080155b156200027057600080fd5b610d6680620004af6000396000f3006060604052600436106100b65763ffffffff60e060020a6000350416634592cd1d81146100bb5780634fe59012146100e257806353253d3114610114578063557f4bc9146101275780635aa77d3c146101465780636521afd71461015957806371d3b5731461017a57806383197ef014610199578063956501bb146101ac578063a843c51f146101dd578063ce606ee0146101fc578063d8f9659b1461020f578063fe9fbb8014610269578063fff10aba14610288575b600080fd5b34156100c657600080fd5b6100ce61029b565b604051901515815260200160405180910390f35b34156100ed57600080fd5b6100f86004356102e8565b604051600160a060020a03909116815260200160405180910390f35b341561011f57600080fd5b6100f8610371565b341561013257600080fd5b6100ce600160a060020a0360043516610380565b341561015157600080fd5b6100f86103d7565b341561016457600080fd5b610178600160a060020a03600435166103e6565b005b341561018557600080fd5b610178600160a060020a036004351661041c565b34156101a457600080fd5b610178610453565b34156101b757600080fd5b6101cb600160a060020a03600435166104e9565b60405190815260200160405180910390f35b34156101e857600080fd5b6100ce600160a060020a0360043516610575565b341561020757600080fd5b6100f86105ee565b341561021a57600080fd5b6101cb600460248135818101908301358060208181020160405190810160405280939291908181526020018383602002808284375094965050509235600160a060020a031692506105fd915050565b341561027457600080fd5b6100ce600160a060020a036004351661074e565b341561029357600080fd5b6100f86107f4565b60035460009033600160a060020a039081169116146102bc575060006102e5565b506003805460028054600160a060020a0319908116600160a060020a0384161790915516905560015b90565b600454600090600160a060020a031663bc65792783836040516020015260405160e060020a63ffffffff84160281526004810191909152602401602060405180830381600087803b151561033b57600080fd5b6102c65a03f1151561034c57600080fd5b5050506040518051915050600160a060020a038116151561036c57600080fd5b919050565b600454600160a060020a031681565b60025460009033600160a060020a039081169116141561036c57600160a060020a03821615156103b25750600061036c565b5060038054600160a060020a038316600160a060020a03199091161790556001919050565b600354600160a060020a031681565b60025433600160a060020a03908116911614156104195760058054600160a060020a031916600160a060020a0383161790555b50565b60025433600160a060020a03908116911614156104195760048054600160a060020a038316600160a060020a031990911617905550565b60025433600160a060020a03908116911614156104e757600454600160a060020a031663c375c2ef3060006040516020015260405160e060020a63ffffffff8416028152600160a060020a039091166004820152602401602060405180830381600087803b15156104c357600080fd5b6102c65a03f115156104d457600080fd5b50505060405180519050506104e7610803565b565b6000806104f4610b26565b60008061051281600b600160a060020a03891663ffffffff61082616565b9250600091505b61052c6000600b8563ffffffff61084316565b1561056b5761055a60118761054a6000600b8863ffffffff61085016565b600092919063ffffffff61085d16565b938401936001909201919050610519565b5091949350505050565b60025460009033600160a060020a039081169116141561036c57600160a060020a03821615156105a75750600061036c565b600354600160a060020a0316156105c95760038054600160a060020a03191690555b5060028054600160a060020a038316600160a060020a03199091161790556001919050565b600254600160a060020a031681565b60025460009081908190819033600160a060020a039081169116141561074557600092505b85518310156107405785838151811061063757fe5b90602001906020020151915081600160a060020a03166370a082313060006040516020015260405160e060020a63ffffffff8416028152600160a060020a039091166004820152602401602060405180830381600087803b151561069a57600080fd5b6102c65a03f115156106ab57600080fd5b505050604051805191505080156107355781600160a060020a031663a9059cbb868360006040516020015260405160e060020a63ffffffff8516028152600160a060020a0390921660048301526024820152604401602060405180830381600087803b151561071957600080fd5b6102c65a03f1151561072a57600080fd5b505050604051805150505b600190920191610622565b600193505b50505092915050565b60008061077a7f557365724d616e616765720000000000000000000000000000000000000000006102e8565b905080600160a060020a0316632aa09e5a8460006040516020015260405160e060020a63ffffffff8416028152600160a060020a039091166004820152602401602060405180830381600087803b15156107d357600080fd5b6102c65a03f115156107e457600080fd5b5050506040518051949350505050565b600554600160a060020a031690565b60025433600160a060020a03908116911614156104e75733600160a060020a0316ff5b61082e610b26565b61083984848461087d565b90505b9392505050565b6000610839848484610890565b600061083984848461089d565b60006108748585600160a060020a038616856108aa565b95945050505050565b610885610b26565b6108398484846108cf565b60006108398484846108ed565b6000610839848484610928565b6000610874858585856040519182526020820152604090810190518091039020610974565b6108d7610b26565b6108398484846108e8838383610a0e565b610a86565b600081602001511580610911575061090f848484606001518560400151610aa6565b155b1561091e5750600061083c565b5060019392505050565b60006109358484846108ed565b151561094057600080fd5b8160400151905061095b848484606001518560400151610ae2565b6040830152600160208301818151039052509392505050565b825460018401548354600092600160a060020a0316916337d9d7fc9185604051918252602082015260409081019051809103902060006040516020015260405160e060020a63ffffffff851602815260048101929092526024820152604401602060405180830381600087803b15156109ec57600080fd5b6102c65a03f115156109fd57600080fd5b505050604051805195945050505050565b825460018401548354600092600160a060020a0316916353aa3f5e9185604051918252602082015260409081019051809103902060006040516020015260405160e060020a63ffffffff851602815260048101929092526024820152604401602060405180830381600087803b15156109ec57600080fd5b610a8e610b26565b61087483610aa0878760010187610974565b84610af3565b600081158015906108745750610ac1858560030185856108aa565b151580610874575081610ad8866002870186610974565b1495945050505050565b6000610874858560030185856108aa565b610afb610b26565b6080604051908101604090815283825260208201939093529182019290925260608101929092525090565b60806040519081016040908152600080835260208301819052908201819052606082015290565b8254600160a060020a031916600160a060020a0392909216919091178255600190910155565b610b7d8282610bb1565b5050565b610b7d8282610b73565b8154610b979082610d0c565b9055565b610b7d8282610b8b565b8154610b979082610d0c565b610bf282826040519081527f75696e742f636f756e74000000000000000000000000000000000000000000006020820152602a016040518091039020610b8b565b610c3682600101826040519081527f75696e742f6669727374000000000000000000000000000000000000000000006020820152602a016040518091039020610b8b565b610c7a82600201826040519081527f75696e742f6c617374000000000000000000000000000000000000000000000060208201526029016040518091039020610b8b565b610cbe82600301826040519081527f75696e742f6e657874000000000000000000000000000000000000000000000060208201526029016040518091039020610b8b565b610b7d82600401826040519081527f75696e742f70726576000000000000000000000000000000000000000000000060208201526029016040518091039020610b8b565b610b7d8282610bb1565b81151580610d18575080155b15610b7d57600080fd5b8154610b979082610d0c565b8154610b979082610d0c5600a165627a7a72305820c9bc5ded528a290a882e64cac2304dea022ecbe3b47810fbbcd2f3107a3d0ae20029",
  "source": "pragma solidity ^0.4.11;\n\nimport \"./BaseManager.sol\";\n\ncontract Deposits is BaseManager {\n\n    StorageInterface.OrderedAddressesSet shareholders;\n    StorageInterface.UIntOrderedSetMapping deposits;\n    StorageInterface.UInt depositsIdCounter;\n    StorageInterface.AddressUIntUIntMapping amounts;\n    StorageInterface.AddressUIntUIntMapping timestamps;\n    StorageInterface.UInt totalSharesStorage;\n    StorageInterface.Address sharesContractStorage;\n\n    function Deposits(Storage _store, bytes32 _crate) BaseManager(_store, _crate) {\n        shareholders.init('shareholders');\n        deposits.init('deposits');\n        depositsIdCounter.init('depositsIdCounter');\n        amounts.init('amounts');\n        timestamps.init('timestamps');\n        totalSharesStorage.init('totalSharesStorage');\n        sharesContractStorage.init('sharesContractStorage');\n    }\n\n    /**\n     * Returns shares amount deposited by a particular shareholder.\n     *\n     * @param _address shareholder address.\n     *\n     * @return shares amount.\n     */\n    function depositBalance(address _address) constant returns(uint) {\n        uint balance;\n        StorageInterface.Iterator memory iterator = store.listIterator(deposits,bytes32(_address));\n        for(uint i = 0; store.canGetNextWithIterator(deposits,iterator); i++) {\n            uint _cur_amount = store.get(amounts,_address,store.getNextWithIterator(deposits,iterator));\n            balance += _cur_amount;\n        }\n        return balance;\n    }\n\n}\n",
  "sourcePath": "/Users/alesanro/Documents/Projects/ChronoBank/SmartContracts/contracts/core/common/Deposits.sol",
  "compiler": {
    "name": "solc",
    "version": "0.4.19+commit.c4cbbb05.Emscripten.clang"
  },
  "schemaVersion": "2.0.0",
  "updatedAt": "2018-04-02T14:47:30.934Z"
}