{
  "contractName": "ERC20ManagerEmitter",
  "abi": [
    {
      "anonymous": false,
      "inputs": [
        {
          "indexed": true,
          "name": "self",
          "type": "address"
        },
        {
          "indexed": false,
          "name": "token",
          "type": "address"
        },
        {
          "indexed": false,
          "name": "name",
          "type": "bytes32"
        },
        {
          "indexed": false,
          "name": "symbol",
          "type": "bytes32"
        },
        {
          "indexed": false,
          "name": "url",
          "type": "bytes32"
        },
        {
          "indexed": false,
          "name": "decimals",
          "type": "uint8"
        },
        {
          "indexed": false,
          "name": "ipfsHash",
          "type": "bytes32"
        },
        {
          "indexed": false,
          "name": "swarmHash",
          "type": "bytes32"
        }
      ],
      "name": "LogAddToken",
      "type": "event"
    },
    {
      "anonymous": false,
      "inputs": [
        {
          "indexed": true,
          "name": "self",
          "type": "address"
        },
        {
          "indexed": false,
          "name": "oldToken",
          "type": "address"
        },
        {
          "indexed": false,
          "name": "token",
          "type": "address"
        },
        {
          "indexed": false,
          "name": "name",
          "type": "bytes32"
        },
        {
          "indexed": false,
          "name": "symbol",
          "type": "bytes32"
        },
        {
          "indexed": false,
          "name": "url",
          "type": "bytes32"
        },
        {
          "indexed": false,
          "name": "decimals",
          "type": "uint8"
        },
        {
          "indexed": false,
          "name": "ipfsHash",
          "type": "bytes32"
        },
        {
          "indexed": false,
          "name": "swarmHash",
          "type": "bytes32"
        }
      ],
      "name": "LogTokenChange",
      "type": "event"
    },
    {
      "anonymous": false,
      "inputs": [
        {
          "indexed": true,
          "name": "self",
          "type": "address"
        },
        {
          "indexed": false,
          "name": "token",
          "type": "address"
        },
        {
          "indexed": false,
          "name": "name",
          "type": "bytes32"
        },
        {
          "indexed": false,
          "name": "symbol",
          "type": "bytes32"
        },
        {
          "indexed": false,
          "name": "url",
          "type": "bytes32"
        },
        {
          "indexed": false,
          "name": "decimals",
          "type": "uint8"
        },
        {
          "indexed": false,
          "name": "ipfsHash",
          "type": "bytes32"
        },
        {
          "indexed": false,
          "name": "swarmHash",
          "type": "bytes32"
        }
      ],
      "name": "LogRemoveToken",
      "type": "event"
    },
    {
      "anonymous": false,
      "inputs": [
        {
          "indexed": true,
          "name": "self",
          "type": "address"
        },
        {
          "indexed": false,
          "name": "errorCode",
          "type": "uint256"
        }
      ],
      "name": "Error",
      "type": "event"
    },
    {
      "constant": false,
      "inputs": [
        {
          "name": "token",
          "type": "address"
        },
        {
          "name": "name",
          "type": "bytes32"
        },
        {
          "name": "symbol",
          "type": "bytes32"
        },
        {
          "name": "url",
          "type": "bytes32"
        },
        {
          "name": "decimals",
          "type": "uint8"
        },
        {
          "name": "ipfsHash",
          "type": "bytes32"
        },
        {
          "name": "swarmHash",
          "type": "bytes32"
        }
      ],
      "name": "emitLogAddToken",
      "outputs": [],
      "payable": false,
      "stateMutability": "nonpayable",
      "type": "function"
    },
    {
      "constant": false,
      "inputs": [
        {
          "name": "oldToken",
          "type": "address"
        },
        {
          "name": "token",
          "type": "address"
        },
        {
          "name": "name",
          "type": "bytes32"
        },
        {
          "name": "symbol",
          "type": "bytes32"
        },
        {
          "name": "url",
          "type": "bytes32"
        },
        {
          "name": "decimals",
          "type": "uint8"
        },
        {
          "name": "ipfsHash",
          "type": "bytes32"
        },
        {
          "name": "swarmHash",
          "type": "bytes32"
        }
      ],
      "name": "emitLogTokenChange",
      "outputs": [],
      "payable": false,
      "stateMutability": "nonpayable",
      "type": "function"
    },
    {
      "constant": false,
      "inputs": [
        {
          "name": "token",
          "type": "address"
        },
        {
          "name": "name",
          "type": "bytes32"
        },
        {
          "name": "symbol",
          "type": "bytes32"
        },
        {
          "name": "url",
          "type": "bytes32"
        },
        {
          "name": "decimals",
          "type": "uint8"
        },
        {
          "name": "ipfsHash",
          "type": "bytes32"
        },
        {
          "name": "swarmHash",
          "type": "bytes32"
        }
      ],
      "name": "emitLogRemoveToken",
      "outputs": [],
      "payable": false,
      "stateMutability": "nonpayable",
      "type": "function"
    },
    {
      "constant": false,
      "inputs": [
        {
          "name": "error",
          "type": "uint256"
        }
      ],
      "name": "emitError",
      "outputs": [],
      "payable": false,
      "stateMutability": "nonpayable",
      "type": "function"
    }
  ],
  "bytecode": "0x6060604052341561000f57600080fd5b6103458061001e6000396000f3006060604052600436106100615763ffffffff7c0100000000000000000000000000000000000000000000000000000000600035041663709c529c8114610066578063b4310b7c146100a2578063df26ca08146100d6578063eaa4ab0b146100ec575b600080fd5b341561007157600080fd5b6100a0600160a060020a036004358116906024351660443560643560843560ff60a4351660c43560e435610120565b005b34156100ad57600080fd5b6100a0600160a060020a036004351660243560443560643560ff6084351660a43560c4356101b6565b34156100e157600080fd5b6100a0600435610242565b34156100f757600080fd5b6100a0600160a060020a036004351660243560443560643560ff6084351660a43560c435610289565b610128610315565b600160a060020a03167f2a4090d982c57b6517904dd975df39845241dcb84e933ac858de040f7b88a4da8989898989898989604051600160a060020a0398891681529690971660208701526040808701959095526060860193909352608085019190915260ff1660a084015260c083015260e082019290925261010001905180910390a25050505050505050565b6101be610315565b600160a060020a03167fd8fe362388342549167d1194f7d4bc448a4d1a76111d33635f9bd9f0f32f6d4488888888888888604051600160a060020a0390971687526020870195909552604080870194909452606086019290925260ff16608085015260a084015260c083019190915260e0909101905180910390a250505050505050565b61024a610315565b600160a060020a03167f9cf38cf2dbf9139f5c32639950507b10775fbbe0421f3e168bc2d1bb1ae3208c8260405190815260200160405180910390a250565b610291610315565b600160a060020a03167f8f1f2078a113d304f5aa08269efd043376a69b9b1684c4d61bb6667209511cb288888888888888604051600160a060020a0390971687526020870195909552604080870194909452606086019290925260ff16608085015260a084015260c083019190915260e0909101905180910390a250505050505050565b33905600a165627a7a7230582064787bbbe56f29a784b2064ea3f0162cca7337caf936b422bf4e481361248ee80029",
  "source": "pragma solidity ^0.4.21;\n\nimport '../event/MultiEventsHistoryAdapter.sol';\n\ncontract ERC20ManagerEmitter is MultiEventsHistoryAdapter {\n    event LogAddToken (\n        address indexed self,\n        address token,\n        bytes32 name,\n        bytes32 symbol,\n        bytes32 url,\n        uint8 decimals,\n        bytes32 ipfsHash,\n        bytes32 swarmHash\n    );\n\n    event LogTokenChange (\n        address indexed self,\n        address oldToken,\n        address token,\n        bytes32 name,\n        bytes32 symbol,\n        bytes32 url,\n        uint8 decimals,\n        bytes32 ipfsHash,\n        bytes32 swarmHash\n    );\n\n    event LogRemoveToken (\n        address indexed self,\n        address token,\n        bytes32 name,\n        bytes32 symbol,\n        bytes32 url,\n        uint8 decimals,\n        bytes32 ipfsHash,\n        bytes32 swarmHash\n    );\n\n    event Error(address indexed self, uint errorCode);\n\n    function emitLogAddToken (\n        address token,\n        bytes32 name,\n        bytes32 symbol,\n        bytes32 url,\n        uint8 decimals,\n        bytes32 ipfsHash,\n        bytes32 swarmHash)\n    public\n    {\n        emit LogAddToken(_self(), token, name, symbol, url, decimals, ipfsHash, swarmHash);\n    }\n\n    function emitLogTokenChange (\n        address oldToken,\n        address token,\n        bytes32 name,\n        bytes32 symbol,\n        bytes32 url,\n        uint8 decimals,\n        bytes32 ipfsHash,\n        bytes32 swarmHash)\n    public\n    {\n        emit LogTokenChange(_self(), oldToken, token, name, symbol, url, decimals, ipfsHash, swarmHash);\n    }\n\n    function emitLogRemoveToken (\n        address token,\n        bytes32 name,\n        bytes32 symbol,\n        bytes32 url,\n        uint8 decimals,\n        bytes32 ipfsHash,\n        bytes32 swarmHash)\n    public\n    {\n        emit LogRemoveToken(_self(), token, name, symbol, url, decimals, ipfsHash, swarmHash);\n    }\n\n    function emitError(uint error) public\n    {\n        emit Error(_self(), error);\n    }\n}\n",
  "sourcePath": "/Users/alesanro/Documents/Projects/ChronoBank/SmartContracts/contracts/core/erc20/ERC20ManagerEmitter.sol",
  "compiler": {
    "name": "solc",
    "version": "0.4.21+commit.dfe3193c.Emscripten.clang"
  },
  "schemaVersion": "2.0.0",
  "updatedAt": "2018-04-06T09:20:58.360Z"
}