{
  "contractName": "ERC20Manager",
  "abi": [
    {
      "constant": false,
      "inputs": [
        {
          "name": "_contractsManager",
          "type": "address"
        }
      ],
      "name": "init",
      "outputs": [
        {
          "name": "",
          "type": "uint256"
        }
      ],
      "payable": false,
      "stateMutability": "nonpayable",
      "type": "function"
    },
    {
      "constant": false,
      "inputs": [
        {
          "name": "_token",
          "type": "address"
        },
        {
          "name": "_name",
          "type": "bytes32"
        },
        {
          "name": "_symbol",
          "type": "bytes32"
        },
        {
          "name": "_url",
          "type": "bytes32"
        },
        {
          "name": "_decimals",
          "type": "uint8"
        },
        {
          "name": "_ipfsHash",
          "type": "bytes32"
        },
        {
          "name": "_swarmHash",
          "type": "bytes32"
        }
      ],
      "name": "addToken",
      "outputs": [
        {
          "name": "",
          "type": "uint256"
        }
      ],
      "payable": false,
      "stateMutability": "nonpayable",
      "type": "function"
    },
    {
      "constant": true,
      "inputs": [
        {
          "name": "__symbol",
          "type": "bytes32"
        }
      ],
      "name": "getTokenBySymbol",
      "outputs": [
        {
          "name": "_tokenAddress",
          "type": "address"
        },
        {
          "name": "_name",
          "type": "bytes32"
        },
        {
          "name": "_symbol",
          "type": "bytes32"
        },
        {
          "name": "_url",
          "type": "bytes32"
        },
        {
          "name": "_decimals",
          "type": "uint8"
        },
        {
          "name": "_ipfsHash",
          "type": "bytes32"
        },
        {
          "name": "_swarmHash",
          "type": "bytes32"
        }
      ],
      "payable": false,
      "stateMutability": "view",
      "type": "function"
    },
    {
      "constant": true,
      "inputs": [
        {
          "name": "_addresses",
          "type": "address[]"
        }
      ],
      "name": "getTokens",
      "outputs": [
        {
          "name": "_tokensAddresses",
          "type": "address[]"
        },
        {
          "name": "_names",
          "type": "bytes32[]"
        },
        {
          "name": "_symbols",
          "type": "bytes32[]"
        },
        {
          "name": "_urls",
          "type": "bytes32[]"
        },
        {
          "name": "_decimalsArr",
          "type": "uint8[]"
        },
        {
          "name": "_ipfsHashes",
          "type": "bytes32[]"
        },
        {
          "name": "_swarmHashes",
          "type": "bytes32[]"
        }
      ],
      "payable": false,
      "stateMutability": "view",
      "type": "function"
    },
    {
      "constant": false,
      "inputs": [],
      "name": "claimContractOwnership",
      "outputs": [
        {
          "name": "",
          "type": "bool"
        }
      ],
      "payable": false,
      "stateMutability": "nonpayable",
      "type": "function"
    },
    {
      "constant": true,
      "inputs": [
        {
          "name": "_identifier",
          "type": "bytes32"
        }
      ],
      "name": "lookupManager",
      "outputs": [
        {
          "name": "manager",
          "type": "address"
        }
      ],
      "payable": false,
      "stateMutability": "view",
      "type": "function"
    },
    {
      "constant": true,
      "inputs": [],
      "name": "contractsManager",
      "outputs": [
        {
          "name": "",
          "type": "address"
        }
      ],
      "payable": false,
      "stateMutability": "view",
      "type": "function"
    },
    {
      "constant": false,
      "inputs": [
        {
          "name": "_to",
          "type": "address"
        }
      ],
      "name": "changeContractOwnership",
      "outputs": [
        {
          "name": "",
          "type": "bool"
        }
      ],
      "payable": false,
      "stateMutability": "nonpayable",
      "type": "function"
    },
    {
      "constant": true,
      "inputs": [],
      "name": "pendingContractOwner",
      "outputs": [
        {
          "name": "",
          "type": "address"
        }
      ],
      "payable": false,
      "stateMutability": "view",
      "type": "function"
    },
    {
      "constant": false,
      "inputs": [
        {
          "name": "_eventsHistory",
          "type": "address"
        }
      ],
      "name": "setEventsHistory",
      "outputs": [],
      "payable": false,
      "stateMutability": "nonpayable",
      "type": "function"
    },
    {
      "constant": false,
      "inputs": [
        {
          "name": "oldToken",
          "type": "address"
        },
        {
          "name": "token",
          "type": "address"
        },
        {
          "name": "name",
          "type": "bytes32"
        },
        {
          "name": "symbol",
          "type": "bytes32"
        },
        {
          "name": "url",
          "type": "bytes32"
        },
        {
          "name": "decimals",
          "type": "uint8"
        },
        {
          "name": "ipfsHash",
          "type": "bytes32"
        },
        {
          "name": "swarmHash",
          "type": "bytes32"
        }
      ],
      "name": "emitLogTokenChange",
      "outputs": [],
      "payable": false,
      "stateMutability": "nonpayable",
      "type": "function"
    },
    {
      "constant": false,
      "inputs": [
        {
          "name": "_contractsManager",
          "type": "address"
        }
      ],
      "name": "setContractsManager",
      "outputs": [],
      "payable": false,
      "stateMutability": "nonpayable",
      "type": "function"
    },
    {
      "constant": true,
      "inputs": [
        {
          "name": "_token",
          "type": "address"
        }
      ],
      "name": "getTokenMetaData",
      "outputs": [
        {
          "name": "_tokenAddress",
          "type": "address"
        },
        {
          "name": "_name",
          "type": "bytes32"
        },
        {
          "name": "_symbol",
          "type": "bytes32"
        },
        {
          "name": "_url",
          "type": "bytes32"
        },
        {
          "name": "_decimals",
          "type": "uint8"
        },
        {
          "name": "_ipfsHash",
          "type": "bytes32"
        },
        {
          "name": "_swarmHash",
          "type": "bytes32"
        }
      ],
      "payable": false,
      "stateMutability": "view",
      "type": "function"
    },
    {
      "constant": false,
      "inputs": [],
      "name": "destroy",
      "outputs": [],
      "payable": false,
      "stateMutability": "nonpayable",
      "type": "function"
    },
    {
      "constant": true,
      "inputs": [
        {
          "name": "_id",
          "type": "uint256"
        }
      ],
      "name": "getAddressById",
      "outputs": [
        {
          "name": "",
          "type": "address"
        }
      ],
      "payable": false,
      "stateMutability": "view",
      "type": "function"
    },
    {
      "constant": true,
      "inputs": [
        {
          "name": "_symbol",
          "type": "bytes32"
        }
      ],
      "name": "isTokenSymbolExists",
      "outputs": [
        {
          "name": "",
          "type": "bool"
        }
      ],
      "payable": false,
      "stateMutability": "view",
      "type": "function"
    },
    {
      "constant": true,
      "inputs": [
        {
          "name": "_token",
          "type": "address"
        }
      ],
      "name": "isTokenExists",
      "outputs": [
        {
          "name": "",
          "type": "bool"
        }
      ],
      "payable": false,
      "stateMutability": "view",
      "type": "function"
    },
    {
      "constant": true,
      "inputs": [],
      "name": "tokensCount",
      "outputs": [
        {
          "name": "",
          "type": "uint256"
        }
      ],
      "payable": false,
      "stateMutability": "view",
      "type": "function"
    },
    {
      "constant": false,
      "inputs": [
        {
          "name": "_to",
          "type": "address"
        }
      ],
      "name": "transferContractOwnership",
      "outputs": [
        {
          "name": "",
          "type": "bool"
        }
      ],
      "payable": false,
      "stateMutability": "nonpayable",
      "type": "function"
    },
    {
      "constant": false,
      "inputs": [
        {
          "name": "_token",
          "type": "address"
        },
        {
          "name": "_newToken",
          "type": "address"
        },
        {
          "name": "_name",
          "type": "bytes32"
        },
        {
          "name": "_symbol",
          "type": "bytes32"
        },
        {
          "name": "_url",
          "type": "bytes32"
        },
        {
          "name": "_decimals",
          "type": "uint8"
        },
        {
          "name": "_ipfsHash",
          "type": "bytes32"
        },
        {
          "name": "_swarmHash",
          "type": "bytes32"
        }
      ],
      "name": "setToken",
      "outputs": [
        {
          "name": "",
          "type": "uint256"
        }
      ],
      "payable": false,
      "stateMutability": "nonpayable",
      "type": "function"
    },
    {
      "constant": false,
      "inputs": [
        {
          "name": "token",
          "type": "address"
        },
        {
          "name": "name",
          "type": "bytes32"
        },
        {
          "name": "symbol",
          "type": "bytes32"
        },
        {
          "name": "url",
          "type": "bytes32"
        },
        {
          "name": "decimals",
          "type": "uint8"
        },
        {
          "name": "ipfsHash",
          "type": "bytes32"
        },
        {
          "name": "swarmHash",
          "type": "bytes32"
        }
      ],
      "name": "emitLogAddToken",
      "outputs": [],
      "payable": false,
      "stateMutability": "nonpayable",
      "type": "function"
    },
    {
      "constant": true,
      "inputs": [
        {
          "name": "_token",
          "type": "address"
        }
      ],
      "name": "isTokenValid",
      "outputs": [
        {
          "name": "",
          "type": "bool"
        }
      ],
      "payable": false,
      "stateMutability": "view",
      "type": "function"
    },
    {
      "constant": false,
      "inputs": [
        {
          "name": "_token",
          "type": "address"
        }
      ],
      "name": "removeTokenByAddress",
      "outputs": [
        {
          "name": "",
          "type": "uint256"
        }
      ],
      "payable": false,
      "stateMutability": "nonpayable",
      "type": "function"
    },
    {
      "constant": true,
      "inputs": [],
      "name": "contractOwner",
      "outputs": [
        {
          "name": "",
          "type": "address"
        }
      ],
      "payable": false,
      "stateMutability": "view",
      "type": "function"
    },
    {
      "constant": false,
      "inputs": [
        {
          "name": "tokens",
          "type": "address[]"
        },
        {
          "name": "_to",
          "type": "address"
        }
      ],
      "name": "withdrawnTokens",
      "outputs": [
        {
          "name": "",
          "type": "uint256"
        }
      ],
      "payable": false,
      "stateMutability": "nonpayable",
      "type": "function"
    },
    {
      "constant": false,
      "inputs": [
        {
          "name": "_symbol",
          "type": "bytes32"
        }
      ],
      "name": "removeTokenBySymbol",
      "outputs": [
        {
          "name": "",
          "type": "uint256"
        }
      ],
      "payable": false,
      "stateMutability": "nonpayable",
      "type": "function"
    },
    {
      "constant": false,
      "inputs": [
        {
          "name": "error",
          "type": "uint256"
        }
      ],
      "name": "emitError",
      "outputs": [],
      "payable": false,
      "stateMutability": "nonpayable",
      "type": "function"
    },
    {
      "constant": false,
      "inputs": [
        {
          "name": "token",
          "type": "address"
        },
        {
          "name": "name",
          "type": "bytes32"
        },
        {
          "name": "symbol",
          "type": "bytes32"
        },
        {
          "name": "url",
          "type": "bytes32"
        },
        {
          "name": "decimals",
          "type": "uint8"
        },
        {
          "name": "ipfsHash",
          "type": "bytes32"
        },
        {
          "name": "swarmHash",
          "type": "bytes32"
        }
      ],
      "name": "emitLogRemoveToken",
      "outputs": [],
      "payable": false,
      "stateMutability": "nonpayable",
      "type": "function"
    },
    {
      "constant": true,
      "inputs": [],
      "name": "getTokenAddresses",
      "outputs": [
        {
          "name": "",
          "type": "address[]"
        }
      ],
      "payable": false,
      "stateMutability": "view",
      "type": "function"
    },
    {
      "constant": true,
      "inputs": [
        {
          "name": "_symbol",
          "type": "bytes32"
        }
      ],
      "name": "getTokenAddressBySymbol",
      "outputs": [
        {
          "name": "tokenAddress",
          "type": "address"
        }
      ],
      "payable": false,
      "stateMutability": "view",
      "type": "function"
    },
    {
      "constant": false,
      "inputs": [
        {
          "name": "_tokenVerifier",
          "type": "address"
        }
      ],
      "name": "setTokenVerifier",
      "outputs": [],
      "payable": false,
      "stateMutability": "nonpayable",
      "type": "function"
    },
    {
      "constant": true,
      "inputs": [
        {
          "name": "key",
          "type": "address"
        }
      ],
      "name": "isAuthorized",
      "outputs": [
        {
          "name": "",
          "type": "bool"
        }
      ],
      "payable": false,
      "stateMutability": "view",
      "type": "function"
    },
    {
      "constant": true,
      "inputs": [],
      "name": "getEventsHistory",
      "outputs": [
        {
          "name": "",
          "type": "address"
        }
      ],
      "payable": false,
      "stateMutability": "view",
      "type": "function"
    },
    {
      "inputs": [
        {
          "name": "_store",
          "type": "address"
        },
        {
          "name": "_crate",
          "type": "bytes32"
        }
      ],
      "payable": false,
      "stateMutability": "nonpayable",
      "type": "constructor"
    },
    {
      "anonymous": false,
      "inputs": [
        {
          "indexed": true,
          "name": "self",
          "type": "address"
        },
        {
          "indexed": false,
          "name": "token",
          "type": "address"
        },
        {
          "indexed": false,
          "name": "name",
          "type": "bytes32"
        },
        {
          "indexed": false,
          "name": "symbol",
          "type": "bytes32"
        },
        {
          "indexed": false,
          "name": "url",
          "type": "bytes32"
        },
        {
          "indexed": false,
          "name": "decimals",
          "type": "uint8"
        },
        {
          "indexed": false,
          "name": "ipfsHash",
          "type": "bytes32"
        },
        {
          "indexed": false,
          "name": "swarmHash",
          "type": "bytes32"
        }
      ],
      "name": "LogAddToken",
      "type": "event"
    },
    {
      "anonymous": false,
      "inputs": [
        {
          "indexed": true,
          "name": "self",
          "type": "address"
        },
        {
          "indexed": false,
          "name": "oldToken",
          "type": "address"
        },
        {
          "indexed": false,
          "name": "token",
          "type": "address"
        },
        {
          "indexed": false,
          "name": "name",
          "type": "bytes32"
        },
        {
          "indexed": false,
          "name": "symbol",
          "type": "bytes32"
        },
        {
          "indexed": false,
          "name": "url",
          "type": "bytes32"
        },
        {
          "indexed": false,
          "name": "decimals",
          "type": "uint8"
        },
        {
          "indexed": false,
          "name": "ipfsHash",
          "type": "bytes32"
        },
        {
          "indexed": false,
          "name": "swarmHash",
          "type": "bytes32"
        }
      ],
      "name": "LogTokenChange",
      "type": "event"
    },
    {
      "anonymous": false,
      "inputs": [
        {
          "indexed": true,
          "name": "self",
          "type": "address"
        },
        {
          "indexed": false,
          "name": "token",
          "type": "address"
        },
        {
          "indexed": false,
          "name": "name",
          "type": "bytes32"
        },
        {
          "indexed": false,
          "name": "symbol",
          "type": "bytes32"
        },
        {
          "indexed": false,
          "name": "url",
          "type": "bytes32"
        },
        {
          "indexed": false,
          "name": "decimals",
          "type": "uint8"
        },
        {
          "indexed": false,
          "name": "ipfsHash",
          "type": "bytes32"
        },
        {
          "indexed": false,
          "name": "swarmHash",
          "type": "bytes32"
        }
      ],
      "name": "LogRemoveToken",
      "type": "event"
    },
    {
      "anonymous": false,
      "inputs": [
        {
          "indexed": true,
          "name": "self",
          "type": "address"
        },
        {
          "indexed": false,
          "name": "errorCode",
          "type": "uint256"
        }
      ],
      "name": "Error",
      "type": "event"
    }
  ],
  "bytecode": "0x606060405234156200001057600080fd5b60405160408062002a09833981016040528080519190602001805191508290508181818181620000516000838364010000000062002439620002a682021704565b505060028054600160a060020a03338116600160a060020a03199283161790925560058054309093169290911691909117905550620000c69250600691507f746f6b656e41646472657373657300000000000000000000000000000000000090506401000000006200245f620002cc82021704565b6200010160097f746f6b65427953796d626f6c000000000000000000000000000000000000000064010000000062002469620002ea82021704565b6200013c600a7f6e616d650000000000000000000000000000000000000000000000000000000064010000000062002469620002ea82021704565b62000177600b7f73796d626f6c000000000000000000000000000000000000000000000000000064010000000062002469620002ea82021704565b620001b2600c7f75726c000000000000000000000000000000000000000000000000000000000064010000000062002469620002ea82021704565b620001ed600d7f697066734861736800000000000000000000000000000000000000000000000064010000000062002469620002ea82021704565b62000228600e7f737761726d48617368000000000000000000000000000000000000000000000064010000000062002469620002ea82021704565b62000263600f7f646563696d616c7300000000000000000000000000000000000000000000000064010000000062002469620002ea82021704565b6200029e60107f746f6b656e566572696669657200000000000000000000000000000000000000640100000000620024836200030482021704565b505062000447565b8254600160a060020a031916600160a060020a0392909216919091178255600190910155565b620002e68282640100000000620024936200032482021704565b5050565b620002e68282640100000000620024836200030482021704565b8154620003209082640100000000620025646200042f82021704565b9055565b6200037b82826040519081527f636f756e7400000000000000000000000000000000000000000000000000000060208201526025016040518091039020620003046401000000000262002483176401000000009004565b620003d582600101826040519081527f696e64657865730000000000000000000000000000000000000000000000000060208201526027016040518091039020620003046401000000000262002483176401000000009004565b620002e682600201826040519081527f76616c756573000000000000000000000000000000000000000000000000000060208201526026016040518091039020620003046401000000000262002483176401000000009004565b811515806200043c575080155b15620002e657600080fd5b6125b280620004576000396000f3006060604052600436106101875763ffffffff60e060020a60003504166319ab453c811461018c5780631e6154a2146101bd5780631f76fa34146101f1578063273a94aa146102525780634592cd1d146104935780634fe59012146104ba57806353253d31146104ec578063557f4bc9146104ff5780635aa77d3c1461051e5780636521afd714610531578063709c529c1461055257806371d3b5731461058c5780637abccac9146105ab57806383197ef0146105ca5780638d80c922146105dd5780639b256890146105f35780639ed4fa5a14610609578063a64ed8ba14610628578063a843c51f1461063b578063b2c3f8a21461065a578063b4310b7c14610694578063c15e26ba146106c8578063c1900558146106e7578063ce606ee014610706578063d8f9659b14610719578063db236e2414610773578063df26ca0814610789578063eaa4ab0b1461079f578063ee8c24b8146107d3578063fa7fdeb714610839578063fd9541a91461084f578063fe9fbb801461086e578063fff10aba1461088d575b600080fd5b341561019757600080fd5b6101ab600160a060020a03600435166108a0565b60405190815260200160405180910390f35b34156101c857600080fd5b6101ab600160a060020a036004351660243560443560643560ff6084351660a43560c4356108ef565b34156101fc57600080fd5b6102076004356109fa565b604051600160a060020a0390971687526020870195909552604080870194909452606086019290925260ff16608085015260a084015260c083019190915260e0909101905180910390f35b341561025d57600080fd5b6102a16004602481358181019083013580602081810201604051908101604052809392919081815260200183836020028082843750949650610a5395505050505050565b604051808060200180602001806020018060200180602001806020018060200188810388528f818151815260200191508051906020019060200280838360005b838110156102f95780820151838201526020016102e1565b5050505090500188810387528e818151815260200191508051906020019060200280838360005b83811015610338578082015183820152602001610320565b5050505090500188810386528d818151815260200191508051906020019060200280838360005b8381101561037757808201518382015260200161035f565b5050505090500188810385528c818151815260200191508051906020019060200280838360005b838110156103b657808201518382015260200161039e565b5050505090500188810384528b818151815260200191508051906020019060200280838360005b838110156103f55780820151838201526020016103dd565b5050505090500188810383528a818151815260200191508051906020019060200280838360005b8381101561043457808201518382015260200161041c565b50505050905001888103825289818151815260200191508051906020019060200280838360005b8381101561047357808201518382015260200161045b565b505050509050019e50505050505050505050505050505060405180910390f35b341561049e57600080fd5b6104a6610c8f565b604051901515815260200160405180910390f35b34156104c557600080fd5b6104d0600435610cdc565b604051600160a060020a03909116815260200160405180910390f35b34156104f757600080fd5b6104d0610d60565b341561050a57600080fd5b6104a6600160a060020a0360043516610d6f565b341561052957600080fd5b6104d0610dc6565b341561053c57600080fd5b610550600160a060020a0360043516610dd5565b005b341561055d57600080fd5b610550600160a060020a036004358116906024351660443560643560843560ff60a4351660c43560e435610e0b565b341561059757600080fd5b610550600160a060020a0360043516610ea1565b34156105b657600080fd5b610207600160a060020a0360043516610ed8565b34156105d557600080fd5b610550610f84565b34156105e857600080fd5b6104d060043561101a565b34156105fe57600080fd5b6104a660043561102b565b341561061457600080fd5b6104a6600160a060020a0360043516611051565b341561063357600080fd5b6101ab61105c565b341561064657600080fd5b6104a6600160a060020a036004351661106b565b341561066557600080fd5b6101ab600160a060020a036004358116906024351660443560643560843560ff60a4351660c43560e4356110e4565b341561069f57600080fd5b610550600160a060020a036004351660243560443560643560ff6084351660a43560c435611461565b34156106d357600080fd5b6104a6600160a060020a03600435166114ed565b34156106f257600080fd5b6101ab600160a060020a03600435166115a7565b341561071157600080fd5b6104d06115e1565b341561072457600080fd5b6101ab600460248135818101908301358060208181020160405190810160405280939291908181526020018383602002808284375094965050509235600160a060020a031692506115f0915050565b341561077e57600080fd5b6101ab600435611741565b341561079457600080fd5b610550600435611786565b34156107aa57600080fd5b610550600160a060020a036004351660243560443560643560ff6084351660a43560c4356117cd565b34156107de57600080fd5b6107e6611859565b60405160208082528190810183818151815260200191508051906020019060200280838360005b8381101561082557808201518382015260200161080d565b505050509050019250505060405180910390f35b341561084457600080fd5b6104d0600435611869565b341561085a57600080fd5b610550600160a060020a036004351661187d565b341561087957600080fd5b6104a6600160a060020a03600435166118a7565b341561089857600080fd5b6104d061194d565b60025460009033600160a060020a03908116911614156108ea576108e4827f45524332304d616e61676572000000000000000000000000000000000000000061195c565b50600190505b919050565b60006108fa88611051565b156109115761090a6132cd611b4d565b90506109ef565b61091a8661102b565b1561092a5761090a6132cc611b4d565b610933886114ed565b15156109445761090a6132c8611b4d565b61094d88611bb6565b61096160006009888b63ffffffff611c2916565b6109756000600a8a8a63ffffffff611c4416565b6109896000600b8a8963ffffffff611c4416565b61099d6000600c8a8863ffffffff611c4416565b6109b46000600f8a60ff881663ffffffff611c4416565b6109c86000600d8a8663ffffffff611c4416565b6109dc6000600e8a8563ffffffff611c4416565b6109eb88888888888888611c59565b5060015b979650505050505050565b600080600080600080600080610a0f8961102b565b1515610a1a57610a47565b610a2d600060098b63ffffffff611d0116565b9050610a3881610ed8565b97509750975097509750975097505b50919395979092949650565b610a5b612427565b610a63612427565b610a6b612427565b610a73612427565b610a7b612427565b610a83612427565b610a8b612427565b600088511515610aa057610a9d611859565b98505b8897508851604051805910610ab25750595b908082528060200260200182016040525096508851604051805910610ad45750595b908082528060200260200182016040525095508851604051805910610af65750595b908082528060200260200182016040525094508851604051805910610b185750595b908082528060200260200182016040525093508851604051805910610b3a5750595b908082528060200260200182016040525092508851604051805910610b5c5750595b90808252806020026020018201604052509150600090505b8851811015610a4757610ba7600a8a8381518110610b8e57fe5b906020019060200201516000919063ffffffff611d1616565b878281518110610bb357fe5b60209081029091010152610bce600b8a8381518110610b8e57fe5b868281518110610bda57fe5b60209081029091010152610bf5600c8a8381518110610b8e57fe5b858281518110610c0157fe5b60209081029091010152610c1c600f8a8381518110610b8e57fe5b848281518110610c2857fe5b60ff909216602092830290910190910152610c4a600d8a8381518110610b8e57fe5b838281518110610c5657fe5b60209081029091010152610c71600e8a8381518110610b8e57fe5b828281518110610c7d57fe5b60209081029091010152600101610b74565b60035460009033600160a060020a03908116911614610cb057506000610cd9565b506003805460028054600160a060020a0319908116600160a060020a0384161790915516905560015b90565b600454600090600160a060020a031663bc65792783836040516020015260405160e060020a63ffffffff84160281526004810191909152602401602060405180830381600087803b1515610d2f57600080fd5b6102c65a03f11515610d4057600080fd5b5050506040518051915050600160a060020a03811615156108ea57600080fd5b600454600160a060020a031681565b60025460009033600160a060020a03908116911614156108ea57600160a060020a0382161515610da1575060006108ea565b5060038054600160a060020a038316600160a060020a03199091161790556001919050565b600354600160a060020a031681565b60025433600160a060020a0390811691161415610e085760058054600160a060020a031916600160a060020a0383161790555b50565b610e13611d2c565b600160a060020a03167f2a4090d982c57b6517904dd975df39845241dcb84e933ac858de040f7b88a4da8989898989898989604051600160a060020a0398891681529690971660208701526040808701959095526060860193909352608085019190915260ff1660a084015260c083015260e082019290925261010001905180910390a25050505050505050565b60025433600160a060020a0390811691161415610e085760048054600160a060020a038316600160a060020a031990911617905550565b6000806000806000806000610eec88611051565b1515610ef757610f79565b610f0a6000600a8a63ffffffff611d1616565b9550610f1f6000600b8a63ffffffff611d1616565b9450610f346000600c8a63ffffffff611d1616565b9350610f496000600f8a63ffffffff611d1616565b9250610f5e6000600d8a63ffffffff611d1616565b9150610f736000600e8a63ffffffff611d1616565b88975090505b919395979092949650565b60025433600160a060020a039081169116141561101857600454600160a060020a031663c375c2ef3060006040516020015260405160e060020a63ffffffff8416028152600160a060020a039091166004820152602401602060405180830381600087803b1515610ff457600080fd5b6102c65a03f1151561100557600080fd5b5050506040518051905050611018611d30565b565b600061102582611d53565b92915050565b6000806110408160098563ffffffff611d0116565b600160a060020a0316141592915050565b600061102582611d6a565b6000611066611d8f565b905090565b60025460009033600160a060020a03908116911614156108ea57600160a060020a038216151561109d575060006108ea565b600354600160a060020a0316156110bf5760038054600160a060020a03191690555b5060028054600160a060020a038316600160a060020a03199091161790556001919050565b6000806110f0336118a7565b15611454576110fe8a611051565b15156111165761110f6132cb611b4d565b9150611454565b61111f896114ed565b15156111305761110f6132c8611b4d565b6111436000600b8c63ffffffff611d1616565b871461120f57600061115d8160098a63ffffffff611d0116565b600160a060020a031614156112045761119460096111846000600b8e63ffffffff611d1616565b600091908263ffffffff611c2916565b600160a060020a038a8116908a16146111d4576111bb60006009898c63ffffffff611c2916565b6111cf6000600b8b8a63ffffffff611c4416565b6111fc565b6111e860006009898d63ffffffff611c2916565b6111fc6000600b8c8a63ffffffff611c4416565b50600161120f565b61110f6132ce611b4d565b600160a060020a038a8116908a161461132c5788600160a060020a03166318160ddd6000604051602001526040518163ffffffff1660e060020a028152600401602060405180830381600087803b151561126857600080fd5b6102c65a03f1151561127957600080fd5b505050604051805190505061128e8a8a611da2565b8015156112bd576112a960006009898c63ffffffff611c2916565b6112bd6000600b8b8a63ffffffff611c4416565b6112d16000600a8b8b63ffffffff611c4416565b6112e56000600c8b8963ffffffff611c4416565b6112fc6000600f8b60ff891663ffffffff611c4416565b6113106000600d8b8763ffffffff611c4416565b6113246000600e8b8663ffffffff611c4416565b889950600190505b876113406000600a8d63ffffffff611d1616565b1461135d576113596000600a8c8b63ffffffff611c4416565b5060015b60ff85166113746000600f8d63ffffffff611d1616565b14611394576113906000600f8c60ff891663ffffffff611c4416565b5060015b856113a86000600c8d63ffffffff611d1616565b146113c5576113c16000600c8c8963ffffffff611c4416565b5060015b836113d96000600d8d63ffffffff611d1616565b146113f6576113f26000600d8c8763ffffffff611c4416565b5060015b8261140a6000600e8d63ffffffff611d1616565b14611427576114236000600e8c8663ffffffff611c4416565b5060015b80156114465761143d8a8a8a8a8a8a8a8a611e32565b60019150611454565b6114516132ce611b4d565b91505b5098975050505050505050565b611469611d2c565b600160a060020a03167fd8fe362388342549167d1194f7d4bc448a4d1a76111d33635f9bd9f0f32f6d4488888888888888604051600160a060020a0390971687526020870195909552604080870194909452606086019290925260ff16608085015260a084015260c083019190915260e0909101905180910390a250505050505050565b60008061150181601063ffffffff611ee616565b600160a060020a03161561159c576115216000601063ffffffff611ee616565b905080600160a060020a03166363a9c3d78460006040516020015260405160e060020a63ffffffff8416028152600160a060020a039091166004820152602401602060405180830381600087803b151561157a57600080fd5b6102c65a03f1151561158b57600080fd5b5050506040518051905091506115a1565b600191505b50919050565b60006115b2336118a7565b156108ea576115c082611051565b15156115d8576115d16132cb611b4d565b90506108ea565b61102582611f45565b600254600160a060020a031681565b60025460009081908190819033600160a060020a039081169116141561173857600092505b85518310156117335785838151811061162a57fe5b90602001906020020151915081600160a060020a03166370a082313060006040516020015260405160e060020a63ffffffff8416028152600160a060020a039091166004820152602401602060405180830381600087803b151561168d57600080fd5b6102c65a03f1151561169e57600080fd5b505050604051805191505080156117285781600160a060020a031663a9059cbb868360006040516020015260405160e060020a63ffffffff8516028152600160a060020a0390921660048301526024820152604401602060405180830381600087803b151561170c57600080fd5b6102c65a03f1151561171d57600080fd5b505050604051805150505b600190920191611615565b600193505b50505092915050565b600061174c336118a7565b156108ea5761175a8261102b565b151561176b576115d16132ca611b4d565b611025611781600060098563ffffffff611d0116565b611f45565b61178e611d2c565b600160a060020a03167f9cf38cf2dbf9139f5c32639950507b10775fbbe0421f3e168bc2d1bb1ae3208c8260405190815260200160405180910390a250565b6117d5611d2c565b600160a060020a03167f8f1f2078a113d304f5aa08269efd043376a69b9b1684c4d61bb6667209511cb288888888888888604051600160a060020a0390971687526020870195909552604080870194909452606086019290925260ff16608085015260a084015260c083019190915260e0909101905180910390a250505050505050565b611861612427565b611066611fea565b60006110258160098463ffffffff611d0116565b60025433600160a060020a0390811691161415610e0857610e08600060108363ffffffff61206216565b6000806118d37f557365724d616e61676572000000000000000000000000000000000000000000610cdc565b905080600160a060020a0316632aa09e5a8460006040516020015260405160e060020a63ffffffff8416028152600160a060020a039091166004820152602401602060405180830381600087803b151561192c57600080fd5b6102c65a03f1151561193d57600080fd5b5050506040518051949350505050565b600554600160a060020a031690565b60025460009081908190819033600160a060020a0390811691161461198057600080fd5b600160a060020a038616151561199557600080fd5b600454600160a060020a03161580159350806119bf5750600454600160a060020a03878116911614155b156119e05760048054600160a060020a031916600160a060020a0388161790555b600454600160a060020a031691508163bc65792760006040516020015260405160e060020a63ffffffff83160281527f4d756c74694576656e7473486973746f727900000000000000000000000000006004820152602401602060405180830381600087803b1515611a5157600080fd5b6102c65a03f11515611a6257600080fd5b5050506040518051915050600160a060020a03811615801590611a935750600554600160a060020a03828116911614155b15611ab45760058054600160a060020a031916600160a060020a0383161790555b8415611b3b5781600160a060020a031663b7c46cd5308760006040516020015260405160e060020a63ffffffff8516028152600160a060020a0390921660048301526024820152604401602060405180830381600087803b1515611b1757600080fd5b6102c65a03f11515611b2857600080fd5b50505060405180516001149050611b3b57fe5b82156117335760069695505050505050565b6000611b5761194d565b600160a060020a031663df26ca088360405160e060020a63ffffffff84160281526004810191909152602401600060405180830381600087803b1515611b9c57600080fd5b6102c65a03f11515611bad57600080fd5b50929392505050565b6000611bc182611d6a565b15611bcb57611c25565b611bd3611d8f565b6001019050611bf56000600883600160a060020a03861663ffffffff6120e416565b611c1260006007600160a060020a0385168463ffffffff6120e416565b611c25600060068363ffffffff61217616565b5050565b611c3e848484600160a060020a0385166120e4565b50505050565b611c3e8484600160a060020a038516846120e4565b6000611c6361194d565b905080600160a060020a031663b4310b7c8989898989898960405160e060020a63ffffffff8a16028152600160a060020a03909716600488015260248701959095526044860193909352606485019190915260ff16608484015260a483015260c482015260e401600060405180830381600087803b1515611ce357600080fd5b6102c65a03f11515611cf457600080fd5b5050505050505050505050565b6000611d0e8484846121d6565b949350505050565b6000611d0e8484600160a060020a0385166121d6565b3390565b60025433600160a060020a03908116911614156110185733600160a060020a0316ff5b60006110258160086001850163ffffffff6121d616565b6000611d87816007600160a060020a03851663ffffffff6121d616565b151592915050565b600061106681600663ffffffff61227016565b6000611dad83611d6a565b1515611db857611e2d565b611dd460006007600160a060020a03861663ffffffff6121d616565b9050611df36000600883600160a060020a03861663ffffffff6120e416565b611e1060006007600160a060020a0385168463ffffffff6120e416565b611e2d60006007600160a060020a0386168263ffffffff6120e416565b505050565b6000611e3c61194d565b905080600160a060020a031663709c529c8a8a8a8a8a8a8a8a60405160e060020a63ffffffff8b16028152600160a060020a03988916600482015296909716602487015260448601949094526064850192909252608484015260ff1660a483015260c482015260e481019190915261010401600060405180830381600087803b1515611ec757600080fd5b6102c65a03f11515611ed857600080fd5b505050505050505050505050565b815460018301548254600092600160a060020a03169163d3a3968691846040516020015260405160e060020a63ffffffff851602815260048101929092526024820152604401602060405180830381600087803b151561192c57600080fd5b6000611fc182611f5d83600a8363ffffffff611d1616565b611f706000600b8763ffffffff611d1616565b611f836000600c8863ffffffff611d1616565b611f966000600f8963ffffffff611d1616565b611fa96000600d8a63ffffffff611d1616565b611fbc6000600e8b63ffffffff611d1616565b6122cf565b611fd960096111846000600b8663ffffffff611d1616565b611fe282612359565b506001919050565b611ff2612427565b6000611ffc611d8f565b6040518059106120095750595b90808252806020026020018201604052509150600090505b815181101561205e5761203381611d53565b82828151811061203f57fe5b600160a060020a03909216602092830290910190910152600101612021565b5090565b825460018401548354600160a060020a03909216916379a7cfee91908460405160e060020a63ffffffff861602815260048101939093526024830191909152600160a060020a03166044820152606401600060405180830381600087803b15156120cb57600080fd5b6102c65a03f115156120dc57600080fd5b505050505050565b835460018501548454600160a060020a039092169163a14ff85791908560405191825260208201526040908101905180910390208460405160e060020a63ffffffff8616028152600481019390935260248301919091526044820152606401600060405180830381600087803b151561215c57600080fd5b6102c65a03f1151561216d57600080fd5b50505050505050565b825460018401548354600160a060020a03909216916353e7168b91908460405160e060020a63ffffffff8616028152600481019390935260248301919091526044820152606401600060405180830381600087803b15156120cb57600080fd5b825460018401548354600092600160a060020a0316916337d9d7fc9185604051918252602082015260409081019051809103902060006040516020015260405160e060020a63ffffffff851602815260048101929092526024820152604401602060405180830381600087803b151561224e57600080fd5b6102c65a03f1151561225f57600080fd5b505050604051805195945050505050565b815460018301548254600092600160a060020a0316916353aa3f5e91846040516020015260405160e060020a63ffffffff851602815260048101929092526024820152604401602060405180830381600087803b151561192c57600080fd5b60006122d961194d565b905080600160a060020a031663eaa4ab0b8989898989898960405160e060020a63ffffffff8a16028152600160a060020a03909716600488015260248701959095526044860193909352606485019190915260ff16608484015260a483015260c482015260e401600060405180830381600087803b1515611ce357600080fd5b600080600061236784611d6a565b151561237257611c3e565b61237a611d8f565b925061238f600060088563ffffffff6121d616565b91506123ad60006007600160a060020a03871663ffffffff6121d616565b9050828110156123df576123cb60006007848463ffffffff6120e416565b6123df60006008838563ffffffff6120e416565b6123fc60006007600160a060020a0387168263ffffffff6120e416565b61241060006008858263ffffffff6120e416565b611c3e60006006600019860163ffffffff61217616565b60206040519081016040526000815290565b8254600160a060020a031916600160a060020a0392909216919091178255600190910155565b611c258282612493565b611c258282612483565b611c258282612483565b611c2582825b815461248f9082612564565b9055565b6124d482826040519081527f636f756e7400000000000000000000000000000000000000000000000000000060208201526025016040518091039020612483565b61251882600101826040519081527f696e64657865730000000000000000000000000000000000000000000000000060208201526027016040518091039020612483565b611c2582600201826040519081527f76616c756573000000000000000000000000000000000000000000000000000060208201526026016040518091039020612483565b815461248f90825b81151580612570575080155b15611c2557600080fd5b815461248f90826125645600a165627a7a723058200382c454115e114aaace53083f2052f78f199ae121fb42b71adafdf4f489208f0029",
  "source": "pragma solidity ^0.4.11;\n\nimport \"../common/BaseManager.sol\";\nimport \"../event/MultiEventsHistory.sol\";\nimport {ERC20Interface as Asset} from \"./ERC20Interface.sol\";\nimport \"./ERC20ManagerEmitter.sol\";\n\n\ncontract ERC20TokenVerifier {\n    function verify(address token) public view returns (bool);\n}\n\n/// @title ERC20Manager\n///\n/// @notice ERC20Manager contract which keeps track of all ERC20-based tokens\n/// registered in a system.\ncontract ERC20Manager is ERC20ManagerEmitter, BaseManager {\n\n    uint constant ERROR_ERCMANAGER_INVALID_INVOCATION = 13000;\n    uint constant ERROR_ERCMANAGER_TOKEN_SYMBOL_NOT_EXISTS = 13002;\n    uint constant ERROR_ERCMANAGER_TOKEN_NOT_EXISTS = 13003;\n    uint constant ERROR_ERCMANAGER_TOKEN_SYMBOL_ALREADY_EXISTS = 13004;\n    uint constant ERROR_ERCMANAGER_TOKEN_ALREADY_EXISTS = 13005;\n    uint constant ERROR_ERCMANAGER_TOKEN_UNCHANGED = 13006;\n\n    StorageInterface.AddressesSet tokenAddresses;\n    StorageInterface.Bytes32AddressMapping tokenBySymbol;\n    StorageInterface.AddressBytes32Mapping name;\n    StorageInterface.AddressBytes32Mapping symbol;\n    StorageInterface.AddressBytes32Mapping url;\n    StorageInterface.AddressBytes32Mapping ipfsHash;\n    StorageInterface.AddressBytes32Mapping swarmHash;\n    StorageInterface.AddressUIntMapping decimals;\n    StorageInterface.Address tokenVerifier;\n\n    /// @notice Constructor\n    function ERC20Manager(Storage _store, bytes32 _crate) BaseManager(_store, _crate) public {\n        tokenAddresses.init('tokenAddresses');\n        tokenBySymbol.init('tokeBySymbol');\n        name.init('name');\n        symbol.init('symbol');\n        url.init('url');\n        ipfsHash.init('ipfsHash');\n        swarmHash.init('swarmHash');\n        decimals.init('decimals');\n        tokenVerifier.init('tokenVerifier');\n    }\n\n    /// @notice Init the contract\n    function init(address _contractsManager) public onlyContractOwner returns (uint) {\n        BaseManager.init(_contractsManager, \"ERC20Manager\");\n\n        return OK;\n    }\n\n    /// @notice Set ERC20 token verifier\n    function setTokenVerifier(address _tokenVerifier) public onlyContractOwner {\n        store.set(tokenVerifier, _tokenVerifier);\n    }\n\n    /// @notice Allows trusted account/constract to add a new token to the registry.\n    /// @param _token Address of new token.\n    /// @param _name Name of new token.\n    /// @param _symbol Symbol for new token.\n    /// @param _url Token's project URL.\n    /// @param _decimals Number of decimals, divisibility of new token.\n    /// @param _ipfsHash IPFS hash of token icon.\n    /// @param _swarmHash Swarm hash of token icon.\n    function addToken(\n        address _token,\n        bytes32 _name,\n        bytes32 _symbol,\n        bytes32 _url,\n        uint8 _decimals,\n        bytes32 _ipfsHash,\n        bytes32 _swarmHash)\n    public\n    returns (uint)\n    {\n        if (isTokenExists(_token)) {\n            return _emitError(ERROR_ERCMANAGER_TOKEN_ALREADY_EXISTS);\n        }\n\n        if (isTokenSymbolExists(_symbol)) {\n            return _emitError(ERROR_ERCMANAGER_TOKEN_SYMBOL_ALREADY_EXISTS);\n        }\n\n        if (!isTokenValid(_token)) {\n            return _emitError(ERROR_ERCMANAGER_INVALID_INVOCATION);\n        }\n\n        _addToken(_token);\n        store.set(tokenBySymbol, _symbol, _token);\n        store.set(name, _token, _name);\n        store.set(symbol, _token, _symbol);\n        store.set(url, _token, _url);\n        store.set(decimals, _token, _decimals);\n        store.set(ipfsHash, _token, _ipfsHash);\n        store.set(swarmHash, _token, _swarmHash);\n\n        _emitLogAddToken(_token, _name, _symbol, _url, _decimals, _ipfsHash, _swarmHash);\n        return OK;\n    }\n\n    /// @notice Allows owner to alter a token\n    /// @param _token Address of old token.\n    /// @param _newToken Address of new token.\n    /// @param _name Name of new token.\n    /// @param _symbol Symbol for new token.\n    /// @param _url Token's project URL.\n    /// @param _decimals Number of decimals, divisibility of new token.\n    /// @param _ipfsHash IPFS hash of token icon.\n    /// @param _swarmHash Swarm hash of token icon.\n    function setToken(\n        address _token,\n        address _newToken,\n        bytes32 _name,\n        bytes32 _symbol,\n        bytes32 _url,\n        uint8 _decimals,\n        bytes32 _ipfsHash,\n        bytes32 _swarmHash)\n    public\n    onlyAuthorized\n    returns (uint)\n    {\n        if (!isTokenExists(_token)) {\n            return _emitError(ERROR_ERCMANAGER_TOKEN_NOT_EXISTS);\n        }\n\n        if (!isTokenValid(_newToken)) {\n            return _emitError(ERROR_ERCMANAGER_INVALID_INVOCATION);\n        }\n\n        bool changed;\n        if(_symbol != store.get(symbol,_token)) {\n            if (store.get(tokenBySymbol,_symbol) == address(0)) {\n                store.set(tokenBySymbol,store.get(symbol,_token),address(0));\n                if(_token != _newToken) {\n                    store.set(tokenBySymbol,_symbol,_newToken);\n                    store.set(symbol,_newToken,_symbol);\n                } else {\n                    store.set(tokenBySymbol,_symbol,_token);\n                    store.set(symbol,_token,_symbol);\n                }\n                changed = true;\n            } else {\n                return _emitError(ERROR_ERCMANAGER_TOKEN_UNCHANGED);\n            }\n        }\n        if(_token != _newToken) {\n            Asset(_newToken).totalSupply();\n            _replaceToken(_token, _newToken);\n\n            if(!changed) {\n                store.set(tokenBySymbol,_symbol,_newToken);\n                store.set(symbol,_newToken,_symbol);\n            }\n            store.set(name,_newToken,_name);\n            store.set(url,_newToken,_url);\n            store.set(decimals,_newToken,_decimals);\n            store.set(ipfsHash,_newToken,_ipfsHash);\n            store.set(swarmHash,_newToken,_swarmHash);\n            _token = _newToken;\n            changed = true;\n        }\n\n        if(store.get(name,_token) != _name) {\n            store.set(name,_token,_name);\n            changed = true;\n        }\n\n        if(store.get(decimals,_token) != _decimals) {\n            store.set(decimals,_token,_decimals);\n            changed = true;\n        }\n        if(store.get(url,_token) != _url) {\n            store.set(url,_token,_url);\n            changed = true;\n        }\n        if(store.get(ipfsHash,_token) != _ipfsHash) {\n            store.set(ipfsHash,_token,_ipfsHash);\n            changed = true;\n        }\n        if(store.get(swarmHash,_token) != _swarmHash) {\n            store.set(swarmHash,_token,_swarmHash);\n            changed = true;\n        }\n\n        if(changed) {\n            _emitLogTokenChange(_token, _newToken, _name, _symbol, _url, _decimals, _ipfsHash, _swarmHash);\n            return OK;\n        }\n\n        return _emitError(ERROR_ERCMANAGER_TOKEN_UNCHANGED);\n    }\n\n    /// @notice Allows CBE to remove an existing token from the registry.\n    /// @param _token Address of existing token.\n    function removeTokenByAddress(address _token)\n    public\n    onlyAuthorized\n    returns (uint)\n    {\n        if (!isTokenExists(_token)) {\n            return _emitError(ERROR_ERCMANAGER_TOKEN_NOT_EXISTS);\n        }\n\n        return removeToken(_token);\n    }\n\n    /// @notice Allows CBE to remove an existing token from the registry.\n    /// @param _symbol Symbol of existing token.\n    function removeTokenBySymbol(bytes32 _symbol)\n    public\n    onlyAuthorized\n    returns (uint)\n    {\n        if (!isTokenSymbolExists(_symbol)) {\n            return _emitError(ERROR_ERCMANAGER_TOKEN_SYMBOL_NOT_EXISTS);\n        }\n\n        return removeToken(store.get(tokenBySymbol,_symbol));\n    }\n\n    /// @notice Returns token's address by given id\n    function getAddressById(uint _id)\n    public\n    view\n    returns (address)\n    {\n        return _getTokenByIndex(_id);\n    }\n\n    /// @notice Provides a registered token's address when given the token symbol.\n    /// @param _symbol Symbol of registered token.\n    /// @return Token's address.\n    function getTokenAddressBySymbol(bytes32 _symbol)\n    public\n    view\n    returns (address tokenAddress)\n    {\n        return store.get(tokenBySymbol, _symbol);\n    }\n\n    /// @notice Provides a registered token's metadata, looked up by address.\n    /// @param _token Address of registered token.\n    /// @return Token metadata.\n    function getTokenMetaData(address _token)\n    public\n    view\n    returns (\n      address _tokenAddress,\n      bytes32 _name,\n      bytes32 _symbol,\n      bytes32 _url,\n      uint8 _decimals,\n      bytes32 _ipfsHash,\n      bytes32 _swarmHash\n    )\n    {\n        if (!isTokenExists(_token)) {\n            return;\n        }\n\n        _name = store.get(name, _token);\n        _symbol = store.get(symbol, _token);\n        _url = store.get(url, _token);\n        _decimals = uint8(store.get(decimals, _token));\n        _ipfsHash = store.get(ipfsHash, _token);\n        _swarmHash = store.get(swarmHash, _token);\n\n        return (_token, _name, _symbol, _url, _decimals, _ipfsHash, _swarmHash);\n    }\n\n    /// @notice Returns count of registred ERC20 tokens\n    /// @return token count\n    function tokensCount()\n    public\n    view\n    returns (uint)\n    {\n        return _countTokens();\n    }\n\n    /// @dev Returns an array containing all token addresses.\n    /// @return Array of token addresses.\n    function getTokenAddresses()\n    public\n    view\n    returns (address[]) {\n        return _getTokens();\n    }\n\n    /// @notice Provides details of a given tokens\n    function getTokens(address[] _addresses)\n    public\n    view\n    returns (\n      address[] _tokensAddresses,\n      bytes32[] _names,\n      bytes32[] _symbols,\n      bytes32[] _urls,\n      uint8[] _decimalsArr,\n      bytes32[] _ipfsHashes,\n      bytes32[] _swarmHashes\n    )\n    {\n        if (_addresses.length == 0) {\n            _addresses = getTokenAddresses();\n        }\n        _tokensAddresses = _addresses;\n        _names = new bytes32[](_addresses.length);\n        _symbols = new bytes32[](_addresses.length);\n        _urls = new bytes32[](_addresses.length);\n        _decimalsArr = new uint8[](_addresses.length);\n        _ipfsHashes = new bytes32[](_addresses.length);\n        _swarmHashes = new bytes32[](_addresses.length);\n\n        for (uint i = 0; i < _addresses.length; i++) {\n            _names[i] = store.get(name, _addresses[i]);\n            _symbols[i] = store.get(symbol, _addresses[i]);\n            _urls[i] = store.get(url, _addresses[i]);\n            _decimalsArr[i] = uint8(store.get(decimals, _addresses[i]));\n            _ipfsHashes[i] = store.get(ipfsHash, _addresses[i]);\n            _swarmHashes[i] = store.get(swarmHash, _addresses[i]);\n        }\n\n        return (_tokensAddresses, _names, _symbols, _urls, _decimalsArr, _ipfsHashes, _swarmHashes);\n    }\n\n    /// @notice Provides a registered token's metadata, looked up by symbol.\n    /// @param _symbol Symbol of registered token.\n    /// @return Token metadata.\n    function getTokenBySymbol(bytes32 __symbol)\n    public\n    view\n    returns (\n      address _tokenAddress,\n      bytes32 _name,\n      bytes32 _symbol,\n      bytes32 _url,\n      uint8 _decimals,\n      bytes32 _ipfsHash,\n      bytes32 _swarmHash\n    )\n    {\n        if (!isTokenSymbolExists(__symbol)) {\n            return;\n        }\n\n        address _token = store.get(tokenBySymbol, __symbol);\n        return getTokenMetaData(_token);\n    }\n\n    /// @notice Tells whether a given token exists or not\n    function isTokenExists(address _token) public view returns (bool) {\n        return _includesToken(_token);\n    }\n\n    /// @notice Tells whether a given token exists or not\n    function isTokenSymbolExists(bytes32 _symbol) public view returns (bool) {\n        return (store.get(tokenBySymbol, _symbol) != address(0));\n    }\n\n    /// @notice Tells whether a given token valid or not\n    function isTokenValid(address _token) public view returns (bool) {\n      if (store.get(tokenVerifier) != 0x0) {\n          ERC20TokenVerifier verifier = ERC20TokenVerifier(store.get(tokenVerifier));\n          return verifier.verify(_token);\n      }\n\n      return true;\n    }\n\n    /// @notice Allows owner to remove an existing token from the registry.\n    /// @param _token Address of existing token.\n    function removeToken(address _token)\n    internal\n    returns (uint)\n    {\n        _emitLogRemoveToken(\n            _token,\n            store.get(name,_token),\n            store.get(symbol,_token),\n            store.get(url,_token),\n            uint8(store.get(decimals,_token)),\n            store.get(ipfsHash,_token),\n            store.get(swarmHash,_token)\n        );\n\n        store.set(tokenBySymbol, store.get(symbol,_token), address(0));\n\n        _removeToken(_token);\n        // TODO: ahiatsevich clean up url, decimals, ipfsHash, swarmHash\n\n        return OK;\n    }\n\n    function _emitLogAddToken (\n        address _token,\n        bytes32 _name,\n        bytes32 _symbol,\n        bytes32 _url,\n        uint8 _decimals,\n        bytes32 _ipfsHash,\n        bytes32 _swarmHash)\n    private\n    {\n        ERC20ManagerEmitter emiter = ERC20ManagerEmitter(getEventsHistory());\n        emiter.emitLogAddToken(_token, _name, _symbol, _url, _decimals, _ipfsHash, _swarmHash);\n    }\n\n    function _emitLogTokenChange (\n        address _oldToken,\n        address _token,\n        bytes32 _name,\n        bytes32 _symbol,\n        bytes32 _url,\n        uint8 _decimals,\n        bytes32 _ipfsHash,\n        bytes32 _swarmHash)\n    private\n    {\n        ERC20ManagerEmitter emiter = ERC20ManagerEmitter(getEventsHistory());\n        emiter.emitLogTokenChange(_oldToken, _token, _name, _symbol, _url, _decimals, _ipfsHash, _swarmHash);\n    }\n\n    function _emitLogRemoveToken (\n        address _token,\n        bytes32 _name,\n        bytes32 _symbol,\n        bytes32 _url,\n        uint8 _decimals,\n        bytes32 _ipfsHash,\n        bytes32 _swarmHash)\n    private\n    {\n        ERC20ManagerEmitter emiter = ERC20ManagerEmitter(getEventsHistory());\n        emiter.emitLogRemoveToken(_token, _name, _symbol, _url, _decimals, _ipfsHash, _swarmHash);\n    }\n\n    /// Emits error log via events history contract\n    function _emitError(uint e) private returns (uint)   {\n        ERC20Manager(getEventsHistory()).emitError(e);\n        return e;\n    }\n\n    function _addToken(address _token) private {\n        if (_includesToken(_token)) {\n            return;\n        }\n\n        uint _lastIdx = _countTokens() + 1;\n        store.set(tokenAddresses.innerSet.values, bytes32(_lastIdx), bytes32(_token));\n        store.set(tokenAddresses.innerSet.indexes, bytes32(_token), bytes32(_lastIdx));\n        store.set(tokenAddresses.innerSet.count, _lastIdx);\n    }\n\n    function _removeToken(address _token) private {\n        if (!_includesToken(_token)) {\n            return;\n        }\n\n        uint _lastIdx = _countTokens();\n        bytes32 _lastValue = store.get(tokenAddresses.innerSet.values, bytes32(_lastIdx));\n        uint _idx = uint(store.get(tokenAddresses.innerSet.indexes, bytes32(_token)));\n        if (_idx < _lastIdx) {\n            store.set(tokenAddresses.innerSet.indexes, _lastValue, bytes32(_idx));\n            store.set(tokenAddresses.innerSet.values, bytes32(_idx), _lastValue);\n        }\n        store.set(tokenAddresses.innerSet.indexes, bytes32(_token), bytes32(0));\n        store.set(tokenAddresses.innerSet.values, bytes32(_lastIdx), bytes32(0));\n        store.set(tokenAddresses.innerSet.count, _lastIdx - 1);\n    }\n\n    function _includesToken(address _token) private view returns (bool) {\n        return store.get(tokenAddresses.innerSet.indexes, bytes32(_token)) != 0;\n    }\n\n    function _countTokens() private view returns (uint) {\n        return store.get(tokenAddresses.innerSet.count);\n    }\n\n    function _replaceToken(address _from, address _to) private {\n        if (!_includesToken(_from)) {\n            return;\n        }\n        uint _idx = uint(store.get(tokenAddresses.innerSet.indexes, bytes32(_from)));\n        store.set(tokenAddresses.innerSet.values, bytes32(_idx), bytes32(_to));\n        store.set(tokenAddresses.innerSet.indexes, bytes32(_to), bytes32(_idx));\n        store.set(tokenAddresses.innerSet.indexes, bytes32(_from), bytes32(0));\n    }\n\n    function _getTokens() private view returns (address[] _tokens) {\n        _tokens = new address[](_countTokens());\n        for (uint _tokenIdx = 0; _tokenIdx < _tokens.length; ++_tokenIdx) {\n            _tokens[_tokenIdx] = _getTokenByIndex(_tokenIdx);\n        }\n    }\n\n    function _getTokenByIndex(uint _idx) private view returns (address) {\n        return address(store.get(tokenAddresses.innerSet.values, bytes32(_idx + 1)));\n    }\n}\n",
  "sourcePath": "/Users/alesanro/Documents/Projects/ChronoBank/SmartContracts/contracts/core/erc20/ERC20Manager.sol",
  "compiler": {
    "name": "solc",
    "version": "0.4.19+commit.c4cbbb05.Emscripten.clang"
  },
  "schemaVersion": "2.0.0",
  "updatedAt": "2018-04-03T17:08:18.530Z"
}