{
  "contractName": "ERC20Manager",
  "abi": [
    {
      "constant": false,
      "inputs": [],
      "name": "claimContractOwnership",
      "outputs": [
        {
          "name": "",
          "type": "bool"
        }
      ],
      "payable": false,
      "stateMutability": "nonpayable",
      "type": "function"
    },
    {
      "constant": true,
      "inputs": [
        {
          "name": "_identifier",
          "type": "bytes32"
        }
      ],
      "name": "lookupManager",
      "outputs": [
        {
          "name": "manager",
          "type": "address"
        }
      ],
      "payable": false,
      "stateMutability": "view",
      "type": "function"
    },
    {
      "constant": true,
      "inputs": [],
      "name": "contractsManager",
      "outputs": [
        {
          "name": "",
          "type": "address"
        }
      ],
      "payable": false,
      "stateMutability": "view",
      "type": "function"
    },
    {
      "constant": false,
      "inputs": [
        {
          "name": "_to",
          "type": "address"
        }
      ],
      "name": "changeContractOwnership",
      "outputs": [
        {
          "name": "",
          "type": "bool"
        }
      ],
      "payable": false,
      "stateMutability": "nonpayable",
      "type": "function"
    },
    {
      "constant": true,
      "inputs": [],
      "name": "pendingContractOwner",
      "outputs": [
        {
          "name": "",
          "type": "address"
        }
      ],
      "payable": false,
      "stateMutability": "view",
      "type": "function"
    },
    {
      "constant": false,
      "inputs": [
        {
          "name": "_eventsHistory",
          "type": "address"
        }
      ],
      "name": "setEventsHistory",
      "outputs": [],
      "payable": false,
      "stateMutability": "nonpayable",
      "type": "function"
    },
    {
      "constant": false,
      "inputs": [
        {
          "name": "oldToken",
          "type": "address"
        },
        {
          "name": "token",
          "type": "address"
        },
        {
          "name": "name",
          "type": "bytes32"
        },
        {
          "name": "symbol",
          "type": "bytes32"
        },
        {
          "name": "url",
          "type": "bytes32"
        },
        {
          "name": "decimals",
          "type": "uint8"
        },
        {
          "name": "ipfsHash",
          "type": "bytes32"
        },
        {
          "name": "swarmHash",
          "type": "bytes32"
        }
      ],
      "name": "emitLogTokenChange",
      "outputs": [],
      "payable": false,
      "stateMutability": "nonpayable",
      "type": "function"
    },
    {
      "constant": false,
      "inputs": [
        {
          "name": "_contractsManager",
          "type": "address"
        }
      ],
      "name": "setContractsManager",
      "outputs": [],
      "payable": false,
      "stateMutability": "nonpayable",
      "type": "function"
    },
    {
      "constant": false,
      "inputs": [],
      "name": "destroy",
      "outputs": [],
      "payable": false,
      "stateMutability": "nonpayable",
      "type": "function"
    },
    {
      "constant": false,
      "inputs": [
        {
          "name": "_to",
          "type": "address"
        }
      ],
      "name": "transferContractOwnership",
      "outputs": [
        {
          "name": "",
          "type": "bool"
        }
      ],
      "payable": false,
      "stateMutability": "nonpayable",
      "type": "function"
    },
    {
      "constant": false,
      "inputs": [
        {
          "name": "token",
          "type": "address"
        },
        {
          "name": "name",
          "type": "bytes32"
        },
        {
          "name": "symbol",
          "type": "bytes32"
        },
        {
          "name": "url",
          "type": "bytes32"
        },
        {
          "name": "decimals",
          "type": "uint8"
        },
        {
          "name": "ipfsHash",
          "type": "bytes32"
        },
        {
          "name": "swarmHash",
          "type": "bytes32"
        }
      ],
      "name": "emitLogAddToken",
      "outputs": [],
      "payable": false,
      "stateMutability": "nonpayable",
      "type": "function"
    },
    {
      "constant": true,
      "inputs": [],
      "name": "contractOwner",
      "outputs": [
        {
          "name": "",
          "type": "address"
        }
      ],
      "payable": false,
      "stateMutability": "view",
      "type": "function"
    },
    {
      "constant": false,
      "inputs": [
        {
          "name": "tokens",
          "type": "address[]"
        },
        {
          "name": "_to",
          "type": "address"
        }
      ],
      "name": "withdrawnTokens",
      "outputs": [
        {
          "name": "",
          "type": "uint256"
        }
      ],
      "payable": false,
      "stateMutability": "nonpayable",
      "type": "function"
    },
    {
      "constant": false,
      "inputs": [
        {
          "name": "error",
          "type": "uint256"
        }
      ],
      "name": "emitError",
      "outputs": [],
      "payable": false,
      "stateMutability": "nonpayable",
      "type": "function"
    },
    {
      "constant": false,
      "inputs": [
        {
          "name": "token",
          "type": "address"
        },
        {
          "name": "name",
          "type": "bytes32"
        },
        {
          "name": "symbol",
          "type": "bytes32"
        },
        {
          "name": "url",
          "type": "bytes32"
        },
        {
          "name": "decimals",
          "type": "uint8"
        },
        {
          "name": "ipfsHash",
          "type": "bytes32"
        },
        {
          "name": "swarmHash",
          "type": "bytes32"
        }
      ],
      "name": "emitLogRemoveToken",
      "outputs": [],
      "payable": false,
      "stateMutability": "nonpayable",
      "type": "function"
    },
    {
      "constant": true,
      "inputs": [
        {
          "name": "key",
          "type": "address"
        }
      ],
      "name": "isAuthorized",
      "outputs": [
        {
          "name": "",
          "type": "bool"
        }
      ],
      "payable": false,
      "stateMutability": "view",
      "type": "function"
    },
    {
      "constant": true,
      "inputs": [],
      "name": "getEventsHistory",
      "outputs": [
        {
          "name": "",
          "type": "address"
        }
      ],
      "payable": false,
      "stateMutability": "view",
      "type": "function"
    },
    {
      "inputs": [
        {
          "name": "_store",
          "type": "address"
        },
        {
          "name": "_crate",
          "type": "bytes32"
        }
      ],
      "payable": false,
      "stateMutability": "nonpayable",
      "type": "constructor"
    },
    {
      "anonymous": false,
      "inputs": [
        {
          "indexed": true,
          "name": "self",
          "type": "address"
        },
        {
          "indexed": false,
          "name": "token",
          "type": "address"
        },
        {
          "indexed": false,
          "name": "name",
          "type": "bytes32"
        },
        {
          "indexed": false,
          "name": "symbol",
          "type": "bytes32"
        },
        {
          "indexed": false,
          "name": "url",
          "type": "bytes32"
        },
        {
          "indexed": false,
          "name": "decimals",
          "type": "uint8"
        },
        {
          "indexed": false,
          "name": "ipfsHash",
          "type": "bytes32"
        },
        {
          "indexed": false,
          "name": "swarmHash",
          "type": "bytes32"
        }
      ],
      "name": "LogAddToken",
      "type": "event"
    },
    {
      "anonymous": false,
      "inputs": [
        {
          "indexed": true,
          "name": "self",
          "type": "address"
        },
        {
          "indexed": false,
          "name": "oldToken",
          "type": "address"
        },
        {
          "indexed": false,
          "name": "token",
          "type": "address"
        },
        {
          "indexed": false,
          "name": "name",
          "type": "bytes32"
        },
        {
          "indexed": false,
          "name": "symbol",
          "type": "bytes32"
        },
        {
          "indexed": false,
          "name": "url",
          "type": "bytes32"
        },
        {
          "indexed": false,
          "name": "decimals",
          "type": "uint8"
        },
        {
          "indexed": false,
          "name": "ipfsHash",
          "type": "bytes32"
        },
        {
          "indexed": false,
          "name": "swarmHash",
          "type": "bytes32"
        }
      ],
      "name": "LogTokenChange",
      "type": "event"
    },
    {
      "anonymous": false,
      "inputs": [
        {
          "indexed": true,
          "name": "self",
          "type": "address"
        },
        {
          "indexed": false,
          "name": "token",
          "type": "address"
        },
        {
          "indexed": false,
          "name": "name",
          "type": "bytes32"
        },
        {
          "indexed": false,
          "name": "symbol",
          "type": "bytes32"
        },
        {
          "indexed": false,
          "name": "url",
          "type": "bytes32"
        },
        {
          "indexed": false,
          "name": "decimals",
          "type": "uint8"
        },
        {
          "indexed": false,
          "name": "ipfsHash",
          "type": "bytes32"
        },
        {
          "indexed": false,
          "name": "swarmHash",
          "type": "bytes32"
        }
      ],
      "name": "LogRemoveToken",
      "type": "event"
    },
    {
      "anonymous": false,
      "inputs": [
        {
          "indexed": true,
          "name": "self",
          "type": "address"
        },
        {
          "indexed": false,
          "name": "errorCode",
          "type": "uint256"
        }
      ],
      "name": "Error",
      "type": "event"
    },
    {
      "constant": false,
      "inputs": [
        {
          "name": "_contractsManager",
          "type": "address"
        }
      ],
      "name": "init",
      "outputs": [
        {
          "name": "",
          "type": "uint256"
        }
      ],
      "payable": false,
      "stateMutability": "nonpayable",
      "type": "function"
    },
    {
      "constant": false,
      "inputs": [
        {
          "name": "_tokenVerifier",
          "type": "address"
        }
      ],
      "name": "setTokenVerifier",
      "outputs": [],
      "payable": false,
      "stateMutability": "nonpayable",
      "type": "function"
    },
    {
      "constant": false,
      "inputs": [
        {
          "name": "_token",
          "type": "address"
        },
        {
          "name": "_name",
          "type": "bytes32"
        },
        {
          "name": "_symbol",
          "type": "bytes32"
        },
        {
          "name": "_url",
          "type": "bytes32"
        },
        {
          "name": "_decimals",
          "type": "uint8"
        },
        {
          "name": "_ipfsHash",
          "type": "bytes32"
        },
        {
          "name": "_swarmHash",
          "type": "bytes32"
        }
      ],
      "name": "addToken",
      "outputs": [
        {
          "name": "",
          "type": "uint256"
        }
      ],
      "payable": false,
      "stateMutability": "nonpayable",
      "type": "function"
    },
    {
      "constant": false,
      "inputs": [
        {
          "name": "_token",
          "type": "address"
        },
        {
          "name": "_newToken",
          "type": "address"
        },
        {
          "name": "_name",
          "type": "bytes32"
        },
        {
          "name": "_symbol",
          "type": "bytes32"
        },
        {
          "name": "_url",
          "type": "bytes32"
        },
        {
          "name": "_decimals",
          "type": "uint8"
        },
        {
          "name": "_ipfsHash",
          "type": "bytes32"
        },
        {
          "name": "_swarmHash",
          "type": "bytes32"
        }
      ],
      "name": "setToken",
      "outputs": [
        {
          "name": "",
          "type": "uint256"
        }
      ],
      "payable": false,
      "stateMutability": "nonpayable",
      "type": "function"
    },
    {
      "constant": false,
      "inputs": [
        {
          "name": "_token",
          "type": "address"
        }
      ],
      "name": "removeTokenByAddress",
      "outputs": [
        {
          "name": "",
          "type": "uint256"
        }
      ],
      "payable": false,
      "stateMutability": "nonpayable",
      "type": "function"
    },
    {
      "constant": false,
      "inputs": [
        {
          "name": "_symbol",
          "type": "bytes32"
        }
      ],
      "name": "removeTokenBySymbol",
      "outputs": [
        {
          "name": "",
          "type": "uint256"
        }
      ],
      "payable": false,
      "stateMutability": "nonpayable",
      "type": "function"
    },
    {
      "constant": true,
      "inputs": [
        {
          "name": "_id",
          "type": "uint256"
        }
      ],
      "name": "getAddressById",
      "outputs": [
        {
          "name": "",
          "type": "address"
        }
      ],
      "payable": false,
      "stateMutability": "view",
      "type": "function"
    },
    {
      "constant": true,
      "inputs": [
        {
          "name": "_symbol",
          "type": "bytes32"
        }
      ],
      "name": "getTokenAddressBySymbol",
      "outputs": [
        {
          "name": "tokenAddress",
          "type": "address"
        }
      ],
      "payable": false,
      "stateMutability": "view",
      "type": "function"
    },
    {
      "constant": true,
      "inputs": [
        {
          "name": "_token",
          "type": "address"
        }
      ],
      "name": "getTokenMetaData",
      "outputs": [
        {
          "name": "_tokenAddress",
          "type": "address"
        },
        {
          "name": "_name",
          "type": "bytes32"
        },
        {
          "name": "_symbol",
          "type": "bytes32"
        },
        {
          "name": "_url",
          "type": "bytes32"
        },
        {
          "name": "_decimals",
          "type": "uint8"
        },
        {
          "name": "_ipfsHash",
          "type": "bytes32"
        },
        {
          "name": "_swarmHash",
          "type": "bytes32"
        }
      ],
      "payable": false,
      "stateMutability": "view",
      "type": "function"
    },
    {
      "constant": true,
      "inputs": [],
      "name": "tokensCount",
      "outputs": [
        {
          "name": "",
          "type": "uint256"
        }
      ],
      "payable": false,
      "stateMutability": "view",
      "type": "function"
    },
    {
      "constant": true,
      "inputs": [],
      "name": "getTokenAddresses",
      "outputs": [
        {
          "name": "_tokenAddresses",
          "type": "address[]"
        }
      ],
      "payable": false,
      "stateMutability": "view",
      "type": "function"
    },
    {
      "constant": true,
      "inputs": [
        {
          "name": "_addresses",
          "type": "address[]"
        }
      ],
      "name": "getTokens",
      "outputs": [
        {
          "name": "_tokensAddresses",
          "type": "address[]"
        },
        {
          "name": "_names",
          "type": "bytes32[]"
        },
        {
          "name": "_symbols",
          "type": "bytes32[]"
        },
        {
          "name": "_urls",
          "type": "bytes32[]"
        },
        {
          "name": "_decimalsArr",
          "type": "uint8[]"
        },
        {
          "name": "_ipfsHashes",
          "type": "bytes32[]"
        },
        {
          "name": "_swarmHashes",
          "type": "bytes32[]"
        }
      ],
      "payable": false,
      "stateMutability": "view",
      "type": "function"
    },
    {
      "constant": true,
      "inputs": [
        {
          "name": "_smbl",
          "type": "bytes32"
        }
      ],
      "name": "getTokenBySymbol",
      "outputs": [
        {
          "name": "_tokenAddress",
          "type": "address"
        },
        {
          "name": "_name",
          "type": "bytes32"
        },
        {
          "name": "_symbol",
          "type": "bytes32"
        },
        {
          "name": "_url",
          "type": "bytes32"
        },
        {
          "name": "_decimals",
          "type": "uint8"
        },
        {
          "name": "_ipfsHash",
          "type": "bytes32"
        },
        {
          "name": "_swarmHash",
          "type": "bytes32"
        }
      ],
      "payable": false,
      "stateMutability": "view",
      "type": "function"
    },
    {
      "constant": true,
      "inputs": [
        {
          "name": "_token",
          "type": "address"
        }
      ],
      "name": "isTokenExists",
      "outputs": [
        {
          "name": "",
          "type": "bool"
        }
      ],
      "payable": false,
      "stateMutability": "view",
      "type": "function"
    },
    {
      "constant": true,
      "inputs": [
        {
          "name": "_symbol",
          "type": "bytes32"
        }
      ],
      "name": "isTokenSymbolExists",
      "outputs": [
        {
          "name": "",
          "type": "bool"
        }
      ],
      "payable": false,
      "stateMutability": "view",
      "type": "function"
    },
    {
      "constant": true,
      "inputs": [
        {
          "name": "_token",
          "type": "address"
        }
      ],
      "name": "isTokenValid",
      "outputs": [
        {
          "name": "",
          "type": "bool"
        }
      ],
      "payable": false,
      "stateMutability": "view",
      "type": "function"
    }
  ],
  "bytecode": "0x606060405234156200001057600080fd5b6040516040806200277683398101604052808051919060200180519150829050818181818162000051600083836401000000006200233e6200030e82021704565b505060028054600160a060020a03338116600160a060020a0319928316179092556005805430909316929091169190911790555073__SetStorageInterface_v_1_1_____________925063d71d1e149150600690506040517c010000000000000000000000000000000000000000000000000000000063ffffffff841602815260048101919091527f746f6b656e416464726573736573000000000000000000000000000000000000602482015260440160006040518083038186803b15156200011b57600080fd5b5af415156200012957600080fd5b50620001699150600990507f746f6b65427953796d626f6c0000000000000000000000000000000000000000640100000000620023646200033482021704565b620001a4600a7f6e616d6500000000000000000000000000000000000000000000000000000000640100000000620023646200033482021704565b620001df600b7f73796d626f6c0000000000000000000000000000000000000000000000000000640100000000620023646200033482021704565b6200021a600c7f75726c0000000000000000000000000000000000000000000000000000000000640100000000620023646200033482021704565b62000255600d7f6970667348617368000000000000000000000000000000000000000000000000640100000000620023646200033482021704565b62000290600e7f737761726d486173680000000000000000000000000000000000000000000000640100000000620023646200033482021704565b620002cb600f7f646563696d616c73000000000000000000000000000000000000000000000000640100000000620023646200033482021704565b6200030660107f746f6b656e566572696669657200000000000000000000000000000000000000640100000000620023826200035282021704565b50506200038a565b8254600160a060020a031916600160a060020a0392909216919091178255600190910155565b6200034e8282640100000000620023826200035282021704565b5050565b81546200036e90826401000000006200239a6200037282021704565b9055565b811515806200037f575080155b156200034e57600080fd5b6123dc806200039a6000396000f3006060604052600436106101875763ffffffff60e060020a60003504166319ab453c811461018c5780631e6154a2146101bd5780631f76fa34146101f1578063273a94aa146102525780634592cd1d146104935780634fe59012146104ba57806353253d31146104ec578063557f4bc9146104ff5780635aa77d3c1461051e5780636521afd714610531578063709c529c1461055257806371d3b5731461058c5780637abccac9146105ab57806383197ef0146105ca5780638d80c922146105dd5780639b256890146105f35780639ed4fa5a14610609578063a64ed8ba14610628578063a843c51f1461063b578063b2c3f8a21461065a578063b4310b7c14610694578063c15e26ba146106c8578063c1900558146106e7578063ce606ee014610706578063d8f9659b14610719578063db236e2414610773578063df26ca0814610789578063eaa4ab0b1461079f578063ee8c24b8146107d3578063fa7fdeb714610839578063fd9541a91461084f578063fe9fbb801461086e578063fff10aba1461088d575b600080fd5b341561019757600080fd5b6101ab600160a060020a03600435166108a0565b60405190815260200160405180910390f35b34156101c857600080fd5b6101ab600160a060020a036004351660243560443560643560ff6084351660a43560c4356108ef565b34156101fc57600080fd5b610207600435610a6c565b604051600160a060020a0390971687526020870195909552604080870194909452606086019290925260ff16608085015260a084015260c083019190915260e0909101905180910390f35b341561025d57600080fd5b6102a16004602481358181019083013580602081810201604051908101604052809392919081815260200183836020028082843750949650610ac595505050505050565b604051808060200180602001806020018060200180602001806020018060200188810388528f818151815260200191508051906020019060200280838360005b838110156102f95780820151838201526020016102e1565b5050505090500188810387528e818151815260200191508051906020019060200280838360005b83811015610338578082015183820152602001610320565b5050505090500188810386528d818151815260200191508051906020019060200280838360005b8381101561037757808201518382015260200161035f565b5050505090500188810385528c818151815260200191508051906020019060200280838360005b838110156103b657808201518382015260200161039e565b5050505090500188810384528b818151815260200191508051906020019060200280838360005b838110156103f55780820151838201526020016103dd565b5050505090500188810383528a818151815260200191508051906020019060200280838360005b8381101561043457808201518382015260200161041c565b50505050905001888103825289818151815260200191508051906020019060200280838360005b8381101561047357808201518382015260200161045b565b505050509050019e50505050505050505050505050505060405180910390f35b341561049e57600080fd5b6104a6610d01565b604051901515815260200160405180910390f35b34156104c557600080fd5b6104d0600435610d4e565b604051600160a060020a03909116815260200160405180910390f35b34156104f757600080fd5b6104d0610dc6565b341561050a57600080fd5b6104a6600160a060020a0360043516610dd5565b341561052957600080fd5b6104d0610e2c565b341561053c57600080fd5b610550600160a060020a0360043516610e3b565b005b341561055d57600080fd5b610550600160a060020a036004358116906024351660443560643560843560ff60a4351660c43560e435610e71565b341561059757600080fd5b610550600160a060020a0360043516610f07565b34156105b657600080fd5b610207600160a060020a0360043516610f3e565b34156105d557600080fd5b610550610fea565b34156105e857600080fd5b6104d0600435611073565b34156105fe57600080fd5b6104a66004356110f1565b341561061457600080fd5b6104a6600160a060020a0360043516611117565b341561063357600080fd5b6101ab611182565b341561064657600080fd5b6104a6600160a060020a03600435166111f6565b341561066557600080fd5b6101ab600160a060020a036004358116906024351660443560643560843560ff60a4351660c43560e43561126f565b341561069f57600080fd5b610550600160a060020a036004351660243560443560643560ff6084351660a43560c435611656565b34156106d357600080fd5b6104a6600160a060020a03600435166116e2565b34156106f257600080fd5b6101ab600160a060020a036004351661178f565b341561071157600080fd5b6104d06117cf565b341561072457600080fd5b6101ab600460248135818101908301358060208181020160405190810160405280939291908181526020018383602002808284375094965050509235600160a060020a031692506117de915050565b341561077e57600080fd5b6101ab600435611915565b341561079457600080fd5b61055060043561195a565b34156107aa57600080fd5b610550600160a060020a036004351660243560443560643560ff6084351660a43560c4356119a1565b34156107de57600080fd5b6107e6611a2d565b60405160208082528190810183818151815260200191508051906020019060200280838360005b8381101561082557808201518382015260200161080d565b505050509050019250505060405180910390f35b341561084457600080fd5b6104d0600435611aa5565b341561085a57600080fd5b610550600160a060020a0360043516611ab9565b341561087957600080fd5b6104a6600160a060020a0360043516611ae3565b341561089857600080fd5b6104d0611b7c565b60025460009033600160a060020a03908116911614156108ea576108e4827f45524332304d616e616765720000000000000000000000000000000000000000611b8b565b50600190505b919050565b60006108fa88611117565b156109115761090a6132cd611d62565b9050610a61565b61091a866110f1565b1561092a5761090a6132cc611d62565b610933886116e2565b15156109445761090a6132c8611d62565b73__SetStorageInterface_v_1_1_____________63b00613df600060068b60405160e060020a63ffffffff861602815260048101939093526024830191909152600160a060020a0316604482015260640160006040518083038186803b15156109ad57600080fd5b5af415156109ba57600080fd5b506109d39150600090506009888b63ffffffff611dc716565b6109e76000600a8a8a63ffffffff611de216565b6109fb6000600b8a8963ffffffff611de216565b610a0f6000600c8a8863ffffffff611de216565b610a266000600f8a60ff881663ffffffff611de216565b610a3a6000600d8a8663ffffffff611de216565b610a4e6000600e8a8563ffffffff611de216565b610a5d88888888888888611df7565b5060015b979650505050505050565b600080600080600080600080610a81896110f1565b1515610a8c57610ab9565b610a9f600060098b63ffffffff611e9b16565b9050610aaa81610f3e565b97509750975097509750975097505b50919395979092949650565b610acd61232c565b610ad561232c565b610add61232c565b610ae561232c565b610aed61232c565b610af561232c565b610afd61232c565b600088511515610b1257610b0f611a2d565b98505b8897508851604051805910610b245750595b908082528060200260200182016040525096508851604051805910610b465750595b908082528060200260200182016040525095508851604051805910610b685750595b908082528060200260200182016040525094508851604051805910610b8a5750595b908082528060200260200182016040525093508851604051805910610bac5750595b908082528060200260200182016040525092508851604051805910610bce5750595b90808252806020026020018201604052509150600090505b8851811015610ab957610c19600a8a8381518110610c0057fe5b906020019060200201516000919063ffffffff611eb016565b878281518110610c2557fe5b60209081029091010152610c40600b8a8381518110610c0057fe5b868281518110610c4c57fe5b60209081029091010152610c67600c8a8381518110610c0057fe5b858281518110610c7357fe5b60209081029091010152610c8e600f8a8381518110610c0057fe5b848281518110610c9a57fe5b60ff909216602092830290910190910152610cbc600d8a8381518110610c0057fe5b838281518110610cc857fe5b60209081029091010152610ce3600e8a8381518110610c0057fe5b828281518110610cef57fe5b60209081029091010152600101610be6565b60035460009033600160a060020a03908116911614610d2257506000610d4b565b506003805460028054600160a060020a0319908116600160a060020a0384161790915516905560015b90565b600454600090600160a060020a031663bc6579278360405160e060020a63ffffffff84160281526004810191909152602401602060405180830381600087803b1515610d9957600080fd5b5af11515610da657600080fd5b5050506040518051915050600160a060020a03811615156108ea57600080fd5b600454600160a060020a031681565b60025460009033600160a060020a03908116911614156108ea57600160a060020a0382161515610e07575060006108ea565b5060038054600160a060020a038316600160a060020a03199091161790556001919050565b600354600160a060020a031681565b60025433600160a060020a0390811691161415610e6e5760058054600160a060020a031916600160a060020a0383161790555b50565b610e79611ec6565b600160a060020a03167f2a4090d982c57b6517904dd975df39845241dcb84e933ac858de040f7b88a4da8989898989898989604051600160a060020a0398891681529690971660208701526040808701959095526060860193909352608085019190915260ff1660a084015260c083015260e082019290925261010001905180910390a25050505050505050565b60025433600160a060020a0390811691161415610e6e5760048054600160a060020a038316600160a060020a031990911617905550565b6000806000806000806000610f5288611117565b1515610f5d57610fdf565b610f706000600a8a63ffffffff611eb016565b9550610f856000600b8a63ffffffff611eb016565b9450610f9a6000600c8a63ffffffff611eb016565b9350610faf6000600f8a63ffffffff611eb016565b9250610fc46000600d8a63ffffffff611eb016565b9150610fd96000600e8a63ffffffff611eb016565b88975090505b919395979092949650565b60025433600160a060020a039081169116141561107157600454600160a060020a031663c375c2ef3060405160e060020a63ffffffff8416028152600160a060020a039091166004820152602401602060405180830381600087803b151561105157600080fd5b5af1151561105e57600080fd5b5050506040518051905050611071611eca565b565b600073__SetStorageInterface_v_1_1_____________6302a1c671600060068560405160e060020a63ffffffff861602815260048101939093526024830191909152604482015260640160206040518083038186803b15156110d557600080fd5b5af415156110e257600080fd5b50505060405180519392505050565b6000806111068160098563ffffffff611e9b16565b600160a060020a0316141592915050565b600073__SetStorageInterface_v_1_1_____________636877fdae600060068560405160e060020a63ffffffff861602815260048101939093526024830191909152600160a060020a0316604482015260640160206040518083038186803b15156110d557600080fd5b600073__SetStorageInterface_v_1_1_____________63b8aaf9b16000600660405160e060020a63ffffffff85160281526004810192909252602482015260440160206040518083038186803b15156111db57600080fd5b5af415156111e857600080fd5b505050604051805191505090565b60025460009033600160a060020a03908116911614156108ea57600160a060020a0382161515611228575060006108ea565b600354600160a060020a03161561124a5760038054600160a060020a03191690555b5060028054600160a060020a038316600160a060020a03199091161790556001919050565b60008061127b33611ae3565b15611649576112898a611117565b15156112a15761129a6132cb611d62565b9150611649565b6112aa896116e2565b15156112bb5761129a6132c8611d62565b6112ce6000600b8c63ffffffff611eb016565b8714611399576112e7600060098963ffffffff611e9b16565b600160a060020a0316151561138e5761131e600961130e6000600b8e63ffffffff611eb016565b600091908263ffffffff611dc716565b600160a060020a038a8116908a161461135e5761134560006009898c63ffffffff611dc716565b6113596000600b8b8a63ffffffff611de216565b611386565b61137260006009898d63ffffffff611dc716565b6113866000600b8c8a63ffffffff611de216565b506001611399565b61129a6132ce611d62565b600160a060020a038a8116908a16146115215788600160a060020a03166318160ddd6040518163ffffffff1660e060020a028152600401602060405180830381600087803b15156113e957600080fd5b5af115156113f657600080fd5b505050604051805190505073__SetStorageInterface_v_1_1_____________63d114e82d600060068d8d60405160e060020a63ffffffff871602815260048101949094526024840192909252600160a060020a03908116604484015216606482015260840160006040518083038186803b151561147357600080fd5b5af4151561148057600080fd5b5050508015156114b25761149e60006009898c63ffffffff611dc716565b6114b26000600b8b8a63ffffffff611de216565b6114c66000600a8b8b63ffffffff611de216565b6114da6000600c8b8963ffffffff611de216565b6114f16000600f8b60ff891663ffffffff611de216565b6115056000600d8b8763ffffffff611de216565b6115196000600e8b8663ffffffff611de216565b889950600190505b876115356000600a8d63ffffffff611eb016565b146115525761154e6000600a8c8b63ffffffff611de216565b5060015b60ff85166115696000600f8d63ffffffff611eb016565b14611589576115856000600f8c60ff891663ffffffff611de216565b5060015b8561159d6000600c8d63ffffffff611eb016565b146115ba576115b66000600c8c8963ffffffff611de216565b5060015b836115ce6000600d8d63ffffffff611eb016565b146115eb576115e76000600d8c8763ffffffff611de216565b5060015b826115ff6000600e8d63ffffffff611eb016565b1461161c576116186000600e8c8663ffffffff611de216565b5060015b801561163b576116328a8a8a8a8a8a8a8a611eed565b60019150611649565b6116466132ce611d62565b91505b5098975050505050505050565b61165e611ec6565b600160a060020a03167fd8fe362388342549167d1194f7d4bc448a4d1a76111d33635f9bd9f0f32f6d4488888888888888604051600160a060020a0390971687526020870195909552604080870194909452606086019290925260ff16608085015260a084015260c083019190915260e0909101905180910390a250505050505050565b6000806116f681601063ffffffff611f9d16565b600160a060020a031615611784576117166000601063ffffffff611f9d16565b905080600160a060020a03166363a9c3d78460405160e060020a63ffffffff8416028152600160a060020a039091166004820152602401602060405180830381600087803b151561176657600080fd5b5af1151561177357600080fd5b505050604051805190509150611789565b600191505b50919050565b600061179a33611ae3565b156108ea576117a882611117565b15156117c0576117b96132cb611d62565b90506108ea565b6117c982611ff4565b92915050565b600254600160a060020a031681565b60025460009081908190819033600160a060020a039081169116141561190c57600092505b85518310156119075785838151811061181857fe5b90602001906020020151915081600160a060020a03166370a082313060405160e060020a63ffffffff8416028152600160a060020a039091166004820152602401602060405180830381600087803b151561187257600080fd5b5af1151561187f57600080fd5b505050604051805191505080156118fc5781600160a060020a031663a9059cbb868360405160e060020a63ffffffff8516028152600160a060020a0390921660048301526024820152604401602060405180830381600087803b15156118e457600080fd5b5af115156118f157600080fd5b505050604051805150505b600190920191611803565b600193505b50505092915050565b600061192033611ae3565b156108ea5761192e826110f1565b151561193f576117b96132ca611d62565b6117c9611955600060098563ffffffff611e9b16565b611ff4565b611962611ec6565b600160a060020a03167f9cf38cf2dbf9139f5c32639950507b10775fbbe0421f3e168bc2d1bb1ae3208c8260405190815260200160405180910390a250565b6119a9611ec6565b600160a060020a03167f8f1f2078a113d304f5aa08269efd043376a69b9b1684c4d61bb6667209511cb288888888888888604051600160a060020a0390971687526020870195909552604080870194909452606086019290925260ff16608085015260a084015260c083019190915260e0909101905180910390a250505050505050565b611a3561232c565b6000611a3f611182565b604051805910611a4c5750595b90808252806020026020018201604052509150600090505b8151811015611aa157611a7681611073565b828281518110611a8257fe5b600160a060020a03909216602092830290910190910152600101611a64565b5090565b60006117c98160098463ffffffff611e9b16565b60025433600160a060020a0390811691161415610e6e57610e6e600060108363ffffffff61210916565b600080611b0f7f557365724d616e61676572000000000000000000000000000000000000000000610d4e565b905080600160a060020a0316632aa09e5a8460405160e060020a63ffffffff8416028152600160a060020a039091166004820152602401602060405180830381600087803b1515611b5f57600080fd5b5af11515611b6c57600080fd5b5050506040518051949350505050565b600554600160a060020a031690565b60025460009081908190819033600160a060020a03908116911614611baf57600080fd5b600160a060020a0386161515611bc457600080fd5b600454600160a060020a0316158015935080611bee5750600454600160a060020a03878116911614155b15611c0f5760048054600160a060020a031916600160a060020a0388161790555b600454600160a060020a031691508163bc65792760405160e060020a63ffffffff83160281527f4d756c74694576656e7473486973746f727900000000000000000000000000006004820152602401602060405180830381600087803b1515611c7757600080fd5b5af11515611c8457600080fd5b5050506040518051915050600160a060020a03811615801590611cb55750600554600160a060020a03828116911614155b15611cd65760058054600160a060020a031916600160a060020a0383161790555b8415611d505781600160a060020a031663b7c46cd5308760405160e060020a63ffffffff8516028152600160a060020a0390921660048301526024820152604401602060405180830381600087803b1515611d3057600080fd5b5af11515611d3d57600080fd5b50505060405180516001149050611d5057fe5b82156119075760069695505050505050565b6000611d6c611b7c565b600160a060020a031663df26ca088360405160e060020a63ffffffff84160281526004810191909152602401600060405180830381600087803b1515611db157600080fd5b5af11515611dbe57600080fd5b50929392505050565b611ddc848484600160a060020a038516612187565b50505050565b611ddc8484600160a060020a03851684612187565b6000611e01611b7c565b905080600160a060020a031663b4310b7c8989898989898960405160e060020a63ffffffff8a16028152600160a060020a03909716600488015260248701959095526044860193909352606485019190915260ff16608484015260a483015260c482015260e401600060405180830381600087803b1515611e8157600080fd5b5af11515611e8e57600080fd5b5050505050505050505050565b6000611ea8848484612215565b949350505050565b6000611ea88484600160a060020a038516612215565b3390565b60025433600160a060020a03908116911614156110715733600160a060020a0316ff5b6000611ef7611b7c565b905080600160a060020a031663709c529c8a8a8a8a8a8a8a8a60405160e060020a63ffffffff8b16028152600160a060020a03988916600482015296909716602487015260448601949094526064850192909252608484015260ff1660a483015260c482015260e481019190915261010401600060405180830381600087803b1515611f8257600080fd5b5af11515611f8f57600080fd5b505050505050505050505050565b815460018301548254600092600160a060020a03169163d3a396869160405160e060020a63ffffffff851602815260048101929092526024820152604401602060405180830381600087803b1515611b5f57600080fd5b60006120708261200c83600a8363ffffffff611eb016565b61201f6000600b8763ffffffff611eb016565b6120326000600c8863ffffffff611eb016565b6120456000600f8963ffffffff611eb016565b6120586000600d8a63ffffffff611eb016565b61206b6000600e8b63ffffffff611eb016565b6122a2565b612088600961130e6000600b8663ffffffff611eb016565b73__SetStorageInterface_v_1_1_____________6354f2ee0d600060068560405160e060020a63ffffffff861602815260048101939093526024830191909152600160a060020a0316604482015260640160006040518083038186803b15156120f157600080fd5b5af415156120fe57600080fd5b506001949350505050565b825460018401548354600160a060020a03909216916379a7cfee91908460405160e060020a63ffffffff861602815260048101939093526024830191909152600160a060020a03166044820152606401600060405180830381600087803b151561217257600080fd5b5af1151561217f57600080fd5b505050505050565b835460018501548454600160a060020a039092169163a14ff85791908560405191825260208201526040908101905180910390208460405160e060020a63ffffffff8616028152600481019390935260248301919091526044820152606401600060405180830381600087803b15156121ff57600080fd5b5af1151561220c57600080fd5b50505050505050565b825460018401548354600092600160a060020a0316916337d9d7fc9185604051918252602082015260409081019051809103902060405160e060020a63ffffffff851602815260048101929092526024820152604401602060405180830381600087803b151561228457600080fd5b5af1151561229157600080fd5b505050604051805195945050505050565b60006122ac611b7c565b905080600160a060020a031663eaa4ab0b8989898989898960405160e060020a63ffffffff8a16028152600160a060020a03909716600488015260248701959095526044860193909352606485019190915260ff16608484015260a483015260c482015260e401600060405180830381600087803b1515611e8157600080fd5b60206040519081016040526000815290565b8254600160a060020a031916600160a060020a0392909216919091178255600190910155565b61236e8282612382565b5050565b61236e8282612382565b61236e82825b815461238e908261239a565b9055565b815461238e90825b811515806123a6575080155b1561236e57600080fd00a165627a7a723058200047d32c43122ffda8eacb9ff68081528d51dd7f556fa0e7ec84af59e544c61c0029",
  "source": "/**\n * Copyright 20172018, LaborX PTY\n * Licensed under the AGPL Version 3 license.\n */\n\npragma solidity ^0.4.21;\n\n\nimport \"../common/BaseManager.sol\";\nimport \"../event/MultiEventsHistory.sol\";\nimport {ERC20Interface as Asset} from \"./ERC20Interface.sol\";\nimport \"./ERC20ManagerEmitter.sol\";\nimport \"../storage/SetStorageInterface_v_1_1.sol\";\n\n\ncontract ERC20TokenVerifier {\n    function verify(address token) public view returns (bool);\n}\n\n\n/// @title ERC20Manager\n///\n/// @notice ERC20Manager contract which keeps track of all ERC20-based tokens\n/// registered in a system.\ncontract ERC20Manager is ERC20ManagerEmitter, BaseManager {\n\n    uint constant ERROR_ERCMANAGER_INVALID_INVOCATION = 13000;\n    uint constant ERROR_ERCMANAGER_TOKEN_SYMBOL_NOT_EXISTS = 13002;\n    uint constant ERROR_ERCMANAGER_TOKEN_NOT_EXISTS = 13003;\n    uint constant ERROR_ERCMANAGER_TOKEN_SYMBOL_ALREADY_EXISTS = 13004;\n    uint constant ERROR_ERCMANAGER_TOKEN_ALREADY_EXISTS = 13005;\n    uint constant ERROR_ERCMANAGER_TOKEN_UNCHANGED = 13006;\n\n    StorageInterface.AddressesSet tokenAddresses;\n    StorageInterface.Bytes32AddressMapping tokenBySymbol;\n    StorageInterface.AddressBytes32Mapping name;\n    StorageInterface.AddressBytes32Mapping symbol;\n    StorageInterface.AddressBytes32Mapping url;\n    StorageInterface.AddressBytes32Mapping ipfsHash;\n    StorageInterface.AddressBytes32Mapping swarmHash;\n    StorageInterface.AddressUIntMapping decimals;\n    StorageInterface.Address tokenVerifier;\n\n    /// @notice Constructor\n    function ERC20Manager(Storage _store, bytes32 _crate) BaseManager(_store, _crate) public {\n        SetStorageInterface_v_1_1.init(tokenAddresses, \"tokenAddresses\");\n        tokenBySymbol.init(\"tokeBySymbol\");\n        name.init(\"name\");\n        symbol.init(\"symbol\");\n        url.init(\"url\");\n        ipfsHash.init(\"ipfsHash\");\n        swarmHash.init(\"swarmHash\");\n        decimals.init(\"decimals\");\n        tokenVerifier.init(\"tokenVerifier\");\n    }\n\n    /// @notice Init the contract\n    function init(address _contractsManager) onlyContractOwner public returns (uint) {\n        BaseManager.init(_contractsManager, \"ERC20Manager\");\n\n        return OK;\n    }\n\n    /// @notice Set ERC20 token verifier\n    function setTokenVerifier(address _tokenVerifier) onlyContractOwner public {\n        store.set(tokenVerifier, _tokenVerifier);\n    }\n\n    /// @notice Allows trusted account/constract to add a new token to the registry.\n    /// @param _token Address of new token.\n    /// @param _name Name of new token.\n    /// @param _symbol Symbol for new token.\n    /// @param _url Token's project URL.\n    /// @param _decimals Number of decimals, divisibility of new token.\n    /// @param _ipfsHash IPFS hash of token icon.\n    /// @param _swarmHash Swarm hash of token icon.\n    function addToken( \n        address _token,\n        bytes32 _name,\n        bytes32 _symbol,\n        bytes32 _url,\n        uint8 _decimals,\n        bytes32 _ipfsHash,\n        bytes32 _swarmHash)\n    public\n    returns (uint)\n    {\n        if (isTokenExists(_token)) {\n            return _emitError(ERROR_ERCMANAGER_TOKEN_ALREADY_EXISTS);\n        }\n\n        if (isTokenSymbolExists(_symbol)) {\n            return _emitError(ERROR_ERCMANAGER_TOKEN_SYMBOL_ALREADY_EXISTS);\n        }\n\n        if (!isTokenValid(_token)) {\n            return _emitError(ERROR_ERCMANAGER_INVALID_INVOCATION);\n        }\n\n        SetStorageInterface_v_1_1.add(store, tokenAddresses, _token);\n        store.set(tokenBySymbol, _symbol, _token);\n        store.set(name, _token, _name);\n        store.set(symbol, _token, _symbol);\n        store.set(url, _token, _url);\n        store.set(decimals, _token, _decimals);\n        store.set(ipfsHash, _token, _ipfsHash);\n        store.set(swarmHash, _token, _swarmHash);\n\n        _emitLogAddToken(_token, _name, _symbol, _url, _decimals, _ipfsHash, _swarmHash);\n        return OK;\n    }\n\n    /// @notice Allows owner to alter a token\n    /// @param _token Address of old token.\n    /// @param _newToken Address of new token.\n    /// @param _name Name of new token.\n    /// @param _symbol Symbol for new token.\n    /// @param _url Token's project URL.\n    /// @param _decimals Number of decimals, divisibility of new token.\n    /// @param _ipfsHash IPFS hash of token icon.\n    /// @param _swarmHash Swarm hash of token icon.\n    function setToken(\n        address _token,\n        address _newToken,\n        bytes32 _name,\n        bytes32 _symbol,\n        bytes32 _url,\n        uint8 _decimals,\n        bytes32 _ipfsHash,\n        bytes32 _swarmHash)\n    onlyAuthorized\n    public\n    returns (uint)\n    {\n        if (!isTokenExists(_token)) {\n            return _emitError(ERROR_ERCMANAGER_TOKEN_NOT_EXISTS);\n        }\n\n        if (!isTokenValid(_newToken)) {\n            return _emitError(ERROR_ERCMANAGER_INVALID_INVOCATION);\n        }\n\n        bool changed;\n        if (_symbol != store.get(symbol, _token)) {\n            if (store.get(tokenBySymbol, _symbol) == 0x0) {\n                store.set(tokenBySymbol, store.get(symbol, _token), 0x0);\n\n                if (_token != _newToken) {\n                    store.set(tokenBySymbol, _symbol, _newToken);\n                    store.set(symbol, _newToken, _symbol);\n                } else {\n                    store.set(tokenBySymbol,_symbol, _token);\n                    store.set(symbol, _token, _symbol);\n                }\n                changed = true;\n            } else {\n                return _emitError(ERROR_ERCMANAGER_TOKEN_UNCHANGED);\n            }\n        }\n\n        if (_token != _newToken) {\n            Asset(_newToken).totalSupply();\n            SetStorageInterface_v_1_1.set(store, tokenAddresses, _token, _newToken);\n\n            if(!changed) {\n                store.set(tokenBySymbol, _symbol, _newToken);\n                store.set(symbol, _newToken, _symbol);\n            }\n            store.set(name, _newToken, _name);\n            store.set(url, _newToken, _url);\n            store.set(decimals, _newToken, _decimals);\n            store.set(ipfsHash, _newToken, _ipfsHash);\n            store.set(swarmHash, _newToken, _swarmHash);\n            _token = _newToken;\n            changed = true;\n        }\n\n        if (store.get(name, _token) != _name) {\n            store.set(name, _token, _name);\n            changed = true;\n        }\n\n        if (store.get(decimals, _token) != _decimals) {\n            store.set(decimals, _token, _decimals);\n            changed = true;\n        }\n        \n        if (store.get(url, _token) != _url) {\n            store.set(url, _token, _url);\n            changed = true;\n        }\n\n        if (store.get(ipfsHash, _token) != _ipfsHash) {\n            store.set(ipfsHash, _token, _ipfsHash);\n            changed = true;\n        }\n\n        if (store.get(swarmHash, _token) != _swarmHash) {\n            store.set(swarmHash, _token, _swarmHash);\n            changed = true;\n        }\n\n        if (changed) {\n            _emitLogTokenChange(_token, _newToken, _name, _symbol, _url, _decimals, _ipfsHash, _swarmHash);\n            return OK;\n        }\n\n        return _emitError(ERROR_ERCMANAGER_TOKEN_UNCHANGED);\n    }\n\n    /// @notice Allows CBE to remove an existing token from the registry.\n    /// @param _token Address of existing token.\n    function removeTokenByAddress(address _token)\n    onlyAuthorized\n    public\n    returns (uint)\n    {\n        if (!isTokenExists(_token)) {\n            return _emitError(ERROR_ERCMANAGER_TOKEN_NOT_EXISTS);\n        }\n\n        return removeToken(_token);\n    }\n\n    /// @notice Allows CBE to remove an existing token from the registry.\n    /// @param _symbol Symbol of existing token.\n    function removeTokenBySymbol(bytes32 _symbol)\n    onlyAuthorized\n    public\n    returns (uint)\n    {\n        if (!isTokenSymbolExists(_symbol)) {\n            return _emitError(ERROR_ERCMANAGER_TOKEN_SYMBOL_NOT_EXISTS);\n        }\n\n        return removeToken(store.get(tokenBySymbol,_symbol));\n    }\n\n    /// @notice Returns token's address by given id\n    function getAddressById(uint _id)\n    public \n    view\n    returns (address)\n    {\n        return SetStorageInterface_v_1_1.get(store, tokenAddresses, _id);\n    }\n\n    /// @notice Provides a registered token's address when given the token symbol.\n    /// @param _symbol Symbol of registered token.\n    /// @return Token's address.\n    function getTokenAddressBySymbol(bytes32 _symbol)\n    public\n    view\n    returns (address tokenAddress)\n    {\n        return store.get(tokenBySymbol, _symbol);\n    }\n\n    /// @notice Provides a registered token's metadata, looked up by address.\n    /// @param _token Address of registered token.\n    /// @return Token metadata.\n    function getTokenMetaData(address _token)\n    public\n    view\n    returns (\n      address _tokenAddress,\n      bytes32 _name,\n      bytes32 _symbol,\n      bytes32 _url,\n      uint8 _decimals,\n      bytes32 _ipfsHash,\n      bytes32 _swarmHash\n    )\n    {\n        if (!isTokenExists(_token)) {\n            return;\n        }\n\n        _name = store.get(name, _token);\n        _symbol = store.get(symbol, _token);\n        _url = store.get(url, _token);\n        _decimals = uint8(store.get(decimals, _token));\n        _ipfsHash = store.get(ipfsHash, _token);\n        _swarmHash = store.get(swarmHash, _token);\n\n        return (_token, _name, _symbol, _url, _decimals, _ipfsHash, _swarmHash);\n    }\n\n    /// @notice Returns count of registred ERC20 tokens\n    /// @return token count\n    function tokensCount()\n    public\n    view\n    returns (uint)\n    {\n        return SetStorageInterface_v_1_1.count(store, tokenAddresses);\n    }\n\n    /// @notice Returns an array containing all token addresses.\n    /// @return Array of token addresses.\n    function getTokenAddresses()\n    public\n    view\n    returns (address[] _tokenAddresses) {\n        _tokenAddresses = new address[](tokensCount());\n        for (uint _tokenIdx = 0; _tokenIdx < _tokenAddresses.length; ++_tokenIdx) {\n            _tokenAddresses[_tokenIdx] = getAddressById(_tokenIdx);\n        }\n    }\n\n    /// @notice Provides details of a given tokens\n    function getTokens(address[] _addresses)\n    public\n    view\n    returns (\n      address[] _tokensAddresses,\n      bytes32[] _names,\n      bytes32[] _symbols,\n      bytes32[] _urls,\n      uint8[] _decimalsArr,\n      bytes32[] _ipfsHashes,\n      bytes32[] _swarmHashes\n    )\n    {\n        if (_addresses.length == 0) {\n            _addresses = getTokenAddresses();\n        }\n        _tokensAddresses = _addresses;\n        _names = new bytes32[](_addresses.length);\n        _symbols = new bytes32[](_addresses.length);\n        _urls = new bytes32[](_addresses.length);\n        _decimalsArr = new uint8[](_addresses.length);\n        _ipfsHashes = new bytes32[](_addresses.length);\n        _swarmHashes = new bytes32[](_addresses.length);\n\n        for (uint i = 0; i < _addresses.length; i++) {\n            _names[i] = store.get(name, _addresses[i]);\n            _symbols[i] = store.get(symbol, _addresses[i]);\n            _urls[i] = store.get(url, _addresses[i]);\n            _decimalsArr[i] = uint8(store.get(decimals, _addresses[i]));\n            _ipfsHashes[i] = store.get(ipfsHash, _addresses[i]);\n            _swarmHashes[i] = store.get(swarmHash, _addresses[i]);\n        }\n\n        return (_tokensAddresses, _names, _symbols, _urls, _decimalsArr, _ipfsHashes, _swarmHashes);\n    }\n\n    /// @notice Provides a registered token's metadata, looked up by symbol.\n    /// @param _symbol Symbol of registered token.\n    /// @return Token metadata.\n    function getTokenBySymbol(bytes32 _smbl)\n    public\n    view\n    returns (\n      address _tokenAddress,\n      bytes32 _name,\n      bytes32 _symbol,\n      bytes32 _url,\n      uint8 _decimals,\n      bytes32 _ipfsHash,\n      bytes32 _swarmHash\n    )\n    {\n        if (!isTokenSymbolExists(_smbl)) {\n            return;\n        }\n\n        address _token = store.get(tokenBySymbol, _smbl);\n        return getTokenMetaData(_token);\n    }\n\n    /// @notice Tells whether a given token exists or not\n    function isTokenExists(address _token) public view returns (bool) {\n        return SetStorageInterface_v_1_1.includes(store, tokenAddresses, _token);\n    }\n\n    /// @notice Tells whether a given token exists or not\n    function isTokenSymbolExists(bytes32 _symbol) public view returns (bool) {\n        return (store.get(tokenBySymbol, _symbol) != address(0));\n    }\n\n    /// @notice Tells whether a given token valid or not\n    function isTokenValid(address _token) public view returns (bool) {\n        if (store.get(tokenVerifier) != 0x0) {\n            ERC20TokenVerifier verifier = ERC20TokenVerifier(store.get(tokenVerifier));\n            return verifier.verify(_token);\n        }\n\n        return true;\n    }\n\n    /// @notice Allows owner to remove an existing token from the registry.\n    /// @param _token Address of existing token.\n    function removeToken(address _token)\n    internal\n    returns (uint)\n    {\n        _emitLogRemoveToken(\n            _token,\n            store.get(name, _token),\n            store.get(symbol, _token),\n            store.get(url, _token),\n            uint8(store.get(decimals, _token)),\n            store.get(ipfsHash, _token),\n            store.get(swarmHash, _token)\n        );\n\n        store.set(tokenBySymbol, store.get(symbol,_token), address(0));\n\n        SetStorageInterface_v_1_1.remove(store, tokenAddresses, _token);\n        // TODO: ahiatsevich clean up url, decimals, ipfsHash, swarmHash\n\n        return OK;\n    }\n\n    function _emitLogAddToken (\n        address _token,\n        bytes32 _name,\n        bytes32 _symbol,\n        bytes32 _url,\n        uint8 _decimals,\n        bytes32 _ipfsHash,\n        bytes32 _swarmHash)\n    private\n    {\n        ERC20ManagerEmitter emiter = ERC20ManagerEmitter(getEventsHistory());\n        emiter.emitLogAddToken(_token, _name, _symbol, _url, _decimals, _ipfsHash, _swarmHash);\n    }\n\n    function _emitLogTokenChange (\n        address _oldToken,\n        address _token,\n        bytes32 _name,\n        bytes32 _symbol,\n        bytes32 _url,\n        uint8 _decimals,\n        bytes32 _ipfsHash,\n        bytes32 _swarmHash)\n    private\n    {\n        ERC20ManagerEmitter emiter = ERC20ManagerEmitter(getEventsHistory());\n        emiter.emitLogTokenChange(_oldToken, _token, _name, _symbol, _url, _decimals, _ipfsHash, _swarmHash);\n    }\n\n    function _emitLogRemoveToken (\n        address _token,\n        bytes32 _name,\n        bytes32 _symbol,\n        bytes32 _url,\n        uint8 _decimals,\n        bytes32 _ipfsHash,\n        bytes32 _swarmHash)\n    private\n    {\n        ERC20ManagerEmitter emiter = ERC20ManagerEmitter(getEventsHistory());\n        emiter.emitLogRemoveToken(_token, _name, _symbol, _url, _decimals, _ipfsHash, _swarmHash);\n    }\n\n    /// Emits error log via events history contract\n    function _emitError(uint e) private returns (uint) {\n        ERC20Manager(getEventsHistory()).emitError(e);\n        return e;\n    }\n}\n",
  "sourcePath": "/Users/mikefluff/Documents/Programming/Chronobank/test/SmartContracts/contracts/core/erc20/ERC20Manager.sol",
  "compiler": {
    "name": "solc",
    "version": "0.4.21+commit.dfe3193c.Emscripten.clang"
  },
  "schemaVersion": "2.0.0",
  "updatedAt": "2018-04-11T08:26:12.545Z"
}