{
  "contractName": "ERC20DepositStorage",
  "abi": [
    {
      "constant": false,
      "inputs": [],
      "name": "claimContractOwnership",
      "outputs": [
        {
          "name": "",
          "type": "bool"
        }
      ],
      "payable": false,
      "stateMutability": "nonpayable",
      "type": "function"
    },
    {
      "constant": true,
      "inputs": [
        {
          "name": "_identifier",
          "type": "bytes32"
        }
      ],
      "name": "lookupManager",
      "outputs": [
        {
          "name": "manager",
          "type": "address"
        }
      ],
      "payable": false,
      "stateMutability": "view",
      "type": "function"
    },
    {
      "constant": true,
      "inputs": [],
      "name": "contractsManager",
      "outputs": [
        {
          "name": "",
          "type": "address"
        }
      ],
      "payable": false,
      "stateMutability": "view",
      "type": "function"
    },
    {
      "constant": false,
      "inputs": [
        {
          "name": "_to",
          "type": "address"
        }
      ],
      "name": "changeContractOwnership",
      "outputs": [
        {
          "name": "",
          "type": "bool"
        }
      ],
      "payable": false,
      "stateMutability": "nonpayable",
      "type": "function"
    },
    {
      "constant": true,
      "inputs": [],
      "name": "pendingContractOwner",
      "outputs": [
        {
          "name": "",
          "type": "address"
        }
      ],
      "payable": false,
      "stateMutability": "view",
      "type": "function"
    },
    {
      "constant": false,
      "inputs": [
        {
          "name": "_contractsManager",
          "type": "address"
        }
      ],
      "name": "setContractsManager",
      "outputs": [],
      "payable": false,
      "stateMutability": "nonpayable",
      "type": "function"
    },
    {
      "constant": false,
      "inputs": [],
      "name": "destroy",
      "outputs": [],
      "payable": false,
      "stateMutability": "nonpayable",
      "type": "function"
    },
    {
      "constant": false,
      "inputs": [
        {
          "name": "_to",
          "type": "address"
        }
      ],
      "name": "transferContractOwnership",
      "outputs": [
        {
          "name": "",
          "type": "bool"
        }
      ],
      "payable": false,
      "stateMutability": "nonpayable",
      "type": "function"
    },
    {
      "constant": true,
      "inputs": [],
      "name": "contractOwner",
      "outputs": [
        {
          "name": "",
          "type": "address"
        }
      ],
      "payable": false,
      "stateMutability": "view",
      "type": "function"
    },
    {
      "constant": false,
      "inputs": [
        {
          "name": "tokens",
          "type": "address[]"
        },
        {
          "name": "_to",
          "type": "address"
        }
      ],
      "name": "withdrawnTokens",
      "outputs": [
        {
          "name": "",
          "type": "uint256"
        }
      ],
      "payable": false,
      "stateMutability": "nonpayable",
      "type": "function"
    },
    {
      "constant": true,
      "inputs": [
        {
          "name": "key",
          "type": "address"
        }
      ],
      "name": "isAuthorized",
      "outputs": [
        {
          "name": "",
          "type": "bool"
        }
      ],
      "payable": false,
      "stateMutability": "view",
      "type": "function"
    },
    {
      "inputs": [
        {
          "name": "_store",
          "type": "address"
        },
        {
          "name": "_crate",
          "type": "bytes32"
        }
      ],
      "payable": false,
      "stateMutability": "nonpayable",
      "type": "constructor"
    },
    {
      "constant": false,
      "inputs": [
        {
          "name": "_contractsManager",
          "type": "address"
        }
      ],
      "name": "init",
      "outputs": [
        {
          "name": "",
          "type": "uint256"
        }
      ],
      "payable": false,
      "stateMutability": "nonpayable",
      "type": "function"
    },
    {
      "constant": false,
      "inputs": [
        {
          "name": "_sharesContract",
          "type": "address"
        }
      ],
      "name": "setSharesContract",
      "outputs": [],
      "payable": false,
      "stateMutability": "nonpayable",
      "type": "function"
    },
    {
      "constant": true,
      "inputs": [],
      "name": "getSharesContract",
      "outputs": [
        {
          "name": "",
          "type": "address"
        }
      ],
      "payable": false,
      "stateMutability": "view",
      "type": "function"
    },
    {
      "constant": true,
      "inputs": [
        {
          "name": "_token",
          "type": "address"
        }
      ],
      "name": "totalShares",
      "outputs": [
        {
          "name": "",
          "type": "uint256"
        }
      ],
      "payable": false,
      "stateMutability": "view",
      "type": "function"
    },
    {
      "constant": true,
      "inputs": [
        {
          "name": "_token",
          "type": "address"
        }
      ],
      "name": "shareholdersCount",
      "outputs": [
        {
          "name": "",
          "type": "uint256"
        }
      ],
      "payable": false,
      "stateMutability": "view",
      "type": "function"
    },
    {
      "constant": true,
      "inputs": [
        {
          "name": "_token",
          "type": "address"
        },
        {
          "name": "_depositor",
          "type": "address"
        }
      ],
      "name": "depositBalance",
      "outputs": [
        {
          "name": "_balance",
          "type": "uint256"
        }
      ],
      "payable": false,
      "stateMutability": "view",
      "type": "function"
    },
    {
      "constant": false,
      "inputs": [
        {
          "name": "_token",
          "type": "address"
        },
        {
          "name": "_target",
          "type": "address"
        },
        {
          "name": "_amount",
          "type": "uint256"
        }
      ],
      "name": "depositFor",
      "outputs": [],
      "payable": false,
      "stateMutability": "nonpayable",
      "type": "function"
    },
    {
      "constant": false,
      "inputs": [
        {
          "name": "_token",
          "type": "address"
        },
        {
          "name": "_account",
          "type": "address"
        },
        {
          "name": "_amount",
          "type": "uint256"
        },
        {
          "name": "_totalBalance",
          "type": "uint256"
        }
      ],
      "name": "withdrawShares",
      "outputs": [],
      "payable": false,
      "stateMutability": "nonpayable",
      "type": "function"
    }
  ],
  "bytecode": "0x606060405234156200001057600080fd5b604051604080620023c1833981016040528080519190602001805191508290508181816200004f6000838364010000000062001962620003b182021704565b505060028054600160a060020a03191633600160a060020a031617905550620000aa905060057f7368617265686f6c646572730000000000000000000000000000000000000000640100000000620003d78102620019881704565b620000e5600a7f6465706f7369747300000000000000000000000000000000000000000000000064010000000062001996620003f582021704565b62000120600f7f6465706f736974734964436f756e746572000000000000000000000000000000640100000000620019a06200040f82021704565b6200015b60107f616d6f756e747300000000000000000000000000000000000000000000000000640100000000620019b06200042f82021704565b6200019660117f74696d657374616d707300000000000000000000000000000000000000000000640100000000620019b06200042f82021704565b620001d160127f746f74616c53686172657353746f726167650000000000000000000000000000640100000000620019a06200040f82021704565b6200020c60137f736861726573436f6e747261637453746f726167650000000000000000000000640100000000620019a06200040f82021704565b6200024760147f7368617265686f6c646572735f7632000000000000000000000000000000000064010000000062001996620003f582021704565b6200028260197f6465706f736974734964436f756e746572735f76320000000000000000000000640100000000620019b06200042f82021704565b620002bd601a7f616d6f756e747300000000000000000000000000000000000000000000000000640100000000620019a06200040f82021704565b620002f8601b7f74696d657374616d707300000000000000000000000000000000000000000000640100000000620019a06200040f82021704565b62000333601c7f746f74616c53686172657353746f726167655f76320000000000000000000000640100000000620019b06200042f82021704565b6200036e601d7f736861726573436f6e74726163747353746f726167655f763200000000000000640100000000620019f06200044982021704565b620003a960207f6c696d6974416d6f756e747353746f726167655f763200000000000000000000640100000000620019b06200042f82021704565b505062000745565b8254600160a060020a031916600160a060020a0392909216919091178255600190910155565b620003f18282640100000000620019fa6200046382021704565b5050565b620003f1828264010000000062001988620003d782021704565b81546200042b908264010000000062001b556200062282021704565b9055565b620003f18282640100000000620019a06200040f82021704565b620003f1828264010000000062001b6b6200063a82021704565b620004ba82826040519081527f75696e742f636f756e74000000000000000000000000000000000000000000006020820152602a0160405180910390206200040f64010000000002620019a0176401000000009004565b6200051482600101826040519081527f75696e742f6669727374000000000000000000000000000000000000000000006020820152602a0160405180910390206200040f64010000000002620019a0176401000000009004565b6200056e82600201826040519081527f75696e742f6c6173740000000000000000000000000000000000000000000000602082015260290160405180910390206200040f64010000000002620019a0176401000000009004565b620005c882600301826040519081527f75696e742f6e6578740000000000000000000000000000000000000000000000602082015260290160405180910390206200040f64010000000002620019a0176401000000009004565b620003f182600401826040519081527f75696e742f707265760000000000000000000000000000000000000000000000602082015260290160405180910390206200040f64010000000002620019a0176401000000009004565b811515806200062f575080155b15620003f157600080fd5b6200069182826040519081527f636f756e74000000000000000000000000000000000000000000000000000000602082015260250160405180910390206200040f64010000000002620019a0176401000000009004565b620006eb82600101826040519081527f696e646578657300000000000000000000000000000000000000000000000000602082015260270160405180910390206200040f64010000000002620019a0176401000000009004565b620003f182600201826040519081527f76616c7565730000000000000000000000000000000000000000000000000000602082015260260160405180910390206200040f64010000000002620019a0176401000000009004565b611c6c80620007556000396000f3006060604052600436106100ed5763ffffffff60e060020a6000350416630a57ce3b81146100f25780630e7ae6a21461011357806319ab453c1461014a5780634592cd1d146101695780634fe590121461019057806353253d31146101c2578063557f4bc9146101d55780635aa77d3c146101f457806364496475146102075780636ab3c7001461023257806371d3b5731461025157806383197ef014610270578063a843c51f14610283578063b3db428b146102a2578063bf6b874e146102ca578063c61f44b8146102e9578063ce606ee0146102fc578063d8f9659b1461030f578063fe9fbb8014610369575b600080fd5b34156100fd57600080fd5b610111600160a060020a0360043516610388565b005b341561011e57600080fd5b610138600160a060020a0360043581169060243516610483565b60405190815260200160405180910390f35b341561015557600080fd5b610138600160a060020a03600435166104e1565b341561017457600080fd5b61017c61051c565b604051901515815260200160405180910390f35b341561019b57600080fd5b6101a6600435610569565b604051600160a060020a03909116815260200160405180910390f35b34156101cd57600080fd5b6101a66105e1565b34156101e057600080fd5b61017c600160a060020a03600435166105f0565b34156101ff57600080fd5b6101a6610647565b341561021257600080fd5b610111600160a060020a0360043581169060243516604435606435610656565b341561023d57600080fd5b610138600160a060020a0360043516610854565b341561025c57600080fd5b610111600160a060020a03600435166108bb565b341561027b57600080fd5b6101116108f2565b341561028e57600080fd5b61017c600160a060020a0360043516610917565b34156102ad57600080fd5b610111600160a060020a0360043581169060243516604435610990565b34156102d557600080fd5b610138600160a060020a0360043516610ba2565b34156102f457600080fd5b6101a6610bf3565b341561030757600080fd5b6101a6610c0b565b341561031a57600080fd5b610138600460248135818101908301358060208181020160405190810160405280939291908181526020018383602002808284375094965050509235600160a060020a03169250610c1a915050565b341561037457600080fd5b61017c600160a060020a0360043516610d51565b600054600160a060020a031663481c6a756040518163ffffffff1660e060020a028152600401602060405180830381600087803b15156103c757600080fd5b5af115156103d457600080fd5b50505060405180519050600160a060020a0316635cb8dd093360006001015460405160e060020a63ffffffff8516028152600160a060020a0390921660048301526024820152604401602060405180830381600087803b151561043657600080fd5b5af1151561044357600080fd5b50505060405180519050151561045857600080fd5b600160a060020a038116151561046d57600080fd5b610480600060138363ffffffff610dea16565b50565b60008061049781601363ffffffff610e6016565b600160a060020a038581169116146104c5576104b38484610eb7565b90506104be81610ef8565b91506104da565b6104d7600160a060020a038416610ef8565b91505b5092915050565b60025460009033600160a060020a03908116911614156105175760048054600160a060020a031916600160a060020a0384161790555b919050565b60035460009033600160a060020a0390811691161461053d57506000610566565b506003805460028054600160a060020a0319908116600160a060020a0384161790915516905560015b90565b600454600090600160a060020a031663bc6579278360405160e060020a63ffffffff84160281526004810191909152602401602060405180830381600087803b15156105b457600080fd5b5af115156105c157600080fd5b5050506040518051915050600160a060020a038116151561051757600080fd5b600454600160a060020a031681565b60025460009033600160a060020a039081169116141561051757600160a060020a038216151561062257506000610517565b5060038054600160a060020a038316600160a060020a03199091161790556001919050565b600354600160a060020a031681565b600080548190819081908190600160a060020a031663481c6a756040518163ffffffff1660e060020a028152600401602060405180830381600087803b151561069e57600080fd5b5af115156106ab57600080fd5b50505060405180519050600160a060020a0316635cb8dd093360006001015460405160e060020a63ffffffff8516028152600160a060020a0390921660048301526024820152604401602060405180830381600087803b151561070d57600080fd5b5af1151561071a57600080fd5b50505060405180519050151561072f57600080fd5b85151561073b57610849565b61074d6000601363ffffffff610e6016565b600160a060020a031689600160a060020a031614156107d257610779600160a060020a03891688610f86565b945084151561079557610795600060058a63ffffffff61100816565b6107a76000601263ffffffff61102116565b93506107cd60126107be868a63ffffffff61107816565b6000919063ffffffff61108a16565b610849565b6107dc8989610eb7565b92506107e88388610f86565b915081151561080e5761080e60006014600160a060020a038c168b63ffffffff6110ea16565b6108216000601c8b63ffffffff61110516565b9050610849601c8a610839848b63ffffffff61107816565b600092919063ffffffff61112516565b505050505050505050565b600061086781601363ffffffff610e6016565b600160a060020a031682600160a060020a03161415610899576108926000600563ffffffff61113a16565b9050610517565b6108b560006014600160a060020a03851663ffffffff61114616565b92915050565b60025433600160a060020a03908116911614156104805760048054600160a060020a038316600160a060020a031990911617905550565b60025433600160a060020a03908116911614156109155733600160a060020a0316ff5b565b60025460009033600160a060020a039081169116141561051757600160a060020a038216151561094957506000610517565b600354600160a060020a03161561096b5760038054600160a060020a03191690555b5060028054600160a060020a038316600160a060020a03199091161790556001919050565b6000805481908190600160a060020a031663481c6a756040518163ffffffff1660e060020a028152600401602060405180830381600087803b15156109d457600080fd5b5af115156109e157600080fd5b50505060405180519050600160a060020a0316635cb8dd093360006001015460405160e060020a63ffffffff8516028152600160a060020a0390921660048301526024820152604401602060405180830381600087803b1515610a4357600080fd5b5af11515610a5057600080fd5b505050604051805190501515610a6557600080fd5b610a776000601363ffffffff610e6016565b600160a060020a031686600160a060020a03161415610b0f57610aa3600060058763ffffffff61115316565b610ab56000600f63ffffffff61102116565b6001019250610acd6000600f8563ffffffff61108a16565b610ae1600160a060020a0386168486611167565b610af36000601263ffffffff61102116565b9150610b0a60126107be868563ffffffff6111a516565b610b9a565b610b2c60006014600160a060020a0389168863ffffffff6111b416565b610b368686610eb7565b9050610b4b600060198363ffffffff6111c916565b6001019250610b6460006019838663ffffffff6111d616565b610b6f818486611167565b610b826000601c8863ffffffff61110516565b9150610b9a601c87610839878663ffffffff6111a516565b505050505050565b6000610bb581601363ffffffff610e6016565b600160a060020a031682600160a060020a03161415610be0576108926000601263ffffffff61102116565b6108b56000601c8463ffffffff61110516565b6000610c0681601363ffffffff610e6016565b905090565b600254600160a060020a031681565b60025460009081908190819033600160a060020a0390811691161415610d4857600092505b8551831015610d4357858381518110610c5457fe5b90602001906020020151915081600160a060020a03166370a082313060405160e060020a63ffffffff8416028152600160a060020a039091166004820152602401602060405180830381600087803b1515610cae57600080fd5b5af11515610cbb57600080fd5b50505060405180519150508015610d385781600160a060020a031663a9059cbb868360405160e060020a63ffffffff8516028152600160a060020a0390921660048301526024820152604401602060405180830381600087803b1515610d2057600080fd5b5af11515610d2d57600080fd5b505050604051805150505b600190920191610c3f565b600193505b50505092915050565b600080610d7d7f557365724d616e61676572000000000000000000000000000000000000000000610569565b905080600160a060020a0316632aa09e5a8460405160e060020a63ffffffff8416028152600160a060020a039091166004820152602401602060405180830381600087803b1515610dcd57600080fd5b5af11515610dda57600080fd5b5050506040518051949350505050565b825460018401548354600160a060020a03909216916379a7cfee91908460405160e060020a63ffffffff861602815260048101939093526024830191909152600160a060020a03166044820152606401600060405180830381600087803b1515610e5357600080fd5b5af11515610b9a57600080fd5b815460018301548254600092600160a060020a03169163d3a396869160405160e060020a63ffffffff851602815260048101929092526024820152604401602060405180830381600087803b1515610dcd57600080fd5b600082826040516c01000000000000000000000000600160a060020a0393841681028252919092160260148201526028016040518091039020905092915050565b6000610f0261193b565b600080610f1781600a8763ffffffff6111e216565b9250600091505b610f316000600a8563ffffffff6111f516565b15610f7e57610f5f601a86610f4f6000600a8863ffffffff61120216565b600092919063ffffffff61120f16565b9050610f71848263ffffffff6111a516565b9350816001019150610f1e565b505050919050565b6000610f9061193b565b6000610fa481600a8763ffffffff6111e216565b9150610faf8261123d565b92505b610fc56000600a8463ffffffff6111f516565b1561100057610fdd6000600a8463ffffffff61120216565b9050610feb8582868661124a565b94509250831515610ffb57611000565b610fb2565b505092915050565b61101c8383600160a060020a0384166112e3565b505050565b815460018301548254600092600160a060020a0316916353aa3f5e9160405160e060020a63ffffffff851602815260048101929092526024820152604401602060405180830381600087803b1515610dcd57600080fd5b60008282111561108457fe5b50900390565b825460018401548354600160a060020a03909216916353e7168b91908460405160e060020a63ffffffff8616028152600481019390935260248301919091526044820152606401600060405180830381600087803b1515610e5357600080fd5b6110ff848484600160a060020a03851661130f565b50505050565b600061111b8484600160a060020a03851661131b565b90505b9392505050565b6110ff8484600160a060020a038516846113a8565b600061111e8383611436565b600061111b848484611463565b61101c8383600160a060020a038416611470565b61117b6000600a858563ffffffff61149c16565b6111906000601a85858563ffffffff6114a816565b61101c6000601b85854263ffffffff6114a816565b60008282018381101561111e57fe5b6110ff848484600160a060020a0385166114d3565b600061111b84848461131b565b6110ff848484846113a8565b6111ea61193b565b61111b8484846114df565b600061111b8484846114f2565b600061111b8484846114ff565b600061123485858585604051918252602082015260409081019051809103902061131b565b95945050505050565b6000816020015192915050565b6000808061126181601a898963ffffffff61120f16565b90508085101561129f57611293601a8888611282858a63ffffffff61107816565b60009392919063ffffffff6114a816565b839250600091506112d9565b6112b36000600a898963ffffffff61150c16565b6112c484600163ffffffff61107816565b6112d4868363ffffffff61107816565b925092505b5094509492505050565b61101c83837f6f7264657265645f73657400000000000000000000000000000000000000000084611518565b6110ff84848484611518565b825460018401548354600092600160a060020a0316916337d9d7fc9185604051918252602082015260409081019051809103902060405160e060020a63ffffffff851602815260048101929092526024820152604401602060405180830381600087803b151561138a57600080fd5b5af1151561139757600080fd5b505050604051805195945050505050565b835460018501548454600160a060020a039092169163a14ff85791908560405191825260208201526040908101905180910390208460405160e060020a63ffffffff8616028152600481019390935260248301919091526044820152606401600060405180830381600087803b151561142057600080fd5b5af1151561142d57600080fd5b50505050505050565b600061111e83837f6f7264657265645f736574000000000000000000000000000000000000000000611618565b600061111b848484611618565b61101c83837f6f7264657265645f73657400000000000000000000000000000000000000000084611625565b6110ff848484846114d3565b6114cc858585856040519182526020820152604090810190518091039020846113a8565b5050505050565b6110ff84848484611625565b6114e761193b565b61111b8484846116e8565b600061111b848484611706565b600061111b848484611741565b6110ff8484848461130f565b6115248484848461178d565b151561152f576110ff565b61155b8484600301846115478888600401888861120f565b6115568989600301898961120f565b6117c9565b6115828484600401846115738888600301888861120f565b6115568989600401898961120f565b61159084846001018461131b565b8114156115b4576115b48484600101846115af8888600301888861120f565b6113a8565b6115c284846002018461131b565b8114156115e1576115e18484600201846115af8888600401888861120f565b6115f0848460030184846117dc565b6115ff848460040184846117dc565b6110ff84848460016116128484846117f0565b0361185f565b600061111b8484846117f0565b80151561163157600080fd5b61163d8484848461178d565b15611647576110ff565b611652848484611618565b151561166757611667848460010184846113a8565b61167584846002018461131b565b156116af5761169784846003018461169188886002018861131b565b856117c9565b6116af8484600401848461155689896002018961131b565b6116c08460038501848460006117c9565b6116cf848460020184846113a8565b6110ff8484846116e08383836117f0565b60010161185f565b6116f061193b565b61111b8484846117018383836117f0565b6118d7565b60008160200151158061172a575061172884848460600151856040015161178d565b155b156117375750600061111e565b5060019392505050565b600061174e848484611706565b151561175957600080fd5b816040015190506117748484846060015185604001516118f7565b6040830152600160208301818151039052509392505050565b6000811580159061123457506117a88585600301858561120f565b1515806112345750816117bf86600287018661131b565b1495945050505050565b81156114cc576114cc85858585856114a8565b80156110ff576110ff8484848460006114a8565b825460018401548354600092600160a060020a0316916353aa3f5e9185604051918252602082015260409081019051809103902060405160e060020a63ffffffff851602815260048101929092526024820152604401602060405180830381600087803b151561138a57600080fd5b835460018501548454600160a060020a03909216916353e7168b91908560405191825260208201526040908101905180910390208460405160e060020a63ffffffff8616028152600481019390935260248301919091526044820152606401600060405180830381600087803b151561142057600080fd5b6118df61193b565b611234836118f187876001018761131b565b84611908565b60006112348585600301858561120f565b61191061193b565b6080604051908101604090815283825260208201939093529182019290925260608101929092525090565b60806040519081016040908152600080835260208301819052908201819052606082015290565b8254600160a060020a031916600160a060020a0392909216919091178255600190910155565b61199282826119fa565b5050565b6119928282611988565b81546119ac9082611b55565b9055565b61199282826119a0565b81546119ac9082611b55565b6119928282611988565b61199282826119a0565b81546119ac9082611b55565b61199282826119a0565b6119928282611b6b565b611a3b82826040519081527f75696e742f636f756e74000000000000000000000000000000000000000000006020820152602a0160405180910390206119a0565b611a7f82600101826040519081527f75696e742f6669727374000000000000000000000000000000000000000000006020820152602a0160405180910390206119a0565b611ac382600201826040519081527f75696e742f6c6173740000000000000000000000000000000000000000000000602082015260290160405180910390206119a0565b611b0782600301826040519081527f75696e742f6e6578740000000000000000000000000000000000000000000000602082015260290160405180910390206119a0565b61199282600401826040519081527f75696e742f707265760000000000000000000000000000000000000000000000602082015260290160405180910390206119a0565b61199282826119fa565b81151580611b61575080155b1561199257600080fd5b611bac82826040519081527f636f756e74000000000000000000000000000000000000000000000000000000602082015260250160405180910390206119a0565b611bf082600101826040519081527f696e646578657300000000000000000000000000000000000000000000000000602082015260270160405180910390206119a0565b61199282600201826040519081527f76616c7565730000000000000000000000000000000000000000000000000000602082015260260160405180910390206119a0565b81546119ac9082611b555600a165627a7a72305820e1c92a001337565e2fd2d3a70e4b9808c70fb41ee03a4c13dfc2a2834ff6866c0029",
  "source": "pragma solidity ^0.4.11;\n\nimport \"../core/common/Managed.sol\";\nimport \"../core/lib/SafeMath.sol\";\n\n\n/// @title ERC20 Deposit storage.\n///\n/// Contract intends to keep track deposits records.\n/// Supports old and new versions of Deposits and utilized by TimeHolder\n/// to resolve deposit versions.\ncontract ERC20DepositStorage is Managed {\n\n    using SafeMath for uint;\n\n    /** Storage keys */\n\n    StorageInterface.OrderedAddressesSet shareholders;\n    StorageInterface.UIntOrderedSetMapping deposits;\n    StorageInterface.UInt depositsIdCounter;\n    StorageInterface.AddressUIntUIntMapping amounts;\n    StorageInterface.AddressUIntUIntMapping timestamps;\n    StorageInterface.UInt totalSharesStorage;\n    StorageInterface.Address sharesContractStorage;\n\n    StorageInterface.AddressOrderedSetMapping shareholders_v2;\n    StorageInterface.Bytes32UIntMapping depositsIdCounters_v2;\n    StorageInterface.Mapping amounts_v2; // mapping(bytes32(key)=>mapping(bytes32(idx)=>uint(amount))) // to TimeHolder\n    StorageInterface.Mapping timestamps_v2; // mapping(bytes32(key)=>mapping(bytes32(idx)=>uint(time))) // to TimeHolder\n    StorageInterface.AddressUIntMapping totalSharesStorage_v2;\n    StorageInterface.AddressesSet sharesTokenStorage_v2;\n    StorageInterface.AddressUIntMapping limitsStorage_v2;\n\n    /// @dev Restricts access to functions only for TimeHolder sender\n    modifier onlyTimeHolder {\n        require(store.store.manager().isAllowed(msg.sender, store.crate));\n        _;\n    }\n\n    /// @notice Constructor\n    function ERC20DepositStorage(Storage _store, bytes32 _crate) Managed(_store, _crate) {\n        shareholders.init('shareholders');\n        deposits.init('deposits');\n        depositsIdCounter.init('depositsIdCounter');\n        amounts.init('amounts');\n        timestamps.init('timestamps');\n        totalSharesStorage.init('totalSharesStorage');\n        sharesContractStorage.init('sharesContractStorage');\n\n        shareholders_v2.init(\"shareholders_v2\");\n        depositsIdCounters_v2.init(\"depositsIdCounters_v2\");\n        amounts_v2.init(\"amounts\");\n        timestamps_v2.init(\"timestamps\");\n        totalSharesStorage_v2.init(\"totalSharesStorage_v2\");\n        sharesTokenStorage_v2.init(\"sharesContractsStorage_v2\");\n        limitsStorage_v2.init(\"limitAmountsStorage_v2\");\n    }\n\n    /// @notice Init DepositStorage contract.\n    function init(address _contractsManager) onlyContractOwner public returns (uint) {\n        contractsManager = _contractsManager;\n    }\n\n    /// @notice Sets shares token address as default token address. Used for supporting TIME tokens\n    /// @dev Allowed only for TimeHolder call\n    ///\n    /// @param _sharesContract TIME token address\n    function setSharesContract(address _sharesContract) onlyTimeHolder public {\n        require(_sharesContract != 0x0);\n        store.set(sharesContractStorage, _sharesContract);\n    }\n\n    /// @notice Gets address of shares contract\n    function getSharesContract() public view returns (address) {\n        return store.get(sharesContractStorage);\n    }\n\n    /// @notice Gets total number of deposited tokens provided as parameter\n    /// @param _token token address to get info\n    function totalShares(address _token) public view returns (uint) {\n        if (_token == store.get(sharesContractStorage)) {\n            return store.get(totalSharesStorage);\n        }\n\n        return store.get(totalSharesStorage_v2, _token);\n    }\n\n    /// @notice Number of shareholders for provided token\n    /// @return number of shareholders\n    function shareholdersCount(address _token) public view returns (uint) {\n        if (_token == store.get(sharesContractStorage)) {\n            return store.count(shareholders);\n        }\n\n        return store.count(shareholders_v2, bytes32(_token));\n    }\n\n    /// @notice Gets token amount deposited by a particular shareholder.\n    ///\n    /// @param _token token that was deposited\n    /// @param _depositor shareholder address.\n    ///\n    /// @return shares amount.\n    function depositBalance(address _token, address _depositor) public view returns (uint _balance) {\n        if (_token != store.get(sharesContractStorage)) {\n            bytes32 _key = _compileCompositeKey(_token, _depositor);\n            return _depositBalance(_key);\n        }\n\n        return _depositBalance(bytes32(_depositor));\n    }\n\n    /// @notice Deposits for a _target for provided _amount of specified tokens\n    /// @dev Allowed only for TimeHolder call\n    ///\n    /// @param _token token to deposit. Should be in a whitelist\n    /// @param _target deposit destination\n    /// @param _amount amount of deposited tokens\n    function depositFor(address _token, address _target, uint _amount) onlyTimeHolder public {\n        uint id;\n        uint prevAmount;\n\n        if (_token == store.get(sharesContractStorage)) {\n            store.add(shareholders, _target);\n\n            id = store.get(depositsIdCounter) + 1;\n            store.set(depositsIdCounter, id);\n            _addDeposit(bytes32(_target), bytes32(id), _amount);\n\n            prevAmount = store.get(totalSharesStorage);\n            store.set(totalSharesStorage, _amount.add(prevAmount));\n        } else {\n            store.add(shareholders_v2, bytes32(_token), _target);\n\n            bytes32 key = _compileCompositeKey(_token, _target);\n\n            id = store.get(depositsIdCounters_v2, key) + 1;\n            store.set(depositsIdCounters_v2, key, id);\n            _addDeposit(key, bytes32(id), _amount);\n\n            prevAmount = store.get(totalSharesStorage_v2, _token);\n            store.set(totalSharesStorage_v2, _token, _amount.add(prevAmount));\n        }\n    }\n\n    /// @notice Withdraws tokens back to provided account\n    /// @dev Allowed only for TimeHolder call\n    ///\n    /// @param _token token address\n    /// @param _account token recepient\n    /// @param _amount number of tokens to withdraw\n    /// @param _totalBalance total balance of shares\n    function withdrawShares(address _token, address _account, uint _amount, uint _totalBalance) onlyTimeHolder public {\n        if (_totalBalance == 0) {\n            return;\n        }\n\n        if (_token == store.get(sharesContractStorage)) {\n            uint deposits_count_left_v1 = _withdrawShares(bytes32(_account), _amount);\n\n            if (deposits_count_left_v1 == 0) {\n                store.remove(shareholders, _account);\n            }\n\n            uint prevAmount_v1 = store.get(totalSharesStorage);\n            store.set(totalSharesStorage, prevAmount_v1.sub(_amount));\n        } else {\n            bytes32 _key = _compileCompositeKey(_token, _account);\n            uint deposits_count_left_v2 = _withdrawShares(_key, _amount);\n\n            if (deposits_count_left_v2 == 0) {\n                store.remove(shareholders_v2, bytes32(_token), _account);\n            }\n\n            uint prevAmount_v2 = store.get(totalSharesStorage_v2, _token);\n            store.set(totalSharesStorage_v2, _token, prevAmount_v2.sub(_amount));\n        }\n    }\n\n    /// @dev Iterates through deposits and calculates a sum\n    function _depositBalance(bytes32 _key) private view returns (uint _balance) {\n        StorageInterface.Iterator memory iterator = store.listIterator(deposits, _key);\n        for (uint i = 0; store.canGetNextWithIterator(deposits, iterator); ++i) {\n            uint _cur_amount = uint(store.get(amounts_v2, _key, bytes32(store.getNextWithIterator(deposits, iterator))));\n            _balance = _balance.add(_cur_amount);\n        }\n    }\n\n    /// @dev Saves deposit data with provided key\n    ///\n    /// @param _key might be a compositeKey or an account address\n    /// @param _id index of deposit\n    /// @param _amount amount of tokens to deposit\n    function _addDeposit(bytes32 _key, bytes32 _id, uint _amount) private {\n        store.add(deposits, _key, uint(_id));\n        store.set(amounts_v2, _key, _id, bytes32(_amount));\n        store.set(timestamps_v2, _key, _id, bytes32(now));\n    }\n\n    /// @dev Withdraws tokens for provided keys\n    ///\n    /// @param _key might be a compositeKey or an account address\n    /// @param _amount amount of tokens to withdraw\n    ///\n    /// @return _deposits_count_left amount of tokens that is left on deposits\n    function _withdrawShares(bytes32 _key, uint _amount) private returns (uint _deposits_count_left) {\n        StorageInterface.Iterator memory iterator = store.listIterator(deposits, _key);\n        _deposits_count_left = iterator.count();\n        while (store.canGetNextWithIterator(deposits, iterator)) {\n            uint _id = store.getNextWithIterator(deposits, iterator);\n            (_deposits_count_left, _amount) = _withdrawSharesFromDepositV2(_key, _id, _amount, _deposits_count_left);\n            if (_amount == 0) {\n                break;\n            }\n        }\n    }\n\n    /// @dev Withdraws shares from one of made deposits.\n    ///\n    /// @param _key composite key from keccak256(symbol, user)\n    /// @param _id deposit key\n    /// @param _amount deposit amount to withdraw\n    /// @param _depositsLeft number of deposits left\n    ///\n    /// @return {\n    ///   updated deposits left,\n    ///   updated amount left,\n    /// }\n    function _withdrawSharesFromDepositV2(bytes32 _key, uint _id, uint _amount, uint _depositsLeft) private returns (uint, uint) {\n        uint _cur_amount = uint(store.get(amounts_v2, _key, bytes32(_id)));\n        if (_amount < _cur_amount) {\n            store.set(amounts_v2, _key, bytes32(_id), bytes32(_cur_amount.sub(_amount)));\n            return (_depositsLeft, 0);\n        }\n\n        store.remove(deposits, _key, _id);\n        return (_depositsLeft.sub(1), _amount.sub(_cur_amount));\n    }\n\n    /// @dev Gets key combined from token symbol and user's address\n    function _compileCompositeKey(address _token, address _address) private pure returns (bytes32) {\n        return keccak256(_token, _address);\n    }\n}\n",
  "sourcePath": "/Users/alesanro/Documents/Projects/ChronoBank/SmartContracts/contracts/timeholder/ERC20DepositStorage.sol",
  "compiler": {
    "name": "solc",
    "version": "0.4.21+commit.dfe3193c.Emscripten.clang"
  },
  "schemaVersion": "2.0.0",
  "updatedAt": "2018-04-06T09:20:58.850Z"
}