{
  "contractName": "ERC20DepositStorage",
  "abi": [
    {
      "constant": false,
      "inputs": [
        {
          "name": "_sharesContract",
          "type": "address"
        }
      ],
      "name": "setSharesContract",
      "outputs": [],
      "payable": false,
      "stateMutability": "nonpayable",
      "type": "function"
    },
    {
      "constant": true,
      "inputs": [
        {
          "name": "_token",
          "type": "address"
        },
        {
          "name": "_depositor",
          "type": "address"
        }
      ],
      "name": "depositBalance",
      "outputs": [
        {
          "name": "_balance",
          "type": "uint256"
        }
      ],
      "payable": false,
      "stateMutability": "view",
      "type": "function"
    },
    {
      "constant": false,
      "inputs": [
        {
          "name": "_contractsManager",
          "type": "address"
        }
      ],
      "name": "init",
      "outputs": [
        {
          "name": "",
          "type": "uint256"
        }
      ],
      "payable": false,
      "stateMutability": "nonpayable",
      "type": "function"
    },
    {
      "constant": false,
      "inputs": [],
      "name": "claimContractOwnership",
      "outputs": [
        {
          "name": "",
          "type": "bool"
        }
      ],
      "payable": false,
      "stateMutability": "nonpayable",
      "type": "function"
    },
    {
      "constant": true,
      "inputs": [
        {
          "name": "_identifier",
          "type": "bytes32"
        }
      ],
      "name": "lookupManager",
      "outputs": [
        {
          "name": "manager",
          "type": "address"
        }
      ],
      "payable": false,
      "stateMutability": "view",
      "type": "function"
    },
    {
      "constant": true,
      "inputs": [],
      "name": "contractsManager",
      "outputs": [
        {
          "name": "",
          "type": "address"
        }
      ],
      "payable": false,
      "stateMutability": "view",
      "type": "function"
    },
    {
      "constant": false,
      "inputs": [
        {
          "name": "_to",
          "type": "address"
        }
      ],
      "name": "changeContractOwnership",
      "outputs": [
        {
          "name": "",
          "type": "bool"
        }
      ],
      "payable": false,
      "stateMutability": "nonpayable",
      "type": "function"
    },
    {
      "constant": true,
      "inputs": [],
      "name": "pendingContractOwner",
      "outputs": [
        {
          "name": "",
          "type": "address"
        }
      ],
      "payable": false,
      "stateMutability": "view",
      "type": "function"
    },
    {
      "constant": false,
      "inputs": [
        {
          "name": "_token",
          "type": "address"
        },
        {
          "name": "_account",
          "type": "address"
        },
        {
          "name": "_amount",
          "type": "uint256"
        },
        {
          "name": "_totalBalance",
          "type": "uint256"
        }
      ],
      "name": "withdrawShares",
      "outputs": [],
      "payable": false,
      "stateMutability": "nonpayable",
      "type": "function"
    },
    {
      "constant": true,
      "inputs": [
        {
          "name": "_token",
          "type": "address"
        }
      ],
      "name": "shareholdersCount",
      "outputs": [
        {
          "name": "",
          "type": "uint256"
        }
      ],
      "payable": false,
      "stateMutability": "view",
      "type": "function"
    },
    {
      "constant": false,
      "inputs": [
        {
          "name": "_contractsManager",
          "type": "address"
        }
      ],
      "name": "setContractsManager",
      "outputs": [],
      "payable": false,
      "stateMutability": "nonpayable",
      "type": "function"
    },
    {
      "constant": false,
      "inputs": [],
      "name": "destroy",
      "outputs": [],
      "payable": false,
      "stateMutability": "nonpayable",
      "type": "function"
    },
    {
      "constant": false,
      "inputs": [
        {
          "name": "_to",
          "type": "address"
        }
      ],
      "name": "transferContractOwnership",
      "outputs": [
        {
          "name": "",
          "type": "bool"
        }
      ],
      "payable": false,
      "stateMutability": "nonpayable",
      "type": "function"
    },
    {
      "constant": false,
      "inputs": [
        {
          "name": "_token",
          "type": "address"
        },
        {
          "name": "_target",
          "type": "address"
        },
        {
          "name": "_amount",
          "type": "uint256"
        }
      ],
      "name": "depositFor",
      "outputs": [],
      "payable": false,
      "stateMutability": "nonpayable",
      "type": "function"
    },
    {
      "constant": true,
      "inputs": [
        {
          "name": "_token",
          "type": "address"
        }
      ],
      "name": "totalShares",
      "outputs": [
        {
          "name": "",
          "type": "uint256"
        }
      ],
      "payable": false,
      "stateMutability": "view",
      "type": "function"
    },
    {
      "constant": true,
      "inputs": [],
      "name": "getSharesContract",
      "outputs": [
        {
          "name": "",
          "type": "address"
        }
      ],
      "payable": false,
      "stateMutability": "view",
      "type": "function"
    },
    {
      "constant": true,
      "inputs": [],
      "name": "contractOwner",
      "outputs": [
        {
          "name": "",
          "type": "address"
        }
      ],
      "payable": false,
      "stateMutability": "view",
      "type": "function"
    },
    {
      "constant": false,
      "inputs": [
        {
          "name": "tokens",
          "type": "address[]"
        },
        {
          "name": "_to",
          "type": "address"
        }
      ],
      "name": "withdrawnTokens",
      "outputs": [
        {
          "name": "",
          "type": "uint256"
        }
      ],
      "payable": false,
      "stateMutability": "nonpayable",
      "type": "function"
    },
    {
      "constant": true,
      "inputs": [
        {
          "name": "key",
          "type": "address"
        }
      ],
      "name": "isAuthorized",
      "outputs": [
        {
          "name": "",
          "type": "bool"
        }
      ],
      "payable": false,
      "stateMutability": "view",
      "type": "function"
    },
    {
      "inputs": [
        {
          "name": "_store",
          "type": "address"
        },
        {
          "name": "_crate",
          "type": "bytes32"
        }
      ],
      "payable": false,
      "stateMutability": "nonpayable",
      "type": "constructor"
    }
  ],
  "bytecode": "0x606060405234156200001057600080fd5b6040516040806200246f833981016040528080519190602001805191508290508181816200004f6000838364010000000062001a10620003b182021704565b505060028054600160a060020a03191633600160a060020a031617905550620000aa905060057f7368617265686f6c646572730000000000000000000000000000000000000000640100000000620003d7810262001a361704565b620000e5600a7f6465706f7369747300000000000000000000000000000000000000000000000064010000000062001a44620003f582021704565b62000120600f7f6465706f736974734964436f756e74657200000000000000000000000000000064010000000062001a4e6200040f82021704565b6200015b60107f616d6f756e74730000000000000000000000000000000000000000000000000064010000000062001a5e6200042f82021704565b6200019660117f74696d657374616d70730000000000000000000000000000000000000000000064010000000062001a5e6200042f82021704565b620001d160127f746f74616c53686172657353746f72616765000000000000000000000000000064010000000062001a4e6200040f82021704565b6200020c60137f736861726573436f6e747261637453746f72616765000000000000000000000064010000000062001a4e6200040f82021704565b6200024760147f7368617265686f6c646572735f7632000000000000000000000000000000000064010000000062001a44620003f582021704565b6200028260197f6465706f736974734964436f756e746572735f7632000000000000000000000064010000000062001a5e6200042f82021704565b620002bd601a7f616d6f756e74730000000000000000000000000000000000000000000000000064010000000062001a4e6200040f82021704565b620002f8601b7f74696d657374616d70730000000000000000000000000000000000000000000064010000000062001a4e6200040f82021704565b62000333601c7f746f74616c53686172657353746f726167655f7632000000000000000000000064010000000062001a5e6200042f82021704565b6200036e601d7f736861726573436f6e74726163747353746f726167655f76320000000000000064010000000062001a9e6200044982021704565b620003a960207f6c696d6974416d6f756e747353746f726167655f76320000000000000000000064010000000062001a5e6200042f82021704565b505062000745565b8254600160a060020a031916600160a060020a0392909216919091178255600190910155565b620003f1828264010000000062001aa86200046382021704565b5050565b620003f1828264010000000062001a36620003d782021704565b81546200042b908264010000000062001c036200062282021704565b9055565b620003f1828264010000000062001a4e6200040f82021704565b620003f1828264010000000062001c196200063a82021704565b620004ba82826040519081527f75696e742f636f756e74000000000000000000000000000000000000000000006020820152602a0160405180910390206200040f6401000000000262001a4e176401000000009004565b6200051482600101826040519081527f75696e742f6669727374000000000000000000000000000000000000000000006020820152602a0160405180910390206200040f6401000000000262001a4e176401000000009004565b6200056e82600201826040519081527f75696e742f6c6173740000000000000000000000000000000000000000000000602082015260290160405180910390206200040f6401000000000262001a4e176401000000009004565b620005c882600301826040519081527f75696e742f6e6578740000000000000000000000000000000000000000000000602082015260290160405180910390206200040f6401000000000262001a4e176401000000009004565b620003f182600401826040519081527f75696e742f707265760000000000000000000000000000000000000000000000602082015260290160405180910390206200040f6401000000000262001a4e176401000000009004565b811515806200062f575080155b15620003f157600080fd5b6200069182826040519081527f636f756e74000000000000000000000000000000000000000000000000000000602082015260250160405180910390206200040f6401000000000262001a4e176401000000009004565b620006eb82600101826040519081527f696e646578657300000000000000000000000000000000000000000000000000602082015260270160405180910390206200040f6401000000000262001a4e176401000000009004565b620003f182600201826040519081527f76616c7565730000000000000000000000000000000000000000000000000000602082015260260160405180910390206200040f6401000000000262001a4e176401000000009004565b611d1a80620007556000396000f3006060604052600436106100ed5763ffffffff60e060020a6000350416630a57ce3b81146100f25780630e7ae6a21461011357806319ab453c1461014a5780634592cd1d146101695780634fe590121461019057806353253d31146101c2578063557f4bc9146101d55780635aa77d3c146101f457806364496475146102075780636ab3c7001461023257806371d3b5731461025157806383197ef014610270578063a843c51f14610283578063b3db428b146102a2578063bf6b874e146102ca578063c61f44b8146102e9578063ce606ee0146102fc578063d8f9659b1461030f578063fe9fbb8014610369575b600080fd5b34156100fd57600080fd5b610111600160a060020a0360043516610388565b005b341561011e57600080fd5b610138600160a060020a036004358116906024351661049e565b60405190815260200160405180910390f35b341561015557600080fd5b610138600160a060020a03600435166104fc565b341561017457600080fd5b61017c610537565b604051901515815260200160405180910390f35b341561019b57600080fd5b6101a6600435610584565b604051600160a060020a03909116815260200160405180910390f35b34156101cd57600080fd5b6101a6610608565b34156101e057600080fd5b61017c600160a060020a0360043516610617565b34156101ff57600080fd5b6101a661066e565b341561021257600080fd5b610111600160a060020a036004358116906024351660443560643561067d565b341561023d57600080fd5b610138600160a060020a0360043516610894565b341561025c57600080fd5b610111600160a060020a03600435166108fb565b341561027b57600080fd5b610111610932565b341561028e57600080fd5b61017c600160a060020a0360043516610957565b34156102ad57600080fd5b610111600160a060020a03600435811690602435166044356109d0565b34156102d557600080fd5b610138600160a060020a0360043516610bfb565b34156102f457600080fd5b6101a6610c4c565b341561030757600080fd5b6101a6610c64565b341561031a57600080fd5b610138600460248135818101908301358060208181020160405190810160405280939291908181526020018383602002808284375094965050509235600160a060020a03169250610c73915050565b341561037457600080fd5b61017c600160a060020a0360043516610dc4565b60008054600160a060020a03169063481c6a7590604051602001526040518163ffffffff1660e060020a028152600401602060405180830381600087803b15156103d157600080fd5b6102c65a03f115156103e257600080fd5b50505060405180519050600160a060020a0316635cb8dd093360006001015460006040516020015260405160e060020a63ffffffff8516028152600160a060020a0390921660048301526024820152604401602060405180830381600087803b151561044d57600080fd5b6102c65a03f1151561045e57600080fd5b50505060405180519050151561047357600080fd5b600160a060020a038116151561048857600080fd5b61049b600060138363ffffffff610e6a16565b50565b6000806104b281601363ffffffff610ee416565b600160a060020a038581169116146104e0576104ce8484610f43565b90506104d981610f84565b91506104f5565b6104f2600160a060020a038416610f84565b91505b5092915050565b60025460009033600160a060020a03908116911614156105325760048054600160a060020a031916600160a060020a0384161790555b919050565b60035460009033600160a060020a0390811691161461055857506000610581565b506003805460028054600160a060020a0319908116600160a060020a0384161790915516905560015b90565b600454600090600160a060020a031663bc65792783836040516020015260405160e060020a63ffffffff84160281526004810191909152602401602060405180830381600087803b15156105d757600080fd5b6102c65a03f115156105e857600080fd5b5050506040518051915050600160a060020a038116151561053257600080fd5b600454600160a060020a031681565b60025460009033600160a060020a039081169116141561053257600160a060020a038216151561064957506000610532565b5060038054600160a060020a038316600160a060020a03199091161790556001919050565b600354600160a060020a031681565b600080548190819081908190600160a060020a031663481c6a7582604051602001526040518163ffffffff1660e060020a028152600401602060405180830381600087803b15156106cd57600080fd5b6102c65a03f115156106de57600080fd5b50505060405180519050600160a060020a0316635cb8dd093360006001015460006040516020015260405160e060020a63ffffffff8516028152600160a060020a0390921660048301526024820152604401602060405180830381600087803b151561074957600080fd5b6102c65a03f1151561075a57600080fd5b50505060405180519050151561076f57600080fd5b85151561077b57610889565b61078d6000601363ffffffff610ee416565b600160a060020a031689600160a060020a03161415610812576107b9600160a060020a03891688611012565b94508415156107d5576107d5600060058a63ffffffff61109416565b6107e76000601263ffffffff6110ad16565b935061080d60126107fe868a63ffffffff61110c16565b6000919063ffffffff61111e16565b610889565b61081c8989610f43565b92506108288388611012565b915081151561084e5761084e60006014600160a060020a038c168b63ffffffff61117e16565b6108616000601c8b63ffffffff61119916565b9050610889601c8a610879848b63ffffffff61110c16565b600092919063ffffffff6111b916565b505050505050505050565b60006108a781601363ffffffff610ee416565b600160a060020a031682600160a060020a031614156108d9576108d26000600563ffffffff6111ce16565b9050610532565b6108f560006014600160a060020a03851663ffffffff6111da16565b92915050565b60025433600160a060020a039081169116141561049b5760048054600160a060020a038316600160a060020a031990911617905550565b60025433600160a060020a03908116911614156109555733600160a060020a0316ff5b565b60025460009033600160a060020a039081169116141561053257600160a060020a038216151561098957506000610532565b600354600160a060020a0316156109ab5760038054600160a060020a03191690555b5060028054600160a060020a038316600160a060020a03199091161790556001919050565b6000805481908190600160a060020a031663481c6a7582604051602001526040518163ffffffff1660e060020a028152600401602060405180830381600087803b1515610a1c57600080fd5b6102c65a03f11515610a2d57600080fd5b50505060405180519050600160a060020a0316635cb8dd093360006001015460006040516020015260405160e060020a63ffffffff8516028152600160a060020a0390921660048301526024820152604401602060405180830381600087803b1515610a9857600080fd5b6102c65a03f11515610aa957600080fd5b505050604051805190501515610abe57600080fd5b610ad06000601363ffffffff610ee416565b600160a060020a031686600160a060020a03161415610b6857610afc600060058763ffffffff6111e716565b610b0e6000600f63ffffffff6110ad16565b6001019250610b266000600f8563ffffffff61111e16565b610b3a600160a060020a03861684866111fb565b610b4c6000601263ffffffff6110ad16565b9150610b6360126107fe868563ffffffff61123916565b610bf3565b610b8560006014600160a060020a0389168863ffffffff61124816565b610b8f8686610f43565b9050610ba4600060198363ffffffff61125d16565b6001019250610bbd60006019838663ffffffff61126a16565b610bc88184866111fb565b610bdb6000601c8863ffffffff61119916565b9150610bf3601c87610879878663ffffffff61123916565b505050505050565b6000610c0e81601363ffffffff610ee416565b600160a060020a031682600160a060020a03161415610c39576108d26000601263ffffffff6110ad16565b6108f56000601c8463ffffffff61119916565b6000610c5f81601363ffffffff610ee416565b905090565b600254600160a060020a031681565b60025460009081908190819033600160a060020a0390811691161415610dbb57600092505b8551831015610db657858381518110610cad57fe5b90602001906020020151915081600160a060020a03166370a082313060006040516020015260405160e060020a63ffffffff8416028152600160a060020a039091166004820152602401602060405180830381600087803b1515610d1057600080fd5b6102c65a03f11515610d2157600080fd5b50505060405180519150508015610dab5781600160a060020a031663a9059cbb868360006040516020015260405160e060020a63ffffffff8516028152600160a060020a0390921660048301526024820152604401602060405180830381600087803b1515610d8f57600080fd5b6102c65a03f11515610da057600080fd5b505050604051805150505b600190920191610c98565b600193505b50505092915050565b600080610df07f557365724d616e61676572000000000000000000000000000000000000000000610584565b905080600160a060020a0316632aa09e5a8460006040516020015260405160e060020a63ffffffff8416028152600160a060020a039091166004820152602401602060405180830381600087803b1515610e4957600080fd5b6102c65a03f11515610e5a57600080fd5b5050506040518051949350505050565b825460018401548354600160a060020a03909216916379a7cfee91908460405160e060020a63ffffffff861602815260048101939093526024830191909152600160a060020a03166044820152606401600060405180830381600087803b1515610ed357600080fd5b6102c65a03f11515610bf357600080fd5b815460018301548254600092600160a060020a03169163d3a3968691846040516020015260405160e060020a63ffffffff851602815260048101929092526024820152604401602060405180830381600087803b1515610e4957600080fd5b600082826040516c01000000000000000000000000600160a060020a0393841681028252919092160260148201526028016040518091039020905092915050565b6000610f8e6119e9565b600080610fa381600a8763ffffffff61127616565b9250600091505b610fbd6000600a8563ffffffff61128916565b1561100a57610feb601a86610fdb6000600a8863ffffffff61129616565b600092919063ffffffff6112a316565b9050610ffd848263ffffffff61123916565b9350816001019150610faa565b505050919050565b600061101c6119e9565b600061103081600a8763ffffffff61127616565b915061103b826112d1565b92505b6110516000600a8463ffffffff61128916565b1561108c576110696000600a8463ffffffff61129616565b9050611077858286866112de565b945092508315156110875761108c565b61103e565b505092915050565b6110a88383600160a060020a038416611377565b505050565b815460018301548254600092600160a060020a0316916353aa3f5e91846040516020015260405160e060020a63ffffffff851602815260048101929092526024820152604401602060405180830381600087803b1515610e4957600080fd5b60008282111561111857fe5b50900390565b825460018401548354600160a060020a03909216916353e7168b91908460405160e060020a63ffffffff8616028152600481019390935260248301919091526044820152606401600060405180830381600087803b1515610ed357600080fd5b611193848484600160a060020a0385166113a3565b50505050565b60006111af8484600160a060020a0385166113af565b90505b9392505050565b6111938484600160a060020a03851684611449565b60006111b283836114db565b60006111af848484611508565b6110a88383600160a060020a038416611515565b61120f6000600a858563ffffffff61154116565b6112246000601a85858563ffffffff61154d16565b6110a86000601b85854263ffffffff61154d16565b6000828201838110156111b257fe5b611193848484600160a060020a038516611578565b60006111af8484846113af565b61119384848484611449565b61127e6119e9565b6111af848484611584565b60006111af848484611597565b60006111af8484846115a4565b60006112c88585858560405191825260208201526040908101905180910390206113af565b95945050505050565b6000816020015192915050565b600080806112f581601a898963ffffffff6112a316565b90508085101561133357611327601a8888611316858a63ffffffff61110c16565b60009392919063ffffffff61154d16565b8392506000915061136d565b6113476000600a898963ffffffff6115b116565b61135884600163ffffffff61110c16565b611368868363ffffffff61110c16565b925092505b5094509492505050565b6110a883837f6f7264657265645f736574000000000000000000000000000000000000000000846115bd565b611193848484846115bd565b825460018401548354600092600160a060020a0316916337d9d7fc9185604051918252602082015260409081019051809103902060006040516020015260405160e060020a63ffffffff851602815260048101929092526024820152604401602060405180830381600087803b151561142757600080fd5b6102c65a03f1151561143857600080fd5b505050604051805195945050505050565b835460018501548454600160a060020a039092169163a14ff85791908560405191825260208201526040908101905180910390208460405160e060020a63ffffffff8616028152600481019390935260248301919091526044820152606401600060405180830381600087803b15156114c157600080fd5b6102c65a03f115156114d257600080fd5b50505050505050565b60006111b283837f6f7264657265645f7365740000000000000000000000000000000000000000006116bd565b60006111af8484846116bd565b6110a883837f6f7264657265645f736574000000000000000000000000000000000000000000846116ca565b61119384848484611578565b61157185858585604051918252602082015260409081019051809103902084611449565b5050505050565b611193848484846116ca565b61158c6119e9565b6111af84848461178d565b60006111af8484846117ab565b60006111af8484846117e6565b611193848484846113a3565b6115c984848484611832565b15156115d457611193565b6116008484600301846115ec888860040188886112a3565b6115fb898960030189896112a3565b61186e565b611627848460040184611618888860030188886112a3565b6115fb898960040189896112a3565b6116358484600101846113af565b81141561165957611659848460010184611654888860030188886112a3565b611449565b6116678484600201846113af565b81141561168657611686848460020184611654888860040188886112a3565b61169584846003018484611881565b6116a484846004018484611881565b61119384848460016116b7848484611895565b0361190d565b60006111af848484611895565b8015156116d657600080fd5b6116e284848484611832565b156116ec57611193565b6116f78484846116bd565b151561170c5761170c84846001018484611449565b61171a8484600201846113af565b156117545761173c8484600301846117368888600201886113af565b8561186e565b611754848460040184846115fb8989600201896113af565b61176584600385018484600061186e565b61177484846002018484611449565b611193848484611785838383611895565b60010161190d565b6117956119e9565b6111af8484846117a6838383611895565b611985565b6000816020015115806117cf57506117cd848484606001518560400151611832565b155b156117dc575060006111b2565b5060019392505050565b60006117f38484846117ab565b15156117fe57600080fd5b816040015190506118198484846060015185604001516119a5565b6040830152600160208301818151039052509392505050565b600081158015906112c8575061184d858560030185856112a3565b1515806112c85750816118648660028701866113af565b1495945050505050565b811561157157611571858585858561154d565b80156111935761119384848484600061154d565b825460018401548354600092600160a060020a0316916353aa3f5e9185604051918252602082015260409081019051809103902060006040516020015260405160e060020a63ffffffff851602815260048101929092526024820152604401602060405180830381600087803b151561142757600080fd5b835460018501548454600160a060020a03909216916353e7168b91908560405191825260208201526040908101905180910390208460405160e060020a63ffffffff8616028152600481019390935260248301919091526044820152606401600060405180830381600087803b15156114c157600080fd5b61198d6119e9565b6112c88361199f8787600101876113af565b846119b6565b60006112c8858560030185856112a3565b6119be6119e9565b6080604051908101604090815283825260208201939093529182019290925260608101929092525090565b60806040519081016040908152600080835260208301819052908201819052606082015290565b8254600160a060020a031916600160a060020a0392909216919091178255600190910155565b611a408282611aa8565b5050565b611a408282611a36565b8154611a5a9082611c03565b9055565b611a408282611a4e565b8154611a5a9082611c03565b611a408282611a36565b611a408282611a4e565b8154611a5a9082611c03565b611a408282611a4e565b611a408282611c19565b611ae982826040519081527f75696e742f636f756e74000000000000000000000000000000000000000000006020820152602a016040518091039020611a4e565b611b2d82600101826040519081527f75696e742f6669727374000000000000000000000000000000000000000000006020820152602a016040518091039020611a4e565b611b7182600201826040519081527f75696e742f6c617374000000000000000000000000000000000000000000000060208201526029016040518091039020611a4e565b611bb582600301826040519081527f75696e742f6e657874000000000000000000000000000000000000000000000060208201526029016040518091039020611a4e565b611a4082600401826040519081527f75696e742f70726576000000000000000000000000000000000000000000000060208201526029016040518091039020611a4e565b611a408282611aa8565b81151580611c0f575080155b15611a4057600080fd5b611c5a82826040519081527f636f756e7400000000000000000000000000000000000000000000000000000060208201526025016040518091039020611a4e565b611c9e82600101826040519081527f696e64657865730000000000000000000000000000000000000000000000000060208201526027016040518091039020611a4e565b611a4082600201826040519081527f76616c756573000000000000000000000000000000000000000000000000000060208201526026016040518091039020611a4e565b8154611a5a9082611c035600a165627a7a72305820075a1987278d537d7e1ac9b30afe9bb65383462628b8a73815d8884b250d0c900029",
  "source": "pragma solidity ^0.4.11;\n\nimport \"../core/common/Managed.sol\";\nimport \"../core/lib/SafeMath.sol\";\n\n\n/// @title ERC20 Deposit storage.\n///\n/// Contract intends to keep track deposits records.\n/// Supports old and new versions of Deposits and utilized by TimeHolder\n/// to resolve deposit versions.\ncontract ERC20DepositStorage is Managed {\n\n    using SafeMath for uint;\n\n    /** Storage keys */\n\n    StorageInterface.OrderedAddressesSet shareholders;\n    StorageInterface.UIntOrderedSetMapping deposits;\n    StorageInterface.UInt depositsIdCounter;\n    StorageInterface.AddressUIntUIntMapping amounts;\n    StorageInterface.AddressUIntUIntMapping timestamps;\n    StorageInterface.UInt totalSharesStorage;\n    StorageInterface.Address sharesContractStorage;\n\n    StorageInterface.AddressOrderedSetMapping shareholders_v2;\n    StorageInterface.Bytes32UIntMapping depositsIdCounters_v2;\n    StorageInterface.Mapping amounts_v2; // mapping(bytes32(key)=>mapping(bytes32(idx)=>uint(amount))) // to TimeHolder\n    StorageInterface.Mapping timestamps_v2; // mapping(bytes32(key)=>mapping(bytes32(idx)=>uint(time))) // to TimeHolder\n    StorageInterface.AddressUIntMapping totalSharesStorage_v2;\n    StorageInterface.AddressesSet sharesTokenStorage_v2;\n    StorageInterface.AddressUIntMapping limitsStorage_v2;\n\n    /// @dev Restricts access to functions only for TimeHolder sender\n    modifier onlyTimeHolder {\n        require(store.store.manager().isAllowed(msg.sender, store.crate));\n        _;\n    }\n\n    /// @notice Constructor\n    function ERC20DepositStorage(Storage _store, bytes32 _crate) Managed(_store, _crate) {\n        shareholders.init('shareholders');\n        deposits.init('deposits');\n        depositsIdCounter.init('depositsIdCounter');\n        amounts.init('amounts');\n        timestamps.init('timestamps');\n        totalSharesStorage.init('totalSharesStorage');\n        sharesContractStorage.init('sharesContractStorage');\n\n        shareholders_v2.init(\"shareholders_v2\");\n        depositsIdCounters_v2.init(\"depositsIdCounters_v2\");\n        amounts_v2.init(\"amounts\");\n        timestamps_v2.init(\"timestamps\");\n        totalSharesStorage_v2.init(\"totalSharesStorage_v2\");\n        sharesTokenStorage_v2.init(\"sharesContractsStorage_v2\");\n        limitsStorage_v2.init(\"limitAmountsStorage_v2\");\n    }\n\n    /// @notice Init DepositStorage contract.\n    function init(address _contractsManager) onlyContractOwner public returns (uint) {\n        contractsManager = _contractsManager;\n    }\n\n    /// @notice Sets shares token address as default token address. Used for supporting TIME tokens\n    /// @dev Allowed only for TimeHolder call\n    ///\n    /// @param _sharesContract TIME token address\n    function setSharesContract(address _sharesContract) onlyTimeHolder public {\n        require(_sharesContract != 0x0);\n        store.set(sharesContractStorage, _sharesContract);\n    }\n\n    /// @notice Gets address of shares contract\n    function getSharesContract() public view returns (address) {\n        return store.get(sharesContractStorage);\n    }\n\n    /// @notice Gets total number of deposited tokens provided as parameter\n    /// @param _token token address to get info\n    function totalShares(address _token) public view returns (uint) {\n        if (_token == store.get(sharesContractStorage)) {\n            return store.get(totalSharesStorage);\n        }\n\n        return store.get(totalSharesStorage_v2, _token);\n    }\n\n    /// @notice Number of shareholders for provided token\n    /// @return number of shareholders\n    function shareholdersCount(address _token) public view returns (uint) {\n        if (_token == store.get(sharesContractStorage)) {\n            return store.count(shareholders);\n        }\n\n        return store.count(shareholders_v2, bytes32(_token));\n    }\n\n    /// @notice Gets token amount deposited by a particular shareholder.\n    ///\n    /// @param _token token that was deposited\n    /// @param _depositor shareholder address.\n    ///\n    /// @return shares amount.\n    function depositBalance(address _token, address _depositor) public view returns (uint _balance) {\n        if (_token != store.get(sharesContractStorage)) {\n            bytes32 _key = _compileCompositeKey(_token, _depositor);\n            return _depositBalance(_key);\n        }\n\n        return _depositBalance(bytes32(_depositor));\n    }\n\n    /// @notice Deposits for a _target for provided _amount of specified tokens\n    /// @dev Allowed only for TimeHolder call\n    ///\n    /// @param _token token to deposit. Should be in a whitelist\n    /// @param _target deposit destination\n    /// @param _amount amount of deposited tokens\n    function depositFor(address _token, address _target, uint _amount) onlyTimeHolder public {\n        uint id;\n        uint prevAmount;\n\n        if (_token == store.get(sharesContractStorage)) {\n            store.add(shareholders, _target);\n\n            id = store.get(depositsIdCounter) + 1;\n            store.set(depositsIdCounter, id);\n            _addDeposit(bytes32(_target), bytes32(id), _amount);\n\n            prevAmount = store.get(totalSharesStorage);\n            store.set(totalSharesStorage, _amount.add(prevAmount));\n        } else {\n            store.add(shareholders_v2, bytes32(_token), _target);\n\n            bytes32 key = _compileCompositeKey(_token, _target);\n\n            id = store.get(depositsIdCounters_v2, key) + 1;\n            store.set(depositsIdCounters_v2, key, id);\n            _addDeposit(key, bytes32(id), _amount);\n\n            prevAmount = store.get(totalSharesStorage_v2, _token);\n            store.set(totalSharesStorage_v2, _token, _amount.add(prevAmount));\n        }\n    }\n\n    /// @notice Withdraws tokens back to provided account\n    /// @dev Allowed only for TimeHolder call\n    ///\n    /// @param _token token address\n    /// @param _account token recepient\n    /// @param _amount number of tokens to withdraw\n    /// @param _totalBalance total balance of shares\n    function withdrawShares(address _token, address _account, uint _amount, uint _totalBalance) onlyTimeHolder public {\n        if (_totalBalance == 0) {\n            return;\n        }\n\n        if (_token == store.get(sharesContractStorage)) {\n            uint deposits_count_left_v1 = _withdrawShares(bytes32(_account), _amount);\n\n            if (deposits_count_left_v1 == 0) {\n                store.remove(shareholders, _account);\n            }\n\n            uint prevAmount_v1 = store.get(totalSharesStorage);\n            store.set(totalSharesStorage, prevAmount_v1.sub(_amount));\n        } else {\n            bytes32 _key = _compileCompositeKey(_token, _account);\n            uint deposits_count_left_v2 = _withdrawShares(_key, _amount);\n\n            if (deposits_count_left_v2 == 0) {\n                store.remove(shareholders_v2, bytes32(_token), _account);\n            }\n\n            uint prevAmount_v2 = store.get(totalSharesStorage_v2, _token);\n            store.set(totalSharesStorage_v2, _token, prevAmount_v2.sub(_amount));\n        }\n    }\n\n    /// @dev Iterates through deposits and calculates a sum\n    function _depositBalance(bytes32 _key) private view returns (uint _balance) {\n        StorageInterface.Iterator memory iterator = store.listIterator(deposits, _key);\n        for (uint i = 0; store.canGetNextWithIterator(deposits, iterator); ++i) {\n            uint _cur_amount = uint(store.get(amounts_v2, _key, bytes32(store.getNextWithIterator(deposits, iterator))));\n            _balance = _balance.add(_cur_amount);\n        }\n    }\n\n    /// @dev Saves deposit data with provided key\n    ///\n    /// @param _key might be a compositeKey or an account address\n    /// @param _id index of deposit\n    /// @param _amount amount of tokens to deposit\n    function _addDeposit(bytes32 _key, bytes32 _id, uint _amount) private {\n        store.add(deposits, _key, uint(_id));\n        store.set(amounts_v2, _key, _id, bytes32(_amount));\n        store.set(timestamps_v2, _key, _id, bytes32(now));\n    }\n\n    /// @dev Withdraws tokens for provided keys\n    ///\n    /// @param _key might be a compositeKey or an account address\n    /// @param _amount amount of tokens to withdraw\n    ///\n    /// @return _deposits_count_left amount of tokens that is left on deposits\n    function _withdrawShares(bytes32 _key, uint _amount) private returns (uint _deposits_count_left) {\n        StorageInterface.Iterator memory iterator = store.listIterator(deposits, _key);\n        _deposits_count_left = iterator.count();\n        while (store.canGetNextWithIterator(deposits, iterator)) {\n            uint _id = store.getNextWithIterator(deposits, iterator);\n            (_deposits_count_left, _amount) = _withdrawSharesFromDepositV2(_key, _id, _amount, _deposits_count_left);\n            if (_amount == 0) {\n                break;\n            }\n        }\n    }\n\n    /// @dev Withdraws shares from one of made deposits.\n    ///\n    /// @param _key composite key from keccak256(symbol, user)\n    /// @param _id deposit key\n    /// @param _amount deposit amount to withdraw\n    /// @param _depositsLeft number of deposits left\n    ///\n    /// @return {\n    ///   updated deposits left,\n    ///   updated amount left,\n    /// }\n    function _withdrawSharesFromDepositV2(bytes32 _key, uint _id, uint _amount, uint _depositsLeft) private returns (uint, uint) {\n        uint _cur_amount = uint(store.get(amounts_v2, _key, bytes32(_id)));\n        if (_amount < _cur_amount) {\n            store.set(amounts_v2, _key, bytes32(_id), bytes32(_cur_amount.sub(_amount)));\n            return (_depositsLeft, 0);\n        }\n\n        store.remove(deposits, _key, _id);\n        return (_depositsLeft.sub(1), _amount.sub(_cur_amount));\n    }\n\n    /// @dev Gets key combined from token symbol and user's address\n    function _compileCompositeKey(address _token, address _address) private pure returns (bytes32) {\n        return keccak256(_token, _address);\n    }\n}\n",
  "sourcePath": "/Users/ahiatsevich/Development/chronobank/SmartContracts/contracts/timeholder/ERC20DepositStorage.sol",
  "compiler": {
    "name": "solc",
    "version": "0.4.18+commit.9cf6e910.Emscripten.clang"
  },
  "schemaVersion": "1.0.1",
  "updatedAt": "2018-02-05T08:02:41.195Z"
}