{
  "contractName": "ERC20DepositStorage",
  "abi": [
    {
      "constant": false,
      "inputs": [
        {
          "name": "_sharesContract",
          "type": "address"
        }
      ],
      "name": "setSharesContract",
      "outputs": [],
      "payable": false,
      "stateMutability": "nonpayable",
      "type": "function"
    },
    {
      "constant": true,
      "inputs": [
        {
          "name": "_token",
          "type": "address"
        },
        {
          "name": "_depositor",
          "type": "address"
        }
      ],
      "name": "depositBalance",
      "outputs": [
        {
          "name": "_balance",
          "type": "uint256"
        }
      ],
      "payable": false,
      "stateMutability": "view",
      "type": "function"
    },
    {
      "constant": false,
      "inputs": [
        {
          "name": "_contractsManager",
          "type": "address"
        }
      ],
      "name": "init",
      "outputs": [
        {
          "name": "",
          "type": "uint256"
        }
      ],
      "payable": false,
      "stateMutability": "nonpayable",
      "type": "function"
    },
    {
      "constant": false,
      "inputs": [
        {
          "name": "_contractsManager",
          "type": "address"
        }
      ],
      "name": "claimContractOwnership",
      "outputs": [
        {
          "name": "",
          "type": "bool"
        }
      ],
      "payable": false,
      "stateMutability": "nonpayable",
      "type": "function"
    },
    {
      "constant": true,
      "inputs": [
        {
          "name": "_identifier",
          "type": "bytes32"
        },
        {
          "name": "_amount",
          "type": "uint256"
        }
      ],
      "name": "lookupManager",
      "outputs": [
        {
          "name": "manager",
          "type": "address"
        }
      ],
      "payable": false,
      "stateMutability": "view",
      "type": "function"
    },
    {
      "constant": true,
      "inputs": [],
      "name": "contractsManager",
      "outputs": [
        {
          "name": "",
          "type": "address"
        }
      ],
      "payable": false,
      "stateMutability": "view",
      "type": "function"
    },
    {
      "constant": false,
      "inputs": [
        {
          "name": "_to",
          "type": "address"
        }
      ],
      "name": "changeContractOwnership",
      "outputs": [
        {
          "name": "",
          "type": "bool"
        }
      ],
      "payable": false,
      "stateMutability": "nonpayable",
      "type": "function"
    },
    {
      "constant": true,
      "inputs": [
        {
          "name": "_identifier",
          "type": "bytes32"
        }
      ],
      "name": "pendingContractOwner",
      "outputs": [
        {
          "name": "",
          "type": "address"
        }
      ],
      "payable": false,
      "stateMutability": "view",
      "type": "function"
    },
    {
      "constant": false,
      "inputs": [
        {
          "name": "_token",
          "type": "address"
        },
        {
          "name": "_account",
          "type": "address"
        },
        {
          "name": "_amount",
          "type": "uint256"
        },
        {
          "name": "_totalBalance",
          "type": "uint256"
        }
      ],
      "name": "withdrawShares",
      "outputs": [
        {
          "name": "",
          "type": "address"
        }
      ],
      "payable": false,
      "stateMutability": "nonpayable",
      "type": "function"
    },
    {
      "constant": true,
      "inputs": [
        {
          "name": "_token",
          "type": "address"
        }
      ],
      "name": "shareholdersCount",
      "outputs": [
        {
          "name": "",
          "type": "uint256"
        }
      ],
      "payable": false,
      "stateMutability": "view",
      "type": "function"
    },
    {
      "constant": false,
      "inputs": [
        {
          "name": "_contractsManager",
          "type": "address"
        }
      ],
      "name": "setContractsManager",
      "outputs": [
        {
          "name": "",
          "type": "address"
        }
      ],
      "payable": false,
      "stateMutability": "nonpayable",
      "type": "function"
    },
    {
      "constant": false,
      "inputs": [
        {
          "name": "_token",
          "type": "address"
        },
        {
          "name": "_account",
          "type": "address"
        },
        {
          "name": "_amount",
          "type": "uint256"
        },
        {
          "name": "_totalBalance",
          "type": "uint256"
        }
      ],
      "name": "destroy",
      "outputs": [],
      "payable": false,
      "stateMutability": "nonpayable",
      "type": "function"
    },
    {
      "constant": false,
      "inputs": [
        {
          "name": "_to",
          "type": "address"
        }
      ],
      "name": "transferContractOwnership",
      "outputs": [
        {
          "name": "",
          "type": "bool"
        }
      ],
      "payable": false,
      "stateMutability": "nonpayable",
      "type": "function"
    },
    {
      "constant": false,
      "inputs": [
        {
          "name": "_token",
          "type": "address"
        },
        {
          "name": "_target",
          "type": "address"
        },
        {
          "name": "_amount",
          "type": "uint256"
        }
      ],
      "name": "depositFor",
      "outputs": [],
      "payable": false,
      "stateMutability": "nonpayable",
      "type": "function"
    },
    {
      "constant": true,
      "inputs": [
        {
          "name": "_token",
          "type": "address"
        }
      ],
      "name": "totalShares",
      "outputs": [
        {
          "name": "",
          "type": "uint256"
        }
      ],
      "payable": false,
      "stateMutability": "view",
      "type": "function"
    },
    {
      "constant": true,
      "inputs": [
        {
          "name": "_depositor",
          "type": "address"
        }
      ],
      "name": "getSharesContract",
      "outputs": [
        {
          "name": "",
          "type": "address"
        }
      ],
      "payable": false,
      "stateMutability": "view",
      "type": "function"
    },
    {
      "constant": true,
      "inputs": [
        {
          "name": "_to",
          "type": "address"
        }
      ],
      "name": "contractOwner",
      "outputs": [
        {
          "name": "",
          "type": "address"
        }
      ],
      "payable": false,
      "stateMutability": "view",
      "type": "function"
    },
    {
      "constant": false,
      "inputs": [
        {
          "name": "tokens",
          "type": "address[]"
        },
        {
          "name": "_to",
          "type": "address"
        },
        {
          "name": "_amount",
          "type": "uint256"
        }
      ],
      "name": "withdrawnTokens",
      "outputs": [
        {
          "name": "",
          "type": "uint256"
        }
      ],
      "payable": false,
      "stateMutability": "nonpayable",
      "type": "function"
    },
    {
      "constant": true,
      "inputs": [
        {
          "name": "key",
          "type": "address"
        }
      ],
      "name": "isAuthorized",
      "outputs": [
        {
          "name": "",
          "type": "bool"
        }
      ],
      "payable": false,
      "stateMutability": "view",
      "type": "function"
    },
    {
      "constant": true,
      "inputs": [
        {
          "name": "_store",
          "type": "address"
        },
        {
          "name": "_crate",
          "type": "bytes32"
        }
      ],
      "name": "getSharesContract",
      "outputs": [
        {
          "name": "",
          "type": "address"
        }
      ],
      "payable": false,
      "stateMutability": "nonpayable",
      "type": "constructor"
    },
    {
      "constant": true,
      "inputs": [],
      "name": "contractOwner",
      "outputs": [
        {
          "name": "",
          "type": "address"
        }
      ],
      "payable": false,
      "stateMutability": "view",
      "type": "function"
    },
    {
      "constant": false,
      "inputs": [
        {
          "name": "_account",
          "type": "address"
        },
        {
          "name": "_amount",
          "type": "uint256"
        },
        {
          "name": "_totalBalance",
          "type": "uint256"
        }
      ],
      "name": "withdrawShares",
      "outputs": [],
      "payable": false,
      "stateMutability": "nonpayable",
      "type": "function"
    },
    {
      "constant": false,
      "inputs": [
        {
          "name": "tokens",
          "type": "address[]"
        },
        {
          "name": "_to",
          "type": "address"
        }
      ],
      "name": "withdrawnTokens",
      "outputs": [
        {
          "name": "",
          "type": "uint256"
        }
      ],
      "payable": false,
      "stateMutability": "nonpayable",
      "type": "function"
    },
    {
      "constant": true,
      "inputs": [
        {
          "name": "key",
          "type": "address"
        }
      ],
      "name": "isAuthorized",
      "outputs": [
        {
          "name": "",
          "type": "bool"
        }
      ],
      "payable": false,
      "stateMutability": "view",
      "type": "function"
    },
    {
      "inputs": [
        {
          "name": "_store",
          "type": "address"
        },
        {
          "name": "_crate",
          "type": "bytes32"
        }
      ],
      "payable": false,
      "stateMutability": "nonpayable",
      "type": "constructor"
    }
  ],
  "bytecode": "0x606060405234156200001057600080fd5b604051604080620024a4833981016040528080519190602001805191508290508181816200004f6000838364010000000062001a45620003b182021704565b505060028054600160a060020a03191633600160a060020a031617905550620000aa905060057f7368617265686f6c646572730000000000000000000000000000000000000000640100000000620003d7810262001a6b1704565b620000e5600a7f6465706f7369747300000000000000000000000000000000000000000000000064010000000062001a79620003f582021704565b62000120600f7f6465706f736974734964436f756e74657200000000000000000000000000000064010000000062001a836200040f82021704565b6200015b60107f616d6f756e74730000000000000000000000000000000000000000000000000064010000000062001a936200042f82021704565b6200019660117f74696d657374616d70730000000000000000000000000000000000000000000064010000000062001a936200042f82021704565b620001d160127f746f74616c53686172657353746f72616765000000000000000000000000000064010000000062001a836200040f82021704565b6200020c60137f736861726573436f6e747261637453746f72616765000000000000000000000064010000000062001a836200040f82021704565b6200024760147f7368617265686f6c646572735f7632000000000000000000000000000000000064010000000062001a79620003f582021704565b6200028260197f6465706f736974734964436f756e746572735f7632000000000000000000000064010000000062001a936200042f82021704565b620002bd601a7f616d6f756e74730000000000000000000000000000000000000000000000000064010000000062001a836200040f82021704565b620002f8601b7f74696d657374616d70730000000000000000000000000000000000000000000064010000000062001a836200040f82021704565b62000333601c7f746f74616c53686172657353746f726167655f7632000000000000000000000064010000000062001a936200042f82021704565b6200036e601d7f736861726573436f6e74726163747353746f726167655f76320000000000000064010000000062001ad36200044982021704565b620003a960207f6c696d6974416d6f756e747353746f726167655f76320000000000000000000064010000000062001a936200042f82021704565b505062000745565b8254600160a060020a031916600160a060020a0392909216919091178255600190910155565b620003f1828264010000000062001add6200046382021704565b5050565b620003f1828264010000000062001a6b620003d782021704565b81546200042b908264010000000062001c386200062282021704565b9055565b620003f1828264010000000062001a836200040f82021704565b620003f1828264010000000062001c4e6200063a82021704565b620004ba82826040519081527f75696e742f636f756e74000000000000000000000000000000000000000000006020820152602a0160405180910390206200040f6401000000000262001a83176401000000009004565b6200051482600101826040519081527f75696e742f6669727374000000000000000000000000000000000000000000006020820152602a0160405180910390206200040f6401000000000262001a83176401000000009004565b6200056e82600201826040519081527f75696e742f6c6173740000000000000000000000000000000000000000000000602082015260290160405180910390206200040f6401000000000262001a83176401000000009004565b620005c882600301826040519081527f75696e742f6e6578740000000000000000000000000000000000000000000000602082015260290160405180910390206200040f6401000000000262001a83176401000000009004565b620003f182600401826040519081527f75696e742f707265760000000000000000000000000000000000000000000000602082015260290160405180910390206200040f6401000000000262001a83176401000000009004565b811515806200062f575080155b15620003f157600080fd5b6200069182826040519081527f636f756e74000000000000000000000000000000000000000000000000000000602082015260250160405180910390206200040f6401000000000262001a83176401000000009004565b620006eb82600101826040519081527f696e646578657300000000000000000000000000000000000000000000000000602082015260270160405180910390206200040f6401000000000262001a83176401000000009004565b620003f182600201826040519081527f76616c7565730000000000000000000000000000000000000000000000000000602082015260260160405180910390206200040f6401000000000262001a83176401000000009004565b611d4f80620007556000396000f3006060604052600436106100ed5763ffffffff60e060020a6000350416630a57ce3b81146100f25780630e7ae6a21461011357806319ab453c1461014a5780634592cd1d146101695780634fe590121461019057806353253d31146101c2578063557f4bc9146101d55780635aa77d3c146101f457806364496475146102075780636ab3c7001461023257806371d3b5731461025157806383197ef014610270578063a843c51f14610283578063b3db428b146102a2578063bf6b874e146102ca578063c61f44b8146102e9578063ce606ee0146102fc578063d8f9659b1461030f578063fe9fbb8014610369575b600080fd5b34156100fd57600080fd5b610111600160a060020a0360043516610388565b005b341561011e57600080fd5b610138600160a060020a036004358116906024351661049e565b60405190815260200160405180910390f35b341561015557600080fd5b610138600160a060020a03600435166104fc565b341561017457600080fd5b61017c610537565b604051901515815260200160405180910390f35b341561019b57600080fd5b6101a6600435610584565b604051600160a060020a03909116815260200160405180910390f35b34156101cd57600080fd5b6101a6610608565b34156101e057600080fd5b61017c600160a060020a0360043516610617565b34156101ff57600080fd5b6101a661066e565b341561021257600080fd5b610111600160a060020a036004358116906024351660443560643561067d565b341561023d57600080fd5b610138600160a060020a0360043516610894565b341561025c57600080fd5b610111600160a060020a03600435166108fb565b341561027b57600080fd5b610111610932565b341561028e57600080fd5b61017c600160a060020a0360043516610957565b34156102ad57600080fd5b610111600160a060020a03600435811690602435166044356109d0565b34156102d557600080fd5b610138600160a060020a0360043516610bfb565b34156102f457600080fd5b6101a6610c4c565b341561030757600080fd5b6101a6610c64565b341561031a57600080fd5b610138600460248135818101908301358060208181020160405190810160405280939291908181526020018383602002808284375094965050509235600160a060020a03169250610c73915050565b341561037457600080fd5b61017c600160a060020a0360043516610dc4565b60008054600160a060020a03169063481c6a7590604051602001526040518163ffffffff1660e060020a028152600401602060405180830381600087803b15156103d157600080fd5b6102c65a03f115156103e257600080fd5b50505060405180519050600160a060020a0316635cb8dd093360006001015460006040516020015260405160e060020a63ffffffff8516028152600160a060020a0390921660048301526024820152604401602060405180830381600087803b151561044d57600080fd5b6102c65a03f1151561045e57600080fd5b50505060405180519050151561047357600080fd5b600160a060020a038116151561048857600080fd5b61049b600060138363ffffffff610e6a16565b50565b6000806104b281601363ffffffff610ee416565b600160a060020a038581169116146104e0576104ce8484610f43565b90506104d981610f84565b91506104f5565b6104f2600160a060020a038416610f84565b91505b5092915050565b60025460009033600160a060020a03908116911614156105325760048054600160a060020a031916600160a060020a0384161790555b919050565b60035460009033600160a060020a0390811691161461055857506000610581565b506003805460028054600160a060020a0319908116600160a060020a0384161790915516905560015b90565b600454600090600160a060020a031663bc65792783836040516020015260405160e060020a63ffffffff84160281526004810191909152602401602060405180830381600087803b15156105d757600080fd5b6102c65a03f115156105e857600080fd5b5050506040518051915050600160a060020a038116151561053257600080fd5b600454600160a060020a031681565b60025460009033600160a060020a039081169116141561053257600160a060020a038216151561064957506000610532565b5060038054600160a060020a038316600160a060020a03199091161790556001919050565b600354600160a060020a031681565b600080548190819081908190600160a060020a031663481c6a7582604051602001526040518163ffffffff1660e060020a028152600401602060405180830381600087803b15156106cd57600080fd5b6102c65a03f115156106de57600080fd5b50505060405180519050600160a060020a0316635cb8dd093360006001015460006040516020015260405160e060020a63ffffffff8516028152600160a060020a0390921660048301526024820152604401602060405180830381600087803b151561074957600080fd5b6102c65a03f1151561075a57600080fd5b50505060405180519050151561076f57600080fd5b85151561077b57610889565b61078d6000601363ffffffff610ee416565b600160a060020a031689600160a060020a03161415610812576107b9600160a060020a03891688611012565b94508415156107d5576107d5600060058a63ffffffff61108b16565b6107e76000601263ffffffff6110a416565b935061080d60126107fe868a63ffffffff61110316565b6000919063ffffffff61111516565b610889565b61081c8989610f43565b92506108288388611012565b915081151561084e5761084e60006014600160a060020a038c168b63ffffffff61117516565b6108616000601c8b63ffffffff61119016565b9050610889601c8a610879848b63ffffffff61110316565b600092919063ffffffff6111b016565b505050505050505050565b60006108a781601363ffffffff610ee416565b600160a060020a031682600160a060020a031614156108d9576108d26000600563ffffffff6111c516565b9050610532565b6108f560006014600160a060020a03851663ffffffff6111d116565b92915050565b60025433600160a060020a039081169116141561049b5760048054600160a060020a038316600160a060020a031990911617905550565b60025433600160a060020a03908116911614156109555733600160a060020a0316ff5b565b60025460009033600160a060020a039081169116141561053257600160a060020a038216151561098957506000610532565b600354600160a060020a0316156109ab5760038054600160a060020a03191690555b5060028054600160a060020a038316600160a060020a03199091161790556001919050565b6000805481908190600160a060020a031663481c6a7582604051602001526040518163ffffffff1660e060020a028152600401602060405180830381600087803b1515610a1c57600080fd5b6102c65a03f11515610a2d57600080fd5b50505060405180519050600160a060020a0316635cb8dd093360006001015460006040516020015260405160e060020a63ffffffff8516028152600160a060020a0390921660048301526024820152604401602060405180830381600087803b1515610a9857600080fd5b6102c65a03f11515610aa957600080fd5b505050604051805190501515610abe57600080fd5b610ad06000601363ffffffff610ee416565b600160a060020a031686600160a060020a03161415610b6857610afc600060058763ffffffff6111de16565b610b0e6000600f63ffffffff6110a416565b6001019250610b266000600f8563ffffffff61111516565b610b3a600160a060020a03861684866111f2565b610b4c6000601263ffffffff6110a416565b9150610b6360126107fe868563ffffffff61123016565b610bf3565b610b8560006014600160a060020a0389168863ffffffff61123f16565b610b8f8686610f43565b9050610ba4600060198363ffffffff61125416565b6001019250610bbd60006019838663ffffffff61126116565b610bc88184866111f2565b610bdb6000601c8863ffffffff61119016565b9150610bf3601c87610879878663ffffffff61123016565b505050505050565b6000610c0e81601363ffffffff610ee416565b600160a060020a031682600160a060020a03161415610c39576108d26000601263ffffffff6110a416565b6108f56000601c8463ffffffff61119016565b6000610c5f81601363ffffffff610ee416565b905090565b600254600160a060020a031681565b60025460009081908190819033600160a060020a0390811691161415610dbb57600092505b8551831015610db657858381518110610cad57fe5b90602001906020020151915081600160a060020a03166370a082313060006040516020015260405160e060020a63ffffffff8416028152600160a060020a039091166004820152602401602060405180830381600087803b1515610d1057600080fd5b6102c65a03f11515610d2157600080fd5b50505060405180519150508015610dab5781600160a060020a031663a9059cbb868360006040516020015260405160e060020a63ffffffff8516028152600160a060020a0390921660048301526024820152604401602060405180830381600087803b1515610d8f57600080fd5b6102c65a03f11515610da057600080fd5b505050604051805150505b600190920191610c98565b600193505b50505092915050565b600080610df07f557365724d616e61676572000000000000000000000000000000000000000000610584565b905080600160a060020a0316632aa09e5a8460006040516020015260405160e060020a63ffffffff8416028152600160a060020a039091166004820152602401602060405180830381600087803b1515610e4957600080fd5b6102c65a03f11515610e5a57600080fd5b5050506040518051949350505050565b825460018401548354600160a060020a03909216916379a7cfee91908460405160e060020a63ffffffff861602815260048101939093526024830191909152600160a060020a03166044820152606401600060405180830381600087803b1515610ed357600080fd5b6102c65a03f11515610bf357600080fd5b815460018301548254600092600160a060020a03169163d3a3968691846040516020015260405160e060020a63ffffffff851602815260048101929092526024820152604401602060405180830381600087803b1515610e4957600080fd5b600082826040516c01000000000000000000000000600160a060020a0393841681028252919092160260148201526028016040518091039020905092915050565b6000610f8e611a1e565b600080610fa381600a8763ffffffff61126d16565b9250600091505b610fbd6000600a8563ffffffff61128016565b1561100a57610feb601a86610fdb6000600a8863ffffffff61128d16565b600092919063ffffffff61129a16565b9050610ffd848263ffffffff61123016565b9350816001019150610faa565b505050919050565b600061101c611a1e565b60008061103181600a8863ffffffff61126d16565b925061103c836112c8565b9350600091505b6110566000600a8563ffffffff61128016565b15610dbb5761106e6000600a8563ffffffff61128d16565b905061107c868287876112d5565b95509350600190910190611043565b61109f8383600160a060020a0384166113ac565b505050565b815460018301548254600092600160a060020a0316916353aa3f5e91846040516020015260405160e060020a63ffffffff851602815260048101929092526024820152604401602060405180830381600087803b1515610e4957600080fd5b60008282111561110f57fe5b50900390565b825460018401548354600160a060020a03909216916353e7168b91908460405160e060020a63ffffffff8616028152600481019390935260248301919091526044820152606401600060405180830381600087803b1515610ed357600080fd5b61118a848484600160a060020a0385166113d8565b50505050565b60006111a68484600160a060020a0385166113e4565b90505b9392505050565b61118a8484600160a060020a0385168461147e565b60006111a98383611510565b60006111a684848461153d565b61109f8383600160a060020a03841661154a565b6112066000600a858563ffffffff61157616565b61121b6000601a85858563ffffffff61158216565b61109f6000601b85854263ffffffff61158216565b6000828201838110156111a957fe5b61118a848484600160a060020a0385166115ad565b60006111a68484846113e4565b61118a8484848461147e565b611275611a1e565b6111a68484846115b9565b60006111a68484846115cc565b60006111a68484846115d9565b60006112bf8585858560405191825260208201526040908101905180910390206113e4565b95945050505050565b6000816020015192915050565b600080806112ec81601a898963ffffffff61129a16565b9050808510156113295761131e601a888861130d858a63ffffffff61110316565b60009392919063ffffffff61158216565b8385925092506113a2565b80851415611360576113456000600a898963ffffffff6115e616565b61135684600163ffffffff61110316565b85925092506113a2565b808511156113a25761137c6000600a898963ffffffff6115e616565b61138d84600163ffffffff61110316565b61139d868363ffffffff61110316565b925092505b5094509492505050565b61109f83837f6f7264657265645f736574000000000000000000000000000000000000000000846115f2565b61118a848484846115f2565b825460018401548354600092600160a060020a0316916337d9d7fc9185604051918252602082015260409081019051809103902060006040516020015260405160e060020a63ffffffff851602815260048101929092526024820152604401602060405180830381600087803b151561145c57600080fd5b6102c65a03f1151561146d57600080fd5b505050604051805195945050505050565b835460018501548454600160a060020a039092169163a14ff85791908560405191825260208201526040908101905180910390208460405160e060020a63ffffffff8616028152600481019390935260248301919091526044820152606401600060405180830381600087803b15156114f657600080fd5b6102c65a03f1151561150757600080fd5b50505050505050565b60006111a983837f6f7264657265645f7365740000000000000000000000000000000000000000006116f2565b60006111a68484846116f2565b61109f83837f6f7264657265645f736574000000000000000000000000000000000000000000846116ff565b61118a848484846115ad565b6115a68585858560405191825260208201526040908101905180910390208461147e565b5050505050565b61118a848484846116ff565b6115c1611a1e565b6111a68484846117c2565b60006111a68484846117e0565b60006111a684848461181b565b61118a848484846113d8565b6115fe84848484611867565b15156116095761118a565b6116358484600301846116218888600401888861129a565b6116308989600301898961129a565b6118a3565b61165c84846004018461164d8888600301888861129a565b6116308989600401898961129a565b61166a8484600101846113e4565b81141561168e5761168e8484600101846116898888600301888861129a565b61147e565b61169c8484600201846113e4565b8114156116bb576116bb8484600201846116898888600401888861129a565b6116ca848460030184846118b6565b6116d9848460040184846118b6565b61118a84848460016116ec8484846118ca565b03611942565b60006111a68484846118ca565b80151561170b57600080fd5b61171784848484611867565b156117215761118a565b61172c8484846116f2565b1515611741576117418484600101848461147e565b61174f8484600201846113e4565b156117895761177184846003018461176b8888600201886113e4565b856118a3565b611789848460040184846116308989600201896113e4565b61179a8460038501848460006118a3565b6117a98484600201848461147e565b61118a8484846117ba8383836118ca565b600101611942565b6117ca611a1e565b6111a68484846117db8383836118ca565b6119ba565b6000816020015115806118045750611802848484606001518560400151611867565b155b15611811575060006111a9565b5060019392505050565b60006118288484846117e0565b151561183357600080fd5b8160400151905061184e8484846060015185604001516119da565b6040830152600160208301818151039052509392505050565b600081158015906112bf57506118828585600301858561129a565b1515806112bf5750816118998660028701866113e4565b1495945050505050565b81156115a6576115a68585858585611582565b801561118a5761118a848484846000611582565b825460018401548354600092600160a060020a0316916353aa3f5e9185604051918252602082015260409081019051809103902060006040516020015260405160e060020a63ffffffff851602815260048101929092526024820152604401602060405180830381600087803b151561145c57600080fd5b835460018501548454600160a060020a03909216916353e7168b91908560405191825260208201526040908101905180910390208460405160e060020a63ffffffff8616028152600481019390935260248301919091526044820152606401600060405180830381600087803b15156114f657600080fd5b6119c2611a1e565b6112bf836119d48787600101876113e4565b846119eb565b60006112bf8585600301858561129a565b6119f3611a1e565b6080604051908101604090815283825260208201939093529182019290925260608101929092525090565b60806040519081016040908152600080835260208301819052908201819052606082015290565b8254600160a060020a031916600160a060020a0392909216919091178255600190910155565b611a758282611add565b5050565b611a758282611a6b565b8154611a8f9082611c38565b9055565b611a758282611a83565b8154611a8f9082611c38565b611a758282611a6b565b611a758282611a83565b8154611a8f9082611c38565b611a758282611a83565b611a758282611c4e565b611b1e82826040519081527f75696e742f636f756e74000000000000000000000000000000000000000000006020820152602a016040518091039020611a83565b611b6282600101826040519081527f75696e742f6669727374000000000000000000000000000000000000000000006020820152602a016040518091039020611a83565b611ba682600201826040519081527f75696e742f6c617374000000000000000000000000000000000000000000000060208201526029016040518091039020611a83565b611bea82600301826040519081527f75696e742f6e657874000000000000000000000000000000000000000000000060208201526029016040518091039020611a83565b611a7582600401826040519081527f75696e742f70726576000000000000000000000000000000000000000000000060208201526029016040518091039020611a83565b611a758282611add565b81151580611c44575080155b15611a7557600080fd5b611c8f82826040519081527f636f756e7400000000000000000000000000000000000000000000000000000060208201526025016040518091039020611a83565b611cd382600101826040519081527f696e64657865730000000000000000000000000000000000000000000000000060208201526027016040518091039020611a83565b611a7582600201826040519081527f76616c756573000000000000000000000000000000000000000000000000000060208201526026016040518091039020611a83565b8154611a8f9082611c385600a165627a7a7230582060995e46de0a57d4dd63b8dbcb21d463c3794d2fcf7ce0892e4cd857871900730029",
  "source": "pragma solidity ^0.4.11;\n\nimport \"../core/common/Managed.sol\";\nimport \"../core/lib/SafeMath.sol\";\n\n\n/// @title ERC20 Deposit storage.\n///\n/// Contract intends to keep track deposits records.\n/// Supports old and new versions of Deposits and utilized by TimeHolder\n/// to resolve deposit versions.\ncontract ERC20DepositStorage is Managed {\n\n    using SafeMath for uint;\n\n    /** Storage keys */\n\n    StorageInterface.OrderedAddressesSet shareholders;\n    StorageInterface.UIntOrderedSetMapping deposits;\n    StorageInterface.UInt depositsIdCounter;\n    StorageInterface.AddressUIntUIntMapping amounts;\n    StorageInterface.AddressUIntUIntMapping timestamps;\n    StorageInterface.UInt totalSharesStorage;\n    StorageInterface.Address sharesContractStorage;\n\n    StorageInterface.AddressOrderedSetMapping shareholders_v2;\n    StorageInterface.Bytes32UIntMapping depositsIdCounters_v2;\n    StorageInterface.Mapping amounts_v2; // mapping(bytes32(key)=>mapping(bytes32(idx)=>uint(amount))) // to TimeHolder\n    StorageInterface.Mapping timestamps_v2; // mapping(bytes32(key)=>mapping(bytes32(idx)=>uint(time))) // to TimeHolder\n    StorageInterface.AddressUIntMapping totalSharesStorage_v2;\n    StorageInterface.AddressesSet sharesTokenStorage_v2;\n    StorageInterface.AddressUIntMapping limitsStorage_v2;\n\n    /// @dev Restricts access to functions only for TimeHolder sender\n    modifier onlyTimeHolder {\n        require(store.store.manager().isAllowed(msg.sender, store.crate));\n        _;\n    }\n\n    /// @notice Constructor\n    function ERC20DepositStorage(Storage _store, bytes32 _crate) Managed(_store, _crate) {\n        shareholders.init('shareholders');\n        deposits.init('deposits');\n        depositsIdCounter.init('depositsIdCounter');\n        amounts.init('amounts');\n        timestamps.init('timestamps');\n        totalSharesStorage.init('totalSharesStorage');\n        sharesContractStorage.init('sharesContractStorage');\n\n        shareholders_v2.init(\"shareholders_v2\");\n        depositsIdCounters_v2.init(\"depositsIdCounters_v2\");\n        amounts_v2.init(\"amounts\");\n        timestamps_v2.init(\"timestamps\");\n        totalSharesStorage_v2.init(\"totalSharesStorage_v2\");\n        sharesTokenStorage_v2.init(\"sharesContractsStorage_v2\");\n        limitsStorage_v2.init(\"limitAmountsStorage_v2\");\n    }\n\n    /// @notice Init DepositStorage contract.\n    function init(address _contractsManager) onlyContractOwner public returns (uint) {\n        contractsManager = _contractsManager;\n    }\n\n    /// @notice Sets shares token address as default token address. Used for supporting TIME tokens\n    /// @dev Allowed only for TimeHolder call\n    ///\n    /// @param _sharesContract TIME token address\n    function setSharesContract(address _sharesContract) onlyTimeHolder public {\n        require(_sharesContract != 0x0);\n        store.set(sharesContractStorage, _sharesContract);\n    }\n\n    /// @notice Gets address of shares contract\n    function getSharesContract() public view returns (address) {\n        return store.get(sharesContractStorage);\n    }\n\n    /// @notice Gets total number of deposited tokens provided as parameter\n    /// @param _token token address to get info\n    function totalShares(address _token) public view returns (uint) {\n        if (_token == store.get(sharesContractStorage)) {\n            return store.get(totalSharesStorage);\n        }\n\n        return store.get(totalSharesStorage_v2, _token);\n    }\n\n    /// @notice Number of shareholders for provided token\n    /// @return number of shareholders\n    function shareholdersCount(address _token) public view returns (uint) {\n        if (_token == store.get(sharesContractStorage)) {\n            return store.count(shareholders);\n        }\n\n        return store.count(shareholders_v2, bytes32(_token));\n    }\n\n    /// @notice Gets token amount deposited by a particular shareholder.\n    ///\n    /// @param _token token that was deposited\n    /// @param _depositor shareholder address.\n    ///\n    /// @return shares amount.\n    function depositBalance(address _token, address _depositor) public view returns (uint _balance) {\n        if (_token != store.get(sharesContractStorage)) {\n            bytes32 _key = _compileCompositeKey(_token, _depositor);\n            return _depositBalance(_key);\n        }\n\n        return _depositBalance(bytes32(_depositor));\n    }\n\n    /// @notice Deposits for a _target for provided _amount of specified tokens\n    /// @dev Allowed only for TimeHolder call\n    ///\n    /// @param _token token to deposit. Should be in a whitelist\n    /// @param _target deposit destination\n    /// @param _amount amount of deposited tokens\n    function depositFor(address _token, address _target, uint _amount) onlyTimeHolder public {\n        uint id;\n        uint prevAmount;\n\n        if (_token == store.get(sharesContractStorage)) {\n            store.add(shareholders, _target);\n\n            id = store.get(depositsIdCounter) + 1;\n            store.set(depositsIdCounter, id);\n            _addDeposit(bytes32(_target), bytes32(id), _amount);\n\n            prevAmount = store.get(totalSharesStorage);\n            store.set(totalSharesStorage, _amount.add(prevAmount));\n        } else {\n            store.add(shareholders_v2, bytes32(_token), _target);\n\n            bytes32 key = _compileCompositeKey(_token, _target);\n\n            id = store.get(depositsIdCounters_v2, key) + 1;\n            store.set(depositsIdCounters_v2, key, id);\n            _addDeposit(key, bytes32(id), _amount);\n\n            prevAmount = store.get(totalSharesStorage_v2, _token);\n            store.set(totalSharesStorage_v2, _token, _amount.add(prevAmount));\n        }\n    }\n\n    /// @notice Withdraws tokens back to provided account\n    /// @dev Allowed only for TimeHolder call\n    ///\n    /// @param _token token address\n    /// @param _account token recepient\n    /// @param _amount number of tokens to withdraw\n    /// @param _totalBalance total balance of shares\n    function withdrawShares(address _token, address _account, uint _amount, uint _totalBalance) onlyTimeHolder public {\n        if (_totalBalance == 0) {\n            return;\n        }\n\n        if (_token == store.get(sharesContractStorage)) {\n            uint deposits_count_left_v1 = _withdrawShares(bytes32(_account), _amount);\n\n            if (deposits_count_left_v1 == 0) {\n                store.remove(shareholders, _account);\n            }\n\n            uint prevAmount_v1 = store.get(totalSharesStorage);\n            store.set(totalSharesStorage, prevAmount_v1.sub(_amount));\n        } else {\n            bytes32 _key = _compileCompositeKey(_token, _account);\n            uint deposits_count_left_v2 = _withdrawShares(_key, _amount);\n\n            if (deposits_count_left_v2 == 0) {\n                store.remove(shareholders_v2, bytes32(_token), _account);\n            }\n\n            uint prevAmount_v2 = store.get(totalSharesStorage_v2, _token);\n            store.set(totalSharesStorage_v2, _token, prevAmount_v2.sub(_amount));\n        }\n    }\n\n    /// @dev Iterates through deposits and calculates a sum\n    function _depositBalance(bytes32 _key) private view returns (uint _balance) {\n        StorageInterface.Iterator memory iterator = store.listIterator(deposits, _key);\n        for (uint i = 0; store.canGetNextWithIterator(deposits, iterator); ++i) {\n            uint _cur_amount = uint(store.get(amounts_v2, _key, bytes32(store.getNextWithIterator(deposits, iterator))));\n            _balance = _balance.add(_cur_amount);\n        }\n    }\n\n    /// @dev Saves deposit data with provided key\n    ///\n    /// @param _key might be a compositeKey or an account address\n    /// @param _id index of deposit\n    /// @param _amount amount of tokens to deposit\n    function _addDeposit(bytes32 _key, bytes32 _id, uint _amount) private {\n        store.add(deposits, _key, uint(_id));\n        store.set(amounts_v2, _key, _id, bytes32(_amount));\n        store.set(timestamps_v2, _key, _id, bytes32(now));\n    }\n\n    /// @dev Withdraws tokens for provided keys\n    ///\n    /// @param _key might be a compositeKey or an account address\n    /// @param _amount amount of tokens to withdraw\n    ///\n    /// @return _deposits_count_left amount of tokens that is left on deposits\n    function _withdrawShares(bytes32 _key, uint _amount) private returns (uint _deposits_count_left) {\n        StorageInterface.Iterator memory iterator = store.listIterator(deposits, _key);\n        _deposits_count_left = iterator.count();\n        for (uint i = 0; store.canGetNextWithIterator(deposits, iterator); ++i) {\n            uint _id = store.getNextWithIterator(deposits, iterator);\n            (_deposits_count_left, _amount) = _withdrawSharesFromDepositV2(_key, _id, _amount, _deposits_count_left);\n        }\n    }\n\n    /// @dev Withdraws shares from one of made deposits.\n    ///\n    /// @param _key composite key from keccak256(symbol, user)\n    /// @param _id deposit key\n    /// @param _amount deposit amount to withdraw\n    /// @param _depositsLeft number of deposits left\n    ///\n    /// @return {\n    ///   updated deposits left,\n    ///   updated amount left,\n    /// }\n    function _withdrawSharesFromDepositV2(bytes32 _key, uint _id, uint _amount, uint _depositsLeft) private returns (uint, uint) {\n        uint _cur_amount = uint(store.get(amounts_v2, _key, bytes32(_id)));\n        if (_amount < _cur_amount) {\n            store.set(amounts_v2, _key, bytes32(_id), bytes32(_cur_amount.sub(_amount)));\n            return (_depositsLeft, _amount);\n        }\n        if (_amount == _cur_amount) {\n            store.remove(deposits, _key, _id);\n            return (_depositsLeft.sub(1), _amount);\n        }\n        if (_amount > _cur_amount) {\n            store.remove(deposits, _key, _id);\n            return (_depositsLeft.sub(1), _amount.sub(_cur_amount));\n        }\n    }\n\n    /// @dev Gets key combined from token symbol and user's address\n    function _compileCompositeKey(address _token, address _address) private pure returns (bytes32) {\n        return keccak256(_token, _address);\n    }\n}\n",
  "sourcePath": "/Users/ahiatsevich/Development/chronobank/SmartContracts/contracts/timeholder/ERC20DepositStorage.sol",
  "compiler": {
    "name": "solc",
    "version": "0.4.18+commit.9cf6e910.Emscripten.clang"
  },
  "schemaVersion": "1.0.1",
  "updatedAt": "2018-01-29T15:24:15.651Z"
}