{
  "contractName": "ERC20DepositStorage",
  "abi": [
    {
      "constant": false,
      "inputs": [
        {
          "name": "_sharesContract",
          "type": "address"
        }
      ],
      "name": "setSharesContract",
      "outputs": [],
      "payable": false,
      "stateMutability": "nonpayable",
      "type": "function"
    },
    {
      "constant": true,
      "inputs": [
        {
          "name": "_token",
          "type": "address"
        },
        {
          "name": "_depositor",
          "type": "address"
        }
      ],
      "name": "depositBalance",
      "outputs": [
        {
          "name": "_balance",
          "type": "uint256"
        }
      ],
      "payable": false,
      "stateMutability": "view",
      "type": "function"
    },
    {
      "constant": true,
      "inputs": [],
      "name": "shareholdersCount",
      "outputs": [
        {
          "name": "",
          "type": "uint256"
        }
      ],
      "payable": false,
      "stateMutability": "view",
      "type": "function"
    },
    {
      "constant": false,
      "inputs": [
        {
          "name": "_contractsManager",
          "type": "address"
        }
      ],
      "name": "init",
      "outputs": [
        {
          "name": "",
          "type": "uint256"
        }
      ],
      "payable": false,
      "stateMutability": "nonpayable",
      "type": "function"
    },
    {
      "constant": false,
      "inputs": [
        {
          "name": "_target",
          "type": "address"
        },
        {
          "name": "_amount",
          "type": "uint256"
        }
      ],
      "name": "depositFor",
      "outputs": [],
      "payable": false,
      "stateMutability": "nonpayable",
      "type": "function"
    },
    {
      "constant": true,
      "inputs": [],
      "name": "totalShares",
      "outputs": [
        {
          "name": "",
          "type": "uint256"
        }
      ],
      "payable": false,
      "stateMutability": "view",
      "type": "function"
    },
    {
      "constant": false,
      "inputs": [],
      "name": "claimContractOwnership",
      "outputs": [
        {
          "name": "",
          "type": "bool"
        }
      ],
      "payable": false,
      "stateMutability": "nonpayable",
      "type": "function"
    },
    {
      "constant": true,
      "inputs": [
        {
          "name": "_identifier",
          "type": "bytes32"
        }
      ],
      "name": "lookupManager",
      "outputs": [
        {
          "name": "manager",
          "type": "address"
        }
      ],
      "payable": false,
      "stateMutability": "view",
      "type": "function"
    },
    {
      "constant": true,
      "inputs": [],
      "name": "contractsManager",
      "outputs": [
        {
          "name": "",
          "type": "address"
        }
      ],
      "payable": false,
      "stateMutability": "view",
      "type": "function"
    },
    {
      "constant": false,
      "inputs": [
        {
          "name": "_to",
          "type": "address"
        }
      ],
      "name": "changeContractOwnership",
      "outputs": [
        {
          "name": "",
          "type": "bool"
        }
      ],
      "payable": false,
      "stateMutability": "nonpayable",
      "type": "function"
    },
    {
      "constant": true,
      "inputs": [],
      "name": "pendingContractOwner",
      "outputs": [
        {
          "name": "",
          "type": "address"
        }
      ],
      "payable": false,
      "stateMutability": "view",
      "type": "function"
    },
    {
      "constant": false,
      "inputs": [
        {
          "name": "_token",
          "type": "address"
        },
        {
          "name": "_account",
          "type": "address"
        },
        {
          "name": "_amount",
          "type": "uint256"
        },
        {
          "name": "_totalBalance",
          "type": "uint256"
        }
      ],
      "name": "withdrawShares",
      "outputs": [],
      "payable": false,
      "stateMutability": "nonpayable",
      "type": "function"
    },
    {
      "constant": true,
      "inputs": [
        {
          "name": "_token",
          "type": "address"
        }
      ],
      "name": "shareholdersCount",
      "outputs": [
        {
          "name": "",
          "type": "uint256"
        }
      ],
      "payable": false,
      "stateMutability": "view",
      "type": "function"
    },
    {
      "constant": false,
      "inputs": [
        {
          "name": "_contractsManager",
          "type": "address"
        }
      ],
      "name": "setContractsManager",
      "outputs": [],
      "payable": false,
      "stateMutability": "nonpayable",
      "type": "function"
    },
    {
      "constant": false,
      "inputs": [],
      "name": "destroy",
      "outputs": [],
      "payable": false,
      "stateMutability": "nonpayable",
      "type": "function"
    },
    {
      "constant": true,
      "inputs": [
        {
          "name": "_depositor",
          "type": "address"
        }
      ],
      "name": "depositBalance",
      "outputs": [
        {
          "name": "",
          "type": "uint256"
        }
      ],
      "payable": false,
      "stateMutability": "view",
      "type": "function"
    },
    {
      "constant": false,
      "inputs": [
        {
          "name": "_to",
          "type": "address"
        }
      ],
      "name": "transferContractOwnership",
      "outputs": [
        {
          "name": "",
          "type": "bool"
        }
      ],
      "payable": false,
      "stateMutability": "nonpayable",
      "type": "function"
    },
    {
      "constant": false,
      "inputs": [
        {
          "name": "_token",
          "type": "address"
        },
        {
          "name": "_target",
          "type": "address"
        },
        {
          "name": "_amount",
          "type": "uint256"
        }
      ],
      "name": "depositFor",
      "outputs": [],
      "payable": false,
      "stateMutability": "nonpayable",
      "type": "function"
    },
    {
      "constant": true,
      "inputs": [
        {
          "name": "_token",
          "type": "address"
        }
      ],
      "name": "totalShares",
      "outputs": [
        {
          "name": "",
          "type": "uint256"
        }
      ],
      "payable": false,
      "stateMutability": "view",
      "type": "function"
    },
    {
      "constant": true,
      "inputs": [],
      "name": "getSharesContract",
      "outputs": [
        {
          "name": "",
          "type": "address"
        }
      ],
      "payable": false,
      "stateMutability": "view",
      "type": "function"
    },
    {
      "constant": true,
      "inputs": [],
      "name": "contractOwner",
      "outputs": [
        {
          "name": "",
          "type": "address"
        }
      ],
      "payable": false,
      "stateMutability": "view",
      "type": "function"
    },
    {
      "constant": false,
      "inputs": [
        {
          "name": "_account",
          "type": "address"
        },
        {
          "name": "_amount",
          "type": "uint256"
        },
        {
          "name": "_totalBalance",
          "type": "uint256"
        }
      ],
      "name": "withdrawShares",
      "outputs": [],
      "payable": false,
      "stateMutability": "nonpayable",
      "type": "function"
    },
    {
      "constant": false,
      "inputs": [
        {
          "name": "tokens",
          "type": "address[]"
        },
        {
          "name": "_to",
          "type": "address"
        }
      ],
      "name": "withdrawnTokens",
      "outputs": [
        {
          "name": "",
          "type": "uint256"
        }
      ],
      "payable": false,
      "stateMutability": "nonpayable",
      "type": "function"
    },
    {
      "constant": true,
      "inputs": [
        {
          "name": "key",
          "type": "address"
        }
      ],
      "name": "isAuthorized",
      "outputs": [
        {
          "name": "",
          "type": "bool"
        }
      ],
      "payable": false,
      "stateMutability": "view",
      "type": "function"
    },
    {
      "inputs": [
        {
          "name": "_store",
          "type": "address"
        },
        {
          "name": "_crate",
          "type": "bytes32"
        }
      ],
      "payable": false,
      "stateMutability": "nonpayable",
      "type": "constructor"
    }
  ],
  "bytecode": "0x606060405234156200001057600080fd5b6040516040806200279e833981016040528080519190602001805191508290508181816200004f6000838364010000000062001d3f620003b182021704565b505060028054600160a060020a03191633600160a060020a031617905550620000aa905060057f7368617265686f6c646572730000000000000000000000000000000000000000640100000000620003d7810262001d651704565b620000e5600a7f6465706f7369747300000000000000000000000000000000000000000000000064010000000062001d73620003f582021704565b62000120600f7f6465706f736974734964436f756e74657200000000000000000000000000000064010000000062001d7d6200040f82021704565b6200015b60107f616d6f756e74730000000000000000000000000000000000000000000000000064010000000062001d8d6200042f82021704565b6200019660117f74696d657374616d70730000000000000000000000000000000000000000000064010000000062001d8d6200042f82021704565b620001d160127f746f74616c53686172657353746f72616765000000000000000000000000000064010000000062001d7d6200040f82021704565b6200020c60137f736861726573436f6e747261637453746f72616765000000000000000000000064010000000062001d7d6200040f82021704565b6200024760147f7368617265686f6c646572735f7632000000000000000000000000000000000064010000000062001d73620003f582021704565b6200028260197f6465706f736974734964436f756e746572735f7632000000000000000000000064010000000062001d8d6200042f82021704565b620002bd601a7f616d6f756e74730000000000000000000000000000000000000000000000000064010000000062001d7d6200040f82021704565b620002f8601b7f74696d657374616d70730000000000000000000000000000000000000000000064010000000062001d7d6200040f82021704565b62000333601c7f746f74616c53686172657353746f726167655f7632000000000000000000000064010000000062001d8d6200042f82021704565b6200036e601d7f736861726573436f6e74726163747353746f726167655f76320000000000000064010000000062001dcd6200044982021704565b620003a960207f6c696d6974416d6f756e747353746f726167655f76320000000000000000000064010000000062001d8d6200042f82021704565b505062000745565b8254600160a060020a031916600160a060020a0392909216919091178255600190910155565b620003f1828264010000000062001dd76200046382021704565b5050565b620003f1828264010000000062001d65620003d782021704565b81546200042b908264010000000062001f326200062282021704565b9055565b620003f1828264010000000062001d7d6200040f82021704565b620003f1828264010000000062001f486200063a82021704565b620004ba82826040519081527f75696e742f636f756e74000000000000000000000000000000000000000000006020820152602a0160405180910390206200040f6401000000000262001d7d176401000000009004565b6200051482600101826040519081527f75696e742f6669727374000000000000000000000000000000000000000000006020820152602a0160405180910390206200040f6401000000000262001d7d176401000000009004565b6200056e82600201826040519081527f75696e742f6c6173740000000000000000000000000000000000000000000000602082015260290160405180910390206200040f6401000000000262001d7d176401000000009004565b620005c882600301826040519081527f75696e742f6e6578740000000000000000000000000000000000000000000000602082015260290160405180910390206200040f6401000000000262001d7d176401000000009004565b620003f182600401826040519081527f75696e742f707265760000000000000000000000000000000000000000000000602082015260290160405180910390206200040f6401000000000262001d7d176401000000009004565b811515806200062f575080155b15620003f157600080fd5b6200069182826040519081527f636f756e74000000000000000000000000000000000000000000000000000000602082015260250160405180910390206200040f6401000000000262001d7d176401000000009004565b620006eb82600101826040519081527f696e646578657300000000000000000000000000000000000000000000000000602082015260270160405180910390206200040f6401000000000262001d7d176401000000009004565b620003f182600201826040519081527f76616c7565730000000000000000000000000000000000000000000000000000602082015260260160405180910390206200040f6401000000000262001d7d176401000000009004565b61204980620007556000396000f3006060604052600436106101245763ffffffff60e060020a6000350416630a57ce3b81146101295780630e7ae6a21461014a5780631638a3fb1461018157806319ab453c146101945780632f4f21e2146101b35780633a98ef39146101d55780634592cd1d146101e85780634fe590121461020f57806353253d3114610241578063557f4bc9146102545780635aa77d3c1461027357806364496475146102865780636ab3c700146102b157806371d3b573146102d057806383197ef0146102ef578063956501bb14610302578063a843c51f14610321578063b3db428b14610340578063bf6b874e14610368578063c61f44b814610387578063ce606ee01461039a578063d40af43b146103ad578063d8f9659b146103d2578063fe9fbb801461042c575b600080fd5b341561013457600080fd5b610148600160a060020a036004351661044b565b005b341561015557600080fd5b61016f600160a060020a0360043581169060243516610561565b60405190815260200160405180910390f35b341561018c57600080fd5b61016f610633565b341561019f57600080fd5b61016f600160a060020a036004351661064c565b34156101be57600080fd5b610148600160a060020a0360043516602435610687565b34156101e057600080fd5b61016f610802565b34156101f357600080fd5b6101fb610815565b604051901515815260200160405180910390f35b341561021a57600080fd5b610225600435610861565b604051600160a060020a03909116815260200160405180910390f35b341561024c57600080fd5b6102256108e5565b341561025f57600080fd5b6101fb600160a060020a03600435166108f4565b341561027e57600080fd5b61022561094b565b341561029157600080fd5b610148600160a060020a036004358116906024351660443560643561095a565b34156102bc57600080fd5b61016f600160a060020a0360043516610ad4565b34156102db57600080fd5b610148600160a060020a0360043516610b31565b34156102fa57600080fd5b610148610b68565b341561030d57600080fd5b61016f600160a060020a0360043516610b8d565b341561032c57600080fd5b6101fb600160a060020a0360043516610ba9565b341561034b57600080fd5b610148600160a060020a0360043581169060243516604435610c22565b341561037357600080fd5b61016f600160a060020a0360043516610da3565b341561039257600080fd5b610225610dea565b34156103a557600080fd5b610225610dfd565b34156103b857600080fd5b610148600160a060020a0360043516602435604435610e0c565b34156103dd57600080fd5b61016f600460248135818101908301358060208181020160405190810160405280939291908181526020018383602002808284375094965050509235600160a060020a03169250610f63915050565b341561043757600080fd5b6101fb600160a060020a03600435166110b4565b60008054600160a060020a03169063481c6a7590604051602001526040518163ffffffff1660e060020a028152600401602060405180830381600087803b151561049457600080fd5b6102c65a03f115156104a557600080fd5b50505060405180519050600160a060020a0316635cb8dd093360006001015460006040516020015260405160e060020a63ffffffff8516028152600160a060020a0390921660048301526024820152604401602060405180830381600087803b151561051057600080fd5b6102c65a03f1151561052157600080fd5b50505060405180519050151561053657600080fd5b600160a060020a038116151561054b57600080fd5b61055e600060138363ffffffff61115a16565b50565b60008061056c611d18565b60008061058081601363ffffffff6111d416565b600160a060020a0388811691161461061d5761059c8787611233565b93506105b16000600a8663ffffffff61127416565b9250600091505b6105cb6000600a8563ffffffff61129116565b15610618576105f9601a856105e96000600a8863ffffffff61129e16565b600092919063ffffffff6112ab16565b905061060b858263ffffffff6112d916565b94508160010191506105b8565b610629565b610626866112e8565b94505b5050505092915050565b600061064681600563ffffffff61137f16565b90505b90565b60025460009033600160a060020a03908116911614156106825760048054600160a060020a031916600160a060020a0384161790555b919050565b600080548190600160a060020a031663481c6a7582604051602001526040518163ffffffff1660e060020a028152600401602060405180830381600087803b15156106d157600080fd5b6102c65a03f115156106e257600080fd5b50505060405180519050600160a060020a0316635cb8dd093360006001015460006040516020015260405160e060020a63ffffffff8516028152600160a060020a0390921660048301526024820152604401602060405180830381600087803b151561074d57600080fd5b6102c65a03f1151561075e57600080fd5b50505060405180519050151561077357600080fd5b610786600060058663ffffffff61138b16565b6107986000600f63ffffffff6113a416565b60010191506107b06000600f8463ffffffff61140316565b6107c4600160a060020a0385168385611463565b6107d66000601263ffffffff6113a416565b90506107fc60126107ed858463ffffffff6112d916565b6000919063ffffffff61140316565b50505050565b600061064681601263ffffffff6113a416565b60035460009033600160a060020a0390811691161461083657506000610649565b506003805460028054600160a060020a0319908116600160a060020a03841617909155169055600190565b600454600090600160a060020a031663bc65792783836040516020015260405160e060020a63ffffffff84160281526004810191909152602401602060405180830381600087803b15156108b457600080fd5b6102c65a03f115156108c557600080fd5b5050506040518051915050600160a060020a038116151561068257600080fd5b600454600160a060020a031681565b60025460009033600160a060020a039081169116141561068257600160a060020a038216151561092657506000610682565b5060038054600160a060020a038316600160a060020a03199091161790556001919050565b600354600160a060020a031681565b6000805481908190600160a060020a031663481c6a7582604051602001526040518163ffffffff1660e060020a028152600401602060405180830381600087803b15156109a657600080fd5b6102c65a03f115156109b757600080fd5b50505060405180519050600160a060020a0316635cb8dd093360006001015460006040516020015260405160e060020a63ffffffff8516028152600160a060020a0390921660048301526024820152604401602060405180830381600087803b1515610a2257600080fd5b6102c65a03f11515610a3357600080fd5b505050604051805190501515610a4857600080fd5b831515610a5457610acb565b610a5e8787611233565b9250610a6a83866114a1565b9150811515610a9057610a9060006014600160a060020a038a168963ffffffff61151a16565b610aa36000601c8963ffffffff61152f16565b9050610acb601c88610abb848963ffffffff61154516565b600092919063ffffffff61155716565b50505050505050565b6000610ae781601363ffffffff6111d416565b600160a060020a031682600160a060020a03161415610b0f57610b08610633565b9050610682565b610b2b60006014600160a060020a03851663ffffffff61156c16565b92915050565b60025433600160a060020a039081169116141561055e5760048054600160a060020a038316600160a060020a031990911617905550565b60025433600160a060020a0390811691161415610b8b5733600160a060020a0316ff5b565b6000610b2b610ba382601363ffffffff6111d416565b83610561565b60025460009033600160a060020a039081169116141561068257600160a060020a0382161515610bdb57506000610682565b600354600160a060020a031615610bfd5760038054600160a060020a03191690555b5060028054600160a060020a038316600160a060020a03199091161790556001919050565b6000805481908190600160a060020a031663481c6a7582604051602001526040518163ffffffff1660e060020a028152600401602060405180830381600087803b1515610c6e57600080fd5b6102c65a03f11515610c7f57600080fd5b50505060405180519050600160a060020a0316635cb8dd093360006001015460006040516020015260405160e060020a63ffffffff8516028152600160a060020a0390921660048301526024820152604401602060405180830381600087803b1515610cea57600080fd5b6102c65a03f11515610cfb57600080fd5b505050604051805190501515610d1057600080fd5b610d2d60006014600160a060020a0389168863ffffffff61157916565b610d378686611233565b9250610d4c600060198563ffffffff61158e16565b6001019150610d6560006019858563ffffffff61159b16565b610d70838386611463565b610d836000601c8863ffffffff61152f16565b9050610d9b601c87610abb878563ffffffff6112d916565b505050505050565b6000610db681601363ffffffff6111d416565b600160a060020a031682600160a060020a03161415610dd757610b08610802565b610b2b6000601c8463ffffffff61152f16565b600061064681601363ffffffff6111d416565b600254600160a060020a031681565b600080548190600160a060020a031663481c6a7582604051602001526040518163ffffffff1660e060020a028152600401602060405180830381600087803b1515610e5657600080fd5b6102c65a03f11515610e6757600080fd5b50505060405180519050600160a060020a0316635cb8dd093360006001015460006040516020015260405160e060020a63ffffffff8516028152600160a060020a0390921660048301526024820152604401602060405180830381600087803b1515610ed257600080fd5b6102c65a03f11515610ee357600080fd5b505050604051805190501515610ef857600080fd5b821515610f0457610f5c565b610f17600160a060020a038616856114a1565b9150811515610f3357610f33600060058763ffffffff6115a716565b610f456000601263ffffffff6113a416565b9050610f5c60126107ed838763ffffffff61154516565b5050505050565b60025460009081908190819033600160a060020a03908116911614156110ab57600092505b85518310156110a657858381518110610f9d57fe5b90602001906020020151915081600160a060020a03166370a082313060006040516020015260405160e060020a63ffffffff8416028152600160a060020a039091166004820152602401602060405180830381600087803b151561100057600080fd5b6102c65a03f1151561101157600080fd5b5050506040518051915050801561109b5781600160a060020a031663a9059cbb868360006040516020015260405160e060020a63ffffffff8516028152600160a060020a0390921660048301526024820152604401602060405180830381600087803b151561107f57600080fd5b6102c65a03f1151561109057600080fd5b505050604051805150505b600190920191610f88565b600193505b50505092915050565b6000806110e07f557365724d616e61676572000000000000000000000000000000000000000000610861565b905080600160a060020a0316632aa09e5a8460006040516020015260405160e060020a63ffffffff8416028152600160a060020a039091166004820152602401602060405180830381600087803b151561113957600080fd5b6102c65a03f1151561114a57600080fd5b5050506040518051949350505050565b825460018401548354600160a060020a03909216916379a7cfee91908460405160e060020a63ffffffff861602815260048101939093526024830191909152600160a060020a03166044820152606401600060405180830381600087803b15156111c357600080fd5b6102c65a03f11515610d9b57600080fd5b815460018301548254600092600160a060020a03169163d3a3968691846040516020015260405160e060020a63ffffffff851602815260048101929092526024820152604401602060405180830381600087803b151561113957600080fd5b600082826040516c01000000000000000000000000600160a060020a0393841681028252919092160260148201526028016040518091039020905092915050565b61127c611d18565b6112878484846115bb565b90505b9392505050565b60006112878484846115ce565b60006112878484846115db565b60006112d08585858560405191825260208201526040908101905180910390206115e8565b95945050505050565b60008282018381101561128a57fe5b60006112f2611d18565b60008061131081600a600160a060020a03881663ffffffff61127416565b9250600091505b61132a6000600a8563ffffffff61129116565b15611377576113586010866113486000600a8863ffffffff61129e16565b600092919063ffffffff61168216565b905061136a848263ffffffff6112d916565b9350816001019150611317565b505050919050565b600061128a8383611699565b61139f8383600160a060020a0384166116c6565b505050565b815460018301548254600092600160a060020a0316916353aa3f5e91846040516020015260405160e060020a63ffffffff851602815260048101929092526024820152604401602060405180830381600087803b151561113957600080fd5b825460018401548354600160a060020a03909216916353e7168b91908460405160e060020a63ffffffff8616028152600481019390935260248301919091526044820152606401600060405180830381600087803b15156111c357600080fd5b6114776000600a858563ffffffff6116f216565b61148c6000601a85858563ffffffff6116fe16565b61139f6000601b85854263ffffffff6116fe16565b60006114ab611d18565b6000806114c081600a8863ffffffff61127416565b92506114cb83611722565b9350600091505b6114e56000600a8563ffffffff61129116565b156110ab576114fd6000600a8563ffffffff61129e16565b905061150b8682878761172f565b955093506001909101906114d2565b6107fc848484600160a060020a038516611806565b60006112878484600160a060020a0385166115e8565b60008282111561155157fe5b50900390565b6107fc8484600160a060020a03851684611812565b600061128784848461189b565b6107fc848484600160a060020a0385166118a8565b60006112878484846115e8565b6107fc84848484611812565b61139f8383600160a060020a0384166118b4565b6115c3611d18565b6112878484846118e0565b60006112878484846118fe565b6000611287848484611939565b825460018401548354600092600160a060020a0316916337d9d7fc9185604051918252602082015260409081019051809103902060006040516020015260405160e060020a63ffffffff851602815260048101929092526024820152604401602060405180830381600087803b151561166057600080fd5b6102c65a03f1151561167157600080fd5b505050604051805195945050505050565b60006112d08585600160a060020a038616856112ab565b600061128a83837f6f7264657265645f736574000000000000000000000000000000000000000000611985565b61139f83837f6f7264657265645f73657400000000000000000000000000000000000000000084611992565b6107fc848484846118a8565b610f5c85858585604051918252602082015260409081019051809103902084611812565b6000816020015192915050565b6000808061174681601a898963ffffffff6112ab16565b90508085101561178357611778601a8888611767858a63ffffffff61154516565b60009392919063ffffffff6116fe16565b8385925092506117fc565b808514156117ba5761179f6000600a898963ffffffff611a5a16565b6117b084600163ffffffff61154516565b85925092506117fc565b808511156117fc576117d66000600a898963ffffffff611a5a16565b6117e784600163ffffffff61154516565b6117f7868363ffffffff61154516565b925092505b5094509492505050565b6107fc84848484611a66565b835460018501548454600160a060020a039092169163a14ff85791908560405191825260208201526040908101905180910390208460405160e060020a63ffffffff8616028152600481019390935260248301919091526044820152606401600060405180830381600087803b151561188a57600080fd5b6102c65a03f11515610acb57600080fd5b6000611287848484611985565b6107fc84848484611992565b61139f83837f6f7264657265645f73657400000000000000000000000000000000000000000084611a66565b6118e8611d18565b6112878484846118f9838383611b61565b611bd9565b6000816020015115806119225750611920848484606001518560400151611bf9565b155b1561192f5750600061128a565b5060019392505050565b60006119468484846118fe565b151561195157600080fd5b8160400151905061196c848484606001518560400151611c35565b6040830152600160208301818151039052509392505050565b6000611287848484611b61565b80151561199e57600080fd5b6119aa84848484611bf9565b156119b4576107fc565b6119bf848484611985565b15156119d4576119d484846001018484611812565b6119e28484600201846115e8565b15611a2157611a048484600301846119fe8888600201886115e8565b85611c46565b611a2184846004018484611a1c8989600201896115e8565b611c46565b611a32846003850184846000611c46565b611a4184846002018484611812565b6107fc848484611a52838383611b61565b600101611c59565b6107fc84848484611806565b611a7284848484611bf9565b1515611a7d576107fc565b611aa4848460030184611a95888860040188886112ab565b611a1c898960030189896112ab565b611acb848460040184611abc888860030188886112ab565b611a1c898960040189896112ab565b611ad98484600101846115e8565b811415611afd57611afd848460010184611af8888860030188886112ab565b611812565b611b0b8484600201846115e8565b811415611b2a57611b2a848460020184611af8888860040188886112ab565b611b3984846003018484611cd1565b611b4884846004018484611cd1565b6107fc8484846001611b5b848484611b61565b03611c59565b825460018401548354600092600160a060020a0316916353aa3f5e9185604051918252602082015260409081019051809103902060006040516020015260405160e060020a63ffffffff851602815260048101929092526024820152604401602060405180830381600087803b151561166057600080fd5b611be1611d18565b6112d083611bf38787600101876115e8565b84611ce5565b600081158015906112d05750611c14858560030185856112ab565b1515806112d0575081611c2b8660028701866115e8565b1495945050505050565b60006112d0858560030185856112ab565b8115610f5c57610f5c85858585856116fe565b835460018501548454600160a060020a03909216916353e7168b91908560405191825260208201526040908101905180910390208460405160e060020a63ffffffff8616028152600481019390935260248301919091526044820152606401600060405180830381600087803b151561188a57600080fd5b80156107fc576107fc8484848460006116fe565b611ced611d18565b6080604051908101604090815283825260208201939093529182019290925260608101929092525090565b60806040519081016040908152600080835260208301819052908201819052606082015290565b8254600160a060020a031916600160a060020a0392909216919091178255600190910155565b611d6f8282611dd7565b5050565b611d6f8282611d65565b8154611d899082611f32565b9055565b611d6f8282611d7d565b8154611d899082611f32565b611d6f8282611d65565b611d6f8282611d7d565b8154611d899082611f32565b611d6f8282611d7d565b611d6f8282611f48565b611e1882826040519081527f75696e742f636f756e74000000000000000000000000000000000000000000006020820152602a016040518091039020611d7d565b611e5c82600101826040519081527f75696e742f6669727374000000000000000000000000000000000000000000006020820152602a016040518091039020611d7d565b611ea082600201826040519081527f75696e742f6c617374000000000000000000000000000000000000000000000060208201526029016040518091039020611d7d565b611ee482600301826040519081527f75696e742f6e657874000000000000000000000000000000000000000000000060208201526029016040518091039020611d7d565b611d6f82600401826040519081527f75696e742f70726576000000000000000000000000000000000000000000000060208201526029016040518091039020611d7d565b611d6f8282611dd7565b81151580611f3e575080155b15611d6f57600080fd5b611f8982826040519081527f636f756e7400000000000000000000000000000000000000000000000000000060208201526025016040518091039020611d7d565b611fcd82600101826040519081527f696e64657865730000000000000000000000000000000000000000000000000060208201526027016040518091039020611d7d565b611d6f82600201826040519081527f76616c756573000000000000000000000000000000000000000000000000000060208201526026016040518091039020611d7d565b8154611d899082611f325600a165627a7a72305820c3906369643b3e9fb4c3f13513061af08628f96ddb42288c9bf0cd84e8c4bf1c0029",
  "source": "pragma solidity ^0.4.11;\n\nimport \"../core/common/Managed.sol\";\nimport \"../core/lib/SafeMath.sol\";\n\n\n/// @title ERC20 Deposit storage.\n///\n/// Contract intends to keep track deposits records.\n/// Supports old and new versions of Deposits and utilized by TimeHolder\n/// to resolve deposit versions.\ncontract ERC20DepositStorage is Managed {\n\n    using SafeMath for uint;\n\n    /** Storage keys */\n\n    StorageInterface.OrderedAddressesSet shareholders;\n    StorageInterface.UIntOrderedSetMapping deposits;\n    StorageInterface.UInt depositsIdCounter;\n    StorageInterface.AddressUIntUIntMapping amounts;\n    StorageInterface.AddressUIntUIntMapping timestamps;\n    StorageInterface.UInt totalSharesStorage;\n    StorageInterface.Address sharesContractStorage;\n\n    StorageInterface.AddressOrderedSetMapping shareholders_v2;\n    StorageInterface.Bytes32UIntMapping depositsIdCounters_v2;\n    StorageInterface.Mapping amounts_v2; // mapping(bytes32(key)=>mapping(bytes32(idx)=>uint(amount))) // to TimeHolder\n    StorageInterface.Mapping timestamps_v2; // mapping(bytes32(key)=>mapping(bytes32(idx)=>uint(time))) // to TimeHolder\n    StorageInterface.AddressUIntMapping totalSharesStorage_v2;\n    StorageInterface.AddressesSet sharesTokenStorage_v2;\n    StorageInterface.AddressUIntMapping limitsStorage_v2;\n\n    /// @dev Restricts access to functions only for TimeHolder sender\n    modifier onlyTimeHolder {\n        require(store.store.manager().isAllowed(msg.sender, store.crate));\n        _;\n    }\n\n    /// @notice Constructor\n    function ERC20DepositStorage(Storage _store, bytes32 _crate) Managed(_store, _crate) {\n        shareholders.init('shareholders');\n        deposits.init('deposits');\n        depositsIdCounter.init('depositsIdCounter');\n        amounts.init('amounts');\n        timestamps.init('timestamps');\n        totalSharesStorage.init('totalSharesStorage');\n        sharesContractStorage.init('sharesContractStorage');\n\n        shareholders_v2.init(\"shareholders_v2\");\n        depositsIdCounters_v2.init(\"depositsIdCounters_v2\");\n        amounts_v2.init(\"amounts\");\n        timestamps_v2.init(\"timestamps\");\n        totalSharesStorage_v2.init(\"totalSharesStorage_v2\");\n        sharesTokenStorage_v2.init(\"sharesContractsStorage_v2\");\n        limitsStorage_v2.init(\"limitAmountsStorage_v2\");\n    }\n\n    /// @notice Init DepositStorage contract.\n    function init(address _contractsManager) onlyContractOwner public returns (uint) {\n        contractsManager = _contractsManager;\n    }\n\n    /// @notice Sets shares token address as default token address. Used for supporting TIME tokens\n    /// @dev Allowed only for TimeHolder call\n    ///\n    /// @param _sharesContract TIME token address\n    function setSharesContract(address _sharesContract) onlyTimeHolder public {\n        require(_sharesContract != 0x0);\n        store.set(sharesContractStorage, _sharesContract);\n    }\n\n    /// @notice Gets address of shares contract\n    function getSharesContract() public view returns (address) {\n        return store.get(sharesContractStorage);\n    }\n\n    /// @notice Gets total number of deposited shares tokens\n    function totalShares() public view returns (uint) {\n        return store.get(totalSharesStorage);\n    }\n\n    /// @notice Gets total number of deposited tokens provided as parameter\n    /// @param _token token address to get info\n    function totalShares(address _token) public view returns (uint) {\n        if (_token == store.get(sharesContractStorage)) {\n            return totalShares();\n        }\n\n        return store.get(totalSharesStorage_v2, _token);\n    }\n\n    /// @notice Number of shareholders for shares contract\n    /// @return number of shareholders\n    function shareholdersCount() public view returns (uint) {\n        return store.count(shareholders);\n    }\n\n    /// @notice Number of shareholders for provided token\n    /// @return number of shareholders\n    function shareholdersCount(address _token) public view returns (uint) {\n        if (_token == store.get(sharesContractStorage)) {\n            return shareholdersCount();\n        }\n\n        return store.count(shareholders_v2, bytes32(_token));\n    }\n\n    /// @notice Gets shares amount deposited by a particular shareholder.\n    ///\n    /// @param _depositor shareholder address.\n    ///\n    /// @return shares amount.\n    function depositBalance(address _depositor) public view returns (uint) {\n        return depositBalance(store.get(sharesContractStorage), _depositor);\n    }\n\n    /// @notice Gets token amount deposited by a particular shareholder.\n    ///\n    /// @param _token token that was deposited\n    /// @param _depositor shareholder address.\n    ///\n    /// @return shares amount.\n    function depositBalance(address _token, address _depositor) public view returns (uint _balance) {\n        if (_token != store.get(sharesContractStorage)) {\n            bytes32 _key = getCompositeKey(_token, _depositor);\n\n            StorageInterface.Iterator memory iterator = store.listIterator(deposits, _key);\n            for (uint i = 0; store.canGetNextWithIterator(deposits, iterator); ++i) {\n                uint _cur_amount = uint(store.get(amounts_v2, _key, bytes32(store.getNextWithIterator(deposits, iterator))));\n                _balance = _balance.add(_cur_amount);\n            }\n        } else {\n            _balance = _depositBalance(_depositor);\n        }\n    }\n\n    /// @dev Iterates through deposits and calculates a sum\n    function _depositBalance(address _depositor) private view returns (uint _balance) {\n        StorageInterface.Iterator memory iterator = store.listIterator(deposits, bytes32(_depositor));\n        for (uint i = 0; store.canGetNextWithIterator(deposits, iterator); ++i) {\n            uint _cur_amount = store.get(amounts, _depositor, store.getNextWithIterator(deposits, iterator));\n            _balance = _balance.add(_cur_amount);\n        }\n    }\n\n    /* Action functions */\n\n    /// @notice Deposits for a _target for provided _amount of shares tokens\n    /// @dev Allowed only for TimeHolder call\n    ///\n    /// @param _target deposit destination\n    /// @param _amount amount of deposited tokens\n    function depositFor(address _target, uint _amount) onlyTimeHolder public {\n        store.add(shareholders, _target);\n\n        uint _id = store.get(depositsIdCounter) + 1;\n        store.set(depositsIdCounter, _id);\n        _addDeposit(bytes32(_target), bytes32(_id), _amount);\n\n        uint _prevAmount = store.get(totalSharesStorage);\n        store.set(totalSharesStorage, _amount.add(_prevAmount));\n    }\n\n    /// @notice Deposits for a _target for provided _amount of specified tokens\n    /// @dev Allowed only for TimeHolder call\n    ///\n    /// @param _token token to deposit. Should be in a whitelist\n    /// @param _target deposit destination\n    /// @param _amount amount of deposited tokens\n    function depositFor(address _token, address _target, uint _amount) onlyTimeHolder public {\n        store.add(shareholders_v2, bytes32(_token), _target);\n\n        bytes32 _key = getCompositeKey(_token, _target); // TODO: wtf?\n\n        uint _id = store.get(depositsIdCounters_v2, _key) + 1;\n        store.set(depositsIdCounters_v2, _key, _id);\n        _addDeposit(_key, bytes32(_id), _amount);\n\n        uint _prevAmount = store.get(totalSharesStorage_v2, _token);\n        store.set(totalSharesStorage_v2, _token, _amount.add(_prevAmount));\n    }\n\n    /// @dev Saves deposit data with provided key\n    ///\n    /// @param _key might be a compositeKey or an account address\n    /// @param _id index of deposit\n    /// @param _amount amount of tokens to deposit\n    function _addDeposit(bytes32 _key, bytes32 _id, uint _amount) private {\n        store.add(deposits, _key, uint(_id));\n        store.set(amounts_v2, _key, _id, bytes32(_amount));\n        store.set(timestamps_v2, _key, _id, bytes32(now));\n    }\n\n    /// @notice Withdraws shares back to provided account\n    /// @dev Allowed only for TimeHolder call\n    ///\n    /// @param _account token recepient\n    /// @param _amount number of tokens to withdraw\n    /// @param _totalBalance total balance of shares\n    function withdrawShares(address _account, uint _amount, uint _totalBalance) onlyTimeHolder public {\n        if (_totalBalance == 0) {\n            return; // TODO: WTF?\n        }\n\n        uint _deposits_count_left = _withdrawShares(bytes32(_account), _amount);\n\n        if (_deposits_count_left == 0) {\n            store.remove(shareholders, _account);\n        }\n\n        uint _prevAmount = store.get(totalSharesStorage);\n        store.set(totalSharesStorage, _prevAmount.sub(_amount));\n    }\n\n    /// @notice Withdraws tokens back to provided account\n    /// @dev Allowed only for TimeHolder call\n    ///\n    /// @param _token token address\n    /// @param _account token recepient\n    /// @param _amount number of tokens to withdraw\n    /// @param _totalBalance total balance of shares\n    function withdrawShares(address _token, address _account, uint _amount, uint _totalBalance) onlyTimeHolder public {\n        if (_totalBalance == 0) {\n            return; // TODO: WTF?\n        }\n\n        bytes32 _key = getCompositeKey(_token, _account);\n        uint _deposits_count_left = _withdrawShares(_key, _amount);\n\n        if (_deposits_count_left == 0) {\n            store.remove(shareholders_v2, bytes32(_token), _account);\n        }\n\n        uint _prevAmount = store.get(totalSharesStorage_v2, _token);\n        store.set(totalSharesStorage_v2, _token, _prevAmount.sub(_amount));\n    }\n\n    /// @dev Withdraws tokens for provided keys\n    ///\n    /// @param _key might be a compositeKey or an account address\n    /// @param _amount amount of tokens to withdraw\n    ///\n    /// @return _deposits_count_left amount of tokens that is left on deposits\n    function _withdrawShares(bytes32 _key, uint _amount) private returns (uint _deposits_count_left) {\n        StorageInterface.Iterator memory iterator = store.listIterator(deposits, _key);\n        _deposits_count_left = iterator.count();\n        for (uint i = 0; store.canGetNextWithIterator(deposits, iterator); ++i) {\n            uint _id = store.getNextWithIterator(deposits, iterator);\n            (_deposits_count_left, _amount) = _withdrawSharesFromDepositV2(_key, _id, _amount, _deposits_count_left);\n        }\n    }\n\n    /// @dev Withdraws shares from one of made deposits.\n    ///\n    /// @param _key composite key from keccak256(symbol, user)\n    /// @param _id deposit key\n    /// @param _amount deposit amount to withdraw\n    /// @param _depositsLeft number of deposits left\n    ///\n    /// @return {\n    ///   updated deposits left,\n    ///   updated amount left,\n    /// }\n    function _withdrawSharesFromDepositV2(bytes32 _key, uint _id, uint _amount, uint _depositsLeft) private returns (uint, uint) {\n        uint _cur_amount = uint(store.get(amounts_v2, _key, bytes32(_id)));\n        if (_amount < _cur_amount) {\n            store.set(amounts_v2, _key, bytes32(_id), bytes32(_cur_amount.sub(_amount)));\n            return (_depositsLeft, _amount);\n        }\n        if (_amount == _cur_amount) {\n            store.remove(deposits, _key, _id);\n            return (_depositsLeft.sub(1), _amount);\n        }\n        if (_amount > _cur_amount) {\n            store.remove(deposits, _key, _id);\n            return (_depositsLeft.sub(1), _amount.sub(_cur_amount));\n        }\n    }\n\n    /// @dev Gets key combined from token symbol and user's address\n    function getCompositeKey(address _token, address _address) private pure returns (bytes32) {\n        return keccak256(_token, _address);\n    }\n}\n",
  "sourcePath": "/Users/ahiatsevich/Development/chronobank/SmartContracts/contracts/timeholder/ERC20DepositStorage.sol",
  "compiler": {
    "name": "solc",
    "version": "0.4.18+commit.9cf6e910.Emscripten.clang"
  },
  "schemaVersion": "1.0.1",
  "updatedAt": "2018-01-26T09:42:45.536Z"
}