{
  "contractName": "ExchangeManager",
  "abi": [
    {
      "constant": false,
      "inputs": [
        {
          "name": "exchange",
          "type": "address"
        },
        {
          "name": "symbol",
          "type": "bytes32"
        }
      ],
      "name": "emitExchangeRemoved",
      "outputs": [],
      "payable": false,
      "stateMutability": "nonpayable",
      "type": "function"
    },
    {
      "constant": false,
      "inputs": [
        {
          "name": "user",
          "type": "address"
        },
        {
          "name": "exchange",
          "type": "address"
        },
        {
          "name": "symbol",
          "type": "bytes32"
        }
      ],
      "name": "emitExchangeCreated",
      "outputs": [],
      "payable": false,
      "stateMutability": "nonpayable",
      "type": "function"
    },
    {
      "constant": false,
      "inputs": [],
      "name": "claimContractOwnership",
      "outputs": [
        {
          "name": "",
          "type": "bool"
        }
      ],
      "payable": false,
      "stateMutability": "nonpayable",
      "type": "function"
    },
    {
      "constant": true,
      "inputs": [
        {
          "name": "_identifier",
          "type": "bytes32"
        }
      ],
      "name": "lookupManager",
      "outputs": [
        {
          "name": "manager",
          "type": "address"
        }
      ],
      "payable": false,
      "stateMutability": "view",
      "type": "function"
    },
    {
      "constant": true,
      "inputs": [],
      "name": "contractsManager",
      "outputs": [
        {
          "name": "",
          "type": "address"
        }
      ],
      "payable": false,
      "stateMutability": "view",
      "type": "function"
    },
    {
      "constant": false,
      "inputs": [
        {
          "name": "_to",
          "type": "address"
        }
      ],
      "name": "changeContractOwnership",
      "outputs": [
        {
          "name": "",
          "type": "bool"
        }
      ],
      "payable": false,
      "stateMutability": "nonpayable",
      "type": "function"
    },
    {
      "constant": true,
      "inputs": [],
      "name": "pendingContractOwner",
      "outputs": [
        {
          "name": "",
          "type": "address"
        }
      ],
      "payable": false,
      "stateMutability": "view",
      "type": "function"
    },
    {
      "constant": false,
      "inputs": [
        {
          "name": "_eventsHistory",
          "type": "address"
        }
      ],
      "name": "setEventsHistory",
      "outputs": [],
      "payable": false,
      "stateMutability": "nonpayable",
      "type": "function"
    },
    {
      "constant": false,
      "inputs": [
        {
          "name": "_contractsManager",
          "type": "address"
        }
      ],
      "name": "setContractsManager",
      "outputs": [],
      "payable": false,
      "stateMutability": "nonpayable",
      "type": "function"
    },
    {
      "constant": false,
      "inputs": [],
      "name": "destroy",
      "outputs": [],
      "payable": false,
      "stateMutability": "nonpayable",
      "type": "function"
    },
    {
      "constant": false,
      "inputs": [
        {
          "name": "user",
          "type": "address"
        },
        {
          "name": "exchange",
          "type": "address"
        },
        {
          "name": "symbol",
          "type": "bytes32"
        }
      ],
      "name": "emitExchangeAdded",
      "outputs": [],
      "payable": false,
      "stateMutability": "nonpayable",
      "type": "function"
    },
    {
      "constant": false,
      "inputs": [
        {
          "name": "_to",
          "type": "address"
        }
      ],
      "name": "transferContractOwnership",
      "outputs": [
        {
          "name": "",
          "type": "bool"
        }
      ],
      "payable": false,
      "stateMutability": "nonpayable",
      "type": "function"
    },
    {
      "constant": true,
      "inputs": [],
      "name": "contractOwner",
      "outputs": [
        {
          "name": "",
          "type": "address"
        }
      ],
      "payable": false,
      "stateMutability": "view",
      "type": "function"
    },
    {
      "constant": false,
      "inputs": [
        {
          "name": "tokens",
          "type": "address[]"
        },
        {
          "name": "_to",
          "type": "address"
        }
      ],
      "name": "withdrawnTokens",
      "outputs": [
        {
          "name": "",
          "type": "uint256"
        }
      ],
      "payable": false,
      "stateMutability": "nonpayable",
      "type": "function"
    },
    {
      "constant": false,
      "inputs": [
        {
          "name": "errorCode",
          "type": "uint256"
        }
      ],
      "name": "emitError",
      "outputs": [],
      "payable": false,
      "stateMutability": "nonpayable",
      "type": "function"
    },
    {
      "constant": true,
      "inputs": [
        {
          "name": "key",
          "type": "address"
        }
      ],
      "name": "isAuthorized",
      "outputs": [
        {
          "name": "",
          "type": "bool"
        }
      ],
      "payable": false,
      "stateMutability": "view",
      "type": "function"
    },
    {
      "constant": true,
      "inputs": [],
      "name": "getEventsHistory",
      "outputs": [
        {
          "name": "",
          "type": "address"
        }
      ],
      "payable": false,
      "stateMutability": "view",
      "type": "function"
    },
    {
      "inputs": [
        {
          "name": "_store",
          "type": "address"
        },
        {
          "name": "_crate",
          "type": "bytes32"
        }
      ],
      "payable": false,
      "stateMutability": "nonpayable",
      "type": "constructor"
    },
    {
      "anonymous": false,
      "inputs": [
        {
          "indexed": true,
          "name": "self",
          "type": "address"
        },
        {
          "indexed": true,
          "name": "user",
          "type": "address"
        },
        {
          "indexed": false,
          "name": "exchange",
          "type": "address"
        },
        {
          "indexed": false,
          "name": "symbol",
          "type": "bytes32"
        }
      ],
      "name": "ExchangeCreated",
      "type": "event"
    },
    {
      "anonymous": false,
      "inputs": [
        {
          "indexed": true,
          "name": "self",
          "type": "address"
        },
        {
          "indexed": true,
          "name": "user",
          "type": "address"
        },
        {
          "indexed": false,
          "name": "exchange",
          "type": "address"
        },
        {
          "indexed": false,
          "name": "symbol",
          "type": "bytes32"
        }
      ],
      "name": "ExchangeAdded",
      "type": "event"
    },
    {
      "anonymous": false,
      "inputs": [
        {
          "indexed": true,
          "name": "self",
          "type": "address"
        },
        {
          "indexed": false,
          "name": "exchange",
          "type": "address"
        },
        {
          "indexed": false,
          "name": "symbol",
          "type": "bytes32"
        }
      ],
      "name": "ExchangeRemoved",
      "type": "event"
    },
    {
      "anonymous": false,
      "inputs": [
        {
          "indexed": true,
          "name": "self",
          "type": "address"
        },
        {
          "indexed": false,
          "name": "errorCode",
          "type": "uint256"
        }
      ],
      "name": "Error",
      "type": "event"
    },
    {
      "constant": false,
      "inputs": [
        {
          "name": "_contractsManager",
          "type": "address"
        },
        {
          "name": "_exchangeFactory",
          "type": "address"
        }
      ],
      "name": "init",
      "outputs": [
        {
          "name": "",
          "type": "uint256"
        }
      ],
      "payable": false,
      "stateMutability": "nonpayable",
      "type": "function"
    },
    {
      "constant": false,
      "inputs": [
        {
          "name": "_fee",
          "type": "uint256"
        }
      ],
      "name": "setFee",
      "outputs": [
        {
          "name": "",
          "type": "uint256"
        }
      ],
      "payable": false,
      "stateMutability": "nonpayable",
      "type": "function"
    },
    {
      "constant": false,
      "inputs": [
        {
          "name": "_exchangeFactory",
          "type": "address"
        }
      ],
      "name": "setExchangeFactory",
      "outputs": [
        {
          "name": "",
          "type": "uint256"
        }
      ],
      "payable": false,
      "stateMutability": "nonpayable",
      "type": "function"
    },
    {
      "constant": false,
      "inputs": [
        {
          "name": "_symbol",
          "type": "bytes32"
        },
        {
          "name": "_buyPrice",
          "type": "uint256"
        },
        {
          "name": "_sellPrice",
          "type": "uint256"
        },
        {
          "name": "_useExternalPriceTicker",
          "type": "bool"
        },
        {
          "name": "_authorizedManager",
          "type": "address"
        },
        {
          "name": "_isActive",
          "type": "bool"
        }
      ],
      "name": "createExchange",
      "outputs": [
        {
          "name": "errorCode",
          "type": "uint256"
        }
      ],
      "payable": false,
      "stateMutability": "nonpayable",
      "type": "function"
    },
    {
      "constant": false,
      "inputs": [],
      "name": "removeExchange",
      "outputs": [
        {
          "name": "errorCode",
          "type": "uint256"
        }
      ],
      "payable": false,
      "stateMutability": "nonpayable",
      "type": "function"
    },
    {
      "constant": true,
      "inputs": [
        {
          "name": "_exchange",
          "type": "address"
        }
      ],
      "name": "isExchangeExists",
      "outputs": [
        {
          "name": "",
          "type": "bool"
        }
      ],
      "payable": false,
      "stateMutability": "view",
      "type": "function"
    },
    {
      "constant": true,
      "inputs": [
        {
          "name": "_fromIdx",
          "type": "uint256"
        },
        {
          "name": "_length",
          "type": "uint256"
        }
      ],
      "name": "getExchanges",
      "outputs": [
        {
          "name": "result",
          "type": "address[]"
        }
      ],
      "payable": false,
      "stateMutability": "view",
      "type": "function"
    },
    {
      "constant": true,
      "inputs": [],
      "name": "getExchangesCount",
      "outputs": [
        {
          "name": "",
          "type": "uint256"
        }
      ],
      "payable": false,
      "stateMutability": "view",
      "type": "function"
    },
    {
      "constant": true,
      "inputs": [
        {
          "name": "_owner",
          "type": "address"
        }
      ],
      "name": "getExchangesForOwner",
      "outputs": [
        {
          "name": "",
          "type": "address[]"
        }
      ],
      "payable": false,
      "stateMutability": "view",
      "type": "function"
    },
    {
      "constant": true,
      "inputs": [
        {
          "name": "_owner",
          "type": "address"
        }
      ],
      "name": "getExchangesForOwnerCount",
      "outputs": [
        {
          "name": "",
          "type": "uint256"
        }
      ],
      "payable": false,
      "stateMutability": "view",
      "type": "function"
    },
    {
      "constant": true,
      "inputs": [],
      "name": "getFee",
      "outputs": [
        {
          "name": "",
          "type": "uint256"
        }
      ],
      "payable": false,
      "stateMutability": "view",
      "type": "function"
    },
    {
      "constant": true,
      "inputs": [
        {
          "name": "_exchanges",
          "type": "address[]"
        }
      ],
      "name": "getExchangeData",
      "outputs": [
        {
          "name": "symbols",
          "type": "bytes32[]"
        },
        {
          "name": "buyPrices",
          "type": "uint256[]"
        },
        {
          "name": "sellPrices",
          "type": "uint256[]"
        },
        {
          "name": "assetBalances",
          "type": "uint256[]"
        },
        {
          "name": "ethBalances",
          "type": "uint256[]"
        }
      ],
      "payable": false,
      "stateMutability": "view",
      "type": "function"
    },
    {
      "constant": true,
      "inputs": [],
      "name": "getExchangeFactory",
      "outputs": [
        {
          "name": "",
          "type": "address"
        }
      ],
      "payable": false,
      "stateMutability": "view",
      "type": "function"
    }
  ],
  "bytecode": "0x606060405234156200001057600080fd5b60405160408062002abd83398101604052808051919060200180519150829050818181818162000051600083836401000000006200261c6200017f82021704565b505060028054600160a060020a03338116600160a060020a03199283161790925560058054309093169290911691909117905550620000c69250600791507f65785f6d5f65786368616e676573000000000000000000000000000000000000905064010000000062002642620001a582021704565b62000101600a7f65785f6d5f6f776e6572730000000000000000000000000000000000000000006401000000006200270f620002b482021704565b6200013c60067f65785f6d5f65786368616e6765466163746f727900000000000000000000000064010000000062002719620002ce82021704565b62000177600d7f65785f6d5f66656500000000000000000000000000000000000000000000000064010000000062002719620002ce82021704565b505062000320565b8254600160a060020a031916600160a060020a0392909216919091178255600190910155565b620001fc82826040519081527f636f756e7400000000000000000000000000000000000000000000000000000060208201526025016040518091039020620002ce6401000000000262002719176401000000009004565b6200025682600101826040519081527f696e64657865730000000000000000000000000000000000000000000000000060208201526027016040518091039020620002ce6401000000000262002719176401000000009004565b620002b082600201826040519081527f76616c756573000000000000000000000000000000000000000000000000000060208201526026016040518091039020620002ce6401000000000262002719176401000000009004565b5050565b620002b0828264010000000062002741620002ee82021704565b8154620002ea90826401000000006200274b6200030882021704565b9055565b620002b0828264010000000062002642620001a582021704565b8115158062000315575080155b15620002b057600080fd5b61278d80620003306000396000f3006060604052600436106101665763ffffffff60e060020a6000350416630c629c27811461016b57806338aef6ec1461018f5780634592cd1d146101b75780634ea3b642146101de5780634fe590121461020357806353253d3114610235578063551d483014610248578063557f4bc91461027a57806358f09007146102995780635aa77d3c146102b85780635ddcdc67146102cb5780636521afd7146102de57806369fe0e2d146102fd57806371d3b5731461031357806372ffb5431461033257806379f4289a146103a457806383197ef01461052a578063a64f51d31461053d578063a82ca7e614610550578063a843c51f14610578578063c1f8ab5a14610597578063ce606ee0146105b0578063ced72f87146105c3578063d12ebeaa146105d6578063d8f9659b146105f5578063df26ca081461064f578063e425c90714610665578063f09a401614610684578063fe9fbb80146106a9578063fff10aba146106c8575b600080fd5b341561017657600080fd5b61018d600160a060020a03600435166024356106db565b005b341561019a57600080fd5b61018d600160a060020a0360043581169060243516604435610734565b34156101c257600080fd5b6101ca610798565b604051901515815260200160405180910390f35b34156101e957600080fd5b6101f16107e5565b60405190815260200160405180910390f35b341561020e57600080fd5b61021960043561090f565b604051600160a060020a03909116815260200160405180910390f35b341561024057600080fd5b61021961098c565b341561025357600080fd5b6101f16004356024356044356064351515600160a060020a036084351660a435151561099b565b341561028557600080fd5b6101ca600160a060020a03600435166109c5565b34156102a457600080fd5b6101ca600160a060020a0360043516610a1c565b34156102c357600080fd5b610219610a3f565b34156102d657600080fd5b610219610a4e565b34156102e957600080fd5b61018d600160a060020a0360043516610a66565b341561030857600080fd5b6101f1600435610a9c565b341561031e57600080fd5b61018d600160a060020a0360043516610ad5565b341561033d57600080fd5b610351600160a060020a0360043516610b0c565b60405160208082528190810183818151815260200191508051906020019060200280838360005b83811015610390578082015183820152602001610378565b505050509050019250505060405180910390f35b34156103af57600080fd5b6103c26004803560248101910135610b30565b60405180806020018060200180602001806020018060200186810386528b818151815260200191508051906020019060200280838360005b838110156104125780820151838201526020016103fa565b5050505090500186810385528a818151815260200191508051906020019060200280838360005b83811015610451578082015183820152602001610439565b50505050905001868103845289818151815260200191508051906020019060200280838360005b83811015610490578082015183820152602001610478565b50505050905001868103835288818151815260200191508051906020019060200280838360005b838110156104cf5780820151838201526020016104b7565b50505050905001868103825287818151815260200191508051906020019060200280838360005b8381101561050e5780820151838201526020016104f6565b505050509050019a505050505050505050505060405180910390f35b341561053557600080fd5b61018d610e3d565b341561054857600080fd5b6101f1610ec6565b341561055b57600080fd5b61018d600160a060020a0360043581169060243516604435610ed9565b341561058357600080fd5b6101ca600160a060020a0360043516610f3d565b34156105a257600080fd5b610351600435602435610fb6565b34156105bb57600080fd5b610219611035565b34156105ce57600080fd5b6101f1611044565b34156105e157600080fd5b6101f1600160a060020a0360043516611057565b341561060057600080fd5b6101f1600460248135818101908301358060208181020160405190810160405280939291908181526020018383602002808284375094965050509235600160a060020a03169250611099915050565b341561065a57600080fd5b61018d6004356111d0565b341561067057600080fd5b6101f1600160a060020a0360043516611217565b341561068f57600080fd5b6101f1600160a060020a0360043581169060243516611234565b34156106b457600080fd5b6101ca600160a060020a0360043516611297565b34156106d357600080fd5b610219611330565b6106e361133f565b600160a060020a03167fff447254e8eb62495d621adbd4899248f7483073cd7c918298b2b7afe6bdf6228383604051600160a060020a03909216825260208201526040908101905180910390a25050565b82600160a060020a031661074661133f565b600160a060020a03167f6a84675961d2628de8cb5e74e0aa70bec82c75c587b2eeb89377315ff8cab8cf8484604051600160a060020a03909216825260208201526040908101905180910390a3505050565b60035460009033600160a060020a039081169116146107b9575060006107e2565b506003805460028054600160a060020a0319908116600160a060020a0384161790915516905560015b90565b6000806107f133610a1c565b151561080957610802611b58611343565b915061090b565b61082560006007600160a060020a03331663ffffffff6113a816565b61082d611330565b600160a060020a031663ab0da5a93360405160e060020a63ffffffff8416028152600160a060020a039091166004820152602401600060405180830381600087803b151561087a57600080fd5b5af1151561088757600080fd5b50505033600160a060020a031663ce606ee06040518163ffffffff1660e060020a028152600401602060405180830381600087803b15156108c757600080fd5b5af115156108d457600080fd5b505050604051805191506108fd90506000600a600160a060020a0384163363ffffffff6113c216565b610906336113dd565b600191505b5090565b600454600090600160a060020a031663bc6579278360405160e060020a63ffffffff84160281526004810191909152602401602060405180830381600087803b151561095a57600080fd5b5af1151561096757600080fd5b5050506040518051915050600160a060020a038116151561098757600080fd5b919050565b600454600160a060020a031681565b60006109ba8787878787876020604051908101604052600081526114ac565b979650505050505050565b60025460009033600160a060020a039081169116141561098757600160a060020a03821615156109f757506000610987565b5060038054600160a060020a038316600160a060020a03199091161790556001919050565b6000610a39816007600160a060020a03851663ffffffff611bc316565b92915050565b600354600160a060020a031681565b6000610a6181600663ffffffff611be216565b905090565b60025433600160a060020a0390811691161415610a995760058054600160a060020a031916600160a060020a0383161790555b50565b6000610aa733611297565b15610987576127108210610aba57600080fd5b610acd6000600d8463ffffffff611c3916565b506001919050565b60025433600160a060020a0390811691161415610a995760048054600160a060020a038316600160a060020a031990911617905550565b610b1461260a565b610a396000600a600160a060020a03851663ffffffff611cae16565b610b3861260a565b610b4061260a565b610b4861260a565b610b5061260a565b610b5861260a565b60008087604051805910610b695750595b9080825280602002602001820160405250965087604051805910610b8a5750595b9080825280602002602001820160405250955087604051805910610bab5750595b9080825280602002602001820160405250945087604051805910610bcc5750595b9080825280602002602001820160405250935087604051805910610bed5750595b90808252806020026020018201604052509250600091505b87821015610e3157610c31898984818110610c1c57fe5b90506020020135600160a060020a0316610a1c565b15610e2657888883818110610c4257fe5b90506020020135600160a060020a03169050610cb081600160a060020a03166338d52e0f6040518163ffffffff1660e060020a028152600401602060405180830381600087803b1515610c9457600080fd5b5af11515610ca157600080fd5b50505060405180519050611cc9565b878381518110610cbc57fe5b60209081029091010152600160a060020a038116638620410b6040518163ffffffff1660e060020a028152600401602060405180830381600087803b1515610d0357600080fd5b5af11515610d1057600080fd5b50505060405180519050868381518110610d2657fe5b60209081029091010152600160a060020a038116634b7503346040518163ffffffff1660e060020a028152600401602060405180830381600087803b1515610d6d57600080fd5b5af11515610d7a57600080fd5b50505060405180519050858381518110610d9057fe5b60209081029091010152600160a060020a03811663c66f24556040518163ffffffff1660e060020a028152600401602060405180830381600087803b1515610dd757600080fd5b5af11515610de457600080fd5b50505060405180519050848381518110610dfa57fe5b60209081029091010152600160a060020a03811631838381518110610e1b57fe5b602090810290910101525b600190910190610c05565b50509295509295909350565b60025433600160a060020a0390811691161415610ec457600454600160a060020a031663c375c2ef3060405160e060020a63ffffffff8416028152600160a060020a039091166004820152602401602060405180830381600087803b1515610ea457600080fd5b5af11515610eb157600080fd5b5050506040518051905050610ec4611d69565b565b6000610a6181600763ffffffff611d8c16565b82600160a060020a0316610eeb61133f565b600160a060020a03167fb929f1a44cd381443aa85ced960a716b8d3325963a64da27f16621f61baa23f38484604051600160a060020a03909216825260208201526040908101905180910390a3505050565b60025460009033600160a060020a039081169116141561098757600160a060020a0382161515610f6f57506000610987565b600354600160a060020a031615610f915760038054600160a060020a03191690555b5060028054600160a060020a038316600160a060020a03199091161790556001919050565b610fbe61260a565b600082604051805910610fce5750595b90808252806020026020018201604052509150600090505b8281101561102e576110036000600783870163ffffffff611da916565b82828151811061100f57fe5b600160a060020a03909216602092830290910190910152600101610fe6565b5092915050565b600254600160a060020a031681565b6000610a6181600d63ffffffff611dc016565b60025460009033600160a060020a039081169116141561098757600160a060020a038216151561108657600080fd5b610acd600060068463ffffffff611e1716565b60025460009081908190819033600160a060020a03908116911614156111c757600092505b85518310156111c2578583815181106110d357fe5b90602001906020020151915081600160a060020a03166370a082313060405160e060020a63ffffffff8416028152600160a060020a039091166004820152602401602060405180830381600087803b151561112d57600080fd5b5af1151561113a57600080fd5b505050604051805191505080156111b75781600160a060020a031663a9059cbb868360405160e060020a63ffffffff8516028152600160a060020a0390921660048301526024820152604401602060405180830381600087803b151561119f57600080fd5b5af115156111ac57600080fd5b505050604051805150505b6001909201916110be565b600193505b50505092915050565b6111d861133f565b600160a060020a03167f9cf38cf2dbf9139f5c32639950507b10775fbbe0421f3e168bc2d1bb1ae3208c8260405190815260200160405180910390a250565b6000610a3981600a600160a060020a03851663ffffffff611e8016565b60025460009033600160a060020a0390811691161415610a3957611278837f45786368616e67654d616e616765720000000000000000000000000000000000611e8d565b50600161128483611057565b1461128e57600080fd5b50600192915050565b6000806112c37f557365724d616e6167657200000000000000000000000000000000000000000061090f565b905080600160a060020a0316632aa09e5a8460405160e060020a63ffffffff8416028152600160a060020a039091166004820152602401602060405180830381600087803b151561131357600080fd5b5af1151561132057600080fd5b5050506040518051949350505050565b600554600160a060020a031690565b3390565b600061134d611330565b600160a060020a031663df26ca088360405160e060020a63ffffffff84160281526004810191909152602401600060405180830381600087803b151561139257600080fd5b5af1151561139f57600080fd5b50929392505050565b6113bd838360ea60020a621cd95d0284612064565b505050565b6113d7848484600160a060020a038516612112565b50505050565b600081600160a060020a03166338d52e0f6040518163ffffffff1660e060020a028152600401602060405180830381600087803b151561141c57600080fd5b5af1151561142957600080fd5b50505060405180519050905061143d611330565b600160a060020a0316630c629c278361145584611cc9565b60405160e060020a63ffffffff8516028152600160a060020a0390921660048301526024820152604401600060405180830381600087803b151561149857600080fd5b5af115156114a557600080fd5b5050505050565b600080600080846114bb61211e565b600160a060020a031663709586c13330600035600160e060020a03191660405160e060020a63ffffffff8616028152600160a060020a039384166004820152919092166024820152600160e060020a03199091166044820152606401602060405180830381600087803b151561153057600080fd5b5af1151561153d57600080fd5b505050604051805190501515611559576155f060005260206000f35b611561612149565b600160a060020a031663fa7fdeb78d60405160e060020a63ffffffff84160281526004810191909152602401602060405180830381600087803b15156115a657600080fd5b5af115156115b357600080fd5b5050506040518051945050600160a060020a03841615156115e0576115d9611b5a611343565b9450611b05565b6116097f526577617264730000000000000000000000000000000000000000000000000061090f565b9250600160a060020a0383161515611626576115d9611b59611343565b61162e610a4e565b600160a060020a0316637d3af3a46040518163ffffffff1660e060020a028152600401602060405180830381600087803b151561166a57600080fd5b5af1151561167757600080fd5b50505060405180519050915061168b611330565b600160a060020a031663b6a5d7de8360405160e060020a63ffffffff8416028152600160a060020a039091166004820152602401602060405180830381600087803b15156116d857600080fd5b5af115156116e557600080fd5b5050506040518051905015156116fa57600080fd5b600454600160a060020a03808416916346639dba9116868661171a611044565b60405160e060020a63ffffffff8716028152600160a060020a0394851660048201529284166024840152921660448201526064810191909152608401602060405180830381600087803b151561176f57600080fd5b5af1151561177c57600080fd5b5050506040518051505060008b118015611796575060008a115b1561181757600182600160a060020a031663935bb7678d8d8d60405160e060020a63ffffffff86160281526004810193909352602483019190915215156044820152606401602060405180830381600087803b15156117f457600080fd5b5af1151561180157600080fd5b5050506040518051905014151561181757600080fd5b600160a060020a0388161561189957600182600160a060020a03166394f3ed318a60405160e060020a63ffffffff8416028152600160a060020a039091166004820152602401602060405180830381600087803b151561187657600080fd5b5af1151561188357600080fd5b5050506040518051905014151561189957600080fd5b600182600160a060020a031663acec338a8960405160e060020a63ffffffff84160281529015156004820152602401602060405180830381600087803b15156118e157600080fd5b5af115156118ee57600080fd5b5050506040518051905014151561190457600080fd5b81600160a060020a031663a843c51f3360405160e060020a63ffffffff8416028152600160a060020a039091166004820152602401602060405180830381600087803b151561195257600080fd5b5af1151561195f57600080fd5b50505060405180519050151561197457600080fd5b61199060006007600160a060020a03851663ffffffff61217416565b6119ad6000600a600160a060020a0333168563ffffffff61218916565b33600160a060020a031682600160a060020a031663ce606ee06040518163ffffffff1660e060020a028152600401602060405180830381600087803b15156119f457600080fd5b5af11515611a0157600080fd5b50505060405180519050600160a060020a0316141515611a1d57fe5b82600160a060020a031682600160a060020a0316639ec5a8946040518163ffffffff1660e060020a028152600401602060405180830381600087803b1515611a6457600080fd5b5af11515611a7157600080fd5b50505060405180519050600160a060020a0316141515611a8d57fe5b611a95611044565b82600160a060020a0316637fd6f15c6040518163ffffffff1660e060020a028152600401602060405180830381600087803b1515611ad257600080fd5b5af11515611adf57600080fd5b50505060405180519050141515611af257fe5b611afd33838e61219e565b600180875294505b60018151148015611baa57506001611b1b61211e565b600160a060020a03166384509ca83330600035600160e060020a03191660405160e060020a63ffffffff8616028152600160a060020a039384166004820152919092166024820152600160e060020a03199091166044820152606401602060405180830381600087803b1515611b9057600080fd5b5af11515611b9d57600080fd5b5050506040518051905014155b15611bb457600080fd5b50505050979650505050505050565b6000611bda848460ea60020a621cd95d0285612206565b949350505050565b815460018301548254600092600160a060020a03169163d3a396869160405160e060020a63ffffffff851602815260048101929092526024820152604401602060405180830381600087803b151561131357600080fd5b825460018401548354600160a060020a03909216916353e7168b91908460405160e060020a63ffffffff8616028152600481019390935260248301919091526044820152606401600060405180830381600087803b1515611c9957600080fd5b5af11515611ca657600080fd5b505050505050565b611cb661260a565b611bda611cc4858585612222565b612235565b600080611cd4612149565b600160a060020a0316637abccac98460405160e060020a63ffffffff8416028152600160a060020a03909116600482015260240160e060405180830381600087803b1515611d2157600080fd5b5af11515611d2e57600080fd5b505050604051805190602001805190602001805190602001805190602001805190602001805190602001805150939998505050505050505050565b60025433600160a060020a0390811691161415610ec45733600160a060020a0316ff5b6000611da2838360ea60020a621cd95d026122b8565b9392505050565b6000611bda848460ea60020a621cd95d02856122c5565b815460018301548254600092600160a060020a0316916353aa3f5e9160405160e060020a63ffffffff851602815260048101929092526024820152604401602060405180830381600087803b151561131357600080fd5b825460018401548354600160a060020a03909216916379a7cfee91908460405160e060020a63ffffffff861602815260048101939093526024830191909152600160a060020a03166044820152606401600060405180830381600087803b1515611c9957600080fd5b6000611bda8484846122e2565b60025460009081908190819033600160a060020a03908116911614611eb157600080fd5b600160a060020a0386161515611ec657600080fd5b600454600160a060020a0316158015935080611ef05750600454600160a060020a03878116911614155b15611f115760048054600160a060020a031916600160a060020a0388161790555b600454600160a060020a031691508163bc65792760405160e060020a63ffffffff83160281527f4d756c74694576656e7473486973746f727900000000000000000000000000006004820152602401602060405180830381600087803b1515611f7957600080fd5b5af11515611f8657600080fd5b5050506040518051915050600160a060020a03811615801590611fb75750600554600160a060020a03828116911614155b15611fd85760058054600160a060020a031916600160a060020a0383161790555b84156120525781600160a060020a031663b7c46cd5308760405160e060020a63ffffffff8516028152600160a060020a0390921660048301526024820152604401602060405180830381600087803b151561203257600080fd5b5af1151561203f57600080fd5b5050506040518051600114905061205257fe5b82156111c25760069695505050505050565b600080600061207587878787612206565b151561208057612109565b61208b8787876122b8565b925061209c876002880187866122ef565b91506120ad878760010187876122ef565b9050828110156120d7576120c78760018801878585612314565b6120d78760028801878486612314565b6120e8876001880187876000612314565b6120f9876002880187866000612314565b6121098787876000198701612338565b50505050505050565b6113d784848484612064565b6000610a617f466561747572654665654d616e6167657200000000000000000000000000000061090f565b6000610a617f45524332304d616e61676572000000000000000000000000000000000000000061090f565b6113bd838360ea60020a621cd95d02846123bd565b6113d7848484600160a060020a038516612411565b6121a6611330565b600160a060020a03166338aef6ec84848460405160e060020a63ffffffff8616028152600160a060020a0393841660048201529190921660248201526044810191909152606401600060405180830381600087803b1515611c9957600080fd5b6000612217858560010185856122ef565b151595945050505050565b61222a61260a565b611bda84848461241d565b61223d61260a565b61224561260a565b600083516040518059106122565750595b90808252806020026020018201604052509150600090505b835181101561102e5783818151811061228357fe5b9060200190602002015182828151811061229957fe5b600160a060020a0390921660209283029091019091015260010161226e565b6000611bda848484612496565b60006122d9856002860185600186016122ef565b95945050505050565b6000611bda8484846122b8565b60006122d9858585856040519182526020820152604090810190518091039020612523565b6114a585858585604051918252602082015260409081019051809103902084612592565b835460018501548454600160a060020a03909216916353e7168b91908560405191825260208201526040908101905180910390208460405160e060020a63ffffffff8616028152600481019390935260248301919091526044820152606401600060405180830381600087803b15156123b057600080fd5b5af1151561210957600080fd5b60006123cb85858585612206565b156123d5576114a5565b6123e08585856122b8565b60010190506123f58560028601858486612314565b6124058560018601858585612314565b6114a585858584612338565b6113d7848484846123bd565b61242561260a565b6000806124338686866122b8565b9150816040518059106124435750595b90808252806020026020018201604052509250600090505b8181101561248d5761246f868686846122c5565b83828151811061247b57fe5b6020908102909101015260010161245b565b50509392505050565b825460018401548354600092600160a060020a0316916353aa3f5e9185604051918252602082015260409081019051809103902060405160e060020a63ffffffff851602815260048101929092526024820152604401602060405180830381600087803b151561250557600080fd5b5af1151561251257600080fd5b505050604051805195945050505050565b825460018401548354600092600160a060020a0316916337d9d7fc9185604051918252602082015260409081019051809103902060405160e060020a63ffffffff851602815260048101929092526024820152604401602060405180830381600087803b151561250557600080fd5b835460018501548454600160a060020a039092169163a14ff85791908560405191825260208201526040908101905180910390208460405160e060020a63ffffffff8616028152600481019390935260248301919091526044820152606401600060405180830381600087803b15156123b057600080fd5b60206040519081016040526000815290565b8254600160a060020a031916600160a060020a0392909216919091178255600190910155565b61268382826040519081527f636f756e7400000000000000000000000000000000000000000000000000000060208201526025016040518091039020612719565b6126c782600101826040519081527f696e64657865730000000000000000000000000000000000000000000000000060208201526027016040518091039020612719565b61270b82600201826040519081527f76616c756573000000000000000000000000000000000000000000000000000060208201526026016040518091039020612719565b5050565b61270b8282612741565b8154612725908261274b565b9055565b8154612725908261274b565b8154612725908261274b565b61270b8282612642565b81151580612757575080155b1561270b57600080fd00a165627a7a7230582031e91c77e0b1b20daefba22b394dce472ff2d31c1f88f98fe2ae7b394c385fe70029",
  "source": "pragma solidity ^0.4.11;\n\nimport \"../core/common/BaseManager.sol\";\nimport \"../core/erc20/ERC20Manager.sol\";\nimport \"../core/event/MultiEventsHistory.sol\";\nimport {ERC20Interface as Asset} from \"../core/erc20/ERC20Interface.sol\";\n\nimport \"./Exchange.sol\";\nimport \"./ExchangeManagerEmitter.sol\";\nimport \"./ExchangeFactory.sol\";\nimport \"../timeholder/FeatureFeeAdapter.sol\";\n\n/// @title ExchangeManager\n///\n/// @notice ExchangeManager contract is the exchange registry which holds info\n/// about created exchanges and provides some util methods for managing it.\n///\n/// The entry point for creating new exchanges.\n///\n/// CBE users are permited to manage fee value against which an exchange will calculate fee.\ncontract ExchangeManager is FeatureFeeAdapter, ExchangeManagerEmitter, BaseManager {\n    uint constant ERROR_EXCHANGE_STOCK_NOT_FOUND = 7000;\n    uint constant ERROR_EXCHANGE_STOCK_INTERNAL = 7001;\n    uint constant ERROR_EXCHANGE_STOCK_UNKNOWN_SYMBOL = 7002;\n\n    StorageInterface.Address exchangeFactory;\n    StorageInterface.Set exchanges; // (exchange [])\n    StorageInterface.AddressesSetMapping owners; // (owner => exchange [])\n    StorageInterface.UInt fee;\n\n    modifier onlyExchangeContractOwner(address _exchange) {\n        if (Exchange(_exchange).contractOwner() == msg.sender) {\n            _;\n        }\n    }\n\n    /// Contructor\n    function ExchangeManager(Storage _store, bytes32 _crate) BaseManager(_store, _crate) public {\n        exchanges.init(\"ex_m_exchanges\");\n        owners.init(\"ex_m_owners\");\n        exchangeFactory.init(\"ex_m_exchangeFactory\");\n        fee.init(\"ex_m_fee\");\n    }\n\n    /// Initialises an exchange with the given params\n    function init(address _contractsManager, address _exchangeFactory)\n    public\n    onlyContractOwner\n    returns (uint)\n    {\n        BaseManager.init(_contractsManager, \"ExchangeManager\");\n        if (setExchangeFactory(_exchangeFactory) != OK) {\n            revert();\n        }\n        return OK;\n    }\n\n    /// Sets fee value against which the exchange should calculate fee.\n    ///\n    /// Note, only CBE members are allowed to set this value.\n    function setFee(uint _fee)\n    public\n    onlyAuthorized\n    returns (uint)\n    {\n        require(_fee < 10000);\n        store.set(fee, _fee);\n        return OK;\n    }\n\n    /// Sets the Exchange Factory address\n    function setExchangeFactory(address _exchangeFactory)\n    public\n    onlyContractOwner\n    returns (uint)\n    {\n        require(_exchangeFactory != 0x0);\n        store.set(exchangeFactory, _exchangeFactory);\n        return OK;\n    }\n\n    /// Creates a new exchange with the given params.\n    function createExchange(\n        bytes32 _symbol,\n        uint _buyPrice,\n        uint _sellPrice,\n        bool _useExternalPriceTicker,\n        address _authorizedManager,\n        bool _isActive)\n    public\n    returns (uint errorCode) {\n        return _createExchange(_symbol, _buyPrice, _sellPrice, _useExternalPriceTicker, _authorizedManager, _isActive, [uint(0)]);\n    }\n\n    function _createExchange(\n        bytes32 _symbol,\n        uint _buyPrice,\n        uint _sellPrice,\n        bool _useExternalPriceTicker,\n        address _authorizedManager,\n        bool _isActive,\n        uint[1] memory _result)\n    private\n    featured(_result)\n    returns (uint errorCode)\n    {\n        address token = lookupERC20Manager().getTokenAddressBySymbol(_symbol);\n        if (token == 0x0) {\n            return _emitError(ERROR_EXCHANGE_STOCK_UNKNOWN_SYMBOL);\n        }\n\n        address rewards = lookupManager(\"Rewards\");\n        if (rewards == 0x0) {\n            return _emitError(ERROR_EXCHANGE_STOCK_INTERNAL);\n        }\n\n        Exchange exchange = Exchange(getExchangeFactory().createExchange());\n\n        if (!MultiEventsHistory(getEventsHistory()).authorize(exchange)) {\n            revert();\n        }\n\n        exchange.init(contractsManager, token, rewards, getFee());\n\n        if (_buyPrice > 0 && _sellPrice > 0) {\n            if (exchange.setPrices(_buyPrice, _sellPrice, _useExternalPriceTicker) != OK) {\n                revert();\n            }\n        }\n\n        if (_authorizedManager != 0x0) {\n            if (exchange.grantAuthorized(_authorizedManager) != OK) {\n                revert();\n            }\n        }\n\n        if (exchange.setActive(_isActive) != OK) {\n            revert();\n        }\n\n        if (!exchange.transferContractOwnership(msg.sender)) {\n            revert();\n        }\n\n        store.add(exchanges, bytes32(address(exchange)));\n        store.add(owners, bytes32(msg.sender), address(exchange));\n\n        assert(exchange.contractOwner() == msg.sender);\n        assert(exchange.rewards() == rewards);\n        assert(exchange.feePercent() == getFee());\n\n        _emitExchangeCreated(msg.sender, exchange, _symbol);\n\n        _result[0] = OK;\n        return OK;\n    }\n\n    /// Deletes msg.sender from the exchange list.\n    /// Note: Designed to be called only by exchange contract.\n    function removeExchange()\n    public\n    returns (uint errorCode)\n    {\n        if (!isExchangeExists(msg.sender)) {\n            return _emitError(ERROR_EXCHANGE_STOCK_NOT_FOUND);\n        }\n\n        store.remove(exchanges, bytes32(msg.sender));\n        MultiEventsHistory(getEventsHistory()).reject(msg.sender);\n\n        address owner = Exchange(msg.sender).contractOwner();\n        store.remove(owners, bytes32(owner), msg.sender);\n\n        _emitExchangeRemoved(msg.sender);\n        return OK;\n    }\n\n    /// Tells whether the given _exchange is in registry.\n    function isExchangeExists(address _exchange) public view returns (bool) {\n        return store.includes(exchanges, bytes32(_exchange));\n    }\n\n    /// Returns the paginated array of excnhages, starting from _fromIdx and len _length.\n    function getExchanges(uint _fromIdx, uint _length) public view returns (address [] result) {\n        result = new address [] (_length);\n        for (uint idx = 0; idx < _length; idx++) {\n            result[idx] = address(store.get(exchanges, idx + _fromIdx));\n        }\n    }\n\n    /// Returns the count of the registered exchanges.\n    function getExchangesCount() public view returns (uint) {\n        return store.count(exchanges);\n    }\n\n    /// Returns the exchanges which belongs to the given _owner\n    function getExchangesForOwner(address _owner) public view returns (address []) {\n        return store.get(owners, bytes32(_owner));\n    }\n\n    /// Returns the number of exchanges which belongs to the given _owner\n    function getExchangesForOwnerCount(address _owner) public view returns (uint) {\n        return store.count(owners, bytes32(_owner));\n    }\n\n    /// The fee value against which the exchange should calculate fee.\n    function getFee() public view returns (uint) {\n        return store.get(fee);\n    }\n\n    /// Util method which returns agregated data for given _exchanges.\n    function getExchangeData(address [] _exchanges)\n    external\n    view\n    returns (bytes32 [] symbols,\n             uint [] buyPrices,\n             uint [] sellPrices,\n             uint [] assetBalances,\n             uint [] ethBalances)\n    {\n        symbols = new bytes32 [] (_exchanges.length);\n        buyPrices = new uint [] (_exchanges.length);\n        sellPrices = new uint [] (_exchanges.length);\n        assetBalances = new uint [] (_exchanges.length);\n        ethBalances = new uint [] (_exchanges.length);\n\n        for (uint idx = 0; idx < _exchanges.length; idx++) {\n            if (isExchangeExists(_exchanges[idx])) {\n                Exchange exchange = Exchange(_exchanges[idx]);\n\n                symbols[idx] = getSymbol(address(exchange.asset()));\n                buyPrices[idx] = exchange.buyPrice();\n                sellPrices[idx] = exchange.sellPrice();\n                assetBalances[idx] = exchange.assetBalance();\n                ethBalances[idx] = exchange.balance;\n            }\n        }\n    }\n\n    /// Returns the Exchange Factory address\n    function getExchangeFactory() public view returns (ExchangeFactory) {\n        return ExchangeFactory(store.get(exchangeFactory));\n    }\n\n    /// Retturns ERC20Manager address\n    function lookupERC20Manager() internal view returns (ERC20Manager) {\n        return ERC20Manager(lookupManager(\"ERC20Manager\"));\n    }\n\n    /// Returns the symbol of the given token\n    function getSymbol(address _token) internal view returns (bytes32) {\n        var (,,symbol,,,,) = lookupERC20Manager().getTokenMetaData(_token);\n        return symbol;\n    }\n\n    /* Events History util methods */\n\n    function _emitExchangeRemoved(address _exchange) internal {\n        Asset asset = Exchange(_exchange).asset();\n        ExchangeManagerEmitter(getEventsHistory())\n            .emitExchangeRemoved(_exchange, getSymbol(address(asset)));\n    }\n\n    function _emitExchangeAdded(address _user, address _exchange) internal {\n        Asset asset = Exchange(_exchange).asset();\n        ExchangeManagerEmitter(getEventsHistory())\n            .emitExchangeAdded(_user, _exchange, getSymbol(address(asset)));\n    }\n\n    function _emitExchangeCreated(\n        address _user,\n        address _exchange,\n        bytes32 _symbol)\n    internal\n    {\n        ExchangeManagerEmitter(getEventsHistory())\n            .emitExchangeCreated(_user, _exchange, _symbol);\n    }\n\n    function _emitError(uint error) internal returns (uint) {\n        ExchangeManagerEmitter(getEventsHistory()).emitError(error);\n        return error;\n    }\n}\n",
  "sourcePath": "/Users/ahiatsevich/Development/chronobank/SmartContracts/contracts/exchange/ExchangeManager.sol",
  "compiler": {
    "name": "solc",
    "version": "0.4.21+commit.dfe3193c.Emscripten.clang"
  },
  "schemaVersion": "2.0.0",
  "updatedAt": "2018-04-05T14:52:03.877Z"
}