{
  "contractName": "ExchangeFactory",
  "abi": [
    {
      "constant": false,
      "inputs": [],
      "name": "createExchange",
      "outputs": [
        {
          "name": "",
          "type": "address"
        }
      ],
      "payable": false,
      "stateMutability": "nonpayable",
      "type": "function"
    }
  ],
  "bytecode": "0x6060604052341561000f57600080fd5b6121108061001e6000396000f3006060604052600436106100405763ffffffff7c01000000000000000000000000000000000000000000000000000000006000350416637d3af3a48114610045575b600080fd5b341561005057600080fd5b610058610081565b60405173ffffffffffffffffffffffffffffffffffffffff909116815260200160405180910390f35b60008061008c61014c565b604051809103906000f08015156100a257600080fd5b90508073ffffffffffffffffffffffffffffffffffffffff1663a843c51f336040517c010000000000000000000000000000000000000000000000000000000063ffffffff841602815273ffffffffffffffffffffffffffffffffffffffff9091166004820152602401602060405180830381600087803b151561012557600080fd5b5af1151561013257600080fd5b50505060405180519050151561014757600080fd5b919050565b604051611f888061015d83390190560060606040526006805460ff1916905560008054600160a060020a033316600160a060020a0319909116179055611f4e8061003a6000396000f3006060604052600436106101df5763ffffffff60e060020a60003504166306b091f981146101fb5780631b9a91a41461022f57806320743e001461025157806322f3e2d41461026457806338d52e0f1461028b5780633f48be2d146102ba57806341c0e1b5146102d95780634592cd1d146102ec57806346639dba146102ff5780634b7503341461032d5780634e3f0a01146103405780634f701e5414610365578063557f4bc91461038f5780635aa77d3c146103ae5780637fd6f15c146103c1578063808700f5146103d457806383197ef0146103fd5780638620410b1461041057806388ae3c6b14610423578063935bb7671461044857806394f3ed31146104665780639ec5a89414610485578063a64abab914610498578063a843c51f146104c1578063a878aee6146104e0578063acec338a146104ff578063b0a3146514610517578063c1538d451461052a578063c66f245514610553578063c81e790814610566578063ce606ee014610588578063d46d79bb1461059b578063d6febde8146105ba578063d79875eb146105c8578063d8f9659b146105e1578063db3dccc01461063b578063df26ca081461065f578063f1850af814610675578063fa09e63014610688578063fe9fbb80146106a7578063fff10aba146106c6575b34156101f4576101ef33346106d9565b6101f9565b600080fd5b005b341561020657600080fd5b61021d600160a060020a0360043516602435610748565b60405190815260200160405180910390f35b341561023a57600080fd5b61021d600160a060020a03600435166024356108cf565b341561025c57600080fd5b61021d6109b2565b341561026f57600080fd5b610277610b11565b604051901515815260200160405180910390f35b341561029657600080fd5b61029e610b32565b604051600160a060020a03909116815260200160405180910390f35b34156102c557600080fd5b61021d600160a060020a0360043516610b41565b34156102e457600080fd5b61021d610b82565b34156102f757600080fd5b610277610cd5565b341561030a57600080fd5b61021d600160a060020a0360043581169060243581169060443516606435610d2d565b341561033857600080fd5b61021d610de4565b341561034b57600080fd5b6101f9600160a060020a0360043516602435604435610e2a565b341561037057600080fd5b6101f96004356024356044351515600160a060020a0360643516610e7d565b341561039a57600080fd5b610277600160a060020a0360043516610ee0565b34156103b957600080fd5b61029e610f40565b34156103cc57600080fd5b61021d610f4f565b34156103df57600080fd5b6101f9600160a060020a036004358116906024359060443516610f55565b341561040857600080fd5b6101f9610fb2565b341561041b57600080fd5b61021d610fd0565b341561042e57600080fd5b6101f9600160a060020a0360043516602435604435610ff9565b341561045357600080fd5b61021d600435602435604435151561104c565b341561047157600080fd5b61021d600160a060020a03600435166110f4565b341561049057600080fd5b61029e611135565b34156104a357600080fd5b6101f9600160a060020a036004358116906024359060443516611144565b34156104cc57600080fd5b610277600160a060020a036004351661119a565b34156104eb57600080fd5b61021d600160a060020a036004351661122b565b341561050a57600080fd5b61021d600435151561125b565b341561052257600080fd5b6102776112be565b341561053557600080fd5b6101f9600160a060020a0360043581169060243590604435166112c7565b341561055e57600080fd5b61021d61131d565b341561057157600080fd5b6101f9600160a060020a036004351660243561132d565b341561059357600080fd5b61029e611372565b34156105a657600080fd5b61021d600160a060020a0360043516611381565b61021d6004356024356113ad565b34156105d357600080fd5b61021d60043560243561152a565b34156105ec57600080fd5b61021d600460248135818101908301358060208181020160405190810160405280939291908181526020018383602002808284375094965050509235600160a060020a031692506116e9915050565b341561064657600080fd5b6101f96004351515600160a060020a036024351661181e565b341561066a57600080fd5b61021d60043561186b565b341561068057600080fd5b61021d6118ae565b341561069357600080fd5b61021d600160a060020a0360043516611975565b34156106b257600080fd5b610277600160a060020a03600435166119bd565b34156106d157600080fd5b61029e6119db565b6106e16119db565b600160a060020a031663c81e7908838360405160e060020a63ffffffff8516028152600160a060020a0390921660048301526024820152604401600060405180830381600087803b151561073457600080fd5b5af1151561074157600080fd5b5050505050565b60008054819033600160a060020a03908116911614156108c8578261076c30611a1f565b10156107845761077d611774611a8e565b91506108c8565b60045461271001836127100281151561079957fe5b6002549190049150600160a060020a031663a9059cbb858360405160e060020a63ffffffff8516028152600160a060020a0390921660048301526024820152604401602060405180830381600087803b15156107f457600080fd5b5af1151561080157600080fd5b50505060405180519050151561081c5761077d611777611a8e565b60006004541180156108ae5750600254600354600160a060020a039182169163a9059cbb9116610852868563ffffffff611afa16565b60405160e060020a63ffffffff8516028152600160a060020a0390921660048301526024820152604401602060405180830381600087803b151561089557600080fd5b5af115156108a257600080fd5b50505060405180519050155b156108b857600080fd5b6108c3848233611b0c565b600191505b5092915050565b60008054819033600160a060020a03908116911614156108c8578230600160a060020a03163110156109065761077d611775611a8e565b60045461271001836127100281151561091b57fe5b049050600160a060020a03841681156108fc0282604051600060405180830381858888f1935050505015156109555761077d611777611a8e565b600060045411801561099d5750600354600160a060020a03166108fc610981858463ffffffff611afa16565b9081150290604051600060405180830381858888f19350505050155b156109a757600080fd5b6108c3848233611b88565b6000806109de7f50726963654d616e616765720000000000000000000000000000000000000000611bef565b905080600160a060020a031663e5a59e076109f76118ae565b60405160e060020a63ffffffff841602815260048101919091527f45544800000000000000000000000000000000000000000000000000000000006024820152604401602060405180830381600087803b1515610a5357600080fd5b5af11515610a6057600080fd5b505050604051805190501515610a7557600080fd5b80600160a060020a0316637d5ecbab610a8c6118ae565b60405160e060020a63ffffffff841602815260048101919091527f45544800000000000000000000000000000000000000000000000000000000006024820152604401602060405180830381600087803b1515610ae857600080fd5b5af11515610af557600080fd5b505050604051805192505060008211610b0d57600080fd5b5090565b60025474010000000000000000000000000000000000000000900460ff1681565b600254600160a060020a031681565b6000805433600160a060020a0390811691161415610b7d5750600160a060020a0381166000908152600560205260409020805460ff1916905560015b919050565b60008054819033600160a060020a0390811691161415610b0d57600030600160a060020a0316311115610bc157610bba611770611a8e565b9150610b0d565b600254600090600160a060020a03166370a082313060405160e060020a63ffffffff8416028152600160a060020a039091166004820152602401602060405180830381600087803b1515610c1457600080fd5b5af11515610c2157600080fd5b505050604051805190501115610c3c57610bba611770611a8e565b610c657f45786368616e67654d616e616765720000000000000000000000000000000000611bef565b905080600160a060020a0316634ea3b6426040518163ffffffff1660e060020a028152600401602060405180830381600087803b1515610ca457600080fd5b5af11515610cb157600080fd5b505050604051805192505060018214610ccd57610bba82611a8e565b610b0d611c67565b60015460009033600160a060020a03908116911614610cf657506000610d2a565b50600180546000805473ffffffffffffffffffffffffffffffffffffffff19908116600160a060020a038416179091551681555b90565b6000805433600160a060020a0390811691161415610ddc57600160a060020a0385161515610d5a57600080fd5b600160a060020a0384161515610d6f57600080fd5b600254600160a060020a031615610d8557600080fd5b60028054600160a060020a0380871673ffffffffffffffffffffffffffffffffffffffff19928316179092556009805492881692909116919091179055610dcc8383611c8a565b600114610dd857600080fd5b5060015b949350505050565b60065460009060ff161515610dfc5750600854610d2a565b612710610e19600854610e0d6109b2565b9063ffffffff611cf016565b811515610e2257fe5b049050610d2a565b82600160a060020a031633600160a060020a03167f666f2a1e08c169c211c892572663a806f972e3acff2cd9f77800dc571bbba75d848460405191825260208201526040908101905180910390a3505050565b80600160a060020a031633600160a060020a03167f1c12d27d8c2b86d2d32df8d11e84091f44753683ee299879c3247998e3519d96868686604051928352602083019190915215156040808301919091526060909101905180910390a350505050565b6000805433600160a060020a0390811691161415610b7d57600160a060020a0382161515610f1057506000610b7d565b5060018054600160a060020a03831673ffffffffffffffffffffffffffffffffffffffff19909116178155919050565b600154600160a060020a031681565b60045481565b80600160a060020a031633600160a060020a03167f8de091a31d887fca78e516d802e86c94de30b8e6ca4bf6473b2f09dc32dcaf168585604051600160a060020a03909216825260208201526040908101905180910390a3505050565b60005433600160a060020a0390811691161415610fce57600080fd5b565b60065460009060ff161515610fe85750600754610d2a565b612710610e19600754610e0d6109b2565b82600160a060020a031633600160a060020a03167f9396518c54820bdf393c15c6607d2e106a0c8a4a1bd7a3a3fd3ca3e5485a2005848460405191825260208201526040908101905180910390a3505050565b6000805433600160a060020a03908116911614806110825750600160a060020a03331660009081526005602052604090205460ff165b156110ed578284111561109457600080fd5b60075484146110a35760078490555b60085483146110b25760088390555b60065460ff161515821515146110d1576006805460ff19168315151790555b6007546008546006546110e992919060ff1633611d14565b5060015b9392505050565b6000805433600160a060020a0390811691161415610b7d5750600160a060020a03166000908152600560205260409020805460ff1916600190811790915590565b600354600160a060020a031681565b80600160a060020a031683600160a060020a031633600160a060020a03167f33a424bf05c7821d38f7d44e569ac0bc10a7275bec4c54c6fa1b97bf76064a788560405190815260200160405180910390a4505050565b6000805433600160a060020a0390811691161415610b7d57600160a060020a03821615156111ca57506000610b7d565b600154600160a060020a0316156111f9576001805473ffffffffffffffffffffffffffffffffffffffff191690555b5060008054600160a060020a03831673ffffffffffffffffffffffffffffffffffffffff199091161790556001919050565b6000805433600160a060020a0390811691161415610b7d576112558261125030611a1f565b610748565b92915050565b6000805433600160a060020a0390811691161415610b7d576002805474ff0000000000000000000000000000000000000000191674010000000000000000000000000000000000000000841515021790556112b68233611d97565b506001919050565b60065460ff1681565b80600160a060020a031683600160a060020a031633600160a060020a03167fe44fa178c47224ba610def9fa4b501e725e66cfe4cc46f29a1530aee872864138560405190815260200160405180910390a4505050565b600061132830611a1f565b905090565b8082600160a060020a031633600160a060020a03167f6442135644857b16c2b6a9be3374103b3f77dd4d82bb1ebc0f243748f54a565a60405160405180910390a45050565b600054600160a060020a031681565b6000805433600160a060020a0390811691161415610b7d576112558230600160a060020a0316316108cf565b600254600090819074010000000000000000000000000000000000000000900460ff1615156113e15761077d611771611a8e565b6113e9610de4565b83146113fa5761077d611772611a8e565b8361140430611a1f565b10156114155761077d611774611a8e565b600254600160a060020a031663313ce5676040518163ffffffff1660e060020a028152600401602060405180830381600087803b151561145457600080fd5b5af1151561146157600080fd5b5050506040518051905060ff16600a0a61148961147c610de4565b869063ffffffff611cf016565b81151561149257fe5b0490503481146114a75761077d611775611a8e565b600254600160a060020a031663a9059cbb338660405160e060020a63ffffffff8516028152600160a060020a0390921660048301526024820152604401602060405180830381600087803b15156114fd57600080fd5b5af1151561150a57600080fd5b50505060405180519050151561151f57600080fd5b6108c3338583611df3565b600254600090819074010000000000000000000000000000000000000000900460ff16151561155e5761077d611771611a8e565b611566610fd0565b83146115775761077d611772611a8e565b8361158133611a1f565b10156115925761077d611774611a8e565b600254600160a060020a031663313ce5676040518163ffffffff1660e060020a028152600401602060405180830381600087803b15156115d157600080fd5b5af115156115de57600080fd5b5050506040518051905060ff16600a0a6115f961147c610fd0565b81151561160257fe5b0490508030600160a060020a03163110156116225761077d611775611a8e565b600254600160a060020a03166323b872dd33308760405160e060020a63ffffffff8616028152600160a060020a0393841660048201529190921660248201526044810191909152606401602060405180830381600087803b151561168557600080fd5b5af1151561169257600080fd5b5050506040518051905015156116ad5761077d611776611a8e565b600160a060020a03331681156108fc0282604051600060405180830381858888f1935050505015156116de57600080fd5b6108c3338583611e57565b6000805481908190819033600160a060020a039081169116141561181557600092505b85518310156118105785838151811061172157fe5b90602001906020020151915081600160a060020a03166370a082313060405160e060020a63ffffffff8416028152600160a060020a039091166004820152602401602060405180830381600087803b151561177b57600080fd5b5af1151561178857600080fd5b505050604051805191505080156118055781600160a060020a031663a9059cbb868360405160e060020a63ffffffff8516028152600160a060020a0390921660048301526024820152604401602060405180830381600087803b15156117ed57600080fd5b5af115156117fa57600080fd5b505050604051805150505b60019092019161170c565b600193505b50505092915050565b80600160a060020a031633600160a060020a03167ff7477d3997f5237a55f24f86e82fcb23c791c7a2424b7175f15e91214281b08784604051901515815260200160405180910390a35050565b600033600160a060020a03167f9cf38cf2dbf9139f5c32639950507b10775fbbe0421f3e168bc2d1bb1ae3208c8360405190815260200160405180910390a25090565b6000806118da7f45524332304d616e616765720000000000000000000000000000000000000000611bef565b600254600160a060020a0391821691637abccac9911660405160e060020a63ffffffff8416028152600160a060020a03909116600482015260240160e060405180830381600087803b151561192e57600080fd5b5af1151561193b57600080fd5b5050506040518051906020018051906020018051906020018051906020018051906020018051906020018051509398975050505050505050565b6000805433600160a060020a0390811691161415610b7d576119968261122b565b9050600181146119a557610b7d565b6119ae82611381565b9050600181146112b657610b7d565b600160a060020a031660009081526005602052604090205460ff1690565b600954600090600160a060020a031615156119f65730611328565b6113287f4d756c74694576656e7473486973746f72790000000000000000000000000000611bef565b600254600090600160a060020a03166370a082318360405160e060020a63ffffffff8416028152600160a060020a039091166004820152602401602060405180830381600087803b1515611a7257600080fd5b5af11515611a7f57600080fd5b50505060405180519392505050565b6000611a986119db565b600160a060020a031663df26ca088360405160e060020a63ffffffff84160281526004810191909152602401602060405180830381600087803b1515611add57600080fd5b5af11515611aea57600080fd5b5050506040518051509192915050565b600082821115611b0657fe5b50900390565b611b146119db565b600160a060020a031663a64abab984848460405160e060020a63ffffffff8616028152600160a060020a03938416600482015260248101929092529091166044820152606401600060405180830381600087803b1515611b7357600080fd5b5af11515611b8057600080fd5b505050505050565b611b906119db565b600160a060020a031663c1538d4584848460405160e060020a63ffffffff8616028152600160a060020a03938416600482015260248101929092529091166044820152606401600060405180830381600087803b1515611b7357600080fd5b600954600090600160a060020a031663bc6579278360405160e060020a63ffffffff84160281526004810191909152602401602060405180830381600087803b1515611c3a57600080fd5b5af11515611c4757600080fd5b5050506040518051915050600160a060020a0381161515610b7d57600080fd5b60005433600160a060020a0390811691161415610fce5733600160a060020a0316ff5b6000600160a060020a0383161515611ca157600080fd5b6127108210611caf57600080fd5b6003805473ffffffffffffffffffffffffffffffffffffffff1916600160a060020a0385161790556004829055611ce7838333611ebb565b50600192915050565b6000828202831580611d0c5750828482811515611d0957fe5b04145b15156110ed57fe5b611d1c6119db565b600160a060020a0316634f701e548585858560405160e060020a63ffffffff87160281526004810194909452602484019290925215156044830152600160a060020a03166064820152608401600060405180830381600087803b1515611d8157600080fd5b5af11515611d8e57600080fd5b50505050505050565b611d9f6119db565b600160a060020a031663db3dccc0838360405160e060020a63ffffffff85160281529115156004830152600160a060020a03166024820152604401600060405180830381600087803b151561073457600080fd5b611dfb6119db565b600160a060020a0316634e3f0a0184848460405160e060020a63ffffffff8616028152600160a060020a03909316600484015260248301919091526044820152606401600060405180830381600087803b1515611b7357600080fd5b611e5f6119db565b600160a060020a03166388ae3c6b84848460405160e060020a63ffffffff8616028152600160a060020a03909316600484015260248301919091526044820152606401600060405180830381600087803b1515611b7357600080fd5b611ec36119db565b600160a060020a031663808700f584848460405160e060020a63ffffffff8616028152600160a060020a03938416600482015260248101929092529091166044820152606401600060405180830381600087803b1515611b7357600080fd00a165627a7a72305820babb971caeff80c4090ea901b6b8827f3bf3e03f984daef0ce72cb36348f5be60029a165627a7a723058206f5c5cdca7b8ce8c3ec079178ac3ef423eddccb7cdea779d3f6da0213b4c1b830029",
  "source": "pragma solidity ^0.4.15;\n\nimport \"./Exchange.sol\";\n\n/// @title Exchange Factory contract\n///\n/// @notice Just util contract used for Exchange creation\ncontract ExchangeFactory {\n    /// @notice Creates Exchange contract and transfers ownership to sender\n    /// @return exchange's address\n    function createExchange() public returns (address) {\n        Exchange exchange = new Exchange();\n        if (!exchange.transferContractOwnership(msg.sender)) {\n            revert();\n        }\n\n        return exchange;\n    }\n}\n",
  "sourcePath": "/Users/alesanro/Documents/Projects/ChronoBank/SmartContracts/contracts/exchange/ExchangeFactory.sol",
  "compiler": {
    "name": "solc",
    "version": "0.4.21+commit.dfe3193c.Emscripten.clang"
  },
  "schemaVersion": "2.0.0",
  "updatedAt": "2018-04-06T09:20:58.660Z"
}