{
  "contractName": "Exchange",
  "abi": [
    {
      "constant": true,
      "inputs": [],
      "name": "isActive",
      "outputs": [
        {
          "name": "",
          "type": "bool"
        }
      ],
      "payable": false,
      "stateMutability": "view",
      "type": "function"
    },
    {
      "constant": true,
      "inputs": [],
      "name": "asset",
      "outputs": [
        {
          "name": "",
          "type": "address"
        }
      ],
      "payable": false,
      "stateMutability": "view",
      "type": "function"
    },
    {
      "constant": false,
      "inputs": [],
      "name": "claimContractOwnership",
      "outputs": [
        {
          "name": "",
          "type": "bool"
        }
      ],
      "payable": false,
      "stateMutability": "nonpayable",
      "type": "function"
    },
    {
      "constant": false,
      "inputs": [
        {
          "name": "_to",
          "type": "address"
        }
      ],
      "name": "changeContractOwnership",
      "outputs": [
        {
          "name": "",
          "type": "bool"
        }
      ],
      "payable": false,
      "stateMutability": "nonpayable",
      "type": "function"
    },
    {
      "constant": true,
      "inputs": [],
      "name": "pendingContractOwner",
      "outputs": [
        {
          "name": "",
          "type": "address"
        }
      ],
      "payable": false,
      "stateMutability": "view",
      "type": "function"
    },
    {
      "constant": true,
      "inputs": [],
      "name": "feePercent",
      "outputs": [
        {
          "name": "",
          "type": "uint256"
        }
      ],
      "payable": false,
      "stateMutability": "view",
      "type": "function"
    },
    {
      "constant": true,
      "inputs": [],
      "name": "rewards",
      "outputs": [
        {
          "name": "",
          "type": "address"
        }
      ],
      "payable": false,
      "stateMutability": "view",
      "type": "function"
    },
    {
      "constant": false,
      "inputs": [
        {
          "name": "_to",
          "type": "address"
        }
      ],
      "name": "transferContractOwnership",
      "outputs": [
        {
          "name": "",
          "type": "bool"
        }
      ],
      "payable": false,
      "stateMutability": "nonpayable",
      "type": "function"
    },
    {
      "constant": true,
      "inputs": [],
      "name": "usePriceTicker",
      "outputs": [
        {
          "name": "",
          "type": "bool"
        }
      ],
      "payable": false,
      "stateMutability": "view",
      "type": "function"
    },
    {
      "constant": true,
      "inputs": [],
      "name": "contractOwner",
      "outputs": [
        {
          "name": "",
          "type": "address"
        }
      ],
      "payable": false,
      "stateMutability": "view",
      "type": "function"
    },
    {
      "constant": false,
      "inputs": [
        {
          "name": "tokens",
          "type": "address[]"
        },
        {
          "name": "_to",
          "type": "address"
        }
      ],
      "name": "withdrawnTokens",
      "outputs": [
        {
          "name": "",
          "type": "uint256"
        }
      ],
      "payable": false,
      "stateMutability": "nonpayable",
      "type": "function"
    },
    {
      "payable": true,
      "stateMutability": "payable",
      "type": "fallback"
    },
    {
      "anonymous": false,
      "inputs": [
        {
          "indexed": true,
          "name": "exchange",
          "type": "address"
        },
        {
          "indexed": true,
          "name": "who",
          "type": "address"
        },
        {
          "indexed": false,
          "name": "token",
          "type": "uint256"
        },
        {
          "indexed": false,
          "name": "eth",
          "type": "uint256"
        }
      ],
      "name": "ExchangeSell",
      "type": "event"
    },
    {
      "anonymous": false,
      "inputs": [
        {
          "indexed": true,
          "name": "exchange",
          "type": "address"
        },
        {
          "indexed": true,
          "name": "who",
          "type": "address"
        },
        {
          "indexed": false,
          "name": "token",
          "type": "uint256"
        },
        {
          "indexed": false,
          "name": "eth",
          "type": "uint256"
        }
      ],
      "name": "ExchangeBuy",
      "type": "event"
    },
    {
      "anonymous": false,
      "inputs": [
        {
          "indexed": true,
          "name": "exchange",
          "type": "address"
        },
        {
          "indexed": true,
          "name": "sender",
          "type": "address"
        },
        {
          "indexed": true,
          "name": "amount",
          "type": "uint256"
        }
      ],
      "name": "ExchangeReceivedEther",
      "type": "event"
    },
    {
      "anonymous": false,
      "inputs": [
        {
          "indexed": true,
          "name": "exchange",
          "type": "address"
        },
        {
          "indexed": true,
          "name": "recipient",
          "type": "address"
        },
        {
          "indexed": false,
          "name": "amount",
          "type": "uint256"
        },
        {
          "indexed": true,
          "name": "by",
          "type": "address"
        }
      ],
      "name": "ExchangeWithdrawTokens",
      "type": "event"
    },
    {
      "anonymous": false,
      "inputs": [
        {
          "indexed": true,
          "name": "exchange",
          "type": "address"
        },
        {
          "indexed": true,
          "name": "recipient",
          "type": "address"
        },
        {
          "indexed": false,
          "name": "amount",
          "type": "uint256"
        },
        {
          "indexed": true,
          "name": "by",
          "type": "address"
        }
      ],
      "name": "ExchangeWithdrawEther",
      "type": "event"
    },
    {
      "anonymous": false,
      "inputs": [
        {
          "indexed": true,
          "name": "exchange",
          "type": "address"
        },
        {
          "indexed": false,
          "name": "rewards",
          "type": "address"
        },
        {
          "indexed": false,
          "name": "feeValue",
          "type": "uint256"
        },
        {
          "indexed": true,
          "name": "by",
          "type": "address"
        }
      ],
      "name": "ExchangeFeeUpdated",
      "type": "event"
    },
    {
      "anonymous": false,
      "inputs": [
        {
          "indexed": true,
          "name": "exchange",
          "type": "address"
        },
        {
          "indexed": false,
          "name": "buyPrice",
          "type": "uint256"
        },
        {
          "indexed": false,
          "name": "sellPrice",
          "type": "uint256"
        },
        {
          "indexed": false,
          "name": "usePriceTicker",
          "type": "bool"
        },
        {
          "indexed": true,
          "name": "by",
          "type": "address"
        }
      ],
      "name": "ExchangePricesUpdated",
      "type": "event"
    },
    {
      "anonymous": false,
      "inputs": [
        {
          "indexed": true,
          "name": "exchange",
          "type": "address"
        },
        {
          "indexed": false,
          "name": "isActive",
          "type": "bool"
        },
        {
          "indexed": true,
          "name": "by",
          "type": "address"
        }
      ],
      "name": "ExchangeActiveChanged",
      "type": "event"
    },
    {
      "anonymous": false,
      "inputs": [
        {
          "indexed": true,
          "name": "exchange",
          "type": "address"
        },
        {
          "indexed": false,
          "name": "errorCode",
          "type": "uint256"
        }
      ],
      "name": "Error",
      "type": "event"
    },
    {
      "constant": false,
      "inputs": [
        {
          "name": "_contractsManager",
          "type": "address"
        },
        {
          "name": "_asset",
          "type": "address"
        },
        {
          "name": "_rewards",
          "type": "address"
        },
        {
          "name": "_fee",
          "type": "uint256"
        }
      ],
      "name": "init",
      "outputs": [
        {
          "name": "errorCode",
          "type": "uint256"
        }
      ],
      "payable": false,
      "stateMutability": "nonpayable",
      "type": "function"
    },
    {
      "constant": false,
      "inputs": [
        {
          "name": "_authorized",
          "type": "address"
        }
      ],
      "name": "grantAuthorized",
      "outputs": [
        {
          "name": "",
          "type": "uint256"
        }
      ],
      "payable": false,
      "stateMutability": "nonpayable",
      "type": "function"
    },
    {
      "constant": false,
      "inputs": [
        {
          "name": "_authorized",
          "type": "address"
        }
      ],
      "name": "revokeAuthorized",
      "outputs": [
        {
          "name": "",
          "type": "uint256"
        }
      ],
      "payable": false,
      "stateMutability": "nonpayable",
      "type": "function"
    },
    {
      "constant": true,
      "inputs": [
        {
          "name": "_authorized",
          "type": "address"
        }
      ],
      "name": "isAuthorized",
      "outputs": [
        {
          "name": "",
          "type": "bool"
        }
      ],
      "payable": false,
      "stateMutability": "view",
      "type": "function"
    },
    {
      "constant": false,
      "inputs": [
        {
          "name": "_buyPrice",
          "type": "uint256"
        },
        {
          "name": "_sellPrice",
          "type": "uint256"
        },
        {
          "name": "_usePriceTicker",
          "type": "bool"
        }
      ],
      "name": "setPrices",
      "outputs": [
        {
          "name": "",
          "type": "uint256"
        }
      ],
      "payable": false,
      "stateMutability": "nonpayable",
      "type": "function"
    },
    {
      "constant": false,
      "inputs": [
        {
          "name": "_active",
          "type": "bool"
        }
      ],
      "name": "setActive",
      "outputs": [
        {
          "name": "",
          "type": "uint256"
        }
      ],
      "payable": false,
      "stateMutability": "nonpayable",
      "type": "function"
    },
    {
      "constant": true,
      "inputs": [],
      "name": "assetBalance",
      "outputs": [
        {
          "name": "",
          "type": "uint256"
        }
      ],
      "payable": false,
      "stateMutability": "view",
      "type": "function"
    },
    {
      "constant": true,
      "inputs": [],
      "name": "sellPrice",
      "outputs": [
        {
          "name": "",
          "type": "uint256"
        }
      ],
      "payable": false,
      "stateMutability": "view",
      "type": "function"
    },
    {
      "constant": true,
      "inputs": [],
      "name": "buyPrice",
      "outputs": [
        {
          "name": "",
          "type": "uint256"
        }
      ],
      "payable": false,
      "stateMutability": "view",
      "type": "function"
    },
    {
      "constant": true,
      "inputs": [],
      "name": "getPriceTickerPrice",
      "outputs": [
        {
          "name": "price",
          "type": "uint256"
        }
      ],
      "payable": false,
      "stateMutability": "view",
      "type": "function"
    },
    {
      "constant": true,
      "inputs": [],
      "name": "getTokenSymbol",
      "outputs": [
        {
          "name": "",
          "type": "bytes32"
        }
      ],
      "payable": false,
      "stateMutability": "view",
      "type": "function"
    },
    {
      "constant": false,
      "inputs": [
        {
          "name": "_amount",
          "type": "uint256"
        },
        {
          "name": "_price",
          "type": "uint256"
        }
      ],
      "name": "sell",
      "outputs": [
        {
          "name": "",
          "type": "uint256"
        }
      ],
      "payable": false,
      "stateMutability": "nonpayable",
      "type": "function"
    },
    {
      "constant": false,
      "inputs": [
        {
          "name": "_amount",
          "type": "uint256"
        },
        {
          "name": "_price",
          "type": "uint256"
        }
      ],
      "name": "buy",
      "outputs": [
        {
          "name": "",
          "type": "uint256"
        }
      ],
      "payable": true,
      "stateMutability": "payable",
      "type": "function"
    },
    {
      "constant": false,
      "inputs": [
        {
          "name": "_recipient",
          "type": "address"
        },
        {
          "name": "_amount",
          "type": "uint256"
        }
      ],
      "name": "withdrawTokens",
      "outputs": [
        {
          "name": "",
          "type": "uint256"
        }
      ],
      "payable": false,
      "stateMutability": "nonpayable",
      "type": "function"
    },
    {
      "constant": false,
      "inputs": [
        {
          "name": "_recipient",
          "type": "address"
        }
      ],
      "name": "withdrawAllTokens",
      "outputs": [
        {
          "name": "",
          "type": "uint256"
        }
      ],
      "payable": false,
      "stateMutability": "nonpayable",
      "type": "function"
    },
    {
      "constant": false,
      "inputs": [
        {
          "name": "_recipient",
          "type": "address"
        },
        {
          "name": "_amount",
          "type": "uint256"
        }
      ],
      "name": "withdrawEth",
      "outputs": [
        {
          "name": "",
          "type": "uint256"
        }
      ],
      "payable": false,
      "stateMutability": "nonpayable",
      "type": "function"
    },
    {
      "constant": false,
      "inputs": [
        {
          "name": "_recipient",
          "type": "address"
        }
      ],
      "name": "withdrawAllEth",
      "outputs": [
        {
          "name": "",
          "type": "uint256"
        }
      ],
      "payable": false,
      "stateMutability": "nonpayable",
      "type": "function"
    },
    {
      "constant": false,
      "inputs": [
        {
          "name": "_recipient",
          "type": "address"
        }
      ],
      "name": "withdrawAll",
      "outputs": [
        {
          "name": "result",
          "type": "uint256"
        }
      ],
      "payable": false,
      "stateMutability": "nonpayable",
      "type": "function"
    },
    {
      "constant": false,
      "inputs": [],
      "name": "destroy",
      "outputs": [],
      "payable": false,
      "stateMutability": "nonpayable",
      "type": "function"
    },
    {
      "constant": false,
      "inputs": [],
      "name": "kill",
      "outputs": [
        {
          "name": "errorCode",
          "type": "uint256"
        }
      ],
      "payable": false,
      "stateMutability": "nonpayable",
      "type": "function"
    },
    {
      "constant": true,
      "inputs": [],
      "name": "getEventsHistory",
      "outputs": [
        {
          "name": "",
          "type": "address"
        }
      ],
      "payable": false,
      "stateMutability": "view",
      "type": "function"
    },
    {
      "constant": false,
      "inputs": [
        {
          "name": "_errorCode",
          "type": "uint256"
        }
      ],
      "name": "emitError",
      "outputs": [
        {
          "name": "",
          "type": "uint256"
        }
      ],
      "payable": false,
      "stateMutability": "nonpayable",
      "type": "function"
    },
    {
      "constant": false,
      "inputs": [
        {
          "name": "_rewards",
          "type": "address"
        },
        {
          "name": "_feePercent",
          "type": "uint256"
        },
        {
          "name": "_by",
          "type": "address"
        }
      ],
      "name": "emitFeeUpdated",
      "outputs": [],
      "payable": false,
      "stateMutability": "nonpayable",
      "type": "function"
    },
    {
      "constant": false,
      "inputs": [
        {
          "name": "_buyPrice",
          "type": "uint256"
        },
        {
          "name": "_sellPrice",
          "type": "uint256"
        },
        {
          "name": "_usePriceTicker",
          "type": "bool"
        },
        {
          "name": "_by",
          "type": "address"
        }
      ],
      "name": "emitPricesUpdated",
      "outputs": [],
      "payable": false,
      "stateMutability": "nonpayable",
      "type": "function"
    },
    {
      "constant": false,
      "inputs": [
        {
          "name": "_isActive",
          "type": "bool"
        },
        {
          "name": "_by",
          "type": "address"
        }
      ],
      "name": "emitActiveChanged",
      "outputs": [],
      "payable": false,
      "stateMutability": "nonpayable",
      "type": "function"
    },
    {
      "constant": false,
      "inputs": [
        {
          "name": "_who",
          "type": "address"
        },
        {
          "name": "_token",
          "type": "uint256"
        },
        {
          "name": "_eth",
          "type": "uint256"
        }
      ],
      "name": "emitBuy",
      "outputs": [],
      "payable": false,
      "stateMutability": "nonpayable",
      "type": "function"
    },
    {
      "constant": false,
      "inputs": [
        {
          "name": "_who",
          "type": "address"
        },
        {
          "name": "_token",
          "type": "uint256"
        },
        {
          "name": "_eth",
          "type": "uint256"
        }
      ],
      "name": "emitSell",
      "outputs": [],
      "payable": false,
      "stateMutability": "nonpayable",
      "type": "function"
    },
    {
      "constant": false,
      "inputs": [
        {
          "name": "_recipient",
          "type": "address"
        },
        {
          "name": "_amount",
          "type": "uint256"
        },
        {
          "name": "_by",
          "type": "address"
        }
      ],
      "name": "emitWithdrawEther",
      "outputs": [],
      "payable": false,
      "stateMutability": "nonpayable",
      "type": "function"
    },
    {
      "constant": false,
      "inputs": [
        {
          "name": "_recipient",
          "type": "address"
        },
        {
          "name": "_amount",
          "type": "uint256"
        },
        {
          "name": "_by",
          "type": "address"
        }
      ],
      "name": "emitWithdrawTokens",
      "outputs": [],
      "payable": false,
      "stateMutability": "nonpayable",
      "type": "function"
    },
    {
      "constant": false,
      "inputs": [
        {
          "name": "_sender",
          "type": "address"
        },
        {
          "name": "_amount",
          "type": "uint256"
        }
      ],
      "name": "emitReceivedEther",
      "outputs": [],
      "payable": false,
      "stateMutability": "nonpayable",
      "type": "function"
    }
  ],
  "bytecode": "0x60606040526006805460ff1916905560008054600160a060020a033316600160a060020a0319909116179055611f4e8061003a6000396000f3006060604052600436106101df5763ffffffff60e060020a60003504166306b091f981146101fb5780631b9a91a41461022f57806320743e001461025157806322f3e2d41461026457806338d52e0f1461028b5780633f48be2d146102ba57806341c0e1b5146102d95780634592cd1d146102ec57806346639dba146102ff5780634b7503341461032d5780634e3f0a01146103405780634f701e5414610365578063557f4bc91461038f5780635aa77d3c146103ae5780637fd6f15c146103c1578063808700f5146103d457806383197ef0146103fd5780638620410b1461041057806388ae3c6b14610423578063935bb7671461044857806394f3ed31146104665780639ec5a89414610485578063a64abab914610498578063a843c51f146104c1578063a878aee6146104e0578063acec338a146104ff578063b0a3146514610517578063c1538d451461052a578063c66f245514610553578063c81e790814610566578063ce606ee014610588578063d46d79bb1461059b578063d6febde8146105ba578063d79875eb146105c8578063d8f9659b146105e1578063db3dccc01461063b578063df26ca081461065f578063f1850af814610675578063fa09e63014610688578063fe9fbb80146106a7578063fff10aba146106c6575b34156101f4576101ef33346106d9565b6101f9565b600080fd5b005b341561020657600080fd5b61021d600160a060020a0360043516602435610748565b60405190815260200160405180910390f35b341561023a57600080fd5b61021d600160a060020a03600435166024356108cf565b341561025c57600080fd5b61021d6109b2565b341561026f57600080fd5b610277610b11565b604051901515815260200160405180910390f35b341561029657600080fd5b61029e610b32565b604051600160a060020a03909116815260200160405180910390f35b34156102c557600080fd5b61021d600160a060020a0360043516610b41565b34156102e457600080fd5b61021d610b82565b34156102f757600080fd5b610277610cd5565b341561030a57600080fd5b61021d600160a060020a0360043581169060243581169060443516606435610d2d565b341561033857600080fd5b61021d610de4565b341561034b57600080fd5b6101f9600160a060020a0360043516602435604435610e2a565b341561037057600080fd5b6101f96004356024356044351515600160a060020a0360643516610e7d565b341561039a57600080fd5b610277600160a060020a0360043516610ee0565b34156103b957600080fd5b61029e610f40565b34156103cc57600080fd5b61021d610f4f565b34156103df57600080fd5b6101f9600160a060020a036004358116906024359060443516610f55565b341561040857600080fd5b6101f9610fb2565b341561041b57600080fd5b61021d610fd0565b341561042e57600080fd5b6101f9600160a060020a0360043516602435604435610ff9565b341561045357600080fd5b61021d600435602435604435151561104c565b341561047157600080fd5b61021d600160a060020a03600435166110f4565b341561049057600080fd5b61029e611135565b34156104a357600080fd5b6101f9600160a060020a036004358116906024359060443516611144565b34156104cc57600080fd5b610277600160a060020a036004351661119a565b34156104eb57600080fd5b61021d600160a060020a036004351661122b565b341561050a57600080fd5b61021d600435151561125b565b341561052257600080fd5b6102776112be565b341561053557600080fd5b6101f9600160a060020a0360043581169060243590604435166112c7565b341561055e57600080fd5b61021d61131d565b341561057157600080fd5b6101f9600160a060020a036004351660243561132d565b341561059357600080fd5b61029e611372565b34156105a657600080fd5b61021d600160a060020a0360043516611381565b61021d6004356024356113ad565b34156105d357600080fd5b61021d60043560243561152a565b34156105ec57600080fd5b61021d600460248135818101908301358060208181020160405190810160405280939291908181526020018383602002808284375094965050509235600160a060020a031692506116e9915050565b341561064657600080fd5b6101f96004351515600160a060020a036024351661181e565b341561066a57600080fd5b61021d60043561186b565b341561068057600080fd5b61021d6118ae565b341561069357600080fd5b61021d600160a060020a0360043516611975565b34156106b257600080fd5b610277600160a060020a03600435166119bd565b34156106d157600080fd5b61029e6119db565b6106e16119db565b600160a060020a031663c81e7908838360405160e060020a63ffffffff8516028152600160a060020a0390921660048301526024820152604401600060405180830381600087803b151561073457600080fd5b5af1151561074157600080fd5b5050505050565b60008054819033600160a060020a03908116911614156108c8578261076c30611a1f565b10156107845761077d611774611a8e565b91506108c8565b60045461271001836127100281151561079957fe5b6002549190049150600160a060020a031663a9059cbb858360405160e060020a63ffffffff8516028152600160a060020a0390921660048301526024820152604401602060405180830381600087803b15156107f457600080fd5b5af1151561080157600080fd5b50505060405180519050151561081c5761077d611777611a8e565b60006004541180156108ae5750600254600354600160a060020a039182169163a9059cbb9116610852868563ffffffff611afa16565b60405160e060020a63ffffffff8516028152600160a060020a0390921660048301526024820152604401602060405180830381600087803b151561089557600080fd5b5af115156108a257600080fd5b50505060405180519050155b156108b857600080fd5b6108c3848233611b0c565b600191505b5092915050565b60008054819033600160a060020a03908116911614156108c8578230600160a060020a03163110156109065761077d611775611a8e565b60045461271001836127100281151561091b57fe5b049050600160a060020a03841681156108fc0282604051600060405180830381858888f1935050505015156109555761077d611777611a8e565b600060045411801561099d5750600354600160a060020a03166108fc610981858463ffffffff611afa16565b9081150290604051600060405180830381858888f19350505050155b156109a757600080fd5b6108c3848233611b88565b6000806109de7f50726963654d616e616765720000000000000000000000000000000000000000611bef565b905080600160a060020a031663e5a59e076109f76118ae565b60405160e060020a63ffffffff841602815260048101919091527f45544800000000000000000000000000000000000000000000000000000000006024820152604401602060405180830381600087803b1515610a5357600080fd5b5af11515610a6057600080fd5b505050604051805190501515610a7557600080fd5b80600160a060020a0316637d5ecbab610a8c6118ae565b60405160e060020a63ffffffff841602815260048101919091527f45544800000000000000000000000000000000000000000000000000000000006024820152604401602060405180830381600087803b1515610ae857600080fd5b5af11515610af557600080fd5b505050604051805192505060008211610b0d57600080fd5b5090565b60025474010000000000000000000000000000000000000000900460ff1681565b600254600160a060020a031681565b6000805433600160a060020a0390811691161415610b7d5750600160a060020a0381166000908152600560205260409020805460ff1916905560015b919050565b60008054819033600160a060020a0390811691161415610b0d57600030600160a060020a0316311115610bc157610bba611770611a8e565b9150610b0d565b600254600090600160a060020a03166370a082313060405160e060020a63ffffffff8416028152600160a060020a039091166004820152602401602060405180830381600087803b1515610c1457600080fd5b5af11515610c2157600080fd5b505050604051805190501115610c3c57610bba611770611a8e565b610c657f45786368616e67654d616e616765720000000000000000000000000000000000611bef565b905080600160a060020a0316634ea3b6426040518163ffffffff1660e060020a028152600401602060405180830381600087803b1515610ca457600080fd5b5af11515610cb157600080fd5b505050604051805192505060018214610ccd57610bba82611a8e565b610b0d611c67565b60015460009033600160a060020a03908116911614610cf657506000610d2a565b50600180546000805473ffffffffffffffffffffffffffffffffffffffff19908116600160a060020a038416179091551681555b90565b6000805433600160a060020a0390811691161415610ddc57600160a060020a0385161515610d5a57600080fd5b600160a060020a0384161515610d6f57600080fd5b600254600160a060020a031615610d8557600080fd5b60028054600160a060020a0380871673ffffffffffffffffffffffffffffffffffffffff19928316179092556009805492881692909116919091179055610dcc8383611c8a565b600114610dd857600080fd5b5060015b949350505050565b60065460009060ff161515610dfc5750600854610d2a565b612710610e19600854610e0d6109b2565b9063ffffffff611cf016565b811515610e2257fe5b049050610d2a565b82600160a060020a031633600160a060020a03167f666f2a1e08c169c211c892572663a806f972e3acff2cd9f77800dc571bbba75d848460405191825260208201526040908101905180910390a3505050565b80600160a060020a031633600160a060020a03167f1c12d27d8c2b86d2d32df8d11e84091f44753683ee299879c3247998e3519d96868686604051928352602083019190915215156040808301919091526060909101905180910390a350505050565b6000805433600160a060020a0390811691161415610b7d57600160a060020a0382161515610f1057506000610b7d565b5060018054600160a060020a03831673ffffffffffffffffffffffffffffffffffffffff19909116178155919050565b600154600160a060020a031681565b60045481565b80600160a060020a031633600160a060020a03167f8de091a31d887fca78e516d802e86c94de30b8e6ca4bf6473b2f09dc32dcaf168585604051600160a060020a03909216825260208201526040908101905180910390a3505050565b60005433600160a060020a0390811691161415610fce57600080fd5b565b60065460009060ff161515610fe85750600754610d2a565b612710610e19600754610e0d6109b2565b82600160a060020a031633600160a060020a03167f9396518c54820bdf393c15c6607d2e106a0c8a4a1bd7a3a3fd3ca3e5485a2005848460405191825260208201526040908101905180910390a3505050565b6000805433600160a060020a03908116911614806110825750600160a060020a03331660009081526005602052604090205460ff165b156110ed578284111561109457600080fd5b60075484146110a35760078490555b60085483146110b25760088390555b60065460ff161515821515146110d1576006805460ff19168315151790555b6007546008546006546110e992919060ff1633611d14565b5060015b9392505050565b6000805433600160a060020a0390811691161415610b7d5750600160a060020a03166000908152600560205260409020805460ff1916600190811790915590565b600354600160a060020a031681565b80600160a060020a031683600160a060020a031633600160a060020a03167f33a424bf05c7821d38f7d44e569ac0bc10a7275bec4c54c6fa1b97bf76064a788560405190815260200160405180910390a4505050565b6000805433600160a060020a0390811691161415610b7d57600160a060020a03821615156111ca57506000610b7d565b600154600160a060020a0316156111f9576001805473ffffffffffffffffffffffffffffffffffffffff191690555b5060008054600160a060020a03831673ffffffffffffffffffffffffffffffffffffffff199091161790556001919050565b6000805433600160a060020a0390811691161415610b7d576112558261125030611a1f565b610748565b92915050565b6000805433600160a060020a0390811691161415610b7d576002805474ff0000000000000000000000000000000000000000191674010000000000000000000000000000000000000000841515021790556112b68233611d97565b506001919050565b60065460ff1681565b80600160a060020a031683600160a060020a031633600160a060020a03167fe44fa178c47224ba610def9fa4b501e725e66cfe4cc46f29a1530aee872864138560405190815260200160405180910390a4505050565b600061132830611a1f565b905090565b8082600160a060020a031633600160a060020a03167f6442135644857b16c2b6a9be3374103b3f77dd4d82bb1ebc0f243748f54a565a60405160405180910390a45050565b600054600160a060020a031681565b6000805433600160a060020a0390811691161415610b7d576112558230600160a060020a0316316108cf565b600254600090819074010000000000000000000000000000000000000000900460ff1615156113e15761077d611771611a8e565b6113e9610de4565b83146113fa5761077d611772611a8e565b8361140430611a1f565b10156114155761077d611774611a8e565b600254600160a060020a031663313ce5676040518163ffffffff1660e060020a028152600401602060405180830381600087803b151561145457600080fd5b5af1151561146157600080fd5b5050506040518051905060ff16600a0a61148961147c610de4565b869063ffffffff611cf016565b81151561149257fe5b0490503481146114a75761077d611775611a8e565b600254600160a060020a031663a9059cbb338660405160e060020a63ffffffff8516028152600160a060020a0390921660048301526024820152604401602060405180830381600087803b15156114fd57600080fd5b5af1151561150a57600080fd5b50505060405180519050151561151f57600080fd5b6108c3338583611df3565b600254600090819074010000000000000000000000000000000000000000900460ff16151561155e5761077d611771611a8e565b611566610fd0565b83146115775761077d611772611a8e565b8361158133611a1f565b10156115925761077d611774611a8e565b600254600160a060020a031663313ce5676040518163ffffffff1660e060020a028152600401602060405180830381600087803b15156115d157600080fd5b5af115156115de57600080fd5b5050506040518051905060ff16600a0a6115f961147c610fd0565b81151561160257fe5b0490508030600160a060020a03163110156116225761077d611775611a8e565b600254600160a060020a03166323b872dd33308760405160e060020a63ffffffff8616028152600160a060020a0393841660048201529190921660248201526044810191909152606401602060405180830381600087803b151561168557600080fd5b5af1151561169257600080fd5b5050506040518051905015156116ad5761077d611776611a8e565b600160a060020a03331681156108fc0282604051600060405180830381858888f1935050505015156116de57600080fd5b6108c3338583611e57565b6000805481908190819033600160a060020a039081169116141561181557600092505b85518310156118105785838151811061172157fe5b90602001906020020151915081600160a060020a03166370a082313060405160e060020a63ffffffff8416028152600160a060020a039091166004820152602401602060405180830381600087803b151561177b57600080fd5b5af1151561178857600080fd5b505050604051805191505080156118055781600160a060020a031663a9059cbb868360405160e060020a63ffffffff8516028152600160a060020a0390921660048301526024820152604401602060405180830381600087803b15156117ed57600080fd5b5af115156117fa57600080fd5b505050604051805150505b60019092019161170c565b600193505b50505092915050565b80600160a060020a031633600160a060020a03167ff7477d3997f5237a55f24f86e82fcb23c791c7a2424b7175f15e91214281b08784604051901515815260200160405180910390a35050565b600033600160a060020a03167f9cf38cf2dbf9139f5c32639950507b10775fbbe0421f3e168bc2d1bb1ae3208c8360405190815260200160405180910390a25090565b6000806118da7f45524332304d616e616765720000000000000000000000000000000000000000611bef565b600254600160a060020a0391821691637abccac9911660405160e060020a63ffffffff8416028152600160a060020a03909116600482015260240160e060405180830381600087803b151561192e57600080fd5b5af1151561193b57600080fd5b5050506040518051906020018051906020018051906020018051906020018051906020018051906020018051509398975050505050505050565b6000805433600160a060020a0390811691161415610b7d576119968261122b565b9050600181146119a557610b7d565b6119ae82611381565b9050600181146112b657610b7d565b600160a060020a031660009081526005602052604090205460ff1690565b600954600090600160a060020a031615156119f65730611328565b6113287f4d756c74694576656e7473486973746f72790000000000000000000000000000611bef565b600254600090600160a060020a03166370a082318360405160e060020a63ffffffff8416028152600160a060020a039091166004820152602401602060405180830381600087803b1515611a7257600080fd5b5af11515611a7f57600080fd5b50505060405180519392505050565b6000611a986119db565b600160a060020a031663df26ca088360405160e060020a63ffffffff84160281526004810191909152602401602060405180830381600087803b1515611add57600080fd5b5af11515611aea57600080fd5b5050506040518051509192915050565b600082821115611b0657fe5b50900390565b611b146119db565b600160a060020a031663a64abab984848460405160e060020a63ffffffff8616028152600160a060020a03938416600482015260248101929092529091166044820152606401600060405180830381600087803b1515611b7357600080fd5b5af11515611b8057600080fd5b505050505050565b611b906119db565b600160a060020a031663c1538d4584848460405160e060020a63ffffffff8616028152600160a060020a03938416600482015260248101929092529091166044820152606401600060405180830381600087803b1515611b7357600080fd5b600954600090600160a060020a031663bc6579278360405160e060020a63ffffffff84160281526004810191909152602401602060405180830381600087803b1515611c3a57600080fd5b5af11515611c4757600080fd5b5050506040518051915050600160a060020a0381161515610b7d57600080fd5b60005433600160a060020a0390811691161415610fce5733600160a060020a0316ff5b6000600160a060020a0383161515611ca157600080fd5b6127108210611caf57600080fd5b6003805473ffffffffffffffffffffffffffffffffffffffff1916600160a060020a0385161790556004829055611ce7838333611ebb565b50600192915050565b6000828202831580611d0c5750828482811515611d0957fe5b04145b15156110ed57fe5b611d1c6119db565b600160a060020a0316634f701e548585858560405160e060020a63ffffffff87160281526004810194909452602484019290925215156044830152600160a060020a03166064820152608401600060405180830381600087803b1515611d8157600080fd5b5af11515611d8e57600080fd5b50505050505050565b611d9f6119db565b600160a060020a031663db3dccc0838360405160e060020a63ffffffff85160281529115156004830152600160a060020a03166024820152604401600060405180830381600087803b151561073457600080fd5b611dfb6119db565b600160a060020a0316634e3f0a0184848460405160e060020a63ffffffff8616028152600160a060020a03909316600484015260248301919091526044820152606401600060405180830381600087803b1515611b7357600080fd5b611e5f6119db565b600160a060020a03166388ae3c6b84848460405160e060020a63ffffffff8616028152600160a060020a03909316600484015260248301919091526044820152606401600060405180830381600087803b1515611b7357600080fd5b611ec36119db565b600160a060020a031663808700f584848460405160e060020a63ffffffff8616028152600160a060020a03938416600482015260248101929092529091166044820152606401600060405180830381600087803b1515611b7357600080fd00a165627a7a72305820e8e328a294bbe858ba663ba8c0c238bc8a085b01954df314e9d99acceb42a6e80029",
  "source": "pragma solidity ^0.4.11;\n\nimport \"../core/common/Object.sol\";\nimport \"../core/lib/SafeMath.sol\";\nimport {ERC20Interface as Asset} from \"../core/erc20/ERC20Interface.sol\";\nimport \"../core/contracts/ContractsManager.sol\";\nimport \"../core/erc20/ERC20Manager.sol\";\nimport \"../priceticker/PriceTicker.sol\";\n\ncontract ExchangeEmitter {\n    function emitError(uint errorCode) public returns (uint);\n    function emitFeeUpdated(address rewards, uint feePercent, address by) public;\n    function emitPricesUpdated(uint buyPrice, uint sellPrice, bool usePriceTicker, address by) public;\n    function emitActiveChanged(bool isActive, address by) public;\n    function emitBuy(address who, uint token, uint eth) public;\n    function emitSell(address who, uint token, uint eth) public;\n    function emitWithdrawEther(address recipient, uint amount, address by) public;\n    function emitWithdrawTokens(address recipient, uint amount, address by) public;\n    function emitReceivedEther(address sender, uint amount) public;\n}\n\ncontract IExchangeManager {\n    function removeExchange() public returns (uint errorCode);\n}\n\n/// @title ERC20-Ether exchange contract.\n///\n/// @notice Users are able to buy/sell assigned ERC20 token for ether,\n/// as long as there is available supply. Contract owner maintains\n/// sufficient token and ether supply, and sets buy/sell prices.\n///\n/// In order to be able to sell tokens, user needs to create allowance\n/// for this contract, using standard ERC20 approve() function,\n/// so that exchange can take tokens from the user, when user\n/// orders a sell.\n///\n/// Note: all the non constant functions return false instead of\n/// throwing in case if state change didn't happen yet.\ncontract Exchange is Object {\n    using SafeMath for uint;\n    uint constant ERROR_EXCHANGE_INVALID_INVOCATION = 6000;\n    uint constant ERROR_EXCHANGE_MAINTENANCE_MODE = 6001;\n    uint constant ERROR_EXCHANGE_INVALID_PRICE = 6002;\n    uint constant ERROR_EXCHANGE_INSUFFICIENT_BALANCE = 6004;\n    uint constant ERROR_EXCHANGE_INSUFFICIENT_ETHER_SUPPLY = 6005;\n    uint constant ERROR_EXCHANGE_PAYMENT_FAILED = 6006;\n    uint constant ERROR_EXCHANGE_TRANSFER_FAILED = 6007;\n\n    /// Assigned ERC20 token.\n    Asset public asset;\n    //Switch for turn on and off the exchange operations\n    bool public isActive;\n    /// Fee wallet\n    address public rewards;\n    /// Fee value for operations 10000 is 0.01.\n    uint public feePercent;\n    /// Authorized price managers\n    mapping (address => bool) authorized;\n    /// Use external (system provided) price ticker\n    bool public usePriceTicker = false;\n    /// Price in wei at which exchange buys tokens.\n    uint staticBuyPrice;\n    /// Price in wei at which exchange sells tokens.\n    uint staticSellPrice;\n\n    /// User sold tokens and received wei.\n    event ExchangeSell(address indexed exchange, address indexed who, uint token, uint eth);\n    /// User bought tokens and payed wei.\n    event ExchangeBuy(address indexed exchange, address indexed who, uint token, uint eth);\n    /// On received ethers\n    event ExchangeReceivedEther(address indexed exchange, address indexed sender, uint256 indexed amount);\n    /// On tokens withdraw\n    event ExchangeWithdrawTokens(address indexed exchange, address indexed recipient, uint amount, address indexed by);\n    /// On eth withdraw\n    event ExchangeWithdrawEther(address indexed exchange, address indexed recipient, uint amount, address indexed by);\n    /// On Fee updated\n    event ExchangeFeeUpdated(address indexed exchange, address rewards, uint feeValue, address indexed by);\n    /// On prices updated\n    event ExchangePricesUpdated(address indexed exchange, uint buyPrice, uint sellPrice, bool usePriceTicker, address indexed by);\n    /// On state changed\n    event ExchangeActiveChanged(address indexed exchange, bool isActive, address indexed by);\n    /// On error\n    event Error(address indexed exchange, uint errorCode);\n\n    /// service registry\n    address contractsManager;\n\n    /// @notice only authorized account are permitted to call\n    modifier onlyAuthorized() {\n        if (msg.sender == contractOwner || authorized[msg.sender]) {\n            _;\n        }\n    }\n\n    /// @notice Assigns ERC20 token for exchange.\n    ///\n    /// Can be set only once, and only by contract owner.\n    ///\n    /// @param _asset ERC20 token address.\n    ///\n    /// @return OK if success.\n    function init(\n        address _contractsManager,\n        address _asset,\n        address _rewards,\n        uint _fee)\n    public\n    onlyContractOwner\n    returns (uint errorCode)\n    {\n        require(_contractsManager != 0x0);\n        require(_asset != 0x0);\n        require(address(asset) == 0x0);\n\n        asset = Asset(_asset);\n        contractsManager = _contractsManager;\n\n        if (OK != setFee(_rewards, _fee)) {\n            revert();\n        }\n\n        return OK;\n    }\n\n    /// @notice Authorizes given address to execute restricted methods.\n    /// @dev Can be called only by contract owner.\n    ///\n    /// @return OK if success.\n    function grantAuthorized(address _authorized)\n    public\n    onlyContractOwner\n    returns (uint) {\n        authorized[_authorized] = true;\n        return OK;\n    }\n\n    /// @notice Revokes granted access rights.\n    /// @dev Can be called only by contract owner.\n    ///\n    /// @return OK if success.\n    function revokeAuthorized(address _authorized)\n    public\n    onlyContractOwner\n    returns (uint) {\n        delete authorized[_authorized];\n        return OK;\n    }\n\n    /// @notice Tells whether given address is authorized or not\n    ///\n    /// @return `true` if given address is authorized to make secured changes.\n    function isAuthorized(address _authorized) public view returns (bool) {\n        return authorized[_authorized];\n    }\n\n    /// @notice Set exchange operation prices.\n    /// Sell price cannot be less than buy price.\n    ///\n    /// Can be set only by contract owner.\n    ///\n    /// @param _buyPrice price in wei at which exchange buys tokens\n    ///                  or but price coeff if price ticker is enabled\n    /// @param _sellPrice price in wei at which exchange sells tokens.\n    ///                  or sell price coeff if price ticker is enabled\n    /// @param _usePriceTicker force use prices from external price ticker\n    ///\n    /// @return OK if success.\n    function setPrices(uint _buyPrice, uint _sellPrice, bool _usePriceTicker)\n    public\n    onlyAuthorized\n    returns (uint)\n    {\n        // buy price <= sell price\n        require(_buyPrice <= _sellPrice);\n\n        if (staticBuyPrice != _buyPrice ) {\n            staticBuyPrice = _buyPrice;\n        }\n\n        if (staticSellPrice != _sellPrice) {\n            staticSellPrice = _sellPrice;\n        }\n\n        if (_usePriceTicker != usePriceTicker) {\n            usePriceTicker = _usePriceTicker;\n        }\n\n        _emitPricesUpdated(staticBuyPrice, staticSellPrice, usePriceTicker, msg.sender);\n        return OK;\n    }\n\n    /// @notice Exchange must be activated before using.\n    ///\n    /// Note: An exchange is not activated `by default` after init().\n    /// Make sure that prices are valid before activation.\n    ///\n    /// @return OK if success.\n    function setActive(bool _active)\n    public\n    onlyContractOwner\n    returns (uint)\n    {\n        isActive = _active;\n\n        _emitActiveChanged(_active, msg.sender);\n        return OK;\n    }\n\n    /// @notice Returns ERC20 balance of an exchange\n    /// @return balance.\n    function assetBalance() public view returns (uint) {\n        return _balanceOf(this);\n    }\n\n    /// @notice Returns the sell price\n    /// @return sell price\n    function sellPrice() public view returns (uint) {\n        if (!usePriceTicker) {\n            return staticSellPrice;\n        } else {\n            return getPriceTickerPrice().mul(staticSellPrice) / 10000;\n        }\n    }\n\n    /// @notice Returns the buy price\n    /// @return buy price\n    function buyPrice() public view returns (uint) {\n        if (!usePriceTicker) {\n            return staticBuyPrice;\n        } else {\n            return getPriceTickerPrice().mul(staticBuyPrice) / 10000;\n        }\n    }\n\n    /// @notice Returns price fetched from external price ticker\n    function getPriceTickerPrice() public view returns (uint price) {\n        PriceProvider priceProvider = PriceProvider(lookupManager(\"PriceManager\"));\n        if (!priceProvider.isPriceAvailable(getTokenSymbol(), \"ETH\")) {\n            revert();\n        }\n        price = priceProvider.price(getTokenSymbol(), \"ETH\");\n        require(price > 0);\n    }\n\n    /// @notice Returns symbol of the asset\n    /// @return symbol\n    function getTokenSymbol() public view returns (bytes32) {\n        var (,,symbol,,,,) = ERC20Manager(lookupManager(\"ERC20Manager\"))\n                                        .getTokenMetaData(address(asset));\n        return symbol;\n    }\n\n    /// @notice Returns assigned token address balance.\n    ///\n    /// @param _address address to get balance.\n    ///\n    /// @return token balance.\n    function _balanceOf(address _address) internal view returns (uint) {\n        return asset.balanceOf(_address);\n    }\n\n    /// @notice Sell tokens for ether at specified price. Tokens are taken from caller\n    /// though an allowance logic.\n    /// Amount should be less than or equal to current allowance value.\n    /// Price should be less than or equal to current exchange buyPrice.\n    ///\n    /// @param _amount amount of tokens to sell.\n    /// @param _price price in wei at which sell will happen.\n    ///\n    /// @return OK if success.\n    function sell(uint _amount, uint _price) public returns (uint) {\n        if (!isActive) {\n            return _emitError(ERROR_EXCHANGE_MAINTENANCE_MODE);\n        }\n\n        if (_price != buyPrice()) {\n            return _emitError(ERROR_EXCHANGE_INVALID_PRICE);\n        }\n\n        if (_balanceOf(msg.sender) < _amount) {\n            return _emitError(ERROR_EXCHANGE_INSUFFICIENT_BALANCE);\n        }\n\n        uint total = _amount.mul(buyPrice()) / (10 ** uint(asset.decimals()));\n        if (this.balance < total) {\n            return _emitError(ERROR_EXCHANGE_INSUFFICIENT_ETHER_SUPPLY);\n        }\n\n        if (!asset.transferFrom(msg.sender, this, _amount)) {\n            return _emitError(ERROR_EXCHANGE_PAYMENT_FAILED);\n        }\n\n        if (!msg.sender.send(total)) {\n            revert();\n        }\n\n        _emitSell(msg.sender, _amount, total);\n        return OK;\n    }\n\n    /// @notice Buy tokens for ether at specified price. Payment needs to be sent along\n    /// with the call, and should equal amount * price.\n    /// Price should be greater than or equal to current exchange sellPrice.\n    ///\n    /// @param _amount amount of tokens to buy.\n    /// @param _price price in wei at which buy will happen.\n    ///\n    /// @return OK if success.\n    function buy(uint _amount, uint _price) payable public returns (uint) {\n        if (!isActive) {\n            return _emitError(ERROR_EXCHANGE_MAINTENANCE_MODE);\n        }\n\n        if (_price != sellPrice()) {\n            return _emitError(ERROR_EXCHANGE_INVALID_PRICE);\n        }\n\n        if (_balanceOf(this) < _amount) {\n            return _emitError(ERROR_EXCHANGE_INSUFFICIENT_BALANCE);\n        }\n\n        uint total = _amount.mul(sellPrice()) / (10 ** uint(asset.decimals()));\n        if (msg.value != total) {\n            return _emitError(ERROR_EXCHANGE_INSUFFICIENT_ETHER_SUPPLY);\n        }\n\n        if (!asset.transfer(msg.sender, _amount)) {\n            revert();\n        }\n\n        _emitBuy(msg.sender, _amount, total);\n        return OK;\n    }\n\n    /// @notice Transfer specified amount of tokens from exchange to specified address.\n    ///\n    /// Can be called only by contract owner.\n    ///\n    /// @param _recipient address to transfer tokens to.\n    /// @param _amount amount of tokens to transfer.\n    ///\n    /// @return OK if success.\n    function withdrawTokens(address _recipient, uint _amount) public onlyContractOwner returns (uint) {\n        if (_balanceOf(this) < _amount) {\n            return _emitError(ERROR_EXCHANGE_INSUFFICIENT_BALANCE);\n        }\n\n        uint amount = (_amount * 10000) / (10000 + feePercent);\n        if (!asset.transfer(_recipient, amount)) {\n            return _emitError(ERROR_EXCHANGE_TRANSFER_FAILED);\n        }\n\n        if (feePercent > 0 && !asset.transfer(rewards, _amount.sub(amount))) {\n            revert();\n        }\n\n        _emitWithdrawTokens(_recipient, amount, msg.sender);\n        return OK;\n    }\n\n    /// @notice Transfer all tokens from exchange to specified address.\n    ///\n    /// Can be called only by contract owner.\n    ///\n    /// @param _recipient address to transfer tokens to.\n    ///\n    /// @return OK if success.\n    function withdrawAllTokens(address _recipient) public onlyContractOwner returns (uint) {\n        return withdrawTokens(_recipient, _balanceOf(this));\n    }\n\n    /// @notice Transfer specified amount of wei from exchange to specified address.\n    ///\n    /// Can be called only by contract owner.\n    ///\n    /// @param _recipient address to transfer wei to.\n    /// @param _amount amount of wei to transfer.\n    ///\n    /// @return OK if success.\n    function withdrawEth(address _recipient, uint _amount) public onlyContractOwner returns (uint) {\n        if (this.balance < _amount) {\n            return _emitError(ERROR_EXCHANGE_INSUFFICIENT_ETHER_SUPPLY);\n        }\n\n        uint amount = (_amount * 10000) / (10000 + feePercent);\n\n        if (!_recipient.send(amount)) {\n            return _emitError(ERROR_EXCHANGE_TRANSFER_FAILED);\n        }\n\n        if (feePercent > 0 && !rewards.send(_amount.sub(amount))) {\n            revert();\n        }\n\n        _emitWithdrawEther(_recipient, amount, msg.sender);\n        return OK;\n    }\n\n    /// @notice Transfer all wei from exchange to specified address.\n    ///\n    /// Can be called only by contract owner.\n    ///\n    /// @param _recipient address to transfer wei to.\n    ///\n    /// @return OK if success.\n    function withdrawAllEth(address _recipient) public onlyContractOwner returns (uint) {\n        return withdrawEth(_recipient, this.balance);\n    }\n\n    /// @notice Transfer all tokens and wei from exchange to specified address.\n    ///\n    /// Can be called only by contract owner.\n    ///\n    /// @param _recipient address to transfer tokens and wei to.\n    ///\n    /// @return OK if success.\n    function withdrawAll(address _recipient) public onlyContractOwner returns (uint result) {\n        result = withdrawAllTokens(_recipient);\n        if (result != OK) {\n            return result;\n        }\n\n        result = withdrawAllEth(_recipient);\n        if (result != OK) {\n            return result;\n        }\n\n        return OK;\n    }\n\n    /// @notice Use kill() instead of destroy() to prevent accidental ether/ERC20 loosing\n    function destroy() public onlyContractOwner {\n        revert();\n    }\n\n    /// @notice Kills an exchnage contract.\n    ///\n    /// Checks balances of an exchange before destroying.\n    /// Destroys an exchange only if balances are empty.\n    ///\n    /// @return OK if success.\n    function kill() public onlyContractOwner returns (uint errorCode) {\n        if (this.balance > 0) {\n            return _emitError(ERROR_EXCHANGE_INVALID_INVOCATION);\n        }\n\n        if (asset.balanceOf(this) > 0) {\n            return _emitError(ERROR_EXCHANGE_INVALID_INVOCATION);\n        }\n\n        address exchangeManager = lookupManager(\"ExchangeManager\");\n        errorCode = IExchangeManager(exchangeManager).removeExchange();\n        if (errorCode != OK) {\n            return _emitError(errorCode);\n        }\n\n        Owned.destroy();\n    }\n\n    function setFee(address _rewards, uint _feePercent)\n    internal\n    returns (uint)\n    {\n        require(_rewards != 0x0);\n        require(/*_feePercent > 1 && */ _feePercent < 10000);\n\n        rewards = _rewards;\n        feePercent = _feePercent;\n\n        _emitFeeUpdated(_rewards, _feePercent, msg.sender);\n        return OK;\n    }\n\n    function getEventsHistory() public view returns (ExchangeEmitter) {\n        return contractsManager != 0x0 ? ExchangeEmitter(lookupManager(\"MultiEventsHistory\")) : ExchangeEmitter(this);\n    }\n\n    // Returns service by the given `type`\n    function lookupManager(bytes32 _identifier) internal view returns (address manager) {\n        manager = ContractsManager(contractsManager).getContractAddressByType(_identifier);\n        require(manager != 0x0);\n    }\n\n    /* Events helpers */\n\n    function _emitError(uint _errorCode) internal returns (uint) {\n        getEventsHistory().emitError(_errorCode);\n        return _errorCode;\n    }\n\n    function _emitFeeUpdated(address _rewards, uint _feePercent, address _by) internal {\n        getEventsHistory().emitFeeUpdated(_rewards, _feePercent, _by);\n    }\n\n    function _emitPricesUpdated(uint _buyPrice, uint _sellPrice, bool _usePriceTicker, address _by) internal {\n        getEventsHistory().emitPricesUpdated(_buyPrice, _sellPrice, _usePriceTicker, _by);\n    }\n\n    function _emitActiveChanged(bool _isActive, address _by) internal {\n        getEventsHistory().emitActiveChanged(_isActive, _by);\n    }\n\n    function _emitBuy(address _who, uint _token, uint _eth) internal {\n        getEventsHistory().emitBuy(_who, _token, _eth);\n    }\n\n    function _emitSell(address _who, uint _token, uint _eth) internal {\n        getEventsHistory().emitSell(_who, _token, _eth);\n    }\n\n    function _emitWithdrawEther(address _recipient, uint _amount, address _by) internal {\n        getEventsHistory().emitWithdrawEther(_recipient, _amount, _by);\n    }\n\n    function _emitWithdrawTokens(address _recipient, uint _amount, address _by) internal {\n        getEventsHistory().emitWithdrawTokens(_recipient, _amount, _by);\n    }\n\n    function _emitReceivedEther(address _sender, uint _amount) internal {\n        getEventsHistory().emitReceivedEther(_sender, _amount);\n    }\n\n    /* emit* methods are designed to be called only via EventsHistory */\n\n    function emitError(uint _errorCode) public returns (uint) {\n        Error(msg.sender, _errorCode);\n        return _errorCode;\n    }\n\n    function emitFeeUpdated(address _rewards, uint _feePercent, address _by) public {\n        ExchangeFeeUpdated(msg.sender, _rewards, _feePercent, _by);\n    }\n\n    function emitPricesUpdated(uint _buyPrice, uint _sellPrice, bool _usePriceTicker, address _by) public {\n        ExchangePricesUpdated(msg.sender, _buyPrice, _sellPrice, _usePriceTicker, _by);\n    }\n\n    function emitActiveChanged(bool _isActive, address _by) public {\n        ExchangeActiveChanged(msg.sender, _isActive, _by);\n    }\n\n    function emitBuy(address _who, uint _token, uint _eth) public {\n        ExchangeBuy(msg.sender, _who, _token, _eth);\n    }\n\n    function emitSell(address _who, uint _token, uint _eth) public {\n        ExchangeSell(msg.sender, _who, _token, _eth);\n    }\n\n    function emitWithdrawEther(address _recipient, uint _amount, address _by) public {\n        ExchangeWithdrawEther(msg.sender, _recipient, _amount, _by);\n    }\n\n    function emitWithdrawTokens(address _recipient, uint _amount, address _by) public {\n        ExchangeWithdrawTokens(msg.sender, _recipient, _amount, _by);\n    }\n\n    function emitReceivedEther(address _sender, uint _amount) public {\n        ExchangeReceivedEther(msg.sender, _sender, _amount);\n    }\n\n    /// @notice Accept all ether to maintain exchange supply.\n    function() payable public {\n        if (msg.value != 0) {\n            _emitReceivedEther(msg.sender, msg.value);\n        } else {\n            revert();\n        }\n    }\n}\n",
  "sourcePath": "/Users/ahiatsevich/Development/chronobank/SmartContracts/contracts/exchange/Exchange.sol",
  "compiler": {
    "name": "solc",
    "version": "0.4.21+commit.dfe3193c.Emscripten.clang"
  },
  "schemaVersion": "2.0.0",
  "updatedAt": "2018-04-05T14:52:03.826Z"
}