{
  "contractName": "ExchangeManagerEmitter",
  "abi": [
    {
      "anonymous": false,
      "inputs": [
        {
          "indexed": true,
          "name": "self",
          "type": "address"
        },
        {
          "indexed": true,
          "name": "user",
          "type": "address"
        },
        {
          "indexed": false,
          "name": "exchange",
          "type": "address"
        },
        {
          "indexed": false,
          "name": "symbol",
          "type": "bytes32"
        }
      ],
      "name": "ExchangeCreated",
      "type": "event"
    },
    {
      "anonymous": false,
      "inputs": [
        {
          "indexed": true,
          "name": "self",
          "type": "address"
        },
        {
          "indexed": true,
          "name": "user",
          "type": "address"
        },
        {
          "indexed": false,
          "name": "exchange",
          "type": "address"
        },
        {
          "indexed": false,
          "name": "symbol",
          "type": "bytes32"
        }
      ],
      "name": "ExchangeAdded",
      "type": "event"
    },
    {
      "anonymous": false,
      "inputs": [
        {
          "indexed": true,
          "name": "self",
          "type": "address"
        },
        {
          "indexed": false,
          "name": "exchange",
          "type": "address"
        },
        {
          "indexed": false,
          "name": "symbol",
          "type": "bytes32"
        }
      ],
      "name": "ExchangeRemoved",
      "type": "event"
    },
    {
      "anonymous": false,
      "inputs": [
        {
          "indexed": true,
          "name": "self",
          "type": "address"
        },
        {
          "indexed": false,
          "name": "errorCode",
          "type": "uint256"
        }
      ],
      "name": "Error",
      "type": "event"
    },
    {
      "constant": false,
      "inputs": [
        {
          "name": "user",
          "type": "address"
        },
        {
          "name": "exchange",
          "type": "address"
        },
        {
          "name": "symbol",
          "type": "bytes32"
        }
      ],
      "name": "emitExchangeCreated",
      "outputs": [],
      "payable": false,
      "stateMutability": "nonpayable",
      "type": "function"
    },
    {
      "constant": false,
      "inputs": [
        {
          "name": "exchange",
          "type": "address"
        },
        {
          "name": "symbol",
          "type": "bytes32"
        }
      ],
      "name": "emitExchangeRemoved",
      "outputs": [],
      "payable": false,
      "stateMutability": "nonpayable",
      "type": "function"
    },
    {
      "constant": false,
      "inputs": [
        {
          "name": "user",
          "type": "address"
        },
        {
          "name": "exchange",
          "type": "address"
        },
        {
          "name": "symbol",
          "type": "bytes32"
        }
      ],
      "name": "emitExchangeAdded",
      "outputs": [],
      "payable": false,
      "stateMutability": "nonpayable",
      "type": "function"
    },
    {
      "constant": false,
      "inputs": [
        {
          "name": "errorCode",
          "type": "uint256"
        }
      ],
      "name": "emitError",
      "outputs": [],
      "payable": false,
      "stateMutability": "nonpayable",
      "type": "function"
    }
  ],
  "bytecode": "0x6060604052341561000f57600080fd5b6102888061001e6000396000f3006060604052600436106100615763ffffffff7c01000000000000000000000000000000000000000000000000000000006000350416630c629c27811461006657806338aef6ec1461008a578063a82ca7e6146100b2578063df26ca08146100da575b600080fd5b341561007157600080fd5b610088600160a060020a03600435166024356100f0565b005b341561009557600080fd5b610088600160a060020a0360043581169060243516604435610149565b34156100bd57600080fd5b610088600160a060020a03600435811690602435166044356101ad565b34156100e557600080fd5b610088600435610211565b6100f8610258565b600160a060020a03167fff447254e8eb62495d621adbd4899248f7483073cd7c918298b2b7afe6bdf6228383604051600160a060020a03909216825260208201526040908101905180910390a25050565b82600160a060020a031661015b610258565b600160a060020a03167f6a84675961d2628de8cb5e74e0aa70bec82c75c587b2eeb89377315ff8cab8cf8484604051600160a060020a03909216825260208201526040908101905180910390a3505050565b82600160a060020a03166101bf610258565b600160a060020a03167fb929f1a44cd381443aa85ced960a716b8d3325963a64da27f16621f61baa23f38484604051600160a060020a03909216825260208201526040908101905180910390a3505050565b610219610258565b600160a060020a03167f9cf38cf2dbf9139f5c32639950507b10775fbbe0421f3e168bc2d1bb1ae3208c8260405190815260200160405180910390a250565b33905600a165627a7a723058203826fc71ffea3fcbcfd18ff49b55ea1acc951cddca150d781098b0bf008284950029",
  "source": "/**\n * Copyright 2017–2018, LaborX PTY\n * Licensed under the AGPL Version 3 license.\n */\n\npragma solidity ^0.4.11;\n\nimport '../core/event/MultiEventsHistoryAdapter.sol';\n\ncontract ExchangeManagerEmitter is MultiEventsHistoryAdapter {\n    event ExchangeCreated(\n        address indexed self,\n        address indexed user,\n        address exchange,\n        bytes32 symbol);\n    event ExchangeAdded(address indexed self, address indexed user, address exchange, bytes32 symbol);\n    event ExchangeRemoved(address indexed self, address exchange, bytes32 symbol);\n    event Error(address indexed self, uint errorCode);\n\n    function emitExchangeCreated(\n        address user,\n        address exchange,\n        bytes32 symbol)\n    public\n    {\n        ExchangeCreated(_self(), user, exchange, symbol);\n    }\n\n    function emitExchangeRemoved(address exchange, bytes32 symbol) public {\n        ExchangeRemoved(_self(), exchange, symbol);\n    }\n\n    function emitExchangeAdded(address user, address exchange, bytes32 symbol) public {\n        ExchangeAdded(_self(), user, exchange, symbol);\n    }\n\n    function emitError(uint errorCode) public {\n        Error(_self(), errorCode);\n    }\n}\n",
  "sourcePath": "/Users/mikefluff/Documents/Programming/Chronobank/test/SmartContracts/contracts/exchange/ExchangeManagerEmitter.sol",
  "compiler": {
    "name": "solc",
    "version": "0.4.21+commit.dfe3193c.Emscripten.clang"
  },
  "schemaVersion": "2.0.0",
  "updatedAt": "2018-04-11T07:40:05.553Z"
}