{
  "contractName": "FakePriceTicker",
  "abi": [
    {
      "constant": false,
      "inputs": [
        {
          "name": "",
          "type": "bytes32"
        },
        {
          "name": "",
          "type": "bytes32"
        }
      ],
      "name": "requestPrice",
      "outputs": [
        {
          "name": "",
          "type": "bytes32"
        },
        {
          "name": "",
          "type": "uint256"
        }
      ],
      "payable": true,
      "stateMutability": "payable",
      "type": "function"
    },
    {
      "constant": true,
      "inputs": [
        {
          "name": "",
          "type": "bytes32"
        },
        {
          "name": "",
          "type": "bytes32"
        }
      ],
      "name": "price",
      "outputs": [
        {
          "name": "",
          "type": "uint256"
        }
      ],
      "payable": false,
      "stateMutability": "view",
      "type": "function"
    },
    {
      "constant": true,
      "inputs": [
        {
          "name": "",
          "type": "bytes32"
        },
        {
          "name": "",
          "type": "bytes32"
        }
      ],
      "name": "isPriceAvailable",
      "outputs": [
        {
          "name": "",
          "type": "bool"
        }
      ],
      "payable": false,
      "stateMutability": "view",
      "type": "function"
    },
    {
      "anonymous": false,
      "inputs": [
        {
          "indexed": false,
          "name": "initiator",
          "type": "address"
        },
        {
          "indexed": true,
          "name": "fsym",
          "type": "bytes32"
        },
        {
          "indexed": true,
          "name": "tsym",
          "type": "bytes32"
        },
        {
          "indexed": true,
          "name": "updateTime",
          "type": "uint256"
        },
        {
          "indexed": false,
          "name": "exchangePrice",
          "type": "uint256"
        },
        {
          "indexed": false,
          "name": "rateDecimals",
          "type": "uint256"
        }
      ],
      "name": "ExchangePriceUpdated",
      "type": "event"
    }
  ],
  "bytecode": "0x6060604052341561000f57600080fd5b6101198061001e6000396000f30060606040526004361060525763ffffffff7c010000000000000000000000000000000000000000000000000000000060003504166306915ba3811460575780637d5ecbab14607b578063e5a59e071460a3575b600080fd5b606360043560243560cd565b60405191825260208201526040908101905180910390f35b3415608557600080fd5b609160043560243560d6565b60405190815260200160405180910390f35b341560ad57600080fd5b60b960043560243560e5565b604051901515815260200160405180910390f35b50600091829150565b670de0b6b3a764000092915050565b6001929150505600a165627a7a7230582038e2a781d18185ed7b555f06c9b6790ff2d429b48dfe21a6c466180c222cff180029",
  "source": "pragma solidity ^0.4.11;\n\nimport \"../priceticker/PriceTicker.sol\";\n\ncontract FakePriceTicker is PriceTicker {\n\n    function isPriceAvailable(bytes32, bytes32) public view returns (bool) {\n        return true;\n    }\n\n    function price(bytes32, bytes32) public view returns (uint) {\n        return (10**18);\n    }\n\n    function requestPrice(bytes32, bytes32) public payable returns (bytes32, uint) {\n        //PriceTickerCallback(msg.sender).receivePrice(keccak256(block.number, now), 10, 1);\n    }\n}\n",
  "sourcePath": "/Users/ahiatsevich/Development/chronobank/SmartContracts/contracts/helpers/FakePriceTicker.sol",
  "compiler": {
    "name": "solc",
    "version": "0.4.18+commit.9cf6e910.Emscripten.clang"
  },
  "schemaVersion": "1.0.1",
  "updatedAt": "2018-01-26T09:34:40.373Z"
}