{
  "contractName": "FakePriceTickerManager",
  "abi": [
    {
      "constant": false,
      "inputs": [],
      "name": "claimContractOwnership",
      "outputs": [
        {
          "name": "",
          "type": "bool"
        }
      ],
      "payable": false,
      "stateMutability": "nonpayable",
      "type": "function"
    },
    {
      "constant": true,
      "inputs": [
        {
          "name": "_identifier",
          "type": "bytes32"
        }
      ],
      "name": "lookupManager",
      "outputs": [
        {
          "name": "manager",
          "type": "address"
        }
      ],
      "payable": false,
      "stateMutability": "view",
      "type": "function"
    },
    {
      "constant": true,
      "inputs": [],
      "name": "contractsManager",
      "outputs": [
        {
          "name": "",
          "type": "address"
        }
      ],
      "payable": false,
      "stateMutability": "view",
      "type": "function"
    },
    {
      "constant": false,
      "inputs": [
        {
          "name": "_to",
          "type": "address"
        }
      ],
      "name": "changeContractOwnership",
      "outputs": [
        {
          "name": "",
          "type": "bool"
        }
      ],
      "payable": false,
      "stateMutability": "nonpayable",
      "type": "function"
    },
    {
      "constant": true,
      "inputs": [],
      "name": "pendingContractOwner",
      "outputs": [
        {
          "name": "",
          "type": "address"
        }
      ],
      "payable": false,
      "stateMutability": "view",
      "type": "function"
    },
    {
      "constant": false,
      "inputs": [
        {
          "name": "_eventsHistory",
          "type": "address"
        }
      ],
      "name": "setEventsHistory",
      "outputs": [],
      "payable": false,
      "stateMutability": "nonpayable",
      "type": "function"
    },
    {
      "constant": false,
      "inputs": [
        {
          "name": "_contractsManager",
          "type": "address"
        }
      ],
      "name": "setContractsManager",
      "outputs": [],
      "payable": false,
      "stateMutability": "nonpayable",
      "type": "function"
    },
    {
      "constant": false,
      "inputs": [],
      "name": "destroy",
      "outputs": [],
      "payable": false,
      "stateMutability": "nonpayable",
      "type": "function"
    },
    {
      "constant": false,
      "inputs": [
        {
          "name": "_to",
          "type": "address"
        }
      ],
      "name": "transferContractOwnership",
      "outputs": [
        {
          "name": "",
          "type": "bool"
        }
      ],
      "payable": false,
      "stateMutability": "nonpayable",
      "type": "function"
    },
    {
      "constant": true,
      "inputs": [],
      "name": "contractOwner",
      "outputs": [
        {
          "name": "",
          "type": "address"
        }
      ],
      "payable": false,
      "stateMutability": "view",
      "type": "function"
    },
    {
      "constant": false,
      "inputs": [
        {
          "name": "tokens",
          "type": "address[]"
        },
        {
          "name": "_to",
          "type": "address"
        }
      ],
      "name": "withdrawnTokens",
      "outputs": [
        {
          "name": "",
          "type": "uint256"
        }
      ],
      "payable": false,
      "stateMutability": "nonpayable",
      "type": "function"
    },
    {
      "constant": true,
      "inputs": [
        {
          "name": "key",
          "type": "address"
        }
      ],
      "name": "isAuthorized",
      "outputs": [
        {
          "name": "",
          "type": "bool"
        }
      ],
      "payable": false,
      "stateMutability": "view",
      "type": "function"
    },
    {
      "constant": true,
      "inputs": [],
      "name": "getEventsHistory",
      "outputs": [
        {
          "name": "",
          "type": "address"
        }
      ],
      "payable": false,
      "stateMutability": "view",
      "type": "function"
    },
    {
      "inputs": [
        {
          "name": "_store",
          "type": "address"
        },
        {
          "name": "_crate",
          "type": "bytes32"
        }
      ],
      "payable": false,
      "stateMutability": "nonpayable",
      "type": "constructor"
    },
    {
      "anonymous": false,
      "inputs": [
        {
          "indexed": false,
          "name": "initiator",
          "type": "address"
        },
        {
          "indexed": true,
          "name": "fsym",
          "type": "bytes32"
        },
        {
          "indexed": true,
          "name": "tsym",
          "type": "bytes32"
        },
        {
          "indexed": true,
          "name": "updateTime",
          "type": "uint256"
        },
        {
          "indexed": false,
          "name": "exchangePrice",
          "type": "uint256"
        },
        {
          "indexed": false,
          "name": "rateDecimals",
          "type": "uint256"
        }
      ],
      "name": "ExchangePriceUpdated",
      "type": "event"
    },
    {
      "constant": false,
      "inputs": [
        {
          "name": "_contractsManager",
          "type": "address"
        }
      ],
      "name": "init",
      "outputs": [
        {
          "name": "",
          "type": "uint256"
        }
      ],
      "payable": false,
      "stateMutability": "nonpayable",
      "type": "function"
    },
    {
      "constant": true,
      "inputs": [
        {
          "name": "_from",
          "type": "bytes32"
        },
        {
          "name": "_to",
          "type": "bytes32"
        }
      ],
      "name": "isPriceAvailable",
      "outputs": [
        {
          "name": "",
          "type": "bool"
        }
      ],
      "payable": false,
      "stateMutability": "view",
      "type": "function"
    },
    {
      "constant": true,
      "inputs": [
        {
          "name": "_from",
          "type": "bytes32"
        },
        {
          "name": "_to",
          "type": "bytes32"
        }
      ],
      "name": "price",
      "outputs": [
        {
          "name": "",
          "type": "uint256"
        }
      ],
      "payable": false,
      "stateMutability": "view",
      "type": "function"
    },
    {
      "constant": false,
      "inputs": [
        {
          "name": "",
          "type": "bytes32"
        },
        {
          "name": "",
          "type": "bytes32"
        }
      ],
      "name": "requestPrice",
      "outputs": [
        {
          "name": "",
          "type": "bytes32"
        },
        {
          "name": "",
          "type": "uint256"
        }
      ],
      "payable": true,
      "stateMutability": "payable",
      "type": "function"
    }
  ],
  "bytecode": "0x6060604052341561000f57600080fd5b604051604080610bdd83398101604052808051919060200180519150829050818181818161004c60008383640100000000610acb61008b82021704565b505060028054600160a060020a03338116600160a060020a031992831617909255600580543090931692909116919091179055506100b1945050505050565b8254600160a060020a031916600160a060020a0392909216919091178255600190910155565b610b1d806100c06000396000f3006060604052600436106100d75763ffffffff60e060020a60003504166306915ba381146100dc57806319ab453c146101025780634592cd1d146101335780634fe590121461015a57806353253d311461018c578063557f4bc91461019f5780635aa77d3c146101be5780636521afd7146101d157806371d3b573146101f25780637d5ecbab1461021157806383197ef01461022a578063a843c51f1461023d578063ce606ee01461025c578063d8f9659b1461026f578063e5a59e07146102c9578063fe9fbb80146102e2578063fff10aba14610301575b600080fd5b6100ea600435602435610314565b60405191825260208201526040908101905180910390f35b341561010d57600080fd5b610121600160a060020a036004351661031d565b60405190815260200160405180910390f35b341561013e57600080fd5b61014661036c565b604051901515815260200160405180910390f35b341561016557600080fd5b6101706004356103b9565b604051600160a060020a03909116815260200160405180910390f35b341561019757600080fd5b610170610431565b34156101aa57600080fd5b610146600160a060020a0360043516610440565b34156101c957600080fd5b610170610497565b34156101dc57600080fd5b6101f0600160a060020a03600435166104a6565b005b34156101fd57600080fd5b6101f0600160a060020a03600435166104dc565b341561021c57600080fd5b610121600435602435610513565b341561023557600080fd5b6101f0610581565b341561024857600080fd5b610146600160a060020a036004351661060a565b341561026757600080fd5b610170610683565b341561027a57600080fd5b610121600460248135818101908301358060208181020160405190810160405280939291908181526020018383602002808284375094965050509235600160a060020a03169250610692915050565b34156102d457600080fd5b6101466004356024356107c9565b34156102ed57600080fd5b610146600160a060020a0360043516610829565b341561030c57600080fd5b6101706108c2565b50600091829150565b60025460009033600160a060020a039081169116141561036757610361827f50726963654d616e6167657200000000000000000000000000000000000000006108d1565b50600190505b919050565b60035460009033600160a060020a0390811691161461038d575060006103b6565b506003805460028054600160a060020a0319908116600160a060020a0384161790915516905560015b90565b600454600090600160a060020a031663bc6579278360405160e060020a63ffffffff84160281526004810191909152602401602060405180830381600087803b151561040457600080fd5b5af1151561041157600080fd5b5050506040518051915050600160a060020a038116151561036757600080fd5b600454600160a060020a031681565b60025460009033600160a060020a039081169116141561036757600160a060020a038216151561047257506000610367565b5060038054600160a060020a038316600160a060020a03199091161790556001919050565b600354600160a060020a031681565b60025433600160a060020a03908116911614156104d95760058054600160a060020a031916600160a060020a0383161790555b50565b60025433600160a060020a03908116911614156104d95760048054600160a060020a038316600160a060020a031990911617905550565b600060e060020a6346414b450283148015610536575060eb60020a6208aa890282145b1561054a5750670de0b6b3a764000061057b565b60eb60020a6208aa89028314801561056b575060e060020a6346414b450282145b156100d75750670de0b6b3a76400005b92915050565b60025433600160a060020a039081169116141561060857600454600160a060020a031663c375c2ef3060405160e060020a63ffffffff8416028152600160a060020a039091166004820152602401602060405180830381600087803b15156105e857600080fd5b5af115156105f557600080fd5b5050506040518051905050610608610aa8565b565b60025460009033600160a060020a039081169116141561036757600160a060020a038216151561063c57506000610367565b600354600160a060020a03161561065e5760038054600160a060020a03191690555b5060028054600160a060020a038316600160a060020a03199091161790556001919050565b600254600160a060020a031681565b60025460009081908190819033600160a060020a03908116911614156107c057600092505b85518310156107bb578583815181106106cc57fe5b90602001906020020151915081600160a060020a03166370a082313060405160e060020a63ffffffff8416028152600160a060020a039091166004820152602401602060405180830381600087803b151561072657600080fd5b5af1151561073357600080fd5b505050604051805191505080156107b05781600160a060020a031663a9059cbb868360405160e060020a63ffffffff8516028152600160a060020a0390921660048301526024820152604401602060405180830381600087803b151561079857600080fd5b5af115156107a557600080fd5b505050604051805150505b6001909201916106b7565b600193505b50505092915050565b600060e060020a6346414b4502831480156107ec575060eb60020a6208aa890282145b80610813575060eb60020a6208aa890283148015610813575060e060020a6346414b450282145b156108205750600161057b565b50600092915050565b6000806108557f557365724d616e616765720000000000000000000000000000000000000000006103b9565b905080600160a060020a0316632aa09e5a8460405160e060020a63ffffffff8416028152600160a060020a039091166004820152602401602060405180830381600087803b15156108a557600080fd5b5af115156108b257600080fd5b5050506040518051949350505050565b600554600160a060020a031690565b60025460009081908190819033600160a060020a039081169116146108f557600080fd5b600160a060020a038616151561090a57600080fd5b600454600160a060020a03161580159350806109345750600454600160a060020a03878116911614155b156109555760048054600160a060020a031916600160a060020a0388161790555b600454600160a060020a031691508163bc65792760405160e060020a63ffffffff83160281527f4d756c74694576656e7473486973746f727900000000000000000000000000006004820152602401602060405180830381600087803b15156109bd57600080fd5b5af115156109ca57600080fd5b5050506040518051915050600160a060020a038116158015906109fb5750600554600160a060020a03828116911614155b15610a1c5760058054600160a060020a031916600160a060020a0383161790555b8415610a965781600160a060020a031663b7c46cd5308760405160e060020a63ffffffff8516028152600160a060020a0390921660048301526024820152604401602060405180830381600087803b1515610a7657600080fd5b5af11515610a8357600080fd5b50505060405180516001149050610a9657fe5b82156107bb5760069695505050505050565b60025433600160a060020a03908116911614156106085733600160a060020a0316ff5b8254600160a060020a031916600160a060020a03929092169190911782556001909101555600a165627a7a72305820a8df40e9207e5a6077c71c3f93f539f437740e3bfffe6485cb39ab1c85e0c7610029",
  "source": "/**\n * Copyright 2017–2018, LaborX PTY\n * Licensed under the AGPL Version 3 license.\n */\n\npragma solidity ^0.4.11;\n\nimport \"../priceticker/PriceTicker.sol\";\nimport \"../core/common/BaseManager.sol\";\n\ncontract FakePriceTickerManager is BaseManager, PriceTicker {\n\n    function FakePriceTickerManager(Storage _store, bytes32 _crate) BaseManager(_store, _crate) {\n    }\n\n    function init(address _contractsManager) onlyContractOwner returns (uint) {\n        BaseManager.init(_contractsManager, \"PriceManager\");\n\n        return OK;\n    }\n\n    function isPriceAvailable(bytes32 _from, bytes32 _to) public view returns (bool) {\n        if ((_from == \"FAKE\" && _to == \"ETH\")\n            || (_from == \"ETH\" && _to == \"FAKE\")) {\n                return true;\n        }\n\n        return false;\n    }\n\n    function price(bytes32 _from, bytes32 _to) public view returns (uint) {\n        if (_from == \"FAKE\" && _to == \"ETH\") {\n            return (10**18);\n        }\n\n        if (_from == \"ETH\" && _to == \"FAKE\") {\n            return (10**18);\n        }\n\n        revert();\n    }\n\n    function requestPrice(bytes32, bytes32) public payable returns (bytes32, uint) {\n        //PriceTickerCallback(msg.sender).receivePrice(keccak256(block.number, now), 10, 1);\n    }\n}\n",
  "sourcePath": "/Users/mikefluff/Documents/Programming/Chronobank/test/SmartContracts/contracts/helpers/FakePriceTickerManager.sol",
  "compiler": {
    "name": "solc",
    "version": "0.4.21+commit.dfe3193c.Emscripten.clang"
  },
  "schemaVersion": "2.0.0",
  "updatedAt": "2018-04-11T07:40:05.585Z"
}