{
  "contractName": "KrakenPriceTicker",
  "abi": [
    {
      "constant": true,
      "inputs": [],
      "name": "rate",
      "outputs": [
        {
          "name": "",
          "type": "string"
        }
      ],
      "payable": false,
      "stateMutability": "view",
      "type": "function"
    },
    {
      "constant": false,
      "inputs": [],
      "name": "claimContractOwnership",
      "outputs": [
        {
          "name": "",
          "type": "bool"
        }
      ],
      "payable": false,
      "stateMutability": "nonpayable",
      "type": "function"
    },
    {
      "constant": false,
      "inputs": [
        {
          "name": "_to",
          "type": "address"
        }
      ],
      "name": "changeContractOwnership",
      "outputs": [
        {
          "name": "",
          "type": "bool"
        }
      ],
      "payable": false,
      "stateMutability": "nonpayable",
      "type": "function"
    },
    {
      "constant": true,
      "inputs": [],
      "name": "url",
      "outputs": [
        {
          "name": "",
          "type": "string"
        }
      ],
      "payable": false,
      "stateMutability": "view",
      "type": "function"
    },
    {
      "constant": true,
      "inputs": [],
      "name": "pendingContractOwner",
      "outputs": [
        {
          "name": "",
          "type": "address"
        }
      ],
      "payable": false,
      "stateMutability": "view",
      "type": "function"
    },
    {
      "constant": false,
      "inputs": [],
      "name": "destroy",
      "outputs": [],
      "payable": false,
      "stateMutability": "nonpayable",
      "type": "function"
    },
    {
      "constant": true,
      "inputs": [],
      "name": "interval",
      "outputs": [
        {
          "name": "",
          "type": "uint256"
        }
      ],
      "payable": false,
      "stateMutability": "view",
      "type": "function"
    },
    {
      "constant": false,
      "inputs": [
        {
          "name": "_to",
          "type": "address"
        }
      ],
      "name": "transferContractOwnership",
      "outputs": [
        {
          "name": "",
          "type": "bool"
        }
      ],
      "payable": false,
      "stateMutability": "nonpayable",
      "type": "function"
    },
    {
      "constant": true,
      "inputs": [],
      "name": "contractOwner",
      "outputs": [
        {
          "name": "",
          "type": "address"
        }
      ],
      "payable": false,
      "stateMutability": "view",
      "type": "function"
    },
    {
      "constant": true,
      "inputs": [],
      "name": "formater",
      "outputs": [
        {
          "name": "",
          "type": "string"
        }
      ],
      "payable": false,
      "stateMutability": "view",
      "type": "function"
    },
    {
      "anonymous": false,
      "inputs": [
        {
          "indexed": false,
          "name": "description",
          "type": "string"
        }
      ],
      "name": "newOraclizeQuery",
      "type": "event"
    },
    {
      "anonymous": false,
      "inputs": [
        {
          "indexed": false,
          "name": "price",
          "type": "string"
        }
      ],
      "name": "newKrakenPriceTicker",
      "type": "event"
    },
    {
      "constant": false,
      "inputs": [
        {
          "name": "_dev",
          "type": "bool"
        },
        {
          "name": "_url",
          "type": "string"
        },
        {
          "name": "_formater",
          "type": "string"
        }
      ],
      "name": "init",
      "outputs": [],
      "payable": false,
      "stateMutability": "nonpayable",
      "type": "function"
    },
    {
      "constant": false,
      "inputs": [
        {
          "name": "myid",
          "type": "bytes32"
        },
        {
          "name": "result",
          "type": "string"
        },
        {
          "name": "proof",
          "type": "bytes"
        }
      ],
      "name": "__callback",
      "outputs": [],
      "payable": false,
      "stateMutability": "nonpayable",
      "type": "function"
    },
    {
      "constant": false,
      "inputs": [
        {
          "name": "_url",
          "type": "string"
        }
      ],
      "name": "setURL",
      "outputs": [
        {
          "name": "",
          "type": "bool"
        }
      ],
      "payable": false,
      "stateMutability": "nonpayable",
      "type": "function"
    },
    {
      "constant": false,
      "inputs": [
        {
          "name": "_formater",
          "type": "string"
        }
      ],
      "name": "setFormater",
      "outputs": [
        {
          "name": "",
          "type": "bool"
        }
      ],
      "payable": false,
      "stateMutability": "nonpayable",
      "type": "function"
    },
    {
      "constant": false,
      "inputs": [
        {
          "name": "_interval",
          "type": "uint256"
        }
      ],
      "name": "setInterval",
      "outputs": [
        {
          "name": "",
          "type": "bool"
        }
      ],
      "payable": false,
      "stateMutability": "nonpayable",
      "type": "function"
    },
    {
      "constant": false,
      "inputs": [],
      "name": "update",
      "outputs": [],
      "payable": true,
      "stateMutability": "payable",
      "type": "function"
    }
  ],
  "bytecode": "0x6060604052600160065560008054600160a060020a033316600160a060020a0319909116179055610918806100356000396000f3006060604052600436106100e55763ffffffff7c010000000000000000000000000000000000000000000000000000000060003504166322a9008281146100ea5780632c4e722e1461011457806338bbfa501461019e5780634592cd1d14610238578063557f4bc91461024b5780635600f04f1461026a5780635aa77d3c1461027d57806377343408146102ac57806383197ef0146102fd57806385ae387d14610310578063947a36fb14610361578063a2e6204514610386578063a843c51f1461038e578063ce606ee0146103ad578063d3687996146103c0578063d8b18417146103d3575b600080fd5b34156100f557600080fd5b61010060043561046d565b604051901515815260200160405180910390f35b341561011f57600080fd5b610127610493565b60405160208082528190810183818151815260200191508051906020019080838360005b8381101561016357808201518382015260200161014b565b50505050905090810190601f1680156101905780820380516001836020036101000a031916815260200191505b509250505060405180910390f35b34156101a957600080fd5b610236600480359060446024803590810190830135806020601f8201819004810201604051908101604052818152929190602084018383808284378201915050505050509190803590602001908201803590602001908080601f0160208091040260200160405190810160405281815292919060208401838380828437509496506100e595505050505050565b005b341561024357600080fd5b610100610560565b341561025657600080fd5b610100600160a060020a03600435166105b8565b341561027557600080fd5b610127610618565b341561028857600080fd5b610290610683565b604051600160a060020a03909116815260200160405180910390f35b34156102b757600080fd5b61010060046024813581810190830135806020601f8201819004810201604051908101604052818152929190602084018383808284375094965061069295505050505050565b341561030857600080fd5b6102366106c6565b341561031b57600080fd5b61010060046024813581810190830135806020601f820181900481020160405190810160405281815292919060208401838380828437509496506106eb95505050505050565b341561036c57600080fd5b610374610716565b60405190815260200160405180910390f35b6102366100e5565b341561039957600080fd5b610100600160a060020a036004351661071c565b34156103b857600080fd5b6102906107ad565b34156103cb57600080fd5b6101276107bc565b34156103de57600080fd5b6102366004803515159060446024803590810190830135806020601f8201819004810201604051908101604052818152929190602084018383808284378201915050505050509190803590602001908201803590602001908080601f01602080910402602001604051908101604052818152929190602084018383808284375094965061082795505050505050565b6000805433600160a060020a039081169116141561048e5750600681905560015b919050565b60038054600181600116156101000203166002900480601f0160208091040260200160405190810160405280929190818152602001828054600181600116156101000203166002900480156105295780601f106104fe57610100808354040283529160200191610529565b820191906000526020600020905b81548152906001019060200180831161050c57829003601f168201915b505050505081565b81548152906001019060200180831161053157829003601f1682019150509250505060405180910390a1505050565b60015460009033600160a060020a03908116911614610581575060006105b5565b50600180546000805473ffffffffffffffffffffffffffffffffffffffff19908116600160a060020a038416179091551681555b90565b6000805433600160a060020a039081169116141561048e57600160a060020a03821615156105e85750600061048e565b5060018054600160a060020a03831673ffffffffffffffffffffffffffffffffffffffff19909116178155919050565b60048054600181600116156101000203166002900480601f0160208091040260200160405190810160405280929190818152602001828054600181600116156101000203166002900480156105295780601f106104fe57610100808354040283529160200191610529565b600154600160a060020a031681565b6000805433600160a060020a039081169116141561048e5760048280516106bd929160200190610854565b50600192915050565b60005433600160a060020a03908116911614156106e95733600160a060020a0316ff5b565b6000805433600160a060020a039081169116141561048e5760058280516106bd929160200190610854565b60065481565b6000805433600160a060020a039081169116141561048e57600160a060020a038216151561074c5750600061048e565b600154600160a060020a03161561077b576001805473ffffffffffffffffffffffffffffffffffffffff191690555b5060008054600160a060020a03831673ffffffffffffffffffffffffffffffffffffffff199091161790556001919050565b600054600160a060020a031681565b60058054600181600116156101000203166002900480601f0160208091040260200160405190810160405280929190818152602001828054600181600116156101000203166002900480156105295780601f106104fe57610100808354040283529160200191610529565b600482805161083a929160200190610854565b50600581805161084e929160200190610854565b50505050565b828054600181600116156101000203166002900490600052602060002090601f016020900481019282601f1061089557805160ff19168380011785556108c2565b828001600101855582156108c2579182015b828111156108c25782518255916020019190600101906108a7565b506108ce9291506108d2565b5090565b6105b591905b808211156108ce57600081556001016108d85600a165627a7a7230582077f683d7203cb9ca0b06506d5bd69432f3eac23520441c1150027c5ae6428e390029",
  "source": "/*\n   Universal price ticker\n\n   This contract keeps in storage an updated Token price,\n   which is updated every ~60 seconds.\n*/\n\npragma solidity ^0.4.11;\nimport \"../core/common/Managed.sol\";\nimport \"../core/common/Owned.sol\";\n\ncontract KrakenPriceTicker is Owned {\n\n    address delegate;\n\n    string public rate;\n    string public url;  // for example \"https://api.kraken.com/0/public/Ticker?pair=ETHXBT\";\n    string public formater; //for example \"result.XETHXXBT.c.0\";\n    uint public interval = 1;\n\n    event newOraclizeQuery(string description);\n    event newKrakenPriceTicker(string price);\n\n    function init(bool _dev, string _url, string _formater) {\n        url = _url;\n        formater = _formater;\n    }\n\n    function __callback(bytes32 myid, string result, bytes proof) {\n        revert();\n\n        rate = result;\n        newKrakenPriceTicker(rate);\n    }\n\n    function setURL(string _url) onlyContractOwner returns(bool) {\n        url = _url;\n        return true;\n    }\n\n    function setFormater(string _formater) onlyContractOwner returns(bool) {\n        formater = _formater;\n        return true;\n    }\n\n    function setInterval(uint _interval) onlyContractOwner  returns(bool) {\n        interval = _interval;\n        return true;\n    }\n\n    function update() payable {\n        revert();\n    }\n\n}\n",
  "sourcePath": "/Users/alesanro/Documents/Projects/ChronoBank/SmartContracts/contracts/assets/KrakenPriceTicker.sol",
  "compiler": {
    "name": "solc",
    "version": "0.4.19+commit.c4cbbb05.Emscripten.clang"
  },
  "schemaVersion": "2.0.0",
  "updatedAt": "2018-04-02T14:47:30.819Z"
}