{
  "contractName": "LOCManagerEmitter",
  "abi": [
    {
      "anonymous": false,
      "inputs": [
        {
          "indexed": true,
          "name": "self",
          "type": "address"
        },
        {
          "indexed": false,
          "name": "symbol",
          "type": "bytes32"
        },
        {
          "indexed": true,
          "name": "to",
          "type": "address"
        },
        {
          "indexed": false,
          "name": "value",
          "type": "uint256"
        }
      ],
      "name": "AssetSent",
      "type": "event"
    },
    {
      "anonymous": false,
      "inputs": [
        {
          "indexed": true,
          "name": "self",
          "type": "address"
        },
        {
          "indexed": false,
          "name": "locName",
          "type": "bytes32"
        },
        {
          "indexed": false,
          "name": "oldHash",
          "type": "bytes32"
        },
        {
          "indexed": false,
          "name": "newHash",
          "type": "bytes32"
        }
      ],
      "name": "HashUpdate",
      "type": "event"
    },
    {
      "anonymous": false,
      "inputs": [
        {
          "indexed": true,
          "name": "self",
          "type": "address"
        },
        {
          "indexed": false,
          "name": "locName",
          "type": "bytes32"
        },
        {
          "indexed": false,
          "name": "count",
          "type": "uint256"
        }
      ],
      "name": "NewLOC",
      "type": "event"
    },
    {
      "anonymous": false,
      "inputs": [
        {
          "indexed": true,
          "name": "self",
          "type": "address"
        },
        {
          "indexed": false,
          "name": "locName",
          "type": "bytes32"
        },
        {
          "indexed": false,
          "name": "newName",
          "type": "bytes32"
        }
      ],
      "name": "UpdateLOC",
      "type": "event"
    },
    {
      "anonymous": false,
      "inputs": [
        {
          "indexed": true,
          "name": "self",
          "type": "address"
        },
        {
          "indexed": true,
          "name": "locName",
          "type": "bytes32"
        }
      ],
      "name": "RemLOC",
      "type": "event"
    },
    {
      "anonymous": false,
      "inputs": [
        {
          "indexed": true,
          "name": "self",
          "type": "address"
        },
        {
          "indexed": false,
          "name": "locName",
          "type": "bytes32"
        },
        {
          "indexed": false,
          "name": "oldStatus",
          "type": "uint256"
        },
        {
          "indexed": false,
          "name": "newStatus",
          "type": "uint256"
        }
      ],
      "name": "UpdLOCStatus",
      "type": "event"
    },
    {
      "anonymous": false,
      "inputs": [
        {
          "indexed": true,
          "name": "self",
          "type": "address"
        },
        {
          "indexed": false,
          "name": "locName",
          "type": "bytes32"
        },
        {
          "indexed": false,
          "name": "value",
          "type": "uint256"
        }
      ],
      "name": "Reissue",
      "type": "event"
    },
    {
      "anonymous": false,
      "inputs": [
        {
          "indexed": true,
          "name": "self",
          "type": "address"
        },
        {
          "indexed": false,
          "name": "locName",
          "type": "bytes32"
        },
        {
          "indexed": false,
          "name": "value",
          "type": "uint256"
        }
      ],
      "name": "Revoke",
      "type": "event"
    },
    {
      "anonymous": false,
      "inputs": [
        {
          "indexed": true,
          "name": "self",
          "type": "address"
        },
        {
          "indexed": false,
          "name": "errorCode",
          "type": "uint256"
        }
      ],
      "name": "Error",
      "type": "event"
    },
    {
      "constant": false,
      "inputs": [
        {
          "name": "_symbol",
          "type": "bytes32"
        },
        {
          "name": "_to",
          "type": "address"
        },
        {
          "name": "_value",
          "type": "uint256"
        }
      ],
      "name": "emitAssetSent",
      "outputs": [],
      "payable": false,
      "stateMutability": "nonpayable",
      "type": "function"
    },
    {
      "constant": false,
      "inputs": [
        {
          "name": "_locName",
          "type": "bytes32"
        },
        {
          "name": "_count",
          "type": "uint256"
        }
      ],
      "name": "emitNewLOC",
      "outputs": [],
      "payable": false,
      "stateMutability": "nonpayable",
      "type": "function"
    },
    {
      "constant": false,
      "inputs": [
        {
          "name": "_locName",
          "type": "bytes32"
        }
      ],
      "name": "emitRemLOC",
      "outputs": [],
      "payable": false,
      "stateMutability": "nonpayable",
      "type": "function"
    },
    {
      "constant": false,
      "inputs": [
        {
          "name": "locName",
          "type": "bytes32"
        },
        {
          "name": "_oldStatus",
          "type": "uint256"
        },
        {
          "name": "_newStatus",
          "type": "uint256"
        }
      ],
      "name": "emitUpdLOCStatus",
      "outputs": [],
      "payable": false,
      "stateMutability": "nonpayable",
      "type": "function"
    },
    {
      "constant": false,
      "inputs": [
        {
          "name": "_locName",
          "type": "bytes32"
        },
        {
          "name": "_newName",
          "type": "bytes32"
        }
      ],
      "name": "emitUpdateLOC",
      "outputs": [],
      "payable": false,
      "stateMutability": "nonpayable",
      "type": "function"
    },
    {
      "constant": false,
      "inputs": [
        {
          "name": "_locName",
          "type": "bytes32"
        },
        {
          "name": "_value",
          "type": "uint256"
        }
      ],
      "name": "emitReissue",
      "outputs": [],
      "payable": false,
      "stateMutability": "nonpayable",
      "type": "function"
    },
    {
      "constant": false,
      "inputs": [
        {
          "name": "_locName",
          "type": "bytes32"
        },
        {
          "name": "_value",
          "type": "uint256"
        }
      ],
      "name": "emitRevoke",
      "outputs": [],
      "payable": false,
      "stateMutability": "nonpayable",
      "type": "function"
    },
    {
      "constant": false,
      "inputs": [
        {
          "name": "_locName",
          "type": "bytes32"
        },
        {
          "name": "_oldHash",
          "type": "bytes32"
        },
        {
          "name": "_newHash",
          "type": "bytes32"
        }
      ],
      "name": "emitHashUpdate",
      "outputs": [],
      "payable": false,
      "stateMutability": "nonpayable",
      "type": "function"
    },
    {
      "constant": false,
      "inputs": [
        {
          "name": "_errorCode",
          "type": "uint256"
        }
      ],
      "name": "emitError",
      "outputs": [],
      "payable": false,
      "stateMutability": "nonpayable",
      "type": "function"
    }
  ],
  "bytecode": "0x6060604052341561000f57600080fd5b6104948061001e6000396000f3006060604052600436106100985763ffffffff7c010000000000000000000000000000000000000000000000000000000060003504166312b3e862811461009d57806341f70189146100b857806362823486146100d1578063823ad10d146100ed5780638e784379146101065780639e17a7531461011c578063a2f11a8514610141578063b357f0da1461015a578063df26ca0814610176575b600080fd5b34156100a857600080fd5b6100b660043560243561018c565b005b34156100c357600080fd5b6100b66004356024356101db565b34156100dc57600080fd5b6100b660043560243560443561022a565b34156100f857600080fd5b6100b6600435602435610287565b341561011157600080fd5b6100b66004356102d6565b341561012757600080fd5b6100b6600435600160a060020a0360243516604435610317565b341561014c57600080fd5b6100b6600435602435610371565b341561016557600080fd5b6100b66004356024356044356103c0565b341561018157600080fd5b6100b660043561041d565b610194610464565b600160a060020a03167f859432cf3ef34d4c3b49848b2a78f5deded8c5215bbc5af84b0b45143709c730838360405191825260208201526040908101905180910390a25050565b6101e3610464565b600160a060020a03167fc145a293b84bfd203f83a51c887e4a7cfd69e94d97175a0cfedee731ac42874c838360405191825260208201526040908101905180910390a25050565b610232610464565b600160a060020a03167f53b00f41cbc4b7de5706fcbc6263bf35511abd6d9de1bc5e53383a48c586261a84848460405192835260208301919091526040808301919091526060909101905180910390a2505050565b61028f610464565b600160a060020a03167f596e6e7149b1bee6fbb4600421c0c1dbb6d8c930942e88d976ff16c5a4c36de4838360405191825260208201526040908101905180910390a25050565b806102df610464565b600160a060020a03167fee5ac2c3b886aafee842da34458ece5978e6a2f25bd4cf416cb6de15e9123b8060405160405180910390a350565b81600160a060020a0316610329610464565b600160a060020a03167f5a76ac301d83fd69e9182d51f4d166a232e361578fba9b67612ba18cb577ebd6858460405191825260208201526040908101905180910390a3505050565b610379610464565b600160a060020a03167f8d1562f2eb2dacf77bc2222979221684eacec5d02a20eb16e309c346964cc49e838360405191825260208201526040908101905180910390a25050565b6103c8610464565b600160a060020a03167f0feb0875de2ce4b1f14a44a2a6e2e4a610cb2d8741bb0944bf6b7b7bb74f7d8384848460405192835260208301919091526040808301919091526060909101905180910390a2505050565b610425610464565b600160a060020a03167f9cf38cf2dbf9139f5c32639950507b10775fbbe0421f3e168bc2d1bb1ae3208c8260405190815260200160405180910390a250565b33905600a165627a7a7230582042c50ea3ec7623f41994c8ee4e8c405de049471afaead829454b307c62387fb40029",
  "source": "pragma solidity ^0.4.11;\n\nimport '../core/event/MultiEventsHistoryAdapter.sol';\n\ncontract LOCManagerEmitter is MultiEventsHistoryAdapter {\n    event AssetSent(address indexed self, bytes32 symbol, address indexed to, uint value);\n    event HashUpdate(address indexed self, bytes32 locName, bytes32 oldHash, bytes32 newHash);\n    event NewLOC(address indexed self, bytes32 locName, uint count);\n    event UpdateLOC(address indexed self, bytes32 locName, bytes32 newName);\n    event RemLOC(address indexed self, bytes32 indexed locName);\n    event UpdLOCStatus(address indexed self, bytes32 locName, uint oldStatus, uint newStatus);\n    event Reissue(address indexed self, bytes32 locName, uint value);\n    event Revoke(address indexed self, bytes32 locName, uint value);\n    event Error(address indexed self, uint errorCode);\n\n    function emitAssetSent(bytes32 _symbol, address _to, uint _value) {\n        AssetSent(_self(), _symbol, _to, _value);\n    }\n\n    function emitNewLOC(bytes32 _locName, uint _count) {\n        NewLOC(_self(), _locName, _count);\n    }\n\n    function emitRemLOC(bytes32 _locName) {\n        RemLOC(_self(), _locName);\n    }\n\n    function emitUpdLOCStatus(bytes32 locName, uint _oldStatus, uint _newStatus) {\n        UpdLOCStatus(_self(), locName, _oldStatus, _newStatus);\n    }\n\n    function emitUpdateLOC(bytes32 _locName, bytes32 _newName) {\n        UpdateLOC(_self(), _locName, _newName);\n    }\n\n    function emitReissue(bytes32 _locName, uint _value) {\n        Reissue(_self(), _locName, _value);\n    }\n\n    function emitRevoke(bytes32 _locName, uint _value) {\n        Revoke(_self(), _locName, _value);\n    }\n\n    function emitHashUpdate(bytes32 _locName, bytes32 _oldHash, bytes32 _newHash) {\n        HashUpdate(_self(), _locName, _oldHash, _newHash);\n    }\n\n    function emitError(uint _errorCode) {\n        Error(_self(), _errorCode);\n    }\n}\n",
  "sourcePath": "/Users/alesanro/Documents/Projects/ChronoBank/SmartContracts/contracts/loc/LOCManagerEmitter.sol",
  "compiler": {
    "name": "solc",
    "version": "0.4.19+commit.c4cbbb05.Emscripten.clang"
  },
  "schemaVersion": "2.0.0",
  "updatedAt": "2018-04-02T14:47:31.290Z"
}