{
  "contractName": "LOCManager",
  "abi": [
    {
      "constant": false,
      "inputs": [
        {
          "name": "_locName",
          "type": "bytes32"
        },
        {
          "name": "_newName",
          "type": "bytes32"
        }
      ],
      "name": "emitUpdateLOC",
      "outputs": [],
      "payable": false,
      "stateMutability": "nonpayable",
      "type": "function"
    },
    {
      "constant": false,
      "inputs": [
        {
          "name": "_locName",
          "type": "bytes32"
        },
        {
          "name": "_count",
          "type": "uint256"
        }
      ],
      "name": "emitNewLOC",
      "outputs": [],
      "payable": false,
      "stateMutability": "nonpayable",
      "type": "function"
    },
    {
      "constant": false,
      "inputs": [],
      "name": "claimContractOwnership",
      "outputs": [
        {
          "name": "",
          "type": "bool"
        }
      ],
      "payable": false,
      "stateMutability": "nonpayable",
      "type": "function"
    },
    {
      "constant": true,
      "inputs": [
        {
          "name": "_identifier",
          "type": "bytes32"
        }
      ],
      "name": "lookupManager",
      "outputs": [
        {
          "name": "manager",
          "type": "address"
        }
      ],
      "payable": false,
      "stateMutability": "view",
      "type": "function"
    },
    {
      "constant": true,
      "inputs": [],
      "name": "contractsManager",
      "outputs": [
        {
          "name": "",
          "type": "address"
        }
      ],
      "payable": false,
      "stateMutability": "view",
      "type": "function"
    },
    {
      "constant": false,
      "inputs": [
        {
          "name": "_to",
          "type": "address"
        }
      ],
      "name": "changeContractOwnership",
      "outputs": [
        {
          "name": "",
          "type": "bool"
        }
      ],
      "payable": false,
      "stateMutability": "nonpayable",
      "type": "function"
    },
    {
      "constant": true,
      "inputs": [],
      "name": "pendingContractOwner",
      "outputs": [
        {
          "name": "",
          "type": "address"
        }
      ],
      "payable": false,
      "stateMutability": "view",
      "type": "function"
    },
    {
      "constant": false,
      "inputs": [
        {
          "name": "locName",
          "type": "bytes32"
        },
        {
          "name": "_oldStatus",
          "type": "uint256"
        },
        {
          "name": "_newStatus",
          "type": "uint256"
        }
      ],
      "name": "emitUpdLOCStatus",
      "outputs": [],
      "payable": false,
      "stateMutability": "nonpayable",
      "type": "function"
    },
    {
      "constant": false,
      "inputs": [
        {
          "name": "_eventsHistory",
          "type": "address"
        }
      ],
      "name": "setEventsHistory",
      "outputs": [],
      "payable": false,
      "stateMutability": "nonpayable",
      "type": "function"
    },
    {
      "constant": false,
      "inputs": [
        {
          "name": "_contractsManager",
          "type": "address"
        }
      ],
      "name": "setContractsManager",
      "outputs": [],
      "payable": false,
      "stateMutability": "nonpayable",
      "type": "function"
    },
    {
      "constant": false,
      "inputs": [
        {
          "name": "_locName",
          "type": "bytes32"
        },
        {
          "name": "_value",
          "type": "uint256"
        }
      ],
      "name": "emitRevoke",
      "outputs": [],
      "payable": false,
      "stateMutability": "nonpayable",
      "type": "function"
    },
    {
      "constant": false,
      "inputs": [],
      "name": "destroy",
      "outputs": [],
      "payable": false,
      "stateMutability": "nonpayable",
      "type": "function"
    },
    {
      "constant": false,
      "inputs": [
        {
          "name": "_locName",
          "type": "bytes32"
        }
      ],
      "name": "emitRemLOC",
      "outputs": [],
      "payable": false,
      "stateMutability": "nonpayable",
      "type": "function"
    },
    {
      "constant": false,
      "inputs": [
        {
          "name": "_symbol",
          "type": "bytes32"
        },
        {
          "name": "_to",
          "type": "address"
        },
        {
          "name": "_value",
          "type": "uint256"
        }
      ],
      "name": "emitAssetSent",
      "outputs": [],
      "payable": false,
      "stateMutability": "nonpayable",
      "type": "function"
    },
    {
      "constant": false,
      "inputs": [
        {
          "name": "_locName",
          "type": "bytes32"
        },
        {
          "name": "_value",
          "type": "uint256"
        }
      ],
      "name": "emitReissue",
      "outputs": [],
      "payable": false,
      "stateMutability": "nonpayable",
      "type": "function"
    },
    {
      "constant": false,
      "inputs": [
        {
          "name": "_to",
          "type": "address"
        }
      ],
      "name": "transferContractOwnership",
      "outputs": [
        {
          "name": "",
          "type": "bool"
        }
      ],
      "payable": false,
      "stateMutability": "nonpayable",
      "type": "function"
    },
    {
      "constant": false,
      "inputs": [
        {
          "name": "_locName",
          "type": "bytes32"
        },
        {
          "name": "_oldHash",
          "type": "bytes32"
        },
        {
          "name": "_newHash",
          "type": "bytes32"
        }
      ],
      "name": "emitHashUpdate",
      "outputs": [],
      "payable": false,
      "stateMutability": "nonpayable",
      "type": "function"
    },
    {
      "constant": true,
      "inputs": [],
      "name": "contractOwner",
      "outputs": [
        {
          "name": "",
          "type": "address"
        }
      ],
      "payable": false,
      "stateMutability": "view",
      "type": "function"
    },
    {
      "constant": false,
      "inputs": [
        {
          "name": "tokens",
          "type": "address[]"
        },
        {
          "name": "_to",
          "type": "address"
        }
      ],
      "name": "withdrawnTokens",
      "outputs": [
        {
          "name": "",
          "type": "uint256"
        }
      ],
      "payable": false,
      "stateMutability": "nonpayable",
      "type": "function"
    },
    {
      "constant": false,
      "inputs": [
        {
          "name": "_errorCode",
          "type": "uint256"
        }
      ],
      "name": "emitError",
      "outputs": [],
      "payable": false,
      "stateMutability": "nonpayable",
      "type": "function"
    },
    {
      "constant": true,
      "inputs": [
        {
          "name": "key",
          "type": "address"
        }
      ],
      "name": "isAuthorized",
      "outputs": [
        {
          "name": "",
          "type": "bool"
        }
      ],
      "payable": false,
      "stateMutability": "view",
      "type": "function"
    },
    {
      "constant": true,
      "inputs": [],
      "name": "getEventsHistory",
      "outputs": [
        {
          "name": "",
          "type": "address"
        }
      ],
      "payable": false,
      "stateMutability": "view",
      "type": "function"
    },
    {
      "inputs": [
        {
          "name": "_store",
          "type": "address"
        },
        {
          "name": "_crate",
          "type": "bytes32"
        }
      ],
      "payable": false,
      "stateMutability": "nonpayable",
      "type": "constructor"
    },
    {
      "payable": false,
      "stateMutability": "nonpayable",
      "type": "fallback"
    },
    {
      "anonymous": false,
      "inputs": [
        {
          "indexed": true,
          "name": "self",
          "type": "address"
        },
        {
          "indexed": false,
          "name": "symbol",
          "type": "bytes32"
        },
        {
          "indexed": true,
          "name": "to",
          "type": "address"
        },
        {
          "indexed": false,
          "name": "value",
          "type": "uint256"
        }
      ],
      "name": "AssetSent",
      "type": "event"
    },
    {
      "anonymous": false,
      "inputs": [
        {
          "indexed": true,
          "name": "self",
          "type": "address"
        },
        {
          "indexed": false,
          "name": "locName",
          "type": "bytes32"
        },
        {
          "indexed": false,
          "name": "oldHash",
          "type": "bytes32"
        },
        {
          "indexed": false,
          "name": "newHash",
          "type": "bytes32"
        }
      ],
      "name": "HashUpdate",
      "type": "event"
    },
    {
      "anonymous": false,
      "inputs": [
        {
          "indexed": true,
          "name": "self",
          "type": "address"
        },
        {
          "indexed": false,
          "name": "locName",
          "type": "bytes32"
        },
        {
          "indexed": false,
          "name": "count",
          "type": "uint256"
        }
      ],
      "name": "NewLOC",
      "type": "event"
    },
    {
      "anonymous": false,
      "inputs": [
        {
          "indexed": true,
          "name": "self",
          "type": "address"
        },
        {
          "indexed": false,
          "name": "locName",
          "type": "bytes32"
        },
        {
          "indexed": false,
          "name": "newName",
          "type": "bytes32"
        }
      ],
      "name": "UpdateLOC",
      "type": "event"
    },
    {
      "anonymous": false,
      "inputs": [
        {
          "indexed": true,
          "name": "self",
          "type": "address"
        },
        {
          "indexed": true,
          "name": "locName",
          "type": "bytes32"
        }
      ],
      "name": "RemLOC",
      "type": "event"
    },
    {
      "anonymous": false,
      "inputs": [
        {
          "indexed": true,
          "name": "self",
          "type": "address"
        },
        {
          "indexed": false,
          "name": "locName",
          "type": "bytes32"
        },
        {
          "indexed": false,
          "name": "oldStatus",
          "type": "uint256"
        },
        {
          "indexed": false,
          "name": "newStatus",
          "type": "uint256"
        }
      ],
      "name": "UpdLOCStatus",
      "type": "event"
    },
    {
      "anonymous": false,
      "inputs": [
        {
          "indexed": true,
          "name": "self",
          "type": "address"
        },
        {
          "indexed": false,
          "name": "locName",
          "type": "bytes32"
        },
        {
          "indexed": false,
          "name": "value",
          "type": "uint256"
        }
      ],
      "name": "Reissue",
      "type": "event"
    },
    {
      "anonymous": false,
      "inputs": [
        {
          "indexed": true,
          "name": "self",
          "type": "address"
        },
        {
          "indexed": false,
          "name": "locName",
          "type": "bytes32"
        },
        {
          "indexed": false,
          "name": "value",
          "type": "uint256"
        }
      ],
      "name": "Revoke",
      "type": "event"
    },
    {
      "anonymous": false,
      "inputs": [
        {
          "indexed": true,
          "name": "self",
          "type": "address"
        },
        {
          "indexed": false,
          "name": "errorCode",
          "type": "uint256"
        }
      ],
      "name": "Error",
      "type": "event"
    },
    {
      "constant": false,
      "inputs": [
        {
          "name": "_contractsManager",
          "type": "address"
        },
        {
          "name": "_wallet",
          "type": "address"
        }
      ],
      "name": "init",
      "outputs": [
        {
          "name": "",
          "type": "uint256"
        }
      ],
      "payable": false,
      "stateMutability": "nonpayable",
      "type": "function"
    },
    {
      "constant": true,
      "inputs": [],
      "name": "wallet",
      "outputs": [
        {
          "name": "",
          "type": "address"
        }
      ],
      "payable": false,
      "stateMutability": "view",
      "type": "function"
    },
    {
      "constant": false,
      "inputs": [
        {
          "name": "_symbol",
          "type": "bytes32"
        },
        {
          "name": "_to",
          "type": "address"
        },
        {
          "name": "_value",
          "type": "uint256"
        }
      ],
      "name": "sendAsset",
      "outputs": [
        {
          "name": "errorCode",
          "type": "uint256"
        }
      ],
      "payable": false,
      "stateMutability": "nonpayable",
      "type": "function"
    },
    {
      "constant": false,
      "inputs": [
        {
          "name": "_value",
          "type": "uint256"
        },
        {
          "name": "_locName",
          "type": "bytes32"
        }
      ],
      "name": "reissueAsset",
      "outputs": [
        {
          "name": "errorCode",
          "type": "uint256"
        }
      ],
      "payable": false,
      "stateMutability": "nonpayable",
      "type": "function"
    },
    {
      "constant": false,
      "inputs": [
        {
          "name": "_value",
          "type": "uint256"
        },
        {
          "name": "_locName",
          "type": "bytes32"
        }
      ],
      "name": "revokeAsset",
      "outputs": [
        {
          "name": "errorCode",
          "type": "uint256"
        }
      ],
      "payable": false,
      "stateMutability": "nonpayable",
      "type": "function"
    },
    {
      "constant": false,
      "inputs": [
        {
          "name": "_name",
          "type": "bytes32"
        }
      ],
      "name": "removeLOC",
      "outputs": [
        {
          "name": "errorCode",
          "type": "uint256"
        }
      ],
      "payable": false,
      "stateMutability": "nonpayable",
      "type": "function"
    },
    {
      "constant": false,
      "inputs": [
        {
          "name": "_name",
          "type": "bytes32"
        },
        {
          "name": "_website",
          "type": "bytes32"
        },
        {
          "name": "_issueLimit",
          "type": "uint256"
        },
        {
          "name": "_publishedHash",
          "type": "bytes32"
        },
        {
          "name": "_expDate",
          "type": "uint256"
        },
        {
          "name": "_currency",
          "type": "bytes32"
        }
      ],
      "name": "addLOC",
      "outputs": [
        {
          "name": "",
          "type": "uint256"
        }
      ],
      "payable": false,
      "stateMutability": "nonpayable",
      "type": "function"
    },
    {
      "constant": false,
      "inputs": [
        {
          "name": "_name",
          "type": "bytes32"
        },
        {
          "name": "_newname",
          "type": "bytes32"
        },
        {
          "name": "_website",
          "type": "bytes32"
        },
        {
          "name": "_issueLimit",
          "type": "uint256"
        },
        {
          "name": "_publishedHash",
          "type": "bytes32"
        },
        {
          "name": "_expDate",
          "type": "uint256"
        }
      ],
      "name": "setLOC",
      "outputs": [
        {
          "name": "",
          "type": "uint256"
        }
      ],
      "payable": false,
      "stateMutability": "nonpayable",
      "type": "function"
    },
    {
      "constant": false,
      "inputs": [
        {
          "name": "_name",
          "type": "bytes32"
        },
        {
          "name": "_status",
          "type": "uint8"
        }
      ],
      "name": "setStatus",
      "outputs": [
        {
          "name": "errorCode",
          "type": "uint256"
        }
      ],
      "payable": false,
      "stateMutability": "nonpayable",
      "type": "function"
    },
    {
      "constant": true,
      "inputs": [
        {
          "name": "_name",
          "type": "bytes32"
        }
      ],
      "name": "getLOCByName",
      "outputs": [
        {
          "name": "_locName",
          "type": "bytes32"
        },
        {
          "name": "_website",
          "type": "bytes32"
        },
        {
          "name": "_issued",
          "type": "uint256"
        },
        {
          "name": "_issueLimit",
          "type": "uint256"
        },
        {
          "name": "_publishedHash",
          "type": "bytes32"
        },
        {
          "name": "_expDate",
          "type": "uint256"
        },
        {
          "name": "_status",
          "type": "uint256"
        },
        {
          "name": "_securityPercentage",
          "type": "uint256"
        },
        {
          "name": "_currency",
          "type": "bytes32"
        },
        {
          "name": "_createDate",
          "type": "uint256"
        }
      ],
      "payable": false,
      "stateMutability": "view",
      "type": "function"
    },
    {
      "constant": true,
      "inputs": [
        {
          "name": "_id",
          "type": "uint256"
        }
      ],
      "name": "getLOCById",
      "outputs": [
        {
          "name": "locName",
          "type": "bytes32"
        },
        {
          "name": "website",
          "type": "bytes32"
        },
        {
          "name": "issued",
          "type": "uint256"
        },
        {
          "name": "issueLimit",
          "type": "uint256"
        },
        {
          "name": "publishedHash",
          "type": "bytes32"
        },
        {
          "name": "expDate",
          "type": "uint256"
        },
        {
          "name": "status",
          "type": "uint256"
        },
        {
          "name": "securityPercentage",
          "type": "uint256"
        },
        {
          "name": "currency",
          "type": "bytes32"
        },
        {
          "name": "creatrDate",
          "type": "uint256"
        }
      ],
      "payable": false,
      "stateMutability": "view",
      "type": "function"
    },
    {
      "constant": true,
      "inputs": [],
      "name": "getLOCNames",
      "outputs": [
        {
          "name": "",
          "type": "bytes32[]"
        }
      ],
      "payable": false,
      "stateMutability": "view",
      "type": "function"
    },
    {
      "constant": true,
      "inputs": [],
      "name": "getLOCCount",
      "outputs": [
        {
          "name": "",
          "type": "uint256"
        }
      ],
      "payable": false,
      "stateMutability": "view",
      "type": "function"
    }
  ],
  "bytecode": "0x606060405234156200001057600080fd5b60405160408062002ace8339810160405280805191906020018051915082905081818181816200005160008383640100000000620024ed620002e182021704565b505060028054600160a060020a03338116600160a060020a03199283161790925560058054309093169290911691909117905550620000c69250600691507f6f66666572696e67436f6d70616e6965734e616d6573000000000000000000009050640100000000620025136200030782021704565b6200010160097f7765627369746500000000000000000000000000000000000000000000000000640100000000620025e06200041682021704565b6200013c600a7f7075626c69736865644861736800000000000000000000000000000000000000640100000000620025e06200041682021704565b62000177600b7f63757272656e6379000000000000000000000000000000000000000000000000640100000000620025e06200041682021704565b620001b2600c7f6973737565640000000000000000000000000000000000000000000000000000640100000000620025e06200041682021704565b620001ed600d7f69737375654c696d697400000000000000000000000000000000000000000000640100000000620025e06200041682021704565b62000228600e7f6578704461746500000000000000000000000000000000000000000000000000640100000000620025e06200041682021704565b62000263600f7f7374617475730000000000000000000000000000000000000000000000000000640100000000620025e06200041682021704565b6200029e60107f6372656174654461746500000000000000000000000000000000000000000000640100000000620025e06200041682021704565b620002d960117f77616c6c657453746f7261676500000000000000000000000000000000000000640100000000620025f06200043082021704565b505062000468565b8254600160a060020a031916600160a060020a0392909216919091178255600190910155565b6200035e82826040519081527f636f756e74000000000000000000000000000000000000000000000000000000602082015260250160405180910390206200043064010000000002620025f0176401000000009004565b620003b882600101826040519081527f696e646578657300000000000000000000000000000000000000000000000000602082015260270160405180910390206200043064010000000002620025f0176401000000009004565b6200041282600201826040519081527f76616c7565730000000000000000000000000000000000000000000000000000602082015260260160405180910390206200043064010000000002620025f0176401000000009004565b5050565b620004128282640100000000620025f06200043082021704565b81546200044c9082640100000000620026146200045082021704565b9055565b811515806200045d575080155b156200041257600080fd5b61265680620004786000396000f30060606040526004361061019d5763ffffffff60e060020a60003504166312b3e86281146101ad57806323400cf6146101c85780633b993649146101ed5780633c22b5af14610203578063404166b61461026f57806341f70189146102945780634592cd1d146102ad5780634fe59012146102d4578063521eb2731461030657806353253d3114610319578063557f4bc91461032c5780635aa77d3c1461034b578063628234861461035e57806363e05a7c1461037a5780636521afd71461039357806371749ac7146103b257806371d3b573146103d75780637613251f146103f6578063823ad10d1461040c57806383197ef0146104255780638de654ba146104385780638e784379146104545780639e17a7531461046a578063a2f11a851461048f578063a843c51f146104a8578063afe8bf93146104c7578063b357f0da146104ec578063c46f734b14610508578063ce606ee014610521578063d44770e114610534578063d8f9659b1461059a578063df26ca08146105f4578063f09a40161461060a578063fe9fbb801461062f578063fff10aba1461064e575b34156101a857600080fd5b600080fd5b34156101b857600080fd5b6101c6600435602435610661565b005b34156101d357600080fd5b6101db6106b0565b60405190815260200160405180910390f35b34156101f857600080fd5b6101db6004356106c9565b341561020e57600080fd5b6102196004356107e5565b604051998a5260208a01989098526040808a01979097526060890195909552608088019390935260a087019190915260c086015260e0850152610100840152610120830191909152610140909101905180910390f35b341561027a57600080fd5b6101db600435600160a060020a0360243516604435610830565b341561029f57600080fd5b6101c6600435602435610912565b34156102b857600080fd5b6102c0610961565b604051901515815260200160405180910390f35b34156102df57600080fd5b6102ea6004356109ad565b604051600160a060020a03909116815260200160405180910390f35b341561031157600080fd5b6102ea610a25565b341561032457600080fd5b6102ea610a38565b341561033757600080fd5b6102c0600160a060020a0360043516610a47565b341561035657600080fd5b6102ea610a9e565b341561036957600080fd5b6101c6600435602435604435610aad565b341561038557600080fd5b6101db600435602435610b0a565b341561039e57600080fd5b6101c6600160a060020a0360043516610c65565b34156103bd57600080fd5b6101db60043560243560443560643560843560a435610c9b565b34156103e257600080fd5b6101c6600160a060020a0360043516610e82565b341561040157600080fd5b610219600435610eb9565b341561041757600080fd5b6101c6600435602435610f7f565b341561043057600080fd5b6101c6610fce565b341561044357600080fd5b6101db60043560ff60243516611057565b341561045f57600080fd5b6101c6600435611109565b341561047557600080fd5b6101c6600435600160a060020a036024351660443561114a565b341561049a57600080fd5b6101c66004356024356111a4565b34156104b357600080fd5b6102c0600160a060020a03600435166111f3565b34156104d257600080fd5b6101db60043560243560443560643560843560a43561126c565b34156104f757600080fd5b6101c660043560243560443561133b565b341561051357600080fd5b6101db600435602435611398565b341561052c57600080fd5b6102ea6114e4565b341561053f57600080fd5b6105476114f3565b60405160208082528190810183818151815260200191508051906020019060200280838360005b8381101561058657808201518382015260200161056e565b505050509050019250505060405180910390f35b34156105a557600080fd5b6101db600460248135818101908301358060208181020160405190810160405280939291908181526020018383602002808284375094965050509235600160a060020a0316925061150d915050565b34156105ff57600080fd5b6101c6600435611644565b341561061557600080fd5b6101db600160a060020a036004358116906024351661168b565b341561063a57600080fd5b6102c0600160a060020a03600435166116e3565b341561065957600080fd5b6102ea61177c565b61066961178b565b600160a060020a03167f859432cf3ef34d4c3b49848b2a78f5deded8c5215bbc5af84b0b45143709c730838360405191825260208201526040908101905180910390a25050565b60006106c381600663ffffffff61178f16565b90505b90565b60006106d36117ac565b9050600181146106ed576106e6816118d7565b90506107e0565b6106f6826118fd565b1515610707576106e66103e8611911565b61071082611976565b15610720576106e66103eb611911565b610733600060068463ffffffff61199416565b61074760006009848263ffffffff6119ae16565b61075b6000600d848263ffffffff6119ae16565b61076f6000600c848263ffffffff6119ae16565b61078360006010848263ffffffff6119ae16565b6107976000600a848263ffffffff6119ae16565b6107ab6000600e848263ffffffff6119ae16565b6107bf6000600b848263ffffffff6119ae16565b6107d360006010848263ffffffff6119ae16565b6107dc826119c0565b5060015b919050565b6000808080808080808080806108038160068e63ffffffff611a1a16565b905061080e81610eb9565b9a509a509a509a509a509a509a509a509a509a50509193959799509193959799565b60008060008061083e6117ac565b93506001841461085857610851846118d7565b9350610908565b61086187611a39565b9250925061086d610a25565b905080600160a060020a031663d9caed1283888860405160e060020a63ffffffff8616028152600160a060020a0393841660048201529190921660248201526044810191909152606401602060405180830381600087803b15156108d057600080fd5b5af115156108dd57600080fd5b5050506040518051905015156108f8576108516103ef611911565b610903878787611b23565b600193505b5050509392505050565b61091a61178b565b600160a060020a03167fc145a293b84bfd203f83a51c887e4a7cfd69e94d97175a0cfedee731ac42874c838360405191825260208201526040908101905180910390a25050565b60035460009033600160a060020a03908116911614610982575060006106c6565b506003805460028054600160a060020a0319908116600160a060020a03841617909155169055600190565b600454600090600160a060020a031663bc6579278360405160e060020a63ffffffff84160281526004810191909152602401602060405180830381600087803b15156109f857600080fd5b5af11515610a0557600080fd5b5050506040518051915050600160a060020a03811615156107e057600080fd5b60006106c381601163ffffffff611b9c16565b600454600160a060020a031681565b60025460009033600160a060020a03908116911614156107e057600160a060020a0382161515610a79575060006107e0565b5060038054600160a060020a038316600160a060020a03199091161790556001919050565b600354600160a060020a031681565b610ab561178b565b600160a060020a03167f53b00f41cbc4b7de5706fcbc6263bf35511abd6d9de1bc5e53383a48c586261a84848460405192835260208301919091526040808301919091526060909101905180910390a2505050565b600080600080600080610b1b6117ac565b955060018614610b3557610b2e866118d7565b9550610c5a565b610b3e87611976565b1515610b4f57610b2e6103ea611911565b610b626000600c8963ffffffff611bf316565b9450848811610c4c57610b7e6000600b8963ffffffff611bf316565b9350610b8984611a39565b92509250610b95610a25565b9050600181600160a060020a0316636d5aa45885878c60405160e060020a63ffffffff8616028152600160a060020a03909316600484015260248301919091526044820152606401602060405180830381600087803b1515610bf657600080fd5b5af11515610c0357600080fd5b505050604051805190501415610c3c57610c296000600c898b890363ffffffff6119ae16565b610c338789611c00565b60019550610c47565b610b2e6103f3611911565b610c5a565b610c576103f2611911565b95505b505050505092915050565b60025433600160a060020a0390811691161415610c985760058054600160a060020a031916600160a060020a0383161790555b50565b6000610ca6336116e3565b15610e7857610cb4876118fd565b1515610ccc57610cc56103e8611911565b9050610e78565b610cd587611976565b15610ce557610cc56103eb611911565b851515610cf757610cc56103ec611911565b610d018787611c67565b858714610dc057610d1c60006006898963ffffffff611cba16565b610d44600987610d346000838c63ffffffff611bf316565b600092919063ffffffff6119ae16565b610d5c600d87610d346000838c63ffffffff611bf316565b610d74600a87610d346000838c63ffffffff611bf316565b610d8c600e87610d346000838c63ffffffff611bf316565b610da4600b87610d346000838c63ffffffff611bf316565b610dbc601087610d346000838c63ffffffff611bf316565b8596505b610dd3600060098963ffffffff611bf316565b8514610ded57610ded60006009898863ffffffff6119ae16565b610e006000600d8963ffffffff611bf316565b8414610e1a57610e1a6000600d898763ffffffff6119ae16565b610e2d6000600a8963ffffffff611bf316565b8314610e4757610e476000600a898663ffffffff6119ae16565b610e5a6000600e8963ffffffff611bf316565b8214610e7457610e746000600e898563ffffffff6119ae16565b5060015b9695505050505050565b60025433600160a060020a0390811691161415610c985760048054600160a060020a038316600160a060020a031990911617905550565b6000808080808080808080610ed68160098d63ffffffff611bf316565b9850610eeb6000600c8d63ffffffff611bf316565b9750610f006000600d8d63ffffffff611bf316565b9650610f156000600a8d63ffffffff611bf316565b9550610f2a6000600e8d63ffffffff611bf316565b9450610f3f6000600f8d63ffffffff611bf316565b9350610f546000600b8d63ffffffff611bf316565b9150610f69600060108d63ffffffff611bf316565b8b9a50600a935090509193959799509193959799565b610f8761178b565b600160a060020a03167f596e6e7149b1bee6fbb4600421c0c1dbb6d8c930942e88d976ff16c5a4c36de4838360405191825260208201526040908101905180910390a25050565b60025433600160a060020a039081169116141561105557600454600160a060020a031663c375c2ef3060405160e060020a63ffffffff8416028152600160a060020a039091166004820152602401602060405180830381600087803b151561103557600080fd5b5af1151561104257600080fd5b5050506040518051905050611055611cd0565b565b60006110616117ac565b90506001811461107b57611074816118d7565b9050611103565b611084836118fd565b1515611095576110746103e8611911565b8160038111156110a157fe5b6110b46000600f8663ffffffff611bf316565b14156110c5576110746103ec611911565b6110d7600f84846003811115610d3457fe5b6110ff836110ee6000600f8363ffffffff611bf316565b8460038111156110fa57fe5b611cf3565b5060015b92915050565b8061111261178b565b600160a060020a03167fee5ac2c3b886aafee842da34458ece5978e6a2f25bd4cf416cb6de15e9123b8060405160405180910390a350565b81600160a060020a031661115c61178b565b600160a060020a03167f5a76ac301d83fd69e9182d51f4d166a232e361578fba9b67612ba18cb577ebd6858460405191825260208201526040908101905180910390a3505050565b6111ac61178b565b600160a060020a03167f8d1562f2eb2dacf77bc2222979221684eacec5d02a20eb16e309c346964cc49e838360405191825260208201526040908101905180910390a25050565b60025460009033600160a060020a03908116911614156107e057600160a060020a0382161515611225575060006107e0565b600354600160a060020a0316156112475760038054600160a060020a03191690555b5060028054600160a060020a038316600160a060020a03199091161790556001919050565b6000611277336116e3565b15610e7857611285876118fd565b1561129557610cc56103e9611911565b6112a8600060068963ffffffff611d4f16565b6112bc60006009898963ffffffff6119ae16565b6112d06000600d898863ffffffff6119ae16565b6112e46000600a898763ffffffff6119ae16565b6112f86000600e898663ffffffff6119ae16565b61130c6000600b898563ffffffff6119ae16565b61132060006010894263ffffffff6119ae16565b610e74876113366000600663ffffffff61178f16565b611d64565b61134361178b565b600160a060020a03167f0feb0875de2ce4b1f14a44a2a6e2e4a610cb2d8741bb0944bf6b7b7bb74f7d8384848460405192835260208301919091526040808301919091526060909101905180910390a2505050565b6000806000806000806113a96117ac565b9550600186146113bc57610b2e866118d7565b6113c587611976565b15156113d657610b2e6103ea611911565b6113e96000600c8963ffffffff611bf316565b9450846113ff6000600d8a63ffffffff611bf316565b0388116114d9576114196000600b8963ffffffff611bf316565b935061142484611a39565b92509250611430610a25565b9050600181600160a060020a031663b682da5385878c60405160e060020a63ffffffff8616028152600160a060020a03909316600484015260248301919091526044820152606401602060405180830381600087803b151561149157600080fd5b5af1151561149e57600080fd5b5050506040518051905014156114ce576114c46000600c89888c0163ffffffff6119ae16565b610c338789611db7565b610b2e6103f1611911565b610c576103f0611911565b600254600160a060020a031681565b6114fb6124db565b6106c36000600663ffffffff611e0a16565b60025460009081908190819033600160a060020a039081169116141561163b57600092505b85518310156116365785838151811061154757fe5b90602001906020020151915081600160a060020a03166370a082313060405160e060020a63ffffffff8416028152600160a060020a039091166004820152602401602060405180830381600087803b15156115a157600080fd5b5af115156115ae57600080fd5b5050506040518051915050801561162b5781600160a060020a031663a9059cbb868360405160e060020a63ffffffff8516028152600160a060020a0390921660048301526024820152604401602060405180830381600087803b151561161357600080fd5b5af1151561162057600080fd5b505050604051805150505b600190920191611532565b600193505b50505092915050565b61164c61178b565b600160a060020a03167f9cf38cf2dbf9139f5c32639950507b10775fbbe0421f3e168bc2d1bb1ae3208c8260405190815260200160405180910390a250565b60025460009033600160a060020a0390811691161415611103576116cf837f4c4f434d616e6167657200000000000000000000000000000000000000000000611e26565b506110ff600060118463ffffffff611ffd16565b60008061170f7f557365724d616e616765720000000000000000000000000000000000000000006109ad565b905080600160a060020a0316632aa09e5a8460405160e060020a63ffffffff8416028152600160a060020a039091166004820152602401602060405180830381600087803b151561175f57600080fd5b5af1151561176c57600080fd5b5050506040518051949350505050565b600554600160a060020a031690565b3390565b60006117a5838360ea60020a621cd95d02612066565b9392505050565b60008060006117da7f50656e64696e674d616e616765720000000000000000000000000000000000006109ad565b915081600160a060020a031633600160a060020a03161415156118cd57600036604051808383808284378201915050925050506040518091039020905081600160a060020a0316630fee1efc82600036303360405160e060020a63ffffffff881602815260048101868152600160a060020a0380851660448401528316606483015260806024830190815260848301869052909160a40186868082843782019150509650505050505050602060405180830381600087803b151561189d57600080fd5b5af115156118aa57600080fd5b5050506040518051935050600183146118c357826118c6565b60035b92506118d2565b600192505b505090565b6000600182141580156118eb575060038214155b156118f9576106e682611911565b5090565b60006111038160068463ffffffff61207316565b600061191b61177c565b600160a060020a031663df26ca088360405160e060020a63ffffffff84160281526004810191909152602401600060405180830381600087803b151561196057600080fd5b5af1151561196d57600080fd5b50929392505050565b6000600161198d6000600f8563ffffffff611bf316565b1492915050565b6119a9838360ea60020a621cd95d028461208a565b505050565b6119ba84848484612138565b50505050565b6119c861177c565b600160a060020a0316638e7843798260405160e060020a63ffffffff84160281526004810191909152602401600060405180830381600087803b1515611a0d57600080fd5b5af115156119ba57600080fd5b6000611a31848460ea60020a621cd95d02856121bd565b949350505050565b6000806000611a677f45524332304d616e6167657200000000000000000000000000000000000000006109ad565b905080600160a060020a031663fa7fdeb78560405160e060020a63ffffffff84160281526004810191909152602401602060405180830381600087803b1515611aaf57600080fd5b5af11515611abc57600080fd5b5050506040518051925050600160a060020a0382166349752baf6040518163ffffffff1660e060020a028152600401602060405180830381600087803b1515611b0457600080fd5b5af11515611b1157600080fd5b50505060405180519050925050915091565b611b2b61177c565b600160a060020a0316639e17a75384848460405160e060020a63ffffffff86160281526004810193909352600160a060020a0390911660248301526044820152606401600060405180830381600087803b1515611b8757600080fd5b5af11515611b9457600080fd5b505050505050565b815460018301548254600092600160a060020a03169163d3a396869160405160e060020a63ffffffff851602815260048101929092526024820152604401602060405180830381600087803b151561175f57600080fd5b6000611a318484846121da565b611c0861177c565b600160a060020a031663823ad10d838360405160e060020a63ffffffff851602815260048101929092526024820152604401600060405180830381600087803b1515611c5357600080fd5b5af11515611c6057600080fd5b5050505050565b611c6f61177c565b600160a060020a03166312b3e862838360405160e060020a63ffffffff851602815260048101929092526024820152604401600060405180830381600087803b1515611c5357600080fd5b6119ba848460ea60020a621cd95d028585612267565b60025433600160a060020a03908116911614156110555733600160a060020a0316ff5b611cfb61177c565b600160a060020a0316636282348684848460405160e060020a63ffffffff8616028152600481019390935260248301919091526044820152606401600060405180830381600087803b1515611b8757600080fd5b6119a9838360ea60020a621cd95d02846122c2565b611d6c61177c565b600160a060020a03166341f70189838360405160e060020a63ffffffff851602815260048101929092526024820152604401600060405180830381600087803b1515611c5357600080fd5b611dbf61177c565b600160a060020a031663a2f11a85838360405160e060020a63ffffffff851602815260048101929092526024820152604401600060405180830381600087803b1515611c5357600080fd5b611e126124db565b6117a5838360ea60020a621cd95d02612316565b60025460009081908190819033600160a060020a03908116911614611e4a57600080fd5b600160a060020a0386161515611e5f57600080fd5b600454600160a060020a0316158015935080611e895750600454600160a060020a03878116911614155b15611eaa5760048054600160a060020a031916600160a060020a0388161790555b600454600160a060020a031691508163bc65792760405160e060020a63ffffffff83160281527f4d756c74694576656e7473486973746f727900000000000000000000000000006004820152602401602060405180830381600087803b1515611f1257600080fd5b5af11515611f1f57600080fd5b5050506040518051915050600160a060020a03811615801590611f505750600554600160a060020a03828116911614155b15611f715760058054600160a060020a031916600160a060020a0383161790555b8415611feb5781600160a060020a031663b7c46cd5308760405160e060020a63ffffffff8516028152600160a060020a0390921660048301526024820152604401602060405180830381600087803b1515611fcb57600080fd5b5af11515611fd857600080fd5b50505060405180516001149050611feb57fe5b82156116365760069695505050505050565b825460018401548354600160a060020a03909216916379a7cfee91908460405160e060020a63ffffffff861602815260048101939093526024830191909152600160a060020a03166044820152606401600060405180830381600087803b1515611b8757600080fd5b6000611a3184848461238f565b6000611a31848460ea60020a621cd95d02856123fe565b600080600061209b878787876123fe565b15156120a65761212f565b6120b1878787612066565b92506120c28760028801878661241a565b91506120d38787600101878761241a565b9050828110156120fd576120ed876001880187858561243f565b6120fd876002880187848661243f565b61210e87600188018787600061243f565b61211f87600288018786600061243f565b61212f8787876000198701612463565b50505050505050565b835460018501548454600160a060020a039092169163a14ff85791908560405191825260208201526040908101905180910390208460405160e060020a63ffffffff8616028152600481019390935260248301919091526044820152606401600060405180830381600087803b15156121b057600080fd5b5af1151561212f57600080fd5b60006121d18560028601856001860161241a565b95945050505050565b825460018401548354600092600160a060020a0316916337d9d7fc9185604051918252602082015260409081019051809103902060405160e060020a63ffffffff851602815260048101929092526024820152604401602060405180830381600087803b151561224957600080fd5b5af1151561225657600080fd5b505050604051805195945050505050565b6000612275868686866123fe565b151561228057611b94565b61228f8686600101868661241a565b90506122a1866002870186848661243f565b6122b1866001870186858561243f565b611b9486600187018686600061243f565b60006122d0858585856123fe565b156122da57611c60565b6122e5858585612066565b60010190506122fa856002860185848661243f565b61230a856001860185858561243f565b611c6085858584612463565b61231e6124db565b60008061232c868686612066565b91508160405180591061233c5750595b90808252806020026020018201604052509250600090505b8181101561238657612368868686846121bd565b83828151811061237457fe5b60209081029091010152600101612354565b50509392505050565b825460018401548354600092600160a060020a0316916353aa3f5e9185604051918252602082015260409081019051809103902060405160e060020a63ffffffff851602815260048101929092526024820152604401602060405180830381600087803b151561224957600080fd5b600061240f8585600101858561241a565b151595945050505050565b60006121d18585858560405191825260208201526040908101905180910390206121da565b611c6085858585604051918252602082015260409081019051809103902084612138565b835460018501548454600160a060020a03909216916353e7168b91908560405191825260208201526040908101905180910390208460405160e060020a63ffffffff8616028152600481019390935260248301919091526044820152606401600060405180830381600087803b15156121b057600080fd5b60206040519081016040526000815290565b8254600160a060020a031916600160a060020a0392909216919091178255600190910155565b61255482826040519081527f636f756e74000000000000000000000000000000000000000000000000000000602082015260250160405180910390206125f0565b61259882600101826040519081527f696e646578657300000000000000000000000000000000000000000000000000602082015260270160405180910390206125f0565b6125dc82600201826040519081527f76616c7565730000000000000000000000000000000000000000000000000000602082015260260160405180910390206125f0565b5050565b6125dc82826125f0565b6125dc82825b81546125fc9082612614565b9055565b81546125fc9082612614565b81546125fc90825b81151580612620575080155b156125dc57600080fd00a165627a7a723058204132a130f28f5ea1e84aed1ffeee6400ea432358b55737441f694b539bc1c6410029",
  "source": "pragma solidity ^0.4.11;\n\nimport \"../core/common/BaseManager.sol\";\nimport \"../assets/FeeInterface.sol\";\nimport \"../core/erc20/ERC20ManagerInterface.sol\";\nimport \"../core/platform/ChronoBankAssetProxyInterface.sol\";\nimport \"./LOCManagerEmitter.sol\";\nimport \"./ReissuableWalletInterface.sol\";\n\ncontract LOCManager is LOCManagerEmitter, BaseManager {\n\n    uint constant ERROR_LOC_NOT_FOUND = 1000;\n    uint constant ERROR_LOC_EXISTS = 1001;\n    uint constant ERROR_LOC_INACTIVE = 1002;\n    uint constant ERROR_LOC_SHOULD_NO_BE_ACTIVE = 1003;\n    uint constant ERROR_LOC_INVALID_PARAMETER = 1004;\n    uint constant ERROR_LOC_INVALID_INVOCATION = 1005;\n    uint constant ERROR_LOC_ADD_CONTRACT = 1006;\n    uint constant ERROR_LOC_SEND_ASSET = 1007;\n    uint constant ERROR_LOC_REQUESTED_ISSUE_VALUE_EXCEEDED = 1008;\n    uint constant ERROR_LOC_REISSUING_ASSET_FAILED = 1009;\n    uint constant ERROR_LOC_REQUESTED_REVOKE_VALUE_EXCEEDED = 1010;\n    uint constant ERROR_LOC_REVOKING_ASSET_FAILED = 1011;\n\n    StorageInterface.Set offeringCompaniesNames;\n    StorageInterface.Bytes32Bytes32Mapping website;\n    StorageInterface.Bytes32Bytes32Mapping publishedHash;\n    StorageInterface.Bytes32Bytes32Mapping currency;\n    StorageInterface.Bytes32UIntMapping issued;\n    StorageInterface.Bytes32UIntMapping issueLimit;\n    StorageInterface.Bytes32UIntMapping expDate;\n    StorageInterface.Bytes32UIntMapping status;\n    StorageInterface.Bytes32UIntMapping createDate;\n    StorageInterface.Address walletStorage;\n\n    enum Status {maintenance, active, suspended, bankrupt}\n\n    function LOCManager(Storage _store, bytes32 _crate) BaseManager(_store, _crate) {\n        offeringCompaniesNames.init('offeringCompaniesNames');\n        website.init('website');\n        publishedHash.init('publishedHash');\n        currency.init('currency');\n        issued.init('issued');\n        issueLimit.init('issueLimit');\n        expDate.init('expDate');\n        status.init('status');\n        createDate.init('createDate');\n        walletStorage.init('walletStorage');\n    }\n\n    function init(address _contractsManager, address _wallet) onlyContractOwner returns (uint) {\n        BaseManager.init(_contractsManager, \"LOCManager\");\n        store.set(walletStorage, _wallet);\n        return OK;\n    }\n\n    function wallet() public constant returns (address) {\n        return store.get(walletStorage);\n    }\n\n    function isLOCExist(bytes32 _locName) private constant returns (bool) {\n        return store.includes(offeringCompaniesNames, _locName);\n    }\n\n    function isLOCActive(bytes32 _locName) private constant returns (bool) {\n        return store.get(status, _locName) == uint(Status.active);\n    }\n\n    function sendAsset(bytes32 _symbol, address _to, uint _value) returns (uint errorCode) {\n        errorCode = multisig();\n        if (OK != errorCode) {\n            return _handleResult(errorCode);\n        }\n\n        var (_, _token) = _getPlatformAndTokenForSymbol(_symbol);\n        ReissuableWalletInterface _wallet = ReissuableWalletInterface(wallet());\n        if (!_wallet.withdraw(_token, _to, _value)) {\n            return _emitError(ERROR_LOC_SEND_ASSET);\n        }\n\n        _emitAssetSent(_symbol, _to, _value);\n        return OK;\n    }\n\n    function reissueAsset(uint _value, bytes32 _locName) returns (uint errorCode) {\n        errorCode = multisig();\n        if (OK != errorCode) {\n            return _handleResult(errorCode);\n        }\n\n        if (!isLOCActive(_locName)) {\n            return _emitError(ERROR_LOC_INACTIVE);\n        }\n\n        uint _issued = store.get(issued, _locName);\n        if (_value <= store.get(issueLimit, _locName) - _issued) {\n            bytes32 _symbol = store.get(currency, _locName);\n            var (_platform, _) = _getPlatformAndTokenForSymbol(_symbol);\n            ReissuableWalletInterface _wallet = ReissuableWalletInterface(wallet());\n            if (_wallet.reissue(_platform, _symbol, _value) == OK) {\n                store.set(issued, _locName, _issued + _value);\n                _emitReissue(_locName, _value);\n                errorCode = OK;\n            } else {\n                errorCode = _emitError(ERROR_LOC_REISSUING_ASSET_FAILED);\n            }\n        } else {\n            errorCode = _emitError(ERROR_LOC_REQUESTED_ISSUE_VALUE_EXCEEDED);\n        }\n    }\n\n    function revokeAsset(uint _value, bytes32 _locName) returns (uint errorCode) {\n        errorCode = multisig();\n        if (OK != errorCode) {\n            return _handleResult(errorCode);\n        }\n\n        if (!isLOCActive(_locName)) {\n            return _emitError(ERROR_LOC_INACTIVE);\n        }\n\n        uint _issued = store.get(issued, _locName);\n        if (_value <= _issued) {\n            bytes32 _symbol = store.get(currency, _locName);\n            var (_platform, _) = _getPlatformAndTokenForSymbol(_symbol);\n            ReissuableWalletInterface _wallet = ReissuableWalletInterface(wallet());\n            if (_wallet.revoke(_platform, _symbol, _value) == OK) {\n                store.set(issued, _locName, _issued - _value);\n                _emitRevoke(_locName, _value);\n                errorCode = OK;\n            }\n            else {\n                errorCode = _emitError(ERROR_LOC_REVOKING_ASSET_FAILED);\n            }\n        }\n        else {\n            errorCode = _emitError(ERROR_LOC_REQUESTED_REVOKE_VALUE_EXCEEDED);\n        }\n    }\n\n    function removeLOC(bytes32 _name) returns (uint errorCode) {\n        errorCode = multisig();\n        if (OK != errorCode) {\n            return _handleResult(errorCode);\n        }\n\n        if (!isLOCExist(_name)) {\n            return _emitError(ERROR_LOC_NOT_FOUND);\n        }\n\n        if (isLOCActive(_name)) {\n            return _emitError(ERROR_LOC_SHOULD_NO_BE_ACTIVE);\n        }\n\n        store.remove(offeringCompaniesNames, _name);\n        store.set(website, _name, 0);\n        store.set(issueLimit, _name, 0);\n        store.set(issued, _name, 0);\n        store.set(createDate, _name, 0);\n        store.set(publishedHash, _name, 0);\n        store.set(expDate, _name, 0);\n        store.set(currency, _name, 0);\n        store.set(createDate, _name, 0);\n        _emitRemLOC(_name);\n\n        return OK;\n    }\n\n    function addLOC(bytes32 _name, bytes32 _website, uint _issueLimit, bytes32 _publishedHash, uint _expDate, bytes32 _currency) onlyAuthorized returns (uint) {\n        if (isLOCExist(_name)) {\n            return _emitError(ERROR_LOC_EXISTS);\n        }\n\n        store.add(offeringCompaniesNames, _name);\n        store.set(website, _name, _website);\n        store.set(issueLimit, _name, _issueLimit);\n        store.set(publishedHash, _name, _publishedHash);\n        store.set(expDate, _name, _expDate);\n        store.set(currency, _name, _currency);\n        store.set(createDate, _name, now);\n        _emitNewLOC(_name, store.count(offeringCompaniesNames));\n\n        return OK;\n    }\n\n    function setLOC(bytes32 _name, bytes32 _newname, bytes32 _website, uint _issueLimit, bytes32 _publishedHash, uint _expDate) onlyAuthorized returns (uint) {\n        if (!isLOCExist(_name)) {\n            return _emitError(ERROR_LOC_NOT_FOUND);\n        }\n\n        if (isLOCActive(_name)) {\n            return _emitError(ERROR_LOC_SHOULD_NO_BE_ACTIVE);\n        }\n\n        if (_newname == bytes32(0)) {\n            return _emitError(ERROR_LOC_INVALID_PARAMETER);\n        }\n        _emitUpdateLOC(_name, _newname);\n        if (!(_newname == _name)) {\n            store.set(offeringCompaniesNames, _name, _newname);\n            store.set(website, _newname, store.get(website, _name));\n            store.set(issueLimit, _newname, store.get(issueLimit, _name));\n            store.set(publishedHash, _newname, store.get(publishedHash, _name));\n            store.set(expDate, _newname, store.get(expDate, _name));\n            store.set(currency, _newname, store.get(currency, _name));\n            store.set(createDate, _newname, store.get(createDate, _name));\n            _name = _newname;\n        }\n        if (!(_website == store.get(website, _name))) {\n            store.set(website, _name, _website);\n        }\n        if (!(_issueLimit == store.get(issueLimit, _name))) {\n            store.set(issueLimit, _name, _issueLimit);\n        }\n        if (!(_publishedHash == store.get(publishedHash, _name))) {\n            store.set(publishedHash, _name, _publishedHash);\n        }\n        if (!(_expDate == store.get(expDate, _name))) {\n            store.set(expDate, _name, _expDate);\n        }\n\n        return OK;\n    }\n\n    function setStatus(bytes32 _name, Status _status) returns (uint errorCode) {\n        errorCode = multisig();\n        if (OK != errorCode) {\n            return _handleResult(errorCode);\n        }\n\n        if (!isLOCExist(_name)) {\n            return _emitError(ERROR_LOC_NOT_FOUND);\n        }\n\n        if (store.get(status, _name) == uint(_status)) {\n            return _emitError(ERROR_LOC_INVALID_PARAMETER);\n        }\n\n        store.set(status, _name, uint(_status));\n        _emitUpdLOCStatus(_name, store.get(status, _name), uint(_status));\n\n        return OK;\n    }\n\n    function getLOCByName(bytes32 _name) constant returns (bytes32 _locName, bytes32 _website,\n    uint _issued,\n    uint _issueLimit,\n    bytes32 _publishedHash,\n    uint _expDate,\n    uint _status,\n    uint _securityPercentage,\n    bytes32 _currency,\n    uint _createDate) {\n        _website = store.get(website, _name);\n        _issued = store.get(issued, _name);\n        _issueLimit = store.get(issueLimit, _name);\n        _publishedHash = store.get(publishedHash, _name);\n        _expDate = store.get(expDate, _name);\n        _status = store.get(status, _name);\n        _currency = store.get(currency, _name);\n        _createDate = store.get(createDate, _name);\n        return (_name, _website, _issued, _issueLimit, _publishedHash, _expDate, _status, 10, _currency, _createDate);\n    }\n\n    function getLOCById(uint _id) constant returns (bytes32 locName, bytes32 website,\n    uint issued,\n    uint issueLimit,\n    bytes32 publishedHash,\n    uint expDate,\n    uint status,\n    uint securityPercentage,\n    bytes32 currency,\n    uint creatrDate) {\n        bytes32 _name = store.get(offeringCompaniesNames, _id);\n        return getLOCByName(_name);\n    }\n\n    function getLOCNames() constant returns (bytes32[]) {\n        return store.get(offeringCompaniesNames);\n    }\n\n    function getLOCCount() constant returns (uint) {\n        return store.count(offeringCompaniesNames);\n    }\n\n    function _getPlatformAndTokenForSymbol(bytes32 _symbol) private constant returns (address _platform, address _token) {\n        ERC20ManagerInterface _erc20Manager = ERC20ManagerInterface(lookupManager(\"ERC20Manager\"));\n        _token = _erc20Manager.getTokenAddressBySymbol(_symbol);\n        _platform = ChronoBankAssetProxyInterface(_token).chronoBankPlatform();\n    }\n\n    function _emitNewLOC(bytes32 _locName, uint count) internal {\n        LOCManager(getEventsHistory()).emitNewLOC(_locName, count);\n    }\n\n    function _emitRemLOC(bytes32 _locName) internal {\n        LOCManager(getEventsHistory()).emitRemLOC(_locName);\n    }\n\n    function _emitUpdateLOC(bytes32 _locName, bytes32 _newName) internal {\n        LOCManager(getEventsHistory()).emitUpdateLOC(_locName, _newName);\n    }\n\n    function _emitUpdLOCStatus(bytes32 _locName, uint _oldStatus, uint _newStatus) internal {\n        LOCManager(getEventsHistory()).emitUpdLOCStatus(_locName, _oldStatus, _newStatus);\n    }\n\n    function _emitHashUpdate(bytes32 _locName, bytes32 _oldHash, bytes32 _newHash) internal {\n        LOCManager(getEventsHistory()).emitHashUpdate(_locName, _oldHash, _newHash);\n    }\n\n    function _emitReissue(bytes32 _locName, uint _value) internal {\n        LOCManager(getEventsHistory()).emitReissue(_locName, _value);\n    }\n\n    function _emitRevoke(bytes32 _locName, uint _value) internal {\n        LOCManager(getEventsHistory()).emitRevoke(_locName, _value);\n    }\n\n    function _handleResult(uint error) internal returns (uint) {\n        if (error != OK && error != MULTISIG_ADDED) {\n            return _emitError(error);\n        }\n        return error;\n    }\n\n    function _emitError(uint error) internal returns (uint) {\n        LOCManager(getEventsHistory()).emitError(error);\n        return error;\n    }\n\n    function _emitAssetSent(bytes32 symbol, address to, uint value) internal  {\n        LOCManager(getEventsHistory()).emitAssetSent(symbol, to, value);\n    }\n\n    function() {\n        throw;\n    }\n}\n",
  "sourcePath": "/Users/ahiatsevich/Development/chronobank/SmartContracts/contracts/loc/LOCManager.sol",
  "compiler": {
    "name": "solc",
    "version": "0.4.21+commit.dfe3193c.Emscripten.clang"
  },
  "schemaVersion": "2.0.0",
  "updatedAt": "2018-04-05T14:52:03.930Z"
}