{
  "contractName": "LOCManager",
  "abi": [
    {
      "constant": false,
      "inputs": [
        {
          "name": "_locName",
          "type": "bytes32"
        },
        {
          "name": "_newName",
          "type": "bytes32"
        }
      ],
      "name": "emitUpdateLOC",
      "outputs": [],
      "payable": false,
      "stateMutability": "nonpayable",
      "type": "function"
    },
    {
      "constant": true,
      "inputs": [],
      "name": "getLOCCount",
      "outputs": [
        {
          "name": "",
          "type": "uint256"
        }
      ],
      "payable": false,
      "stateMutability": "view",
      "type": "function"
    },
    {
      "constant": false,
      "inputs": [
        {
          "name": "_name",
          "type": "bytes32"
        }
      ],
      "name": "removeLOC",
      "outputs": [
        {
          "name": "errorCode",
          "type": "uint256"
        }
      ],
      "payable": false,
      "stateMutability": "nonpayable",
      "type": "function"
    },
    {
      "constant": true,
      "inputs": [
        {
          "name": "_id",
          "type": "uint256"
        }
      ],
      "name": "getLOCById",
      "outputs": [
        {
          "name": "locName",
          "type": "bytes32"
        },
        {
          "name": "website",
          "type": "bytes32"
        },
        {
          "name": "issued",
          "type": "uint256"
        },
        {
          "name": "issueLimit",
          "type": "uint256"
        },
        {
          "name": "publishedHash",
          "type": "bytes32"
        },
        {
          "name": "expDate",
          "type": "uint256"
        },
        {
          "name": "status",
          "type": "uint256"
        },
        {
          "name": "securityPercentage",
          "type": "uint256"
        },
        {
          "name": "currency",
          "type": "bytes32"
        },
        {
          "name": "creatrDate",
          "type": "uint256"
        }
      ],
      "payable": false,
      "stateMutability": "view",
      "type": "function"
    },
    {
      "constant": false,
      "inputs": [
        {
          "name": "_symbol",
          "type": "bytes32"
        },
        {
          "name": "_to",
          "type": "address"
        },
        {
          "name": "_value",
          "type": "uint256"
        }
      ],
      "name": "sendAsset",
      "outputs": [
        {
          "name": "errorCode",
          "type": "uint256"
        }
      ],
      "payable": false,
      "stateMutability": "nonpayable",
      "type": "function"
    },
    {
      "constant": false,
      "inputs": [
        {
          "name": "_locName",
          "type": "bytes32"
        },
        {
          "name": "_count",
          "type": "uint256"
        }
      ],
      "name": "emitNewLOC",
      "outputs": [],
      "payable": false,
      "stateMutability": "nonpayable",
      "type": "function"
    },
    {
      "constant": false,
      "inputs": [],
      "name": "claimContractOwnership",
      "outputs": [
        {
          "name": "",
          "type": "bool"
        }
      ],
      "payable": false,
      "stateMutability": "nonpayable",
      "type": "function"
    },
    {
      "constant": true,
      "inputs": [
        {
          "name": "_identifier",
          "type": "bytes32"
        }
      ],
      "name": "lookupManager",
      "outputs": [
        {
          "name": "manager",
          "type": "address"
        }
      ],
      "payable": false,
      "stateMutability": "view",
      "type": "function"
    },
    {
      "constant": true,
      "inputs": [],
      "name": "wallet",
      "outputs": [
        {
          "name": "",
          "type": "address"
        }
      ],
      "payable": false,
      "stateMutability": "view",
      "type": "function"
    },
    {
      "constant": true,
      "inputs": [],
      "name": "contractsManager",
      "outputs": [
        {
          "name": "",
          "type": "address"
        }
      ],
      "payable": false,
      "stateMutability": "view",
      "type": "function"
    },
    {
      "constant": false,
      "inputs": [
        {
          "name": "_to",
          "type": "address"
        }
      ],
      "name": "changeContractOwnership",
      "outputs": [
        {
          "name": "",
          "type": "bool"
        }
      ],
      "payable": false,
      "stateMutability": "nonpayable",
      "type": "function"
    },
    {
      "constant": true,
      "inputs": [],
      "name": "pendingContractOwner",
      "outputs": [
        {
          "name": "",
          "type": "address"
        }
      ],
      "payable": false,
      "stateMutability": "view",
      "type": "function"
    },
    {
      "constant": false,
      "inputs": [
        {
          "name": "locName",
          "type": "bytes32"
        },
        {
          "name": "_oldStatus",
          "type": "uint256"
        },
        {
          "name": "_newStatus",
          "type": "uint256"
        }
      ],
      "name": "emitUpdLOCStatus",
      "outputs": [],
      "payable": false,
      "stateMutability": "nonpayable",
      "type": "function"
    },
    {
      "constant": false,
      "inputs": [
        {
          "name": "_value",
          "type": "uint256"
        },
        {
          "name": "_locName",
          "type": "bytes32"
        }
      ],
      "name": "revokeAsset",
      "outputs": [
        {
          "name": "errorCode",
          "type": "uint256"
        }
      ],
      "payable": false,
      "stateMutability": "nonpayable",
      "type": "function"
    },
    {
      "constant": false,
      "inputs": [
        {
          "name": "_eventsHistory",
          "type": "address"
        }
      ],
      "name": "setEventsHistory",
      "outputs": [],
      "payable": false,
      "stateMutability": "nonpayable",
      "type": "function"
    },
    {
      "constant": false,
      "inputs": [
        {
          "name": "_name",
          "type": "bytes32"
        },
        {
          "name": "_newname",
          "type": "bytes32"
        },
        {
          "name": "_website",
          "type": "bytes32"
        },
        {
          "name": "_issueLimit",
          "type": "uint256"
        },
        {
          "name": "_publishedHash",
          "type": "bytes32"
        },
        {
          "name": "_expDate",
          "type": "uint256"
        }
      ],
      "name": "setLOC",
      "outputs": [
        {
          "name": "",
          "type": "uint256"
        }
      ],
      "payable": false,
      "stateMutability": "nonpayable",
      "type": "function"
    },
    {
      "constant": false,
      "inputs": [
        {
          "name": "_contractsManager",
          "type": "address"
        }
      ],
      "name": "setContractsManager",
      "outputs": [],
      "payable": false,
      "stateMutability": "nonpayable",
      "type": "function"
    },
    {
      "constant": true,
      "inputs": [
        {
          "name": "_name",
          "type": "bytes32"
        }
      ],
      "name": "getLOCByName",
      "outputs": [
        {
          "name": "_locName",
          "type": "bytes32"
        },
        {
          "name": "_website",
          "type": "bytes32"
        },
        {
          "name": "_issued",
          "type": "uint256"
        },
        {
          "name": "_issueLimit",
          "type": "uint256"
        },
        {
          "name": "_publishedHash",
          "type": "bytes32"
        },
        {
          "name": "_expDate",
          "type": "uint256"
        },
        {
          "name": "_status",
          "type": "uint256"
        },
        {
          "name": "_securityPercentage",
          "type": "uint256"
        },
        {
          "name": "_currency",
          "type": "bytes32"
        },
        {
          "name": "_createDate",
          "type": "uint256"
        }
      ],
      "payable": false,
      "stateMutability": "view",
      "type": "function"
    },
    {
      "constant": false,
      "inputs": [
        {
          "name": "_locName",
          "type": "bytes32"
        },
        {
          "name": "_value",
          "type": "uint256"
        }
      ],
      "name": "emitRevoke",
      "outputs": [],
      "payable": false,
      "stateMutability": "nonpayable",
      "type": "function"
    },
    {
      "constant": false,
      "inputs": [],
      "name": "destroy",
      "outputs": [],
      "payable": false,
      "stateMutability": "nonpayable",
      "type": "function"
    },
    {
      "constant": false,
      "inputs": [
        {
          "name": "_name",
          "type": "bytes32"
        },
        {
          "name": "_status",
          "type": "uint8"
        }
      ],
      "name": "setStatus",
      "outputs": [
        {
          "name": "errorCode",
          "type": "uint256"
        }
      ],
      "payable": false,
      "stateMutability": "nonpayable",
      "type": "function"
    },
    {
      "constant": false,
      "inputs": [
        {
          "name": "_locName",
          "type": "bytes32"
        }
      ],
      "name": "emitRemLOC",
      "outputs": [],
      "payable": false,
      "stateMutability": "nonpayable",
      "type": "function"
    },
    {
      "constant": false,
      "inputs": [
        {
          "name": "_symbol",
          "type": "bytes32"
        },
        {
          "name": "_to",
          "type": "address"
        },
        {
          "name": "_value",
          "type": "uint256"
        }
      ],
      "name": "emitAssetSent",
      "outputs": [],
      "payable": false,
      "stateMutability": "nonpayable",
      "type": "function"
    },
    {
      "constant": false,
      "inputs": [
        {
          "name": "_locName",
          "type": "bytes32"
        },
        {
          "name": "_value",
          "type": "uint256"
        }
      ],
      "name": "emitReissue",
      "outputs": [],
      "payable": false,
      "stateMutability": "nonpayable",
      "type": "function"
    },
    {
      "constant": false,
      "inputs": [
        {
          "name": "_to",
          "type": "address"
        }
      ],
      "name": "transferContractOwnership",
      "outputs": [
        {
          "name": "",
          "type": "bool"
        }
      ],
      "payable": false,
      "stateMutability": "nonpayable",
      "type": "function"
    },
    {
      "constant": false,
      "inputs": [
        {
          "name": "_name",
          "type": "bytes32"
        },
        {
          "name": "_website",
          "type": "bytes32"
        },
        {
          "name": "_issueLimit",
          "type": "uint256"
        },
        {
          "name": "_publishedHash",
          "type": "bytes32"
        },
        {
          "name": "_expDate",
          "type": "uint256"
        },
        {
          "name": "_currency",
          "type": "bytes32"
        }
      ],
      "name": "addLOC",
      "outputs": [
        {
          "name": "",
          "type": "uint256"
        }
      ],
      "payable": false,
      "stateMutability": "nonpayable",
      "type": "function"
    },
    {
      "constant": false,
      "inputs": [
        {
          "name": "_locName",
          "type": "bytes32"
        },
        {
          "name": "_oldHash",
          "type": "bytes32"
        },
        {
          "name": "_newHash",
          "type": "bytes32"
        }
      ],
      "name": "emitHashUpdate",
      "outputs": [],
      "payable": false,
      "stateMutability": "nonpayable",
      "type": "function"
    },
    {
      "constant": false,
      "inputs": [
        {
          "name": "_value",
          "type": "uint256"
        },
        {
          "name": "_locName",
          "type": "bytes32"
        }
      ],
      "name": "reissueAsset",
      "outputs": [
        {
          "name": "errorCode",
          "type": "uint256"
        }
      ],
      "payable": false,
      "stateMutability": "nonpayable",
      "type": "function"
    },
    {
      "constant": true,
      "inputs": [],
      "name": "contractOwner",
      "outputs": [
        {
          "name": "",
          "type": "address"
        }
      ],
      "payable": false,
      "stateMutability": "view",
      "type": "function"
    },
    {
      "constant": true,
      "inputs": [],
      "name": "getLOCNames",
      "outputs": [
        {
          "name": "",
          "type": "bytes32[]"
        }
      ],
      "payable": false,
      "stateMutability": "view",
      "type": "function"
    },
    {
      "constant": false,
      "inputs": [
        {
          "name": "tokens",
          "type": "address[]"
        },
        {
          "name": "_to",
          "type": "address"
        }
      ],
      "name": "withdrawnTokens",
      "outputs": [
        {
          "name": "",
          "type": "uint256"
        }
      ],
      "payable": false,
      "stateMutability": "nonpayable",
      "type": "function"
    },
    {
      "constant": false,
      "inputs": [
        {
          "name": "_errorCode",
          "type": "uint256"
        }
      ],
      "name": "emitError",
      "outputs": [],
      "payable": false,
      "stateMutability": "nonpayable",
      "type": "function"
    },
    {
      "constant": false,
      "inputs": [
        {
          "name": "_contractsManager",
          "type": "address"
        },
        {
          "name": "_wallet",
          "type": "address"
        }
      ],
      "name": "init",
      "outputs": [
        {
          "name": "",
          "type": "uint256"
        }
      ],
      "payable": false,
      "stateMutability": "nonpayable",
      "type": "function"
    },
    {
      "constant": true,
      "inputs": [
        {
          "name": "key",
          "type": "address"
        }
      ],
      "name": "isAuthorized",
      "outputs": [
        {
          "name": "",
          "type": "bool"
        }
      ],
      "payable": false,
      "stateMutability": "view",
      "type": "function"
    },
    {
      "constant": true,
      "inputs": [],
      "name": "getEventsHistory",
      "outputs": [
        {
          "name": "",
          "type": "address"
        }
      ],
      "payable": false,
      "stateMutability": "view",
      "type": "function"
    },
    {
      "inputs": [
        {
          "name": "_store",
          "type": "address"
        },
        {
          "name": "_crate",
          "type": "bytes32"
        }
      ],
      "payable": false,
      "stateMutability": "nonpayable",
      "type": "constructor"
    },
    {
      "payable": false,
      "stateMutability": "nonpayable",
      "type": "fallback"
    },
    {
      "anonymous": false,
      "inputs": [
        {
          "indexed": true,
          "name": "self",
          "type": "address"
        },
        {
          "indexed": false,
          "name": "symbol",
          "type": "bytes32"
        },
        {
          "indexed": true,
          "name": "to",
          "type": "address"
        },
        {
          "indexed": false,
          "name": "value",
          "type": "uint256"
        }
      ],
      "name": "AssetSent",
      "type": "event"
    },
    {
      "anonymous": false,
      "inputs": [
        {
          "indexed": true,
          "name": "self",
          "type": "address"
        },
        {
          "indexed": false,
          "name": "locName",
          "type": "bytes32"
        },
        {
          "indexed": false,
          "name": "oldHash",
          "type": "bytes32"
        },
        {
          "indexed": false,
          "name": "newHash",
          "type": "bytes32"
        }
      ],
      "name": "HashUpdate",
      "type": "event"
    },
    {
      "anonymous": false,
      "inputs": [
        {
          "indexed": true,
          "name": "self",
          "type": "address"
        },
        {
          "indexed": false,
          "name": "locName",
          "type": "bytes32"
        },
        {
          "indexed": false,
          "name": "count",
          "type": "uint256"
        }
      ],
      "name": "NewLOC",
      "type": "event"
    },
    {
      "anonymous": false,
      "inputs": [
        {
          "indexed": true,
          "name": "self",
          "type": "address"
        },
        {
          "indexed": false,
          "name": "locName",
          "type": "bytes32"
        },
        {
          "indexed": false,
          "name": "newName",
          "type": "bytes32"
        }
      ],
      "name": "UpdateLOC",
      "type": "event"
    },
    {
      "anonymous": false,
      "inputs": [
        {
          "indexed": true,
          "name": "self",
          "type": "address"
        },
        {
          "indexed": true,
          "name": "locName",
          "type": "bytes32"
        }
      ],
      "name": "RemLOC",
      "type": "event"
    },
    {
      "anonymous": false,
      "inputs": [
        {
          "indexed": true,
          "name": "self",
          "type": "address"
        },
        {
          "indexed": false,
          "name": "locName",
          "type": "bytes32"
        },
        {
          "indexed": false,
          "name": "oldStatus",
          "type": "uint256"
        },
        {
          "indexed": false,
          "name": "newStatus",
          "type": "uint256"
        }
      ],
      "name": "UpdLOCStatus",
      "type": "event"
    },
    {
      "anonymous": false,
      "inputs": [
        {
          "indexed": true,
          "name": "self",
          "type": "address"
        },
        {
          "indexed": false,
          "name": "locName",
          "type": "bytes32"
        },
        {
          "indexed": false,
          "name": "value",
          "type": "uint256"
        }
      ],
      "name": "Reissue",
      "type": "event"
    },
    {
      "anonymous": false,
      "inputs": [
        {
          "indexed": true,
          "name": "self",
          "type": "address"
        },
        {
          "indexed": false,
          "name": "locName",
          "type": "bytes32"
        },
        {
          "indexed": false,
          "name": "value",
          "type": "uint256"
        }
      ],
      "name": "Revoke",
      "type": "event"
    },
    {
      "anonymous": false,
      "inputs": [
        {
          "indexed": true,
          "name": "self",
          "type": "address"
        },
        {
          "indexed": false,
          "name": "errorCode",
          "type": "uint256"
        }
      ],
      "name": "Error",
      "type": "event"
    }
  ],
  "bytecode": "0x606060405234156200001057600080fd5b60405160408062002ba88339810160405280805191906020018051915082905081818181816200005160008383640100000000620025c7620002e182021704565b505060028054600160a060020a03338116600160a060020a03199283161790925560058054309093169290911691909117905550620000c69250600691507f6f66666572696e67436f6d70616e6965734e616d6573000000000000000000009050640100000000620025ed6200030782021704565b6200010160097f7765627369746500000000000000000000000000000000000000000000000000640100000000620026ba6200041682021704565b6200013c600a7f7075626c69736865644861736800000000000000000000000000000000000000640100000000620026ba6200041682021704565b62000177600b7f63757272656e6379000000000000000000000000000000000000000000000000640100000000620026ba6200041682021704565b620001b2600c7f6973737565640000000000000000000000000000000000000000000000000000640100000000620026ba6200041682021704565b620001ed600d7f69737375654c696d697400000000000000000000000000000000000000000000640100000000620026ba6200041682021704565b62000228600e7f6578704461746500000000000000000000000000000000000000000000000000640100000000620026ba6200041682021704565b62000263600f7f7374617475730000000000000000000000000000000000000000000000000000640100000000620026ba6200041682021704565b6200029e60107f6372656174654461746500000000000000000000000000000000000000000000640100000000620026ba6200041682021704565b620002d960117f77616c6c657453746f7261676500000000000000000000000000000000000000640100000000620026ca6200043082021704565b505062000468565b8254600160a060020a031916600160a060020a0392909216919091178255600190910155565b6200035e82826040519081527f636f756e74000000000000000000000000000000000000000000000000000000602082015260250160405180910390206200043064010000000002620026ca176401000000009004565b620003b882600101826040519081527f696e646578657300000000000000000000000000000000000000000000000000602082015260270160405180910390206200043064010000000002620026ca176401000000009004565b6200041282600201826040519081527f76616c7565730000000000000000000000000000000000000000000000000000602082015260260160405180910390206200043064010000000002620026ca176401000000009004565b5050565b620004128282640100000000620026ca6200043082021704565b81546200044c9082640100000000620026ee6200045082021704565b9055565b811515806200045d575080155b156200041257600080fd5b61273080620004786000396000f30060606040526004361061019d5763ffffffff60e060020a60003504166312b3e86281146101ad57806323400cf6146101c85780633b993649146101ed5780633c22b5af14610203578063404166b61461026f57806341f70189146102945780634592cd1d146102ad5780634fe59012146102d4578063521eb2731461030657806353253d3114610319578063557f4bc91461032c5780635aa77d3c1461034b578063628234861461035e57806363e05a7c1461037a5780636521afd71461039357806371749ac7146103b257806371d3b573146103d75780637613251f146103f6578063823ad10d1461040c57806383197ef0146104255780638de654ba146104385780638e784379146104545780639e17a7531461046a578063a2f11a851461048f578063a843c51f146104a8578063afe8bf93146104c7578063b357f0da146104ec578063c46f734b14610508578063ce606ee014610521578063d44770e114610534578063d8f9659b1461059a578063df26ca08146105f4578063f09a40161461060a578063fe9fbb801461062f578063fff10aba1461064e575b34156101a857600080fd5b600080fd5b34156101b857600080fd5b6101c6600435602435610661565b005b34156101d357600080fd5b6101db6106b0565b60405190815260200160405180910390f35b34156101f857600080fd5b6101db6004356106c9565b341561020e57600080fd5b6102196004356107e5565b604051998a5260208a01989098526040808a01979097526060890195909552608088019390935260a087019190915260c086015260e0850152610100840152610120830191909152610140909101905180910390f35b341561027a57600080fd5b6101db600435600160a060020a0360243516604435610830565b341561029f57600080fd5b6101c660043560243561091f565b34156102b857600080fd5b6102c061096e565b604051901515815260200160405180910390f35b34156102df57600080fd5b6102ea6004356109ba565b604051600160a060020a03909116815260200160405180910390f35b341561031157600080fd5b6102ea610a3e565b341561032457600080fd5b6102ea610a51565b341561033757600080fd5b6102c0600160a060020a0360043516610a60565b341561035657600080fd5b6102ea610ab7565b341561036957600080fd5b6101c6600435602435604435610ac6565b341561038557600080fd5b6101db600435602435610b23565b341561039e57600080fd5b6101c6600160a060020a0360043516610c8b565b34156103bd57600080fd5b6101db60043560243560443560643560843560a435610cc1565b34156103e257600080fd5b6101c6600160a060020a0360043516610ea8565b341561040157600080fd5b610219600435610edf565b341561041757600080fd5b6101c6600435602435610fa5565b341561043057600080fd5b6101c6610ff4565b341561044357600080fd5b6101db60043560ff6024351661108a565b341561045f57600080fd5b6101c660043561113c565b341561047557600080fd5b6101c6600435600160a060020a036024351660443561117d565b341561049a57600080fd5b6101c66004356024356111d7565b34156104b357600080fd5b6102c0600160a060020a0360043516611226565b34156104d257600080fd5b6101db60043560243560443560643560843560a43561129f565b34156104f757600080fd5b6101c660043560243560443561136e565b341561051357600080fd5b6101db6004356024356113cb565b341561052c57600080fd5b6102ea611524565b341561053f57600080fd5b610547611533565b60405160208082528190810183818151815260200191508051906020019060200280838360005b8381101561058657808201518382015260200161056e565b505050509050019250505060405180910390f35b34156105a557600080fd5b6101db600460248135818101908301358060208181020160405190810160405280939291908181526020018383602002808284375094965050509235600160a060020a0316925061154d915050565b34156105ff57600080fd5b6101c660043561169e565b341561061557600080fd5b6101db600160a060020a03600435811690602435166116e5565b341561063a57600080fd5b6102c0600160a060020a036004351661173d565b341561065957600080fd5b6102ea6117e3565b6106696117f2565b600160a060020a03167f859432cf3ef34d4c3b49848b2a78f5deded8c5215bbc5af84b0b45143709c730838360405191825260208201526040908101905180910390a25050565b60006106c381600663ffffffff6117f616565b90505b90565b60006106d3611813565b9050600181146106ed576106e68161194b565b90506107e0565b6106f682611971565b1515610707576106e66103e8611985565b610710826119ee565b15610720576106e66103eb611985565b610733600060068463ffffffff611a0c16565b61074760006009848263ffffffff611a2616565b61075b6000600d848263ffffffff611a2616565b61076f6000600c848263ffffffff611a2616565b61078360006010848263ffffffff611a2616565b6107976000600a848263ffffffff611a2616565b6107ab6000600e848263ffffffff611a2616565b6107bf6000600b848263ffffffff611a2616565b6107d360006010848263ffffffff611a2616565b6107dc82611a38565b5060015b919050565b6000808080808080808080806108038160068e63ffffffff611a9616565b905061080e81610edf565b9a509a509a509a509a509a509a509a509a509a50509193959799509193959799565b60008060008061083e611813565b935060018414610858576108518461194b565b9350610915565b61086187611ab5565b9250925061086d610a3e565b905080600160a060020a031663d9caed1283888860006040516020015260405160e060020a63ffffffff8616028152600160a060020a0393841660048201529190921660248201526044810191909152606401602060405180830381600087803b15156108d957600080fd5b6102c65a03f115156108ea57600080fd5b505050604051805190501515610905576108516103ef611985565b610910878787611bb9565b600193505b5050509392505050565b6109276117f2565b600160a060020a03167fc145a293b84bfd203f83a51c887e4a7cfd69e94d97175a0cfedee731ac42874c838360405191825260208201526040908101905180910390a25050565b60035460009033600160a060020a0390811691161461098f575060006106c6565b506003805460028054600160a060020a0319908116600160a060020a03841617909155169055600190565b600454600090600160a060020a031663bc65792783836040516020015260405160e060020a63ffffffff84160281526004810191909152602401602060405180830381600087803b1515610a0d57600080fd5b6102c65a03f11515610a1e57600080fd5b5050506040518051915050600160a060020a03811615156107e057600080fd5b60006106c381601163ffffffff611c3616565b600454600160a060020a031681565b60025460009033600160a060020a03908116911614156107e057600160a060020a0382161515610a92575060006107e0565b5060038054600160a060020a038316600160a060020a03199091161790556001919050565b600354600160a060020a031681565b610ace6117f2565b600160a060020a03167f53b00f41cbc4b7de5706fcbc6263bf35511abd6d9de1bc5e53383a48c586261a84848460405192835260208301919091526040808301919091526060909101905180910390a2505050565b600080600080600080610b34611813565b955060018614610b4e57610b478661194b565b9550610c80565b610b57876119ee565b1515610b6857610b476103ea611985565b610b7b6000600c8963ffffffff611c9516565b9450848811610c7257610b976000600b8963ffffffff611c9516565b9350610ba284611ab5565b92509250610bae610a3e565b9050600181600160a060020a0316636d5aa45885878c60006040516020015260405160e060020a63ffffffff8616028152600160a060020a03909316600484015260248301919091526044820152606401602060405180830381600087803b1515610c1857600080fd5b6102c65a03f11515610c2957600080fd5b505050604051805190501415610c6257610c4f6000600c898b890363ffffffff611a2616565b610c598789611ca2565b60019550610c6d565b610b476103f3611985565b610c80565b610c7d6103f2611985565b95505b505050505092915050565b60025433600160a060020a0390811691161415610cbe5760058054600160a060020a031916600160a060020a0383161790555b50565b6000610ccc3361173d565b15610e9e57610cda87611971565b1515610cf257610ceb6103e8611985565b9050610e9e565b610cfb876119ee565b15610d0b57610ceb6103eb611985565b851515610d1d57610ceb6103ec611985565b610d278787611d0d565b858714610de657610d4260006006898963ffffffff611d6016565b610d6a600987610d5a6000838c63ffffffff611c9516565b600092919063ffffffff611a2616565b610d82600d87610d5a6000838c63ffffffff611c9516565b610d9a600a87610d5a6000838c63ffffffff611c9516565b610db2600e87610d5a6000838c63ffffffff611c9516565b610dca600b87610d5a6000838c63ffffffff611c9516565b610de2601087610d5a6000838c63ffffffff611c9516565b8596505b610df9600060098963ffffffff611c9516565b8514610e1357610e1360006009898863ffffffff611a2616565b610e266000600d8963ffffffff611c9516565b8414610e4057610e406000600d898763ffffffff611a2616565b610e536000600a8963ffffffff611c9516565b8314610e6d57610e6d6000600a898663ffffffff611a2616565b610e806000600e8963ffffffff611c9516565b8214610e9a57610e9a6000600e898563ffffffff611a2616565b5060015b9695505050505050565b60025433600160a060020a0390811691161415610cbe5760048054600160a060020a038316600160a060020a031990911617905550565b6000808080808080808080610efc8160098d63ffffffff611c9516565b9850610f116000600c8d63ffffffff611c9516565b9750610f266000600d8d63ffffffff611c9516565b9650610f3b6000600a8d63ffffffff611c9516565b9550610f506000600e8d63ffffffff611c9516565b9450610f656000600f8d63ffffffff611c9516565b9350610f7a6000600b8d63ffffffff611c9516565b9150610f8f600060108d63ffffffff611c9516565b8b9a50600a935090509193959799509193959799565b610fad6117f2565b600160a060020a03167f596e6e7149b1bee6fbb4600421c0c1dbb6d8c930942e88d976ff16c5a4c36de4838360405191825260208201526040908101905180910390a25050565b60025433600160a060020a039081169116141561108857600454600160a060020a031663c375c2ef3060006040516020015260405160e060020a63ffffffff8416028152600160a060020a039091166004820152602401602060405180830381600087803b151561106457600080fd5b6102c65a03f1151561107557600080fd5b5050506040518051905050611088611d76565b565b6000611094611813565b9050600181146110ae576110a78161194b565b9050611136565b6110b783611971565b15156110c8576110a76103e8611985565b8160038111156110d457fe5b6110e76000600f8663ffffffff611c9516565b14156110f8576110a76103ec611985565b61110a600f84846003811115610d5a57fe5b611132836111216000600f8363ffffffff611c9516565b84600381111561112d57fe5b611d99565b5060015b92915050565b806111456117f2565b600160a060020a03167fee5ac2c3b886aafee842da34458ece5978e6a2f25bd4cf416cb6de15e9123b8060405160405180910390a350565b81600160a060020a031661118f6117f2565b600160a060020a03167f5a76ac301d83fd69e9182d51f4d166a232e361578fba9b67612ba18cb577ebd6858460405191825260208201526040908101905180910390a3505050565b6111df6117f2565b600160a060020a03167f8d1562f2eb2dacf77bc2222979221684eacec5d02a20eb16e309c346964cc49e838360405191825260208201526040908101905180910390a25050565b60025460009033600160a060020a03908116911614156107e057600160a060020a0382161515611258575060006107e0565b600354600160a060020a03161561127a5760038054600160a060020a03191690555b5060028054600160a060020a038316600160a060020a03199091161790556001919050565b60006112aa3361173d565b15610e9e576112b887611971565b156112c857610ceb6103e9611985565b6112db600060068963ffffffff611df516565b6112ef60006009898963ffffffff611a2616565b6113036000600d898863ffffffff611a2616565b6113176000600a898763ffffffff611a2616565b61132b6000600e898663ffffffff611a2616565b61133f6000600b898563ffffffff611a2616565b61135360006010894263ffffffff611a2616565b610e9a876113696000600663ffffffff6117f616565b611e0a565b6113766117f2565b600160a060020a03167f0feb0875de2ce4b1f14a44a2a6e2e4a610cb2d8741bb0944bf6b7b7bb74f7d8384848460405192835260208301919091526040808301919091526060909101905180910390a2505050565b6000806000806000806113dc611813565b9550600186146113ef57610b478661194b565b6113f8876119ee565b151561140957610b476103ea611985565b61141c6000600c8963ffffffff611c9516565b9450846114326000600d8a63ffffffff611c9516565b0388116115195761144c6000600b8963ffffffff611c9516565b935061145784611ab5565b92509250611463610a3e565b9050600181600160a060020a031663b682da5385878c60006040516020015260405160e060020a63ffffffff8616028152600160a060020a03909316600484015260248301919091526044820152606401602060405180830381600087803b15156114cd57600080fd5b6102c65a03f115156114de57600080fd5b50505060405180519050141561150e576115046000600c89888c0163ffffffff611a2616565b610c598789611e5d565b610b476103f1611985565b610c7d6103f0611985565b600254600160a060020a031681565b61153b6125b5565b6106c36000600663ffffffff611eb016565b60025460009081908190819033600160a060020a039081169116141561169557600092505b85518310156116905785838151811061158757fe5b90602001906020020151915081600160a060020a03166370a082313060006040516020015260405160e060020a63ffffffff8416028152600160a060020a039091166004820152602401602060405180830381600087803b15156115ea57600080fd5b6102c65a03f115156115fb57600080fd5b505050604051805191505080156116855781600160a060020a031663a9059cbb868360006040516020015260405160e060020a63ffffffff8516028152600160a060020a0390921660048301526024820152604401602060405180830381600087803b151561166957600080fd5b6102c65a03f1151561167a57600080fd5b505050604051805150505b600190920191611572565b600193505b50505092915050565b6116a66117f2565b600160a060020a03167f9cf38cf2dbf9139f5c32639950507b10775fbbe0421f3e168bc2d1bb1ae3208c8260405190815260200160405180910390a250565b60025460009033600160a060020a039081169116141561113657611729837f4c4f434d616e6167657200000000000000000000000000000000000000000000611ecc565b50611132600060118463ffffffff6120bd16565b6000806117697f557365724d616e616765720000000000000000000000000000000000000000006109ba565b905080600160a060020a0316632aa09e5a8460006040516020015260405160e060020a63ffffffff8416028152600160a060020a039091166004820152602401602060405180830381600087803b15156117c257600080fd5b6102c65a03f115156117d357600080fd5b5050506040518051949350505050565b600554600160a060020a031690565b3390565b600061180c838360ea60020a621cd95d02612126565b9392505050565b60008060006118417f50656e64696e674d616e616765720000000000000000000000000000000000006109ba565b915081600160a060020a031633600160a060020a031614151561194157600036604051808383808284378201915050925050506040518091039020905081600160a060020a0316630fee1efc82600036303360006040516020015260405160e060020a63ffffffff881602815260048101868152600160a060020a0380851660448401528316606483015260806024830190815260848301869052909160a40186868082843782019150509650505050505050602060405180830381600087803b151561190d57600080fd5b6102c65a03f1151561191e57600080fd5b505050604051805193505060018314611937578261193a565b60035b9250611946565b600192505b505090565b60006001821415801561195f575060038214155b1561196d576106e682611985565b5090565b60006111368160068463ffffffff61213316565b600061198f6117e3565b600160a060020a031663df26ca088360405160e060020a63ffffffff84160281526004810191909152602401600060405180830381600087803b15156119d457600080fd5b6102c65a03f115156119e557600080fd5b50929392505050565b60006001611a056000600f8563ffffffff611c9516565b1492915050565b611a21838360ea60020a621cd95d028461214a565b505050565b611a32848484846121f8565b50505050565b611a406117e3565b600160a060020a0316638e7843798260405160e060020a63ffffffff84160281526004810191909152602401600060405180830381600087803b1515611a8557600080fd5b6102c65a03f11515611a3257600080fd5b6000611aad848460ea60020a621cd95d0285612281565b949350505050565b6000806000611ae37f45524332304d616e6167657200000000000000000000000000000000000000006109ba565b905080600160a060020a031663fa7fdeb78560006040516020015260405160e060020a63ffffffff84160281526004810191909152602401602060405180830381600087803b1515611b3457600080fd5b6102c65a03f11515611b4557600080fd5b5050506040518051925050600160a060020a0382166349752baf6000604051602001526040518163ffffffff1660e060020a028152600401602060405180830381600087803b1515611b9657600080fd5b6102c65a03f11515611ba757600080fd5b50505060405180519050925050915091565b611bc16117e3565b600160a060020a0316639e17a75384848460405160e060020a63ffffffff86160281526004810193909352600160a060020a0390911660248301526044820152606401600060405180830381600087803b1515611c1d57600080fd5b6102c65a03f11515611c2e57600080fd5b505050505050565b815460018301548254600092600160a060020a03169163d3a3968691846040516020015260405160e060020a63ffffffff851602815260048101929092526024820152604401602060405180830381600087803b15156117c257600080fd5b6000611aad84848461229e565b611caa6117e3565b600160a060020a031663823ad10d838360405160e060020a63ffffffff851602815260048101929092526024820152604401600060405180830381600087803b1515611cf557600080fd5b6102c65a03f11515611d0657600080fd5b5050505050565b611d156117e3565b600160a060020a03166312b3e862838360405160e060020a63ffffffff851602815260048101929092526024820152604401600060405180830381600087803b1515611cf557600080fd5b611a32848460ea60020a621cd95d028585612338565b60025433600160a060020a03908116911614156110885733600160a060020a0316ff5b611da16117e3565b600160a060020a0316636282348684848460405160e060020a63ffffffff8616028152600481019390935260248301919091526044820152606401600060405180830381600087803b1515611c1d57600080fd5b611a21838360ea60020a621cd95d0284612393565b611e126117e3565b600160a060020a03166341f70189838360405160e060020a63ffffffff851602815260048101929092526024820152604401600060405180830381600087803b1515611cf557600080fd5b611e656117e3565b600160a060020a031663a2f11a85838360405160e060020a63ffffffff851602815260048101929092526024820152604401600060405180830381600087803b1515611cf557600080fd5b611eb86125b5565b61180c838360ea60020a621cd95d026123e7565b60025460009081908190819033600160a060020a03908116911614611ef057600080fd5b600160a060020a0386161515611f0557600080fd5b600454600160a060020a0316158015935080611f2f5750600454600160a060020a03878116911614155b15611f505760048054600160a060020a031916600160a060020a0388161790555b600454600160a060020a031691508163bc65792760006040516020015260405160e060020a63ffffffff83160281527f4d756c74694576656e7473486973746f727900000000000000000000000000006004820152602401602060405180830381600087803b1515611fc157600080fd5b6102c65a03f11515611fd257600080fd5b5050506040518051915050600160a060020a038116158015906120035750600554600160a060020a03828116911614155b156120245760058054600160a060020a031916600160a060020a0383161790555b84156120ab5781600160a060020a031663b7c46cd5308760006040516020015260405160e060020a63ffffffff8516028152600160a060020a0390921660048301526024820152604401602060405180830381600087803b151561208757600080fd5b6102c65a03f1151561209857600080fd5b505050604051805160011490506120ab57fe5b82156116905760069695505050505050565b825460018401548354600160a060020a03909216916379a7cfee91908460405160e060020a63ffffffff861602815260048101939093526024830191909152600160a060020a03166044820152606401600060405180830381600087803b1515611c1d57600080fd5b6000611aad848484612460565b6000611aad848460ea60020a621cd95d02856124d8565b600080600061215b878787876124d8565b1515612166576121ef565b612171878787612126565b9250612182876002880187866124f4565b9150612193878760010187876124f4565b9050828110156121bd576121ad8760018801878585612519565b6121bd8760028801878486612519565b6121ce876001880187876000612519565b6121df876002880187866000612519565b6121ef878787600019870161253d565b50505050505050565b835460018501548454600160a060020a039092169163a14ff85791908560405191825260208201526040908101905180910390208460405160e060020a63ffffffff8616028152600481019390935260248301919091526044820152606401600060405180830381600087803b151561227057600080fd5b6102c65a03f115156121ef57600080fd5b6000612295856002860185600186016124f4565b95945050505050565b825460018401548354600092600160a060020a0316916337d9d7fc9185604051918252602082015260409081019051809103902060006040516020015260405160e060020a63ffffffff851602815260048101929092526024820152604401602060405180830381600087803b151561231657600080fd5b6102c65a03f1151561232757600080fd5b505050604051805195945050505050565b6000612346868686866124d8565b151561235157611c2e565b612360868660010186866124f4565b90506123728660028701868486612519565b6123828660018701868585612519565b611c2e866001870186866000612519565b60006123a1858585856124d8565b156123ab57611d06565b6123b6858585612126565b60010190506123cb8560028601858486612519565b6123db8560018601858585612519565b611d068585858461253d565b6123ef6125b5565b6000806123fd868686612126565b91508160405180591061240d5750595b90808252806020026020018201604052509250600090505b818110156124575761243986868684612281565b83828151811061244557fe5b60209081029091010152600101612425565b50509392505050565b825460018401548354600092600160a060020a0316916353aa3f5e9185604051918252602082015260409081019051809103902060006040516020015260405160e060020a63ffffffff851602815260048101929092526024820152604401602060405180830381600087803b151561231657600080fd5b60006124e9858560010185856124f4565b151595945050505050565b600061229585858585604051918252602082015260409081019051809103902061229e565b611d06858585856040519182526020820152604090810190518091039020846121f8565b835460018501548454600160a060020a03909216916353e7168b91908560405191825260208201526040908101905180910390208460405160e060020a63ffffffff8616028152600481019390935260248301919091526044820152606401600060405180830381600087803b151561227057600080fd5b60206040519081016040526000815290565b8254600160a060020a031916600160a060020a0392909216919091178255600190910155565b61262e82826040519081527f636f756e74000000000000000000000000000000000000000000000000000000602082015260250160405180910390206126ca565b61267282600101826040519081527f696e646578657300000000000000000000000000000000000000000000000000602082015260270160405180910390206126ca565b6126b682600201826040519081527f76616c7565730000000000000000000000000000000000000000000000000000602082015260260160405180910390206126ca565b5050565b6126b682826126ca565b6126b682825b81546126d690826126ee565b9055565b81546126d690826126ee565b81546126d690825b811515806126fa575080155b156126b657600080fd00a165627a7a7230582079d1f2d0bf61f0eebe2f889bf3f7600601a4a0ce36eeb3ad45cd28820d27d0240029",
  "source": "pragma solidity ^0.4.11;\n\nimport \"../core/common/BaseManager.sol\";\nimport \"../assets/FeeInterface.sol\";\nimport \"../core/erc20/ERC20ManagerInterface.sol\";\nimport \"../core/platform/ChronoBankAssetProxyInterface.sol\";\nimport \"./LOCManagerEmitter.sol\";\nimport \"./ReissuableWalletInterface.sol\";\n\ncontract LOCManager is LOCManagerEmitter, BaseManager {\n\n    uint constant ERROR_LOC_NOT_FOUND = 1000;\n    uint constant ERROR_LOC_EXISTS = 1001;\n    uint constant ERROR_LOC_INACTIVE = 1002;\n    uint constant ERROR_LOC_SHOULD_NO_BE_ACTIVE = 1003;\n    uint constant ERROR_LOC_INVALID_PARAMETER = 1004;\n    uint constant ERROR_LOC_INVALID_INVOCATION = 1005;\n    uint constant ERROR_LOC_ADD_CONTRACT = 1006;\n    uint constant ERROR_LOC_SEND_ASSET = 1007;\n    uint constant ERROR_LOC_REQUESTED_ISSUE_VALUE_EXCEEDED = 1008;\n    uint constant ERROR_LOC_REISSUING_ASSET_FAILED = 1009;\n    uint constant ERROR_LOC_REQUESTED_REVOKE_VALUE_EXCEEDED = 1010;\n    uint constant ERROR_LOC_REVOKING_ASSET_FAILED = 1011;\n\n    StorageInterface.Set offeringCompaniesNames;\n    StorageInterface.Bytes32Bytes32Mapping website;\n    StorageInterface.Bytes32Bytes32Mapping publishedHash;\n    StorageInterface.Bytes32Bytes32Mapping currency;\n    StorageInterface.Bytes32UIntMapping issued;\n    StorageInterface.Bytes32UIntMapping issueLimit;\n    StorageInterface.Bytes32UIntMapping expDate;\n    StorageInterface.Bytes32UIntMapping status;\n    StorageInterface.Bytes32UIntMapping createDate;\n    StorageInterface.Address walletStorage;\n\n    enum Status {maintenance, active, suspended, bankrupt}\n\n    function LOCManager(Storage _store, bytes32 _crate) BaseManager(_store, _crate) {\n        offeringCompaniesNames.init('offeringCompaniesNames');\n        website.init('website');\n        publishedHash.init('publishedHash');\n        currency.init('currency');\n        issued.init('issued');\n        issueLimit.init('issueLimit');\n        expDate.init('expDate');\n        status.init('status');\n        createDate.init('createDate');\n        walletStorage.init('walletStorage');\n    }\n\n    function init(address _contractsManager, address _wallet) onlyContractOwner returns (uint) {\n        BaseManager.init(_contractsManager, \"LOCManager\");\n        store.set(walletStorage, _wallet);\n        return OK;\n    }\n\n    function wallet() public constant returns (address) {\n        return store.get(walletStorage);\n    }\n\n    function isLOCExist(bytes32 _locName) private constant returns (bool) {\n        return store.includes(offeringCompaniesNames, _locName);\n    }\n\n    function isLOCActive(bytes32 _locName) private constant returns (bool) {\n        return store.get(status, _locName) == uint(Status.active);\n    }\n\n    function sendAsset(bytes32 _symbol, address _to, uint _value) returns (uint errorCode) {\n        errorCode = multisig();\n        if (OK != errorCode) {\n            return _handleResult(errorCode);\n        }\n\n        var (_, _token) = _getPlatformAndTokenForSymbol(_symbol);\n        ReissuableWalletInterface _wallet = ReissuableWalletInterface(wallet());\n        if (!_wallet.withdraw(_token, _to, _value)) {\n            return _emitError(ERROR_LOC_SEND_ASSET);\n        }\n\n        _emitAssetSent(_symbol, _to, _value);\n        return OK;\n    }\n\n    function reissueAsset(uint _value, bytes32 _locName) returns (uint errorCode) {\n        errorCode = multisig();\n        if (OK != errorCode) {\n            return _handleResult(errorCode);\n        }\n\n        if (!isLOCActive(_locName)) {\n            return _emitError(ERROR_LOC_INACTIVE);\n        }\n\n        uint _issued = store.get(issued, _locName);\n        if (_value <= store.get(issueLimit, _locName) - _issued) {\n            bytes32 _symbol = store.get(currency, _locName);\n            var (_platform, _) = _getPlatformAndTokenForSymbol(_symbol);\n            ReissuableWalletInterface _wallet = ReissuableWalletInterface(wallet());\n            if (_wallet.reissue(_platform, _symbol, _value) == OK) {\n                store.set(issued, _locName, _issued + _value);\n                _emitReissue(_locName, _value);\n                errorCode = OK;\n            } else {\n                errorCode = _emitError(ERROR_LOC_REISSUING_ASSET_FAILED);\n            }\n        } else {\n            errorCode = _emitError(ERROR_LOC_REQUESTED_ISSUE_VALUE_EXCEEDED);\n        }\n    }\n\n    function revokeAsset(uint _value, bytes32 _locName) returns (uint errorCode) {\n        errorCode = multisig();\n        if (OK != errorCode) {\n            return _handleResult(errorCode);\n        }\n\n        if (!isLOCActive(_locName)) {\n            return _emitError(ERROR_LOC_INACTIVE);\n        }\n\n        uint _issued = store.get(issued, _locName);\n        if (_value <= _issued) {\n            bytes32 _symbol = store.get(currency, _locName);\n            var (_platform, _) = _getPlatformAndTokenForSymbol(_symbol);\n            ReissuableWalletInterface _wallet = ReissuableWalletInterface(wallet());\n            if (_wallet.revoke(_platform, _symbol, _value) == OK) {\n                store.set(issued, _locName, _issued - _value);\n                _emitRevoke(_locName, _value);\n                errorCode = OK;\n            }\n            else {\n                errorCode = _emitError(ERROR_LOC_REVOKING_ASSET_FAILED);\n            }\n        }\n        else {\n            errorCode = _emitError(ERROR_LOC_REQUESTED_REVOKE_VALUE_EXCEEDED);\n        }\n    }\n\n    function removeLOC(bytes32 _name) returns (uint errorCode) {\n        errorCode = multisig();\n        if (OK != errorCode) {\n            return _handleResult(errorCode);\n        }\n\n        if (!isLOCExist(_name)) {\n            return _emitError(ERROR_LOC_NOT_FOUND);\n        }\n\n        if (isLOCActive(_name)) {\n            return _emitError(ERROR_LOC_SHOULD_NO_BE_ACTIVE);\n        }\n\n        store.remove(offeringCompaniesNames, _name);\n        store.set(website, _name, 0);\n        store.set(issueLimit, _name, 0);\n        store.set(issued, _name, 0);\n        store.set(createDate, _name, 0);\n        store.set(publishedHash, _name, 0);\n        store.set(expDate, _name, 0);\n        store.set(currency, _name, 0);\n        store.set(createDate, _name, 0);\n        _emitRemLOC(_name);\n\n        return OK;\n    }\n\n    function addLOC(bytes32 _name, bytes32 _website, uint _issueLimit, bytes32 _publishedHash, uint _expDate, bytes32 _currency) onlyAuthorized returns (uint) {\n        if (isLOCExist(_name)) {\n            return _emitError(ERROR_LOC_EXISTS);\n        }\n\n        store.add(offeringCompaniesNames, _name);\n        store.set(website, _name, _website);\n        store.set(issueLimit, _name, _issueLimit);\n        store.set(publishedHash, _name, _publishedHash);\n        store.set(expDate, _name, _expDate);\n        store.set(currency, _name, _currency);\n        store.set(createDate, _name, now);\n        _emitNewLOC(_name, store.count(offeringCompaniesNames));\n\n        return OK;\n    }\n\n    function setLOC(bytes32 _name, bytes32 _newname, bytes32 _website, uint _issueLimit, bytes32 _publishedHash, uint _expDate) onlyAuthorized returns (uint) {\n        if (!isLOCExist(_name)) {\n            return _emitError(ERROR_LOC_NOT_FOUND);\n        }\n\n        if (isLOCActive(_name)) {\n            return _emitError(ERROR_LOC_SHOULD_NO_BE_ACTIVE);\n        }\n\n        if (_newname == bytes32(0)) {\n            return _emitError(ERROR_LOC_INVALID_PARAMETER);\n        }\n        _emitUpdateLOC(_name, _newname);\n        if (!(_newname == _name)) {\n            store.set(offeringCompaniesNames, _name, _newname);\n            store.set(website, _newname, store.get(website, _name));\n            store.set(issueLimit, _newname, store.get(issueLimit, _name));\n            store.set(publishedHash, _newname, store.get(publishedHash, _name));\n            store.set(expDate, _newname, store.get(expDate, _name));\n            store.set(currency, _newname, store.get(currency, _name));\n            store.set(createDate, _newname, store.get(createDate, _name));\n            _name = _newname;\n        }\n        if (!(_website == store.get(website, _name))) {\n            store.set(website, _name, _website);\n        }\n        if (!(_issueLimit == store.get(issueLimit, _name))) {\n            store.set(issueLimit, _name, _issueLimit);\n        }\n        if (!(_publishedHash == store.get(publishedHash, _name))) {\n            store.set(publishedHash, _name, _publishedHash);\n        }\n        if (!(_expDate == store.get(expDate, _name))) {\n            store.set(expDate, _name, _expDate);\n        }\n\n        return OK;\n    }\n\n    function setStatus(bytes32 _name, Status _status) returns (uint errorCode) {\n        errorCode = multisig();\n        if (OK != errorCode) {\n            return _handleResult(errorCode);\n        }\n\n        if (!isLOCExist(_name)) {\n            return _emitError(ERROR_LOC_NOT_FOUND);\n        }\n\n        if (store.get(status, _name) == uint(_status)) {\n            return _emitError(ERROR_LOC_INVALID_PARAMETER);\n        }\n\n        store.set(status, _name, uint(_status));\n        _emitUpdLOCStatus(_name, store.get(status, _name), uint(_status));\n\n        return OK;\n    }\n\n    function getLOCByName(bytes32 _name) constant returns (bytes32 _locName, bytes32 _website,\n    uint _issued,\n    uint _issueLimit,\n    bytes32 _publishedHash,\n    uint _expDate,\n    uint _status,\n    uint _securityPercentage,\n    bytes32 _currency,\n    uint _createDate) {\n        _website = store.get(website, _name);\n        _issued = store.get(issued, _name);\n        _issueLimit = store.get(issueLimit, _name);\n        _publishedHash = store.get(publishedHash, _name);\n        _expDate = store.get(expDate, _name);\n        _status = store.get(status, _name);\n        _currency = store.get(currency, _name);\n        _createDate = store.get(createDate, _name);\n        return (_name, _website, _issued, _issueLimit, _publishedHash, _expDate, _status, 10, _currency, _createDate);\n    }\n\n    function getLOCById(uint _id) constant returns (bytes32 locName, bytes32 website,\n    uint issued,\n    uint issueLimit,\n    bytes32 publishedHash,\n    uint expDate,\n    uint status,\n    uint securityPercentage,\n    bytes32 currency,\n    uint creatrDate) {\n        bytes32 _name = store.get(offeringCompaniesNames, _id);\n        return getLOCByName(_name);\n    }\n\n    function getLOCNames() constant returns (bytes32[]) {\n        return store.get(offeringCompaniesNames);\n    }\n\n    function getLOCCount() constant returns (uint) {\n        return store.count(offeringCompaniesNames);\n    }\n\n    function _getPlatformAndTokenForSymbol(bytes32 _symbol) private constant returns (address _platform, address _token) {\n        ERC20ManagerInterface _erc20Manager = ERC20ManagerInterface(lookupManager(\"ERC20Manager\"));\n        _token = _erc20Manager.getTokenAddressBySymbol(_symbol);\n        _platform = ChronoBankAssetProxyInterface(_token).chronoBankPlatform();\n    }\n\n    function _emitNewLOC(bytes32 _locName, uint count) internal {\n        LOCManager(getEventsHistory()).emitNewLOC(_locName, count);\n    }\n\n    function _emitRemLOC(bytes32 _locName) internal {\n        LOCManager(getEventsHistory()).emitRemLOC(_locName);\n    }\n\n    function _emitUpdateLOC(bytes32 _locName, bytes32 _newName) internal {\n        LOCManager(getEventsHistory()).emitUpdateLOC(_locName, _newName);\n    }\n\n    function _emitUpdLOCStatus(bytes32 _locName, uint _oldStatus, uint _newStatus) internal {\n        LOCManager(getEventsHistory()).emitUpdLOCStatus(_locName, _oldStatus, _newStatus);\n    }\n\n    function _emitHashUpdate(bytes32 _locName, bytes32 _oldHash, bytes32 _newHash) internal {\n        LOCManager(getEventsHistory()).emitHashUpdate(_locName, _oldHash, _newHash);\n    }\n\n    function _emitReissue(bytes32 _locName, uint _value) internal {\n        LOCManager(getEventsHistory()).emitReissue(_locName, _value);\n    }\n\n    function _emitRevoke(bytes32 _locName, uint _value) internal {\n        LOCManager(getEventsHistory()).emitRevoke(_locName, _value);\n    }\n\n    function _handleResult(uint error) internal returns (uint) {\n        if (error != OK && error != MULTISIG_ADDED) {\n            return _emitError(error);\n        }\n        return error;\n    }\n\n    function _emitError(uint error) internal returns (uint) {\n        LOCManager(getEventsHistory()).emitError(error);\n        return error;\n    }\n\n    function _emitAssetSent(bytes32 symbol, address to, uint value) internal  {\n        LOCManager(getEventsHistory()).emitAssetSent(symbol, to, value);\n    }\n\n    function() {\n        throw;\n    }\n}\n",
  "sourcePath": "/Users/alesanro/Documents/Projects/ChronoBank/SmartContracts/contracts/loc/LOCManager.sol",
  "compiler": {
    "name": "solc",
    "version": "0.4.18+commit.9cf6e910.Emscripten.clang"
  },
  "schemaVersion": "1.0.1",
  "updatedAt": "2018-01-29T17:03:43.154Z"
}