{
  "contractName": "LOCWallet",
  "abi": [
    {
      "constant": false,
      "inputs": [
        {
          "name": "_symbol",
          "type": "bytes32"
        }
      ],
      "name": "fallbackAsset",
      "outputs": [
        {
          "name": "",
          "type": "bool"
        }
      ],
      "payable": false,
      "stateMutability": "nonpayable",
      "type": "function"
    },
    {
      "constant": false,
      "inputs": [
        {
          "name": "_symbol",
          "type": "bytes32"
        },
        {
          "name": "_to",
          "type": "address"
        }
      ],
      "name": "fallbackAssetPassOwnership",
      "outputs": [
        {
          "name": "",
          "type": "bool"
        }
      ],
      "payable": false,
      "stateMutability": "nonpayable",
      "type": "function"
    },
    {
      "constant": false,
      "inputs": [],
      "name": "claimContractOwnership",
      "outputs": [
        {
          "name": "",
          "type": "bool"
        }
      ],
      "payable": false,
      "stateMutability": "nonpayable",
      "type": "function"
    },
    {
      "constant": true,
      "inputs": [
        {
          "name": "_identifier",
          "type": "bytes32"
        }
      ],
      "name": "lookupManager",
      "outputs": [
        {
          "name": "manager",
          "type": "address"
        }
      ],
      "payable": false,
      "stateMutability": "view",
      "type": "function"
    },
    {
      "constant": false,
      "inputs": [
        {
          "name": "_symbol",
          "type": "bytes32"
        },
        {
          "name": "_from",
          "type": "address"
        },
        {
          "name": "_data",
          "type": "bytes"
        }
      ],
      "name": "fallbackAssetInvoke",
      "outputs": [
        {
          "name": "",
          "type": "bool"
        }
      ],
      "payable": false,
      "stateMutability": "nonpayable",
      "type": "function"
    },
    {
      "constant": true,
      "inputs": [],
      "name": "contractsManager",
      "outputs": [
        {
          "name": "",
          "type": "address"
        }
      ],
      "payable": false,
      "stateMutability": "view",
      "type": "function"
    },
    {
      "constant": false,
      "inputs": [
        {
          "name": "_to",
          "type": "address"
        }
      ],
      "name": "changeContractOwnership",
      "outputs": [
        {
          "name": "",
          "type": "bool"
        }
      ],
      "payable": false,
      "stateMutability": "nonpayable",
      "type": "function"
    },
    {
      "constant": true,
      "inputs": [],
      "name": "pendingContractOwner",
      "outputs": [
        {
          "name": "",
          "type": "address"
        }
      ],
      "payable": false,
      "stateMutability": "view",
      "type": "function"
    },
    {
      "constant": false,
      "inputs": [
        {
          "name": "_contractsManager",
          "type": "address"
        }
      ],
      "name": "setContractsManager",
      "outputs": [],
      "payable": false,
      "stateMutability": "nonpayable",
      "type": "function"
    },
    {
      "constant": false,
      "inputs": [
        {
          "name": "_to",
          "type": "address"
        }
      ],
      "name": "transferContractOwnership",
      "outputs": [
        {
          "name": "",
          "type": "bool"
        }
      ],
      "payable": false,
      "stateMutability": "nonpayable",
      "type": "function"
    },
    {
      "constant": true,
      "inputs": [],
      "name": "contractOwner",
      "outputs": [
        {
          "name": "",
          "type": "address"
        }
      ],
      "payable": false,
      "stateMutability": "view",
      "type": "function"
    },
    {
      "constant": false,
      "inputs": [
        {
          "name": "tokens",
          "type": "address[]"
        },
        {
          "name": "_to",
          "type": "address"
        }
      ],
      "name": "withdrawnTokens",
      "outputs": [
        {
          "name": "",
          "type": "uint256"
        }
      ],
      "payable": false,
      "stateMutability": "nonpayable",
      "type": "function"
    },
    {
      "constant": true,
      "inputs": [
        {
          "name": "key",
          "type": "address"
        }
      ],
      "name": "isAuthorized",
      "outputs": [
        {
          "name": "",
          "type": "bool"
        }
      ],
      "payable": false,
      "stateMutability": "view",
      "type": "function"
    },
    {
      "inputs": [
        {
          "name": "_store",
          "type": "address"
        },
        {
          "name": "_crate",
          "type": "bytes32"
        }
      ],
      "payable": false,
      "stateMutability": "nonpayable",
      "type": "constructor"
    },
    {
      "constant": false,
      "inputs": [
        {
          "name": "_contractsManager",
          "type": "address"
        }
      ],
      "name": "init",
      "outputs": [
        {
          "name": "",
          "type": "bool"
        }
      ],
      "payable": false,
      "stateMutability": "nonpayable",
      "type": "function"
    },
    {
      "constant": false,
      "inputs": [],
      "name": "destroy",
      "outputs": [],
      "payable": false,
      "stateMutability": "nonpayable",
      "type": "function"
    },
    {
      "constant": false,
      "inputs": [
        {
          "name": "tokens",
          "type": "address[]"
        }
      ],
      "name": "destroy",
      "outputs": [
        {
          "name": "",
          "type": "uint256"
        }
      ],
      "payable": false,
      "stateMutability": "nonpayable",
      "type": "function"
    },
    {
      "constant": false,
      "inputs": [
        {
          "name": "_platform",
          "type": "address"
        },
        {
          "name": "_symbol",
          "type": "bytes32"
        },
        {
          "name": "_amount",
          "type": "uint256"
        }
      ],
      "name": "reissue",
      "outputs": [
        {
          "name": "",
          "type": "uint256"
        }
      ],
      "payable": false,
      "stateMutability": "nonpayable",
      "type": "function"
    },
    {
      "constant": false,
      "inputs": [
        {
          "name": "_platform",
          "type": "address"
        },
        {
          "name": "_symbol",
          "type": "bytes32"
        },
        {
          "name": "_amount",
          "type": "uint256"
        }
      ],
      "name": "revoke",
      "outputs": [
        {
          "name": "",
          "type": "uint256"
        }
      ],
      "payable": false,
      "stateMutability": "nonpayable",
      "type": "function"
    },
    {
      "constant": false,
      "inputs": [
        {
          "name": "_asset",
          "type": "address"
        },
        {
          "name": "_from",
          "type": "address"
        },
        {
          "name": "_amount",
          "type": "uint256"
        }
      ],
      "name": "deposit",
      "outputs": [
        {
          "name": "",
          "type": "bool"
        }
      ],
      "payable": false,
      "stateMutability": "nonpayable",
      "type": "function"
    },
    {
      "constant": false,
      "inputs": [
        {
          "name": "_asset",
          "type": "address"
        },
        {
          "name": "_to",
          "type": "address"
        },
        {
          "name": "_amount",
          "type": "uint256"
        }
      ],
      "name": "withdraw",
      "outputs": [
        {
          "name": "",
          "type": "bool"
        }
      ],
      "payable": false,
      "stateMutability": "nonpayable",
      "type": "function"
    }
  ],
  "bytecode": "0x6060604052341561000f57600080fd5b60405160408061128a83398101604052808051919060200180519150829050818181818161004c6000838364010000000061114e61007582021704565b505060028054600160a060020a03191633600160a060020a03161790555061009b945050505050565b8254600160a060020a031916600160a060020a0392909216919091178255600190910155565b6111e0806100aa6000396000f3006060604052600436106100f85763ffffffff60e060020a60003504166319ab453c81146100fd578063306a547d1461013057806344fc19cc146101465780634592cd1d146101685780634fe590121461017b57806351ae07d9146101ad57806353253d3114610212578063557f4bc9146102255780635aa77d3c146102445780636d5aa4581461025757806371d3b5731461028e57806383197ef0146102af5780638340f549146102c2578063a843c51f146102ea578063b682da5314610309578063c6786e5a1461032e578063ce606ee01461037d578063d8f9659b14610390578063d9caed12146103ea578063fe9fbb8014610412575b600080fd5b341561010857600080fd5b61011c600160a060020a0360043516610431565b604051901515815260200160405180910390f35b341561013b57600080fd5b61011c60043561046f565b341561015157600080fd5b61011c600435600160a060020a036024351661050c565b341561017357600080fd5b61011c61068a565b341561018657600080fd5b6101916004356106d7565b604051600160a060020a03909116815260200160405180910390f35b34156101b857600080fd5b61011c600480359060248035600160a060020a0316919060649060443590810190830135806020601f8201819004810201604051908101604052818152929190602084018383808284375094965061075b95505050505050565b341561021d57600080fd5b610191610872565b341561023057600080fd5b61011c600160a060020a0360043516610881565b341561024f57600080fd5b6101916108d8565b341561026257600080fd5b61027c600160a060020a03600435166024356044356108e7565b60405190815260200160405180910390f35b341561029957600080fd5b6102ad600160a060020a0360043516610b10565b005b34156102ba57600080fd5b6102ad610b46565b34156102cd57600080fd5b61011c600160a060020a0360043581169060243516604435610b64565b34156102f557600080fd5b61011c600160a060020a0360043516610c28565b341561031457600080fd5b61027c600160a060020a0360043516602435604435610ca1565b341561033957600080fd5b61027c6004602481358181019083013580602081810201604051908101604052809392919081815260200183836020028082843750949650610e8295505050505050565b341561038857600080fd5b610191610eb3565b341561039b57600080fd5b61027c600460248135818101908301358060208181020160405190810160405280939291908181526020018383602002808284375094965050509235600160a060020a03169250610ec2915050565b34156103f557600080fd5b61011c600160a060020a0360043581169060243516604435611013565b341561041d57600080fd5b61011c600160a060020a03600435166110a8565b60025460009033600160a060020a039081169116141561046a575060048054600160a060020a031916600160a060020a03831617905560015b919050565b60006104886000805160206111958339815191526106d7565b600160a060020a0316636bc8acf53360006040516020015260405160e060020a63ffffffff8416028152600160a060020a039091166004820152602401602060405180830381600087803b15156104de57600080fd5b6102c65a03f115156104ef57600080fd5b50505060405180519050151561050457600080fd5b506001919050565b6000806105266000805160206111958339815191526106d7565b600160a060020a0316636bc8acf53360006040516020015260405160e060020a63ffffffff8416028152600160a060020a039091166004820152602401602060405180830381600087803b151561057c57600080fd5b6102c65a03f1151561058d57600080fd5b5050506040518051905015156105a257600080fd5b33600160a060020a0316634bde38c86000604051602001526040518163ffffffff1660e060020a028152600401602060405180830381600087803b15156105e857600080fd5b6102c65a03f115156105f957600080fd5b505050604051805190509050600181600160a060020a031663fd83915e868660006040516020015260405160e060020a63ffffffff85160281526004810192909252600160a060020a03166024820152604401602060405180830381600087803b151561066557600080fd5b6102c65a03f1151561067657600080fd5b505050604051805190501491505092915050565b60035460009033600160a060020a039081169116146106ab575060006106d4565b506003805460028054600160a060020a0319908116600160a060020a0384161790915516905560015b90565b600454600090600160a060020a031663bc65792783836040516020015260405160e060020a63ffffffff84160281526004810191909152602401602060405180830381600087803b151561072a57600080fd5b6102c65a03f1151561073b57600080fd5b5050506040518051915050600160a060020a038116151561046a57600080fd5b60006107746000805160206111958339815191526106d7565b600160a060020a0316636bc8acf53360006040516020015260405160e060020a63ffffffff8416028152600160a060020a039091166004820152602401602060405180830381600087803b15156107ca57600080fd5b6102c65a03f115156107db57600080fd5b5050506040518051905015156107f057600080fd5b82600160a060020a03168260405180828051906020019080838360005b8381101561082557808201518382015260200161080d565b50505050905090810190601f1680156108525780820380516001836020036101000a031916815260200191505b5091505060006040518083038160008661646e5a03f19695505050505050565b600454600160a060020a031681565b60025460009033600160a060020a039081169116141561046a57600160a060020a03821615156108b35750600061046a565b5060038054600160a060020a038316600160a060020a03199091161790556001919050565b600354600160a060020a031681565b60008060006109036000805160206111758339815191526106d7565b600160a060020a031633600160a060020a031614151561092257600080fd5b6109396000805160206111958339815191526106d7565b915081600160a060020a031663e5ebb7a58760006040516020015260405160e060020a63ffffffff8416028152600160a060020a039091166004820152602401602060405180830381600087803b151561099257600080fd5b6102c65a03f115156109a357600080fd5b5050506040518051915050600160a060020a0381161515610a355785600160a060020a031663ca448a88868660006040516020015260405160e060020a63ffffffff851602815260048101929092526024820152604401602060405180830381600087803b1515610a1357600080fd5b6102c65a03f11515610a2457600080fd5b505050604051805190509250610b07565b80600160a060020a031663698f76836000604051602001526040518163ffffffff1660e060020a028152600401602060405180830381600087803b1515610a7b57600080fd5b6102c65a03f11515610a8c57600080fd5b50505060405180519050600160a060020a031663ca448a88868660006040516020015260405160e060020a63ffffffff851602815260048101929092526024820152604401602060405180830381600087803b1515610aea57600080fd5b6102c65a03f11515610afb57600080fd5b50505060405180519350505b50509392505050565b60025433600160a060020a0390811691161415610b435760048054600160a060020a031916600160a060020a0383161790555b50565b60025433600160a060020a0390811691161415610b6257600080fd5b565b6000610b7d6000805160206111758339815191526106d7565b600160a060020a031633600160a060020a0316141515610b9c57600080fd5b83600160a060020a03166323b872dd84308560006040516020015260405160e060020a63ffffffff8616028152600160a060020a0393841660048201529190921660248201526044810191909152606401602060405180830381600087803b1515610c0657600080fd5b6102c65a03f11515610c1757600080fd5b505050604051805195945050505050565b60025460009033600160a060020a039081169116141561046a57600160a060020a0382161515610c5a5750600061046a565b600354600160a060020a031615610c7c5760038054600160a060020a03191690555b5060028054600160a060020a038316600160a060020a03199091161790556001919050565b6000806000610cbd6000805160206111758339815191526106d7565b600160a060020a031633600160a060020a0316141515610cdc57600080fd5b610cf36000805160206111958339815191526106d7565b915081600160a060020a031663e5ebb7a58760006040516020015260405160e060020a63ffffffff8416028152600160a060020a039091166004820152602401602060405180830381600087803b1515610d4c57600080fd5b6102c65a03f11515610d5d57600080fd5b5050506040518051915050600160a060020a0381161515610dcd5785600160a060020a031663e0873c06868660006040516020015260405160e060020a63ffffffff851602815260048101929092526024820152604401602060405180830381600087803b1515610a1357600080fd5b80600160a060020a031663d363228f6000604051602001526040518163ffffffff1660e060020a028152600401602060405180830381600087803b1515610e1357600080fd5b6102c65a03f11515610e2457600080fd5b50505060405180519050600160a060020a031663e0873c06868660006040516020015260405160e060020a63ffffffff851602815260048101929092526024820152604401602060405180830381600087803b1515610aea57600080fd5b60025460009033600160a060020a039081169116141561046a57610ea68233610ec2565b5033600160a060020a0316ff5b600254600160a060020a031681565b60025460009081908190819033600160a060020a039081169116141561100a57600092505b855183101561100557858381518110610efc57fe5b90602001906020020151915081600160a060020a03166370a082313060006040516020015260405160e060020a63ffffffff8416028152600160a060020a039091166004820152602401602060405180830381600087803b1515610f5f57600080fd5b6102c65a03f11515610f7057600080fd5b50505060405180519150508015610ffa5781600160a060020a031663a9059cbb868360006040516020015260405160e060020a63ffffffff8516028152600160a060020a0390921660048301526024820152604401602060405180830381600087803b1515610fde57600080fd5b6102c65a03f11515610fef57600080fd5b505050604051805150505b600190920191610ee7565b600193505b50505092915050565b600061102c6000805160206111758339815191526106d7565b600160a060020a031633600160a060020a031614151561104b57600080fd5b83600160a060020a031663a9059cbb848460006040516020015260405160e060020a63ffffffff8516028152600160a060020a0390921660048301526024820152604401602060405180830381600087803b1515610c0657600080fd5b6000806110d47f557365724d616e616765720000000000000000000000000000000000000000006106d7565b905080600160a060020a0316632aa09e5a8460006040516020015260405160e060020a63ffffffff8416028152600160a060020a039091166004820152602401602060405180830381600087803b151561112d57600080fd5b6102c65a03f1151561113e57600080fd5b5050506040518051949350505050565b8254600160a060020a031916600160a060020a039290921691909117825560019091015556004c4f434d616e61676572000000000000000000000000000000000000000000004173736574734d616e6167657200000000000000000000000000000000000000a165627a7a72305820a012bb6af58d3a5ceabac8137fcdad8de86aecaa021b671d3e7d122d462d30fb0029",
  "source": "pragma solidity ^0.4.11;\n\nimport \"./ReissuableWalletInterface.sol\";\nimport \"../core/common/Managed.sol\";\nimport \"../core/erc20/ERC20Interface.sol\";\nimport \"../core/platform/ChronoBankPlatformInterface.sol\";\nimport \"../assets/AssetsManagerInterface.sol\";\nimport \"../assets/TokenManagementInterface.sol\";\nimport \"../assets/ChronoBankWalletFallbackSupporter.sol\";\n\n\n/**\n* @title LOCManager's wallet contract defines a basic implementation of DepositWalletInterface\n* to provide a way to store/deposit/withdraw tokens on this contract according to access rights.\n* Here deposit/withdraw are allowed only by LOCManager contract.\n*\n* @dev Specifies a contract that helps in updating LOCManager interface by delegating token's ownership\n* to LOCManagerWallet contract\n*/\ncontract LOCWallet is ReissuableWalletInterface, ChronoBankWalletFallbackSupporter {\n\n    /**\n    * Restricts calls only for LOCManager contract\n    */\n    modifier onlyLOCManager() {\n        if (msg.sender != lookupManager(\"LOCManager\")) {\n            revert();\n        }\n        _;\n    }\n\n    function LOCWallet(Storage _store, bytes32 _crate) ChronoBankWalletFallbackSupporter(_store, _crate) {\n    }\n\n    /**\n    * Initializes contract with its ready-to-use state\n    *\n    * @param _contractsManager contracts manager address\n    *\n    * @return `true` if all went okay, `false` otherwise\n    */\n    function init(address _contractsManager) onlyContractOwner returns (bool) {\n        contractsManager = _contractsManager;\n        return true;\n    }\n\n    /**\n    * Allows contract owner to destroy a contract and withdraw all tokens associated\n    * with this address to a message sender\n    * @dev Allowed only for contract owner\n    *\n    * @param tokens an array of ERC20-compatible assets\n    *\n    * @return result code of an operation\n    */\n    function destroy(address[] tokens) onlyContractOwner returns (uint) {\n        withdrawnTokens(tokens, msg.sender);\n        selfdestruct(msg.sender);\n        return OK;\n    }\n\n    /**\n    * Forbidden to invoke this implementation of destroy method. See another one which takes tokens' addresses\n    * @dev Reverts all actions when this method was invoked\n    */\n    function destroy() onlyContractOwner {\n        revert();\n    }\n\n    /**\n    * Performs reissuing of an asset in provided platform for a specified amount.\n    * @dev Allowed only for LOCManager\n    *\n    * @param _platform platform address\n    * @param _symbol asset that is registered in a platform and needed to be reissued\n    * @param _amount a number of tokens to reissue\n    *\n    * @return result code of an operation\n    */\n    function reissue(address _platform, bytes32 _symbol, uint256 _amount) onlyLOCManager public returns (uint) {\n        address _assetsManager = lookupManager(\"AssetsManager\");\n        address _tokenExtension = AssetsManagerInterface(_assetsManager).getTokenExtension(_platform);\n        if (_tokenExtension == 0x0) {\n            return ChronoBankPlatformInterface(_platform).reissueAsset(_symbol, _amount);\n        }\n\n        return TokenManagementInterface(_tokenExtension).getReissueAssetProxy().reissueAsset(_symbol, _amount);\n    }\n\n    /**\n    * Performs revokation of an asset in provided platform for a specified amount.\n    * @dev Allowed only for LOCManager\n    *\n    * @param _platform platform address\n    * @param _symbol asset that is registered in a platform and needed to be revoked\n    * @param _amount a number of tokens to revoke\n    *\n    * @return result code of an operation\n    */\n    function revoke(address _platform, bytes32 _symbol, uint256 _amount) onlyLOCManager public returns (uint) {\n        address _assetsManager = lookupManager(\"AssetsManager\");\n        address _tokenExtension = AssetsManagerInterface(_assetsManager).getTokenExtension(_platform);\n        if (_tokenExtension == 0x0) {\n            return ChronoBankPlatformInterface(_platform).revokeAsset(_symbol, _amount);\n        }\n\n        return TokenManagementInterface(_tokenExtension).getRevokeAssetProxy().revokeAsset(_symbol, _amount);\n    }\n\n    /**\n    * Deposits some amount of tokens on wallet's account using ERC20 tokens\n    *\n    * @dev Allowed only for locManager\n    *\n    * @param _asset an address of token\n    * @param _from an address of a sender who is willing to transfer her resources\n    * @param _amount an amount of tokens (resources) a sender wants to transfer\n    *\n    * @return `true` if all successfuly completed, `false` otherwise\n    */\n    function deposit(address _asset, address _from, uint256 _amount) onlyLOCManager public returns (bool) {\n        return ERC20Interface(_asset).transferFrom(_from, this, _amount);\n    }\n\n    /**\n    * Withdraws some amount of tokens from wallet's account using ERC20 tokens\n    *\n    * @dev Allowed only for locManager\n    *\n    * @param _asset an address of token\n    * @param _to an address of a receiver who is willing to get stored resources\n    * @param _amount an amount of tokens (resources) a receiver wants to get\n    *\n    * @return `true` if all successfuly completed, `false` otherwise\n    */\n    function withdraw(address _asset, address _to, uint256 _amount) onlyLOCManager public returns (bool) {\n        return ERC20Interface(_asset).transfer(_to, _amount);\n    }\n}\n",
  "sourcePath": "/Users/alesanro/Documents/Projects/ChronoBank/SmartContracts/contracts/loc/LOCWallet.sol",
  "compiler": {
    "name": "solc",
    "version": "0.4.19+commit.c4cbbb05.Emscripten.clang"
  },
  "schemaVersion": "2.0.0",
  "updatedAt": "2018-04-02T14:47:31.298Z"
}