{
  "contractName": "LOCWallet",
  "abi": [
    {
      "constant": false,
      "inputs": [
        {
          "name": "_symbol",
          "type": "bytes32"
        }
      ],
      "name": "fallbackAsset",
      "outputs": [
        {
          "name": "",
          "type": "bool"
        }
      ],
      "payable": false,
      "stateMutability": "nonpayable",
      "type": "function"
    },
    {
      "constant": false,
      "inputs": [
        {
          "name": "_symbol",
          "type": "bytes32"
        },
        {
          "name": "_to",
          "type": "address"
        }
      ],
      "name": "fallbackAssetPassOwnership",
      "outputs": [
        {
          "name": "",
          "type": "bool"
        }
      ],
      "payable": false,
      "stateMutability": "nonpayable",
      "type": "function"
    },
    {
      "constant": false,
      "inputs": [],
      "name": "claimContractOwnership",
      "outputs": [
        {
          "name": "",
          "type": "bool"
        }
      ],
      "payable": false,
      "stateMutability": "nonpayable",
      "type": "function"
    },
    {
      "constant": true,
      "inputs": [
        {
          "name": "_identifier",
          "type": "bytes32"
        }
      ],
      "name": "lookupManager",
      "outputs": [
        {
          "name": "manager",
          "type": "address"
        }
      ],
      "payable": false,
      "stateMutability": "view",
      "type": "function"
    },
    {
      "constant": false,
      "inputs": [
        {
          "name": "_symbol",
          "type": "bytes32"
        },
        {
          "name": "_from",
          "type": "address"
        },
        {
          "name": "_data",
          "type": "bytes"
        }
      ],
      "name": "fallbackAssetInvoke",
      "outputs": [
        {
          "name": "",
          "type": "bool"
        }
      ],
      "payable": false,
      "stateMutability": "nonpayable",
      "type": "function"
    },
    {
      "constant": true,
      "inputs": [],
      "name": "contractsManager",
      "outputs": [
        {
          "name": "",
          "type": "address"
        }
      ],
      "payable": false,
      "stateMutability": "view",
      "type": "function"
    },
    {
      "constant": false,
      "inputs": [
        {
          "name": "_to",
          "type": "address"
        }
      ],
      "name": "changeContractOwnership",
      "outputs": [
        {
          "name": "",
          "type": "bool"
        }
      ],
      "payable": false,
      "stateMutability": "nonpayable",
      "type": "function"
    },
    {
      "constant": true,
      "inputs": [],
      "name": "pendingContractOwner",
      "outputs": [
        {
          "name": "",
          "type": "address"
        }
      ],
      "payable": false,
      "stateMutability": "view",
      "type": "function"
    },
    {
      "constant": false,
      "inputs": [
        {
          "name": "_contractsManager",
          "type": "address"
        }
      ],
      "name": "setContractsManager",
      "outputs": [],
      "payable": false,
      "stateMutability": "nonpayable",
      "type": "function"
    },
    {
      "constant": false,
      "inputs": [
        {
          "name": "_to",
          "type": "address"
        }
      ],
      "name": "transferContractOwnership",
      "outputs": [
        {
          "name": "",
          "type": "bool"
        }
      ],
      "payable": false,
      "stateMutability": "nonpayable",
      "type": "function"
    },
    {
      "constant": true,
      "inputs": [],
      "name": "contractOwner",
      "outputs": [
        {
          "name": "",
          "type": "address"
        }
      ],
      "payable": false,
      "stateMutability": "view",
      "type": "function"
    },
    {
      "constant": false,
      "inputs": [
        {
          "name": "tokens",
          "type": "address[]"
        },
        {
          "name": "_to",
          "type": "address"
        }
      ],
      "name": "withdrawnTokens",
      "outputs": [
        {
          "name": "",
          "type": "uint256"
        }
      ],
      "payable": false,
      "stateMutability": "nonpayable",
      "type": "function"
    },
    {
      "constant": true,
      "inputs": [
        {
          "name": "key",
          "type": "address"
        }
      ],
      "name": "isAuthorized",
      "outputs": [
        {
          "name": "",
          "type": "bool"
        }
      ],
      "payable": false,
      "stateMutability": "view",
      "type": "function"
    },
    {
      "inputs": [
        {
          "name": "_store",
          "type": "address"
        },
        {
          "name": "_crate",
          "type": "bytes32"
        }
      ],
      "payable": false,
      "stateMutability": "nonpayable",
      "type": "constructor"
    },
    {
      "constant": false,
      "inputs": [
        {
          "name": "_contractsManager",
          "type": "address"
        }
      ],
      "name": "init",
      "outputs": [
        {
          "name": "",
          "type": "bool"
        }
      ],
      "payable": false,
      "stateMutability": "nonpayable",
      "type": "function"
    },
    {
      "constant": false,
      "inputs": [],
      "name": "destroy",
      "outputs": [],
      "payable": false,
      "stateMutability": "nonpayable",
      "type": "function"
    },
    {
      "constant": false,
      "inputs": [
        {
          "name": "tokens",
          "type": "address[]"
        }
      ],
      "name": "destroy",
      "outputs": [
        {
          "name": "",
          "type": "uint256"
        }
      ],
      "payable": false,
      "stateMutability": "nonpayable",
      "type": "function"
    },
    {
      "constant": false,
      "inputs": [
        {
          "name": "_platform",
          "type": "address"
        },
        {
          "name": "_symbol",
          "type": "bytes32"
        },
        {
          "name": "_amount",
          "type": "uint256"
        }
      ],
      "name": "reissue",
      "outputs": [
        {
          "name": "",
          "type": "uint256"
        }
      ],
      "payable": false,
      "stateMutability": "nonpayable",
      "type": "function"
    },
    {
      "constant": false,
      "inputs": [
        {
          "name": "_platform",
          "type": "address"
        },
        {
          "name": "_symbol",
          "type": "bytes32"
        },
        {
          "name": "_amount",
          "type": "uint256"
        }
      ],
      "name": "revoke",
      "outputs": [
        {
          "name": "",
          "type": "uint256"
        }
      ],
      "payable": false,
      "stateMutability": "nonpayable",
      "type": "function"
    },
    {
      "constant": false,
      "inputs": [
        {
          "name": "_asset",
          "type": "address"
        },
        {
          "name": "_from",
          "type": "address"
        },
        {
          "name": "_amount",
          "type": "uint256"
        }
      ],
      "name": "deposit",
      "outputs": [
        {
          "name": "",
          "type": "bool"
        }
      ],
      "payable": false,
      "stateMutability": "nonpayable",
      "type": "function"
    },
    {
      "constant": false,
      "inputs": [
        {
          "name": "_asset",
          "type": "address"
        },
        {
          "name": "_to",
          "type": "address"
        },
        {
          "name": "_amount",
          "type": "uint256"
        }
      ],
      "name": "withdraw",
      "outputs": [
        {
          "name": "",
          "type": "bool"
        }
      ],
      "payable": false,
      "stateMutability": "nonpayable",
      "type": "function"
    }
  ],
  "bytecode": "0x6060604052341561000f57600080fd5b60405160408061119c83398101604052808051919060200180519150829050818181818161004c6000838364010000000061106061007582021704565b505060028054600160a060020a03191633600160a060020a03161790555061009b945050505050565b8254600160a060020a031916600160a060020a0392909216919091178255600190910155565b6110f2806100aa6000396000f3006060604052600436106100f85763ffffffff60e060020a60003504166319ab453c81146100fd578063306a547d1461013057806344fc19cc146101465780634592cd1d146101685780634fe590121461017b57806351ae07d9146101ad57806353253d3114610212578063557f4bc9146102255780635aa77d3c146102445780636d5aa4581461025757806371d3b5731461028e57806383197ef0146102af5780638340f549146102c2578063a843c51f146102ea578063b682da5314610309578063c6786e5a1461032e578063ce606ee01461037d578063d8f9659b14610390578063d9caed12146103ea578063fe9fbb8014610412575b600080fd5b341561010857600080fd5b61011c600160a060020a0360043516610431565b604051901515815260200160405180910390f35b341561013b57600080fd5b61011c60043561046f565b341561015157600080fd5b61011c600435600160a060020a03602435166104ff565b341561017357600080fd5b61011c610656565b341561018657600080fd5b6101916004356106a3565b604051600160a060020a03909116815260200160405180910390f35b34156101b857600080fd5b61011c600480359060248035600160a060020a0316919060649060443590810190830135806020601f8201819004810201604051908101604052818152929190602084018383808284375094965061071b95505050505050565b341561021d57600080fd5b610191610821565b341561023057600080fd5b61011c600160a060020a0360043516610830565b341561024f57600080fd5b610191610887565b341561026257600080fd5b61027c600160a060020a0360043516602435604435610896565b60405190815260200160405180910390f35b341561029957600080fd5b6102ad600160a060020a0360043516610a8b565b005b34156102ba57600080fd5b6102ad610ac1565b34156102cd57600080fd5b61011c600160a060020a0360043581169060243516604435610adf565b34156102f557600080fd5b61011c600160a060020a0360043516610b96565b341561031457600080fd5b61027c600160a060020a0360043516602435604435610c0f565b341561033957600080fd5b61027c6004602481358181019083013580602081810201604051908101604052809392919081815260200183836020028082843750949650610dc495505050505050565b341561038857600080fd5b610191610df5565b341561039b57600080fd5b61027c600460248135818101908301358060208181020160405190810160405280939291908181526020018383602002808284375094965050509235600160a060020a03169250610e04915050565b34156103f557600080fd5b61011c600160a060020a0360043581169060243516604435610f3b565b341561041d57600080fd5b61011c600160a060020a0360043516610fc7565b60025460009033600160a060020a039081169116141561046a575060048054600160a060020a031916600160a060020a03831617905560015b919050565b60006104886000805160206110a78339815191526106a3565b600160a060020a0316636bc8acf53360405160e060020a63ffffffff8416028152600160a060020a039091166004820152602401602060405180830381600087803b15156104d557600080fd5b5af115156104e257600080fd5b5050506040518051905015156104f757600080fd5b506001919050565b6000806105196000805160206110a78339815191526106a3565b600160a060020a0316636bc8acf53360405160e060020a63ffffffff8416028152600160a060020a039091166004820152602401602060405180830381600087803b151561056657600080fd5b5af1151561057357600080fd5b50505060405180519050151561058857600080fd5b33600160a060020a0316634bde38c86040518163ffffffff1660e060020a028152600401602060405180830381600087803b15156105c557600080fd5b5af115156105d257600080fd5b505050604051805190509050600181600160a060020a031663fd83915e868660405160e060020a63ffffffff85160281526004810192909252600160a060020a03166024820152604401602060405180830381600087803b151561063557600080fd5b5af1151561064257600080fd5b505050604051805190501491505092915050565b60035460009033600160a060020a03908116911614610677575060006106a0565b506003805460028054600160a060020a0319908116600160a060020a0384161790915516905560015b90565b600454600090600160a060020a031663bc6579278360405160e060020a63ffffffff84160281526004810191909152602401602060405180830381600087803b15156106ee57600080fd5b5af115156106fb57600080fd5b5050506040518051915050600160a060020a038116151561046a57600080fd5b60006107346000805160206110a78339815191526106a3565b600160a060020a0316636bc8acf53360405160e060020a63ffffffff8416028152600160a060020a039091166004820152602401602060405180830381600087803b151561078157600080fd5b5af1151561078e57600080fd5b5050506040518051905015156107a357600080fd5b82600160a060020a03168260405180828051906020019080838360005b838110156107d85780820151838201526020016107c0565b50505050905090810190601f1680156108055780820380516001836020036101000a031916815260200191505b509150506000604051808303816000865af19695505050505050565b600454600160a060020a031681565b60025460009033600160a060020a039081169116141561046a57600160a060020a03821615156108625750600061046a565b5060038054600160a060020a038316600160a060020a03199091161790556001919050565b600354600160a060020a031681565b60008060006108b26000805160206110878339815191526106a3565b600160a060020a031633600160a060020a03161415156108d157600080fd5b6108e86000805160206110a78339815191526106a3565b915081600160a060020a031663e5ebb7a58760405160e060020a63ffffffff8416028152600160a060020a039091166004820152602401602060405180830381600087803b151561093857600080fd5b5af1151561094557600080fd5b5050506040518051915050600160a060020a03811615156109ca5785600160a060020a031663ca448a88868660405160e060020a63ffffffff851602815260048101929092526024820152604401602060405180830381600087803b15156109ac57600080fd5b5af115156109b957600080fd5b505050604051805190509250610a82565b80600160a060020a031663698f76836040518163ffffffff1660e060020a028152600401602060405180830381600087803b1515610a0757600080fd5b5af11515610a1457600080fd5b50505060405180519050600160a060020a031663ca448a88868660405160e060020a63ffffffff851602815260048101929092526024820152604401602060405180830381600087803b1515610a6957600080fd5b5af11515610a7657600080fd5b50505060405180519350505b50509392505050565b60025433600160a060020a0390811691161415610abe5760048054600160a060020a031916600160a060020a0383161790555b50565b60025433600160a060020a0390811691161415610add57600080fd5b565b6000610af86000805160206110878339815191526106a3565b600160a060020a031633600160a060020a0316141515610b1757600080fd5b83600160a060020a03166323b872dd84308560405160e060020a63ffffffff8616028152600160a060020a0393841660048201529190921660248201526044810191909152606401602060405180830381600087803b1515610b7857600080fd5b5af11515610b8557600080fd5b505050604051805195945050505050565b60025460009033600160a060020a039081169116141561046a57600160a060020a0382161515610bc85750600061046a565b600354600160a060020a031615610bea5760038054600160a060020a03191690555b5060028054600160a060020a038316600160a060020a03199091161790556001919050565b6000806000610c2b6000805160206110878339815191526106a3565b600160a060020a031633600160a060020a0316141515610c4a57600080fd5b610c616000805160206110a78339815191526106a3565b915081600160a060020a031663e5ebb7a58760405160e060020a63ffffffff8416028152600160a060020a039091166004820152602401602060405180830381600087803b1515610cb157600080fd5b5af11515610cbe57600080fd5b5050506040518051915050600160a060020a0381161515610d255785600160a060020a031663e0873c06868660405160e060020a63ffffffff851602815260048101929092526024820152604401602060405180830381600087803b15156109ac57600080fd5b80600160a060020a031663d363228f6040518163ffffffff1660e060020a028152600401602060405180830381600087803b1515610d6257600080fd5b5af11515610d6f57600080fd5b50505060405180519050600160a060020a031663e0873c06868660405160e060020a63ffffffff851602815260048101929092526024820152604401602060405180830381600087803b1515610a6957600080fd5b60025460009033600160a060020a039081169116141561046a57610de88233610e04565b5033600160a060020a0316ff5b600254600160a060020a031681565b60025460009081908190819033600160a060020a0390811691161415610f3257600092505b8551831015610f2d57858381518110610e3e57fe5b90602001906020020151915081600160a060020a03166370a082313060405160e060020a63ffffffff8416028152600160a060020a039091166004820152602401602060405180830381600087803b1515610e9857600080fd5b5af11515610ea557600080fd5b50505060405180519150508015610f225781600160a060020a031663a9059cbb868360405160e060020a63ffffffff8516028152600160a060020a0390921660048301526024820152604401602060405180830381600087803b1515610f0a57600080fd5b5af11515610f1757600080fd5b505050604051805150505b600190920191610e29565b600193505b50505092915050565b6000610f546000805160206110878339815191526106a3565b600160a060020a031633600160a060020a0316141515610f7357600080fd5b83600160a060020a031663a9059cbb848460405160e060020a63ffffffff8516028152600160a060020a0390921660048301526024820152604401602060405180830381600087803b1515610b7857600080fd5b600080610ff37f557365724d616e616765720000000000000000000000000000000000000000006106a3565b905080600160a060020a0316632aa09e5a8460405160e060020a63ffffffff8416028152600160a060020a039091166004820152602401602060405180830381600087803b151561104357600080fd5b5af1151561105057600080fd5b5050506040518051949350505050565b8254600160a060020a031916600160a060020a039290921691909117825560019091015556004c4f434d616e61676572000000000000000000000000000000000000000000004173736574734d616e6167657200000000000000000000000000000000000000a165627a7a723058200ae32253e557aac0c40aa090172f72fcfb54d2f017ba724cd63e240f50eb13460029",
  "source": "/**\n * Copyright 2017–2018, LaborX PTY\n * Licensed under the AGPL Version 3 license.\n */\n\npragma solidity ^0.4.11;\n\nimport \"./ReissuableWalletInterface.sol\";\nimport \"../core/common/Managed.sol\";\nimport \"../core/erc20/ERC20Interface.sol\";\nimport \"../core/platform/ChronoBankPlatformInterface.sol\";\nimport \"../assets/AssetsManagerInterface.sol\";\nimport \"../assets/TokenManagementInterface.sol\";\nimport \"../assets/ChronoBankWalletFallbackSupporter.sol\";\n\n\n/**\n* @title LOCManager's wallet contract defines a basic implementation of DepositWalletInterface\n* to provide a way to store/deposit/withdraw tokens on this contract according to access rights.\n* Here deposit/withdraw are allowed only by LOCManager contract.\n*\n* @dev Specifies a contract that helps in updating LOCManager interface by delegating token's ownership\n* to LOCManagerWallet contract\n*/\ncontract LOCWallet is ReissuableWalletInterface, ChronoBankWalletFallbackSupporter {\n\n    /**\n    * Restricts calls only for LOCManager contract\n    */\n    modifier onlyLOCManager() {\n        if (msg.sender != lookupManager(\"LOCManager\")) {\n            revert();\n        }\n        _;\n    }\n\n    function LOCWallet(Storage _store, bytes32 _crate) ChronoBankWalletFallbackSupporter(_store, _crate) {\n    }\n\n    /**\n    * Initializes contract with its ready-to-use state\n    *\n    * @param _contractsManager contracts manager address\n    *\n    * @return `true` if all went okay, `false` otherwise\n    */\n    function init(address _contractsManager) onlyContractOwner returns (bool) {\n        contractsManager = _contractsManager;\n        return true;\n    }\n\n    /**\n    * Allows contract owner to destroy a contract and withdraw all tokens associated\n    * with this address to a message sender\n    * @dev Allowed only for contract owner\n    *\n    * @param tokens an array of ERC20-compatible assets\n    *\n    * @return result code of an operation\n    */\n    function destroy(address[] tokens) onlyContractOwner returns (uint) {\n        withdrawnTokens(tokens, msg.sender);\n        selfdestruct(msg.sender);\n        return OK;\n    }\n\n    /**\n    * Forbidden to invoke this implementation of destroy method. See another one which takes tokens' addresses\n    * @dev Reverts all actions when this method was invoked\n    */\n    function destroy() onlyContractOwner {\n        revert();\n    }\n\n    /**\n    * Performs reissuing of an asset in provided platform for a specified amount.\n    * @dev Allowed only for LOCManager\n    *\n    * @param _platform platform address\n    * @param _symbol asset that is registered in a platform and needed to be reissued\n    * @param _amount a number of tokens to reissue\n    *\n    * @return result code of an operation\n    */\n    function reissue(address _platform, bytes32 _symbol, uint256 _amount) onlyLOCManager public returns (uint) {\n        address _assetsManager = lookupManager(\"AssetsManager\");\n        address _tokenExtension = AssetsManagerInterface(_assetsManager).getTokenExtension(_platform);\n        if (_tokenExtension == 0x0) {\n            return ChronoBankPlatformInterface(_platform).reissueAsset(_symbol, _amount);\n        }\n\n        return TokenManagementInterface(_tokenExtension).getReissueAssetProxy().reissueAsset(_symbol, _amount);\n    }\n\n    /**\n    * Performs revokation of an asset in provided platform for a specified amount.\n    * @dev Allowed only for LOCManager\n    *\n    * @param _platform platform address\n    * @param _symbol asset that is registered in a platform and needed to be revoked\n    * @param _amount a number of tokens to revoke\n    *\n    * @return result code of an operation\n    */\n    function revoke(address _platform, bytes32 _symbol, uint256 _amount) onlyLOCManager public returns (uint) {\n        address _assetsManager = lookupManager(\"AssetsManager\");\n        address _tokenExtension = AssetsManagerInterface(_assetsManager).getTokenExtension(_platform);\n        if (_tokenExtension == 0x0) {\n            return ChronoBankPlatformInterface(_platform).revokeAsset(_symbol, _amount);\n        }\n\n        return TokenManagementInterface(_tokenExtension).getRevokeAssetProxy().revokeAsset(_symbol, _amount);\n    }\n\n    /**\n    * Deposits some amount of tokens on wallet's account using ERC20 tokens\n    *\n    * @dev Allowed only for locManager\n    *\n    * @param _asset an address of token\n    * @param _from an address of a sender who is willing to transfer her resources\n    * @param _amount an amount of tokens (resources) a sender wants to transfer\n    *\n    * @return `true` if all successfuly completed, `false` otherwise\n    */\n    function deposit(address _asset, address _from, uint256 _amount) onlyLOCManager public returns (bool) {\n        return ERC20Interface(_asset).transferFrom(_from, this, _amount);\n    }\n\n    /**\n    * Withdraws some amount of tokens from wallet's account using ERC20 tokens\n    *\n    * @dev Allowed only for locManager\n    *\n    * @param _asset an address of token\n    * @param _to an address of a receiver who is willing to get stored resources\n    * @param _amount an amount of tokens (resources) a receiver wants to get\n    *\n    * @return `true` if all successfuly completed, `false` otherwise\n    */\n    function withdraw(address _asset, address _to, uint256 _amount) onlyLOCManager public returns (bool) {\n        return ERC20Interface(_asset).transfer(_to, _amount);\n    }\n}\n",
  "sourcePath": "/Users/mikefluff/Documents/Programming/Chronobank/test/SmartContracts/contracts/loc/LOCWallet.sol",
  "compiler": {
    "name": "solc",
    "version": "0.4.21+commit.dfe3193c.Emscripten.clang"
  },
  "schemaVersion": "2.0.0",
  "updatedAt": "2018-04-11T07:40:05.608Z"
}