{
  "contractName": "Object",
  "abi": [
    {
      "constant": false,
      "inputs": [],
      "name": "claimContractOwnership",
      "outputs": [
        {
          "name": "",
          "type": "bool"
        }
      ],
      "payable": false,
      "stateMutability": "nonpayable",
      "type": "function"
    },
    {
      "constant": false,
      "inputs": [
        {
          "name": "_to",
          "type": "address"
        }
      ],
      "name": "changeContractOwnership",
      "outputs": [
        {
          "name": "",
          "type": "bool"
        }
      ],
      "payable": false,
      "stateMutability": "nonpayable",
      "type": "function"
    },
    {
      "constant": true,
      "inputs": [],
      "name": "pendingContractOwner",
      "outputs": [
        {
          "name": "",
          "type": "address"
        }
      ],
      "payable": false,
      "stateMutability": "view",
      "type": "function"
    },
    {
      "constant": false,
      "inputs": [],
      "name": "destroy",
      "outputs": [],
      "payable": false,
      "stateMutability": "nonpayable",
      "type": "function"
    },
    {
      "constant": false,
      "inputs": [
        {
          "name": "_to",
          "type": "address"
        }
      ],
      "name": "transferContractOwnership",
      "outputs": [
        {
          "name": "",
          "type": "bool"
        }
      ],
      "payable": false,
      "stateMutability": "nonpayable",
      "type": "function"
    },
    {
      "constant": true,
      "inputs": [],
      "name": "contractOwner",
      "outputs": [
        {
          "name": "",
          "type": "address"
        }
      ],
      "payable": false,
      "stateMutability": "view",
      "type": "function"
    },
    {
      "constant": false,
      "inputs": [
        {
          "name": "tokens",
          "type": "address[]"
        },
        {
          "name": "_to",
          "type": "address"
        }
      ],
      "name": "withdrawnTokens",
      "outputs": [
        {
          "name": "",
          "type": "uint256"
        }
      ],
      "payable": false,
      "stateMutability": "nonpayable",
      "type": "function"
    }
  ],
  "bytecode": "0x606060405260008054600160a060020a033316600160a060020a031990911617905561049c806100306000396000f3006060604052600436106100695763ffffffff60e060020a6000350416634592cd1d811461006e578063557f4bc9146100955780635aa77d3c146100b457806383197ef0146100e3578063a843c51f146100f8578063ce606ee014610117578063d8f9659b1461012a575b600080fd5b341561007957600080fd5b610081610196565b604051901515815260200160405180910390f35b34156100a057600080fd5b610081600160a060020a03600435166101ee565b34156100bf57600080fd5b6100c761024d565b604051600160a060020a03909116815260200160405180910390f35b34156100ee57600080fd5b6100f661025c565b005b341561010357600080fd5b610081600160a060020a0360043516610281565b341561012257600080fd5b6100c7610312565b341561013557600080fd5b610184600460248135818101908301358060208181020160405190810160405280939291908181526020018383602002808284375094965050509235600160a060020a03169250610321915050565b60405190815260200160405180910390f35b60015460009033600160a060020a039081169116146101b7575060006101eb565b50600180546000805473ffffffffffffffffffffffffffffffffffffffff19908116600160a060020a038416179091551681555b90565b6000805433600160a060020a039081169116141561024857600160a060020a038216151561021e57506000610248565b506001805473ffffffffffffffffffffffffffffffffffffffff1916600160a060020a0383161781555b919050565b600154600160a060020a031681565b60005433600160a060020a039081169116141561027f5733600160a060020a0316ff5b565b6000805433600160a060020a039081169116141561024857600160a060020a03821615156102b157506000610248565b600154600160a060020a0316156102e0576001805473ffffffffffffffffffffffffffffffffffffffff191690555b5060008054600160a060020a03831673ffffffffffffffffffffffffffffffffffffffff199091161790556001919050565b600054600160a060020a031681565b6000805481908190819033600160a060020a039081169116141561046757600092505b85518310156104625785838151811061035957fe5b90602001906020020151915081600160a060020a03166370a082313060006040516020015260405160e060020a63ffffffff8416028152600160a060020a039091166004820152602401602060405180830381600087803b15156103bc57600080fd5b6102c65a03f115156103cd57600080fd5b505050604051805191505080156104575781600160a060020a031663a9059cbb868360006040516020015260405160e060020a63ffffffff8516028152600160a060020a0390921660048301526024820152604401602060405180830381600087803b151561043b57600080fd5b6102c65a03f1151561044c57600080fd5b505050604051805150505b600190920191610344565b600193505b505050929150505600a165627a7a7230582019776b208ae1347c3117a3fae207d331f5b3ef96746ce070fba2acfe8ef329070029",
  "source": "pragma solidity ^0.4.11;\n\nimport './Owned.sol';\nimport \"../erc20/ERC20Interface.sol\";\n\n/**\n * @title Generic owned destroyable contract\n */\ncontract Object is Owned {\n    /**\n    *  Common result code. Means everything is fine.\n    */\n    uint constant OK = 1;\n\n    function withdrawnTokens(address[] tokens, address _to) onlyContractOwner returns(uint) {\n        for(uint i=0;i<tokens.length;i++) {\n            address token = tokens[i];\n            uint balance = ERC20Interface(token).balanceOf(this);\n            if(balance != 0)\n                ERC20Interface(token).transfer(_to,balance);\n        }\n        return OK;\n    }\n}\n",
  "sourcePath": "/Users/mikefluff/Documents/Programming/Chronobank/test/SmartContracts/contracts/core/common/Object.sol",
  "compiler": {
    "name": "solc",
    "version": "0.4.19+commit.c4cbbb05.Emscripten.clang"
  },
  "schemaVersion": "1.0.1",
  "updatedAt": "2018-02-05T14:43:54.627Z"
}