{
  "contractName": "OwnedContract",
  "abi": [
    {
      "constant": true,
      "inputs": [],
      "name": "contractOwner",
      "outputs": [
        {
          "name": "",
          "type": "address"
        }
      ],
      "payable": false,
      "stateMutability": "view",
      "type": "function"
    }
  ],
  "bytecode": "0x6060604052341561000f57600080fd5b60c48061001d6000396000f300606060405260043610603e5763ffffffff7c0100000000000000000000000000000000000000000000000000000000600035041663ce606ee081146043575b600080fd5b3415604d57600080fd5b6053607c565b60405173ffffffffffffffffffffffffffffffffffffffff909116815260200160405180910390f35b60005473ffffffffffffffffffffffffffffffffffffffff16815600a165627a7a723058202a7bf343d45d9ef49b5eab0746f2adc77f8961274aa78f3f133533e74f1be6700029",
  "source": "pragma solidity ^0.4.11;\n\nimport \"../../core/common/BaseManager.sol\";\nimport \"../../core/common/OwnedInterface.sol\";\nimport \"../../core/platform/ChronoBankAssetOwnershipManager.sol\";\nimport \"../../core/platform/ChronoBankPlatform.sol\";\nimport \"../../assets/AssetsManagerInterface.sol\";\nimport \"../../assets/PlatformsManagerEmitter.sol\";\nimport \"../../assets/PlatformsManagerInterface.sol\";\n\n\ncontract PlatformsFactory {\n    function createPlatform(address eventsHistory) public returns (address);\n}\n\n\ncontract OwnedContract {\n    address public contractOwner;\n}\n\n\n/**\n* @title Defines implementation for managing platforms creation and tracking system's platforms.\n* Some methods could require to pay additional fee in TIMEs during their invocation.\n*/\ncontract PlatformsManagerDammyDeprecated is BaseManager, PlatformsManagerEmitter {\n\n    /** Error codes */\n\n    uint constant ERROR_PLATFORMS_ATTACHING_PLATFORM_ALREADY_EXISTS = 21001;\n    uint constant ERROR_PLATFORMS_PLATFORM_DOES_NOT_EXIST = 21002;\n\n    /** Storage keys */\n\n    /** @dev address of platforms factory contract */\n    StorageInterface.Address platformsFactory;\n\n    /** @dev set(address) stands for set(platform) */\n    StorageInterface.OrderedAddressesSet platforms;\n\n    /**\n    * @dev Guards methods for only platform owners\n    */\n    modifier onlyPlatformOwner(address _platform) {\n        if (_isPlatformOwner(_platform)) {\n            _;\n        }\n    }\n\n    function PlatformsManagerDammyDeprecated(Storage _store, bytes32 _crate) BaseManager(_store, _crate) public {\n        platformsFactory.init(\"platformsFactory\");\n        platforms.init(\"v1platforms\");\n    }\n\n    function init(address _contractsManager, address _platformsFactory) onlyContractOwner public returns (uint) {\n        BaseManager.init(_contractsManager, \"PlatformsManager\");\n\n        store.set(platformsFactory, _platformsFactory);\n\n        return OK;\n    }\n\n    /**\n    * @dev Checks if passed platform is presented in the system\n    *\n    * @param _platform platform address\n    *\n    * @return `true` if it is registered, `false` otherwise\n    */\n    function isPlatformAttached(address _platform) public view returns (bool) {\n        return store.includes(platforms, _platform);\n    }\n\n    /**\n    * @dev Responsible for registering an existed platform in the system. Could be performed only by owner of passed platform.\n    * It also reset platform's event history to system's one, so an owner should install PlatformsManager as eventsAdmin in its\n    * platform contract.\n    *\n    * Attaching a new platform also leads to synchronyzing all assets hosted in a platform and their owners so it is possible\n    * in case when a platform has a lot of assets and managers that this process of registering a platform will end up with\n    * ERROR_PLATFORMS_REPEAT_SYNC_IS_NOT_COMPLETED error. It means that all goes right just keep calling this method until\n    * `OK` result code will be returned; synchronysation might take several attemtps before it will be finished.\n    *\n    * @param _platform platform address\n    *\n    * @return resultCode result code of an operation.\n    *   ERROR_PLATFORMS_ATTACHING_PLATFORM_ALREADY_EXISTS,\n    *   ERROR_PLATFORMS_CANNOT_UPDATE_EVENTS_HISTORY_NOT_EVENTS_ADMIN,\n    *   ERROR_PLATFORMS_REPEAT_SYNC_IS_NOT_COMPLETED might be returned.\n    */\n    function attachPlatform(address _platform) onlyPlatformOwner(_platform) public returns (uint resultCode) {\n        if (store.includes(platforms, _platform)) {\n            return _emitError(ERROR_PLATFORMS_ATTACHING_PLATFORM_ALREADY_EXISTS);\n        }\n\n        store.add(platforms, _platform);\n\n        _emitPlatformAttached(_platform, msg.sender);\n        return OK;\n    }\n\n    /**\n    * @dev Responsible for removing a platform from the system. Could be performed only by owner of passed platform.\n    * It also reset platform's eventsHistory and set platform as a new eventsHistory; still PlatformsManager should\n    * be eventsAdmin in a platform.\n    *\n    * Detaching process also includes removal of all assets and managers from system's registry, so as an opposite\n    * to a synchronization during attaching this process clean up all records about assets and their owners. It could\n    * take several attempts until all data will be removed. ERROR_PLATFORMS_REPEAT_SYNC_IS_NOT_COMPLETED will be returned\n    * in case if clean up process is not going to finish during this iteration so keep calling until `OK` will be a result.\n    *\n    * @param _platform platform address\n    *\n    * @return resultCode result code of an operation.\n    *   ERROR_PLATFORMS_PLATFORM_DOES_NOT_EXIST,\n    *   ERROR_PLATFORMS_CANNOT_UPDATE_EVENTS_HISTORY_NOT_EVENTS_ADMIN,\n    *   ERROR_PLATFORMS_REPEAT_SYNC_IS_NOT_COMPLETED might be returned.\n    */\n    function detachPlatform(address _platform) onlyPlatformOwner(_platform) public returns (uint resultCode) {\n        if (!store.includes(platforms, _platform)) {\n            return _emitError(ERROR_PLATFORMS_PLATFORM_DOES_NOT_EXIST);\n        }\n\n        store.remove(platforms, _platform);\n\n        _emitPlatformDetached(_platform, msg.sender);\n        return OK;\n    }\n\n    /**\n    * @dev Creates a brand new platform.\n    * This method might take an additional fee in TIMEs.\n    *\n    * @return resultCode result code of an operation\n    */\n    function createPlatform() public returns (uint resultCode) {\n        PlatformsFactory factory = PlatformsFactory(store.get(platformsFactory));\n        address _platform = factory.createPlatform(getEventsHistory());\n\n        store.add(platforms, _platform);\n\n        AssetsManagerInterface assetsManager = AssetsManagerInterface(lookupManager(\"AssetsManager\"));\n        resultCode = assetsManager.requestTokenExtension(_platform);\n        address _tokenExtension;\n        if (resultCode == OK) {\n            _tokenExtension = assetsManager.getTokenExtension(_platform);\n            ChronoBankAssetOwnershipManager(_platform).addPartOwner(_tokenExtension);\n        }\n\n        OwnedInterface(_platform).transferContractOwnership(msg.sender);\n        _emitPlatformRequested(_platform, _tokenExtension, msg.sender);\n        return OK;\n    }\n\n    /**\n    * @dev Checks if passed platform is owned by msg.sender. PRIVATE\n    */\n    function _isPlatformOwner(address _platform) private view returns (bool) {\n        return OwnedContract(_platform).contractOwner() == msg.sender;\n    }\n\n    /**\n    * Events emitting\n    */\n\n    function _emitError(uint _errorCode) private returns (uint) {\n        PlatformsManagerEmitter(getEventsHistory()).emitError(_errorCode);\n        return _errorCode;\n    }\n\n    function _emitPlatformAttached(address _platform, address _by) private {\n        PlatformsManagerEmitter(getEventsHistory()).emitPlatformAttached(_platform, _by);\n    }\n\n    function _emitPlatformDetached(address _platform, address _by) private {\n        PlatformsManagerEmitter(getEventsHistory()).emitPlatformDetached(_platform, _by);\n    }\n\n    function _emitPlatformRequested(address _platform, address _tokenExtension, address sender) private {\n        PlatformsManagerEmitter(getEventsHistory()).emitPlatformRequested(_platform, _tokenExtension, sender);\n    }\n}\n",
  "sourcePath": "/Users/alesanro/Documents/Projects/ChronoBank/SmartContracts/contracts/helpers/legacy/PlatformsManagerDammyDeprecated.sol",
  "compiler": {
    "name": "solc",
    "version": "0.4.21+commit.dfe3193c.Emscripten.clang"
  },
  "schemaVersion": "2.0.0",
  "updatedAt": "2018-04-06T09:20:58.153Z"
}