{
  "contractName": "PendingManagerEmitter",
  "abi": [
    {
      "constant": false,
      "inputs": [
        {
          "name": "owner",
          "type": "address"
        },
        {
          "name": "hash",
          "type": "bytes32"
        }
      ],
      "name": "emitConfirmation",
      "outputs": [],
      "payable": false,
      "stateMutability": "nonpayable",
      "type": "function"
    },
    {
      "constant": false,
      "inputs": [
        {
          "name": "hash",
          "type": "bytes32"
        }
      ],
      "name": "emitCancelled",
      "outputs": [],
      "payable": false,
      "stateMutability": "nonpayable",
      "type": "function"
    },
    {
      "constant": false,
      "inputs": [
        {
          "name": "hash",
          "type": "bytes32"
        },
        {
          "name": "data",
          "type": "bytes"
        },
        {
          "name": "timestamp",
          "type": "uint256"
        }
      ],
      "name": "emitDone",
      "outputs": [],
      "payable": false,
      "stateMutability": "nonpayable",
      "type": "function"
    },
    {
      "constant": false,
      "inputs": [
        {
          "name": "owner",
          "type": "address"
        },
        {
          "name": "hash",
          "type": "bytes32"
        }
      ],
      "name": "emitRevoke",
      "outputs": [],
      "payable": false,
      "stateMutability": "nonpayable",
      "type": "function"
    },
    {
      "constant": false,
      "inputs": [
        {
          "name": "errorCode",
          "type": "uint256"
        }
      ],
      "name": "emitError",
      "outputs": [],
      "payable": false,
      "stateMutability": "nonpayable",
      "type": "function"
    },
    {
      "anonymous": false,
      "inputs": [
        {
          "indexed": true,
          "name": "self",
          "type": "address"
        },
        {
          "indexed": true,
          "name": "owner",
          "type": "address"
        },
        {
          "indexed": true,
          "name": "hash",
          "type": "bytes32"
        }
      ],
      "name": "Confirmation",
      "type": "event"
    },
    {
      "anonymous": false,
      "inputs": [
        {
          "indexed": true,
          "name": "self",
          "type": "address"
        },
        {
          "indexed": true,
          "name": "owner",
          "type": "address"
        },
        {
          "indexed": true,
          "name": "hash",
          "type": "bytes32"
        }
      ],
      "name": "Revoke",
      "type": "event"
    },
    {
      "anonymous": false,
      "inputs": [
        {
          "indexed": true,
          "name": "self",
          "type": "address"
        },
        {
          "indexed": true,
          "name": "hash",
          "type": "bytes32"
        }
      ],
      "name": "Cancelled",
      "type": "event"
    },
    {
      "anonymous": false,
      "inputs": [
        {
          "indexed": true,
          "name": "self",
          "type": "address"
        },
        {
          "indexed": true,
          "name": "hash",
          "type": "bytes32"
        },
        {
          "indexed": false,
          "name": "data",
          "type": "bytes"
        },
        {
          "indexed": false,
          "name": "timestamp",
          "type": "uint256"
        }
      ],
      "name": "Done",
      "type": "event"
    },
    {
      "anonymous": false,
      "inputs": [
        {
          "indexed": true,
          "name": "self",
          "type": "address"
        },
        {
          "indexed": false,
          "name": "errorCode",
          "type": "uint256"
        }
      ],
      "name": "Error",
      "type": "event"
    }
  ],
  "bytecode": "0x6060604052341561000f57600080fd5b6103438061001e6000396000f30060606040526004361061006c5763ffffffff7c010000000000000000000000000000000000000000000000000000000060003504166314da079781146100715780637d11317a14610095578063c02ea6d7146100ab578063d455473714610103578063df26ca0814610125575b600080fd5b341561007c57600080fd5b610093600160a060020a036004351660243561013b565b005b34156100a057600080fd5b610093600435610187565b34156100b657600080fd5b610093600480359060446024803590810190830135806020601f8201819004810201604051908101604052818152929190602084018383808284375094965050933593506101c892505050565b341561010e57600080fd5b610093600160a060020a0360043516602435610280565b341561013057600080fd5b6100936004356102cc565b80600160a060020a03831661014e610313565b600160a060020a03167f73357994cf67853ec8cc2a946a764c74c0289e31343e21cbf2a4901dfc3ee74460405160405180910390a45050565b80610190610313565b600160a060020a03167f5c073039c0ae8fe0c6f63e2a80f3839841104bb172da658d85947b94d2de2d0560405160405180910390a350565b826101d1610313565b600160a060020a03167f145862c7367530e21cc0424a3961d2c293f10593488a3362ac030d873078c07584846040518080602001838152602001828103825284818151815260200191508051906020019080838360005b83811015610240578082015183820152602001610228565b50505050905090810190601f16801561026d5780820380516001836020036101000a031916815260200191505b50935050505060405180910390a3505050565b80600160a060020a038316610293610313565b600160a060020a03167fec0353ba566ca347b6fe9d82111b02859275ab59a0a78b16b3485e98f43cd00360405160405180910390a45050565b6102d4610313565b600160a060020a03167f9cf38cf2dbf9139f5c32639950507b10775fbbe0421f3e168bc2d1bb1ae3208c8260405190815260200160405180910390a250565b33905600a165627a7a7230582084c3c4422b48a23bf68c25d85ad5faf54f7443b8293e7e66065dbb4bdac23a2e0029",
  "source": "pragma solidity ^0.4.11;\n\nimport '../core/event/MultiEventsHistoryAdapter.sol';\n\ncontract PendingManagerEmitter is MultiEventsHistoryAdapter {\n    event Confirmation(address indexed self, address indexed owner, bytes32 indexed hash);\n    event Revoke(address indexed self, address indexed owner, bytes32 indexed hash);\n    event Cancelled(address indexed self, bytes32 indexed hash);\n    event Done(address indexed self, bytes32 indexed hash, bytes data, uint timestamp);\n    event Error(address indexed self, uint errorCode);\n\n    function emitConfirmation(address owner, bytes32 hash) {\n        Confirmation(_self(), owner, hash);\n    }\n\n    function emitRevoke(address owner, bytes32 hash) {\n        Revoke(_self(), owner, hash);\n    }\n\n    function emitCancelled(bytes32 hash) {\n        Cancelled(_self(), hash);\n    }\n\n    function emitDone(bytes32 hash, bytes data, uint timestamp) {\n        Done(_self(), hash, data, timestamp);\n    }\n\n    function emitError(uint errorCode) {\n        Error(_self(), errorCode);\n    }\n}\n",
  "sourcePath": "/Users/ahiatsevich/Development/chronobank/SmartContracts/contracts/pending/PendingManagerEmitter.sol",
  "compiler": {
    "name": "solc",
    "version": "0.4.18+commit.9cf6e910.Emscripten.clang"
  },
  "schemaVersion": "1.0.1",
  "updatedAt": "2018-01-26T09:34:40.382Z"
}