{
  "contractName": "PendingManager",
  "abi": [
    {
      "constant": false,
      "inputs": [
        {
          "name": "_owner",
          "type": "address"
        },
        {
          "name": "_hash",
          "type": "bytes32"
        }
      ],
      "name": "emitConfirmation",
      "outputs": [],
      "payable": false,
      "stateMutability": "nonpayable",
      "type": "function"
    },
    {
      "constant": false,
      "inputs": [],
      "name": "claimContractOwnership",
      "outputs": [
        {
          "name": "",
          "type": "bool"
        }
      ],
      "payable": false,
      "stateMutability": "nonpayable",
      "type": "function"
    },
    {
      "constant": true,
      "inputs": [
        {
          "name": "_identifier",
          "type": "bytes32"
        }
      ],
      "name": "lookupManager",
      "outputs": [
        {
          "name": "manager",
          "type": "address"
        }
      ],
      "payable": false,
      "stateMutability": "view",
      "type": "function"
    },
    {
      "constant": true,
      "inputs": [],
      "name": "contractsManager",
      "outputs": [
        {
          "name": "",
          "type": "address"
        }
      ],
      "payable": false,
      "stateMutability": "view",
      "type": "function"
    },
    {
      "constant": false,
      "inputs": [
        {
          "name": "_to",
          "type": "address"
        }
      ],
      "name": "changeContractOwnership",
      "outputs": [
        {
          "name": "",
          "type": "bool"
        }
      ],
      "payable": false,
      "stateMutability": "nonpayable",
      "type": "function"
    },
    {
      "constant": true,
      "inputs": [],
      "name": "pendingContractOwner",
      "outputs": [
        {
          "name": "",
          "type": "address"
        }
      ],
      "payable": false,
      "stateMutability": "view",
      "type": "function"
    },
    {
      "constant": false,
      "inputs": [
        {
          "name": "_eventsHistory",
          "type": "address"
        }
      ],
      "name": "setEventsHistory",
      "outputs": [],
      "payable": false,
      "stateMutability": "nonpayable",
      "type": "function"
    },
    {
      "constant": false,
      "inputs": [
        {
          "name": "_contractsManager",
          "type": "address"
        }
      ],
      "name": "setContractsManager",
      "outputs": [],
      "payable": false,
      "stateMutability": "nonpayable",
      "type": "function"
    },
    {
      "constant": false,
      "inputs": [
        {
          "name": "_hash",
          "type": "bytes32"
        }
      ],
      "name": "emitCancelled",
      "outputs": [],
      "payable": false,
      "stateMutability": "nonpayable",
      "type": "function"
    },
    {
      "constant": false,
      "inputs": [],
      "name": "destroy",
      "outputs": [],
      "payable": false,
      "stateMutability": "nonpayable",
      "type": "function"
    },
    {
      "constant": false,
      "inputs": [
        {
          "name": "_to",
          "type": "address"
        }
      ],
      "name": "transferContractOwnership",
      "outputs": [
        {
          "name": "",
          "type": "bool"
        }
      ],
      "payable": false,
      "stateMutability": "nonpayable",
      "type": "function"
    },
    {
      "constant": false,
      "inputs": [
        {
          "name": "_hash",
          "type": "bytes32"
        },
        {
          "name": "_data",
          "type": "bytes"
        },
        {
          "name": "_timestamp",
          "type": "uint256"
        }
      ],
      "name": "emitDone",
      "outputs": [],
      "payable": false,
      "stateMutability": "nonpayable",
      "type": "function"
    },
    {
      "constant": true,
      "inputs": [],
      "name": "contractOwner",
      "outputs": [
        {
          "name": "",
          "type": "address"
        }
      ],
      "payable": false,
      "stateMutability": "view",
      "type": "function"
    },
    {
      "constant": false,
      "inputs": [
        {
          "name": "_owner",
          "type": "address"
        },
        {
          "name": "_hash",
          "type": "bytes32"
        }
      ],
      "name": "emitRevoke",
      "outputs": [],
      "payable": false,
      "stateMutability": "nonpayable",
      "type": "function"
    },
    {
      "constant": false,
      "inputs": [
        {
          "name": "tokens",
          "type": "address[]"
        },
        {
          "name": "_to",
          "type": "address"
        }
      ],
      "name": "withdrawnTokens",
      "outputs": [
        {
          "name": "",
          "type": "uint256"
        }
      ],
      "payable": false,
      "stateMutability": "nonpayable",
      "type": "function"
    },
    {
      "constant": false,
      "inputs": [
        {
          "name": "_errorCode",
          "type": "uint256"
        }
      ],
      "name": "emitError",
      "outputs": [],
      "payable": false,
      "stateMutability": "nonpayable",
      "type": "function"
    },
    {
      "constant": true,
      "inputs": [
        {
          "name": "key",
          "type": "address"
        }
      ],
      "name": "isAuthorized",
      "outputs": [
        {
          "name": "",
          "type": "bool"
        }
      ],
      "payable": false,
      "stateMutability": "view",
      "type": "function"
    },
    {
      "constant": true,
      "inputs": [],
      "name": "getEventsHistory",
      "outputs": [
        {
          "name": "",
          "type": "address"
        }
      ],
      "payable": false,
      "stateMutability": "view",
      "type": "function"
    },
    {
      "inputs": [
        {
          "name": "_store",
          "type": "address"
        },
        {
          "name": "_crate",
          "type": "bytes32"
        }
      ],
      "payable": false,
      "stateMutability": "nonpayable",
      "type": "constructor"
    },
    {
      "payable": true,
      "stateMutability": "payable",
      "type": "fallback"
    },
    {
      "anonymous": false,
      "inputs": [
        {
          "indexed": true,
          "name": "self",
          "type": "address"
        },
        {
          "indexed": true,
          "name": "owner",
          "type": "address"
        },
        {
          "indexed": true,
          "name": "hash",
          "type": "bytes32"
        }
      ],
      "name": "Confirmation",
      "type": "event"
    },
    {
      "anonymous": false,
      "inputs": [
        {
          "indexed": true,
          "name": "self",
          "type": "address"
        },
        {
          "indexed": true,
          "name": "owner",
          "type": "address"
        },
        {
          "indexed": true,
          "name": "hash",
          "type": "bytes32"
        }
      ],
      "name": "Revoke",
      "type": "event"
    },
    {
      "anonymous": false,
      "inputs": [
        {
          "indexed": true,
          "name": "self",
          "type": "address"
        },
        {
          "indexed": true,
          "name": "hash",
          "type": "bytes32"
        }
      ],
      "name": "Cancelled",
      "type": "event"
    },
    {
      "anonymous": false,
      "inputs": [
        {
          "indexed": true,
          "name": "self",
          "type": "address"
        },
        {
          "indexed": true,
          "name": "hash",
          "type": "bytes32"
        },
        {
          "indexed": false,
          "name": "data",
          "type": "bytes"
        },
        {
          "indexed": false,
          "name": "timestamp",
          "type": "uint256"
        }
      ],
      "name": "Done",
      "type": "event"
    },
    {
      "anonymous": false,
      "inputs": [
        {
          "indexed": true,
          "name": "self",
          "type": "address"
        },
        {
          "indexed": false,
          "name": "errorCode",
          "type": "uint256"
        }
      ],
      "name": "Error",
      "type": "event"
    },
    {
      "constant": false,
      "inputs": [
        {
          "name": "_contractsManager",
          "type": "address"
        }
      ],
      "name": "init",
      "outputs": [
        {
          "name": "errorCode",
          "type": "uint256"
        }
      ],
      "payable": false,
      "stateMutability": "nonpayable",
      "type": "function"
    },
    {
      "constant": true,
      "inputs": [],
      "name": "pendingsCount",
      "outputs": [
        {
          "name": "",
          "type": "uint256"
        }
      ],
      "payable": false,
      "stateMutability": "view",
      "type": "function"
    },
    {
      "constant": true,
      "inputs": [],
      "name": "getTxs",
      "outputs": [
        {
          "name": "_hashes",
          "type": "bytes32[]"
        },
        {
          "name": "_yetNeeded",
          "type": "uint256[]"
        },
        {
          "name": "_ownersDone",
          "type": "uint256[]"
        },
        {
          "name": "_timestamp",
          "type": "uint256[]"
        }
      ],
      "payable": false,
      "stateMutability": "view",
      "type": "function"
    },
    {
      "constant": true,
      "inputs": [
        {
          "name": "_hash",
          "type": "bytes32"
        }
      ],
      "name": "getTx",
      "outputs": [
        {
          "name": "_data",
          "type": "bytes"
        },
        {
          "name": "_yetNeeded",
          "type": "uint256"
        },
        {
          "name": "_ownersDone",
          "type": "uint256"
        },
        {
          "name": "_timestamp",
          "type": "uint256"
        }
      ],
      "payable": false,
      "stateMutability": "view",
      "type": "function"
    },
    {
      "constant": true,
      "inputs": [
        {
          "name": "_hash",
          "type": "bytes32"
        }
      ],
      "name": "pendingYetNeeded",
      "outputs": [
        {
          "name": "",
          "type": "uint256"
        }
      ],
      "payable": false,
      "stateMutability": "view",
      "type": "function"
    },
    {
      "constant": true,
      "inputs": [
        {
          "name": "_hash",
          "type": "bytes32"
        }
      ],
      "name": "getTxData",
      "outputs": [
        {
          "name": "",
          "type": "bytes"
        }
      ],
      "payable": false,
      "stateMutability": "view",
      "type": "function"
    },
    {
      "constant": true,
      "inputs": [
        {
          "name": "_hash",
          "type": "bytes32"
        },
        {
          "name": "_owner",
          "type": "address"
        }
      ],
      "name": "hasConfirmed",
      "outputs": [
        {
          "name": "",
          "type": "bool"
        }
      ],
      "payable": false,
      "stateMutability": "view",
      "type": "function"
    },
    {
      "constant": true,
      "inputs": [],
      "name": "getUserManager",
      "outputs": [
        {
          "name": "",
          "type": "address"
        }
      ],
      "payable": false,
      "stateMutability": "view",
      "type": "function"
    },
    {
      "constant": false,
      "inputs": [
        {
          "name": "_hash",
          "type": "bytes32"
        },
        {
          "name": "_data",
          "type": "bytes"
        },
        {
          "name": "_to",
          "type": "address"
        },
        {
          "name": "_sender",
          "type": "address"
        }
      ],
      "name": "addTx",
      "outputs": [
        {
          "name": "errorCode",
          "type": "uint256"
        }
      ],
      "payable": false,
      "stateMutability": "nonpayable",
      "type": "function"
    },
    {
      "constant": false,
      "inputs": [
        {
          "name": "_hash",
          "type": "bytes32"
        }
      ],
      "name": "confirm",
      "outputs": [
        {
          "name": "",
          "type": "uint256"
        }
      ],
      "payable": false,
      "stateMutability": "nonpayable",
      "type": "function"
    },
    {
      "constant": false,
      "inputs": [
        {
          "name": "_hash",
          "type": "bytes32"
        }
      ],
      "name": "revoke",
      "outputs": [
        {
          "name": "errorCode",
          "type": "uint256"
        }
      ],
      "payable": false,
      "stateMutability": "nonpayable",
      "type": "function"
    }
  ],
  "bytecode": "0x6060604052341561000f57600080fd5b60405160408061223783398101604052808051919060200180519150829050818181818161004c6000838364010000000061212561008b82021704565b505060028054600160a060020a03338116600160a060020a031992831617909255600580543090931692909116919091179055506100b1945050505050565b8254600160a060020a031916600160a060020a0392909216919091178255600190910155565b612177806100c06000396000f30060606040526004361061015b5763ffffffff60e060020a6000350416630fee1efc811461016057806314da0797146101da57806319ab453c146101fe5780631dffd0121461021d5780634592cd1d1461024c5780634fe5901214610273578063520ff62e1461028957806353253d3114610316578063557f4bc9146103295780635aa77d3c146103485780636521afd71461035b57806371d3b5731461037a578063797af627146103995780637d11317a146103af57806383197ef0146103c5578063a6896dd7146103d8578063a843c51f146103ee578063b75c7dc61461040d578063b915cb6c14610423578063c02ea6d7146104c6578063c2cf73261461051e578063ce606ee014610540578063d391335014610553578063d455473714610566578063d8f9659b14610588578063df26ca08146105e2578063e0cedd9c146105f8578063fe9fbb801461072e578063fff10aba1461074d575b600080fd5b341561016b57600080fd5b6101c8600480359060446024803590810190830135806020601f8201819004810201604051908101604052818152929190602084018383808284375094965050600160a060020a0385358116956020013516935061076092505050565b60405190815260200160405180910390f35b34156101e557600080fd5b6101fc600160a060020a0360043516602435610ad8565b005b341561020957600080fd5b6101c8600160a060020a0360043516610b24565b341561022857600080fd5b610230610b73565b604051600160a060020a03909116815260200160405180910390f35b341561025757600080fd5b61025f610ba4565b604051901515815260200160405180910390f35b341561027e57600080fd5b610230600435610bf0565b341561029457600080fd5b61029f600435610c74565b60405160208082528190810183818151815260200191508051906020019080838360005b838110156102db5780820151838201526020016102c3565b50505050905090810190601f1680156103085780820380516001836020036101000a031916815260200191505b509250505060405180910390f35b341561032157600080fd5b610230610d3a565b341561033457600080fd5b61025f600160a060020a0360043516610d49565b341561035357600080fd5b610230610da0565b341561036657600080fd5b6101fc600160a060020a0360043516610daf565b341561038557600080fd5b6101fc600160a060020a0360043516610de5565b34156103a457600080fd5b6101c8600435610e1c565b34156103ba57600080fd5b6101fc600435610e4b565b34156103d057600080fd5b6101fc610e8c565b34156103e357600080fd5b6101c8600435610f22565b34156103f957600080fd5b61025f600160a060020a0360043516610f34565b341561041857600080fd5b6101c8600435610fad565b341561042e57600080fd5b61043960043561112a565b6040518080602001858152602001848152602001838152602001828103825286818151815260200191508051906020019080838360005b83811015610488578082015183820152602001610470565b50505050905090810190601f1680156104b55780820380516001836020036101000a031916815260200191505b509550505050505060405180910390f35b34156104d157600080fd5b6101fc600480359060446024803590810190830135806020601f82018190048102016040519081016040528181529291906020840183838082843750949650509335935061121592505050565b341561052957600080fd5b61025f600435600160a060020a03602435166112cd565b341561054b57600080fd5b610230611373565b341561055e57600080fd5b6101c8611382565b341561057157600080fd5b6101fc600160a060020a0360043516602435611388565b341561059357600080fd5b6101c8600460248135818101908301358060208181020160405190810160405280939291908181526020018383602002808284375094965050509235600160a060020a031692506113d4915050565b34156105ed57600080fd5b6101fc600435611525565b341561060357600080fd5b61060b61156c565b6040518080602001806020018060200180602001858103855289818151815260200191508051906020019060200280838360005b8381101561065757808201518382015260200161063f565b50505050905001858103845288818151815260200191508051906020019060200280838360005b8381101561069657808201518382015260200161067e565b50505050905001858103835287818151815260200191508051906020019060200280838360005b838110156106d55780820151838201526020016106bd565b50505050905001858103825286818151815260200191508051906020019060200280838360005b838110156107145780820151838201526020016106fc565b505050509050019850505050505050505060405180910390f35b341561073957600080fd5b61025f600160a060020a03600435166116d6565b341561075857600080fd5b61023061177c565b6002546000908190819033600160a060020a03908116911614806107885750610788336116d6565b80610864575060008054600160a060020a03169063481c6a7590604051602001526040518163ffffffff1660e060020a028152600401602060405180830381600087803b15156107d757600080fd5b6102c65a03f115156107e857600080fd5b50505060405180519050600160a060020a03166395a078e83360006040516020015260405160e060020a63ffffffff8416028152600160a060020a039091166004820152602401602060405180830381600087803b151561084857600080fd5b6102c65a03f1151561085957600080fd5b505050604051805190505b806108e4575061087261177c565b600160a060020a031663fe9fbb803360006040516020015260405160e060020a63ffffffff8416028152600160a060020a039091166004820152602401602060405180830381600087803b15156108c857600080fd5b6102c65a03f115156108d957600080fd5b505050604051805190505b15610ace57836108f3816116d6565b8061093757506109227f50656e64696e674d616e61676572000000000000000000000000000000000000610bf0565b600160a060020a031633600160a060020a0316145b15610acc5743886040519182526020820152604090810190519081900390206000818152600860205260409020549098501561097f57610978610fa361178b565b9350610acc565b610987610b73565b9250600654600101915060a06040519081016040528084600160a060020a031663dc8452cd6000604051602001526040518163ffffffff1660e060020a028152600401602060405180830381600087803b15156109e357600080fd5b6102c65a03f115156109f457600080fd5b50505060405180518252506000602080830182905242604080850191909152600160a060020a038b16606085015260809093018b90528b825260099052208151815560208201518160010155604082015181600201556060820151600382018054600160a060020a031916600160a060020a0392909216919091179055608082015181600401908051610a8b92916020019061203f565b50505060008281526007602090815260408083208b90558a8352600890915290208290556006829055610abe88866117f4565b9350610ac9846118fb565b93505b505b5050949350505050565b80600160a060020a038316610aeb611928565b600160a060020a03167f73357994cf67853ec8cc2a946a764c74c0289e31343e21cbf2a4901dfc3ee74460405160405180910390a45050565b60025460009033600160a060020a0390811691161415610b6e57610b68827f50656e64696e674d616e6167657200000000000000000000000000000000000061192c565b50600190505b919050565b6000610b9e7f557365724d616e61676572000000000000000000000000000000000000000000610bf0565b90505b90565b60035460009033600160a060020a03908116911614610bc557506000610ba1565b506003805460028054600160a060020a0319908116600160a060020a03841617909155169055600190565b600454600090600160a060020a031663bc65792783836040516020015260405160e060020a63ffffffff84160281526004810191909152602401602060405180830381600087803b1515610c4357600080fd5b6102c65a03f11515610c5457600080fd5b5050506040518051915050600160a060020a0381161515610b6e57600080fd5b610c7c6120b9565b6009600083600019166000191681526020019081526020016000206004018054600181600116156101000203166002900480601f016020809104026020016040519081016040528092919081815260200182805460018160011615610100020316600290048015610d2e5780601f10610d0357610100808354040283529160200191610d2e565b820191906000526020600020905b815481529060010190602001808311610d1157829003601f168201915b50505050509050919050565b600454600160a060020a031681565b60025460009033600160a060020a0390811691161415610b6e57600160a060020a0382161515610d7b57506000610b6e565b5060038054600160a060020a038316600160a060020a03199091161790556001919050565b600354600160a060020a031681565b60025433600160a060020a0390811691161415610de25760058054600160a060020a031916600160a060020a0383161790555b50565b60025433600160a060020a0390811691161415610de25760048054600160a060020a038316600160a060020a031990911617905550565b600080610e28336116d6565b15610e4557610e3783336117f4565b9050610e42816118fb565b91505b50919050565b80610e54611928565b600160a060020a03167f5c073039c0ae8fe0c6f63e2a80f3839841104bb172da658d85947b94d2de2d0560405160405180910390a350565b60025433600160a060020a0390811691161415610f2057600454600160a060020a031663c375c2ef3060006040516020015260405160e060020a63ffffffff8416028152600160a060020a039091166004820152602401602060405180830381600087803b1515610efc57600080fd5b6102c65a03f11515610f0d57600080fd5b5050506040518051905050610f20611b1d565b565b60009081526009602052604090205490565b60025460009033600160a060020a0390811691161415610b6e57600160a060020a0382161515610f6657506000610b6e565b600354600160a060020a031615610f885760038054600160a060020a03191690555b5060028054600160a060020a038316600160a060020a03199091161790556001919050565b600080600080600080610fbf336116d6565b1561112057610fcc610b73565b945084600160a060020a031663c269014b3360006040516020015260405160e060020a63ffffffff8416028152600160a060020a039091166004820152602401602060405180830381600087803b151561102557600080fd5b6102c65a03f1151561103657600080fd5b50505060405180516000898152600960205260409020600181015460029290920a96509450925050818416151561107957611072610fa061178b565b9550611120565b508154600101808355611092828563ffffffff611b4016565b60018401556110a13388611b52565b84600160a060020a031663dc8452cd6000604051602001526040518163ffffffff1660e060020a028152600401602060405180830381600087803b15156110e757600080fd5b6102c65a03f115156110f857600080fd5b5050506040518051905081141561111b5761111287611bc5565b61111b87611ca6565b600195505b5050505050919050565b6111326120b9565b600080600080600960008760001916600019168152602001908152602001600020905080600401816000015482600101548360020154838054600181600116156101000203166002900480601f0160208091040260200160405190810160405280929190818152602001828054600181600116156101000203166002900480156111fd5780601f106111d2576101008083540402835291602001916111fd565b820191906000526020600020905b8154815290600101906020018083116111e057829003601f168201915b50939e969d50949b5092995093975050505050505050565b8261121e611928565b600160a060020a03167f145862c7367530e21cc0424a3961d2c293f10593488a3362ac030d873078c07584846040518080602001838152602001828103825284818151815260200191508051906020019080838360005b8381101561128d578082015183820152602001611275565b50505050905090810190601f1680156112ba5780820380516001836020036101000a031916815260200191505b50935050505060405180910390a3505050565b60008060006112da610b73565b915081600160a060020a031663c269014b8560006040516020015260405160e060020a63ffffffff8416028152600160a060020a039091166004820152602401602060405180830381600087803b151561133357600080fd5b6102c65a03f1151561134457600080fd5b50505060405180516000968752600960205260409096206001015460029690960a909516151595945050505050565b600254600160a060020a031681565b60065490565b80600160a060020a03831661139b611928565b600160a060020a03167fec0353ba566ca347b6fe9d82111b02859275ab59a0a78b16b3485e98f43cd00360405160405180910390a45050565b60025460009081908190819033600160a060020a039081169116141561151c57600092505b85518310156115175785838151811061140e57fe5b90602001906020020151915081600160a060020a03166370a082313060006040516020015260405160e060020a63ffffffff8416028152600160a060020a039091166004820152602401602060405180830381600087803b151561147157600080fd5b6102c65a03f1151561148257600080fd5b5050506040518051915050801561150c5781600160a060020a031663a9059cbb868360006040516020015260405160e060020a63ffffffff8516028152600160a060020a0390921660048301526024820152604401602060405180830381600087803b15156114f057600080fd5b6102c65a03f1151561150157600080fd5b505050604051805150505b6001909201916113f9565b600193505b50505092915050565b61152d611928565b600160a060020a03167f9cf38cf2dbf9139f5c32639950507b10775fbbe0421f3e168bc2d1bb1ae3208c8260405190815260200160405180910390a250565b6115746120b9565b61157c6120b9565b6115846120b9565b61158c6120b9565b60008060008061159a611382565b93508315156115a8576116cc565b836040518059106115b65750595b90808252806020026020018201604052509750836040518059106115d75750595b90808252806020026020018201604052509650836040518059106115f85750595b90808252806020026020018201604052509550836040518059106116195750595b90808252806020026020018201604052509450600092505b838310156116cc5750506001810160009081526007602090815260408083205480845260099092529091208188848151811061166957fe5b60209081029091010152805487848151811061168157fe5b60209081029091010152600181015486848151811061169c57fe5b6020908102909101015260028101548584815181106116b757fe5b60209081029091010152600190920191611631565b5050505090919293565b6000806117027f557365724d616e61676572000000000000000000000000000000000000000000610bf0565b905080600160a060020a0316632aa09e5a8460006040516020015260405160e060020a63ffffffff8416028152600160a060020a039091166004820152602401602060405180830381600087803b151561175b57600080fd5b6102c65a03f1151561176c57600080fd5b5050506040518051949350505050565b600554600160a060020a031690565b600061179561177c565b600160a060020a031663df26ca088360405160e060020a63ffffffff84160281526004810191909152602401600060405180830381600087803b15156117da57600080fd5b6102c65a03f115156117eb57600080fd5b50929392505050565b6000806118018484611d0a565b915060018214611810576118f4565b50600083815260096020526040902060030154600160a060020a031680151561183d57610fa091506118f4565b60008481526009602052604090819020600160a060020a038316916004909101905180828054600181600116156101000203166002900480156118c15780601f10611896576101008083540402835291602001916118c1565b820191906000526020600020905b8154815290600101906020018083116118a457829003601f168201915b505091505060006040518083038160008661646e5a03f191505015156118e657600080fd5b6118ef84611bc5565b600191505b5092915050565b60006001821415801561190f575060038214155b156119245761191d8261178b565b9050610b6e565b5090565b3390565b60025460009081908190819033600160a060020a0390811691161461195057600080fd5b600160a060020a038616151561196557600080fd5b600454600160a060020a031615801593508061198f5750600454600160a060020a03878116911614155b156119b05760048054600160a060020a031916600160a060020a0388161790555b600454600160a060020a031691508163bc65792760006040516020015260405160e060020a63ffffffff83160281527f4d756c74694576656e7473486973746f727900000000000000000000000000006004820152602401602060405180830381600087803b1515611a2157600080fd5b6102c65a03f11515611a3257600080fd5b5050506040518051915050600160a060020a03811615801590611a635750600554600160a060020a03828116911614155b15611a845760058054600160a060020a031916600160a060020a0383161790555b8415611b0b5781600160a060020a031663b7c46cd5308760006040516020015260405160e060020a63ffffffff8516028152600160a060020a0390921660048301526024820152604401602060405180830381600087803b1515611ae757600080fd5b6102c65a03f11515611af857600080fd5b50505060405180516001149050611b0b57fe5b82156115175760069695505050505050565b60025433600160a060020a0390811691161415610f205733600160a060020a0316ff5b600082821115611b4c57fe5b50900390565b611b5a61177c565b600160a060020a031663d4554737838360405160e060020a63ffffffff8516028152600160a060020a0390921660048301526024820152604401600060405180830381600087803b1515611bad57600080fd5b6102c65a03f11515611bbe57600080fd5b5050505050565b6000818152600860209081526040808320546006548085526007909352922054818314611c2a57600084815260086020818152604080842084905585845260078083528185208590558585529282528084208790558684529190529020819055611c4a565b600081815260086020908152604080832083905584835260079091528120555b60008481526009602052604081208181556001810182905560028101829055600381018054600160a060020a031916905590611c8960048301826120cb565b50611c9d905082600163ffffffff611b4016565b60065550505050565b611cae61177c565b600160a060020a0316637d11317a8260405160e060020a63ffffffff84160281526004810191909152602401600060405180830381600087803b1515611cf357600080fd5b6102c65a03f11515611d0457600080fd5b50505050565b60008060008060008086611d1d816116d6565b80611d615750611d4c7f50656e64696e674d616e61676572000000000000000000000000000000000000610bf0565b600160a060020a031633600160a060020a0316145b15611efb57611d6e610b73565b955085600160a060020a031663c269014b8960006040516020015260405160e060020a63ffffffff8416028152600160a060020a039091166004820152602401602060405180830381600087803b1515611dc757600080fd5b6102c65a03f11515611dd857600080fd5b505050604051805160008b8152600960205260409020600181015460029290920a9750955093505082851615611e1257610fa59650611efb565b8354915060018211611ece57611ec589856004018054600181600116156101000203166002900480601f016020809104026020016040519081016040528092919081815260200182805460018160011615610100020316600290048015611eba5780601f10611e8f57610100808354040283529160200191611eba565b820191906000526020600020905b815481529060010190602001808311611e9d57829003601f168201915b505050505042611f07565b60019650611efb565b611edf82600163ffffffff611b4016565b84559184176001840181905591611ef6888a611fe4565b600396505b50505050505092915050565b611f0f61177c565b600160a060020a031663c02ea6d784848460405160e060020a63ffffffff86160281526004810184815260448201839052606060248301908152909160640184818151815260200191508051906020019080838360005b83811015611f7e578082015183820152602001611f66565b50505050905090810190601f168015611fab5780820380516001836020036101000a031916815260200191505b50945050505050600060405180830381600087803b1515611fcb57600080fd5b6102c65a03f11515611fdc57600080fd5b505050505050565b611fec61177c565b600160a060020a03166314da0797838360405160e060020a63ffffffff8516028152600160a060020a0390921660048301526024820152604401600060405180830381600087803b1515611bad57600080fd5b828054600181600116156101000203166002900490600052602060002090601f016020900481019282601f1061208057805160ff19168380011785556120ad565b828001600101855582156120ad579182015b828111156120ad578251825591602001919060010190612092565b5061192492915061210b565b60206040519081016040526000815290565b50805460018160011615610100020316600290046000825580601f106120f15750610de2565b601f016020900490600052602060002090810190610de291905b610ba191905b808211156119245760008155600101612111565b8254600160a060020a031916600160a060020a03929092169190911782556001909101555600a165627a7a723058209343fcc974588df2597780cc6f0dbbc2b6feeaa2f7ee6f8aae502dd078d40c4b0029",
  "source": "pragma solidity ^0.4.11;\n\nimport \"../core/user/UserManagerInterface.sol\";\nimport \"../core/common/BaseManager.sol\";\nimport \"../core/lib/SafeMath.sol\";\nimport \"./PendingManagerEmitter.sol\";\nimport '../core/event/MultiEventsHistory.sol';\n\n/// @title PendingManager\n///\n/// Contract provides a way to control multisignature for transactions and perform them after collecting\n/// a required amount of confirmations. Allows to track transactions that are already in pending queue.\n/// Uses UserManager contrant for managing access to contract's functions.\ncontract PendingManager is PendingManagerEmitter, BaseManager {\n\n    using SafeMath for uint;\n\n    /* Constants */\n\n    uint constant ERROR_PENDING_NOT_FOUND = 4000;\n    uint constant ERROR_PENDING_INVALID_INVOCATION = 4001;\n    uint constant ERROR_PENDING_ADD_CONTRACT = 4002;\n    uint constant ERROR_PENDING_DUPLICATE_TX = 4003;\n    uint constant ERROR_PENDING_CANNOT_CONFIRM = 4004;\n    uint constant ERROR_PENDING_PREVIOUSLY_CONFIRMED = 4005;\n\n    /// @title Defines a structure for a transaction record\n    struct Transaction {\n        /// @dev yetNeeded number of required confirmations to accept and carry out a tx\n        uint yetNeeded;\n        /// @dev ownersDone bitmask; contais indices of users that have confirmed a tx\n        uint ownersDone;\n        /// @dev timestamp time when a tx were added\n        uint timestamp;\n        /// @dev to a recepient of a tx; it will be used as a source for tx\n        address to;\n        /// @dev data a data of tx\n        bytes data;\n    }\n\n    /// @dev number of pending txs\n    uint txHashesCount;\n    /// @dev mapping (idx => tx key)\n    mapping (uint => bytes32) index2hashMapping;\n    /// @dev mapping (tx key => idx)\n    mapping (bytes32 => uint) hash2indexMapping;\n    /// @dev mapping (tx key => tx details)\n    mapping (bytes32 => Transaction) txBodies;\n\n    /// @dev Only trusted accounts are permited to call this function\n    modifier onlyTrusted() {\n      if (contractOwner == msg.sender\n        || isAuthorized(msg.sender)\n        || store.store.manager().hasAccess(msg.sender)\n        || MultiEventsHistory(getEventsHistory()).isAuthorized(msg.sender)) {\n          _;\n        }\n    }\n\n    /// @notice Contract creation\n    /// @param _store Storage contract address\n    /// @param _crate a name of scope in Storage where all data will be held\n    function PendingManager(Storage _store, bytes32 _crate) BaseManager(_store, _crate) public {\n    }\n\n    /* PUBLIC */\n\n    /// @notice PendingManager (re-)initialization\n    function init(address _contractsManager) onlyContractOwner public returns (uint errorCode) {\n        BaseManager.init(_contractsManager, \"PendingManager\");\n        return OK;\n    }\n\n    /// @notice Gets a number of transactions that are waiting for confirmation (revocation)\n    function pendingsCount() public view returns (uint) {\n        return txHashesCount;\n    }\n\n    /// @notice Gets pending transactions description\n    ///\n    /// @return {\n    ///     \"_hashes\": \"list of hashes\",\n    ///     \"_yetNeeded\": \"list of amount of confirmations needed\",\n    ///     \"_ownersDone\": \"list of bitmasks with owners who already confirmed\",\n    ///     \"_timestamp\": \"list of timestamps\"\n    /// }\n    function getTxs() public view returns (bytes32[] _hashes, uint[] _yetNeeded, uint[] _ownersDone, uint[] _timestamp) {\n        uint _txHashesCount = pendingsCount();\n        if (_txHashesCount == 0) {\n            return;\n        }\n\n        _hashes = new bytes32[](_txHashesCount);\n        _yetNeeded = new uint[](_txHashesCount);\n        _ownersDone = new uint[](_txHashesCount);\n        _timestamp = new uint[](_txHashesCount);\n        for (uint _idx = 0; _idx < _txHashesCount; ++_idx) {\n            bytes32 _hash = index2hashMapping[_idx + 1];\n            Transaction storage _tx = txBodies[_hash];\n\n            _hashes[_idx] = _hash;\n            _yetNeeded[_idx] = _tx.yetNeeded;\n            _ownersDone[_idx] = _tx.ownersDone;\n            _timestamp[_idx] = _tx.timestamp;\n        }\n    }\n\n    /// @notice Gets a single transaction description\n    ///\n    /// @param _hash key of tx\n    ///\n    /// @return {\n    ///     \"_data\": \"data of transaction\",\n    ///     \"_yetNeeded\": \"amount of confirmations needed\",\n    ///     \"_ownersDone\": bitmask with owners who already confirmed\",\n    ///     \"_timestamp\": \"timestamp\"\n    /// }\n    function getTx(bytes32 _hash) public view returns (bytes _data, uint _yetNeeded, uint _ownersDone, uint _timestamp) {\n        Transaction storage _tx = txBodies[_hash];\n        (_data, _yetNeeded, _ownersDone, _timestamp) = (_tx.data, _tx.yetNeeded, _tx.ownersDone, _tx.timestamp);\n    }\n\n    /// @notice Gets an amount of needed confirmations for provided transaction hash\n    /// @param _hash key of tx\n    function pendingYetNeeded(bytes32 _hash) public view returns (uint) {\n        return txBodies[_hash].yetNeeded;\n    }\n\n    /// @notice Gets a data that was passed with transaction with provided hash\n    /// @param _hash key of tx\n    function getTxData(bytes32 _hash) public view returns (bytes) {\n        return txBodies[_hash].data;\n    }\n\n    /// @notice Gets an information whether provided owner had confirmed pending transaction or not\n    /// Only authorized address could be passed as an owner.\n    ///\n    /// @param _hash key of tx\n    /// @param _owner user address an info of which has been asked for\n    ///\n    /// @return `true` if confirmed, `false` otherwise of such transaction is not in pending queue\n    function hasConfirmed(bytes32 _hash, address _owner) public view returns (bool) {\n        // determine the bit to set for this owner\n        address userManager = getUserManager();\n        uint ownerIndexBit = 2 ** UserManagerInterface(userManager).getMemberId(_owner);\n        return (txBodies[_hash].ownersDone & ownerIndexBit) != 0;\n    }\n\n    /// @notice Gets an address of UserManager currenty used by this contract\n    function getUserManager() public view returns (address) {\n        return lookupManager(\"UserManager\");\n    }\n\n    /// @notice Add a transaction that should be confirmed by authorized users and only then be performed.\n    ///\n    /// @param _hash key for tx (value of resulted hash will be posted in an event)\n    /// @param _data data of ts\n    /// @param _to target of tx\n    /// @param _sender who is an initiator of a call\n    ///\n    /// @return errorCode result code of an operation. When yetNeeded <= 1 returns OK, otherwise MULTISIG_ADDED (in case of success)\n    function addTx(bytes32 _hash, bytes _data, address _to, address _sender)\n    onlyTrusted()\n    onlyAuthorizedContract(_sender)\n    public\n    returns (uint errorCode)\n    {\n        /* NOTE: Multiple instances of the same contract could use the same multisig\n        implementation based on a single PendingManager contract, so methods with\n        the same signature and passed paramenters couldn't be differentiated and would be\n        stored in PendingManager under the same key for an instance that were invoked first.\n\n        We add block.number as a salt to make them distinct from each other.\n        */\n        _hash = keccak256(block.number, _hash);\n\n        if (hash2indexMapping[_hash] != 0) {\n            return _emitError(ERROR_PENDING_DUPLICATE_TX);\n        }\n\n        address userManager = getUserManager();\n        uint _idx = txHashesCount + 1;\n        txBodies[_hash] = Transaction(UserManagerInterface(userManager).required(), 0, now, _to, _data);\n        index2hashMapping[_idx] = _hash;\n        hash2indexMapping[_hash] = _idx;\n        txHashesCount = _idx;\n\n        errorCode = conf(_hash, _sender);\n        return _checkAndEmitError(errorCode);\n    }\n\n    /// @notice Confirms a transaction proposal and if it is the last vote then invokes stored function\n    /// Allowed only for authorized addresses\n    /// @param _hash key of tx\n    /// @return result code of an operation\n    function confirm(bytes32 _hash) external onlyAuthorized returns (uint) {\n        uint errorCode = conf(_hash, msg.sender);\n        return _checkAndEmitError(errorCode);\n    }\n\n    /// @notice Revokes a prior confirmation of the given operation\n    /// Allowed only for authorized addresses\n    /// @param _hash key of tx\n    /// @return errorCode result code of an operation\n    function revoke(bytes32 _hash) external onlyAuthorized returns (uint errorCode) {\n        address userManager = getUserManager();\n        uint ownerIndexBit = 2 ** UserManagerInterface(userManager).getMemberId(msg.sender);\n        Transaction storage _tx = txBodies[_hash];\n        uint _ownersDone = _tx.ownersDone;\n        if ((_ownersDone & ownerIndexBit) == 0) {\n            errorCode = _emitError(ERROR_PENDING_NOT_FOUND);\n            return errorCode;\n        }\n\n        uint _yetNeeded = _tx.yetNeeded + 1;\n        _tx.yetNeeded = _yetNeeded;\n        _tx.ownersDone = _ownersDone.sub(ownerIndexBit);\n        _emitRevoke(msg.sender, _hash);\n        if (_yetNeeded == UserManagerInterface(userManager).required()) {\n            deleteTx(_hash);\n            _emitCancelled(_hash);\n        }\n\n        errorCode = OK;\n    }\n\n    /// @notice Do not accept any Ether\n    function () public payable {\n        revert();\n    }\n\n    /* INTERNAL */\n\n    function conf(bytes32 _hash, address _sender) internal returns (uint errorCode) {\n        errorCode = confirmAndCheck(_hash, _sender);\n        if (OK != errorCode) {\n            return errorCode;\n        }\n\n        address _to = txBodies[_hash].to;\n        if (_to == 0x0) {\n            return ERROR_PENDING_NOT_FOUND;\n        }\n\n        /* NOTE: https://github.com/paritytech/parity/issues/6982\n        https://github.com/aragon/aragonOS/issues/141\n\n        Here should be noted that gas estimation for call and delegatecall invocations\n        might be broken and underestimates a gas amount needed to complete a transaction.\n        */\n        if (!_to.call(txBodies[_hash].data)) {\n            revert(); // ERROR_PENDING_CANNOT_CONFIRM\n        }\n\n        deleteTx(_hash);\n        return OK;\n    }\n\n    function confirmAndCheck(bytes32 _hash, address _sender) internal onlyAuthorizedContract(_sender) returns (uint) {\n        // determine the bit to set for this owner\n        address userManager = getUserManager();\n        uint ownerIndexBit = 2 ** UserManagerInterface(userManager).getMemberId(_sender);\n        // make sure we (the message sender) haven't confirmed this operation previously\n        Transaction storage _tx = txBodies[_hash];\n        uint _ownersDone = _tx.ownersDone;\n        if ((_ownersDone & ownerIndexBit) != 0) {\n            return ERROR_PENDING_PREVIOUSLY_CONFIRMED;\n        }\n\n        uint _yetNeeded = _tx.yetNeeded;\n        // ok - check if count is enough to go ahead\n        if (_yetNeeded <= 1) {\n            // enough confirmations: reset and run interior\n            _emitDone(_hash, _tx.data, now);\n            return OK;\n        } else {\n            // not enough: record that this owner in particular confirmed\n            _tx.yetNeeded = _yetNeeded.sub(1);\n            _ownersDone |= ownerIndexBit;\n            _tx.ownersDone = _ownersDone;\n            _emitConfirmation(_sender, _hash);\n            return MULTISIG_ADDED;\n        }\n    }\n\n    function deleteTx(bytes32 _hash) internal {\n        uint _idx = hash2indexMapping[_hash];\n        uint _lastHashIdx = txHashesCount;\n        bytes32 _lastHash = index2hashMapping[_lastHashIdx];\n\n        if (_idx != _lastHashIdx) {\n            delete hash2indexMapping[_hash];\n            delete index2hashMapping[_lastHashIdx];\n            hash2indexMapping[_lastHash] = _idx;\n            index2hashMapping[_idx] = _lastHash;\n        } else {\n            delete hash2indexMapping[_lastHash];\n            delete index2hashMapping[_lastHashIdx];\n        }\n\n        delete txBodies[_hash];\n        txHashesCount = _lastHashIdx.sub(1);\n    }\n\n    function _emitConfirmation(address owner, bytes32 hash) internal {\n        PendingManager(getEventsHistory()).emitConfirmation(owner, hash);\n    }\n\n    function _emitRevoke(address owner, bytes32 hash) internal {\n        PendingManager(getEventsHistory()).emitRevoke(owner, hash);\n    }\n\n    function _emitCancelled(bytes32 hash) internal {\n        PendingManager(getEventsHistory()).emitCancelled(hash);\n    }\n\n    function _emitDone(bytes32 hash, bytes data, uint timestamp) internal {\n        PendingManager(getEventsHistory()).emitDone(hash, data, timestamp);\n    }\n\n    function _emitError(uint error) internal returns (uint) {\n        PendingManager(getEventsHistory()).emitError(error);\n\n        return error;\n    }\n\n    function _checkAndEmitError(uint error) internal returns (uint)  {\n        if (error != OK && error != MULTISIG_ADDED) {\n            return _emitError(error);\n        }\n\n        return error;\n    }\n}\n",
  "sourcePath": "/Users/alesanro/Documents/Projects/ChronoBank/SmartContracts/contracts/pending/PendingManager.sol",
  "compiler": {
    "name": "solc",
    "version": "0.4.19+commit.c4cbbb05.Emscripten.clang"
  },
  "schemaVersion": "2.0.0",
  "updatedAt": "2018-04-03T12:49:13.895Z"
}