{
  "contractName": "PendingManagerEmitter",
  "abi": [
    {
      "anonymous": false,
      "inputs": [
        {
          "indexed": true,
          "name": "self",
          "type": "address"
        },
        {
          "indexed": true,
          "name": "owner",
          "type": "address"
        },
        {
          "indexed": false,
          "name": "sender",
          "type": "address"
        },
        {
          "indexed": true,
          "name": "hash",
          "type": "bytes32"
        }
      ],
      "name": "AddMultisigTx",
      "type": "event"
    },
    {
      "anonymous": false,
      "inputs": [
        {
          "indexed": true,
          "name": "self",
          "type": "address"
        },
        {
          "indexed": true,
          "name": "owner",
          "type": "address"
        },
        {
          "indexed": true,
          "name": "hash",
          "type": "bytes32"
        }
      ],
      "name": "Confirmation",
      "type": "event"
    },
    {
      "anonymous": false,
      "inputs": [
        {
          "indexed": true,
          "name": "self",
          "type": "address"
        },
        {
          "indexed": true,
          "name": "owner",
          "type": "address"
        },
        {
          "indexed": true,
          "name": "hash",
          "type": "bytes32"
        }
      ],
      "name": "Revoke",
      "type": "event"
    },
    {
      "anonymous": false,
      "inputs": [
        {
          "indexed": true,
          "name": "self",
          "type": "address"
        },
        {
          "indexed": true,
          "name": "hash",
          "type": "bytes32"
        }
      ],
      "name": "Cancelled",
      "type": "event"
    },
    {
      "anonymous": false,
      "inputs": [
        {
          "indexed": true,
          "name": "self",
          "type": "address"
        },
        {
          "indexed": true,
          "name": "hash",
          "type": "bytes32"
        },
        {
          "indexed": false,
          "name": "data",
          "type": "bytes"
        },
        {
          "indexed": false,
          "name": "timestamp",
          "type": "uint256"
        }
      ],
      "name": "Done",
      "type": "event"
    },
    {
      "anonymous": false,
      "inputs": [
        {
          "indexed": true,
          "name": "self",
          "type": "address"
        },
        {
          "indexed": false,
          "name": "errorCode",
          "type": "uint256"
        }
      ],
      "name": "Error",
      "type": "event"
    },
    {
      "constant": false,
      "inputs": [
        {
          "name": "_owner",
          "type": "address"
        },
        {
          "name": "_sender",
          "type": "address"
        },
        {
          "name": "_hash",
          "type": "bytes32"
        }
      ],
      "name": "emitTxAdded",
      "outputs": [],
      "payable": false,
      "stateMutability": "nonpayable",
      "type": "function"
    },
    {
      "constant": false,
      "inputs": [
        {
          "name": "_owner",
          "type": "address"
        },
        {
          "name": "_hash",
          "type": "bytes32"
        }
      ],
      "name": "emitConfirmation",
      "outputs": [],
      "payable": false,
      "stateMutability": "nonpayable",
      "type": "function"
    },
    {
      "constant": false,
      "inputs": [
        {
          "name": "_owner",
          "type": "address"
        },
        {
          "name": "_hash",
          "type": "bytes32"
        }
      ],
      "name": "emitRevoke",
      "outputs": [],
      "payable": false,
      "stateMutability": "nonpayable",
      "type": "function"
    },
    {
      "constant": false,
      "inputs": [
        {
          "name": "_hash",
          "type": "bytes32"
        }
      ],
      "name": "emitCancelled",
      "outputs": [],
      "payable": false,
      "stateMutability": "nonpayable",
      "type": "function"
    },
    {
      "constant": false,
      "inputs": [
        {
          "name": "_hash",
          "type": "bytes32"
        },
        {
          "name": "_data",
          "type": "bytes"
        },
        {
          "name": "_timestamp",
          "type": "uint256"
        }
      ],
      "name": "emitDone",
      "outputs": [],
      "payable": false,
      "stateMutability": "nonpayable",
      "type": "function"
    },
    {
      "constant": false,
      "inputs": [
        {
          "name": "_errorCode",
          "type": "uint256"
        }
      ],
      "name": "emitError",
      "outputs": [],
      "payable": false,
      "stateMutability": "nonpayable",
      "type": "function"
    }
  ],
  "bytecode": "0x6060604052341561000f57600080fd5b6103d48061001e6000396000f3006060604052600436106100775763ffffffff7c010000000000000000000000000000000000000000000000000000000060003504166314da0797811461007c57806337ab24a7146100a05780637d11317a146100c8578063c02ea6d7146100de578063d455473714610136578063df26ca0814610158575b600080fd5b341561008757600080fd5b61009e600160a060020a036004351660243561016e565b005b34156100ab57600080fd5b61009e600160a060020a03600435811690602435166044356101ba565b34156100d357600080fd5b61009e600435610218565b34156100e957600080fd5b61009e600480359060446024803590810190830135806020601f82018190048102016040519081016040528181529291906020840183838082843750949650509335935061025992505050565b341561014157600080fd5b61009e600160a060020a0360043516602435610311565b341561016357600080fd5b61009e60043561035d565b80600160a060020a0383166101816103a4565b600160a060020a03167f73357994cf67853ec8cc2a946a764c74c0289e31343e21cbf2a4901dfc3ee74460405160405180910390a45050565b80600160a060020a0384166101cd6103a4565b600160a060020a03167fe01f210f4d83cd1b3fb81d183512632ff63015e2389c5bcc51b410768c17c2aa85604051600160a060020a03909116815260200160405180910390a4505050565b806102216103a4565b600160a060020a03167f5c073039c0ae8fe0c6f63e2a80f3839841104bb172da658d85947b94d2de2d0560405160405180910390a350565b826102626103a4565b600160a060020a03167f145862c7367530e21cc0424a3961d2c293f10593488a3362ac030d873078c07584846040518080602001838152602001828103825284818151815260200191508051906020019080838360005b838110156102d15780820151838201526020016102b9565b50505050905090810190601f1680156102fe5780820380516001836020036101000a031916815260200191505b50935050505060405180910390a3505050565b80600160a060020a0383166103246103a4565b600160a060020a03167fec0353ba566ca347b6fe9d82111b02859275ab59a0a78b16b3485e98f43cd00360405160405180910390a45050565b6103656103a4565b600160a060020a03167f9cf38cf2dbf9139f5c32639950507b10775fbbe0421f3e168bc2d1bb1ae3208c8260405190815260200160405180910390a250565b33905600a165627a7a723058209f5ad0eef5a6cdf2f6653c62b6ea9de90506b99733dc3068507b16c156fddf530029",
  "source": "pragma solidity ^0.4.11;\n\nimport '../core/event/MultiEventsHistoryAdapter.sol';\n\n\n/// @title PendingManagerEmitter\ncontract PendingManagerEmitter is MultiEventsHistoryAdapter {\n    event AddMultisigTx(address indexed self, address indexed owner, address sender, bytes32 indexed hash);\n    event Confirmation(address indexed self, address indexed owner, bytes32 indexed hash);\n    event Revoke(address indexed self, address indexed owner, bytes32 indexed hash);\n    event Cancelled(address indexed self, bytes32 indexed hash);\n    event Done(address indexed self, bytes32 indexed hash, bytes data, uint timestamp);\n    event Error(address indexed self, uint errorCode);\n\n    function emitTxAdded(address _owner, address _sender, bytes32 _hash) public {\n        AddMultisigTx(_self(), _owner, _sender, _hash);\n    }\n\n    function emitConfirmation(address _owner, bytes32 _hash) public {\n        Confirmation(_self(), _owner, _hash);\n    }\n\n    function emitRevoke(address _owner, bytes32 _hash) public {\n        Revoke(_self(), _owner, _hash);\n    }\n\n    function emitCancelled(bytes32 _hash) public {\n        Cancelled(_self(), _hash);\n    }\n\n    function emitDone(bytes32 _hash, bytes _data, uint _timestamp) public {\n        Done(_self(), _hash, _data, _timestamp);\n    }\n\n    function emitError(uint _errorCode) public {\n        Error(_self(), _errorCode);\n    }\n}\n",
  "sourcePath": "/Users/alesanro/Documents/Projects/ChronoBank/SmartContracts/contracts/pending/PendingManagerEmitter.sol",
  "compiler": {
    "name": "solc",
    "version": "0.4.21+commit.dfe3193c.Emscripten.clang"
  },
  "schemaVersion": "2.0.0",
  "updatedAt": "2018-04-06T09:20:58.785Z"
}