{
  "contractName": "PlatformsManagerEmitter",
  "abi": [
    {
      "anonymous": false,
      "inputs": [
        {
          "indexed": true,
          "name": "self",
          "type": "address"
        },
        {
          "indexed": false,
          "name": "platform",
          "type": "address"
        },
        {
          "indexed": true,
          "name": "by",
          "type": "address"
        }
      ],
      "name": "PlatformAttached",
      "type": "event"
    },
    {
      "anonymous": false,
      "inputs": [
        {
          "indexed": true,
          "name": "self",
          "type": "address"
        },
        {
          "indexed": false,
          "name": "platform",
          "type": "address"
        },
        {
          "indexed": true,
          "name": "by",
          "type": "address"
        }
      ],
      "name": "PlatformDetached",
      "type": "event"
    },
    {
      "anonymous": false,
      "inputs": [
        {
          "indexed": true,
          "name": "self",
          "type": "address"
        },
        {
          "indexed": false,
          "name": "platform",
          "type": "address"
        },
        {
          "indexed": false,
          "name": "tokenExtension",
          "type": "address"
        },
        {
          "indexed": true,
          "name": "by",
          "type": "address"
        }
      ],
      "name": "PlatformRequested",
      "type": "event"
    },
    {
      "anonymous": false,
      "inputs": [
        {
          "indexed": true,
          "name": "self",
          "type": "address"
        },
        {
          "indexed": false,
          "name": "errorCode",
          "type": "uint256"
        }
      ],
      "name": "Error",
      "type": "event"
    },
    {
      "constant": false,
      "inputs": [
        {
          "name": "_platform",
          "type": "address"
        },
        {
          "name": "_by",
          "type": "address"
        }
      ],
      "name": "emitPlatformAttached",
      "outputs": [],
      "payable": false,
      "stateMutability": "nonpayable",
      "type": "function"
    },
    {
      "constant": false,
      "inputs": [
        {
          "name": "_platform",
          "type": "address"
        },
        {
          "name": "_by",
          "type": "address"
        }
      ],
      "name": "emitPlatformDetached",
      "outputs": [],
      "payable": false,
      "stateMutability": "nonpayable",
      "type": "function"
    },
    {
      "constant": false,
      "inputs": [
        {
          "name": "_platform",
          "type": "address"
        },
        {
          "name": "_tokenExtension",
          "type": "address"
        },
        {
          "name": "_by",
          "type": "address"
        }
      ],
      "name": "emitPlatformRequested",
      "outputs": [],
      "payable": false,
      "stateMutability": "nonpayable",
      "type": "function"
    },
    {
      "constant": false,
      "inputs": [
        {
          "name": "_errorCode",
          "type": "uint256"
        }
      ],
      "name": "emitError",
      "outputs": [],
      "payable": false,
      "stateMutability": "nonpayable",
      "type": "function"
    }
  ],
  "bytecode": "0x6060604052341561000f57600080fd5b6102888061001e6000396000f3006060604052600436106100615763ffffffff7c0100000000000000000000000000000000000000000000000000000000600035041663237932cf811461006657806347ab61b41461008d5780634ddeb7d5146100b8578063df26ca08146100dd575b600080fd5b341561007157600080fd5b61008b600160a060020a03600435811690602435166100f3565b005b341561009857600080fd5b61008b600160a060020a036004358116906024358116906044351661014f565b34156100c357600080fd5b61008b600160a060020a03600435811690602435166101b5565b34156100e857600080fd5b61008b600435610211565b80600160a060020a0316610105610258565b600160a060020a03167f91fa8213ec3e06d6c6fc812bc9bdabb5cdeb5921d3ec76d0d710b744bb96b5d684604051600160a060020a03909116815260200160405180910390a35050565b80600160a060020a0316610161610258565b600160a060020a03167f675ebf44364662d6fd674a3ec79555047e602de0ed7429ee703618a9d5ce56618585604051600160a060020a039283168152911660208201526040908101905180910390a3505050565b80600160a060020a03166101c7610258565b600160a060020a03167fcdc5b8b215eb83fcaa86f308963042cd82160281b9800937b75f8a2a842e62ef84604051600160a060020a03909116815260200160405180910390a35050565b610219610258565b600160a060020a03167f9cf38cf2dbf9139f5c32639950507b10775fbbe0421f3e168bc2d1bb1ae3208c8260405190815260200160405180910390a250565b33905600a165627a7a72305820453dcffd27919274d009d6f7ef6d9bba098d46f764d65087773ad60ed054e43e0029",
  "source": "pragma solidity ^0.4.11;\n\nimport '../core/event/MultiEventsHistoryAdapter.sol';\n\n/**\n* @title Emitter with support of events history for PlatformsManager\n*/\ncontract PlatformsManagerEmitter is MultiEventsHistoryAdapter {\n\n    /**\n    * @dev Event for attaching a platform to the system\n    */\n    event PlatformAttached(address indexed self, address platform, address indexed by);\n\n    /**\n    * @dev Event for detaching a platform from the system\n    */\n    event PlatformDetached(address indexed self, address platform, address indexed by);\n\n    /**\n    * @dev Event for creating a platform\n    */\n    event PlatformRequested(address indexed self, address platform, address tokenExtension, address indexed by);\n\n    /**\n    * @dev Event for errors\n    */\n    event Error(address indexed self, uint errorCode);\n\n\n    /**\n    * Emitting events\n    */\n\n    function emitPlatformAttached( address _platform, address _by) public {\n        PlatformAttached(_self(), _platform, _by);\n    }\n\n    function emitPlatformDetached( address _platform, address _by) public {\n        PlatformDetached(_self(), _platform, _by);\n    }\n\n    function emitPlatformRequested( address _platform, address _tokenExtension, address _by) public {\n        PlatformRequested(_self(), _platform, _tokenExtension, _by);\n    }\n\n    function emitError(uint _errorCode) public {\n        Error(_self(), _errorCode);\n    }\n}\n",
  "sourcePath": "/Users/alesanro/Documents/Projects/ChronoBank/SmartContracts/contracts/assets/PlatformsManagerEmitter.sol",
  "compiler": {
    "name": "solc",
    "version": "0.4.19+commit.c4cbbb05.Emscripten.clang"
  },
  "schemaVersion": "2.0.0",
  "updatedAt": "2018-04-03T12:49:13.766Z"
}