{
  "contractName": "PlatformsManagerEmitter",
  "abi": [
    {
      "anonymous": false,
      "inputs": [
        {
          "indexed": true,
          "name": "self",
          "type": "address"
        },
        {
          "indexed": false,
          "name": "platform",
          "type": "address"
        }
      ],
      "name": "PlatformAttached",
      "type": "event"
    },
    {
      "anonymous": false,
      "inputs": [
        {
          "indexed": true,
          "name": "self",
          "type": "address"
        },
        {
          "indexed": false,
          "name": "platform",
          "type": "address"
        },
        {
          "indexed": true,
          "name": "by",
          "type": "address"
        }
      ],
      "name": "PlatformDetached",
      "type": "event"
    },
    {
      "anonymous": false,
      "inputs": [
        {
          "indexed": true,
          "name": "self",
          "type": "address"
        },
        {
          "indexed": false,
          "name": "platform",
          "type": "address"
        },
        {
          "indexed": false,
          "name": "tokenExtension",
          "type": "address"
        },
        {
          "indexed": true,
          "name": "by",
          "type": "address"
        }
      ],
      "name": "PlatformRequested",
      "type": "event"
    },
    {
      "anonymous": false,
      "inputs": [
        {
          "indexed": true,
          "name": "self",
          "type": "address"
        },
        {
          "indexed": false,
          "name": "errorCode",
          "type": "uint256"
        }
      ],
      "name": "Error",
      "type": "event"
    },
    {
      "constant": false,
      "inputs": [
        {
          "name": "_platform",
          "type": "address"
        }
      ],
      "name": "emitPlatformAttached",
      "outputs": [],
      "payable": false,
      "stateMutability": "nonpayable",
      "type": "function"
    },
    {
      "constant": false,
      "inputs": [
        {
          "name": "_platform",
          "type": "address"
        },
        {
          "name": "_by",
          "type": "address"
        }
      ],
      "name": "emitPlatformDetached",
      "outputs": [],
      "payable": false,
      "stateMutability": "nonpayable",
      "type": "function"
    },
    {
      "constant": false,
      "inputs": [
        {
          "name": "_platform",
          "type": "address"
        },
        {
          "name": "_tokenExtension",
          "type": "address"
        },
        {
          "name": "_by",
          "type": "address"
        }
      ],
      "name": "emitPlatformRequested",
      "outputs": [],
      "payable": false,
      "stateMutability": "nonpayable",
      "type": "function"
    },
    {
      "constant": false,
      "inputs": [
        {
          "name": "_errorCode",
          "type": "uint256"
        }
      ],
      "name": "emitError",
      "outputs": [],
      "payable": false,
      "stateMutability": "nonpayable",
      "type": "function"
    }
  ],
  "bytecode": "0x6060604052341561000f57600080fd5b6102778061001e6000396000f3006060604052600436106100615763ffffffff7c0100000000000000000000000000000000000000000000000000000000600035041663237932cf811461006657806347ab61b41461008d57806388af6ff9146100b8578063df26ca08146100d7575b600080fd5b341561007157600080fd5b61008b600160a060020a03600435811690602435166100ed565b005b341561009857600080fd5b61008b600160a060020a0360043581169060243581169060443516610149565b34156100c357600080fd5b61008b600160a060020a03600435166101af565b34156100e257600080fd5b61008b600435610200565b80600160a060020a03166100ff610247565b600160a060020a03167f91fa8213ec3e06d6c6fc812bc9bdabb5cdeb5921d3ec76d0d710b744bb96b5d684604051600160a060020a03909116815260200160405180910390a35050565b80600160a060020a031661015b610247565b600160a060020a03167f675ebf44364662d6fd674a3ec79555047e602de0ed7429ee703618a9d5ce56618585604051600160a060020a039283168152911660208201526040908101905180910390a3505050565b6101b7610247565b600160a060020a03167f7b9be80697e87c9f170fdad328e5063a97f4726939bc1b3546c8cd14650b5ba582604051600160a060020a03909116815260200160405180910390a250565b610208610247565b600160a060020a03167f9cf38cf2dbf9139f5c32639950507b10775fbbe0421f3e168bc2d1bb1ae3208c8260405190815260200160405180910390a250565b33905600a165627a7a72305820cb7b569ae7c310e3609695620a31f4f541c60fca08a3de43c5e686786a6f1a620029",
  "source": "pragma solidity ^0.4.11;\n\nimport '../core/event/MultiEventsHistoryAdapter.sol';\n\n/**\n* @title Emitter with support of events history for PlatformsManager\n*/\ncontract PlatformsManagerEmitter is MultiEventsHistoryAdapter {\n\n    /**\n    * @dev Event for attaching a platform to the system\n    */\n    event PlatformAttached(address indexed self, address platform);\n\n    /**\n    * @dev Event for detaching a platform from the system\n    */\n    event PlatformDetached(address indexed self, address platform, address indexed by);\n\n    /**\n    * @dev Event for creating a platform\n    */\n    event PlatformRequested(address indexed self, address platform, address tokenExtension, address indexed by);\n\n    /**\n    * @dev Event for errors\n    */\n    event Error(address indexed self, uint errorCode);\n\n\n    /**\n    * Emitting events\n    */\n\n    function emitPlatformAttached( address _platform) public {\n        PlatformAttached(_self(), _platform);\n    }\n\n    function emitPlatformDetached( address _platform, address _by) public {\n        PlatformDetached(_self(), _platform, _by);\n    }\n\n    function emitPlatformRequested( address _platform, address _tokenExtension, address _by) public {\n        PlatformRequested(_self(), _platform, _tokenExtension, _by);\n    }\n\n    function emitError(uint _errorCode) public {\n        Error(_self(), _errorCode);\n    }\n}\n",
  "sourcePath": "/Users/ahiatsevich/Development/chronobank/SmartContracts/contracts/assets/PlatformsManagerEmitter.sol",
  "compiler": {
    "name": "solc",
    "version": "0.4.21+commit.dfe3193c.Emscripten.clang"
  },
  "schemaVersion": "2.0.0",
  "updatedAt": "2018-04-05T14:52:03.449Z"
}