{
  "contractName": "PlatformsManager",
  "abi": [
    {
      "constant": false,
      "inputs": [
        {
          "name": "_platform",
          "type": "address"
        }
      ],
      "name": "attachPlatform",
      "outputs": [
        {
          "name": "resultCode",
          "type": "uint256"
        }
      ],
      "payable": false,
      "stateMutability": "nonpayable",
      "type": "function"
    },
    {
      "constant": false,
      "inputs": [
        {
          "name": "_platform",
          "type": "address"
        },
        {
          "name": "_by",
          "type": "address"
        }
      ],
      "name": "emitPlatformDetached",
      "outputs": [],
      "payable": false,
      "stateMutability": "nonpayable",
      "type": "function"
    },
    {
      "constant": false,
      "inputs": [],
      "name": "claimContractOwnership",
      "outputs": [
        {
          "name": "",
          "type": "bool"
        }
      ],
      "payable": false,
      "stateMutability": "nonpayable",
      "type": "function"
    },
    {
      "constant": false,
      "inputs": [
        {
          "name": "_platform",
          "type": "address"
        },
        {
          "name": "_tokenExtension",
          "type": "address"
        },
        {
          "name": "_by",
          "type": "address"
        }
      ],
      "name": "emitPlatformRequested",
      "outputs": [],
      "payable": false,
      "stateMutability": "nonpayable",
      "type": "function"
    },
    {
      "constant": false,
      "inputs": [
        {
          "name": "_platform",
          "type": "address"
        },
        {
          "name": "_by",
          "type": "address"
        }
      ],
      "name": "emitPlatformAttached",
      "outputs": [],
      "payable": false,
      "stateMutability": "nonpayable",
      "type": "function"
    },
    {
      "constant": true,
      "inputs": [
        {
          "name": "_identifier",
          "type": "bytes32"
        }
      ],
      "name": "lookupManager",
      "outputs": [
        {
          "name": "manager",
          "type": "address"
        }
      ],
      "payable": false,
      "stateMutability": "view",
      "type": "function"
    },
    {
      "constant": true,
      "inputs": [],
      "name": "contractsManager",
      "outputs": [
        {
          "name": "",
          "type": "address"
        }
      ],
      "payable": false,
      "stateMutability": "view",
      "type": "function"
    },
    {
      "constant": false,
      "inputs": [
        {
          "name": "_to",
          "type": "address"
        }
      ],
      "name": "changeContractOwnership",
      "outputs": [
        {
          "name": "",
          "type": "bool"
        }
      ],
      "payable": false,
      "stateMutability": "nonpayable",
      "type": "function"
    },
    {
      "constant": true,
      "inputs": [],
      "name": "pendingContractOwner",
      "outputs": [
        {
          "name": "",
          "type": "address"
        }
      ],
      "payable": false,
      "stateMutability": "view",
      "type": "function"
    },
    {
      "constant": false,
      "inputs": [
        {
          "name": "_eventsHistory",
          "type": "address"
        }
      ],
      "name": "setEventsHistory",
      "outputs": [],
      "payable": false,
      "stateMutability": "nonpayable",
      "type": "function"
    },
    {
      "constant": false,
      "inputs": [
        {
          "name": "_contractsManager",
          "type": "address"
        }
      ],
      "name": "setContractsManager",
      "outputs": [],
      "payable": false,
      "stateMutability": "nonpayable",
      "type": "function"
    },
    {
      "constant": false,
      "inputs": [
        {
          "name": "_platform",
          "type": "address"
        }
      ],
      "name": "detachPlatform",
      "outputs": [
        {
          "name": "resultCode",
          "type": "uint256"
        }
      ],
      "payable": false,
      "stateMutability": "nonpayable",
      "type": "function"
    },
    {
      "constant": false,
      "inputs": [],
      "name": "destroy",
      "outputs": [],
      "payable": false,
      "stateMutability": "nonpayable",
      "type": "function"
    },
    {
      "constant": false,
      "inputs": [
        {
          "name": "_to",
          "type": "address"
        }
      ],
      "name": "transferContractOwnership",
      "outputs": [
        {
          "name": "",
          "type": "bool"
        }
      ],
      "payable": false,
      "stateMutability": "nonpayable",
      "type": "function"
    },
    {
      "constant": true,
      "inputs": [
        {
          "name": "_platform",
          "type": "address"
        }
      ],
      "name": "isPlatformAttached",
      "outputs": [
        {
          "name": "",
          "type": "bool"
        }
      ],
      "payable": false,
      "stateMutability": "view",
      "type": "function"
    },
    {
      "constant": true,
      "inputs": [],
      "name": "contractOwner",
      "outputs": [
        {
          "name": "",
          "type": "address"
        }
      ],
      "payable": false,
      "stateMutability": "view",
      "type": "function"
    },
    {
      "constant": false,
      "inputs": [
        {
          "name": "tokens",
          "type": "address[]"
        },
        {
          "name": "_to",
          "type": "address"
        }
      ],
      "name": "withdrawnTokens",
      "outputs": [
        {
          "name": "",
          "type": "uint256"
        }
      ],
      "payable": false,
      "stateMutability": "nonpayable",
      "type": "function"
    },
    {
      "constant": false,
      "inputs": [
        {
          "name": "_errorCode",
          "type": "uint256"
        }
      ],
      "name": "emitError",
      "outputs": [],
      "payable": false,
      "stateMutability": "nonpayable",
      "type": "function"
    },
    {
      "constant": true,
      "inputs": [],
      "name": "getPlatformsCount",
      "outputs": [
        {
          "name": "",
          "type": "uint256"
        }
      ],
      "payable": false,
      "stateMutability": "view",
      "type": "function"
    },
    {
      "constant": false,
      "inputs": [
        {
          "name": "_contractsManager",
          "type": "address"
        },
        {
          "name": "_platformsFactory",
          "type": "address"
        }
      ],
      "name": "init",
      "outputs": [
        {
          "name": "",
          "type": "uint256"
        }
      ],
      "payable": false,
      "stateMutability": "nonpayable",
      "type": "function"
    },
    {
      "constant": true,
      "inputs": [
        {
          "name": "_start",
          "type": "uint256"
        },
        {
          "name": "_size",
          "type": "uint256"
        }
      ],
      "name": "getPlatforms",
      "outputs": [
        {
          "name": "_platforms",
          "type": "address[]"
        }
      ],
      "payable": false,
      "stateMutability": "view",
      "type": "function"
    },
    {
      "constant": true,
      "inputs": [
        {
          "name": "key",
          "type": "address"
        }
      ],
      "name": "isAuthorized",
      "outputs": [
        {
          "name": "",
          "type": "bool"
        }
      ],
      "payable": false,
      "stateMutability": "view",
      "type": "function"
    },
    {
      "constant": true,
      "inputs": [],
      "name": "getEventsHistory",
      "outputs": [
        {
          "name": "",
          "type": "address"
        }
      ],
      "payable": false,
      "stateMutability": "view",
      "type": "function"
    },
    {
      "inputs": [
        {
          "name": "_store",
          "type": "address"
        },
        {
          "name": "_crate",
          "type": "bytes32"
        }
      ],
      "payable": false,
      "stateMutability": "nonpayable",
      "type": "constructor"
    },
    {
      "anonymous": false,
      "inputs": [
        {
          "indexed": true,
          "name": "self",
          "type": "address"
        },
        {
          "indexed": false,
          "name": "platform",
          "type": "address"
        },
        {
          "indexed": true,
          "name": "by",
          "type": "address"
        }
      ],
      "name": "PlatformAttached",
      "type": "event"
    },
    {
      "anonymous": false,
      "inputs": [
        {
          "indexed": true,
          "name": "self",
          "type": "address"
        },
        {
          "indexed": false,
          "name": "platform",
          "type": "address"
        },
        {
          "indexed": true,
          "name": "by",
          "type": "address"
        }
      ],
      "name": "PlatformDetached",
      "type": "event"
    },
    {
      "anonymous": false,
      "inputs": [
        {
          "indexed": true,
          "name": "self",
          "type": "address"
        },
        {
          "indexed": false,
          "name": "platform",
          "type": "address"
        },
        {
          "indexed": false,
          "name": "tokenExtension",
          "type": "address"
        },
        {
          "indexed": true,
          "name": "by",
          "type": "address"
        }
      ],
      "name": "PlatformRequested",
      "type": "event"
    },
    {
      "anonymous": false,
      "inputs": [
        {
          "indexed": true,
          "name": "self",
          "type": "address"
        },
        {
          "indexed": false,
          "name": "errorCode",
          "type": "uint256"
        }
      ],
      "name": "Error",
      "type": "event"
    },
    {
      "constant": false,
      "inputs": [],
      "name": "createPlatform",
      "outputs": [
        {
          "name": "resultCode",
          "type": "uint256"
        }
      ],
      "payable": false,
      "stateMutability": "nonpayable",
      "type": "function"
    }
  ],
  "bytecode": "0x606060405234156200001057600080fd5b6040516040806200266c833981016040528080519190602001805191508290508181818181620000516000838364010000000062001eea6200014482021704565b505060028054600160a060020a03338116600160a060020a03199283161790925560058054309093169290911691909117905550620000c69250600691507f706c6174666f726d73466163746f727900000000000000000000000000000000905064010000000062001f106200016a82021704565b6200010160077f7631706c6174666f726d7300000000000000000000000000000000000000000064010000000062001f206200018a82021704565b6200013c600c7f7632706c6174666f726d7300000000000000000000000000000000000000000064010000000062001f2e620001a882021704565b5050620004a4565b8254600160a060020a031916600160a060020a0392909216919091178255600190910155565b815462000186908264010000000062001f38620001c282021704565b9055565b620001a4828264010000000062001f4e620001da82021704565b5050565b620001a482826401000000006200209f6200039982021704565b81151580620001cf575080155b15620001a457600080fd5b6200023182826040519081527f75696e742f636f756e74000000000000000000000000000000000000000000006020820152602a0160405180910390206200016a6401000000000262001f10176401000000009004565b6200028b82600101826040519081527f75696e742f6669727374000000000000000000000000000000000000000000006020820152602a0160405180910390206200016a6401000000000262001f10176401000000009004565b620002e582600201826040519081527f75696e742f6c6173740000000000000000000000000000000000000000000000602082015260290160405180910390206200016a6401000000000262001f10176401000000009004565b6200033f82600301826040519081527f75696e742f6e6578740000000000000000000000000000000000000000000000602082015260290160405180910390206200016a6401000000000262001f10176401000000009004565b620001a482600401826040519081527f75696e742f707265760000000000000000000000000000000000000000000000602082015260290160405180910390206200016a6401000000000262001f10176401000000009004565b620003f082826040519081527f636f756e74000000000000000000000000000000000000000000000000000000602082015260250160405180910390206200016a6401000000000262001f10176401000000009004565b6200044a82600101826040519081527f696e646578657300000000000000000000000000000000000000000000000000602082015260270160405180910390206200016a6401000000000262001f10176401000000009004565b620001a482600201826040519081527f76616c7565730000000000000000000000000000000000000000000000000000602082015260260160405180910390206200016a6401000000000262001f10176401000000009004565b6121b880620004b46000396000f3006060604052600436106101245763ffffffff60e060020a60003504166319e77baf8114610129578063237932cf1461015a5780634592cd1d1461018157806347ab61b4146101a85780634ddeb7d5146101d35780634fe59012146101f857806353253d311461022a578063557f4bc91461023d5780635aa77d3c1461025c5780636521afd71461026f57806371d3b5731461028e57806373583f98146102ad57806383197ef0146102cc5780638c1ae7f5146102df578063a843c51f146102f2578063c7eff32e14610311578063ce606ee014610330578063d8f9659b14610343578063df26ca081461039d578063ee4a16e5146103b3578063f09a4016146103c6578063f8e42da6146103eb578063fe9fbb8014610457578063fff10aba14610476575b600080fd5b341561013457600080fd5b610148600160a060020a0360043516610489565b60405190815260200160405180910390f35b341561016557600080fd5b61017f600160a060020a03600435811690602435166104ec565b005b341561018c57600080fd5b610194610548565b604051901515815260200160405180910390f35b34156101b357600080fd5b61017f600160a060020a0360043581169060243581169060443516610595565b34156101de57600080fd5b61017f600160a060020a03600435811690602435166105fb565b341561020357600080fd5b61020e600435610657565b604051600160a060020a03909116815260200160405180910390f35b341561023557600080fd5b61020e6106e0565b341561024857600080fd5b610194600160a060020a03600435166106ef565b341561026757600080fd5b61020e610746565b341561027a57600080fd5b61017f600160a060020a0360043516610755565b341561029957600080fd5b61017f600160a060020a036004351661078b565b34156102b857600080fd5b610148600160a060020a03600435166107c2565b34156102d757600080fd5b61017f610814565b34156102ea57600080fd5b6101486108aa565b34156102fd57600080fd5b610194600160a060020a03600435166108c8565b341561031c57600080fd5b610194600160a060020a0360043516610941565b341561033b57600080fd5b61020e61095b565b341561034e57600080fd5b610148600460248135818101908301358060208181020160405190810160405280939291908181526020018383602002808284375094965050509235600160a060020a0316925061096a915050565b34156103a857600080fd5b61017f600435610abb565b34156103be57600080fd5b610148610b02565b34156103d157600080fd5b610148600160a060020a0360043581169060243516610b15565b34156103f657600080fd5b610404600435602435610c0a565b60405160208082528190810183818151815260200191508051906020019060200280838360005b8381101561044357808201518382015260200161042b565b505050509050019250505060405180910390f35b341561046257600080fd5b610194600160a060020a0360043516610ccd565b341561048157600080fd5b61020e610d73565b60008161049581610d82565b156104e6576104ad6000600c8563ffffffff610e0016565b156104c4576104bd615209610e20565b91506104e6565b6104d76000600c8563ffffffff610e8916565b6104e18333610ea2565b600191505b50919050565b80600160a060020a03166104fe610f17565b600160a060020a03167f91fa8213ec3e06d6c6fc812bc9bdabb5cdeb5921d3ec76d0d710b744bb96b5d684604051600160a060020a03909116815260200160405180910390a35050565b60035460009033600160a060020a0390811691161461056957506000610592565b506003805460028054600160a060020a0319908116600160a060020a0384161790915516905560015b90565b80600160a060020a03166105a7610f17565b600160a060020a03167f675ebf44364662d6fd674a3ec79555047e602de0ed7429ee703618a9d5ce56618585604051600160a060020a039283168152911660208201526040908101905180910390a3505050565b80600160a060020a031661060d610f17565b600160a060020a03167fcdc5b8b215eb83fcaa86f308963042cd82160281b9800937b75f8a2a842e62ef84604051600160a060020a03909116815260200160405180910390a35050565b600454600090600160a060020a031663bc65792783836040516020015260405160e060020a63ffffffff84160281526004810191909152602401602060405180830381600087803b15156106aa57600080fd5b6102c65a03f115156106bb57600080fd5b5050506040518051915050600160a060020a03811615156106db57600080fd5b919050565b600454600160a060020a031681565b60025460009033600160a060020a03908116911614156106db57600160a060020a0382161515610721575060006106db565b5060038054600160a060020a038316600160a060020a03199091161790556001919050565b600354600160a060020a031681565b60025433600160a060020a03908116911614156107885760058054600160a060020a031916600160a060020a0383161790555b50565b60025433600160a060020a03908116911614156107885760048054600160a060020a038316600160a060020a031990911617905550565b6000816107ce81610d82565b156104e6576107e66000600c8563ffffffff610e0016565b15156107f7576104bd61520a610e20565b61080a6000600c8563ffffffff610f1b16565b6104e18333610f2f565b60025433600160a060020a03908116911614156108a857600454600160a060020a031663c375c2ef3060006040516020015260405160e060020a63ffffffff8416028152600160a060020a039091166004820152602401602060405180830381600087803b151561088457600080fd5b6102c65a03f1151561089557600080fd5b50505060405180519050506108a8610f8c565b565b60006108c3602060405190810160405260008152610faf565b905090565b60025460009033600160a060020a03908116911614156106db57600160a060020a03821615156108fa575060006106db565b600354600160a060020a03161561091c5760038054600160a060020a03191690555b5060028054600160a060020a038316600160a060020a03199091161790556001919050565b600061095581600c8463ffffffff610e0016565b92915050565b600254600160a060020a031681565b60025460009081908190819033600160a060020a0390811691161415610ab257600092505b8551831015610aad578583815181106109a457fe5b90602001906020020151915081600160a060020a03166370a082313060006040516020015260405160e060020a63ffffffff8416028152600160a060020a039091166004820152602401602060405180830381600087803b1515610a0757600080fd5b6102c65a03f11515610a1857600080fd5b50505060405180519150508015610aa25781600160a060020a031663a9059cbb868360006040516020015260405160e060020a63ffffffff8516028152600160a060020a0390921660048301526024820152604401602060405180830381600087803b1515610a8657600080fd5b6102c65a03f11515610a9757600080fd5b505050604051805150505b60019092019161098f565b600193505b50505092915050565b610ac3610f17565b600160a060020a03167f9cf38cf2dbf9139f5c32639950507b10775fbbe0421f3e168bc2d1bb1ae3208c8260405190815260200160405180910390a250565b60006108c381600c63ffffffff6113e416565b6000610b1f611eb1565b60025460009033600160a060020a0390811691161415610c0257610b63857f506c6174666f726d734d616e61676572000000000000000000000000000000006113f0565b506000610b7781600763ffffffff6115e116565b1115610bea57610b8f6000600763ffffffff6115ed16565b91505b610ba5600060078463ffffffff6115ff16565b15610bea57610bbd600060078463ffffffff61160c16565b9050610bd26000600c8363ffffffff610e8916565b610be5600060078363ffffffff61161916565b610b92565b610bfd600060068663ffffffff61162d16565b600192505b505092915050565b610c12611ed8565b600080600080610c20610b02565b93508387101580610c2f575085155b15610c3957610cc3565b85604051805910610c475750595b90808252806020026020018201604052509450838688011015610c6c57858701610c6e565b835b9250600091508690505b82811015610cc357610c936000600c8363ffffffff6116af16565b6001830192869081518110610ca457fe5b600160a060020a03909216602092830290910190910152600101610c78565b5050505092915050565b600080610cf97f557365724d616e61676572000000000000000000000000000000000000000000610657565b905080600160a060020a0316632aa09e5a8460006040516020015260405160e060020a63ffffffff8416028152600160a060020a039091166004820152602401602060405180830381600087803b1515610d5257600080fd5b6102c65a03f11515610d6357600080fd5b5050506040518051949350505050565b600554600160a060020a031690565b600033600160a060020a031682600160a060020a031663ce606ee06000604051602001526040518163ffffffff1660e060020a028152600401602060405180830381600087803b1515610dd457600080fd5b6102c65a03f11515610de557600080fd5b50505060405180519050600160a060020a0316149050919050565b6000610e168484600160a060020a0385166116bc565b90505b9392505050565b6000610e2a610d73565b600160a060020a031663df26ca088360405160e060020a63ffffffff84160281526004810191909152602401600060405180830381600087803b1515610e6f57600080fd5b6102c65a03f11515610e8057600080fd5b50929392505050565b610e9d8383600160a060020a0384166116d3565b505050565b610eaa610d73565b600160a060020a0316634ddeb7d5838360405160e060020a63ffffffff8516028152600160a060020a03928316600482015291166024820152604401600060405180830381600087803b1515610eff57600080fd5b6102c65a03f11515610f1057600080fd5b5050505050565b3390565b610e9d8383600160a060020a0384166116e8565b610f37610d73565b600160a060020a031663237932cf838360405160e060020a63ffffffff8516028152600160a060020a03928316600482015291166024820152604401600060405180830381600087803b1515610eff57600080fd5b60025433600160a060020a03908116911614156108a85733600160a060020a0316ff5b600080600080600085610fc06116fd565b600160a060020a031663709586c13330600035600160e060020a03191660006040516020015260405160e060020a63ffffffff8616028152600160a060020a039384166004820152919092166024820152600160e060020a03199091166044820152606401602060405180830381600087803b151561103e57600080fd5b6102c65a03f1151561104f57600080fd5b50505060405180519050151561106b576155f060005260206000f35b61107d6000600663ffffffff61172816565b945084600160a060020a03166311ce05a3611096610d73565b60006040516020015260405160e060020a63ffffffff8416028152600160a060020a039091166004820152602401602060405180830381600087803b15156110dd57600080fd5b6102c65a03f115156110ee57600080fd5b5050506040518051945061110d90506000600c8663ffffffff610e8916565b6111367f4173736574734d616e6167657200000000000000000000000000000000000000610657565b925082600160a060020a031663c97f57878560006040516020015260405160e060020a63ffffffff8416028152600160a060020a039091166004820152602401602060405180830381600087803b151561118f57600080fd5b6102c65a03f115156111a057600080fd5b5050506040518051965050600186141561129a5782600160a060020a031663e5ebb7a58560006040516020015260405160e060020a63ffffffff8416028152600160a060020a039091166004820152602401602060405180830381600087803b151561120b57600080fd5b6102c65a03f1151561121c57600080fd5b5050506040518051925050600160a060020a03841663a831751d8360006040516020015260405160e060020a63ffffffff8416028152600160a060020a039091166004820152602401602060405180830381600087803b151561127e57600080fd5b6102c65a03f1151561128f57600080fd5b505050604051805150505b83600160a060020a031663a843c51f3360006040516020015260405160e060020a63ffffffff8416028152600160a060020a039091166004820152602401602060405180830381600087803b15156112f157600080fd5b6102c65a03f1151561130257600080fd5b5050506040518051905050611318848333611787565b600180885295508581511480156113d0575060016113346116fd565b600160a060020a03166384509ca83330600035600160e060020a03191660006040516020015260405160e060020a63ffffffff8616028152600160a060020a039384166004820152919092166024820152600160e060020a03199091166044820152606401602060405180830381600087803b15156113b257600080fd5b6102c65a03f115156113c357600080fd5b5050506040518051905014155b156113da57600080fd5b5050505050919050565b6000610e1983836117ee565b60025460009081908190819033600160a060020a0390811691161461141457600080fd5b600160a060020a038616151561142957600080fd5b600454600160a060020a03161580159350806114535750600454600160a060020a03878116911614155b156114745760048054600160a060020a031916600160a060020a0388161790555b600454600160a060020a031691508163bc65792760006040516020015260405160e060020a63ffffffff83160281527f4d756c74694576656e7473486973746f727900000000000000000000000000006004820152602401602060405180830381600087803b15156114e557600080fd5b6102c65a03f115156114f657600080fd5b5050506040518051915050600160a060020a038116158015906115275750600554600160a060020a03828116911614155b156115485760058054600160a060020a031916600160a060020a0383161790555b84156115cf5781600160a060020a031663b7c46cd5308760006040516020015260405160e060020a63ffffffff8516028152600160a060020a0390921660048301526024820152604401602060405180830381600087803b15156115ab57600080fd5b6102c65a03f115156115bc57600080fd5b505050604051805160011490506115cf57fe5b8215610aad5760069695505050505050565b6000610e198383611804565b6115f5611eb1565b610e198383611831565b6000610e16848484611864565b6000610e1684848461189f565b610e9d8383600160a060020a0384166118eb565b825460018401548354600160a060020a03909216916379a7cfee91908460405160e060020a63ffffffff861602815260048101939093526024830191909152600160a060020a03166044820152606401600060405180830381600087803b151561169657600080fd5b6102c65a03f115156116a757600080fd5b505050505050565b6000610e16848484611917565b6000610e16848460ea60020a621cd95d028561192e565b610e9d838360ea60020a621cd95d028461194a565b610e9d838360ea60020a621cd95d028461199e565b60006108c37f466561747572654665654d616e61676572000000000000000000000000000000610657565b815460018301548254600092600160a060020a03169163d3a3968691846040516020015260405160e060020a63ffffffff851602815260048101929092526024820152604401602060405180830381600087803b1515610d5257600080fd5b61178f610d73565b600160a060020a03166347ab61b484848460405160e060020a63ffffffff8616028152600160a060020a03938416600482015291831660248301529091166044820152606401600060405180830381600087803b151561169657600080fd5b6000610e19838360ea60020a621cd95d02611a4c565b6000610e1983837f6f7264657265645f736574000000000000000000000000000000000000000000611a4c565b611839611eb1565b610e1983837f6f7264657265645f736574000000000000000000000000000000000000000000611a59565b6000816020015115806118885750611886848484606001518560400151611a77565b155b1561189557506000610e19565b5060019392505050565b60006118ac848484611864565b15156118b757600080fd5b816040015190506118d2848484606001518560400151611ab4565b6040830152600160208301818151039052509392505050565b610e9d83837f6f7264657265645f73657400000000000000000000000000000000000000000084611ac5565b6000610e16848460ea60020a621cd95d0285611bcb565b600061193f85856001018585611bdb565b151595945050505050565b60006119588585858561192e565b1561196257610f10565b61196d858585611a4c565b60010190506119828560028601858486611c00565b6119928560018601858585611c00565b610f1085858584611c24565b60008060006119af8787878761192e565b15156119ba57611a43565b6119c5878787611a4c565b92506119d687600288018786611bdb565b91506119e787876001018787611bdb565b905082811015611a1157611a018760018801878585611c00565b611a118760028801878486611c00565b611a22876001880187876000611c00565b611a33876002880187866000611c00565b611a438787876000198701611c24565b50505050505050565b6000610e16848484611cad565b611a61611eb1565b610e16848484611a72838383611cad565b611d47565b60008115801590611aab5750611a9285856003018585611bdb565b151580611aab575081611aa9866002870186611d67565b145b95945050505050565b6000611aab85856003018585611bdb565b611ad184848484611a77565b1515611adc57611bc5565b611b08848460030184611af488886004018888611bdb565b611b0389896003018989611bdb565b611ddf565b611b2f848460040184611b2088886003018888611bdb565b611b0389896004018989611bdb565b611b3d848460010184611d67565b811415611b6157611b61848460010184611b5c88886003018888611bdb565b611df2565b611b6f848460020184611d67565b811415611b8e57611b8e848460020184611b5c88886004018888611bdb565b611b9d84846003018484611e6a565b611bac84846004018484611e6a565b611bc58484846001611bbf848484611cad565b03611c24565b50505050565b6000611aab856002860185600186015b6000611aab858585856040519182526020820152604090810190518091039020611d67565b610f1085858585604051918252602082015260409081019051809103902084611df2565b835460018501548454600160a060020a03909216916353e7168b91908560405191825260208201526040908101905180910390208460405160e060020a63ffffffff8616028152600481019390935260248301919091526044820152606401600060405180830381600087803b1515611c9c57600080fd5b6102c65a03f11515611a4357600080fd5b825460018401548354600092600160a060020a0316916353aa3f5e9185604051918252602082015260409081019051809103902060006040516020015260405160e060020a63ffffffff851602815260048101929092526024820152604401602060405180830381600087803b1515611d2557600080fd5b6102c65a03f11515611d3657600080fd5b505050604051805195945050505050565b611d4f611eb1565b611aab83611d61878760010187611d67565b84611e7e565b825460018401548354600092600160a060020a0316916337d9d7fc9185604051918252602082015260409081019051809103902060006040516020015260405160e060020a63ffffffff851602815260048101929092526024820152604401602060405180830381600087803b1515611d2557600080fd5b8115610f1057610f108585858585611c00565b835460018501548454600160a060020a039092169163a14ff85791908560405191825260208201526040908101905180910390208460405160e060020a63ffffffff8616028152600481019390935260248301919091526044820152606401600060405180830381600087803b1515611c9c57600080fd5b8015611bc557611bc5848484846000611c00565b611e86611eb1565b6080604051908101604090815283825260208201939093529182019290925260608101929092525090565b60806040519081016040908152600080835260208301819052908201819052606082015290565b60206040519081016040526000815290565b8254600160a060020a031916600160a060020a0392909216919091178255600190910155565b8154611f1c9082611f38565b9055565b611f2a8282611f4e565b5050565b611f2a828261209f565b81151580611f44575080155b15611f2a57600080fd5b611f8f82826040519081527f75696e742f636f756e74000000000000000000000000000000000000000000006020820152602a016040518091039020611f10565b611fd382600101826040519081527f75696e742f6669727374000000000000000000000000000000000000000000006020820152602a016040518091039020611f10565b61201782600201826040519081527f75696e742f6c617374000000000000000000000000000000000000000000000060208201526029016040518091039020611f10565b61205b82600301826040519081527f75696e742f6e657874000000000000000000000000000000000000000000000060208201526029016040518091039020611f10565b611f2a82600401826040519081527f75696e742f70726576000000000000000000000000000000000000000000000060208201526029016040518091039020611f10565b6120e082826040519081527f636f756e7400000000000000000000000000000000000000000000000000000060208201526025016040518091039020611f10565b61212482600101826040519081527f696e64657865730000000000000000000000000000000000000000000000000060208201526027016040518091039020611f10565b611f2a82600201826040519081527f76616c756573000000000000000000000000000000000000000000000000000060208201526026016040518091039020611f10565b8154611f1c9082611f38565b8154611f1c9082611f38565b8154611f1c9082611f385600a165627a7a72305820156c097c82edb1cb6cfed83797d547b20ca8c96dc03ce96de843939778ef01200029",
  "source": "pragma solidity ^0.4.11;\n\nimport \"../core/common/BaseManager.sol\";\nimport \"../timeholder/FeatureFeeAdapter.sol\";\nimport \"../core/common/OwnedInterface.sol\";\nimport \"../core/platform/ChronoBankAssetOwnershipManager.sol\";\nimport \"./PlatformsManagerEmitter.sol\";\nimport \"./AssetsManagerInterface.sol\";\nimport \"../core/platform/ChronoBankPlatform.sol\";\n\n\ncontract PlatformsFactory {\n    function createPlatform(address eventsHistory) public returns (address);\n}\n\n\ncontract OwnedContract {\n    address public contractOwner;\n}\n\n\n/// @title Defines implementation for managing platforms creation and tracking system's platforms.\n/// Some methods could require to pay additional fee in TIMEs during their invocation.\ncontract PlatformsManager is FeatureFeeAdapter, BaseManager, PlatformsManagerEmitter {\n\n    /** Error codes */\n    uint constant ERROR_PLATFORMS_SCOPE = 21000;\n    uint constant ERROR_PLATFORMS_ATTACHING_PLATFORM_ALREADY_EXISTS = ERROR_PLATFORMS_SCOPE + 1;\n    uint constant ERROR_PLATFORMS_PLATFORM_DOES_NOT_EXIST = ERROR_PLATFORMS_SCOPE + 2;\n\n    /** Storage keys */\n\n    /// @dev address of platforms factory contract\n    StorageInterface.Address platformsFactory;\n\n    /// @dev DEPRECATED. WILL BE REMOVED IN THE NEXT RELEASE\n    StorageInterface.OrderedAddressesSet platforms_old;\n\n    /// @dev set(address) stands for set(platform)\n    StorageInterface.AddressesSet platforms;\n\n    /// @dev Guards methods for only platform owners\n    modifier onlyPlatformOwner(address _platform) {\n        if (_isPlatformOwner(_platform)) {\n            _;\n        }\n    }\n\n    function PlatformsManager(Storage _store, bytes32 _crate) BaseManager(_store, _crate) public {\n        platformsFactory.init(\"platformsFactory\");\n        platforms_old.init(\"v1platforms\"); /// NOTE: DEPRECATED. WILL BE REMOVED IN THE NEXT RELEASE\n        platforms.init(\"v2platforms\");\n    }\n\n    function init(address _contractsManager, address _platformsFactory) onlyContractOwner public returns (uint) {\n        BaseManager.init(_contractsManager, \"PlatformsManager\");\n\n        /// NOTE: migration loop. WILL BE REMOVED IN THE NEXT RELEASE\n        if (store.count(platforms_old) > 0) {\n            StorageInterface.Iterator memory _iterator = store.listIterator(platforms_old);\n            while (store.canGetNextWithIterator(platforms_old, _iterator)) {\n                address _platform = store.getNextWithIterator(platforms_old, _iterator);\n                store.add(platforms, _platform);\n                store.remove(platforms_old, _platform);\n            }\n        }\n\n        store.set(platformsFactory, _platformsFactory);\n\n        return OK;\n    }\n\n    /// @notice Checks if passed platform is presented in the system\n    /// @param _platform platform address\n    /// @return `true` if it is registered, `false` otherwise\n    function isPlatformAttached(address _platform) public view returns (bool) {\n        return store.includes(platforms, _platform);\n    }\n\n    /// @notice Returns number of registered platforms\n    function getPlatformsCount() public view returns (uint) {\n        return store.count(platforms);\n    }\n\n    /// @notice Gets a list of platforms registered in the manager. Paginated fetch.\n    /// @param _start first index of a platform to start. Basically starts with `0`\n    /// @param _size size of a page\n    /// @return _platforms an array of platforms' addresses\n    function getPlatforms(uint _start, uint _size) public view returns (address[] _platforms) {\n        uint _totalPlatformsCount = getPlatformsCount();\n        if (_start >= _totalPlatformsCount || _size == 0) {\n            return _platforms;\n        }\n        _platforms = new address[](_size);\n\n        uint _lastIdx = (_start + _size >= _totalPlatformsCount) ? _totalPlatformsCount : _start + _size;\n        uint _platformIdx = 0;\n        for (uint _idx = _start; _idx < _lastIdx; ++_idx) {\n            _platforms[_platformIdx++] = store.get(platforms, _idx);\n        }\n    }\n\n    /// @notice Responsible for registering an existed platform in the system. Could be performed only by owner of passed platform.\n    /// @param _platform platform address\n    /// @return resultCode result code of an operation.\n    /// ERROR_PLATFORMS_ATTACHING_PLATFORM_ALREADY_EXISTS possible in case the platform is already attached\n    function attachPlatform(address _platform) onlyPlatformOwner(_platform) public returns (uint resultCode) {\n        if (store.includes(platforms, _platform)) {\n            return _emitError(ERROR_PLATFORMS_ATTACHING_PLATFORM_ALREADY_EXISTS);\n        }\n\n        store.add(platforms, _platform);\n\n        _emitPlatformAttached(_platform, msg.sender);\n\n        return OK;\n    }\n\n    /// @notice Responsible for removing a platform from the system.\n    /// @param _platform platform address\n    /// @return resultCode result code of an operation.\n    ///   ERROR_PLATFORMS_PLATFORM_DOES_NOT_EXIST possible when passed platform is not registered in platforms manager contract\n    function detachPlatform(address _platform) onlyPlatformOwner(_platform) public returns (uint resultCode) {\n        if (!store.includes(platforms, _platform)) {\n            return _emitError(ERROR_PLATFORMS_PLATFORM_DOES_NOT_EXIST);\n        }\n\n        store.remove(platforms, _platform);\n\n        _emitPlatformDetached(_platform, msg.sender);\n        return OK;\n    }\n\n    /// @notice Creates a brand new platform.\n    /// This method might take an additional fee in TIMEs.\n    /// @return resultCode result code of an operation\n    function createPlatform() public returns (uint resultCode) {\n        return _createPlatform([uint(0)]);\n    }\n\n    function _createPlatform(uint[1] memory _result)\n    private\n    featured(_result)\n    returns (uint resultCode)\n    {\n        PlatformsFactory factory = PlatformsFactory(store.get(platformsFactory));\n        address _platform = factory.createPlatform(getEventsHistory());\n        store.add(platforms, _platform);\n\n        AssetsManagerInterface assetsManager = AssetsManagerInterface(lookupManager(\"AssetsManager\"));\n        resultCode = assetsManager.requestTokenExtension(_platform);\n        address _tokenExtension;\n        if (resultCode == OK) {\n            _tokenExtension = assetsManager.getTokenExtension(_platform);\n            ChronoBankAssetOwnershipManager(_platform).addPartOwner(_tokenExtension);\n        }\n\n        OwnedInterface(_platform).transferContractOwnership(msg.sender);\n        _emitPlatformRequested(_platform, _tokenExtension, msg.sender);\n\n        _result[0] = OK;\n        return OK;\n    }\n\n    /// @dev Checks if passed platform is owned by msg.sender. PRIVATE\n    function _isPlatformOwner(address _platform) private view returns (bool) {\n        return OwnedContract(_platform).contractOwner() == msg.sender;\n    }\n\n    /**\n    * Events emitting\n    */\n\n    function _emitError(uint _errorCode) private returns (uint) {\n        PlatformsManagerEmitter(getEventsHistory()).emitError(_errorCode);\n        return _errorCode;\n    }\n\n    function _emitPlatformAttached(address _platform, address _by) private {\n        PlatformsManagerEmitter(getEventsHistory()).emitPlatformAttached(_platform, _by);\n    }\n\n    function _emitPlatformDetached(address _platform, address _by) private {\n        PlatformsManagerEmitter(getEventsHistory()).emitPlatformDetached(_platform, _by);\n    }\n\n    function _emitPlatformRequested(address _platform, address _tokenExtension, address sender) private {\n        PlatformsManagerEmitter(getEventsHistory()).emitPlatformRequested(_platform, _tokenExtension, sender);\n    }\n}\n",
  "sourcePath": "/Users/alesanro/Documents/Projects/ChronoBank/SmartContracts/contracts/assets/PlatformsManager.sol",
  "compiler": {
    "name": "solc",
    "version": "0.4.19+commit.c4cbbb05.Emscripten.clang"
  },
  "schemaVersion": "2.0.0",
  "updatedAt": "2018-04-03T12:49:13.778Z"
}