{
  "contractName": "PlatformsManager",
  "abi": [
    {
      "constant": false,
      "inputs": [
        {
          "name": "_platform",
          "type": "address"
        },
        {
          "name": "_by",
          "type": "address"
        }
      ],
      "name": "emitPlatformDetached",
      "outputs": [],
      "payable": false,
      "stateMutability": "nonpayable",
      "type": "function"
    },
    {
      "constant": false,
      "inputs": [],
      "name": "claimContractOwnership",
      "outputs": [
        {
          "name": "",
          "type": "bool"
        }
      ],
      "payable": false,
      "stateMutability": "nonpayable",
      "type": "function"
    },
    {
      "constant": false,
      "inputs": [
        {
          "name": "_platform",
          "type": "address"
        },
        {
          "name": "_tokenExtension",
          "type": "address"
        },
        {
          "name": "_by",
          "type": "address"
        }
      ],
      "name": "emitPlatformRequested",
      "outputs": [],
      "payable": false,
      "stateMutability": "nonpayable",
      "type": "function"
    },
    {
      "constant": false,
      "inputs": [
        {
          "name": "_platform",
          "type": "address"
        },
        {
          "name": "_by",
          "type": "address"
        }
      ],
      "name": "emitPlatformAttached",
      "outputs": [],
      "payable": false,
      "stateMutability": "nonpayable",
      "type": "function"
    },
    {
      "constant": true,
      "inputs": [
        {
          "name": "_identifier",
          "type": "bytes32"
        }
      ],
      "name": "lookupManager",
      "outputs": [
        {
          "name": "manager",
          "type": "address"
        }
      ],
      "payable": false,
      "stateMutability": "view",
      "type": "function"
    },
    {
      "constant": true,
      "inputs": [],
      "name": "contractsManager",
      "outputs": [
        {
          "name": "",
          "type": "address"
        }
      ],
      "payable": false,
      "stateMutability": "view",
      "type": "function"
    },
    {
      "constant": false,
      "inputs": [
        {
          "name": "_to",
          "type": "address"
        }
      ],
      "name": "changeContractOwnership",
      "outputs": [
        {
          "name": "",
          "type": "bool"
        }
      ],
      "payable": false,
      "stateMutability": "nonpayable",
      "type": "function"
    },
    {
      "constant": true,
      "inputs": [],
      "name": "pendingContractOwner",
      "outputs": [
        {
          "name": "",
          "type": "address"
        }
      ],
      "payable": false,
      "stateMutability": "view",
      "type": "function"
    },
    {
      "constant": false,
      "inputs": [
        {
          "name": "_eventsHistory",
          "type": "address"
        }
      ],
      "name": "setEventsHistory",
      "outputs": [],
      "payable": false,
      "stateMutability": "nonpayable",
      "type": "function"
    },
    {
      "constant": false,
      "inputs": [
        {
          "name": "_contractsManager",
          "type": "address"
        }
      ],
      "name": "setContractsManager",
      "outputs": [],
      "payable": false,
      "stateMutability": "nonpayable",
      "type": "function"
    },
    {
      "constant": false,
      "inputs": [],
      "name": "destroy",
      "outputs": [],
      "payable": false,
      "stateMutability": "nonpayable",
      "type": "function"
    },
    {
      "constant": false,
      "inputs": [
        {
          "name": "_to",
          "type": "address"
        }
      ],
      "name": "transferContractOwnership",
      "outputs": [
        {
          "name": "",
          "type": "bool"
        }
      ],
      "payable": false,
      "stateMutability": "nonpayable",
      "type": "function"
    },
    {
      "constant": true,
      "inputs": [],
      "name": "contractOwner",
      "outputs": [
        {
          "name": "",
          "type": "address"
        }
      ],
      "payable": false,
      "stateMutability": "view",
      "type": "function"
    },
    {
      "constant": false,
      "inputs": [
        {
          "name": "tokens",
          "type": "address[]"
        },
        {
          "name": "_to",
          "type": "address"
        }
      ],
      "name": "withdrawnTokens",
      "outputs": [
        {
          "name": "",
          "type": "uint256"
        }
      ],
      "payable": false,
      "stateMutability": "nonpayable",
      "type": "function"
    },
    {
      "constant": false,
      "inputs": [
        {
          "name": "_errorCode",
          "type": "uint256"
        }
      ],
      "name": "emitError",
      "outputs": [],
      "payable": false,
      "stateMutability": "nonpayable",
      "type": "function"
    },
    {
      "constant": true,
      "inputs": [
        {
          "name": "key",
          "type": "address"
        }
      ],
      "name": "isAuthorized",
      "outputs": [
        {
          "name": "",
          "type": "bool"
        }
      ],
      "payable": false,
      "stateMutability": "view",
      "type": "function"
    },
    {
      "constant": true,
      "inputs": [],
      "name": "getEventsHistory",
      "outputs": [
        {
          "name": "",
          "type": "address"
        }
      ],
      "payable": false,
      "stateMutability": "view",
      "type": "function"
    },
    {
      "inputs": [
        {
          "name": "_store",
          "type": "address"
        },
        {
          "name": "_crate",
          "type": "bytes32"
        }
      ],
      "payable": false,
      "stateMutability": "nonpayable",
      "type": "constructor"
    },
    {
      "anonymous": false,
      "inputs": [
        {
          "indexed": true,
          "name": "self",
          "type": "address"
        },
        {
          "indexed": false,
          "name": "platform",
          "type": "address"
        },
        {
          "indexed": true,
          "name": "by",
          "type": "address"
        }
      ],
      "name": "PlatformAttached",
      "type": "event"
    },
    {
      "anonymous": false,
      "inputs": [
        {
          "indexed": true,
          "name": "self",
          "type": "address"
        },
        {
          "indexed": false,
          "name": "platform",
          "type": "address"
        },
        {
          "indexed": true,
          "name": "by",
          "type": "address"
        }
      ],
      "name": "PlatformDetached",
      "type": "event"
    },
    {
      "anonymous": false,
      "inputs": [
        {
          "indexed": true,
          "name": "self",
          "type": "address"
        },
        {
          "indexed": false,
          "name": "platform",
          "type": "address"
        },
        {
          "indexed": false,
          "name": "tokenExtension",
          "type": "address"
        },
        {
          "indexed": true,
          "name": "by",
          "type": "address"
        }
      ],
      "name": "PlatformRequested",
      "type": "event"
    },
    {
      "anonymous": false,
      "inputs": [
        {
          "indexed": true,
          "name": "self",
          "type": "address"
        },
        {
          "indexed": false,
          "name": "errorCode",
          "type": "uint256"
        }
      ],
      "name": "Error",
      "type": "event"
    },
    {
      "constant": false,
      "inputs": [
        {
          "name": "_contractsManager",
          "type": "address"
        },
        {
          "name": "_platformsFactory",
          "type": "address"
        }
      ],
      "name": "init",
      "outputs": [
        {
          "name": "",
          "type": "uint256"
        }
      ],
      "payable": false,
      "stateMutability": "nonpayable",
      "type": "function"
    },
    {
      "constant": true,
      "inputs": [
        {
          "name": "_platform",
          "type": "address"
        }
      ],
      "name": "isPlatformAttached",
      "outputs": [
        {
          "name": "",
          "type": "bool"
        }
      ],
      "payable": false,
      "stateMutability": "view",
      "type": "function"
    },
    {
      "constant": true,
      "inputs": [],
      "name": "getPlatformsCount",
      "outputs": [
        {
          "name": "",
          "type": "uint256"
        }
      ],
      "payable": false,
      "stateMutability": "view",
      "type": "function"
    },
    {
      "constant": true,
      "inputs": [
        {
          "name": "_start",
          "type": "uint256"
        },
        {
          "name": "_size",
          "type": "uint256"
        }
      ],
      "name": "getPlatforms",
      "outputs": [
        {
          "name": "_platforms",
          "type": "address[]"
        }
      ],
      "payable": false,
      "stateMutability": "view",
      "type": "function"
    },
    {
      "constant": false,
      "inputs": [
        {
          "name": "_platform",
          "type": "address"
        }
      ],
      "name": "attachPlatform",
      "outputs": [
        {
          "name": "resultCode",
          "type": "uint256"
        }
      ],
      "payable": false,
      "stateMutability": "nonpayable",
      "type": "function"
    },
    {
      "constant": false,
      "inputs": [
        {
          "name": "_platform",
          "type": "address"
        }
      ],
      "name": "detachPlatform",
      "outputs": [
        {
          "name": "resultCode",
          "type": "uint256"
        }
      ],
      "payable": false,
      "stateMutability": "nonpayable",
      "type": "function"
    },
    {
      "constant": false,
      "inputs": [],
      "name": "createPlatform",
      "outputs": [
        {
          "name": "resultCode",
          "type": "uint256"
        }
      ],
      "payable": false,
      "stateMutability": "nonpayable",
      "type": "function"
    }
  ],
  "bytecode": "0x606060405234156200001057600080fd5b604051604080620027e28339810160405280805191906020018051915082905081818181816200005160008383640100000000620020606200014482021704565b505060028054600160a060020a03338116600160a060020a03199283161790925560058054309093169290911691909117905550620000c69250600691507f706c6174666f726d73466163746f7279000000000000000000000000000000009050640100000000620020866200016a82021704565b6200010160077f7631706c6174666f726d73000000000000000000000000000000000000000000640100000000620020966200018a82021704565b6200013c600c7f7632706c6174666f726d73000000000000000000000000000000000000000000640100000000620020a4620001a882021704565b5050620004a4565b8254600160a060020a031916600160a060020a0392909216919091178255600190910155565b8154620001869082640100000000620020ae620001c282021704565b9055565b620001a48282640100000000620020c4620001da82021704565b5050565b620001a48282640100000000620022156200039982021704565b81151580620001cf575080155b15620001a457600080fd5b6200023182826040519081527f75696e742f636f756e74000000000000000000000000000000000000000000006020820152602a0160405180910390206200016a6401000000000262002086176401000000009004565b6200028b82600101826040519081527f75696e742f6669727374000000000000000000000000000000000000000000006020820152602a0160405180910390206200016a6401000000000262002086176401000000009004565b620002e582600201826040519081527f75696e742f6c6173740000000000000000000000000000000000000000000000602082015260290160405180910390206200016a6401000000000262002086176401000000009004565b6200033f82600301826040519081527f75696e742f6e6578740000000000000000000000000000000000000000000000602082015260290160405180910390206200016a6401000000000262002086176401000000009004565b620001a482600401826040519081527f75696e742f707265760000000000000000000000000000000000000000000000602082015260290160405180910390206200016a6401000000000262002086176401000000009004565b620003f082826040519081527f636f756e74000000000000000000000000000000000000000000000000000000602082015260250160405180910390206200016a6401000000000262002086176401000000009004565b6200044a82600101826040519081527f696e646578657300000000000000000000000000000000000000000000000000602082015260270160405180910390206200016a6401000000000262002086176401000000009004565b620001a482600201826040519081527f76616c7565730000000000000000000000000000000000000000000000000000602082015260260160405180910390206200016a6401000000000262002086176401000000009004565b61232e80620004b46000396000f3006060604052600436106101245763ffffffff60e060020a60003504166319e77baf8114610129578063237932cf1461015a5780634592cd1d1461018157806347ab61b4146101a85780634ddeb7d5146101d35780634fe59012146101f857806353253d311461022a578063557f4bc91461023d5780635aa77d3c1461025c5780636521afd71461026f57806371d3b5731461028e57806373583f98146102ad57806383197ef0146102cc5780638c1ae7f5146102df578063a843c51f146102f2578063c7eff32e14610311578063ce606ee014610330578063d8f9659b14610343578063df26ca081461039d578063ee4a16e5146103b3578063f09a4016146103c6578063f8e42da6146103eb578063fe9fbb8014610457578063fff10aba14610476575b600080fd5b341561013457600080fd5b610148600160a060020a0360043516610489565b60405190815260200160405180910390f35b341561016557600080fd5b61017f600160a060020a03600435811690602435166105b5565b005b341561018c57600080fd5b610194610611565b604051901515815260200160405180910390f35b34156101b357600080fd5b61017f600160a060020a036004358116906024358116906044351661065e565b34156101de57600080fd5b61017f600160a060020a03600435811690602435166106c4565b341561020357600080fd5b61020e600435610720565b604051600160a060020a03909116815260200160405180910390f35b341561023557600080fd5b61020e610798565b341561024857600080fd5b610194600160a060020a03600435166107a7565b341561026757600080fd5b61020e6107fe565b341561027a57600080fd5b61017f600160a060020a036004351661080d565b341561029957600080fd5b61017f600160a060020a0360043516610843565b34156102b857600080fd5b610148600160a060020a036004351661087a565b34156102d757600080fd5b61017f610943565b34156102ea57600080fd5b6101486109cc565b34156102fd57600080fd5b610194600160a060020a03600435166109ea565b341561031c57600080fd5b610194600160a060020a0360043516610a63565b341561033b57600080fd5b61020e610a7d565b341561034e57600080fd5b610148600460248135818101908301358060208181020160405190810160405280939291908181526020018383602002808284375094965050509235600160a060020a03169250610a8c915050565b34156103a857600080fd5b61017f600435610bc3565b34156103be57600080fd5b610148610c0a565b34156103d157600080fd5b610148600160a060020a0360043581169060243516610c1d565b34156103f657600080fd5b610404600435602435610d12565b60405160208082528190810183818151815260200191508051906020019060200280838360005b8381101561044357808201518382015260200161042b565b505050509050019250505060405180910390f35b341561046257600080fd5b610194600160a060020a0360043516610dd5565b341561048157600080fd5b61020e610e6e565b600061049d81600c8463ffffffff610e7d16565b156104b4576104ad615209610e9d565b90506105b0565b6104bc610f02565b9050600181146104cf576104ad81610e9d565b6104e26000600c8463ffffffff61102d16565b6104ea610e6e565b600160a060020a031663b6a5d7de8360405160e060020a63ffffffff8416028152600160a060020a039091166004820152602401602060405180830381600087803b151561053757600080fd5b5af1151561054457600080fd5b50505060405180519050506105ac8283600160a060020a031663ce606ee06040518163ffffffff1660e060020a028152600401602060405180830381600087803b151561059057600080fd5b5af1151561059d57600080fd5b50505060405180519050611046565b5060015b919050565b80600160a060020a03166105c76110b7565b600160a060020a03167f91fa8213ec3e06d6c6fc812bc9bdabb5cdeb5921d3ec76d0d710b744bb96b5d684604051600160a060020a03909116815260200160405180910390a35050565b60035460009033600160a060020a039081169116146106325750600061065b565b506003805460028054600160a060020a0319908116600160a060020a0384161790915516905560015b90565b80600160a060020a03166106706110b7565b600160a060020a03167f675ebf44364662d6fd674a3ec79555047e602de0ed7429ee703618a9d5ce56618585604051600160a060020a039283168152911660208201526040908101905180910390a3505050565b80600160a060020a03166106d66110b7565b600160a060020a03167fcdc5b8b215eb83fcaa86f308963042cd82160281b9800937b75f8a2a842e62ef84604051600160a060020a03909116815260200160405180910390a35050565b600454600090600160a060020a031663bc6579278360405160e060020a63ffffffff84160281526004810191909152602401602060405180830381600087803b151561076b57600080fd5b5af1151561077857600080fd5b5050506040518051915050600160a060020a03811615156105b057600080fd5b600454600160a060020a031681565b60025460009033600160a060020a03908116911614156105b057600160a060020a03821615156107d9575060006105b0565b5060038054600160a060020a038316600160a060020a03199091161790556001919050565b600354600160a060020a031681565b60025433600160a060020a03908116911614156108405760058054600160a060020a031916600160a060020a0383161790555b50565b60025433600160a060020a03908116911614156108405760048054600160a060020a038316600160a060020a031990911617905550565b600081610886816110bb565b1561093d5761089e6000600c8563ffffffff610e7d16565b15156108b6576108af61520a610e9d565b915061093d565b6108c96000600c8563ffffffff61112c16565b6108d1610e6e565b600160a060020a031663ab0da5a98460405160e060020a63ffffffff8416028152600160a060020a039091166004820152602401600060405180830381600087803b151561091e57600080fd5b5af1151561092b57600080fd5b5050506109388333611140565b600191505b50919050565b60025433600160a060020a03908116911614156109ca57600454600160a060020a031663c375c2ef3060405160e060020a63ffffffff8416028152600160a060020a039091166004820152602401602060405180830381600087803b15156109aa57600080fd5b5af115156109b757600080fd5b50505060405180519050506109ca61119d565b565b60006109e56020604051908101604052600081526111c0565b905090565b60025460009033600160a060020a03908116911614156105b057600160a060020a0382161515610a1c575060006105b0565b600354600160a060020a031615610a3e5760038054600160a060020a03191690555b5060028054600160a060020a038316600160a060020a03199091161790556001919050565b6000610a7781600c8463ffffffff610e7d16565b92915050565b600254600160a060020a031681565b60025460009081908190819033600160a060020a0390811691161415610bba57600092505b8551831015610bb557858381518110610ac657fe5b90602001906020020151915081600160a060020a03166370a082313060405160e060020a63ffffffff8416028152600160a060020a039091166004820152602401602060405180830381600087803b1515610b2057600080fd5b5af11515610b2d57600080fd5b50505060405180519150508015610baa5781600160a060020a031663a9059cbb868360405160e060020a63ffffffff8516028152600160a060020a0390921660048301526024820152604401602060405180830381600087803b1515610b9257600080fd5b5af11515610b9f57600080fd5b505050604051805150505b600190920191610ab1565b600193505b50505092915050565b610bcb6110b7565b600160a060020a03167f9cf38cf2dbf9139f5c32639950507b10775fbbe0421f3e168bc2d1bb1ae3208c8260405190815260200160405180910390a250565b60006109e581600c63ffffffff61159a16565b6000610c27612027565b60025460009033600160a060020a0390811691161415610d0a57610c6b857f506c6174666f726d734d616e61676572000000000000000000000000000000006115a6565b506000610c7f81600763ffffffff61177d16565b1115610cf257610c976000600763ffffffff61178916565b91505b610cad600060078463ffffffff61179b16565b15610cf257610cc5600060078463ffffffff6117a816565b9050610cda6000600c8363ffffffff61102d16565b610ced600060078363ffffffff6117b516565b610c9a565b610d05600060068663ffffffff6117c916565b600192505b505092915050565b610d1a61204e565b600080600080610d28610c0a565b93508387101580610d37575085155b15610d4157610dcb565b85604051805910610d4f5750595b90808252806020026020018201604052509450838688011015610d7457858701610d76565b835b9250600091508690505b82811015610dcb57610d9b6000600c8363ffffffff61184716565b6001830192869081518110610dac57fe5b600160a060020a03909216602092830290910190910152600101610d80565b5050505092915050565b600080610e017f557365724d616e61676572000000000000000000000000000000000000000000610720565b905080600160a060020a0316632aa09e5a8460405160e060020a63ffffffff8416028152600160a060020a039091166004820152602401602060405180830381600087803b1515610e5157600080fd5b5af11515610e5e57600080fd5b5050506040518051949350505050565b600554600160a060020a031690565b6000610e938484600160a060020a038516611854565b90505b9392505050565b6000610ea7610e6e565b600160a060020a031663df26ca088360405160e060020a63ffffffff84160281526004810191909152602401600060405180830381600087803b1515610eec57600080fd5b5af11515610ef957600080fd5b50929392505050565b6000806000610f307f50656e64696e674d616e61676572000000000000000000000000000000000000610720565b915081600160a060020a031633600160a060020a031614151561102357600036604051808383808284378201915050925050506040518091039020905081600160a060020a0316630fee1efc82600036303360405160e060020a63ffffffff881602815260048101868152600160a060020a0380851660448401528316606483015260806024830190815260848301869052909160a40186868082843782019150509650505050505050602060405180830381600087803b1515610ff357600080fd5b5af1151561100057600080fd5b505050604051805193505060018314611019578261101c565b60035b9250611028565b600192505b505090565b6110418383600160a060020a03841661186b565b505050565b61104e610e6e565b600160a060020a0316634ddeb7d5838360405160e060020a63ffffffff8516028152600160a060020a03928316600482015291166024820152604401600060405180830381600087803b15156110a357600080fd5b5af115156110b057600080fd5b5050505050565b3390565b600033600160a060020a031682600160a060020a031663ce606ee06040518163ffffffff1660e060020a028152600401602060405180830381600087803b151561110457600080fd5b5af1151561111157600080fd5b50505060405180519050600160a060020a0316149050919050565b6110418383600160a060020a038416611880565b611148610e6e565b600160a060020a031663237932cf838360405160e060020a63ffffffff8516028152600160a060020a03928316600482015291166024820152604401600060405180830381600087803b15156110a357600080fd5b60025433600160a060020a03908116911614156109ca5733600160a060020a0316ff5b6000806000806000856111d1611895565b600160a060020a031663709586c13330600035600160e060020a03191660405160e060020a63ffffffff8616028152600160a060020a039384166004820152919092166024820152600160e060020a03199091166044820152606401602060405180830381600087803b151561124657600080fd5b5af1151561125357600080fd5b50505060405180519050151561126f576155f060005260206000f35b6112816000600663ffffffff6118c016565b945084600160a060020a03166311ce05a361129a610e6e565b60405160e060020a63ffffffff8416028152600160a060020a039091166004820152602401602060405180830381600087803b15156112d857600080fd5b5af115156112e557600080fd5b5050506040518051945061130490506000600c8663ffffffff61102d16565b61132d7f4173736574734d616e6167657200000000000000000000000000000000000000610720565b925082600160a060020a031663c97f57878560405160e060020a63ffffffff8416028152600160a060020a039091166004820152602401602060405180830381600087803b151561137d57600080fd5b5af1151561138a57600080fd5b5050506040518051965050600186141561146a5782600160a060020a031663e5ebb7a58560405160e060020a63ffffffff8416028152600160a060020a039091166004820152602401602060405180830381600087803b15156113ec57600080fd5b5af115156113f957600080fd5b5050506040518051925050600160a060020a03841663a831751d8360405160e060020a63ffffffff8416028152600160a060020a039091166004820152602401602060405180830381600087803b151561145257600080fd5b5af1151561145f57600080fd5b505050604051805150505b83600160a060020a031663a843c51f3360405160e060020a63ffffffff8416028152600160a060020a039091166004820152602401602060405180830381600087803b15156114b857600080fd5b5af115156114c557600080fd5b50505060405180519050506114db848333611917565b60018088529550858151148015611586575060016114f7611895565b600160a060020a03166384509ca83330600035600160e060020a03191660405160e060020a63ffffffff8616028152600160a060020a039384166004820152919092166024820152600160e060020a03199091166044820152606401602060405180830381600087803b151561156c57600080fd5b5af1151561157957600080fd5b5050506040518051905014155b1561159057600080fd5b5050505050919050565b6000610e96838361197e565b60025460009081908190819033600160a060020a039081169116146115ca57600080fd5b600160a060020a03861615156115df57600080fd5b600454600160a060020a03161580159350806116095750600454600160a060020a03878116911614155b1561162a5760048054600160a060020a031916600160a060020a0388161790555b600454600160a060020a031691508163bc65792760405160e060020a63ffffffff83160281527f4d756c74694576656e7473486973746f727900000000000000000000000000006004820152602401602060405180830381600087803b151561169257600080fd5b5af1151561169f57600080fd5b5050506040518051915050600160a060020a038116158015906116d05750600554600160a060020a03828116911614155b156116f15760058054600160a060020a031916600160a060020a0383161790555b841561176b5781600160a060020a031663b7c46cd5308760405160e060020a63ffffffff8516028152600160a060020a0390921660048301526024820152604401602060405180830381600087803b151561174b57600080fd5b5af1151561175857600080fd5b5050506040518051600114905061176b57fe5b8215610bb55760069695505050505050565b6000610e968383611994565b611791612027565b610e9683836119c1565b6000610e938484846119f4565b6000610e93848484611a2f565b6110418383600160a060020a038416611a7b565b825460018401548354600160a060020a03909216916379a7cfee91908460405160e060020a63ffffffff861602815260048101939093526024830191909152600160a060020a03166044820152606401600060405180830381600087803b151561183257600080fd5b5af1151561183f57600080fd5b505050505050565b6000610e93848484611aa7565b6000610e93848460ea60020a621cd95d0285611abe565b611041838360ea60020a621cd95d0284611ada565b611041838360ea60020a621cd95d0284611b2e565b60006109e57f466561747572654665654d616e61676572000000000000000000000000000000610720565b815460018301548254600092600160a060020a03169163d3a396869160405160e060020a63ffffffff851602815260048101929092526024820152604401602060405180830381600087803b1515610e5157600080fd5b61191f610e6e565b600160a060020a03166347ab61b484848460405160e060020a63ffffffff8616028152600160a060020a03938416600482015291831660248301529091166044820152606401600060405180830381600087803b151561183257600080fd5b6000610e96838360ea60020a621cd95d02611bdc565b6000610e9683837f6f7264657265645f736574000000000000000000000000000000000000000000611bdc565b6119c9612027565b610e9683837f6f7264657265645f736574000000000000000000000000000000000000000000611be9565b600081602001511580611a185750611a16848484606001518560400151611c07565b155b15611a2557506000610e96565b5060019392505050565b6000611a3c8484846119f4565b1515611a4757600080fd5b81604001519050611a62848484606001518560400151611c44565b6040830152600160208301818151039052509392505050565b61104183837f6f7264657265645f73657400000000000000000000000000000000000000000084611c55565b6000610e93848460ea60020a621cd95d0285611d5b565b6000611acf85856001018585611d6b565b151595945050505050565b6000611ae885858585611abe565b15611af2576110b0565b611afd858585611bdc565b6001019050611b128560028601858486611d90565b611b228560018601858585611d90565b6110b085858584611db4565b6000806000611b3f87878787611abe565b1515611b4a57611bd3565b611b55878787611bdc565b9250611b6687600288018786611d6b565b9150611b7787876001018787611d6b565b905082811015611ba157611b918760018801878585611d90565b611ba18760028801878486611d90565b611bb2876001880187876000611d90565b611bc3876002880187866000611d90565b611bd38787876000198701611db4565b50505050505050565b6000610e93848484611e39565b611bf1612027565b610e93848484611c02838383611e39565b611ec6565b60008115801590611c3b5750611c2285856003018585611d6b565b151580611c3b575081611c39866002870186611ee6565b145b95945050505050565b6000611c3b85856003018585611d6b565b611c6184848484611c07565b1515611c6c57611d55565b611c98848460030184611c8488886004018888611d6b565b611c9389896003018989611d6b565b611f55565b611cbf848460040184611cb088886003018888611d6b565b611c9389896004018989611d6b565b611ccd848460010184611ee6565b811415611cf157611cf1848460010184611cec88886003018888611d6b565b611f68565b611cff848460020184611ee6565b811415611d1e57611d1e848460020184611cec88886004018888611d6b565b611d2d84846003018484611fe0565b611d3c84846004018484611fe0565b611d558484846001611d4f848484611e39565b03611db4565b50505050565b6000611c3b856002860185600186015b6000611c3b858585856040519182526020820152604090810190518091039020611ee6565b6110b085858585604051918252602082015260409081019051809103902084611f68565b835460018501548454600160a060020a03909216916353e7168b91908560405191825260208201526040908101905180910390208460405160e060020a63ffffffff8616028152600481019390935260248301919091526044820152606401600060405180830381600087803b1515611e2c57600080fd5b5af11515611bd357600080fd5b825460018401548354600092600160a060020a0316916353aa3f5e9185604051918252602082015260409081019051809103902060405160e060020a63ffffffff851602815260048101929092526024820152604401602060405180830381600087803b1515611ea857600080fd5b5af11515611eb557600080fd5b505050604051805195945050505050565b611ece612027565b611c3b83611ee0878760010187611ee6565b84611ff4565b825460018401548354600092600160a060020a0316916337d9d7fc9185604051918252602082015260409081019051809103902060405160e060020a63ffffffff851602815260048101929092526024820152604401602060405180830381600087803b1515611ea857600080fd5b81156110b0576110b08585858585611d90565b835460018501548454600160a060020a039092169163a14ff85791908560405191825260208201526040908101905180910390208460405160e060020a63ffffffff8616028152600481019390935260248301919091526044820152606401600060405180830381600087803b1515611e2c57600080fd5b8015611d5557611d55848484846000611d90565b611ffc612027565b6080604051908101604090815283825260208201939093529182019290925260608101929092525090565b60806040519081016040908152600080835260208301819052908201819052606082015290565b60206040519081016040526000815290565b8254600160a060020a031916600160a060020a0392909216919091178255600190910155565b815461209290826120ae565b9055565b6120a082826120c4565b5050565b6120a08282612215565b811515806120ba575080155b156120a057600080fd5b61210582826040519081527f75696e742f636f756e74000000000000000000000000000000000000000000006020820152602a016040518091039020612086565b61214982600101826040519081527f75696e742f6669727374000000000000000000000000000000000000000000006020820152602a016040518091039020612086565b61218d82600201826040519081527f75696e742f6c617374000000000000000000000000000000000000000000000060208201526029016040518091039020612086565b6121d182600301826040519081527f75696e742f6e657874000000000000000000000000000000000000000000000060208201526029016040518091039020612086565b6120a082600401826040519081527f75696e742f70726576000000000000000000000000000000000000000000000060208201526029016040518091039020612086565b61225682826040519081527f636f756e7400000000000000000000000000000000000000000000000000000060208201526025016040518091039020612086565b61229a82600101826040519081527f696e64657865730000000000000000000000000000000000000000000000000060208201526027016040518091039020612086565b6120a082600201826040519081527f76616c756573000000000000000000000000000000000000000000000000000060208201526026016040518091039020612086565b815461209290826120ae565b815461209290826120ae565b815461209290826120ae5600a165627a7a72305820cd0384eee2ed8355278e3212d3056fa88dd78b235a532948e4d47a9cfcbd1ee20029",
  "source": "pragma solidity ^0.4.11;\n\nimport \"../core/common/BaseManager.sol\";\nimport \"../timeholder/FeatureFeeAdapter.sol\";\nimport \"../core/common/OwnedInterface.sol\";\nimport \"../core/platform/ChronoBankAssetOwnershipManager.sol\";\nimport \"./PlatformsManagerEmitter.sol\";\nimport \"./AssetsManagerInterface.sol\";\nimport \"../core/platform/ChronoBankPlatform.sol\";\nimport \"../core/event/MultiEventsHistory.sol\";\n\n\ncontract PlatformsFactory {\n    function createPlatform(address eventsHistory) public returns (address);\n}\n\n\ncontract OwnedContract {\n    address public contractOwner;\n}\n\n\n/// @title Defines implementation for managing platforms creation and tracking system's platforms.\n/// Some methods could require to pay additional fee in TIMEs during their invocation.\ncontract PlatformsManager is FeatureFeeAdapter, BaseManager, PlatformsManagerEmitter {\n\n    /** Error codes */\n    uint constant ERROR_PLATFORMS_SCOPE = 21000;\n    uint constant ERROR_PLATFORMS_ATTACHING_PLATFORM_ALREADY_EXISTS = ERROR_PLATFORMS_SCOPE + 1;\n    uint constant ERROR_PLATFORMS_PLATFORM_DOES_NOT_EXIST = ERROR_PLATFORMS_SCOPE + 2;\n\n    /** Storage keys */\n\n    /// @dev address of platforms factory contract\n    StorageInterface.Address platformsFactory;\n\n    /// @dev DEPRECATED. WILL BE REMOVED IN THE NEXT RELEASE\n    StorageInterface.OrderedAddressesSet platforms_old;\n\n    /// @dev set(address) stands for set(platform)\n    StorageInterface.AddressesSet platforms;\n\n    /// @dev Guards methods for only platform owners\n    modifier onlyPlatformOwner(address _platform) {\n        if (_isPlatformOwner(_platform)) {\n            _;\n        }\n    }\n\n    function PlatformsManager(Storage _store, bytes32 _crate) BaseManager(_store, _crate) public {\n        platformsFactory.init(\"platformsFactory\");\n        platforms_old.init(\"v1platforms\"); /// NOTE: DEPRECATED. WILL BE REMOVED IN THE NEXT RELEASE\n        platforms.init(\"v2platforms\");\n    }\n\n    function init(address _contractsManager, address _platformsFactory) onlyContractOwner public returns (uint) {\n        BaseManager.init(_contractsManager, \"PlatformsManager\");\n\n        /// NOTE: migration loop. WILL BE REMOVED IN THE NEXT RELEASE\n        if (store.count(platforms_old) > 0) {\n            StorageInterface.Iterator memory _iterator = store.listIterator(platforms_old);\n            while (store.canGetNextWithIterator(platforms_old, _iterator)) {\n                address _platform = store.getNextWithIterator(platforms_old, _iterator);\n                store.add(platforms, _platform);\n                store.remove(platforms_old, _platform);\n            }\n        }\n\n        store.set(platformsFactory, _platformsFactory);\n\n        return OK;\n    }\n\n    /// @notice Checks if passed platform is presented in the system\n    /// @param _platform platform address\n    /// @return `true` if it is registered, `false` otherwise\n    function isPlatformAttached(address _platform) public view returns (bool) {\n        return store.includes(platforms, _platform);\n    }\n\n    /// @notice Returns number of registered platforms\n    function getPlatformsCount() public view returns (uint) {\n        return store.count(platforms);\n    }\n\n    /// @notice Gets a list of platforms registered in the manager. Paginated fetch.\n    /// @param _start first index of a platform to start. Basically starts with `0`\n    /// @param _size size of a page\n    /// @return _platforms an array of platforms' addresses\n    function getPlatforms(uint _start, uint _size) public view returns (address[] _platforms) {\n        uint _totalPlatformsCount = getPlatformsCount();\n        if (_start >= _totalPlatformsCount || _size == 0) {\n            return _platforms;\n        }\n        \n        _platforms = new address[](_size);\n\n        uint _lastIdx = (_start + _size >= _totalPlatformsCount) ? _totalPlatformsCount : _start + _size;\n        uint _platformIdx = 0;\n        for (uint _idx = _start; _idx < _lastIdx; ++_idx) {\n            _platforms[_platformIdx++] = store.get(platforms, _idx);\n        }\n    }\n\n    /// @notice Responsible for registering an existed platform in the system. Could be performed only by owner of passed platform.\n    /// @param _platform platform address\n    /// @return resultCode result code of an operation.\n    /// ERROR_PLATFORMS_ATTACHING_PLATFORM_ALREADY_EXISTS possible in case the platform is already attached\n    function attachPlatform(address _platform) public returns (uint resultCode) {\n        if (store.includes(platforms, _platform)) {\n            return _emitError(ERROR_PLATFORMS_ATTACHING_PLATFORM_ALREADY_EXISTS);\n        }\n\n        resultCode = multisig();\n        if (OK != resultCode) {\n            return _emitError(resultCode);\n        }\n\n        store.add(platforms, _platform);\n        MultiEventsHistory(getEventsHistory()).authorize(_platform);\n\n        _emitPlatformAttached(_platform, OwnedContract(_platform).contractOwner());\n        //TODO: @ahiatsevich: emitAssetsAttached / register in ERC20Manager?\n        //TODO: @ahiatsevich: emitOwnersAttaged?\n\n        return OK;\n    }\n\n    /// @notice Responsible for removing a platform from the system.\n    /// @param _platform platform address\n    /// @return resultCode result code of an operation.\n    ///   ERROR_PLATFORMS_PLATFORM_DOES_NOT_EXIST possible when passed platform is not registered in platforms manager contract\n    function detachPlatform(address _platform) onlyPlatformOwner(_platform) public returns (uint resultCode) {\n        if (!store.includes(platforms, _platform)) {\n            return _emitError(ERROR_PLATFORMS_PLATFORM_DOES_NOT_EXIST);\n        }\n\n        store.remove(platforms, _platform);\n        MultiEventsHistory(getEventsHistory()).reject(_platform);\n\n        _emitPlatformDetached(_platform, msg.sender);\n        return OK;\n    }\n\n    /// @notice Creates a brand new platform.\n    /// This method might take an additional fee in TIMEs.\n    /// @return resultCode result code of an operation\n    function createPlatform() public returns (uint resultCode) {\n        return _createPlatform([uint(0)]);\n    }\n\n    function _createPlatform(uint[1] memory _result)\n    private\n    featured(_result)\n    returns (uint resultCode)\n    {\n        PlatformsFactory factory = PlatformsFactory(store.get(platformsFactory));\n        address _platform = factory.createPlatform(getEventsHistory());\n        store.add(platforms, _platform);\n\n        AssetsManagerInterface assetsManager = AssetsManagerInterface(lookupManager(\"AssetsManager\"));\n        resultCode = assetsManager.requestTokenExtension(_platform);\n        address _tokenExtension;\n        if (resultCode == OK) {\n            _tokenExtension = assetsManager.getTokenExtension(_platform);\n            ChronoBankAssetOwnershipManager(_platform).addPartOwner(_tokenExtension);\n        }\n\n        OwnedInterface(_platform).transferContractOwnership(msg.sender);\n        _emitPlatformRequested(_platform, _tokenExtension, msg.sender);\n\n        _result[0] = OK;\n        return OK;\n    }\n\n    /// @dev Checks if passed platform is owned by msg.sender. PRIVATE\n    function _isPlatformOwner(address _platform) private view returns (bool) {\n        return OwnedContract(_platform).contractOwner() == msg.sender;\n    }\n\n    /**\n    * Events emitting\n    */\n\n    function _emitError(uint _errorCode) private returns (uint) {\n        PlatformsManagerEmitter(getEventsHistory()).emitError(_errorCode);\n        return _errorCode;\n    }\n\n    function _emitPlatformAttached(address _platform, address _by) private {\n        PlatformsManagerEmitter(getEventsHistory()).emitPlatformAttached(_platform, _by);\n    }\n\n    function _emitPlatformDetached(address _platform, address _by) private {\n        PlatformsManagerEmitter(getEventsHistory()).emitPlatformDetached(_platform, _by);\n    }\n\n    function _emitPlatformRequested(address _platform, address _tokenExtension, address sender) private {\n        PlatformsManagerEmitter(getEventsHistory()).emitPlatformRequested(_platform, _tokenExtension, sender);\n    }\n}\n",
  "sourcePath": "/Users/alesanro/Documents/Projects/ChronoBank/SmartContracts/contracts/assets/PlatformsManager.sol",
  "compiler": {
    "name": "solc",
    "version": "0.4.21+commit.dfe3193c.Emscripten.clang"
  },
  "schemaVersion": "2.0.0",
  "updatedAt": "2018-04-06T09:26:03.484Z"
}