{
  "contractName": "PlatformsManager",
  "abi": [
    {
      "constant": false,
      "inputs": [
        {
          "name": "_platform",
          "type": "address"
        },
        {
          "name": "_by",
          "type": "address"
        }
      ],
      "name": "emitPlatformDetached",
      "outputs": [],
      "payable": false,
      "stateMutability": "nonpayable",
      "type": "function"
    },
    {
      "constant": false,
      "inputs": [],
      "name": "claimContractOwnership",
      "outputs": [
        {
          "name": "",
          "type": "bool"
        }
      ],
      "payable": false,
      "stateMutability": "nonpayable",
      "type": "function"
    },
    {
      "constant": false,
      "inputs": [
        {
          "name": "_platform",
          "type": "address"
        },
        {
          "name": "_tokenExtension",
          "type": "address"
        },
        {
          "name": "_by",
          "type": "address"
        }
      ],
      "name": "emitPlatformRequested",
      "outputs": [],
      "payable": false,
      "stateMutability": "nonpayable",
      "type": "function"
    },
    {
      "constant": true,
      "inputs": [
        {
          "name": "_identifier",
          "type": "bytes32"
        }
      ],
      "name": "lookupManager",
      "outputs": [
        {
          "name": "manager",
          "type": "address"
        }
      ],
      "payable": false,
      "stateMutability": "view",
      "type": "function"
    },
    {
      "constant": true,
      "inputs": [],
      "name": "contractsManager",
      "outputs": [
        {
          "name": "",
          "type": "address"
        }
      ],
      "payable": false,
      "stateMutability": "view",
      "type": "function"
    },
    {
      "constant": false,
      "inputs": [
        {
          "name": "_to",
          "type": "address"
        }
      ],
      "name": "changeContractOwnership",
      "outputs": [
        {
          "name": "",
          "type": "bool"
        }
      ],
      "payable": false,
      "stateMutability": "nonpayable",
      "type": "function"
    },
    {
      "constant": true,
      "inputs": [],
      "name": "pendingContractOwner",
      "outputs": [
        {
          "name": "",
          "type": "address"
        }
      ],
      "payable": false,
      "stateMutability": "view",
      "type": "function"
    },
    {
      "constant": false,
      "inputs": [
        {
          "name": "_eventsHistory",
          "type": "address"
        }
      ],
      "name": "setEventsHistory",
      "outputs": [],
      "payable": false,
      "stateMutability": "nonpayable",
      "type": "function"
    },
    {
      "constant": false,
      "inputs": [
        {
          "name": "_contractsManager",
          "type": "address"
        }
      ],
      "name": "setContractsManager",
      "outputs": [],
      "payable": false,
      "stateMutability": "nonpayable",
      "type": "function"
    },
    {
      "constant": false,
      "inputs": [],
      "name": "destroy",
      "outputs": [],
      "payable": false,
      "stateMutability": "nonpayable",
      "type": "function"
    },
    {
      "constant": false,
      "inputs": [
        {
          "name": "_platform",
          "type": "address"
        }
      ],
      "name": "emitPlatformAttached",
      "outputs": [],
      "payable": false,
      "stateMutability": "nonpayable",
      "type": "function"
    },
    {
      "constant": false,
      "inputs": [
        {
          "name": "_to",
          "type": "address"
        }
      ],
      "name": "transferContractOwnership",
      "outputs": [
        {
          "name": "",
          "type": "bool"
        }
      ],
      "payable": false,
      "stateMutability": "nonpayable",
      "type": "function"
    },
    {
      "constant": true,
      "inputs": [],
      "name": "contractOwner",
      "outputs": [
        {
          "name": "",
          "type": "address"
        }
      ],
      "payable": false,
      "stateMutability": "view",
      "type": "function"
    },
    {
      "constant": false,
      "inputs": [
        {
          "name": "tokens",
          "type": "address[]"
        },
        {
          "name": "_to",
          "type": "address"
        }
      ],
      "name": "withdrawnTokens",
      "outputs": [
        {
          "name": "",
          "type": "uint256"
        }
      ],
      "payable": false,
      "stateMutability": "nonpayable",
      "type": "function"
    },
    {
      "constant": false,
      "inputs": [
        {
          "name": "_errorCode",
          "type": "uint256"
        }
      ],
      "name": "emitError",
      "outputs": [],
      "payable": false,
      "stateMutability": "nonpayable",
      "type": "function"
    },
    {
      "constant": true,
      "inputs": [
        {
          "name": "key",
          "type": "address"
        }
      ],
      "name": "isAuthorized",
      "outputs": [
        {
          "name": "",
          "type": "bool"
        }
      ],
      "payable": false,
      "stateMutability": "view",
      "type": "function"
    },
    {
      "constant": true,
      "inputs": [],
      "name": "getEventsHistory",
      "outputs": [
        {
          "name": "",
          "type": "address"
        }
      ],
      "payable": false,
      "stateMutability": "view",
      "type": "function"
    },
    {
      "inputs": [
        {
          "name": "_store",
          "type": "address"
        },
        {
          "name": "_crate",
          "type": "bytes32"
        }
      ],
      "payable": false,
      "stateMutability": "nonpayable",
      "type": "constructor"
    },
    {
      "anonymous": false,
      "inputs": [
        {
          "indexed": true,
          "name": "self",
          "type": "address"
        },
        {
          "indexed": false,
          "name": "platform",
          "type": "address"
        }
      ],
      "name": "PlatformAttached",
      "type": "event"
    },
    {
      "anonymous": false,
      "inputs": [
        {
          "indexed": true,
          "name": "self",
          "type": "address"
        },
        {
          "indexed": false,
          "name": "platform",
          "type": "address"
        },
        {
          "indexed": true,
          "name": "by",
          "type": "address"
        }
      ],
      "name": "PlatformDetached",
      "type": "event"
    },
    {
      "anonymous": false,
      "inputs": [
        {
          "indexed": true,
          "name": "self",
          "type": "address"
        },
        {
          "indexed": false,
          "name": "platform",
          "type": "address"
        },
        {
          "indexed": false,
          "name": "tokenExtension",
          "type": "address"
        },
        {
          "indexed": true,
          "name": "by",
          "type": "address"
        }
      ],
      "name": "PlatformRequested",
      "type": "event"
    },
    {
      "anonymous": false,
      "inputs": [
        {
          "indexed": true,
          "name": "self",
          "type": "address"
        },
        {
          "indexed": false,
          "name": "errorCode",
          "type": "uint256"
        }
      ],
      "name": "Error",
      "type": "event"
    },
    {
      "constant": false,
      "inputs": [
        {
          "name": "_contractsManager",
          "type": "address"
        },
        {
          "name": "_platformsFactory",
          "type": "address"
        }
      ],
      "name": "init",
      "outputs": [
        {
          "name": "",
          "type": "uint256"
        }
      ],
      "payable": false,
      "stateMutability": "nonpayable",
      "type": "function"
    },
    {
      "constant": true,
      "inputs": [
        {
          "name": "_platform",
          "type": "address"
        }
      ],
      "name": "isPlatformAttached",
      "outputs": [
        {
          "name": "",
          "type": "bool"
        }
      ],
      "payable": false,
      "stateMutability": "view",
      "type": "function"
    },
    {
      "constant": true,
      "inputs": [],
      "name": "getPlatformsCount",
      "outputs": [
        {
          "name": "",
          "type": "uint256"
        }
      ],
      "payable": false,
      "stateMutability": "view",
      "type": "function"
    },
    {
      "constant": true,
      "inputs": [
        {
          "name": "_start",
          "type": "uint256"
        },
        {
          "name": "_size",
          "type": "uint256"
        }
      ],
      "name": "getPlatforms",
      "outputs": [
        {
          "name": "_platforms",
          "type": "address[]"
        }
      ],
      "payable": false,
      "stateMutability": "view",
      "type": "function"
    },
    {
      "constant": false,
      "inputs": [
        {
          "name": "_platform",
          "type": "address"
        }
      ],
      "name": "attachPlatform",
      "outputs": [
        {
          "name": "resultCode",
          "type": "uint256"
        }
      ],
      "payable": false,
      "stateMutability": "nonpayable",
      "type": "function"
    },
    {
      "constant": false,
      "inputs": [
        {
          "name": "_platform",
          "type": "address"
        }
      ],
      "name": "detachPlatform",
      "outputs": [
        {
          "name": "resultCode",
          "type": "uint256"
        }
      ],
      "payable": false,
      "stateMutability": "nonpayable",
      "type": "function"
    },
    {
      "constant": false,
      "inputs": [],
      "name": "createPlatform",
      "outputs": [
        {
          "name": "resultCode",
          "type": "uint256"
        }
      ],
      "payable": false,
      "stateMutability": "nonpayable",
      "type": "function"
    }
  ],
  "bytecode": "0x606060405234156200001057600080fd5b604051604080620027828339810160405280805191906020018051915082905081818181816200005160008383640100000000620020006200014482021704565b505060028054600160a060020a03338116600160a060020a03199283161790925560058054309093169290911691909117905550620000c69250600691507f706c6174666f726d73466163746f7279000000000000000000000000000000009050640100000000620020266200016a82021704565b6200010160077f7631706c6174666f726d73000000000000000000000000000000000000000000640100000000620020366200018a82021704565b6200013c600c7f7632706c6174666f726d7300000000000000000000000000000000000000000064010000000062002044620001a882021704565b5050620004a4565b8254600160a060020a031916600160a060020a0392909216919091178255600190910155565b81546200018690826401000000006200204e620001c282021704565b9055565b620001a4828264010000000062002064620001da82021704565b5050565b620001a48282640100000000620021b56200039982021704565b81151580620001cf575080155b15620001a457600080fd5b6200023182826040519081527f75696e742f636f756e74000000000000000000000000000000000000000000006020820152602a0160405180910390206200016a6401000000000262002026176401000000009004565b6200028b82600101826040519081527f75696e742f6669727374000000000000000000000000000000000000000000006020820152602a0160405180910390206200016a6401000000000262002026176401000000009004565b620002e582600201826040519081527f75696e742f6c6173740000000000000000000000000000000000000000000000602082015260290160405180910390206200016a6401000000000262002026176401000000009004565b6200033f82600301826040519081527f75696e742f6e6578740000000000000000000000000000000000000000000000602082015260290160405180910390206200016a6401000000000262002026176401000000009004565b620001a482600401826040519081527f75696e742f707265760000000000000000000000000000000000000000000000602082015260290160405180910390206200016a6401000000000262002026176401000000009004565b620003f082826040519081527f636f756e74000000000000000000000000000000000000000000000000000000602082015260250160405180910390206200016a6401000000000262002026176401000000009004565b6200044a82600101826040519081527f696e646578657300000000000000000000000000000000000000000000000000602082015260270160405180910390206200016a6401000000000262002026176401000000009004565b620001a482600201826040519081527f76616c7565730000000000000000000000000000000000000000000000000000602082015260260160405180910390206200016a6401000000000262002026176401000000009004565b6122ce80620004b46000396000f3006060604052600436106101245763ffffffff60e060020a60003504166319e77baf8114610129578063237932cf1461015a5780634592cd1d1461018157806347ab61b4146101a85780634fe59012146101d357806353253d3114610205578063557f4bc9146102185780635aa77d3c146102375780636521afd71461024a57806371d3b5731461026957806373583f981461028857806383197ef0146102a757806388af6ff9146102ba5780638c1ae7f5146102d9578063a843c51f146102ec578063c7eff32e1461030b578063ce606ee01461032a578063d8f9659b1461033d578063df26ca0814610397578063ee4a16e5146103ad578063f09a4016146103c0578063f8e42da6146103e5578063fe9fbb8014610451578063fff10aba14610470575b600080fd5b341561013457600080fd5b610148600160a060020a0360043516610483565b60405190815260200160405180910390f35b341561016557600080fd5b61017f600160a060020a036004358116906024351661055b565b005b341561018c57600080fd5b6101946105b7565b604051901515815260200160405180910390f35b34156101b357600080fd5b61017f600160a060020a0360043581169060243581169060443516610604565b34156101de57600080fd5b6101e960043561066a565b604051600160a060020a03909116815260200160405180910390f35b341561021057600080fd5b6101e96106e2565b341561022357600080fd5b610194600160a060020a03600435166106f1565b341561024257600080fd5b6101e9610748565b341561025557600080fd5b61017f600160a060020a0360043516610757565b341561027457600080fd5b61017f600160a060020a036004351661078d565b341561029357600080fd5b610148600160a060020a03600435166107c4565b34156102b257600080fd5b61017f61088d565b34156102c557600080fd5b61017f600160a060020a0360043516610916565b34156102e457600080fd5b610148610967565b34156102f757600080fd5b610194600160a060020a0360043516610985565b341561031657600080fd5b610194600160a060020a03600435166109fe565b341561033557600080fd5b6101e9610a18565b341561034857600080fd5b610148600460248135818101908301358060208181020160405190810160405280939291908181526020018383602002808284375094965050509235600160a060020a03169250610a27915050565b34156103a257600080fd5b61017f600435610b5e565b34156103b857600080fd5b610148610ba5565b34156103cb57600080fd5b610148600160a060020a0360043581169060243516610bb8565b34156103f057600080fd5b6103fe600435602435610cad565b60405160208082528190810183818151815260200191508051906020019060200280838360005b8381101561043d578082015183820152602001610425565b505050509050019250505060405180910390f35b341561045c57600080fd5b610194600160a060020a0360043516610d70565b341561047b57600080fd5b6101e9610e09565b600061049781600c8463ffffffff610e1816565b156104ae576104a7615209610e38565b9050610556565b6104b6610e9d565b9050600181146104c9576104a781610e38565b6104dc6000600c8463ffffffff610fc816565b6104e4610e09565b600160a060020a031663b6a5d7de8360405160e060020a63ffffffff8416028152600160a060020a039091166004820152602401602060405180830381600087803b151561053157600080fd5b5af1151561053e57600080fd5b505050604051805190505061055282610fe1565b5060015b919050565b80600160a060020a031661056d611049565b600160a060020a03167f91fa8213ec3e06d6c6fc812bc9bdabb5cdeb5921d3ec76d0d710b744bb96b5d684604051600160a060020a03909116815260200160405180910390a35050565b60035460009033600160a060020a039081169116146105d857506000610601565b506003805460028054600160a060020a0319908116600160a060020a0384161790915516905560015b90565b80600160a060020a0316610616611049565b600160a060020a03167f675ebf44364662d6fd674a3ec79555047e602de0ed7429ee703618a9d5ce56618585604051600160a060020a039283168152911660208201526040908101905180910390a3505050565b600454600090600160a060020a031663bc6579278360405160e060020a63ffffffff84160281526004810191909152602401602060405180830381600087803b15156106b557600080fd5b5af115156106c257600080fd5b5050506040518051915050600160a060020a038116151561055657600080fd5b600454600160a060020a031681565b60025460009033600160a060020a039081169116141561055657600160a060020a038216151561072357506000610556565b5060038054600160a060020a038316600160a060020a03199091161790556001919050565b600354600160a060020a031681565b60025433600160a060020a039081169116141561078a5760058054600160a060020a031916600160a060020a0383161790555b50565b60025433600160a060020a039081169116141561078a5760048054600160a060020a038316600160a060020a031990911617905550565b6000816107d08161104d565b15610887576107e86000600c8563ffffffff610e1816565b1515610800576107f961520a610e38565b9150610887565b6108136000600c8563ffffffff6110be16565b61081b610e09565b600160a060020a031663ab0da5a98460405160e060020a63ffffffff8416028152600160a060020a039091166004820152602401600060405180830381600087803b151561086857600080fd5b5af1151561087557600080fd5b50505061088283336110d2565b600191505b50919050565b60025433600160a060020a039081169116141561091457600454600160a060020a031663c375c2ef3060405160e060020a63ffffffff8416028152600160a060020a039091166004820152602401602060405180830381600087803b15156108f457600080fd5b5af1151561090157600080fd5b5050506040518051905050610914611143565b565b61091e611049565b600160a060020a03167f7b9be80697e87c9f170fdad328e5063a97f4726939bc1b3546c8cd14650b5ba582604051600160a060020a03909116815260200160405180910390a250565b6000610980602060405190810160405260008152611166565b905090565b60025460009033600160a060020a039081169116141561055657600160a060020a03821615156109b757506000610556565b600354600160a060020a0316156109d95760038054600160a060020a03191690555b5060028054600160a060020a038316600160a060020a03199091161790556001919050565b6000610a1281600c8463ffffffff610e1816565b92915050565b600254600160a060020a031681565b60025460009081908190819033600160a060020a0390811691161415610b5557600092505b8551831015610b5057858381518110610a6157fe5b90602001906020020151915081600160a060020a03166370a082313060405160e060020a63ffffffff8416028152600160a060020a039091166004820152602401602060405180830381600087803b1515610abb57600080fd5b5af11515610ac857600080fd5b50505060405180519150508015610b455781600160a060020a031663a9059cbb868360405160e060020a63ffffffff8516028152600160a060020a0390921660048301526024820152604401602060405180830381600087803b1515610b2d57600080fd5b5af11515610b3a57600080fd5b505050604051805150505b600190920191610a4c565b600193505b50505092915050565b610b66611049565b600160a060020a03167f9cf38cf2dbf9139f5c32639950507b10775fbbe0421f3e168bc2d1bb1ae3208c8260405190815260200160405180910390a250565b600061098081600c63ffffffff61154016565b6000610bc2611fc7565b60025460009033600160a060020a0390811691161415610ca557610c06857f506c6174666f726d734d616e616765720000000000000000000000000000000061154c565b506000610c1a81600763ffffffff61172316565b1115610c8d57610c326000600763ffffffff61172f16565b91505b610c48600060078463ffffffff61174116565b15610c8d57610c60600060078463ffffffff61174e16565b9050610c756000600c8363ffffffff610fc816565b610c88600060078363ffffffff61175b16565b610c35565b610ca0600060068663ffffffff61176f16565b600192505b505092915050565b610cb5611fee565b600080600080610cc3610ba5565b93508387101580610cd2575085155b15610cdc57610d66565b85604051805910610cea5750595b90808252806020026020018201604052509450838688011015610d0f57858701610d11565b835b9250600091508690505b82811015610d6657610d366000600c8363ffffffff6117ed16565b6001830192869081518110610d4757fe5b600160a060020a03909216602092830290910190910152600101610d1b565b5050505092915050565b600080610d9c7f557365724d616e6167657200000000000000000000000000000000000000000061066a565b905080600160a060020a0316632aa09e5a8460405160e060020a63ffffffff8416028152600160a060020a039091166004820152602401602060405180830381600087803b1515610dec57600080fd5b5af11515610df957600080fd5b5050506040518051949350505050565b600554600160a060020a031690565b6000610e2e8484600160a060020a0385166117fa565b90505b9392505050565b6000610e42610e09565b600160a060020a031663df26ca088360405160e060020a63ffffffff84160281526004810191909152602401600060405180830381600087803b1515610e8757600080fd5b5af11515610e9457600080fd5b50929392505050565b6000806000610ecb7f50656e64696e674d616e6167657200000000000000000000000000000000000061066a565b915081600160a060020a031633600160a060020a0316141515610fbe57600036604051808383808284378201915050925050506040518091039020905081600160a060020a0316630fee1efc82600036303360405160e060020a63ffffffff881602815260048101868152600160a060020a0380851660448401528316606483015260806024830190815260848301869052909160a40186868082843782019150509650505050505050602060405180830381600087803b1515610f8e57600080fd5b5af11515610f9b57600080fd5b505050604051805193505060018314610fb45782610fb7565b60035b9250610fc3565b600192505b505090565b610fdc8383600160a060020a038416611811565b505050565b610fe9610e09565b600160a060020a03166388af6ff98260405160e060020a63ffffffff8416028152600160a060020a039091166004820152602401600060405180830381600087803b151561103657600080fd5b5af1151561104357600080fd5b50505050565b3390565b600033600160a060020a031682600160a060020a031663ce606ee06040518163ffffffff1660e060020a028152600401602060405180830381600087803b151561109657600080fd5b5af115156110a357600080fd5b50505060405180519050600160a060020a0316149050919050565b610fdc8383600160a060020a038416611826565b6110da610e09565b600160a060020a031663237932cf838360405160e060020a63ffffffff8516028152600160a060020a03928316600482015291166024820152604401600060405180830381600087803b151561112f57600080fd5b5af1151561113c57600080fd5b5050505050565b60025433600160a060020a03908116911614156109145733600160a060020a0316ff5b60008060008060008561117761183b565b600160a060020a031663709586c13330600035600160e060020a03191660405160e060020a63ffffffff8616028152600160a060020a039384166004820152919092166024820152600160e060020a03199091166044820152606401602060405180830381600087803b15156111ec57600080fd5b5af115156111f957600080fd5b505050604051805190501515611215576155f060005260206000f35b6112276000600663ffffffff61186616565b945084600160a060020a03166311ce05a3611240610e09565b60405160e060020a63ffffffff8416028152600160a060020a039091166004820152602401602060405180830381600087803b151561127e57600080fd5b5af1151561128b57600080fd5b505050604051805194506112aa90506000600c8663ffffffff610fc816565b6112d37f4173736574734d616e616765720000000000000000000000000000000000000061066a565b925082600160a060020a031663c97f57878560405160e060020a63ffffffff8416028152600160a060020a039091166004820152602401602060405180830381600087803b151561132357600080fd5b5af1151561133057600080fd5b505050604051805196505060018614156114105782600160a060020a031663e5ebb7a58560405160e060020a63ffffffff8416028152600160a060020a039091166004820152602401602060405180830381600087803b151561139257600080fd5b5af1151561139f57600080fd5b5050506040518051925050600160a060020a03841663a831751d8360405160e060020a63ffffffff8416028152600160a060020a039091166004820152602401602060405180830381600087803b15156113f857600080fd5b5af1151561140557600080fd5b505050604051805150505b83600160a060020a031663a843c51f3360405160e060020a63ffffffff8416028152600160a060020a039091166004820152602401602060405180830381600087803b151561145e57600080fd5b5af1151561146b57600080fd5b50505060405180519050506114818483336118bd565b6001808852955085815114801561152c5750600161149d61183b565b600160a060020a03166384509ca83330600035600160e060020a03191660405160e060020a63ffffffff8616028152600160a060020a039384166004820152919092166024820152600160e060020a03199091166044820152606401602060405180830381600087803b151561151257600080fd5b5af1151561151f57600080fd5b5050506040518051905014155b1561153657600080fd5b5050505050919050565b6000610e318383611924565b60025460009081908190819033600160a060020a0390811691161461157057600080fd5b600160a060020a038616151561158557600080fd5b600454600160a060020a03161580159350806115af5750600454600160a060020a03878116911614155b156115d05760048054600160a060020a031916600160a060020a0388161790555b600454600160a060020a031691508163bc65792760405160e060020a63ffffffff83160281527f4d756c74694576656e7473486973746f727900000000000000000000000000006004820152602401602060405180830381600087803b151561163857600080fd5b5af1151561164557600080fd5b5050506040518051915050600160a060020a038116158015906116765750600554600160a060020a03828116911614155b156116975760058054600160a060020a031916600160a060020a0383161790555b84156117115781600160a060020a031663b7c46cd5308760405160e060020a63ffffffff8516028152600160a060020a0390921660048301526024820152604401602060405180830381600087803b15156116f157600080fd5b5af115156116fe57600080fd5b5050506040518051600114905061171157fe5b8215610b505760069695505050505050565b6000610e31838361193a565b611737611fc7565b610e318383611967565b6000610e2e84848461199a565b6000610e2e8484846119d5565b610fdc8383600160a060020a038416611a21565b825460018401548354600160a060020a03909216916379a7cfee91908460405160e060020a63ffffffff861602815260048101939093526024830191909152600160a060020a03166044820152606401600060405180830381600087803b15156117d857600080fd5b5af115156117e557600080fd5b505050505050565b6000610e2e848484611a4d565b6000610e2e848460ea60020a621cd95d0285611a64565b610fdc838360ea60020a621cd95d0284611a80565b610fdc838360ea60020a621cd95d0284611ad4565b60006109807f466561747572654665654d616e6167657200000000000000000000000000000061066a565b815460018301548254600092600160a060020a03169163d3a396869160405160e060020a63ffffffff851602815260048101929092526024820152604401602060405180830381600087803b1515610dec57600080fd5b6118c5610e09565b600160a060020a03166347ab61b484848460405160e060020a63ffffffff8616028152600160a060020a03938416600482015291831660248301529091166044820152606401600060405180830381600087803b15156117d857600080fd5b6000610e31838360ea60020a621cd95d02611b82565b6000610e3183837f6f7264657265645f736574000000000000000000000000000000000000000000611b82565b61196f611fc7565b610e3183837f6f7264657265645f736574000000000000000000000000000000000000000000611b8f565b6000816020015115806119be57506119bc848484606001518560400151611bad565b155b156119cb57506000610e31565b5060019392505050565b60006119e284848461199a565b15156119ed57600080fd5b81604001519050611a08848484606001518560400151611bea565b6040830152600160208301818151039052509392505050565b610fdc83837f6f7264657265645f73657400000000000000000000000000000000000000000084611bfb565b6000610e2e848460ea60020a621cd95d0285611cfb565b6000611a7585856001018585611d0b565b151595945050505050565b6000611a8e85858585611a64565b15611a985761113c565b611aa3858585611b82565b6001019050611ab88560028601858486611d30565b611ac88560018601858585611d30565b61113c85858584611d54565b6000806000611ae587878787611a64565b1515611af057611b79565b611afb878787611b82565b9250611b0c87600288018786611d0b565b9150611b1d87876001018787611d0b565b905082811015611b4757611b378760018801878585611d30565b611b478760028801878486611d30565b611b58876001880187876000611d30565b611b69876002880187866000611d30565b611b798787876000198701611d54565b50505050505050565b6000610e2e848484611dd9565b611b97611fc7565b610e2e848484611ba8838383611dd9565b611e66565b60008115801590611be15750611bc885856003018585611d0b565b151580611be1575081611bdf866002870186611e86565b145b95945050505050565b6000611be185856003018585611d0b565b611c0784848484611bad565b1515611c1257611043565b611c3e848460030184611c2a88886004018888611d0b565b611c3989896003018989611d0b565b611ef5565b611c65848460040184611c5688886003018888611d0b565b611c3989896004018989611d0b565b611c73848460010184611e86565b811415611c9757611c97848460010184611c9288886003018888611d0b565b611f08565b611ca5848460020184611e86565b811415611cc457611cc4848460020184611c9288886004018888611d0b565b611cd384846003018484611f80565b611ce284846004018484611f80565b6110438484846001611cf5848484611dd9565b03611d54565b6000611be1856002860185600186015b6000611be1858585856040519182526020820152604090810190518091039020611e86565b61113c85858585604051918252602082015260409081019051809103902084611f08565b835460018501548454600160a060020a03909216916353e7168b91908560405191825260208201526040908101905180910390208460405160e060020a63ffffffff8616028152600481019390935260248301919091526044820152606401600060405180830381600087803b1515611dcc57600080fd5b5af11515611b7957600080fd5b825460018401548354600092600160a060020a0316916353aa3f5e9185604051918252602082015260409081019051809103902060405160e060020a63ffffffff851602815260048101929092526024820152604401602060405180830381600087803b1515611e4857600080fd5b5af11515611e5557600080fd5b505050604051805195945050505050565b611e6e611fc7565b611be183611e80878760010187611e86565b84611f94565b825460018401548354600092600160a060020a0316916337d9d7fc9185604051918252602082015260409081019051809103902060405160e060020a63ffffffff851602815260048101929092526024820152604401602060405180830381600087803b1515611e4857600080fd5b811561113c5761113c8585858585611d30565b835460018501548454600160a060020a039092169163a14ff85791908560405191825260208201526040908101905180910390208460405160e060020a63ffffffff8616028152600481019390935260248301919091526044820152606401600060405180830381600087803b1515611dcc57600080fd5b801561104357611043848484846000611d30565b611f9c611fc7565b6080604051908101604090815283825260208201939093529182019290925260608101929092525090565b60806040519081016040908152600080835260208301819052908201819052606082015290565b60206040519081016040526000815290565b8254600160a060020a031916600160a060020a0392909216919091178255600190910155565b8154612032908261204e565b9055565b6120408282612064565b5050565b61204082826121b5565b8115158061205a575080155b1561204057600080fd5b6120a582826040519081527f75696e742f636f756e74000000000000000000000000000000000000000000006020820152602a016040518091039020612026565b6120e982600101826040519081527f75696e742f6669727374000000000000000000000000000000000000000000006020820152602a016040518091039020612026565b61212d82600201826040519081527f75696e742f6c617374000000000000000000000000000000000000000000000060208201526029016040518091039020612026565b61217182600301826040519081527f75696e742f6e657874000000000000000000000000000000000000000000000060208201526029016040518091039020612026565b61204082600401826040519081527f75696e742f70726576000000000000000000000000000000000000000000000060208201526029016040518091039020612026565b6121f682826040519081527f636f756e7400000000000000000000000000000000000000000000000000000060208201526025016040518091039020612026565b61223a82600101826040519081527f696e64657865730000000000000000000000000000000000000000000000000060208201526027016040518091039020612026565b61204082600201826040519081527f76616c756573000000000000000000000000000000000000000000000000000060208201526026016040518091039020612026565b8154612032908261204e565b8154612032908261204e565b8154612032908261204e5600a165627a7a7230582047a69da06fd006a681930e08726bdd7ed2cecd23bcf2ffb7360fc927a4e45fd80029",
  "source": "pragma solidity ^0.4.11;\n\nimport \"../core/common/BaseManager.sol\";\nimport \"../timeholder/FeatureFeeAdapter.sol\";\nimport \"../core/common/OwnedInterface.sol\";\nimport \"../core/platform/ChronoBankAssetOwnershipManager.sol\";\nimport \"./PlatformsManagerEmitter.sol\";\nimport \"./AssetsManagerInterface.sol\";\nimport \"../core/platform/ChronoBankPlatform.sol\";\nimport \"../core/event/MultiEventsHistory.sol\";\n\n\ncontract PlatformsFactory {\n    function createPlatform(address eventsHistory) public returns (address);\n}\n\n\ncontract OwnedContract {\n    address public contractOwner;\n}\n\n\n/// @title Defines implementation for managing platforms creation and tracking system's platforms.\n/// Some methods could require to pay additional fee in TIMEs during their invocation.\ncontract PlatformsManager is FeatureFeeAdapter, BaseManager, PlatformsManagerEmitter {\n\n    /** Error codes */\n    uint constant ERROR_PLATFORMS_SCOPE = 21000;\n    uint constant ERROR_PLATFORMS_ATTACHING_PLATFORM_ALREADY_EXISTS = ERROR_PLATFORMS_SCOPE + 1;\n    uint constant ERROR_PLATFORMS_PLATFORM_DOES_NOT_EXIST = ERROR_PLATFORMS_SCOPE + 2;\n\n    /** Storage keys */\n\n    /// @dev address of platforms factory contract\n    StorageInterface.Address platformsFactory;\n\n    /// @dev DEPRECATED. WILL BE REMOVED IN THE NEXT RELEASE\n    StorageInterface.OrderedAddressesSet platforms_old;\n\n    /// @dev set(address) stands for set(platform)\n    StorageInterface.AddressesSet platforms;\n\n    /// @dev Guards methods for only platform owners\n    modifier onlyPlatformOwner(address _platform) {\n        if (_isPlatformOwner(_platform)) {\n            _;\n        }\n    }\n\n    function PlatformsManager(Storage _store, bytes32 _crate) BaseManager(_store, _crate) public {\n        platformsFactory.init(\"platformsFactory\");\n        platforms_old.init(\"v1platforms\"); /// NOTE: DEPRECATED. WILL BE REMOVED IN THE NEXT RELEASE\n        platforms.init(\"v2platforms\");\n    }\n\n    function init(address _contractsManager, address _platformsFactory) onlyContractOwner public returns (uint) {\n        BaseManager.init(_contractsManager, \"PlatformsManager\");\n\n        /// NOTE: migration loop. WILL BE REMOVED IN THE NEXT RELEASE\n        if (store.count(platforms_old) > 0) {\n            StorageInterface.Iterator memory _iterator = store.listIterator(platforms_old);\n            while (store.canGetNextWithIterator(platforms_old, _iterator)) {\n                address _platform = store.getNextWithIterator(platforms_old, _iterator);\n                store.add(platforms, _platform);\n                store.remove(platforms_old, _platform);\n            }\n        }\n\n        store.set(platformsFactory, _platformsFactory);\n\n        return OK;\n    }\n\n    /// @notice Checks if passed platform is presented in the system\n    /// @param _platform platform address\n    /// @return `true` if it is registered, `false` otherwise\n    function isPlatformAttached(address _platform) public view returns (bool) {\n        return store.includes(platforms, _platform);\n    }\n\n    /// @notice Returns number of registered platforms\n    function getPlatformsCount() public view returns (uint) {\n        return store.count(platforms);\n    }\n\n    /// @notice Gets a list of platforms registered in the manager. Paginated fetch.\n    /// @param _start first index of a platform to start. Basically starts with `0`\n    /// @param _size size of a page\n    /// @return _platforms an array of platforms' addresses\n    function getPlatforms(uint _start, uint _size) public view returns (address[] _platforms) {\n        uint _totalPlatformsCount = getPlatformsCount();\n        if (_start >= _totalPlatformsCount || _size == 0) {\n            return _platforms;\n        }\n        _platforms = new address[](_size);\n\n        uint _lastIdx = (_start + _size >= _totalPlatformsCount) ? _totalPlatformsCount : _start + _size;\n        uint _platformIdx = 0;\n        for (uint _idx = _start; _idx < _lastIdx; ++_idx) {\n            _platforms[_platformIdx++] = store.get(platforms, _idx);\n        }\n    }\n\n    /// @notice Responsible for registering an existed platform in the system. Could be performed only by owner of passed platform.\n    /// @param _platform platform address\n    /// @return resultCode result code of an operation.\n    /// ERROR_PLATFORMS_ATTACHING_PLATFORM_ALREADY_EXISTS possible in case the platform is already attached\n    function attachPlatform(address _platform) public returns (uint resultCode) {\n        if (store.includes(platforms, _platform)) {\n            return _emitError(ERROR_PLATFORMS_ATTACHING_PLATFORM_ALREADY_EXISTS);\n        }\n\n        resultCode = multisig();\n        if (OK != resultCode) {\n            return _emitError(resultCode);\n        }\n\n        store.add(platforms, _platform);\n        MultiEventsHistory(getEventsHistory()).authorize(_platform);\n\n        _emitPlatformAttached(_platform);\n        //TODO: @ahiatsevich: emitAssetsAttached / register in ERC20Manager?\n        //TODO: @ahiatsevich: emitOwnersAttaged?\n\n        return OK;\n    }\n\n    /// @notice Responsible for removing a platform from the system.\n    /// @param _platform platform address\n    /// @return resultCode result code of an operation.\n    ///   ERROR_PLATFORMS_PLATFORM_DOES_NOT_EXIST possible when passed platform is not registered in platforms manager contract\n    function detachPlatform(address _platform) onlyPlatformOwner(_platform) public returns (uint resultCode) {\n        if (!store.includes(platforms, _platform)) {\n            return _emitError(ERROR_PLATFORMS_PLATFORM_DOES_NOT_EXIST);\n        }\n\n        store.remove(platforms, _platform);\n        MultiEventsHistory(getEventsHistory()).reject(_platform);\n\n        _emitPlatformDetached(_platform, msg.sender);\n        return OK;\n    }\n\n    /// @notice Creates a brand new platform.\n    /// This method might take an additional fee in TIMEs.\n    /// @return resultCode result code of an operation\n    function createPlatform() public returns (uint resultCode) {\n        return _createPlatform([uint(0)]);\n    }\n\n    function _createPlatform(uint[1] memory _result)\n    private\n    featured(_result)\n    returns (uint resultCode)\n    {\n        PlatformsFactory factory = PlatformsFactory(store.get(platformsFactory));\n        address _platform = factory.createPlatform(getEventsHistory());\n        store.add(platforms, _platform);\n\n        AssetsManagerInterface assetsManager = AssetsManagerInterface(lookupManager(\"AssetsManager\"));\n        resultCode = assetsManager.requestTokenExtension(_platform);\n        address _tokenExtension;\n        if (resultCode == OK) {\n            _tokenExtension = assetsManager.getTokenExtension(_platform);\n            ChronoBankAssetOwnershipManager(_platform).addPartOwner(_tokenExtension);\n        }\n\n        OwnedInterface(_platform).transferContractOwnership(msg.sender);\n        _emitPlatformRequested(_platform, _tokenExtension, msg.sender);\n\n        _result[0] = OK;\n        return OK;\n    }\n\n    /// @dev Checks if passed platform is owned by msg.sender. PRIVATE\n    function _isPlatformOwner(address _platform) private view returns (bool) {\n        return OwnedContract(_platform).contractOwner() == msg.sender;\n    }\n\n    /**\n    * Events emitting\n    */\n\n    function _emitError(uint _errorCode) private returns (uint) {\n        PlatformsManagerEmitter(getEventsHistory()).emitError(_errorCode);\n        return _errorCode;\n    }\n\n    function _emitPlatformAttached(address _platform) private {\n        PlatformsManagerEmitter(getEventsHistory()).emitPlatformAttached(_platform);\n    }\n\n    function _emitPlatformDetached(address _platform, address _by) private {\n        PlatformsManagerEmitter(getEventsHistory()).emitPlatformDetached(_platform, _by);\n    }\n\n    function _emitPlatformRequested(address _platform, address _tokenExtension, address sender) private {\n        PlatformsManagerEmitter(getEventsHistory()).emitPlatformRequested(_platform, _tokenExtension, sender);\n    }\n}\n",
  "sourcePath": "/Users/ahiatsevich/Development/chronobank/SmartContracts/contracts/assets/PlatformsManager.sol",
  "compiler": {
    "name": "solc",
    "version": "0.4.21+commit.dfe3193c.Emscripten.clang"
  },
  "schemaVersion": "2.0.0",
  "updatedAt": "2018-04-05T14:57:02.710Z"
}