{
  "contractName": "PlatformTokenExtensionGatewayManagerEmitter",
  "abi": [
    {
      "anonymous": false,
      "inputs": [
        {
          "indexed": true,
          "name": "self",
          "type": "address"
        },
        {
          "indexed": false,
          "name": "errorCode",
          "type": "uint256"
        }
      ],
      "name": "Error",
      "type": "event"
    },
    {
      "anonymous": false,
      "inputs": [
        {
          "indexed": true,
          "name": "self",
          "type": "address"
        },
        {
          "indexed": false,
          "name": "platform",
          "type": "address"
        },
        {
          "indexed": false,
          "name": "symbol",
          "type": "bytes32"
        },
        {
          "indexed": false,
          "name": "token",
          "type": "address"
        },
        {
          "indexed": true,
          "name": "by",
          "type": "address"
        }
      ],
      "name": "AssetCreated",
      "type": "event"
    },
    {
      "anonymous": false,
      "inputs": [
        {
          "indexed": true,
          "name": "self",
          "type": "address"
        },
        {
          "indexed": false,
          "name": "platform",
          "type": "address"
        },
        {
          "indexed": false,
          "name": "symbol",
          "type": "bytes32"
        },
        {
          "indexed": false,
          "name": "campaign",
          "type": "address"
        },
        {
          "indexed": true,
          "name": "by",
          "type": "address"
        }
      ],
      "name": "CrowdsaleCampaignCreated",
      "type": "event"
    },
    {
      "anonymous": false,
      "inputs": [
        {
          "indexed": true,
          "name": "self",
          "type": "address"
        },
        {
          "indexed": false,
          "name": "platform",
          "type": "address"
        },
        {
          "indexed": false,
          "name": "symbol",
          "type": "bytes32"
        },
        {
          "indexed": false,
          "name": "campaign",
          "type": "address"
        },
        {
          "indexed": true,
          "name": "by",
          "type": "address"
        }
      ],
      "name": "CrowdsaleCampaignRemoved",
      "type": "event"
    },
    {
      "constant": false,
      "inputs": [
        {
          "name": "_errorCode",
          "type": "uint256"
        }
      ],
      "name": "emitError",
      "outputs": [],
      "payable": false,
      "stateMutability": "nonpayable",
      "type": "function"
    },
    {
      "constant": false,
      "inputs": [
        {
          "name": "_platform",
          "type": "address"
        },
        {
          "name": "_symbol",
          "type": "bytes32"
        },
        {
          "name": "_token",
          "type": "address"
        },
        {
          "name": "_by",
          "type": "address"
        }
      ],
      "name": "emitAssetCreated",
      "outputs": [],
      "payable": false,
      "stateMutability": "nonpayable",
      "type": "function"
    },
    {
      "constant": false,
      "inputs": [
        {
          "name": "_platform",
          "type": "address"
        },
        {
          "name": "_symbol",
          "type": "bytes32"
        },
        {
          "name": "_campaign",
          "type": "address"
        },
        {
          "name": "_by",
          "type": "address"
        }
      ],
      "name": "emitCrowdsaleCampaignCreated",
      "outputs": [],
      "payable": false,
      "stateMutability": "nonpayable",
      "type": "function"
    },
    {
      "constant": false,
      "inputs": [
        {
          "name": "_platform",
          "type": "address"
        },
        {
          "name": "_symbol",
          "type": "bytes32"
        },
        {
          "name": "_campaign",
          "type": "address"
        },
        {
          "name": "_by",
          "type": "address"
        }
      ],
      "name": "emitCrowdsaleCampaignRemoved",
      "outputs": [],
      "payable": false,
      "stateMutability": "nonpayable",
      "type": "function"
    }
  ],
  "bytecode": "0x6060604052341561000f57600080fd5b6102e18061001e6000396000f3006060604052600436106100615763ffffffff7c01000000000000000000000000000000000000000000000000000000006000350416630252fbce811461006657806322629b2614610097578063ae8bb1bc146100c6578063df26ca08146100f5575b600080fd5b341561007157600080fd5b610095600160a060020a03600435811690602435906044358116906064351661010b565b005b34156100a257600080fd5b610095600160a060020a036004358116906024359060443581169060643516610180565b34156100d157600080fd5b610095600160a060020a0360043581169060243590604435811690606435166101f5565b341561010057600080fd5b61009560043561026a565b80600160a060020a031661011d6102b1565b600160a060020a03167fc6867e4e81e56199e17568c0d06dbd3f28cb4967dcafca727f074a945eeaf55b868686604051600160a060020a03938416815260208101929092529091166040808301919091526060909101905180910390a350505050565b80600160a060020a03166101926102b1565b600160a060020a03167f8a1e3d1b07283e4c133a6cc3779cd8c05688adb2efed51aa9d621b6fb95b0586868686604051600160a060020a03938416815260208101929092529091166040808301919091526060909101905180910390a350505050565b80600160a060020a03166102076102b1565b600160a060020a03167fa4ceb18b61ee798a9ace28050c416a4652c89c3d203ee542e193ed6da3d13d7c868686604051600160a060020a03938416815260208101929092529091166040808301919091526060909101905180910390a350505050565b6102726102b1565b600160a060020a03167f9cf38cf2dbf9139f5c32639950507b10775fbbe0421f3e168bc2d1bb1ae3208c8260405190815260200160405180910390a250565b33905600a165627a7a72305820354f37c35affb090c7d55035211ea511095370b14590b18e8705dec2ed7b0cb00029",
  "source": "/**\n * Copyright 2017–2018, LaborX PTY\n * Licensed under the AGPL Version 3 license.\n */\n\npragma solidity ^0.4.21;\n\n\nimport \"../../core/event/MultiEventsHistoryAdapter.sol\";\n\n\n/// @title Emitter with support of events history for TokenExtensionRouter\n///\n/// Contains all the original event emitting function definitions and events.\n/// In case of new events needed later, additional emitters can be developed.\n/// All the functions is meant to be called using delegatecall.\ncontract PlatformTokenExtensionGatewayManagerEmitter is MultiEventsHistoryAdapter {\n\n    /// @dev Event for errors\n    event Error(address indexed self, uint errorCode);\n\n    /// @dev Event for creating an asset\n    event AssetCreated(address indexed self, address platform, bytes32 symbol, address token, address indexed by);\n\n    /// @dev Event for starting token's crowdsale\n    event CrowdsaleCampaignCreated(address indexed self, address platform, bytes32 symbol, address campaign, address indexed by);\n\n    /// @dev Event for removing token's crowdsale\n    event CrowdsaleCampaignRemoved(address indexed self, address platform, bytes32 symbol, address campaign, address indexed by);\n\n    function emitError(uint _errorCode) public {\n        emit Error(_self(), _errorCode);\n    }\n\n    function emitAssetCreated(address _platform, bytes32 _symbol, address _token, address _by) public {\n        emit AssetCreated(_self(), _platform, _symbol, _token, _by);\n    }\n\n    function emitCrowdsaleCampaignCreated(address _platform, bytes32 _symbol, address _campaign, address _by) public {\n        emit CrowdsaleCampaignCreated(_self(), _platform, _symbol, _campaign, _by);\n    }\n\n    function emitCrowdsaleCampaignRemoved(address _platform, bytes32 _symbol, address _campaign, address _by) public {\n        emit CrowdsaleCampaignRemoved(_self(), _platform, _symbol, _campaign, _by);\n    }\n}\n",
  "sourcePath": "/Users/mikefluff/Documents/Programming/Chronobank/test/SmartContracts/contracts/assets/extensions/PlatformTokenExtensionGatewayManagerEmitter.sol",
  "compiler": {
    "name": "solc",
    "version": "0.4.21+commit.dfe3193c.Emscripten.clang"
  },
  "schemaVersion": "2.0.0",
  "updatedAt": "2018-04-11T07:40:05.129Z"
}