{
  "contractName": "PollEmitter",
  "abi": [
    {
      "anonymous": false,
      "inputs": [
        {
          "indexed": true,
          "name": "self",
          "type": "address"
        },
        {
          "indexed": false,
          "name": "choice",
          "type": "uint8"
        }
      ],
      "name": "PollVoted",
      "type": "event"
    },
    {
      "anonymous": false,
      "inputs": [
        {
          "indexed": true,
          "name": "self",
          "type": "address"
        }
      ],
      "name": "PollActivated",
      "type": "event"
    },
    {
      "anonymous": false,
      "inputs": [
        {
          "indexed": true,
          "name": "self",
          "type": "address"
        }
      ],
      "name": "PollEnded",
      "type": "event"
    },
    {
      "anonymous": false,
      "inputs": [
        {
          "indexed": true,
          "name": "self",
          "type": "address"
        },
        {
          "indexed": false,
          "name": "hash",
          "type": "bytes32"
        }
      ],
      "name": "PollDetailsHashUpdated",
      "type": "event"
    },
    {
      "anonymous": false,
      "inputs": [
        {
          "indexed": true,
          "name": "self",
          "type": "address"
        },
        {
          "indexed": false,
          "name": "errorCode",
          "type": "uint256"
        }
      ],
      "name": "Error",
      "type": "event"
    },
    {
      "constant": false,
      "inputs": [
        {
          "name": "errorCode",
          "type": "uint256"
        }
      ],
      "name": "emitError",
      "outputs": [],
      "payable": false,
      "stateMutability": "nonpayable",
      "type": "function"
    },
    {
      "constant": false,
      "inputs": [
        {
          "name": "choice",
          "type": "uint8"
        }
      ],
      "name": "emitPollVoted",
      "outputs": [],
      "payable": false,
      "stateMutability": "nonpayable",
      "type": "function"
    },
    {
      "constant": false,
      "inputs": [],
      "name": "emitPollActivated",
      "outputs": [],
      "payable": false,
      "stateMutability": "nonpayable",
      "type": "function"
    },
    {
      "constant": false,
      "inputs": [],
      "name": "emitPollEnded",
      "outputs": [],
      "payable": false,
      "stateMutability": "nonpayable",
      "type": "function"
    },
    {
      "constant": false,
      "inputs": [
        {
          "name": "hash",
          "type": "bytes32"
        }
      ],
      "name": "emitPollDetailsHashUpdated",
      "outputs": [],
      "payable": false,
      "stateMutability": "nonpayable",
      "type": "function"
    }
  ],
  "bytecode": "0x6060604052341561000f57600080fd5b6102a68061001e6000396000f30060606040526004361061006c5763ffffffff7c010000000000000000000000000000000000000000000000000000000060003504166314696c8381146100715780636c24d51e14610086578063b6808a9c14610099578063df26ca08146100af578063e2bb323b146100c5575b600080fd5b341561007c57600080fd5b6100846100de565b005b341561009157600080fd5b61008461012a565b34156100a457600080fd5b610084600435610176565b34156100ba57600080fd5b6100846004356101ca565b34156100d057600080fd5b61008460ff6004351661021e565b6100e6610276565b73ffffffffffffffffffffffffffffffffffffffff167f5628e52d43406d18add7d63a4c9e07f573165f6faff201802fcf178e314c67b460405160405180910390a2565b610132610276565b73ffffffffffffffffffffffffffffffffffffffff167f65de543be011e1b68dcea0af69bf30d0d04a847764a396cc7af2aaa3986d13aa60405160405180910390a2565b61017e610276565b73ffffffffffffffffffffffffffffffffffffffff167f95d3fa706c117cff3d32eea8c865dfc93b434fcad3742845cfe1e52753bf2e738260405190815260200160405180910390a250565b6101d2610276565b73ffffffffffffffffffffffffffffffffffffffff167f9cf38cf2dbf9139f5c32639950507b10775fbbe0421f3e168bc2d1bb1ae3208c8260405190815260200160405180910390a250565b610226610276565b73ffffffffffffffffffffffffffffffffffffffff167f4e38c414740d6fff0089331e9a30e4db17b2ce069c6711c34e2049c9c610ae638260405160ff909116815260200160405180910390a250565b33905600a165627a7a72305820a2cb9a8bb3fdf1627af5c8c5ca4d2bde0758d4625be273345346d208568b7ea80029",
  "source": "/**\n * Copyright 2017–2018, LaborX PTY\n * Licensed under the AGPL Version 3 license.\n */\n\npragma solidity ^0.4.21;\n\n\nimport \"../core/event/MultiEventsHistoryAdapter.sol\";\n\n\n/// @title Emitter with support of events history for PollEntity implementation\n///\n/// Contains all the original event emitting function definitions and events.\n/// In case of new events needed later, additional emitters can be developed.\n/// All the functions is meant to be called using delegatecall.\ncontract PollEmitter is MultiEventsHistoryAdapter {\n\n    /** Events */\n\n    event PollVoted(address indexed self, uint8 choice);\n    event PollActivated(address indexed self);\n    event PollEnded(address indexed self);\n    event PollDetailsHashUpdated(address indexed self, bytes32 hash);\n    event Error(address indexed self, uint errorCode);\n\n\n    /** Emitting events */\n\n    function emitError(uint errorCode) public {\n        emit Error(_self(), errorCode);\n    }\n\n    function emitPollVoted(uint8 choice) public {\n        emit PollVoted(_self(), choice);\n    }\n\n    function emitPollActivated() public {\n        emit PollActivated(_self());\n    }\n\n    function emitPollEnded() public {\n        emit PollEnded(_self());\n    }\n\n    function emitPollDetailsHashUpdated(bytes32 hash) public {\n        emit PollDetailsHashUpdated(_self(), hash);\n    }\n}\n",
  "sourcePath": "/Users/mikefluff/Documents/Programming/Chronobank/test/SmartContracts/contracts/vote/PollEmitter.sol",
  "compiler": {
    "name": "solc",
    "version": "0.4.21+commit.dfe3193c.Emscripten.clang"
  },
  "schemaVersion": "2.0.0",
  "updatedAt": "2018-04-11T08:13:19.182Z"
}