{
  "contractName": "PollRouter",
  "abi": [
    {
      "constant": false,
      "inputs": [],
      "name": "emitPollActivated",
      "outputs": [],
      "payable": false,
      "stateMutability": "nonpayable",
      "type": "function"
    },
    {
      "constant": false,
      "inputs": [],
      "name": "emitPollEnded",
      "outputs": [],
      "payable": false,
      "stateMutability": "nonpayable",
      "type": "function"
    },
    {
      "constant": false,
      "inputs": [
        {
          "name": "hash",
          "type": "bytes32"
        }
      ],
      "name": "emitPollDetailsHashUpdated",
      "outputs": [],
      "payable": false,
      "stateMutability": "nonpayable",
      "type": "function"
    },
    {
      "constant": false,
      "inputs": [
        {
          "name": "errorCode",
          "type": "uint256"
        }
      ],
      "name": "emitError",
      "outputs": [],
      "payable": false,
      "stateMutability": "nonpayable",
      "type": "function"
    },
    {
      "constant": false,
      "inputs": [
        {
          "name": "choice",
          "type": "uint8"
        }
      ],
      "name": "emitPollVoted",
      "outputs": [],
      "payable": false,
      "stateMutability": "nonpayable",
      "type": "function"
    },
    {
      "inputs": [
        {
          "name": "_contractsManager",
          "type": "address"
        },
        {
          "name": "_backend",
          "type": "address"
        }
      ],
      "payable": false,
      "stateMutability": "nonpayable",
      "type": "constructor"
    },
    {
      "payable": true,
      "stateMutability": "payable",
      "type": "fallback"
    },
    {
      "anonymous": false,
      "inputs": [
        {
          "indexed": true,
          "name": "self",
          "type": "address"
        },
        {
          "indexed": false,
          "name": "choice",
          "type": "uint8"
        }
      ],
      "name": "PollVoted",
      "type": "event"
    },
    {
      "anonymous": false,
      "inputs": [
        {
          "indexed": true,
          "name": "self",
          "type": "address"
        }
      ],
      "name": "PollActivated",
      "type": "event"
    },
    {
      "anonymous": false,
      "inputs": [
        {
          "indexed": true,
          "name": "self",
          "type": "address"
        }
      ],
      "name": "PollEnded",
      "type": "event"
    },
    {
      "anonymous": false,
      "inputs": [
        {
          "indexed": true,
          "name": "self",
          "type": "address"
        },
        {
          "indexed": false,
          "name": "hash",
          "type": "bytes32"
        }
      ],
      "name": "PollDetailsHashUpdated",
      "type": "event"
    },
    {
      "anonymous": false,
      "inputs": [
        {
          "indexed": true,
          "name": "self",
          "type": "address"
        },
        {
          "indexed": false,
          "name": "errorCode",
          "type": "uint256"
        }
      ],
      "name": "Error",
      "type": "event"
    }
  ],
  "bytecode": "0x6060604052341561000f57600080fd5b6040516040806103a78339810160405280805191906020018051915050600160a060020a038116151561004157600080fd5b600160a060020a038216151561005657600080fd5b60008054600160a060020a03338116600160a060020a0319928316179092556003805494831694821694909417909355600280549290911691909216179055610303806100a46000396000f30060606040526004361061006c5763ffffffff7c010000000000000000000000000000000000000000000000000000000060003504166314696c8381146100b25780636c24d51e146100c7578063b6808a9c146100da578063df26ca08146100f0578063e2bb323b14610106575b600061007661011f565b905060405136810160405236600082376000803683856127105a03f46040513d81016040523d6000823e81600181146100ae57600080fd5b3d82f35b34156100bd57600080fd5b6100c561013b565b005b34156100d257600080fd5b6100c5610187565b34156100e557600080fd5b6100c56004356101d3565b34156100fb57600080fd5b6100c5600435610227565b341561011157600080fd5b6100c560ff6004351661027b565b60025473ffffffffffffffffffffffffffffffffffffffff1690565b6101436102d3565b73ffffffffffffffffffffffffffffffffffffffff167f5628e52d43406d18add7d63a4c9e07f573165f6faff201802fcf178e314c67b460405160405180910390a2565b61018f6102d3565b73ffffffffffffffffffffffffffffffffffffffff167f65de543be011e1b68dcea0af69bf30d0d04a847764a396cc7af2aaa3986d13aa60405160405180910390a2565b6101db6102d3565b73ffffffffffffffffffffffffffffffffffffffff167f95d3fa706c117cff3d32eea8c865dfc93b434fcad3742845cfe1e52753bf2e738260405190815260200160405180910390a250565b61022f6102d3565b73ffffffffffffffffffffffffffffffffffffffff167f9cf38cf2dbf9139f5c32639950507b10775fbbe0421f3e168bc2d1bb1ae3208c8260405190815260200160405180910390a250565b6102836102d3565b73ffffffffffffffffffffffffffffffffffffffff167f4e38c414740d6fff0089331e9a30e4db17b2ce069c6711c34e2049c9c610ae638260405160ff909116815260200160405180910390a250565b33905600a165627a7a72305820fbca780d37832880cbbf9571191e094982a8dbb7589de98ae7b9e77d9b21f4ba0029",
  "source": "pragma solidity ^0.4.11;\n\nimport \"../core/common/BaseByzantiumRouter.sol\";\nimport \"../core/contracts/ContractsManagerInterface.sol\";\nimport \"../core/common/Owned.sol\";\nimport \"./PollEmitter.sol\";\n\n\n/// @title Defines a shell that will redirects almost all actions to a backend address.\n/// This contract provides storage layout of variables that will be accessed during delegatecall.\n/// Partially implements PollInterface interface.\ncontract PollRouter is BaseByzantiumRouter, PollEmitter {\n\n    /**\n    * Storage variables. DO NOT CHANGE VARIABLES' LAYOUT UNDER ANY CIRCUMSTANCES!\n    */\n\n    address internal contractOwner;\n    address internal pendingContractOwner;\n\n    address internal backendAddress;\n    address internal contractsManager;\n\n\n    /** PUBLIC section */\n\n    function PollRouter(address _contractsManager, address _backend) public {\n        require(_backend != 0x0);\n        require(_contractsManager != 0x0);\n\n        contractOwner = msg.sender;\n        contractsManager = _contractsManager;\n        backendAddress = _backend;\n    }\n\n    /// @notice Gets address of a backend contract\n    /// @return _backend address of a backend contract\n    function backend() internal view returns (address) {\n        return backendAddress;\n    }\n}\n",
  "sourcePath": "/Users/alesanro/Documents/Projects/ChronoBank/SmartContracts/contracts/vote/PollRouter.sol",
  "compiler": {
    "name": "solc",
    "version": "0.4.21+commit.dfe3193c.Emscripten.clang"
  },
  "schemaVersion": "2.0.0",
  "updatedAt": "2018-04-06T09:20:58.900Z"
}