{
  "contractName": "PollEmitter",
  "abi": [
    {
      "constant": false,
      "inputs": [],
      "name": "emitPollActivated",
      "outputs": [],
      "payable": false,
      "stateMutability": "nonpayable",
      "type": "function"
    },
    {
      "constant": false,
      "inputs": [],
      "name": "emitPollEnded",
      "outputs": [],
      "payable": false,
      "stateMutability": "nonpayable",
      "type": "function"
    },
    {
      "constant": false,
      "inputs": [
        {
          "name": "errorCode",
          "type": "uint256"
        }
      ],
      "name": "emitError",
      "outputs": [],
      "payable": false,
      "stateMutability": "nonpayable",
      "type": "function"
    },
    {
      "constant": false,
      "inputs": [
        {
          "name": "choice",
          "type": "uint8"
        }
      ],
      "name": "emitPollVoted",
      "outputs": [],
      "payable": false,
      "stateMutability": "nonpayable",
      "type": "function"
    },
    {
      "anonymous": false,
      "inputs": [
        {
          "indexed": true,
          "name": "self",
          "type": "address"
        },
        {
          "indexed": false,
          "name": "choice",
          "type": "uint8"
        }
      ],
      "name": "PollVoted",
      "type": "event"
    },
    {
      "anonymous": false,
      "inputs": [
        {
          "indexed": true,
          "name": "self",
          "type": "address"
        }
      ],
      "name": "PollActivated",
      "type": "event"
    },
    {
      "anonymous": false,
      "inputs": [
        {
          "indexed": true,
          "name": "self",
          "type": "address"
        }
      ],
      "name": "PollEnded",
      "type": "event"
    },
    {
      "anonymous": false,
      "inputs": [
        {
          "indexed": true,
          "name": "self",
          "type": "address"
        },
        {
          "indexed": false,
          "name": "errorCode",
          "type": "uint256"
        }
      ],
      "name": "Error",
      "type": "event"
    }
  ],
  "bytecode": "0x6060604052341561000f57600080fd5b6102318061001e6000396000f3006060604052600436106100615763ffffffff7c010000000000000000000000000000000000000000000000000000000060003504166314696c8381146100665780636c24d51e1461007b578063df26ca081461008e578063e2bb323b146100a4575b600080fd5b341561007157600080fd5b6100796100bd565b005b341561008657600080fd5b610079610109565b341561009957600080fd5b610079600435610155565b34156100af57600080fd5b61007960ff600435166101a9565b6100c5610201565b73ffffffffffffffffffffffffffffffffffffffff167f5628e52d43406d18add7d63a4c9e07f573165f6faff201802fcf178e314c67b460405160405180910390a2565b610111610201565b73ffffffffffffffffffffffffffffffffffffffff167f65de543be011e1b68dcea0af69bf30d0d04a847764a396cc7af2aaa3986d13aa60405160405180910390a2565b61015d610201565b73ffffffffffffffffffffffffffffffffffffffff167f9cf38cf2dbf9139f5c32639950507b10775fbbe0421f3e168bc2d1bb1ae3208c8260405190815260200160405180910390a250565b6101b1610201565b73ffffffffffffffffffffffffffffffffffffffff167f4e38c414740d6fff0089331e9a30e4db17b2ce069c6711c34e2049c9c610ae638260405160ff909116815260200160405180910390a250565b33905600a165627a7a723058202fa601a7b0f4ca0159077cdaa9b6e00131a915662d99b1a7efeab1b62dbf2d2d0029",
  "source": "pragma solidity ^0.4.11;\n\nimport '../core/event/MultiEventsHistoryAdapter.sol';\n\n/// @title Emitter with support of events history for PollEntity implementation\ncontract PollEmitter is MultiEventsHistoryAdapter {\n\n    /** Events */\n\n    event PollVoted(address indexed self, uint8 choice);\n\n    event PollActivated(address indexed self);\n\n    event PollEnded(address indexed self);\n\n    event Error(address indexed self, uint errorCode);\n\n\n    /** Emitters */\n\n    function emitError(uint errorCode) public {\n        Error(_self(), errorCode);\n    }\n\n    function emitPollVoted(uint8 choice) public {\n        PollVoted(_self(), choice);\n    }\n\n    function emitPollActivated() public {\n        PollActivated(_self());\n    }\n\n    function emitPollEnded() public {\n        PollEnded(_self());\n    }\n}\n",
  "sourcePath": "/Users/ahiatsevich/Development/chronobank/SmartContracts/contracts/vote/PollEmitter.sol",
  "compiler": {
    "name": "solc",
    "version": "0.4.18+commit.9cf6e910.Emscripten.clang"
  },
  "schemaVersion": "1.0.1",
  "updatedAt": "2018-01-29T15:14:03.931Z"
}