{
  "contractName": "PollBackend",
  "abi": [
    {
      "constant": true,
      "inputs": [
        {
          "name": "",
          "type": "uint8"
        }
      ],
      "name": "optionsBalance",
      "outputs": [
        {
          "name": "",
          "type": "uint256"
        }
      ],
      "payable": false,
      "stateMutability": "view",
      "type": "function"
    },
    {
      "constant": false,
      "inputs": [],
      "name": "claimContractOwnership",
      "outputs": [
        {
          "name": "",
          "type": "bool"
        }
      ],
      "payable": false,
      "stateMutability": "nonpayable",
      "type": "function"
    },
    {
      "constant": true,
      "inputs": [
        {
          "name": "",
          "type": "address"
        }
      ],
      "name": "memberVotes",
      "outputs": [
        {
          "name": "",
          "type": "uint256"
        }
      ],
      "payable": false,
      "stateMutability": "view",
      "type": "function"
    },
    {
      "constant": false,
      "inputs": [
        {
          "name": "_to",
          "type": "address"
        }
      ],
      "name": "changeContractOwnership",
      "outputs": [
        {
          "name": "",
          "type": "bool"
        }
      ],
      "payable": false,
      "stateMutability": "nonpayable",
      "type": "function"
    },
    {
      "constant": true,
      "inputs": [],
      "name": "pendingContractOwner",
      "outputs": [
        {
          "name": "",
          "type": "address"
        }
      ],
      "payable": false,
      "stateMutability": "view",
      "type": "function"
    },
    {
      "constant": false,
      "inputs": [],
      "name": "destroy",
      "outputs": [],
      "payable": false,
      "stateMutability": "nonpayable",
      "type": "function"
    },
    {
      "constant": true,
      "inputs": [
        {
          "name": "",
          "type": "address"
        }
      ],
      "name": "memberOptions",
      "outputs": [
        {
          "name": "",
          "type": "uint8"
        }
      ],
      "payable": false,
      "stateMutability": "view",
      "type": "function"
    },
    {
      "constant": false,
      "inputs": [
        {
          "name": "_to",
          "type": "address"
        }
      ],
      "name": "transferContractOwnership",
      "outputs": [
        {
          "name": "",
          "type": "bool"
        }
      ],
      "payable": false,
      "stateMutability": "nonpayable",
      "type": "function"
    },
    {
      "constant": true,
      "inputs": [],
      "name": "contractOwner",
      "outputs": [
        {
          "name": "",
          "type": "address"
        }
      ],
      "payable": false,
      "stateMutability": "view",
      "type": "function"
    },
    {
      "payable": false,
      "stateMutability": "nonpayable",
      "type": "fallback"
    },
    {
      "constant": true,
      "inputs": [],
      "name": "active",
      "outputs": [
        {
          "name": "",
          "type": "bool"
        }
      ],
      "payable": false,
      "stateMutability": "view",
      "type": "function"
    },
    {
      "constant": true,
      "inputs": [
        {
          "name": "_key",
          "type": "address"
        }
      ],
      "name": "isAuthorized",
      "outputs": [
        {
          "name": "",
          "type": "bool"
        }
      ],
      "payable": false,
      "stateMutability": "view",
      "type": "function"
    },
    {
      "constant": true,
      "inputs": [],
      "name": "owner",
      "outputs": [
        {
          "name": "",
          "type": "address"
        }
      ],
      "payable": false,
      "stateMutability": "view",
      "type": "function"
    },
    {
      "constant": true,
      "inputs": [],
      "name": "getEventsHistory",
      "outputs": [
        {
          "name": "",
          "type": "address"
        }
      ],
      "payable": false,
      "stateMutability": "view",
      "type": "function"
    },
    {
      "constant": true,
      "inputs": [],
      "name": "getPollListener",
      "outputs": [
        {
          "name": "",
          "type": "address"
        }
      ],
      "payable": false,
      "stateMutability": "view",
      "type": "function"
    },
    {
      "constant": true,
      "inputs": [
        {
          "name": "_user",
          "type": "address"
        }
      ],
      "name": "hasMember",
      "outputs": [
        {
          "name": "",
          "type": "bool"
        }
      ],
      "payable": false,
      "stateMutability": "view",
      "type": "function"
    },
    {
      "constant": true,
      "inputs": [],
      "name": "getVoteLimit",
      "outputs": [
        {
          "name": "",
          "type": "uint256"
        }
      ],
      "payable": false,
      "stateMutability": "view",
      "type": "function"
    },
    {
      "constant": true,
      "inputs": [],
      "name": "getDetails",
      "outputs": [
        {
          "name": "_owner",
          "type": "address"
        },
        {
          "name": "_detailsIpfsHash",
          "type": "bytes32"
        },
        {
          "name": "_votelimit",
          "type": "uint256"
        },
        {
          "name": "_deadline",
          "type": "uint256"
        },
        {
          "name": "_status",
          "type": "bool"
        },
        {
          "name": "_active",
          "type": "bool"
        },
        {
          "name": "_creation",
          "type": "uint256"
        },
        {
          "name": "_optionsCount",
          "type": "uint256"
        }
      ],
      "payable": false,
      "stateMutability": "view",
      "type": "function"
    },
    {
      "constant": true,
      "inputs": [],
      "name": "getVotesBalances",
      "outputs": [
        {
          "name": "_options",
          "type": "uint8[]"
        },
        {
          "name": "_balances",
          "type": "uint256[]"
        }
      ],
      "payable": false,
      "stateMutability": "view",
      "type": "function"
    },
    {
      "constant": false,
      "inputs": [
        {
          "name": "_contractsManager",
          "type": "address"
        }
      ],
      "name": "init",
      "outputs": [
        {
          "name": "",
          "type": "uint256"
        }
      ],
      "payable": false,
      "stateMutability": "nonpayable",
      "type": "function"
    },
    {
      "constant": false,
      "inputs": [
        {
          "name": "_optionsCount",
          "type": "uint256"
        },
        {
          "name": "_detailsIpfsHash",
          "type": "bytes32"
        },
        {
          "name": "_votelimit",
          "type": "uint256"
        },
        {
          "name": "_deadline",
          "type": "uint256"
        }
      ],
      "name": "init",
      "outputs": [
        {
          "name": "",
          "type": "uint256"
        }
      ],
      "payable": false,
      "stateMutability": "nonpayable",
      "type": "function"
    },
    {
      "constant": false,
      "inputs": [
        {
          "name": "_choice",
          "type": "uint8"
        }
      ],
      "name": "vote",
      "outputs": [
        {
          "name": "_resultCode",
          "type": "uint256"
        }
      ],
      "payable": false,
      "stateMutability": "nonpayable",
      "type": "function"
    },
    {
      "constant": false,
      "inputs": [],
      "name": "activatePoll",
      "outputs": [
        {
          "name": "_resultCode",
          "type": "uint256"
        }
      ],
      "payable": false,
      "stateMutability": "nonpayable",
      "type": "function"
    },
    {
      "constant": false,
      "inputs": [],
      "name": "endPoll",
      "outputs": [
        {
          "name": "_resultCode",
          "type": "uint256"
        }
      ],
      "payable": false,
      "stateMutability": "nonpayable",
      "type": "function"
    },
    {
      "constant": false,
      "inputs": [],
      "name": "killPoll",
      "outputs": [],
      "payable": false,
      "stateMutability": "nonpayable",
      "type": "function"
    },
    {
      "constant": false,
      "inputs": [
        {
          "name": "_detailsIpfsHash",
          "type": "bytes32"
        }
      ],
      "name": "updatePollDetailsIpfsHash",
      "outputs": [
        {
          "name": "",
          "type": "uint256"
        }
      ],
      "payable": false,
      "stateMutability": "nonpayable",
      "type": "function"
    },
    {
      "constant": false,
      "inputs": [
        {
          "name": "",
          "type": "address"
        },
        {
          "name": "_address",
          "type": "address"
        },
        {
          "name": "_amount",
          "type": "uint256"
        },
        {
          "name": "_total",
          "type": "uint256"
        }
      ],
      "name": "tokenDeposit",
      "outputs": [
        {
          "name": "",
          "type": "uint256"
        }
      ],
      "payable": false,
      "stateMutability": "nonpayable",
      "type": "function"
    },
    {
      "constant": false,
      "inputs": [
        {
          "name": "",
          "type": "address"
        },
        {
          "name": "_address",
          "type": "address"
        },
        {
          "name": "_amount",
          "type": "uint256"
        },
        {
          "name": "_total",
          "type": "uint256"
        }
      ],
      "name": "tokenWithdrawn",
      "outputs": [
        {
          "name": "",
          "type": "uint256"
        }
      ],
      "payable": false,
      "stateMutability": "nonpayable",
      "type": "function"
    },
    {
      "constant": true,
      "inputs": [
        {
          "name": "_identifier",
          "type": "bytes32"
        }
      ],
      "name": "lookupManager",
      "outputs": [
        {
          "name": "manager",
          "type": "address"
        }
      ],
      "payable": false,
      "stateMutability": "view",
      "type": "function"
    }
  ],
  "bytecode": "0x60606040526008805460ff1916905560008054600160a060020a03191633600160a060020a031617815561155f90819061003990396000f3006060604052600436106101505763ffffffff60e060020a60003504166302fb0c5e811461016057806307e829d11461018757806312d42835146101b257806319ab453c146101d15780634592cd1d146101f0578063483e3956146102035780634a9f914e146102185780634ca95be8146102375780634fe5901214610262578063557f4bc9146102945780635aa77d3c146102b3578063628c2bfc146102c6578063657e8c13146102dc57806375a2490c146102ef57806383197ef01461030e5780638d99b2eb146103215780638da5cb5b1461033457806391c7a0ae14610347578063934f2f0b1461037c5780639cd0044814610428578063a843c51f14610453578063b3f98adc14610472578063ce606ee01461048b578063e9daae651461049e578063f12e6101146104b1578063fbbf93a0146104c4578063fe9fbb801461052a578063fff10aba14610549575b341561015b57600080fd5b600080fd5b341561016b57600080fd5b61017361055c565b604051901515815260200160405180910390f35b341561019257600080fd5b6101a060ff60043516610578565b60405190815260200160405180910390f35b34156101bd57600080fd5b610173600160a060020a036004351661058a565b34156101dc57600080fd5b6101a0600160a060020a03600435166105ae565b34156101fb57600080fd5b61017361060a565b341561020e57600080fd5b610216610661565b005b341561022357600080fd5b6101a0600160a060020a03600435166106e6565b341561024257600080fd5b6101a0600160a060020a03600435811690602435166044356064356106f8565b341561026d57600080fd5b6102786004356107fc565b604051600160a060020a03909116815260200160405180910390f35b341561029f57600080fd5b610173600160a060020a0360043516610871565b34156102be57600080fd5b6102786108d1565b34156102d157600080fd5b6101a06004356108e0565b34156102e757600080fd5b6101a061096e565b34156102fa57600080fd5b6101a06004356024356044356064356109de565b341561031957600080fd5b610216610a7d565b341561032c57600080fd5b6101a0610aa0565b341561033f57600080fd5b610278610aea565b341561035257600080fd5b610366600160a060020a0360043516610af9565b60405160ff909116815260200160405180910390f35b341561038757600080fd5b61038f610b0e565b604051808060200180602001838103835285818151815260200191508051906020019060200280838360005b838110156103d35780820151838201526020016103bb565b50505050905001838103825284818151815260200191508051906020019060200280838360005b838110156104125780820151838201526020016103fa565b5050505090500194505050505060405180910390f35b341561043357600080fd5b6101a0600160a060020a0360043581169060243516604435606435610bf1565b341561045e57600080fd5b610173600160a060020a0360043516610ce3565b341561047d57600080fd5b6101a060ff60043516610d74565b341561049657600080fd5b610278610fe3565b34156104a957600080fd5b6101a0610ff2565b34156104bc57600080fd5b6102786110fa565b34156104cf57600080fd5b6104d7611113565b604051600160a060020a039098168852602088019690965260408088019590955260608701939093529015156080860152151560a085015260c084015260e0830191909152610100909101905180910390f35b341561053557600080fd5b610173600160a060020a0360043516611175565b341561055457600080fd5b610278611209565b6000600160085460ff16600281111561057157fe5b1490505b90565b600c6020526000908152604090205481565b600160a060020a0381166000908152600a602052604090205460ff1615155b919050565b6000805433600160a060020a03908116911614156105a957600160a060020a03821615156105db57600080fd5b60038054600160a060020a03841673ffffffffffffffffffffffffffffffffffffffff19909116179055919050565b60015460009033600160a060020a0390811691161461062b57506000610575565b50600180546000805473ffffffffffffffffffffffffffffffffffffffff19908116600160a060020a0384161790915516815590565b61066a33611175565b156106e45761067761055c565b1561068157600080fd5b6106896110fa565b600160a060020a031663d9b35f8a6040518163ffffffff1660e060020a028152600401600060405180830381600087803b15156106c557600080fd5b5af115156106d257600080fd5b5050600054600160a060020a03169050ff5b565b600b6020526000908152604090205481565b60008060006107146000805160206115148339815191526107fc565b600160a060020a031633600160a060020a031614151561073357600080fd5b61073c8661058a565b151561074b57600092506107f2565b61075361055c565b156107ed575050600160a060020a0384166000908152600a602090815260408083205460ff16808452600c90925290912054610795818663ffffffff61123416565b600160a060020a0387166000908152600b6020908152604080832088905560ff86168352600c909152902081905590508315156107ed57600160a060020a0386166000908152600a60205260409020805460ff191690555b600192505b5050949350505050565b600354600090600160a060020a031663bc6579278360405160e060020a63ffffffff84160281526004810191909152602401602060405180830381600087803b151561084757600080fd5b5af1151561085457600080fd5b5050506040518051915050600160a060020a03811615156105a957fe5b6000805433600160a060020a03908116911614156105a957600160a060020a03821615156108a1575060006105a9565b5060018054600160a060020a03831673ffffffffffffffffffffffffffffffffffffffff19909116178155919050565b600154600160a060020a031681565b6000805433600160a060020a03908116911614156105a95781151561090457600080fd5b6004829055610911611209565b600160a060020a031663b6808a9c8360405160e060020a63ffffffff84160281526004810191909152602401600060405180830381600087803b151561095657600080fd5b5af1151561096357600080fd5b506001949350505050565b60006109876000805160206115148339815191526107fc565b600160a060020a031663657e8c136040518163ffffffff1660e060020a028152600401602060405180830381600087803b15156109c357600080fd5b5af115156109d057600080fd5b505050604051805191505090565b6000805433600160a060020a0390811691161415610a755760028510158015610a08575060108511155b1515610a1357600080fd5b831515610a1f57600080fd5b610a2761096e565b831115610a3357600080fd5b428211610a3f57600080fd5b60075415610a5957610a52616591611246565b9050610a75565b5060098490556004839055600582905560068190554260075560015b949350505050565b60005433600160a060020a03908116911614156106e45733600160a060020a0316ff5b6000610aaa61055c565b1515610ac257610abb616593611246565b9050610575565b610aca6112ab565b905060018114610add57610abb816113d6565b610ae5611403565b905090565b600054600160a060020a031690565b600a6020526000908152604090205460ff1681565b610b16611501565b610b1e611501565b6000600954604051805910610b305750595b908082528060200260200182016040525092508251604051805910610b525750595b90808252806020026020018201604052509150600090505b82518160ff161015610bec5780600101838260ff1681518110610b8957fe5b60ff92831660209182029092010152600c906000908590841681518110610bac57fe5b9060200190602002015160ff1660ff16815260200190815260200160002054828260ff1681518110610bda57fe5b60209081029091010152600101610b6a565b509091565b6000806000610c0d6000805160206115148339815191526107fc565b600160a060020a031633600160a060020a0316141515610c2c57600080fd5b610c358661058a565b1515610c4457600092506107f2565b610c4c61055c565b15610cbf575050600160a060020a0384166000908152600a602090815260408083205460ff16808452600c90925290912054610c8e818663ffffffff6114c316565b600160a060020a0387166000908152600b6020908152604080832088905560ff86168352600c909152902081905590505b610cc8816114d9565b156107ed57610cd5611403565b506001979650505050505050565b6000805433600160a060020a03908116911614156105a957600160a060020a0382161515610d13575060006105a9565b600154600160a060020a031615610d42576001805473ffffffffffffffffffffffffffffffffffffffff191690555b5060008054600160a060020a03831673ffffffffffffffffffffffffffffffffffffffff199091161790556001919050565b60008060008060008560ff16118015610d9257506009548560ff1611155b1515610d9d57600080fd5b600160a060020a0333166000908152600a602052604090205460ff1615610dd057610dc9616594611246565b9350610fdb565b610dd861055c565b1515610de957610dc9616593611246565b610e127f54696d65486f6c646572000000000000000000000000000000000000000000006107fc565b925082600160a060020a031663956501bb3360405160e060020a63ffffffff8416028152600160a060020a039091166004820152602401602060405180830381600087803b1515610e6257600080fd5b5af11515610e6f57600080fd5b5050506040518051925050811515610e8c57610dc9616592611246565b60ff85166000908152600c6020526040902054610eaf908363ffffffff6114c316565b60ff86166000818152600c60209081526040808320859055600160a060020a0333168352600b8252808320879055600a9091529020805460ff191690911790559050610ef96110fa565b600160a060020a031663a2ad5faa308760405160e060020a63ffffffff8516028152600160a060020a03909216600483015260ff166024820152604401600060405180830381600087803b1515610f4f57600080fd5b5af11515610f5c57600080fd5b505050610f67611209565b600160a060020a031663e2bb323b8660405160e060020a63ffffffff841602815260ff9091166004820152602401600060405180830381600087803b1515610fae57600080fd5b5af11515610fbb57600080fd5b505050610fc7816114d9565b15610fd657610fd4611403565b505b600193505b505050919050565b600054600160a060020a031681565b60008060085460ff16600281111561100657fe5b1415806110135750600754155b1561102357610abb616593611246565b61102b6112ab565b90506001811461103e57610abb816113d6565b6008805460ff191660011790556110536110fa565b600160a060020a031663654fd7d66040518163ffffffff1660e060020a028152600401600060405180830381600087803b151561108f57600080fd5b5af1151561109c57600080fd5b5050506110a7611209565b600160a060020a03166314696c836040518163ffffffff1660e060020a028152600401600060405180830381600087803b15156110e357600080fd5b5af115156110f057600080fd5b5050506001905090565b6000610ae56000805160206115148339815191526107fc565b60085460008054600454600554600654600160a060020a0390931694919390929181908190819060ff16600281600281111561114b57fe5b14159450600181600281111561115d57fe5b14935060075492506009549150509091929394959697565b60006111a07f557365724d616e616765720000000000000000000000000000000000000000006107fc565b600160a060020a0316632aa09e5a8360405160e060020a63ffffffff8416028152600160a060020a039091166004820152602401602060405180830381600087803b15156111ed57600080fd5b5af115156111fa57600080fd5b50505060405180519392505050565b6000610ae57f4d756c74694576656e7473486973746f727900000000000000000000000000006107fc565b60008282111561124057fe5b50900390565b6000611250611209565b600160a060020a031663df26ca088360405160e060020a63ffffffff84160281526004810191909152602401600060405180830381600087803b151561129557600080fd5b5af115156112a257600080fd5b50929392505050565b60008060006112d97f50656e64696e674d616e616765720000000000000000000000000000000000006107fc565b915081600160a060020a031633600160a060020a03161415156113cc57600036604051808383808284378201915050925050506040518091039020905081600160a060020a0316630fee1efc82600036303360405160e060020a63ffffffff881602815260048101868152600160a060020a0380851660448401528316606483015260806024830190815260848301869052909160a40186868082843782019150509650505050505050602060405180830381600087803b151561139c57600080fd5b5af115156113a957600080fd5b5050506040518051935050600183146113c257826113c5565b60035b92506113d1565b600192505b505090565b6000600182141580156113ea575060038214155b156113ff576113f882611246565b90506105a9565b5090565b600061140d61055c565b151561141e57610abb616593611246565b6008805460ff191660021790556114336110fa565b600160a060020a031663cfe0784a6040518163ffffffff1660e060020a028152600401600060405180830381600087803b151561146f57600080fd5b5af1151561147c57600080fd5b505050611487611209565b600160a060020a0316636c24d51e6040518163ffffffff1660e060020a028152600401600060405180830381600087803b15156110e357600080fd5b6000828201838110156114d257fe5b9392505050565b6005546000908083108015906114d2575060008111806114d257504260065411159392505050565b602060405190810160405260008152905600566f74696e674d616e6167657200000000000000000000000000000000000000a165627a7a72305820241b2dc4780eb24d2ba11d3041705ef445e682d8494c520e1d560c9053dd4f1c0029",
  "source": "pragma solidity ^0.4.11;\n\nimport \"../core/common/Owned.sol\";\nimport \"../core/contracts/ContractsManagerInterface.sol\";\nimport \"../core/lib/SafeMath.sol\";\nimport \"../core/user/UserManagerInterface.sol\";\nimport \"../timeholder/TimeHolderInterface.sol\";\nimport \"../pending/MultiSigSupporter.sol\";\nimport \"./VotingManagerInterface.sol\";\nimport \"./PollEmitter.sol\";\nimport \"./PollInterface.sol\";\n\n\n/// @title Backend contract is created to reduce size of poll contract and transfer all logic\n/// and operations (where it's possible) on a shoulders of this contract. This contract could\n/// be updatable through by publishing new poll factory.\n///\n/// It is not supposed to be registered in ContractsManager.\ncontract PollBackend is Owned, MultiSigSupporter {\n    using SafeMath for uint;\n\n    /** Constants */\n\n    uint8 constant OPTIONS_POLLS_MAX = 16;\n\n    /** Error codes */\n\n    uint constant UNAUTHORIZED = 0;\n    uint constant ERROR_POLL_BACKEND_INVALID_INVOCATION = 26001;\n    uint constant ERROR_POLL_BACKEND_NO_SHARES = 26002;\n    uint constant ERROR_POLL_BACKEND_INVALID_STATE = 26003;\n    uint constant ERROR_POLL_BACKEND_ALREADY_VOTED = 26004;\n\n    /// @title Defines finite number of poll's state:\n    /// - Prepare - poll is probably initialized and ready to be activated\n    /// - Active - poll is active, people could vote and poll could be ended\n    /// - Finished - poll is ended and ready to be utilized (killed)\n    enum State { Prepare, Active, Finished }\n\n    /**\n    * Storage variables. Duplicates @see PollRouter storage layout so\n    * DO NOT CHANGE VARIABLES' LAYOUT UNDER ANY CIRCUMSTANCES!\n    */\n\n    address internal backendAddress;\n    address internal contractsManager;\n\n    bytes32 internal detailsIpfsHash;\n    uint internal votelimit;\n    uint internal deadline;\n    uint internal creation;\n    State state = State.Prepare;\n\n    uint internal optionsCount;\n\n    mapping(address => uint8) public memberOptions;\n    mapping(address => uint) public memberVotes;\n    mapping(uint8 => uint) public optionsBalance;\n\n\n    /** Modifiers */\n\n    /// @dev Guards invocations only for VotingManager\n    modifier onlyVotingManager {\n        require(msg.sender == lookupManager(\"VotingManager\"));\n        _;\n    }\n\n    /// @dev Guards invocations only for authorized (CBE) accounts\n    modifier onlyAuthorized {\n        if (isAuthorized(msg.sender)) {\n            _;\n        }\n    }\n\n    ///  @notice Initializes internal fields. Contracts owner only.\n    ///  @dev Will rollback transaction if something goes wrong during initialization.\n    ///  @param _contractsManager is contract manager, must be not 0x0\n    ///  @return OK if newly initialized and everything is OK,\n    ///  or REINITIALIZED if storage already contains some data. Will crash in any other cases.\n    function init(address _contractsManager) onlyContractOwner public returns (uint) {\n        require(_contractsManager != 0x0);\n        contractsManager = _contractsManager;\n    }\n\n    /// @notice Gets if a poll has active status and people still could vote\n    function active() public view returns (bool) {\n        return state == State.Active;\n    }\n\n    /// @notice Returns if _address is authorized (CBE)\n    /// @return `true` if access is allowed, `false` otherwise\n    function isAuthorized(address _key) public view returns (bool) {\n        return UserManagerInterface(lookupManager(\"UserManager\")).getCBE(_key);\n    }\n\n    /// @notice Gets owner of a poll\n    /// @dev delegatecall only\n    function owner() public view returns (address) {\n        return contractOwner;\n    }\n\n    /// @notice Gets eventsHistory for the manager\n    /// @return address of eventsHistory\n    function getEventsHistory() public view returns (PollEmitter) {\n        return PollEmitter(lookupManager(\"MultiEventsHistory\"));\n    }\n\n    /// @notice returns listener to react on PollListenerInterface's actions\n    function getPollListener() public view returns (PollListenerInterface) {\n        return PollListenerInterface(lookupManager(\"VotingManager\"));\n    }\n\n    /// @notice Checks if a user is participating in the poll\n    /// @dev delegatecall only\n    /// @param _user address of a user to Checks\n    /// @return `true` if a participant of a poll, `false` otherwise\n    function hasMember(address _user) public view returns (bool) {\n        return memberOptions[_user] != 0;\n    }\n\n    /// @notice Gets vote limit for a poll.\n    /// @dev Actually shows the value from associated VotingManager\n    /// @return vote limit value\n    function getVoteLimit() public view returns (uint) {\n        return VotingManagerInterface(lookupManager(\"VotingManager\")).getVoteLimit();\n    }\n\n    /// @notice Gets full details of a poll including a number of options\n    /// @dev delegatecall only\n    /// @return {\n    ///   \"_owner\": \"owner\",\n    ///   \"_detailsIpfsHash\": \"details ipfs hash\",\n    ///   \"_votelimit\": \"vote limit\",\n    ///   \"_deadline\": \"deadline time\",\n    ///   \"_status\": 'is valid' status,\n    ///   \"_active\": \"is activated\",\n    ///   \"_creation\": \"creation time\",\n    ///   \"_optionsCount\": \"list of options\"\n    /// }\n    function getDetails() public view returns (\n        address _owner,\n        bytes32 _detailsIpfsHash,\n        uint _votelimit,\n        uint _deadline,\n        bool _status,\n        bool _active,\n        uint _creation,\n        uint _optionsCount\n    ) {\n        State _state = state;\n\n        _owner = contractOwner;\n        _detailsIpfsHash = detailsIpfsHash;\n        _votelimit = votelimit;\n        _deadline = deadline;\n        _status = _state != State.Finished;\n        _active = _state == State.Active;\n        _creation = creation;\n        _optionsCount = optionsCount;\n    }\n\n    /// @notice Gets intermediate retults of a poll by providing options and their balances.\n    /// @dev delegatecall only\n    /// @return {\n    ///   \"_options\": \"poll's options indices\",\n    ///   \"_balances\": \"associated balances for options\"\n    /// }\n    function getVotesBalances() public view returns (uint8[] _options, uint[] _balances) {\n        _options = new uint8[](optionsCount);\n        _balances = new uint[](_options.length);\n\n        for (uint8 _idx = 0; _idx < _options.length; ++_idx) {\n            _options[_idx] = _idx + 1;\n            _balances[_idx] = optionsBalance[_options[_idx]];\n        }\n    }\n\n    /// @notice Initializes internal variables. Poll by default is not active so to start voting first activate a poll.\n    ///\n    /// @dev Could be invoked only once. delegatecall only\n    ///\n    /// @param _optionsCount number of options in a poll\n    /// @param _detailsIpfsHash ipfs hash for poll's details info\n    /// @param _votelimit votelimit. Should be less than votelimit that is defined on a backend\n    /// @param _deadline time to end voting\n    ///\n    /// @return result code of an operation\n    function init(uint _optionsCount, bytes32 _detailsIpfsHash, uint _votelimit, uint _deadline) onlyContractOwner public returns (uint) {\n        require(_optionsCount >= 2 && _optionsCount <= OPTIONS_POLLS_MAX);\n        require(_detailsIpfsHash != bytes32(0));\n        require(_votelimit <= getVoteLimit());\n        require(_deadline > now);\n\n        if (creation != 0) {\n            return _emitError(ERROR_POLL_BACKEND_INVALID_INVOCATION);\n        }\n\n        optionsCount = _optionsCount;\n        detailsIpfsHash = _detailsIpfsHash;\n        votelimit = _votelimit;\n        deadline = _deadline;\n        creation = now;\n\n        return OK;\n    }\n\n    /// @notice Performs a vote of caller with provided choice. When a required balance for an option will reach\n    /// votelimit value then poll automatically ends.\n    ///\n    /// @dev delegatecall only. Should be called by only those contracts that have balance in TimeHolder.\n    /// @param _choice picked option value by user. Should be between 1 and number of options in a poll\n    ///\n    /// @return _resultCode result code of an operation. Returns ERROR_POLL_BACKEND_NO_SHARES if\n    /// a balance in TimeHolder for the user is equal to zero.\n    function vote(uint8 _choice) public returns (uint _resultCode) {\n        require(_choice > 0 && _choice <= optionsCount);\n\n        if (memberOptions[msg.sender] != 0) {\n            return _emitError(ERROR_POLL_BACKEND_ALREADY_VOTED);\n        }\n\n        if (!active()) {\n            return _emitError(ERROR_POLL_BACKEND_INVALID_STATE);\n        }\n\n        address timeHolder = lookupManager(\"TimeHolder\");\n        uint balance = TimeHolderInterface(timeHolder).depositBalance(msg.sender);\n\n        if (balance == 0) {\n            return _emitError(ERROR_POLL_BACKEND_NO_SHARES);\n        }\n\n        uint optionsValue = optionsBalance[_choice].add(balance);\n        optionsBalance[_choice] = optionsValue;\n        memberVotes[msg.sender] = balance;\n        memberOptions[msg.sender] = _choice;\n\n        getPollListener().onVote(address(this), _choice);\n        getEventsHistory().emitPollVoted(_choice);\n\n        if (_isReadyToEndPoll(optionsValue)) {\n            _endPoll();\n        }\n\n        return OK;\n    }\n\n    /// @notice Activates poll so users could vote and no more changes can be made.\n    /// @dev delegatecall only. Multisignature required\n    ///\n    /// @return _resultCode result code of an operation.\n    function activatePoll() public returns (uint _resultCode) {\n        if (state != State.Prepare || creation == 0) {\n            return _emitError(ERROR_POLL_BACKEND_INVALID_STATE);\n        }\n\n        _resultCode = multisig();\n        if (_resultCode != OK) {\n            return _checkAndEmitError(_resultCode);\n        }\n\n        state = State.Active;\n\n        getPollListener().onActivatePoll();\n        getEventsHistory().emitPollActivated();\n        return OK;\n    }\n\n    /// @notice Ends poll so after that users couldn't vote anymore.\n    /// @dev delegatecall only. Multisignature required\n    /// @return _resultCode result code of an operation.\n    function endPoll() public returns (uint _resultCode) {\n        if (!active()) {\n            return _emitError(ERROR_POLL_BACKEND_INVALID_STATE);\n        }\n\n        _resultCode = multisig();\n        if (OK != _resultCode) {\n            return _checkAndEmitError(_resultCode);\n        }\n\n        return _endPoll();\n    }\n\n    /// @notice Erases poll from records. Should be called before activation or after poll completion.\n    /// Couldn't be invoked in the middle of voting.\n    ///\n    /// @dev delegatecall only. Authorized contracts only.\n    ///\n    /// @return _resultCode result code of an operation.\n    function killPoll() public onlyAuthorized {\n        if (active()) {\n            revert();\n        }\n\n        getPollListener().onRemovePoll();\n\n        selfdestruct(contractOwner);\n    }\n\n    /// @notice Changes details hash with a new version. Should be called before poll will be activated\n    /// Emits PollDetailsHashUpdated event\n    ///\n    /// @dev delegatecall only. poll owner only\n    ///\n    /// @param _detailsIpfsHash updated ipfs hash value\n    /// @return result code of an operation.\n    function updatePollDetailsIpfsHash(bytes32 _detailsIpfsHash) onlyContractOwner public returns (uint) {\n        require(_detailsIpfsHash != bytes32(0));\n\n        detailsIpfsHash = _detailsIpfsHash;\n\n        getEventsHistory().emitPollDetailsHashUpdated(_detailsIpfsHash);\n        return OK;\n    }\n\n    /** ListenerInterface interface */\n\n    /// @notice Implements deposit method and receives calls from TimeHolder. Updates poll according to changes\n    /// made with balance and adds value to a member chosen option.\n    /// In case if were deposited enough amount to end a poll it will be ended automatically. Make sence only\n    /// for active poll\n    /// @dev initialized poll only. VotingManager only\n    ///\n    /// @param _address address for which changes are made\n    /// @param _amount a value of change\n    /// @param _total total amount of tokens on _address's balance\n    ///\n    /// @return result code of an operation\n    function tokenDeposit(address, address _address, uint _amount, uint _total) onlyVotingManager public returns (uint) {\n        if (!hasMember(_address)) return UNAUTHORIZED;\n\n        if (active()) {\n            uint8 _choice = memberOptions[_address];\n            uint _value = optionsBalance[_choice];\n            _value = _value.add(_amount);\n            memberVotes[_address] = _total;\n            optionsBalance[_choice] = _value;\n        }\n\n        if (_isReadyToEndPoll(_value)) {\n            _endPoll();\n        }\n\n        return OK;\n    }\n\n    /// @notice Implements withdrawn method and receives calls from TimeHolder. Updates poll according to changes\n    /// made with balance and removes value from a member's chosen option.\n    /// In case if _total value is equal to `0` then _address has no more rights to vote and his choice is reset.\n    ///\n    /// @dev initialized poll only. VotingManager only\n    ///\n    /// @param _address address for which changes are made\n    /// @param _amount a value of change\n    /// @param _total total amount of tokens on _address's balance\n    ///\n    /// @return result code of an operation\n    function tokenWithdrawn(address, address _address, uint _amount, uint _total) onlyVotingManager public returns (uint) {\n        if (!hasMember(_address)) return UNAUTHORIZED;\n\n        if (active()) {\n            uint8 _choice = memberOptions[_address];\n            uint _value = optionsBalance[_choice];\n            _value = _value.sub(_amount);\n            memberVotes[_address] = _total;\n            optionsBalance[_choice] = _value;\n\n            if (_total == 0) {\n                delete memberOptions[_address];\n            }\n        }\n\n        return OK;\n    }\n\n    /// @notice Makes search in contractsManager for registered contract by some identifier\n    /// @param _identifier string identifier of a manager\n    ///\n    /// @return manager address of a manager, 0x0 if nothing was found\n    function lookupManager(bytes32 _identifier) public view returns (address manager) {\n        manager = ContractsManagerInterface(contractsManager).getContractAddressByType(_identifier);\n        assert(manager != 0x0);\n    }\n\n    /// @dev Don't allow to receive any Ether\n    function () public { // TODO:\n        revert();\n    }\n\n    /** PRIVATE section */\n\n    function _isReadyToEndPoll(uint _value) private view returns (bool) {\n        uint _voteLimitNumber = votelimit;\n        return _value >= _voteLimitNumber && (_voteLimitNumber > 0 || deadline <= now);\n    }\n\n    function _endPoll() private returns (uint _resultCode) {\n        if (!active()) {\n            return _emitError(ERROR_POLL_BACKEND_INVALID_STATE);\n        }\n\n        state = State.Finished;\n\n        getPollListener().onEndPoll();\n        getEventsHistory().emitPollEnded();\n        return OK;\n    }\n\n    /** INTERNAL: Events emitting */\n\n    function _checkAndEmitError(uint _error) internal returns (uint) {\n        if (_error != OK && _error != MULTISIG_ADDED) {\n            return _emitError(_error);\n        }\n\n        return _error;\n    }\n\n    function _emitError(uint _error) internal returns (uint) {\n        getEventsHistory().emitError(_error);\n        return _error;\n    }\n}\n",
  "sourcePath": "/Users/ahiatsevich/Development/chronobank/SmartContracts/contracts/vote/PollBackend.sol",
  "compiler": {
    "name": "solc",
    "version": "0.4.21+commit.dfe3193c.Emscripten.clang"
  },
  "schemaVersion": "2.0.0",
  "updatedAt": "2018-04-05T14:52:04.041Z"
}