{
  "contractName": "PollFactory",
  "abi": [
    {
      "constant": false,
      "inputs": [
        {
          "name": "_contractsManager",
          "type": "address"
        },
        {
          "name": "_backend",
          "type": "address"
        },
        {
          "name": "_optionsCount",
          "type": "uint256"
        },
        {
          "name": "_detailsIpfsHash",
          "type": "bytes32"
        },
        {
          "name": "_votelimit",
          "type": "uint256"
        },
        {
          "name": "_deadline",
          "type": "uint256"
        }
      ],
      "name": "createPoll",
      "outputs": [
        {
          "name": "",
          "type": "address"
        }
      ],
      "payable": false,
      "stateMutability": "nonpayable",
      "type": "function"
    }
  ],
  "bytecode": "0x6060604052341561000f57600080fd5b6105378061001e6000396000f3006060604052600436106100275763ffffffff60e060020a6000350416636a43b855811461002c575b600080fd5b341561003757600080fd5b61005d600160a060020a036004358116906024351660443560643560843560a435610079565b604051600160a060020a03909116815260200160405180910390f35b60008087876100866101c9565b600160a060020a0392831681529116602082015260409081019051809103906000f08015156100b457600080fd5b905080600160a060020a03166375a2490c8787878760006040516020015260405160e060020a63ffffffff87160281526004810194909452602484019290925260448301526064820152608401602060405180830381600087803b151561011a57600080fd5b6102c65a03f1151561012b57600080fd5b5050506040518051600114905061014157600080fd5b80600160a060020a031663a843c51f3360006040516020015260405160e060020a63ffffffff8416028152600160a060020a039091166004820152602401602060405180830381600087803b151561019857600080fd5b6102c65a03f115156101a957600080fd5b5050506040518051905015156101be57600080fd5b979650505050505050565b604051610332806101da8339019056006060604052341561000f57600080fd5b6040516040806103328339810160405280805191906020018051915050600160a060020a038116151561004157600080fd5b600160a060020a038216151561005657600080fd5b60008054600160a060020a03338116600160a060020a031992831617909255600380549483169482169490941790935560028054929091169190921617905561028e806100a46000396000f3006060604052600436106100615763ffffffff7c010000000000000000000000000000000000000000000000000000000060003504166314696c8381146100a75780636c24d51e146100bc578063df26ca08146100cf578063e2bb323b146100e5575b600061006b6100fe565b905060405136810160405236600082376000803683856127105a03f46040513d81016040523d6000823e81600181146100a357600080fd5b3d82f35b34156100b257600080fd5b6100ba61011a565b005b34156100c757600080fd5b6100ba610166565b34156100da57600080fd5b6100ba6004356101b2565b34156100f057600080fd5b6100ba60ff60043516610206565b60025473ffffffffffffffffffffffffffffffffffffffff1690565b61012261025e565b73ffffffffffffffffffffffffffffffffffffffff167f5628e52d43406d18add7d63a4c9e07f573165f6faff201802fcf178e314c67b460405160405180910390a2565b61016e61025e565b73ffffffffffffffffffffffffffffffffffffffff167f65de543be011e1b68dcea0af69bf30d0d04a847764a396cc7af2aaa3986d13aa60405160405180910390a2565b6101ba61025e565b73ffffffffffffffffffffffffffffffffffffffff167f9cf38cf2dbf9139f5c32639950507b10775fbbe0421f3e168bc2d1bb1ae3208c8260405190815260200160405180910390a250565b61020e61025e565b73ffffffffffffffffffffffffffffffffffffffff167f4e38c414740d6fff0089331e9a30e4db17b2ce069c6711c34e2049c9c610ae638260405160ff909116815260200160405180910390a250565b33905600a165627a7a72305820e395f8f9b2a8b9817b47226b35350d6a2702f208ac849fcb5e301b3f37d9b3550029a165627a7a7230582094b8f0ddd35ff52d6a3a402c11eb8b197d62bb263bf3073ca7944acd96dd6fea0029",
  "source": "pragma solidity ^0.4.11;\n\nimport \"./PollRouter.sol\";\nimport \"./PollInterface.sol\";\n\n/// @title Defines an implementation of poll factory. Instantiates PollRouter contract\n/// as a facade for all requests related to poll's functionality defined in PollInterface.\n/// Could be used as an instrument of versioning of polls backends.\ncontract PollFactory {\n\n    uint constant OK = 1;\n\n\n    /// @notice Creates a new poll and provides all needed data for its instantiation\n    /// @return address of a brand new poll contract\n    function createPoll(\n        address _contractsManager,\n        address _backend,\n        uint _optionsCount,\n        bytes32 _detailsIpfsHash,\n        uint _votelimit,\n        uint _deadline\n    ) public returns (address)\n    {\n        address _poll = address(new PollRouter(_contractsManager, _backend));\n        if (OK != PollInterface(_poll).init(_optionsCount, _detailsIpfsHash, _votelimit, _deadline)) {\n            revert();\n        }\n\n        if (!PollInterface(_poll).transferContractOwnership(msg.sender)) {\n            revert();\n        }\n\n        return _poll;\n    }\n}\n",
  "sourcePath": "/Users/ahiatsevich/Development/chronobank/SmartContracts/contracts/vote/PollFactory.sol",
  "compiler": {
    "name": "solc",
    "version": "0.4.18+commit.9cf6e910.Emscripten.clang"
  },
  "schemaVersion": "1.0.1",
  "updatedAt": "2018-02-05T08:08:11.215Z"
}