{
  "contractName": "PollBackend",
  "abi": [
    {
      "constant": true,
      "inputs": [],
      "name": "active",
      "outputs": [
        {
          "name": "",
          "type": "bool"
        }
      ],
      "payable": false,
      "stateMutability": "view",
      "type": "function"
    },
    {
      "constant": true,
      "inputs": [
        {
          "name": "",
          "type": "uint8"
        }
      ],
      "name": "optionsBalance",
      "outputs": [
        {
          "name": "",
          "type": "uint256"
        }
      ],
      "payable": false,
      "stateMutability": "view",
      "type": "function"
    },
    {
      "constant": true,
      "inputs": [
        {
          "name": "_user",
          "type": "address"
        }
      ],
      "name": "hasMember",
      "outputs": [
        {
          "name": "",
          "type": "bool"
        }
      ],
      "payable": false,
      "stateMutability": "view",
      "type": "function"
    },
    {
      "constant": false,
      "inputs": [
        {
          "name": "_contractsManager",
          "type": "address"
        }
      ],
      "name": "init",
      "outputs": [
        {
          "name": "",
          "type": "uint256"
        }
      ],
      "payable": false,
      "stateMutability": "nonpayable",
      "type": "function"
    },
    {
      "constant": false,
      "inputs": [],
      "name": "claimContractOwnership",
      "outputs": [
        {
          "name": "",
          "type": "bool"
        }
      ],
      "payable": false,
      "stateMutability": "nonpayable",
      "type": "function"
    },
    {
      "constant": false,
      "inputs": [],
      "name": "killPoll",
      "outputs": [],
      "payable": false,
      "stateMutability": "nonpayable",
      "type": "function"
    },
    {
      "constant": true,
      "inputs": [
        {
          "name": "",
          "type": "address"
        }
      ],
      "name": "memberVotes",
      "outputs": [
        {
          "name": "",
          "type": "uint256"
        }
      ],
      "payable": false,
      "stateMutability": "view",
      "type": "function"
    },
    {
      "constant": false,
      "inputs": [
        {
          "name": "token",
          "type": "address"
        },
        {
          "name": "_address",
          "type": "address"
        },
        {
          "name": "_amount",
          "type": "uint256"
        },
        {
          "name": "_total",
          "type": "uint256"
        }
      ],
      "name": "tokenWithdrawn",
      "outputs": [
        {
          "name": "",
          "type": "uint256"
        }
      ],
      "payable": false,
      "stateMutability": "nonpayable",
      "type": "function"
    },
    {
      "constant": true,
      "inputs": [
        {
          "name": "_identifier",
          "type": "bytes32"
        }
      ],
      "name": "lookupManager",
      "outputs": [
        {
          "name": "manager",
          "type": "address"
        }
      ],
      "payable": false,
      "stateMutability": "view",
      "type": "function"
    },
    {
      "constant": false,
      "inputs": [
        {
          "name": "_to",
          "type": "address"
        }
      ],
      "name": "changeContractOwnership",
      "outputs": [
        {
          "name": "",
          "type": "bool"
        }
      ],
      "payable": false,
      "stateMutability": "nonpayable",
      "type": "function"
    },
    {
      "constant": true,
      "inputs": [],
      "name": "pendingContractOwner",
      "outputs": [
        {
          "name": "",
          "type": "address"
        }
      ],
      "payable": false,
      "stateMutability": "view",
      "type": "function"
    },
    {
      "constant": true,
      "inputs": [],
      "name": "getVoteLimit",
      "outputs": [
        {
          "name": "",
          "type": "uint256"
        }
      ],
      "payable": false,
      "stateMutability": "view",
      "type": "function"
    },
    {
      "constant": false,
      "inputs": [
        {
          "name": "_optionsCount",
          "type": "uint256"
        },
        {
          "name": "_detailsIpfsHash",
          "type": "bytes32"
        },
        {
          "name": "_votelimit",
          "type": "uint256"
        },
        {
          "name": "_deadline",
          "type": "uint256"
        }
      ],
      "name": "init",
      "outputs": [
        {
          "name": "",
          "type": "uint256"
        }
      ],
      "payable": false,
      "stateMutability": "nonpayable",
      "type": "function"
    },
    {
      "constant": false,
      "inputs": [],
      "name": "destroy",
      "outputs": [],
      "payable": false,
      "stateMutability": "nonpayable",
      "type": "function"
    },
    {
      "constant": false,
      "inputs": [],
      "name": "endPoll",
      "outputs": [
        {
          "name": "_resultCode",
          "type": "uint256"
        }
      ],
      "payable": false,
      "stateMutability": "nonpayable",
      "type": "function"
    },
    {
      "constant": true,
      "inputs": [],
      "name": "owner",
      "outputs": [
        {
          "name": "",
          "type": "address"
        }
      ],
      "payable": false,
      "stateMutability": "view",
      "type": "function"
    },
    {
      "constant": true,
      "inputs": [
        {
          "name": "",
          "type": "address"
        }
      ],
      "name": "memberOptions",
      "outputs": [
        {
          "name": "",
          "type": "uint8"
        }
      ],
      "payable": false,
      "stateMutability": "view",
      "type": "function"
    },
    {
      "constant": true,
      "inputs": [],
      "name": "getVotesBalances",
      "outputs": [
        {
          "name": "_options",
          "type": "uint8[]"
        },
        {
          "name": "_balances",
          "type": "uint256[]"
        }
      ],
      "payable": false,
      "stateMutability": "view",
      "type": "function"
    },
    {
      "constant": false,
      "inputs": [
        {
          "name": "token",
          "type": "address"
        },
        {
          "name": "_address",
          "type": "address"
        },
        {
          "name": "_amount",
          "type": "uint256"
        },
        {
          "name": "_total",
          "type": "uint256"
        }
      ],
      "name": "tokenDeposit",
      "outputs": [
        {
          "name": "",
          "type": "uint256"
        }
      ],
      "payable": false,
      "stateMutability": "nonpayable",
      "type": "function"
    },
    {
      "constant": false,
      "inputs": [
        {
          "name": "_to",
          "type": "address"
        }
      ],
      "name": "transferContractOwnership",
      "outputs": [
        {
          "name": "",
          "type": "bool"
        }
      ],
      "payable": false,
      "stateMutability": "nonpayable",
      "type": "function"
    },
    {
      "constant": false,
      "inputs": [
        {
          "name": "_choice",
          "type": "uint8"
        }
      ],
      "name": "vote",
      "outputs": [
        {
          "name": "_resultCode",
          "type": "uint256"
        }
      ],
      "payable": false,
      "stateMutability": "nonpayable",
      "type": "function"
    },
    {
      "constant": true,
      "inputs": [],
      "name": "contractOwner",
      "outputs": [
        {
          "name": "",
          "type": "address"
        }
      ],
      "payable": false,
      "stateMutability": "view",
      "type": "function"
    },
    {
      "constant": false,
      "inputs": [],
      "name": "activatePoll",
      "outputs": [
        {
          "name": "_resultCode",
          "type": "uint256"
        }
      ],
      "payable": false,
      "stateMutability": "nonpayable",
      "type": "function"
    },
    {
      "constant": false,
      "inputs": [],
      "name": "getPollListener",
      "outputs": [
        {
          "name": "",
          "type": "address"
        }
      ],
      "payable": false,
      "stateMutability": "nonpayable",
      "type": "function"
    },
    {
      "constant": true,
      "inputs": [],
      "name": "getDetails",
      "outputs": [
        {
          "name": "_owner",
          "type": "address"
        },
        {
          "name": "_detailsIpfsHash",
          "type": "bytes32"
        },
        {
          "name": "_votelimit",
          "type": "uint256"
        },
        {
          "name": "_deadline",
          "type": "uint256"
        },
        {
          "name": "_status",
          "type": "bool"
        },
        {
          "name": "_active",
          "type": "bool"
        },
        {
          "name": "_creation",
          "type": "uint256"
        },
        {
          "name": "_optionsCount",
          "type": "uint256"
        }
      ],
      "payable": false,
      "stateMutability": "view",
      "type": "function"
    },
    {
      "constant": true,
      "inputs": [
        {
          "name": "_key",
          "type": "address"
        }
      ],
      "name": "isAuthorized",
      "outputs": [
        {
          "name": "",
          "type": "bool"
        }
      ],
      "payable": false,
      "stateMutability": "view",
      "type": "function"
    },
    {
      "constant": true,
      "inputs": [],
      "name": "getEventsHistory",
      "outputs": [
        {
          "name": "",
          "type": "address"
        }
      ],
      "payable": false,
      "stateMutability": "view",
      "type": "function"
    },
    {
      "payable": false,
      "stateMutability": "nonpayable",
      "type": "fallback"
    }
  ],
  "bytecode": "0x606060405260008054600160a060020a033316600160a060020a0319909116179055611506806100306000396000f3006060604052600436106101455763ffffffff60e060020a60003504166302fb0c5e811461015557806307e829d11461017c57806312d42835146101a757806319ab453c146101c65780634592cd1d146101e5578063483e3956146101f85780634a9f914e1461020d5780634ca95be81461022c5780634fe5901214610257578063557f4bc9146102895780635aa77d3c146102a8578063657e8c13146102bb57806375a2490c146102ce57806383197ef0146102ed5780638d99b2eb146103005780638da5cb5b1461031357806391c7a0ae14610326578063934f2f0b1461035b5780639cd0044814610407578063a843c51f14610432578063b3f98adc14610451578063ce606ee01461046a578063e9daae651461047d578063f12e610114610490578063fbbf93a0146104a3578063fe9fbb8014610509578063fff10aba14610528575b341561015057600080fd5b600080fd5b341561016057600080fd5b61016861053b565b604051901515815260200160405180910390f35b341561018757600080fd5b61019560ff60043516610544565b60405190815260200160405180910390f35b34156101b257600080fd5b610168600160a060020a0360043516610556565b34156101d157600080fd5b610195600160a060020a036004351661057a565b34156101f057600080fd5b6101686105d6565b341561020357600080fd5b61020b61062e565b005b341561021857600080fd5b610195600160a060020a03600435166106ca565b341561023757600080fd5b610195600160a060020a03600435811690602435166044356064356106dc565b341561026257600080fd5b61026d6004356107f1565b604051600160a060020a03909116815260200160405180910390f35b341561029457600080fd5b610168600160a060020a0360043516610872565b34156102b357600080fd5b61026d6108d2565b34156102c657600080fd5b6101956108e1565b34156102d957600080fd5b61019560043560243560443560643561095e565b34156102f857600080fd5b61020b6109f2565b341561030b57600080fd5b610195610a15565b341561031e57600080fd5b61026d610a61565b341561033157600080fd5b610345600160a060020a0360043516610a70565b60405160ff909116815260200160405180910390f35b341561036657600080fd5b61036e610a85565b604051808060200180602001838103835285818151815260200191508051906020019060200280838360005b838110156103b257808201518382015260200161039a565b50505050905001838103825284818151815260200191508051906020019060200280838360005b838110156103f15780820151838201526020016103d9565b5050505090500194505050505060405180910390f35b341561041257600080fd5b610195600160a060020a0360043581169060243516604435606435610b68565b341561043d57600080fd5b610168600160a060020a0360043516610c6b565b341561045c57600080fd5b61019560ff60043516610cfc565b341561047557600080fd5b61026d610f8c565b341561048857600080fd5b610195610f9b565b341561049b57600080fd5b61026d611097565b34156104ae57600080fd5b6104b66110b0565b604051600160a060020a039098168852602088019690965260408088019590955260608701939093529015156080860152151560a085015260c084015260e0830191909152610100909101905180910390f35b341561051457600080fd5b610168600160a060020a03600435166110e6565b341561053357600080fd5b61026d611187565b60085460ff1681565b600c6020526000908152604090205481565b600160a060020a0381166000908152600a602052604090205460ff1615155b919050565b6000805433600160a060020a039081169116141561057557600160a060020a03821615156105a757600080fd5b60038054600160a060020a03841673ffffffffffffffffffffffffffffffffffffffff19909116179055919050565b60015460009033600160a060020a039081169116146105f75750600061062b565b50600180546000805473ffffffffffffffffffffffffffffffffffffffff19908116600160a060020a038416179091551681555b90565b610637336110e6565b156106c85760085460ff1615806106565750600854610100900460ff16155b151561066157600080fd5b610669611097565b600160a060020a031663d9b35f8a6040518163ffffffff1660e060020a028152600401600060405180830381600087803b15156106a557600080fd5b6102c65a03f115156106b657600080fd5b5050600054600160a060020a03169050ff5b565b600b6020526000908152604090205481565b60008060006106f86000805160206114bb8339815191526107f1565b600160a060020a031633600160a060020a031614151561071757600080fd5b61072086610556565b151561072f57600092506107e7565b600854610100900460ff168015610748575060085460ff165b156107e2575050600160a060020a0384166000908152600a602090815260408083205460ff16808452600c9092529091205461078a818663ffffffff6111b216565b600160a060020a0387166000908152600b6020908152604080832088905560ff86168352600c909152902081905590508315156107e257600160a060020a0386166000908152600a60205260409020805460ff191690555b600192505b5050949350505050565b600354600090600160a060020a031663bc65792783836040516020015260405160e060020a63ffffffff84160281526004810191909152602401602060405180830381600087803b151561084457600080fd5b6102c65a03f1151561085557600080fd5b5050506040518051915050600160a060020a038116151561057557fe5b6000805433600160a060020a039081169116141561057557600160a060020a03821615156108a257506000610575565b5060018054600160a060020a03831673ffffffffffffffffffffffffffffffffffffffff19909116178155919050565b600154600160a060020a031681565b60006108fa6000805160206114bb8339815191526107f1565b600160a060020a031663657e8c136000604051602001526040518163ffffffff1660e060020a028152600401602060405180830381600087803b151561093f57600080fd5b6102c65a03f1151561095057600080fd5b505050604051805191505090565b6000805433600160a060020a03908116911614156109ea5760028510158015610988575060108511155b151561099357600080fd5b83151561099f57600080fd5b6109a76108e1565b8311156109b357600080fd5b4282116109bf57600080fd5b506009849055600483905560058290556006819055426007556008805461ffff191661010017905560015b949350505050565b60005433600160a060020a03908116911614156106c85733600160a060020a0316ff5b60085460009060ff610100909104161515600114610a3257600080fd5b610a3a6111c4565b905060018114610a5457610a4d816112fc565b905061062b565b610a5c611329565b905090565b600054600160a060020a031690565b600a6020526000908152604090205460ff1681565b610a8d6114a8565b610a956114a8565b6000600954604051805910610aa75750595b908082528060200260200182016040525092508251604051805910610ac95750595b90808252806020026020018201604052509150600090505b82518160ff161015610b635780600101838260ff1681518110610b0057fe5b60ff92831660209182029092010152600c906000908590841681518110610b2357fe5b9060200190602002015160ff1660ff16815260200190815260200160002054828260ff1681518110610b5157fe5b60209081029091010152600101610ae1565b509091565b6000806000610b846000805160206114bb8339815191526107f1565b600160a060020a031633600160a060020a0316141515610ba357600080fd5b610bac86610556565b1515610bbb57600092506107e7565b600854610100900460ff168015610bd4575060085460ff165b15610c47575050600160a060020a0384166000908152600a602090815260408083205460ff16808452600c90925290912054610c16818663ffffffff61140116565b600160a060020a0387166000908152600b6020908152604080832088905560ff86168352600c909152902081905590505b610c5081611417565b156107e257610c5d611329565b506001979650505050505050565b6000805433600160a060020a039081169116141561057557600160a060020a0382161515610c9b57506000610575565b600154600160a060020a031615610cca576001805473ffffffffffffffffffffffffffffffffffffffff191690555b5060008054600160a060020a03831673ffffffffffffffffffffffffffffffffffffffff199091161790556001919050565b60008060008060008560ff16118015610d1a57506009548560ff1611155b1515610d2557600080fd5b600160a060020a0333166000908152600a602052604090205460ff1615610d4b57600080fd5b60085460ff610100909104161515600114610d6557600080fd5b60085460ff161515610d7657600080fd5b610d9f7f54696d65486f6c646572000000000000000000000000000000000000000000006107f1565b925082600160a060020a031663956501bb3360006040516020015260405160e060020a63ffffffff8416028152600160a060020a039091166004820152602401602060405180830381600087803b1515610df857600080fd5b6102c65a03f11515610e0957600080fd5b5050506040518051925050811515610e2d57610e2661659261143f565b9350610f84565b60ff85166000908152600c6020526040902054610e50908363ffffffff61140116565b60ff86166000818152600c60209081526040808320859055600160a060020a0333168352600b8252808320879055600a9091529020805460ff191690911790559050610e9a611097565b600160a060020a031663a2ad5faa308760405160e060020a63ffffffff8516028152600160a060020a03909216600483015260ff166024820152604401600060405180830381600087803b1515610ef057600080fd5b6102c65a03f11515610f0157600080fd5b505050610f0c611187565b600160a060020a031663e2bb323b8660405160e060020a63ffffffff841602815260ff9091166004820152602401600060405180830381600087803b1515610f5357600080fd5b6102c65a03f11515610f6457600080fd5b505050610f7081611417565b15610f7f57610f7d611329565b505b600193505b505050919050565b600054600160a060020a031681565b60085460009060ff610100909104161515600114610fb857600080fd5b610fc06111c4565b905060018114610fd357610a4d816112fc565b6008805460ff19166001179055610fe8611097565b600160a060020a031663654fd7d66040518163ffffffff1660e060020a028152600401600060405180830381600087803b151561102457600080fd5b6102c65a03f1151561103557600080fd5b505050611040611187565b600160a060020a03166314696c836040518163ffffffff1660e060020a028152600401600060405180830381600087803b151561107c57600080fd5b6102c65a03f1151561108d57600080fd5b5050506001905090565b6000610a5c6000805160206114bb8339815191526107f1565b600054600454600554600654600854600754600954600160a060020a039096169694959394929360ff6101008404811694931692565b60006111117f557365724d616e616765720000000000000000000000000000000000000000006107f1565b600160a060020a0316632aa09e5a8360006040516020015260405160e060020a63ffffffff8416028152600160a060020a039091166004820152602401602060405180830381600087803b151561116757600080fd5b6102c65a03f1151561117857600080fd5b50505060405180519392505050565b6000610a5c7f4d756c74694576656e7473486973746f727900000000000000000000000000006107f1565b6000828211156111be57fe5b50900390565b60008060006111f27f50656e64696e674d616e616765720000000000000000000000000000000000006107f1565b915081600160a060020a031633600160a060020a03161415156112f257600036604051808383808284378201915050925050506040518091039020905081600160a060020a0316630fee1efc82600036303360006040516020015260405160e060020a63ffffffff881602815260048101868152600160a060020a0380851660448401528316606483015260806024830190815260848301869052909160a40186868082843782019150509650505050505050602060405180830381600087803b15156112be57600080fd5b6102c65a03f115156112cf57600080fd5b5050506040518051935050600183146112e857826112eb565b60035b92506112f7565b600192505b505090565b600060018214158015611310575060038214155b156113255761131e8261143f565b9050610575565b5090565b60085460009060ff61010090910416151560011461134357fe5b60085460ff16151561135a57610a4d61659161143f565b6008805461ffff1916905561136d611097565b600160a060020a031663cfe0784a6040518163ffffffff1660e060020a028152600401600060405180830381600087803b15156113a957600080fd5b6102c65a03f115156113ba57600080fd5b5050506113c5611187565b600160a060020a0316636c24d51e6040518163ffffffff1660e060020a028152600401600060405180830381600087803b151561107c57600080fd5b60008282018381101561141057fe5b9392505050565b6005546000908083108015906114105750600081118061141057504260065411159392505050565b6000611449611187565b600160a060020a031663df26ca088360405160e060020a63ffffffff84160281526004810191909152602401600060405180830381600087803b151561148e57600080fd5b6102c65a03f1151561149f57600080fd5b50929392505050565b602060405190810160405260008152905600566f74696e674d616e6167657200000000000000000000000000000000000000a165627a7a72305820dad3423e0e6f71f9a07cbba6ef556aad235b93d7a59b8f72681dec40eece391b0029",
  "source": "pragma solidity ^0.4.11;\n\nimport \"../core/common/Owned.sol\";\nimport \"../core/contracts/ContractsManagerInterface.sol\";\nimport \"../core/lib/SafeMath.sol\";\nimport \"../core/user/UserManagerInterface.sol\";\nimport \"../timeholder/TimeHolderInterface.sol\";\nimport \"../pending/MultiSigSupporter.sol\";\nimport \"./VotingManagerInterface.sol\";\nimport \"./PollEmitter.sol\";\nimport \"./PollInterface.sol\";\n\n\n/// @title Backend contract is created to reduce size of poll contract and transfer all logic\n/// and operations (where it's possible) on a shoulders of this contract. This contract could\n/// be updatable through by publishing new poll factory.\n///\n/// It is not supposed to be registered in ContractsManager.\ncontract PollBackend is Owned, MultiSigSupporter {\n    using SafeMath for uint;\n\n    /** Constants */\n\n    uint8 constant OPTIONS_POLLS_MAX = 16;\n\n    /** Error codes */\n\n    uint constant UNAUTHORIZED = 0;\n    uint constant ERROR_POLL_BACKEND_INVALID_INVOCATION = 26001;\n    uint constant ERROR_POLL_BACKEND_NO_SHARES = 26002;\n    uint constant ERROR_POLL_BACKEND_INVALID_PARAMETER = 26003;\n\n    /**\n    * Storage variables. Duplicates @see PollRouter storage layout so\n    * DO NOT CHANGE VARIABLES' LAYOUT UNDER ANY CIRCUMSTANCES!\n    */\n\n    address internal backendAddress;\n    address internal contractsManager;\n\n    bytes32 internal detailsIpfsHash;\n    uint internal votelimit;\n    uint internal deadline;\n    uint internal creation;\n    bool public active;\n    bool internal status;\n    uint internal optionsCount;\n\n    mapping(address => uint8) public memberOptions;\n    mapping(address => uint) public memberVotes;\n    mapping(uint8 => uint) public optionsBalance;\n\n\n    /** Modifiers */\n\n    /// @dev Guards invocations only for VotingManager\n    modifier onlyVotingManager {\n        require(msg.sender == lookupManager(\"VotingManager\"));\n        _;\n    }\n\n    /// @dev Guards invocations only for authorized (CBE) accounts\n    modifier onlyAuthorized {\n        if (isAuthorized(msg.sender)) {\n            _;\n        }        \n    }\n\n    ///  @notice Initializes internal fields. Contracts owner only.\n    ///  @dev Will rollback transaction if something goes wrong during initialization.\n    ///  @param _contractsManager is contract manager, must be not 0x0\n    ///  @return OK if newly initialized and everything is OK,\n    ///  or REINITIALIZED if storage already contains some data. Will crash in any other cases.\n    function init(address _contractsManager) onlyContractOwner public returns (uint) {\n        require(_contractsManager != 0x0);\n        contractsManager = _contractsManager;\n    }\n\n    /// @notice Returns if _address is authorized (CBE)\n    /// @return `true` if access is allowed, `false` otherwise\n    function isAuthorized(address _key) public view returns (bool) {\n        return UserManagerInterface(lookupManager(\"UserManager\")).getCBE(_key);\n    }\n\n    /// @notice Gets owner of a poll\n    /// @dev delegatecall only\n    function owner() public view returns (address) {\n        return contractOwner;\n    }\n\n    /// @notice Gets eventsHistory for the manager\n    /// @return address of eventsHistory\n    function getEventsHistory() public view returns (PollEmitter) {\n        return PollEmitter(lookupManager(\"MultiEventsHistory\"));\n    }\n\n    /// @notice returns listener to react on PollListenerInterface's actions\n    function getPollListener() public returns (PollListenerInterface) {\n        return PollListenerInterface(lookupManager(\"VotingManager\"));\n    }\n\n    /// @notice Checks if a user is participating in the poll\n    /// @dev delegatecall only\n    /// @param _user address of a user to Checks\n    /// @return `true` if a participant of a poll, `false` otherwise\n    function hasMember(address _user) public view returns (bool) {\n        return memberOptions[_user] != 0;\n    }\n\n    /// @notice Gets vote limit for a poll.\n    /// @dev Actually shows the value from associated VotingManager\n    /// @return vote limit value\n    function getVoteLimit() public view returns (uint) {\n        return VotingManagerInterface(lookupManager(\"VotingManager\")).getVoteLimit();\n    }\n\n    /// @notice Gets full details of a poll including a number of options\n    /// @dev delegatecall only\n    /// @return {\n    ///   \"_owner\": \"owner\",\n    ///   \"_detailsIpfsHash\": \"details ipfs hash\",\n    ///   \"_votelimit\": \"vote limit\",\n    ///   \"_deadline\": \"deadline time\",\n    ///   \"_status\": 'is valid' status,\n    ///   \"_active\": \"is activated\",\n    ///   \"_creation\": \"creation time\",\n    ///   \"_optionsCount\": \"list of options\"\n    /// }\n    function getDetails() public view returns (\n        address _owner,\n        bytes32 _detailsIpfsHash,\n        uint _votelimit,\n        uint _deadline,\n        bool _status,\n        bool _active,\n        uint _creation,\n        uint _optionsCount\n    ) {\n        _owner = contractOwner;\n        _detailsIpfsHash = detailsIpfsHash;\n        _votelimit = votelimit;\n        _deadline = deadline;\n        _status = status;\n        _active = active;\n        _creation = creation;\n        _optionsCount = optionsCount;\n    }\n\n    /// @notice Gets intermediate retults of a poll by providing options and their balances.\n    /// @dev delegatecall only\n    /// @return {\n    ///   \"_options\": \"poll's options indices\",\n    ///   \"_balances\": \"associated balances for options\"\n    /// }\n    function getVotesBalances() public view returns (uint8[] _options, uint[] _balances) {\n        _options = new uint8[](optionsCount);\n        _balances = new uint[](_options.length);\n\n        for (uint8 _idx = 0; _idx < _options.length; ++_idx) {\n            _options[_idx] = _idx + 1;\n            _balances[_idx] = optionsBalance[_options[_idx]];\n        }\n    }\n\n    /// @notice Initializes internal variables. Poll by default is not active so to start voting first activate a poll.\n    ///\n    /// @dev Could be invoked only once. delegatecall only\n    ///\n    /// @param _optionsCount number of options in a poll\n    /// @param _detailsIpfsHash ipfs hash for poll's details info\n    /// @param _votelimit votelimit. Should be less than votelimit that is defined on a backend\n    /// @param _deadline time to end voting\n    ///\n    /// @return result code of an operation\n    function init(uint _optionsCount, bytes32 _detailsIpfsHash, uint _votelimit, uint _deadline) onlyContractOwner public returns (uint) {\n        require(_optionsCount >= 2 && _optionsCount <= OPTIONS_POLLS_MAX);\n        require(_detailsIpfsHash != bytes32(0));\n        require(_votelimit <= getVoteLimit());\n        require(_deadline > now);\n\n        optionsCount = _optionsCount;\n        detailsIpfsHash = _detailsIpfsHash;\n        votelimit = _votelimit;\n        deadline = _deadline;\n        creation = now;\n        active = false;\n        status = true;\n\n        return OK;\n    }\n\n    /// @notice Performs a vote of caller with provided choice. When a required balance for an option will reach\n    /// votelimit value then poll automatically ends.\n    ///\n    /// @dev delegatecall only. Should be called by only those contracts that have balance in TimeHolder.\n    /// @param _choice picked option value by user. Should be between 1 and number of options in a poll\n    ///\n    /// @return _resultCode result code of an operation. Returns ERROR_POLL_BACKEND_NO_SHARES if\n    /// a balance in TimeHolder for the user is equal to zero.\n    function vote(uint8 _choice) public returns (uint _resultCode) {\n        require(_choice > 0 && _choice <= optionsCount);\n        require(memberOptions[msg.sender] == 0);\n        require(status == true);\n        require(active);\n\n        address timeHolder = lookupManager(\"TimeHolder\");\n        uint balance = TimeHolderInterface(timeHolder).depositBalance(msg.sender);\n\n        if (balance == 0) {\n            return _emitError(ERROR_POLL_BACKEND_NO_SHARES);\n        }\n\n        uint optionsValue = optionsBalance[_choice].add(balance);\n        optionsBalance[_choice] = optionsValue;\n        memberVotes[msg.sender] = balance;\n        memberOptions[msg.sender] = _choice;\n\n        getPollListener().onVote(address(this), _choice);\n        getEventsHistory().emitPollVoted(_choice);\n\n        if (_isReadyToEndPoll(optionsValue)) {\n            _endPoll();\n        }\n\n        return OK;\n    }\n\n    /// @notice Activates poll so users could vote and no more changes can be made.\n    /// @dev delegatecall only. Multisignature required\n    ///\n    /// @return _resultCode result code of an operation.\n    function activatePoll() public returns (uint _resultCode) {\n        require(status == true);\n\n        _resultCode = multisig();\n        if (_resultCode != OK) {\n            return _checkAndEmitError(_resultCode);\n        }\n\n        active = true;\n\n        getPollListener().onActivatePoll();\n        getEventsHistory().emitPollActivated();\n        return OK;\n    }\n\n    /// @notice Ends poll so after that users couldn't vote anymore.\n    /// @dev delegatecall only. Multisignature required\n    /// @return _resultCode result code of an operation.\n    function endPoll() public returns (uint _resultCode) {\n        require(status == true);\n\n        _resultCode = multisig();\n        if (OK != _resultCode) {\n            return _checkAndEmitError(_resultCode);\n        }\n\n        return _endPoll();\n    }\n\n    /// @notice Erases poll from records. Should be called before activation or after poll completion.\n    /// Couldn't be invoked in the middle of voting.\n    ///\n    /// @dev delegatecall only. Authorized contracts only.\n    ///\n    /// @return _resultCode result code of an operation.\n    function killPoll() public onlyAuthorized {\n        require(!active || status == false);\n\n        getPollListener().onRemovePoll();\n\n        selfdestruct(contractOwner);\n    }\n\n    /** ListenerInterface interface */\n\n    /// @notice Implements deposit method and receives calls from TimeHolder. Updates poll according to changes\n    /// made with balance and adds value to a member chosen option.\n    /// In case if were deposited enough amount to end a poll it will be ended automatically. Make sence only\n    /// for active poll\n    /// @dev initialized poll only. VotingManager only\n    ///\n    /// @param _address address for which changes are made\n    /// @param _amount a value of change\n    /// @param _total total amount of tokens on _address's balance\n    ///\n    /// @return result code of an operation    \n    function tokenDeposit(address token, address _address, uint _amount, uint _total) onlyVotingManager public returns (uint) {\n        if (!hasMember(_address)) return UNAUTHORIZED;\n\n        if (status && active) {\n            uint8 _choice = memberOptions[_address];\n            uint _value = optionsBalance[_choice];\n            _value = _value.add(_amount);\n            memberVotes[_address] = _total;\n            optionsBalance[_choice] = _value;\n        }\n\n        if (_isReadyToEndPoll(_value)) {\n            _endPoll();\n        }\n\n        return OK;\n    }\n\n    /// @notice Implements withdrawn method and receives calls from TimeHolder. Updates poll according to changes\n    /// made with balance and removes value from a member's chosen option.\n    /// In case if _total value is equal to `0` then _address has no more rights to vote and his choice is reset.\n    ///\n    /// @dev initialized poll only. VotingManager only\n    ///\n    /// @param _address address for which changes are made\n    /// @param _amount a value of change\n    /// @param _total total amount of tokens on _address's balance\n    ///\n    /// @return result code of an operation\n    function tokenWithdrawn(address token, address _address, uint _amount, uint _total) onlyVotingManager public returns (uint) {\n        if (!hasMember(_address)) return UNAUTHORIZED;\n\n        if (status && active) {\n            uint8 _choice = memberOptions[_address];\n            uint _value = optionsBalance[_choice];\n            _value = _value.sub(_amount);\n            memberVotes[_address] = _total;\n            optionsBalance[_choice] = _value;\n\n            if (_total == 0) {\n                delete memberOptions[_address];\n            }\n        }\n\n        return OK;\n    }\n\n    /// @notice Makes search in contractsManager for registered contract by some identifier\n    /// @param _identifier string identifier of a manager\n    ///\n    /// @return manager address of a manager, 0x0 if nothing was found\n    function lookupManager(bytes32 _identifier) public view returns (address manager) {\n        manager = ContractsManagerInterface(contractsManager).getContractAddressByType(_identifier);\n        assert(manager != 0x0);\n    }\n\n    /// @dev Don't allow to receive any Ether\n    function () public { // TODO:\n        revert();\n    }\n\n    /** PRIVATE section */\n\n    function _isReadyToEndPoll(uint _value) private view returns (bool) {\n        uint _voteLimitNumber = votelimit;\n        return _value >= _voteLimitNumber && (_voteLimitNumber > 0 || deadline <= now);\n    }\n\n    function _endPoll() private returns (uint _resultCode) {\n        assert(status == true);\n\n        if (!active) {\n            return _emitError(ERROR_POLL_BACKEND_INVALID_INVOCATION);\n        }\n\n        delete status;\n        delete active;\n\n        getPollListener().onEndPoll();\n        getEventsHistory().emitPollEnded();\n        return OK;\n    }\n\n    /** INTERNAL: Events emitting */\n\n    function _checkAndEmitError(uint _error) internal returns (uint) {\n        if (_error != OK && _error != MULTISIG_ADDED) {\n            return _emitError(_error);\n        }\n\n        return _error;\n    }\n\n    function _emitError(uint _error) internal returns (uint) {\n        getEventsHistory().emitError(_error);\n        return _error;\n    }\n}\n",
  "sourcePath": "/Users/ahiatsevich/Development/chronobank/SmartContracts/contracts/vote/PollBackend.sol",
  "compiler": {
    "name": "solc",
    "version": "0.4.18+commit.9cf6e910.Emscripten.clang"
  },
  "schemaVersion": "1.0.1",
  "updatedAt": "2018-01-26T09:48:45.296Z"
}