{
  "contractName": "PollRouter",
  "abi": [
    {
      "constant": false,
      "inputs": [],
      "name": "emitPollActivated",
      "outputs": [],
      "payable": false,
      "stateMutability": "nonpayable",
      "type": "function"
    },
    {
      "constant": false,
      "inputs": [],
      "name": "emitPollEnded",
      "outputs": [],
      "payable": false,
      "stateMutability": "nonpayable",
      "type": "function"
    },
    {
      "constant": false,
      "inputs": [
        {
          "name": "errorCode",
          "type": "uint256"
        }
      ],
      "name": "emitError",
      "outputs": [],
      "payable": false,
      "stateMutability": "nonpayable",
      "type": "function"
    },
    {
      "constant": false,
      "inputs": [
        {
          "name": "choice",
          "type": "uint8"
        }
      ],
      "name": "emitPollVoted",
      "outputs": [],
      "payable": false,
      "stateMutability": "nonpayable",
      "type": "function"
    },
    {
      "inputs": [
        {
          "name": "_contractsManager",
          "type": "address"
        },
        {
          "name": "_backend",
          "type": "address"
        }
      ],
      "payable": false,
      "stateMutability": "nonpayable",
      "type": "constructor"
    },
    {
      "payable": true,
      "stateMutability": "payable",
      "type": "fallback"
    },
    {
      "anonymous": false,
      "inputs": [
        {
          "indexed": true,
          "name": "self",
          "type": "address"
        },
        {
          "indexed": false,
          "name": "choice",
          "type": "uint8"
        }
      ],
      "name": "PollVoted",
      "type": "event"
    },
    {
      "anonymous": false,
      "inputs": [
        {
          "indexed": true,
          "name": "self",
          "type": "address"
        }
      ],
      "name": "PollActivated",
      "type": "event"
    },
    {
      "anonymous": false,
      "inputs": [
        {
          "indexed": true,
          "name": "self",
          "type": "address"
        }
      ],
      "name": "PollEnded",
      "type": "event"
    },
    {
      "anonymous": false,
      "inputs": [
        {
          "indexed": true,
          "name": "self",
          "type": "address"
        },
        {
          "indexed": false,
          "name": "errorCode",
          "type": "uint256"
        }
      ],
      "name": "Error",
      "type": "event"
    }
  ],
  "bytecode": "0x6060604052341561000f57600080fd5b60405160408061032e8339810160405280805191906020018051915050600160a060020a038116151561004157600080fd5b600160a060020a038216151561005657600080fd5b60008054600160a060020a03338116600160a060020a031992831617909255600380549483169482169490941790935560028054929091169190921617905561028a806100a46000396000f3006060604052600436106100615763ffffffff7c010000000000000000000000000000000000000000000000000000000060003504166314696c8381146100a35780636c24d51e146100b8578063df26ca08146100cb578063e2bb323b146100e1575b600061006b6100fa565b905060405136810160405236600082376000803683855af46040513d81016040523d6000823e816001811461009f57600080fd5b3d82f35b34156100ae57600080fd5b6100b6610116565b005b34156100c357600080fd5b6100b6610162565b34156100d657600080fd5b6100b66004356101ae565b34156100ec57600080fd5b6100b660ff60043516610202565b60025473ffffffffffffffffffffffffffffffffffffffff1690565b61011e61025a565b73ffffffffffffffffffffffffffffffffffffffff167f5628e52d43406d18add7d63a4c9e07f573165f6faff201802fcf178e314c67b460405160405180910390a2565b61016a61025a565b73ffffffffffffffffffffffffffffffffffffffff167f65de543be011e1b68dcea0af69bf30d0d04a847764a396cc7af2aaa3986d13aa60405160405180910390a2565b6101b661025a565b73ffffffffffffffffffffffffffffffffffffffff167f9cf38cf2dbf9139f5c32639950507b10775fbbe0421f3e168bc2d1bb1ae3208c8260405190815260200160405180910390a250565b61020a61025a565b73ffffffffffffffffffffffffffffffffffffffff167f4e38c414740d6fff0089331e9a30e4db17b2ce069c6711c34e2049c9c610ae638260405160ff909116815260200160405180910390a250565b33905600a165627a7a72305820a2a7007b404a0397f9a37f4b6a5153636954f3b7b1502d74101f35477058985a0029",
  "source": "pragma solidity ^0.4.11;\n\nimport \"../core/common/BaseByzantiumRouter.sol\";\nimport \"../core/contracts/ContractsManagerInterface.sol\";\nimport \"../core/common/Owned.sol\";\nimport \"./PollEmitter.sol\";\n\n\n/// @title Defines a shell that will redirects almost all actions to a backend address.\n/// This contract provides storage layout of variables that will be accessed during delegatecall.\n/// Partially implements PollInterface interface.\ncontract PollRouter is BaseByzantiumRouter, PollEmitter {\n\n    /**\n    * Storage variables. DO NOT CHANGE VARIABLES' LAYOUT UNDER ANY CIRCUMSTANCES!\n    */\n\n    address internal contractOwner;\n    address internal pendingContractOwner;\n\n    address internal backendAddress;\n    address internal contractsManager;\n\n\n    /** PUBLIC section */\n\n    function PollRouter(address _contractsManager, address _backend) public {\n        require(_backend != 0x0);\n        require(_contractsManager != 0x0);\n\n        contractOwner = msg.sender;\n        contractsManager = _contractsManager;\n        backendAddress = _backend;\n    }\n\n    /// @notice Gets address of a backend contract\n    /// @return _backend address of a backend contract\n    function backend() internal constant returns (address) {\n        return backendAddress;\n    }\n}\n",
  "sourcePath": "/Users/ahiatsevich/Development/chronobank/SmartContracts/contracts/vote/PollRouter.sol",
  "compiler": {
    "name": "solc",
    "version": "0.4.18+commit.9cf6e910.Emscripten.clang"
  },
  "schemaVersion": "1.0.1",
  "updatedAt": "2018-01-26T09:34:39.981Z"
}