{
  "contractName": "Rewards",
  "abi": [
    {
      "constant": false,
      "inputs": [
        {
          "name": "addr",
          "type": "address"
        },
        {
          "name": "amount",
          "type": "uint256"
        },
        {
          "name": "total",
          "type": "uint256"
        }
      ],
      "name": "emitWithdrawn",
      "outputs": [],
      "payable": false,
      "stateMutability": "nonpayable",
      "type": "function"
    },
    {
      "constant": false,
      "inputs": [
        {
          "name": "_part",
          "type": "uint256"
        }
      ],
      "name": "emitDepositStored",
      "outputs": [],
      "payable": false,
      "stateMutability": "nonpayable",
      "type": "function"
    },
    {
      "constant": false,
      "inputs": [
        {
          "name": "asset",
          "type": "address"
        },
        {
          "name": "addr",
          "type": "address"
        },
        {
          "name": "amount",
          "type": "uint256"
        }
      ],
      "name": "emitWithdrawnReward",
      "outputs": [],
      "payable": false,
      "stateMutability": "nonpayable",
      "type": "function"
    },
    {
      "constant": false,
      "inputs": [],
      "name": "claimContractOwnership",
      "outputs": [
        {
          "name": "",
          "type": "bool"
        }
      ],
      "payable": false,
      "stateMutability": "nonpayable",
      "type": "function"
    },
    {
      "constant": true,
      "inputs": [
        {
          "name": "_identifier",
          "type": "bytes32"
        }
      ],
      "name": "lookupManager",
      "outputs": [
        {
          "name": "manager",
          "type": "address"
        }
      ],
      "payable": false,
      "stateMutability": "view",
      "type": "function"
    },
    {
      "constant": true,
      "inputs": [],
      "name": "contractsManager",
      "outputs": [
        {
          "name": "",
          "type": "address"
        }
      ],
      "payable": false,
      "stateMutability": "view",
      "type": "function"
    },
    {
      "constant": false,
      "inputs": [
        {
          "name": "_to",
          "type": "address"
        }
      ],
      "name": "changeContractOwnership",
      "outputs": [
        {
          "name": "",
          "type": "bool"
        }
      ],
      "payable": false,
      "stateMutability": "nonpayable",
      "type": "function"
    },
    {
      "constant": true,
      "inputs": [],
      "name": "pendingContractOwner",
      "outputs": [
        {
          "name": "",
          "type": "address"
        }
      ],
      "payable": false,
      "stateMutability": "view",
      "type": "function"
    },
    {
      "constant": false,
      "inputs": [
        {
          "name": "_eventsHistory",
          "type": "address"
        }
      ],
      "name": "setEventsHistory",
      "outputs": [],
      "payable": false,
      "stateMutability": "nonpayable",
      "type": "function"
    },
    {
      "constant": false,
      "inputs": [
        {
          "name": "_contractsManager",
          "type": "address"
        }
      ],
      "name": "setContractsManager",
      "outputs": [],
      "payable": false,
      "stateMutability": "nonpayable",
      "type": "function"
    },
    {
      "constant": false,
      "inputs": [],
      "name": "destroy",
      "outputs": [],
      "payable": false,
      "stateMutability": "nonpayable",
      "type": "function"
    },
    {
      "constant": true,
      "inputs": [
        {
          "name": "_address",
          "type": "address"
        }
      ],
      "name": "depositBalance",
      "outputs": [
        {
          "name": "",
          "type": "uint256"
        }
      ],
      "payable": false,
      "stateMutability": "view",
      "type": "function"
    },
    {
      "constant": false,
      "inputs": [
        {
          "name": "_to",
          "type": "address"
        }
      ],
      "name": "transferContractOwnership",
      "outputs": [
        {
          "name": "",
          "type": "bool"
        }
      ],
      "payable": false,
      "stateMutability": "nonpayable",
      "type": "function"
    },
    {
      "constant": false,
      "inputs": [
        {
          "name": "assetAddress",
          "type": "address"
        }
      ],
      "name": "emitAssetRegistered",
      "outputs": [],
      "payable": false,
      "stateMutability": "nonpayable",
      "type": "function"
    },
    {
      "constant": true,
      "inputs": [],
      "name": "contractOwner",
      "outputs": [
        {
          "name": "",
          "type": "address"
        }
      ],
      "payable": false,
      "stateMutability": "view",
      "type": "function"
    },
    {
      "constant": false,
      "inputs": [
        {
          "name": "tokens",
          "type": "address[]"
        },
        {
          "name": "_to",
          "type": "address"
        }
      ],
      "name": "withdrawnTokens",
      "outputs": [
        {
          "name": "",
          "type": "uint256"
        }
      ],
      "payable": false,
      "stateMutability": "nonpayable",
      "type": "function"
    },
    {
      "constant": false,
      "inputs": [
        {
          "name": "error",
          "type": "uint256"
        }
      ],
      "name": "emitError",
      "outputs": [],
      "payable": false,
      "stateMutability": "nonpayable",
      "type": "function"
    },
    {
      "constant": false,
      "inputs": [],
      "name": "emitPeriodClosed",
      "outputs": [],
      "payable": false,
      "stateMutability": "nonpayable",
      "type": "function"
    },
    {
      "constant": true,
      "inputs": [
        {
          "name": "key",
          "type": "address"
        }
      ],
      "name": "isAuthorized",
      "outputs": [
        {
          "name": "",
          "type": "bool"
        }
      ],
      "payable": false,
      "stateMutability": "view",
      "type": "function"
    },
    {
      "constant": true,
      "inputs": [],
      "name": "getEventsHistory",
      "outputs": [
        {
          "name": "",
          "type": "address"
        }
      ],
      "payable": false,
      "stateMutability": "view",
      "type": "function"
    },
    {
      "inputs": [
        {
          "name": "_store",
          "type": "address"
        },
        {
          "name": "_crate",
          "type": "bytes32"
        }
      ],
      "payable": false,
      "stateMutability": "nonpayable",
      "type": "constructor"
    },
    {
      "payable": false,
      "stateMutability": "nonpayable",
      "type": "fallback"
    },
    {
      "anonymous": false,
      "inputs": [
        {
          "indexed": false,
          "name": "addr",
          "type": "address"
        },
        {
          "indexed": false,
          "name": "amount",
          "type": "uint256"
        },
        {
          "indexed": false,
          "name": "total",
          "type": "uint256"
        }
      ],
      "name": "WithdrawnSuccess",
      "type": "event"
    },
    {
      "anonymous": false,
      "inputs": [
        {
          "indexed": false,
          "name": "asset",
          "type": "address"
        },
        {
          "indexed": false,
          "name": "addr",
          "type": "address"
        },
        {
          "indexed": false,
          "name": "amountReward",
          "type": "uint256"
        }
      ],
      "name": "WithdrawnRewardSuccess",
      "type": "event"
    },
    {
      "anonymous": false,
      "inputs": [
        {
          "indexed": false,
          "name": "_part",
          "type": "uint256"
        }
      ],
      "name": "DepositStored",
      "type": "event"
    },
    {
      "anonymous": false,
      "inputs": [
        {
          "indexed": false,
          "name": "assetAddress",
          "type": "address"
        }
      ],
      "name": "AssetRegistered",
      "type": "event"
    },
    {
      "anonymous": false,
      "inputs": [],
      "name": "PeriodClosed",
      "type": "event"
    },
    {
      "anonymous": false,
      "inputs": [
        {
          "indexed": true,
          "name": "self",
          "type": "address"
        },
        {
          "indexed": false,
          "name": "errorCode",
          "type": "uint256"
        }
      ],
      "name": "Error",
      "type": "event"
    },
    {
      "constant": false,
      "inputs": [
        {
          "name": "_contractsManager",
          "type": "address"
        },
        {
          "name": "_wallet",
          "type": "address"
        },
        {
          "name": "_targetPlatform",
          "type": "address"
        },
        {
          "name": "_closeIntervalDays",
          "type": "uint256"
        }
      ],
      "name": "init",
      "outputs": [
        {
          "name": "",
          "type": "uint256"
        }
      ],
      "payable": false,
      "stateMutability": "nonpayable",
      "type": "function"
    },
    {
      "constant": true,
      "inputs": [],
      "name": "wallet",
      "outputs": [
        {
          "name": "",
          "type": "address"
        }
      ],
      "payable": false,
      "stateMutability": "view",
      "type": "function"
    },
    {
      "constant": true,
      "inputs": [],
      "name": "getCloseInterval",
      "outputs": [
        {
          "name": "",
          "type": "uint256"
        }
      ],
      "payable": false,
      "stateMutability": "view",
      "type": "function"
    },
    {
      "constant": false,
      "inputs": [
        {
          "name": "_closeInterval",
          "type": "uint256"
        }
      ],
      "name": "setCloseInterval",
      "outputs": [
        {
          "name": "",
          "type": "uint256"
        }
      ],
      "payable": false,
      "stateMutability": "nonpayable",
      "type": "function"
    },
    {
      "constant": true,
      "inputs": [],
      "name": "getMaxSharesTransfer",
      "outputs": [
        {
          "name": "",
          "type": "uint256"
        }
      ],
      "payable": false,
      "stateMutability": "view",
      "type": "function"
    },
    {
      "constant": false,
      "inputs": [
        {
          "name": "_maxSharesTransfer",
          "type": "uint256"
        }
      ],
      "name": "setMaxSharesTransfer",
      "outputs": [
        {
          "name": "",
          "type": "uint256"
        }
      ],
      "payable": false,
      "stateMutability": "nonpayable",
      "type": "function"
    },
    {
      "constant": true,
      "inputs": [
        {
          "name": "shareholder",
          "type": "address"
        }
      ],
      "name": "getRewardsLeft",
      "outputs": [
        {
          "name": "",
          "type": "uint256"
        }
      ],
      "payable": false,
      "stateMutability": "view",
      "type": "function"
    },
    {
      "constant": true,
      "inputs": [],
      "name": "periodsLength",
      "outputs": [
        {
          "name": "",
          "type": "uint256"
        }
      ],
      "payable": false,
      "stateMutability": "view",
      "type": "function"
    },
    {
      "constant": true,
      "inputs": [
        {
          "name": "_period",
          "type": "uint256"
        }
      ],
      "name": "periodUnique",
      "outputs": [
        {
          "name": "",
          "type": "uint256"
        }
      ],
      "payable": false,
      "stateMutability": "view",
      "type": "function"
    },
    {
      "constant": true,
      "inputs": [],
      "name": "getAssets",
      "outputs": [
        {
          "name": "result",
          "type": "address[]"
        }
      ],
      "payable": false,
      "stateMutability": "view",
      "type": "function"
    },
    {
      "constant": false,
      "inputs": [],
      "name": "closePeriod",
      "outputs": [
        {
          "name": "resultCode",
          "type": "uint256"
        }
      ],
      "payable": false,
      "stateMutability": "nonpayable",
      "type": "function"
    },
    {
      "constant": true,
      "inputs": [
        {
          "name": "_period",
          "type": "uint256"
        }
      ],
      "name": "getPeriodStartDate",
      "outputs": [
        {
          "name": "",
          "type": "uint256"
        }
      ],
      "payable": false,
      "stateMutability": "view",
      "type": "function"
    },
    {
      "constant": false,
      "inputs": [],
      "name": "storeDeposits",
      "outputs": [
        {
          "name": "resultCode",
          "type": "uint256"
        }
      ],
      "payable": false,
      "stateMutability": "nonpayable",
      "type": "function"
    },
    {
      "constant": false,
      "inputs": [
        {
          "name": "_asset",
          "type": "address"
        }
      ],
      "name": "withdrawRewardTotal",
      "outputs": [
        {
          "name": "",
          "type": "uint256"
        }
      ],
      "payable": false,
      "stateMutability": "nonpayable",
      "type": "function"
    },
    {
      "constant": false,
      "inputs": [],
      "name": "withdrawAllRewardsTotal",
      "outputs": [
        {
          "name": "",
          "type": "uint256"
        }
      ],
      "payable": false,
      "stateMutability": "nonpayable",
      "type": "function"
    },
    {
      "constant": false,
      "inputs": [
        {
          "name": "_asset",
          "type": "address"
        },
        {
          "name": "_amount",
          "type": "uint256"
        }
      ],
      "name": "withdrawReward",
      "outputs": [
        {
          "name": "",
          "type": "uint256"
        }
      ],
      "payable": false,
      "stateMutability": "nonpayable",
      "type": "function"
    },
    {
      "constant": true,
      "inputs": [
        {
          "name": "_address",
          "type": "address"
        },
        {
          "name": "_period",
          "type": "uint256"
        }
      ],
      "name": "depositBalanceInPeriod",
      "outputs": [
        {
          "name": "",
          "type": "uint256"
        }
      ],
      "payable": false,
      "stateMutability": "view",
      "type": "function"
    },
    {
      "constant": true,
      "inputs": [
        {
          "name": "_period",
          "type": "uint256"
        }
      ],
      "name": "totalDepositInPeriod",
      "outputs": [
        {
          "name": "",
          "type": "uint256"
        }
      ],
      "payable": false,
      "stateMutability": "view",
      "type": "function"
    },
    {
      "constant": true,
      "inputs": [],
      "name": "lastPeriod",
      "outputs": [
        {
          "name": "",
          "type": "uint256"
        }
      ],
      "payable": false,
      "stateMutability": "view",
      "type": "function"
    },
    {
      "constant": true,
      "inputs": [],
      "name": "lastClosedPeriod",
      "outputs": [
        {
          "name": "",
          "type": "uint256"
        }
      ],
      "payable": false,
      "stateMutability": "view",
      "type": "function"
    },
    {
      "constant": true,
      "inputs": [
        {
          "name": "_period",
          "type": "uint256"
        }
      ],
      "name": "isClosed",
      "outputs": [
        {
          "name": "",
          "type": "bool"
        }
      ],
      "payable": false,
      "stateMutability": "view",
      "type": "function"
    },
    {
      "constant": true,
      "inputs": [
        {
          "name": "_assetAddress",
          "type": "address"
        },
        {
          "name": "_period",
          "type": "uint256"
        }
      ],
      "name": "assetBalanceInPeriod",
      "outputs": [
        {
          "name": "",
          "type": "uint256"
        }
      ],
      "payable": false,
      "stateMutability": "view",
      "type": "function"
    },
    {
      "constant": true,
      "inputs": [
        {
          "name": "_assetAddress",
          "type": "address"
        },
        {
          "name": "_address",
          "type": "address"
        },
        {
          "name": "_period",
          "type": "uint256"
        }
      ],
      "name": "isCalculatedFor",
      "outputs": [
        {
          "name": "",
          "type": "bool"
        }
      ],
      "payable": false,
      "stateMutability": "view",
      "type": "function"
    },
    {
      "constant": true,
      "inputs": [
        {
          "name": "_assetAddress",
          "type": "address"
        },
        {
          "name": "_address",
          "type": "address"
        }
      ],
      "name": "rewardsFor",
      "outputs": [
        {
          "name": "",
          "type": "uint256"
        }
      ],
      "payable": false,
      "stateMutability": "view",
      "type": "function"
    },
    {
      "constant": false,
      "inputs": [
        {
          "name": "asset",
          "type": "address"
        },
        {
          "name": "addr",
          "type": "address"
        },
        {
          "name": "amount",
          "type": "uint256"
        }
      ],
      "name": "_emitWithdrawnReward",
      "outputs": [],
      "payable": false,
      "stateMutability": "nonpayable",
      "type": "function"
    },
    {
      "constant": false,
      "inputs": [
        {
          "name": "addr",
          "type": "address"
        },
        {
          "name": "amount",
          "type": "uint256"
        },
        {
          "name": "total",
          "type": "uint256"
        }
      ],
      "name": "_emitWithdrawn",
      "outputs": [],
      "payable": false,
      "stateMutability": "nonpayable",
      "type": "function"
    },
    {
      "constant": false,
      "inputs": [
        {
          "name": "_part",
          "type": "uint256"
        }
      ],
      "name": "_emitDepositStored",
      "outputs": [],
      "payable": false,
      "stateMutability": "nonpayable",
      "type": "function"
    },
    {
      "constant": false,
      "inputs": [
        {
          "name": "assetAddress",
          "type": "address"
        }
      ],
      "name": "_emitAssetRegistered",
      "outputs": [],
      "payable": false,
      "stateMutability": "nonpayable",
      "type": "function"
    },
    {
      "constant": false,
      "inputs": [],
      "name": "_emitPeriodClosed",
      "outputs": [],
      "payable": false,
      "stateMutability": "nonpayable",
      "type": "function"
    },
    {
      "constant": false,
      "inputs": [
        {
          "name": "e",
          "type": "uint256"
        }
      ],
      "name": "_emitError",
      "outputs": [
        {
          "name": "",
          "type": "uint256"
        }
      ],
      "payable": false,
      "stateMutability": "nonpayable",
      "type": "function"
    }
  ],
  "bytecode": "0x606060405234156200001057600080fd5b604051604080620032d383398101604052808051919060200180519150829050818181818181816200005360008383640100000000620028846200056f82021704565b505060028054600160a060020a03338116600160a060020a03199283161790925560058054309093169290911691909117905550620000c89250600691507f7368617265686f6c6465727300000000000000000000000000000000000000009050640100000000620028aa6200059582021704565b62000103600b7f6465706f73697473000000000000000000000000000000000000000000000000640100000000620028b8620005b382021704565b6200013e60107f6465706f736974734964436f756e746572000000000000000000000000000000640100000000620028c2620005cd82021704565b6200017960117f616d6f756e747300000000000000000000000000000000000000000000000000640100000000620028d2620005ed82021704565b620001b460127f74696d657374616d707300000000000000000000000000000000000000000000640100000000620028d2620005ed82021704565b620001ef60137f746f74616c53686172657353746f726167650000000000000000000000000000640100000000620028c2620005cd82021704565b6200022a60147f736861726573436f6e747261637453746f726167650000000000000000000000640100000000620028c2620005cd82021704565b5062000268905060157f636c6f7365496e74657276616c00000000000000000000000000000000000000640100000000620028c2620005cd82021704565b620002a360167f6d61785368617265735472616e73666572000000000000000000000000000000640100000000620028c2620005cd82021704565b620002de60177f7265776172647300000000000000000000000000000000000000000000000000640100000000620028d2620005ed82021704565b6200031960187f726577617264734c656674000000000000000000000000000000000000000000640100000000620028d2620005ed82021704565b6200035460197f706572696f647300000000000000000000000000000000000000000000000000640100000000620028c2620005cd82021704565b6200038f601c7f746f74616c536861726573000000000000000000000000000000000000000000640100000000620028d2620005ed82021704565b620003ca601e7f7368617265686f6c64657273436f756e74000000000000000000000000000000640100000000620028d2620005ed82021704565b62000405601a7f636c6f7365640000000000000000000000000000000000000000000000000000640100000000620028d2620005ed82021704565b62000440601b7f7374617274446174650000000000000000000000000000000000000000000000640100000000620028d2620005ed82021704565b6200047b601f7f617373657442616c616e63657300000000000000000000000000000000000000640100000000620028d2620005ed82021704565b620004b660207f63616c63756c6174656400000000000000000000000000000000000000000000640100000000620028d2620005ed82021704565b620004f1601d7f7368617265730000000000000000000000000000000000000000000000000000640100000000620028d2620005ed82021704565b6200052c60217f746172676574506c6174666f726d000000000000000000000000000000000000640100000000620028c2620005cd82021704565b6200056760227f7265776172647357616c6c657453746f72616765000000000000000000000000640100000000620028c2620005cd82021704565b5050620007de565b8254600160a060020a031916600160a060020a0392909216919091178255600190910155565b620005af8282640100000000620029246200060782021704565b5050565b620005af8282640100000000620028aa6200059582021704565b8154620005e9908264010000000062002a7f620007c682021704565b9055565b620005af8282640100000000620028c2620005cd82021704565b6200065e82826040519081527f75696e742f636f756e74000000000000000000000000000000000000000000006020820152602a016040518091039020620005cd64010000000002620028c2176401000000009004565b620006b882600101826040519081527f75696e742f6669727374000000000000000000000000000000000000000000006020820152602a016040518091039020620005cd64010000000002620028c2176401000000009004565b6200071282600201826040519081527f75696e742f6c617374000000000000000000000000000000000000000000000060208201526029016040518091039020620005cd64010000000002620028c2176401000000009004565b6200076c82600301826040519081527f75696e742f6e657874000000000000000000000000000000000000000000000060208201526029016040518091039020620005cd64010000000002620028c2176401000000009004565b620005af82600401826040519081527f75696e742f70726576000000000000000000000000000000000000000000000060208201526029016040518091039020620005cd64010000000002620028c2176401000000009004565b81151580620007d3575080155b15620005af57600080fd5b612ae580620007ee6000396000f3006060604052600436106102425763ffffffff60e060020a60003504166306d4427881146102525780630f09330b1461027a5780631bbf65ef1461029f5780631bc24083146102c65780632f65fa59146102dc5780633752f49a146103045780633e87a56d1461032c57806343369c591461033f5780634592cd1d1461036157806346639dba146103885780634fe59012146103b6578063507a7328146103e8578063521eb273146103fb57806353253d311461040e578063557f4bc91461042157806357bd85221461044057806358d3232f14610456578063590f8c93146104785780635aa77d3c1461048b5780636521afd71461049e578063670bcab1146104bd57806367e4ac2c146104e25780636abe602d1461054857806371d3b5731461055b578063768072491461057a57806377e9f6fc146105a257806383197ef0146105c15780638632779c146105d4578063896efbd6146105e7578063956501bb146105fd57806398af444e1461061c5780639a24159b1461062f5780639d3c737014610645578063a843c51f14610658578063aef5466414610677578063b1a970521461068d578063be0ab3cb146106ac578063cce53fc4146106cb578063ce606ee0146106ed578063d1ddb8b314610700578063d340ef8a14610548578063d5309c6014610716578063d5c78a281461072c578063d8f9659b14610742578063df26ca081461079c578063e29065d6146107b2578063f6b003e5146107c5578063fe82b458146107e4578063fe9fbb80146107f7578063fff10aba14610816575b341561024d57600080fd5b600080fd5b341561025d57600080fd5b610268600435610829565b60405190815260200160405180910390f35b341561028557600080fd5b610268600160a060020a0360043581169060243516610891565b34156102aa57600080fd5b6102c4600160a060020a03600435166024356044356108af565b005b34156102d157600080fd5b6102c460043561090d565b34156102e757600080fd5b6102c4600160a060020a0360043581169060243516604435610943565b341561030f57600080fd5b6102c4600160a060020a03600435811690602435166044356109c0565b341561033757600080fd5b6102c4610a15565b341561034a57600080fd5b610268600160a060020a0360043516602435610a6b565b341561036c57600080fd5b610374610a80565b604051901515815260200160405180910390f35b341561039357600080fd5b610268600160a060020a0360043581169060243581169060443516606435610acd565b34156103c157600080fd5b6103cc600435610b8c565b604051600160a060020a03909116815260200160405180910390f35b34156103f357600080fd5b610268610c04565b341561040657600080fd5b6103cc610d6f565b341561041957600080fd5b6103cc610d87565b341561042c57600080fd5b610374600160a060020a0360043516610d96565b341561044b57600080fd5b610268600435610ded565b341561046157600080fd5b610268600160a060020a0360043516602435610e2a565b341561048357600080fd5b610268610e37565b341561049657600080fd5b6103cc610ed1565b34156104a957600080fd5b6102c4600160a060020a0360043516610ee0565b34156104c857600080fd5b6102c4600160a060020a0360043516602435604435610f16565b34156104ed57600080fd5b6104f5610f7a565b60405160208082528190810183818151815260200191508051906020019060200280838360005b8381101561053457808201518382015260200161051c565b505050509050019250505060405180910390f35b341561055357600080fd5b6102686111e2565b341561056657600080fd5b6102c4600160a060020a03600435166111f5565b341561058557600080fd5b610374600160a060020a036004358116906024351660443561122c565b34156105ad57600080fd5b6102c4600160a060020a036004351661124c565b34156105cc57600080fd5b6102c46112b4565b34156105df57600080fd5b61026861133d565b34156105f257600080fd5b610268600435611379565b341561060857600080fd5b610268600160a060020a03600435166113a4565b341561062757600080fd5b610268611430565b341561063a57600080fd5b610268600435611450565b341561065057600080fd5b610268611486565b341561066357600080fd5b610374600160a060020a0360043516611499565b341561068257600080fd5b610268600435611512565b341561069857600080fd5b6102c4600160a060020a0360043516611526565b34156106b757600080fd5b610268600160a060020a0360043516611566565b34156106d657600080fd5b610268600160a060020a036004351660243561157a565b34156106f857600080fd5b6103cc6115af565b341561070b57600080fd5b6102c46004356115be565b341561072157600080fd5b61026860043561160b565b341561073757600080fd5b61037460043561162e565b341561074d57600080fd5b610268600460248135818101908301358060208181020160405190810160405280939291908181526020018383602002808284375094965050509235600160a060020a03169250611642915050565b34156107a757600080fd5b6102c4600435611779565b34156107bd57600080fd5b6102c46117c0565b34156107d057600080fd5b610268600160a060020a03600435166117ee565b34156107ef57600080fd5b610268611804565b341561080257600080fd5b610374600160a060020a0360043516611817565b341561082157600080fd5b6103cc6118b0565b60006108336118b0565b600160a060020a031663df26ca088360405160e060020a63ffffffff84160281526004810191909152602401600060405180830381600087803b151561087857600080fd5b5af1151561088557600080fd5b5050508190505b919050565b60006108a6816017858563ffffffff6118bf16565b90505b92915050565b7f9733cd8dacd543098fb51634f576590185a97c05da7322f63548f68af37aa01c8383836040518084600160a060020a0316600160a060020a03168152602001838152602001828152602001935050505060405180910390a1505050565b7f8df23d404ca3f2bdd82171b596b4670e76c1657cda0edcde1e8f2e0b5acac6cd8160405190815260200160405180910390a150565b61094b6118b0565b600160a060020a0316633752f49a84848460405160e060020a63ffffffff8616028152600160a060020a0393841660048201529190921660248201526044810191909152606401600060405180830381600087803b15156109ab57600080fd5b5af115156109b857600080fd5b505050505050565b7f9e059fe0bc0d282ae325ba68777c9617b5c01b3a517ddb819f5e2c0de8e7a78a838383604051600160a060020a039384168152919092166020820152604080820192909252606001905180910390a1505050565b610a1d6118b0565b600160a060020a031663e29065d66040518163ffffffff1660e060020a028152600401600060405180830381600087803b1515610a5957600080fd5b5af11515610a6657600080fd5b505050565b60006108a681601f848663ffffffff6118e216565b60035460009033600160a060020a03908116911614610aa157506000610aca565b506003805460028054600160a060020a0319908116600160a060020a0384161790915516905560015b90565b600254600090819033600160a060020a0390811691161415610b8357610b13867f52657761726473000000000000000000000000000000000000000000000000006118f9565b9050610b28600060158563ffffffff611ad016565b610b3b600060218663ffffffff611b3016565b610b4e600060228763ffffffff611b3016565b60068114610b7e57610b6a6000601b814263ffffffff611b9916565b610b7e60006016601e63ffffffff611ad016565b600191505b50949350505050565b600454600090600160a060020a031663bc6579278360405160e060020a63ffffffff84160281526004810191909152602401602060405180830381600087803b1515610bd757600080fd5b5af11515610be457600080fd5b5050506040518051915050600160a060020a038116151561088c57600080fd5b600080600080610c1261284b565b600080610c1e33611817565b15610d6657610c2b6111e2565b955042610c406000601563ffffffff611ba516565b6201518002610c586000601b8a63ffffffff611bfc16565b011115610c7157610c6a612331610829565b9650610d66565b610c836000601363ffffffff611ba516565b9450610c976000600663ffffffff611c0916565b9350610cad6000601c888863ffffffff611b9916565b610cc16000601e888763ffffffff611b9916565b610cc9610f7a565b9250825115610d1d57600091505b8251821015610d1d57610cff838381518110610cef57fe5b9060200190602002015187611c15565b905060018114610d1257610d1281611779565b600190910190610cd7565b600190950194610d36600060198863ffffffff611ad016565b610d4a6000601b884263ffffffff611b9916565b610d5383611d34565b96506001871415610d6657610d66610a15565b50505050505090565b6000610d8281602263ffffffff611ede16565b905090565b600454600160a060020a031681565b60025460009033600160a060020a039081169116141561088c57600160a060020a0382161515610dc85750600061088c565b5060038054600160a060020a038316600160a060020a03199091161790556001919050565b6000610df76111e2565b821415610e1757610e106000600663ffffffff611c0916565b905061088c565b610e106000601e8463ffffffff611bfc16565b60006108a6833384611f35565b6000610e4161284b565b6000806000610e4e610f7a565b9350600092505b8351831015610ec557610e7d848481518110610e6d57fe5b9060200190602002015133610891565b91506000821115610eba57610ea8848481518110610e9757fe5b906020019060200201513384611f35565b905060018114610eba57809450610eca565b600190920191610e55565b600194505b5050505090565b600354600160a060020a031681565b60025433600160a060020a0390811691161415610f135760058054600160a060020a031916600160a060020a0383161790555b50565b610f1e6118b0565b600160a060020a0316631bbf65ef84848460405160e060020a63ffffffff8616028152600160a060020a03909316600484015260248301919091526044820152606401600060405180830381600087803b15156109ab57600080fd5b610f8261284b565b60008080808080610f9a81602163ffffffff611ede16565b9550610fc57f4173736574734d616e6167657200000000000000000000000000000000000000610b8c565b9450610ff07f4c4f434d616e6167657200000000000000000000000000000000000000000000610b8c565b600160a060020a031663521eb2736040518163ffffffff1660e060020a028152600401602060405180830381600087803b151561102c57600080fd5b5af1151561103957600080fd5b5050506040518051945050600160a060020a0385166317db1071878660405160e060020a63ffffffff8516028152600160a060020a03928316600482015291166024820152604401602060405180830381600087803b151561109a57600080fd5b5af115156110a757600080fd5b505050604051805190509250826040518059106110c15750595b90808252806020026020018201604052509650600090505b82811015610d665784600160a060020a0316632cd060ce87868460405160e060020a63ffffffff8616028152600160a060020a0393841660048201529190921660248201526044810191909152606401602060405180830381600087803b151561114257600080fd5b5af1151561114f57600080fd5b5050506040518051925050600160a060020a0385166328aea08b8360405160e060020a63ffffffff84160281526004810191909152602401602060405180830381600087803b15156111a057600080fd5b5af115156111ad57600080fd5b505050604051805190508782815181106111c357fe5b600160a060020a039092166020928302909101909101526001016110d9565b6000610d8281601963ffffffff611ba516565b60025433600160a060020a0390811691161415610f135760048054600160a060020a038316600160a060020a031990911617905550565b600061124281602084878763ffffffff61215216565b90505b9392505050565b6112546118b0565b600160a060020a031663b1a970528260405160e060020a63ffffffff8416028152600160a060020a039091166004820152602401600060405180830381600087803b15156112a157600080fd5b5af115156112ae57600080fd5b50505050565b60025433600160a060020a039081169116141561133b57600454600160a060020a031663c375c2ef3060405160e060020a63ffffffff8416028152600160a060020a039091166004820152602401602060405180830381600087803b151561131b57600080fd5b5af1151561132857600080fd5b505050604051805190505061133b612177565b565b600061135081601963ffffffff611ba516565b151561135f5750612328610aca565b60016113736000601963ffffffff611ba516565b03905090565b600061138433611817565b1561088c5761139c600060168463ffffffff611ad016565b506001919050565b6000806113af61285d565b6000806113cd81600b600160a060020a03891663ffffffff61219a16565b9250600091505b6113e76000600b8563ffffffff6121ad16565b15611426576114156011876114056000600b8863ffffffff6121ba16565b600092919063ffffffff6121c716565b9384019360019092019190506113d4565b5091949350505050565b600061143b33611817565b15610aca57610d8261144b610f7a565b611d34565b600061145a6111e2565b82141561147357610e106000601363ffffffff611ba516565b6108a96000601c8463ffffffff611bfc16565b6000610d8281601563ffffffff611ba516565b60025460009033600160a060020a039081169116141561088c57600160a060020a03821615156114cb5750600061088c565b600354600160a060020a0316156114ed5760038054600160a060020a03191690555b5060028054600160a060020a038316600160a060020a03199091161790556001919050565b60006108a981601b8463ffffffff611bfc16565b7f0700b0f4c19e631ed321192cfc0b71a83caa514675497afc74fe817d5f839dd581604051600160a060020a03909116815260200160405180910390a150565b60006108a98160188463ffffffff6121de16565b60006115846111e2565b82141561159b57611594836113a4565b90506108a9565b6108a66000601d848663ffffffff6118e216565b600254600160a060020a031681565b6115c66118b0565b600160a060020a0316631bc240838260405160e060020a63ffffffff84160281526004810191909152602401600060405180830381600087803b15156112a157600080fd5b600061161633611817565b1561088c5761139c600060158463ffffffff611ad016565b60006108a981601a8463ffffffff6121f416565b60025460009081908190819033600160a060020a039081169116141561177057600092505b855183101561176b5785838151811061167c57fe5b90602001906020020151915081600160a060020a03166370a082313060405160e060020a63ffffffff8416028152600160a060020a039091166004820152602401602060405180830381600087803b15156116d657600080fd5b5af115156116e357600080fd5b505050604051805191505080156117605781600160a060020a031663a9059cbb868360405160e060020a63ffffffff8516028152600160a060020a0390921660048301526024820152604401602060405180830381600087803b151561174857600080fd5b5af1151561175557600080fd5b505050604051805150505b600190920191611667565b600193505b50505092915050565b611781612201565b600160a060020a03167f9cf38cf2dbf9139f5c32639950507b10775fbbe0421f3e168bc2d1bb1ae3208c8260405190815260200160405180910390a250565b7f3a273a3330d1f4c56aa39bf2b3df76adde3fd94f62ce06e19d173e66af02fa6360405160405180910390a1565b60006108a982336117ff8533610891565b611f35565b6000610d8281601663ffffffff611ba516565b6000806118437f557365724d616e61676572000000000000000000000000000000000000000000610b8c565b905080600160a060020a0316632aa09e5a8460405160e060020a63ffffffff8416028152600160a060020a039091166004820152602401602060405180830381600087803b151561189357600080fd5b5af115156118a057600080fd5b5050506040518051949350505050565b600554600160a060020a031690565b60006118d98585600160a060020a03808716908616612205565b95945050505050565b60006118d9858585600160a060020a038616612205565b60025460009081908190819033600160a060020a0390811691161461191d57600080fd5b600160a060020a038616151561193257600080fd5b600454600160a060020a031615801593508061195c5750600454600160a060020a03878116911614155b1561197d5760048054600160a060020a031916600160a060020a0388161790555b600454600160a060020a031691508163bc65792760405160e060020a63ffffffff83160281527f4d756c74694576656e7473486973746f727900000000000000000000000000006004820152602401602060405180830381600087803b15156119e557600080fd5b5af115156119f257600080fd5b5050506040518051915050600160a060020a03811615801590611a235750600554600160a060020a03828116911614155b15611a445760058054600160a060020a031916600160a060020a0383161790555b8415611abe5781600160a060020a031663b7c46cd5308760405160e060020a63ffffffff8516028152600160a060020a0390921660048301526024820152604401602060405180830381600087803b1515611a9e57600080fd5b5af11515611aab57600080fd5b50505060405180516001149050611abe57fe5b821561176b5760069695505050505050565b825460018401548354600160a060020a03909216916353e7168b91908460405160e060020a63ffffffff8616028152600481019390935260248301919091526044820152606401600060405180830381600087803b15156109ab57600080fd5b825460018401548354600160a060020a03909216916379a7cfee91908460405160e060020a63ffffffff861602815260048101939093526024830191909152600160a060020a03166044820152606401600060405180830381600087803b15156109ab57600080fd5b6112ae8484848461222a565b815460018301548254600092600160a060020a0316916353aa3f5e9160405160e060020a63ffffffff851602815260048101929092526024820152604401602060405180830381600087803b151561189357600080fd5b60006112428484846122b8565b60006108a68383612345565b6000808080600160a060020a038616611c3582601463ffffffff611ede16565b600160a060020a03161415611c5657611c4f612332610829565b9350611770565b611c6a6000601f878963ffffffff6118e216565b92508215611c7d57611c4f612332610829565b85600160a060020a03166370a08231611c94610d6f565b60405160e060020a63ffffffff8416028152600160a060020a039091166004820152602401602060405180830381600087803b1515611cd257600080fd5b5af11515611cdf57600080fd5b50505060405180519250611cfe9050600060188863ffffffff6121de16565b9050611d176000601f878985870363ffffffff61237216565b611d2b60006018888563ffffffff61238f16565b61176b8661124c565b6000806000611d4161285d565b600080600080611d4f61285d565b600080611d5a61133d565b9950611d6c611d676111e2565b611512565b9850611d806000600663ffffffff6123a416565b9750600094505b611d9a600060068a63ffffffff6123b616565b15611eb757611db2600060068a63ffffffff6123c316565b600097509350611dd387600b600160a060020a03871663ffffffff61219a16565b9250600095505b611ded6000600b8563ffffffff6121ad16565b15611e4857611e056000600b8563ffffffff6121ba16565b9150611e1b60006012868563ffffffff6121c716565b9050888111611e3d57611e3860006011868563ffffffff6121c716565b870196505b600190950194611dda565b600095505b8b51861015611e9757611e778c8781518110611e6557fe5b9060200190602002015185898d6123d0565b9a5060018b14611e8c57611e8a8b610829565b505b600190950194611e4d565b611eac6000601d8c878b63ffffffff61237216565b600190940193611d87565b611ecc6000601a8c600163ffffffff61249a16565b5060019b9a5050505050505050505050565b815460018301548254600092600160a060020a03169163d3a396869160405160e060020a63ffffffff851602815260048101929092526024820152604401602060405180830381600087803b151561189357600080fd5b600080808080611f4d8160188a63ffffffff6121de16565b1515611f6557611f5e61232d610829565b9450612147565b611f6d610d6f565b935087600160a060020a03166370a082318560405160e060020a63ffffffff8416028152600160a060020a039091166004820152602401602060405180830381600087803b1515611fbd57600080fd5b5af11515611fca57600080fd5b5050506040518051935050600160a060020a03841663d9caed1289898960405160e060020a63ffffffff8616028152600160a060020a0393841660048201529190921660248201526044810191909152606401602060405180830381600087803b151561203657600080fd5b5af1151561204357600080fd5b50505060405180519050151561205e57611f5e61232e610829565b87600160a060020a03166370a082318560405160e060020a63ffffffff8416028152600160a060020a039091166004820152602401602060405180830381600087803b15156120ac57600080fd5b5af115156120b957600080fd5b505050604051805192505050808203806120d38989610891565b10156120de57600080fd5b61210c60178989846120f9600085858563ffffffff6118bf16565b600094939291900363ffffffff6124a616565b612137601889836121256000848463ffffffff6121de16565b6000939291900363ffffffff61238f16565b612142888888610943565b600194505b505050509392505050565b600061216d868686600160a060020a038088169087166124bf565b9695505050505050565b60025433600160a060020a039081169116141561133b5733600160a060020a0316ff5b6121a261285d565b6112428484846124f1565b60006112428484846123b6565b60006112428484846123c3565b60006118d98585600160a060020a03861685612205565b60006112428484600160a060020a0385166122b8565b6000611242848484612504565b3390565b60006118d98585858560405191825260208201526040908101905180910390206122b8565b835460018501548454600160a060020a039092169163a14ff85791908560405191825260208201526040908101905180910390208460405160e060020a63ffffffff8616028152600481019390935260248301919091526044820152606401600060405180830381600087803b15156122a257600080fd5b5af115156122af57600080fd5b50505050505050565b825460018401548354600092600160a060020a0316916337d9d7fc9185604051918252602082015260409081019051809103902060405160e060020a63ffffffff851602815260048101929092526024820152604401602060405180830381600087803b151561232757600080fd5b5af1151561233457600080fd5b505050604051805195945050505050565b60006108a683837f6f7264657265645f736574000000000000000000000000000000000000000000612573565b612388858585600160a060020a03861685612580565b5050505050565b6112ae8484600160a060020a0385168461222a565b6123ac61285d565b6108a683836125a4565b60006112428484846125d7565b6000611242848484612612565b6000808080806123e981601f888c63ffffffff6118e216565b93508315156123fc57612330945061248e565b61241160006020888c8c63ffffffff61215216565b156124205761232f945061248e565b6124336000601c8863ffffffff611bfc16565b92508287850281151561244257fe5b049150612459600060178b8b63ffffffff6118bf16565b9050612472600060178b8b86860163ffffffff6124a616565b61248960006020888c8c600163ffffffff61265e16565b600194505b50505050949350505050565b6112ae84848484612678565b6123888585600160a060020a0380871690861685612580565b600061216d86868686866040519283526020830191909152604080830191909152606090910190518091039020612504565b6124f961285d565b6112428484846126f2565b825460018401548354600092600160a060020a0316916398eaf11c9185604051918252602082015260409081019051809103902060405160e060020a63ffffffff851602815260048101929092526024820152604401602060405180830381600087803b151561232757600080fd5b6000611242848484612710565b6123888585858560405191825260208201526040908101905180910390208461222a565b6125ac61285d565b6108a683837f6f7264657265645f7365740000000000000000000000000000000000000000006126f2565b6000816020015115806125fb57506125f984848460600151856040015161277f565b155b1561260857506000611245565b5060019392505050565b600061261f8484846125d7565b151561262a57600080fd5b816040015190506126458484846060015185604001516127bb565b6040830152600160208301818151039052509392505050565b6109b8868686600160a060020a03808816908716866127cc565b835460018501548454600160a060020a039092169163f0f53ee491908560405191825260208201526040908101905180910390208460405160e060020a63ffffffff86160281526004810193909352602483019190915215156044820152606401600060405180830381600087803b15156122a257600080fd5b6126fa61285d565b61124284848461270b838383612710565b6127fd565b825460018401548354600092600160a060020a0316916353aa3f5e9185604051918252602082015260409081019051809103902060405160e060020a63ffffffff851602815260048101929092526024820152604401602060405180830381600087803b151561232757600080fd5b600081158015906118d9575061279a85856003018585612205565b1515806118d95750816127b18660028701866122b8565b1495945050505050565b60006118d985856003018585612205565b6109b88686868686604051928352602083019190915260408083019190915260609091019051809103902084612678565b61280561285d565b6118d9836128178787600101876122b8565b8461282061285d565b6080604051908101604090815283825260208201939093529182019290925260608101929092525090565b60206040519081016040526000815290565b60806040519081016040908152600080835260208301819052908201819052606082015290565b8254600160a060020a031916600160a060020a0392909216919091178255600190910155565b6128b48282612924565b5050565b6128b482826128aa565b81546128ce9082612a7f565b9055565b6128b482826128c2565b81546128ce9082612a7f565b6128b482826128c2565b6128b482826128c2565b6128b482826128c2565b6128b482826128c2565b6128b482826128c2565b6128b482826128c2565b61296582826040519081527f75696e742f636f756e74000000000000000000000000000000000000000000006020820152602a0160405180910390206128c2565b6129a982600101826040519081527f75696e742f6669727374000000000000000000000000000000000000000000006020820152602a0160405180910390206128c2565b6129ed82600201826040519081527f75696e742f6c6173740000000000000000000000000000000000000000000000602082015260290160405180910390206128c2565b612a3182600301826040519081527f75696e742f6e6578740000000000000000000000000000000000000000000000602082015260290160405180910390206128c2565b6128b482600401826040519081527f75696e742f707265760000000000000000000000000000000000000000000000602082015260290160405180910390206128c2565b6128b48282612924565b81151580612a8b575080155b156128b457600080fd5b81546128ce9082612a7f565b81546128ce9082612a7f565b81546128ce9082612a7f5600a165627a7a723058206d4d20d898a6b20e78e07613d3e7d583e2f34a6c6dae0336e092bcd2e0581a110029",
  "source": "pragma solidity ^0.4.11;\n\nimport {TimeHolderInterface as TimeHolder} from \"../timeholder/TimeHolderInterface.sol\";\nimport \"../core/erc20/ERC20Interface.sol\";\nimport \"../assets/AssetsManagerInterface.sol\";\nimport \"../assets/PlatformsManagerInterface.sol\";\nimport \"../timeholder/DepositWalletInterface.sol\";\nimport \"../core/common/Managed.sol\";\nimport \"../core/common/Deposits.sol\";\nimport \"../reward/RewardsEmitter.sol\";\n\n/**\n* @title Defines interface for managers that can store any tokens and use for that purpose wallets\n* instead of keeping tokens on their own address. Keeps this contracts updatable with ease.\n*/\ncontract WalletBackedManagerInterface {\n    function wallet() constant returns (address);\n}\n\n/**\n * @title Universal decentralized ERC20 tokens rewards contract.\n *\n * One ERC20 token serves as a shares, and any number of other ERC20 tokens serve as rewards(assets).\n * Rewards distribution are divided in periods, the only thing that shareholder needs to do in\n * order to take part in distribution is prove to rewards contract that he possess certain amount\n * of shares before period closes. Prove is made through allowing rewards contract to take shares\n * from the shareholder, and then depositing it through a call to rewards contract. Proof is needed\n * for every period.\n *\n * When calculating rewards distribution, resulting amount is always rounded down.\n *\n * In order to be able to deposit shares, user needs to create allowance for wallet contract, using\n * standard ERC20 approve() function, so that contract can take shares from the user, when user\n * makes a dpeosit.\n *\n * Users can withdraw their shares at any moment, but only remaining shares will be used for\n * rewards distribution.\n * Users can withdraw their accumulated rewards at any moment.\n *\n * State flow:\n *   1. Period closed, next period started;\n *   2. Reward assets registered for last closed preiod;\n *   3. Rewards distributed for closed period;\n *   4. Shares deposited into current period;\n *   5. Repeat.\n *\n * Note: all the non constant functions return false instead of throwing in case if state change\n * didn't happen yet.\n */\ncontract Rewards is Deposits, RewardsEmitter {\n\n    uint constant ERROR_REWARD_NOT_FOUND = 9000;\n    uint constant ERROR_REWARD_INVALID_PARAMETER = 90001;\n    uint constant ERROR_REWARD_INVALID_INVOCATION = 9002;\n    uint constant ERROR_REWARD_INVALID_STATE = 9003;\n    uint constant ERROR_REWARD_INVALID_PERIOD = 9004;\n    uint constant ERROR_REWARD_NO_REWARDS_LEFT = 9005;\n    uint constant ERROR_REWARD_ASSET_TRANSFER_FAILED = 9006;\n    uint constant ERROR_REWARD_ALREADY_CALCULATED = 9007;\n    uint constant ERROR_REWARD_CALCULATION_FAILED = 9008;\n    uint constant ERROR_REWARD_CANNOT_CLOSE_PERIOD = 9009;\n    uint constant ERROR_REWARD_ASSET_ALREADY_REGISTERED = 9010;\n\n    StorageInterface.UInt closeInterval;\n    StorageInterface.UInt maxSharesTransfer;\n    StorageInterface.AddressAddressUIntMapping rewards;\n    StorageInterface.AddressUIntMapping rewardsLeft;\n    StorageInterface.UInt periods;\n    StorageInterface.UIntBoolMapping closed;\n    StorageInterface.UIntUIntMapping startDate;\n    StorageInterface.UIntUIntMapping totalShares;\n    StorageInterface.UIntAddressUIntMapping shares;\n    StorageInterface.UIntUIntMapping shareholdersCount;\n    StorageInterface.UIntAddressUIntMapping assetBalances;\n    StorageInterface.UIntAddressAddressBoolMapping calculated;\n    StorageInterface.Address targetPlatform;\n    StorageInterface.Address walletStorage;\n\n    function Rewards(Storage _store, bytes32 _crate) Deposits(_store, _crate) {\n        closeInterval.init('closeInterval');\n        maxSharesTransfer.init('maxSharesTransfer');\n        rewards.init('rewards');\n        rewardsLeft.init('rewardsLeft');\n        periods.init('periods');\n        totalShares.init('totalShares');\n        shareholdersCount.init('shareholdersCount');\n        closed.init('closed');\n        startDate.init('startDate');\n        assetBalances.init('assetBalances');\n        calculated.init('calculated');\n        shares.init('shares');\n        targetPlatform.init('targetPlatform');\n        walletStorage.init(\"rewardsWalletStorage\");\n    }\n\n    /**\n     * Sets ContractManager contract and period minimum length.\n     * Starts the first period.\n     *\n     * Can be set only once.\n     *\n     * @param _contractsManager contracts Manager contract address.\n     * @param _closeIntervalDays period minimum length, in days.\n     *\n     * @return result code, @see Errors\n     */\n    function init(address _contractsManager, address _wallet, address _targetPlatform, uint _closeIntervalDays) onlyContractOwner returns (uint) {\n        uint result = BaseManager.init(_contractsManager, \"Rewards\");\n\n        store.set(closeInterval, _closeIntervalDays);\n        store.set(targetPlatform, _targetPlatform);\n        store.set(walletStorage, _wallet);\n\n        // do not update default values if reinitialization\n        if (REINITIALIZED != result) {\n            store.set(startDate,0,now);\n            store.set(maxSharesTransfer,30);\n        }\n\n        return OK;\n    }\n\n    /**\n    * @dev Gets wallet address used to store tokens\n    *\n    * @return wallet address\n    */\n    function wallet() public constant returns (address) {\n        return store.get(walletStorage);\n    }\n\n    function getCloseInterval() constant returns(uint) {\n        return store.get(closeInterval);\n    }\n\n    function setCloseInterval(uint _closeInterval) onlyAuthorized returns(uint) {\n        store.set(closeInterval,_closeInterval);\n        return OK;\n    }\n\n    function getMaxSharesTransfer() constant returns(uint) {\n        return store.get(maxSharesTransfer);\n    }\n\n    function setMaxSharesTransfer(uint _maxSharesTransfer) onlyAuthorized returns (uint) {\n        store.set(maxSharesTransfer,_maxSharesTransfer);\n        return OK;\n    }\n\n    function getRewardsLeft(address shareholder) constant returns(uint) {\n        return store.get(rewardsLeft,shareholder);\n    }\n\n    function periodsLength() constant returns(uint) {\n        return store.get(periods);\n    }\n\n    function periodUnique(uint _period) constant returns(uint) {\n        if(_period == lastPeriod()) {\n            return store.count(shareholders);\n        } else {\n            return store.get(shareholdersCount,_period);\n        }\n    }\n\n    function getAssets() constant returns(address[] result) {\n        address _targetPlatform = store.get(targetPlatform);\n        AssetsManagerInterface assetsManager = AssetsManagerInterface(lookupManager(\"AssetsManager\"));\n        address chronoMintWallet = WalletBackedManagerInterface(lookupManager(\"LOCManager\")).wallet();\n        uint assetsCount = assetsManager.getAssetsForOwnerCount(_targetPlatform, chronoMintWallet);\n        result = new address[](assetsCount);\n        bytes32 symbol;\n        for (uint idx = 0; idx < assetsCount; ++idx) {\n            symbol = assetsManager.getAssetForOwnerAtIndex(_targetPlatform, chronoMintWallet, idx);\n            result[idx] = assetsManager.getAssetBySymbol(symbol);\n        }\n    }\n\n    /**\n     * Close current active period and start the new period.\n     *\n     * Can only be done if period was active longer than minimum length.\n     *\n     * @return success.\n     */\n    function closePeriod() onlyAuthorized returns (uint resultCode) {\n        uint period = lastPeriod();\n        if ((store.get(startDate,period) + (store.get(closeInterval) * 1 days)) > now) {\n            return _emitError(ERROR_REWARD_CANNOT_CLOSE_PERIOD);\n        }\n\n        uint _totalSharesPeriod = store.get(totalSharesStorage);\n        uint _shareholdersCount = store.count(shareholders);\n        store.set(totalShares, period, _totalSharesPeriod);\n        store.set(shareholdersCount, period, _shareholdersCount);\n        address[] memory assets = getAssets();\n        if (assets.length != 0) {\n            for (uint i = 0; i < assets.length; i++) {\n                uint result = registerAsset(assets[i], period);\n                if (OK != result) {\n                    // do not interrupt, just emit an Event\n                    emitError(result);\n                }\n            }\n        }\n        store.set(periods,++period);\n        store.set(startDate,period,now);\n        resultCode = storeDeposits(assets);\n        if (resultCode == OK) {\n            _emitPeriodClosed();\n        }\n    }\n\n    function getPeriodStartDate(uint _period) constant returns (uint) {\n        return store.get(startDate, _period);\n    }\n\n    /**\n    *  @return error code and still left shares. `sharesLeft` is actual only\n    *  if `errorCode` == OK, otherwise `sharesLeft` must be ignored.\n    */\n    function storeDeposits() onlyAuthorized returns (uint resultCode) {\n        resultCode = storeDeposits(getAssets());\n    }\n\n    function storeDeposits(address[] assets) internal returns (uint result) {\n        uint period = lastClosedPeriod();\n        uint period_end = getPeriodStartDate(lastPeriod());\n        StorageInterface.Iterator memory iterator = store.listIterator(shareholders);\n        uint amount;\n        uint j;\n        for(uint i = 0; store.canGetNextWithIterator(shareholders, iterator); i++) {\n            address shareholder = store.getNextWithIterator(shareholders, iterator);\n            amount = 0;\n            StorageInterface.Iterator memory iterator2 = store.listIterator(deposits,bytes32(shareholder));\n            for(j = 0; store.canGetNextWithIterator(deposits, iterator2); j++) {\n                uint id = store.getNextWithIterator(deposits,iterator2);\n                uint timestamp = store.get(timestamps,shareholder,id);\n                if(timestamp <= period_end) {\n                    amount += store.get(amounts,shareholder,id);\n                }\n            }\n            for(j = 0; j < assets.length; j++) {\n                result = calculateRewardFor(assets[j],shareholder,amount,period);\n                if(OK != result) {\n                    _emitError(result);\n                }\n            }\n            store.set(shares,period,shareholder,amount);\n        }\n\n        store.set(closed, period, true);\n\n        return OK;\n    }\n\n    function registerAsset(address _asset, uint _period) internal returns (uint) {\n        if (store.get(sharesContractStorage) == _asset) {\n            return _emitError(ERROR_REWARD_ASSET_ALREADY_REGISTERED);\n        }\n        uint period_balance = store.get(assetBalances,_period,_asset);\n        if (period_balance != 0) {\n            return _emitError(ERROR_REWARD_ASSET_ALREADY_REGISTERED);\n        }\n\n        uint balance = ERC20Interface(_asset).balanceOf(wallet());\n        uint left = store.get(rewardsLeft,_asset);\n        store.set(assetBalances,_period,_asset,balance - left);\n        store.set(rewardsLeft,_asset,balance);\n\n        _emitAssetRegistered(address(_asset));\n        return OK;\n    }\n\n    function calculateRewardFor(address _assetAddress, address _address, uint _amount, uint _period) internal returns (uint e) {\n        uint assetBalance = store.get(assetBalances,_period,_assetAddress);\n        if (assetBalance == 0) {\n            return ERROR_REWARD_CALCULATION_FAILED;\n        }\n\n        if (store.get(calculated,_period,_assetAddress,_address)) {\n            return ERROR_REWARD_ALREADY_CALCULATED;\n        }\n\n        uint totalSharesPeriod = store.get(totalShares,_period);\n        uint reward =  assetBalance * _amount / totalSharesPeriod;\n        uint cur_reward = store.get(rewards,_assetAddress,_address);\n        store.set(rewards,_assetAddress,_address,cur_reward + reward);\n        store.set(calculated,_period,_assetAddress,_address,true);\n\n        return OK;\n    }\n\n    /**\n     * Withdraw accumulated reward of a specified rewards asset.\n     *\n     * Withdrawal is made for caller and total amount.\n     *\n     * @param _asset registered rewards asset contract address.\n     *\n     * @return success.\n     */\n    function withdrawRewardTotal(address _asset) returns (uint) {\n        return withdrawRewardFor(_asset, msg.sender, rewardsFor(_asset, msg.sender));\n    }\n\n    /**\n     * Withdraw all accumulated rewards.\n     *\n     * Withdrawals are made for caller and total amount.\n     *\n     * @return result code.\n     */\n    function withdrawAllRewardsTotal() returns (uint) {\n        address[] memory _assets = getAssets();\n        for (uint i=0; i < _assets.length; i++) {\n            uint _rewards = rewardsFor(_assets[i], msg.sender);\n            if (_rewards > 0) {\n                uint result = withdrawRewardFor(_assets[i], msg.sender, _rewards);\n                if (OK != result) {\n                    return result;\n                }\n            }\n        }\n\n        return OK;\n    }\n\n    /**\n     * Withdraw accumulated reward of a specified rewards asset.\n     *\n     * Withdrawal is made for specified shareholder and total amount.\n     *\n     * This function meant to be used by some backend application to send rewards\n     * for arbitrary shareholders.\n     *\n     * @param _asset registered rewards asset contract address.\n     * @param _address shareholder address to withdraw for.\n     *\n     * @return success.\n     */\n    /*function withdrawRewardTotalFor(address _asset, address _address) returns (uint) {\n        return withdrawRewardFor(_asset, _address, rewardsFor(_asset, _address));\n    }*/\n\n    /**\n     * Withdraw accumulated reward of a specified rewards asset.\n     *\n     * Withdrawal is made for caller and specified amount.\n     *\n     * @param _asset registered rewards asset contract address.\n     * @param _amount amount to withdraw.\n     *\n     * @return success.\n     */\n    function withdrawReward(address _asset, uint _amount) returns (uint) {\n        return withdrawRewardFor(_asset, msg.sender, _amount);\n    }\n\n    /**\n     * Withdraw accumulated reward of a specified rewards asset.\n     *\n     * Withdrawal is made for specified shareholder and specified amount.\n     *\n     * @param _asset registered rewards asset contract address.\n     * @param _address shareholder address to withdraw for.\n     * @param _amount amount to withdraw.\n     *\n     * @return success.\n     */\n    function withdrawRewardFor(address _asset, address _address, uint _amount) internal returns (uint) {\n        if (store.get(rewardsLeft,_asset) == 0) {\n            return _emitError(ERROR_REWARD_NO_REWARDS_LEFT);\n        }\n\n        // Assuming that transfer(amount) of unknown asset may not result in exactly\n        // amount being taken from rewards contract(i. e. fees taken) we check contracts\n        // balance before and after transfer, and proceed with the difference.\n        address _wallet = wallet();\n        uint startBalance = ERC20Interface(_asset).balanceOf(_wallet);\n        if (!DepositWalletInterface(_wallet).withdraw(_asset, _address, _amount)) {\n            return _emitError(ERROR_REWARD_ASSET_TRANSFER_FAILED);\n        }\n\n        uint endBalance = ERC20Interface(_asset).balanceOf(_wallet);\n        uint diff = startBalance - endBalance;\n        if (rewardsFor(_asset, _address) < diff) {\n            revert();\n        }\n\n        store.set(rewards,_asset,_address,store.get(rewards,_asset,_address) - diff);\n        store.set(rewardsLeft,_asset, store.get(rewardsLeft,_asset) - diff);\n\n        _emitWithdrawnReward(_asset, _address, _amount);\n        return OK;\n    }\n\n    /**\n     * Returns proven amount of shares possessed by a shareholder in a period.\n     *\n     * @param _address shareholder address.\n     * @param _period period.\n     *\n     * @return shares amount.\n     */\n    function depositBalanceInPeriod(address _address, uint _period) constant returns (uint) {\n        if(_period == lastPeriod()) {\n            return depositBalance(_address);\n        }\n        return store.get(shares,_period,_address);\n    }\n\n    /**\n     * Returns total proven amount of shares possessed by shareholders in a period.\n     *\n     * @param _period period.\n     *\n     * @return shares amount.\n     */\n    function totalDepositInPeriod(uint _period) constant returns(uint) {\n        if(_period == lastPeriod()) {\n            return store.get(totalSharesStorage);\n        }\n        return store.get(totalShares,_period);\n    }\n\n    /**\n     * Returns current active period.\n     *\n     * @return period.\n     */\n    function lastPeriod() constant returns(uint) {\n        return store.get(periods);\n    }\n\n    /**\n     * Returns last closed period.\n     *\n     * @dev throws in case if there is no closed periods yet.\n     *\n     * @return period.\n     */\n    function lastClosedPeriod() constant returns(uint) {\n        if (store.get(periods) == 0) {\n            return ERROR_REWARD_NOT_FOUND;\n        }\n        return store.get(periods) - 1;\n    }\n\n    /**\n     * Check if period is closed or not.\n     *\n     * @param _period period.\n     *\n     * @return period closing state.\n     */\n    function isClosed(uint _period) constant returns(bool) {\n        return store.get(closed,_period);\n    }\n\n    /**\n     * Returns amount of accumulated rewards assets in a period.\n     * Always 0 for active period.\n     *\n     * @param _assetAddress rewards asset contract address.\n     * @param _period period.\n     *\n     * @return assets amount.\n     */\n    function assetBalanceInPeriod(address _assetAddress, uint _period) constant returns(uint) {\n        return store.get(assetBalances,_period,_assetAddress);\n    }\n\n    /**\n     * Check if shareholder have calculated rewards in a period.\n     *\n     * @param _assetAddress rewards asset contract address.\n     * @param _address shareholder address.\n     * @param _period period.\n     *\n     * @return reward calculation state.\n     */\n    function isCalculatedFor(address _assetAddress, address _address, uint _period) constant returns(bool) {\n        return store.get(calculated,_period,_assetAddress,_address);\n    }\n\n    /**\n     * Returns accumulated asset rewards available for withdrawal for shareholder.\n     *\n     * @param _assetAddress rewards asset contract address.\n     * @param _address shareholder address.\n     *\n     * @return rewards amount.\n     */\n    function rewardsFor(address _assetAddress, address _address) constant returns(uint) {\n        return store.get(rewards, _assetAddress, _address);\n    }\n\n    // Even emitter util functions\n\n    function _emitWithdrawnReward(address asset, address addr, uint amount) {\n        Rewards(getEventsHistory()).emitWithdrawnReward(asset, addr, amount);\n    }\n\n    function _emitWithdrawn(address addr, uint amount, uint total) {\n        Rewards(getEventsHistory()).emitWithdrawn(addr, amount, total);\n    }\n\n    function _emitDepositStored(uint _part) {\n        Rewards(getEventsHistory()).emitDepositStored(_part);\n    }\n\n    function _emitAssetRegistered(address assetAddress) {\n        Rewards(getEventsHistory()).emitAssetRegistered(assetAddress);\n    }\n\n    function _emitPeriodClosed() {\n        Rewards(getEventsHistory()).emitPeriodClosed();\n    }\n\n    function _emitError(uint e) returns (uint) {\n        Rewards(getEventsHistory()).emitError(e);\n        return e;\n    }\n\n    function() {\n        revert();\n    }\n}\n",
  "sourcePath": "/Users/alesanro/Documents/Projects/ChronoBank/SmartContracts/contracts/reward/Rewards.sol",
  "compiler": {
    "name": "solc",
    "version": "0.4.21+commit.dfe3193c.Emscripten.clang"
  },
  "schemaVersion": "2.0.0",
  "updatedAt": "2018-04-06T09:20:58.810Z"
}