{
  "contractName": "RewardsEmitter",
  "abi": [
    {
      "anonymous": false,
      "inputs": [
        {
          "indexed": false,
          "name": "addr",
          "type": "address"
        },
        {
          "indexed": false,
          "name": "amount",
          "type": "uint256"
        },
        {
          "indexed": false,
          "name": "total",
          "type": "uint256"
        }
      ],
      "name": "WithdrawnSuccess",
      "type": "event"
    },
    {
      "anonymous": false,
      "inputs": [
        {
          "indexed": false,
          "name": "asset",
          "type": "address"
        },
        {
          "indexed": false,
          "name": "addr",
          "type": "address"
        },
        {
          "indexed": false,
          "name": "amountReward",
          "type": "uint256"
        }
      ],
      "name": "WithdrawnRewardSuccess",
      "type": "event"
    },
    {
      "anonymous": false,
      "inputs": [
        {
          "indexed": false,
          "name": "_part",
          "type": "uint256"
        }
      ],
      "name": "DepositStored",
      "type": "event"
    },
    {
      "anonymous": false,
      "inputs": [
        {
          "indexed": false,
          "name": "assetAddress",
          "type": "address"
        }
      ],
      "name": "AssetRegistered",
      "type": "event"
    },
    {
      "anonymous": false,
      "inputs": [],
      "name": "PeriodClosed",
      "type": "event"
    },
    {
      "anonymous": false,
      "inputs": [
        {
          "indexed": true,
          "name": "self",
          "type": "address"
        },
        {
          "indexed": false,
          "name": "errorCode",
          "type": "uint256"
        }
      ],
      "name": "Error",
      "type": "event"
    },
    {
      "constant": false,
      "inputs": [
        {
          "name": "asset",
          "type": "address"
        },
        {
          "name": "addr",
          "type": "address"
        },
        {
          "name": "amount",
          "type": "uint256"
        }
      ],
      "name": "emitWithdrawnReward",
      "outputs": [],
      "payable": false,
      "stateMutability": "nonpayable",
      "type": "function"
    },
    {
      "constant": false,
      "inputs": [
        {
          "name": "addr",
          "type": "address"
        },
        {
          "name": "amount",
          "type": "uint256"
        },
        {
          "name": "total",
          "type": "uint256"
        }
      ],
      "name": "emitWithdrawn",
      "outputs": [],
      "payable": false,
      "stateMutability": "nonpayable",
      "type": "function"
    },
    {
      "constant": false,
      "inputs": [],
      "name": "emitPeriodClosed",
      "outputs": [],
      "payable": false,
      "stateMutability": "nonpayable",
      "type": "function"
    },
    {
      "constant": false,
      "inputs": [
        {
          "name": "_part",
          "type": "uint256"
        }
      ],
      "name": "emitDepositStored",
      "outputs": [],
      "payable": false,
      "stateMutability": "nonpayable",
      "type": "function"
    },
    {
      "constant": false,
      "inputs": [
        {
          "name": "assetAddress",
          "type": "address"
        }
      ],
      "name": "emitAssetRegistered",
      "outputs": [],
      "payable": false,
      "stateMutability": "nonpayable",
      "type": "function"
    },
    {
      "constant": false,
      "inputs": [
        {
          "name": "error",
          "type": "uint256"
        }
      ],
      "name": "emitError",
      "outputs": [],
      "payable": false,
      "stateMutability": "nonpayable",
      "type": "function"
    }
  ],
  "bytecode": "0x6060604052341561000f57600080fd5b6102f78061001e6000396000f3006060604052600436106100775763ffffffff7c01000000000000000000000000000000000000000000000000000000006000350416631bbf65ef811461007c5780631bc24083146100a35780633752f49a146100b9578063b1a97052146100e1578063df26ca0814610100578063e29065d614610116575b600080fd5b341561008757600080fd5b6100a1600160a060020a0360043516602435604435610129565b005b34156100ae57600080fd5b6100a1600435610187565b34156100c457600080fd5b6100a1600160a060020a03600435811690602435166044356101bd565b34156100ec57600080fd5b6100a1600160a060020a0360043516610212565b341561010b57600080fd5b6100a1600435610252565b341561012157600080fd5b6100a1610299565b7f9733cd8dacd543098fb51634f576590185a97c05da7322f63548f68af37aa01c8383836040518084600160a060020a0316600160a060020a03168152602001838152602001828152602001935050505060405180910390a1505050565b7f8df23d404ca3f2bdd82171b596b4670e76c1657cda0edcde1e8f2e0b5acac6cd8160405190815260200160405180910390a150565b7f9e059fe0bc0d282ae325ba68777c9617b5c01b3a517ddb819f5e2c0de8e7a78a838383604051600160a060020a039384168152919092166020820152604080820192909252606001905180910390a1505050565b7f0700b0f4c19e631ed321192cfc0b71a83caa514675497afc74fe817d5f839dd581604051600160a060020a03909116815260200160405180910390a150565b61025a6102c7565b600160a060020a03167f9cf38cf2dbf9139f5c32639950507b10775fbbe0421f3e168bc2d1bb1ae3208c8260405190815260200160405180910390a250565b7f3a273a3330d1f4c56aa39bf2b3df76adde3fd94f62ce06e19d173e66af02fa6360405160405180910390a1565b33905600a165627a7a723058208e4c8b768ca1877549a3e628f2d217c9e8420e8f554bb3dcb184faa2773e63a50029",
  "source": "/**\n * Copyright 2017–2018, LaborX PTY\n * Licensed under the AGPL Version 3 license.\n */\n\npragma solidity ^0.4.11;\n\nimport '../core/event/MultiEventsHistoryAdapter.sol';\n\ncontract RewardsEmitter is MultiEventsHistoryAdapter {\n\n    event WithdrawnSuccess(address addr, uint amount, uint total);\n    event WithdrawnRewardSuccess(address asset, address addr, uint amountReward);\n    event DepositStored(uint _part);\n    event AssetRegistered(address assetAddress);\n    event PeriodClosed();\n    event Error(address indexed self, uint errorCode);\n\n    function emitWithdrawnReward(address asset, address addr, uint amount) {\n        WithdrawnRewardSuccess(asset, addr, amount);\n    }\n\n    function emitWithdrawn(address addr, uint amount, uint total) {\n        WithdrawnSuccess(addr, amount, total);\n    }\n\n    function emitPeriodClosed() {\n        PeriodClosed();\n    }\n\n    function emitDepositStored(uint _part) {\n        DepositStored(_part);\n    }\n\n    function emitAssetRegistered(address assetAddress) {\n        AssetRegistered(assetAddress);\n    }\n\n    function emitError(uint error) {\n        Error(_self(), error);\n    }\n}\n",
  "sourcePath": "/Users/mikefluff/Documents/Programming/Chronobank/test/SmartContracts/contracts/reward/RewardsEmitter.sol",
  "compiler": {
    "name": "solc",
    "version": "0.4.21+commit.dfe3193c.Emscripten.clang"
  },
  "schemaVersion": "2.0.0",
  "updatedAt": "2018-04-11T07:40:05.669Z"
}