{
  "contractName": "Rooted",
  "abi": [
    {
      "constant": false,
      "inputs": [],
      "name": "claimContractOwnership",
      "outputs": [
        {
          "name": "",
          "type": "bool"
        }
      ],
      "payable": false,
      "stateMutability": "nonpayable",
      "type": "function"
    },
    {
      "constant": false,
      "inputs": [
        {
          "name": "_to",
          "type": "address"
        }
      ],
      "name": "changeContractOwnership",
      "outputs": [
        {
          "name": "",
          "type": "bool"
        }
      ],
      "payable": false,
      "stateMutability": "nonpayable",
      "type": "function"
    },
    {
      "constant": true,
      "inputs": [],
      "name": "pendingContractOwner",
      "outputs": [
        {
          "name": "",
          "type": "address"
        }
      ],
      "payable": false,
      "stateMutability": "view",
      "type": "function"
    },
    {
      "constant": false,
      "inputs": [],
      "name": "destroy",
      "outputs": [],
      "payable": false,
      "stateMutability": "nonpayable",
      "type": "function"
    },
    {
      "constant": false,
      "inputs": [
        {
          "name": "_to",
          "type": "address"
        }
      ],
      "name": "transferContractOwnership",
      "outputs": [
        {
          "name": "",
          "type": "bool"
        }
      ],
      "payable": false,
      "stateMutability": "nonpayable",
      "type": "function"
    },
    {
      "constant": true,
      "inputs": [],
      "name": "contractOwner",
      "outputs": [
        {
          "name": "",
          "type": "address"
        }
      ],
      "payable": false,
      "stateMutability": "view",
      "type": "function"
    },
    {
      "constant": false,
      "inputs": [
        {
          "name": "tokens",
          "type": "address[]"
        },
        {
          "name": "_to",
          "type": "address"
        }
      ],
      "name": "withdrawnTokens",
      "outputs": [
        {
          "name": "",
          "type": "uint256"
        }
      ],
      "payable": false,
      "stateMutability": "nonpayable",
      "type": "function"
    },
    {
      "constant": false,
      "inputs": [
        {
          "name": "_to",
          "type": "address"
        },
        {
          "name": "_value",
          "type": "uint256"
        },
        {
          "name": "_data",
          "type": "bytes"
        }
      ],
      "name": "forwardCall",
      "outputs": [
        {
          "name": "",
          "type": "bool"
        }
      ],
      "payable": false,
      "stateMutability": "nonpayable",
      "type": "function"
    }
  ],
  "bytecode": "0x606060405260008054600160a060020a033316600160a060020a0319909116179055610598806100306000396000f3006060604052600436106100745763ffffffff60e060020a6000350416634592cd1d8114610079578063557f4bc9146100a05780635aa77d3c146100bf5780636effec50146100ee57806383197ef014610153578063a843c51f14610168578063ce606ee014610187578063d8f9659b1461019a575b600080fd5b341561008457600080fd5b61008c610206565b604051901515815260200160405180910390f35b34156100ab57600080fd5b61008c600160a060020a036004351661025e565b34156100ca57600080fd5b6100d26102bd565b604051600160a060020a03909116815260200160405180910390f35b34156100f957600080fd5b61008c60048035600160a060020a03169060248035919060649060443590810190830135806020601f820181900481020160405190810160405281815292919060208401838380828437509496506102cc95505050505050565b341561015e57600080fd5b610166610372565b005b341561017357600080fd5b61008c600160a060020a0360043516610397565b341561019257600080fd5b6100d2610428565b34156101a557600080fd5b6101f4600460248135818101908301358060208181020160405190810160405280939291908181526020018383602002808284375094965050509235600160a060020a03169250610437915050565b60405190815260200160405180910390f35b60015460009033600160a060020a039081169116146102275750600061025b565b50600180546000805473ffffffffffffffffffffffffffffffffffffffff19908116600160a060020a038416179091551681555b90565b6000805433600160a060020a03908116911614156102b857600160a060020a038216151561028e575060006102b8565b506001805473ffffffffffffffffffffffffffffffffffffffff1916600160a060020a0383161781555b919050565b600154600160a060020a031681565b6000805433600160a060020a039081169116141561036b5783600160a060020a0316838360405180828051906020019080838360005b8381101561031a578082015183820152602001610302565b50505050905090810190601f1680156103475780820380516001836020036101000a031916815260200191505b5091505060006040518083038185875af192505050151561036757600080fd5b5060015b9392505050565b60005433600160a060020a03908116911614156103955733600160a060020a0316ff5b565b6000805433600160a060020a03908116911614156102b857600160a060020a03821615156103c7575060006102b8565b600154600160a060020a0316156103f6576001805473ffffffffffffffffffffffffffffffffffffffff191690555b5060008054600160a060020a03831673ffffffffffffffffffffffffffffffffffffffff199091161790556001919050565b600054600160a060020a031681565b6000805481908190819033600160a060020a039081169116141561056357600092505b855183101561055e5785838151811061046f57fe5b90602001906020020151915081600160a060020a03166370a082313060405160e060020a63ffffffff8416028152600160a060020a039091166004820152602401602060405180830381600087803b15156104c957600080fd5b5af115156104d657600080fd5b505050604051805191505080156105535781600160a060020a031663a9059cbb868360405160e060020a63ffffffff8516028152600160a060020a0390921660048301526024820152604401602060405180830381600087803b151561053b57600080fd5b5af1151561054857600080fd5b505050604051805150505b60019092019161045a565b600193505b505050929150505600a165627a7a7230582032143c04d892324374a8942b979664f45c675d396a476e599c8dcae3c379bb9d0029",
  "source": "pragma solidity ^0.4.11;\n\nimport \"./Object.sol\";\n\n/**\n * @title Owned contract with arbitrary call forwarding.\n *\n * Allows an owner to perform any action by the name of this contract.\n *\n * Note: should not be used in contracts that must make calls not controlled by owner.\n */\ncontract Rooted is Object {\n    /**\n     * Perform an arbitrary call.\n     *\n     * Can only be called by contract owner.\n     * Throws if call forwarding failed.\n     *\n     * @param _to address to call to.\n     * @param _value wei value to pass with the call.\n     * @param _data bytes data to pass with the call.\n     *\n     * @return success.\n     */\n    function forwardCall(address _to, uint _value, bytes _data) onlyContractOwner() returns(bool) {\n        if (!_to.call.value(_value)(_data)) {\n            throw;\n        }\n        return true;\n    }\n}\n",
  "sourcePath": "/Users/alesanro/Documents/Projects/ChronoBank/SmartContracts/contracts/core/common/Rooted.sol",
  "compiler": {
    "name": "solc",
    "version": "0.4.21+commit.dfe3193c.Emscripten.clang"
  },
  "schemaVersion": "2.0.0",
  "updatedAt": "2018-04-06T09:20:58.342Z"
}