{
  "contractName": "Storage",
  "abi": [
    {
      "constant": false,
      "inputs": [],
      "name": "claimContractOwnership",
      "outputs": [
        {
          "name": "",
          "type": "bool"
        }
      ],
      "payable": false,
      "stateMutability": "nonpayable",
      "type": "function"
    },
    {
      "constant": true,
      "inputs": [],
      "name": "manager",
      "outputs": [
        {
          "name": "",
          "type": "address"
        }
      ],
      "payable": false,
      "stateMutability": "view",
      "type": "function"
    },
    {
      "constant": false,
      "inputs": [
        {
          "name": "_to",
          "type": "address"
        }
      ],
      "name": "changeContractOwnership",
      "outputs": [
        {
          "name": "",
          "type": "bool"
        }
      ],
      "payable": false,
      "stateMutability": "nonpayable",
      "type": "function"
    },
    {
      "constant": true,
      "inputs": [],
      "name": "pendingContractOwner",
      "outputs": [
        {
          "name": "",
          "type": "address"
        }
      ],
      "payable": false,
      "stateMutability": "view",
      "type": "function"
    },
    {
      "constant": false,
      "inputs": [],
      "name": "destroy",
      "outputs": [],
      "payable": false,
      "stateMutability": "nonpayable",
      "type": "function"
    },
    {
      "constant": false,
      "inputs": [
        {
          "name": "_to",
          "type": "address"
        }
      ],
      "name": "transferContractOwnership",
      "outputs": [
        {
          "name": "",
          "type": "bool"
        }
      ],
      "payable": false,
      "stateMutability": "nonpayable",
      "type": "function"
    },
    {
      "constant": true,
      "inputs": [],
      "name": "contractOwner",
      "outputs": [
        {
          "name": "",
          "type": "address"
        }
      ],
      "payable": false,
      "stateMutability": "view",
      "type": "function"
    },
    {
      "constant": false,
      "inputs": [
        {
          "name": "tokens",
          "type": "address[]"
        },
        {
          "name": "_to",
          "type": "address"
        }
      ],
      "name": "withdrawnTokens",
      "outputs": [
        {
          "name": "",
          "type": "uint256"
        }
      ],
      "payable": false,
      "stateMutability": "nonpayable",
      "type": "function"
    },
    {
      "constant": false,
      "inputs": [
        {
          "name": "_manager",
          "type": "address"
        }
      ],
      "name": "setManager",
      "outputs": [
        {
          "name": "",
          "type": "bool"
        }
      ],
      "payable": false,
      "stateMutability": "nonpayable",
      "type": "function"
    },
    {
      "constant": false,
      "inputs": [
        {
          "name": "_crate",
          "type": "bytes32"
        },
        {
          "name": "_key",
          "type": "bytes32"
        },
        {
          "name": "_value",
          "type": "uint256"
        }
      ],
      "name": "setUInt",
      "outputs": [],
      "payable": false,
      "stateMutability": "nonpayable",
      "type": "function"
    },
    {
      "constant": true,
      "inputs": [
        {
          "name": "_crate",
          "type": "bytes32"
        },
        {
          "name": "_key",
          "type": "bytes32"
        }
      ],
      "name": "getUInt",
      "outputs": [
        {
          "name": "",
          "type": "uint256"
        }
      ],
      "payable": false,
      "stateMutability": "view",
      "type": "function"
    },
    {
      "constant": false,
      "inputs": [
        {
          "name": "_crate",
          "type": "bytes32"
        },
        {
          "name": "_key",
          "type": "bytes32"
        },
        {
          "name": "_value",
          "type": "address"
        }
      ],
      "name": "setAddress",
      "outputs": [],
      "payable": false,
      "stateMutability": "nonpayable",
      "type": "function"
    },
    {
      "constant": true,
      "inputs": [
        {
          "name": "_crate",
          "type": "bytes32"
        },
        {
          "name": "_key",
          "type": "bytes32"
        }
      ],
      "name": "getAddress",
      "outputs": [
        {
          "name": "",
          "type": "address"
        }
      ],
      "payable": false,
      "stateMutability": "view",
      "type": "function"
    },
    {
      "constant": false,
      "inputs": [
        {
          "name": "_crate",
          "type": "bytes32"
        },
        {
          "name": "_key",
          "type": "bytes32"
        },
        {
          "name": "_value",
          "type": "bool"
        }
      ],
      "name": "setBool",
      "outputs": [],
      "payable": false,
      "stateMutability": "nonpayable",
      "type": "function"
    },
    {
      "constant": true,
      "inputs": [
        {
          "name": "_crate",
          "type": "bytes32"
        },
        {
          "name": "_key",
          "type": "bytes32"
        }
      ],
      "name": "getBool",
      "outputs": [
        {
          "name": "",
          "type": "bool"
        }
      ],
      "payable": false,
      "stateMutability": "view",
      "type": "function"
    },
    {
      "constant": false,
      "inputs": [
        {
          "name": "_crate",
          "type": "bytes32"
        },
        {
          "name": "_key",
          "type": "bytes32"
        },
        {
          "name": "_value",
          "type": "int256"
        }
      ],
      "name": "setInt",
      "outputs": [],
      "payable": false,
      "stateMutability": "nonpayable",
      "type": "function"
    },
    {
      "constant": true,
      "inputs": [
        {
          "name": "_crate",
          "type": "bytes32"
        },
        {
          "name": "_key",
          "type": "bytes32"
        }
      ],
      "name": "getInt",
      "outputs": [
        {
          "name": "",
          "type": "int256"
        }
      ],
      "payable": false,
      "stateMutability": "view",
      "type": "function"
    },
    {
      "constant": false,
      "inputs": [
        {
          "name": "_crate",
          "type": "bytes32"
        },
        {
          "name": "_key",
          "type": "bytes32"
        },
        {
          "name": "_value",
          "type": "bytes32"
        }
      ],
      "name": "setBytes32",
      "outputs": [],
      "payable": false,
      "stateMutability": "nonpayable",
      "type": "function"
    },
    {
      "constant": true,
      "inputs": [
        {
          "name": "_crate",
          "type": "bytes32"
        },
        {
          "name": "_key",
          "type": "bytes32"
        }
      ],
      "name": "getBytes32",
      "outputs": [
        {
          "name": "",
          "type": "bytes32"
        }
      ],
      "payable": false,
      "stateMutability": "view",
      "type": "function"
    }
  ],
  "bytecode": "0x606060405260008054600160a060020a033316600160a060020a0319909116179055610a8a806100306000396000f3006060604052600436106100ed5763ffffffff60e060020a600035041663061c880081146100f257806337d9d7fc146101105780634592cd1d1461013b578063481c6a751461016257806353aa3f5e1461019157806353e7168b146101aa578063557f4bc9146101c65780635aa77d3c146101e557806379a7cfee146101f857806383197ef01461021d57806398eaf11c14610230578063a14ff85714610249578063a6fbf3d214610265578063a843c51f1461027e578063ce606ee01461029d578063d0ebdbe7146102b0578063d3a39686146102cf578063d8f9659b146102e8578063f0f53ee414610342575b600080fd5b34156100fd57600080fd5b61010e600435602435604435610360565b005b341561011b57600080fd5b6101296004356024356103fb565b60405190815260200160405180910390f35b341561014657600080fd5b61014e61041c565b604051901515815260200160405180910390f35b341561016d57600080fd5b610175610474565b604051600160a060020a03909116815260200160405180910390f35b341561019c57600080fd5b610129600435602435610483565b34156101b557600080fd5b61010e6004356024356044356104a0565b34156101d157600080fd5b61014e600160a060020a0360043516610537565b34156101f057600080fd5b610175610596565b341561020357600080fd5b61010e600435602435600160a060020a03604435166105a5565b341561022857600080fd5b61010e610669565b341561023b57600080fd5b61014e60043560243561068e565b341561025457600080fd5b61010e6004356024356044356106b1565b341561027057600080fd5b61012960043560243561074c565b341561028957600080fd5b61014e600160a060020a036004351661076d565b34156102a857600080fd5b6101756107fe565b34156102bb57600080fd5b61014e600160a060020a036004351661080d565b34156102da57600080fd5b610175600435602435610857565b34156102f357600080fd5b610129600460248135818101908301358060208181020160405190810160405280939291908181526020018383602002808284375094965050509235600160a060020a03169250610881915050565b341561034d57600080fd5b61010e60043560243560443515156109b6565b6003548390600160a060020a0316635cb8dd09338360405160e060020a63ffffffff8516028152600160a060020a0390921660048301526024820152604401602060405180830381600087803b15156103b857600080fd5b5af115156103c557600080fd5b5050506040518051905015156103da57600080fd5b50600092835260026020908152604080852093855260039093019052912055565b60009182526002602090815260408084209284526004909201905290205490565b60015460009033600160a060020a0390811691161461043d57506000610471565b50600180546000805473ffffffffffffffffffffffffffffffffffffffff19908116600160a060020a038416179091551681555b90565b600354600160a060020a031681565b600091825260026020908152604080842092845291905290205490565b6003548390600160a060020a0316635cb8dd09338360405160e060020a63ffffffff8516028152600160a060020a0390921660048301526024820152604401602060405180830381600087803b15156104f857600080fd5b5af1151561050557600080fd5b50505060405180519050151561051a57600080fd5b506000928352600260209081526040808520938552929052912055565b6000805433600160a060020a039081169116141561059157600160a060020a038216151561056757506000610591565b506001805473ffffffffffffffffffffffffffffffffffffffff1916600160a060020a0383161781555b919050565b600154600160a060020a031681565b6003548390600160a060020a0316635cb8dd09338360405160e060020a63ffffffff8516028152600160a060020a0390921660048301526024820152604401602060405180830381600087803b15156105fd57600080fd5b5af1151561060a57600080fd5b50505060405180519050151561061f57600080fd5b506000928352600260209081526040808520938552600190930190529120805473ffffffffffffffffffffffffffffffffffffffff1916600160a060020a03909216919091179055565b60005433600160a060020a039081169116141561068c5733600160a060020a0316ff5b565b600091825260026020818152604080852093855292909101905290205460ff1690565b6003548390600160a060020a0316635cb8dd09338360405160e060020a63ffffffff8516028152600160a060020a0390921660048301526024820152604401602060405180830381600087803b151561070957600080fd5b5af1151561071657600080fd5b50505060405180519050151561072b57600080fd5b50600092835260026020908152604080852093855260049093019052912055565b60009182526002602090815260408084209284526003909201905290205490565b6000805433600160a060020a039081169116141561059157600160a060020a038216151561079d57506000610591565b600154600160a060020a0316156107cc576001805473ffffffffffffffffffffffffffffffffffffffff191690555b5060008054600160a060020a03831673ffffffffffffffffffffffffffffffffffffffff199091161790556001919050565b600054600160a060020a031681565b6000805433600160a060020a0390811691161415610591575060038054600160a060020a03831673ffffffffffffffffffffffffffffffffffffffff199091161790556001919050565b600091825260026020908152604080842092845260019092019052902054600160a060020a031690565b6000805481908190819033600160a060020a03908116911614156109ad57600092505b85518310156109a8578583815181106108b957fe5b90602001906020020151915081600160a060020a03166370a082313060405160e060020a63ffffffff8416028152600160a060020a039091166004820152602401602060405180830381600087803b151561091357600080fd5b5af1151561092057600080fd5b5050506040518051915050801561099d5781600160a060020a031663a9059cbb868360405160e060020a63ffffffff8516028152600160a060020a0390921660048301526024820152604401602060405180830381600087803b151561098557600080fd5b5af1151561099257600080fd5b505050604051805150505b6001909201916108a4565b600193505b50505092915050565b6003548390600160a060020a0316635cb8dd09338360405160e060020a63ffffffff8516028152600160a060020a0390921660048301526024820152604401602060405180830381600087803b1515610a0e57600080fd5b5af11515610a1b57600080fd5b505050604051805190501515610a3057600080fd5b5060009283526002602081815260408086209486529390910190529120805460ff19169115159190911790555600a165627a7a723058205dc3719b0b8fb13a000a01559c9fb64881ebf2173846a6b498be61986bf822bd0029",
  "source": "pragma solidity ^0.4.11;\n\nimport '../common/Object.sol';\n\ncontract Manager {\n    function isAllowed(address _actor, bytes32 _role) constant returns(bool);\n    function hasAccess(address _actor) constant returns(bool);\n}\n\ncontract Storage is Object {\n    struct Crate {\n        mapping(bytes32 => uint) uints;\n        mapping(bytes32 => address) addresses;\n        mapping(bytes32 => bool) bools;\n        mapping(bytes32 => int) ints;\n        mapping(bytes32 => bytes32) bytes32s;\n    }\n\n    mapping(bytes32 => Crate) crates;\n    Manager public manager;\n\n    modifier onlyAllowed(bytes32 _role) {\n        if (!manager.isAllowed(msg.sender, _role)) {\n            throw;\n        }\n        _;\n    }\n\n    function setManager(Manager _manager) onlyContractOwner() returns(bool) {\n        manager = _manager;\n        return true;\n    }\n\n    function setUInt(bytes32 _crate, bytes32 _key, uint _value) onlyAllowed(_crate) {\n        crates[_crate].uints[_key] = _value;\n    }\n\n    function getUInt(bytes32 _crate, bytes32 _key) constant returns(uint) {\n        return crates[_crate].uints[_key];\n    }\n\n    function setAddress(bytes32 _crate, bytes32 _key, address _value) onlyAllowed(_crate) {\n        crates[_crate].addresses[_key] = _value;\n    }\n\n    function getAddress(bytes32 _crate, bytes32 _key) constant returns(address) {\n        return crates[_crate].addresses[_key];\n    }\n\n    function setBool(bytes32 _crate, bytes32 _key, bool _value) onlyAllowed(_crate) {\n        crates[_crate].bools[_key] = _value;\n    }\n\n    function getBool(bytes32 _crate, bytes32 _key) constant returns(bool) {\n        return crates[_crate].bools[_key];\n    }\n\n    function setInt(bytes32 _crate, bytes32 _key, int _value) onlyAllowed(_crate) {\n        crates[_crate].ints[_key] = _value;\n    }\n\n    function getInt(bytes32 _crate, bytes32 _key) constant returns(int) {\n        return crates[_crate].ints[_key];\n    }\n\n    function setBytes32(bytes32 _crate, bytes32 _key, bytes32 _value) onlyAllowed(_crate) {\n        crates[_crate].bytes32s[_key] = _value;\n    }\n\n    function getBytes32(bytes32 _crate, bytes32 _key) constant returns(bytes32) {\n        return crates[_crate].bytes32s[_key];\n    }\n}\n",
  "sourcePath": "/Users/alesanro/Documents/Projects/ChronoBank/SmartContracts/contracts/core/storage/Storage.sol",
  "compiler": {
    "name": "solc",
    "version": "0.4.21+commit.dfe3193c.Emscripten.clang"
  },
  "schemaVersion": "2.0.0",
  "updatedAt": "2018-04-06T09:24:02.433Z"
}