{
  "contractName": "TimeHolder",
  "abi": [
    {
      "constant": false,
      "inputs": [
        {
          "name": "_token",
          "type": "address"
        },
        {
          "name": "_listener",
          "type": "address"
        }
      ],
      "name": "addListener",
      "outputs": [],
      "payable": false,
      "stateMutability": "nonpayable",
      "type": "function"
    },
    {
      "constant": true,
      "inputs": [
        {
          "name": "_token",
          "type": "address"
        },
        {
          "name": "_depositor",
          "type": "address"
        }
      ],
      "name": "getDepositBalance",
      "outputs": [
        {
          "name": "_balance",
          "type": "uint256"
        }
      ],
      "payable": false,
      "stateMutability": "view",
      "type": "function"
    },
    {
      "constant": false,
      "inputs": [
        {
          "name": "_from",
          "type": "address"
        },
        {
          "name": "_token",
          "type": "address"
        },
        {
          "name": "_amount",
          "type": "uint256"
        },
        {
          "name": "_to",
          "type": "address"
        }
      ],
      "name": "forceWithdrawShares",
      "outputs": [
        {
          "name": "resultCode",
          "type": "uint256"
        }
      ],
      "payable": false,
      "stateMutability": "nonpayable",
      "type": "function"
    },
    {
      "constant": false,
      "inputs": [
        {
          "name": "_token",
          "type": "address"
        },
        {
          "name": "_listener",
          "type": "address"
        }
      ],
      "name": "removeListener",
      "outputs": [],
      "payable": false,
      "stateMutability": "nonpayable",
      "type": "function"
    },
    {
      "constant": true,
      "inputs": [],
      "name": "defaultShareholdersCount",
      "outputs": [
        {
          "name": "",
          "type": "uint256"
        }
      ],
      "payable": false,
      "stateMutability": "view",
      "type": "function"
    },
    {
      "constant": false,
      "inputs": [
        {
          "name": "_contractsManager",
          "type": "address"
        },
        {
          "name": "_defaultToken",
          "type": "address"
        },
        {
          "name": "_wallet",
          "type": "address"
        },
        {
          "name": "_feeWallet",
          "type": "address"
        },
        {
          "name": "_erc20DepositStorage",
          "type": "address"
        }
      ],
      "name": "init",
      "outputs": [
        {
          "name": "",
          "type": "uint256"
        }
      ],
      "payable": false,
      "stateMutability": "nonpayable",
      "type": "function"
    },
    {
      "constant": false,
      "inputs": [],
      "name": "claimContractOwnership",
      "outputs": [
        {
          "name": "",
          "type": "bool"
        }
      ],
      "payable": false,
      "stateMutability": "nonpayable",
      "type": "function"
    },
    {
      "constant": false,
      "inputs": [
        {
          "name": "_token",
          "type": "address"
        },
        {
          "name": "_amount",
          "type": "uint256"
        }
      ],
      "name": "deposit",
      "outputs": [
        {
          "name": "",
          "type": "uint256"
        }
      ],
      "payable": false,
      "stateMutability": "nonpayable",
      "type": "function"
    },
    {
      "constant": true,
      "inputs": [
        {
          "name": "_identifier",
          "type": "bytes32"
        }
      ],
      "name": "lookupManager",
      "outputs": [
        {
          "name": "manager",
          "type": "address"
        }
      ],
      "payable": false,
      "stateMutability": "view",
      "type": "function"
    },
    {
      "constant": true,
      "inputs": [],
      "name": "wallet",
      "outputs": [
        {
          "name": "",
          "type": "address"
        }
      ],
      "payable": false,
      "stateMutability": "view",
      "type": "function"
    },
    {
      "constant": true,
      "inputs": [],
      "name": "contractsManager",
      "outputs": [
        {
          "name": "",
          "type": "address"
        }
      ],
      "payable": false,
      "stateMutability": "view",
      "type": "function"
    },
    {
      "constant": false,
      "inputs": [
        {
          "name": "listener",
          "type": "address"
        },
        {
          "name": "token",
          "type": "address"
        }
      ],
      "name": "emitListenerAdded",
      "outputs": [],
      "payable": false,
      "stateMutability": "nonpayable",
      "type": "function"
    },
    {
      "constant": false,
      "inputs": [
        {
          "name": "_to",
          "type": "address"
        }
      ],
      "name": "changeContractOwnership",
      "outputs": [
        {
          "name": "",
          "type": "bool"
        }
      ],
      "payable": false,
      "stateMutability": "nonpayable",
      "type": "function"
    },
    {
      "constant": false,
      "inputs": [
        {
          "name": "_whitelist",
          "type": "address[]"
        },
        {
          "name": "_limits",
          "type": "uint256[]"
        }
      ],
      "name": "allowShares",
      "outputs": [],
      "payable": false,
      "stateMutability": "nonpayable",
      "type": "function"
    },
    {
      "constant": true,
      "inputs": [],
      "name": "pendingContractOwner",
      "outputs": [
        {
          "name": "",
          "type": "address"
        }
      ],
      "payable": false,
      "stateMutability": "view",
      "type": "function"
    },
    {
      "constant": false,
      "inputs": [
        {
          "name": "_blacklist",
          "type": "address[]"
        }
      ],
      "name": "denyShares",
      "outputs": [],
      "payable": false,
      "stateMutability": "nonpayable",
      "type": "function"
    },
    {
      "constant": false,
      "inputs": [
        {
          "name": "_eventsHistory",
          "type": "address"
        }
      ],
      "name": "setEventsHistory",
      "outputs": [],
      "payable": false,
      "stateMutability": "nonpayable",
      "type": "function"
    },
    {
      "constant": true,
      "inputs": [
        {
          "name": "_token",
          "type": "address"
        }
      ],
      "name": "getLimitForToken",
      "outputs": [
        {
          "name": "",
          "type": "uint256"
        }
      ],
      "payable": false,
      "stateMutability": "view",
      "type": "function"
    },
    {
      "constant": true,
      "inputs": [
        {
          "name": "_token",
          "type": "address"
        }
      ],
      "name": "shareholdersCount",
      "outputs": [
        {
          "name": "",
          "type": "uint256"
        }
      ],
      "payable": false,
      "stateMutability": "view",
      "type": "function"
    },
    {
      "constant": false,
      "inputs": [
        {
          "name": "_contractsManager",
          "type": "address"
        }
      ],
      "name": "setContractsManager",
      "outputs": [],
      "payable": false,
      "stateMutability": "nonpayable",
      "type": "function"
    },
    {
      "constant": false,
      "inputs": [
        {
          "name": "token",
          "type": "address"
        },
        {
          "name": "who",
          "type": "address"
        },
        {
          "name": "amount",
          "type": "uint256"
        },
        {
          "name": "receiver",
          "type": "address"
        }
      ],
      "name": "emitWithdrawShares",
      "outputs": [],
      "payable": false,
      "stateMutability": "nonpayable",
      "type": "function"
    },
    {
      "constant": false,
      "inputs": [],
      "name": "destroy",
      "outputs": [],
      "payable": false,
      "stateMutability": "nonpayable",
      "type": "function"
    },
    {
      "constant": false,
      "inputs": [
        {
          "name": "token",
          "type": "address"
        },
        {
          "name": "who",
          "type": "address"
        },
        {
          "name": "amount",
          "type": "uint256"
        }
      ],
      "name": "emitDeposit",
      "outputs": [],
      "payable": false,
      "stateMutability": "nonpayable",
      "type": "function"
    },
    {
      "constant": false,
      "inputs": [
        {
          "name": "_feeWallet",
          "type": "address"
        }
      ],
      "name": "setFeeWallet",
      "outputs": [],
      "payable": false,
      "stateMutability": "nonpayable",
      "type": "function"
    },
    {
      "constant": true,
      "inputs": [
        {
          "name": "_depositor",
          "type": "address"
        }
      ],
      "name": "depositBalance",
      "outputs": [
        {
          "name": "",
          "type": "uint256"
        }
      ],
      "payable": false,
      "stateMutability": "view",
      "type": "function"
    },
    {
      "constant": false,
      "inputs": [
        {
          "name": "_from",
          "type": "address"
        },
        {
          "name": "_to",
          "type": "address"
        },
        {
          "name": "_amount",
          "type": "uint256"
        }
      ],
      "name": "emitFeatureFeeTaken",
      "outputs": [],
      "payable": false,
      "stateMutability": "nonpayable",
      "type": "function"
    },
    {
      "constant": false,
      "inputs": [
        {
          "name": "listener",
          "type": "address"
        },
        {
          "name": "token",
          "type": "address"
        }
      ],
      "name": "emitListenerRemoved",
      "outputs": [],
      "payable": false,
      "stateMutability": "nonpayable",
      "type": "function"
    },
    {
      "constant": true,
      "inputs": [],
      "name": "getDefaultShares",
      "outputs": [
        {
          "name": "",
          "type": "address"
        }
      ],
      "payable": false,
      "stateMutability": "view",
      "type": "function"
    },
    {
      "constant": false,
      "inputs": [
        {
          "name": "_to",
          "type": "address"
        }
      ],
      "name": "transferContractOwnership",
      "outputs": [
        {
          "name": "",
          "type": "bool"
        }
      ],
      "payable": false,
      "stateMutability": "nonpayable",
      "type": "function"
    },
    {
      "constant": false,
      "inputs": [
        {
          "name": "_token",
          "type": "address"
        },
        {
          "name": "_amount",
          "type": "uint256"
        }
      ],
      "name": "withdrawShares",
      "outputs": [
        {
          "name": "resultCode",
          "type": "uint256"
        }
      ],
      "payable": false,
      "stateMutability": "nonpayable",
      "type": "function"
    },
    {
      "constant": false,
      "inputs": [
        {
          "name": "_token",
          "type": "address"
        },
        {
          "name": "_target",
          "type": "address"
        },
        {
          "name": "_amount",
          "type": "uint256"
        }
      ],
      "name": "depositFor",
      "outputs": [
        {
          "name": "",
          "type": "uint256"
        }
      ],
      "payable": false,
      "stateMutability": "nonpayable",
      "type": "function"
    },
    {
      "constant": true,
      "inputs": [
        {
          "name": "_token",
          "type": "address"
        }
      ],
      "name": "totalShares",
      "outputs": [
        {
          "name": "",
          "type": "uint256"
        }
      ],
      "payable": false,
      "stateMutability": "view",
      "type": "function"
    },
    {
      "constant": true,
      "inputs": [],
      "name": "contractOwner",
      "outputs": [
        {
          "name": "",
          "type": "address"
        }
      ],
      "payable": false,
      "stateMutability": "view",
      "type": "function"
    },
    {
      "constant": false,
      "inputs": [
        {
          "name": "tokens",
          "type": "address[]"
        },
        {
          "name": "_to",
          "type": "address"
        }
      ],
      "name": "withdrawnTokens",
      "outputs": [
        {
          "name": "",
          "type": "uint256"
        }
      ],
      "payable": false,
      "stateMutability": "nonpayable",
      "type": "function"
    },
    {
      "constant": false,
      "inputs": [
        {
          "name": "error",
          "type": "uint256"
        }
      ],
      "name": "emitError",
      "outputs": [],
      "payable": false,
      "stateMutability": "nonpayable",
      "type": "function"
    },
    {
      "constant": false,
      "inputs": [
        {
          "name": "token",
          "type": "address"
        },
        {
          "name": "limit",
          "type": "uint256"
        },
        {
          "name": "isAdded",
          "type": "bool"
        }
      ],
      "name": "emitSharesWhiteListChanged",
      "outputs": [],
      "payable": false,
      "stateMutability": "nonpayable",
      "type": "function"
    },
    {
      "constant": false,
      "inputs": [
        {
          "name": "_account",
          "type": "address"
        },
        {
          "name": "_amount",
          "type": "uint256"
        }
      ],
      "name": "takeFeatureFee",
      "outputs": [
        {
          "name": "resultCode",
          "type": "uint256"
        }
      ],
      "payable": false,
      "stateMutability": "nonpayable",
      "type": "function"
    },
    {
      "constant": true,
      "inputs": [],
      "name": "feeWallet",
      "outputs": [
        {
          "name": "",
          "type": "address"
        }
      ],
      "payable": false,
      "stateMutability": "view",
      "type": "function"
    },
    {
      "constant": true,
      "inputs": [
        {
          "name": "key",
          "type": "address"
        }
      ],
      "name": "isAuthorized",
      "outputs": [
        {
          "name": "",
          "type": "bool"
        }
      ],
      "payable": false,
      "stateMutability": "view",
      "type": "function"
    },
    {
      "constant": true,
      "inputs": [],
      "name": "getEventsHistory",
      "outputs": [
        {
          "name": "",
          "type": "address"
        }
      ],
      "payable": false,
      "stateMutability": "view",
      "type": "function"
    },
    {
      "inputs": [
        {
          "name": "_store",
          "type": "address"
        },
        {
          "name": "_crate",
          "type": "bytes32"
        }
      ],
      "payable": false,
      "stateMutability": "nonpayable",
      "type": "constructor"
    },
    {
      "anonymous": false,
      "inputs": [
        {
          "indexed": false,
          "name": "token",
          "type": "address"
        },
        {
          "indexed": false,
          "name": "who",
          "type": "address"
        },
        {
          "indexed": false,
          "name": "amount",
          "type": "uint256"
        }
      ],
      "name": "Deposit",
      "type": "event"
    },
    {
      "anonymous": false,
      "inputs": [
        {
          "indexed": false,
          "name": "token",
          "type": "address"
        },
        {
          "indexed": false,
          "name": "who",
          "type": "address"
        },
        {
          "indexed": false,
          "name": "amount",
          "type": "uint256"
        },
        {
          "indexed": false,
          "name": "receiver",
          "type": "address"
        }
      ],
      "name": "WithdrawShares",
      "type": "event"
    },
    {
      "anonymous": false,
      "inputs": [
        {
          "indexed": false,
          "name": "listener",
          "type": "address"
        },
        {
          "indexed": false,
          "name": "token",
          "type": "address"
        }
      ],
      "name": "ListenerAdded",
      "type": "event"
    },
    {
      "anonymous": false,
      "inputs": [
        {
          "indexed": false,
          "name": "listener",
          "type": "address"
        },
        {
          "indexed": false,
          "name": "token",
          "type": "address"
        }
      ],
      "name": "ListenerRemoved",
      "type": "event"
    },
    {
      "anonymous": false,
      "inputs": [
        {
          "indexed": false,
          "name": "token",
          "type": "address"
        }
      ],
      "name": "SharesWhiteListAdded",
      "type": "event"
    },
    {
      "anonymous": false,
      "inputs": [
        {
          "indexed": false,
          "name": "token",
          "type": "address"
        },
        {
          "indexed": false,
          "name": "limit",
          "type": "uint256"
        },
        {
          "indexed": true,
          "name": "isAdded",
          "type": "bool"
        }
      ],
      "name": "SharesWhiteListChanged",
      "type": "event"
    },
    {
      "anonymous": false,
      "inputs": [
        {
          "indexed": false,
          "name": "self",
          "type": "address"
        },
        {
          "indexed": true,
          "name": "from",
          "type": "address"
        },
        {
          "indexed": true,
          "name": "to",
          "type": "address"
        },
        {
          "indexed": false,
          "name": "amount",
          "type": "uint256"
        }
      ],
      "name": "FeatureFeeTaken",
      "type": "event"
    },
    {
      "anonymous": false,
      "inputs": [
        {
          "indexed": true,
          "name": "self",
          "type": "address"
        },
        {
          "indexed": false,
          "name": "errorCode",
          "type": "uint256"
        }
      ],
      "name": "Error",
      "type": "event"
    }
  ],
  "bytecode": "0x606060405234156200001057600080fd5b60405160408062003434833981016040528080519190602001805191508290508181818181620000516000838364010000000062002bbd620001f582021704565b505060028054600160a060020a03338116600160a060020a03199283161790925560058054309093169290911691909117905550620000c69250600691507f736861726573436f6e74726163747353746f726167655f763200000000000000905064010000000062002be36200021b82021704565b6200010160097f6c696d6974416d6f756e747353746f726167655f76320000000000000000000064010000000062002bed6200023982021704565b6200013c600a7f6c697374656e6572735f7632000000000000000000000000000000000000000064010000000062002bf76200025382021704565b62000177600f7f74696d65486f6c64657257616c6c657453746f7261676500000000000000000064010000000062002c016200026d82021704565b620001b260107f74696d65486f6c64657246656557616c6c657453746f7261676500000000000064010000000062002c016200026d82021704565b620001ed60117f65726332304465706f73697453746f726167650000000000000000000000000064010000000062002c016200026d82021704565b505062000589565b8254600160a060020a031916600160a060020a0392909216919091178255600190910155565b62000235828264010000000062002c116200028d82021704565b5050565b62000235828264010000000062002c016200026d82021704565b62000235828264010000000062002ce66200039882021704565b815462000289908264010000000062002cf0620003b282021704565b9055565b620002e482826040519081527f636f756e74000000000000000000000000000000000000000000000000000000602082015260250160405180910390206200026d6401000000000262002c01176401000000009004565b6200033e82600101826040519081527f696e646578657300000000000000000000000000000000000000000000000000602082015260270160405180910390206200026d6401000000000262002c01176401000000009004565b6200023582600201826040519081527f76616c7565730000000000000000000000000000000000000000000000000000602082015260260160405180910390206200026d6401000000000262002c01176401000000009004565b62000235828264010000000062002d12620003ca82021704565b81151580620003bf575080155b156200023557600080fd5b6200042182826040519081527f75696e742f636f756e74000000000000000000000000000000000000000000006020820152602a0160405180910390206200026d6401000000000262002c01176401000000009004565b6200047b82600101826040519081527f75696e742f6669727374000000000000000000000000000000000000000000006020820152602a0160405180910390206200026d6401000000000262002c01176401000000009004565b620004d582600201826040519081527f75696e742f6c6173740000000000000000000000000000000000000000000000602082015260290160405180910390206200026d6401000000000262002c01176401000000009004565b6200052f82600301826040519081527f75696e742f6e6578740000000000000000000000000000000000000000000000602082015260290160405180910390206200026d6401000000000262002c01176401000000009004565b6200023582600401826040519081527f75696e742f707265760000000000000000000000000000000000000000000000602082015260290160405180910390206200026d6401000000000262002c01176401000000009004565b612e9b80620005996000396000f3006060604052600436106101d45763ffffffff60e060020a600035041663024c419981146101d95780630ae112a4146102005780631da02f30146102375780632aa852b3146102665780633253fcc81461028b578063359ef75b1461029e5780634592cd1d146102d557806347e7ef24146102fc5780634fe590121461031e578063521eb2731461035057806353253d3114610363578063544a648714610376578063557f4bc91461039b5780635882a548146103ba5780635aa77d3c146103e45780635d1be4ac146103f75780636521afd7146104155780636680d8c1146104345780636ab3c7001461045357806371d3b57314610472578063728994e71461049157806383197ef0146104c05780638b7711b4146104d357806390d49b9d146104fb578063956501bb1461051a5780639826ad6914610539578063a191d16714610561578063a4d4f0d214610586578063a843c51f14610599578063a92ec968146105b8578063b3db428b146105da578063bf6b874e14610602578063ce606ee014610621578063d8f9659b14610634578063df26ca081461068e578063e9112e9a146106a4578063eca87918146106cb578063f25f4b56146106ed578063fe9fbb8014610700578063fff10aba1461071f575b600080fd5b34156101e457600080fd5b6101fe600160a060020a0360043581169060243516610732565b005b341561020b57600080fd5b610225600160a060020a0360043581169060243516610795565b60405190815260200160405180910390f35b341561024257600080fd5b610225600160a060020a036004358116906024358116906044359060643516610820565b341561027157600080fd5b6101fe600160a060020a0360043581169060243516610885565b341561029657600080fd5b6102256108e2565b34156102a957600080fd5b610225600160a060020a0360043581169060243581169060443581169060643581169060843516610969565b34156102e057600080fd5b6102e8610af2565b604051901515815260200160405180910390f35b341561030757600080fd5b610225600160a060020a0360043516602435610b3e565b341561032957600080fd5b610334600435610b52565b604051600160a060020a03909116815260200160405180910390f35b341561035b57600080fd5b610334610bdb565b341561036e57600080fd5b610334610bf3565b341561038157600080fd5b6101fe600160a060020a0360043581169060243516610c02565b34156103a657600080fd5b6102e8600160a060020a0360043516610c4c565b34156103c557600080fd5b6101fe6024600480358281019290820135918135918201910135610ca3565b34156103ef57600080fd5b610334610e32565b341561040257600080fd5b6101fe6004803560248101910135610e41565b341561042057600080fd5b6101fe600160a060020a0360043516610ef3565b341561043f57600080fd5b610225600160a060020a0360043516610f29565b341561045e57600080fd5b610225600160a060020a0360043516610f3d565b341561047d57600080fd5b6101fe600160a060020a0360043516610fbd565b341561049c57600080fd5b6101fe600160a060020a036004358116906024358116906044359060643516610ff4565b34156104cb57600080fd5b6101fe611052565b34156104de57600080fd5b6101fe600160a060020a03600435811690602435166044356110e8565b341561050657600080fd5b6101fe600160a060020a036004351661113d565b341561052557600080fd5b610225600160a060020a036004351661115e565b341561054457600080fd5b6101fe600160a060020a0360043581169060243516604435611171565b341561056c57600080fd5b6101fe600160a060020a03600435811690602435166111d5565b341561059157600080fd5b61033461121f565b34156105a457600080fd5b6102e8600160a060020a036004351661126e565b34156105c357600080fd5b610225600160a060020a03600435166024356112e7565b34156105e557600080fd5b610225600160a060020a036004358116906024351660443561131b565b341561060d57600080fd5b610225600160a060020a03600435166114c9565b341561062c57600080fd5b610334611529565b341561063f57600080fd5b610225600460248135818101908301358060208181020160405190810160405280939291908181526020018383602002808284375094965050509235600160a060020a03169250611538915050565b341561069957600080fd5b6101fe600435611689565b34156106af57600080fd5b6101fe600160a060020a036004351660243560443515156116d0565b34156106d657600080fd5b610225600160a060020a036004351660243561171c565b34156106f857600080fd5b6103346117d3565b341561070b57600080fd5b6102e8600160a060020a03600435166117e6565b341561072a57600080fd5b61033461188c565b61073b336117e6565b1561079157600160a060020a038216151561075557600080fd5b600160a060020a038116151561076a57600080fd5b6107876000600a600160a060020a0385168463ffffffff61189b16565b61079181836118b6565b5050565b600061079f61192b565b600160a060020a0316630e7ae6a2848460006040516020015260405160e060020a63ffffffff8516028152600160a060020a03928316600482015291166024820152604401602060405180830381600087803b15156107fd57600080fd5b6102c65a03f1151561080e57600080fd5b50505060405180519150505b92915050565b600061082b336117e6565b1561087d5761083861193e565b9050600181146108525761084b81611a76565b905061087d565b61085e84868486611adf565b9050600181146108715761084b81611a76565b61087d84868585611c43565b949350505050565b61088e336117e6565b15610791576108b06000600a600160a060020a0385168463ffffffff611ccd16565b15156108bb57600080fd5b6108d86000600a600160a060020a0385168463ffffffff611ce416565b6107918183611cf9565b60006108ec61192b565b600160a060020a0316636ab3c70061090261121f565b60006040516020015260405160e060020a63ffffffff8416028152600160a060020a039091166004820152602401602060405180830381600087803b151561094957600080fd5b6102c65a03f1151561095a57600080fd5b50505060405180519150505b90565b60025460009033600160a060020a0390811691161415610ae957600160a060020a038516151561099857600080fd5b600160a060020a03841615156109ad57600080fd5b600160a060020a03831615156109c257600080fd5b600160a060020a03821615156109d757600080fd5b610a01867f54696d65486f6c64657200000000000000000000000000000000000000000000611d56565b50610a156000600f8663ffffffff611f4716565b610a28600060108563ffffffff611f4716565b610a3b600060118463ffffffff611f4716565b610a4e600060068763ffffffff611fc116565b610a8260006009877f800000000000000000000000000000000000000000000000000000000000000063ffffffff611fd516565b81600160a060020a0316630a57ce3b8660405160e060020a63ffffffff8416028152600160a060020a039091166004820152602401600060405180830381600087803b1515610ad057600080fd5b6102c65a03f11515610ae157600080fd5b505050600190505b95945050505050565b60035460009033600160a060020a03908116911614610b1357506000610966565b506003805460028054600160a060020a0319908116600160a060020a03841617909155169055600190565b6000610b4b83338461131b565b9392505050565b600454600090600160a060020a031663bc65792783836040516020015260405160e060020a63ffffffff84160281526004810191909152602401602060405180830381600087803b1515610ba557600080fd5b6102c65a03f11515610bb657600080fd5b5050506040518051915050600160a060020a0381161515610bd657600080fd5b919050565b6000610bee81600f63ffffffff611fea16565b905090565b600454600160a060020a031681565b7ff8748b040716bebd0fc7631bc2fa3905219c951c1754ad6eecf1606b380f6e308282604051600160a060020a039283168152911660208201526040908101905180910390a15050565b60025460009033600160a060020a0390811691161415610bd657600160a060020a0382161515610c7e57506000610bd6565b5060038054600160a060020a038316600160a060020a03199091161790556001919050565b600080610caf336117e6565b15610e2a57848314610cc057600080fd5b610cc8612049565b9150600090505b84811015610e2a57600160a060020a038216639ed4fa5a878784818110610cf257fe5b90506020020135600160a060020a031660006040516020015260405160e060020a63ffffffff8416028152600160a060020a039091166004820152602401602060405180830381600087803b1515610d4957600080fd5b6102c65a03f11515610d5a57600080fd5b505050604051805190501515610d6f57600080fd5b610da16006878784818110610d8057fe5b90506020020135600160a060020a03166000611fc19092919063ffffffff16565b610de96009878784818110610db257fe5b90506020020135600160a060020a03168686858181101515610dd057fe5b905060200201356000611fd5909392919063ffffffff16565b610e22868683818110610df857fe5b90506020020135600160a060020a03168585848181101515610e1657fe5b90506020020135612074565b600101610ccf565b505050505050565b600354600160a060020a031681565b6000610e4c336117e6565b15610eee575060005b81811015610eee57610e8f6006848484818110610e6e57fe5b90506020020135600160a060020a031660006120db9092919063ffffffff16565b610ec26009848484818110610ea057fe5b60009392600160a060020a03602090920201351690508263ffffffff611fd516565b610ee6838383818110610ed157fe5b90506020020135600160a060020a03166120ef565b600101610e55565b505050565b60025433600160a060020a0390811691161415610f265760058054600160a060020a031916600160a060020a0383161790555b50565b600061081a8160098463ffffffff61216716565b6000610f4761192b565b600160a060020a0316636ab3c7008360006040516020015260405160e060020a63ffffffff8416028152600160a060020a039091166004820152602401602060405180830381600087803b1515610f9d57600080fd5b6102c65a03f11515610fae57600080fd5b50505060405180519392505050565b60025433600160a060020a0390811691161415610f265760048054600160a060020a038316600160a060020a031990911617905550565b7f144845eeb484e3f074766eb65a15afd2889f6c747d90354396914e8365c6985a84848484604051600160a060020a03948516815292841660208401526040808401929092529092166060820152608001905180910390a150505050565b60025433600160a060020a03908116911614156110e657600454600160a060020a031663c375c2ef3060006040516020015260405160e060020a63ffffffff8416028152600160a060020a039091166004820152602401602060405180830381600087803b15156110c257600080fd5b6102c65a03f115156110d357600080fd5b50505060405180519050506110e661217d565b565b7f5548c837ab068cf56a2c2479df0882a4922fd203edb7517321831d95078c5f62838383604051600160a060020a039384168152919092166020820152604080820192909252606001905180910390a1505050565b611146336117e6565b15610f2657610f26600060108363ffffffff611f4716565b600061081a61116b61121f565b83610795565b81600160a060020a031683600160a060020a03167f2943030ec8237acc21c9f7b88449db73d4b0f8e1c64675fa50b58844c9fb69ec6111ae6121a0565b84604051600160a060020a03909216825260208201526040908101905180910390a3505050565b7fec2210f07d90c7950ab3623fc89a4ccb3328f38c81cc33d1c4a5f47fb4d8bad58282604051600160a060020a039283168152911660208201526040908101905180910390a15050565b600061122961192b565b600160a060020a031663c61f44b86000604051602001526040518163ffffffff1660e060020a028152600401602060405180830381600087803b151561094957600080fd5b60025460009033600160a060020a0390811691161415610bd657600160a060020a03821615156112a057506000610bd6565b600354600160a060020a0316156112c25760038054600160a060020a03191690555b5060028054600160a060020a038316600160a060020a03199091161790556001919050565b60006112f583333385611adf565b90506001811461130f5761130881611a76565b905061081a565b61081a83338433611c43565b6000836113308260068363ffffffff6121a416565b156114c157600160a060020a038516151561134a57600080fd5b61135d600060068763ffffffff6121a416565b151561136857600080fd5b61137185610f29565b83111561138a57611383612ee7611a76565b91506114c1565b611392610bdb565b600160a060020a0316638340f54986338660006040516020015260405160e060020a63ffffffff8616028152600160a060020a0393841660048201529190921660248201526044810191909152606401602060405180830381600087803b15156113fb57600080fd5b6102c65a03f1151561140c57600080fd5b50505060405180519050151561142757611383612ee3611a76565b61142f61192b565b600160a060020a031663b3db428b86868660405160e060020a63ffffffff8616028152600160a060020a0393841660048201529190921660248201526044810191909152606401600060405180830381600087803b151561148f57600080fd5b6102c65a03f115156114a057600080fd5b5050506114b18585856121ba61223c565b6114bc8585856122c1565b600191505b509392505050565b60006114d361192b565b600160a060020a031663bf6b874e8360006040516020015260405160e060020a63ffffffff8416028152600160a060020a039091166004820152602401602060405180830381600087803b1515610f9d57600080fd5b600254600160a060020a031681565b60025460009081908190819033600160a060020a039081169116141561168057600092505b855183101561167b5785838151811061157257fe5b90602001906020020151915081600160a060020a03166370a082313060006040516020015260405160e060020a63ffffffff8416028152600160a060020a039091166004820152602401602060405180830381600087803b15156115d557600080fd5b6102c65a03f115156115e657600080fd5b505050604051805191505080156116705781600160a060020a031663a9059cbb868360006040516020015260405160e060020a63ffffffff8516028152600160a060020a0390921660048301526024820152604401602060405180830381600087803b151561165457600080fd5b6102c65a03f1151561166557600080fd5b505050604051805150505b60019092019161155d565b600193505b50505092915050565b6116916121a0565b600160a060020a03167f9cf38cf2dbf9139f5c32639950507b10775fbbe0421f3e168bc2d1bb1ae3208c8260405190815260200160405180910390a250565b8015157f360225f74eacd06eefedf821b89c21c7c975b645503e5198c6a60a62f84e302b8484604051600160a060020a03909216825260208201526040908101905180910390a2505050565b60006117477f466561747572654665654d616e61676572000000000000000000000000000000610b52565b600160a060020a031633600160a060020a031614151561176657600080fd5b600160a060020a038316151561177b57600080fd5b6117836117d3565b600160a060020a0316151561179457fe5b6117ae61179f61121f565b846117a86117d3565b85611adf565b9050600181146117c15761130881611a76565b61081a836117cd6117d3565b84612329565b6000610bee81601063ffffffff611fea16565b6000806118127f557365724d616e61676572000000000000000000000000000000000000000000610b52565b905080600160a060020a0316632aa09e5a8460006040516020015260405160e060020a63ffffffff8416028152600160a060020a039091166004820152602401602060405180830381600087803b151561186b57600080fd5b6102c65a03f1151561187c57600080fd5b5050506040518051949350505050565b600554600160a060020a031690565b6118b0848484600160a060020a038516612391565b50505050565b6118be61188c565b600160a060020a031663544a6487838360405160e060020a63ffffffff8516028152600160a060020a03928316600482015291166024820152604401600060405180830381600087803b151561191357600080fd5b6102c65a03f1151561192457600080fd5b5050505050565b6000610bee81601163ffffffff611fea16565b600080600061196c7f50656e64696e674d616e61676572000000000000000000000000000000000000610b52565b915081600160a060020a031633600160a060020a0316141515611a6c57600036604051808383808284378201915050925050506040518091039020905081600160a060020a0316630fee1efc82600036303360006040516020015260405160e060020a63ffffffff881602815260048101868152600160a060020a0380851660448401528316606483015260806024830190815260848301869052909160a40186868082843782019150509650505050505050602060405180830381600087803b1515611a3857600080fd5b6102c65a03f11515611a4957600080fd5b505050604051805193505060018314611a625782611a65565b60035b9250611a71565b600192505b505090565b6000611a8061188c565b600160a060020a031663df26ca088360405160e060020a63ffffffff84160281526004810191909152602401600060405180830381600087803b1515611ac557600080fd5b6102c65a03f11515611ad657600080fd5b50929392505050565b600080611aec8686610795565b905080831115611b0857611b01612ee6611a76565b9150611c3a565b611b10610bdb565b600160a060020a031663d9caed1287868660006040516020015260405160e060020a63ffffffff8616028152600160a060020a0393841660048201529190921660248201526044810191909152606401602060405180830381600087803b1515611b7957600080fd5b6102c65a03f11515611b8a57600080fd5b505050604051805190501515611ba557611b01612ee3611a76565b611bad61192b565b600160a060020a031663644964758787868560405160e060020a63ffffffff8716028152600160a060020a03948516600482015292909316602483015260448201526064810191909152608401600060405180830381600087803b1515611c1357600080fd5b6102c65a03f11515611c2457600080fd5b505050611c3586868561239d61223c565b600191505b50949350505050565b611c4b61188c565b600160a060020a031663728994e78585858560405160e060020a63ffffffff8716028152600160a060020a039485166004820152928416602484015260448301919091529091166064820152608401600060405180830381600087803b1515611cb357600080fd5b6102c65a03f11515611cc457600080fd5b50505050505050565b6000610ae9858585600160a060020a038616612404565b6118b0848484600160a060020a038516612412565b611d0161188c565b600160a060020a031663a191d167838360405160e060020a63ffffffff8516028152600160a060020a03928316600482015291166024820152604401600060405180830381600087803b151561191357600080fd5b60025460009081908190819033600160a060020a03908116911614611d7a57600080fd5b600160a060020a0386161515611d8f57600080fd5b600454600160a060020a0316158015935080611db95750600454600160a060020a03878116911614155b15611dda5760048054600160a060020a031916600160a060020a0388161790555b600454600160a060020a031691508163bc65792760006040516020015260405160e060020a63ffffffff83160281527f4d756c74694576656e7473486973746f727900000000000000000000000000006004820152602401602060405180830381600087803b1515611e4b57600080fd5b6102c65a03f11515611e5c57600080fd5b5050506040518051915050600160a060020a03811615801590611e8d5750600554600160a060020a03828116911614155b15611eae5760058054600160a060020a031916600160a060020a0383161790555b8415611f355781600160a060020a031663b7c46cd5308760006040516020015260405160e060020a63ffffffff8516028152600160a060020a0390921660048301526024820152604401602060405180830381600087803b1515611f1157600080fd5b6102c65a03f11515611f2257600080fd5b50505060405180516001149050611f3557fe5b821561167b5760069695505050505050565b825460018401548354600160a060020a03909216916379a7cfee91908460405160e060020a63ffffffff861602815260048101939093526024830191909152600160a060020a03166044820152606401600060405180830381600087803b1515611fb057600080fd5b6102c65a03f11515610e2a57600080fd5b610eee8383600160a060020a03841661241e565b6118b08484600160a060020a0385168461244a565b815460018301548254600092600160a060020a03169163d3a3968691846040516020015260405160e060020a63ffffffff851602815260048101929092526024820152604401602060405180830381600087803b15156107fd57600080fd5b6000610bee7f45524332304d616e616765720000000000000000000000000000000000000000610b52565b61207c61188c565b600160a060020a031663e9112e9a8383600160405160e060020a63ffffffff8616028152600160a060020a039093166004840152602483019190915215156044820152606401600060405180830381600087803b151561191357600080fd5b610eee8383600160a060020a0384166124c2565b6120f761188c565b600160a060020a031663e9112e9a8260008060405160e060020a63ffffffff8616028152600160a060020a039093166004840152602483019190915215156044820152606401600060405180830381600087803b151561215657600080fd5b6102c65a03f115156118b057600080fd5b600061087d8484600160a060020a0385166124ee565b60025433600160a060020a03908116911614156110e65733600160a060020a0316ff5b3390565b600061087d8484600160a060020a038516612588565b84600160a060020a0316639cd004488585858560405160e060020a63ffffffff8716028152600160a060020a03948516600482015292909316602483015260448201526064810191909152608401600060405180830381600087803b151561222157600080fd5b6102c65a03f1151561223257600080fd5b5050505050505050565b6000612246612b96565b6000806122538888610795565b93506122716000600a600160a060020a038b1663ffffffff6125b616565b9250600091505b61228b6000600a8563ffffffff6125c916565b15612232576122a36000600a8563ffffffff6125d616565b90506122b681898989888a63ffffffff16565b816001019150612278565b6122c961188c565b600160a060020a0316638b7711b484848460405160e060020a63ffffffff8616028152600160a060020a0393841660048201529190921660248201526044810191909152606401600060405180830381600087803b1515611fb057600080fd5b61233161188c565b600160a060020a0316639826ad6984848460405160e060020a63ffffffff8616028152600160a060020a0393841660048201529190921660248201526044810191909152606401600060405180830381600087803b1515611fb057600080fd5b6118b0848484846125e3565b84600160a060020a0316634ca95be88585858560405160e060020a63ffffffff8716028152600160a060020a03948516600482015292909316602483015260448201526064810191909152608401600060405180830381600087803b151561222157600080fd5b6000610ae9858585856126ab565b6118b0848484846126e7565b610eee83837f7365740000000000000000000000000000000000000000000000000000000000846127e2565b835460018501548454600160a060020a039092169163a14ff85791908560405191825260208201526040908101905180910390208460405160e060020a63ffffffff8616028152600481019390935260248301919091526044820152606401600060405180830381600087803b1515611cb357600080fd5b610eee83837f736574000000000000000000000000000000000000000000000000000000000084612836565b825460018401548354600092600160a060020a0316916337d9d7fc9185604051918252602082015260409081019051809103902060006040516020015260405160e060020a63ffffffff851602815260048101929092526024820152604401602060405180830381600087803b151561256657600080fd5b6102c65a03f1151561257757600080fd5b505050604051805195945050505050565b600061087d84847f7365740000000000000000000000000000000000000000000000000000000000856128db565b6125be612b96565b61087d8484846128f7565b600061087d84848461290a565b600061087d848484612917565b8015156125ef57600080fd5b6125fb848484846126ab565b15612605576118b0565b612610848484612924565b1515612625576126258484600101848461244a565b6126338484600201846124ee565b156126725761265584846003018461264f8888600201886124ee565b85612931565b6126728484600401848461266d8989600201896124ee565b612931565b612683846003850184846000612931565b6126928484600201848461244a565b6118b08484846126a3838383612944565b6001016129bc565b60008115801590610ae957506126c685856003018585612a34565b151580610ae95750816126dd8660028701866124ee565b1495945050505050565b6126f3848484846126ab565b15156126fe576118b0565b61272584846003018461271688886004018888612a34565b61266d89896003018989612a34565b61274c84846004018461273d88886003018888612a34565b61266d89896004018989612a34565b61275a8484600101846124ee565b81141561277e5761277e84846001018461277988886003018888612a34565b61244a565b61278c8484600201846124ee565b8114156127ab576127ab84846002018461277988886004018888612a34565b6127ba84846003018484612a59565b6127c984846004018484612a59565b6118b084848460016127dc848484612944565b036129bc565b60006127f0858585856128db565b156127fa57611924565b612805858585612924565b600101905061281a8560028601858486612a69565b61282a8560018601858585612a69565b611924858585846129bc565b6000806000612847878787876128db565b151561285257611cc4565b61285d878787612924565b925061286e87600288018786612a34565b915061287f87876001018787612a34565b9050828110156128a9576128998760018801878585612a69565b6128a98760028801878486612a69565b6128ba876001880187876000612a69565b6128cb876002880187866000612a69565b611cc487878760001987016129bc565b60006128ec85856001018585612a34565b151595945050505050565b6128ff612b96565b61087d848484612a8d565b600061087d848484612aab565b600061087d848484612ae6565b600061087d848484612944565b8115611924576119248585858585612a69565b825460018401548354600092600160a060020a0316916353aa3f5e9185604051918252602082015260409081019051809103902060006040516020015260405160e060020a63ffffffff851602815260048101929092526024820152604401602060405180830381600087803b151561256657600080fd5b835460018501548454600160a060020a03909216916353e7168b91908560405191825260208201526040908101905180910390208460405160e060020a63ffffffff8616028152600481019390935260248301919091526044820152606401600060405180830381600087803b1515611cb357600080fd5b6000610ae98585858560405191825260208201526040908101905180910390206124ee565b80156118b0576118b08484848460005b6119248585858560405191825260208201526040908101905180910390208461244a565b612a95612b96565b61087d848484612aa6838383612944565b612b32565b600081602001511580612acf5750612acd8484846060015185604001516126ab565b155b15612adc57506000610b4b565b5060019392505050565b6000612af3848484612aab565b1515612afe57600080fd5b81604001519050612b19848484606001518560400151612b52565b6040830152600160208301818151039052509392505050565b612b3a612b96565b610ae983612b4c8787600101876124ee565b84612b63565b6000610ae985856003018585612a34565b612b6b612b96565b6080604051908101604090815283825260208201939093529182019290925260608101929092525090565b60806040519081016040908152600080835260208301819052908201819052606082015290565b8254600160a060020a031916600160a060020a0392909216919091178255600190910155565b6107918282612c11565b6107918282612c01565b6107918282612ce6565b8154612c0d9082612cf0565b9055565b612c5282826040519081527f636f756e7400000000000000000000000000000000000000000000000000000060208201526025016040518091039020612c01565b612c9682600101826040519081527f696e64657865730000000000000000000000000000000000000000000000000060208201526027016040518091039020612c01565b61079182600201826040519081527f76616c756573000000000000000000000000000000000000000000000000000060208201526026016040518091039020612c01565b8154612c0d9082612cf0565b6107918282612d12565b81151580612cfc575080155b1561079157600080fd5b8154612c0d9082612cf0565b612d5382826040519081527f75696e742f636f756e74000000000000000000000000000000000000000000006020820152602a016040518091039020612c01565b612d9782600101826040519081527f75696e742f6669727374000000000000000000000000000000000000000000006020820152602a016040518091039020612c01565b612ddb82600201826040519081527f75696e742f6c617374000000000000000000000000000000000000000000000060208201526029016040518091039020612c01565b612e1f82600301826040519081527f75696e742f6e657874000000000000000000000000000000000000000000000060208201526029016040518091039020612c01565b61079182600401826040519081527f75696e742f70726576000000000000000000000000000000000000000000000060208201526029016040518091039020612c01565b8154612c0d9082612cf05600a165627a7a72305820f314a4e8c1c9e55186320eba09f6152ac693e979f2d98cc09064e24e7688ab7c0029",
  "source": "pragma solidity ^0.4.11;\n\nimport \"./TimeHolderEmitter.sol\";\nimport \"../core/common/BaseManager.sol\";\nimport \"../core/common/ListenerInterface.sol\";\nimport {ERC20Interface as Asset} from \"../core/erc20/ERC20Interface.sol\";\nimport {ERC20Manager as ERC20Service} from \"../core/erc20/ERC20Manager.sol\";\nimport \"./DepositWalletInterface.sol\";\nimport \"./ERC20DepositStorage.sol\";\nimport \"../core/lib/SafeMath.sol\";\n\n\n/// @title TimeHolder\n/// @notice Contract allows to block some amount of shares\" balance to unlock\n/// functionality inside a system.\ncontract TimeHolder is BaseManager, TimeHolderEmitter {\n\n    using SafeMath for uint;\n\n    /** Error codes */\n\n    uint constant ERROR_TIMEHOLDER_ALREADY_ADDED = 12000;\n    uint constant ERROR_TIMEHOLDER_TRANSFER_FAILED = 12003;\n    uint constant ERROR_TIMEHOLDER_INSUFFICIENT_BALANCE = 12006;\n    uint constant ERROR_TIMEHOLDER_LIMIT_EXCEEDED = 12007;\n\n    /** Storage keys */\n\n    StorageInterface.AddressesSet sharesTokenStorage;\n    StorageInterface.AddressUIntMapping limitsStorage;\n\n    StorageInterface.AddressOrderedSetMapping listeners;\n    StorageInterface.Address walletStorage;\n    StorageInterface.Address feeWalletStorage;\n    StorageInterface.Address erc20DepositStorage;\n\n    /// @dev Guards invokations only for FeatureManager\n    modifier onlyFeatureFeeManager {\n        require(msg.sender == lookupManager(\"FeatureFeeManager\"));\n        _;\n    }\n\n    /// @dev only token registered in whitelist\n    modifier onlyAllowedToken(address _token) {\n        if (store.includes(sharesTokenStorage, _token)) {\n            _;\n        }\n    }\n\n    /// @notice Constructor\n    function TimeHolder(Storage _store, bytes32 _crate) BaseManager(_store, _crate) public {\n        sharesTokenStorage.init(\"sharesContractsStorage_v2\");\n        limitsStorage.init(\"limitAmountsStorage_v2\");\n        listeners.init(\"listeners_v2\");\n        walletStorage.init(\"timeHolderWalletStorage\");\n        feeWalletStorage.init(\"timeHolderFeeWalletStorage\");\n        erc20DepositStorage.init(\"erc20DepositStorage\");\n    }\n\n    /// @notice Init TimeHolder contract.\n    /// @param _contractsManager address.\n    /// @return result code of an operation\n    function init(\n        address _contractsManager,\n        address _defaultToken,\n        address _wallet,\n        address _feeWallet,\n        address _erc20DepositStorage\n    )\n    public\n    onlyContractOwner\n    returns (uint)\n    {\n        require(_defaultToken != 0x0);\n        require(_wallet != 0x0);\n        require(_feeWallet != 0x0);\n        require(_erc20DepositStorage != 0x0);\n\n        BaseManager.init(_contractsManager, \"TimeHolder\");\n\n        store.set(walletStorage, _wallet);\n        store.set(feeWalletStorage, _feeWallet);\n        store.set(erc20DepositStorage, _erc20DepositStorage);\n\n        store.add(sharesTokenStorage, _defaultToken);\n        store.set(limitsStorage, _defaultToken, 2**255);\n\n        ERC20DepositStorage(_erc20DepositStorage).setSharesContract(_defaultToken);\n\n        return OK;\n    }\n\n     /// @notice Gets shares amount deposited by a particular shareholder.\n     ///\n     /// @param _depositor shareholder address.\n     ///\n     /// @return shares amount.\n    function depositBalance(address _depositor) public view returns (uint) {\n        return getDepositBalance(getDefaultShares(), _depositor);\n    }\n\n    /// @dev Gets balance of tokens deposited to TimeHolder\n    ///\n    /// @param _token token to check\n    /// @param _depositor shareholder address\n    /// @return _balance shares amount.\n    function getDepositBalance(\n        address _token,\n        address _depositor\n    )\n    public\n    view\n    returns (uint _balance)\n    {\n        return getDepositStorage().depositBalance(_token, _depositor);\n    }\n\n    /// @dev Gets pair of depositStorage and default token set up for a deposits\n    ///\n    /// @return {\n    ///     \"_depositStorage\": \"deposit storage contract\",\n    ///     \"_token\": \"default shares contract\",\n    /// }\n    function getDepositStorage() private view returns (ERC20DepositStorage _depositStorage) {\n        _depositStorage = ERC20DepositStorage(store.get(erc20DepositStorage));\n\n    }\n\n    /// @notice Adds ERC20-compatible token symbols and put them in the whitelist to be used then as\n    /// shares for other contracts and allow users to deposit for this share.\n    ///\n    /// @dev Allowed only for CBEs\n    ///\n    /// @param _whitelist list of token addresses that will be allowed to be deposited in TimeHolder\n    /// @param _limits list of limits\n    function allowShares(address[] _whitelist, uint[] _limits)\n    external\n    onlyAuthorized\n    {\n        require(_whitelist.length == _limits.length);\n\n        ERC20Service erc20Service = lookupERC20Service();\n        for (uint _idx = 0; _idx < _whitelist.length; ++_idx) {\n            require(erc20Service.isTokenExists(_whitelist[_idx]));\n\n            store.add(sharesTokenStorage, _whitelist[_idx]);\n            store.set(limitsStorage, _whitelist[_idx], _limits[_idx]);\n\n            _emitSharesWhiteListAdded(_whitelist[_idx], _limits[_idx]);\n        }\n    }\n\n    /// @notice Removes ERC20-compatible token symbols from TimeHolder so they will be removed\n    /// from the whitelist and will not be accessible to be used as shares.\n    /// All deposited amounts still will be available to withdraw.\n    /// @dev Allowed only for CBEs\n    ///\n    /// @param _blacklist list of token addresses that will be removed from TimeHolder\n    function denyShares(address[] _blacklist)\n    external\n    onlyAuthorized\n    {\n        for (uint _idx = 0; _idx < _blacklist.length; ++_idx) {\n            store.remove(sharesTokenStorage, _blacklist[_idx]);\n            store.set(limitsStorage, _blacklist[_idx], 0);\n\n            _emitSharesWhiteListRemoved(_blacklist[_idx]);\n        }\n    }\n\n    /// @notice Adds provided listener to observe changes of passed symbol when some amount will be deposited/withdrawn.\n    /// Checks passed listener for HolderListenerInterface compatibility.\n    /// @dev Allowed only for CBEs\n    ///\n    /// @param _token token symbol to watch deposits and withdrawals\n    /// @param _listener address of a listener to add\n    function addListener(address _token, address _listener)\n    external\n    onlyAuthorized\n    {\n        require(_token != 0x0);\n        require(_listener != 0x0);\n\n        store.add(listeners, bytes32(_token), _listener);\n\n        _emitListenerAdded(_listener, _token);\n    }\n\n    /// @notice Removes provided listener from observing changes of passed symbol.\n    /// @dev Allowed only for CBEs\n    ///\n    /// @param _token token symbol to stop watching by a listener\n    /// @param _listener address of a listener to remove\n    function removeListener(address _token, address _listener)\n    external\n    onlyAuthorized\n    {\n        require(store.includes(listeners, bytes32(_token), _listener));\n\n        store.remove(listeners, bytes32(_token), _listener);\n\n        _emitListenerRemoved(_listener, _token);\n    }\n\n    /// @notice Sets fee wallet address.\n    function setFeeWallet(address _feeWallet)\n    public\n    onlyAuthorized\n    {\n        store.set(feeWalletStorage, _feeWallet);\n    }\n\n    /// @notice Deposits shares with provided symbol and prove possesion.\n    /// Amount should be less than or equal to current allowance value.\n    ///\n    /// Proof should be repeated for each active period. To prove possesion without\n    /// depositing more shares, specify 0 amount.\n    ///\n    /// @param _token token address for shares\n    /// @param _amount amount of shares to deposit, or 0 to just prove.\n    ///\n    /// @return result code of an operation.\n    function deposit(address _token, uint _amount) public returns (uint) {\n        return depositFor(_token, msg.sender, _amount);\n    }\n\n    /// @notice Deposit own shares and prove possession for arbitrary shareholder.\n    /// Amount should be less than or equal to caller current allowance value.\n    ///\n    /// Proof should be repeated for each active period. To prove possesion without\n    /// depositing more shares, specify 0 amount.\n    ///\n    /// This function meant to be used by some backend application to prove shares possesion\n    /// of arbitrary shareholders.\n    ///\n    /// @param _token token address for shares\n    /// @param _target to deposit and prove for.\n    /// @param _amount amount of shares to deposit, or 0 to just prove.\n    ///\n    /// @return result code of an operation.\n    function depositFor(address _token, address _target, uint _amount)\n    public\n    onlyAllowedToken(_token)\n    returns (uint)\n    {\n        require(_token != 0x0);\n        require(store.includes(sharesTokenStorage, _token));\n\n        if (_amount > getLimitForToken(_token)) {\n            return _emitError(ERROR_TIMEHOLDER_LIMIT_EXCEEDED);\n        }\n\n        if (!DepositWalletInterface(wallet()).deposit(_token, msg.sender, _amount)) {\n            return _emitError(ERROR_TIMEHOLDER_TRANSFER_FAILED);\n        }\n\n        getDepositStorage().depositFor(_token, _target, _amount);\n\n        _goThroughListeners(_token, _target, _amount, _notifyDepositListener);\n\n        _emitDeposit(_token, _target, _amount);\n\n        return OK;\n    }\n\n    /// @notice Withdraw shares from the contract, updating the possesion proof in active period.\n    /// @param _token token symbol to withdraw from.\n    /// @param _amount amount of shares to withdraw.\n    /// @return resultCode result code of an operation.\n    function withdrawShares(address _token, uint _amount)\n    public\n    returns (uint resultCode)\n    {\n        resultCode = _withdrawShares(_token, msg.sender, msg.sender, _amount);\n        if (resultCode != OK) {\n            return _emitError(resultCode);\n        }\n\n        _emitWithdrawShares(_token, msg.sender, _amount, msg.sender);\n    }\n\n    /// @notice Force Withdraw Shares\n    /// Only CBE members are permited to call this function.\n    /// Multisig concensus is required to withdraw shares from shareholder \"_from\"\n    /// and send it to \"_to\".\n    function forceWithdrawShares(address _from, address _token, uint _amount, address _to)\n    public\n    onlyAuthorized\n    returns (uint resultCode) {\n        resultCode = multisig();\n        if (OK != resultCode) {\n            return _emitError(resultCode);\n        }\n\n        resultCode = _withdrawShares(_token, _from, _to, _amount);\n        if (resultCode != OK) {\n            return _emitError(resultCode);\n        }\n\n        _emitWithdrawShares(_token, _from, _amount, _to);\n    }\n\n    /// @notice Provides a way to support getting additional fee for using features of the system.\n    /// @param _account holder of deposits, will pay for using a features\n    /// @param _amount size of a fee\n    /// @return resultCode result code of the operation\n    function takeFeatureFee(address _account, uint _amount)\n    public\n    onlyFeatureFeeManager\n    returns (uint resultCode)\n    {\n        require(_account != 0x0);\n        assert(feeWallet() != 0x0);\n\n        resultCode = _withdrawShares(getDefaultShares(), _account, feeWallet(), _amount);\n        if (resultCode != OK) {\n            return _emitError(resultCode);\n        }\n\n        _emitFeatureFeeTaken(_account, feeWallet(), _amount);\n    }\n\n    /// @notice Gets an associated wallet for the time holder\n    function wallet() public view returns (address) {\n        return store.get(walletStorage);\n    }\n\n    /// @notice Gets an associated fee wallet for the time holder\n    function feeWallet() public view returns (address) {\n        return store.get(feeWalletStorage);\n    }\n\n    /// @notice Total amount of shares for provided symbol\n    /// @param _token token address to check total shares amout\n    /// @return total amount of shares\n    function totalShares(address _token) public view returns (uint) {\n        return getDepositStorage().totalShares(_token);\n    }\n\n    /// @notice Number of shareholders\n    /// @return number of shareholders\n    function defaultShareholdersCount() public view returns (uint) {\n        return getDepositStorage().shareholdersCount(getDefaultShares());\n    }\n\n    /// @notice Number of shareholders\n    /// @return number of shareholders\n    function shareholdersCount(address _token) public view returns (uint) {\n        return getDepositStorage().shareholdersCount(_token);\n    }\n\n    /// @notice Returns deposit/withdraw limit for shares with provided symbol\n    /// @param _token token address to get limit\n    /// @return limit number for specified shares\n    function getLimitForToken(address _token) public view returns (uint) {\n        return store.get(limitsStorage, _token);\n    }\n\n    /// @notice Gets shares contract that is set up as default (usually TIMEs)\n    function getDefaultShares() public view returns (address) {\n        return getDepositStorage().getSharesContract();\n    }\n\n    /// @notice Withdraws deposited amount of tokens from account to a receiver address.\n    /// Emits its own errorCodes if some will be encountered.\n    ///\n    /// @param _account an address that have deposited tokens\n    /// @param _receiver an address that will receive tokens from _account\n    /// @param _amount amount of tokens to withdraw to the _receiver\n    ///\n    /// @return result code of the operation\n    function _withdrawShares(\n        address _token,\n        address _account,\n        address _receiver,\n        uint _amount\n    )\n    internal\n    returns (uint)\n    {\n        uint _depositBalance = getDepositBalance(_token, _account);\n\n        if (_amount > _depositBalance) {\n            return _emitError(ERROR_TIMEHOLDER_INSUFFICIENT_BALANCE);\n        }\n\n        if (!DepositWalletInterface(wallet()).withdraw(_token, _receiver, _amount)) {\n            return _emitError(ERROR_TIMEHOLDER_TRANSFER_FAILED);\n        }\n\n        getDepositStorage().withdrawShares(_token, _account, _amount, _depositBalance);\n\n        _goThroughListeners(_token, _account, _amount, _notifyWithdrawListener);\n\n        return OK;\n    }\n\n    /// @dev Notifies listener about depositing token with symbol\n    function _notifyDepositListener(address _listener, address _token, address _target, uint _amount, uint _balance)\n    private\n    {\n        HolderListenerInterface(_listener).tokenDeposit(_token, _target, _amount, _balance);\n    }\n\n    /// @dev Notifies listener about withdrawing token with symbol\n    function _notifyWithdrawListener(address _listener, address _token, address _target, uint _amount, uint _balance)\n    private\n    {\n        HolderListenerInterface(_listener).tokenWithdrawn(_token, _target, _amount, _balance);\n    }\n\n    /// @dev Iterates through listeners of provided symbol and notifies by calling notification function\n    function _goThroughListeners(\n        address _token,\n        address _target,\n        uint _amount,\n        function (address, address, address, uint, uint) _notification)\n    private\n    {\n        uint _depositBalance = getDepositBalance(_token, _target);\n        StorageInterface.Iterator memory iterator = store.listIterator(listeners, bytes32(_token));\n        for (uint i = 0; store.canGetNextWithIterator(listeners, iterator); ++i) {\n            address _listener = store.getNextWithIterator(listeners, iterator);\n            _notification(_listener, _token, _target, _amount, _depositBalance);\n        }\n    }\n\n    function lookupERC20Service() internal view returns (ERC20Service) {\n        return ERC20Service(lookupManager(\"ERC20Manager\"));\n    }\n\n    /** Event emitting */\n\n    function _emitDeposit(address _token, address _who, uint _amount) private {\n        TimeHolderEmitter(getEventsHistory()).emitDeposit(_token, _who, _amount);\n    }\n\n    function _emitWithdrawShares(address _token, address _who, uint _amount, address _receiver) private {\n        TimeHolderEmitter(getEventsHistory()).emitWithdrawShares(_token, _who, _amount, _receiver);\n    }\n\n    function _emitListenerAdded(address _listener, address _token) private {\n        TimeHolderEmitter(getEventsHistory()).emitListenerAdded(_listener, _token);\n    }\n\n    function _emitListenerRemoved(address _listener, address _token) private {\n        TimeHolderEmitter(getEventsHistory()).emitListenerRemoved(_listener, _token);\n    }\n\n    function _emitFeatureFeeTaken(address _from, address _to, uint _amount) private {\n        TimeHolderEmitter(getEventsHistory()).emitFeatureFeeTaken(_from, _to, _amount);\n    }\n\n    function _emitSharesWhiteListAdded(address _token, uint _limit) private {\n        TimeHolderEmitter(getEventsHistory()).emitSharesWhiteListChanged(_token, _limit, true);\n    }\n\n    function _emitSharesWhiteListRemoved(address _token) private {\n        TimeHolderEmitter(getEventsHistory()).emitSharesWhiteListChanged(_token, 0, false);\n    }\n\n    function _emitError(uint e) private returns (uint) {\n        TimeHolderEmitter(getEventsHistory()).emitError(e);\n        return e;\n    }\n}\n",
  "sourcePath": "/Users/ahiatsevich/Development/chronobank/SmartContracts/contracts/timeholder/TimeHolder.sol",
  "compiler": {
    "name": "solc",
    "version": "0.4.18+commit.9cf6e910.Emscripten.clang"
  },
  "schemaVersion": "1.0.1",
  "updatedAt": "2018-02-05T07:28:31.547Z"
}