{
  "contractName": "TimeHolderDeprecated",
  "abi": [
    {
      "constant": false,
      "inputs": [],
      "name": "claimContractOwnership",
      "outputs": [
        {
          "name": "",
          "type": "bool"
        }
      ],
      "payable": false,
      "stateMutability": "nonpayable",
      "type": "function"
    },
    {
      "constant": true,
      "inputs": [
        {
          "name": "_identifier",
          "type": "bytes32"
        }
      ],
      "name": "lookupManager",
      "outputs": [
        {
          "name": "manager",
          "type": "address"
        }
      ],
      "payable": false,
      "stateMutability": "view",
      "type": "function"
    },
    {
      "constant": true,
      "inputs": [],
      "name": "contractsManager",
      "outputs": [
        {
          "name": "",
          "type": "address"
        }
      ],
      "payable": false,
      "stateMutability": "view",
      "type": "function"
    },
    {
      "constant": false,
      "inputs": [
        {
          "name": "_to",
          "type": "address"
        }
      ],
      "name": "changeContractOwnership",
      "outputs": [
        {
          "name": "",
          "type": "bool"
        }
      ],
      "payable": false,
      "stateMutability": "nonpayable",
      "type": "function"
    },
    {
      "constant": true,
      "inputs": [],
      "name": "pendingContractOwner",
      "outputs": [
        {
          "name": "",
          "type": "address"
        }
      ],
      "payable": false,
      "stateMutability": "view",
      "type": "function"
    },
    {
      "constant": false,
      "inputs": [
        {
          "name": "_eventsHistory",
          "type": "address"
        }
      ],
      "name": "setEventsHistory",
      "outputs": [],
      "payable": false,
      "stateMutability": "nonpayable",
      "type": "function"
    },
    {
      "constant": false,
      "inputs": [
        {
          "name": "_contractsManager",
          "type": "address"
        }
      ],
      "name": "setContractsManager",
      "outputs": [],
      "payable": false,
      "stateMutability": "nonpayable",
      "type": "function"
    },
    {
      "constant": true,
      "inputs": [
        {
          "name": "_address",
          "type": "address"
        }
      ],
      "name": "depositBalance",
      "outputs": [
        {
          "name": "",
          "type": "uint256"
        }
      ],
      "payable": false,
      "stateMutability": "view",
      "type": "function"
    },
    {
      "constant": false,
      "inputs": [
        {
          "name": "_to",
          "type": "address"
        }
      ],
      "name": "transferContractOwnership",
      "outputs": [
        {
          "name": "",
          "type": "bool"
        }
      ],
      "payable": false,
      "stateMutability": "nonpayable",
      "type": "function"
    },
    {
      "constant": true,
      "inputs": [],
      "name": "contractOwner",
      "outputs": [
        {
          "name": "",
          "type": "address"
        }
      ],
      "payable": false,
      "stateMutability": "view",
      "type": "function"
    },
    {
      "constant": false,
      "inputs": [
        {
          "name": "tokens",
          "type": "address[]"
        },
        {
          "name": "_to",
          "type": "address"
        }
      ],
      "name": "withdrawnTokens",
      "outputs": [
        {
          "name": "",
          "type": "uint256"
        }
      ],
      "payable": false,
      "stateMutability": "nonpayable",
      "type": "function"
    },
    {
      "constant": true,
      "inputs": [
        {
          "name": "key",
          "type": "address"
        }
      ],
      "name": "isAuthorized",
      "outputs": [
        {
          "name": "",
          "type": "bool"
        }
      ],
      "payable": false,
      "stateMutability": "view",
      "type": "function"
    },
    {
      "constant": true,
      "inputs": [],
      "name": "getEventsHistory",
      "outputs": [
        {
          "name": "",
          "type": "address"
        }
      ],
      "payable": false,
      "stateMutability": "view",
      "type": "function"
    },
    {
      "inputs": [
        {
          "name": "_store",
          "type": "address"
        },
        {
          "name": "_crate",
          "type": "bytes32"
        }
      ],
      "payable": false,
      "stateMutability": "nonpayable",
      "type": "constructor"
    },
    {
      "constant": false,
      "inputs": [
        {
          "name": "_contractsManager",
          "type": "address"
        },
        {
          "name": "_sharesContract",
          "type": "address"
        },
        {
          "name": "_wallet",
          "type": "address"
        },
        {
          "name": "_feeWallet",
          "type": "address"
        }
      ],
      "name": "init",
      "outputs": [
        {
          "name": "",
          "type": "uint256"
        }
      ],
      "payable": false,
      "stateMutability": "nonpayable",
      "type": "function"
    },
    {
      "constant": false,
      "inputs": [],
      "name": "destroy",
      "outputs": [],
      "payable": false,
      "stateMutability": "nonpayable",
      "type": "function"
    },
    {
      "constant": false,
      "inputs": [
        {
          "name": "_feeWallet",
          "type": "address"
        }
      ],
      "name": "setFeeWallet",
      "outputs": [],
      "payable": false,
      "stateMutability": "nonpayable",
      "type": "function"
    },
    {
      "constant": true,
      "inputs": [],
      "name": "wallet",
      "outputs": [
        {
          "name": "",
          "type": "address"
        }
      ],
      "payable": false,
      "stateMutability": "view",
      "type": "function"
    },
    {
      "constant": true,
      "inputs": [],
      "name": "feeWallet",
      "outputs": [
        {
          "name": "",
          "type": "address"
        }
      ],
      "payable": false,
      "stateMutability": "view",
      "type": "function"
    },
    {
      "constant": true,
      "inputs": [],
      "name": "totalShares",
      "outputs": [
        {
          "name": "",
          "type": "uint256"
        }
      ],
      "payable": false,
      "stateMutability": "view",
      "type": "function"
    },
    {
      "constant": true,
      "inputs": [],
      "name": "sharesContract",
      "outputs": [
        {
          "name": "",
          "type": "address"
        }
      ],
      "payable": false,
      "stateMutability": "view",
      "type": "function"
    },
    {
      "constant": true,
      "inputs": [],
      "name": "shareholdersCount",
      "outputs": [
        {
          "name": "",
          "type": "uint256"
        }
      ],
      "payable": false,
      "stateMutability": "view",
      "type": "function"
    },
    {
      "constant": true,
      "inputs": [],
      "name": "getLimit",
      "outputs": [
        {
          "name": "",
          "type": "uint256"
        }
      ],
      "payable": false,
      "stateMutability": "view",
      "type": "function"
    },
    {
      "constant": false,
      "inputs": [
        {
          "name": "_limitAmount",
          "type": "uint256"
        }
      ],
      "name": "setLimit",
      "outputs": [],
      "payable": false,
      "stateMutability": "nonpayable",
      "type": "function"
    },
    {
      "constant": false,
      "inputs": [
        {
          "name": "_amount",
          "type": "uint256"
        }
      ],
      "name": "deposit",
      "outputs": [
        {
          "name": "",
          "type": "uint256"
        }
      ],
      "payable": false,
      "stateMutability": "nonpayable",
      "type": "function"
    },
    {
      "constant": false,
      "inputs": [
        {
          "name": "_address",
          "type": "address"
        },
        {
          "name": "_amount",
          "type": "uint256"
        }
      ],
      "name": "depositFor",
      "outputs": [
        {
          "name": "",
          "type": "uint256"
        }
      ],
      "payable": false,
      "stateMutability": "nonpayable",
      "type": "function"
    },
    {
      "constant": false,
      "inputs": [
        {
          "name": "_amount",
          "type": "uint256"
        }
      ],
      "name": "withdrawShares",
      "outputs": [
        {
          "name": "resultCode",
          "type": "uint256"
        }
      ],
      "payable": false,
      "stateMutability": "nonpayable",
      "type": "function"
    },
    {
      "constant": false,
      "inputs": [
        {
          "name": "_account",
          "type": "address"
        },
        {
          "name": "_amount",
          "type": "uint256"
        }
      ],
      "name": "takeFeatureFee",
      "outputs": [
        {
          "name": "resultCode",
          "type": "uint256"
        }
      ],
      "payable": false,
      "stateMutability": "nonpayable",
      "type": "function"
    },
    {
      "constant": true,
      "inputs": [],
      "name": "totalSupply",
      "outputs": [
        {
          "name": "",
          "type": "uint256"
        }
      ],
      "payable": false,
      "stateMutability": "view",
      "type": "function"
    }
  ],
  "bytecode": "0x606060405234156200001057600080fd5b604051604080620023e08339810160405280805191906020018051915082905081818181818181620000536000838364010000000062001c076200032182021704565b505060028054600160a060020a03338116600160a060020a03199283161790925560058054309093169290911691909117905550620000c89250600691507f7368617265686f6c646572730000000000000000000000000000000000000000905064010000000062001c2d6200034782021704565b62000103600b7f6465706f7369747300000000000000000000000000000000000000000000000064010000000062001c3b6200036582021704565b6200013e60107f6465706f736974734964436f756e74657200000000000000000000000000000064010000000062001c456200037f82021704565b6200017960117f616d6f756e74730000000000000000000000000000000000000000000000000064010000000062001c556200039f82021704565b620001b460127f74696d657374616d70730000000000000000000000000000000000000000000064010000000062001c556200039f82021704565b620001ef60137f746f74616c53686172657353746f72616765000000000000000000000000000064010000000062001c456200037f82021704565b6200022a60147f736861726573436f6e747261637453746f72616765000000000000000000000064010000000062001c456200037f82021704565b5062000268905060157f6c697374656e657273000000000000000000000000000000000000000000000064010000000062001c2d6200034782021704565b620002a3601c7f6c696d6974416d6f756e7400000000000000000000000000000000000000000064010000000062001c456200037f82021704565b620002de601b7f74696d65486f6c64657246656557616c6c657453746f7261676500000000000064010000000062001c456200037f82021704565b62000319601a7f74696d65486f6c64657257616c6c657453746f7261676500000000000000000064010000000062001c456200037f82021704565b505062000590565b8254600160a060020a031916600160a060020a0392909216919091178255600190910155565b62000361828264010000000062001c6b620003b982021704565b5050565b62000361828264010000000062001c2d6200034782021704565b81546200039b908264010000000062001dc66200057882021704565b9055565b62000361828264010000000062001c456200037f82021704565b6200041082826040519081527f75696e742f636f756e74000000000000000000000000000000000000000000006020820152602a0160405180910390206200037f6401000000000262001c45176401000000009004565b6200046a82600101826040519081527f75696e742f6669727374000000000000000000000000000000000000000000006020820152602a0160405180910390206200037f6401000000000262001c45176401000000009004565b620004c482600201826040519081527f75696e742f6c6173740000000000000000000000000000000000000000000000602082015260290160405180910390206200037f6401000000000262001c45176401000000009004565b6200051e82600301826040519081527f75696e742f6e6578740000000000000000000000000000000000000000000000602082015260290160405180910390206200037f6401000000000262001c45176401000000009004565b6200036182600401826040519081527f75696e742f707265760000000000000000000000000000000000000000000000602082015260290160405180910390206200037f6401000000000262001c45176401000000009004565b8115158062000585575080155b156200036157600080fd5b611e4080620005a06000396000f3006060604052600436106101505763ffffffff60e060020a60003504166306552ff381146101555780631638a3fb1461019857806318160ddd146101ab57806319810f3c146101be57806327ea6f2b146101d45780632f4f21e2146101ec5780633a98ef391461020e5780634592cd1d146102215780634fe5901214610248578063521eb2731461027a57806353253d311461028d578063557f4bc9146102a05780635aa77d3c146102bf5780636521afd7146102d257806371d3b573146102f15780637bc1ed631461031057806383197ef01461032357806390d49b9d14610336578063956501bb14610355578063a843c51f14610374578063b295a00e14610393578063b6b55f25146103a6578063ce606ee0146103bc578063d8f9659b146103cf578063eca8791814610429578063f25f4b561461044b578063fe9fbb801461045e578063fff10aba1461047d575b600080fd5b341561016057600080fd5b610186600160a060020a0360043581169060243581169060443581169060643516610490565b60405190815260200160405180910390f35b34156101a357600080fd5b61018661058c565b34156101b657600080fd5b6101866105a5565b34156101c957600080fd5b610186600435610614565b34156101df57600080fd5b6101ea600435610629565b005b34156101f757600080fd5b610186600160a060020a0360043516602435610656565b341561021957600080fd5b61018661086c565b341561022c57600080fd5b61023461087f565b604051901515815260200160405180910390f35b341561025357600080fd5b61025e6004356108cb565b604051600160a060020a03909116815260200160405180910390f35b341561028557600080fd5b61025e610943565b341561029857600080fd5b61025e610956565b34156102ab57600080fd5b610234600160a060020a0360043516610965565b34156102ca57600080fd5b61025e6109bc565b34156102dd57600080fd5b6101ea600160a060020a03600435166109cb565b34156102fc57600080fd5b6101ea600160a060020a0360043516610a02565b341561031b57600080fd5b61025e610a39565b341561032e57600080fd5b6101ea610a4c565b341561034157600080fd5b6101ea600160a060020a0360043516610a71565b341561036057600080fd5b610186600160a060020a0360043516610ab0565b341561037f57600080fd5b610234600160a060020a0360043516610b3c565b341561039e57600080fd5b610186610bb5565b34156103b157600080fd5b610186600435610bc8565b34156103c757600080fd5b61025e610bd4565b34156103da57600080fd5b610186600460248135818101908301358060208181020160405190810160405280939291908181526020018383602002808284375094965050509235600160a060020a03169250610be3915050565b341561043457600080fd5b610186600160a060020a0360043516602435610d1a565b341561045657600080fd5b61025e610da7565b341561046957600080fd5b610234600160a060020a0360043516610dba565b341561048857600080fd5b61025e610e53565b60025460009033600160a060020a039081169116141561058457600160a060020a03831615156104bf57600080fd5b600160a060020a03841615156104d457600080fd5b600160a060020a03821615156104e957600080fd5b610513857f54696d65486f6c64657200000000000000000000000000000000000000000000610e62565b50610527600060148663ffffffff61103916565b61055a6000601c7f800000000000000000000000000000000000000000000000000000000000000063ffffffff6110b716565b61056d6000601a8563ffffffff61103916565b6105806000601b8463ffffffff61103916565b5060015b949350505050565b600061059f81600663ffffffff61111716565b90505b90565b6000806105b981601463ffffffff61112316565b905080600160a060020a03166318160ddd6040518163ffffffff1660e060020a028152600401602060405180830381600087803b15156105f857600080fd5b5af1151561060557600080fd5b50505060405180519250505090565b600061062133338461117a565b90505b919050565b60025433600160a060020a0390811691161415610653576106536000601c8363ffffffff6110b716565b50565b600080600080600080610667611be0565b6000806000610674610bb5565b8b111561068557612ee7995061085d565b6106976000601463ffffffff61112316565b98508a158061072157506106a9610943565b600160a060020a0316638340f5498a338e60405160e060020a63ffffffff8616028152600160a060020a0393841660048201529190921660248201526044810191909152606401602060405180830381600087803b151561070957600080fd5b5af1151561071657600080fd5b505050604051805190505b151561073157612ee3995061085d565b610744600060068e63ffffffff61143d16565b151561075d5761075d600060068e63ffffffff61145d16565b61076f6000601063ffffffff61147616565b975060018801965061078a600060108963ffffffff6110b716565b6107a76000600b600160a060020a038f168a63ffffffff6114cd16565b6107bc600060118e8a8f63ffffffff6114df16565b6107d1600060128e8a4263ffffffff6114df16565b6107da8c610ab0565b95506107ee6000601563ffffffff6114fc16565b9350600092505b610808600060158663ffffffff61150e16565b1561082d57610820600060158663ffffffff61151b16565b60019093019291506107f5565b61083f6000601363ffffffff61147616565b9a8b019a9050610858600060138d63ffffffff6110b716565b600199505b50505050505050505092915050565b600061059f81601363ffffffff61147616565b60035460009033600160a060020a039081169116146108a0575060006105a2565b506003805460028054600160a060020a0319908116600160a060020a03841617909155169055600190565b600454600090600160a060020a031663bc6579278360405160e060020a63ffffffff84160281526004810191909152602401602060405180830381600087803b151561091657600080fd5b5af1151561092357600080fd5b5050506040518051915050600160a060020a038116151561062457600080fd5b600061059f81601a63ffffffff61112316565b600454600160a060020a031681565b60025460009033600160a060020a039081169116141561062457600160a060020a038216151561099757506000610624565b5060038054600160a060020a038316600160a060020a03199091161790556001919050565b600354600160a060020a031681565b60025433600160a060020a03908116911614156106535760058054600160a060020a038316600160a060020a031990911617905550565b60025433600160a060020a03908116911614156106535760048054600160a060020a038316600160a060020a031990911617905550565b600061059f81601463ffffffff61112316565b60025433600160a060020a0390811691161415610a6f5733600160a060020a0316ff5b565b60025433600160a060020a039081169116141561065357600160a060020a0381161515610a9d57600080fd5b6106536000601b8363ffffffff61103916565b600080610abb611be0565b600080610ad981600b600160a060020a03891663ffffffff61152816565b9250600091505b610af36000600b8563ffffffff61153b16565b15610b3257610b21601187610b116000600b8863ffffffff61154816565b600092919063ffffffff61155516565b938401936001909201919050610ae0565b5091949350505050565b60025460009033600160a060020a039081169116141561062457600160a060020a0382161515610b6e57506000610624565b600354600160a060020a031615610b905760038054600160a060020a03191690555b5060028054600160a060020a038316600160a060020a03199091161790556001919050565b600061059f81601c63ffffffff61147616565b60006106213383610656565b600254600160a060020a031681565b60025460009081908190819033600160a060020a0390811691161415610d1157600092505b8551831015610d0c57858381518110610c1d57fe5b90602001906020020151915081600160a060020a03166370a082313060405160e060020a63ffffffff8416028152600160a060020a039091166004820152602401602060405180830381600087803b1515610c7757600080fd5b5af11515610c8457600080fd5b50505060405180519150508015610d015781600160a060020a031663a9059cbb868360405160e060020a63ffffffff8516028152600160a060020a0390921660048301526024820152604401602060405180830381600087803b1515610ce957600080fd5b5af11515610cf657600080fd5b505050604051805150505b600190920191610c08565b600193505b50505092915050565b6000610d457f466561747572654665654d616e616765720000000000000000000000000000006108cb565b600160a060020a031633600160a060020a03161415610da157600160a060020a0383161515610d7357600080fd5b610d7b610da7565b600160a060020a03161515610d8c57fe5b610d9e83610d98610da7565b8461117a565b90505b92915050565b600061059f81601b63ffffffff61112316565b600080610de67f557365724d616e616765720000000000000000000000000000000000000000006108cb565b905080600160a060020a0316632aa09e5a8460405160e060020a63ffffffff8416028152600160a060020a039091166004820152602401602060405180830381600087803b1515610e3657600080fd5b5af11515610e4357600080fd5b5050506040518051949350505050565b600554600160a060020a031690565b60025460009081908190819033600160a060020a03908116911614610e8657600080fd5b600160a060020a0386161515610e9b57600080fd5b600454600160a060020a0316158015935080610ec55750600454600160a060020a03878116911614155b15610ee65760048054600160a060020a031916600160a060020a0388161790555b600454600160a060020a031691508163bc65792760405160e060020a63ffffffff83160281527f4d756c74694576656e7473486973746f727900000000000000000000000000006004820152602401602060405180830381600087803b1515610f4e57600080fd5b5af11515610f5b57600080fd5b5050506040518051915050600160a060020a03811615801590610f8c5750600554600160a060020a03828116911614155b15610fad5760058054600160a060020a031916600160a060020a0383161790555b84156110275781600160a060020a031663b7c46cd5308760405160e060020a63ffffffff8516028152600160a060020a0390921660048301526024820152604401602060405180830381600087803b151561100757600080fd5b5af1151561101457600080fd5b5050506040518051600114905061102757fe5b8215610d0c5760069695505050505050565b825460018401548354600160a060020a03909216916379a7cfee91908460405160e060020a63ffffffff861602815260048101939093526024830191909152600160a060020a03166044820152606401600060405180830381600087803b15156110a257600080fd5b5af115156110af57600080fd5b505050505050565b825460018401548354600160a060020a03909216916353e7168b91908460405160e060020a63ffffffff8616028152600481019390935260248301919091526044820152606401600060405180830381600087803b15156110a257600080fd5b6000610d9e8383611575565b815460018301548254600092600160a060020a03169163d3a396869160405160e060020a63ffffffff851602815260048101929092526024820152604401602060405180830381600087803b1515610e3657600080fd5b6000806000611187611be0565b600080600080600080611198610bb5565b8b11156111a957612ee7995061142d565b6111b28d610ab0565b8b11156111c357612ee6995061142d565b6111cb610943565b600160a060020a031663d9caed126111e1610a39565b8e8e60405160e060020a63ffffffff8616028152600160a060020a0393841660048201529190921660248201526044810191909152606401602060405180830381600087803b151561123257600080fd5b5af1151561123f57600080fd5b50505060405180519050151561125957612ee3995061142d565b8a98506112658d610ab0565b156113a45761128d600b8e600160a060020a031660010260006115289092919063ffffffff16565b965061129887611590565b9550851561138a57600097505b6112b86000600b8963ffffffff61153b16565b1561138a576112d06000600b8963ffffffff61154816565b94506112e6600060118f8863ffffffff61155516565b9350838b101561130c57611307600060118f888f890363ffffffff6114df16565b61138a565b838b141561134557611339600b8e600160a060020a031660010287600061159d909392919063ffffffff16565b6000199095019461138a565b838b111561137f57838b039a50611377600b8e600160a060020a031660010287600061159d909392919063ffffffff16565b600019909501945b6001909701966112a5565b8515156113a4576113a4600060068f63ffffffff6115a916565b6113ad8d610ab0565b91506113c16000601563ffffffff6114fc16565b9650600097505b6113db600060158963ffffffff61150e16565b15611400576113f3600060158963ffffffff61151b16565b60019098019790506113c8565b61142860138a61141760008363ffffffff61147616565b60009291900363ffffffff6110b716565b600199505b5050505050505050509392505050565b60006114538484600160a060020a0385166115bd565b90505b9392505050565b6114718383600160a060020a0384166115d9565b505050565b815460018301548254600092600160a060020a0316916353aa3f5e9160405160e060020a63ffffffff851602815260048101929092526024820152604401602060405180830381600087803b1515610e3657600080fd5b6114d9848484846115f3565b50505050565b6114f58585600160a060020a03861685856115ff565b5050505050565b611504611be0565b610d9e8383611623565b6000611453848484611644565b600061145384848461167f565b611530611be0565b6114538484846116cb565b600061145384848461150e565b600061145384848461151b565b600061156c8585600160a060020a038616856116de565b95945050505050565b6000610d9e8383600080516020611df5833981519152611703565b6000816020015192915050565b6114d984848484611710565b6114718383600160a060020a03841661171c565b60006114538484600080516020611df583398151915285611736565b6114718383600080516020611df583398151915284611772565b6114d984848484611772565b6114f58585858560405191825260208201526040908101905180910390208461183a565b61162b611be0565b610d9e8383600080516020611df58339815191526118c8565b6000816020015115806116685750611666848484606001518560400151611736565b155b1561167557506000611456565b5060019392505050565b600061168c848484611644565b151561169757600080fd5b816040015190506116b28484846060015185604001516118e6565b6040830152600160208301818151039052509392505050565b6116d3611be0565b6114538484846118c8565b600061156c8585858560405191825260208201526040908101905180910390206118f7565b6000611453848484611984565b6114d9848484846119f3565b6114718383600080516020611df5833981519152846119f3565b6000811580159061156c5750611751858560030185856116de565b15158061156c5750816117688660028701866118f7565b1495945050505050565b80151561177e57600080fd5b61178a84848484611736565b15611794576114d9565b61179f848484611703565b15156117b4576117b48484600101848461183a565b6117c28484600201846118f7565b15611801576117e48484600301846117de8888600201886118f7565b85611aee565b611801848460040184846117fc8989600201896118f7565b611aee565b611812846003850184846000611aee565b6118218484600201848461183a565b6114d9848484611832838383611984565b600101611b01565b835460018501548454600160a060020a039092169163a14ff85791908560405191825260208201526040908101905180910390208460405160e060020a63ffffffff8616028152600481019390935260248301919091526044820152606401600060405180830381600087803b15156118b257600080fd5b5af115156118bf57600080fd5b50505050505050565b6118d0611be0565b6114538484846118e1838383611984565b611b79565b600061156c858560030185856116de565b825460018401548354600092600160a060020a0316916337d9d7fc9185604051918252602082015260409081019051809103902060405160e060020a63ffffffff851602815260048101929092526024820152604401602060405180830381600087803b151561196657600080fd5b5af1151561197357600080fd5b505050604051805195945050505050565b825460018401548354600092600160a060020a0316916353aa3f5e9185604051918252602082015260409081019051809103902060405160e060020a63ffffffff851602815260048101929092526024820152604401602060405180830381600087803b151561196657600080fd5b6119ff84848484611736565b1515611a0a576114d9565b611a31848460030184611a22888860040188886116de565b6117fc898960030189896116de565b611a58848460040184611a49888860030188886116de565b6117fc898960040189896116de565b611a668484600101846118f7565b811415611a8a57611a8a848460010184611a85888860030188886116de565b61183a565b611a988484600201846118f7565b811415611ab757611ab7848460020184611a85888860040188886116de565b611ac684846003018484611b99565b611ad584846004018484611b99565b6114d98484846001611ae8848484611984565b03611b01565b81156114f5576114f585858585856115ff565b835460018501548454600160a060020a03909216916353e7168b91908560405191825260208201526040908101905180910390208460405160e060020a63ffffffff8616028152600481019390935260248301919091526044820152606401600060405180830381600087803b15156118b257600080fd5b611b81611be0565b61156c83611b938787600101876118f7565b84611bad565b80156114d9576114d98484848460006115ff565b611bb5611be0565b6080604051908101604090815283825260208201939093529182019290925260608101929092525090565b60806040519081016040908152600080835260208301819052908201819052606082015290565b8254600160a060020a031916600160a060020a0392909216919091178255600190910155565b611c378282611c6b565b5050565b611c378282611c2d565b8154611c519082611dc6565b9055565b611c378282611c45565b8154611c519082611dc6565b611cac82826040519081527f75696e742f636f756e74000000000000000000000000000000000000000000006020820152602a016040518091039020611c45565b611cf082600101826040519081527f75696e742f6669727374000000000000000000000000000000000000000000006020820152602a016040518091039020611c45565b611d3482600201826040519081527f75696e742f6c617374000000000000000000000000000000000000000000000060208201526029016040518091039020611c45565b611d7882600301826040519081527f75696e742f6e657874000000000000000000000000000000000000000000000060208201526029016040518091039020611c45565b611c3782600401826040519081527f75696e742f70726576000000000000000000000000000000000000000000000060208201526029016040518091039020611c45565b611c378282611c6b565b81151580611dd2575080155b15611c3757600080fd5b8154611c519082611dc6565b8154611c519082611dc656006f7264657265645f736574000000000000000000000000000000000000000000a165627a7a72305820aaeb0d41faea3c0acc00cae53b238358edb921afbde147702ceb9a4f8cd7358e0029",
  "source": "pragma solidity ^0.4.11;\n\nimport \"./DepositsDeprecated.sol\";\nimport {ERC20Interface as Asset} from \"../../core/erc20/ERC20Interface.sol\";\nimport \"../../timeholder/DepositWalletInterface.sol\";\n\ncontract TimeHolderDeprecated is DepositsDeprecated {\n\n    uint constant ERROR_TIMEHOLDER_ALREADY_ADDED = 12000;\n    uint constant ERROR_TIMEHOLDER_INVALID_INVOCATION = 12001;\n    uint constant ERROR_TIMEHOLDER_INVALID_STATE = 12002;\n    uint constant ERROR_TIMEHOLDER_TRANSFER_FAILED = 12003;\n    uint constant ERROR_TIMEHOLDER_WITHDRAWN_FAILED = 12004;\n    uint constant ERROR_TIMEHOLDER_DEPOSIT_FAILED = 12005;\n    uint constant ERROR_TIMEHOLDER_INSUFFICIENT_BALANCE = 12006;\n    uint constant ERROR_TIMEHOLDER_LIMIT_EXCEEDED = 12007;\n\n    StorageInterface.OrderedAddressesSet listeners;\n    StorageInterface.Address walletStorage;\n    StorageInterface.Address feeWalletStorage;\n    StorageInterface.UInt limitAmount;\n\n    modifier onlyFeatureFeeManager() {\n        if (msg.sender == lookupManager(\"FeatureFeeManager\")) {\n            _;\n        }\n    }\n\n    function TimeHolderDeprecated(Storage _store, bytes32 _crate) DepositsDeprecated(_store, _crate) {\n        listeners.init('listeners');\n        limitAmount.init('limitAmount');\n        feeWalletStorage.init(\"timeHolderFeeWalletStorage\");\n        walletStorage.init(\"timeHolderWalletStorage\");\n    }\n\n    /**\n     * Init TimeHolder contract.\n     *\n     *\n     * @param _contractsManager address.\n     * @param _sharesContract ERC20 token address to act as shares.\n     *\n     * @return success.\n     */\n    function init(address _contractsManager, address _sharesContract, address _wallet, address _feeWallet) onlyContractOwner returns (uint) {\n        require(_wallet != 0x0);\n        require(_sharesContract != 0x0);\n        require(_feeWallet != 0x0);\n\n        BaseManager.init(_contractsManager, \"TimeHolder\");\n\n        store.set(sharesContractStorage, _sharesContract);\n        store.set(limitAmount, 2**255);\n        store.set(walletStorage, _wallet);\n        store.set(feeWalletStorage, _feeWallet);\n\n        return OK;\n    }\n\n    function destroy() onlyContractOwner {\n        selfdestruct(msg.sender);\n    }\n\n\n    /**\n    *  Sets fee wallet address.\n    */\n    function setFeeWallet(address _feeWallet) onlyContractOwner {\n        require(_feeWallet != 0x0);\n        store.set(feeWalletStorage, _feeWallet);\n    }\n\n    /**\n    * Gets an associated wallet for the time holder\n    */\n    function wallet() constant returns (address) {\n        return store.get(walletStorage);\n    }\n\n    /**\n    * Gets an associated fee wallet for the time holder\n    */\n    function feeWallet() constant returns (address) {\n        return store.get(feeWalletStorage);\n    }\n\n    /**\n    * Total amount of shares\n    *\n    * @return total amount of shares\n    */\n    function totalShares() constant returns (uint) {\n        return store.get(totalSharesStorage);\n    }\n\n    /**\n    * Contract address of shares\n    *\n    * @return address of shares contract\n    */\n    function sharesContract() constant returns (address) {\n        return store.get(sharesContractStorage);\n    }\n\n    /**\n    * Number of shareholders\n    *\n    * @return number of shareholders\n    */\n    function shareholdersCount() constant returns (uint) {\n        return store.count(shareholders);\n    }\n\n    /**\n    * Returns deposit/withdraw limit\n    *\n    * @return limit\n    */\n    function getLimit() constant returns (uint) {\n        return store.get(limitAmount);\n    }\n\n    /**\n    * Setter deposit/withdraw limit\n    *\n    * @param _limitAmount is limit\n    */\n    function setLimit(uint _limitAmount) onlyContractOwner {\n        store.set(limitAmount, _limitAmount);\n    }\n\n    /**\n     * Deposit shares and prove possession.\n     * Amount should be less than or equal to current allowance value.\n     *\n     * Proof should be repeated for each active period. To prove possesion without\n     * depositing more shares, specify 0 amount.\n     *\n     * @param _amount amount of shares to deposit, or 0 to just prove.\n     *\n     * @return success.\n     */\n    function deposit(uint _amount) returns (uint) {\n        return depositFor(msg.sender, _amount);\n    }\n\n    /**\n     * Deposit own shares and prove possession for arbitrary shareholder.\n     * Amount should be less than or equal to caller current allowance value.\n     *\n     * Proof should be repeated for each active period. To prove possesion without\n     * depositing more shares, specify 0 amount.\n     *\n     * This function meant to be used by some backend application to prove shares possesion\n     * of arbitrary shareholders.\n     *\n     * @param _address to deposit and prove for.\n     * @param _amount amount of shares to deposit, or 0 to just prove.\n     *\n     * @return success.\n     */\n    function depositFor(address _address, uint _amount) returns (uint) {\n        if (_amount > getLimit()) {\n            return (ERROR_TIMEHOLDER_LIMIT_EXCEEDED);\n        }\n\n        address asset = store.get(sharesContractStorage);\n        if (!(_amount == 0 || DepositWalletInterface(wallet()).deposit(asset, msg.sender, _amount))) {\n            return (ERROR_TIMEHOLDER_TRANSFER_FAILED);\n        }\n\n        if(!store.includes(shareholders,_address)) {\n            store.add(shareholders,_address);\n        }\n\n        uint prevId = store.get(depositsIdCounter);\n        uint id = prevId + 1;\n        store.set(depositsIdCounter, id);\n        store.add(deposits,bytes32(_address),id);\n        store.set(amounts,_address,id,_amount);\n        store.set(timestamps,_address,id,now);\n\n        uint balance = depositBalance(_address);\n        uint errorCode;\n        StorageInterface.Iterator memory iterator = store.listIterator(listeners);\n        for(uint i = 0; store.canGetNextWithIterator(listeners,iterator); i++) {\n            address listener = store.getNextWithIterator(listeners,iterator);\n            //ListenerInterface(listener).deposit(_address, _amount, balance);\n        }\n\n        //_emitDeposit(_address, _amount);\n\n        uint prevAmount = store.get(totalSharesStorage);\n        _amount += prevAmount;\n        store.set(totalSharesStorage,_amount);\n\n        return OK;\n    }\n\n    /**\n    * Withdraw shares from the contract, updating the possesion proof in active period.\n    *\n    * @param _amount amount of shares to withdraw.\n    *\n    * @return success.\n    */\n    function withdrawShares(uint _amount) returns (uint resultCode) {\n        resultCode = _withdrawShares(msg.sender, msg.sender, _amount);\n        if (resultCode != OK) {\n            return (resultCode);\n        }\n\n        //_emitWithdrawShares(msg.sender, _amount);\n    }\n\n    /**\n    * @dev Provides a way to support getting additional fee for using features of the system.\n    *\n    * @param _account holder of deposits, will pay for using a features\n    * @param _amount size of a fee\n    *\n    * @return resultCode result code of the operation\n    */\n    function takeFeatureFee(address _account, uint _amount) onlyFeatureFeeManager\n    public returns (uint resultCode)\n    {\n        require(_account != 0x0);\n\n        assert(feeWallet() != 0x0);\n\n        resultCode = _withdrawShares(_account, feeWallet(), _amount);\n        if (resultCode != OK) {\n            return resultCode;\n        }\n\n        //_emitFeatureFeeTaken(_account, feeWallet(), _amount);\n    }\n\n    /**\n    * @dev Withdraws deposited amount of tokens from account to a receiver address.\n    * Emits its own errorCodes if some will be encountered.\n    *\n    * @param _account an address that have deposited tokens\n    * @param _receiver an address that will receive tokens from _account\n    * @param _amount amount of tokens to withdraw to the _receiver\n    *\n    * @return result code of the operation\n    */\n    function _withdrawShares(address _account, address _receiver, uint _amount) internal returns (uint) {\n        if (_amount > getLimit()) {\n            return ERROR_TIMEHOLDER_LIMIT_EXCEEDED;\n        }\n\n        if (_amount > depositBalance(_account)) {\n            return ERROR_TIMEHOLDER_INSUFFICIENT_BALANCE;\n        }\n\n        if (!DepositWalletInterface(wallet()).withdraw(sharesContract(), _receiver, _amount)) {\n            return ERROR_TIMEHOLDER_TRANSFER_FAILED;\n        }\n\n        uint _original_amount = _amount;\n        uint i;\n\n        StorageInterface.Iterator memory iterator;\n\n        if (depositBalance(_account) != 0) {\n            iterator = store.listIterator(deposits, bytes32(_account));\n            uint deposits_count = iterator.count();\n            if (deposits_count != 0) {\n                for (i = 0; store.canGetNextWithIterator(deposits,iterator); i++) {\n                    uint _id = store.getNextWithIterator(deposits,iterator);\n                    uint _cur_amount = store.get(amounts, _account, _id);\n                    if (_amount < _cur_amount) {\n                        store.set(amounts, _account, _id, _cur_amount - _amount);\n                        break;\n                    }\n                    if (_amount == _cur_amount) {\n                        store.remove(deposits, bytes32(_account), _id);\n                        deposits_count--;\n                        break;\n                    }\n                    if (_amount > _cur_amount) {\n                        _amount -= _cur_amount;\n                        store.remove(deposits, bytes32(_account), _id);\n                        deposits_count--;\n                    }\n                }\n            }\n            if (deposits_count == 0) {\n                store.remove(shareholders, _account);\n            }\n        }\n\n        uint errorCode;\n        uint balance = depositBalance(_account);\n\n        iterator = store.listIterator(listeners);\n        for (i = 0; store.canGetNextWithIterator(listeners,iterator); i++) {\n            address listener = store.getNextWithIterator(listeners, iterator);\n            /* errorCode = ListenerInterface(listener).withdrawn(_account, _original_amount, balance);\n            if (errorCode != OK) {\n                errorCode;\n            } */\n        }\n\n        store.set(totalSharesStorage,store.get(totalSharesStorage) - _original_amount);\n\n        return OK;\n    }\n\n    function totalSupply() constant returns (uint) {\n        address asset = store.get(sharesContractStorage);\n        return ERC20Interface(asset).totalSupply();\n    }\n}\n",
  "sourcePath": "/Users/ahiatsevich/Development/chronobank/SmartContracts/contracts/helpers/legacy/TimeHolderDeprecated.sol",
  "compiler": {
    "name": "solc",
    "version": "0.4.21+commit.dfe3193c.Emscripten.clang"
  },
  "schemaVersion": "2.0.0",
  "updatedAt": "2018-04-05T14:52:03.910Z"
}