{
  "contractName": "TimeHolder",
  "abi": [
    {
      "constant": false,
      "inputs": [],
      "name": "claimContractOwnership",
      "outputs": [
        {
          "name": "",
          "type": "bool"
        }
      ],
      "payable": false,
      "stateMutability": "nonpayable",
      "type": "function"
    },
    {
      "constant": true,
      "inputs": [
        {
          "name": "_identifier",
          "type": "bytes32"
        }
      ],
      "name": "lookupManager",
      "outputs": [
        {
          "name": "manager",
          "type": "address"
        }
      ],
      "payable": false,
      "stateMutability": "view",
      "type": "function"
    },
    {
      "constant": true,
      "inputs": [],
      "name": "contractsManager",
      "outputs": [
        {
          "name": "",
          "type": "address"
        }
      ],
      "payable": false,
      "stateMutability": "view",
      "type": "function"
    },
    {
      "constant": false,
      "inputs": [
        {
          "name": "listener",
          "type": "address"
        },
        {
          "name": "token",
          "type": "address"
        }
      ],
      "name": "emitListenerAdded",
      "outputs": [],
      "payable": false,
      "stateMutability": "nonpayable",
      "type": "function"
    },
    {
      "constant": false,
      "inputs": [
        {
          "name": "_to",
          "type": "address"
        }
      ],
      "name": "changeContractOwnership",
      "outputs": [
        {
          "name": "",
          "type": "bool"
        }
      ],
      "payable": false,
      "stateMutability": "nonpayable",
      "type": "function"
    },
    {
      "constant": true,
      "inputs": [],
      "name": "pendingContractOwner",
      "outputs": [
        {
          "name": "",
          "type": "address"
        }
      ],
      "payable": false,
      "stateMutability": "view",
      "type": "function"
    },
    {
      "constant": false,
      "inputs": [
        {
          "name": "_eventsHistory",
          "type": "address"
        }
      ],
      "name": "setEventsHistory",
      "outputs": [],
      "payable": false,
      "stateMutability": "nonpayable",
      "type": "function"
    },
    {
      "constant": false,
      "inputs": [
        {
          "name": "_contractsManager",
          "type": "address"
        }
      ],
      "name": "setContractsManager",
      "outputs": [],
      "payable": false,
      "stateMutability": "nonpayable",
      "type": "function"
    },
    {
      "constant": false,
      "inputs": [
        {
          "name": "token",
          "type": "address"
        },
        {
          "name": "who",
          "type": "address"
        },
        {
          "name": "amount",
          "type": "uint256"
        },
        {
          "name": "receiver",
          "type": "address"
        }
      ],
      "name": "emitWithdrawShares",
      "outputs": [],
      "payable": false,
      "stateMutability": "nonpayable",
      "type": "function"
    },
    {
      "constant": false,
      "inputs": [],
      "name": "destroy",
      "outputs": [],
      "payable": false,
      "stateMutability": "nonpayable",
      "type": "function"
    },
    {
      "constant": false,
      "inputs": [
        {
          "name": "token",
          "type": "address"
        },
        {
          "name": "who",
          "type": "address"
        },
        {
          "name": "amount",
          "type": "uint256"
        }
      ],
      "name": "emitDeposit",
      "outputs": [],
      "payable": false,
      "stateMutability": "nonpayable",
      "type": "function"
    },
    {
      "constant": false,
      "inputs": [
        {
          "name": "_from",
          "type": "address"
        },
        {
          "name": "_to",
          "type": "address"
        },
        {
          "name": "_amount",
          "type": "uint256"
        }
      ],
      "name": "emitFeatureFeeTaken",
      "outputs": [],
      "payable": false,
      "stateMutability": "nonpayable",
      "type": "function"
    },
    {
      "constant": false,
      "inputs": [
        {
          "name": "listener",
          "type": "address"
        },
        {
          "name": "token",
          "type": "address"
        }
      ],
      "name": "emitListenerRemoved",
      "outputs": [],
      "payable": false,
      "stateMutability": "nonpayable",
      "type": "function"
    },
    {
      "constant": false,
      "inputs": [
        {
          "name": "_to",
          "type": "address"
        }
      ],
      "name": "transferContractOwnership",
      "outputs": [
        {
          "name": "",
          "type": "bool"
        }
      ],
      "payable": false,
      "stateMutability": "nonpayable",
      "type": "function"
    },
    {
      "constant": true,
      "inputs": [],
      "name": "contractOwner",
      "outputs": [
        {
          "name": "",
          "type": "address"
        }
      ],
      "payable": false,
      "stateMutability": "view",
      "type": "function"
    },
    {
      "constant": false,
      "inputs": [
        {
          "name": "tokens",
          "type": "address[]"
        },
        {
          "name": "_to",
          "type": "address"
        }
      ],
      "name": "withdrawnTokens",
      "outputs": [
        {
          "name": "",
          "type": "uint256"
        }
      ],
      "payable": false,
      "stateMutability": "nonpayable",
      "type": "function"
    },
    {
      "constant": false,
      "inputs": [
        {
          "name": "error",
          "type": "uint256"
        }
      ],
      "name": "emitError",
      "outputs": [],
      "payable": false,
      "stateMutability": "nonpayable",
      "type": "function"
    },
    {
      "constant": false,
      "inputs": [
        {
          "name": "token",
          "type": "address"
        },
        {
          "name": "limit",
          "type": "uint256"
        },
        {
          "name": "isAdded",
          "type": "bool"
        }
      ],
      "name": "emitSharesWhiteListChanged",
      "outputs": [],
      "payable": false,
      "stateMutability": "nonpayable",
      "type": "function"
    },
    {
      "constant": true,
      "inputs": [
        {
          "name": "key",
          "type": "address"
        }
      ],
      "name": "isAuthorized",
      "outputs": [
        {
          "name": "",
          "type": "bool"
        }
      ],
      "payable": false,
      "stateMutability": "view",
      "type": "function"
    },
    {
      "constant": true,
      "inputs": [],
      "name": "getEventsHistory",
      "outputs": [
        {
          "name": "",
          "type": "address"
        }
      ],
      "payable": false,
      "stateMutability": "view",
      "type": "function"
    },
    {
      "inputs": [
        {
          "name": "_store",
          "type": "address"
        },
        {
          "name": "_crate",
          "type": "bytes32"
        }
      ],
      "payable": false,
      "stateMutability": "nonpayable",
      "type": "constructor"
    },
    {
      "anonymous": false,
      "inputs": [
        {
          "indexed": false,
          "name": "token",
          "type": "address"
        },
        {
          "indexed": false,
          "name": "who",
          "type": "address"
        },
        {
          "indexed": false,
          "name": "amount",
          "type": "uint256"
        }
      ],
      "name": "Deposit",
      "type": "event"
    },
    {
      "anonymous": false,
      "inputs": [
        {
          "indexed": false,
          "name": "token",
          "type": "address"
        },
        {
          "indexed": false,
          "name": "who",
          "type": "address"
        },
        {
          "indexed": false,
          "name": "amount",
          "type": "uint256"
        },
        {
          "indexed": false,
          "name": "receiver",
          "type": "address"
        }
      ],
      "name": "WithdrawShares",
      "type": "event"
    },
    {
      "anonymous": false,
      "inputs": [
        {
          "indexed": false,
          "name": "listener",
          "type": "address"
        },
        {
          "indexed": false,
          "name": "token",
          "type": "address"
        }
      ],
      "name": "ListenerAdded",
      "type": "event"
    },
    {
      "anonymous": false,
      "inputs": [
        {
          "indexed": false,
          "name": "listener",
          "type": "address"
        },
        {
          "indexed": false,
          "name": "token",
          "type": "address"
        }
      ],
      "name": "ListenerRemoved",
      "type": "event"
    },
    {
      "anonymous": false,
      "inputs": [
        {
          "indexed": false,
          "name": "token",
          "type": "address"
        }
      ],
      "name": "SharesWhiteListAdded",
      "type": "event"
    },
    {
      "anonymous": false,
      "inputs": [
        {
          "indexed": false,
          "name": "token",
          "type": "address"
        },
        {
          "indexed": false,
          "name": "limit",
          "type": "uint256"
        },
        {
          "indexed": true,
          "name": "isAdded",
          "type": "bool"
        }
      ],
      "name": "SharesWhiteListChanged",
      "type": "event"
    },
    {
      "anonymous": false,
      "inputs": [
        {
          "indexed": false,
          "name": "self",
          "type": "address"
        },
        {
          "indexed": true,
          "name": "from",
          "type": "address"
        },
        {
          "indexed": true,
          "name": "to",
          "type": "address"
        },
        {
          "indexed": false,
          "name": "amount",
          "type": "uint256"
        }
      ],
      "name": "FeatureFeeTaken",
      "type": "event"
    },
    {
      "anonymous": false,
      "inputs": [
        {
          "indexed": true,
          "name": "self",
          "type": "address"
        },
        {
          "indexed": false,
          "name": "errorCode",
          "type": "uint256"
        }
      ],
      "name": "Error",
      "type": "event"
    },
    {
      "constant": false,
      "inputs": [
        {
          "name": "_contractsManager",
          "type": "address"
        },
        {
          "name": "_defaultToken",
          "type": "address"
        },
        {
          "name": "_wallet",
          "type": "address"
        },
        {
          "name": "_feeWallet",
          "type": "address"
        },
        {
          "name": "_erc20DepositStorage",
          "type": "address"
        }
      ],
      "name": "init",
      "outputs": [
        {
          "name": "",
          "type": "uint256"
        }
      ],
      "payable": false,
      "stateMutability": "nonpayable",
      "type": "function"
    },
    {
      "constant": true,
      "inputs": [
        {
          "name": "_depositor",
          "type": "address"
        }
      ],
      "name": "depositBalance",
      "outputs": [
        {
          "name": "",
          "type": "uint256"
        }
      ],
      "payable": false,
      "stateMutability": "view",
      "type": "function"
    },
    {
      "constant": true,
      "inputs": [
        {
          "name": "_token",
          "type": "address"
        },
        {
          "name": "_depositor",
          "type": "address"
        }
      ],
      "name": "getDepositBalance",
      "outputs": [
        {
          "name": "_balance",
          "type": "uint256"
        }
      ],
      "payable": false,
      "stateMutability": "view",
      "type": "function"
    },
    {
      "constant": false,
      "inputs": [
        {
          "name": "_whitelist",
          "type": "address[]"
        },
        {
          "name": "_limits",
          "type": "uint256[]"
        }
      ],
      "name": "allowShares",
      "outputs": [],
      "payable": false,
      "stateMutability": "nonpayable",
      "type": "function"
    },
    {
      "constant": false,
      "inputs": [
        {
          "name": "_blacklist",
          "type": "address[]"
        }
      ],
      "name": "denyShares",
      "outputs": [],
      "payable": false,
      "stateMutability": "nonpayable",
      "type": "function"
    },
    {
      "constant": false,
      "inputs": [
        {
          "name": "_token",
          "type": "address"
        },
        {
          "name": "_listener",
          "type": "address"
        }
      ],
      "name": "addListener",
      "outputs": [],
      "payable": false,
      "stateMutability": "nonpayable",
      "type": "function"
    },
    {
      "constant": false,
      "inputs": [
        {
          "name": "_token",
          "type": "address"
        },
        {
          "name": "_listener",
          "type": "address"
        }
      ],
      "name": "removeListener",
      "outputs": [],
      "payable": false,
      "stateMutability": "nonpayable",
      "type": "function"
    },
    {
      "constant": true,
      "inputs": [
        {
          "name": "_token",
          "type": "address"
        },
        {
          "name": "_listener",
          "type": "address"
        }
      ],
      "name": "isListener",
      "outputs": [
        {
          "name": "",
          "type": "bool"
        }
      ],
      "payable": false,
      "stateMutability": "view",
      "type": "function"
    },
    {
      "constant": false,
      "inputs": [
        {
          "name": "_feeWallet",
          "type": "address"
        }
      ],
      "name": "setFeeWallet",
      "outputs": [],
      "payable": false,
      "stateMutability": "nonpayable",
      "type": "function"
    },
    {
      "constant": false,
      "inputs": [
        {
          "name": "_token",
          "type": "address"
        },
        {
          "name": "_amount",
          "type": "uint256"
        }
      ],
      "name": "deposit",
      "outputs": [
        {
          "name": "",
          "type": "uint256"
        }
      ],
      "payable": false,
      "stateMutability": "nonpayable",
      "type": "function"
    },
    {
      "constant": false,
      "inputs": [
        {
          "name": "_token",
          "type": "address"
        },
        {
          "name": "_target",
          "type": "address"
        },
        {
          "name": "_amount",
          "type": "uint256"
        }
      ],
      "name": "depositFor",
      "outputs": [
        {
          "name": "",
          "type": "uint256"
        }
      ],
      "payable": false,
      "stateMutability": "nonpayable",
      "type": "function"
    },
    {
      "constant": false,
      "inputs": [
        {
          "name": "_token",
          "type": "address"
        },
        {
          "name": "_amount",
          "type": "uint256"
        }
      ],
      "name": "withdrawShares",
      "outputs": [
        {
          "name": "resultCode",
          "type": "uint256"
        }
      ],
      "payable": false,
      "stateMutability": "nonpayable",
      "type": "function"
    },
    {
      "constant": false,
      "inputs": [
        {
          "name": "_from",
          "type": "address"
        },
        {
          "name": "_token",
          "type": "address"
        },
        {
          "name": "_amount",
          "type": "uint256"
        }
      ],
      "name": "forceWithdrawShares",
      "outputs": [
        {
          "name": "resultCode",
          "type": "uint256"
        }
      ],
      "payable": false,
      "stateMutability": "nonpayable",
      "type": "function"
    },
    {
      "constant": false,
      "inputs": [
        {
          "name": "_account",
          "type": "address"
        },
        {
          "name": "_amount",
          "type": "uint256"
        }
      ],
      "name": "takeFeatureFee",
      "outputs": [
        {
          "name": "resultCode",
          "type": "uint256"
        }
      ],
      "payable": false,
      "stateMutability": "nonpayable",
      "type": "function"
    },
    {
      "constant": true,
      "inputs": [],
      "name": "wallet",
      "outputs": [
        {
          "name": "",
          "type": "address"
        }
      ],
      "payable": false,
      "stateMutability": "view",
      "type": "function"
    },
    {
      "constant": true,
      "inputs": [],
      "name": "feeWallet",
      "outputs": [
        {
          "name": "",
          "type": "address"
        }
      ],
      "payable": false,
      "stateMutability": "view",
      "type": "function"
    },
    {
      "constant": true,
      "inputs": [
        {
          "name": "_token",
          "type": "address"
        }
      ],
      "name": "totalShares",
      "outputs": [
        {
          "name": "",
          "type": "uint256"
        }
      ],
      "payable": false,
      "stateMutability": "view",
      "type": "function"
    },
    {
      "constant": true,
      "inputs": [],
      "name": "defaultShareholdersCount",
      "outputs": [
        {
          "name": "",
          "type": "uint256"
        }
      ],
      "payable": false,
      "stateMutability": "view",
      "type": "function"
    },
    {
      "constant": true,
      "inputs": [
        {
          "name": "_token",
          "type": "address"
        }
      ],
      "name": "shareholdersCount",
      "outputs": [
        {
          "name": "",
          "type": "uint256"
        }
      ],
      "payable": false,
      "stateMutability": "view",
      "type": "function"
    },
    {
      "constant": true,
      "inputs": [
        {
          "name": "_token",
          "type": "address"
        }
      ],
      "name": "getLimitForToken",
      "outputs": [
        {
          "name": "",
          "type": "uint256"
        }
      ],
      "payable": false,
      "stateMutability": "view",
      "type": "function"
    },
    {
      "constant": true,
      "inputs": [],
      "name": "getDefaultShares",
      "outputs": [
        {
          "name": "",
          "type": "address"
        }
      ],
      "payable": false,
      "stateMutability": "view",
      "type": "function"
    }
  ],
  "bytecode": "0x606060405234156200001057600080fd5b60405160408062003327833981016040528080519190602001805191508290508181818181620000516000838364010000000062002ab0620001f582021704565b505060028054600160a060020a03338116600160a060020a03199283161790925560058054309093169290911691909117905550620000c69250600691507f736861726573436f6e74726163747353746f726167655f763200000000000000905064010000000062002ad66200021b82021704565b6200010160097f6c696d6974416d6f756e747353746f726167655f76320000000000000000000064010000000062002ae06200023982021704565b6200013c600a7f6c697374656e6572735f7632000000000000000000000000000000000000000064010000000062002aea6200025382021704565b62000177600f7f74696d65486f6c64657257616c6c657453746f7261676500000000000000000064010000000062002af46200026d82021704565b620001b260107f74696d65486f6c64657246656557616c6c657453746f7261676500000000000064010000000062002af46200026d82021704565b620001ed60117f65726332304465706f73697453746f726167650000000000000000000000000064010000000062002af46200026d82021704565b505062000589565b8254600160a060020a031916600160a060020a0392909216919091178255600190910155565b62000235828264010000000062002b046200028d82021704565b5050565b62000235828264010000000062002af46200026d82021704565b62000235828264010000000062002bd96200039882021704565b815462000289908264010000000062002be3620003b282021704565b9055565b620002e482826040519081527f636f756e74000000000000000000000000000000000000000000000000000000602082015260250160405180910390206200026d6401000000000262002af4176401000000009004565b6200033e82600101826040519081527f696e646578657300000000000000000000000000000000000000000000000000602082015260270160405180910390206200026d6401000000000262002af4176401000000009004565b6200023582600201826040519081527f76616c7565730000000000000000000000000000000000000000000000000000602082015260260160405180910390206200026d6401000000000262002af4176401000000009004565b62000235828264010000000062002c05620003ca82021704565b81151580620003bf575080155b156200023557600080fd5b6200042182826040519081527f75696e742f636f756e74000000000000000000000000000000000000000000006020820152602a0160405180910390206200026d6401000000000262002af4176401000000009004565b6200047b82600101826040519081527f75696e742f6669727374000000000000000000000000000000000000000000006020820152602a0160405180910390206200026d6401000000000262002af4176401000000009004565b620004d582600201826040519081527f75696e742f6c6173740000000000000000000000000000000000000000000000602082015260290160405180910390206200026d6401000000000262002af4176401000000009004565b6200052f82600301826040519081527f75696e742f6e6578740000000000000000000000000000000000000000000000602082015260290160405180910390206200026d6401000000000262002af4176401000000009004565b6200023582600401826040519081527f75696e742f707265760000000000000000000000000000000000000000000000602082015260290160405180910390206200026d6401000000000262002af4176401000000009004565b612d8e80620005996000396000f3006060604052600436106101df5763ffffffff60e060020a600035041663024c419981146101e45780630ae112a41461020b5780632aa852b3146102425780633253fcc814610267578063359ef75b1461027a5780634592cd1d146102b157806347e7ef24146102d85780634fe59012146102fa578063521eb2731461032c57806353253d311461033f578063544a648714610352578063557f4bc9146103775780635882a548146103965780635aa77d3c146103c05780635d1be4ac146103d35780636521afd7146103f15780636680d8c1146104105780636ab3c7001461042f57806371d3b5731461044e578063728994e71461046d57806383197ef01461049c5780638b7711b4146104af57806390d49b9d146104d7578063956501bb146104f65780639826ad6914610515578063a191d1671461053d578063a4d4f0d214610562578063a843c51f14610575578063a92ec96814610594578063aaf38b5a146105b6578063b3db428b146105db578063b59d9f1614610603578063bf6b874e1461062b578063ce606ee01461064a578063d8f9659b1461065d578063df26ca08146106b7578063e9112e9a146106cd578063eca87918146106f4578063f25f4b5614610716578063fe9fbb8014610729578063fff10aba14610748575b600080fd5b34156101ef57600080fd5b610209600160a060020a036004358116906024351661075b565b005b341561021657600080fd5b610230600160a060020a03600435811690602435166107be565b60405190815260200160405180910390f35b341561024d57600080fd5b610209600160a060020a0360043581169060243516610849565b341561027257600080fd5b61023061087e565b341561028557600080fd5b610230600160a060020a0360043581169060243581169060443581169060643581169060843516610905565b34156102bc57600080fd5b6102c4610a8e565b604051901515815260200160405180910390f35b34156102e357600080fd5b610230600160a060020a0360043516602435610ada565b341561030557600080fd5b610310600435610aee565b604051600160a060020a03909116815260200160405180910390f35b341561033757600080fd5b610310610b77565b341561034a57600080fd5b610310610b8f565b341561035d57600080fd5b610209600160a060020a0360043581169060243516610b9e565b341561038257600080fd5b6102c4600160a060020a0360043516610be8565b34156103a157600080fd5b6102096024600480358281019290820135918135918201910135610c3f565b34156103cb57600080fd5b610310610dce565b34156103de57600080fd5b6102096004803560248101910135610ddd565b34156103fc57600080fd5b610209600160a060020a0360043516610e8f565b341561041b57600080fd5b610230600160a060020a0360043516610ec5565b341561043a57600080fd5b610230600160a060020a0360043516610ed9565b341561045957600080fd5b610209600160a060020a0360043516610f59565b341561047857600080fd5b610209600160a060020a036004358116906024358116906044359060643516610f90565b34156104a757600080fd5b610209610fee565b34156104ba57600080fd5b610209600160a060020a0360043581169060243516604435611084565b34156104e257600080fd5b610209600160a060020a03600435166110d9565b341561050157600080fd5b610230600160a060020a03600435166110fa565b341561052057600080fd5b610209600160a060020a036004358116906024351660443561110d565b341561054857600080fd5b610209600160a060020a0360043581169060243516611171565b341561056d57600080fd5b6103106111bb565b341561058057600080fd5b6102c4600160a060020a036004351661120a565b341561059f57600080fd5b610230600160a060020a0360043516602435611283565b34156105c157600080fd5b6102c4600160a060020a03600435811690602435166112b7565b34156105e657600080fd5b610230600160a060020a03600435811690602435166044356112d5565b341561060e57600080fd5b610230600160a060020a0360043581169060243516604435611483565b341561063657600080fd5b610230600160a060020a03600435166114ec565b341561065557600080fd5b61031061154c565b341561066857600080fd5b610230600460248135818101908301358060208181020160405190810160405280939291908181526020018383602002808284375094965050509235600160a060020a0316925061155b915050565b34156106c257600080fd5b6102096004356116ac565b34156106d857600080fd5b610209600160a060020a036004351660243560443515156116f3565b34156106ff57600080fd5b610230600160a060020a036004351660243561173f565b341561072157600080fd5b6103106117f6565b341561073457600080fd5b6102c4600160a060020a0360043516611809565b341561075357600080fd5b6103106118af565b61076433611809565b156107ba57600160a060020a038216151561077e57600080fd5b600160a060020a038116151561079357600080fd5b6107b06000600a600160a060020a0385168463ffffffff6118be16565b6107ba81836118d9565b5050565b60006107c861194e565b600160a060020a0316630e7ae6a2848460006040516020015260405160e060020a63ffffffff8516028152600160a060020a03928316600482015291166024820152604401602060405180830381600087803b151561082657600080fd5b6102c65a03f1151561083757600080fd5b50505060405180519150505b92915050565b61085233611809565b156107ba576108746000600a600160a060020a0385168463ffffffff61196116565b6107ba8183611976565b600061088861194e565b600160a060020a0316636ab3c70061089e6111bb565b60006040516020015260405160e060020a63ffffffff8416028152600160a060020a039091166004820152602401602060405180830381600087803b15156108e557600080fd5b6102c65a03f115156108f657600080fd5b50505060405180519150505b90565b60025460009033600160a060020a0390811691161415610a8557600160a060020a038516151561093457600080fd5b600160a060020a038416151561094957600080fd5b600160a060020a038316151561095e57600080fd5b600160a060020a038216151561097357600080fd5b61099d867f54696d65486f6c646572000000000000000000000000000000000000000000006119d3565b506109b16000600f8663ffffffff611bc416565b6109c4600060108563ffffffff611bc416565b6109d7600060118463ffffffff611bc416565b6109ea600060068763ffffffff611c3e16565b610a1e60006009877f800000000000000000000000000000000000000000000000000000000000000063ffffffff611c5216565b81600160a060020a0316630a57ce3b8660405160e060020a63ffffffff8416028152600160a060020a039091166004820152602401600060405180830381600087803b1515610a6c57600080fd5b6102c65a03f11515610a7d57600080fd5b505050600190505b95945050505050565b60035460009033600160a060020a03908116911614610aaf57506000610902565b506003805460028054600160a060020a0319908116600160a060020a03841617909155169055600190565b6000610ae78333846112d5565b9392505050565b600454600090600160a060020a031663bc65792783836040516020015260405160e060020a63ffffffff84160281526004810191909152602401602060405180830381600087803b1515610b4157600080fd5b6102c65a03f11515610b5257600080fd5b5050506040518051915050600160a060020a0381161515610b7257600080fd5b919050565b6000610b8a81600f63ffffffff611c6716565b905090565b600454600160a060020a031681565b7ff8748b040716bebd0fc7631bc2fa3905219c951c1754ad6eecf1606b380f6e308282604051600160a060020a039283168152911660208201526040908101905180910390a15050565b60025460009033600160a060020a0390811691161415610b7257600160a060020a0382161515610c1a57506000610b72565b5060038054600160a060020a038316600160a060020a03199091161790556001919050565b600080610c4b33611809565b15610dc657848314610c5c57600080fd5b610c64611cc6565b9150600090505b84811015610dc657600160a060020a038216639ed4fa5a878784818110610c8e57fe5b90506020020135600160a060020a031660006040516020015260405160e060020a63ffffffff8416028152600160a060020a039091166004820152602401602060405180830381600087803b1515610ce557600080fd5b6102c65a03f11515610cf657600080fd5b505050604051805190501515610d0b57600080fd5b610d3d6006878784818110610d1c57fe5b90506020020135600160a060020a03166000611c3e9092919063ffffffff16565b610d856009878784818110610d4e57fe5b90506020020135600160a060020a03168686858181101515610d6c57fe5b905060200201356000611c52909392919063ffffffff16565b610dbe868683818110610d9457fe5b90506020020135600160a060020a03168585848181101515610db257fe5b90506020020135611cf1565b600101610c6b565b505050505050565b600354600160a060020a031681565b6000610de833611809565b15610e8a575060005b81811015610e8a57610e2b6006848484818110610e0a57fe5b90506020020135600160a060020a03166000611d589092919063ffffffff16565b610e5e6009848484818110610e3c57fe5b60009392600160a060020a03602090920201351690508263ffffffff611c5216565b610e82838383818110610e6d57fe5b90506020020135600160a060020a0316611d6c565b600101610df1565b505050565b60025433600160a060020a0390811691161415610ec25760058054600160a060020a031916600160a060020a0383161790555b50565b60006108438160098463ffffffff611de416565b6000610ee361194e565b600160a060020a0316636ab3c7008360006040516020015260405160e060020a63ffffffff8416028152600160a060020a039091166004820152602401602060405180830381600087803b1515610f3957600080fd5b6102c65a03f11515610f4a57600080fd5b50505060405180519392505050565b60025433600160a060020a0390811691161415610ec25760048054600160a060020a038316600160a060020a031990911617905550565b7f144845eeb484e3f074766eb65a15afd2889f6c747d90354396914e8365c6985a84848484604051600160a060020a03948516815292841660208401526040808401929092529092166060820152608001905180910390a150505050565b60025433600160a060020a039081169116141561108257600454600160a060020a031663c375c2ef3060006040516020015260405160e060020a63ffffffff8416028152600160a060020a039091166004820152602401602060405180830381600087803b151561105e57600080fd5b6102c65a03f1151561106f57600080fd5b5050506040518051905050611082611e02565b565b7f5548c837ab068cf56a2c2479df0882a4922fd203edb7517321831d95078c5f62838383604051600160a060020a039384168152919092166020820152604080820192909252606001905180910390a1505050565b6110e233611809565b15610ec257610ec2600060108363ffffffff611bc416565b60006108436111076111bb565b836107be565b81600160a060020a031683600160a060020a03167f2943030ec8237acc21c9f7b88449db73d4b0f8e1c64675fa50b58844c9fb69ec61114a611e25565b84604051600160a060020a03909216825260208201526040908101905180910390a3505050565b7fec2210f07d90c7950ab3623fc89a4ccb3328f38c81cc33d1c4a5f47fb4d8bad58282604051600160a060020a039283168152911660208201526040908101905180910390a15050565b60006111c561194e565b600160a060020a031663c61f44b86000604051602001526040518163ffffffff1660e060020a028152600401602060405180830381600087803b15156108e557600080fd5b60025460009033600160a060020a0390811691161415610b7257600160a060020a038216151561123c57506000610b72565b600354600160a060020a03161561125e5760038054600160a060020a03191690555b5060028054600160a060020a038316600160a060020a03199091161790556001919050565b600061129183333385611e29565b9050600181146112ab576112a481611f8d565b9050610843565b61084383338433611ff6565b6000610ae781600a600160a060020a0386168563ffffffff61208016565b6000836112ea8260068363ffffffff61209716565b1561147b57600160a060020a038516151561130457600080fd5b611317600060068763ffffffff61209716565b151561132257600080fd5b61132b85610ec5565b8311156113445761133d612ee7611f8d565b915061147b565b61134c610b77565b600160a060020a0316638340f54986338660006040516020015260405160e060020a63ffffffff8616028152600160a060020a0393841660048201529190921660248201526044810191909152606401602060405180830381600087803b15156113b557600080fd5b6102c65a03f115156113c657600080fd5b5050506040518051905015156113e15761133d612ee3611f8d565b6113e961194e565b600160a060020a031663b3db428b86868660405160e060020a63ffffffff8616028152600160a060020a0393841660048201529190921660248201526044810191909152606401600060405180830381600087803b151561144957600080fd5b6102c65a03f1151561145a57600080fd5b50505061146b8585856120ad61212f565b6114768585856121b4565b600191505b509392505050565b60025460009033600160a060020a0390811691161415610ae7576002546114b79084908690600160a060020a031685611e29565b9050600181146114d1576114ca81611f8d565b9050610ae7565b600254610ae790849086908590600160a060020a0316611ff6565b60006114f661194e565b600160a060020a031663bf6b874e8360006040516020015260405160e060020a63ffffffff8416028152600160a060020a039091166004820152602401602060405180830381600087803b1515610f3957600080fd5b600254600160a060020a031681565b60025460009081908190819033600160a060020a03908116911614156116a357600092505b855183101561169e5785838151811061159557fe5b90602001906020020151915081600160a060020a03166370a082313060006040516020015260405160e060020a63ffffffff8416028152600160a060020a039091166004820152602401602060405180830381600087803b15156115f857600080fd5b6102c65a03f1151561160957600080fd5b505050604051805191505080156116935781600160a060020a031663a9059cbb868360006040516020015260405160e060020a63ffffffff8516028152600160a060020a0390921660048301526024820152604401602060405180830381600087803b151561167757600080fd5b6102c65a03f1151561168857600080fd5b505050604051805150505b600190920191611580565b600193505b50505092915050565b6116b4611e25565b600160a060020a03167f9cf38cf2dbf9139f5c32639950507b10775fbbe0421f3e168bc2d1bb1ae3208c8260405190815260200160405180910390a250565b8015157f360225f74eacd06eefedf821b89c21c7c975b645503e5198c6a60a62f84e302b8484604051600160a060020a03909216825260208201526040908101905180910390a2505050565b600061176a7f466561747572654665654d616e61676572000000000000000000000000000000610aee565b600160a060020a031633600160a060020a031614151561178957600080fd5b600160a060020a038316151561179e57600080fd5b6117a66117f6565b600160a060020a031615156117b757fe5b6117d16117c26111bb565b846117cb6117f6565b85611e29565b9050600181146117e4576112a481611f8d565b610843836117f06117f6565b8461221c565b6000610b8a81601063ffffffff611c6716565b6000806118357f557365724d616e61676572000000000000000000000000000000000000000000610aee565b905080600160a060020a0316632aa09e5a8460006040516020015260405160e060020a63ffffffff8416028152600160a060020a039091166004820152602401602060405180830381600087803b151561188e57600080fd5b6102c65a03f1151561189f57600080fd5b5050506040518051949350505050565b600554600160a060020a031690565b6118d3848484600160a060020a038516612284565b50505050565b6118e16118af565b600160a060020a031663544a6487838360405160e060020a63ffffffff8516028152600160a060020a03928316600482015291166024820152604401600060405180830381600087803b151561193657600080fd5b6102c65a03f1151561194757600080fd5b5050505050565b6000610b8a81601163ffffffff611c6716565b6118d3848484600160a060020a038516612290565b61197e6118af565b600160a060020a031663a191d167838360405160e060020a63ffffffff8516028152600160a060020a03928316600482015291166024820152604401600060405180830381600087803b151561193657600080fd5b60025460009081908190819033600160a060020a039081169116146119f757600080fd5b600160a060020a0386161515611a0c57600080fd5b600454600160a060020a0316158015935080611a365750600454600160a060020a03878116911614155b15611a575760048054600160a060020a031916600160a060020a0388161790555b600454600160a060020a031691508163bc65792760006040516020015260405160e060020a63ffffffff83160281527f4d756c74694576656e7473486973746f727900000000000000000000000000006004820152602401602060405180830381600087803b1515611ac857600080fd5b6102c65a03f11515611ad957600080fd5b5050506040518051915050600160a060020a03811615801590611b0a5750600554600160a060020a03828116911614155b15611b2b5760058054600160a060020a031916600160a060020a0383161790555b8415611bb25781600160a060020a031663b7c46cd5308760006040516020015260405160e060020a63ffffffff8516028152600160a060020a0390921660048301526024820152604401602060405180830381600087803b1515611b8e57600080fd5b6102c65a03f11515611b9f57600080fd5b50505060405180516001149050611bb257fe5b821561169e5760069695505050505050565b825460018401548354600160a060020a03909216916379a7cfee91908460405160e060020a63ffffffff861602815260048101939093526024830191909152600160a060020a03166044820152606401600060405180830381600087803b1515611c2d57600080fd5b6102c65a03f11515610dc657600080fd5b610e8a8383600160a060020a03841661229c565b6118d38484600160a060020a038516846122c8565b815460018301548254600092600160a060020a03169163d3a3968691846040516020015260405160e060020a63ffffffff851602815260048101929092526024820152604401602060405180830381600087803b151561082657600080fd5b6000610b8a7f45524332304d616e616765720000000000000000000000000000000000000000610aee565b611cf96118af565b600160a060020a031663e9112e9a8383600160405160e060020a63ffffffff8616028152600160a060020a039093166004840152602483019190915215156044820152606401600060405180830381600087803b151561193657600080fd5b610e8a8383600160a060020a038416612340565b611d746118af565b600160a060020a031663e9112e9a8260008060405160e060020a63ffffffff8616028152600160a060020a039093166004840152602483019190915215156044820152606401600060405180830381600087803b1515611dd357600080fd5b6102c65a03f115156118d357600080fd5b6000611dfa8484600160a060020a03851661236c565b949350505050565b60025433600160a060020a03908116911614156110825733600160a060020a0316ff5b3390565b600080611e3686866107be565b905080831115611e5257611e4b612ee6611f8d565b9150611f84565b611e5a610b77565b600160a060020a031663d9caed1287868660006040516020015260405160e060020a63ffffffff8616028152600160a060020a0393841660048201529190921660248201526044810191909152606401602060405180830381600087803b1515611ec357600080fd5b6102c65a03f11515611ed457600080fd5b505050604051805190501515611eef57611e4b612ee3611f8d565b611ef761194e565b600160a060020a031663644964758787868560405160e060020a63ffffffff8716028152600160a060020a03948516600482015292909316602483015260448201526064810191909152608401600060405180830381600087803b1515611f5d57600080fd5b6102c65a03f11515611f6e57600080fd5b505050611f7f86868561240661212f565b600191505b50949350505050565b6000611f976118af565b600160a060020a031663df26ca088360405160e060020a63ffffffff84160281526004810191909152602401600060405180830381600087803b1515611fdc57600080fd5b6102c65a03f11515611fed57600080fd5b50929392505050565b611ffe6118af565b600160a060020a031663728994e78585858560405160e060020a63ffffffff8716028152600160a060020a039485166004820152928416602484015260448301919091529091166064820152608401600060405180830381600087803b151561206657600080fd5b6102c65a03f1151561207757600080fd5b50505050505050565b6000610a85858585600160a060020a03861661246d565b6000611dfa8484600160a060020a03851661247b565b84600160a060020a0316639cd004488585858560405160e060020a63ffffffff8716028152600160a060020a03948516600482015292909316602483015260448201526064810191909152608401600060405180830381600087803b151561211457600080fd5b6102c65a03f1151561212557600080fd5b5050505050505050565b6000612139612a89565b60008061214688886107be565b93506121646000600a600160a060020a038b1663ffffffff6124a916565b9250600091505b61217e6000600a8563ffffffff6124bc16565b15612125576121966000600a8563ffffffff6124c916565b90506121a981898989888a63ffffffff16565b81600101915061216b565b6121bc6118af565b600160a060020a0316638b7711b484848460405160e060020a63ffffffff8616028152600160a060020a0393841660048201529190921660248201526044810191909152606401600060405180830381600087803b1515611c2d57600080fd5b6122246118af565b600160a060020a0316639826ad6984848460405160e060020a63ffffffff8616028152600160a060020a0393841660048201529190921660248201526044810191909152606401600060405180830381600087803b1515611c2d57600080fd5b6118d3848484846124d6565b6118d38484848461259e565b610e8a83837f736574000000000000000000000000000000000000000000000000000000000084612699565b835460018501548454600160a060020a039092169163a14ff85791908560405191825260208201526040908101905180910390208460405160e060020a63ffffffff8616028152600481019390935260248301919091526044820152606401600060405180830381600087803b151561206657600080fd5b610e8a83837f7365740000000000000000000000000000000000000000000000000000000000846126ed565b825460018401548354600092600160a060020a0316916337d9d7fc9185604051918252602082015260409081019051809103902060006040516020015260405160e060020a63ffffffff851602815260048101929092526024820152604401602060405180830381600087803b15156123e457600080fd5b6102c65a03f115156123f557600080fd5b505050604051805195945050505050565b84600160a060020a0316634ca95be88585858560405160e060020a63ffffffff8716028152600160a060020a03948516600482015292909316602483015260448201526064810191909152608401600060405180830381600087803b151561211457600080fd5b6000610a8585858585612792565b6000611dfa84847f7365740000000000000000000000000000000000000000000000000000000000856127ce565b6124b1612a89565b611dfa8484846127ea565b6000611dfa8484846127fd565b6000611dfa84848461280a565b8015156124e257600080fd5b6124ee84848484612792565b156124f8576118d3565b612503848484612817565b151561251857612518848460010184846122c8565b61252684846002018461236c565b156125655761254884846003018461254288886002018861236c565b85612824565b6125658484600401848461256089896002018961236c565b612824565b612576846003850184846000612824565b612585848460020184846122c8565b6118d3848484612596838383612837565b6001016128af565b6125aa84848484612792565b15156125b5576118d3565b6125dc8484600301846125cd88886004018888612927565b61256089896003018989612927565b6126038484600401846125f488886003018888612927565b61256089896004018989612927565b61261184846001018461236c565b8114156126355761263584846001018461263088886003018888612927565b6122c8565b61264384846002018461236c565b8114156126625761266284846002018461263088886004018888612927565b6126718484600301848461294c565b6126808484600401848461294c565b6118d38484846001612693848484612837565b036128af565b60006126a7858585856127ce565b156126b157611947565b6126bc858585612817565b60010190506126d1856002860185848661295c565b6126e1856001860185858561295c565b611947858585846128af565b60008060006126fe878787876127ce565b151561270957612077565b612714878787612817565b925061272587600288018786612927565b915061273687876001018787612927565b90508281101561276057612750876001880187858561295c565b612760876002880187848661295c565b61277187600188018787600061295c565b61278287600288018786600061295c565b61207787878760001987016128af565b60008115801590610a8557506127ad85856003018585612927565b151580610a855750816127c486600287018661236c565b1495945050505050565b60006127df85856001018585612927565b151595945050505050565b6127f2612a89565b611dfa848484612980565b6000611dfa84848461299e565b6000611dfa8484846129d9565b6000611dfa848484612837565b811561194757611947858585858561295c565b825460018401548354600092600160a060020a0316916353aa3f5e9185604051918252602082015260409081019051809103902060006040516020015260405160e060020a63ffffffff851602815260048101929092526024820152604401602060405180830381600087803b15156123e457600080fd5b835460018501548454600160a060020a03909216916353e7168b91908560405191825260208201526040908101905180910390208460405160e060020a63ffffffff8616028152600481019390935260248301919091526044820152606401600060405180830381600087803b151561206657600080fd5b6000610a8585858585604051918252602082015260409081019051809103902061236c565b80156118d3576118d38484848460005b611947858585856040519182526020820152604090810190518091039020846122c8565b612988612a89565b611dfa848484612999838383612837565b612a25565b6000816020015115806129c257506129c0848484606001518560400151612792565b155b156129cf57506000610ae7565b5060019392505050565b60006129e684848461299e565b15156129f157600080fd5b81604001519050612a0c848484606001518560400151612a45565b6040830152600160208301818151039052509392505050565b612a2d612a89565b610a8583612a3f87876001018761236c565b84612a56565b6000610a8585856003018585612927565b612a5e612a89565b6080604051908101604090815283825260208201939093529182019290925260608101929092525090565b60806040519081016040908152600080835260208301819052908201819052606082015290565b8254600160a060020a031916600160a060020a0392909216919091178255600190910155565b6107ba8282612b04565b6107ba8282612af4565b6107ba8282612bd9565b8154612b009082612be3565b9055565b612b4582826040519081527f636f756e7400000000000000000000000000000000000000000000000000000060208201526025016040518091039020612af4565b612b8982600101826040519081527f696e64657865730000000000000000000000000000000000000000000000000060208201526027016040518091039020612af4565b6107ba82600201826040519081527f76616c756573000000000000000000000000000000000000000000000000000060208201526026016040518091039020612af4565b8154612b009082612be3565b6107ba8282612c05565b81151580612bef575080155b156107ba57600080fd5b8154612b009082612be3565b612c4682826040519081527f75696e742f636f756e74000000000000000000000000000000000000000000006020820152602a016040518091039020612af4565b612c8a82600101826040519081527f75696e742f6669727374000000000000000000000000000000000000000000006020820152602a016040518091039020612af4565b612cce82600201826040519081527f75696e742f6c617374000000000000000000000000000000000000000000000060208201526029016040518091039020612af4565b612d1282600301826040519081527f75696e742f6e657874000000000000000000000000000000000000000000000060208201526029016040518091039020612af4565b6107ba82600401826040519081527f75696e742f70726576000000000000000000000000000000000000000000000060208201526029016040518091039020612af4565b8154612b009082612be35600a165627a7a72305820e795637ffe2e03614d3dca80d86ebf4e06abaeb39ac351efc75aa146aef470320029",
  "source": "pragma solidity ^0.4.11;\n\nimport \"./TimeHolderEmitter.sol\";\nimport \"../core/common/BaseManager.sol\";\nimport \"../core/common/ListenerInterface.sol\";\nimport {ERC20Interface as Asset} from \"../core/erc20/ERC20Interface.sol\";\nimport {ERC20Manager as ERC20Service} from \"../core/erc20/ERC20Manager.sol\";\nimport \"./DepositWalletInterface.sol\";\nimport \"./ERC20DepositStorage.sol\";\nimport \"../core/lib/SafeMath.sol\";\n\n\n/// @title TimeHolder\n/// @notice Contract allows to block some amount of shares\" balance to unlock\n/// functionality inside a system.\ncontract TimeHolder is BaseManager, TimeHolderEmitter {\n\n    using SafeMath for uint;\n\n    /** Error codes */\n\n    uint constant ERROR_TIMEHOLDER_ALREADY_ADDED = 12000;\n    uint constant ERROR_TIMEHOLDER_TRANSFER_FAILED = 12003;\n    uint constant ERROR_TIMEHOLDER_INSUFFICIENT_BALANCE = 12006;\n    uint constant ERROR_TIMEHOLDER_LIMIT_EXCEEDED = 12007;\n\n    /** Storage keys */\n\n    StorageInterface.AddressesSet sharesTokenStorage;\n    StorageInterface.AddressUIntMapping limitsStorage;\n\n    StorageInterface.AddressOrderedSetMapping listeners;\n    StorageInterface.Address walletStorage;\n    StorageInterface.Address feeWalletStorage;\n    StorageInterface.Address erc20DepositStorage;\n\n    /// @dev Guards invokations only for FeatureManager\n    modifier onlyFeatureFeeManager {\n        require(msg.sender == lookupManager(\"FeatureFeeManager\"));\n        _;\n    }\n\n    /// @dev only token registered in whitelist\n    modifier onlyAllowedToken(address _token) {\n        if (store.includes(sharesTokenStorage, _token)) {\n            _;\n        }\n    }\n\n    /// @notice Constructor\n    function TimeHolder(Storage _store, bytes32 _crate) BaseManager(_store, _crate) public {\n        sharesTokenStorage.init(\"sharesContractsStorage_v2\");\n        limitsStorage.init(\"limitAmountsStorage_v2\");\n        listeners.init(\"listeners_v2\");\n        walletStorage.init(\"timeHolderWalletStorage\");\n        feeWalletStorage.init(\"timeHolderFeeWalletStorage\");\n        erc20DepositStorage.init(\"erc20DepositStorage\");\n    }\n\n    /// @notice Init TimeHolder contract.\n    /// @param _contractsManager address.\n    /// @return result code of an operation\n    function init(\n        address _contractsManager,\n        address _defaultToken,\n        address _wallet,\n        address _feeWallet,\n        address _erc20DepositStorage\n    )\n    public\n    onlyContractOwner\n    returns (uint)\n    {\n        require(_defaultToken != 0x0);\n        require(_wallet != 0x0);\n        require(_feeWallet != 0x0);\n        require(_erc20DepositStorage != 0x0);\n\n        BaseManager.init(_contractsManager, \"TimeHolder\");\n\n        store.set(walletStorage, _wallet);\n        store.set(feeWalletStorage, _feeWallet);\n        store.set(erc20DepositStorage, _erc20DepositStorage);\n\n        store.add(sharesTokenStorage, _defaultToken);\n        store.set(limitsStorage, _defaultToken, 2**255);\n\n        ERC20DepositStorage(_erc20DepositStorage).setSharesContract(_defaultToken);\n\n        return OK;\n    }\n\n     /// @notice Gets shares amount deposited by a particular shareholder.\n     ///\n     /// @param _depositor shareholder address.\n     ///\n     /// @return shares amount.\n    function depositBalance(address _depositor) public view returns (uint) {\n        return getDepositBalance(getDefaultShares(), _depositor);\n    }\n\n    /// @dev Gets balance of tokens deposited to TimeHolder\n    ///\n    /// @param _token token to check\n    /// @param _depositor shareholder address\n    /// @return _balance shares amount.\n    function getDepositBalance(\n        address _token,\n        address _depositor\n    )\n    public\n    view\n    returns (uint _balance)\n    {\n        return getDepositStorage().depositBalance(_token, _depositor);\n    }\n\n    /// @dev Gets pair of depositStorage and default token set up for a deposits\n    ///\n    /// @return {\n    ///     \"_depositStorage\": \"deposit storage contract\",\n    ///     \"_token\": \"default shares contract\",\n    /// }\n    function getDepositStorage() private view returns (ERC20DepositStorage _depositStorage) {\n        _depositStorage = ERC20DepositStorage(store.get(erc20DepositStorage));\n\n    }\n\n    /// @notice Adds ERC20-compatible token symbols and put them in the whitelist to be used then as\n    /// shares for other contracts and allow users to deposit for this share.\n    ///\n    /// @dev Allowed only for CBEs\n    ///\n    /// @param _whitelist list of token addresses that will be allowed to be deposited in TimeHolder\n    /// @param _limits list of limits\n    function allowShares(address[] _whitelist, uint[] _limits)\n    external\n    onlyAuthorized\n    {\n        require(_whitelist.length == _limits.length);\n\n        ERC20Service erc20Service = lookupERC20Service();\n        for (uint _idx = 0; _idx < _whitelist.length; ++_idx) {\n            require(erc20Service.isTokenExists(_whitelist[_idx]));\n\n            store.add(sharesTokenStorage, _whitelist[_idx]);\n            store.set(limitsStorage, _whitelist[_idx], _limits[_idx]);\n\n            _emitSharesWhiteListAdded(_whitelist[_idx], _limits[_idx]);\n        }\n    }\n\n    /// @notice Removes ERC20-compatible token symbols from TimeHolder so they will be removed\n    /// from the whitelist and will not be accessible to be used as shares.\n    /// All deposited amounts still will be available to withdraw.\n    /// @dev Allowed only for CBEs\n    ///\n    /// @param _blacklist list of token addresses that will be removed from TimeHolder\n    function denyShares(address[] _blacklist)\n    external\n    onlyAuthorized\n    {\n        for (uint _idx = 0; _idx < _blacklist.length; ++_idx) {\n            store.remove(sharesTokenStorage, _blacklist[_idx]);\n            store.set(limitsStorage, _blacklist[_idx], 0);\n\n            _emitSharesWhiteListRemoved(_blacklist[_idx]);\n        }\n    }\n\n    /// @notice Adds provided listener to observe changes of passed symbol when some amount will be deposited/withdrawn.\n    /// Checks passed listener for HolderListenerInterface compatibility.\n    /// @dev Allowed only for CBEs\n    ///\n    /// @param _token token symbol to watch deposits and withdrawals\n    /// @param _listener address of a listener to add\n    function addListener(address _token, address _listener)\n    external\n    onlyAuthorized\n    {\n        require(_token != 0x0);\n        require(_listener != 0x0);\n\n        store.add(listeners, bytes32(_token), _listener);\n\n        _emitListenerAdded(_listener, _token);\n    }\n\n    /// @notice Removes provided listener from observing changes of passed symbol.\n    /// @dev Allowed only for CBEs\n    ///\n    /// @param _token token symbol to stop watching by a listener\n    /// @param _listener address of a listener to remove\n    function removeListener(address _token, address _listener)\n    external\n    onlyAuthorized\n    {\n        store.remove(listeners, bytes32(_token), _listener);\n\n        _emitListenerRemoved(_listener, _token);\n    }\n\n    function isListener(address _token, address _listener) public view returns (bool) {\n        return store.includes(listeners, bytes32(_token), _listener);\n    }\n\n    /// @notice Sets fee wallet address.\n    function setFeeWallet(address _feeWallet)\n    public\n    onlyAuthorized\n    {\n        store.set(feeWalletStorage, _feeWallet);\n    }\n\n    /// @notice Deposits shares with provided symbol and prove possesion.\n    /// Amount should be less than or equal to current allowance value.\n    ///\n    /// Proof should be repeated for each active period. To prove possesion without\n    /// depositing more shares, specify 0 amount.\n    ///\n    /// @param _token token address for shares\n    /// @param _amount amount of shares to deposit, or 0 to just prove.\n    ///\n    /// @return result code of an operation.\n    function deposit(address _token, uint _amount) public returns (uint) {\n        return depositFor(_token, msg.sender, _amount);\n    }\n\n    /// @notice Deposit own shares and prove possession for arbitrary shareholder.\n    /// Amount should be less than or equal to caller current allowance value.\n    ///\n    /// Proof should be repeated for each active period. To prove possesion without\n    /// depositing more shares, specify 0 amount.\n    ///\n    /// This function meant to be used by some backend application to prove shares possesion\n    /// of arbitrary shareholders.\n    ///\n    /// @param _token token address for shares\n    /// @param _target to deposit and prove for.\n    /// @param _amount amount of shares to deposit, or 0 to just prove.\n    ///\n    /// @return result code of an operation.\n    function depositFor(address _token, address _target, uint _amount)\n    public\n    onlyAllowedToken(_token)\n    returns (uint)\n    {\n        require(_token != 0x0);\n        require(store.includes(sharesTokenStorage, _token));\n\n        if (_amount > getLimitForToken(_token)) {\n            return _emitError(ERROR_TIMEHOLDER_LIMIT_EXCEEDED);\n        }\n\n        if (!DepositWalletInterface(wallet()).deposit(_token, msg.sender, _amount)) {\n            return _emitError(ERROR_TIMEHOLDER_TRANSFER_FAILED);\n        }\n\n        getDepositStorage().depositFor(_token, _target, _amount);\n\n        _goThroughListeners(_token, _target, _amount, _notifyDepositListener);\n\n        _emitDeposit(_token, _target, _amount);\n\n        return OK;\n    }\n\n    /// @notice Withdraw shares from the contract, updating the possesion proof in active period.\n    /// @param _token token symbol to withdraw from.\n    /// @param _amount amount of shares to withdraw.\n    /// @return resultCode result code of an operation.\n    function withdrawShares(address _token, uint _amount)\n    public\n    returns (uint resultCode)\n    {\n        resultCode = _withdrawShares(_token, msg.sender, msg.sender, _amount);\n        if (resultCode != OK) {\n            return _emitError(resultCode);\n        }\n\n        _emitWithdrawShares(_token, msg.sender, _amount, msg.sender);\n    }\n\n    /// @notice Force Withdraw Shares\n    /// Only CBE members are permited to call this function.\n    /// Multisig concensus is required to withdraw shares from shareholder \"_from\"\n    /// and send it to \"_to\".\n    function forceWithdrawShares(address _from, address _token, uint _amount)\n    public\n    onlyContractOwner\n    returns (uint resultCode) {\n        resultCode = _withdrawShares(_token, _from, contractOwner, _amount);\n        if (resultCode != OK) {\n            return _emitError(resultCode);\n        }\n\n        _emitWithdrawShares(_token, _from, _amount, contractOwner);\n    }\n\n    /// @notice Provides a way to support getting additional fee for using features of the system.\n    /// @param _account holder of deposits, will pay for using a features\n    /// @param _amount size of a fee\n    /// @return resultCode result code of the operation\n    function takeFeatureFee(address _account, uint _amount)\n    public\n    onlyFeatureFeeManager\n    returns (uint resultCode)\n    {\n        require(_account != 0x0);\n        assert(feeWallet() != 0x0);\n\n        resultCode = _withdrawShares(getDefaultShares(), _account, feeWallet(), _amount);\n        if (resultCode != OK) {\n            return _emitError(resultCode);\n        }\n\n        _emitFeatureFeeTaken(_account, feeWallet(), _amount);\n    }\n\n    /// @notice Gets an associated wallet for the time holder\n    function wallet() public view returns (address) {\n        return store.get(walletStorage);\n    }\n\n    /// @notice Gets an associated fee wallet for the time holder\n    function feeWallet() public view returns (address) {\n        return store.get(feeWalletStorage);\n    }\n\n    /// @notice Total amount of shares for provided symbol\n    /// @param _token token address to check total shares amout\n    /// @return total amount of shares\n    function totalShares(address _token) public view returns (uint) {\n        return getDepositStorage().totalShares(_token);\n    }\n\n    /// @notice Number of shareholders\n    /// @return number of shareholders\n    function defaultShareholdersCount() public view returns (uint) {\n        return getDepositStorage().shareholdersCount(getDefaultShares());\n    }\n\n    /// @notice Number of shareholders\n    /// @return number of shareholders\n    function shareholdersCount(address _token) public view returns (uint) {\n        return getDepositStorage().shareholdersCount(_token);\n    }\n\n    /// @notice Returns deposit/withdraw limit for shares with provided symbol\n    /// @param _token token address to get limit\n    /// @return limit number for specified shares\n    function getLimitForToken(address _token) public view returns (uint) {\n        return store.get(limitsStorage, _token);\n    }\n\n    /// @notice Gets shares contract that is set up as default (usually TIMEs)\n    function getDefaultShares() public view returns (address) {\n        return getDepositStorage().getSharesContract();\n    }\n\n    /// @notice Withdraws deposited amount of tokens from account to a receiver address.\n    /// Emits its own errorCodes if some will be encountered.\n    ///\n    /// @param _account an address that have deposited tokens\n    /// @param _receiver an address that will receive tokens from _account\n    /// @param _amount amount of tokens to withdraw to the _receiver\n    ///\n    /// @return result code of the operation\n    function _withdrawShares(\n        address _token,\n        address _account,\n        address _receiver,\n        uint _amount\n    )\n    internal\n    returns (uint)\n    {\n        uint _depositBalance = getDepositBalance(_token, _account);\n\n        if (_amount > _depositBalance) {\n            return _emitError(ERROR_TIMEHOLDER_INSUFFICIENT_BALANCE);\n        }\n\n        if (!DepositWalletInterface(wallet()).withdraw(_token, _receiver, _amount)) {\n            return _emitError(ERROR_TIMEHOLDER_TRANSFER_FAILED);\n        }\n\n        getDepositStorage().withdrawShares(_token, _account, _amount, _depositBalance);\n\n        _goThroughListeners(_token, _account, _amount, _notifyWithdrawListener);\n\n        return OK;\n    }\n\n    /// @dev Notifies listener about depositing token with symbol\n    function _notifyDepositListener(address _listener, address _token, address _target, uint _amount, uint _balance)\n    private\n    {\n        HolderListenerInterface(_listener).tokenDeposit(_token, _target, _amount, _balance);\n    }\n\n    /// @dev Notifies listener about withdrawing token with symbol\n    function _notifyWithdrawListener(address _listener, address _token, address _target, uint _amount, uint _balance)\n    private\n    {\n        HolderListenerInterface(_listener).tokenWithdrawn(_token, _target, _amount, _balance);\n    }\n\n    /// @dev Iterates through listeners of provided symbol and notifies by calling notification function\n    function _goThroughListeners(\n        address _token,\n        address _target,\n        uint _amount,\n        function (address, address, address, uint, uint) _notification)\n    private\n    {\n        uint _depositBalance = getDepositBalance(_token, _target);\n        StorageInterface.Iterator memory iterator = store.listIterator(listeners, bytes32(_token));\n        for (uint i = 0; store.canGetNextWithIterator(listeners, iterator); ++i) {\n            address _listener = store.getNextWithIterator(listeners, iterator);\n            _notification(_listener, _token, _target, _amount, _depositBalance);\n        }\n    }\n\n    function lookupERC20Service() internal view returns (ERC20Service) {\n        return ERC20Service(lookupManager(\"ERC20Manager\"));\n    }\n\n    /** Event emitting */\n\n    function _emitDeposit(address _token, address _who, uint _amount) private {\n        TimeHolderEmitter(getEventsHistory()).emitDeposit(_token, _who, _amount);\n    }\n\n    function _emitWithdrawShares(address _token, address _who, uint _amount, address _receiver) private {\n        TimeHolderEmitter(getEventsHistory()).emitWithdrawShares(_token, _who, _amount, _receiver);\n    }\n\n    function _emitListenerAdded(address _listener, address _token) private {\n        TimeHolderEmitter(getEventsHistory()).emitListenerAdded(_listener, _token);\n    }\n\n    function _emitListenerRemoved(address _listener, address _token) private {\n        TimeHolderEmitter(getEventsHistory()).emitListenerRemoved(_listener, _token);\n    }\n\n    function _emitFeatureFeeTaken(address _from, address _to, uint _amount) private {\n        TimeHolderEmitter(getEventsHistory()).emitFeatureFeeTaken(_from, _to, _amount);\n    }\n\n    function _emitSharesWhiteListAdded(address _token, uint _limit) private {\n        TimeHolderEmitter(getEventsHistory()).emitSharesWhiteListChanged(_token, _limit, true);\n    }\n\n    function _emitSharesWhiteListRemoved(address _token) private {\n        TimeHolderEmitter(getEventsHistory()).emitSharesWhiteListChanged(_token, 0, false);\n    }\n\n    function _emitError(uint e) private returns (uint) {\n        TimeHolderEmitter(getEventsHistory()).emitError(e);\n        return e;\n    }\n}\n",
  "sourcePath": "/Users/alesanro/Documents/Projects/ChronoBank/SmartContracts/contracts/timeholder/TimeHolder.sol",
  "compiler": {
    "name": "solc",
    "version": "0.4.19+commit.c4cbbb05.Emscripten.clang"
  },
  "schemaVersion": "2.0.0",
  "updatedAt": "2018-04-02T15:30:17.826Z"
}