{
  "contractName": "TimeHolder",
  "abi": [
    {
      "constant": false,
      "inputs": [
        {
          "name": "_token",
          "type": "address"
        },
        {
          "name": "_listener",
          "type": "address"
        }
      ],
      "name": "addListener",
      "outputs": [],
      "payable": false,
      "stateMutability": "nonpayable",
      "type": "function"
    },
    {
      "constant": true,
      "inputs": [
        {
          "name": "_token",
          "type": "address"
        },
        {
          "name": "_depositor",
          "type": "address"
        }
      ],
      "name": "getDepositBalance",
      "outputs": [
        {
          "name": "",
          "type": "uint256"
        }
      ],
      "payable": false,
      "stateMutability": "view",
      "type": "function"
    },
    {
      "constant": true,
      "inputs": [],
      "name": "shareholdersCount",
      "outputs": [
        {
          "name": "",
          "type": "uint256"
        }
      ],
      "payable": false,
      "stateMutability": "view",
      "type": "function"
    },
    {
      "constant": false,
      "inputs": [
        {
          "name": "_from",
          "type": "address"
        },
        {
          "name": "_token",
          "type": "address"
        },
        {
          "name": "_amount",
          "type": "uint256"
        },
        {
          "name": "_to",
          "type": "address"
        }
      ],
      "name": "forceWithdrawShares",
      "outputs": [
        {
          "name": "resultCode",
          "type": "uint256"
        }
      ],
      "payable": false,
      "stateMutability": "nonpayable",
      "type": "function"
    },
    {
      "constant": false,
      "inputs": [
        {
          "name": "_token",
          "type": "address"
        },
        {
          "name": "_listener",
          "type": "address"
        }
      ],
      "name": "removeListener",
      "outputs": [],
      "payable": false,
      "stateMutability": "nonpayable",
      "type": "function"
    },
    {
      "constant": false,
      "inputs": [
        {
          "name": "_contractsManager",
          "type": "address"
        },
        {
          "name": "_defaultToken",
          "type": "address"
        },
        {
          "name": "_wallet",
          "type": "address"
        },
        {
          "name": "_feeWallet",
          "type": "address"
        },
        {
          "name": "_erc20DepositStorage",
          "type": "address"
        }
      ],
      "name": "init",
      "outputs": [
        {
          "name": "",
          "type": "uint256"
        }
      ],
      "payable": false,
      "stateMutability": "nonpayable",
      "type": "function"
    },
    {
      "constant": false,
      "inputs": [],
      "name": "claimContractOwnership",
      "outputs": [
        {
          "name": "",
          "type": "bool"
        }
      ],
      "payable": false,
      "stateMutability": "nonpayable",
      "type": "function"
    },
    {
      "constant": false,
      "inputs": [
        {
          "name": "_token",
          "type": "address"
        },
        {
          "name": "_amount",
          "type": "uint256"
        }
      ],
      "name": "deposit",
      "outputs": [
        {
          "name": "",
          "type": "uint256"
        }
      ],
      "payable": false,
      "stateMutability": "nonpayable",
      "type": "function"
    },
    {
      "constant": true,
      "inputs": [
        {
          "name": "_identifier",
          "type": "bytes32"
        }
      ],
      "name": "lookupManager",
      "outputs": [
        {
          "name": "manager",
          "type": "address"
        }
      ],
      "payable": false,
      "stateMutability": "view",
      "type": "function"
    },
    {
      "constant": true,
      "inputs": [],
      "name": "wallet",
      "outputs": [
        {
          "name": "",
          "type": "address"
        }
      ],
      "payable": false,
      "stateMutability": "view",
      "type": "function"
    },
    {
      "constant": true,
      "inputs": [],
      "name": "contractsManager",
      "outputs": [
        {
          "name": "",
          "type": "address"
        }
      ],
      "payable": false,
      "stateMutability": "view",
      "type": "function"
    },
    {
      "constant": false,
      "inputs": [
        {
          "name": "listener",
          "type": "address"
        },
        {
          "name": "token",
          "type": "address"
        }
      ],
      "name": "emitListenerAdded",
      "outputs": [],
      "payable": false,
      "stateMutability": "nonpayable",
      "type": "function"
    },
    {
      "constant": false,
      "inputs": [
        {
          "name": "_to",
          "type": "address"
        }
      ],
      "name": "changeContractOwnership",
      "outputs": [
        {
          "name": "",
          "type": "bool"
        }
      ],
      "payable": false,
      "stateMutability": "nonpayable",
      "type": "function"
    },
    {
      "constant": false,
      "inputs": [
        {
          "name": "_whitelist",
          "type": "address[]"
        },
        {
          "name": "_limits",
          "type": "uint256[]"
        }
      ],
      "name": "allowShares",
      "outputs": [],
      "payable": false,
      "stateMutability": "nonpayable",
      "type": "function"
    },
    {
      "constant": true,
      "inputs": [],
      "name": "pendingContractOwner",
      "outputs": [
        {
          "name": "",
          "type": "address"
        }
      ],
      "payable": false,
      "stateMutability": "view",
      "type": "function"
    },
    {
      "constant": false,
      "inputs": [
        {
          "name": "_blacklist",
          "type": "address[]"
        }
      ],
      "name": "denyShares",
      "outputs": [],
      "payable": false,
      "stateMutability": "nonpayable",
      "type": "function"
    },
    {
      "constant": false,
      "inputs": [
        {
          "name": "_eventsHistory",
          "type": "address"
        }
      ],
      "name": "setEventsHistory",
      "outputs": [],
      "payable": false,
      "stateMutability": "nonpayable",
      "type": "function"
    },
    {
      "constant": true,
      "inputs": [
        {
          "name": "_token",
          "type": "address"
        }
      ],
      "name": "getLimitForToken",
      "outputs": [
        {
          "name": "",
          "type": "uint256"
        }
      ],
      "payable": false,
      "stateMutability": "view",
      "type": "function"
    },
    {
      "constant": true,
      "inputs": [
        {
          "name": "_token",
          "type": "address"
        }
      ],
      "name": "shareholdersCount",
      "outputs": [
        {
          "name": "",
          "type": "uint256"
        }
      ],
      "payable": false,
      "stateMutability": "view",
      "type": "function"
    },
    {
      "constant": false,
      "inputs": [
        {
          "name": "_contractsManager",
          "type": "address"
        }
      ],
      "name": "setContractsManager",
      "outputs": [],
      "payable": false,
      "stateMutability": "nonpayable",
      "type": "function"
    },
    {
      "constant": false,
      "inputs": [
        {
          "name": "token",
          "type": "address"
        },
        {
          "name": "who",
          "type": "address"
        },
        {
          "name": "amount",
          "type": "uint256"
        },
        {
          "name": "receiver",
          "type": "address"
        }
      ],
      "name": "emitWithdrawShares",
      "outputs": [],
      "payable": false,
      "stateMutability": "nonpayable",
      "type": "function"
    },
    {
      "constant": false,
      "inputs": [],
      "name": "destroy",
      "outputs": [],
      "payable": false,
      "stateMutability": "nonpayable",
      "type": "function"
    },
    {
      "constant": false,
      "inputs": [
        {
          "name": "token",
          "type": "address"
        },
        {
          "name": "who",
          "type": "address"
        },
        {
          "name": "amount",
          "type": "uint256"
        }
      ],
      "name": "emitDeposit",
      "outputs": [],
      "payable": false,
      "stateMutability": "nonpayable",
      "type": "function"
    },
    {
      "constant": false,
      "inputs": [
        {
          "name": "_feeWallet",
          "type": "address"
        }
      ],
      "name": "setFeeWallet",
      "outputs": [],
      "payable": false,
      "stateMutability": "nonpayable",
      "type": "function"
    },
    {
      "constant": true,
      "inputs": [
        {
          "name": "_depositor",
          "type": "address"
        }
      ],
      "name": "depositBalance",
      "outputs": [
        {
          "name": "",
          "type": "uint256"
        }
      ],
      "payable": false,
      "stateMutability": "view",
      "type": "function"
    },
    {
      "constant": false,
      "inputs": [
        {
          "name": "_from",
          "type": "address"
        },
        {
          "name": "_to",
          "type": "address"
        },
        {
          "name": "_amount",
          "type": "uint256"
        }
      ],
      "name": "emitFeatureFeeTaken",
      "outputs": [],
      "payable": false,
      "stateMutability": "nonpayable",
      "type": "function"
    },
    {
      "constant": false,
      "inputs": [
        {
          "name": "listener",
          "type": "address"
        },
        {
          "name": "token",
          "type": "address"
        }
      ],
      "name": "emitListenerRemoved",
      "outputs": [],
      "payable": false,
      "stateMutability": "nonpayable",
      "type": "function"
    },
    {
      "constant": true,
      "inputs": [],
      "name": "getDefaultShares",
      "outputs": [
        {
          "name": "",
          "type": "address"
        }
      ],
      "payable": false,
      "stateMutability": "view",
      "type": "function"
    },
    {
      "constant": false,
      "inputs": [
        {
          "name": "_to",
          "type": "address"
        }
      ],
      "name": "transferContractOwnership",
      "outputs": [
        {
          "name": "",
          "type": "bool"
        }
      ],
      "payable": false,
      "stateMutability": "nonpayable",
      "type": "function"
    },
    {
      "constant": false,
      "inputs": [
        {
          "name": "_token",
          "type": "address"
        },
        {
          "name": "_amount",
          "type": "uint256"
        }
      ],
      "name": "withdrawShares",
      "outputs": [
        {
          "name": "resultCode",
          "type": "uint256"
        }
      ],
      "payable": false,
      "stateMutability": "nonpayable",
      "type": "function"
    },
    {
      "constant": false,
      "inputs": [
        {
          "name": "_token",
          "type": "address"
        },
        {
          "name": "_target",
          "type": "address"
        },
        {
          "name": "_amount",
          "type": "uint256"
        }
      ],
      "name": "depositFor",
      "outputs": [
        {
          "name": "",
          "type": "uint256"
        }
      ],
      "payable": false,
      "stateMutability": "nonpayable",
      "type": "function"
    },
    {
      "constant": true,
      "inputs": [
        {
          "name": "_token",
          "type": "address"
        }
      ],
      "name": "totalShares",
      "outputs": [
        {
          "name": "",
          "type": "uint256"
        }
      ],
      "payable": false,
      "stateMutability": "view",
      "type": "function"
    },
    {
      "constant": true,
      "inputs": [],
      "name": "contractOwner",
      "outputs": [
        {
          "name": "",
          "type": "address"
        }
      ],
      "payable": false,
      "stateMutability": "view",
      "type": "function"
    },
    {
      "constant": false,
      "inputs": [
        {
          "name": "tokens",
          "type": "address[]"
        },
        {
          "name": "_to",
          "type": "address"
        }
      ],
      "name": "withdrawnTokens",
      "outputs": [
        {
          "name": "",
          "type": "uint256"
        }
      ],
      "payable": false,
      "stateMutability": "nonpayable",
      "type": "function"
    },
    {
      "constant": false,
      "inputs": [
        {
          "name": "error",
          "type": "uint256"
        }
      ],
      "name": "emitError",
      "outputs": [],
      "payable": false,
      "stateMutability": "nonpayable",
      "type": "function"
    },
    {
      "constant": false,
      "inputs": [
        {
          "name": "token",
          "type": "address"
        },
        {
          "name": "limit",
          "type": "uint256"
        },
        {
          "name": "isAdded",
          "type": "bool"
        }
      ],
      "name": "emitSharesWhiteListChanged",
      "outputs": [],
      "payable": false,
      "stateMutability": "nonpayable",
      "type": "function"
    },
    {
      "constant": false,
      "inputs": [
        {
          "name": "_account",
          "type": "address"
        },
        {
          "name": "_amount",
          "type": "uint256"
        }
      ],
      "name": "takeFeatureFee",
      "outputs": [
        {
          "name": "resultCode",
          "type": "uint256"
        }
      ],
      "payable": false,
      "stateMutability": "nonpayable",
      "type": "function"
    },
    {
      "constant": true,
      "inputs": [],
      "name": "feeWallet",
      "outputs": [
        {
          "name": "",
          "type": "address"
        }
      ],
      "payable": false,
      "stateMutability": "view",
      "type": "function"
    },
    {
      "constant": true,
      "inputs": [
        {
          "name": "key",
          "type": "address"
        }
      ],
      "name": "isAuthorized",
      "outputs": [
        {
          "name": "",
          "type": "bool"
        }
      ],
      "payable": false,
      "stateMutability": "view",
      "type": "function"
    },
    {
      "constant": true,
      "inputs": [],
      "name": "getEventsHistory",
      "outputs": [
        {
          "name": "",
          "type": "address"
        }
      ],
      "payable": false,
      "stateMutability": "view",
      "type": "function"
    },
    {
      "inputs": [
        {
          "name": "_store",
          "type": "address"
        },
        {
          "name": "_crate",
          "type": "bytes32"
        }
      ],
      "payable": false,
      "stateMutability": "nonpayable",
      "type": "constructor"
    },
    {
      "anonymous": false,
      "inputs": [
        {
          "indexed": false,
          "name": "token",
          "type": "address"
        },
        {
          "indexed": false,
          "name": "who",
          "type": "address"
        },
        {
          "indexed": false,
          "name": "amount",
          "type": "uint256"
        }
      ],
      "name": "Deposit",
      "type": "event"
    },
    {
      "anonymous": false,
      "inputs": [
        {
          "indexed": false,
          "name": "token",
          "type": "address"
        },
        {
          "indexed": false,
          "name": "who",
          "type": "address"
        },
        {
          "indexed": false,
          "name": "amount",
          "type": "uint256"
        },
        {
          "indexed": false,
          "name": "receiver",
          "type": "address"
        }
      ],
      "name": "WithdrawShares",
      "type": "event"
    },
    {
      "anonymous": false,
      "inputs": [
        {
          "indexed": false,
          "name": "listener",
          "type": "address"
        },
        {
          "indexed": false,
          "name": "token",
          "type": "address"
        }
      ],
      "name": "ListenerAdded",
      "type": "event"
    },
    {
      "anonymous": false,
      "inputs": [
        {
          "indexed": false,
          "name": "listener",
          "type": "address"
        },
        {
          "indexed": false,
          "name": "token",
          "type": "address"
        }
      ],
      "name": "ListenerRemoved",
      "type": "event"
    },
    {
      "anonymous": false,
      "inputs": [
        {
          "indexed": false,
          "name": "token",
          "type": "address"
        }
      ],
      "name": "SharesWhiteListAdded",
      "type": "event"
    },
    {
      "anonymous": false,
      "inputs": [
        {
          "indexed": false,
          "name": "token",
          "type": "address"
        },
        {
          "indexed": false,
          "name": "limit",
          "type": "uint256"
        },
        {
          "indexed": true,
          "name": "isAdded",
          "type": "bool"
        }
      ],
      "name": "SharesWhiteListChanged",
      "type": "event"
    },
    {
      "anonymous": false,
      "inputs": [
        {
          "indexed": false,
          "name": "self",
          "type": "address"
        },
        {
          "indexed": true,
          "name": "from",
          "type": "address"
        },
        {
          "indexed": true,
          "name": "to",
          "type": "address"
        },
        {
          "indexed": false,
          "name": "amount",
          "type": "uint256"
        }
      ],
      "name": "FeatureFeeTaken",
      "type": "event"
    },
    {
      "anonymous": false,
      "inputs": [
        {
          "indexed": true,
          "name": "self",
          "type": "address"
        },
        {
          "indexed": false,
          "name": "errorCode",
          "type": "uint256"
        }
      ],
      "name": "Error",
      "type": "event"
    }
  ],
  "bytecode": "0x606060405234156200001057600080fd5b604051604080620035a9833981016040528080519190602001805191508290508181818181620000516000838364010000000062002d32620001f582021704565b505060028054600160a060020a03338116600160a060020a03199283161790925560058054309093169290911691909117905550620000c69250600691507f736861726573436f6e74726163747353746f726167655f763200000000000000905064010000000062002d586200021b82021704565b6200010160097f6c696d6974416d6f756e747353746f726167655f76320000000000000000000064010000000062002d626200023982021704565b6200013c600a7f6c697374656e6572735f7632000000000000000000000000000000000000000064010000000062002d6c6200025382021704565b62000177600f7f74696d65486f6c64657257616c6c657453746f7261676500000000000000000064010000000062002d766200026d82021704565b620001b260107f74696d65486f6c64657246656557616c6c657453746f7261676500000000000064010000000062002d766200026d82021704565b620001ed60117f65726332304465706f73697453746f726167650000000000000000000000000064010000000062002d766200026d82021704565b505062000589565b8254600160a060020a031916600160a060020a0392909216919091178255600190910155565b62000235828264010000000062002d866200028d82021704565b5050565b62000235828264010000000062002d766200026d82021704565b62000235828264010000000062002e5b6200039882021704565b815462000289908264010000000062002e65620003b282021704565b9055565b620002e482826040519081527f636f756e74000000000000000000000000000000000000000000000000000000602082015260250160405180910390206200026d6401000000000262002d76176401000000009004565b6200033e82600101826040519081527f696e646578657300000000000000000000000000000000000000000000000000602082015260270160405180910390206200026d6401000000000262002d76176401000000009004565b6200023582600201826040519081527f76616c7565730000000000000000000000000000000000000000000000000000602082015260260160405180910390206200026d6401000000000262002d76176401000000009004565b62000235828264010000000062002e87620003ca82021704565b81151580620003bf575080155b156200023557600080fd5b6200042182826040519081527f75696e742f636f756e74000000000000000000000000000000000000000000006020820152602a0160405180910390206200026d6401000000000262002d76176401000000009004565b6200047b82600101826040519081527f75696e742f6669727374000000000000000000000000000000000000000000006020820152602a0160405180910390206200026d6401000000000262002d76176401000000009004565b620004d582600201826040519081527f75696e742f6c6173740000000000000000000000000000000000000000000000602082015260290160405180910390206200026d6401000000000262002d76176401000000009004565b6200052f82600301826040519081527f75696e742f6e6578740000000000000000000000000000000000000000000000602082015260290160405180910390206200026d6401000000000262002d76176401000000009004565b6200023582600401826040519081527f75696e742f707265760000000000000000000000000000000000000000000000602082015260290160405180910390206200026d6401000000000262002d76176401000000009004565b61301080620005996000396000f3006060604052600436106101d45763ffffffff60e060020a600035041663024c419981146101d95780630ae112a4146102005780631638a3fb146102375780631da02f301461024a5780632aa852b314610279578063359ef75b1461029e5780634592cd1d146102d557806347e7ef24146102fc5780634fe590121461031e578063521eb2731461035057806353253d3114610363578063544a648714610376578063557f4bc91461039b5780635882a548146103ba5780635aa77d3c146103e45780635d1be4ac146103f75780636521afd7146104155780636680d8c1146104345780636ab3c7001461045357806371d3b57314610472578063728994e71461049157806383197ef0146104c05780638b7711b4146104d357806390d49b9d146104fb578063956501bb1461051a5780639826ad6914610539578063a191d16714610561578063a4d4f0d214610586578063a843c51f14610599578063a92ec968146105b8578063b3db428b146105da578063bf6b874e14610602578063ce606ee014610621578063d8f9659b14610634578063df26ca081461068e578063e9112e9a146106a4578063eca87918146106cb578063f25f4b56146106ed578063fe9fbb8014610700578063fff10aba1461071f575b600080fd5b34156101e457600080fd5b6101fe600160a060020a0360043581169060243516610732565b005b341561020b57600080fd5b610225600160a060020a0360043581169060243516610795565b60405190815260200160405180910390f35b341561024257600080fd5b6102256107b6565b341561025557600080fd5b610225600160a060020a03600435811690602435811690604435906064351661082a565b341561028457600080fd5b6101fe600160a060020a03600435811690602435166108a2565b34156102a957600080fd5b610225600160a060020a03600435811690602435811690604435811690606435811690608435166108ff565b34156102e057600080fd5b6102e8610a88565b604051901515815260200160405180910390f35b341561030757600080fd5b610225600160a060020a0360043516602435610ad5565b341561032957600080fd5b610334600435610ae9565b604051600160a060020a03909116815260200160405180910390f35b341561035b57600080fd5b610334610b72565b341561036e57600080fd5b610334610b8a565b341561038157600080fd5b6101fe600160a060020a0360043581169060243516610b99565b34156103a657600080fd5b6102e8600160a060020a0360043516610be3565b34156103c557600080fd5b6101fe6024600480358281019290820135918135918201910135610c3a565b34156103ef57600080fd5b610334610dc9565b341561040257600080fd5b6101fe6004803560248101910135610dd8565b341561042057600080fd5b6101fe600160a060020a0360043516610e8a565b341561043f57600080fd5b610225600160a060020a0360043516610ec0565b341561045e57600080fd5b610225600160a060020a0360043516610eda565b341561047d57600080fd5b6101fe600160a060020a0360043516610f60565b341561049c57600080fd5b6101fe600160a060020a036004358116906024358116906044359060643516610f97565b34156104cb57600080fd5b6101fe610ff5565b34156104de57600080fd5b6101fe600160a060020a036004358116906024351660443561108b565b341561050657600080fd5b6101fe600160a060020a03600435166110e0565b341561052557600080fd5b610225600160a060020a0360043516611101565b341561054457600080fd5b6101fe600160a060020a036004358116906024351660443561111d565b341561056c57600080fd5b6101fe600160a060020a0360043581169060243516611181565b341561059157600080fd5b6103346111cb565b34156105a457600080fd5b6102e8600160a060020a03600435166111d6565b34156105c357600080fd5b610225600160a060020a036004351660243561124f565b34156105e557600080fd5b610225600160a060020a036004358116906024351660443561129c565b341561060d57600080fd5b610225600160a060020a03600435166114de565b341561062c57600080fd5b610334611543565b341561063f57600080fd5b610225600460248135818101908301358060208181020160405190810160405280939291908181526020018383602002808284375094965050509235600160a060020a03169250611552915050565b341561069957600080fd5b6101fe6004356116a3565b34156106af57600080fd5b6101fe600160a060020a036004351660243560443515156116ea565b34156106d657600080fd5b610225600160a060020a0360043516602435611736565b34156106f857600080fd5b61033461180a565b341561070b57600080fd5b6102e8600160a060020a036004351661181d565b341561072a57600080fd5b6103346118a2565b61073b3361181d565b1561079157600160a060020a038216151561075557600080fd5b600160a060020a038116151561076a57600080fd5b6107876000600a600160a060020a0385168463ffffffff6118b116565b61079181836118cc565b5050565b6000806107a0611941565b5090506107ae8482856119bd565b949350505050565b6000806107c1611941565b50905080600160a060020a0316631638a3fb6000604051602001526040518163ffffffff1660e060020a028152600401602060405180830381600087803b151561080a57600080fd5b6102c65a03f1151561081b57600080fd5b50505060405180519250505090565b60008060006108383361181d565b1561089857610845611a40565b92506001831461085f5761085883611b78565b9250610898565b610867611941565b915091506108798682848a888a611be1565b92506001831461088c5761085883611b78565b61089886888787611dcd565b5050949350505050565b6108ab3361181d565b15610791576108cd6000600a600160a060020a0385168463ffffffff611e5716565b15156108d857600080fd5b6108f56000600a600160a060020a0385168463ffffffff611e6e16565b6107918183611e83565b60025460009033600160a060020a0390811691161415610a7f57600160a060020a038516151561092e57600080fd5b600160a060020a038416151561094357600080fd5b600160a060020a038316151561095857600080fd5b600160a060020a038216151561096d57600080fd5b610997867f54696d65486f6c64657200000000000000000000000000000000000000000000611ee0565b506109ab6000600f8663ffffffff6120d116565b6109be600060108563ffffffff6120d116565b6109d1600060118463ffffffff6120d116565b6109e4600060068763ffffffff61214b16565b610a1860006009877f800000000000000000000000000000000000000000000000000000000000000063ffffffff61215f16565b81600160a060020a0316630a57ce3b8660405160e060020a63ffffffff8416028152600160a060020a039091166004820152602401600060405180830381600087803b1515610a6657600080fd5b6102c65a03f11515610a7757600080fd5b505050600190505b95945050505050565b60035460009033600160a060020a03908116911614610aa957506000610ad2565b506003805460028054600160a060020a0319908116600160a060020a0384161790915516905560015b90565b6000610ae283338461129c565b9392505050565b600454600090600160a060020a031663bc65792783836040516020015260405160e060020a63ffffffff84160281526004810191909152602401602060405180830381600087803b1515610b3c57600080fd5b6102c65a03f11515610b4d57600080fd5b5050506040518051915050600160a060020a0381161515610b6d57600080fd5b919050565b6000610b8581600f63ffffffff61217416565b905090565b600454600160a060020a031681565b7ff8748b040716bebd0fc7631bc2fa3905219c951c1754ad6eecf1606b380f6e308282604051600160a060020a039283168152911660208201526040908101905180910390a15050565b60025460009033600160a060020a0390811691161415610b6d57600160a060020a0382161515610c1557506000610b6d565b5060038054600160a060020a038316600160a060020a03199091161790556001919050565b600080610c463361181d565b15610dc157848314610c5757600080fd5b610c5f6121d3565b9150600090505b84811015610dc157600160a060020a038216639ed4fa5a878784818110610c8957fe5b90506020020135600160a060020a031660006040516020015260405160e060020a63ffffffff8416028152600160a060020a039091166004820152602401602060405180830381600087803b1515610ce057600080fd5b6102c65a03f11515610cf157600080fd5b505050604051805190501515610d0657600080fd5b610d386006878784818110610d1757fe5b90506020020135600160a060020a0316600061214b9092919063ffffffff16565b610d806009878784818110610d4957fe5b90506020020135600160a060020a03168686858181101515610d6757fe5b90506020020135600061215f909392919063ffffffff16565b610db9868683818110610d8f57fe5b90506020020135600160a060020a03168585848181101515610dad57fe5b905060200201356121fe565b600101610c66565b505050505050565b600354600160a060020a031681565b6000610de33361181d565b15610e85575060005b81811015610e8557610e266006848484818110610e0557fe5b90506020020135600160a060020a031660006122659092919063ffffffff16565b610e596009848484818110610e3757fe5b60009392600160a060020a03602090920201351690508263ffffffff61215f16565b610e7d838383818110610e6857fe5b90506020020135600160a060020a0316612279565b600101610dec565b505050565b60025433600160a060020a0390811691161415610ebd5760058054600160a060020a031916600160a060020a0383161790555b50565b6000610ed48160098463ffffffff6122f116565b92915050565b600080610ee5611941565b50905080600160a060020a0316636ab3c7008460006040516020015260405160e060020a63ffffffff8416028152600160a060020a039091166004820152602401602060405180830381600087803b1515610f3f57600080fd5b6102c65a03f11515610f5057600080fd5b5050506040518051949350505050565b60025433600160a060020a0390811691161415610ebd5760048054600160a060020a038316600160a060020a031990911617905550565b7f144845eeb484e3f074766eb65a15afd2889f6c747d90354396914e8365c6985a84848484604051600160a060020a03948516815292841660208401526040808401929092529092166060820152608001905180910390a150505050565b60025433600160a060020a039081169116141561108957600454600160a060020a031663c375c2ef3060006040516020015260405160e060020a63ffffffff8416028152600160a060020a039091166004820152602401602060405180830381600087803b151561106557600080fd5b6102c65a03f1151561107657600080fd5b5050506040518051905050611089612307565b565b7f5548c837ab068cf56a2c2479df0882a4922fd203edb7517321831d95078c5f62838383604051600160a060020a039384168152919092166020820152604080820192909252606001905180910390a1505050565b6110e93361181d565b15610ebd57610ebd600060108363ffffffff6120d116565b600080600061110e611941565b915091506107ae8183866119bd565b81600160a060020a031683600160a060020a03167f2943030ec8237acc21c9f7b88449db73d4b0f8e1c64675fa50b58844c9fb69ec61115a61232a565b84604051600160a060020a03909216825260208201526040908101905180910390a3505050565b7fec2210f07d90c7950ab3623fc89a4ccb3328f38c81cc33d1c4a5f47fb4d8bad58282604051600160a060020a039283168152911660208201526040908101905180910390a15050565b600080610ae2611941565b60025460009033600160a060020a0390811691161415610b6d57600160a060020a038216151561120857506000610b6d565b600354600160a060020a03161561122a5760038054600160a060020a03191690555b5060028054600160a060020a038316600160a060020a03199091161790556001919050565b600080600061125c611941565b9150915061126e858284333389611be1565b9250600183146112885761128183611b78565b9250611294565b61129485338633611dcd565b505092915050565b60008080856112b38260068363ffffffff61232e16565b156114d457600160a060020a03871615156112cd57600080fd5b6112e0600060068963ffffffff61232e16565b15156112eb57600080fd5b6112f487610ec0565b85111561130d57611306612ee7611b78565b93506114d4565b611315610b72565b600160a060020a0316638340f54988338860006040516020015260405160e060020a63ffffffff8616028152600160a060020a0393841660048201529190921660248201526044810191909152606401602060405180830381600087803b151561137e57600080fd5b6102c65a03f1151561138f57600080fd5b5050506040518051905015156113aa57611306612ee3611b78565b6113b2611941565b9250925081600160a060020a031687600160a060020a031614151561144b5782600160a060020a031663b3db428b88888860405160e060020a63ffffffff8616028152600160a060020a0393841660048201529190921660248201526044810191909152606401600060405180830381600087803b151561143257600080fd5b6102c65a03f1151561144357600080fd5b5050506114b4565b82600160a060020a0316632f4f21e2878760405160e060020a63ffffffff8516028152600160a060020a0390921660048301526024820152604401600060405180830381600087803b151561149f57600080fd5b6102c65a03f115156114b057600080fd5b5050505b6114c487838589896123446123c6565b6114cf878787612458565b600193505b5050509392505050565b6000806114e9611941565b50905080600160a060020a031663bf6b874e8460006040516020015260405160e060020a63ffffffff8416028152600160a060020a039091166004820152602401602060405180830381600087803b1515610f3f57600080fd5b600254600160a060020a031681565b60025460009081908190819033600160a060020a039081169116141561169a57600092505b85518310156116955785838151811061158c57fe5b90602001906020020151915081600160a060020a03166370a082313060006040516020015260405160e060020a63ffffffff8416028152600160a060020a039091166004820152602401602060405180830381600087803b15156115ef57600080fd5b6102c65a03f1151561160057600080fd5b5050506040518051915050801561168a5781600160a060020a031663a9059cbb868360006040516020015260405160e060020a63ffffffff8516028152600160a060020a0390921660048301526024820152604401602060405180830381600087803b151561166e57600080fd5b6102c65a03f1151561167f57600080fd5b505050604051805150505b600190920191611577565b600193505b50505092915050565b6116ab61232a565b600160a060020a03167f9cf38cf2dbf9139f5c32639950507b10775fbbe0421f3e168bc2d1bb1ae3208c8260405190815260200160405180910390a250565b8015157f360225f74eacd06eefedf821b89c21c7c975b645503e5198c6a60a62f84e302b8484604051600160a060020a03909216825260208201526040908101905180910390a2505050565b60008060006117647f466561747572654665654d616e61676572000000000000000000000000000000610ae9565b600160a060020a031633600160a060020a031614151561178357600080fd5b600160a060020a038516151561179857600080fd5b6117a061180a565b600160a060020a031615156117b157fe5b6117b9611941565b9092509050600160a060020a03811615156117d057fe5b6117e5818284886117df61180a565b89611be1565b9250600183146117f85761128183611b78565b6112948561180461180a565b866124c0565b6000610b8581601063ffffffff61217416565b6000806118497f557365724d616e61676572000000000000000000000000000000000000000000610ae9565b905080600160a060020a0316632aa09e5a8460006040516020015260405160e060020a63ffffffff8416028152600160a060020a039091166004820152602401602060405180830381600087803b1515610f3f57600080fd5b600554600160a060020a031690565b6118c6848484600160a060020a038516612528565b50505050565b6118d46118a2565b600160a060020a031663544a6487838360405160e060020a63ffffffff8516028152600160a060020a03928316600482015291166024820152604401600060405180830381600087803b151561192957600080fd5b6102c65a03f1151561193a57600080fd5b5050505050565b60008061195581601163ffffffff61217416565b915081600160a060020a031663c61f44b86000604051602001526040518163ffffffff1660e060020a028152600401602060405180830381600087803b151561199d57600080fd5b6102c65a03f115156119ae57600080fd5b50505060405180519293915050565b600082600160a060020a0316630e7ae6a2858460006040516020015260405160e060020a63ffffffff8516028152600160a060020a03928316600482015291166024820152604401602060405180830381600087803b1515611a1e57600080fd5b6102c65a03f11515611a2f57600080fd5b505050604051805195945050505050565b6000806000611a6e7f50656e64696e674d616e61676572000000000000000000000000000000000000610ae9565b915081600160a060020a031633600160a060020a0316141515611b6e57600036604051808383808284378201915050925050506040518091039020905081600160a060020a0316630fee1efc82600036303360006040516020015260405160e060020a63ffffffff881602815260048101868152600160a060020a0380851660448401528316606483015260806024830190815260848301869052909160a40186868082843782019150509650505050505050602060405180830381600087803b1515611b3a57600080fd5b6102c65a03f11515611b4b57600080fd5b505050604051805193505060018314611b645782611b67565b60035b9250611b73565b600192505b505090565b6000611b826118a2565b600160a060020a031663df26ca088360405160e060020a63ffffffff84160281526004810191909152602401600060405180830381600087803b1515611bc757600080fd5b6102c65a03f11515611bd857600080fd5b50929392505050565b600080611bef8887876119bd565b905080831115611c0b57611c04612ee6611b78565b9150611dc2565b611c13610b72565b600160a060020a031663d9caed1289868660006040516020015260405160e060020a63ffffffff8616028152600160a060020a0393841660048201529190921660248201526044810191909152606401602060405180830381600087803b1515611c7c57600080fd5b6102c65a03f11515611c8d57600080fd5b505050604051805190501515611ca857611c04612ee3611b78565b600160a060020a0388811690881614611d3b5785600160a060020a031663644964758987868560405160e060020a63ffffffff8716028152600160a060020a03948516600482015292909316602483015260448201526064810191909152608401600060405180830381600087803b1515611d2257600080fd5b6102c65a03f11515611d3357600080fd5b505050611dad565b85600160a060020a031663d40af43b86858460405160e060020a63ffffffff8616028152600160a060020a03909316600484015260248301919091526044820152606401600060405180830381600087803b1515611d9857600080fd5b6102c65a03f11515611da957600080fd5b5050505b611dbd88888888876125346123c6565b600191505b509695505050505050565b611dd56118a2565b600160a060020a031663728994e78585858560405160e060020a63ffffffff8716028152600160a060020a039485166004820152928416602484015260448301919091529091166064820152608401600060405180830381600087803b1515611e3d57600080fd5b6102c65a03f11515611e4e57600080fd5b50505050505050565b6000610a7f858585600160a060020a03861661259b565b6118c6848484600160a060020a0385166125a9565b611e8b6118a2565b600160a060020a031663a191d167838360405160e060020a63ffffffff8516028152600160a060020a03928316600482015291166024820152604401600060405180830381600087803b151561192957600080fd5b60025460009081908190819033600160a060020a03908116911614611f0457600080fd5b600160a060020a0386161515611f1957600080fd5b600454600160a060020a0316158015935080611f435750600454600160a060020a03878116911614155b15611f645760048054600160a060020a031916600160a060020a0388161790555b600454600160a060020a031691508163bc65792760006040516020015260405160e060020a63ffffffff83160281527f4d756c74694576656e7473486973746f727900000000000000000000000000006004820152602401602060405180830381600087803b1515611fd557600080fd5b6102c65a03f11515611fe657600080fd5b5050506040518051915050600160a060020a038116158015906120175750600554600160a060020a03828116911614155b156120385760058054600160a060020a031916600160a060020a0383161790555b84156120bf5781600160a060020a031663b7c46cd5308760006040516020015260405160e060020a63ffffffff8516028152600160a060020a0390921660048301526024820152604401602060405180830381600087803b151561209b57600080fd5b6102c65a03f115156120ac57600080fd5b505050604051805160011490506120bf57fe5b82156116955760069695505050505050565b825460018401548354600160a060020a03909216916379a7cfee91908460405160e060020a63ffffffff861602815260048101939093526024830191909152600160a060020a03166044820152606401600060405180830381600087803b151561213a57600080fd5b6102c65a03f11515610dc157600080fd5b610e858383600160a060020a0384166125b5565b6118c68484600160a060020a038516846125e1565b815460018301548254600092600160a060020a03169163d3a3968691846040516020015260405160e060020a63ffffffff851602815260048101929092526024820152604401602060405180830381600087803b1515610f3f57600080fd5b6000610b857f45524332304d616e616765720000000000000000000000000000000000000000610ae9565b6122066118a2565b600160a060020a031663e9112e9a8383600160405160e060020a63ffffffff8616028152600160a060020a039093166004840152602483019190915215156044820152606401600060405180830381600087803b151561192957600080fd5b610e858383600160a060020a038416612659565b6122816118a2565b600160a060020a031663e9112e9a8260008060405160e060020a63ffffffff8616028152600160a060020a039093166004840152602483019190915215156044820152606401600060405180830381600087803b15156122e057600080fd5b6102c65a03f115156118c657600080fd5b60006107ae8484600160a060020a038516612685565b60025433600160a060020a03908116911614156110895733600160a060020a0316ff5b3390565b60006107ae8484600160a060020a0385166126fd565b84600160a060020a0316639cd004488585858560405160e060020a63ffffffff8716028152600160a060020a03948516600482015292909316602483015260448201526064810191909152608401600060405180830381600087803b15156123ab57600080fd5b6102c65a03f115156123bc57600080fd5b5050505050505050565b60006123d0612d0b565b6000806123de8a89896119bd565b93506123fc6000600a600160a060020a038d1663ffffffff61272b16565b9250600091505b6124166000600a8563ffffffff61273e16565b1561244c5761242e6000600a8563ffffffff61274b16565b9050612441818b8989888a63ffffffff16565b816001019150612403565b50505050505050505050565b6124606118a2565b600160a060020a0316638b7711b484848460405160e060020a63ffffffff8616028152600160a060020a0393841660048201529190921660248201526044810191909152606401600060405180830381600087803b151561213a57600080fd5b6124c86118a2565b600160a060020a0316639826ad6984848460405160e060020a63ffffffff8616028152600160a060020a0393841660048201529190921660248201526044810191909152606401600060405180830381600087803b151561213a57600080fd5b6118c684848484612758565b84600160a060020a0316634ca95be88585858560405160e060020a63ffffffff8716028152600160a060020a03948516600482015292909316602483015260448201526064810191909152608401600060405180830381600087803b15156123ab57600080fd5b6000610a7f85858585612820565b6118c68484848461285c565b610e8583837f736574000000000000000000000000000000000000000000000000000000000084612957565b835460018501548454600160a060020a039092169163a14ff85791908560405191825260208201526040908101905180910390208460405160e060020a63ffffffff8616028152600481019390935260248301919091526044820152606401600060405180830381600087803b1515611e3d57600080fd5b610e8583837f7365740000000000000000000000000000000000000000000000000000000000846129ab565b825460018401548354600092600160a060020a0316916337d9d7fc9185604051918252602082015260409081019051809103902060006040516020015260405160e060020a63ffffffff851602815260048101929092526024820152604401602060405180830381600087803b1515611a1e57600080fd5b60006107ae84847f736574000000000000000000000000000000000000000000000000000000000085612a50565b612733612d0b565b6107ae848484612a6c565b60006107ae848484612a7f565b60006107ae848484612a8c565b80151561276457600080fd5b61277084848484612820565b1561277a576118c6565b612785848484612a99565b151561279a5761279a848460010184846125e1565b6127a8848460020184612685565b156127e7576127ca8484600301846127c4888860020188612685565b85612aa6565b6127e7848460040184846127e2898960020189612685565b612aa6565b6127f8846003850184846000612aa6565b612807848460020184846125e1565b6118c6848484612818838383612ab9565b600101612b31565b60008115801590610a7f575061283b85856003018585612ba9565b151580610a7f575081612852866002870186612685565b1495945050505050565b61286884848484612820565b1515612873576118c6565b61289a84846003018461288b88886004018888612ba9565b6127e289896003018989612ba9565b6128c18484600401846128b288886003018888612ba9565b6127e289896004018989612ba9565b6128cf848460010184612685565b8114156128f3576128f38484600101846128ee88886003018888612ba9565b6125e1565b612901848460020184612685565b811415612920576129208484600201846128ee88886004018888612ba9565b61292f84846003018484612bce565b61293e84846004018484612bce565b6118c68484846001612951848484612ab9565b03612b31565b600061296585858585612a50565b1561296f5761193a565b61297a858585612a99565b600101905061298f8560028601858486612bde565b61299f8560018601858585612bde565b61193a85858584612b31565b60008060006129bc87878787612a50565b15156129c757611e4e565b6129d2878787612a99565b92506129e387600288018786612ba9565b91506129f487876001018787612ba9565b905082811015612a1e57612a0e8760018801878585612bde565b612a1e8760028801878486612bde565b612a2f876001880187876000612bde565b612a40876002880187866000612bde565b611e4e8787876000198701612b31565b6000612a6185856001018585612ba9565b151595945050505050565b612a74612d0b565b6107ae848484612c02565b60006107ae848484612c20565b60006107ae848484612c5b565b60006107ae848484612ab9565b811561193a5761193a8585858585612bde565b825460018401548354600092600160a060020a0316916353aa3f5e9185604051918252602082015260409081019051809103902060006040516020015260405160e060020a63ffffffff851602815260048101929092526024820152604401602060405180830381600087803b1515611a1e57600080fd5b835460018501548454600160a060020a03909216916353e7168b91908560405191825260208201526040908101905180910390208460405160e060020a63ffffffff8616028152600481019390935260248301919091526044820152606401600060405180830381600087803b1515611e3d57600080fd5b6000610a7f858585856040519182526020820152604090810190518091039020612685565b80156118c6576118c68484848460005b61193a858585856040519182526020820152604090810190518091039020846125e1565b612c0a612d0b565b6107ae848484612c1b838383612ab9565b612ca7565b600081602001511580612c445750612c42848484606001518560400151612820565b155b15612c5157506000610ae2565b5060019392505050565b6000612c68848484612c20565b1515612c7357600080fd5b81604001519050612c8e848484606001518560400151612cc7565b6040830152600160208301818151039052509392505050565b612caf612d0b565b610a7f83612cc1878760010187612685565b84612cd8565b6000610a7f85856003018585612ba9565b612ce0612d0b565b6080604051908101604090815283825260208201939093529182019290925260608101929092525090565b60806040519081016040908152600080835260208301819052908201819052606082015290565b8254600160a060020a031916600160a060020a0392909216919091178255600190910155565b6107918282612d86565b6107918282612d76565b6107918282612e5b565b8154612d829082612e65565b9055565b612dc782826040519081527f636f756e7400000000000000000000000000000000000000000000000000000060208201526025016040518091039020612d76565b612e0b82600101826040519081527f696e64657865730000000000000000000000000000000000000000000000000060208201526027016040518091039020612d76565b61079182600201826040519081527f76616c756573000000000000000000000000000000000000000000000000000060208201526026016040518091039020612d76565b8154612d829082612e65565b6107918282612e87565b81151580612e71575080155b1561079157600080fd5b8154612d829082612e65565b612ec882826040519081527f75696e742f636f756e74000000000000000000000000000000000000000000006020820152602a016040518091039020612d76565b612f0c82600101826040519081527f75696e742f6669727374000000000000000000000000000000000000000000006020820152602a016040518091039020612d76565b612f5082600201826040519081527f75696e742f6c617374000000000000000000000000000000000000000000000060208201526029016040518091039020612d76565b612f9482600301826040519081527f75696e742f6e657874000000000000000000000000000000000000000000000060208201526029016040518091039020612d76565b61079182600401826040519081527f75696e742f70726576000000000000000000000000000000000000000000000060208201526029016040518091039020612d76565b8154612d829082612e655600a165627a7a72305820dfec07911b869869fd359e6545fb1667ca50072d9fe99a8eaab4404e1ca30a4c0029",
  "source": "pragma solidity ^0.4.11;\n\nimport \"./TimeHolderEmitter.sol\";\nimport \"../core/common/BaseManager.sol\";\nimport \"../core/common/ListenerInterface.sol\";\nimport {ERC20Interface as Asset} from \"../core/erc20/ERC20Interface.sol\";\nimport {ERC20Manager as ERC20Service} from \"../core/erc20/ERC20Manager.sol\";\nimport \"./DepositWalletInterface.sol\";\nimport \"./ERC20DepositStorage.sol\";\nimport \"../core/lib/SafeMath.sol\";\n\n\n/// @title TimeHolder\n/// @notice Contract allows to block some amount of shares\" balance to unlock\n/// functionality inside a system.\ncontract TimeHolder is BaseManager, TimeHolderEmitter {\n\n    using SafeMath for uint;\n\n    /** Error codes */\n\n    uint constant ERROR_TIMEHOLDER_ALREADY_ADDED = 12000;\n    uint constant ERROR_TIMEHOLDER_TRANSFER_FAILED = 12003;\n    uint constant ERROR_TIMEHOLDER_INSUFFICIENT_BALANCE = 12006;\n    uint constant ERROR_TIMEHOLDER_LIMIT_EXCEEDED = 12007;\n\n    /** Storage keys */\n\n    StorageInterface.AddressesSet sharesTokenStorage;\n    StorageInterface.AddressUIntMapping limitsStorage;\n\n    StorageInterface.AddressOrderedSetMapping listeners;\n    StorageInterface.Address walletStorage;\n    StorageInterface.Address feeWalletStorage;\n    StorageInterface.Address erc20DepositStorage;\n\n    /// @dev Guards invokations only for FeatureManager\n    modifier onlyFeatureFeeManager {\n        require(msg.sender == lookupManager(\"FeatureFeeManager\"));\n        _;\n    }\n\n    /// @dev only token registered in whitelist\n    modifier onlyAllowedToken(address _token) {\n        if (store.includes(sharesTokenStorage, _token)) {\n            _;\n        }\n    }\n\n    /// @notice Constructor\n    function TimeHolder(Storage _store, bytes32 _crate) BaseManager(_store, _crate) public {\n        sharesTokenStorage.init(\"sharesContractsStorage_v2\");\n        limitsStorage.init(\"limitAmountsStorage_v2\");\n        listeners.init(\"listeners_v2\");\n        walletStorage.init(\"timeHolderWalletStorage\");\n        feeWalletStorage.init(\"timeHolderFeeWalletStorage\");\n        erc20DepositStorage.init(\"erc20DepositStorage\");\n    }\n\n    /// @notice Init TimeHolder contract.\n    /// @param _contractsManager address.\n    /// @return result code of an operation\n    function init(\n        address _contractsManager,\n        address _defaultToken,\n        address _wallet,\n        address _feeWallet,\n        address _erc20DepositStorage\n    )\n    public\n    onlyContractOwner\n    returns (uint)\n    {\n        require(_defaultToken != 0x0);\n        require(_wallet != 0x0);\n        require(_feeWallet != 0x0);\n        require(_erc20DepositStorage != 0x0);\n\n        BaseManager.init(_contractsManager, \"TimeHolder\");\n\n        store.set(walletStorage, _wallet);\n        store.set(feeWalletStorage, _feeWallet);\n        store.set(erc20DepositStorage, _erc20DepositStorage);\n\n        store.add(sharesTokenStorage, _defaultToken);\n        store.set(limitsStorage, _defaultToken, 2**255);\n\n        ERC20DepositStorage(_erc20DepositStorage).setSharesContract(_defaultToken);\n\n        return OK;\n    }\n\n     /// @notice Gets shares amount deposited by a particular shareholder.\n     ///\n     /// @param _depositor shareholder address.\n     ///\n     /// @return shares amount.\n    function depositBalance(address _depositor) public view returns (uint) {\n        var (_depositStorage, _defaultToken) = getDepositStorage();\n        return getDepositBalance(_defaultToken, _depositStorage, _depositor);\n    }\n\n    /// @notice Gets shares amount deposited by a particular shareholder.\n    ///\n    /// @param _token token symbol.\n    /// @param _depositor shareholder address.\n    ///\n    /// @return _balance shares amount.\n    function getDepositBalance(address _token, address _depositor) public view returns (uint) {\n        var (_depositStorage,) = getDepositStorage();\n        return getDepositBalance(_token, _depositStorage, _depositor);\n    }\n\n    /// @dev Gets balance of tokens deposited to TimeHolder\n    ///\n    /// @param _token token to check\n    /// @param _depositStorage address of DepositStorage contract\n    /// @param _depositor shareholder address\n    function getDepositBalance(\n        address _token,\n        address _depositStorage,\n        address _depositor\n    )\n    private\n    view\n    returns (uint _balance)\n    {\n        return ERC20DepositStorage(_depositStorage).depositBalance(_token, _depositor);\n    }\n\n    /// @dev Gets pair of depositStorage and default token set up for a deposits\n    ///\n    /// @return {\n    ///     \"_depositStorage\": \"deposit storage contract\",\n    ///     \"_token\": \"default shares contract\",\n    /// }\n    function getDepositStorage() private view returns (ERC20DepositStorage _depositStorage, address _token) {\n        _depositStorage = ERC20DepositStorage(store.get(erc20DepositStorage));\n        _token = _depositStorage.getSharesContract();\n    }\n\n    /// @notice Adds ERC20-compatible token symbols and put them in the whitelist to be used then as\n    /// shares for other contracts and allow users to deposit for this share.\n    ///\n    /// @dev Allowed only for CBEs\n    ///\n    /// @param _whitelist list of token addresses that will be allowed to be deposited in TimeHolder\n    /// @param _limits list of limits\n    function allowShares(address[] _whitelist, uint[] _limits)\n    external\n    onlyAuthorized\n    {\n        require(_whitelist.length == _limits.length);\n\n        ERC20Service erc20Service = lookupERC20Service();\n        for (uint _idx = 0; _idx < _whitelist.length; ++_idx) {\n            require(erc20Service.isTokenExists(_whitelist[_idx]));\n\n            store.add(sharesTokenStorage, _whitelist[_idx]);\n            store.set(limitsStorage, _whitelist[_idx], _limits[_idx]);\n\n            _emitSharesWhiteListAdded(_whitelist[_idx], _limits[_idx]);\n        }\n    }\n\n    /// @notice Removes ERC20-compatible token symbols from TimeHolder so they will be removed\n    /// from the whitelist and will not be accessible to be used as shares.\n    /// All deposited amounts still will be available to withdraw.\n    /// @dev Allowed only for CBEs\n    ///\n    /// @param _blacklist list of token addresses that will be removed from TimeHolder\n    function denyShares(address[] _blacklist)\n    external\n    onlyAuthorized\n    {\n        for (uint _idx = 0; _idx < _blacklist.length; ++_idx) {\n            store.remove(sharesTokenStorage, _blacklist[_idx]);\n            store.set(limitsStorage, _blacklist[_idx], 0);\n\n            _emitSharesWhiteListRemoved(_blacklist[_idx]);\n        }\n    }\n\n    /// @notice Adds provided listener to observe changes of passed symbol when some amount will be deposited/withdrawn.\n    /// Checks passed listener for HolderListenerInterface compatibility.\n    /// @dev Allowed only for CBEs\n    ///\n    /// @param _token token symbol to watch deposits and withdrawals\n    /// @param _listener address of a listener to add\n    function addListener(address _token, address _listener)\n    external\n    onlyAuthorized\n    {\n        require(_token != 0x0);\n        require(_listener != 0x0);\n\n        store.add(listeners, bytes32(_token), _listener);\n\n        _emitListenerAdded(_listener, _token);\n    }\n\n    /// @notice Removes provided listener from observing changes of passed symbol.\n    /// @dev Allowed only for CBEs\n    ///\n    /// @param _token token symbol to stop watching by a listener\n    /// @param _listener address of a listener to remove\n    function removeListener(address _token, address _listener)\n    external\n    onlyAuthorized\n    {\n        require(store.includes(listeners, bytes32(_token), _listener));\n\n        store.remove(listeners, bytes32(_token), _listener);\n\n        _emitListenerRemoved(_listener, _token);\n    }\n\n    /// @notice Sets fee wallet address.\n    function setFeeWallet(address _feeWallet)\n    public\n    onlyAuthorized\n    {\n        store.set(feeWalletStorage, _feeWallet);\n    }\n\n    /// @notice Deposits shares with provided symbol and prove possesion.\n    /// Amount should be less than or equal to current allowance value.\n    ///\n    /// Proof should be repeated for each active period. To prove possesion without\n    /// depositing more shares, specify 0 amount.\n    ///\n    /// @param _token token address for shares\n    /// @param _amount amount of shares to deposit, or 0 to just prove.\n    ///\n    /// @return result code of an operation.\n    function deposit(address _token, uint _amount) public returns (uint) {\n        return depositFor(_token, msg.sender, _amount);\n    }\n\n    /// @notice Deposit own shares and prove possession for arbitrary shareholder.\n    /// Amount should be less than or equal to caller current allowance value.\n    ///\n    /// Proof should be repeated for each active period. To prove possesion without\n    /// depositing more shares, specify 0 amount.\n    ///\n    /// This function meant to be used by some backend application to prove shares possesion\n    /// of arbitrary shareholders.\n    ///\n    /// @param _token token address for shares\n    /// @param _target to deposit and prove for.\n    /// @param _amount amount of shares to deposit, or 0 to just prove.\n    ///\n    /// @return result code of an operation.\n    function depositFor(address _token, address _target, uint _amount)\n    public\n    onlyAllowedToken(_token)\n    returns (uint)\n    {\n        require(_token != 0x0);\n        require(store.includes(sharesTokenStorage, _token));\n\n        if (_amount > getLimitForToken(_token)) {\n            return _emitError(ERROR_TIMEHOLDER_LIMIT_EXCEEDED);\n        }\n\n        if (!DepositWalletInterface(wallet()).deposit(_token, msg.sender, _amount)) {\n            return _emitError(ERROR_TIMEHOLDER_TRANSFER_FAILED);\n        }\n\n        var (_depositStorage, _defaultToken) = getDepositStorage();\n        if (_token != _defaultToken) {\n            _depositStorage.depositFor(_token, _target, _amount);\n        } else {\n            _depositStorage.depositFor(_target, _amount);\n        }\n\n        _goThroughListeners(_token, _defaultToken, _depositStorage, _target, _amount, _notifyDepositListener);\n\n        _emitDeposit(_token, _target, _amount);\n\n        return OK;\n    }\n\n    /// @notice Withdraw shares from the contract, updating the possesion proof in active period.\n    /// @param _token token symbol to withdraw from.\n    /// @param _amount amount of shares to withdraw.\n    /// @return resultCode result code of an operation.\n    function withdrawShares(address _token, uint _amount)\n    public\n    returns (uint resultCode)\n    {\n        var (_depositStorage, _defaultToken) = getDepositStorage();\n        resultCode = _withdrawShares(_token, _defaultToken, _depositStorage, msg.sender, msg.sender, _amount);\n        if (resultCode != OK) {\n            return _emitError(resultCode);\n        }\n\n        _emitWithdrawShares(_token, msg.sender, _amount, msg.sender);\n    }\n\n    /// @notice Force Withdraw Shares\n    /// Only CBE members are permited to call this function.\n    /// Multisig concensus is required to withdraw shares from shareholder \"_from\"\n    /// and send it to \"_to\".\n    function forceWithdrawShares(address _from, address _token, uint _amount, address _to)\n    public\n    onlyAuthorized\n    returns (uint resultCode) {\n        resultCode = multisig();\n        if (OK != resultCode) {\n            return _emitError(resultCode);\n        }\n\n        var (_depositStorage, _defaultToken) = getDepositStorage();\n        resultCode = _withdrawShares(_token, _defaultToken, _depositStorage, _from, _to, _amount);\n        if (resultCode != OK) {\n            return _emitError(resultCode);\n        }\n\n        _emitWithdrawShares(_token, _from, _amount, _to);\n    }\n\n    /// @notice Provides a way to support getting additional fee for using features of the system.\n    /// @param _account holder of deposits, will pay for using a features\n    /// @param _amount size of a fee\n    /// @return resultCode result code of the operation\n    function takeFeatureFee(address _account, uint _amount)\n    public\n    onlyFeatureFeeManager\n    returns (uint resultCode)\n    {\n        require(_account != 0x0);\n        assert(feeWallet() != 0x0);\n\n        var (_depositStorage, _defaultToken) = getDepositStorage();\n        assert(_defaultToken != 0x0);\n\n        resultCode = _withdrawShares(_defaultToken, _defaultToken, _depositStorage, _account, feeWallet(), _amount);\n        if (resultCode != OK) {\n            return _emitError(resultCode);\n        }\n\n        _emitFeatureFeeTaken(_account, feeWallet(), _amount);\n    }\n\n    /// @notice Gets an associated wallet for the time holder\n    function wallet() public view returns (address) {\n        return store.get(walletStorage);\n    }\n\n    /// @notice Gets an associated fee wallet for the time holder\n    function feeWallet() public view returns (address) {\n        return store.get(feeWalletStorage);\n    }\n\n    /// @notice Total amount of shares for provided symbol\n    /// @param _token token address to check total shares amout\n    /// @return total amount of shares\n    function totalShares(address _token) public view returns (uint) {\n        var (_depositStorage,) = getDepositStorage();\n        return _depositStorage.totalShares(_token);\n    }\n\n    /// @notice Number of shareholders\n    /// @return number of shareholders\n    function shareholdersCount() public view returns (uint) {\n        var (_depositStorage,) = getDepositStorage();\n        return _depositStorage.shareholdersCount();\n    }\n\n    /// @notice Number of shareholders\n    /// @return number of shareholders\n    function shareholdersCount(address _token) public view returns (uint) {\n        var (_depositStorage,) = getDepositStorage();\n        return _depositStorage.shareholdersCount(_token);\n    }\n\n    /// @notice Returns deposit/withdraw limit for shares with provided symbol\n    /// @param _token token address to get limit\n    /// @return limit number for specified shares\n    function getLimitForToken(address _token) public view returns (uint) {\n        return store.get(limitsStorage, _token);\n    }\n\n    /// @notice Gets shares contract that is set up as default (usually TIMEs)\n    function getDefaultShares() public view returns (address) {\n        var (, _token) = getDepositStorage();\n        return _token;\n    }\n\n    /// @notice Withdraws deposited amount of tokens from account to a receiver address.\n    /// Emits its own errorCodes if some will be encountered.\n    ///\n    /// @param _account an address that have deposited tokens\n    /// @param _receiver an address that will receive tokens from _account\n    /// @param _amount amount of tokens to withdraw to the _receiver\n    ///\n    /// @return result code of the operation\n    function _withdrawShares(\n        address _token,\n        address _defaultToken,\n        address _depositStorage,\n        address _account,\n        address _receiver,\n        uint _amount\n    )\n    internal\n    returns (uint)\n    {\n        uint _depositBalance = getDepositBalance(_token, _depositStorage, _account);\n\n        if (_amount > _depositBalance) {\n            return _emitError(ERROR_TIMEHOLDER_INSUFFICIENT_BALANCE);\n        }\n\n        if (!DepositWalletInterface(wallet()).withdraw(_token, _receiver, _amount)) {\n            return _emitError(ERROR_TIMEHOLDER_TRANSFER_FAILED);\n        }\n\n        if (_token != _defaultToken) {\n            ERC20DepositStorage(_depositStorage).withdrawShares(_token, _account, _amount, _depositBalance);\n        } else {\n            ERC20DepositStorage(_depositStorage).withdrawShares(_account, _amount, _depositBalance);\n        }\n\n        _goThroughListeners(_token, _defaultToken, _depositStorage, _account, _amount, _notifyWithdrawListener);\n\n        return OK;\n    }\n\n    /// @dev Notifies listener about depositing token with symbol\n    function _notifyDepositListener(address _listener, address _token, address _target, uint _amount, uint _balance)\n    private\n    {\n        HolderListenerInterface(_listener).tokenDeposit(_token, _target, _amount, _balance);\n    }\n\n    /// @dev Notifies listener about withdrawing token with symbol\n    function _notifyWithdrawListener(address _listener, address _token, address _target, uint _amount, uint _balance)\n    private\n    {\n        HolderListenerInterface(_listener).tokenWithdrawn(_token, _target, _amount, _balance);\n    }\n\n    /// @dev Iterates through listeners of provided symbol and notifies by calling notification function\n    function _goThroughListeners(\n        address _token,\n        address _defaultToken,\n        address _depositStorage,\n        address _target,\n        uint _amount,\n        function (address, address, address, uint, uint) _notification)\n    private\n    {\n        uint _depositBalance = getDepositBalance(_token, _depositStorage, _target);\n        StorageInterface.Iterator memory iterator = store.listIterator(listeners, bytes32(_token));\n        for (uint i = 0; store.canGetNextWithIterator(listeners, iterator); ++i) {\n            address _listener = store.getNextWithIterator(listeners, iterator);\n            _notification(_listener, _token, _target, _amount, _depositBalance);\n        }\n    }\n\n    function lookupERC20Service() internal view returns (ERC20Service) {\n        return ERC20Service(lookupManager(\"ERC20Manager\"));\n    }\n\n    /** Event emitting */\n\n    function _emitDeposit(address _token, address _who, uint _amount) private {\n        TimeHolderEmitter(getEventsHistory()).emitDeposit(_token, _who, _amount);\n    }\n\n    function _emitWithdrawShares(address _token, address _who, uint _amount, address _receiver) private {\n        TimeHolderEmitter(getEventsHistory()).emitWithdrawShares(_token, _who, _amount, _receiver);\n    }\n\n    function _emitListenerAdded(address _listener, address _token) private {\n        TimeHolderEmitter(getEventsHistory()).emitListenerAdded(_listener, _token);\n    }\n\n    function _emitListenerRemoved(address _listener, address _token) private {\n        TimeHolderEmitter(getEventsHistory()).emitListenerRemoved(_listener, _token);\n    }\n\n    function _emitFeatureFeeTaken(address _from, address _to, uint _amount) private {\n        TimeHolderEmitter(getEventsHistory()).emitFeatureFeeTaken(_from, _to, _amount);\n    }\n\n    function _emitSharesWhiteListAdded(address _token, uint _limit) private {\n        TimeHolderEmitter(getEventsHistory()).emitSharesWhiteListChanged(_token, _limit, true);\n    }\n\n    function _emitSharesWhiteListRemoved(address _token) private {\n        TimeHolderEmitter(getEventsHistory()).emitSharesWhiteListChanged(_token, 0, false);\n    }\n\n    function _emitError(uint e) private returns (uint) {\n        TimeHolderEmitter(getEventsHistory()).emitError(e);\n        return e;\n    }\n}\n",
  "sourcePath": "/Users/ahiatsevich/Development/chronobank/SmartContracts/contracts/timeholder/TimeHolder.sol",
  "compiler": {
    "name": "solc",
    "version": "0.4.18+commit.9cf6e910.Emscripten.clang"
  },
  "schemaVersion": "1.0.1",
  "updatedAt": "2018-01-26T09:48:45.306Z"
}