{
  "contractName": "TimeHolderDammyWallet",
  "abi": [
    {
      "constant": false,
      "inputs": [
        {
          "name": "_asset",
          "type": "address"
        },
        {
          "name": "_from",
          "type": "address"
        },
        {
          "name": "_amount",
          "type": "uint256"
        }
      ],
      "name": "deposit",
      "outputs": [
        {
          "name": "",
          "type": "bool"
        }
      ],
      "payable": false,
      "stateMutability": "nonpayable",
      "type": "function"
    },
    {
      "constant": false,
      "inputs": [
        {
          "name": "_asset",
          "type": "address"
        },
        {
          "name": "_to",
          "type": "address"
        },
        {
          "name": "_amount",
          "type": "uint256"
        }
      ],
      "name": "withdraw",
      "outputs": [
        {
          "name": "",
          "type": "bool"
        }
      ],
      "payable": false,
      "stateMutability": "nonpayable",
      "type": "function"
    }
  ],
  "bytecode": "0x6060604052341561000f57600080fd5b6101b48061001e6000396000f3006060604052600436106100325763ffffffff60e060020a6000350416638340f5498114610037578063d9caed1214610073575b600080fd5b341561004257600080fd5b61005f600160a060020a036004358116906024351660443561009b565b604051901515815260200160405180910390f35b341561007e57600080fd5b61005f600160a060020a0360043581169060243516604435610129565b600083600160a060020a03166323b872dd84308560006040516020015260405160e060020a63ffffffff8616028152600160a060020a0393841660048201529190921660248201526044810191909152606401602060405180830381600087803b151561010757600080fd5b6102c65a03f1151561011857600080fd5b505050604051805195945050505050565b600083600160a060020a031663a9059cbb848460006040516020015260405160e060020a63ffffffff8516028152600160a060020a0390921660048301526024820152604401602060405180830381600087803b151561010757600080fd00a165627a7a723058209cd60dd73c7c615a0f3bfd1cc85c2fc28a1b7a02d43139492e10825a2ca2d3800029",
  "source": "pragma solidity ^0.4.11;\n\nimport \"../../core/erc20/ERC20Interface.sol\";\n/**\n* @title TimeHolder's wallet contract defines a basic implementation of DepositWalletInterface\n* to provide a way to store/deposit/withdraw tokens on this contract according to access rights.\n* Here deposit/withdraw are allowed only by TimeHolder contract.\n*\n* @dev Specifies a contract that helps in updating TimeHolder interface by delegating token's ownership\n* to TimeHolderWallet contract\n*/\ncontract TimeHolderDammyWallet {\n    /**\n    * Deposits some amount of tokens on wallet's account using ERC20 tokens\n    *\n    * @dev Allowed only for timeHolder\n    *\n    * @param _asset an address of token\n    * @param _from an address of a sender who is willing to transfer her resources\n    * @param _amount an amount of tokens (resources) a sender wants to transfer\n    *\n    * @return `true` if all successfuly completed, `false` otherwise\n    */\n    function deposit(address _asset, address _from, uint256 _amount) returns (bool) {\n        return ERC20Interface(_asset).transferFrom(_from, this, _amount);\n    }\n\n    /**\n    * Withdraws some amount of tokens from wallet's account using ERC20 tokens\n    *\n    * @dev Allowed only for timeHolder\n    *\n    * @param _asset an address of token\n    * @param _to an address of a receiver who is willing to get stored resources\n    * @param _amount an amount of tokens (resources) a receiver wants to get\n    *\n    * @return `true` if all successfuly completed, `false` otherwise\n    */\n    function withdraw(address _asset, address _to, uint256 _amount) returns (bool) {\n        return ERC20Interface(_asset).transfer(_to, _amount);\n    }\n}\n",
  "sourcePath": "/Users/ahiatsevich/Development/chronobank/SmartContracts/contracts/helpers/legacy/TimeHolderDammyWallet.sol",
  "compiler": {
    "name": "solc",
    "version": "0.4.18+commit.9cf6e910.Emscripten.clang"
  },
  "schemaVersion": "1.0.1",
  "updatedAt": "2018-02-05T07:55:47.412Z"
}