{
  "contractName": "TimeHolderEmitter",
  "abi": [
    {
      "constant": false,
      "inputs": [
        {
          "name": "listener",
          "type": "address"
        },
        {
          "name": "token",
          "type": "address"
        }
      ],
      "name": "emitListenerAdded",
      "outputs": [],
      "payable": false,
      "stateMutability": "nonpayable",
      "type": "function"
    },
    {
      "constant": false,
      "inputs": [
        {
          "name": "token",
          "type": "address"
        },
        {
          "name": "who",
          "type": "address"
        },
        {
          "name": "amount",
          "type": "uint256"
        },
        {
          "name": "receiver",
          "type": "address"
        }
      ],
      "name": "emitWithdrawShares",
      "outputs": [],
      "payable": false,
      "stateMutability": "nonpayable",
      "type": "function"
    },
    {
      "constant": false,
      "inputs": [
        {
          "name": "token",
          "type": "address"
        },
        {
          "name": "who",
          "type": "address"
        },
        {
          "name": "amount",
          "type": "uint256"
        }
      ],
      "name": "emitDeposit",
      "outputs": [],
      "payable": false,
      "stateMutability": "nonpayable",
      "type": "function"
    },
    {
      "constant": false,
      "inputs": [
        {
          "name": "_from",
          "type": "address"
        },
        {
          "name": "_to",
          "type": "address"
        },
        {
          "name": "_amount",
          "type": "uint256"
        }
      ],
      "name": "emitFeatureFeeTaken",
      "outputs": [],
      "payable": false,
      "stateMutability": "nonpayable",
      "type": "function"
    },
    {
      "constant": false,
      "inputs": [
        {
          "name": "listener",
          "type": "address"
        },
        {
          "name": "token",
          "type": "address"
        }
      ],
      "name": "emitListenerRemoved",
      "outputs": [],
      "payable": false,
      "stateMutability": "nonpayable",
      "type": "function"
    },
    {
      "constant": false,
      "inputs": [
        {
          "name": "error",
          "type": "uint256"
        }
      ],
      "name": "emitError",
      "outputs": [],
      "payable": false,
      "stateMutability": "nonpayable",
      "type": "function"
    },
    {
      "constant": false,
      "inputs": [
        {
          "name": "token",
          "type": "address"
        },
        {
          "name": "limit",
          "type": "uint256"
        },
        {
          "name": "isAdded",
          "type": "bool"
        }
      ],
      "name": "emitSharesWhiteListChanged",
      "outputs": [],
      "payable": false,
      "stateMutability": "nonpayable",
      "type": "function"
    },
    {
      "anonymous": false,
      "inputs": [
        {
          "indexed": false,
          "name": "token",
          "type": "address"
        },
        {
          "indexed": false,
          "name": "who",
          "type": "address"
        },
        {
          "indexed": false,
          "name": "amount",
          "type": "uint256"
        }
      ],
      "name": "Deposit",
      "type": "event"
    },
    {
      "anonymous": false,
      "inputs": [
        {
          "indexed": false,
          "name": "token",
          "type": "address"
        },
        {
          "indexed": false,
          "name": "who",
          "type": "address"
        },
        {
          "indexed": false,
          "name": "amount",
          "type": "uint256"
        },
        {
          "indexed": false,
          "name": "receiver",
          "type": "address"
        }
      ],
      "name": "WithdrawShares",
      "type": "event"
    },
    {
      "anonymous": false,
      "inputs": [
        {
          "indexed": false,
          "name": "listener",
          "type": "address"
        },
        {
          "indexed": false,
          "name": "token",
          "type": "address"
        }
      ],
      "name": "ListenerAdded",
      "type": "event"
    },
    {
      "anonymous": false,
      "inputs": [
        {
          "indexed": false,
          "name": "listener",
          "type": "address"
        },
        {
          "indexed": false,
          "name": "token",
          "type": "address"
        }
      ],
      "name": "ListenerRemoved",
      "type": "event"
    },
    {
      "anonymous": false,
      "inputs": [
        {
          "indexed": false,
          "name": "token",
          "type": "address"
        }
      ],
      "name": "SharesWhiteListAdded",
      "type": "event"
    },
    {
      "anonymous": false,
      "inputs": [
        {
          "indexed": false,
          "name": "token",
          "type": "address"
        },
        {
          "indexed": false,
          "name": "limit",
          "type": "uint256"
        },
        {
          "indexed": true,
          "name": "isAdded",
          "type": "bool"
        }
      ],
      "name": "SharesWhiteListChanged",
      "type": "event"
    },
    {
      "anonymous": false,
      "inputs": [
        {
          "indexed": false,
          "name": "self",
          "type": "address"
        },
        {
          "indexed": true,
          "name": "from",
          "type": "address"
        },
        {
          "indexed": true,
          "name": "to",
          "type": "address"
        },
        {
          "indexed": false,
          "name": "amount",
          "type": "uint256"
        }
      ],
      "name": "FeatureFeeTaken",
      "type": "event"
    },
    {
      "anonymous": false,
      "inputs": [
        {
          "indexed": true,
          "name": "self",
          "type": "address"
        },
        {
          "indexed": false,
          "name": "errorCode",
          "type": "uint256"
        }
      ],
      "name": "Error",
      "type": "event"
    }
  ],
  "bytecode": "0x6060604052341561000f57600080fd5b6103fd8061001e6000396000f3006060604052600436106100825763ffffffff7c0100000000000000000000000000000000000000000000000000000000600035041663544a64878114610087578063728994e7146100ae5780638b7711b4146100dd5780639826ad6914610105578063a191d1671461012d578063df26ca0814610152578063e9112e9a14610168575b600080fd5b341561009257600080fd5b6100ac600160a060020a036004358116906024351661018f565b005b34156100b957600080fd5b6100ac600160a060020a0360043581169060243581169060443590606435166101d9565b34156100e857600080fd5b6100ac600160a060020a0360043581169060243516604435610237565b341561011057600080fd5b6100ac600160a060020a036004358116906024351660443561028c565b341561013857600080fd5b6100ac600160a060020a03600435811690602435166102f0565b341561015d57600080fd5b6100ac60043561033a565b341561017357600080fd5b6100ac600160a060020a03600435166024356044351515610381565b7ff8748b040716bebd0fc7631bc2fa3905219c951c1754ad6eecf1606b380f6e308282604051600160a060020a039283168152911660208201526040908101905180910390a15050565b7f144845eeb484e3f074766eb65a15afd2889f6c747d90354396914e8365c6985a84848484604051600160a060020a03948516815292841660208401526040808401929092529092166060820152608001905180910390a150505050565b7f5548c837ab068cf56a2c2479df0882a4922fd203edb7517321831d95078c5f62838383604051600160a060020a039384168152919092166020820152604080820192909252606001905180910390a1505050565b81600160a060020a031683600160a060020a03167f2943030ec8237acc21c9f7b88449db73d4b0f8e1c64675fa50b58844c9fb69ec6102c96103cd565b84604051600160a060020a03909216825260208201526040908101905180910390a3505050565b7fec2210f07d90c7950ab3623fc89a4ccb3328f38c81cc33d1c4a5f47fb4d8bad58282604051600160a060020a039283168152911660208201526040908101905180910390a15050565b6103426103cd565b600160a060020a03167f9cf38cf2dbf9139f5c32639950507b10775fbbe0421f3e168bc2d1bb1ae3208c8260405190815260200160405180910390a250565b8015157f360225f74eacd06eefedf821b89c21c7c975b645503e5198c6a60a62f84e302b8484604051600160a060020a03909216825260208201526040908101905180910390a2505050565b33905600a165627a7a723058201dd87ea9e1f74d203846770c362ec3170fc23668596ec21ffd60eb4bd9eb245d0029",
  "source": "pragma solidity ^0.4.11;\n\nimport '../core/event/MultiEventsHistoryAdapter.sol';\n\ncontract TimeHolderEmitter is MultiEventsHistoryAdapter {\n    /**\n    *  User deposited into current period.\n    */\n    event Deposit(address token, address who, uint amount);\n\n    /**\n    *  Shares withdrawn by a shareholder.\n    */\n    event WithdrawShares(address token, address who, uint amount, address receiver);\n\n    /**\n    *  Shares withdrawn by a shareholder.\n    */\n    event ListenerAdded(address listener, address token);\n\n    /**\n    * Shares listener is removed\n    */\n    event ListenerRemoved(address listener, address token);\n\n    /**\n    * Shares is added to whitelist and start be available to use\n    */\n    event SharesWhiteListAdded(address token);\n\n    /**\n    * Shares is removed from whitelist and stop being available to use\n    */\n    event SharesWhiteListChanged(address token, uint limit, bool indexed isAdded);\n\n    /**\n    * Fee for Feature is taken\n    */\n    event FeatureFeeTaken(address self, address indexed from, address indexed to, uint amount);\n\n    /**\n    *  Something went wrong.\n    */\n    event Error(address indexed self, uint errorCode);\n\n    function emitDeposit(address token, address who, uint amount) public {\n        Deposit(token, who, amount);\n    }\n\n    function emitWithdrawShares(address token, address who, uint amount, address receiver) public {\n        WithdrawShares(token, who, amount, receiver);\n    }\n\n    function emitListenerAdded(address listener, address token) public {\n        ListenerAdded(listener, token);\n    }\n\n    function emitListenerRemoved(address listener, address token) public {\n        ListenerRemoved(listener, token);\n    }\n\n    function emitSharesWhiteListChanged(address token, uint limit, bool isAdded) public {\n        SharesWhiteListChanged(token, limit, isAdded);\n    }\n\n    function emitFeatureFeeTaken(address _from, address _to, uint _amount) public {\n        FeatureFeeTaken(_self(), _from, _to, _amount);\n    }\n\n    function emitError(uint error) public {\n        Error(_self(), error);\n    }\n}\n",
  "sourcePath": "/Users/alesanro/Documents/Projects/ChronoBank/SmartContracts/contracts/timeholder/TimeHolderEmitter.sol",
  "compiler": {
    "name": "solc",
    "version": "0.4.18+commit.9cf6e910.Emscripten.clang"
  },
  "schemaVersion": "1.0.1",
  "updatedAt": "2018-01-29T17:03:43.237Z"
}