{
  "contractName": "TimeHolderDeprecated",
  "abi": [
    {
      "constant": false,
      "inputs": [],
      "name": "claimContractOwnership",
      "outputs": [
        {
          "name": "",
          "type": "bool"
        }
      ],
      "payable": false,
      "stateMutability": "nonpayable",
      "type": "function"
    },
    {
      "constant": true,
      "inputs": [
        {
          "name": "_identifier",
          "type": "bytes32"
        }
      ],
      "name": "lookupManager",
      "outputs": [
        {
          "name": "manager",
          "type": "address"
        }
      ],
      "payable": false,
      "stateMutability": "view",
      "type": "function"
    },
    {
      "constant": true,
      "inputs": [],
      "name": "contractsManager",
      "outputs": [
        {
          "name": "",
          "type": "address"
        }
      ],
      "payable": false,
      "stateMutability": "view",
      "type": "function"
    },
    {
      "constant": false,
      "inputs": [
        {
          "name": "_to",
          "type": "address"
        }
      ],
      "name": "changeContractOwnership",
      "outputs": [
        {
          "name": "",
          "type": "bool"
        }
      ],
      "payable": false,
      "stateMutability": "nonpayable",
      "type": "function"
    },
    {
      "constant": true,
      "inputs": [],
      "name": "pendingContractOwner",
      "outputs": [
        {
          "name": "",
          "type": "address"
        }
      ],
      "payable": false,
      "stateMutability": "view",
      "type": "function"
    },
    {
      "constant": false,
      "inputs": [
        {
          "name": "_eventsHistory",
          "type": "address"
        }
      ],
      "name": "setEventsHistory",
      "outputs": [],
      "payable": false,
      "stateMutability": "nonpayable",
      "type": "function"
    },
    {
      "constant": false,
      "inputs": [
        {
          "name": "_contractsManager",
          "type": "address"
        }
      ],
      "name": "setContractsManager",
      "outputs": [],
      "payable": false,
      "stateMutability": "nonpayable",
      "type": "function"
    },
    {
      "constant": true,
      "inputs": [
        {
          "name": "_address",
          "type": "address"
        }
      ],
      "name": "depositBalance",
      "outputs": [
        {
          "name": "",
          "type": "uint256"
        }
      ],
      "payable": false,
      "stateMutability": "view",
      "type": "function"
    },
    {
      "constant": false,
      "inputs": [
        {
          "name": "_to",
          "type": "address"
        }
      ],
      "name": "transferContractOwnership",
      "outputs": [
        {
          "name": "",
          "type": "bool"
        }
      ],
      "payable": false,
      "stateMutability": "nonpayable",
      "type": "function"
    },
    {
      "constant": true,
      "inputs": [],
      "name": "contractOwner",
      "outputs": [
        {
          "name": "",
          "type": "address"
        }
      ],
      "payable": false,
      "stateMutability": "view",
      "type": "function"
    },
    {
      "constant": false,
      "inputs": [
        {
          "name": "tokens",
          "type": "address[]"
        },
        {
          "name": "_to",
          "type": "address"
        }
      ],
      "name": "withdrawnTokens",
      "outputs": [
        {
          "name": "",
          "type": "uint256"
        }
      ],
      "payable": false,
      "stateMutability": "nonpayable",
      "type": "function"
    },
    {
      "constant": true,
      "inputs": [
        {
          "name": "key",
          "type": "address"
        }
      ],
      "name": "isAuthorized",
      "outputs": [
        {
          "name": "",
          "type": "bool"
        }
      ],
      "payable": false,
      "stateMutability": "view",
      "type": "function"
    },
    {
      "constant": true,
      "inputs": [],
      "name": "getEventsHistory",
      "outputs": [
        {
          "name": "",
          "type": "address"
        }
      ],
      "payable": false,
      "stateMutability": "view",
      "type": "function"
    },
    {
      "inputs": [
        {
          "name": "_store",
          "type": "address"
        },
        {
          "name": "_crate",
          "type": "bytes32"
        }
      ],
      "payable": false,
      "stateMutability": "nonpayable",
      "type": "constructor"
    },
    {
      "constant": false,
      "inputs": [
        {
          "name": "_contractsManager",
          "type": "address"
        },
        {
          "name": "_sharesContract",
          "type": "address"
        },
        {
          "name": "_wallet",
          "type": "address"
        },
        {
          "name": "_feeWallet",
          "type": "address"
        }
      ],
      "name": "init",
      "outputs": [
        {
          "name": "",
          "type": "uint256"
        }
      ],
      "payable": false,
      "stateMutability": "nonpayable",
      "type": "function"
    },
    {
      "constant": false,
      "inputs": [],
      "name": "destroy",
      "outputs": [],
      "payable": false,
      "stateMutability": "nonpayable",
      "type": "function"
    },
    {
      "constant": false,
      "inputs": [
        {
          "name": "_feeWallet",
          "type": "address"
        }
      ],
      "name": "setFeeWallet",
      "outputs": [],
      "payable": false,
      "stateMutability": "nonpayable",
      "type": "function"
    },
    {
      "constant": true,
      "inputs": [],
      "name": "wallet",
      "outputs": [
        {
          "name": "",
          "type": "address"
        }
      ],
      "payable": false,
      "stateMutability": "view",
      "type": "function"
    },
    {
      "constant": true,
      "inputs": [],
      "name": "feeWallet",
      "outputs": [
        {
          "name": "",
          "type": "address"
        }
      ],
      "payable": false,
      "stateMutability": "view",
      "type": "function"
    },
    {
      "constant": true,
      "inputs": [],
      "name": "totalShares",
      "outputs": [
        {
          "name": "",
          "type": "uint256"
        }
      ],
      "payable": false,
      "stateMutability": "view",
      "type": "function"
    },
    {
      "constant": true,
      "inputs": [],
      "name": "sharesContract",
      "outputs": [
        {
          "name": "",
          "type": "address"
        }
      ],
      "payable": false,
      "stateMutability": "view",
      "type": "function"
    },
    {
      "constant": true,
      "inputs": [],
      "name": "shareholdersCount",
      "outputs": [
        {
          "name": "",
          "type": "uint256"
        }
      ],
      "payable": false,
      "stateMutability": "view",
      "type": "function"
    },
    {
      "constant": true,
      "inputs": [],
      "name": "getLimit",
      "outputs": [
        {
          "name": "",
          "type": "uint256"
        }
      ],
      "payable": false,
      "stateMutability": "view",
      "type": "function"
    },
    {
      "constant": false,
      "inputs": [
        {
          "name": "_limitAmount",
          "type": "uint256"
        }
      ],
      "name": "setLimit",
      "outputs": [],
      "payable": false,
      "stateMutability": "nonpayable",
      "type": "function"
    },
    {
      "constant": false,
      "inputs": [
        {
          "name": "_amount",
          "type": "uint256"
        }
      ],
      "name": "deposit",
      "outputs": [
        {
          "name": "",
          "type": "uint256"
        }
      ],
      "payable": false,
      "stateMutability": "nonpayable",
      "type": "function"
    },
    {
      "constant": false,
      "inputs": [
        {
          "name": "_address",
          "type": "address"
        },
        {
          "name": "_amount",
          "type": "uint256"
        }
      ],
      "name": "depositFor",
      "outputs": [
        {
          "name": "",
          "type": "uint256"
        }
      ],
      "payable": false,
      "stateMutability": "nonpayable",
      "type": "function"
    },
    {
      "constant": false,
      "inputs": [
        {
          "name": "_amount",
          "type": "uint256"
        }
      ],
      "name": "withdrawShares",
      "outputs": [
        {
          "name": "resultCode",
          "type": "uint256"
        }
      ],
      "payable": false,
      "stateMutability": "nonpayable",
      "type": "function"
    },
    {
      "constant": false,
      "inputs": [
        {
          "name": "_account",
          "type": "address"
        },
        {
          "name": "_amount",
          "type": "uint256"
        }
      ],
      "name": "takeFeatureFee",
      "outputs": [
        {
          "name": "resultCode",
          "type": "uint256"
        }
      ],
      "payable": false,
      "stateMutability": "nonpayable",
      "type": "function"
    },
    {
      "constant": true,
      "inputs": [],
      "name": "totalSupply",
      "outputs": [
        {
          "name": "",
          "type": "uint256"
        }
      ],
      "payable": false,
      "stateMutability": "view",
      "type": "function"
    }
  ],
  "bytecode": "0x606060405234156200001057600080fd5b604051604080620024828339810160405280805191906020018051915082905081818181818181620000536000838364010000000062001ca96200032182021704565b505060028054600160a060020a03338116600160a060020a03199283161790925560058054309093169290911691909117905550620000c89250600691507f7368617265686f6c646572730000000000000000000000000000000000000000905064010000000062001ccf6200034782021704565b62000103600b7f6465706f7369747300000000000000000000000000000000000000000000000064010000000062001cdd6200036582021704565b6200013e60107f6465706f736974734964436f756e74657200000000000000000000000000000064010000000062001ce76200037f82021704565b6200017960117f616d6f756e74730000000000000000000000000000000000000000000000000064010000000062001cf76200039f82021704565b620001b460127f74696d657374616d70730000000000000000000000000000000000000000000064010000000062001cf76200039f82021704565b620001ef60137f746f74616c53686172657353746f72616765000000000000000000000000000064010000000062001ce76200037f82021704565b6200022a60147f736861726573436f6e747261637453746f72616765000000000000000000000064010000000062001ce76200037f82021704565b5062000268905060157f6c697374656e657273000000000000000000000000000000000000000000000064010000000062001ccf6200034782021704565b620002a3601c7f6c696d6974416d6f756e7400000000000000000000000000000000000000000064010000000062001ce76200037f82021704565b620002de601b7f74696d65486f6c64657246656557616c6c657453746f7261676500000000000064010000000062001ce76200037f82021704565b62000319601a7f74696d65486f6c64657257616c6c657453746f7261676500000000000000000064010000000062001ce76200037f82021704565b505062000590565b8254600160a060020a031916600160a060020a0392909216919091178255600190910155565b62000361828264010000000062001d0d620003b982021704565b5050565b62000361828264010000000062001ccf6200034782021704565b81546200039b908264010000000062001e686200057882021704565b9055565b62000361828264010000000062001ce76200037f82021704565b6200041082826040519081527f75696e742f636f756e74000000000000000000000000000000000000000000006020820152602a0160405180910390206200037f6401000000000262001ce7176401000000009004565b6200046a82600101826040519081527f75696e742f6669727374000000000000000000000000000000000000000000006020820152602a0160405180910390206200037f6401000000000262001ce7176401000000009004565b620004c482600201826040519081527f75696e742f6c6173740000000000000000000000000000000000000000000000602082015260290160405180910390206200037f6401000000000262001ce7176401000000009004565b6200051e82600301826040519081527f75696e742f6e6578740000000000000000000000000000000000000000000000602082015260290160405180910390206200037f6401000000000262001ce7176401000000009004565b6200036182600401826040519081527f75696e742f707265760000000000000000000000000000000000000000000000602082015260290160405180910390206200037f6401000000000262001ce7176401000000009004565b8115158062000585575080155b156200036157600080fd5b611ee280620005a06000396000f3006060604052600436106101505763ffffffff60e060020a60003504166306552ff381146101555780631638a3fb1461019857806318160ddd146101ab57806319810f3c146101be57806327ea6f2b146101d45780632f4f21e2146101ec5780633a98ef391461020e5780634592cd1d146102215780634fe5901214610248578063521eb2731461027a57806353253d311461028d578063557f4bc9146102a05780635aa77d3c146102bf5780636521afd7146102d257806371d3b573146102f15780637bc1ed631461031057806383197ef01461032357806390d49b9d14610336578063956501bb14610355578063a843c51f14610374578063b295a00e14610393578063b6b55f25146103a6578063ce606ee0146103bc578063d8f9659b146103cf578063eca8791814610429578063f25f4b561461044b578063fe9fbb801461045e578063fff10aba1461047d575b600080fd5b341561016057600080fd5b610186600160a060020a0360043581169060243581169060443581169060643516610490565b60405190815260200160405180910390f35b34156101a357600080fd5b61018661058c565b34156101b657600080fd5b6101866105a5565b34156101c957600080fd5b610186600435610621565b34156101df57600080fd5b6101ea600435610636565b005b34156101f757600080fd5b610186600160a060020a0360043516602435610663565b341561021957600080fd5b610186610886565b341561022c57600080fd5b610234610899565b604051901515815260200160405180910390f35b341561025357600080fd5b61025e6004356108e5565b604051600160a060020a03909116815260200160405180910390f35b341561028557600080fd5b61025e610969565b341561029857600080fd5b61025e61097c565b34156102ab57600080fd5b610234600160a060020a036004351661098b565b34156102ca57600080fd5b61025e6109e2565b34156102dd57600080fd5b6101ea600160a060020a03600435166109f1565b34156102fc57600080fd5b6101ea600160a060020a0360043516610a28565b341561031b57600080fd5b61025e610a5f565b341561032e57600080fd5b6101ea610a72565b341561034157600080fd5b6101ea600160a060020a0360043516610a97565b341561036057600080fd5b610186600160a060020a0360043516610ad6565b341561037f57600080fd5b610234600160a060020a0360043516610b62565b341561039e57600080fd5b610186610bdb565b34156103b157600080fd5b610186600435610bee565b34156103c757600080fd5b61025e610bfa565b34156103da57600080fd5b610186600460248135818101908301358060208181020160405190810160405280939291908181526020018383602002808284375094965050509235600160a060020a03169250610c09915050565b341561043457600080fd5b610186600160a060020a0360043516602435610d5a565b341561045657600080fd5b61025e610de7565b341561046957600080fd5b610234600160a060020a0360043516610dfa565b341561048857600080fd5b61025e610ea0565b60025460009033600160a060020a039081169116141561058457600160a060020a03831615156104bf57600080fd5b600160a060020a03841615156104d457600080fd5b600160a060020a03821615156104e957600080fd5b610513857f54696d65486f6c64657200000000000000000000000000000000000000000000610eaf565b50610527600060148663ffffffff6110a016565b61055a6000601c7f800000000000000000000000000000000000000000000000000000000000000063ffffffff61112216565b61056d6000601a8563ffffffff6110a016565b6105806000601b8463ffffffff6110a016565b5060015b949350505050565b600061059f81600663ffffffff61118216565b90505b90565b6000806105b981601463ffffffff61118e16565b905080600160a060020a03166318160ddd6000604051602001526040518163ffffffff1660e060020a028152600401602060405180830381600087803b151561060157600080fd5b6102c65a03f1151561061257600080fd5b50505060405180519250505090565b600061062e3333846111ed565b90505b919050565b60025433600160a060020a0390811691161415610660576106606000601c8363ffffffff61112216565b50565b600080600080600080610674611c82565b6000806000610681610bdb565b8b111561069257612ee79950610877565b6106a46000601463ffffffff61118e16565b98508a158061073b57506106b6610969565b600160a060020a0316638340f5498a338e60006040516020015260405160e060020a63ffffffff8616028152600160a060020a0393841660048201529190921660248201526044810191909152606401602060405180830381600087803b151561071f57600080fd5b6102c65a03f1151561073057600080fd5b505050604051805190505b151561074b57612ee39950610877565b61075e600060068e63ffffffff6114bd16565b151561077757610777600060068e63ffffffff6114dd16565b6107896000601063ffffffff6114f616565b97506001880196506107a4600060108963ffffffff61112216565b6107c16000600b600160a060020a038f168a63ffffffff61155516565b6107d6600060118e8a8f63ffffffff61156716565b6107eb600060128e8a4263ffffffff61156716565b6107f48c610ad6565b95506108086000601563ffffffff61158416565b9350600092505b610822600060158663ffffffff61159616565b156108475761083a600060158663ffffffff6115a316565b600190930192915061080f565b6108596000601363ffffffff6114f616565b9a8b019a9050610872600060138d63ffffffff61112216565b600199505b50505050505050505092915050565b600061059f81601363ffffffff6114f616565b60035460009033600160a060020a039081169116146108ba575060006105a2565b506003805460028054600160a060020a0319908116600160a060020a03841617909155169055600190565b600454600090600160a060020a031663bc65792783836040516020015260405160e060020a63ffffffff84160281526004810191909152602401602060405180830381600087803b151561093857600080fd5b6102c65a03f1151561094957600080fd5b5050506040518051915050600160a060020a038116151561063157600080fd5b600061059f81601a63ffffffff61118e16565b600454600160a060020a031681565b60025460009033600160a060020a039081169116141561063157600160a060020a03821615156109bd57506000610631565b5060038054600160a060020a038316600160a060020a03199091161790556001919050565b600354600160a060020a031681565b60025433600160a060020a03908116911614156106605760058054600160a060020a038316600160a060020a031990911617905550565b60025433600160a060020a03908116911614156106605760048054600160a060020a038316600160a060020a031990911617905550565b600061059f81601463ffffffff61118e16565b60025433600160a060020a0390811691161415610a955733600160a060020a0316ff5b565b60025433600160a060020a039081169116141561066057600160a060020a0381161515610ac357600080fd5b6106606000601b8363ffffffff6110a016565b600080610ae1611c82565b600080610aff81600b600160a060020a03891663ffffffff6115b016565b9250600091505b610b196000600b8563ffffffff6115c316565b15610b5857610b47601187610b376000600b8863ffffffff6115d016565b600092919063ffffffff6115dd16565b938401936001909201919050610b06565b5091949350505050565b60025460009033600160a060020a039081169116141561063157600160a060020a0382161515610b9457506000610631565b600354600160a060020a031615610bb65760038054600160a060020a03191690555b5060028054600160a060020a038316600160a060020a03199091161790556001919050565b600061059f81601c63ffffffff6114f616565b600061062e3383610663565b600254600160a060020a031681565b60025460009081908190819033600160a060020a0390811691161415610d5157600092505b8551831015610d4c57858381518110610c4357fe5b90602001906020020151915081600160a060020a03166370a082313060006040516020015260405160e060020a63ffffffff8416028152600160a060020a039091166004820152602401602060405180830381600087803b1515610ca657600080fd5b6102c65a03f11515610cb757600080fd5b50505060405180519150508015610d415781600160a060020a031663a9059cbb868360006040516020015260405160e060020a63ffffffff8516028152600160a060020a0390921660048301526024820152604401602060405180830381600087803b1515610d2557600080fd5b6102c65a03f11515610d3657600080fd5b505050604051805150505b600190920191610c2e565b600193505b50505092915050565b6000610d857f466561747572654665654d616e616765720000000000000000000000000000006108e5565b600160a060020a031633600160a060020a03161415610de157600160a060020a0383161515610db357600080fd5b610dbb610de7565b600160a060020a03161515610dcc57fe5b610dde83610dd8610de7565b846111ed565b90505b92915050565b600061059f81601b63ffffffff61118e16565b600080610e267f557365724d616e616765720000000000000000000000000000000000000000006108e5565b905080600160a060020a0316632aa09e5a8460006040516020015260405160e060020a63ffffffff8416028152600160a060020a039091166004820152602401602060405180830381600087803b1515610e7f57600080fd5b6102c65a03f11515610e9057600080fd5b5050506040518051949350505050565b600554600160a060020a031690565b60025460009081908190819033600160a060020a03908116911614610ed357600080fd5b600160a060020a0386161515610ee857600080fd5b600454600160a060020a0316158015935080610f125750600454600160a060020a03878116911614155b15610f335760048054600160a060020a031916600160a060020a0388161790555b600454600160a060020a031691508163bc65792760006040516020015260405160e060020a63ffffffff83160281527f4d756c74694576656e7473486973746f727900000000000000000000000000006004820152602401602060405180830381600087803b1515610fa457600080fd5b6102c65a03f11515610fb557600080fd5b5050506040518051915050600160a060020a03811615801590610fe65750600554600160a060020a03828116911614155b156110075760058054600160a060020a031916600160a060020a0383161790555b841561108e5781600160a060020a031663b7c46cd5308760006040516020015260405160e060020a63ffffffff8516028152600160a060020a0390921660048301526024820152604401602060405180830381600087803b151561106a57600080fd5b6102c65a03f1151561107b57600080fd5b5050506040518051600114905061108e57fe5b8215610d4c5760069695505050505050565b825460018401548354600160a060020a03909216916379a7cfee91908460405160e060020a63ffffffff861602815260048101939093526024830191909152600160a060020a03166044820152606401600060405180830381600087803b151561110957600080fd5b6102c65a03f1151561111a57600080fd5b505050505050565b825460018401548354600160a060020a03909216916353e7168b91908460405160e060020a63ffffffff8616028152600481019390935260248301919091526044820152606401600060405180830381600087803b151561110957600080fd5b6000610dde83836115fd565b815460018301548254600092600160a060020a03169163d3a3968691846040516020015260405160e060020a63ffffffff851602815260048101929092526024820152604401602060405180830381600087803b1515610e7f57600080fd5b60008060006111fa611c82565b60008060008060008061120b610bdb565b8b111561121c57612ee799506114ad565b6112258d610ad6565b8b111561123657612ee699506114ad565b61123e610969565b600160a060020a031663d9caed12611254610a5f565b8e8e60006040516020015260405160e060020a63ffffffff8616028152600160a060020a0393841660048201529190921660248201526044810191909152606401602060405180830381600087803b15156112ae57600080fd5b6102c65a03f115156112bf57600080fd5b5050506040518051905015156112d957612ee399506114ad565b8a98506112e58d610ad6565b156114245761130d600b8e600160a060020a031660010260006115b09092919063ffffffff16565b965061131887611618565b9550851561140a57600097505b6113386000600b8963ffffffff6115c316565b1561140a576113506000600b8963ffffffff6115d016565b9450611366600060118f8863ffffffff6115dd16565b9350838b101561138c57611387600060118f888f890363ffffffff61156716565b61140a565b838b14156113c5576113b9600b8e600160a060020a0316600102876000611625909392919063ffffffff16565b6000199095019461140a565b838b11156113ff57838b039a506113f7600b8e600160a060020a0316600102876000611625909392919063ffffffff16565b600019909501945b600190970196611325565b85151561142457611424600060068f63ffffffff61163116565b61142d8d610ad6565b91506114416000601563ffffffff61158416565b9650600097505b61145b600060158963ffffffff61159616565b1561148057611473600060158963ffffffff6115a316565b6001909801979050611448565b6114a860138a61149760008363ffffffff6114f616565b60009291900363ffffffff61112216565b600199505b5050505050505050509392505050565b60006114d38484600160a060020a038516611645565b90505b9392505050565b6114f18383600160a060020a038416611661565b505050565b815460018301548254600092600160a060020a0316916353aa3f5e91846040516020015260405160e060020a63ffffffff851602815260048101929092526024820152604401602060405180830381600087803b1515610e7f57600080fd5b6115618484848461167b565b50505050565b61157d8585600160a060020a0386168585611687565b5050505050565b61158c611c82565b610dde83836116ab565b60006114d38484846116cc565b60006114d3848484611707565b6115b8611c82565b6114d3848484611753565b60006114d3848484611596565b60006114d38484846115a3565b60006115f48585600160a060020a03861685611766565b95945050505050565b6000610dde8383600080516020611e9783398151915261178b565b6000816020015192915050565b61156184848484611798565b6114f18383600160a060020a0384166117a4565b60006114d38484600080516020611e97833981519152856117be565b6114f18383600080516020611e97833981519152846117fa565b611561848484846117fa565b61157d858585856040519182526020820152604090810190518091039020846118c2565b6116b3611c82565b610dde8383600080516020611e97833981519152611954565b6000816020015115806116f057506116ee8484846060015185604001516117be565b155b156116fd575060006114d6565b5060019392505050565b60006117148484846116cc565b151561171f57600080fd5b8160400151905061173a848484606001518560400151611972565b6040830152600160208301818151039052509392505050565b61175b611c82565b6114d3848484611954565b60006115f4858585856040519182526020820152604090810190518091039020611983565b60006114d3848484611a1d565b61156184848484611a95565b6114f18383600080516020611e9783398151915284611a95565b600081158015906115f457506117d985856003018585611766565b1515806115f45750816117f0866002870186611983565b1495945050505050565b80151561180657600080fd5b611812848484846117be565b1561181c57611561565b61182784848461178b565b151561183c5761183c848460010184846118c2565b61184a848460020184611983565b156118895761186c848460030184611866888860020188611983565b85611b90565b61188984846004018484611884898960020189611983565b611b90565b61189a846003850184846000611b90565b6118a9848460020184846118c2565b6115618484846118ba838383611a1d565b600101611ba3565b835460018501548454600160a060020a039092169163a14ff85791908560405191825260208201526040908101905180910390208460405160e060020a63ffffffff8616028152600481019390935260248301919091526044820152606401600060405180830381600087803b151561193a57600080fd5b6102c65a03f1151561194b57600080fd5b50505050505050565b61195c611c82565b6114d384848461196d838383611a1d565b611c1b565b60006115f485856003018585611766565b825460018401548354600092600160a060020a0316916337d9d7fc9185604051918252602082015260409081019051809103902060006040516020015260405160e060020a63ffffffff851602815260048101929092526024820152604401602060405180830381600087803b15156119fb57600080fd5b6102c65a03f11515611a0c57600080fd5b505050604051805195945050505050565b825460018401548354600092600160a060020a0316916353aa3f5e9185604051918252602082015260409081019051809103902060006040516020015260405160e060020a63ffffffff851602815260048101929092526024820152604401602060405180830381600087803b15156119fb57600080fd5b611aa1848484846117be565b1515611aac57611561565b611ad3848460030184611ac488886004018888611766565b61188489896003018989611766565b611afa848460040184611aeb88886003018888611766565b61188489896004018989611766565b611b08848460010184611983565b811415611b2c57611b2c848460010184611b2788886003018888611766565b6118c2565b611b3a848460020184611983565b811415611b5957611b59848460020184611b2788886004018888611766565b611b6884846003018484611c3b565b611b7784846004018484611c3b565b6115618484846001611b8a848484611a1d565b03611ba3565b811561157d5761157d8585858585611687565b835460018501548454600160a060020a03909216916353e7168b91908560405191825260208201526040908101905180910390208460405160e060020a63ffffffff8616028152600481019390935260248301919091526044820152606401600060405180830381600087803b151561193a57600080fd5b611c23611c82565b6115f483611c35878760010187611983565b84611c4f565b801561156157611561848484846000611687565b611c57611c82565b6080604051908101604090815283825260208201939093529182019290925260608101929092525090565b60806040519081016040908152600080835260208301819052908201819052606082015290565b8254600160a060020a031916600160a060020a0392909216919091178255600190910155565b611cd98282611d0d565b5050565b611cd98282611ccf565b8154611cf39082611e68565b9055565b611cd98282611ce7565b8154611cf39082611e68565b611d4e82826040519081527f75696e742f636f756e74000000000000000000000000000000000000000000006020820152602a016040518091039020611ce7565b611d9282600101826040519081527f75696e742f6669727374000000000000000000000000000000000000000000006020820152602a016040518091039020611ce7565b611dd682600201826040519081527f75696e742f6c617374000000000000000000000000000000000000000000000060208201526029016040518091039020611ce7565b611e1a82600301826040519081527f75696e742f6e657874000000000000000000000000000000000000000000000060208201526029016040518091039020611ce7565b611cd982600401826040519081527f75696e742f70726576000000000000000000000000000000000000000000000060208201526029016040518091039020611ce7565b611cd98282611d0d565b81151580611e74575080155b15611cd957600080fd5b8154611cf39082611e68565b8154611cf39082611e6856006f7264657265645f736574000000000000000000000000000000000000000000a165627a7a7230582013908f0e5c44322c36f65e96387e6df20776128a70b948ea4ed54e786d198cc20029",
  "source": "pragma solidity ^0.4.11;\n\nimport \"./DepositsDeprecated.sol\";\nimport {ERC20Interface as Asset} from \"../../core/erc20/ERC20Interface.sol\";\nimport \"../../timeholder/DepositWalletInterface.sol\";\n\ncontract TimeHolderDeprecated is DepositsDeprecated {\n\n    uint constant ERROR_TIMEHOLDER_ALREADY_ADDED = 12000;\n    uint constant ERROR_TIMEHOLDER_INVALID_INVOCATION = 12001;\n    uint constant ERROR_TIMEHOLDER_INVALID_STATE = 12002;\n    uint constant ERROR_TIMEHOLDER_TRANSFER_FAILED = 12003;\n    uint constant ERROR_TIMEHOLDER_WITHDRAWN_FAILED = 12004;\n    uint constant ERROR_TIMEHOLDER_DEPOSIT_FAILED = 12005;\n    uint constant ERROR_TIMEHOLDER_INSUFFICIENT_BALANCE = 12006;\n    uint constant ERROR_TIMEHOLDER_LIMIT_EXCEEDED = 12007;\n\n    StorageInterface.OrderedAddressesSet listeners;\n    StorageInterface.Address walletStorage;\n    StorageInterface.Address feeWalletStorage;\n    StorageInterface.UInt limitAmount;\n\n    modifier onlyFeatureFeeManager() {\n        if (msg.sender == lookupManager(\"FeatureFeeManager\")) {\n            _;\n        }\n    }\n\n    function TimeHolderDeprecated(Storage _store, bytes32 _crate) DepositsDeprecated(_store, _crate) {\n        listeners.init('listeners');\n        limitAmount.init('limitAmount');\n        feeWalletStorage.init(\"timeHolderFeeWalletStorage\");\n        walletStorage.init(\"timeHolderWalletStorage\");\n    }\n\n    /**\n     * Init TimeHolder contract.\n     *\n     *\n     * @param _contractsManager address.\n     * @param _sharesContract ERC20 token address to act as shares.\n     *\n     * @return success.\n     */\n    function init(address _contractsManager, address _sharesContract, address _wallet, address _feeWallet) onlyContractOwner returns (uint) {\n        require(_wallet != 0x0);\n        require(_sharesContract != 0x0);\n        require(_feeWallet != 0x0);\n\n        BaseManager.init(_contractsManager, \"TimeHolder\");\n\n        store.set(sharesContractStorage, _sharesContract);\n        store.set(limitAmount, 2**255);\n        store.set(walletStorage, _wallet);\n        store.set(feeWalletStorage, _feeWallet);\n\n        return OK;\n    }\n\n    function destroy() onlyContractOwner {\n        selfdestruct(msg.sender);\n    }\n\n\n    /**\n    *  Sets fee wallet address.\n    */\n    function setFeeWallet(address _feeWallet) onlyContractOwner {\n        require(_feeWallet != 0x0);\n        store.set(feeWalletStorage, _feeWallet);\n    }\n\n    /**\n    * Gets an associated wallet for the time holder\n    */\n    function wallet() constant returns (address) {\n        return store.get(walletStorage);\n    }\n\n    /**\n    * Gets an associated fee wallet for the time holder\n    */\n    function feeWallet() constant returns (address) {\n        return store.get(feeWalletStorage);\n    }\n\n    /**\n    * Total amount of shares\n    *\n    * @return total amount of shares\n    */\n    function totalShares() constant returns (uint) {\n        return store.get(totalSharesStorage);\n    }\n\n    /**\n    * Contract address of shares\n    *\n    * @return address of shares contract\n    */\n    function sharesContract() constant returns (address) {\n        return store.get(sharesContractStorage);\n    }\n\n    /**\n    * Number of shareholders\n    *\n    * @return number of shareholders\n    */\n    function shareholdersCount() constant returns (uint) {\n        return store.count(shareholders);\n    }\n\n    /**\n    * Returns deposit/withdraw limit\n    *\n    * @return limit\n    */\n    function getLimit() constant returns (uint) {\n        return store.get(limitAmount);\n    }\n\n    /**\n    * Setter deposit/withdraw limit\n    *\n    * @param _limitAmount is limit\n    */\n    function setLimit(uint _limitAmount) onlyContractOwner {\n        store.set(limitAmount, _limitAmount);\n    }\n\n    /**\n     * Deposit shares and prove possession.\n     * Amount should be less than or equal to current allowance value.\n     *\n     * Proof should be repeated for each active period. To prove possesion without\n     * depositing more shares, specify 0 amount.\n     *\n     * @param _amount amount of shares to deposit, or 0 to just prove.\n     *\n     * @return success.\n     */\n    function deposit(uint _amount) returns (uint) {\n        return depositFor(msg.sender, _amount);\n    }\n\n    /**\n     * Deposit own shares and prove possession for arbitrary shareholder.\n     * Amount should be less than or equal to caller current allowance value.\n     *\n     * Proof should be repeated for each active period. To prove possesion without\n     * depositing more shares, specify 0 amount.\n     *\n     * This function meant to be used by some backend application to prove shares possesion\n     * of arbitrary shareholders.\n     *\n     * @param _address to deposit and prove for.\n     * @param _amount amount of shares to deposit, or 0 to just prove.\n     *\n     * @return success.\n     */\n    function depositFor(address _address, uint _amount) returns (uint) {\n        if (_amount > getLimit()) {\n            return (ERROR_TIMEHOLDER_LIMIT_EXCEEDED);\n        }\n\n        address asset = store.get(sharesContractStorage);\n        if (!(_amount == 0 || DepositWalletInterface(wallet()).deposit(asset, msg.sender, _amount))) {\n            return (ERROR_TIMEHOLDER_TRANSFER_FAILED);\n        }\n\n        if(!store.includes(shareholders,_address)) {\n            store.add(shareholders,_address);\n        }\n\n        uint prevId = store.get(depositsIdCounter);\n        uint id = prevId + 1;\n        store.set(depositsIdCounter, id);\n        store.add(deposits,bytes32(_address),id);\n        store.set(amounts,_address,id,_amount);\n        store.set(timestamps,_address,id,now);\n\n        uint balance = depositBalance(_address);\n        uint errorCode;\n        StorageInterface.Iterator memory iterator = store.listIterator(listeners);\n        for(uint i = 0; store.canGetNextWithIterator(listeners,iterator); i++) {\n            address listener = store.getNextWithIterator(listeners,iterator);\n            //ListenerInterface(listener).deposit(_address, _amount, balance);\n        }\n\n        //_emitDeposit(_address, _amount);\n\n        uint prevAmount = store.get(totalSharesStorage);\n        _amount += prevAmount;\n        store.set(totalSharesStorage,_amount);\n\n        return OK;\n    }\n\n    /**\n    * Withdraw shares from the contract, updating the possesion proof in active period.\n    *\n    * @param _amount amount of shares to withdraw.\n    *\n    * @return success.\n    */\n    function withdrawShares(uint _amount) returns (uint resultCode) {\n        resultCode = _withdrawShares(msg.sender, msg.sender, _amount);\n        if (resultCode != OK) {\n            return (resultCode);\n        }\n\n        //_emitWithdrawShares(msg.sender, _amount);\n    }\n\n    /**\n    * @dev Provides a way to support getting additional fee for using features of the system.\n    *\n    * @param _account holder of deposits, will pay for using a features\n    * @param _amount size of a fee\n    *\n    * @return resultCode result code of the operation\n    */\n    function takeFeatureFee(address _account, uint _amount) onlyFeatureFeeManager\n    public returns (uint resultCode)\n    {\n        require(_account != 0x0);\n\n        assert(feeWallet() != 0x0);\n\n        resultCode = _withdrawShares(_account, feeWallet(), _amount);\n        if (resultCode != OK) {\n            return resultCode;\n        }\n\n        //_emitFeatureFeeTaken(_account, feeWallet(), _amount);\n    }\n\n    /**\n    * @dev Withdraws deposited amount of tokens from account to a receiver address.\n    * Emits its own errorCodes if some will be encountered.\n    *\n    * @param _account an address that have deposited tokens\n    * @param _receiver an address that will receive tokens from _account\n    * @param _amount amount of tokens to withdraw to the _receiver\n    *\n    * @return result code of the operation\n    */\n    function _withdrawShares(address _account, address _receiver, uint _amount) internal returns (uint) {\n        if (_amount > getLimit()) {\n            return ERROR_TIMEHOLDER_LIMIT_EXCEEDED;\n        }\n\n        if (_amount > depositBalance(_account)) {\n            return ERROR_TIMEHOLDER_INSUFFICIENT_BALANCE;\n        }\n\n        if (!DepositWalletInterface(wallet()).withdraw(sharesContract(), _receiver, _amount)) {\n            return ERROR_TIMEHOLDER_TRANSFER_FAILED;\n        }\n\n        uint _original_amount = _amount;\n        uint i;\n\n        StorageInterface.Iterator memory iterator;\n\n        if (depositBalance(_account) != 0) {\n            iterator = store.listIterator(deposits, bytes32(_account));\n            uint deposits_count = iterator.count();\n            if (deposits_count != 0) {\n                for (i = 0; store.canGetNextWithIterator(deposits,iterator); i++) {\n                    uint _id = store.getNextWithIterator(deposits,iterator);\n                    uint _cur_amount = store.get(amounts, _account, _id);\n                    if (_amount < _cur_amount) {\n                        store.set(amounts, _account, _id, _cur_amount - _amount);\n                        break;\n                    }\n                    if (_amount == _cur_amount) {\n                        store.remove(deposits, bytes32(_account), _id);\n                        deposits_count--;\n                        break;\n                    }\n                    if (_amount > _cur_amount) {\n                        _amount -= _cur_amount;\n                        store.remove(deposits, bytes32(_account), _id);\n                        deposits_count--;\n                    }\n                }\n            }\n            if (deposits_count == 0) {\n                store.remove(shareholders, _account);\n            }\n        }\n\n        uint errorCode;\n        uint balance = depositBalance(_account);\n\n        iterator = store.listIterator(listeners);\n        for (i = 0; store.canGetNextWithIterator(listeners,iterator); i++) {\n            address listener = store.getNextWithIterator(listeners, iterator);\n            /* errorCode = ListenerInterface(listener).withdrawn(_account, _original_amount, balance);\n            if (errorCode != OK) {\n                errorCode;\n            } */\n        }\n\n        store.set(totalSharesStorage,store.get(totalSharesStorage) - _original_amount);\n\n        return OK;\n    }\n\n    function totalSupply() constant returns (uint) {\n        address asset = store.get(sharesContractStorage);\n        return ERC20Interface(asset).totalSupply();\n    }\n}\n",
  "sourcePath": "/Users/ahiatsevich/Development/chronobank/SmartContracts/contracts/helpers/legacy/TimeHolderDeprecated.sol",
  "compiler": {
    "name": "solc",
    "version": "0.4.19+commit.c4cbbb05.Emscripten.clang"
  },
  "schemaVersion": "1.0.1",
  "updatedAt": "2018-02-18T14:59:26.359Z"
}