{
  "contractName": "TimeHolder",
  "abi": [
    {
      "constant": false,
      "inputs": [],
      "name": "claimContractOwnership",
      "outputs": [
        {
          "name": "",
          "type": "bool"
        }
      ],
      "payable": false,
      "stateMutability": "nonpayable",
      "type": "function"
    },
    {
      "constant": true,
      "inputs": [
        {
          "name": "_identifier",
          "type": "bytes32"
        }
      ],
      "name": "lookupManager",
      "outputs": [
        {
          "name": "manager",
          "type": "address"
        }
      ],
      "payable": false,
      "stateMutability": "view",
      "type": "function"
    },
    {
      "constant": true,
      "inputs": [],
      "name": "contractsManager",
      "outputs": [
        {
          "name": "",
          "type": "address"
        }
      ],
      "payable": false,
      "stateMutability": "view",
      "type": "function"
    },
    {
      "constant": false,
      "inputs": [
        {
          "name": "listener",
          "type": "address"
        },
        {
          "name": "token",
          "type": "address"
        }
      ],
      "name": "emitListenerAdded",
      "outputs": [],
      "payable": false,
      "stateMutability": "nonpayable",
      "type": "function"
    },
    {
      "constant": false,
      "inputs": [
        {
          "name": "_to",
          "type": "address"
        }
      ],
      "name": "changeContractOwnership",
      "outputs": [
        {
          "name": "",
          "type": "bool"
        }
      ],
      "payable": false,
      "stateMutability": "nonpayable",
      "type": "function"
    },
    {
      "constant": true,
      "inputs": [],
      "name": "pendingContractOwner",
      "outputs": [
        {
          "name": "",
          "type": "address"
        }
      ],
      "payable": false,
      "stateMutability": "view",
      "type": "function"
    },
    {
      "constant": false,
      "inputs": [
        {
          "name": "_eventsHistory",
          "type": "address"
        }
      ],
      "name": "setEventsHistory",
      "outputs": [],
      "payable": false,
      "stateMutability": "nonpayable",
      "type": "function"
    },
    {
      "constant": false,
      "inputs": [
        {
          "name": "_contractsManager",
          "type": "address"
        }
      ],
      "name": "setContractsManager",
      "outputs": [],
      "payable": false,
      "stateMutability": "nonpayable",
      "type": "function"
    },
    {
      "constant": false,
      "inputs": [
        {
          "name": "token",
          "type": "address"
        },
        {
          "name": "who",
          "type": "address"
        },
        {
          "name": "amount",
          "type": "uint256"
        },
        {
          "name": "receiver",
          "type": "address"
        }
      ],
      "name": "emitWithdrawShares",
      "outputs": [],
      "payable": false,
      "stateMutability": "nonpayable",
      "type": "function"
    },
    {
      "constant": false,
      "inputs": [],
      "name": "destroy",
      "outputs": [],
      "payable": false,
      "stateMutability": "nonpayable",
      "type": "function"
    },
    {
      "constant": false,
      "inputs": [
        {
          "name": "token",
          "type": "address"
        },
        {
          "name": "who",
          "type": "address"
        },
        {
          "name": "amount",
          "type": "uint256"
        }
      ],
      "name": "emitDeposit",
      "outputs": [],
      "payable": false,
      "stateMutability": "nonpayable",
      "type": "function"
    },
    {
      "constant": false,
      "inputs": [
        {
          "name": "_from",
          "type": "address"
        },
        {
          "name": "_to",
          "type": "address"
        },
        {
          "name": "_amount",
          "type": "uint256"
        }
      ],
      "name": "emitFeatureFeeTaken",
      "outputs": [],
      "payable": false,
      "stateMutability": "nonpayable",
      "type": "function"
    },
    {
      "constant": false,
      "inputs": [
        {
          "name": "listener",
          "type": "address"
        },
        {
          "name": "token",
          "type": "address"
        }
      ],
      "name": "emitListenerRemoved",
      "outputs": [],
      "payable": false,
      "stateMutability": "nonpayable",
      "type": "function"
    },
    {
      "constant": false,
      "inputs": [
        {
          "name": "_to",
          "type": "address"
        }
      ],
      "name": "transferContractOwnership",
      "outputs": [
        {
          "name": "",
          "type": "bool"
        }
      ],
      "payable": false,
      "stateMutability": "nonpayable",
      "type": "function"
    },
    {
      "constant": true,
      "inputs": [],
      "name": "contractOwner",
      "outputs": [
        {
          "name": "",
          "type": "address"
        }
      ],
      "payable": false,
      "stateMutability": "view",
      "type": "function"
    },
    {
      "constant": false,
      "inputs": [
        {
          "name": "tokens",
          "type": "address[]"
        },
        {
          "name": "_to",
          "type": "address"
        }
      ],
      "name": "withdrawnTokens",
      "outputs": [
        {
          "name": "",
          "type": "uint256"
        }
      ],
      "payable": false,
      "stateMutability": "nonpayable",
      "type": "function"
    },
    {
      "constant": false,
      "inputs": [
        {
          "name": "error",
          "type": "uint256"
        }
      ],
      "name": "emitError",
      "outputs": [],
      "payable": false,
      "stateMutability": "nonpayable",
      "type": "function"
    },
    {
      "constant": false,
      "inputs": [
        {
          "name": "token",
          "type": "address"
        },
        {
          "name": "limit",
          "type": "uint256"
        },
        {
          "name": "isAdded",
          "type": "bool"
        }
      ],
      "name": "emitSharesWhiteListChanged",
      "outputs": [],
      "payable": false,
      "stateMutability": "nonpayable",
      "type": "function"
    },
    {
      "constant": true,
      "inputs": [
        {
          "name": "key",
          "type": "address"
        }
      ],
      "name": "isAuthorized",
      "outputs": [
        {
          "name": "",
          "type": "bool"
        }
      ],
      "payable": false,
      "stateMutability": "view",
      "type": "function"
    },
    {
      "constant": true,
      "inputs": [],
      "name": "getEventsHistory",
      "outputs": [
        {
          "name": "",
          "type": "address"
        }
      ],
      "payable": false,
      "stateMutability": "view",
      "type": "function"
    },
    {
      "inputs": [
        {
          "name": "_store",
          "type": "address"
        },
        {
          "name": "_crate",
          "type": "bytes32"
        }
      ],
      "payable": false,
      "stateMutability": "nonpayable",
      "type": "constructor"
    },
    {
      "anonymous": false,
      "inputs": [
        {
          "indexed": false,
          "name": "token",
          "type": "address"
        },
        {
          "indexed": false,
          "name": "who",
          "type": "address"
        },
        {
          "indexed": false,
          "name": "amount",
          "type": "uint256"
        }
      ],
      "name": "Deposit",
      "type": "event"
    },
    {
      "anonymous": false,
      "inputs": [
        {
          "indexed": false,
          "name": "token",
          "type": "address"
        },
        {
          "indexed": false,
          "name": "who",
          "type": "address"
        },
        {
          "indexed": false,
          "name": "amount",
          "type": "uint256"
        },
        {
          "indexed": false,
          "name": "receiver",
          "type": "address"
        }
      ],
      "name": "WithdrawShares",
      "type": "event"
    },
    {
      "anonymous": false,
      "inputs": [
        {
          "indexed": false,
          "name": "listener",
          "type": "address"
        },
        {
          "indexed": false,
          "name": "token",
          "type": "address"
        }
      ],
      "name": "ListenerAdded",
      "type": "event"
    },
    {
      "anonymous": false,
      "inputs": [
        {
          "indexed": false,
          "name": "listener",
          "type": "address"
        },
        {
          "indexed": false,
          "name": "token",
          "type": "address"
        }
      ],
      "name": "ListenerRemoved",
      "type": "event"
    },
    {
      "anonymous": false,
      "inputs": [
        {
          "indexed": false,
          "name": "token",
          "type": "address"
        }
      ],
      "name": "SharesWhiteListAdded",
      "type": "event"
    },
    {
      "anonymous": false,
      "inputs": [
        {
          "indexed": false,
          "name": "token",
          "type": "address"
        },
        {
          "indexed": false,
          "name": "limit",
          "type": "uint256"
        },
        {
          "indexed": true,
          "name": "isAdded",
          "type": "bool"
        }
      ],
      "name": "SharesWhiteListChanged",
      "type": "event"
    },
    {
      "anonymous": false,
      "inputs": [
        {
          "indexed": false,
          "name": "self",
          "type": "address"
        },
        {
          "indexed": true,
          "name": "from",
          "type": "address"
        },
        {
          "indexed": true,
          "name": "to",
          "type": "address"
        },
        {
          "indexed": false,
          "name": "amount",
          "type": "uint256"
        }
      ],
      "name": "FeatureFeeTaken",
      "type": "event"
    },
    {
      "anonymous": false,
      "inputs": [
        {
          "indexed": true,
          "name": "self",
          "type": "address"
        },
        {
          "indexed": false,
          "name": "errorCode",
          "type": "uint256"
        }
      ],
      "name": "Error",
      "type": "event"
    },
    {
      "constant": false,
      "inputs": [
        {
          "name": "_contractsManager",
          "type": "address"
        },
        {
          "name": "_defaultToken",
          "type": "address"
        },
        {
          "name": "_wallet",
          "type": "address"
        },
        {
          "name": "_feeWallet",
          "type": "address"
        },
        {
          "name": "_erc20DepositStorage",
          "type": "address"
        }
      ],
      "name": "init",
      "outputs": [
        {
          "name": "",
          "type": "uint256"
        }
      ],
      "payable": false,
      "stateMutability": "nonpayable",
      "type": "function"
    },
    {
      "constant": true,
      "inputs": [
        {
          "name": "_depositor",
          "type": "address"
        }
      ],
      "name": "depositBalance",
      "outputs": [
        {
          "name": "",
          "type": "uint256"
        }
      ],
      "payable": false,
      "stateMutability": "view",
      "type": "function"
    },
    {
      "constant": true,
      "inputs": [
        {
          "name": "_token",
          "type": "address"
        },
        {
          "name": "_depositor",
          "type": "address"
        }
      ],
      "name": "getDepositBalance",
      "outputs": [
        {
          "name": "_balance",
          "type": "uint256"
        }
      ],
      "payable": false,
      "stateMutability": "view",
      "type": "function"
    },
    {
      "constant": false,
      "inputs": [
        {
          "name": "_whitelist",
          "type": "address[]"
        },
        {
          "name": "_limits",
          "type": "uint256[]"
        }
      ],
      "name": "allowShares",
      "outputs": [],
      "payable": false,
      "stateMutability": "nonpayable",
      "type": "function"
    },
    {
      "constant": false,
      "inputs": [
        {
          "name": "_blacklist",
          "type": "address[]"
        }
      ],
      "name": "denyShares",
      "outputs": [],
      "payable": false,
      "stateMutability": "nonpayable",
      "type": "function"
    },
    {
      "constant": false,
      "inputs": [
        {
          "name": "_token",
          "type": "address"
        },
        {
          "name": "_listener",
          "type": "address"
        }
      ],
      "name": "addListener",
      "outputs": [],
      "payable": false,
      "stateMutability": "nonpayable",
      "type": "function"
    },
    {
      "constant": false,
      "inputs": [
        {
          "name": "_token",
          "type": "address"
        },
        {
          "name": "_listener",
          "type": "address"
        }
      ],
      "name": "removeListener",
      "outputs": [],
      "payable": false,
      "stateMutability": "nonpayable",
      "type": "function"
    },
    {
      "constant": false,
      "inputs": [
        {
          "name": "_feeWallet",
          "type": "address"
        }
      ],
      "name": "setFeeWallet",
      "outputs": [],
      "payable": false,
      "stateMutability": "nonpayable",
      "type": "function"
    },
    {
      "constant": false,
      "inputs": [
        {
          "name": "_token",
          "type": "address"
        },
        {
          "name": "_amount",
          "type": "uint256"
        }
      ],
      "name": "deposit",
      "outputs": [
        {
          "name": "",
          "type": "uint256"
        }
      ],
      "payable": false,
      "stateMutability": "nonpayable",
      "type": "function"
    },
    {
      "constant": false,
      "inputs": [
        {
          "name": "_token",
          "type": "address"
        },
        {
          "name": "_target",
          "type": "address"
        },
        {
          "name": "_amount",
          "type": "uint256"
        }
      ],
      "name": "depositFor",
      "outputs": [
        {
          "name": "",
          "type": "uint256"
        }
      ],
      "payable": false,
      "stateMutability": "nonpayable",
      "type": "function"
    },
    {
      "constant": false,
      "inputs": [
        {
          "name": "_token",
          "type": "address"
        },
        {
          "name": "_amount",
          "type": "uint256"
        }
      ],
      "name": "withdrawShares",
      "outputs": [
        {
          "name": "resultCode",
          "type": "uint256"
        }
      ],
      "payable": false,
      "stateMutability": "nonpayable",
      "type": "function"
    },
    {
      "constant": false,
      "inputs": [
        {
          "name": "_from",
          "type": "address"
        },
        {
          "name": "_token",
          "type": "address"
        },
        {
          "name": "_amount",
          "type": "uint256"
        }
      ],
      "name": "forceWithdrawShares",
      "outputs": [
        {
          "name": "resultCode",
          "type": "uint256"
        }
      ],
      "payable": false,
      "stateMutability": "nonpayable",
      "type": "function"
    },
    {
      "constant": false,
      "inputs": [
        {
          "name": "_account",
          "type": "address"
        },
        {
          "name": "_amount",
          "type": "uint256"
        }
      ],
      "name": "takeFeatureFee",
      "outputs": [
        {
          "name": "resultCode",
          "type": "uint256"
        }
      ],
      "payable": false,
      "stateMutability": "nonpayable",
      "type": "function"
    },
    {
      "constant": true,
      "inputs": [],
      "name": "wallet",
      "outputs": [
        {
          "name": "",
          "type": "address"
        }
      ],
      "payable": false,
      "stateMutability": "view",
      "type": "function"
    },
    {
      "constant": true,
      "inputs": [],
      "name": "feeWallet",
      "outputs": [
        {
          "name": "",
          "type": "address"
        }
      ],
      "payable": false,
      "stateMutability": "view",
      "type": "function"
    },
    {
      "constant": true,
      "inputs": [
        {
          "name": "_token",
          "type": "address"
        }
      ],
      "name": "totalShares",
      "outputs": [
        {
          "name": "",
          "type": "uint256"
        }
      ],
      "payable": false,
      "stateMutability": "view",
      "type": "function"
    },
    {
      "constant": true,
      "inputs": [],
      "name": "defaultShareholdersCount",
      "outputs": [
        {
          "name": "",
          "type": "uint256"
        }
      ],
      "payable": false,
      "stateMutability": "view",
      "type": "function"
    },
    {
      "constant": true,
      "inputs": [
        {
          "name": "_token",
          "type": "address"
        }
      ],
      "name": "shareholdersCount",
      "outputs": [
        {
          "name": "",
          "type": "uint256"
        }
      ],
      "payable": false,
      "stateMutability": "view",
      "type": "function"
    },
    {
      "constant": true,
      "inputs": [
        {
          "name": "_token",
          "type": "address"
        }
      ],
      "name": "getLimitForToken",
      "outputs": [
        {
          "name": "",
          "type": "uint256"
        }
      ],
      "payable": false,
      "stateMutability": "view",
      "type": "function"
    },
    {
      "constant": true,
      "inputs": [],
      "name": "getDefaultShares",
      "outputs": [
        {
          "name": "",
          "type": "address"
        }
      ],
      "payable": false,
      "stateMutability": "view",
      "type": "function"
    }
  ],
  "bytecode": "0x606060405234156200001057600080fd5b60405160408062003301833981016040528080519190602001805191508290508181818181620000516000838364010000000062002a8a620001f582021704565b505060028054600160a060020a03338116600160a060020a03199283161790925560058054309093169290911691909117905550620000c69250600691507f736861726573436f6e74726163747353746f726167655f763200000000000000905064010000000062002ab06200021b82021704565b6200010160097f6c696d6974416d6f756e747353746f726167655f76320000000000000000000064010000000062002aba6200023982021704565b6200013c600a7f6c697374656e6572735f7632000000000000000000000000000000000000000064010000000062002ac46200025382021704565b62000177600f7f74696d65486f6c64657257616c6c657453746f7261676500000000000000000064010000000062002ace6200026d82021704565b620001b260107f74696d65486f6c64657246656557616c6c657453746f7261676500000000000064010000000062002ace6200026d82021704565b620001ed60117f65726332304465706f73697453746f726167650000000000000000000000000064010000000062002ace6200026d82021704565b505062000589565b8254600160a060020a031916600160a060020a0392909216919091178255600190910155565b62000235828264010000000062002ade6200028d82021704565b5050565b62000235828264010000000062002ace6200026d82021704565b62000235828264010000000062002bb36200039882021704565b815462000289908264010000000062002bbd620003b282021704565b9055565b620002e482826040519081527f636f756e74000000000000000000000000000000000000000000000000000000602082015260250160405180910390206200026d6401000000000262002ace176401000000009004565b6200033e82600101826040519081527f696e646578657300000000000000000000000000000000000000000000000000602082015260270160405180910390206200026d6401000000000262002ace176401000000009004565b6200023582600201826040519081527f76616c7565730000000000000000000000000000000000000000000000000000602082015260260160405180910390206200026d6401000000000262002ace176401000000009004565b62000235828264010000000062002bdf620003ca82021704565b81151580620003bf575080155b156200023557600080fd5b6200042182826040519081527f75696e742f636f756e74000000000000000000000000000000000000000000006020820152602a0160405180910390206200026d6401000000000262002ace176401000000009004565b6200047b82600101826040519081527f75696e742f6669727374000000000000000000000000000000000000000000006020820152602a0160405180910390206200026d6401000000000262002ace176401000000009004565b620004d582600201826040519081527f75696e742f6c6173740000000000000000000000000000000000000000000000602082015260290160405180910390206200026d6401000000000262002ace176401000000009004565b6200052f82600301826040519081527f75696e742f6e6578740000000000000000000000000000000000000000000000602082015260290160405180910390206200026d6401000000000262002ace176401000000009004565b6200023582600401826040519081527f75696e742f707265760000000000000000000000000000000000000000000000602082015260290160405180910390206200026d6401000000000262002ace176401000000009004565b612d6880620005996000396000f3006060604052600436106101d45763ffffffff60e060020a600035041663024c419981146101d95780630ae112a4146102005780632aa852b3146102375780633253fcc81461025c578063359ef75b1461026f5780634592cd1d146102a657806347e7ef24146102cd5780634fe59012146102ef578063521eb2731461032157806353253d3114610334578063544a648714610347578063557f4bc91461036c5780635882a5481461038b5780635aa77d3c146103b55780635d1be4ac146103c85780636521afd7146103e65780636680d8c1146104055780636ab3c7001461042457806371d3b57314610443578063728994e71461046257806383197ef0146104915780638b7711b4146104a457806390d49b9d146104cc578063956501bb146104eb5780639826ad691461050a578063a191d16714610532578063a4d4f0d214610557578063a843c51f1461056a578063a92ec96814610589578063b3db428b146105ab578063b59d9f16146105d3578063bf6b874e146105fb578063ce606ee01461061a578063d8f9659b1461062d578063df26ca0814610687578063e9112e9a1461069d578063eca87918146106c4578063f25f4b56146106e6578063fe9fbb80146106f9578063fff10aba14610718575b600080fd5b34156101e457600080fd5b6101fe600160a060020a036004358116906024351661072b565b005b341561020b57600080fd5b610225600160a060020a036004358116906024351661078e565b60405190815260200160405180910390f35b341561024257600080fd5b6101fe600160a060020a0360043581169060243516610819565b341561026757600080fd5b610225610876565b341561027a57600080fd5b610225600160a060020a03600435811690602435811690604435811690606435811690608435166108fd565b34156102b157600080fd5b6102b9610a86565b604051901515815260200160405180910390f35b34156102d857600080fd5b610225600160a060020a0360043516602435610ad2565b34156102fa57600080fd5b610305600435610ae6565b604051600160a060020a03909116815260200160405180910390f35b341561032c57600080fd5b610305610b6f565b341561033f57600080fd5b610305610b87565b341561035257600080fd5b6101fe600160a060020a0360043581169060243516610b96565b341561037757600080fd5b6102b9600160a060020a0360043516610be0565b341561039657600080fd5b6101fe6024600480358281019290820135918135918201910135610c37565b34156103c057600080fd5b610305610dc6565b34156103d357600080fd5b6101fe6004803560248101910135610dd5565b34156103f157600080fd5b6101fe600160a060020a0360043516610e87565b341561041057600080fd5b610225600160a060020a0360043516610ebd565b341561042f57600080fd5b610225600160a060020a0360043516610ed1565b341561044e57600080fd5b6101fe600160a060020a0360043516610f51565b341561046d57600080fd5b6101fe600160a060020a036004358116906024358116906044359060643516610f88565b341561049c57600080fd5b6101fe610fe6565b34156104af57600080fd5b6101fe600160a060020a036004358116906024351660443561107c565b34156104d757600080fd5b6101fe600160a060020a03600435166110d1565b34156104f657600080fd5b610225600160a060020a03600435166110f2565b341561051557600080fd5b6101fe600160a060020a0360043581169060243516604435611105565b341561053d57600080fd5b6101fe600160a060020a0360043581169060243516611169565b341561056257600080fd5b6103056111b3565b341561057557600080fd5b6102b9600160a060020a0360043516611202565b341561059457600080fd5b610225600160a060020a036004351660243561127b565b34156105b657600080fd5b610225600160a060020a03600435811690602435166044356112af565b34156105de57600080fd5b610225600160a060020a036004358116906024351660443561145d565b341561060657600080fd5b610225600160a060020a03600435166114c6565b341561062557600080fd5b610305611526565b341561063857600080fd5b610225600460248135818101908301358060208181020160405190810160405280939291908181526020018383602002808284375094965050509235600160a060020a03169250611535915050565b341561069257600080fd5b6101fe600435611686565b34156106a857600080fd5b6101fe600160a060020a036004351660243560443515156116cd565b34156106cf57600080fd5b610225600160a060020a0360043516602435611719565b34156106f157600080fd5b6103056117d0565b341561070457600080fd5b6102b9600160a060020a03600435166117e3565b341561072357600080fd5b610305611889565b610734336117e3565b1561078a57600160a060020a038216151561074e57600080fd5b600160a060020a038116151561076357600080fd5b6107806000600a600160a060020a0385168463ffffffff61189816565b61078a81836118b3565b5050565b6000610798611928565b600160a060020a0316630e7ae6a2848460006040516020015260405160e060020a63ffffffff8516028152600160a060020a03928316600482015291166024820152604401602060405180830381600087803b15156107f657600080fd5b6102c65a03f1151561080757600080fd5b50505060405180519150505b92915050565b610822336117e3565b1561078a576108446000600a600160a060020a0385168463ffffffff61193b16565b151561084f57600080fd5b61086c6000600a600160a060020a0385168463ffffffff61195216565b61078a8183611967565b6000610880611928565b600160a060020a0316636ab3c7006108966111b3565b60006040516020015260405160e060020a63ffffffff8416028152600160a060020a039091166004820152602401602060405180830381600087803b15156108dd57600080fd5b6102c65a03f115156108ee57600080fd5b50505060405180519150505b90565b60025460009033600160a060020a0390811691161415610a7d57600160a060020a038516151561092c57600080fd5b600160a060020a038416151561094157600080fd5b600160a060020a038316151561095657600080fd5b600160a060020a038216151561096b57600080fd5b610995867f54696d65486f6c646572000000000000000000000000000000000000000000006119c4565b506109a96000600f8663ffffffff611bb516565b6109bc600060108563ffffffff611bb516565b6109cf600060118463ffffffff611bb516565b6109e2600060068763ffffffff611c2f16565b610a1660006009877f800000000000000000000000000000000000000000000000000000000000000063ffffffff611c4316565b81600160a060020a0316630a57ce3b8660405160e060020a63ffffffff8416028152600160a060020a039091166004820152602401600060405180830381600087803b1515610a6457600080fd5b6102c65a03f11515610a7557600080fd5b505050600190505b95945050505050565b60035460009033600160a060020a03908116911614610aa7575060006108fa565b506003805460028054600160a060020a0319908116600160a060020a03841617909155169055600190565b6000610adf8333846112af565b9392505050565b600454600090600160a060020a031663bc65792783836040516020015260405160e060020a63ffffffff84160281526004810191909152602401602060405180830381600087803b1515610b3957600080fd5b6102c65a03f11515610b4a57600080fd5b5050506040518051915050600160a060020a0381161515610b6a57600080fd5b919050565b6000610b8281600f63ffffffff611c5816565b905090565b600454600160a060020a031681565b7ff8748b040716bebd0fc7631bc2fa3905219c951c1754ad6eecf1606b380f6e308282604051600160a060020a039283168152911660208201526040908101905180910390a15050565b60025460009033600160a060020a0390811691161415610b6a57600160a060020a0382161515610c1257506000610b6a565b5060038054600160a060020a038316600160a060020a03199091161790556001919050565b600080610c43336117e3565b15610dbe57848314610c5457600080fd5b610c5c611cb7565b9150600090505b84811015610dbe57600160a060020a038216639ed4fa5a878784818110610c8657fe5b90506020020135600160a060020a031660006040516020015260405160e060020a63ffffffff8416028152600160a060020a039091166004820152602401602060405180830381600087803b1515610cdd57600080fd5b6102c65a03f11515610cee57600080fd5b505050604051805190501515610d0357600080fd5b610d356006878784818110610d1457fe5b90506020020135600160a060020a03166000611c2f9092919063ffffffff16565b610d7d6009878784818110610d4657fe5b90506020020135600160a060020a03168686858181101515610d6457fe5b905060200201356000611c43909392919063ffffffff16565b610db6868683818110610d8c57fe5b90506020020135600160a060020a03168585848181101515610daa57fe5b90506020020135611ce2565b600101610c63565b505050505050565b600354600160a060020a031681565b6000610de0336117e3565b15610e82575060005b81811015610e8257610e236006848484818110610e0257fe5b90506020020135600160a060020a03166000611d499092919063ffffffff16565b610e566009848484818110610e3457fe5b60009392600160a060020a03602090920201351690508263ffffffff611c4316565b610e7a838383818110610e6557fe5b90506020020135600160a060020a0316611d5d565b600101610de9565b505050565b60025433600160a060020a0390811691161415610eba5760058054600160a060020a031916600160a060020a0383161790555b50565b60006108138160098463ffffffff611dd516565b6000610edb611928565b600160a060020a0316636ab3c7008360006040516020015260405160e060020a63ffffffff8416028152600160a060020a039091166004820152602401602060405180830381600087803b1515610f3157600080fd5b6102c65a03f11515610f4257600080fd5b50505060405180519392505050565b60025433600160a060020a0390811691161415610eba5760048054600160a060020a038316600160a060020a031990911617905550565b7f144845eeb484e3f074766eb65a15afd2889f6c747d90354396914e8365c6985a84848484604051600160a060020a03948516815292841660208401526040808401929092529092166060820152608001905180910390a150505050565b60025433600160a060020a039081169116141561107a57600454600160a060020a031663c375c2ef3060006040516020015260405160e060020a63ffffffff8416028152600160a060020a039091166004820152602401602060405180830381600087803b151561105657600080fd5b6102c65a03f1151561106757600080fd5b505050604051805190505061107a611df3565b565b7f5548c837ab068cf56a2c2479df0882a4922fd203edb7517321831d95078c5f62838383604051600160a060020a039384168152919092166020820152604080820192909252606001905180910390a1505050565b6110da336117e3565b15610eba57610eba600060108363ffffffff611bb516565b60006108136110ff6111b3565b8361078e565b81600160a060020a031683600160a060020a03167f2943030ec8237acc21c9f7b88449db73d4b0f8e1c64675fa50b58844c9fb69ec611142611e16565b84604051600160a060020a03909216825260208201526040908101905180910390a3505050565b7fec2210f07d90c7950ab3623fc89a4ccb3328f38c81cc33d1c4a5f47fb4d8bad58282604051600160a060020a039283168152911660208201526040908101905180910390a15050565b60006111bd611928565b600160a060020a031663c61f44b86000604051602001526040518163ffffffff1660e060020a028152600401602060405180830381600087803b15156108dd57600080fd5b60025460009033600160a060020a0390811691161415610b6a57600160a060020a038216151561123457506000610b6a565b600354600160a060020a0316156112565760038054600160a060020a03191690555b5060028054600160a060020a038316600160a060020a03199091161790556001919050565b600061128983333385611e1a565b9050600181146112a35761129c81611f7e565b9050610813565b61081383338433611fe7565b6000836112c48260068363ffffffff61207116565b1561145557600160a060020a03851615156112de57600080fd5b6112f1600060068763ffffffff61207116565b15156112fc57600080fd5b61130585610ebd565b83111561131e57611317612ee7611f7e565b9150611455565b611326610b6f565b600160a060020a0316638340f54986338660006040516020015260405160e060020a63ffffffff8616028152600160a060020a0393841660048201529190921660248201526044810191909152606401602060405180830381600087803b151561138f57600080fd5b6102c65a03f115156113a057600080fd5b5050506040518051905015156113bb57611317612ee3611f7e565b6113c3611928565b600160a060020a031663b3db428b86868660405160e060020a63ffffffff8616028152600160a060020a0393841660048201529190921660248201526044810191909152606401600060405180830381600087803b151561142357600080fd5b6102c65a03f1151561143457600080fd5b505050611445858585612087612109565b61145085858561218e565b600191505b509392505050565b60025460009033600160a060020a0390811691161415610adf576002546114919084908690600160a060020a031685611e1a565b9050600181146114ab576114a481611f7e565b9050610adf565b600254610adf90849086908590600160a060020a0316611fe7565b60006114d0611928565b600160a060020a031663bf6b874e8360006040516020015260405160e060020a63ffffffff8416028152600160a060020a039091166004820152602401602060405180830381600087803b1515610f3157600080fd5b600254600160a060020a031681565b60025460009081908190819033600160a060020a039081169116141561167d57600092505b85518310156116785785838151811061156f57fe5b90602001906020020151915081600160a060020a03166370a082313060006040516020015260405160e060020a63ffffffff8416028152600160a060020a039091166004820152602401602060405180830381600087803b15156115d257600080fd5b6102c65a03f115156115e357600080fd5b5050506040518051915050801561166d5781600160a060020a031663a9059cbb868360006040516020015260405160e060020a63ffffffff8516028152600160a060020a0390921660048301526024820152604401602060405180830381600087803b151561165157600080fd5b6102c65a03f1151561166257600080fd5b505050604051805150505b60019092019161155a565b600193505b50505092915050565b61168e611e16565b600160a060020a03167f9cf38cf2dbf9139f5c32639950507b10775fbbe0421f3e168bc2d1bb1ae3208c8260405190815260200160405180910390a250565b8015157f360225f74eacd06eefedf821b89c21c7c975b645503e5198c6a60a62f84e302b8484604051600160a060020a03909216825260208201526040908101905180910390a2505050565b60006117447f466561747572654665654d616e61676572000000000000000000000000000000610ae6565b600160a060020a031633600160a060020a031614151561176357600080fd5b600160a060020a038316151561177857600080fd5b6117806117d0565b600160a060020a0316151561179157fe5b6117ab61179c6111b3565b846117a56117d0565b85611e1a565b9050600181146117be5761129c81611f7e565b610813836117ca6117d0565b846121f6565b6000610b8281601063ffffffff611c5816565b60008061180f7f557365724d616e61676572000000000000000000000000000000000000000000610ae6565b905080600160a060020a0316632aa09e5a8460006040516020015260405160e060020a63ffffffff8416028152600160a060020a039091166004820152602401602060405180830381600087803b151561186857600080fd5b6102c65a03f1151561187957600080fd5b5050506040518051949350505050565b600554600160a060020a031690565b6118ad848484600160a060020a03851661225e565b50505050565b6118bb611889565b600160a060020a031663544a6487838360405160e060020a63ffffffff8516028152600160a060020a03928316600482015291166024820152604401600060405180830381600087803b151561191057600080fd5b6102c65a03f1151561192157600080fd5b5050505050565b6000610b8281601163ffffffff611c5816565b6000610a7d858585600160a060020a03861661226a565b6118ad848484600160a060020a038516612278565b61196f611889565b600160a060020a031663a191d167838360405160e060020a63ffffffff8516028152600160a060020a03928316600482015291166024820152604401600060405180830381600087803b151561191057600080fd5b60025460009081908190819033600160a060020a039081169116146119e857600080fd5b600160a060020a03861615156119fd57600080fd5b600454600160a060020a0316158015935080611a275750600454600160a060020a03878116911614155b15611a485760048054600160a060020a031916600160a060020a0388161790555b600454600160a060020a031691508163bc65792760006040516020015260405160e060020a63ffffffff83160281527f4d756c74694576656e7473486973746f727900000000000000000000000000006004820152602401602060405180830381600087803b1515611ab957600080fd5b6102c65a03f11515611aca57600080fd5b5050506040518051915050600160a060020a03811615801590611afb5750600554600160a060020a03828116911614155b15611b1c5760058054600160a060020a031916600160a060020a0383161790555b8415611ba35781600160a060020a031663b7c46cd5308760006040516020015260405160e060020a63ffffffff8516028152600160a060020a0390921660048301526024820152604401602060405180830381600087803b1515611b7f57600080fd5b6102c65a03f11515611b9057600080fd5b50505060405180516001149050611ba357fe5b82156116785760069695505050505050565b825460018401548354600160a060020a03909216916379a7cfee91908460405160e060020a63ffffffff861602815260048101939093526024830191909152600160a060020a03166044820152606401600060405180830381600087803b1515611c1e57600080fd5b6102c65a03f11515610dbe57600080fd5b610e828383600160a060020a038416612284565b6118ad8484600160a060020a038516846122b0565b815460018301548254600092600160a060020a03169163d3a3968691846040516020015260405160e060020a63ffffffff851602815260048101929092526024820152604401602060405180830381600087803b15156107f657600080fd5b6000610b827f45524332304d616e616765720000000000000000000000000000000000000000610ae6565b611cea611889565b600160a060020a031663e9112e9a8383600160405160e060020a63ffffffff8616028152600160a060020a039093166004840152602483019190915215156044820152606401600060405180830381600087803b151561191057600080fd5b610e828383600160a060020a038416612328565b611d65611889565b600160a060020a031663e9112e9a8260008060405160e060020a63ffffffff8616028152600160a060020a039093166004840152602483019190915215156044820152606401600060405180830381600087803b1515611dc457600080fd5b6102c65a03f115156118ad57600080fd5b6000611deb8484600160a060020a038516612354565b949350505050565b60025433600160a060020a039081169116141561107a5733600160a060020a0316ff5b3390565b600080611e27868661078e565b905080831115611e4357611e3c612ee6611f7e565b9150611f75565b611e4b610b6f565b600160a060020a031663d9caed1287868660006040516020015260405160e060020a63ffffffff8616028152600160a060020a0393841660048201529190921660248201526044810191909152606401602060405180830381600087803b1515611eb457600080fd5b6102c65a03f11515611ec557600080fd5b505050604051805190501515611ee057611e3c612ee3611f7e565b611ee8611928565b600160a060020a031663644964758787868560405160e060020a63ffffffff8716028152600160a060020a03948516600482015292909316602483015260448201526064810191909152608401600060405180830381600087803b1515611f4e57600080fd5b6102c65a03f11515611f5f57600080fd5b505050611f708686856123ee612109565b600191505b50949350505050565b6000611f88611889565b600160a060020a031663df26ca088360405160e060020a63ffffffff84160281526004810191909152602401600060405180830381600087803b1515611fcd57600080fd5b6102c65a03f11515611fde57600080fd5b50929392505050565b611fef611889565b600160a060020a031663728994e78585858560405160e060020a63ffffffff8716028152600160a060020a039485166004820152928416602484015260448301919091529091166064820152608401600060405180830381600087803b151561205757600080fd5b6102c65a03f1151561206857600080fd5b50505050505050565b6000611deb8484600160a060020a038516612455565b84600160a060020a0316639cd004488585858560405160e060020a63ffffffff8716028152600160a060020a03948516600482015292909316602483015260448201526064810191909152608401600060405180830381600087803b15156120ee57600080fd5b6102c65a03f115156120ff57600080fd5b5050505050505050565b6000612113612a63565b600080612120888861078e565b935061213e6000600a600160a060020a038b1663ffffffff61248316565b9250600091505b6121586000600a8563ffffffff61249616565b156120ff576121706000600a8563ffffffff6124a316565b905061218381898989888a63ffffffff16565b816001019150612145565b612196611889565b600160a060020a0316638b7711b484848460405160e060020a63ffffffff8616028152600160a060020a0393841660048201529190921660248201526044810191909152606401600060405180830381600087803b1515611c1e57600080fd5b6121fe611889565b600160a060020a0316639826ad6984848460405160e060020a63ffffffff8616028152600160a060020a0393841660048201529190921660248201526044810191909152606401600060405180830381600087803b1515611c1e57600080fd5b6118ad848484846124b0565b6000610a7d85858585612578565b6118ad848484846125b4565b610e8283837f7365740000000000000000000000000000000000000000000000000000000000846126af565b835460018501548454600160a060020a039092169163a14ff85791908560405191825260208201526040908101905180910390208460405160e060020a63ffffffff8616028152600481019390935260248301919091526044820152606401600060405180830381600087803b151561205757600080fd5b610e8283837f736574000000000000000000000000000000000000000000000000000000000084612703565b825460018401548354600092600160a060020a0316916337d9d7fc9185604051918252602082015260409081019051809103902060006040516020015260405160e060020a63ffffffff851602815260048101929092526024820152604401602060405180830381600087803b15156123cc57600080fd5b6102c65a03f115156123dd57600080fd5b505050604051805195945050505050565b84600160a060020a0316634ca95be88585858560405160e060020a63ffffffff8716028152600160a060020a03948516600482015292909316602483015260448201526064810191909152608401600060405180830381600087803b15156120ee57600080fd5b6000611deb84847f7365740000000000000000000000000000000000000000000000000000000000856127a8565b61248b612a63565b611deb8484846127c4565b6000611deb8484846127d7565b6000611deb8484846127e4565b8015156124bc57600080fd5b6124c884848484612578565b156124d2576118ad565b6124dd8484846127f1565b15156124f2576124f2848460010184846122b0565b612500848460020184612354565b1561253f5761252284846003018461251c888860020188612354565b856127fe565b61253f8484600401848461253a898960020189612354565b6127fe565b6125508460038501848460006127fe565b61255f848460020184846122b0565b6118ad848484612570838383612811565b600101612889565b60008115801590610a7d575061259385856003018585612901565b151580610a7d5750816125aa866002870186612354565b1495945050505050565b6125c084848484612578565b15156125cb576118ad565b6125f28484600301846125e388886004018888612901565b61253a89896003018989612901565b61261984846004018461260a88886003018888612901565b61253a89896004018989612901565b612627848460010184612354565b81141561264b5761264b84846001018461264688886003018888612901565b6122b0565b612659848460020184612354565b8114156126785761267884846002018461264688886004018888612901565b61268784846003018484612926565b61269684846004018484612926565b6118ad84848460016126a9848484612811565b03612889565b60006126bd858585856127a8565b156126c757611921565b6126d28585856127f1565b60010190506126e78560028601858486612936565b6126f78560018601858585612936565b61192185858584612889565b6000806000612714878787876127a8565b151561271f57612068565b61272a8787876127f1565b925061273b87600288018786612901565b915061274c87876001018787612901565b905082811015612776576127668760018801878585612936565b6127768760028801878486612936565b612787876001880187876000612936565b612798876002880187866000612936565b6120688787876000198701612889565b60006127b985856001018585612901565b151595945050505050565b6127cc612a63565b611deb84848461295a565b6000611deb848484612978565b6000611deb8484846129b3565b6000611deb848484612811565b8115611921576119218585858585612936565b825460018401548354600092600160a060020a0316916353aa3f5e9185604051918252602082015260409081019051809103902060006040516020015260405160e060020a63ffffffff851602815260048101929092526024820152604401602060405180830381600087803b15156123cc57600080fd5b835460018501548454600160a060020a03909216916353e7168b91908560405191825260208201526040908101905180910390208460405160e060020a63ffffffff8616028152600481019390935260248301919091526044820152606401600060405180830381600087803b151561205757600080fd5b6000610a7d858585856040519182526020820152604090810190518091039020612354565b80156118ad576118ad8484848460005b611921858585856040519182526020820152604090810190518091039020846122b0565b612962612a63565b611deb848484612973838383612811565b6129ff565b60008160200151158061299c575061299a848484606001518560400151612578565b155b156129a957506000610adf565b5060019392505050565b60006129c0848484612978565b15156129cb57600080fd5b816040015190506129e6848484606001518560400151612a1f565b6040830152600160208301818151039052509392505050565b612a07612a63565b610a7d83612a19878760010187612354565b84612a30565b6000610a7d85856003018585612901565b612a38612a63565b6080604051908101604090815283825260208201939093529182019290925260608101929092525090565b60806040519081016040908152600080835260208301819052908201819052606082015290565b8254600160a060020a031916600160a060020a0392909216919091178255600190910155565b61078a8282612ade565b61078a8282612ace565b61078a8282612bb3565b8154612ada9082612bbd565b9055565b612b1f82826040519081527f636f756e7400000000000000000000000000000000000000000000000000000060208201526025016040518091039020612ace565b612b6382600101826040519081527f696e64657865730000000000000000000000000000000000000000000000000060208201526027016040518091039020612ace565b61078a82600201826040519081527f76616c756573000000000000000000000000000000000000000000000000000060208201526026016040518091039020612ace565b8154612ada9082612bbd565b61078a8282612bdf565b81151580612bc9575080155b1561078a57600080fd5b8154612ada9082612bbd565b612c2082826040519081527f75696e742f636f756e74000000000000000000000000000000000000000000006020820152602a016040518091039020612ace565b612c6482600101826040519081527f75696e742f6669727374000000000000000000000000000000000000000000006020820152602a016040518091039020612ace565b612ca882600201826040519081527f75696e742f6c617374000000000000000000000000000000000000000000000060208201526029016040518091039020612ace565b612cec82600301826040519081527f75696e742f6e657874000000000000000000000000000000000000000000000060208201526029016040518091039020612ace565b61078a82600401826040519081527f75696e742f70726576000000000000000000000000000000000000000000000060208201526029016040518091039020612ace565b8154612ada9082612bbd5600a165627a7a7230582016fe9b2f1ee6ad8b79b387d08d50464f11384068f7d2341811c0de2f0a919a760029",
  "source": "pragma solidity ^0.4.11;\n\nimport \"./TimeHolderEmitter.sol\";\nimport \"../core/common/BaseManager.sol\";\nimport \"../core/common/ListenerInterface.sol\";\nimport {ERC20Interface as Asset} from \"../core/erc20/ERC20Interface.sol\";\nimport {ERC20Manager as ERC20Service} from \"../core/erc20/ERC20Manager.sol\";\nimport \"./DepositWalletInterface.sol\";\nimport \"./ERC20DepositStorage.sol\";\nimport \"../core/lib/SafeMath.sol\";\n\n\n/// @title TimeHolder\n/// @notice Contract allows to block some amount of shares\" balance to unlock\n/// functionality inside a system.\ncontract TimeHolder is BaseManager, TimeHolderEmitter {\n\n    using SafeMath for uint;\n\n    /** Error codes */\n\n    uint constant ERROR_TIMEHOLDER_ALREADY_ADDED = 12000;\n    uint constant ERROR_TIMEHOLDER_TRANSFER_FAILED = 12003;\n    uint constant ERROR_TIMEHOLDER_INSUFFICIENT_BALANCE = 12006;\n    uint constant ERROR_TIMEHOLDER_LIMIT_EXCEEDED = 12007;\n\n    /** Storage keys */\n\n    StorageInterface.AddressesSet sharesTokenStorage;\n    StorageInterface.AddressUIntMapping limitsStorage;\n\n    StorageInterface.AddressOrderedSetMapping listeners;\n    StorageInterface.Address walletStorage;\n    StorageInterface.Address feeWalletStorage;\n    StorageInterface.Address erc20DepositStorage;\n\n    /// @dev Guards invokations only for FeatureManager\n    modifier onlyFeatureFeeManager {\n        require(msg.sender == lookupManager(\"FeatureFeeManager\"));\n        _;\n    }\n\n    /// @dev only token registered in whitelist\n    modifier onlyAllowedToken(address _token) {\n        if (store.includes(sharesTokenStorage, _token)) {\n            _;\n        }\n    }\n\n    /// @notice Constructor\n    function TimeHolder(Storage _store, bytes32 _crate) BaseManager(_store, _crate) public {\n        sharesTokenStorage.init(\"sharesContractsStorage_v2\");\n        limitsStorage.init(\"limitAmountsStorage_v2\");\n        listeners.init(\"listeners_v2\");\n        walletStorage.init(\"timeHolderWalletStorage\");\n        feeWalletStorage.init(\"timeHolderFeeWalletStorage\");\n        erc20DepositStorage.init(\"erc20DepositStorage\");\n    }\n\n    /// @notice Init TimeHolder contract.\n    /// @param _contractsManager address.\n    /// @return result code of an operation\n    function init(\n        address _contractsManager,\n        address _defaultToken,\n        address _wallet,\n        address _feeWallet,\n        address _erc20DepositStorage\n    )\n    public\n    onlyContractOwner\n    returns (uint)\n    {\n        require(_defaultToken != 0x0);\n        require(_wallet != 0x0);\n        require(_feeWallet != 0x0);\n        require(_erc20DepositStorage != 0x0);\n\n        BaseManager.init(_contractsManager, \"TimeHolder\");\n\n        store.set(walletStorage, _wallet);\n        store.set(feeWalletStorage, _feeWallet);\n        store.set(erc20DepositStorage, _erc20DepositStorage);\n\n        store.add(sharesTokenStorage, _defaultToken);\n        store.set(limitsStorage, _defaultToken, 2**255);\n\n        ERC20DepositStorage(_erc20DepositStorage).setSharesContract(_defaultToken);\n\n        return OK;\n    }\n\n     /// @notice Gets shares amount deposited by a particular shareholder.\n     ///\n     /// @param _depositor shareholder address.\n     ///\n     /// @return shares amount.\n    function depositBalance(address _depositor) public view returns (uint) {\n        return getDepositBalance(getDefaultShares(), _depositor);\n    }\n\n    /// @dev Gets balance of tokens deposited to TimeHolder\n    ///\n    /// @param _token token to check\n    /// @param _depositor shareholder address\n    /// @return _balance shares amount.\n    function getDepositBalance(\n        address _token,\n        address _depositor\n    )\n    public\n    view\n    returns (uint _balance)\n    {\n        return getDepositStorage().depositBalance(_token, _depositor);\n    }\n\n    /// @dev Gets pair of depositStorage and default token set up for a deposits\n    ///\n    /// @return {\n    ///     \"_depositStorage\": \"deposit storage contract\",\n    ///     \"_token\": \"default shares contract\",\n    /// }\n    function getDepositStorage() private view returns (ERC20DepositStorage _depositStorage) {\n        _depositStorage = ERC20DepositStorage(store.get(erc20DepositStorage));\n\n    }\n\n    /// @notice Adds ERC20-compatible token symbols and put them in the whitelist to be used then as\n    /// shares for other contracts and allow users to deposit for this share.\n    ///\n    /// @dev Allowed only for CBEs\n    ///\n    /// @param _whitelist list of token addresses that will be allowed to be deposited in TimeHolder\n    /// @param _limits list of limits\n    function allowShares(address[] _whitelist, uint[] _limits)\n    external\n    onlyAuthorized\n    {\n        require(_whitelist.length == _limits.length);\n\n        ERC20Service erc20Service = lookupERC20Service();\n        for (uint _idx = 0; _idx < _whitelist.length; ++_idx) {\n            require(erc20Service.isTokenExists(_whitelist[_idx]));\n\n            store.add(sharesTokenStorage, _whitelist[_idx]);\n            store.set(limitsStorage, _whitelist[_idx], _limits[_idx]);\n\n            _emitSharesWhiteListAdded(_whitelist[_idx], _limits[_idx]);\n        }\n    }\n\n    /// @notice Removes ERC20-compatible token symbols from TimeHolder so they will be removed\n    /// from the whitelist and will not be accessible to be used as shares.\n    /// All deposited amounts still will be available to withdraw.\n    /// @dev Allowed only for CBEs\n    ///\n    /// @param _blacklist list of token addresses that will be removed from TimeHolder\n    function denyShares(address[] _blacklist)\n    external\n    onlyAuthorized\n    {\n        for (uint _idx = 0; _idx < _blacklist.length; ++_idx) {\n            store.remove(sharesTokenStorage, _blacklist[_idx]);\n            store.set(limitsStorage, _blacklist[_idx], 0);\n\n            _emitSharesWhiteListRemoved(_blacklist[_idx]);\n        }\n    }\n\n    /// @notice Adds provided listener to observe changes of passed symbol when some amount will be deposited/withdrawn.\n    /// Checks passed listener for HolderListenerInterface compatibility.\n    /// @dev Allowed only for CBEs\n    ///\n    /// @param _token token symbol to watch deposits and withdrawals\n    /// @param _listener address of a listener to add\n    function addListener(address _token, address _listener)\n    external\n    onlyAuthorized\n    {\n        require(_token != 0x0);\n        require(_listener != 0x0);\n\n        store.add(listeners, bytes32(_token), _listener);\n\n        _emitListenerAdded(_listener, _token);\n    }\n\n    /// @notice Removes provided listener from observing changes of passed symbol.\n    /// @dev Allowed only for CBEs\n    ///\n    /// @param _token token symbol to stop watching by a listener\n    /// @param _listener address of a listener to remove\n    function removeListener(address _token, address _listener)\n    external\n    onlyAuthorized\n    {\n        require(store.includes(listeners, bytes32(_token), _listener));\n\n        store.remove(listeners, bytes32(_token), _listener);\n\n        _emitListenerRemoved(_listener, _token);\n    }\n\n    /// @notice Sets fee wallet address.\n    function setFeeWallet(address _feeWallet)\n    public\n    onlyAuthorized\n    {\n        store.set(feeWalletStorage, _feeWallet);\n    }\n\n    /// @notice Deposits shares with provided symbol and prove possesion.\n    /// Amount should be less than or equal to current allowance value.\n    ///\n    /// Proof should be repeated for each active period. To prove possesion without\n    /// depositing more shares, specify 0 amount.\n    ///\n    /// @param _token token address for shares\n    /// @param _amount amount of shares to deposit, or 0 to just prove.\n    ///\n    /// @return result code of an operation.\n    function deposit(address _token, uint _amount) public returns (uint) {\n        return depositFor(_token, msg.sender, _amount);\n    }\n\n    /// @notice Deposit own shares and prove possession for arbitrary shareholder.\n    /// Amount should be less than or equal to caller current allowance value.\n    ///\n    /// Proof should be repeated for each active period. To prove possesion without\n    /// depositing more shares, specify 0 amount.\n    ///\n    /// This function meant to be used by some backend application to prove shares possesion\n    /// of arbitrary shareholders.\n    ///\n    /// @param _token token address for shares\n    /// @param _target to deposit and prove for.\n    /// @param _amount amount of shares to deposit, or 0 to just prove.\n    ///\n    /// @return result code of an operation.\n    function depositFor(address _token, address _target, uint _amount)\n    public\n    onlyAllowedToken(_token)\n    returns (uint)\n    {\n        require(_token != 0x0);\n        require(store.includes(sharesTokenStorage, _token));\n\n        if (_amount > getLimitForToken(_token)) {\n            return _emitError(ERROR_TIMEHOLDER_LIMIT_EXCEEDED);\n        }\n\n        if (!DepositWalletInterface(wallet()).deposit(_token, msg.sender, _amount)) {\n            return _emitError(ERROR_TIMEHOLDER_TRANSFER_FAILED);\n        }\n\n        getDepositStorage().depositFor(_token, _target, _amount);\n\n        _goThroughListeners(_token, _target, _amount, _notifyDepositListener);\n\n        _emitDeposit(_token, _target, _amount);\n\n        return OK;\n    }\n\n    /// @notice Withdraw shares from the contract, updating the possesion proof in active period.\n    /// @param _token token symbol to withdraw from.\n    /// @param _amount amount of shares to withdraw.\n    /// @return resultCode result code of an operation.\n    function withdrawShares(address _token, uint _amount)\n    public\n    returns (uint resultCode)\n    {\n        resultCode = _withdrawShares(_token, msg.sender, msg.sender, _amount);\n        if (resultCode != OK) {\n            return _emitError(resultCode);\n        }\n\n        _emitWithdrawShares(_token, msg.sender, _amount, msg.sender);\n    }\n\n    /// @notice Force Withdraw Shares\n    /// Only CBE members are permited to call this function.\n    /// Multisig concensus is required to withdraw shares from shareholder \"_from\"\n    /// and send it to \"_to\".\n    function forceWithdrawShares(address _from, address _token, uint _amount)\n    public\n    onlyContractOwner\n    returns (uint resultCode) {\n        resultCode = _withdrawShares(_token, _from, contractOwner, _amount);\n        if (resultCode != OK) {\n            return _emitError(resultCode);\n        }\n\n        _emitWithdrawShares(_token, _from, _amount, contractOwner);\n    }\n\n    /// @notice Provides a way to support getting additional fee for using features of the system.\n    /// @param _account holder of deposits, will pay for using a features\n    /// @param _amount size of a fee\n    /// @return resultCode result code of the operation\n    function takeFeatureFee(address _account, uint _amount)\n    public\n    onlyFeatureFeeManager\n    returns (uint resultCode)\n    {\n        require(_account != 0x0);\n        assert(feeWallet() != 0x0);\n\n        resultCode = _withdrawShares(getDefaultShares(), _account, feeWallet(), _amount);\n        if (resultCode != OK) {\n            return _emitError(resultCode);\n        }\n\n        _emitFeatureFeeTaken(_account, feeWallet(), _amount);\n    }\n\n    /// @notice Gets an associated wallet for the time holder\n    function wallet() public view returns (address) {\n        return store.get(walletStorage);\n    }\n\n    /// @notice Gets an associated fee wallet for the time holder\n    function feeWallet() public view returns (address) {\n        return store.get(feeWalletStorage);\n    }\n\n    /// @notice Total amount of shares for provided symbol\n    /// @param _token token address to check total shares amout\n    /// @return total amount of shares\n    function totalShares(address _token) public view returns (uint) {\n        return getDepositStorage().totalShares(_token);\n    }\n\n    /// @notice Number of shareholders\n    /// @return number of shareholders\n    function defaultShareholdersCount() public view returns (uint) {\n        return getDepositStorage().shareholdersCount(getDefaultShares());\n    }\n\n    /// @notice Number of shareholders\n    /// @return number of shareholders\n    function shareholdersCount(address _token) public view returns (uint) {\n        return getDepositStorage().shareholdersCount(_token);\n    }\n\n    /// @notice Returns deposit/withdraw limit for shares with provided symbol\n    /// @param _token token address to get limit\n    /// @return limit number for specified shares\n    function getLimitForToken(address _token) public view returns (uint) {\n        return store.get(limitsStorage, _token);\n    }\n\n    /// @notice Gets shares contract that is set up as default (usually TIMEs)\n    function getDefaultShares() public view returns (address) {\n        return getDepositStorage().getSharesContract();\n    }\n\n    /// @notice Withdraws deposited amount of tokens from account to a receiver address.\n    /// Emits its own errorCodes if some will be encountered.\n    ///\n    /// @param _account an address that have deposited tokens\n    /// @param _receiver an address that will receive tokens from _account\n    /// @param _amount amount of tokens to withdraw to the _receiver\n    ///\n    /// @return result code of the operation\n    function _withdrawShares(\n        address _token,\n        address _account,\n        address _receiver,\n        uint _amount\n    )\n    internal\n    returns (uint)\n    {\n        uint _depositBalance = getDepositBalance(_token, _account);\n\n        if (_amount > _depositBalance) {\n            return _emitError(ERROR_TIMEHOLDER_INSUFFICIENT_BALANCE);\n        }\n\n        if (!DepositWalletInterface(wallet()).withdraw(_token, _receiver, _amount)) {\n            return _emitError(ERROR_TIMEHOLDER_TRANSFER_FAILED);\n        }\n\n        getDepositStorage().withdrawShares(_token, _account, _amount, _depositBalance);\n\n        _goThroughListeners(_token, _account, _amount, _notifyWithdrawListener);\n\n        return OK;\n    }\n\n    /// @dev Notifies listener about depositing token with symbol\n    function _notifyDepositListener(address _listener, address _token, address _target, uint _amount, uint _balance)\n    private\n    {\n        HolderListenerInterface(_listener).tokenDeposit(_token, _target, _amount, _balance);\n    }\n\n    /// @dev Notifies listener about withdrawing token with symbol\n    function _notifyWithdrawListener(address _listener, address _token, address _target, uint _amount, uint _balance)\n    private\n    {\n        HolderListenerInterface(_listener).tokenWithdrawn(_token, _target, _amount, _balance);\n    }\n\n    /// @dev Iterates through listeners of provided symbol and notifies by calling notification function\n    function _goThroughListeners(\n        address _token,\n        address _target,\n        uint _amount,\n        function (address, address, address, uint, uint) _notification)\n    private\n    {\n        uint _depositBalance = getDepositBalance(_token, _target);\n        StorageInterface.Iterator memory iterator = store.listIterator(listeners, bytes32(_token));\n        for (uint i = 0; store.canGetNextWithIterator(listeners, iterator); ++i) {\n            address _listener = store.getNextWithIterator(listeners, iterator);\n            _notification(_listener, _token, _target, _amount, _depositBalance);\n        }\n    }\n\n    function lookupERC20Service() internal view returns (ERC20Service) {\n        return ERC20Service(lookupManager(\"ERC20Manager\"));\n    }\n\n    /** Event emitting */\n\n    function _emitDeposit(address _token, address _who, uint _amount) private {\n        TimeHolderEmitter(getEventsHistory()).emitDeposit(_token, _who, _amount);\n    }\n\n    function _emitWithdrawShares(address _token, address _who, uint _amount, address _receiver) private {\n        TimeHolderEmitter(getEventsHistory()).emitWithdrawShares(_token, _who, _amount, _receiver);\n    }\n\n    function _emitListenerAdded(address _listener, address _token) private {\n        TimeHolderEmitter(getEventsHistory()).emitListenerAdded(_listener, _token);\n    }\n\n    function _emitListenerRemoved(address _listener, address _token) private {\n        TimeHolderEmitter(getEventsHistory()).emitListenerRemoved(_listener, _token);\n    }\n\n    function _emitFeatureFeeTaken(address _from, address _to, uint _amount) private {\n        TimeHolderEmitter(getEventsHistory()).emitFeatureFeeTaken(_from, _to, _amount);\n    }\n\n    function _emitSharesWhiteListAdded(address _token, uint _limit) private {\n        TimeHolderEmitter(getEventsHistory()).emitSharesWhiteListChanged(_token, _limit, true);\n    }\n\n    function _emitSharesWhiteListRemoved(address _token) private {\n        TimeHolderEmitter(getEventsHistory()).emitSharesWhiteListChanged(_token, 0, false);\n    }\n\n    function _emitError(uint e) private returns (uint) {\n        TimeHolderEmitter(getEventsHistory()).emitError(e);\n        return e;\n    }\n}\n",
  "sourcePath": "/Users/ahiatsevich/Development/chronobank/SmartContracts/contracts/timeholder/TimeHolder.sol",
  "compiler": {
    "name": "solc",
    "version": "0.4.19+commit.c4cbbb05.Emscripten.clang"
  },
  "schemaVersion": "1.0.1",
  "updatedAt": "2018-02-19T16:07:49.031Z"
}