{
  "contractName": "TimeHolderWallet",
  "abi": [
    {
      "constant": false,
      "inputs": [],
      "name": "claimContractOwnership",
      "outputs": [
        {
          "name": "",
          "type": "bool"
        }
      ],
      "payable": false,
      "stateMutability": "nonpayable",
      "type": "function"
    },
    {
      "constant": true,
      "inputs": [
        {
          "name": "_identifier",
          "type": "bytes32"
        }
      ],
      "name": "lookupManager",
      "outputs": [
        {
          "name": "manager",
          "type": "address"
        }
      ],
      "payable": false,
      "stateMutability": "view",
      "type": "function"
    },
    {
      "constant": true,
      "inputs": [],
      "name": "contractsManager",
      "outputs": [
        {
          "name": "",
          "type": "address"
        }
      ],
      "payable": false,
      "stateMutability": "view",
      "type": "function"
    },
    {
      "constant": false,
      "inputs": [
        {
          "name": "_to",
          "type": "address"
        }
      ],
      "name": "changeContractOwnership",
      "outputs": [
        {
          "name": "",
          "type": "bool"
        }
      ],
      "payable": false,
      "stateMutability": "nonpayable",
      "type": "function"
    },
    {
      "constant": true,
      "inputs": [],
      "name": "pendingContractOwner",
      "outputs": [
        {
          "name": "",
          "type": "address"
        }
      ],
      "payable": false,
      "stateMutability": "view",
      "type": "function"
    },
    {
      "constant": false,
      "inputs": [
        {
          "name": "_contractsManager",
          "type": "address"
        }
      ],
      "name": "setContractsManager",
      "outputs": [],
      "payable": false,
      "stateMutability": "nonpayable",
      "type": "function"
    },
    {
      "constant": false,
      "inputs": [
        {
          "name": "_to",
          "type": "address"
        }
      ],
      "name": "transferContractOwnership",
      "outputs": [
        {
          "name": "",
          "type": "bool"
        }
      ],
      "payable": false,
      "stateMutability": "nonpayable",
      "type": "function"
    },
    {
      "constant": true,
      "inputs": [],
      "name": "contractOwner",
      "outputs": [
        {
          "name": "",
          "type": "address"
        }
      ],
      "payable": false,
      "stateMutability": "view",
      "type": "function"
    },
    {
      "constant": false,
      "inputs": [
        {
          "name": "tokens",
          "type": "address[]"
        },
        {
          "name": "_to",
          "type": "address"
        }
      ],
      "name": "withdrawnTokens",
      "outputs": [
        {
          "name": "",
          "type": "uint256"
        }
      ],
      "payable": false,
      "stateMutability": "nonpayable",
      "type": "function"
    },
    {
      "constant": true,
      "inputs": [
        {
          "name": "key",
          "type": "address"
        }
      ],
      "name": "isAuthorized",
      "outputs": [
        {
          "name": "",
          "type": "bool"
        }
      ],
      "payable": false,
      "stateMutability": "view",
      "type": "function"
    },
    {
      "inputs": [
        {
          "name": "_store",
          "type": "address"
        },
        {
          "name": "_crate",
          "type": "bytes32"
        }
      ],
      "payable": false,
      "stateMutability": "nonpayable",
      "type": "constructor"
    },
    {
      "constant": false,
      "inputs": [
        {
          "name": "_contractsManager",
          "type": "address"
        }
      ],
      "name": "init",
      "outputs": [
        {
          "name": "",
          "type": "bool"
        }
      ],
      "payable": false,
      "stateMutability": "nonpayable",
      "type": "function"
    },
    {
      "constant": false,
      "inputs": [],
      "name": "destroy",
      "outputs": [],
      "payable": false,
      "stateMutability": "nonpayable",
      "type": "function"
    },
    {
      "constant": false,
      "inputs": [
        {
          "name": "tokens",
          "type": "address[]"
        }
      ],
      "name": "destroy",
      "outputs": [
        {
          "name": "",
          "type": "uint256"
        }
      ],
      "payable": false,
      "stateMutability": "nonpayable",
      "type": "function"
    },
    {
      "constant": false,
      "inputs": [
        {
          "name": "_asset",
          "type": "address"
        },
        {
          "name": "_from",
          "type": "address"
        },
        {
          "name": "_amount",
          "type": "uint256"
        }
      ],
      "name": "deposit",
      "outputs": [
        {
          "name": "",
          "type": "bool"
        }
      ],
      "payable": false,
      "stateMutability": "nonpayable",
      "type": "function"
    },
    {
      "constant": false,
      "inputs": [
        {
          "name": "_asset",
          "type": "address"
        },
        {
          "name": "_to",
          "type": "address"
        },
        {
          "name": "_amount",
          "type": "uint256"
        }
      ],
      "name": "withdraw",
      "outputs": [
        {
          "name": "",
          "type": "bool"
        }
      ],
      "payable": false,
      "stateMutability": "nonpayable",
      "type": "function"
    }
  ],
  "bytecode": "0x6060604052341561000f57600080fd5b604051604080610a0d8339810160405280805191906020018051915082905081818161004a6000838364010000000061091561007182021704565b505060028054600160a060020a03191633600160a060020a03161790555061009792505050565b8254600160a060020a031916600160a060020a0392909216919091178255600190910155565b610967806100a66000396000f3006060604052600436106100c15763ffffffff60e060020a60003504166319ab453c81146100c65780634592cd1d146100f95780634fe590121461010c57806353253d311461013e578063557f4bc9146101515780635aa77d3c1461017057806371d3b5731461018357806383197ef0146101a45780638340f549146101b7578063a843c51f146101df578063c6786e5a146101fe578063ce606ee01461025f578063d8f9659b14610272578063d9caed12146102cc578063fe9fbb80146102f4575b600080fd5b34156100d157600080fd5b6100e5600160a060020a0360043516610313565b604051901515815260200160405180910390f35b341561010457600080fd5b6100e5610351565b341561011757600080fd5b61012260043561039e565b604051600160a060020a03909116815260200160405180910390f35b341561014957600080fd5b610122610422565b341561015c57600080fd5b6100e5600160a060020a0360043516610431565b341561017b57600080fd5b610122610488565b341561018e57600080fd5b6101a2600160a060020a0360043516610497565b005b34156101af57600080fd5b6101a26104cd565b34156101c257600080fd5b6100e5600160a060020a03600435811690602435166044356104f2565b34156101ea57600080fd5b6100e5600160a060020a03600435166105c4565b341561020957600080fd5b61024d600460248135818101908301358060208181020160405190810160405280939291908181526020018383602002808284375094965061063d95505050505050565b60405190815260200160405180910390f35b341561026a57600080fd5b61012261066e565b341561027d57600080fd5b61024d600460248135818101908301358060208181020160405190810160405280939291908181526020018383602002808284375094965050509235600160a060020a0316925061067d915050565b34156102d757600080fd5b6100e5600160a060020a03600435811690602435166044356107ce565b34156102ff57600080fd5b6100e5600160a060020a036004351661086f565b60025460009033600160a060020a039081169116141561034c575060048054600160a060020a031916600160a060020a03831617905560015b919050565b60035460009033600160a060020a039081169116146103725750600061039b565b506003805460028054600160a060020a0319908116600160a060020a0384161790915516905560015b90565b600454600090600160a060020a031663bc65792783836040516020015260405160e060020a63ffffffff84160281526004810191909152602401602060405180830381600087803b15156103f157600080fd5b6102c65a03f1151561040257600080fd5b5050506040518051915050600160a060020a038116151561034c57600080fd5b600454600160a060020a031681565b60025460009033600160a060020a039081169116141561034c57600160a060020a03821615156104635750600061034c565b5060038054600160a060020a038316600160a060020a03199091161790556001919050565b600354600160a060020a031681565b60025433600160a060020a03908116911614156104ca5760048054600160a060020a031916600160a060020a0383161790555b50565b60025433600160a060020a03908116911614156104f05733600160a060020a0316ff5b565b600061051d7f54696d65486f6c6465720000000000000000000000000000000000000000000061039e565b600160a060020a031633600160a060020a031614156105bd5783600160a060020a03166323b872dd84308560006040516020015260405160e060020a63ffffffff8616028152600160a060020a0393841660048201529190921660248201526044810191909152606401602060405180830381600087803b15156105a057600080fd5b6102c65a03f115156105b157600080fd5b50505060405180519150505b9392505050565b60025460009033600160a060020a039081169116141561034c57600160a060020a03821615156105f65750600061034c565b600354600160a060020a0316156106185760038054600160a060020a03191690555b5060028054600160a060020a038316600160a060020a03199091161790556001919050565b60025460009033600160a060020a039081169116141561034c57610661823361067d565b5033600160a060020a0316ff5b600254600160a060020a031681565b60025460009081908190819033600160a060020a03908116911614156107c557600092505b85518310156107c0578583815181106106b757fe5b90602001906020020151915081600160a060020a03166370a082313060006040516020015260405160e060020a63ffffffff8416028152600160a060020a039091166004820152602401602060405180830381600087803b151561071a57600080fd5b6102c65a03f1151561072b57600080fd5b505050604051805191505080156107b55781600160a060020a031663a9059cbb868360006040516020015260405160e060020a63ffffffff8516028152600160a060020a0390921660048301526024820152604401602060405180830381600087803b151561079957600080fd5b6102c65a03f115156107aa57600080fd5b505050604051805150505b6001909201916106a2565b600193505b50505092915050565b60006107f97f54696d65486f6c6465720000000000000000000000000000000000000000000061039e565b600160a060020a031633600160a060020a031614156105bd5783600160a060020a031663a9059cbb848460006040516020015260405160e060020a63ffffffff8516028152600160a060020a0390921660048301526024820152604401602060405180830381600087803b15156105a057600080fd5b60008061089b7f557365724d616e6167657200000000000000000000000000000000000000000061039e565b905080600160a060020a0316632aa09e5a8460006040516020015260405160e060020a63ffffffff8416028152600160a060020a039091166004820152602401602060405180830381600087803b15156108f457600080fd5b6102c65a03f1151561090557600080fd5b5050506040518051949350505050565b8254600160a060020a031916600160a060020a03929092169190911782556001909101555600a165627a7a72305820c9c4572ebe2cadf234bb5320b8ce44c22e9d20387c43ebf4c27478410c1a73410029",
  "source": "pragma solidity ^0.4.11;\n\nimport \"../core/common/Managed.sol\";\nimport \"./DepositWalletInterface.sol\";\nimport \"../core/erc20/ERC20Interface.sol\";\n/**\n* @title TimeHolder's wallet contract defines a basic implementation of DepositWalletInterface\n* to provide a way to store/deposit/withdraw tokens on this contract according to access rights.\n* Here deposit/withdraw are allowed only by TimeHolder contract.\n*\n* @dev Specifies a contract that helps in updating TimeHolder interface by delegating token's ownership\n* to TimeHolderWallet contract\n*/\ncontract TimeHolderWallet is Managed, DepositWalletInterface {\n    modifier onlyTimeHolder() {\n        if (msg.sender == lookupManager(\"TimeHolder\")) {\n            _;\n        }\n    }\n\n    function TimeHolderWallet(Storage _store, bytes32 _crate) Managed(_store, _crate) {\n    }\n\n    function init(address _contractsManager) onlyContractOwner returns (bool) {\n        contractsManager = _contractsManager;\n        return true;\n    }\n\n    /**\n    * Call `selfdestruct` when contract is not needed anymore. Also takes a list of tokens\n    * that can be associated and have an account for this contract\n    *\n    * @dev Allowed only for contract owner\n    *\n    * @param tokens an array of tokens addresses\n    *\n    * @return result code of an operation\n    */\n    function destroy(address[] tokens) onlyContractOwner returns (uint) {\n        withdrawnTokens(tokens, msg.sender);\n        selfdestruct(msg.sender);\n        return OK;\n    }\n\n    /**\n    * Deposits some amount of tokens on wallet's account using ERC20 tokens\n    *\n    * @dev Allowed only for timeHolder\n    *\n    * @param _asset an address of token\n    * @param _from an address of a sender who is willing to transfer her resources\n    * @param _amount an amount of tokens (resources) a sender wants to transfer\n    *\n    * @return `true` if all successfuly completed, `false` otherwise\n    */\n    function deposit(address _asset, address _from, uint256 _amount) onlyTimeHolder returns (bool) {\n        return ERC20Interface(_asset).transferFrom(_from, this, _amount);\n    }\n\n    /**\n    * Withdraws some amount of tokens from wallet's account using ERC20 tokens\n    *\n    * @dev Allowed only for timeHolder\n    *\n    * @param _asset an address of token\n    * @param _to an address of a receiver who is willing to get stored resources\n    * @param _amount an amount of tokens (resources) a receiver wants to get\n    *\n    * @return `true` if all successfuly completed, `false` otherwise\n    */\n    function withdraw(address _asset, address _to, uint256 _amount) onlyTimeHolder returns (bool) {\n        return ERC20Interface(_asset).transfer(_to, _amount);\n    }\n}\n",
  "sourcePath": "/Users/alesanro/Documents/Projects/ChronoBank/SmartContracts/contracts/timeholder/TimeHolderWallet.sol",
  "compiler": {
    "name": "solc",
    "version": "0.4.19+commit.c4cbbb05.Emscripten.clang"
  },
  "schemaVersion": "2.0.0",
  "updatedAt": "2018-04-02T15:23:47.568Z"
}