{
  "contractName": "TokenExtensionRouter",
  "abi": [
    {
      "constant": false,
      "inputs": [
        {
          "name": "_platform",
          "type": "address"
        },
        {
          "name": "_symbol",
          "type": "bytes32"
        },
        {
          "name": "_campaign",
          "type": "address"
        },
        {
          "name": "_by",
          "type": "address"
        }
      ],
      "name": "emitCrowdsaleCampaignRemoved",
      "outputs": [],
      "payable": false,
      "stateMutability": "nonpayable",
      "type": "function"
    },
    {
      "constant": false,
      "inputs": [
        {
          "name": "_platform",
          "type": "address"
        },
        {
          "name": "_symbol",
          "type": "bytes32"
        },
        {
          "name": "_token",
          "type": "address"
        },
        {
          "name": "_by",
          "type": "address"
        }
      ],
      "name": "emitAssetCreated",
      "outputs": [],
      "payable": false,
      "stateMutability": "nonpayable",
      "type": "function"
    },
    {
      "constant": true,
      "inputs": [],
      "name": "platform",
      "outputs": [
        {
          "name": "",
          "type": "address"
        }
      ],
      "payable": false,
      "stateMutability": "view",
      "type": "function"
    },
    {
      "constant": false,
      "inputs": [
        {
          "name": "_platform",
          "type": "address"
        },
        {
          "name": "_symbol",
          "type": "bytes32"
        },
        {
          "name": "_campaign",
          "type": "address"
        },
        {
          "name": "_by",
          "type": "address"
        }
      ],
      "name": "emitCrowdsaleCampaignCreated",
      "outputs": [],
      "payable": false,
      "stateMutability": "nonpayable",
      "type": "function"
    },
    {
      "constant": false,
      "inputs": [
        {
          "name": "_errorCode",
          "type": "uint256"
        }
      ],
      "name": "emitError",
      "outputs": [],
      "payable": false,
      "stateMutability": "nonpayable",
      "type": "function"
    },
    {
      "inputs": [
        {
          "name": "_contractsManager",
          "type": "address"
        },
        {
          "name": "_platform",
          "type": "address"
        }
      ],
      "payable": false,
      "stateMutability": "nonpayable",
      "type": "constructor"
    },
    {
      "payable": true,
      "stateMutability": "payable",
      "type": "fallback"
    },
    {
      "anonymous": false,
      "inputs": [
        {
          "indexed": true,
          "name": "self",
          "type": "address"
        },
        {
          "indexed": false,
          "name": "errorCode",
          "type": "uint256"
        }
      ],
      "name": "Error",
      "type": "event"
    },
    {
      "anonymous": false,
      "inputs": [
        {
          "indexed": true,
          "name": "self",
          "type": "address"
        },
        {
          "indexed": false,
          "name": "platform",
          "type": "address"
        },
        {
          "indexed": false,
          "name": "symbol",
          "type": "bytes32"
        },
        {
          "indexed": false,
          "name": "token",
          "type": "address"
        },
        {
          "indexed": true,
          "name": "by",
          "type": "address"
        }
      ],
      "name": "AssetCreated",
      "type": "event"
    },
    {
      "anonymous": false,
      "inputs": [
        {
          "indexed": true,
          "name": "self",
          "type": "address"
        },
        {
          "indexed": false,
          "name": "platform",
          "type": "address"
        },
        {
          "indexed": false,
          "name": "symbol",
          "type": "bytes32"
        },
        {
          "indexed": false,
          "name": "campaign",
          "type": "address"
        },
        {
          "indexed": true,
          "name": "by",
          "type": "address"
        }
      ],
      "name": "CrowdsaleCampaignCreated",
      "type": "event"
    },
    {
      "anonymous": false,
      "inputs": [
        {
          "indexed": true,
          "name": "self",
          "type": "address"
        },
        {
          "indexed": false,
          "name": "platform",
          "type": "address"
        },
        {
          "indexed": false,
          "name": "symbol",
          "type": "bytes32"
        },
        {
          "indexed": false,
          "name": "campaign",
          "type": "address"
        },
        {
          "indexed": true,
          "name": "by",
          "type": "address"
        }
      ],
      "name": "CrowdsaleCampaignRemoved",
      "type": "event"
    }
  ],
  "bytecode": "0x6060604052341561000f57600080fd5b604051604080610478833981016040528080519190602001805160008054600160a060020a03958616600160a060020a0319918216179091556001805495909216941693909317909255505061040e8061006a6000396000f30060606040526004361061006c5763ffffffff7c01000000000000000000000000000000000000000000000000000000006000350416630252fbce81146100a657806322629b26146100d75780634bde38c814610106578063ae8bb1bc14610135578063df26ca0814610164575b60008061007761017a565b905036600060405137602060405136604051846102bc5a03f491506001821461009f57600080fd5b6020604051f35b34156100b157600080fd5b6100d5600160a060020a036004358116906024359060443581169060643516610229565b005b34156100e257600080fd5b6100d5600160a060020a03600435811690602435906044358116906064351661029e565b341561011157600080fd5b610119610313565b604051600160a060020a03909116815260200160405180910390f35b341561014057600080fd5b6100d5600160a060020a036004358116906024359060443581169060643516610322565b341561016f57600080fd5b6100d5600435610397565b60008054600160a060020a031663bc6579276040517c010000000000000000000000000000000000000000000000000000000063ffffffff83160281527f546f6b656e457874656e73696f6e4761746577617900000000000000000000006004820152602401602060405180830381600087803b15156101f957600080fd5b5af1151561020657600080fd5b5050506040518051915050600160a060020a038116151561022657600080fd5b90565b80600160a060020a031661023b6103de565b600160a060020a03167fc6867e4e81e56199e17568c0d06dbd3f28cb4967dcafca727f074a945eeaf55b868686604051600160a060020a03938416815260208101929092529091166040808301919091526060909101905180910390a350505050565b80600160a060020a03166102b06103de565b600160a060020a03167f8a1e3d1b07283e4c133a6cc3779cd8c05688adb2efed51aa9d621b6fb95b0586868686604051600160a060020a03938416815260208101929092529091166040808301919091526060909101905180910390a350505050565b600154600160a060020a031681565b80600160a060020a03166103346103de565b600160a060020a03167fa4ceb18b61ee798a9ace28050c416a4652c89c3d203ee542e193ed6da3d13d7c868686604051600160a060020a03938416815260208101929092529091166040808301919091526060909101905180910390a350505050565b61039f6103de565b600160a060020a03167f9cf38cf2dbf9139f5c32639950507b10775fbbe0421f3e168bc2d1bb1ae3208c8260405190815260200160405180910390a250565b33905600a165627a7a72305820daf23031cfb726677bc9c3f1e7695c520361b022c957737221ce254be113a13d0029",
  "source": "pragma solidity ^0.4.11;\n\nimport \"./BaseRouter.sol\";\nimport \"../../core/contracts/ContractsManagerInterface.sol\";\nimport \"./PlatformTokenExtensionGatewayManagerEmitter.sol\";\n\n/**\n* @title Lightweight token extension contract that holds platform and contracts manager addresses\n* but contains no implementation: all function calls are redirected to TokenExtensionGateway by\n* delegatecall. This contract also emits events of token extensions.\n*/\ncontract TokenExtensionRouter is BaseRouter, PlatformTokenExtensionGatewayManagerEmitter {\n\n    /** @dev address of ContractsManager interface contract */\n    address internal contractsManager;\n\n    /** @dev platform address to which token extension is attached */\n    address public platform;\n\n    function TokenExtensionRouter(address _contractsManager, address _platform) public {\n        contractsManager = _contractsManager;\n        platform = _platform;\n    }\n\n    function backend() internal constant returns (address _backend) {\n        _backend = ContractsManagerInterface(contractsManager).getContractAddressByType(\"TokenExtensionGateway\");\n        require(_backend != 0x0);\n    }\n}\n",
  "sourcePath": "/Users/alesanro/Documents/Projects/ChronoBank/SmartContracts/contracts/assets/extensions/TokenExtensionRouter.sol",
  "compiler": {
    "name": "solc",
    "version": "0.4.21+commit.dfe3193c.Emscripten.clang"
  },
  "schemaVersion": "2.0.0",
  "updatedAt": "2018-04-06T09:20:58.318Z"
}