{
  "contractName": "UserManager",
  "abi": [
    {
      "constant": false,
      "inputs": [
        {
          "name": "required",
          "type": "uint256"
        }
      ],
      "name": "emitSetRequired",
      "outputs": [],
      "payable": false,
      "stateMutability": "nonpayable",
      "type": "function"
    },
    {
      "constant": false,
      "inputs": [],
      "name": "claimContractOwnership",
      "outputs": [
        {
          "name": "",
          "type": "bool"
        }
      ],
      "payable": false,
      "stateMutability": "nonpayable",
      "type": "function"
    },
    {
      "constant": true,
      "inputs": [
        {
          "name": "_identifier",
          "type": "bytes32"
        }
      ],
      "name": "lookupManager",
      "outputs": [
        {
          "name": "manager",
          "type": "address"
        }
      ],
      "payable": false,
      "stateMutability": "view",
      "type": "function"
    },
    {
      "constant": true,
      "inputs": [],
      "name": "contractsManager",
      "outputs": [
        {
          "name": "",
          "type": "address"
        }
      ],
      "payable": false,
      "stateMutability": "view",
      "type": "function"
    },
    {
      "constant": false,
      "inputs": [
        {
          "name": "_to",
          "type": "address"
        }
      ],
      "name": "changeContractOwnership",
      "outputs": [
        {
          "name": "",
          "type": "bool"
        }
      ],
      "payable": false,
      "stateMutability": "nonpayable",
      "type": "function"
    },
    {
      "constant": true,
      "inputs": [],
      "name": "pendingContractOwner",
      "outputs": [
        {
          "name": "",
          "type": "address"
        }
      ],
      "payable": false,
      "stateMutability": "view",
      "type": "function"
    },
    {
      "constant": false,
      "inputs": [
        {
          "name": "_eventsHistory",
          "type": "address"
        }
      ],
      "name": "setEventsHistory",
      "outputs": [],
      "payable": false,
      "stateMutability": "nonpayable",
      "type": "function"
    },
    {
      "constant": false,
      "inputs": [
        {
          "name": "_contractsManager",
          "type": "address"
        }
      ],
      "name": "setContractsManager",
      "outputs": [],
      "payable": false,
      "stateMutability": "nonpayable",
      "type": "function"
    },
    {
      "constant": false,
      "inputs": [
        {
          "name": "key",
          "type": "address"
        }
      ],
      "name": "emitNewUserRegistered",
      "outputs": [],
      "payable": false,
      "stateMutability": "nonpayable",
      "type": "function"
    },
    {
      "constant": false,
      "inputs": [],
      "name": "destroy",
      "outputs": [],
      "payable": false,
      "stateMutability": "nonpayable",
      "type": "function"
    },
    {
      "constant": false,
      "inputs": [
        {
          "name": "_to",
          "type": "address"
        }
      ],
      "name": "transferContractOwnership",
      "outputs": [
        {
          "name": "",
          "type": "bool"
        }
      ],
      "payable": false,
      "stateMutability": "nonpayable",
      "type": "function"
    },
    {
      "constant": false,
      "inputs": [
        {
          "name": "key",
          "type": "address"
        }
      ],
      "name": "emitCBEUpdate",
      "outputs": [],
      "payable": false,
      "stateMutability": "nonpayable",
      "type": "function"
    },
    {
      "constant": true,
      "inputs": [],
      "name": "contractOwner",
      "outputs": [
        {
          "name": "",
          "type": "address"
        }
      ],
      "payable": false,
      "stateMutability": "view",
      "type": "function"
    },
    {
      "constant": false,
      "inputs": [
        {
          "name": "tokens",
          "type": "address[]"
        },
        {
          "name": "_to",
          "type": "address"
        }
      ],
      "name": "withdrawnTokens",
      "outputs": [
        {
          "name": "",
          "type": "uint256"
        }
      ],
      "payable": false,
      "stateMutability": "nonpayable",
      "type": "function"
    },
    {
      "constant": false,
      "inputs": [
        {
          "name": "error",
          "type": "uint256"
        }
      ],
      "name": "emitError",
      "outputs": [],
      "payable": false,
      "stateMutability": "nonpayable",
      "type": "function"
    },
    {
      "constant": false,
      "inputs": [
        {
          "name": "key",
          "type": "address"
        },
        {
          "name": "oldHash",
          "type": "bytes32"
        },
        {
          "name": "newHash",
          "type": "bytes32"
        }
      ],
      "name": "emitHashUpdate",
      "outputs": [],
      "payable": false,
      "stateMutability": "nonpayable",
      "type": "function"
    },
    {
      "constant": true,
      "inputs": [
        {
          "name": "key",
          "type": "address"
        }
      ],
      "name": "isAuthorized",
      "outputs": [
        {
          "name": "",
          "type": "bool"
        }
      ],
      "payable": false,
      "stateMutability": "view",
      "type": "function"
    },
    {
      "constant": true,
      "inputs": [],
      "name": "getEventsHistory",
      "outputs": [
        {
          "name": "",
          "type": "address"
        }
      ],
      "payable": false,
      "stateMutability": "view",
      "type": "function"
    },
    {
      "inputs": [
        {
          "name": "_store",
          "type": "address"
        },
        {
          "name": "_crate",
          "type": "bytes32"
        }
      ],
      "payable": false,
      "stateMutability": "nonpayable",
      "type": "constructor"
    },
    {
      "payable": false,
      "stateMutability": "nonpayable",
      "type": "fallback"
    },
    {
      "anonymous": false,
      "inputs": [
        {
          "indexed": true,
          "name": "self",
          "type": "address"
        },
        {
          "indexed": false,
          "name": "key",
          "type": "address"
        }
      ],
      "name": "NewUserRegistered",
      "type": "event"
    },
    {
      "anonymous": false,
      "inputs": [
        {
          "indexed": true,
          "name": "self",
          "type": "address"
        },
        {
          "indexed": false,
          "name": "key",
          "type": "address"
        }
      ],
      "name": "CBEUpdate",
      "type": "event"
    },
    {
      "anonymous": false,
      "inputs": [
        {
          "indexed": true,
          "name": "self",
          "type": "address"
        },
        {
          "indexed": false,
          "name": "required",
          "type": "uint256"
        }
      ],
      "name": "SetRequired",
      "type": "event"
    },
    {
      "anonymous": false,
      "inputs": [
        {
          "indexed": true,
          "name": "self",
          "type": "address"
        },
        {
          "indexed": true,
          "name": "key",
          "type": "address"
        },
        {
          "indexed": false,
          "name": "oldHash",
          "type": "bytes32"
        },
        {
          "indexed": false,
          "name": "newHash",
          "type": "bytes32"
        }
      ],
      "name": "SetHash",
      "type": "event"
    },
    {
      "anonymous": false,
      "inputs": [
        {
          "indexed": true,
          "name": "self",
          "type": "address"
        },
        {
          "indexed": false,
          "name": "errorCode",
          "type": "uint256"
        }
      ],
      "name": "Error",
      "type": "event"
    },
    {
      "constant": false,
      "inputs": [
        {
          "name": "_contractsManager",
          "type": "address"
        }
      ],
      "name": "init",
      "outputs": [
        {
          "name": "",
          "type": "uint256"
        }
      ],
      "payable": false,
      "stateMutability": "nonpayable",
      "type": "function"
    },
    {
      "constant": false,
      "inputs": [
        {
          "name": "_key",
          "type": "address"
        },
        {
          "name": "_hash",
          "type": "bytes32"
        }
      ],
      "name": "addCBE",
      "outputs": [
        {
          "name": "errorCode",
          "type": "uint256"
        }
      ],
      "payable": false,
      "stateMutability": "nonpayable",
      "type": "function"
    },
    {
      "constant": false,
      "inputs": [
        {
          "name": "_key",
          "type": "address"
        }
      ],
      "name": "revokeCBE",
      "outputs": [
        {
          "name": "errorCode",
          "type": "uint256"
        }
      ],
      "payable": false,
      "stateMutability": "nonpayable",
      "type": "function"
    },
    {
      "constant": false,
      "inputs": [
        {
          "name": "key",
          "type": "address"
        },
        {
          "name": "_hash",
          "type": "bytes32"
        }
      ],
      "name": "setMemberHash",
      "outputs": [
        {
          "name": "errorCode",
          "type": "uint256"
        }
      ],
      "payable": false,
      "stateMutability": "nonpayable",
      "type": "function"
    },
    {
      "constant": false,
      "inputs": [
        {
          "name": "_hash",
          "type": "bytes32"
        }
      ],
      "name": "setOwnHash",
      "outputs": [
        {
          "name": "errorCode",
          "type": "uint256"
        }
      ],
      "payable": false,
      "stateMutability": "nonpayable",
      "type": "function"
    },
    {
      "constant": false,
      "inputs": [
        {
          "name": "_required",
          "type": "uint256"
        }
      ],
      "name": "setRequired",
      "outputs": [
        {
          "name": "errorCode",
          "type": "uint256"
        }
      ],
      "payable": false,
      "stateMutability": "nonpayable",
      "type": "function"
    },
    {
      "constant": true,
      "inputs": [
        {
          "name": "key",
          "type": "address"
        }
      ],
      "name": "getMemberHash",
      "outputs": [
        {
          "name": "",
          "type": "bytes32"
        }
      ],
      "payable": false,
      "stateMutability": "view",
      "type": "function"
    },
    {
      "constant": true,
      "inputs": [
        {
          "name": "key",
          "type": "address"
        }
      ],
      "name": "getCBE",
      "outputs": [
        {
          "name": "",
          "type": "bool"
        }
      ],
      "payable": false,
      "stateMutability": "view",
      "type": "function"
    },
    {
      "constant": true,
      "inputs": [
        {
          "name": "sender",
          "type": "address"
        }
      ],
      "name": "getMemberId",
      "outputs": [
        {
          "name": "",
          "type": "uint256"
        }
      ],
      "payable": false,
      "stateMutability": "view",
      "type": "function"
    },
    {
      "constant": true,
      "inputs": [],
      "name": "required",
      "outputs": [
        {
          "name": "",
          "type": "uint256"
        }
      ],
      "payable": false,
      "stateMutability": "view",
      "type": "function"
    },
    {
      "constant": true,
      "inputs": [],
      "name": "adminCount",
      "outputs": [
        {
          "name": "",
          "type": "uint256"
        }
      ],
      "payable": false,
      "stateMutability": "view",
      "type": "function"
    },
    {
      "constant": true,
      "inputs": [],
      "name": "userCount",
      "outputs": [
        {
          "name": "",
          "type": "uint256"
        }
      ],
      "payable": false,
      "stateMutability": "view",
      "type": "function"
    },
    {
      "constant": true,
      "inputs": [],
      "name": "getCBEMembers",
      "outputs": [
        {
          "name": "_addresses",
          "type": "address[]"
        },
        {
          "name": "_hashes",
          "type": "bytes32[]"
        }
      ],
      "payable": false,
      "stateMutability": "view",
      "type": "function"
    }
  ],
  "bytecode": "0x606060405234156200001057600080fd5b6040516040806200210c833981016040528080519190602001805191508290508181818181620000516000838364010000000062001c776200017f82021704565b505060028054600160a060020a03338116600160a060020a03199283161790925560058054309093169290911691909117905550620000c69250600691507f7265710000000000000000000000000000000000000000000000000000000000905064010000000062001c9d620001a582021704565b62000101600a7f61646d696e73000000000000000000000000000000000000000000000000000064010000000062001cad620001c582021704565b6200013c60077f6d656d626572730000000000000000000000000000000000000000000000000064010000000062001cad620001c582021704565b62000177600d7f686173686573000000000000000000000000000000000000000000000000000064010000000062001cbb620001e382021704565b505062000320565b8254600160a060020a031916600160a060020a0392909216919091178255600190910155565b8154620001c1908264010000000062001cc5620001fd82021704565b9055565b620001df828264010000000062001cdb6200021582021704565b5050565b620001df828264010000000062001c9d620001a582021704565b811515806200020a575080155b15620001df57600080fd5b6200026c82826040519081527f636f756e7400000000000000000000000000000000000000000000000000000060208201526025016040518091039020620001a56401000000000262001c9d176401000000009004565b620002c682600101826040519081527f696e64657865730000000000000000000000000000000000000000000000000060208201526027016040518091039020620001a56401000000000262001c9d176401000000009004565b620001df82600201826040519081527f76616c756573000000000000000000000000000000000000000000000000000060208201526026016040518091039020620001a56401000000000262001c9d176401000000009004565b611ddc80620003306000396000f3006060604052600436106101715763ffffffff60e060020a6000350416630457d6f2811461018157806307973ccf146101a957806319ab453c146101bc57806326c325f8146101db5780632aa09e5a146101f35780632b7832b3146102265780634592cd1d146102395780634fe590121461024c57806353253d311461027e578063539e22e214610291578063557f4bc9146102b35780635aa77d3c146102d257806363eef4b0146102e55780636521afd71461030757806371d3b573146103265780637784ec47146103455780637f52e06f1461036457806383197ef0146103835780638e7ea62a14610396578063a083b7c3146103b5578063a843c51f14610461578063bca2188914610480578063c269014b14610496578063cb979a2f146104b5578063ce606ee0146104d4578063d8f9659b146104e7578063dc8452cd14610541578063df26ca0814610554578063f8ac9f531461056a578063fe9fbb801461058f578063fff10aba146105ae575b341561017c57600080fd5b600080fd5b341561018c57600080fd5b6101976004356105c1565b60405190815260200160405180910390f35b34156101b457600080fd5b61019761062e565b34156101c757600080fd5b610197600160a060020a0360043516610647565b34156101e657600080fd5b6101f16004356106c5565b005b34156101fe57600080fd5b610212600160a060020a036004351661070c565b604051901515815260200160405180910390f35b341561023157600080fd5b610197610726565b341561024457600080fd5b610212610739565b341561025757600080fd5b610262600435610785565b604051600160a060020a03909116815260200160405180910390f35b341561028957600080fd5b6102626107fd565b341561029c57600080fd5b610197600160a060020a036004351660243561080c565b34156102be57600080fd5b610212600160a060020a0360043516610842565b34156102dd57600080fd5b610262610899565b34156102f057600080fd5b610197600160a060020a03600435166024356108a8565b341561031257600080fd5b6101f1600160a060020a0360043516610932565b341561033157600080fd5b6101f1600160a060020a0360043516610968565b341561035057600080fd5b610197600160a060020a036004351661099f565b341561036f57600080fd5b6101f1600160a060020a03600435166109fd565b341561038e57600080fd5b6101f1610a4e565b34156103a157600080fd5b610197600160a060020a0360043516610ad7565b34156103c057600080fd5b6103c8610aeb565b604051808060200180602001838103835285818151815260200191508051906020019060200280838360005b8381101561040c5780820151838201526020016103f4565b50505050905001838103825284818151815260200191508051906020019060200280838360005b8381101561044b578082015183820152602001610433565b5050505090500194505050505060405180910390f35b341561046c57600080fd5b610212600160a060020a0360043516610b97565b341561048b57600080fd5b610197600435610c10565b34156104a157600080fd5b610197600160a060020a0360043516610c27565b34156104c057600080fd5b6101f1600160a060020a0360043516610c3b565b34156104df57600080fd5b610262610c8c565b34156104f257600080fd5b610197600460248135818101908301358060208181020160405190810160405280939291908181526020018383602002808284375094965050509235600160a060020a03169250610c9b915050565b341561054c57600080fd5b610197610dd2565b341561055f57600080fd5b6101f1600435610de5565b341561057557600080fd5b6101f1600160a060020a0360043516602435604435610e2c565b341561059a57600080fd5b610212600160a060020a0360043516610e86565b34156105b957600080fd5b610262610f1f565b60006105cb610f2e565b9050600181146105e5576105de81611059565b9050610629565b6105f76000600a63ffffffff61107f16565b821115610609576105de6107d561108b565b61061c600060068463ffffffff6110f016565b61062582611165565b5060015b919050565b600061064181600763ffffffff61107f16565b90505b90565b600254600090819033600160a060020a03908116911614156106bf5761068d837f557365724d616e616765720000000000000000000000000000000000000000006111c5565b506106973361070c565b15156106ba576106a833600161139c565b9050600181146106ba578091506106bf565b600191505b50919050565b6106cd6113d3565b600160a060020a03167f0b690e53a6be709e0cc01ef89225cbf2c276dd502acfd5577de9af86971afd298260405190815260200160405180910390a250565b600061072081600a8463ffffffff6113d716565b92915050565b600061064181600a63ffffffff61107f16565b60035460009033600160a060020a0390811691161461075a57506000610644565b506003805460028054600160a060020a0319908116600160a060020a03841617909155169055600190565b600454600090600160a060020a031663bc6579278360405160e060020a63ffffffff84160281526004810191909152602401602060405180830381600087803b15156107d057600080fd5b5af115156107dd57600080fd5b5050506040518051915050600160a060020a038116151561062957600080fd5b600454600160a060020a031681565b600061081733610e86565b1561072057610825836113f5565b506108308383611402565b905061083b81611059565b9392505050565b60025460009033600160a060020a039081169116141561062957600160a060020a038216151561087457506000610629565b5060038054600160a060020a038316600160a060020a03199091161790556001919050565b600354600160a060020a031681565b60006108b2610f2e565b9050600181146108cc576108c581611059565b9050610720565b6108d58361070c565b156108e5576108c56107d261108b565b6108f083600161139c565b905060018114610903576108c58161108b565b61090d8383611402565b905060018114610920576108c58161108b565b61092983611452565b50600192915050565b60025433600160a060020a03908116911614156109655760058054600160a060020a031916600160a060020a0383161790555b50565b60025433600160a060020a03908116911614156109655760048054600160a060020a038316600160a060020a031990911617905550565b60006109a9610f2e565b9050600181146109bc576105de81611059565b6109c58261070c565b15156109d6576105de6107d361108b565b6109e18260006114a7565b9050600181146109f4576105de8161108b565b61062582611452565b610a056113d3565b600160a060020a03167f6375fd6fc2ddd4dbe542dc0a550ddd2de124bd5ae37738254e72894dc8807dfe82604051600160a060020a03909116815260200160405180910390a250565b60025433600160a060020a0390811691161415610ad557600454600160a060020a031663c375c2ef3060405160e060020a63ffffffff8416028152600160a060020a039091166004820152602401602060405180830381600087803b1515610ab557600080fd5b5af11515610ac257600080fd5b5050506040518051905050610ad561152d565b565b600061072081600d8463ffffffff61155016565b610af3611c65565b610afb611c65565b6000610b05610726565b604051805910610b125750595b90808252806020026020018201604052509150600090505b610b32610726565b811015610b7e57610b60600d610b516000600a8563ffffffff61156616565b6000919063ffffffff61155016565b828281518110610b6c57fe5b60209081029091010152600101610b2a565b610b906000600a63ffffffff61157316565b9250509091565b60025460009033600160a060020a039081169116141561062957600160a060020a0382161515610bc957506000610629565b600354600160a060020a031615610beb5760038054600160a060020a03191690555b5060028054600160a060020a038316600160a060020a03199091161790556001919050565b6000610c1c3383611402565b905061072081611059565b60006107208160078463ffffffff61158d16565b610c436113d3565b600160a060020a03167f9678dbf6359a7a9c6485a121abb25cccca4f9bf168d030f39227cc429b8e4a1782604051600160a060020a03909116815260200160405180910390a250565b600254600160a060020a031681565b60025460009081908190819033600160a060020a0390811691161415610dc957600092505b8551831015610dc457858381518110610cd557fe5b90602001906020020151915081600160a060020a03166370a082313060405160e060020a63ffffffff8416028152600160a060020a039091166004820152602401602060405180830381600087803b1515610d2f57600080fd5b5af11515610d3c57600080fd5b50505060405180519150508015610db95781600160a060020a031663a9059cbb868360405160e060020a63ffffffff8516028152600160a060020a0390921660048301526024820152604401602060405180830381600087803b1515610da157600080fd5b5af11515610dae57600080fd5b505050604051805150505b600190920191610cc0565b600193505b50505092915050565b600061064181600663ffffffff6115a316565b610ded6113d3565b600160a060020a03167f9cf38cf2dbf9139f5c32639950507b10775fbbe0421f3e168bc2d1bb1ae3208c8260405190815260200160405180910390a250565b82600160a060020a0316610e3e6113d3565b600160a060020a03167fb47d03ee3dee8637e72e00524192c281f6e61af55ee25d7f7f96e522f93dd11b848460405191825260208201526040908101905180910390a3505050565b600080610eb27f557365724d616e61676572000000000000000000000000000000000000000000610785565b905080600160a060020a0316632aa09e5a8460405160e060020a63ffffffff8416028152600160a060020a039091166004820152602401602060405180830381600087803b1515610f0257600080fd5b5af11515610f0f57600080fd5b5050506040518051949350505050565b600554600160a060020a031690565b6000806000610f5c7f50656e64696e674d616e61676572000000000000000000000000000000000000610785565b915081600160a060020a031633600160a060020a031614151561104f57600036604051808383808284378201915050925050506040518091039020905081600160a060020a0316630fee1efc82600036303360405160e060020a63ffffffff881602815260048101868152600160a060020a0380851660448401528316606483015260806024830190815260848301869052909160a40186868082843782019150509650505050505050602060405180830381600087803b151561101f57600080fd5b5af1151561102c57600080fd5b5050506040518051935050600183146110455782611048565b60035b9250611054565b600192505b505090565b60006001821415801561106d575060038214155b1561107b576105de8261108b565b5090565b600061083b83836115fa565b6000611095610f1f565b600160a060020a031663df26ca088360405160e060020a63ffffffff84160281526004810191909152602401600060405180830381600087803b15156110da57600080fd5b5af115156110e757600080fd5b50929392505050565b825460018401548354600160a060020a03909216916353e7168b91908460405160e060020a63ffffffff8616028152600481019390935260248301919091526044820152606401600060405180830381600087803b151561115057600080fd5b5af1151561115d57600080fd5b505050505050565b61116d610f1f565b600160a060020a03166326c325f88260405160e060020a63ffffffff84160281526004810191909152602401600060405180830381600087803b15156111b257600080fd5b5af115156111bf57600080fd5b50505050565b60025460009081908190819033600160a060020a039081169116146111e957600080fd5b600160a060020a03861615156111fe57600080fd5b600454600160a060020a03161580159350806112285750600454600160a060020a03878116911614155b156112495760048054600160a060020a031916600160a060020a0388161790555b600454600160a060020a031691508163bc65792760405160e060020a63ffffffff83160281527f4d756c74694576656e7473486973746f727900000000000000000000000000006004820152602401602060405180830381600087803b15156112b157600080fd5b5af115156112be57600080fd5b5050506040518051915050600160a060020a038116158015906112ef5750600554600160a060020a03828116911614155b156113105760058054600160a060020a031916600160a060020a0383161790555b841561138a5781600160a060020a031663b7c46cd5308760405160e060020a63ffffffff8516028152600160a060020a0390921660048301526024820152604401602060405180830381600087803b151561136a57600080fd5b5af1151561137757600080fd5b5050506040518051600114905061138a57fe5b8215610dc45760069695505050505050565b60006113a783610c27565b15156113c9576113c0600060078563ffffffff61161016565b6113c983611629565b61083b83836114a7565b3390565b60006113ed8484600160a060020a03851661169a565b949350505050565b600061072082600061139c565b60008061140e84610ad7565b905082811415611422576107d4915061144b565b61142c84846116b1565b91506001821461143b5761144b565b6114468482856116c6565b600191505b5092915050565b61145a610f1f565b600160a060020a031663cb979a2f8260405160e060020a63ffffffff8416028152600160a060020a039091166004820152602401600060405180830381600087803b15156111b257600080fd5b600081156114c7576114c26000600a8563ffffffff61161016565b610929565b6114da6000600a8563ffffffff61172a16565b6114ec6000600a63ffffffff61107f16565b6114fe6000600663ffffffff6115a316565b1115610929576109296006600161151c60008363ffffffff6115a316565b60009291900363ffffffff6110f016565b60025433600160a060020a0390811691161415610ad55733600160a060020a0316ff5b60006113ed8484600160a060020a03851661173e565b60006113ed8484846117cb565b61157b611c65565b61083b61158884846117e2565b6117fe565b60006113ed8484600160a060020a038516611881565b815460018301548254600092600160a060020a0316916353aa3f5e9160405160e060020a63ffffffff851602815260048101929092526024820152604401602060405180830381600087803b1515610f0257600080fd5b600061083b838360ea60020a621cd95d02611898565b6116248383600160a060020a0384166118a5565b505050565b611631610f1f565b600160a060020a0316151561164557610965565b61164d610f1f565b600160a060020a0316637f52e06f8260405160e060020a63ffffffff8416028152600160a060020a039091166004820152602401600060405180830381600087803b15156111b257600080fd5b60006113ed848460ea60020a621cd95d02856118ba565b600061092981600d858563ffffffff6118d616565b6116ce610f1f565b600160a060020a031663f8ac9f5384848460405160e060020a63ffffffff8616028152600160a060020a03909316600484015260248301919091526044820152606401600060405180830381600087803b151561115057600080fd5b6116248383600160a060020a0384166118eb565b825460018401548354600092600160a060020a0316916337d9d7fc9185604051918252602082015260409081019051809103902060405160e060020a63ffffffff851602815260048101929092526024820152604401602060405180830381600087803b15156117ad57600080fd5b5af115156117ba57600080fd5b505050604051805195945050505050565b60006113ed848460ea60020a621cd95d0285611900565b6117ea611c65565b61083b838360ea60020a621cd95d0261191d565b611806611c65565b61180e611c65565b6000835160405180591061181f5750595b90808252806020026020018201604052509150600090505b835181101561144b5783818151811061184c57fe5b9060200190602002015182828151811061186257fe5b600160a060020a03909216602092830290910190910152600101611837565b60006113ed848460ea60020a621cd95d0285611996565b60006113ed8484846119a7565b611624838360ea60020a621cd95d0284611a16565b60006118cb85856001018585611a71565b151595945050505050565b6111bf8484600160a060020a03851684611a96565b611624838360ea60020a621cd95d0284611b24565b600061191485600286018560018601611a71565b95945050505050565b611925611c65565b600080611933868686611898565b9150816040518059106119435750595b90808252806020026020018201604052509250600090505b8181101561198d5761196f86868684611900565b83828151811061197b57fe5b6020908102909101015260010161195b565b50509392505050565b600061191485856001018585611a71565b825460018401548354600092600160a060020a0316916353aa3f5e9185604051918252602082015260409081019051809103902060405160e060020a63ffffffff851602815260048101929092526024820152604401602060405180830381600087803b15156117ad57600080fd5b6000611a24858585856118ba565b15611a2e57611a6a565b611a39858585611898565b6001019050611a4e8560028601858486611bc9565b611a5e8560018601858585611bc9565b611a6a85858584611bed565b5050505050565b600061191485858585604051918252602082015260409081019051809103902061173e565b835460018501548454600160a060020a039092169163a14ff85791908560405191825260208201526040908101905180910390208460405160e060020a63ffffffff8616028152600481019390935260248301919091526044820152606401600060405180830381600087803b1515611b0e57600080fd5b5af11515611b1b57600080fd5b50505050505050565b6000806000611b35878787876118ba565b1515611b4057611b1b565b611b4b878787611898565b9250611b5c87600288018786611a71565b9150611b6d87876001018787611a71565b905082811015611b9757611b878760018801878585611bc9565b611b978760028801878486611bc9565b611ba8876001880187876000611bc9565b611bb9876002880187866000611bc9565b611b1b8787876000198701611bed565b611a6a85858585604051918252602082015260409081019051809103902084611a96565b835460018501548454600160a060020a03909216916353e7168b91908560405191825260208201526040908101905180910390208460405160e060020a63ffffffff8616028152600481019390935260248301919091526044820152606401600060405180830381600087803b1515611b0e57600080fd5b60206040519081016040526000815290565b8254600160a060020a031916600160a060020a0392909216919091178255600190910155565b8154611ca99082611cc5565b9055565b611cb78282611cdb565b5050565b611cb78282611c9d565b81151580611cd1575080155b15611cb757600080fd5b611d1c82826040519081527f636f756e7400000000000000000000000000000000000000000000000000000060208201526025016040518091039020611c9d565b611d6082600101826040519081527f696e64657865730000000000000000000000000000000000000000000000000060208201526027016040518091039020611c9d565b611cb782600201826040519081527f76616c756573000000000000000000000000000000000000000000000000000060208201526026016040518091039020611c9d565b8154611ca99082611cc55600a165627a7a7230582023b8379889a58933eefb9c3cca53f7fffa1cec0ddf2e628db493bd0e6aea86400029",
  "source": "/**\n * Copyright 20172018, LaborX PTY\n * Licensed under the AGPL Version 3 license.\n */\n\npragma solidity ^0.4.11;\n\nimport \"../common/BaseManager.sol\";\nimport \"./UserManagerEmitter.sol\";\n\ncontract UserManager is UserManagerEmitter, BaseManager {\n\n    uint constant ERROR_USER_NOT_FOUND = 2000;\n    uint constant ERROR_USER_INVALID_PARAMETER = 2001;\n    uint constant ERROR_USER_ALREADY_CBE = 2002;\n    uint constant ERROR_USER_NOT_CBE = 2003;\n    uint constant ERROR_USER_SAME_HASH = 2004;\n    uint constant ERROR_USER_INVALID_REQURED = 2005;\n    uint constant ERROR_USER_INVALID_STATE = 2006;\n\n    StorageInterface.UInt req;\n    StorageInterface.AddressesSet members;\n    StorageInterface.AddressesSet admins;\n    StorageInterface.AddressBytes32Mapping hashes;\n\n    function UserManager(Storage _store, bytes32 _crate) BaseManager(_store, _crate) {\n        req.init('req');\n        admins.init('admins');\n        members.init('members');\n        hashes.init('hashes');\n    }\n\n    function init(address _contractsManager) onlyContractOwner returns (uint) {\n        BaseManager.init(_contractsManager, \"UserManager\");\n\n        if (!getCBE(msg.sender)) {\n            uint e = addMember(msg.sender, true);\n            if (OK != e) {\n                return e;\n            }\n        }\n\n        return OK;\n    }\n\n    function addCBE(address _key, bytes32 _hash) returns (uint errorCode) {\n        errorCode = multisig();\n        if (OK != errorCode) {\n            return _handleResult(errorCode);\n        }\n\n        if (getCBE(_key)) {\n            return _emitError(ERROR_USER_ALREADY_CBE);\n        }\n\n        errorCode = addMember(_key, true);\n        if (OK != errorCode) {\n            return _emitError(errorCode);\n        }\n\n        errorCode = setMemberHashInt(_key, _hash);\n        if (OK != errorCode) {\n            return _emitError(errorCode);\n        }\n\n        _emitCBEUpdate(_key);\n        return OK;\n    }\n\n    function revokeCBE(address _key) returns (uint errorCode) {\n        errorCode = multisig();\n        if (OK != errorCode) {\n            return _handleResult(errorCode);\n        }\n\n        if (!getCBE(_key)) {\n            return _emitError(ERROR_USER_NOT_CBE);\n        }\n\n        errorCode = setCBE(_key, false);\n        if (OK != errorCode) {\n            return _emitError(errorCode);\n        }\n\n        _emitCBEUpdate(_key);\n        return OK;\n    }\n\n    function setMemberHash(address key, bytes32 _hash) onlyAuthorized returns (uint errorCode) {\n        createMemberIfNotExist(key);\n        errorCode = setMemberHashInt(key, _hash);\n        return _handleResult(errorCode);\n    }\n\n    function setOwnHash(bytes32 _hash) returns (uint errorCode) {\n        errorCode = setMemberHashInt(msg.sender, _hash);\n        return _handleResult(errorCode);\n    }\n\n    function setRequired(uint _required) returns (uint errorCode) {\n        errorCode= multisig();\n        if (OK != errorCode) {\n            return _handleResult(errorCode);\n        }\n\n        if (!(_required <= store.count(admins))) {\n            return _emitError(ERROR_USER_INVALID_REQURED);\n        }\n\n        store.set(req, _required);\n        _emitSetRequired(_required);\n\n        return OK;\n    }\n\n    function createMemberIfNotExist(address key) internal returns (uint) {\n        return addMember(key, false);\n    }\n\n    function addMember(address key, bool isCBE) internal returns (uint) {\n        if (getMemberId(key) == 0x0) {\n            store.add(members, key);\n            _emitNewUserRegistered(key);\n        }\n\n        return setCBE(key, isCBE);\n    }\n\n    function setMemberHashInt(address key, bytes32 _hash) internal returns (uint errorCode) {\n        bytes32 oldHash = getMemberHash(key);\n        if (_hash == oldHash) {\n            return ERROR_USER_SAME_HASH;\n        }\n\n        errorCode = setHashes(key, _hash);\n        if (OK != errorCode) {\n            return errorCode;\n        }\n\n        _emitHashUpdate(key, oldHash, _hash);\n        return OK;\n    }\n\n    function setCBE(address key, bool isCBE) internal returns (uint) {\n        if (isCBE) {\n            store.add(admins, key);\n        } else {\n            store.remove(admins, key);\n            if (store.get(req) > store.count(admins)) {\n                store.set(req, store.get(req) - 1);\n            }\n        }\n        return OK;\n    }\n\n    function setHashes(address key, bytes32 _hash) internal returns (uint) {\n        store.set(hashes, key, _hash);\n        return OK;\n    }\n\n    function getMemberHash(address key) constant returns (bytes32) {\n        return store.get(hashes, key);\n    }\n\n    function getCBE(address key) constant returns (bool) {\n        return store.includes(admins, key);\n    }\n\n    function getMemberId(address sender) constant returns (uint) {\n        return store.getIndex(members, sender);\n    }\n\n    function required() constant returns (uint) {\n        return store.get(req);\n    }\n\n    function adminCount() constant returns (uint) {\n        return store.count(admins);\n    }\n\n    function userCount() constant returns (uint) {\n        return store.count(members);\n    }\n\n    function getCBEMembers() constant returns (address[] _addresses, bytes32[] _hashes) {\n        _hashes = new bytes32[](adminCount());\n        for (uint i = 0; i < adminCount(); i++) {\n            _hashes[i] = store.get(hashes, store.get(admins, i));\n        }\n        return (store.get(admins), _hashes);\n    }\n\n    function _emitCBEUpdate(address key) internal {\n        UserManager(getEventsHistory()).emitCBEUpdate(key);\n    }\n\n    function _emitNewUserRegistered(address key) internal {\n        if (getEventsHistory() == 0x0) {\n            return;\n        }\n        UserManager(getEventsHistory()).emitNewUserRegistered(key);\n    }\n\n    function _emitSetRequired(uint required) internal {\n        UserManager(getEventsHistory()).emitSetRequired(required);\n    }\n\n    function _emitHashUpdate(address key, bytes32 oldHash, bytes32 newHash) internal {\n        UserManager(getEventsHistory()).emitHashUpdate(key, oldHash, newHash);\n    }\n\n    function _emitError(uint error) internal returns (uint) {\n        UserManager(getEventsHistory()).emitError(error);\n        return error;\n    }\n\n    function _handleResult(uint error) internal returns (uint) {\n        if (error != OK && error != MULTISIG_ADDED) {\n            return _emitError(error);\n        }\n        return error;\n    }\n\n    function() {\n        throw;\n    }\n}\n",
  "sourcePath": "/Users/mikefluff/Documents/Programming/Chronobank/test/SmartContracts/contracts/core/user/UserManager.sol",
  "compiler": {
    "name": "solc",
    "version": "0.4.21+commit.dfe3193c.Emscripten.clang"
  },
  "schemaVersion": "2.0.0",
  "updatedAt": "2018-04-11T07:50:46.822Z"
}