{
  "contractName": "UserProxy",
  "abi": [
    {
      "constant": false,
      "inputs": [],
      "name": "claimContractOwnership",
      "outputs": [
        {
          "name": "",
          "type": "bool"
        }
      ],
      "payable": false,
      "stateMutability": "nonpayable",
      "type": "function"
    },
    {
      "constant": false,
      "inputs": [
        {
          "name": "_to",
          "type": "address"
        }
      ],
      "name": "changeContractOwnership",
      "outputs": [
        {
          "name": "",
          "type": "bool"
        }
      ],
      "payable": false,
      "stateMutability": "nonpayable",
      "type": "function"
    },
    {
      "constant": true,
      "inputs": [],
      "name": "pendingContractOwner",
      "outputs": [
        {
          "name": "",
          "type": "address"
        }
      ],
      "payable": false,
      "stateMutability": "view",
      "type": "function"
    },
    {
      "constant": false,
      "inputs": [],
      "name": "destroy",
      "outputs": [],
      "payable": false,
      "stateMutability": "nonpayable",
      "type": "function"
    },
    {
      "constant": false,
      "inputs": [
        {
          "name": "_to",
          "type": "address"
        }
      ],
      "name": "transferContractOwnership",
      "outputs": [
        {
          "name": "",
          "type": "bool"
        }
      ],
      "payable": false,
      "stateMutability": "nonpayable",
      "type": "function"
    },
    {
      "constant": true,
      "inputs": [],
      "name": "contractOwner",
      "outputs": [
        {
          "name": "",
          "type": "address"
        }
      ],
      "payable": false,
      "stateMutability": "view",
      "type": "function"
    },
    {
      "payable": true,
      "stateMutability": "payable",
      "type": "fallback"
    },
    {
      "anonymous": false,
      "inputs": [
        {
          "indexed": true,
          "name": "destination",
          "type": "address"
        },
        {
          "indexed": false,
          "name": "value",
          "type": "uint256"
        },
        {
          "indexed": false,
          "name": "data",
          "type": "bytes"
        }
      ],
      "name": "Forwarded",
      "type": "event"
    },
    {
      "anonymous": false,
      "inputs": [
        {
          "indexed": true,
          "name": "sender",
          "type": "address"
        },
        {
          "indexed": false,
          "name": "value",
          "type": "uint256"
        }
      ],
      "name": "Received",
      "type": "event"
    },
    {
      "constant": false,
      "inputs": [
        {
          "name": "_destination",
          "type": "address"
        },
        {
          "name": "_data",
          "type": "bytes"
        },
        {
          "name": "_value",
          "type": "uint256"
        },
        {
          "name": "_throwOnFailedCall",
          "type": "bool"
        }
      ],
      "name": "forward",
      "outputs": [
        {
          "name": "result",
          "type": "bytes32"
        }
      ],
      "payable": false,
      "stateMutability": "nonpayable",
      "type": "function"
    }
  ],
  "bytecode": "0x606060405260008054600160a060020a033316600160a060020a03199091161790556104ac806100306000396000f3006060604052600436106100825763ffffffff7c01000000000000000000000000000000000000000000000000000000006000350416634592cd1d81146100c1578063557f4bc9146100e85780635aa77d3c1461010757806383197ef014610136578063a843c51f1461014b578063ce606ee01461016a578063dffdc75d1461017d575b33600160a060020a03167f88a5966d370b9919b20f3e2c13ff65706f196a4e32cc2c12bf57088f885258743460405190815260200160405180910390a2005b34156100cc57600080fd5b6100d46101f7565b604051901515815260200160405180910390f35b34156100f357600080fd5b6100d4600160a060020a036004351661024f565b341561011257600080fd5b61011a6102ae565b604051600160a060020a03909116815260200160405180910390f35b341561014157600080fd5b6101496102bd565b005b341561015657600080fd5b6100d4600160a060020a03600435166102e2565b341561017557600080fd5b61011a610373565b341561018857600080fd5b6101e560048035600160a060020a03169060446024803590810190830135806020601f8201819004810201604051908101604052818152929190602084018383808284375094965050843594602001351515935061038292505050565b60405190815260200160405180910390f35b60015460009033600160a060020a039081169116146102185750600061024c565b50600180546000805473ffffffffffffffffffffffffffffffffffffffff19908116600160a060020a038416179091551681555b90565b6000805433600160a060020a03908116911614156102a957600160a060020a038216151561027f575060006102a9565b506001805473ffffffffffffffffffffffffffffffffffffffff1916600160a060020a0383161781555b919050565b600154600160a060020a031681565b60005433600160a060020a03908116911614156102e05733600160a060020a0316ff5b565b6000805433600160a060020a03908116911614156102a957600160a060020a0382161515610312575060006102a9565b600154600160a060020a031615610341576001805473ffffffffffffffffffffffffffffffffffffffff191690555b5060008054600160a060020a03831673ffffffffffffffffffffffffffffffffffffffff199091161790556001919050565b600054600160a060020a031681565b60008054819033600160a060020a03908116911614156104775760206000865160208801878a6040603f5a0204f190506000519150801580156103c25750825b156103cc57600080fd5b85600160a060020a03167fc1de93dfa06362c6a616cde73ec17d116c0d588dd1df70f27f91b500de207c41858760405182815260406020820181815290820183818151815260200191508051906020019080838360005b8381101561043b578082015183820152602001610423565b50505050905090810190601f1680156104685780820380516001836020036101000a031916815260200191505b50935050505060405180910390a25b509493505050505600a165627a7a7230582027812212d561886b509bbd2deeecba667e3e88d6434e8242dbf6694e87c7915a0029",
  "source": "pragma solidity ^0.4.11;\n\nimport '../common/Owned.sol';\n\ncontract UserProxy is Owned {\n    event Forwarded (\n        address indexed destination,\n        uint value,\n        bytes data\n    );\n    event Received (\n        address indexed sender,\n        uint value\n    );\n\n    function () payable {\n        Received(msg.sender, msg.value);\n    }\n\n    function forward(address _destination, bytes _data, uint _value, bool _throwOnFailedCall) onlyContractOwner() returns(bytes32 result) {\n        bool success;\n        assembly {\n            success := call(div(mul(gas, 63), 64), _destination, _value, add(_data, 32), mload(_data), 0, 32)\n            result := mload(0)\n        }\n        if (!success && _throwOnFailedCall) {\n            throw;\n        }\n        Forwarded(_destination, _value, _data);\n    }\n}\n",
  "sourcePath": "/Users/alesanro/Documents/Projects/ChronoBank/SmartContracts/contracts/core/user/UserProxy.sol",
  "compiler": {
    "name": "solc",
    "version": "0.4.19+commit.c4cbbb05.Emscripten.clang"
  },
  "schemaVersion": "2.0.0",
  "updatedAt": "2018-04-02T14:47:31.186Z"
}