{
  "contractName": "VotingManagerEmitter",
  "abi": [
    {
      "anonymous": false,
      "inputs": [
        {
          "indexed": true,
          "name": "self",
          "type": "address"
        },
        {
          "indexed": true,
          "name": "pollAddress",
          "type": "address"
        },
        {
          "indexed": false,
          "name": "optionsCount",
          "type": "uint256"
        },
        {
          "indexed": false,
          "name": "detailsIpfsHash",
          "type": "bytes32"
        },
        {
          "indexed": false,
          "name": "votelimit",
          "type": "uint256"
        },
        {
          "indexed": false,
          "name": "deadline",
          "type": "uint256"
        }
      ],
      "name": "PollCreated",
      "type": "event"
    },
    {
      "anonymous": false,
      "inputs": [
        {
          "indexed": true,
          "name": "self",
          "type": "address"
        },
        {
          "indexed": true,
          "name": "pollAddress",
          "type": "address"
        }
      ],
      "name": "PollRemoved",
      "type": "event"
    },
    {
      "anonymous": false,
      "inputs": [
        {
          "indexed": true,
          "name": "self",
          "type": "address"
        },
        {
          "indexed": false,
          "name": "percent",
          "type": "uint256"
        }
      ],
      "name": "VotingSharesPercentUpdated",
      "type": "event"
    },
    {
      "anonymous": false,
      "inputs": [
        {
          "indexed": true,
          "name": "self",
          "type": "address"
        },
        {
          "indexed": false,
          "name": "errorCode",
          "type": "uint256"
        }
      ],
      "name": "Error",
      "type": "event"
    },
    {
      "constant": false,
      "inputs": [
        {
          "name": "_pollAddress",
          "type": "address"
        },
        {
          "name": "_optionsCount",
          "type": "uint256"
        },
        {
          "name": "_detailsIpfsHash",
          "type": "bytes32"
        },
        {
          "name": "_votelimit",
          "type": "uint256"
        },
        {
          "name": "_deadline",
          "type": "uint256"
        }
      ],
      "name": "emitPollCreated",
      "outputs": [],
      "payable": false,
      "stateMutability": "nonpayable",
      "type": "function"
    },
    {
      "constant": false,
      "inputs": [
        {
          "name": "pollAddress",
          "type": "address"
        }
      ],
      "name": "emitPollRemoved",
      "outputs": [],
      "payable": false,
      "stateMutability": "nonpayable",
      "type": "function"
    },
    {
      "constant": false,
      "inputs": [
        {
          "name": "_percent",
          "type": "uint256"
        }
      ],
      "name": "emitVotingSharesPercentUpdated",
      "outputs": [],
      "payable": false,
      "stateMutability": "nonpayable",
      "type": "function"
    },
    {
      "constant": false,
      "inputs": [
        {
          "name": "errorCode",
          "type": "uint256"
        }
      ],
      "name": "emitError",
      "outputs": [],
      "payable": false,
      "stateMutability": "nonpayable",
      "type": "function"
    }
  ],
  "bytecode": "0x6060604052341561000f57600080fd5b6102588061001e6000396000f3006060604052600436106100615763ffffffff7c01000000000000000000000000000000000000000000000000000000006000350416635c053ca8811461006657806398d22b01146100875780639f24f2b61461009d578063df26ca08146100c8575b600080fd5b341561007157600080fd5b610085600160a060020a03600435166100de565b005b341561009257600080fd5b610085600435610128565b34156100a857600080fd5b610085600160a060020a036004351660243560443560643560843561016f565b34156100d357600080fd5b6100856004356101e1565b80600160a060020a03166100f0610228565b600160a060020a03167ff8bb25a0adf9f7a1e52d03be7682c4a079e3656657f2aa6a5fdfcd47428316bb60405160405180910390a350565b610130610228565b600160a060020a03167f5598993bcd3a366666d14de88f684a48ea3d9d25b3eed67f0ae0ebd5dc65601f8260405190815260200160405180910390a250565b84600160a060020a0316610181610228565b600160a060020a03167f02c09d2d47a17abb7adebf3db27d52f36f8f8ed7daf846731b4076b5e918edfc86868686604051938452602084019290925260408084019190915260608301919091526080909101905180910390a35050505050565b6101e9610228565b600160a060020a03167f9cf38cf2dbf9139f5c32639950507b10775fbbe0421f3e168bc2d1bb1ae3208c8260405190815260200160405180910390a250565b33905600a165627a7a723058202cc0673422cc6739118a73c7eb4d56d0e9f37e36f6c32c404f4f90e51a7a404f0029",
  "source": "/**\n * Copyright 2017–2018, LaborX PTY\n * Licensed under the AGPL Version 3 license.\n */\n\npragma solidity ^0.4.21;\n\n\nimport \"../core/event/MultiEventsHistoryAdapter.sol\";\n\n\n/// @title Emitter with support of events history for VotingManager\n///\n/// Contains all the original event emitting function definitions and events.\n/// In case of new events needed later, additional emitters can be developed.\n/// All the functions is meant to be called using delegatecall.\ncontract VotingManagerEmitter is MultiEventsHistoryAdapter {\n\n    /* Events */\n\n    event PollCreated(\n        address indexed self, \n        address indexed pollAddress, \n        uint optionsCount, \n        bytes32 detailsIpfsHash, \n        uint votelimit, \n        uint deadline\n    );\n    event PollRemoved(address indexed self, address indexed pollAddress);\n    event VotingSharesPercentUpdated(address indexed self, uint percent);\n    event Error(address indexed self, uint errorCode);\n\n\n    /* Emitting events */\n\n    function emitPollCreated(\n        address _pollAddress, \n        uint _optionsCount, \n        bytes32 _detailsIpfsHash, \n        uint _votelimit, \n        uint _deadline\n    ) \n    public \n    {\n        emit PollCreated(_self(), _pollAddress, _optionsCount, _detailsIpfsHash, _votelimit, _deadline);\n    }\n\n    function emitPollRemoved(address pollAddress) public {\n        emit PollRemoved(_self(), pollAddress);\n    }\n\n    function emitVotingSharesPercentUpdated(uint _percent) public {\n        emit VotingSharesPercentUpdated(_self(), _percent);\n    }\n\n    function emitError(uint errorCode) public {\n        emit Error(_self(), errorCode);\n    }\n}\n",
  "sourcePath": "/Users/mikefluff/Documents/Programming/Chronobank/test/SmartContracts/contracts/vote/VotingManagerEmitter.sol",
  "compiler": {
    "name": "solc",
    "version": "0.4.21+commit.dfe3193c.Emscripten.clang"
  },
  "schemaVersion": "2.0.0",
  "updatedAt": "2018-04-11T08:13:19.200Z"
}