{
  "contractName": "VotingManagerEmitter",
  "abi": [
    {
      "anonymous": false,
      "inputs": [
        {
          "indexed": true,
          "name": "self",
          "type": "address"
        },
        {
          "indexed": true,
          "name": "pollAddress",
          "type": "address"
        },
        {
          "indexed": false,
          "name": "optionsCount",
          "type": "uint256"
        },
        {
          "indexed": false,
          "name": "detailsIpfsHash",
          "type": "bytes32"
        },
        {
          "indexed": false,
          "name": "votelimit",
          "type": "uint256"
        },
        {
          "indexed": false,
          "name": "deadline",
          "type": "uint256"
        }
      ],
      "name": "PollCreated",
      "type": "event"
    },
    {
      "anonymous": false,
      "inputs": [
        {
          "indexed": true,
          "name": "self",
          "type": "address"
        },
        {
          "indexed": true,
          "name": "pollAddress",
          "type": "address"
        }
      ],
      "name": "PollRemoved",
      "type": "event"
    },
    {
      "anonymous": false,
      "inputs": [
        {
          "indexed": true,
          "name": "self",
          "type": "address"
        },
        {
          "indexed": false,
          "name": "percent",
          "type": "uint256"
        }
      ],
      "name": "VotingSharesPercentUpdated",
      "type": "event"
    },
    {
      "anonymous": false,
      "inputs": [
        {
          "indexed": true,
          "name": "self",
          "type": "address"
        },
        {
          "indexed": false,
          "name": "errorCode",
          "type": "uint256"
        }
      ],
      "name": "Error",
      "type": "event"
    },
    {
      "constant": false,
      "inputs": [
        {
          "name": "_pollAddress",
          "type": "address"
        },
        {
          "name": "_optionsCount",
          "type": "uint256"
        },
        {
          "name": "_detailsIpfsHash",
          "type": "bytes32"
        },
        {
          "name": "_votelimit",
          "type": "uint256"
        },
        {
          "name": "_deadline",
          "type": "uint256"
        }
      ],
      "name": "emitPollCreated",
      "outputs": [],
      "payable": false,
      "stateMutability": "nonpayable",
      "type": "function"
    },
    {
      "constant": false,
      "inputs": [
        {
          "name": "pollAddress",
          "type": "address"
        }
      ],
      "name": "emitPollRemoved",
      "outputs": [],
      "payable": false,
      "stateMutability": "nonpayable",
      "type": "function"
    },
    {
      "constant": false,
      "inputs": [
        {
          "name": "_percent",
          "type": "uint256"
        }
      ],
      "name": "emitVotingSharesPercentUpdated",
      "outputs": [],
      "payable": false,
      "stateMutability": "nonpayable",
      "type": "function"
    },
    {
      "constant": false,
      "inputs": [
        {
          "name": "errorCode",
          "type": "uint256"
        }
      ],
      "name": "emitError",
      "outputs": [],
      "payable": false,
      "stateMutability": "nonpayable",
      "type": "function"
    }
  ],
  "bytecode": "0x6060604052341561000f57600080fd5b6102588061001e6000396000f3006060604052600436106100615763ffffffff7c01000000000000000000000000000000000000000000000000000000006000350416635c053ca8811461006657806398d22b01146100875780639f24f2b61461009d578063df26ca08146100c8575b600080fd5b341561007157600080fd5b610085600160a060020a03600435166100de565b005b341561009257600080fd5b610085600435610128565b34156100a857600080fd5b610085600160a060020a036004351660243560443560643560843561016f565b34156100d357600080fd5b6100856004356101e1565b80600160a060020a03166100f0610228565b600160a060020a03167ff8bb25a0adf9f7a1e52d03be7682c4a079e3656657f2aa6a5fdfcd47428316bb60405160405180910390a350565b610130610228565b600160a060020a03167f5598993bcd3a366666d14de88f684a48ea3d9d25b3eed67f0ae0ebd5dc65601f8260405190815260200160405180910390a250565b84600160a060020a0316610181610228565b600160a060020a03167f02c09d2d47a17abb7adebf3db27d52f36f8f8ed7daf846731b4076b5e918edfc86868686604051938452602084019290925260408084019190915260608301919091526080909101905180910390a35050505050565b6101e9610228565b600160a060020a03167f9cf38cf2dbf9139f5c32639950507b10775fbbe0421f3e168bc2d1bb1ae3208c8260405190815260200160405180910390a250565b33905600a165627a7a7230582023ae7aa7d6ed7455b90a884b4ebd21ecd38da6f26d831c4aee575bafa14adf8f0029",
  "source": "pragma solidity ^0.4.11;\n\nimport '../core/event/MultiEventsHistoryAdapter.sol';\n\n\n/// @title Emitter with support of events history for VotingManager\ncontract VotingManagerEmitter is MultiEventsHistoryAdapter {\n\n    /** Events */\n\n    event PollCreated(address indexed self, address indexed pollAddress, uint optionsCount, bytes32 detailsIpfsHash, uint votelimit, uint deadline);\n\n    event PollRemoved(address indexed self, address indexed pollAddress);\n\n    event VotingSharesPercentUpdated(address indexed self, uint percent);\n\n    event Error(address indexed self, uint errorCode);\n\n\n    /** Emitters */\n\n    function emitPollCreated(address _pollAddress, uint _optionsCount, bytes32 _detailsIpfsHash, uint _votelimit, uint _deadline) public {\n        PollCreated(_self(), _pollAddress, _optionsCount, _detailsIpfsHash, _votelimit, _deadline);\n    }\n\n    function emitPollRemoved(address pollAddress) public {\n        PollRemoved(_self(), pollAddress);\n    }\n\n    function emitVotingSharesPercentUpdated(uint _percent) public {\n        VotingSharesPercentUpdated(_self(), _percent);\n    }\n\n    function emitError(uint errorCode) public {\n        Error(_self(), errorCode);\n    }\n}\n",
  "sourcePath": "/Users/alesanro/Documents/Projects/ChronoBank/SmartContracts/contracts/vote/VotingManagerEmitter.sol",
  "compiler": {
    "name": "solc",
    "version": "0.4.19+commit.c4cbbb05.Emscripten.clang"
  },
  "schemaVersion": "2.0.0",
  "updatedAt": "2018-04-02T14:47:31.400Z"
}