{
  "contractName": "VotingManager",
  "abi": [
    {
      "constant": false,
      "inputs": [],
      "name": "claimContractOwnership",
      "outputs": [
        {
          "name": "",
          "type": "bool"
        }
      ],
      "payable": false,
      "stateMutability": "nonpayable",
      "type": "function"
    },
    {
      "constant": true,
      "inputs": [
        {
          "name": "_identifier",
          "type": "bytes32"
        }
      ],
      "name": "lookupManager",
      "outputs": [
        {
          "name": "manager",
          "type": "address"
        }
      ],
      "payable": false,
      "stateMutability": "view",
      "type": "function"
    },
    {
      "constant": true,
      "inputs": [],
      "name": "contractsManager",
      "outputs": [
        {
          "name": "",
          "type": "address"
        }
      ],
      "payable": false,
      "stateMutability": "view",
      "type": "function"
    },
    {
      "constant": false,
      "inputs": [
        {
          "name": "_to",
          "type": "address"
        }
      ],
      "name": "changeContractOwnership",
      "outputs": [
        {
          "name": "",
          "type": "bool"
        }
      ],
      "payable": false,
      "stateMutability": "nonpayable",
      "type": "function"
    },
    {
      "constant": true,
      "inputs": [],
      "name": "pendingContractOwner",
      "outputs": [
        {
          "name": "",
          "type": "address"
        }
      ],
      "payable": false,
      "stateMutability": "view",
      "type": "function"
    },
    {
      "constant": false,
      "inputs": [],
      "name": "emitVotingSharesPercentUpdated",
      "outputs": [],
      "payable": false,
      "stateMutability": "nonpayable",
      "type": "function"
    },
    {
      "constant": false,
      "inputs": [
        {
          "name": "pollAddress",
          "type": "address"
        }
      ],
      "name": "emitPollRemoved",
      "outputs": [],
      "payable": false,
      "stateMutability": "nonpayable",
      "type": "function"
    },
    {
      "constant": false,
      "inputs": [
        {
          "name": "_eventsHistory",
          "type": "address"
        }
      ],
      "name": "setEventsHistory",
      "outputs": [],
      "payable": false,
      "stateMutability": "nonpayable",
      "type": "function"
    },
    {
      "constant": false,
      "inputs": [
        {
          "name": "_contractsManager",
          "type": "address"
        }
      ],
      "name": "setContractsManager",
      "outputs": [],
      "payable": false,
      "stateMutability": "nonpayable",
      "type": "function"
    },
    {
      "constant": false,
      "inputs": [],
      "name": "destroy",
      "outputs": [],
      "payable": false,
      "stateMutability": "nonpayable",
      "type": "function"
    },
    {
      "constant": false,
      "inputs": [
        {
          "name": "_to",
          "type": "address"
        }
      ],
      "name": "transferContractOwnership",
      "outputs": [
        {
          "name": "",
          "type": "bool"
        }
      ],
      "payable": false,
      "stateMutability": "nonpayable",
      "type": "function"
    },
    {
      "constant": true,
      "inputs": [],
      "name": "contractOwner",
      "outputs": [
        {
          "name": "",
          "type": "address"
        }
      ],
      "payable": false,
      "stateMutability": "view",
      "type": "function"
    },
    {
      "constant": false,
      "inputs": [
        {
          "name": "tokens",
          "type": "address[]"
        },
        {
          "name": "_to",
          "type": "address"
        }
      ],
      "name": "withdrawnTokens",
      "outputs": [
        {
          "name": "",
          "type": "uint256"
        }
      ],
      "payable": false,
      "stateMutability": "nonpayable",
      "type": "function"
    },
    {
      "constant": false,
      "inputs": [
        {
          "name": "pollAddress",
          "type": "address"
        }
      ],
      "name": "emitPollCreated",
      "outputs": [],
      "payable": false,
      "stateMutability": "nonpayable",
      "type": "function"
    },
    {
      "constant": false,
      "inputs": [
        {
          "name": "errorCode",
          "type": "uint256"
        }
      ],
      "name": "emitError",
      "outputs": [],
      "payable": false,
      "stateMutability": "nonpayable",
      "type": "function"
    },
    {
      "constant": true,
      "inputs": [
        {
          "name": "key",
          "type": "address"
        }
      ],
      "name": "isAuthorized",
      "outputs": [
        {
          "name": "",
          "type": "bool"
        }
      ],
      "payable": false,
      "stateMutability": "view",
      "type": "function"
    },
    {
      "constant": true,
      "inputs": [],
      "name": "getEventsHistory",
      "outputs": [
        {
          "name": "",
          "type": "address"
        }
      ],
      "payable": false,
      "stateMutability": "view",
      "type": "function"
    },
    {
      "inputs": [
        {
          "name": "_store",
          "type": "address"
        },
        {
          "name": "_crate",
          "type": "bytes32"
        }
      ],
      "payable": false,
      "stateMutability": "nonpayable",
      "type": "constructor"
    },
    {
      "payable": false,
      "stateMutability": "nonpayable",
      "type": "fallback"
    },
    {
      "anonymous": false,
      "inputs": [
        {
          "indexed": true,
          "name": "self",
          "type": "address"
        },
        {
          "indexed": true,
          "name": "pollAddress",
          "type": "address"
        }
      ],
      "name": "PollCreated",
      "type": "event"
    },
    {
      "anonymous": false,
      "inputs": [
        {
          "indexed": true,
          "name": "self",
          "type": "address"
        },
        {
          "indexed": true,
          "name": "pollAddress",
          "type": "address"
        }
      ],
      "name": "PollRemoved",
      "type": "event"
    },
    {
      "anonymous": false,
      "inputs": [
        {
          "indexed": true,
          "name": "self",
          "type": "address"
        }
      ],
      "name": "VotingSharesPercentUpdated",
      "type": "event"
    },
    {
      "anonymous": false,
      "inputs": [
        {
          "indexed": true,
          "name": "self",
          "type": "address"
        },
        {
          "indexed": false,
          "name": "errorCode",
          "type": "uint256"
        }
      ],
      "name": "Error",
      "type": "event"
    },
    {
      "constant": false,
      "inputs": [
        {
          "name": "_contractsManager",
          "type": "address"
        },
        {
          "name": "_pollsFactory",
          "type": "address"
        },
        {
          "name": "_pollBackend",
          "type": "address"
        }
      ],
      "name": "init",
      "outputs": [
        {
          "name": "_resultCode",
          "type": "uint256"
        }
      ],
      "payable": false,
      "stateMutability": "nonpayable",
      "type": "function"
    },
    {
      "constant": true,
      "inputs": [],
      "name": "getVoteLimit",
      "outputs": [
        {
          "name": "",
          "type": "uint256"
        }
      ],
      "payable": false,
      "stateMutability": "view",
      "type": "function"
    },
    {
      "constant": false,
      "inputs": [
        {
          "name": "_percent",
          "type": "uint256"
        }
      ],
      "name": "setVotesPercent",
      "outputs": [
        {
          "name": "_resultCode",
          "type": "uint256"
        }
      ],
      "payable": false,
      "stateMutability": "nonpayable",
      "type": "function"
    },
    {
      "constant": true,
      "inputs": [],
      "name": "getVotesPercent",
      "outputs": [
        {
          "name": "",
          "type": "uint256"
        }
      ],
      "payable": false,
      "stateMutability": "view",
      "type": "function"
    },
    {
      "constant": false,
      "inputs": [
        {
          "name": "_backend",
          "type": "address"
        }
      ],
      "name": "setBackend",
      "outputs": [
        {
          "name": "",
          "type": "uint256"
        }
      ],
      "payable": false,
      "stateMutability": "nonpayable",
      "type": "function"
    },
    {
      "constant": true,
      "inputs": [],
      "name": "getActivePollsCount",
      "outputs": [
        {
          "name": "",
          "type": "uint256"
        }
      ],
      "payable": false,
      "stateMutability": "view",
      "type": "function"
    },
    {
      "constant": true,
      "inputs": [],
      "name": "getPollsCount",
      "outputs": [
        {
          "name": "",
          "type": "uint256"
        }
      ],
      "payable": false,
      "stateMutability": "view",
      "type": "function"
    },
    {
      "constant": true,
      "inputs": [
        {
          "name": "_startIndex",
          "type": "uint256"
        },
        {
          "name": "_pageSize",
          "type": "uint32"
        }
      ],
      "name": "getPollsPaginated",
      "outputs": [
        {
          "name": "_polls",
          "type": "address[]"
        }
      ],
      "payable": false,
      "stateMutability": "view",
      "type": "function"
    },
    {
      "constant": false,
      "inputs": [
        {
          "name": "_optionsCount",
          "type": "uint256"
        },
        {
          "name": "_detailsIpfsHash",
          "type": "bytes32"
        },
        {
          "name": "_votelimit",
          "type": "uint256"
        },
        {
          "name": "_deadline",
          "type": "uint256"
        }
      ],
      "name": "createPoll",
      "outputs": [
        {
          "name": "",
          "type": "uint256"
        }
      ],
      "payable": false,
      "stateMutability": "nonpayable",
      "type": "function"
    },
    {
      "constant": false,
      "inputs": [
        {
          "name": "",
          "type": "address"
        },
        {
          "name": "",
          "type": "uint8"
        }
      ],
      "name": "onVote",
      "outputs": [],
      "payable": false,
      "stateMutability": "nonpayable",
      "type": "function"
    },
    {
      "constant": false,
      "inputs": [],
      "name": "onRemovePoll",
      "outputs": [],
      "payable": false,
      "stateMutability": "nonpayable",
      "type": "function"
    },
    {
      "constant": false,
      "inputs": [],
      "name": "onActivatePoll",
      "outputs": [],
      "payable": false,
      "stateMutability": "nonpayable",
      "type": "function"
    },
    {
      "constant": false,
      "inputs": [],
      "name": "onEndPoll",
      "outputs": [],
      "payable": false,
      "stateMutability": "nonpayable",
      "type": "function"
    },
    {
      "constant": true,
      "inputs": [
        {
          "name": "_polls",
          "type": "address[]"
        }
      ],
      "name": "getPollsDetails",
      "outputs": [
        {
          "name": "_owner",
          "type": "address[]"
        },
        {
          "name": "_detailsIpfsHash",
          "type": "bytes32[]"
        },
        {
          "name": "_votelimit",
          "type": "uint256[]"
        },
        {
          "name": "_deadline",
          "type": "uint256[]"
        },
        {
          "name": "_status",
          "type": "bool[]"
        },
        {
          "name": "_active",
          "type": "bool[]"
        },
        {
          "name": "_creation",
          "type": "uint256[]"
        }
      ],
      "payable": false,
      "stateMutability": "view",
      "type": "function"
    },
    {
      "constant": false,
      "inputs": [
        {
          "name": "_token",
          "type": "address"
        },
        {
          "name": "_who",
          "type": "address"
        },
        {
          "name": "_amount",
          "type": "uint256"
        },
        {
          "name": "_total",
          "type": "uint256"
        }
      ],
      "name": "tokenDeposit",
      "outputs": [],
      "payable": false,
      "stateMutability": "nonpayable",
      "type": "function"
    },
    {
      "constant": false,
      "inputs": [
        {
          "name": "_token",
          "type": "address"
        },
        {
          "name": "_who",
          "type": "address"
        },
        {
          "name": "_amount",
          "type": "uint256"
        },
        {
          "name": "_total",
          "type": "uint256"
        }
      ],
      "name": "tokenWithdrawn",
      "outputs": [],
      "payable": false,
      "stateMutability": "nonpayable",
      "type": "function"
    },
    {
      "constant": true,
      "inputs": [],
      "name": "voteShares",
      "outputs": [
        {
          "name": "",
          "type": "address"
        }
      ],
      "payable": false,
      "stateMutability": "view",
      "type": "function"
    }
  ],
  "bytecode": "0x606060405234156200001057600080fd5b60405160408062002a0c833981016040528080519190602001805191508290508181818181620000516000838364010000000062002558620001ba82021704565b505060028054600160a060020a03338116600160a060020a03199283161790925560058054309093169290911691909117905550620000c69250600691507f706f6c6c7353746f72616765000000000000000000000000000000000000000090506401000000006200257e620001e082021704565b62000101600a7f706f6c6c73466163746f727953746f726167650000000000000000000000000064010000000062002588620001fe82021704565b6200013c600b7f73686172657350657263656e7453746f7261676500000000000000000000000064010000000062002588620001fe82021704565b6200017760097f616374697665436f756e7453746f72616765000000000000000000000000000064010000000062002588620001fe82021704565b620001b2600c7f706f6c6c4261636b656e6453746f72616765000000000000000000000000000064010000000062002588620001fe82021704565b505062000341565b8254600160a060020a031916600160a060020a0392909216919091178255600190910155565b620001fa8282640100000000620025a46200021e82021704565b5050565b81546200021a90826401000000006200266d6200032982021704565b9055565b6200027582826040519081527f636f756e7400000000000000000000000000000000000000000000000000000060208201526025016040518091039020620001fe6401000000000262002588176401000000009004565b620002cf82600101826040519081527f696e64657865730000000000000000000000000000000000000000000000000060208201526027016040518091039020620001fe6401000000000262002588176401000000009004565b620001fa82600201826040519081527f76616c756573000000000000000000000000000000000000000000000000000060208201526026016040518091039020620001fe6401000000000262002588176401000000009004565b8115158062000336575080155b15620001fa57600080fd5b6126bb80620003516000396000f3006060604052600436106101925763ffffffff60e060020a600035041663023fa93f81146101a2578063184b9559146101ca5780633c101a3e146101f55780634592cd1d146102145780634ca95be81461023b5780634fe590121461026857806353253d311461029a578063557f4bc9146102ad57806356f80c3c146102cc5780635aa77d3c1461033e5780635be984f1146103515780635c053ca8146103645780636521afd714610383578063654fd7d6146103a2578063657e8c13146103b557806371d3b573146103c85780637b144b9c146103e757806383197ef0146103fa5780639cd004481461040d578063a2ad5faa14610438578063a843c51f1461045d578063a95817031461047c578063ce606ee01461048f578063cfe0784a146104a2578063d8f9659b146104b5578063d9b35f8a1461050f578063da7fc24f14610522578063df00476f14610541578063df26ca0814610560578063e099591614610576578063ec6dfab714610589578063fb39e8b31461059c578063fe9fbb80146107dd578063fff10aba146107fc575b341561019d57600080fd5b600080fd5b34156101ad57600080fd5b6101b860043561080f565b60405190815260200160405180910390f35b34156101d557600080fd5b6101b8600160a060020a0360043581169060243581169060443516610872565b341561020057600080fd5b6101b8600435602435604435606435610936565b341561021f57600080fd5b610227610b2b565b604051901515815260200160405180910390f35b341561024657600080fd5b610266600160a060020a0360043581169060243516604435606435610b78565b005b341561027357600080fd5b61027e600435610bfa565b604051600160a060020a03909116815260200160405180910390f35b34156102a557600080fd5b61027e610c7e565b34156102b857600080fd5b610227600160a060020a0360043516610c8d565b34156102d757600080fd5b6102eb60043563ffffffff60243516610ce4565b60405160208082528190810183818151815260200191508051906020019060200280838360005b8381101561032a578082015183820152602001610312565b505050509050019250505060405180910390f35b341561034957600080fd5b61027e610d9c565b341561035c57600080fd5b610266610dab565b341561036f57600080fd5b610266600160a060020a0360043516610dea565b341561038e57600080fd5b610266600160a060020a0360043516610e34565b34156103ad57600080fd5b610266610e6a565b34156103c057600080fd5b6101b8610ec4565b34156103d357600080fd5b610266600160a060020a0360043516610f52565b34156103f257600080fd5b61027e610f89565b341561040557600080fd5b61026661101d565b341561041857600080fd5b610266600160a060020a03600435811690602435166044356064356110b3565b341561044357600080fd5b610266600160a060020a036004351660ff6024351661112e565b341561046857600080fd5b610227600160a060020a0360043516611150565b341561048757600080fd5b6101b86111c9565b341561049a57600080fd5b61027e6111e1565b34156104ad57600080fd5b6102666111f0565b34156104c057600080fd5b6101b8600460248135818101908301358060208181020160405190810160405280939291908181526020018383602002808284375094965050509235600160a060020a03169250611243915050565b341561051a57600080fd5b610266611392565b341561052d57600080fd5b6101b8600160a060020a0360043516611435565b341561054c57600080fd5b610266600160a060020a0360043516611477565b341561056b57600080fd5b6102666004356114c1565b341561058157600080fd5b6101b8611508565b341561059457600080fd5b6101b861151b565b34156105a757600080fd5b6105eb600460248135818101908301358060208181020160405190810160405280939291908181526020018383602002808284375094965061152e95505050505050565b604051808060200180602001806020018060200180602001806020018060200188810388528f818151815260200191508051906020019060200280838360005b8381101561064357808201518382015260200161062b565b5050505090500188810387528e818151815260200191508051906020019060200280838360005b8381101561068257808201518382015260200161066a565b5050505090500188810386528d818151815260200191508051906020019060200280838360005b838110156106c15780820151838201526020016106a9565b5050505090500188810385528c818151815260200191508051906020019060200280838360005b838110156107005780820151838201526020016106e8565b5050505090500188810384528b818151815260200191508051906020019060200280838360005b8381101561073f578082015183820152602001610727565b5050505090500188810383528a818151815260200191508051906020019060200280838360005b8381101561077e578082015183820152602001610766565b50505050905001888103825289818151815260200191508051906020019060200280838360005b838110156107bd5780820151838201526020016107a5565b505050509050019e50505050505050505050505050505060405180910390f35b34156107e857600080fd5b610227600160a060020a03600435166117d4565b341561080757600080fd5b61027e61187a565b60008082118015610821575061271082105b151561082c57600080fd5b610834611889565b90506001811461084e57610847816119c1565b905061086d565b6108616000600b8463ffffffff6119e716565b610869611a60565b5060015b919050565b60025460009033600160a060020a039081169116141561092f57600160a060020a03821615156108a157600080fd5b6108cb847f566f74696e674d616e6167657200000000000000000000000000000000000000611aba565b9050600181141580156108df575060068114155b156108e95761092f565b60068114610905576109056000600b600163ffffffff6119e716565b6109186000600a8563ffffffff611cab16565b61092b6000600c8463ffffffff611cab16565b5060015b9392505050565b6000808061094b81600a63ffffffff611d1416565b600454909250600160a060020a0380841691636a43b85591166109766000600c63ffffffff611d1416565b8a8a8a8a60006040516020015260405160e060020a63ffffffff8916028152600160a060020a03968716600482015294909516602485015260448401929092526064830152608482015260a481019190915260c401602060405180830381600087803b15156109e457600080fd5b6102c65a03f115156109f557600080fd5b505050604051805190509050610a0961187a565b600160a060020a031663b6a5d7de8260006040516020015260405160e060020a63ffffffff8416028152600160a060020a039091166004820152602401602060405180830381600087803b1515610a5f57600080fd5b6102c65a03f11515610a7057600080fd5b505050604051805190501515610a8557600080fd5b80600160a060020a031663a843c51f3360006040516020015260405160e060020a63ffffffff8416028152600160a060020a039091166004820152602401602060405180830381600087803b1515610adc57600080fd5b6102c65a03f11515610aed57600080fd5b505050604051805190501515610b0257600080fd5b610b15600060068363ffffffff611d7316565b610b1e81611d87565b5060019695505050505050565b60035460009033600160a060020a03908116911614610b4c57506000610b75565b506003805460028054600160a060020a0319908116600160a060020a0384161790915516905560015b90565b6000610ba37f54696d65486f6c64657200000000000000000000000000000000000000000000610bfa565b600160a060020a031633600160a060020a0316141515610bc257600080fd5b610bca610f89565b9050600160a060020a0385811690821614610be457610bf3565b610bf381858585611df3611e75565b5050505050565b600454600090600160a060020a031663bc65792783836040516020015260405160e060020a63ffffffff84160281526004810191909152602401602060405180830381600087803b1515610c4d57600080fd5b6102c65a03f11515610c5e57600080fd5b5050506040518051915050600160a060020a038116151561086d57600080fd5b600454600160a060020a031681565b60025460009033600160a060020a039081169116141561086d57600160a060020a0382161515610cbf5750600061086d565b5060038054600160a060020a038316600160a060020a03199091161790556001919050565b610cec612546565b60008060008463ffffffff16604051805910610d055750595b90808252806020026020018201604052509350610d2a6000600663ffffffff611f3e16565b92508463ffffffff168601915082821015610d455781610d47565b825b91508590505b81811015610d9357610d68600060068363ffffffff611f4a16565b848281518110610d7457fe5b600160a060020a03909216602092830290910190910152600101610d4d565b50505092915050565b600354600160a060020a031681565b610db3611f5f565b600160a060020a03167fff323c22ebe749d92941bc9060638f4d72be680cebf255ee31f942b254b4c16060405160405180910390a2565b80600160a060020a0316610dfc611f5f565b600160a060020a03167ff8bb25a0adf9f7a1e52d03be7682c4a079e3656657f2aa6a5fdfcd47428316bb60405160405180910390a350565b60025433600160a060020a0390811691161415610e675760058054600160a060020a031916600160a060020a0383161790555b50565b6000610e7e8160063363ffffffff611f6316565b1515610e8957600080fd5b610e9b6000600963ffffffff611f7916565b90506014600182011115610eae57600080fd5b610e67600060096001840163ffffffff6119e716565b6000610ed781600b63ffffffff611f7916565b612710610ee2610f89565b600160a060020a03166318160ddd6000604051602001526040518163ffffffff1660e060020a028152600401602060405180830381600087803b1515610f2757600080fd5b6102c65a03f11515610f3857600080fd5b50505060405180519050811515610f4b57fe5b0402905090565b60025433600160a060020a0390811691161415610e675760048054600160a060020a038316600160a060020a031990911617905550565b600080610fb57f54696d65486f6c64657200000000000000000000000000000000000000000000610bfa565b905080600160a060020a031663a4d4f0d26000604051602001526040518163ffffffff1660e060020a028152600401602060405180830381600087803b1515610ffd57600080fd5b6102c65a03f1151561100e57600080fd5b50505060405180519250505090565b60025433600160a060020a03908116911614156110b157600454600160a060020a031663c375c2ef3060006040516020015260405160e060020a63ffffffff8416028152600160a060020a039091166004820152602401602060405180830381600087803b151561108d57600080fd5b6102c65a03f1151561109e57600080fd5b50505060405180519050506110b1611fd8565b565b60006110de7f54696d65486f6c64657200000000000000000000000000000000000000000000610bfa565b600160a060020a031633600160a060020a03161415156110fd57600080fd5b611105610f89565b9050600160a060020a038581169082161461111f57610bf3565b610bf381858585611ffb611e75565b611141600060063363ffffffff611f6316565b151561114c57600080fd5b5050565b60025460009033600160a060020a039081169116141561086d57600160a060020a03821615156111825750600061086d565b600354600160a060020a0316156111a45760038054600160a060020a03191690555b5060028054600160a060020a038316600160a060020a03199091161790556001919050565b60006111dc81600963ffffffff611f7916565b905090565b600254600160a060020a031681565b60006112048160063363ffffffff611f6316565b151561120f57600080fd5b6112216000600963ffffffff611f7916565b905080151561122c57fe5b610e6760006009600019840163ffffffff6119e716565b60025460009081908190819033600160a060020a0390811691161415610d9357600092505b85518310156113865785838151811061127d57fe5b90602001906020020151915081600160a060020a03166370a082313060006040516020015260405160e060020a63ffffffff8416028152600160a060020a039091166004820152602401602060405180830381600087803b15156112e057600080fd5b6102c65a03f115156112f157600080fd5b5050506040518051915050801561137b5781600160a060020a031663a9059cbb868360006040516020015260405160e060020a63ffffffff8516028152600160a060020a0390921660048301526024820152604401602060405180830381600087803b151561135f57600080fd5b6102c65a03f1151561137057600080fd5b505050604051805150505b600190920191611268565b50600195945050505050565b6113a5600060063363ffffffff611f6316565b15156113b057600080fd5b6113c3600060063363ffffffff61206216565b6113cb61187a565b600160a060020a031663ab0da5a93360405160e060020a63ffffffff8416028152600160a060020a039091166004820152602401600060405180830381600087803b151561141857600080fd5b6102c65a03f1151561142957600080fd5b5050506110b133612076565b60025460009033600160a060020a039081169116141561086d57600160a060020a038216151561146457600080fd5b6108696000600c8463ffffffff611cab16565b80600160a060020a0316611489611f5f565b600160a060020a03167f5b850d927499bc55df3941f7c4ae97ab6fce34a21f4df0ab30694f24353445b260405160405180910390a350565b6114c9611f5f565b600160a060020a03167f9cf38cf2dbf9139f5c32639950507b10775fbbe0421f3e168bc2d1bb1ae3208c8260405190815260200160405180910390a250565b60006111dc81600663ffffffff611f3e16565b60006111dc81600b63ffffffff611f7916565b611536612546565b61153e612546565b611546612546565b61154e612546565b611556612546565b61155e612546565b611566612546565b600088516040518059106115775750595b9080825280602002602001820160405250975088516040518059106115995750595b9080825280602002602001820160405250965088516040518059106115bb5750595b9080825280602002602001820160405250955088516040518059106115dd5750595b9080825280602002602001820160405250945088516040518059106115ff5750595b9080825280602002602001820160405250935088516040518059106116215750595b9080825280602002602001820160405250925088516040518059106116435750595b90808252806020026020018201604052509150600090505b88518110156117c85788818151811061167057fe5b90602001906020020151600160a060020a031663fbbf93a0600060405161010001526040518163ffffffff1660e060020a02815260040161010060405180830381600087803b15156116c157600080fd5b6102c65a03f115156116d257600080fd5b50505060405180519060200180519060200180519060200180519060200180519060200180519060200180519060200180519050508e888151811061171357fe5b9060200190602002018e898151811061172857fe5b9060200190602002018e8a8151811061173d57fe5b9060200190602002018e8b8151811061175257fe5b9060200190602002018e8c8151811061176757fe5b9060200190602002018e8d8151811061177c57fe5b9060200190602002018e8e8151811061179157fe5b60209081029091010196909652951515909452941515909352939052929052919052600160a060020a03909116905260010161165b565b50919395979092949650565b6000806118007f557365724d616e61676572000000000000000000000000000000000000000000610bfa565b905080600160a060020a0316632aa09e5a8460006040516020015260405160e060020a63ffffffff8416028152600160a060020a039091166004820152602401602060405180830381600087803b151561185957600080fd5b6102c65a03f1151561186a57600080fd5b5050506040518051949350505050565b600554600160a060020a031690565b60008060006118b77f50656e64696e674d616e61676572000000000000000000000000000000000000610bfa565b915081600160a060020a031633600160a060020a03161415156119b757600036604051808383808284378201915050925050506040518091039020905081600160a060020a0316630fee1efc82600036303360006040516020015260405160e060020a63ffffffff881602815260048101868152600160a060020a0380851660448401528316606483015260806024830190815260848301869052909160a40186868082843782019150509650505050505050602060405180830381600087803b151561198357600080fd5b6102c65a03f1151561199457600080fd5b5050506040518051935050600183146119ad57826119b0565b60035b92506119bc565b600192505b505090565b6000600182141580156119d5575060038214155b156119e357610847826120cb565b5090565b825460018401548354600160a060020a03909216916353e7168b91908460405160e060020a63ffffffff8616028152600481019390935260248301919091526044820152606401600060405180830381600087803b1515611a4757600080fd5b6102c65a03f11515611a5857600080fd5b505050505050565b611a6861187a565b600160a060020a0316635be984f16040518163ffffffff1660e060020a028152600401600060405180830381600087803b1515611aa457600080fd5b6102c65a03f11515611ab557600080fd5b505050565b60025460009081908190819033600160a060020a03908116911614611ade57600080fd5b600160a060020a0386161515611af357600080fd5b600454600160a060020a0316158015935080611b1d5750600454600160a060020a03878116911614155b15611b3e5760048054600160a060020a031916600160a060020a0388161790555b600454600160a060020a031691508163bc65792760006040516020015260405160e060020a63ffffffff83160281527f4d756c74694576656e7473486973746f727900000000000000000000000000006004820152602401602060405180830381600087803b1515611baf57600080fd5b6102c65a03f11515611bc057600080fd5b5050506040518051915050600160a060020a03811615801590611bf15750600554600160a060020a03828116911614155b15611c125760058054600160a060020a031916600160a060020a0383161790555b8415611c995781600160a060020a031663b7c46cd5308760006040516020015260405160e060020a63ffffffff8516028152600160a060020a0390921660048301526024820152604401602060405180830381600087803b1515611c7557600080fd5b6102c65a03f11515611c8657600080fd5b50505060405180516001149050611c9957fe5b82156113865760069695505050505050565b825460018401548354600160a060020a03909216916379a7cfee91908460405160e060020a63ffffffff861602815260048101939093526024830191909152600160a060020a03166044820152606401600060405180830381600087803b1515611a4757600080fd5b815460018301548254600092600160a060020a03169163d3a3968691846040516020015260405160e060020a63ffffffff851602815260048101929092526024820152604401602060405180830381600087803b151561185957600080fd5b611ab58383600160a060020a038416612134565b611d8f61187a565b600160a060020a031663df00476f8260405160e060020a63ffffffff8416028152600160a060020a039091166004820152602401600060405180830381600087803b1515611ddc57600080fd5b6102c65a03f11515611ded57600080fd5b50505050565b84600160a060020a0316634ca95be88585858560405160e060020a63ffffffff8716028152600160a060020a03948516600482015292909316602483015260448201526064810191909152608401600060405180830381600087803b1515611e5a57600080fd5b6102c65a03f11515611e6b57600080fd5b5050505050505050565b60008080611e8a81600663ffffffff611f3e16565b9250600090505b82811015611e6b57611eac600060068363ffffffff611f4a16565b915081600160a060020a03166312d428358860006040516020015260405160e060020a63ffffffff8416028152600160a060020a039091166004820152602401602060405180830381600087803b1515611f0557600080fd5b6102c65a03f11515611f1657600080fd5b5050506040518051905015611f3657611f3682898989898963ffffffff16565b600101611e91565b600061092f8383612149565b6000611f5784848461215f565b949350505050565b3390565b6000611f578484600160a060020a038516612176565b815460018301548254600092600160a060020a0316916353aa3f5e91846040516020015260405160e060020a63ffffffff851602815260048101929092526024820152604401602060405180830381600087803b151561185957600080fd5b60025433600160a060020a03908116911614156110b15733600160a060020a0316ff5b84600160a060020a0316639cd004488585858560405160e060020a63ffffffff8716028152600160a060020a03948516600482015292909316602483015260448201526064810191909152608401600060405180830381600087803b1515611e5a57600080fd5b611ab58383600160a060020a03841661218d565b61207e61187a565b600160a060020a0316635c053ca88260405160e060020a63ffffffff8416028152600160a060020a039091166004820152602401600060405180830381600087803b1515611ddc57600080fd5b60006120d561187a565b600160a060020a031663df26ca088360405160e060020a63ffffffff84160281526004810191909152602401600060405180830381600087803b151561211a57600080fd5b6102c65a03f1151561212b57600080fd5b50929392505050565b611ab5838360ea60020a621cd95d02846121a2565b600061092f838360ea60020a621cd95d026121f6565b6000611f57848460ea60020a621cd95d0285612203565b6000611f57848460ea60020a621cd95d0285612220565b611ab5838360ea60020a621cd95d028461223c565b60006121b085858585612220565b156121ba57610bf3565b6121c58585856121f6565b60010190506121da85600286018584866122ea565b6121ea85600186018585856122ea565b610bf38585858461230e565b6000611f57848484612397565b600061221785600286018560018601612431565b95945050505050565b600061223185856001018585612431565b151595945050505050565b600080600061224d87878787612220565b1515612258576122e1565b6122638787876121f6565b925061227487600288018786612431565b915061228587876001018787612431565b9050828110156122af5761229f87600188018785856122ea565b6122af87600288018784866122ea565b6122c08760018801878760006122ea565b6122d18760028801878660006122ea565b6122e1878787600019870161230e565b50505050505050565b610bf385858585604051918252602082015260409081019051809103902084612456565b835460018501548454600160a060020a03909216916353e7168b91908560405191825260208201526040908101905180910390208460405160e060020a63ffffffff8616028152600481019390935260248301919091526044820152606401600060405180830381600087803b151561238657600080fd5b6102c65a03f115156122e157600080fd5b825460018401548354600092600160a060020a0316916353aa3f5e9185604051918252602082015260409081019051809103902060006040516020015260405160e060020a63ffffffff851602815260048101929092526024820152604401602060405180830381600087803b151561240f57600080fd5b6102c65a03f1151561242057600080fd5b505050604051805195945050505050565b60006122178585858560405191825260208201526040908101905180910390206124ce565b835460018501548454600160a060020a039092169163a14ff85791908560405191825260208201526040908101905180910390208460405160e060020a63ffffffff8616028152600481019390935260248301919091526044820152606401600060405180830381600087803b151561238657600080fd5b825460018401548354600092600160a060020a0316916337d9d7fc9185604051918252602082015260409081019051809103902060006040516020015260405160e060020a63ffffffff851602815260048101929092526024820152604401602060405180830381600087803b151561240f57600080fd5b60206040519081016040526000815290565b8254600160a060020a031916600160a060020a0392909216919091178255600190910155565b61114c82826125a4565b8154612594908261266d565b9055565b8154612594908261266d565b6125e582826040519081527f636f756e7400000000000000000000000000000000000000000000000000000060208201526025016040518091039020612588565b61262982600101826040519081527f696e64657865730000000000000000000000000000000000000000000000000060208201526027016040518091039020612588565b61114c82600201826040519081527f76616c756573000000000000000000000000000000000000000000000000000060208201526026016040518091039020612588565b81151580612679575080155b1561114c57600080fd5b8154612594908261266d5600a165627a7a723058205258f7edb21233df4175f802d1c348e6ca7e0d9fe3fe3e4345cd4eae6c419f230029",
  "source": "pragma solidity ^0.4.11;\n\nimport \"../core/common/BaseManager.sol\";\nimport \"../core/erc20/ERC20Interface.sol\";\nimport \"../core/common/OwnedInterface.sol\";\nimport \"../core/common/ListenerInterface.sol\";\nimport \"../core/event/MultiEventsHistory.sol\";\nimport \"../timeholder/TimeHolderInterface.sol\";\nimport \"./PollInterface.sol\";\nimport \"./PollFactory.sol\";\nimport \"./VotingManagerEmitter.sol\";\n\n\n/// @title Contract is supposed to the central point to enter to manipulate (create and navigate) polls.\n/// It aggregates:\n/// - creation of a new poll,\n/// - tracking a number of currently active polls,\n/// - getting paginated lists of all created polls,\n/// - implements ListenerInterface to support and use TimeHolder's functionality\ncontract VotingManager is BaseManager, VotingManagerEmitter, HolderListenerInterface, PollListenerInterface {\n\n    /** Constants */\n\n    uint8 constant DEFAULT_SHARES_PERCENT = 1;\n    uint8 constant ACTIVE_POLLS_MAX = 20;\n\n\n    /** Error codes */\n\n    uint constant ERROR_VOTING_ACTIVE_POLL_LIMIT_REACHED = 27001;\n\n\n    /** Storage keys */\n\n    /** @dev set(address) stands for set of polls  */\n    StorageInterface.AddressesSet pollsStorage;\n\n    /** @dev a number of active polls */\n    StorageInterface.UInt activeCountStorage;\n\n    /** @dev address of a poll factory */\n    StorageInterface.Address pollsFactoryStorage;\n\n    /** @dev percent of shares to treat a poll as finished */\n    StorageInterface.UInt sharesPercentStorage;\n\n    /** @dev backend address used for polls */\n    StorageInterface.Address pollBackendStorage;\n\n    /** Modifiers */\n\n    /// @dev Guards invocation only to TimeHolder\n    modifier onlyTimeHolder {\n        if (msg.sender != lookupManager(\"TimeHolder\")) revert();\n        _;\n    }\n\n    /// @dev Guards invocation only to a poll registered in this manager\n    modifier onlyPoll {\n        if (!store.includes(pollsStorage, msg.sender)) revert();\n        _;\n    }\n\n\n    /** PUBLIC section */\n\n    /// @notice Contstructor\n    function VotingManager(Storage _store, bytes32 _crate) BaseManager(_store, _crate) public {\n        pollsStorage.init(\"pollsStorage\");\n        pollsFactoryStorage.init(\"pollsFactoryStorage\");\n        sharesPercentStorage.init(\"sharesPercentStorage\");\n        activeCountStorage.init(\"activeCountStorage\");\n        pollBackendStorage.init(\"pollBackendStorage\");\n    }\n\n    /// @notice Initializes contract\n    /// @param _contractsManager address of a contracts manager\n    /// @param _pollsFactory address of a poll factory\n    /// @return _resultCode result code of an operation. REINITIALIZED if it was once initialized.\n    function init(address _contractsManager, address _pollsFactory, address _pollBackend) onlyContractOwner public returns (uint _resultCode) {\n        require(_pollBackend != 0x0);\n\n        _resultCode = BaseManager.init(_contractsManager, \"VotingManager\");\n\n        if (_resultCode != OK && _resultCode != REINITIALIZED) {\n            return _resultCode;\n        }\n\n        if (REINITIALIZED != _resultCode) {\n            store.set(sharesPercentStorage, DEFAULT_SHARES_PERCENT);\n        }\n\n        store.set(pollsFactoryStorage, _pollsFactory);\n        store.set(pollBackendStorage, _pollBackend);\n\n        return OK;\n    }\n\n    /// @notice Gets votes limit (or number of tokens to be voted to treat a poll as completed)\n    /// @return a number of tokens\n    function getVoteLimit() public view returns (uint) {\n        return ERC20Interface(voteShares()).totalSupply() / 10000 * store.get(sharesPercentStorage); // @see sharesPercentStorage description\n    }\n\n    /// @notice Sets votes percent. Multisignature required.\n    /// @param _percent a value of percent for a vote limit. Should be between 0 and 10000 (because not float in a system)\n    /// @return _resultCode result code of an operation\n    function setVotesPercent(uint _percent) public returns (uint _resultCode) {\n        require(_percent > 0 && _percent < 10000);\n\n        _resultCode = multisig();\n        if (_resultCode != OK) {\n            return _checkAndEmitError(_resultCode);\n        }\n\n        store.set(sharesPercentStorage, _percent);\n\n        _emitSharesPercentUpdated();\n        return OK;\n    }\n\n    /// @notice Returns votes percent value\n    function getVotesPercent() public view returns (uint) {\n        return store.get(sharesPercentStorage);\n    }\n\n    /// @notice Sets poll backend address that will be used for future polls\n    function setBackend(address _backend) onlyContractOwner public returns (uint) {\n        require(_backend != 0x0);\n\n        store.set(pollBackendStorage, _backend);\n        return OK;\n    }\n\n    /// @notice Gets a number of active polls. Couldn't be more than ACTIVE_POLLS_MAX\n    /// @return a number of active polls\n    function getActivePollsCount() public view returns (uint) {\n        return store.get(activeCountStorage);\n    }\n\n    /// @dev Gets a number of polls registered in the manager. Includes a number of both active and inactive polls\n    /// @return a number of polls\n    function getPollsCount() public view returns (uint) {\n        return store.count(pollsStorage);\n    }\n\n    /// @notice Gets a paginated results of polls stored in the manager. Could be mixed with getPollsCount() passed as\n    /// a pageSize to get full list of polls at one call.\n    /// @param _startIndex index of a poll to start. For first call should be equal to `0`\n    /// @param _pageSize size of an output list\n    /// @return {\n    ///   \"_polls\": \"list of polls\",\n    ///   \"_nextIndex\": \"index that could be used for the next call as _startIndex\"\n    /// }\n    function getPollsPaginated(uint _startIndex, uint32 _pageSize) public view returns (address[] _polls) {\n        _polls = new address[](_pageSize);\n        uint _pollsCount = store.count(pollsStorage);\n        uint _lastIndex = _startIndex + _pageSize;\n        _lastIndex = (_lastIndex >= _pollsCount) ? _pollsCount : _lastIndex;\n        for (uint _idx = _startIndex; _idx < _lastIndex; ++_idx) {\n            _polls[_idx] = store.get(pollsStorage, _idx);\n        }\n    }\n\n    /// @notice Creates a brand new poll with provided description and properties.\n    /// Emits PollCreated event in case of success.\n    ///\n    /// @param _optionsCount number of options provided for a poll\n    /// @param _detailsIpfsHash ipfs hash of poll's description and other details\n    /// @param _votelimit limit when poll would be treated as completed\n    /// @param _deadline time after which poll isn't active anymore\n    ///\n    /// @return OK if all went all right, error code otherwise\n    function createPoll(uint _optionsCount, bytes32 _detailsIpfsHash, uint _votelimit, uint _deadline) public returns (uint) {\n        PollFactory _pollsFactory = PollFactory(store.get(pollsFactoryStorage));\n        address _poll = _pollsFactory.createPoll(contractsManager, store.get(pollBackendStorage), _optionsCount, _detailsIpfsHash, _votelimit, _deadline);\n\n        if (!MultiEventsHistory(getEventsHistory()).authorize(_poll)) {\n            revert();\n        }\n\n        if (!OwnedInterface(_poll).transferContractOwnership(msg.sender)) {\n            revert();\n        }\n\n        store.add(pollsStorage, _poll);\n\n        _emitPollCreated(_poll);\n        return OK;\n    }\n\n    /** PollListenerInterface interface */\n\n    /// @notice Emits PollVoted event in case of successful voting.\n    /// @dev DO NOT ALL IT DIRECTLY. Used by a poll contract.\n    function onVote(address, uint8) onlyPoll public {\n    }\n\n    /// @notice Emits PollRemoved event in case of successful removal.\n    /// @dev DO NOT ALL IT DIRECTLY. Used by a poll contract.\n    function onRemovePoll() onlyPoll public {\n        store.remove(pollsStorage, msg.sender);\n        MultiEventsHistory(getEventsHistory()).reject(msg.sender);\n        _emitPollRemoved(msg.sender);\n    }\n\n    /// @notice Emits PollActivated event in case of successful activation.\n    /// @dev DO NOT ALL IT DIRECTLY. Used by a poll contract.\n    function onActivatePoll() onlyPoll public {\n        uint _activeCount = store.get(activeCountStorage);\n        if (_activeCount + 1 > ACTIVE_POLLS_MAX) {\n            revert();\n        }\n\n        store.set(activeCountStorage, _activeCount + 1);\n    }\n\n    /// @notice Emits PollActivated event in case of successful ending (completing).\n    /// @dev DO NOT ALL IT DIRECTLY. Used by a poll contract.\n    function onEndPoll() onlyPoll public {\n        uint _activeCount = store.get(activeCountStorage);\n        assert(_activeCount != 0);\n\n        store.set(activeCountStorage, _activeCount - 1);\n    }\n\n    /// @notice Gets descriptions for a list of polls\n    /// @param _polls a list of polls\n    /// @return {\n    ///   \"_owner\": \"poll owners\",\n    ///   \"_detailsIpfsHash\": poll ipfs hashes\",\n    ///   \"_votelimit\": \"poll vote limits\",\n    ///   \"_deadline\": \"poll deadlines\",\n    ///   \"_status\": \"poll statuses\",\n    ///   \"_active\": \"poll activates\",\n    ///   \"_creation\": \"poll creation times\"\n    /// }\n    function getPollsDetails(address[] _polls) public view returns (\n        address[] _owner,\n        bytes32[] _detailsIpfsHash,\n        uint[] _votelimit,\n        uint[] _deadline,\n        bool[] _status,\n        bool[] _active,\n        uint[] _creation\n    ) {\n        _owner = new address[](_polls.length);\n        _detailsIpfsHash = new bytes32[](_polls.length);\n        _votelimit = new uint[](_polls.length);\n        _deadline = new uint[](_polls.length);\n        _status = new bool[](_polls.length);\n        _active = new bool[](_polls.length);\n        _creation = new uint[](_polls.length);\n\n        for (uint _idx = 0; _idx < _polls.length; ++_idx) {\n            (_owner[_idx], _detailsIpfsHash[_idx], _votelimit[_idx], _deadline[_idx], _status[_idx], _active[_idx], _creation[_idx],) =\n            PollInterface(_polls[_idx]).getDetails();\n        }\n    }\n\n    /** ListenerInterface interface */\n\n    function tokenDeposit(address _token, address _who, uint _amount, uint _total)\n    public\n    onlyTimeHolder\n    {\n        address _voteShares = voteShares();\n        if (_token != _voteShares) {\n            return;\n        }\n\n        _forEachPollMembership(_voteShares, _who, _amount, _total, _deposit);\n    }\n\n    function tokenWithdrawn(address _token, address _who, uint _amount, uint _total)\n    public\n    onlyTimeHolder\n    {\n        address _voteShares = voteShares();\n        if (_token != _voteShares) {\n            return;\n        }\n\n        _forEachPollMembership(_voteShares, _who, _amount, _total, _withdrawn);\n    }\n\n    function voteShares() public view returns (address) {\n        TimeHolderInterface timeHolder = TimeHolderInterface(lookupManager(\"TimeHolder\"));\n        return timeHolder.getDefaultShares();\n    }\n\n    /// @dev Don't allow to receive any Ether\n    function () public {\n        revert();\n    }\n\n    /** PRIVATE section */\n\n    function _deposit(address _entity, address _token, address _address, uint _amount, uint _total) private {\n        HolderListenerInterface(_entity).tokenDeposit(_token, _address, _amount, _total);\n    }\n\n    function _withdrawn(address _entity, address _token, address _address, uint _amount, uint _total) private {\n        HolderListenerInterface(_entity).tokenWithdrawn(_token, _address, _amount, _total);\n    }\n\n    function _forEachPollMembership(address _token, address _address, uint _amount, uint _total, function (address, address, address, uint, uint) _action) private {\n        uint _count = store.count(pollsStorage);\n        address _poll;\n        for (uint _idx = 0; _idx < _count; ++_idx) {\n            _poll = store.get(pollsStorage, _idx);\n            if (PollInterface(_poll).hasMember(_address)) {\n                _action(_poll, _token, _address, _amount, _total);\n            }\n        }\n    }\n\n\n    /** PRIVATE: events emitting */\n\n    function _emitError(uint _error) internal returns (uint) {\n        VotingManagerEmitter(getEventsHistory()).emitError(_error);\n        return _error;\n    }\n\n    function _checkAndEmitError(uint _error) internal returns (uint) {\n        if (_error != OK && _error != MULTISIG_ADDED) {\n            return _emitError(_error);\n        }\n\n        return _error;\n    }\n\n    function _emitSharesPercentUpdated() internal {\n        VotingManagerEmitter(getEventsHistory()).emitVotingSharesPercentUpdated();\n    }\n\n    function _emitPollCreated(address _pollAddress) internal {\n        VotingManagerEmitter(getEventsHistory()).emitPollCreated(_pollAddress);\n    }\n    function _emitPollRemoved(address _pollAddress) internal {\n        VotingManagerEmitter(getEventsHistory()).emitPollRemoved(_pollAddress);\n    }\n}\n",
  "sourcePath": "/Users/mikefluff/Documents/Programming/Chronobank/test/SmartContracts/contracts/vote/VotingManager.sol",
  "compiler": {
    "name": "solc",
    "version": "0.4.19+commit.c4cbbb05.Emscripten.clang"
  },
  "schemaVersion": "1.0.1",
  "updatedAt": "2018-02-05T15:13:26.398Z"
}