{
  "contractName": "VotingManager",
  "abi": [
    {
      "constant": false,
      "inputs": [],
      "name": "claimContractOwnership",
      "outputs": [
        {
          "name": "",
          "type": "bool"
        }
      ],
      "payable": false,
      "stateMutability": "nonpayable",
      "type": "function"
    },
    {
      "constant": true,
      "inputs": [
        {
          "name": "_identifier",
          "type": "bytes32"
        }
      ],
      "name": "lookupManager",
      "outputs": [
        {
          "name": "manager",
          "type": "address"
        }
      ],
      "payable": false,
      "stateMutability": "view",
      "type": "function"
    },
    {
      "constant": true,
      "inputs": [],
      "name": "contractsManager",
      "outputs": [
        {
          "name": "",
          "type": "address"
        }
      ],
      "payable": false,
      "stateMutability": "view",
      "type": "function"
    },
    {
      "constant": false,
      "inputs": [
        {
          "name": "_to",
          "type": "address"
        }
      ],
      "name": "changeContractOwnership",
      "outputs": [
        {
          "name": "",
          "type": "bool"
        }
      ],
      "payable": false,
      "stateMutability": "nonpayable",
      "type": "function"
    },
    {
      "constant": true,
      "inputs": [],
      "name": "pendingContractOwner",
      "outputs": [
        {
          "name": "",
          "type": "address"
        }
      ],
      "payable": false,
      "stateMutability": "view",
      "type": "function"
    },
    {
      "constant": false,
      "inputs": [
        {
          "name": "pollAddress",
          "type": "address"
        }
      ],
      "name": "emitPollRemoved",
      "outputs": [],
      "payable": false,
      "stateMutability": "nonpayable",
      "type": "function"
    },
    {
      "constant": false,
      "inputs": [
        {
          "name": "_eventsHistory",
          "type": "address"
        }
      ],
      "name": "setEventsHistory",
      "outputs": [],
      "payable": false,
      "stateMutability": "nonpayable",
      "type": "function"
    },
    {
      "constant": false,
      "inputs": [
        {
          "name": "_contractsManager",
          "type": "address"
        }
      ],
      "name": "setContractsManager",
      "outputs": [],
      "payable": false,
      "stateMutability": "nonpayable",
      "type": "function"
    },
    {
      "constant": false,
      "inputs": [],
      "name": "destroy",
      "outputs": [],
      "payable": false,
      "stateMutability": "nonpayable",
      "type": "function"
    },
    {
      "constant": false,
      "inputs": [
        {
          "name": "_percent",
          "type": "uint256"
        }
      ],
      "name": "emitVotingSharesPercentUpdated",
      "outputs": [],
      "payable": false,
      "stateMutability": "nonpayable",
      "type": "function"
    },
    {
      "constant": false,
      "inputs": [
        {
          "name": "_pollAddress",
          "type": "address"
        },
        {
          "name": "_optionsCount",
          "type": "uint256"
        },
        {
          "name": "_detailsIpfsHash",
          "type": "bytes32"
        },
        {
          "name": "_votelimit",
          "type": "uint256"
        },
        {
          "name": "_deadline",
          "type": "uint256"
        }
      ],
      "name": "emitPollCreated",
      "outputs": [],
      "payable": false,
      "stateMutability": "nonpayable",
      "type": "function"
    },
    {
      "constant": false,
      "inputs": [
        {
          "name": "_to",
          "type": "address"
        }
      ],
      "name": "transferContractOwnership",
      "outputs": [
        {
          "name": "",
          "type": "bool"
        }
      ],
      "payable": false,
      "stateMutability": "nonpayable",
      "type": "function"
    },
    {
      "constant": true,
      "inputs": [],
      "name": "contractOwner",
      "outputs": [
        {
          "name": "",
          "type": "address"
        }
      ],
      "payable": false,
      "stateMutability": "view",
      "type": "function"
    },
    {
      "constant": false,
      "inputs": [
        {
          "name": "tokens",
          "type": "address[]"
        },
        {
          "name": "_to",
          "type": "address"
        }
      ],
      "name": "withdrawnTokens",
      "outputs": [
        {
          "name": "",
          "type": "uint256"
        }
      ],
      "payable": false,
      "stateMutability": "nonpayable",
      "type": "function"
    },
    {
      "constant": false,
      "inputs": [
        {
          "name": "errorCode",
          "type": "uint256"
        }
      ],
      "name": "emitError",
      "outputs": [],
      "payable": false,
      "stateMutability": "nonpayable",
      "type": "function"
    },
    {
      "constant": true,
      "inputs": [
        {
          "name": "key",
          "type": "address"
        }
      ],
      "name": "isAuthorized",
      "outputs": [
        {
          "name": "",
          "type": "bool"
        }
      ],
      "payable": false,
      "stateMutability": "view",
      "type": "function"
    },
    {
      "constant": true,
      "inputs": [],
      "name": "getEventsHistory",
      "outputs": [
        {
          "name": "",
          "type": "address"
        }
      ],
      "payable": false,
      "stateMutability": "view",
      "type": "function"
    },
    {
      "inputs": [
        {
          "name": "_store",
          "type": "address"
        },
        {
          "name": "_crate",
          "type": "bytes32"
        }
      ],
      "payable": false,
      "stateMutability": "nonpayable",
      "type": "constructor"
    },
    {
      "payable": false,
      "stateMutability": "nonpayable",
      "type": "fallback"
    },
    {
      "anonymous": false,
      "inputs": [
        {
          "indexed": true,
          "name": "self",
          "type": "address"
        },
        {
          "indexed": true,
          "name": "pollAddress",
          "type": "address"
        },
        {
          "indexed": false,
          "name": "optionsCount",
          "type": "uint256"
        },
        {
          "indexed": false,
          "name": "detailsIpfsHash",
          "type": "bytes32"
        },
        {
          "indexed": false,
          "name": "votelimit",
          "type": "uint256"
        },
        {
          "indexed": false,
          "name": "deadline",
          "type": "uint256"
        }
      ],
      "name": "PollCreated",
      "type": "event"
    },
    {
      "anonymous": false,
      "inputs": [
        {
          "indexed": true,
          "name": "self",
          "type": "address"
        },
        {
          "indexed": true,
          "name": "pollAddress",
          "type": "address"
        }
      ],
      "name": "PollRemoved",
      "type": "event"
    },
    {
      "anonymous": false,
      "inputs": [
        {
          "indexed": true,
          "name": "self",
          "type": "address"
        },
        {
          "indexed": false,
          "name": "percent",
          "type": "uint256"
        }
      ],
      "name": "VotingSharesPercentUpdated",
      "type": "event"
    },
    {
      "anonymous": false,
      "inputs": [
        {
          "indexed": true,
          "name": "self",
          "type": "address"
        },
        {
          "indexed": false,
          "name": "errorCode",
          "type": "uint256"
        }
      ],
      "name": "Error",
      "type": "event"
    },
    {
      "constant": false,
      "inputs": [
        {
          "name": "_contractsManager",
          "type": "address"
        },
        {
          "name": "_pollsFactory",
          "type": "address"
        },
        {
          "name": "_pollBackend",
          "type": "address"
        }
      ],
      "name": "init",
      "outputs": [
        {
          "name": "_resultCode",
          "type": "uint256"
        }
      ],
      "payable": false,
      "stateMutability": "nonpayable",
      "type": "function"
    },
    {
      "constant": true,
      "inputs": [],
      "name": "getVoteLimit",
      "outputs": [
        {
          "name": "",
          "type": "uint256"
        }
      ],
      "payable": false,
      "stateMutability": "view",
      "type": "function"
    },
    {
      "constant": false,
      "inputs": [
        {
          "name": "_percent",
          "type": "uint256"
        }
      ],
      "name": "setVotesPercent",
      "outputs": [
        {
          "name": "_resultCode",
          "type": "uint256"
        }
      ],
      "payable": false,
      "stateMutability": "nonpayable",
      "type": "function"
    },
    {
      "constant": true,
      "inputs": [],
      "name": "voteShares",
      "outputs": [
        {
          "name": "",
          "type": "address"
        }
      ],
      "payable": false,
      "stateMutability": "view",
      "type": "function"
    },
    {
      "constant": true,
      "inputs": [],
      "name": "getVotesPercent",
      "outputs": [
        {
          "name": "",
          "type": "uint256"
        }
      ],
      "payable": false,
      "stateMutability": "view",
      "type": "function"
    },
    {
      "constant": false,
      "inputs": [
        {
          "name": "_backend",
          "type": "address"
        }
      ],
      "name": "setBackend",
      "outputs": [
        {
          "name": "",
          "type": "uint256"
        }
      ],
      "payable": false,
      "stateMutability": "nonpayable",
      "type": "function"
    },
    {
      "constant": true,
      "inputs": [],
      "name": "getActivePollsCount",
      "outputs": [
        {
          "name": "",
          "type": "uint256"
        }
      ],
      "payable": false,
      "stateMutability": "view",
      "type": "function"
    },
    {
      "constant": true,
      "inputs": [],
      "name": "getPollsCount",
      "outputs": [
        {
          "name": "",
          "type": "uint256"
        }
      ],
      "payable": false,
      "stateMutability": "view",
      "type": "function"
    },
    {
      "constant": true,
      "inputs": [
        {
          "name": "_startIndex",
          "type": "uint256"
        },
        {
          "name": "_pageSize",
          "type": "uint32"
        }
      ],
      "name": "getPollsPaginated",
      "outputs": [
        {
          "name": "_polls",
          "type": "address[]"
        }
      ],
      "payable": false,
      "stateMutability": "view",
      "type": "function"
    },
    {
      "constant": false,
      "inputs": [
        {
          "name": "_optionsCount",
          "type": "uint256"
        },
        {
          "name": "_detailsIpfsHash",
          "type": "bytes32"
        },
        {
          "name": "_votelimit",
          "type": "uint256"
        },
        {
          "name": "_deadline",
          "type": "uint256"
        }
      ],
      "name": "createPoll",
      "outputs": [
        {
          "name": "",
          "type": "uint256"
        }
      ],
      "payable": false,
      "stateMutability": "nonpayable",
      "type": "function"
    },
    {
      "constant": false,
      "inputs": [
        {
          "name": "",
          "type": "address"
        },
        {
          "name": "",
          "type": "uint8"
        }
      ],
      "name": "onVote",
      "outputs": [],
      "payable": false,
      "stateMutability": "nonpayable",
      "type": "function"
    },
    {
      "constant": false,
      "inputs": [],
      "name": "onRemovePoll",
      "outputs": [],
      "payable": false,
      "stateMutability": "nonpayable",
      "type": "function"
    },
    {
      "constant": false,
      "inputs": [],
      "name": "onActivatePoll",
      "outputs": [],
      "payable": false,
      "stateMutability": "nonpayable",
      "type": "function"
    },
    {
      "constant": false,
      "inputs": [],
      "name": "onEndPoll",
      "outputs": [],
      "payable": false,
      "stateMutability": "nonpayable",
      "type": "function"
    },
    {
      "constant": true,
      "inputs": [
        {
          "name": "_polls",
          "type": "address[]"
        }
      ],
      "name": "getPollsDetails",
      "outputs": [
        {
          "name": "_owner",
          "type": "address[]"
        },
        {
          "name": "_detailsIpfsHash",
          "type": "bytes32[]"
        },
        {
          "name": "_votelimit",
          "type": "uint256[]"
        },
        {
          "name": "_deadline",
          "type": "uint256[]"
        },
        {
          "name": "_status",
          "type": "bool[]"
        },
        {
          "name": "_active",
          "type": "bool[]"
        },
        {
          "name": "_creation",
          "type": "uint256[]"
        }
      ],
      "payable": false,
      "stateMutability": "view",
      "type": "function"
    },
    {
      "constant": false,
      "inputs": [
        {
          "name": "_token",
          "type": "address"
        },
        {
          "name": "_who",
          "type": "address"
        },
        {
          "name": "_amount",
          "type": "uint256"
        },
        {
          "name": "_total",
          "type": "uint256"
        }
      ],
      "name": "tokenDeposit",
      "outputs": [],
      "payable": false,
      "stateMutability": "nonpayable",
      "type": "function"
    },
    {
      "constant": false,
      "inputs": [
        {
          "name": "_token",
          "type": "address"
        },
        {
          "name": "_who",
          "type": "address"
        },
        {
          "name": "_amount",
          "type": "uint256"
        },
        {
          "name": "_total",
          "type": "uint256"
        }
      ],
      "name": "tokenWithdrawn",
      "outputs": [],
      "payable": false,
      "stateMutability": "nonpayable",
      "type": "function"
    }
  ],
  "bytecode": "0x606060405234156200001057600080fd5b604051604080620029c9833981016040528080519190602001805191508290508181818181620000516000838364010000000062002515620001ba82021704565b505060028054600160a060020a03338116600160a060020a03199283161790925560058054309093169290911691909117905550620000c69250600691507f706f6c6c7353746f72616765000000000000000000000000000000000000000090506401000000006200253b620001e082021704565b62000101600a7f706f6c6c73466163746f727953746f726167650000000000000000000000000064010000000062002545620001fe82021704565b6200013c600b7f73686172657350657263656e7453746f7261676500000000000000000000000064010000000062002545620001fe82021704565b6200017760097f616374697665436f756e7453746f72616765000000000000000000000000000064010000000062002545620001fe82021704565b620001b2600c7f706f6c6c4261636b656e6453746f72616765000000000000000000000000000064010000000062002545620001fe82021704565b505062000341565b8254600160a060020a031916600160a060020a0392909216919091178255600190910155565b620001fa8282640100000000620025616200021e82021704565b5050565b81546200021a90826401000000006200262a6200032982021704565b9055565b6200027582826040519081527f636f756e7400000000000000000000000000000000000000000000000000000060208201526025016040518091039020620001fe6401000000000262002545176401000000009004565b620002cf82600101826040519081527f696e64657865730000000000000000000000000000000000000000000000000060208201526027016040518091039020620001fe6401000000000262002545176401000000009004565b620001fa82600201826040519081527f76616c756573000000000000000000000000000000000000000000000000000060208201526026016040518091039020620001fe6401000000000262002545176401000000009004565b8115158062000336575080155b15620001fa57600080fd5b61267880620003516000396000f3006060604052600436106101925763ffffffff60e060020a600035041663023fa93f81146101a2578063184b9559146101ca5780633c101a3e146101f55780634592cd1d146102145780634ca95be81461023b5780634fe590121461026857806353253d311461029a578063557f4bc9146102ad57806356f80c3c146102cc5780635aa77d3c1461033e5780635c053ca8146103515780636521afd714610370578063654fd7d61461038f578063657e8c13146103a257806371d3b573146103b55780637b144b9c146103d457806383197ef0146103e757806398d22b01146103fa5780639cd00448146104105780639f24f2b61461043b578063a2ad5faa14610466578063a843c51f1461048b578063a9581703146104aa578063ce606ee0146104bd578063cfe0784a146104d0578063d8f9659b146104e3578063d9b35f8a1461053d578063da7fc24f14610550578063df26ca081461056f578063e099591614610585578063ec6dfab714610598578063fb39e8b3146105ab578063fe9fbb80146107ec578063fff10aba1461080b575b341561019d57600080fd5b600080fd5b34156101ad57600080fd5b6101b860043561081e565b60405190815260200160405180910390f35b34156101d557600080fd5b6101b8600160a060020a0360043581169060243581169060443516610882565b341561020057600080fd5b6101b86004356024356044356064356109aa565b341561021f57600080fd5b610227610b7c565b604051901515815260200160405180910390f35b341561024657600080fd5b610266600160a060020a0360043581169060243516604435606435610bc9565b005b341561027357600080fd5b61027e600435610c4b565b604051600160a060020a03909116815260200160405180910390f35b34156102a557600080fd5b61027e610cc3565b34156102b857600080fd5b610227600160a060020a0360043516610cd2565b34156102d757600080fd5b6102eb60043563ffffffff60243516610d29565b60405160208082528190810183818151815260200191508051906020019060200280838360005b8381101561032a578082015183820152602001610312565b505050509050019250505060405180910390f35b341561034957600080fd5b61027e610de1565b341561035c57600080fd5b610266600160a060020a0360043516610df0565b341561037b57600080fd5b610266600160a060020a0360043516610e3a565b341561039a57600080fd5b610266610e70565b34156103ad57600080fd5b6101b8610eca565b34156103c057600080fd5b610266600160a060020a0360043516610f4b565b34156103df57600080fd5b61027e610f82565b34156103f257600080fd5b610266611009565b341561040557600080fd5b610266600435611092565b341561041b57600080fd5b610266600160a060020a03600435811690602435166044356064356110d9565b341561044657600080fd5b610266600160a060020a0360043516602435604435606435608435611154565b341561047157600080fd5b610266600160a060020a036004351660ff602435166111c6565b341561049657600080fd5b610227600160a060020a03600435166111e8565b34156104b557600080fd5b6101b8611261565b34156104c857600080fd5b61027e611279565b34156104db57600080fd5b610266611288565b34156104ee57600080fd5b6101b8600460248135818101908301358060208181020160405190810160405280939291908181526020018383602002808284375094965050509235600160a060020a031692506112db915050565b341561054857600080fd5b610266611410565b341561055b57600080fd5b6101b8600160a060020a03600435166114af565b341561057a57600080fd5b6102666004356114f1565b341561059057600080fd5b6101b8611538565b34156105a357600080fd5b6101b861154b565b34156105b657600080fd5b6105fa600460248135818101908301358060208181020160405190810160405280939291908181526020018383602002808284375094965061155e95505050505050565b604051808060200180602001806020018060200180602001806020018060200188810388528f818151815260200191508051906020019060200280838360005b8381101561065257808201518382015260200161063a565b5050505090500188810387528e818151815260200191508051906020019060200280838360005b83811015610691578082015183820152602001610679565b5050505090500188810386528d818151815260200191508051906020019060200280838360005b838110156106d05780820151838201526020016106b8565b5050505090500188810385528c818151815260200191508051906020019060200280838360005b8381101561070f5780820151838201526020016106f7565b5050505090500188810384528b818151815260200191508051906020019060200280838360005b8381101561074e578082015183820152602001610736565b5050505090500188810383528a818151815260200191508051906020019060200280838360005b8381101561078d578082015183820152602001610775565b50505050905001888103825289818151815260200191508051906020019060200280838360005b838110156107cc5780820151838201526020016107b4565b505050509050019e50505050505050505050505050505060405180910390f35b34156107f757600080fd5b610227600160a060020a03600435166117f6565b341561081657600080fd5b61027e61188f565b60008082118015610830575061271082105b151561083b57600080fd5b61084361189e565b90506001811461085d57610856816119c9565b905061087d565b6108706000600b8463ffffffff6119ef16565b61087982611a64565b5060015b919050565b60025460009033600160a060020a03908116911614156109a357600160a060020a03821615156108b157600080fd5b6108db847f566f74696e674d616e6167657200000000000000000000000000000000000000611ac4565b9050600181141580156108ef575060068114155b156108f9576109a3565b61090b6000600b63ffffffff611c9b16565b1515610925576109256000600b600163ffffffff6119ef16565b600160a060020a0383166109416000600a63ffffffff611cf216565b600160a060020a031614610962576109626000600a8563ffffffff611d4916565b600160a060020a03821661097e6000600c63ffffffff611cf216565b600160a060020a03161461099f5761099f6000600c8463ffffffff611d4916565b5060015b9392505050565b600080806109bf81600a63ffffffff611cf216565b600454909250600160a060020a0380841691636a43b85591166109ea6000600c63ffffffff611cf216565b8a8a8a8a60405160e060020a63ffffffff8916028152600160a060020a03968716600482015294909516602485015260448401929092526064830152608482015260a481019190915260c401602060405180830381600087803b1515610a4f57600080fd5b5af11515610a5c57600080fd5b505050604051805190509050610a7061188f565b600160a060020a031663b6a5d7de8260405160e060020a63ffffffff8416028152600160a060020a039091166004820152602401602060405180830381600087803b1515610abd57600080fd5b5af11515610aca57600080fd5b505050604051805190501515610adf57600080fd5b80600160a060020a031663a843c51f3360405160e060020a63ffffffff8416028152600160a060020a039091166004820152602401602060405180830381600087803b1515610b2d57600080fd5b5af11515610b3a57600080fd5b505050604051805190501515610b4f57600080fd5b610b62600060068363ffffffff611db216565b610b6f8188888888611dcb565b5060019695505050505050565b60035460009033600160a060020a03908116911614610b9d57506000610bc6565b506003805460028054600160a060020a0319908116600160a060020a0384161790915516905560015b90565b6000610bf47f54696d65486f6c64657200000000000000000000000000000000000000000000610c4b565b600160a060020a031633600160a060020a0316141515610c1357600080fd5b610c1b610f82565b9050600160a060020a0385811690821614610c3557610c44565b610c4481858585611e55611ebc565b5050505050565b600454600090600160a060020a031663bc6579278360405160e060020a63ffffffff84160281526004810191909152602401602060405180830381600087803b1515610c9657600080fd5b5af11515610ca357600080fd5b5050506040518051915050600160a060020a038116151561087d57600080fd5b600454600160a060020a031681565b60025460009033600160a060020a039081169116141561087d57600160a060020a0382161515610d045750600061087d565b5060038054600160a060020a038316600160a060020a03199091161790556001919050565b610d31612503565b60008060008463ffffffff16604051805910610d4a5750595b90808252806020026020018201604052509350610d6f6000600663ffffffff611f7816565b92508463ffffffff168601915082821015610d8a5781610d8c565b825b91508590505b81811015610dd857610dad600060068363ffffffff611f8416565b848281518110610db957fe5b600160a060020a03909216602092830290910190910152600101610d92565b50505092915050565b600354600160a060020a031681565b80600160a060020a0316610e02611f99565b600160a060020a03167ff8bb25a0adf9f7a1e52d03be7682c4a079e3656657f2aa6a5fdfcd47428316bb60405160405180910390a350565b60025433600160a060020a0390811691161415610e6d5760058054600160a060020a031916600160a060020a0383161790555b50565b6000610e848160063363ffffffff611f9d16565b1515610e8f57600080fd5b610ea16000600963ffffffff611c9b16565b90506014600182011115610eb457600080fd5b610e6d600060096001840163ffffffff6119ef16565b6000610edd81600b63ffffffff611c9b16565b612710610ee8610f82565b600160a060020a03166318160ddd6040518163ffffffff1660e060020a028152600401602060405180830381600087803b1515610f2457600080fd5b5af11515610f3157600080fd5b50505060405180519050811515610f4457fe5b0402905090565b60025433600160a060020a0390811691161415610e6d5760048054600160a060020a038316600160a060020a031990911617905550565b600080610fae7f54696d65486f6c64657200000000000000000000000000000000000000000000610c4b565b905080600160a060020a031663a4d4f0d26040518163ffffffff1660e060020a028152600401602060405180830381600087803b1515610fed57600080fd5b5af11515610ffa57600080fd5b50505060405180519250505090565b60025433600160a060020a039081169116141561109057600454600160a060020a031663c375c2ef3060405160e060020a63ffffffff8416028152600160a060020a039091166004820152602401602060405180830381600087803b151561107057600080fd5b5af1151561107d57600080fd5b5050506040518051905050611090611fb3565b565b61109a611f99565b600160a060020a03167f5598993bcd3a366666d14de88f684a48ea3d9d25b3eed67f0ae0ebd5dc65601f8260405190815260200160405180910390a250565b60006111047f54696d65486f6c64657200000000000000000000000000000000000000000000610c4b565b600160a060020a031633600160a060020a031614151561112357600080fd5b61112b610f82565b9050600160a060020a038581169082161461114557610c44565b610c4481858585611fd6611ebc565b84600160a060020a0316611166611f99565b600160a060020a03167f02c09d2d47a17abb7adebf3db27d52f36f8f8ed7daf846731b4076b5e918edfc86868686604051938452602084019290925260408084019190915260608301919091526080909101905180910390a35050505050565b6111d9600060063363ffffffff611f9d16565b15156111e457600080fd5b5050565b60025460009033600160a060020a039081169116141561087d57600160a060020a038216151561121a5750600061087d565b600354600160a060020a03161561123c5760038054600160a060020a03191690555b5060028054600160a060020a038316600160a060020a03199091161790556001919050565b600061127481600963ffffffff611c9b16565b905090565b600254600160a060020a031681565b600061129c8160063363ffffffff611f9d16565b15156112a757600080fd5b6112b96000600963ffffffff611c9b16565b90508015156112c457fe5b610e6d60006009600019840163ffffffff6119ef16565b60025460009081908190819033600160a060020a0390811691161415610dd857600092505b85518310156114045785838151811061131557fe5b90602001906020020151915081600160a060020a03166370a082313060405160e060020a63ffffffff8416028152600160a060020a039091166004820152602401602060405180830381600087803b151561136f57600080fd5b5af1151561137c57600080fd5b505050604051805191505080156113f95781600160a060020a031663a9059cbb868360405160e060020a63ffffffff8516028152600160a060020a0390921660048301526024820152604401602060405180830381600087803b15156113e157600080fd5b5af115156113ee57600080fd5b505050604051805150505b600190920191611300565b50600195945050505050565b611423600060063363ffffffff611f9d16565b151561142e57600080fd5b611441600060063363ffffffff61203d16565b61144961188f565b600160a060020a031663ab0da5a93360405160e060020a63ffffffff8416028152600160a060020a039091166004820152602401600060405180830381600087803b151561149657600080fd5b5af115156114a357600080fd5b50505061109033612051565b60025460009033600160a060020a039081169116141561087d57600160a060020a03821615156114de57600080fd5b6108796000600c8463ffffffff611d4916565b6114f9611f99565b600160a060020a03167f9cf38cf2dbf9139f5c32639950507b10775fbbe0421f3e168bc2d1bb1ae3208c8260405190815260200160405180910390a250565b600061127481600663ffffffff611f7816565b600061127481600b63ffffffff611c9b16565b611566612503565b61156e612503565b611576612503565b61157e612503565b611586612503565b61158e612503565b611596612503565b600088516040518059106115a75750595b9080825280602002602001820160405250975088516040518059106115c95750595b9080825280602002602001820160405250965088516040518059106115eb5750595b90808252806020026020018201604052509550885160405180591061160d5750595b90808252806020026020018201604052509450885160405180591061162f5750595b9080825280602002602001820160405250935088516040518059106116515750595b9080825280602002602001820160405250925088516040518059106116735750595b90808252806020026020018201604052509150600090505b88518110156117ea578881815181106116a057fe5b90602001906020020151600160a060020a031663fbbf93a06040518163ffffffff1660e060020a02815260040161010060405180830381600087803b15156116e757600080fd5b5af115156116f457600080fd5b50505060405180519060200180519060200180519060200180519060200180519060200180519060200180519060200180519050508e888151811061173557fe5b9060200190602002018e898151811061174a57fe5b9060200190602002018e8a8151811061175f57fe5b9060200190602002018e8b8151811061177457fe5b9060200190602002018e8c8151811061178957fe5b9060200190602002018e8d8151811061179e57fe5b9060200190602002018e8e815181106117b357fe5b60209081029091010196909652951515909452941515909352939052929052919052600160a060020a03909116905260010161168b565b50919395979092949650565b6000806118227f557365724d616e61676572000000000000000000000000000000000000000000610c4b565b905080600160a060020a0316632aa09e5a8460405160e060020a63ffffffff8416028152600160a060020a039091166004820152602401602060405180830381600087803b151561187257600080fd5b5af1151561187f57600080fd5b5050506040518051949350505050565b600554600160a060020a031690565b60008060006118cc7f50656e64696e674d616e61676572000000000000000000000000000000000000610c4b565b915081600160a060020a031633600160a060020a03161415156119bf57600036604051808383808284378201915050925050506040518091039020905081600160a060020a0316630fee1efc82600036303360405160e060020a63ffffffff881602815260048101868152600160a060020a0380851660448401528316606483015260806024830190815260848301869052909160a40186868082843782019150509650505050505050602060405180830381600087803b151561198f57600080fd5b5af1151561199c57600080fd5b5050506040518051935050600183146119b557826119b8565b60035b92506119c4565b600192505b505090565b6000600182141580156119dd575060038214155b156119eb57610856826120a6565b5090565b825460018401548354600160a060020a03909216916353e7168b91908460405160e060020a63ffffffff8616028152600481019390935260248301919091526044820152606401600060405180830381600087803b1515611a4f57600080fd5b5af11515611a5c57600080fd5b505050505050565b611a6c61188f565b600160a060020a03166398d22b018260405160e060020a63ffffffff84160281526004810191909152602401600060405180830381600087803b1515611ab157600080fd5b5af11515611abe57600080fd5b50505050565b60025460009081908190819033600160a060020a03908116911614611ae857600080fd5b600160a060020a0386161515611afd57600080fd5b600454600160a060020a0316158015935080611b275750600454600160a060020a03878116911614155b15611b485760048054600160a060020a031916600160a060020a0388161790555b600454600160a060020a031691508163bc65792760405160e060020a63ffffffff83160281527f4d756c74694576656e7473486973746f727900000000000000000000000000006004820152602401602060405180830381600087803b1515611bb057600080fd5b5af11515611bbd57600080fd5b5050506040518051915050600160a060020a03811615801590611bee5750600554600160a060020a03828116911614155b15611c0f5760058054600160a060020a031916600160a060020a0383161790555b8415611c895781600160a060020a031663b7c46cd5308760405160e060020a63ffffffff8516028152600160a060020a0390921660048301526024820152604401602060405180830381600087803b1515611c6957600080fd5b5af11515611c7657600080fd5b50505060405180516001149050611c8957fe5b82156114045760069695505050505050565b815460018301548254600092600160a060020a0316916353aa3f5e9160405160e060020a63ffffffff851602815260048101929092526024820152604401602060405180830381600087803b151561187257600080fd5b815460018301548254600092600160a060020a03169163d3a396869160405160e060020a63ffffffff851602815260048101929092526024820152604401602060405180830381600087803b151561187257600080fd5b825460018401548354600160a060020a03909216916379a7cfee91908460405160e060020a63ffffffff861602815260048101939093526024830191909152600160a060020a03166044820152606401600060405180830381600087803b1515611a4f57600080fd5b611dc68383600160a060020a03841661210b565b505050565b611dd361188f565b600160a060020a0316639f24f2b6868686868660405160e060020a63ffffffff8816028152600160a060020a039095166004860152602485019390935260448401919091526064830152608482015260a401600060405180830381600087803b1515611e3e57600080fd5b5af11515611e4b57600080fd5b5050505050505050565b84600160a060020a0316634ca95be88585858560405160e060020a63ffffffff8716028152600160a060020a03948516600482015292909316602483015260448201526064810191909152608401600060405180830381600087803b1515611e3e57600080fd5b60008080611ed181600663ffffffff611f7816565b9250600090505b82811015611e4b57611ef3600060068363ffffffff611f8416565b915081600160a060020a03166312d428358860405160e060020a63ffffffff8416028152600160a060020a039091166004820152602401602060405180830381600087803b1515611f4357600080fd5b5af11515611f5057600080fd5b5050506040518051905015611f7057611f7082898989898963ffffffff16565b600101611ed8565b60006109a38383612120565b6000611f91848484612136565b949350505050565b3390565b6000611f918484600160a060020a03851661214d565b60025433600160a060020a03908116911614156110905733600160a060020a0316ff5b84600160a060020a0316639cd004488585858560405160e060020a63ffffffff8716028152600160a060020a03948516600482015292909316602483015260448201526064810191909152608401600060405180830381600087803b1515611e3e57600080fd5b611dc68383600160a060020a038416612164565b61205961188f565b600160a060020a0316635c053ca88260405160e060020a63ffffffff8416028152600160a060020a039091166004820152602401600060405180830381600087803b1515611ab157600080fd5b60006120b061188f565b600160a060020a031663df26ca088360405160e060020a63ffffffff84160281526004810191909152602401600060405180830381600087803b15156120f557600080fd5b5af1151561210257600080fd5b50929392505050565b611dc6838360ea60020a621cd95d0284612179565b60006109a3838360ea60020a621cd95d026121cd565b6000611f91848460ea60020a621cd95d02856121da565b6000611f91848460ea60020a621cd95d02856121f7565b611dc6838360ea60020a621cd95d0284612213565b6000612187858585856121f7565b1561219157610c44565b61219c8585856121cd565b60010190506121b185600286018584866122c1565b6121c185600186018585856122c1565b610c44858585846122e5565b6000611f9184848461236a565b60006121ee856002860185600186016123f7565b95945050505050565b6000612208858560010185856123f7565b151595945050505050565b6000806000612224878787876121f7565b151561222f576122b8565b61223a8787876121cd565b925061224b876002880187866123f7565b915061225c878760010187876123f7565b9050828110156122865761227687600188018785856122c1565b61228687600288018784866122c1565b6122978760018801878760006122c1565b6122a88760028801878660006122c1565b6122b887878760001987016122e5565b50505050505050565b610c448585858560405191825260208201526040908101905180910390208461241c565b835460018501548454600160a060020a03909216916353e7168b91908560405191825260208201526040908101905180910390208460405160e060020a63ffffffff8616028152600481019390935260248301919091526044820152606401600060405180830381600087803b151561235d57600080fd5b5af115156122b857600080fd5b825460018401548354600092600160a060020a0316916353aa3f5e9185604051918252602082015260409081019051809103902060405160e060020a63ffffffff851602815260048101929092526024820152604401602060405180830381600087803b15156123d957600080fd5b5af115156123e657600080fd5b505050604051805195945050505050565b60006121ee858585856040519182526020820152604090810190518091039020612494565b835460018501548454600160a060020a039092169163a14ff85791908560405191825260208201526040908101905180910390208460405160e060020a63ffffffff8616028152600481019390935260248301919091526044820152606401600060405180830381600087803b151561235d57600080fd5b825460018401548354600092600160a060020a0316916337d9d7fc9185604051918252602082015260409081019051809103902060405160e060020a63ffffffff851602815260048101929092526024820152604401602060405180830381600087803b15156123d957600080fd5b60206040519081016040526000815290565b8254600160a060020a031916600160a060020a0392909216919091178255600190910155565b6111e48282612561565b8154612551908261262a565b9055565b8154612551908261262a565b6125a282826040519081527f636f756e7400000000000000000000000000000000000000000000000000000060208201526025016040518091039020612545565b6125e682600101826040519081527f696e64657865730000000000000000000000000000000000000000000000000060208201526027016040518091039020612545565b6111e482600201826040519081527f76616c756573000000000000000000000000000000000000000000000000000060208201526026016040518091039020612545565b81151580612636575080155b156111e457600080fd5b8154612551908261262a5600a165627a7a72305820e87eaa5ac0bcf97cc6fab0336ef6b06c6c329623f454ddd86a57b2ef63b6d7ec0029",
  "source": "/**\n * Copyright 20172018, LaborX PTY\n * Licensed under the AGPL Version 3 license.\n */\n\npragma solidity ^0.4.21;\n\n\nimport \"../core/common/BaseManager.sol\";\nimport \"../core/erc20/ERC20Interface.sol\";\nimport \"../core/common/OwnedInterface.sol\";\nimport \"../core/common/ListenerInterface.sol\";\nimport \"../core/event/MultiEventsHistory.sol\";\nimport \"../timeholder/TimeHolderInterface.sol\";\nimport \"./PollInterface.sol\";\nimport \"./PollFactory.sol\";\nimport \"./VotingManagerEmitter.sol\";\n\n\n/// @title Contract is supposed to the central point to enter to manipulate (create and navigate) polls.\n/// It aggregates:\n/// - creation of a new poll,\n/// - tracking a number of currently active polls,\n/// - getting paginated lists of all created polls,\n/// - implements ListenerInterface to support and use TimeHolder's functionality\ncontract VotingManager is BaseManager, VotingManagerEmitter, HolderListenerInterface, PollListenerInterface {\n\n    /** Constants */\n\n    uint8 constant DEFAULT_SHARES_PERCENT = 1;\n    uint8 constant ACTIVE_POLLS_MAX = 20;\n\n\n    /** Error codes */\n\n    uint constant ERROR_VOTING_ACTIVE_POLL_LIMIT_REACHED = 27001;\n\n\n    /** Storage keys */\n\n    /** @dev set(address) stands for set of polls  */\n    StorageInterface.AddressesSet pollsStorage;\n\n    /** @dev a number of active polls */\n    StorageInterface.UInt activeCountStorage;\n\n    /** @dev address of a poll factory */\n    StorageInterface.Address pollsFactoryStorage;\n\n    /** @dev percent of shares to treat a poll as finished */\n    StorageInterface.UInt sharesPercentStorage;\n\n    /** @dev backend address used for polls */\n    StorageInterface.Address pollBackendStorage;\n\n    /** Modifiers */\n\n    /// @dev Guards invocation only to TimeHolder\n    modifier onlyTimeHolder {\n        if (msg.sender != lookupManager(\"TimeHolder\")) revert();\n        _;\n    }\n\n    /// @dev Guards invocation only to a poll registered in this manager\n    modifier onlyPoll {\n        if (!store.includes(pollsStorage, msg.sender)) revert();\n        _;\n    }\n\n\n    /** PUBLIC section */\n\n    /// @notice Contstructor\n    function VotingManager(Storage _store, bytes32 _crate) BaseManager(_store, _crate) public {\n        pollsStorage.init(\"pollsStorage\");\n        pollsFactoryStorage.init(\"pollsFactoryStorage\");\n        sharesPercentStorage.init(\"sharesPercentStorage\");\n        activeCountStorage.init(\"activeCountStorage\");\n        pollBackendStorage.init(\"pollBackendStorage\");\n    }\n\n    /// @notice Initializes contract\n    /// @param _contractsManager address of a contracts manager\n    /// @param _pollsFactory address of a poll factory\n    /// @return _resultCode result code of an operation. REINITIALIZED if it was once initialized.\n    function init(\n        address _contractsManager, \n        address _pollsFactory, \n        address _pollBackend\n    ) \n    onlyContractOwner \n    public \n    returns (uint _resultCode) \n    {\n        require(_pollBackend != 0x0);\n\n        _resultCode = BaseManager.init(_contractsManager, \"VotingManager\");\n\n        if (_resultCode != OK && _resultCode != REINITIALIZED) {\n            return _resultCode;\n        }\n\n        if (store.get(sharesPercentStorage) == 0) {\n            store.set(sharesPercentStorage, DEFAULT_SHARES_PERCENT);\n        }\n\n        if (store.get(pollsFactoryStorage) != _pollsFactory) {\n            store.set(pollsFactoryStorage, _pollsFactory);\n        }\n\n        if (store.get(pollBackendStorage) != _pollBackend) {\n            store.set(pollBackendStorage, _pollBackend);\n        }\n\n        return OK;\n    }\n\n    /// @notice Gets votes limit (or number of tokens to be voted to treat a poll as completed)\n    /// @return a number of tokens\n    function getVoteLimit() public view returns (uint) {\n        return ERC20Interface(voteShares()).totalSupply() / 10000 * store.get(sharesPercentStorage); // @see sharesPercentStorage description\n    }\n\n    /// @notice Sets votes percent. Multisignature required.\n    /// @param _percent a value of percent for a vote limit. Should be between 0 and 10000 (because not float in a system)\n    /// @return _resultCode result code of an operation\n    function setVotesPercent(uint _percent) public returns (uint _resultCode) {\n        require(_percent > 0 && _percent < 10000);\n\n        _resultCode = multisig();\n        if (_resultCode != OK) {\n            return _checkAndEmitError(_resultCode);\n        }\n\n        store.set(sharesPercentStorage, _percent);\n\n        _emitSharesPercentUpdated(_percent);\n        return OK;\n    }\n\n    /// @notice Gets shares contract that is set up as default in TimeHolder\n    function voteShares() public view returns (address) {\n        TimeHolderInterface timeHolder = TimeHolderInterface(lookupManager(\"TimeHolder\"));\n        return timeHolder.getDefaultShares();\n    }\n\n    /// @notice Returns votes percent value\n    function getVotesPercent() public view returns (uint) {\n        return store.get(sharesPercentStorage);\n    }\n\n    /// @notice Sets poll backend address that will be used for future polls\n    function setBackend(address _backend) onlyContractOwner public returns (uint) {\n        require(_backend != 0x0);\n\n        store.set(pollBackendStorage, _backend);\n        return OK;\n    }\n\n    /// @notice Gets a number of active polls. Couldn't be more than ACTIVE_POLLS_MAX\n    /// @return a number of active polls\n    function getActivePollsCount() public view returns (uint) {\n        return store.get(activeCountStorage);\n    }\n\n    /// @dev Gets a number of polls registered in the manager. Includes a number of both active and inactive polls\n    /// @return a number of polls\n    function getPollsCount() public view returns (uint) {\n        return store.count(pollsStorage);\n    }\n\n    /// @notice Gets a paginated results of polls stored in the manager. Could be mixed with getPollsCount() passed as\n    /// a pageSize to get full list of polls at one call.\n    /// @param _startIndex index of a poll to start. For first call should be equal to `0`\n    /// @param _pageSize size of an output list\n    /// @return {\n    ///   \"_polls\": \"list of polls\",\n    ///   \"_nextIndex\": \"index that could be used for the next call as _startIndex\"\n    /// }\n    function getPollsPaginated(uint _startIndex, uint32 _pageSize) public view returns (address[] _polls) {\n        _polls = new address[](_pageSize);\n        uint _pollsCount = store.count(pollsStorage);\n        uint _lastIndex = _startIndex + _pageSize;\n        _lastIndex = (_lastIndex >= _pollsCount) ? _pollsCount : _lastIndex;\n        for (uint _idx = _startIndex; _idx < _lastIndex; ++_idx) {\n            _polls[_idx] = store.get(pollsStorage, _idx);\n        }\n    }\n\n    /// @notice Creates a brand new poll with provided description and properties.\n    /// Emits PollCreated event in case of success.\n    ///\n    /// @param _optionsCount number of options provided for a poll\n    /// @param _detailsIpfsHash ipfs hash of poll's description and other details\n    /// @param _votelimit limit when poll would be treated as completed\n    /// @param _deadline time after which poll isn't active anymore\n    ///\n    /// @return OK if all went all right, error code otherwise\n    function createPoll(\n        uint _optionsCount, \n        bytes32 _detailsIpfsHash, \n        uint _votelimit, \n        uint _deadline\n    ) \n    public \n    returns (uint) \n    {\n        PollFactory _pollsFactory = PollFactory(store.get(pollsFactoryStorage));\n        address _poll = _pollsFactory.createPoll(contractsManager, store.get(pollBackendStorage), _optionsCount, _detailsIpfsHash, _votelimit, _deadline);\n\n        if (!MultiEventsHistory(getEventsHistory()).authorize(_poll)) {\n            revert();\n        }\n\n        if (!OwnedInterface(_poll).transferContractOwnership(msg.sender)) {\n            revert();\n        }\n\n        store.add(pollsStorage, _poll);\n\n        _emitPollCreated(_poll, _optionsCount, _detailsIpfsHash, _votelimit, _deadline);\n        return OK;\n    }\n\n    /** PollListenerInterface interface */\n\n    /// @notice Emits PollVoted event in case of successful voting.\n    /// @dev DO NOT ALL IT DIRECTLY. Used by a poll contract.\n    function onVote(address, uint8) onlyPoll public {\n    }\n\n    /// @notice Emits PollRemoved event in case of successful removal.\n    /// @dev DO NOT ALL IT DIRECTLY. Used by a poll contract.\n    function onRemovePoll() onlyPoll public {\n        store.remove(pollsStorage, msg.sender);\n        MultiEventsHistory(getEventsHistory()).reject(msg.sender);\n        _emitPollRemoved(msg.sender);\n    }\n\n    /// @notice Emits PollActivated event in case of successful activation.\n    /// @dev DO NOT ALL IT DIRECTLY. Used by a poll contract.\n    function onActivatePoll() onlyPoll public {\n        uint _activeCount = store.get(activeCountStorage);\n        if (_activeCount + 1 > ACTIVE_POLLS_MAX) {\n            revert();\n        }\n\n        store.set(activeCountStorage, _activeCount + 1);\n    }\n\n    /// @notice Emits PollActivated event in case of successful ending (completing).\n    /// @dev DO NOT ALL IT DIRECTLY. Used by a poll contract.\n    function onEndPoll() onlyPoll public {\n        uint _activeCount = store.get(activeCountStorage);\n        assert(_activeCount != 0);\n\n        store.set(activeCountStorage, _activeCount - 1);\n    }\n\n    /// @notice Gets descriptions for a list of polls\n    /// @param _polls a list of polls\n    /// @return {\n    ///   \"_owner\": \"poll owners\",\n    ///   \"_detailsIpfsHash\": poll ipfs hashes\",\n    ///   \"_votelimit\": \"poll vote limits\",\n    ///   \"_deadline\": \"poll deadlines\",\n    ///   \"_status\": \"poll statuses\",\n    ///   \"_active\": \"poll activates\",\n    ///   \"_creation\": \"poll creation times\"\n    /// }\n    function getPollsDetails(address[] _polls) public view returns (\n        address[] _owner,\n        bytes32[] _detailsIpfsHash,\n        uint[] _votelimit,\n        uint[] _deadline,\n        bool[] _status,\n        bool[] _active,\n        uint[] _creation\n    ) {\n        _owner = new address[](_polls.length);\n        _detailsIpfsHash = new bytes32[](_polls.length);\n        _votelimit = new uint[](_polls.length);\n        _deadline = new uint[](_polls.length);\n        _status = new bool[](_polls.length);\n        _active = new bool[](_polls.length);\n        _creation = new uint[](_polls.length);\n\n        for (uint _idx = 0; _idx < _polls.length; ++_idx) {\n            (\n                _owner[_idx], \n                _detailsIpfsHash[_idx], \n                _votelimit[_idx], \n                _deadline[_idx], \n                _status[_idx], \n                _active[_idx], \n                _creation[_idx],\n            ) \n            = PollInterface(_polls[_idx]).getDetails();\n        }\n    }\n\n    /** ListenerInterface interface */\n\n    function tokenDeposit(\n        address _token, \n        address _who, \n        uint _amount, \n        uint _total\n    )\n    onlyTimeHolder\n    public\n    {\n        address _voteShares = voteShares();\n        if (_token != _voteShares) {\n            return;\n        }\n\n        _forEachPollMembership(_voteShares, _who, _amount, _total, _deposit);\n    }\n\n    function tokenWithdrawn(\n        address _token, \n        address _who, \n        uint _amount, \n        uint _total\n    )\n    onlyTimeHolder\n    public\n    {\n        address _voteShares = voteShares();\n        if (_token != _voteShares) {\n            return;\n        }\n\n        _forEachPollMembership(_voteShares, _who, _amount, _total, _withdrawn);\n    }\n\n    /// @dev Don't allow to receive any Ether\n    function () public {\n        revert();\n    }\n\n    /** PRIVATE section */\n\n    function _deposit(address _entity, address _token, address _address, uint _amount, uint _total) private {\n        HolderListenerInterface(_entity).tokenDeposit(_token, _address, _amount, _total);\n    }\n\n    function _withdrawn(address _entity, address _token, address _address, uint _amount, uint _total) private {\n        HolderListenerInterface(_entity).tokenWithdrawn(_token, _address, _amount, _total);\n    }\n\n    function _forEachPollMembership(\n        address _token, \n        address _address, \n        uint _amount, \n        uint _total, \n        function (address, address, address, uint, uint) _action\n    ) \n    private \n    {\n        uint _count = store.count(pollsStorage);\n        address _poll;\n        for (uint _idx = 0; _idx < _count; ++_idx) {\n            _poll = store.get(pollsStorage, _idx);\n            if (PollInterface(_poll).hasMember(_address)) {\n                _action(_poll, _token, _address, _amount, _total);\n            }\n        }\n    }\n\n\n    /** PRIVATE: events emitting */\n\n    function _emitError(uint _error) internal returns (uint) {\n        VotingManagerEmitter(getEventsHistory()).emitError(_error);\n        return _error;\n    }\n\n    function _checkAndEmitError(uint _error) internal returns (uint) {\n        if (_error != OK && _error != MULTISIG_ADDED) {\n            return _emitError(_error);\n        }\n\n        return _error;\n    }\n\n    function _emitSharesPercentUpdated(uint _percent) internal {\n        VotingManagerEmitter(getEventsHistory()).emitVotingSharesPercentUpdated(_percent);\n    }\n\n    function _emitPollCreated(address _pollAddress, uint _optionsCount, bytes32 _detailsIpfsHash, uint _votelimit, uint _deadline) internal {\n        VotingManagerEmitter(getEventsHistory()).emitPollCreated(_pollAddress, _optionsCount, _detailsIpfsHash, _votelimit, _deadline);\n    }\n    function _emitPollRemoved(address _pollAddress) internal {\n        VotingManagerEmitter(getEventsHistory()).emitPollRemoved(_pollAddress);\n    }\n}\n",
  "sourcePath": "/Users/mikefluff/Documents/Programming/Chronobank/test/SmartContracts/contracts/vote/VotingManager.sol",
  "compiler": {
    "name": "solc",
    "version": "0.4.21+commit.dfe3193c.Emscripten.clang"
  },
  "schemaVersion": "2.0.0",
  "updatedAt": "2018-04-11T08:21:52.039Z"
}