{
  "contractName": "VotingManager",
  "abi": [
    {
      "constant": false,
      "inputs": [],
      "name": "claimContractOwnership",
      "outputs": [
        {
          "name": "",
          "type": "bool"
        }
      ],
      "payable": false,
      "stateMutability": "nonpayable",
      "type": "function"
    },
    {
      "constant": true,
      "inputs": [
        {
          "name": "_identifier",
          "type": "bytes32"
        }
      ],
      "name": "lookupManager",
      "outputs": [
        {
          "name": "manager",
          "type": "address"
        }
      ],
      "payable": false,
      "stateMutability": "view",
      "type": "function"
    },
    {
      "constant": true,
      "inputs": [],
      "name": "contractsManager",
      "outputs": [
        {
          "name": "",
          "type": "address"
        }
      ],
      "payable": false,
      "stateMutability": "view",
      "type": "function"
    },
    {
      "constant": false,
      "inputs": [
        {
          "name": "_to",
          "type": "address"
        }
      ],
      "name": "changeContractOwnership",
      "outputs": [
        {
          "name": "",
          "type": "bool"
        }
      ],
      "payable": false,
      "stateMutability": "nonpayable",
      "type": "function"
    },
    {
      "constant": true,
      "inputs": [],
      "name": "pendingContractOwner",
      "outputs": [
        {
          "name": "",
          "type": "address"
        }
      ],
      "payable": false,
      "stateMutability": "view",
      "type": "function"
    },
    {
      "constant": false,
      "inputs": [
        {
          "name": "pollAddress",
          "type": "address"
        }
      ],
      "name": "emitPollRemoved",
      "outputs": [],
      "payable": false,
      "stateMutability": "nonpayable",
      "type": "function"
    },
    {
      "constant": false,
      "inputs": [
        {
          "name": "_eventsHistory",
          "type": "address"
        }
      ],
      "name": "setEventsHistory",
      "outputs": [],
      "payable": false,
      "stateMutability": "nonpayable",
      "type": "function"
    },
    {
      "constant": false,
      "inputs": [
        {
          "name": "_contractsManager",
          "type": "address"
        }
      ],
      "name": "setContractsManager",
      "outputs": [],
      "payable": false,
      "stateMutability": "nonpayable",
      "type": "function"
    },
    {
      "constant": false,
      "inputs": [],
      "name": "destroy",
      "outputs": [],
      "payable": false,
      "stateMutability": "nonpayable",
      "type": "function"
    },
    {
      "constant": false,
      "inputs": [
        {
          "name": "_percent",
          "type": "uint256"
        }
      ],
      "name": "emitVotingSharesPercentUpdated",
      "outputs": [],
      "payable": false,
      "stateMutability": "nonpayable",
      "type": "function"
    },
    {
      "constant": false,
      "inputs": [
        {
          "name": "_pollAddress",
          "type": "address"
        },
        {
          "name": "_optionsCount",
          "type": "uint256"
        },
        {
          "name": "_detailsIpfsHash",
          "type": "bytes32"
        },
        {
          "name": "_votelimit",
          "type": "uint256"
        },
        {
          "name": "_deadline",
          "type": "uint256"
        }
      ],
      "name": "emitPollCreated",
      "outputs": [],
      "payable": false,
      "stateMutability": "nonpayable",
      "type": "function"
    },
    {
      "constant": false,
      "inputs": [
        {
          "name": "_to",
          "type": "address"
        }
      ],
      "name": "transferContractOwnership",
      "outputs": [
        {
          "name": "",
          "type": "bool"
        }
      ],
      "payable": false,
      "stateMutability": "nonpayable",
      "type": "function"
    },
    {
      "constant": true,
      "inputs": [],
      "name": "contractOwner",
      "outputs": [
        {
          "name": "",
          "type": "address"
        }
      ],
      "payable": false,
      "stateMutability": "view",
      "type": "function"
    },
    {
      "constant": false,
      "inputs": [
        {
          "name": "tokens",
          "type": "address[]"
        },
        {
          "name": "_to",
          "type": "address"
        }
      ],
      "name": "withdrawnTokens",
      "outputs": [
        {
          "name": "",
          "type": "uint256"
        }
      ],
      "payable": false,
      "stateMutability": "nonpayable",
      "type": "function"
    },
    {
      "constant": false,
      "inputs": [
        {
          "name": "errorCode",
          "type": "uint256"
        }
      ],
      "name": "emitError",
      "outputs": [],
      "payable": false,
      "stateMutability": "nonpayable",
      "type": "function"
    },
    {
      "constant": true,
      "inputs": [
        {
          "name": "key",
          "type": "address"
        }
      ],
      "name": "isAuthorized",
      "outputs": [
        {
          "name": "",
          "type": "bool"
        }
      ],
      "payable": false,
      "stateMutability": "view",
      "type": "function"
    },
    {
      "constant": true,
      "inputs": [],
      "name": "getEventsHistory",
      "outputs": [
        {
          "name": "",
          "type": "address"
        }
      ],
      "payable": false,
      "stateMutability": "view",
      "type": "function"
    },
    {
      "inputs": [
        {
          "name": "_store",
          "type": "address"
        },
        {
          "name": "_crate",
          "type": "bytes32"
        }
      ],
      "payable": false,
      "stateMutability": "nonpayable",
      "type": "constructor"
    },
    {
      "payable": false,
      "stateMutability": "nonpayable",
      "type": "fallback"
    },
    {
      "anonymous": false,
      "inputs": [
        {
          "indexed": true,
          "name": "self",
          "type": "address"
        },
        {
          "indexed": true,
          "name": "pollAddress",
          "type": "address"
        },
        {
          "indexed": false,
          "name": "optionsCount",
          "type": "uint256"
        },
        {
          "indexed": false,
          "name": "detailsIpfsHash",
          "type": "bytes32"
        },
        {
          "indexed": false,
          "name": "votelimit",
          "type": "uint256"
        },
        {
          "indexed": false,
          "name": "deadline",
          "type": "uint256"
        }
      ],
      "name": "PollCreated",
      "type": "event"
    },
    {
      "anonymous": false,
      "inputs": [
        {
          "indexed": true,
          "name": "self",
          "type": "address"
        },
        {
          "indexed": true,
          "name": "pollAddress",
          "type": "address"
        }
      ],
      "name": "PollRemoved",
      "type": "event"
    },
    {
      "anonymous": false,
      "inputs": [
        {
          "indexed": true,
          "name": "self",
          "type": "address"
        },
        {
          "indexed": false,
          "name": "percent",
          "type": "uint256"
        }
      ],
      "name": "VotingSharesPercentUpdated",
      "type": "event"
    },
    {
      "anonymous": false,
      "inputs": [
        {
          "indexed": true,
          "name": "self",
          "type": "address"
        },
        {
          "indexed": false,
          "name": "errorCode",
          "type": "uint256"
        }
      ],
      "name": "Error",
      "type": "event"
    },
    {
      "constant": false,
      "inputs": [
        {
          "name": "_contractsManager",
          "type": "address"
        },
        {
          "name": "_pollsFactory",
          "type": "address"
        },
        {
          "name": "_pollBackend",
          "type": "address"
        }
      ],
      "name": "init",
      "outputs": [
        {
          "name": "_resultCode",
          "type": "uint256"
        }
      ],
      "payable": false,
      "stateMutability": "nonpayable",
      "type": "function"
    },
    {
      "constant": true,
      "inputs": [],
      "name": "getVoteLimit",
      "outputs": [
        {
          "name": "",
          "type": "uint256"
        }
      ],
      "payable": false,
      "stateMutability": "view",
      "type": "function"
    },
    {
      "constant": false,
      "inputs": [
        {
          "name": "_percent",
          "type": "uint256"
        }
      ],
      "name": "setVotesPercent",
      "outputs": [
        {
          "name": "_resultCode",
          "type": "uint256"
        }
      ],
      "payable": false,
      "stateMutability": "nonpayable",
      "type": "function"
    },
    {
      "constant": true,
      "inputs": [],
      "name": "getVotesPercent",
      "outputs": [
        {
          "name": "",
          "type": "uint256"
        }
      ],
      "payable": false,
      "stateMutability": "view",
      "type": "function"
    },
    {
      "constant": false,
      "inputs": [
        {
          "name": "_backend",
          "type": "address"
        }
      ],
      "name": "setBackend",
      "outputs": [
        {
          "name": "",
          "type": "uint256"
        }
      ],
      "payable": false,
      "stateMutability": "nonpayable",
      "type": "function"
    },
    {
      "constant": true,
      "inputs": [],
      "name": "getActivePollsCount",
      "outputs": [
        {
          "name": "",
          "type": "uint256"
        }
      ],
      "payable": false,
      "stateMutability": "view",
      "type": "function"
    },
    {
      "constant": true,
      "inputs": [],
      "name": "getPollsCount",
      "outputs": [
        {
          "name": "",
          "type": "uint256"
        }
      ],
      "payable": false,
      "stateMutability": "view",
      "type": "function"
    },
    {
      "constant": true,
      "inputs": [
        {
          "name": "_startIndex",
          "type": "uint256"
        },
        {
          "name": "_pageSize",
          "type": "uint32"
        }
      ],
      "name": "getPollsPaginated",
      "outputs": [
        {
          "name": "_polls",
          "type": "address[]"
        }
      ],
      "payable": false,
      "stateMutability": "view",
      "type": "function"
    },
    {
      "constant": false,
      "inputs": [
        {
          "name": "_optionsCount",
          "type": "uint256"
        },
        {
          "name": "_detailsIpfsHash",
          "type": "bytes32"
        },
        {
          "name": "_votelimit",
          "type": "uint256"
        },
        {
          "name": "_deadline",
          "type": "uint256"
        }
      ],
      "name": "createPoll",
      "outputs": [
        {
          "name": "",
          "type": "uint256"
        }
      ],
      "payable": false,
      "stateMutability": "nonpayable",
      "type": "function"
    },
    {
      "constant": false,
      "inputs": [
        {
          "name": "",
          "type": "address"
        },
        {
          "name": "",
          "type": "uint8"
        }
      ],
      "name": "onVote",
      "outputs": [],
      "payable": false,
      "stateMutability": "nonpayable",
      "type": "function"
    },
    {
      "constant": false,
      "inputs": [],
      "name": "onRemovePoll",
      "outputs": [],
      "payable": false,
      "stateMutability": "nonpayable",
      "type": "function"
    },
    {
      "constant": false,
      "inputs": [],
      "name": "onActivatePoll",
      "outputs": [],
      "payable": false,
      "stateMutability": "nonpayable",
      "type": "function"
    },
    {
      "constant": false,
      "inputs": [],
      "name": "onEndPoll",
      "outputs": [],
      "payable": false,
      "stateMutability": "nonpayable",
      "type": "function"
    },
    {
      "constant": true,
      "inputs": [
        {
          "name": "_polls",
          "type": "address[]"
        }
      ],
      "name": "getPollsDetails",
      "outputs": [
        {
          "name": "_owner",
          "type": "address[]"
        },
        {
          "name": "_detailsIpfsHash",
          "type": "bytes32[]"
        },
        {
          "name": "_votelimit",
          "type": "uint256[]"
        },
        {
          "name": "_deadline",
          "type": "uint256[]"
        },
        {
          "name": "_status",
          "type": "bool[]"
        },
        {
          "name": "_active",
          "type": "bool[]"
        },
        {
          "name": "_creation",
          "type": "uint256[]"
        }
      ],
      "payable": false,
      "stateMutability": "view",
      "type": "function"
    },
    {
      "constant": false,
      "inputs": [
        {
          "name": "_token",
          "type": "address"
        },
        {
          "name": "_who",
          "type": "address"
        },
        {
          "name": "_amount",
          "type": "uint256"
        },
        {
          "name": "_total",
          "type": "uint256"
        }
      ],
      "name": "tokenDeposit",
      "outputs": [],
      "payable": false,
      "stateMutability": "nonpayable",
      "type": "function"
    },
    {
      "constant": false,
      "inputs": [
        {
          "name": "_token",
          "type": "address"
        },
        {
          "name": "_who",
          "type": "address"
        },
        {
          "name": "_amount",
          "type": "uint256"
        },
        {
          "name": "_total",
          "type": "uint256"
        }
      ],
      "name": "tokenWithdrawn",
      "outputs": [],
      "payable": false,
      "stateMutability": "nonpayable",
      "type": "function"
    },
    {
      "constant": true,
      "inputs": [],
      "name": "voteShares",
      "outputs": [
        {
          "name": "",
          "type": "address"
        }
      ],
      "payable": false,
      "stateMutability": "view",
      "type": "function"
    }
  ],
  "bytecode": "0x606060405234156200001057600080fd5b60405160408062002aca833981016040528080519190602001805191508290508181818181620000516000838364010000000062002616620001ba82021704565b505060028054600160a060020a03338116600160a060020a03199283161790925560058054309093169290911691909117905550620000c69250600691507f706f6c6c7353746f72616765000000000000000000000000000000000000000090506401000000006200263c620001e082021704565b62000101600a7f706f6c6c73466163746f727953746f726167650000000000000000000000000064010000000062002646620001fe82021704565b6200013c600b7f73686172657350657263656e7453746f7261676500000000000000000000000064010000000062002646620001fe82021704565b6200017760097f616374697665436f756e7453746f72616765000000000000000000000000000064010000000062002646620001fe82021704565b620001b2600c7f706f6c6c4261636b656e6453746f72616765000000000000000000000000000064010000000062002646620001fe82021704565b505062000341565b8254600160a060020a031916600160a060020a0392909216919091178255600190910155565b620001fa8282640100000000620026626200021e82021704565b5050565b81546200021a90826401000000006200272b6200032982021704565b9055565b6200027582826040519081527f636f756e7400000000000000000000000000000000000000000000000000000060208201526025016040518091039020620001fe6401000000000262002646176401000000009004565b620002cf82600101826040519081527f696e64657865730000000000000000000000000000000000000000000000000060208201526027016040518091039020620001fe6401000000000262002646176401000000009004565b620001fa82600201826040519081527f76616c756573000000000000000000000000000000000000000000000000000060208201526026016040518091039020620001fe6401000000000262002646176401000000009004565b8115158062000336575080155b15620001fa57600080fd5b61277980620003516000396000f3006060604052600436106101925763ffffffff60e060020a600035041663023fa93f81146101a2578063184b9559146101ca5780633c101a3e146101f55780634592cd1d146102145780634ca95be81461023b5780634fe590121461026857806353253d311461029a578063557f4bc9146102ad57806356f80c3c146102cc5780635aa77d3c1461033e5780635c053ca8146103515780636521afd714610370578063654fd7d61461038f578063657e8c13146103a257806371d3b573146103b55780637b144b9c146103d457806383197ef0146103e757806398d22b01146103fa5780639cd00448146104105780639f24f2b61461043b578063a2ad5faa14610466578063a843c51f1461048b578063a9581703146104aa578063ce606ee0146104bd578063cfe0784a146104d0578063d8f9659b146104e3578063d9b35f8a1461053d578063da7fc24f14610550578063df26ca081461056f578063e099591614610585578063ec6dfab714610598578063fb39e8b3146105ab578063fe9fbb80146107ec578063fff10aba1461080b575b341561019d57600080fd5b600080fd5b34156101ad57600080fd5b6101b860043561081e565b60405190815260200160405180910390f35b34156101d557600080fd5b6101b8600160a060020a0360043581169060243581169060443516610882565b341561020057600080fd5b6101b86004356024356044356064356109aa565b341561021f57600080fd5b610227610ba3565b604051901515815260200160405180910390f35b341561024657600080fd5b610266600160a060020a0360043581169060243516604435606435610bf0565b005b341561027357600080fd5b61027e600435610c72565b604051600160a060020a03909116815260200160405180910390f35b34156102a557600080fd5b61027e610cf6565b34156102b857600080fd5b610227600160a060020a0360043516610d05565b34156102d757600080fd5b6102eb60043563ffffffff60243516610d5c565b60405160208082528190810183818151815260200191508051906020019060200280838360005b8381101561032a578082015183820152602001610312565b505050509050019250505060405180910390f35b341561034957600080fd5b61027e610e14565b341561035c57600080fd5b610266600160a060020a0360043516610e23565b341561037b57600080fd5b610266600160a060020a0360043516610e6d565b341561039a57600080fd5b610266610ea3565b34156103ad57600080fd5b6101b8610efd565b34156103c057600080fd5b610266600160a060020a0360043516610f8b565b34156103df57600080fd5b61027e610fc2565b34156103f257600080fd5b610266611056565b341561040557600080fd5b6102666004356110ec565b341561041b57600080fd5b610266600160a060020a0360043581169060243516604435606435611133565b341561044657600080fd5b610266600160a060020a03600435166024356044356064356084356111ae565b341561047157600080fd5b610266600160a060020a036004351660ff60243516611220565b341561049657600080fd5b610227600160a060020a0360043516611242565b34156104b557600080fd5b6101b86112bb565b34156104c857600080fd5b61027e6112d3565b34156104db57600080fd5b6102666112e2565b34156104ee57600080fd5b6101b8600460248135818101908301358060208181020160405190810160405280939291908181526020018383602002808284375094965050509235600160a060020a03169250611335915050565b341561054857600080fd5b610266611484565b341561055b57600080fd5b6101b8600160a060020a0360043516611527565b341561057a57600080fd5b610266600435611569565b341561059057600080fd5b6101b86115b0565b34156105a357600080fd5b6101b86115c3565b34156105b657600080fd5b6105fa60046024813581810190830135806020818102016040519081016040528093929190818152602001838360200280828437509496506115d695505050505050565b604051808060200180602001806020018060200180602001806020018060200188810388528f818151815260200191508051906020019060200280838360005b8381101561065257808201518382015260200161063a565b5050505090500188810387528e818151815260200191508051906020019060200280838360005b83811015610691578082015183820152602001610679565b5050505090500188810386528d818151815260200191508051906020019060200280838360005b838110156106d05780820151838201526020016106b8565b5050505090500188810385528c818151815260200191508051906020019060200280838360005b8381101561070f5780820151838201526020016106f7565b5050505090500188810384528b818151815260200191508051906020019060200280838360005b8381101561074e578082015183820152602001610736565b5050505090500188810383528a818151815260200191508051906020019060200280838360005b8381101561078d578082015183820152602001610775565b50505050905001888103825289818151815260200191508051906020019060200280838360005b838110156107cc5780820151838201526020016107b4565b505050509050019e50505050505050505050505050505060405180910390f35b34156107f757600080fd5b610227600160a060020a036004351661187c565b341561081657600080fd5b61027e611922565b60008082118015610830575061271082105b151561083b57600080fd5b610843611931565b90506001811461085d5761085681611a69565b905061087d565b6108706000600b8463ffffffff611a8f16565b61087982611b08565b5060015b919050565b60025460009033600160a060020a03908116911614156109a357600160a060020a03821615156108b157600080fd5b6108db847f566f74696e674d616e6167657200000000000000000000000000000000000000611b6c565b9050600181141580156108ef575060068114155b156108f9576109a3565b61090b6000600b63ffffffff611d5d16565b1515610925576109256000600b600163ffffffff611a8f16565b600160a060020a0383166109416000600a63ffffffff611dbc16565b600160a060020a031614610962576109626000600a8563ffffffff611e1b16565b600160a060020a03821661097e6000600c63ffffffff611dbc16565b600160a060020a03161461099f5761099f6000600c8463ffffffff611e1b16565b5060015b9392505050565b600080806109bf81600a63ffffffff611dbc16565b600454909250600160a060020a0380841691636a43b85591166109ea6000600c63ffffffff611dbc16565b8a8a8a8a60006040516020015260405160e060020a63ffffffff8916028152600160a060020a03968716600482015294909516602485015260448401929092526064830152608482015260a481019190915260c401602060405180830381600087803b1515610a5857600080fd5b6102c65a03f11515610a6957600080fd5b505050604051805190509050610a7d611922565b600160a060020a031663b6a5d7de8260006040516020015260405160e060020a63ffffffff8416028152600160a060020a039091166004820152602401602060405180830381600087803b1515610ad357600080fd5b6102c65a03f11515610ae457600080fd5b505050604051805190501515610af957600080fd5b80600160a060020a031663a843c51f3360006040516020015260405160e060020a63ffffffff8416028152600160a060020a039091166004820152602401602060405180830381600087803b1515610b5057600080fd5b6102c65a03f11515610b6157600080fd5b505050604051805190501515610b7657600080fd5b610b89600060068363ffffffff611e8416565b610b968188888888611e9d565b5060019695505050505050565b60035460009033600160a060020a03908116911614610bc457506000610bed565b506003805460028054600160a060020a0319908116600160a060020a0384161790915516905560015b90565b6000610c1b7f54696d65486f6c64657200000000000000000000000000000000000000000000610c72565b600160a060020a031633600160a060020a0316141515610c3a57600080fd5b610c42610fc2565b9050600160a060020a0385811690821614610c5c57610c6b565b610c6b81858585611f2b611f92565b5050505050565b600454600090600160a060020a031663bc65792783836040516020015260405160e060020a63ffffffff84160281526004810191909152602401602060405180830381600087803b1515610cc557600080fd5b6102c65a03f11515610cd657600080fd5b5050506040518051915050600160a060020a038116151561087d57600080fd5b600454600160a060020a031681565b60025460009033600160a060020a039081169116141561087d57600160a060020a0382161515610d375750600061087d565b5060038054600160a060020a038316600160a060020a03199091161790556001919050565b610d64612604565b60008060008463ffffffff16604051805910610d7d5750595b90808252806020026020018201604052509350610da26000600663ffffffff61205b16565b92508463ffffffff168601915082821015610dbd5781610dbf565b825b91508590505b81811015610e0b57610de0600060068363ffffffff61206716565b848281518110610dec57fe5b600160a060020a03909216602092830290910190910152600101610dc5565b50505092915050565b600354600160a060020a031681565b80600160a060020a0316610e3561207c565b600160a060020a03167ff8bb25a0adf9f7a1e52d03be7682c4a079e3656657f2aa6a5fdfcd47428316bb60405160405180910390a350565b60025433600160a060020a0390811691161415610ea05760058054600160a060020a031916600160a060020a0383161790555b50565b6000610eb78160063363ffffffff61208016565b1515610ec257600080fd5b610ed46000600963ffffffff611d5d16565b90506014600182011115610ee757600080fd5b610ea0600060096001840163ffffffff611a8f16565b6000610f1081600b63ffffffff611d5d16565b612710610f1b610fc2565b600160a060020a03166318160ddd6000604051602001526040518163ffffffff1660e060020a028152600401602060405180830381600087803b1515610f6057600080fd5b6102c65a03f11515610f7157600080fd5b50505060405180519050811515610f8457fe5b0402905090565b60025433600160a060020a0390811691161415610ea05760048054600160a060020a038316600160a060020a031990911617905550565b600080610fee7f54696d65486f6c64657200000000000000000000000000000000000000000000610c72565b905080600160a060020a031663a4d4f0d26000604051602001526040518163ffffffff1660e060020a028152600401602060405180830381600087803b151561103657600080fd5b6102c65a03f1151561104757600080fd5b50505060405180519250505090565b60025433600160a060020a03908116911614156110ea57600454600160a060020a031663c375c2ef3060006040516020015260405160e060020a63ffffffff8416028152600160a060020a039091166004820152602401602060405180830381600087803b15156110c657600080fd5b6102c65a03f115156110d757600080fd5b50505060405180519050506110ea612096565b565b6110f461207c565b600160a060020a03167f5598993bcd3a366666d14de88f684a48ea3d9d25b3eed67f0ae0ebd5dc65601f8260405190815260200160405180910390a250565b600061115e7f54696d65486f6c64657200000000000000000000000000000000000000000000610c72565b600160a060020a031633600160a060020a031614151561117d57600080fd5b611185610fc2565b9050600160a060020a038581169082161461119f57610c6b565b610c6b818585856120b9611f92565b84600160a060020a03166111c061207c565b600160a060020a03167f02c09d2d47a17abb7adebf3db27d52f36f8f8ed7daf846731b4076b5e918edfc86868686604051938452602084019290925260408084019190915260608301919091526080909101905180910390a35050505050565b611233600060063363ffffffff61208016565b151561123e57600080fd5b5050565b60025460009033600160a060020a039081169116141561087d57600160a060020a03821615156112745750600061087d565b600354600160a060020a0316156112965760038054600160a060020a03191690555b5060028054600160a060020a038316600160a060020a03199091161790556001919050565b60006112ce81600963ffffffff611d5d16565b905090565b600254600160a060020a031681565b60006112f68160063363ffffffff61208016565b151561130157600080fd5b6113136000600963ffffffff611d5d16565b905080151561131e57fe5b610ea060006009600019840163ffffffff611a8f16565b60025460009081908190819033600160a060020a0390811691161415610e0b57600092505b85518310156114785785838151811061136f57fe5b90602001906020020151915081600160a060020a03166370a082313060006040516020015260405160e060020a63ffffffff8416028152600160a060020a039091166004820152602401602060405180830381600087803b15156113d257600080fd5b6102c65a03f115156113e357600080fd5b5050506040518051915050801561146d5781600160a060020a031663a9059cbb868360006040516020015260405160e060020a63ffffffff8516028152600160a060020a0390921660048301526024820152604401602060405180830381600087803b151561145157600080fd5b6102c65a03f1151561146257600080fd5b505050604051805150505b60019092019161135a565b50600195945050505050565b611497600060063363ffffffff61208016565b15156114a257600080fd5b6114b5600060063363ffffffff61212016565b6114bd611922565b600160a060020a031663ab0da5a93360405160e060020a63ffffffff8416028152600160a060020a039091166004820152602401600060405180830381600087803b151561150a57600080fd5b6102c65a03f1151561151b57600080fd5b5050506110ea33612134565b60025460009033600160a060020a039081169116141561087d57600160a060020a038216151561155657600080fd5b6108796000600c8463ffffffff611e1b16565b61157161207c565b600160a060020a03167f9cf38cf2dbf9139f5c32639950507b10775fbbe0421f3e168bc2d1bb1ae3208c8260405190815260200160405180910390a250565b60006112ce81600663ffffffff61205b16565b60006112ce81600b63ffffffff611d5d16565b6115de612604565b6115e6612604565b6115ee612604565b6115f6612604565b6115fe612604565b611606612604565b61160e612604565b6000885160405180591061161f5750595b9080825280602002602001820160405250975088516040518059106116415750595b9080825280602002602001820160405250965088516040518059106116635750595b9080825280602002602001820160405250955088516040518059106116855750595b9080825280602002602001820160405250945088516040518059106116a75750595b9080825280602002602001820160405250935088516040518059106116c95750595b9080825280602002602001820160405250925088516040518059106116eb5750595b90808252806020026020018201604052509150600090505b88518110156118705788818151811061171857fe5b90602001906020020151600160a060020a031663fbbf93a0600060405161010001526040518163ffffffff1660e060020a02815260040161010060405180830381600087803b151561176957600080fd5b6102c65a03f1151561177a57600080fd5b50505060405180519060200180519060200180519060200180519060200180519060200180519060200180519060200180519050508e88815181106117bb57fe5b9060200190602002018e89815181106117d057fe5b9060200190602002018e8a815181106117e557fe5b9060200190602002018e8b815181106117fa57fe5b9060200190602002018e8c8151811061180f57fe5b9060200190602002018e8d8151811061182457fe5b9060200190602002018e8e8151811061183957fe5b60209081029091010196909652951515909452941515909352939052929052919052600160a060020a039091169052600101611703565b50919395979092949650565b6000806118a87f557365724d616e61676572000000000000000000000000000000000000000000610c72565b905080600160a060020a0316632aa09e5a8460006040516020015260405160e060020a63ffffffff8416028152600160a060020a039091166004820152602401602060405180830381600087803b151561190157600080fd5b6102c65a03f1151561191257600080fd5b5050506040518051949350505050565b600554600160a060020a031690565b600080600061195f7f50656e64696e674d616e61676572000000000000000000000000000000000000610c72565b915081600160a060020a031633600160a060020a0316141515611a5f57600036604051808383808284378201915050925050506040518091039020905081600160a060020a0316630fee1efc82600036303360006040516020015260405160e060020a63ffffffff881602815260048101868152600160a060020a0380851660448401528316606483015260806024830190815260848301869052909160a40186868082843782019150509650505050505050602060405180830381600087803b1515611a2b57600080fd5b6102c65a03f11515611a3c57600080fd5b505050604051805193505060018314611a555782611a58565b60035b9250611a64565b600192505b505090565b600060018214158015611a7d575060038214155b15611a8b5761085682612189565b5090565b825460018401548354600160a060020a03909216916353e7168b91908460405160e060020a63ffffffff8616028152600481019390935260248301919091526044820152606401600060405180830381600087803b1515611aef57600080fd5b6102c65a03f11515611b0057600080fd5b505050505050565b611b10611922565b600160a060020a03166398d22b018260405160e060020a63ffffffff84160281526004810191909152602401600060405180830381600087803b1515611b5557600080fd5b6102c65a03f11515611b6657600080fd5b50505050565b60025460009081908190819033600160a060020a03908116911614611b9057600080fd5b600160a060020a0386161515611ba557600080fd5b600454600160a060020a0316158015935080611bcf5750600454600160a060020a03878116911614155b15611bf05760048054600160a060020a031916600160a060020a0388161790555b600454600160a060020a031691508163bc65792760006040516020015260405160e060020a63ffffffff83160281527f4d756c74694576656e7473486973746f727900000000000000000000000000006004820152602401602060405180830381600087803b1515611c6157600080fd5b6102c65a03f11515611c7257600080fd5b5050506040518051915050600160a060020a03811615801590611ca35750600554600160a060020a03828116911614155b15611cc45760058054600160a060020a031916600160a060020a0383161790555b8415611d4b5781600160a060020a031663b7c46cd5308760006040516020015260405160e060020a63ffffffff8516028152600160a060020a0390921660048301526024820152604401602060405180830381600087803b1515611d2757600080fd5b6102c65a03f11515611d3857600080fd5b50505060405180516001149050611d4b57fe5b82156114785760069695505050505050565b815460018301548254600092600160a060020a0316916353aa3f5e91846040516020015260405160e060020a63ffffffff851602815260048101929092526024820152604401602060405180830381600087803b151561190157600080fd5b815460018301548254600092600160a060020a03169163d3a3968691846040516020015260405160e060020a63ffffffff851602815260048101929092526024820152604401602060405180830381600087803b151561190157600080fd5b825460018401548354600160a060020a03909216916379a7cfee91908460405160e060020a63ffffffff861602815260048101939093526024830191909152600160a060020a03166044820152606401600060405180830381600087803b1515611aef57600080fd5b611e988383600160a060020a0384166121f2565b505050565b611ea5611922565b600160a060020a0316639f24f2b6868686868660405160e060020a63ffffffff8816028152600160a060020a039095166004860152602485019390935260448401919091526064830152608482015260a401600060405180830381600087803b1515611f1057600080fd5b6102c65a03f11515611f2157600080fd5b5050505050505050565b84600160a060020a0316634ca95be88585858560405160e060020a63ffffffff8716028152600160a060020a03948516600482015292909316602483015260448201526064810191909152608401600060405180830381600087803b1515611f1057600080fd5b60008080611fa781600663ffffffff61205b16565b9250600090505b82811015611f2157611fc9600060068363ffffffff61206716565b915081600160a060020a03166312d428358860006040516020015260405160e060020a63ffffffff8416028152600160a060020a039091166004820152602401602060405180830381600087803b151561202257600080fd5b6102c65a03f1151561203357600080fd5b50505060405180519050156120535761205382898989898963ffffffff16565b600101611fae565b60006109a38383612207565b600061207484848461221d565b949350505050565b3390565b60006120748484600160a060020a038516612234565b60025433600160a060020a03908116911614156110ea5733600160a060020a0316ff5b84600160a060020a0316639cd004488585858560405160e060020a63ffffffff8716028152600160a060020a03948516600482015292909316602483015260448201526064810191909152608401600060405180830381600087803b1515611f1057600080fd5b611e988383600160a060020a03841661224b565b61213c611922565b600160a060020a0316635c053ca88260405160e060020a63ffffffff8416028152600160a060020a039091166004820152602401600060405180830381600087803b1515611b5557600080fd5b6000612193611922565b600160a060020a031663df26ca088360405160e060020a63ffffffff84160281526004810191909152602401600060405180830381600087803b15156121d857600080fd5b6102c65a03f115156121e957600080fd5b50929392505050565b611e98838360ea60020a621cd95d0284612260565b60006109a3838360ea60020a621cd95d026122b4565b6000612074848460ea60020a621cd95d02856122c1565b6000612074848460ea60020a621cd95d02856122de565b611e98838360ea60020a621cd95d02846122fa565b600061226e858585856122de565b1561227857610c6b565b6122838585856122b4565b600101905061229885600286018584866123a8565b6122a885600186018585856123a8565b610c6b858585846123cc565b6000612074848484612455565b60006122d5856002860185600186016124ef565b95945050505050565b60006122ef858560010185856124ef565b151595945050505050565b600080600061230b878787876122de565b15156123165761239f565b6123218787876122b4565b9250612332876002880187866124ef565b9150612343878760010187876124ef565b90508281101561236d5761235d87600188018785856123a8565b61236d87600288018784866123a8565b61237e8760018801878760006123a8565b61238f8760028801878660006123a8565b61239f87878760001987016123cc565b50505050505050565b610c6b85858585604051918252602082015260409081019051809103902084612514565b835460018501548454600160a060020a03909216916353e7168b91908560405191825260208201526040908101905180910390208460405160e060020a63ffffffff8616028152600481019390935260248301919091526044820152606401600060405180830381600087803b151561244457600080fd5b6102c65a03f1151561239f57600080fd5b825460018401548354600092600160a060020a0316916353aa3f5e9185604051918252602082015260409081019051809103902060006040516020015260405160e060020a63ffffffff851602815260048101929092526024820152604401602060405180830381600087803b15156124cd57600080fd5b6102c65a03f115156124de57600080fd5b505050604051805195945050505050565b60006122d585858585604051918252602082015260409081019051809103902061258c565b835460018501548454600160a060020a039092169163a14ff85791908560405191825260208201526040908101905180910390208460405160e060020a63ffffffff8616028152600481019390935260248301919091526044820152606401600060405180830381600087803b151561244457600080fd5b825460018401548354600092600160a060020a0316916337d9d7fc9185604051918252602082015260409081019051809103902060006040516020015260405160e060020a63ffffffff851602815260048101929092526024820152604401602060405180830381600087803b15156124cd57600080fd5b60206040519081016040526000815290565b8254600160a060020a031916600160a060020a0392909216919091178255600190910155565b61123e8282612662565b8154612652908261272b565b9055565b8154612652908261272b565b6126a382826040519081527f636f756e7400000000000000000000000000000000000000000000000000000060208201526025016040518091039020612646565b6126e782600101826040519081527f696e64657865730000000000000000000000000000000000000000000000000060208201526027016040518091039020612646565b61123e82600201826040519081527f76616c756573000000000000000000000000000000000000000000000000000060208201526026016040518091039020612646565b81151580612737575080155b1561123e57600080fd5b8154612652908261272b5600a165627a7a723058202020f81dac83b286db09ef3c76b01a7599e611bce862064d5e0b5f6d087f967e0029",
  "source": "pragma solidity ^0.4.11;\n\nimport \"../core/common/BaseManager.sol\";\nimport \"../core/erc20/ERC20Interface.sol\";\nimport \"../core/common/OwnedInterface.sol\";\nimport \"../core/common/ListenerInterface.sol\";\nimport \"../core/event/MultiEventsHistory.sol\";\nimport \"../timeholder/TimeHolderInterface.sol\";\nimport \"./PollInterface.sol\";\nimport \"./PollFactory.sol\";\nimport \"./VotingManagerEmitter.sol\";\n\n\n/// @title Contract is supposed to the central point to enter to manipulate (create and navigate) polls.\n/// It aggregates:\n/// - creation of a new poll,\n/// - tracking a number of currently active polls,\n/// - getting paginated lists of all created polls,\n/// - implements ListenerInterface to support and use TimeHolder's functionality\ncontract VotingManager is BaseManager, VotingManagerEmitter, HolderListenerInterface, PollListenerInterface {\n\n    /** Constants */\n\n    uint8 constant DEFAULT_SHARES_PERCENT = 1;\n    uint8 constant ACTIVE_POLLS_MAX = 20;\n\n\n    /** Error codes */\n\n    uint constant ERROR_VOTING_ACTIVE_POLL_LIMIT_REACHED = 27001;\n\n\n    /** Storage keys */\n\n    /** @dev set(address) stands for set of polls  */\n    StorageInterface.AddressesSet pollsStorage;\n\n    /** @dev a number of active polls */\n    StorageInterface.UInt activeCountStorage;\n\n    /** @dev address of a poll factory */\n    StorageInterface.Address pollsFactoryStorage;\n\n    /** @dev percent of shares to treat a poll as finished */\n    StorageInterface.UInt sharesPercentStorage;\n\n    /** @dev backend address used for polls */\n    StorageInterface.Address pollBackendStorage;\n\n    /** Modifiers */\n\n    /// @dev Guards invocation only to TimeHolder\n    modifier onlyTimeHolder {\n        if (msg.sender != lookupManager(\"TimeHolder\")) revert();\n        _;\n    }\n\n    /// @dev Guards invocation only to a poll registered in this manager\n    modifier onlyPoll {\n        if (!store.includes(pollsStorage, msg.sender)) revert();\n        _;\n    }\n\n\n    /** PUBLIC section */\n\n    /// @notice Contstructor\n    function VotingManager(Storage _store, bytes32 _crate) BaseManager(_store, _crate) public {\n        pollsStorage.init(\"pollsStorage\");\n        pollsFactoryStorage.init(\"pollsFactoryStorage\");\n        sharesPercentStorage.init(\"sharesPercentStorage\");\n        activeCountStorage.init(\"activeCountStorage\");\n        pollBackendStorage.init(\"pollBackendStorage\");\n    }\n\n    /// @notice Initializes contract\n    /// @param _contractsManager address of a contracts manager\n    /// @param _pollsFactory address of a poll factory\n    /// @return _resultCode result code of an operation. REINITIALIZED if it was once initialized.\n    function init(address _contractsManager, address _pollsFactory, address _pollBackend) onlyContractOwner public returns (uint _resultCode) {\n        require(_pollBackend != 0x0);\n\n        _resultCode = BaseManager.init(_contractsManager, \"VotingManager\");\n\n        if (_resultCode != OK && _resultCode != REINITIALIZED) {\n            return _resultCode;\n        }\n\n        if (store.get(sharesPercentStorage) == 0) {\n            store.set(sharesPercentStorage, DEFAULT_SHARES_PERCENT);\n        }\n\n        if (store.get(pollsFactoryStorage) != _pollsFactory) {\n            store.set(pollsFactoryStorage, _pollsFactory);\n        }\n\n        if (store.get(pollBackendStorage) != _pollBackend) {\n            store.set(pollBackendStorage, _pollBackend);\n        }\n\n        return OK;\n    }\n\n    /// @notice Gets votes limit (or number of tokens to be voted to treat a poll as completed)\n    /// @return a number of tokens\n    function getVoteLimit() public view returns (uint) {\n        return ERC20Interface(voteShares()).totalSupply() / 10000 * store.get(sharesPercentStorage); // @see sharesPercentStorage description\n    }\n\n    /// @notice Sets votes percent. Multisignature required.\n    /// @param _percent a value of percent for a vote limit. Should be between 0 and 10000 (because not float in a system)\n    /// @return _resultCode result code of an operation\n    function setVotesPercent(uint _percent) public returns (uint _resultCode) {\n        require(_percent > 0 && _percent < 10000);\n\n        _resultCode = multisig();\n        if (_resultCode != OK) {\n            return _checkAndEmitError(_resultCode);\n        }\n\n        store.set(sharesPercentStorage, _percent);\n\n        _emitSharesPercentUpdated(_percent);\n        return OK;\n    }\n\n    /// @notice Returns votes percent value\n    function getVotesPercent() public view returns (uint) {\n        return store.get(sharesPercentStorage);\n    }\n\n    /// @notice Sets poll backend address that will be used for future polls\n    function setBackend(address _backend) onlyContractOwner public returns (uint) {\n        require(_backend != 0x0);\n\n        store.set(pollBackendStorage, _backend);\n        return OK;\n    }\n\n    /// @notice Gets a number of active polls. Couldn't be more than ACTIVE_POLLS_MAX\n    /// @return a number of active polls\n    function getActivePollsCount() public view returns (uint) {\n        return store.get(activeCountStorage);\n    }\n\n    /// @dev Gets a number of polls registered in the manager. Includes a number of both active and inactive polls\n    /// @return a number of polls\n    function getPollsCount() public view returns (uint) {\n        return store.count(pollsStorage);\n    }\n\n    /// @notice Gets a paginated results of polls stored in the manager. Could be mixed with getPollsCount() passed as\n    /// a pageSize to get full list of polls at one call.\n    /// @param _startIndex index of a poll to start. For first call should be equal to `0`\n    /// @param _pageSize size of an output list\n    /// @return {\n    ///   \"_polls\": \"list of polls\",\n    ///   \"_nextIndex\": \"index that could be used for the next call as _startIndex\"\n    /// }\n    function getPollsPaginated(uint _startIndex, uint32 _pageSize) public view returns (address[] _polls) {\n        _polls = new address[](_pageSize);\n        uint _pollsCount = store.count(pollsStorage);\n        uint _lastIndex = _startIndex + _pageSize;\n        _lastIndex = (_lastIndex >= _pollsCount) ? _pollsCount : _lastIndex;\n        for (uint _idx = _startIndex; _idx < _lastIndex; ++_idx) {\n            _polls[_idx] = store.get(pollsStorage, _idx);\n        }\n    }\n\n    /// @notice Creates a brand new poll with provided description and properties.\n    /// Emits PollCreated event in case of success.\n    ///\n    /// @param _optionsCount number of options provided for a poll\n    /// @param _detailsIpfsHash ipfs hash of poll's description and other details\n    /// @param _votelimit limit when poll would be treated as completed\n    /// @param _deadline time after which poll isn't active anymore\n    ///\n    /// @return OK if all went all right, error code otherwise\n    function createPoll(uint _optionsCount, bytes32 _detailsIpfsHash, uint _votelimit, uint _deadline) public returns (uint) {\n        PollFactory _pollsFactory = PollFactory(store.get(pollsFactoryStorage));\n        address _poll = _pollsFactory.createPoll(contractsManager, store.get(pollBackendStorage), _optionsCount, _detailsIpfsHash, _votelimit, _deadline);\n\n        if (!MultiEventsHistory(getEventsHistory()).authorize(_poll)) {\n            revert();\n        }\n\n        if (!OwnedInterface(_poll).transferContractOwnership(msg.sender)) {\n            revert();\n        }\n\n        store.add(pollsStorage, _poll);\n\n        _emitPollCreated(_poll, _optionsCount, _detailsIpfsHash, _votelimit, _deadline);\n        return OK;\n    }\n\n    /** PollListenerInterface interface */\n\n    /// @notice Emits PollVoted event in case of successful voting.\n    /// @dev DO NOT ALL IT DIRECTLY. Used by a poll contract.\n    function onVote(address, uint8) onlyPoll public {\n    }\n\n    /// @notice Emits PollRemoved event in case of successful removal.\n    /// @dev DO NOT ALL IT DIRECTLY. Used by a poll contract.\n    function onRemovePoll() onlyPoll public {\n        store.remove(pollsStorage, msg.sender);\n        MultiEventsHistory(getEventsHistory()).reject(msg.sender);\n        _emitPollRemoved(msg.sender);\n    }\n\n    /// @notice Emits PollActivated event in case of successful activation.\n    /// @dev DO NOT ALL IT DIRECTLY. Used by a poll contract.\n    function onActivatePoll() onlyPoll public {\n        uint _activeCount = store.get(activeCountStorage);\n        if (_activeCount + 1 > ACTIVE_POLLS_MAX) {\n            revert();\n        }\n\n        store.set(activeCountStorage, _activeCount + 1);\n    }\n\n    /// @notice Emits PollActivated event in case of successful ending (completing).\n    /// @dev DO NOT ALL IT DIRECTLY. Used by a poll contract.\n    function onEndPoll() onlyPoll public {\n        uint _activeCount = store.get(activeCountStorage);\n        assert(_activeCount != 0);\n\n        store.set(activeCountStorage, _activeCount - 1);\n    }\n\n    /// @notice Gets descriptions for a list of polls\n    /// @param _polls a list of polls\n    /// @return {\n    ///   \"_owner\": \"poll owners\",\n    ///   \"_detailsIpfsHash\": poll ipfs hashes\",\n    ///   \"_votelimit\": \"poll vote limits\",\n    ///   \"_deadline\": \"poll deadlines\",\n    ///   \"_status\": \"poll statuses\",\n    ///   \"_active\": \"poll activates\",\n    ///   \"_creation\": \"poll creation times\"\n    /// }\n    function getPollsDetails(address[] _polls) public view returns (\n        address[] _owner,\n        bytes32[] _detailsIpfsHash,\n        uint[] _votelimit,\n        uint[] _deadline,\n        bool[] _status,\n        bool[] _active,\n        uint[] _creation\n    ) {\n        _owner = new address[](_polls.length);\n        _detailsIpfsHash = new bytes32[](_polls.length);\n        _votelimit = new uint[](_polls.length);\n        _deadline = new uint[](_polls.length);\n        _status = new bool[](_polls.length);\n        _active = new bool[](_polls.length);\n        _creation = new uint[](_polls.length);\n\n        for (uint _idx = 0; _idx < _polls.length; ++_idx) {\n            (_owner[_idx], _detailsIpfsHash[_idx], _votelimit[_idx], _deadline[_idx], _status[_idx], _active[_idx], _creation[_idx],) =\n            PollInterface(_polls[_idx]).getDetails();\n        }\n    }\n\n    /** ListenerInterface interface */\n\n    function tokenDeposit(address _token, address _who, uint _amount, uint _total)\n    public\n    onlyTimeHolder\n    {\n        address _voteShares = voteShares();\n        if (_token != _voteShares) {\n            return;\n        }\n\n        _forEachPollMembership(_voteShares, _who, _amount, _total, _deposit);\n    }\n\n    function tokenWithdrawn(address _token, address _who, uint _amount, uint _total)\n    public\n    onlyTimeHolder\n    {\n        address _voteShares = voteShares();\n        if (_token != _voteShares) {\n            return;\n        }\n\n        _forEachPollMembership(_voteShares, _who, _amount, _total, _withdrawn);\n    }\n\n    function voteShares() public view returns (address) {\n        TimeHolderInterface timeHolder = TimeHolderInterface(lookupManager(\"TimeHolder\"));\n        return timeHolder.getDefaultShares();\n    }\n\n    /// @dev Don't allow to receive any Ether\n    function () public {\n        revert();\n    }\n\n    /** PRIVATE section */\n\n    function _deposit(address _entity, address _token, address _address, uint _amount, uint _total) private {\n        HolderListenerInterface(_entity).tokenDeposit(_token, _address, _amount, _total);\n    }\n\n    function _withdrawn(address _entity, address _token, address _address, uint _amount, uint _total) private {\n        HolderListenerInterface(_entity).tokenWithdrawn(_token, _address, _amount, _total);\n    }\n\n    function _forEachPollMembership(address _token, address _address, uint _amount, uint _total, function (address, address, address, uint, uint) _action) private {\n        uint _count = store.count(pollsStorage);\n        address _poll;\n        for (uint _idx = 0; _idx < _count; ++_idx) {\n            _poll = store.get(pollsStorage, _idx);\n            if (PollInterface(_poll).hasMember(_address)) {\n                _action(_poll, _token, _address, _amount, _total);\n            }\n        }\n    }\n\n\n    /** PRIVATE: events emitting */\n\n    function _emitError(uint _error) internal returns (uint) {\n        VotingManagerEmitter(getEventsHistory()).emitError(_error);\n        return _error;\n    }\n\n    function _checkAndEmitError(uint _error) internal returns (uint) {\n        if (_error != OK && _error != MULTISIG_ADDED) {\n            return _emitError(_error);\n        }\n\n        return _error;\n    }\n\n    function _emitSharesPercentUpdated(uint _percent) internal {\n        VotingManagerEmitter(getEventsHistory()).emitVotingSharesPercentUpdated(_percent);\n    }\n\n    function _emitPollCreated(address _pollAddress, uint _optionsCount, bytes32 _detailsIpfsHash, uint _votelimit, uint _deadline) internal {\n        VotingManagerEmitter(getEventsHistory()).emitPollCreated(_pollAddress, _optionsCount, _detailsIpfsHash, _votelimit, _deadline);\n    }\n    function _emitPollRemoved(address _pollAddress) internal {\n        VotingManagerEmitter(getEventsHistory()).emitPollRemoved(_pollAddress);\n    }\n}\n",
  "sourcePath": "/Users/alesanro/Documents/Projects/ChronoBank/SmartContracts/contracts/vote/VotingManager.sol",
  "compiler": {
    "name": "solc",
    "version": "0.4.19+commit.c4cbbb05.Emscripten.clang"
  },
  "schemaVersion": "2.0.0",
  "updatedAt": "2018-04-02T15:30:17.790Z"
}