{
  "contractName": "VotingManagerEmitter",
  "abi": [
    {
      "anonymous": false,
      "inputs": [
        {
          "indexed": true,
          "name": "self",
          "type": "address"
        },
        {
          "indexed": true,
          "name": "pollAddress",
          "type": "address"
        }
      ],
      "name": "PollCreated",
      "type": "event"
    },
    {
      "anonymous": false,
      "inputs": [
        {
          "indexed": true,
          "name": "self",
          "type": "address"
        },
        {
          "indexed": true,
          "name": "pollAddress",
          "type": "address"
        }
      ],
      "name": "PollRemoved",
      "type": "event"
    },
    {
      "anonymous": false,
      "inputs": [
        {
          "indexed": true,
          "name": "self",
          "type": "address"
        }
      ],
      "name": "VotingSharesPercentUpdated",
      "type": "event"
    },
    {
      "anonymous": false,
      "inputs": [
        {
          "indexed": true,
          "name": "self",
          "type": "address"
        },
        {
          "indexed": false,
          "name": "errorCode",
          "type": "uint256"
        }
      ],
      "name": "Error",
      "type": "event"
    },
    {
      "constant": false,
      "inputs": [
        {
          "name": "pollAddress",
          "type": "address"
        }
      ],
      "name": "emitPollCreated",
      "outputs": [],
      "payable": false,
      "stateMutability": "nonpayable",
      "type": "function"
    },
    {
      "constant": false,
      "inputs": [
        {
          "name": "pollAddress",
          "type": "address"
        }
      ],
      "name": "emitPollRemoved",
      "outputs": [],
      "payable": false,
      "stateMutability": "nonpayable",
      "type": "function"
    },
    {
      "constant": false,
      "inputs": [],
      "name": "emitVotingSharesPercentUpdated",
      "outputs": [],
      "payable": false,
      "stateMutability": "nonpayable",
      "type": "function"
    },
    {
      "constant": false,
      "inputs": [
        {
          "name": "errorCode",
          "type": "uint256"
        }
      ],
      "name": "emitError",
      "outputs": [],
      "payable": false,
      "stateMutability": "nonpayable",
      "type": "function"
    }
  ],
  "bytecode": "0x6060604052341561000f57600080fd5b6102198061001e6000396000f3006060604052600436106100615763ffffffff7c01000000000000000000000000000000000000000000000000000000006000350416635be984f181146100665780635c053ca81461007b578063df00476f1461009a578063df26ca08146100b9575b600080fd5b341561007157600080fd5b6100796100cf565b005b341561008657600080fd5b610079600160a060020a036004351661010e565b34156100a557600080fd5b610079600160a060020a0360043516610158565b34156100c457600080fd5b6100796004356101a2565b6100d76101e9565b600160a060020a03167fff323c22ebe749d92941bc9060638f4d72be680cebf255ee31f942b254b4c16060405160405180910390a2565b80600160a060020a03166101206101e9565b600160a060020a03167ff8bb25a0adf9f7a1e52d03be7682c4a079e3656657f2aa6a5fdfcd47428316bb60405160405180910390a350565b80600160a060020a031661016a6101e9565b600160a060020a03167f5b850d927499bc55df3941f7c4ae97ab6fce34a21f4df0ab30694f24353445b260405160405180910390a350565b6101aa6101e9565b600160a060020a03167f9cf38cf2dbf9139f5c32639950507b10775fbbe0421f3e168bc2d1bb1ae3208c8260405190815260200160405180910390a250565b33905600a165627a7a72305820d5787787bd494961b6e3c5845ef309631beaae2ed1f621a0c53c898bd9af15a10029",
  "source": "pragma solidity ^0.4.11;\n\nimport '../core/event/MultiEventsHistoryAdapter.sol';\n\n\n/// @title Emitter with support of events history for VotingManager\ncontract VotingManagerEmitter is MultiEventsHistoryAdapter {\n\n    /** Events */\n\n    event PollCreated(address indexed self, address indexed pollAddress);\n\n    event PollRemoved(address indexed self, address indexed pollAddress);\n\n    event VotingSharesPercentUpdated(address indexed self);\n\n    event Error(address indexed self, uint errorCode);\n\n\n    /** Emitters */\n\n    function emitPollCreated(address pollAddress) public {\n        PollCreated(_self(), pollAddress);\n    }\n\n    function emitPollRemoved(address pollAddress) public {\n        PollRemoved(_self(), pollAddress);\n    }\n\n    function emitVotingSharesPercentUpdated() public {\n        VotingSharesPercentUpdated(_self());\n    }\n\n    function emitError(uint errorCode) public {\n        Error(_self(), errorCode);\n    }\n}\n",
  "sourcePath": "/Users/mikefluff/Documents/Programming/Chronobank/test/SmartContracts/contracts/vote/VotingManagerEmitter.sol",
  "compiler": {
    "name": "solc",
    "version": "0.4.19+commit.c4cbbb05.Emscripten.clang"
  },
  "schemaVersion": "1.0.1",
  "updatedAt": "2018-02-05T14:43:54.967Z"
}