{
  "contractName": "WalletsFactory",
  "abi": [
    {
      "constant": false,
      "inputs": [
        {
          "name": "_owners",
          "type": "address[]"
        },
        {
          "name": "_required",
          "type": "uint256"
        },
        {
          "name": "_contractsManager",
          "type": "address"
        },
        {
          "name": "_use2FA",
          "type": "bool"
        },
        {
          "name": "_releaseTime",
          "type": "uint256"
        }
      ],
      "name": "createWallet",
      "outputs": [
        {
          "name": "",
          "type": "address"
        }
      ],
      "payable": false,
      "stateMutability": "nonpayable",
      "type": "function"
    }
  ],
  "bytecode": "0x6060604052341561000f57600080fd5b612f578061001e6000396000f3006060604052600436106100405763ffffffff7c01000000000000000000000000000000000000000000000000000000006000350416634f1347af8114610045575b600080fd5b341561005057600080fd5b6100bf60046024813581810190830135806020818102016040519081016040528093929190818152602001838360200280828437509496505084359473ffffffffffffffffffffffffffffffffffffffff60208201351694506040810135151593506060013591506100e89050565b60405173ffffffffffffffffffffffffffffffffffffffff909116815260200160405180910390f35b600085858585856100f7610194565b6020810185905273ffffffffffffffffffffffffffffffffffffffff8416604082015282151560608201526080810182905260a08082528190810187818151815260200191508051906020019060200280838360005b8381101561016557808201518382015260200161014d565b505050509050019650505050505050604051809103906000f080151561018a57600080fd5b9695505050505050565b604051612d87806101a583390190560060606040527f312e302e3000000000000000000000000000000000000000000000000000000060035534156200003457600080fd5b60405162002d8738038062002d87833981016040528080518201919060200180519190602001805191906020018051919060200180519150859050846000825115156200008057600080fd5b81835110156200008f57600080fd5b5060005b82518110156200011e57828181518110620000aa57fe5b90602001906020020151600160a060020a03166004600183016101008110620000cf57fe5b0155600181016101046000858481518110620000e757fe5b90602001906020020151600160a060020a031681526020810191909152604001600020556002805460019081019091550162000093565b5060015550600160a060020a03831615156200013957600080fd5b6101078054600160a060020a03909416600160a060020a0319909416939093179092556000805491151560ff19909216919091179055610109555050612c0280620001856000396000f3006060604052600436106101875763ffffffff60e060020a60003504166311673db9811461019c57806313de3d2b146101bb57806314da079714610229578063173825d91461024b57806328ba84ca1461027c5780632f54bf6e1461029e5780633311f99a146102d15780634123cb6b146102e4578063418cbda9146102f75780634367f19a1461030d57806349a008581461032557806354f6127f1461039357806354fd4d501461042057806357cfeeee146104335780635b0b6f661461044d578063660918ca146104725780637065cb4814610491578063746c9171146104b057806376583f66146104c3578063797af627146104ef5780639d2a43ad14610505578063b75c7dc614610518578063b91d40011461052e578063ba51a6df14610541578063c2cf732614610557578063c41a360a14610579578063cbf0b0c0146105ab578063d4554737146105ca578063d8f9659b146105ec578063df26ca081461060d578063f00d4b5d14610623578063fd8cd80614610648578063fff10aba14610739575b600034111561019a5761019a333461074c565b005b34156101a757600080fd5b61019a600160a060020a03600435166107bb565b34156101c657600080fd5b61019a600160a060020a0360048035821691602480359260443592606435169160a49060843590810190830135806020601f8201819004810201604051908101604052818152929190602084018383808284375094965061080595505050505050565b341561023457600080fd5b61019a600160a060020a03600435166024356108e1565b341561025657600080fd5b61026a600160a060020a0360043516610933565b60405190815260200160405180910390f35b341561028757600080fd5b61019a600160a060020a0360043516602435610b7c565b34156102a957600080fd5b6102bd600160a060020a0360043516610bd5565b604051901515815260200160405180910390f35b34156102dc57600080fd5b61026a610bf6565b34156102ef57600080fd5b61026a610e32565b341561030257600080fd5b61019a600435610e38565b341561031857600080fd5b61019a6004351515610e7f565b341561033057600080fd5b61019a6004803590600160a060020a036024803582169260443592606435169160a49060843590810190830135806020601f82018190048102016040519081016040528181529291906020840183838082843750949650610ec895505050505050565b341561039e57600080fd5b6103a9600435610f5f565b60405160208082528190810183818151815260200191508051906020019080838360005b838110156103e55780820151838201526020016103cd565b50505050905090810190601f1680156104125780820380516001836020036101000a031916815260200191505b509250505060405180910390f35b341561042b57600080fd5b61026a611026565b61026a600160a060020a036004351660243560443561102c565b341561045857600080fd5b61019a600160a060020a03600435811690602435166113b4565b341561047d57600080fd5b61019a600160a060020a0360043516611409565b341561049c57600080fd5b61026a600160a060020a0360043516611452565b34156104bb57600080fd5b61026a611572565b34156104ce57600080fd5b61019a600160a060020a036004358116906024359060443516606435611578565b34156104fa57600080fd5b61026a6004356115e8565b341561051057600080fd5b6102bd611806565b341561052357600080fd5b61026a60043561180f565b341561053957600080fd5b61026a6118b6565b341561054c57600080fd5b61026a6004356118bd565b341561056257600080fd5b6102bd600435600160a060020a036024351661195f565b341561058457600080fd5b61058f6004356119b4565b604051600160a060020a03909116815260200160405180910390f35b34156105b657600080fd5b61026a600160a060020a03600435166119cf565b34156105d557600080fd5b61019a600160a060020a0360043516602435611cb0565b61026a6024600480358281019291013590600160a060020a03903516611d02565b341561061857600080fd5b61019a600435611ea3565b341561062e57600080fd5b61026a600160a060020a0360043581169060243516611eea565b341561065357600080fd5b61065b61200a565b60405180806020018060200180602001848103845287818151815260200191508051906020019060200280838360005b838110156106a357808201518382015260200161068b565b50505050905001848103835286818151815260200191508051906020019060200280838360005b838110156106e25780820151838201526020016106ca565b50505050905001848103825285818151815260200191508051906020019060200280838360005b83811015610721578082015183820152602001610709565b50505050905001965050505050505060405180910390f35b341561074457600080fd5b61058f61216a565b61075461216a565b600160a060020a03166328ba84ca838360405160e060020a63ffffffff8516028152600160a060020a0390921660048301526024820152604401600060405180830381600087803b15156107a757600080fd5b5af115156107b457600080fd5b5050505050565b80600160a060020a03166107cd61219b565b600160a060020a03167ffda769962711e3e34f112435e5900b6f209a31363e82cdbb4bf28ef0fe810baf60405160405180910390a350565b84600160a060020a031661081761219b565b600160a060020a03167f4610c27e2d78ce09675d82db64898d8c008a50f8db6d18e49835fc4bafce645f8686868660405184815260208101849052600160a060020a038316604082015260806060820181815290820183818151815260200191508051906020019080838360005b8381101561089d578082015183820152602001610885565b50505050905090810190601f1680156108ca5780820380516001836020036101000a031916815260200191505b509550505050505060405180910390a35050505050565b81600160a060020a03166108f361219b565b600160a060020a03167f619980af4e2d2067d8772c53365a0449d1bdd2ccd48b6e504ea1cab5a50ca7528360405190815260200160405180910390a35050565b600080548190819060ff1615610952576136ba90508060005260206000f35b60005460ff161561095f57fe5b60008061096b33610bd5565b15610abf5760005460ff1615610a7957610992600080516020612bb783398151915261219f565b915081600160a060020a031663796da7af6040518163ffffffff1660e060020a028152600401602060405180830381600087803b15156109d157600080fd5b5af115156109de57600080fd5b505050604051805190503410156109f457600080fd5b81600160a060020a031663b18b78dd6040518163ffffffff1660e060020a028152600401602060405180830381600087803b1515610a3157600080fd5b5af11515610a3e57600080fd5b5050506040518051600160a060020a031690503480156108fc0290604051600060405180830381858888f193505050501515610a7957600080fd5b610ab3346000368080601f016020809104026020016040519081016040528181529291906020840183838082843750612218945050505050565b90508060005260206000f35b30600160a060020a031633600160a060020a03161415610b6e57600160a060020a038616600090815261010460205260409020549350831515610afe57fe5b6001600254036001541115610b1f57610b186136ba612303565b9450610b69565b60006004856101008110610b2f57fe5b0155600160a060020a03861660009081526101046020526040812055610b53612368565b610b5b6123ce565b610b64866124e8565b600194505b610b73565b600080fd5b50505050919050565b610b8461219b565b600160a060020a03167fbee6d2975bcdff8dc26bc64942959415ca30aff94e84977a5954a760da30fbfe8383604051600160a060020a03909216825260208201526040908101905180910390a25050565b600160a060020a03811660009081526101046020526040812054115b919050565b600080600080610c0533610bd5565b80610c21575030600160a060020a031633600160a060020a0316145b1515610c2c57600080fd5b600160a060020a033316600090815261010460205260409020541515610c4e57fe5b610c65600080516020612bb783398151915261219f565b925082600160a060020a031663b18b78dd6040518163ffffffff1660e060020a028152600401602060405180830381600087803b1515610ca457600080fd5b5af11515610cb157600080fd5b5050506040518051925050600160a060020a0382161515610cde57610cd76136ba612303565b9350610e2c565b60005460ff16158015610cf357506001546001145b15610d70576000805460ff1916600190811790915560029055610d14612368565b6002805460010190819055600160a060020a038316906004906101008110610d3857fe5b0155600254600160a060020a0383166000908152610104602052604081209190915554610d679060ff16612550565b60019350610e2c565b60005460ff168015610d8457506001546002145b8015610da95750600160a060020a038216600090815261010460205260409020546001145b15610e1e57506000805460ff1916815560018055600160a060020a03821681526101046020526040812054906004826101008110610de357fe5b0155600160a060020a03821660009081526101046020526040812055610e07612368565b610e0f6123ce565b600054610d679060ff16612550565b610e296136ba612303565b93505b50505090565b60025481565b610e4061219b565b600160a060020a03167fb26123dbf7a81d26e5f647fcaabebe1583079e0c43904aae3954496eba952c4a8260405190815260200160405180910390a250565b610e8761219b565b600160a060020a03167f3c05c875f0fe54dcedd51664a7ceb9a463f3b1f1bbf04bdd0a1c15c1758967b182604051901515815260200160405180910390a250565b83600160a060020a0316610eda61219b565b600160a060020a03167fb34e114caca0a1485cad8d85fe392613f827825cf9135035e78500a4f8aed4398786868660405184815260208101849052600160a060020a038316604082015260806060820181815290820183818151815260200191508051906020019080838360008381101561089d578082015183820152602001610885565b610f67612a85565b610108600083600019166000191681526020019081526020016000206001018054600181600116156101000203166002900480601f01602080910402602001604051908101604052809291908181526020018280546001816001161561010002031660029004801561101a5780601f10610fef5761010080835404028352916020019161101a565b820191906000526020600020905b815481529060010190602001808311610ffd57829003601f168201915b50505050509050919050565b60035481565b60008060004261010954111561104757610ab36136c4612303565b610109544290111561105557fe5b8484600080807f4554480000000000000000000000000000000000000000000000000000000000841480611087575083155b156110af578430600160a060020a031631106110a45760016110a8565b6136c35b92506111cb565b6110d87f45524332304d616e61676572000000000000000000000000000000000000000061219f565b915081600160a060020a031663fa7fdeb78560405160e060020a63ffffffff84160281526004810191909152602401602060405180830381600087803b151561112057600080fd5b5af1151561112d57600080fd5b5050506040518051915050600160a060020a0381161515611152576136c192506111cb565b8481600160a060020a03166370a082313060405160e060020a63ffffffff8416028152600160a060020a039091166004820152602401602060405180830381600087803b15156111a157600080fd5b5af115156111ae57600080fd5b50505060405180519050106111c45760016111c8565b6136c35b92505b600183146111e7576111dc83612303565b508260005260206000f35b600183146111f157fe5b6000806111fd33610bd5565b156112245760005460ff1615610a7957610992600080516020612bb783398151915261219f565b30600160a060020a031633600160a060020a03161415610b6e577f45544800000000000000000000000000000000000000000000000000000000008b148061126a57508a155b156112a557600160a060020a038d168c156108fc028d604051600060405180830381858888f1935050505015156112a057600080fd5b6113a1565b6112ce7f45524332304d616e61676572000000000000000000000000000000000000000061219f565b600160a060020a031663fa7fdeb78c60405160e060020a63ffffffff84160281526004810191909152602401602060405180830381600087803b151561131357600080fd5b5af1151561132057600080fd5b5050506040518051995050600160a060020a03891663a9059cbb8e8e60405160e060020a63ffffffff8516028152600160a060020a0390921660048301526024820152604401602060405180830381600087803b151561137f57600080fd5b5af1151561138c57600080fd5b5050506040518051905015156113a157600080fd5b5060019c9b505050505050505050505050565b80600160a060020a031682600160a060020a03166113d061219b565b600160a060020a03167ff326492b55079c92d5144c6c5e02fe1f6cb1ec9064e12de0d269f0615171e8df60405160405180910390a45050565b80600160a060020a031661141b61219b565b600160a060020a03167ed0db01d039330b725890e8de587ddb67d2c41528c68f07057500e4026c487760405160405180910390a350565b60008054819060ff161561146f576136ba90508060005260206000f35b60005460ff161561147c57fe5b60008061148833610bd5565b156114af5760005460ff1615610a7957610992600080516020612bb783398151915261219f565b30600160a060020a031633600160a060020a03161415610b6e576114d285610bd5565b156114e9576114e26136bd612303565b935061156a565b6114f1612368565b60025460fa9010611504576115046123ce565b60025460fa9010611519576136c0935061156a565b6002805460010190819055600160a060020a03861690600490610100811061153d57fe5b0155600254600160a060020a038616600090815261010460205260409020556115658561259d565b600193505b505050919050565b60015481565b83600160a060020a031661158a61219b565b600160a060020a03167f113341d7c6797c7fd2ab72bb6f21014dc77b4bfaaffde795ad5f9b5fd70c76f0858585604051928352600160a060020a0390911660208301526040808301919091526060909101905180910390a350505050565b60006115f333610bd5565b8061160f575030600160a060020a031633600160a060020a0316145b151561161a57600080fd5b60008281526101086020526040902060019081015460026101009282161592909202600019011604151561165a576116536136bf612303565b9050610bf1565b611663826125f2565b90506001811461167257610bf1565b6000828152610108602052604090819020600160a060020a033016916001909101905180828054600181600116156101000203166002900480156116f75780601f106116cc576101008083540402835291602001916116f7565b820191906000526020600020905b8154815290600101906020018083116116da57829003601f168201915b50509150506000604051808303816000865af1915050151561171857600080fd5b600082815261010860205260408120818155906117386001830182612a97565b5050600082815261010860209081526040918290208054600191820180546117fe95339589953094936002610100928216159290920260001901160491601f83018290048202909101905190810160405280929190818152602001828054600181600116156101000203166002900480156117f45780601f106117c9576101008083540402835291602001916117f4565b820191906000526020600020905b8154815290600101906020018083116117d757829003601f168201915b505050505061271a565b506001919050565b60005460ff1681565b60008060008061181e33610bd5565b8061183a575030600160a060020a031633600160a060020a0316145b151561184557600080fd5b600160a060020a03331660009081526101046020526040902054925082151561186a57fe5b50506000838152610105602052604090206001810154600283900a91908216151561189a576114e26136ba612303565b8054600190810182558101805483900390556115653386612813565b6101095481565b60008054819060ff16156118da576136ba90508060005260206000f35b60005460ff16156118e757fe5b6000806118f333610bd5565b1561191a5760005460ff1615610a7957610992600080516020612bb783398151915261219f565b30600160a060020a031633600160a060020a03161415610b6e57600254851115611949576114e26136ba612303565b6001859055611956612368565b6115658561286e565b600082815261010560209081526040808320600160a060020a03851684526101049092528220548281151561199757600093506119ab565b8160020a9050808360010154166000141593505b50505092915050565b600060046001830161010081106119c757fe5b015492915050565b60008060008060008060008060006119e633610bd5565b15611a0d5760005460ff1615610a7957610992600080516020612bb783398151915261219f565b30600160a060020a031633600160a060020a03161415610b6e5742610109541115611a4457611a3d6136c4612303565b9850611ca3565b611a6d7f45524332304d616e61676572000000000000000000000000000000000000000061219f565b975087600160a060020a031663a64ed8ba6040518163ffffffff1660e060020a028152600401602060405180830381600087803b1515611aac57600080fd5b5af11515611ab957600080fd5b5050506040518051975060009650505b86861015611c1c5787600160a060020a0316638d80c9228760405160e060020a63ffffffff84160281526004810191909152602401602060405180830381600087803b1515611b1757600080fd5b5af11515611b2457600080fd5b5050506040518051955050600160a060020a0385166370a082313060405160e060020a63ffffffff8416028152600160a060020a039091166004820152602401602060405180830381600087803b1515611b7d57600080fd5b5af11515611b8a57600080fd5b50505060405180519450508315611c115784600160a060020a031663a9059cbb8b8660405160e060020a63ffffffff8516028152600160a060020a0390921660048301526024820152604401602060405180830381600087803b1515611bef57600080fd5b5af11515611bfc57600080fd5b505050604051805190501515611c1157600080fd5b600190950194611ac9565b611c33600080516020612bb783398151915261219f565b9250600183600160a060020a0316632286975c6040518163ffffffff1660e060020a028152600401602060405180830381600087803b1515611c7457600080fd5b5af11515611c8157600080fd5b50505060405180519050141515611c9757600080fd5b89600160a060020a0316ff5b5050505050505050919050565b81600160a060020a0316611cc261219b565b600160a060020a03167f19488fab9001d4fd32730335b6e16f41b8d0fffe8f210fe291016d939f8290528360405190815260200160405180910390a35050565b600080600080600042610109541115611d2057610ab36136c4612303565b6101095442901115611d2e57fe5b600080611d3a33610bd5565b15611d615760005460ff1615610a7957610992600080516020612bb783398151915261219f565b30600160a060020a031633600160a060020a03161415610b6e57600095505b88861015611e9357898987818110611d9457fe5b90506020020135600160a060020a0316945084600160a060020a03166370a082313060405160e060020a63ffffffff8416028152600160a060020a039091166004820152602401602060405180830381600087803b1515611df457600080fd5b5af11515611e0157600080fd5b50505060405180519450508315611e885784600160a060020a031663a9059cbb898660405160e060020a63ffffffff8516028152600160a060020a0390921660048301526024820152604401602060405180830381600087803b1515611e6657600080fd5b5af11515611e7357600080fd5b505050604051805190501515611e8857600080fd5b600190950194611d80565b5060019998505050505050505050565b611eab61219b565b600160a060020a03167f9cf38cf2dbf9139f5c32639950507b10775fbbe0421f3e168bc2d1bb1ae3208c8260405190815260200160405180910390a250565b600080548190819060ff1615611f09576136ba90508060005260206000f35b60005460ff1615611f1657fe5b600080611f2233610bd5565b15611f495760005460ff1615610a7957610992600080516020612bb783398151915261219f565b30600160a060020a031633600160a060020a03161415610b6e57600160a060020a038716600090815261010460205260409020549350831515611f8857fe5b611f9186610bd5565b15611fa857611fa16136bd612303565b9450612000565b611fb0612368565b600160a060020a0386166004856101008110611fc857fe5b0155600160a060020a0380881660009081526101046020526040808220829055918816815220849055611ffb87876128bb565b600194505b5050505092915050565b612012612a85565b61201a612a85565b612022612a85565b610106546000906040518059106120365750595b90808252806020026020018201604052506101065490945060405180591061205b5750595b9080825280602002602001820160405250610106549093506040518059106120805750595b90808252806020026020018201604052509150600090505b61010654811015612164576101086000610106838154811015156120b857fe5b600091825260208083209091015483528201929092526040019020548482815181106120e057fe5b602090810290910101526101068054829081106120f957fe5b90600052602060002090015483828151811061211157fe5b60209081029091010152610106805461214191908390811061212f57fe5b9060005260206000209001543361195f565b82828151811061214d57fe5b911515602092830290910190910152600101612098565b50909192565b60006121957f4d756c74694576656e7473486973746f7279000000000000000000000000000061219f565b90505b90565b3390565b61010754600090600160a060020a031663bc6579278360405160e060020a63ffffffff84160281526004810191909152602401602060405180830381600087803b15156121eb57600080fd5b5af115156121f857600080fd5b5050506040518051915050600160a060020a0381161515610bf157600080fd5b6000806000364360405180848480828437909101928352505060200191506040905051908190039020600081815261010860205260409020600190810154919250600261010091831615919091026000190190911604156122855761227e6136c2612303565b91506122fc565b6000818152610108602052604090206001018380516122a8929160200190612adb565b506000818152610108602052604090208490556122c4816115e8565b9150600182146122f7576136be82146122e05761227e82612303565b6122ed8133863087612918565b6136be91506122fc565b600191505b5092915050565b600061230d61216a565b600160a060020a031663df26ca088360405160e060020a63ffffffff84160281526004810191909152602401600060405180830381600087803b151561235257600080fd5b5af1151561235f57600080fd5b50929392505050565b6101065460005b818110156123c25761010860006101068381548110151561238c57fe5b600091825260208083209091015483528201929092526040018120818155906123b86001830182612a97565b505060010161236f565b6123ca6129a7565b5050565b60015b6002548110156124e5575b600254811080156123fb575060048161010081106123f657fe5b015415155b15612408576001016123dc565b600160025411801561242a5750600254600490610100811061242657fe5b0154155b1561243e5760028054600019019055612408565b600254811080156124605750600254600490610100811061245b57fe5b015415155b80156124795750600481610100811061247557fe5b0154155b156124e057600254600490610100811061248f57fe5b0154600482610100811061249f57fe5b015580610104600060048361010081106124b557fe5b015481526020019081526020016000208190555060006004600254610100811015156124dd57fe5b01555b6123d1565b50565b6124f061216a565b600160a060020a031663660918ca8260405160e060020a63ffffffff8416028152600160a060020a039091166004820152602401600060405180830381600087803b151561253d57600080fd5b5af1151561254a57600080fd5b50505050565b61255861216a565b600160a060020a0316634367f19a8260405160e060020a63ffffffff84160281529015156004820152602401600060405180830381600087803b151561253d57600080fd5b6125a561216a565b600160a060020a03166311673db98260405160e060020a63ffffffff8416028152600160a060020a039091166004820152602401600060405180830381600087803b151561253d57600080fd5b600160a060020a03331660009081526101046020526040812054818082151561261757fe5b600085815261010560205260409020805490925015156126735760018054835560008382015561010680549161264f91908301612b59565b600283018190556101068054879290811061266657fe5b6000918252602090912001555b506001810154600283900a90811615612690576136ba935061156a565b61269a3386612a2a565b8154600190116126fe5760008581526101056020526040902060020154610106805490919081106126c757fe5b600091825260208083209091018290558682526101059052604081208181556001808201839055600290910191909155935061156a565b8154600019018255600182018054821790556136be935061156a565b61272261216a565b600160a060020a03166313de3d2b868686868660405160e060020a63ffffffff8816028152600160a060020a03808716600483019081526024830187905260448301869052908416606483015260a060848301908152909160a40183818151815260200191508051906020019080838360005b838110156127ad578082015183820152602001612795565b50505050905090810190601f1680156127da5780820380516001836020036101000a031916815260200191505b509650505050505050600060405180830381600087803b15156127fc57600080fd5b5af1151561280957600080fd5b5050505050505050565b61281b61216a565b600160a060020a031663d4554737838360405160e060020a63ffffffff8516028152600160a060020a0390921660048301526024820152604401600060405180830381600087803b15156107a757600080fd5b61287661216a565b600160a060020a031663418cbda98260405160e060020a63ffffffff84160281526004810191909152602401600060405180830381600087803b151561253d57600080fd5b6128c361216a565b600160a060020a0316635b0b6f66838360405160e060020a63ffffffff8516028152600160a060020a03928316600482015291166024820152604401600060405180830381600087803b15156107a757600080fd5b61292061216a565b600160a060020a03166349a00858868686868660405160e060020a63ffffffff881602815260048101868152600160a060020a038087166024840152604483018690528416606483015260a060848301908152909160a4018381815181526020019150805190602001908083836000838110156127ad578082015183820152602001612795565b6101065460005b81811015612a1d576101068054829081106129c557fe5b60009182526020909120015415612a15576101056000610106838154811015156129eb57fe5b60009182526020808320909101548352820192909252604001812081815560018101829055600201555b6001016129ae565b6123ca6101066000612b82565b612a3261216a565b600160a060020a03166314da0797838360405160e060020a63ffffffff8516028152600160a060020a0390921660048301526024820152604401600060405180830381600087803b15156107a757600080fd5b60206040519081016040526000815290565b50805460018160011615610100020316600290046000825580601f10612abd57506124e5565b601f0160209004906000526020600020908101906124e59190612b9c565b828054600181600116156101000203166002900490600052602060002090601f016020900481019282601f10612b1c57805160ff1916838001178555612b49565b82800160010185558215612b49579182015b82811115612b49578251825591602001919060010190612b2e565b50612b55929150612b9c565b5090565b815481835581811511612b7d57600083815260209020612b7d918101908301612b9c565b505050565b50805460008255906000526020600020908101906124e591905b61219891905b80821115612b555760008155600101612ba2560057616c6c6574734d616e61676572000000000000000000000000000000000000a165627a7a7230582099a570aafec664fd813423f1e6537caf3aac4a6af7088dbfe271b32c60d19d990029a165627a7a72305820916ce93ab3a3ef35977583da0ff97b1be9caf2c2e1702d498e5b95db96ceff3e0029",
  "source": "pragma solidity ^0.4.11;\n\nimport \"./Wallet.sol\";\n\ncontract WalletsFactory {\n    function createWallet(\n        address[] _owners,\n        uint _required,\n        address _contractsManager,\n        bool _use2FA,\n        uint _releaseTime)\n    public returns(address) {\n        return new Wallet(_owners, _required, _contractsManager, _use2FA, _releaseTime);\n    }\n}\n",
  "sourcePath": "/Users/alesanro/Documents/Projects/ChronoBank/SmartContracts/contracts/wallet/WalletsFactory.sol",
  "compiler": {
    "name": "solc",
    "version": "0.4.21+commit.dfe3193c.Emscripten.clang"
  },
  "schemaVersion": "2.0.0",
  "updatedAt": "2018-04-06T09:20:59.007Z"
}