{
  "contractName": "WalletsManager",
  "abi": [
    {
      "constant": false,
      "inputs": [
        {
          "name": "wallet",
          "type": "address"
        },
        {
          "name": "by",
          "type": "address"
        }
      ],
      "name": "emitWalletCreated",
      "outputs": [],
      "payable": false,
      "stateMutability": "nonpayable",
      "type": "function"
    },
    {
      "constant": false,
      "inputs": [],
      "name": "claimContractOwnership",
      "outputs": [
        {
          "name": "",
          "type": "bool"
        }
      ],
      "payable": false,
      "stateMutability": "nonpayable",
      "type": "function"
    },
    {
      "constant": true,
      "inputs": [
        {
          "name": "_identifier",
          "type": "bytes32"
        }
      ],
      "name": "lookupManager",
      "outputs": [
        {
          "name": "manager",
          "type": "address"
        }
      ],
      "payable": false,
      "stateMutability": "view",
      "type": "function"
    },
    {
      "constant": true,
      "inputs": [],
      "name": "contractsManager",
      "outputs": [
        {
          "name": "",
          "type": "address"
        }
      ],
      "payable": false,
      "stateMutability": "view",
      "type": "function"
    },
    {
      "constant": false,
      "inputs": [
        {
          "name": "_to",
          "type": "address"
        }
      ],
      "name": "changeContractOwnership",
      "outputs": [
        {
          "name": "",
          "type": "bool"
        }
      ],
      "payable": false,
      "stateMutability": "nonpayable",
      "type": "function"
    },
    {
      "constant": true,
      "inputs": [],
      "name": "pendingContractOwner",
      "outputs": [
        {
          "name": "",
          "type": "address"
        }
      ],
      "payable": false,
      "stateMutability": "view",
      "type": "function"
    },
    {
      "constant": false,
      "inputs": [
        {
          "name": "_eventsHistory",
          "type": "address"
        }
      ],
      "name": "setEventsHistory",
      "outputs": [],
      "payable": false,
      "stateMutability": "nonpayable",
      "type": "function"
    },
    {
      "constant": false,
      "inputs": [
        {
          "name": "_contractsManager",
          "type": "address"
        }
      ],
      "name": "setContractsManager",
      "outputs": [],
      "payable": false,
      "stateMutability": "nonpayable",
      "type": "function"
    },
    {
      "constant": false,
      "inputs": [],
      "name": "destroy",
      "outputs": [],
      "payable": false,
      "stateMutability": "nonpayable",
      "type": "function"
    },
    {
      "constant": false,
      "inputs": [
        {
          "name": "_to",
          "type": "address"
        }
      ],
      "name": "transferContractOwnership",
      "outputs": [
        {
          "name": "",
          "type": "bool"
        }
      ],
      "payable": false,
      "stateMutability": "nonpayable",
      "type": "function"
    },
    {
      "constant": false,
      "inputs": [
        {
          "name": "wallet",
          "type": "address"
        }
      ],
      "name": "emitWalletDeleted",
      "outputs": [],
      "payable": false,
      "stateMutability": "nonpayable",
      "type": "function"
    },
    {
      "constant": true,
      "inputs": [],
      "name": "contractOwner",
      "outputs": [
        {
          "name": "",
          "type": "address"
        }
      ],
      "payable": false,
      "stateMutability": "view",
      "type": "function"
    },
    {
      "constant": false,
      "inputs": [
        {
          "name": "tokens",
          "type": "address[]"
        },
        {
          "name": "_to",
          "type": "address"
        }
      ],
      "name": "withdrawnTokens",
      "outputs": [
        {
          "name": "",
          "type": "uint256"
        }
      ],
      "payable": false,
      "stateMutability": "nonpayable",
      "type": "function"
    },
    {
      "constant": false,
      "inputs": [
        {
          "name": "errorCode",
          "type": "uint256"
        }
      ],
      "name": "emitError",
      "outputs": [],
      "payable": false,
      "stateMutability": "nonpayable",
      "type": "function"
    },
    {
      "constant": true,
      "inputs": [
        {
          "name": "key",
          "type": "address"
        }
      ],
      "name": "isAuthorized",
      "outputs": [
        {
          "name": "",
          "type": "bool"
        }
      ],
      "payable": false,
      "stateMutability": "view",
      "type": "function"
    },
    {
      "constant": true,
      "inputs": [],
      "name": "getEventsHistory",
      "outputs": [
        {
          "name": "",
          "type": "address"
        }
      ],
      "payable": false,
      "stateMutability": "view",
      "type": "function"
    },
    {
      "inputs": [
        {
          "name": "_store",
          "type": "address"
        },
        {
          "name": "_crate",
          "type": "bytes32"
        }
      ],
      "payable": false,
      "stateMutability": "nonpayable",
      "type": "constructor"
    },
    {
      "payable": false,
      "stateMutability": "nonpayable",
      "type": "fallback"
    },
    {
      "anonymous": false,
      "inputs": [
        {
          "indexed": true,
          "name": "self",
          "type": "address"
        },
        {
          "indexed": false,
          "name": "errorCode",
          "type": "uint256"
        }
      ],
      "name": "Error",
      "type": "event"
    },
    {
      "anonymous": false,
      "inputs": [
        {
          "indexed": true,
          "name": "self",
          "type": "address"
        },
        {
          "indexed": false,
          "name": "wallet",
          "type": "address"
        },
        {
          "indexed": true,
          "name": "by",
          "type": "address"
        }
      ],
      "name": "WalletCreated",
      "type": "event"
    },
    {
      "anonymous": false,
      "inputs": [
        {
          "indexed": true,
          "name": "self",
          "type": "address"
        },
        {
          "indexed": false,
          "name": "wallet",
          "type": "address"
        }
      ],
      "name": "WalletDeleted",
      "type": "event"
    },
    {
      "constant": false,
      "inputs": [
        {
          "name": "_contractsManager",
          "type": "address"
        },
        {
          "name": "_walletsFactory",
          "type": "address"
        }
      ],
      "name": "init",
      "outputs": [
        {
          "name": "",
          "type": "uint256"
        }
      ],
      "payable": false,
      "stateMutability": "nonpayable",
      "type": "function"
    },
    {
      "constant": false,
      "inputs": [
        {
          "name": "tokens",
          "type": "address[]"
        }
      ],
      "name": "kill",
      "outputs": [
        {
          "name": "",
          "type": "uint256"
        }
      ],
      "payable": false,
      "stateMutability": "nonpayable",
      "type": "function"
    },
    {
      "constant": true,
      "inputs": [],
      "name": "getOraclePrice",
      "outputs": [
        {
          "name": "",
          "type": "uint256"
        }
      ],
      "payable": false,
      "stateMutability": "view",
      "type": "function"
    },
    {
      "constant": true,
      "inputs": [],
      "name": "getOracleAddress",
      "outputs": [
        {
          "name": "",
          "type": "address"
        }
      ],
      "payable": false,
      "stateMutability": "view",
      "type": "function"
    },
    {
      "constant": true,
      "inputs": [],
      "name": "getWallets",
      "outputs": [
        {
          "name": "result",
          "type": "address[]"
        },
        {
          "name": "result2",
          "type": "bool[]"
        }
      ],
      "payable": false,
      "stateMutability": "view",
      "type": "function"
    },
    {
      "constant": false,
      "inputs": [
        {
          "name": "_price",
          "type": "uint256"
        }
      ],
      "name": "setOraclePrice",
      "outputs": [
        {
          "name": "",
          "type": "uint256"
        }
      ],
      "payable": false,
      "stateMutability": "nonpayable",
      "type": "function"
    },
    {
      "constant": false,
      "inputs": [
        {
          "name": "_address",
          "type": "address"
        }
      ],
      "name": "setOracleAddress",
      "outputs": [
        {
          "name": "",
          "type": "uint256"
        }
      ],
      "payable": false,
      "stateMutability": "nonpayable",
      "type": "function"
    },
    {
      "constant": false,
      "inputs": [
        {
          "name": "_owners",
          "type": "address[]"
        },
        {
          "name": "_required",
          "type": "uint256"
        },
        {
          "name": "_releaseTime",
          "type": "uint256"
        }
      ],
      "name": "createWallet",
      "outputs": [
        {
          "name": "errorCode",
          "type": "uint256"
        }
      ],
      "payable": false,
      "stateMutability": "nonpayable",
      "type": "function"
    },
    {
      "constant": false,
      "inputs": [
        {
          "name": "_releaseTime",
          "type": "uint256"
        }
      ],
      "name": "create2FAWallet",
      "outputs": [
        {
          "name": "errorCode",
          "type": "uint256"
        }
      ],
      "payable": false,
      "stateMutability": "nonpayable",
      "type": "function"
    },
    {
      "constant": false,
      "inputs": [],
      "name": "removeWallet",
      "outputs": [
        {
          "name": "",
          "type": "uint256"
        }
      ],
      "payable": false,
      "stateMutability": "nonpayable",
      "type": "function"
    }
  ],
  "bytecode": "0x606060405234156200001057600080fd5b604051604080620026c98339810160405280805191906020018051915082905081818181816200005160008383640100000000620020e86200017f82021704565b505060028054600160a060020a03338116600160a060020a03199283161790925560058054309093169290911691909117905550620000c69250600b91507f77616c6c657473466163746f727900000000000000000000000000000000000090506401000000006200210e620001a582021704565b6200010160067f77616c6c657473000000000000000000000000000000000000000000000000006401000000006200211e620001c582021704565b6200013c600c7f6f7261636c6541646472657373000000000000000000000000000000000000006401000000006200210e620001a582021704565b62000177600d7f6f7261636c6550726963650000000000000000000000000000000000000000006401000000006200210e620001a582021704565b5050620003ba565b8254600160a060020a031916600160a060020a0392909216919091178255600190910155565b8154620001c1908264010000000062002134620001e382021704565b9055565b620001df82826401000000006200214a620001fb82021704565b5050565b81151580620001f0575080155b15620001df57600080fd5b6200025282826040519081527f75696e742f636f756e74000000000000000000000000000000000000000000006020820152602a016040518091039020620001a5640100000000026200210e176401000000009004565b620002ac82600101826040519081527f75696e742f6669727374000000000000000000000000000000000000000000006020820152602a016040518091039020620001a5640100000000026200210e176401000000009004565b6200030682600201826040519081527f75696e742f6c617374000000000000000000000000000000000000000000000060208201526029016040518091039020620001a5640100000000026200210e176401000000009004565b6200036082600301826040519081527f75696e742f6e657874000000000000000000000000000000000000000000000060208201526029016040518091039020620001a5640100000000026200210e176401000000009004565b620001df82600401826040519081527f75696e742f70726576000000000000000000000000000000000000000000000060208201526029016040518091039020620001a5640100000000026200210e176401000000009004565b6122ff80620003ca6000396000f30060606040526004361061013a5763ffffffff60e060020a6000350416632286975c811461014a578063250aa1a11461016f5780633c0fc6ea146101965780634592cd1d146101e55780634c69c00f1461020c5780634fe590121461022b57806353253d311461025d578063557f4bc9146102705780635aa77d3c1461028f5780636521afd7146102a25780636830bcf0146102c157806371d3b57314610317578063796da7af1461033657806383197ef014610349578063a843c51f1461035c578063b18b78dd1461037b578063bea995661461038e578063c65cd86d146103ad578063ce606ee0146103c3578063d06c6566146103d6578063d8f9659b146103ec578063db7a460514610446578063df26ca08146104f2578063f09a401614610508578063fe9fbb801461052d578063fff10aba1461054c575b341561014557600080fd5b600080fd5b341561015557600080fd5b61015d61055f565b60405190815260200160405180910390f35b341561017a57600080fd5b610194600160a060020a0360043581169060243516610615565b005b34156101a157600080fd5b61015d600460248135818101908301358060208181020160405190810160405280939291908181526020018383602002808284375094965061067195505050505050565b34156101f057600080fd5b6101f86106a7565b604051901515815260200160405180910390f35b341561021757600080fd5b61015d600160a060020a03600435166106f3565b341561023657600080fd5b61024160043561071e565b604051600160a060020a03909116815260200160405180910390f35b341561026857600080fd5b610241610796565b341561027b57600080fd5b6101f8600160a060020a03600435166107a5565b341561029a57600080fd5b6102416107fc565b34156102ad57600080fd5b610194600160a060020a036004351661080b565b34156102cc57600080fd5b61015d60046024813581810190830135806020818102016040519081016040528093929190818152602001838360200280828437509496505084359460200135935061084192505050565b341561032257600080fd5b610194600160a060020a0360043516610867565b341561034157600080fd5b61015d61089e565b341561035457600080fd5b6101946108b6565b341561036757600080fd5b6101f8600160a060020a036004351661093f565b341561038657600080fd5b6102416109b8565b341561039957600080fd5b610194600160a060020a03600435166109cb565b34156103b857600080fd5b61015d600435610a1c565b34156103ce57600080fd5b610241610a3f565b34156103e157600080fd5b61015d600435610a4e565b34156103f757600080fd5b61015d600460248135818101908301358060208181020160405190810160405280939291908181526020018383602002808284375094965050509235600160a060020a03169250610a6e915050565b341561045157600080fd5b610459610ba5565b604051808060200180602001838103835285818151815260200191508051906020019060200280838360005b8381101561049d578082015183820152602001610485565b50505050905001838103825284818151815260200191508051906020019060200280838360005b838110156104dc5780820151838201526020016104c4565b5050505090500194505050505060405180910390f35b34156104fd57600080fd5b610194600435610d14565b341561051357600080fd5b61015d600160a060020a0360043581169060243516610d5b565b341561053857600080fd5b6101f8600160a060020a0360043516610dbc565b341561055757600080fd5b610241610e55565b60006105738160063363ffffffff610e6416565b151561058b576105846136b4610e7a565b9050610612565b610593610e55565b600160a060020a031663ab0da5a93360405160e060020a63ffffffff8416028152600160a060020a039091166004820152602401600060405180830381600087803b15156105e057600080fd5b5af115156105ed57600080fd5b5061060591506000905060063363ffffffff610edf16565b61060e33610ef8565b5060015b90565b80600160a060020a0316610627610f60565b600160a060020a03167fca0b7dde26052d34217ef1a0cee48085a07ca32da0a918609937a307d496bbf584604051600160a060020a03909116815260200160405180910390a35050565b60025460009033600160a060020a03908116911614156106a2576106958233610a6e565b5033600160a060020a0316ff5b919050565b60035460009033600160a060020a039081169116146106c857506000610612565b506003805460028054600160a060020a0319908116600160a060020a03841617909155169055600190565b60006106fe33610dbc565b156106a2576107166000600c8463ffffffff610f6416565b506001919050565b600454600090600160a060020a031663bc6579278360405160e060020a63ffffffff84160281526004810191909152602401602060405180830381600087803b151561076957600080fd5b5af1151561077657600080fd5b5050506040518051915050600160a060020a03811615156106a257600080fd5b600454600160a060020a031681565b60025460009033600160a060020a03908116911614156106a257600160a060020a03821615156107d7575060006106a2565b5060038054600160a060020a038316600160a060020a03199091161790556001919050565b600354600160a060020a031681565b60025433600160a060020a039081169116141561083e5760058054600160a060020a031916600160a060020a0383161790555b50565b600061085d848484602060405190810160405260008152610fe2565b90505b9392505050565b60025433600160a060020a039081169116141561083e5760048054600160a060020a038316600160a060020a031990911617905550565b60006108b181600d63ffffffff6112dc16565b905090565b60025433600160a060020a039081169116141561093d57600454600160a060020a031663c375c2ef3060405160e060020a63ffffffff8416028152600160a060020a039091166004820152602401602060405180830381600087803b151561091d57600080fd5b5af1151561092a57600080fd5b505050604051805190505061093d611333565b565b60025460009033600160a060020a03908116911614156106a257600160a060020a0382161515610971575060006106a2565b600354600160a060020a0316156109935760038054600160a060020a03191690555b5060028054600160a060020a038316600160a060020a03199091161790556001919050565b60006108b181600c63ffffffff61135616565b6109d3610f60565b600160a060020a03167f49de411f58cbd9799f63088434ff82d488c93ad291d4844de5c68b6bc6704cdd82604051600160a060020a03909116815260200160405180910390a250565b6000610a2733610dbc565b156106a2576107166000600d8463ffffffff6113ad16565b600254600160a060020a031681565b6000610a688260206040519081016040526000815261140d565b92915050565b60025460009081908190819033600160a060020a0390811691161415610b9c57600092505b8551831015610b9757858381518110610aa857fe5b90602001906020020151915081600160a060020a03166370a082313060405160e060020a63ffffffff8416028152600160a060020a039091166004820152602401602060405180830381600087803b1515610b0257600080fd5b5af11515610b0f57600080fd5b50505060405180519150508015610b8c5781600160a060020a031663a9059cbb868360405160e060020a63ffffffff8516028152600160a060020a0390921660048301526024820152604401602060405180830381600087803b1515610b7457600080fd5b5af11515610b8157600080fd5b505050604051805150505b600190920191610a93565b600193505b50505092915050565b610bad6120af565b610bb56120af565b610bbd6120c1565b600080610bd181600663ffffffff61179416565b9250610be56000600663ffffffff6117a616565b604051805910610bf25750595b90808252806020026020018201604052509450610c176000600663ffffffff6117a616565b604051805910610c245750595b90808252806020026020018201604052509350600090505b610c4f600060068563ffffffff6117b216565b15610d0d57610c67600060068563ffffffff6117bf16565b9150610c7382336117cc565b15610d085781858281518110610c8557fe5b600160a060020a03928316602091820290920101528216639d2a43ad6040518163ffffffff1660e060020a028152600401602060405180830381600087803b1515610ccf57600080fd5b5af11515610cdc57600080fd5b50505060405180519050848280600101935081518110610cf857fe5b9115156020928302909101909101525b610c3c565b5050509091565b610d1c610f60565b600160a060020a03167f9cf38cf2dbf9139f5c32639950507b10775fbbe0421f3e168bc2d1bb1ae3208c8260405190815260200160405180910390a250565b60025460009033600160a060020a0390811691161415610a6857610d9f837f57616c6c6574734d616e6167657200000000000000000000000000000000000061181c565b50610db36000600b8463ffffffff610f6416565b50600192915050565b600080610de87f557365724d616e6167657200000000000000000000000000000000000000000061071e565b905080600160a060020a0316632aa09e5a8460405160e060020a63ffffffff8416028152600160a060020a039091166004820152602401602060405180830381600087803b1515610e3857600080fd5b5af11515610e4557600080fd5b5050506040518051949350505050565b600554600160a060020a031690565b600061085d8484600160a060020a0385166119f3565b6000610e84610e55565b600160a060020a031663df26ca088360405160e060020a63ffffffff84160281526004810191909152602401600060405180830381600087803b1515610ec957600080fd5b5af11515610ed657600080fd5b50929392505050565b610ef38383600160a060020a038416611a0f565b505050565b610f00610e55565b600160a060020a031663bea995668260405160e060020a63ffffffff8416028152600160a060020a039091166004820152602401600060405180830381600087803b1515610f4d57600080fd5b5af11515610f5a57600080fd5b50505050565b3390565b825460018401548354600160a060020a03909216916379a7cfee91908460405160e060020a63ffffffff861602815260048101939093526024830191909152600160a060020a03166044820152606401600060405180830381600087803b1515610fcd57600080fd5b5af11515610fda57600080fd5b505050505050565b600080600083610ff0611a29565b600160a060020a031663709586c13330600035600160e060020a03191660405160e060020a63ffffffff8616028152600160a060020a039384166004820152919092166024820152600160e060020a03199091166044820152606401602060405180830381600087803b151561106557600080fd5b5af1151561107257600080fd5b50505060405180519050151561108e576155f060005260206000f35b868851101561109c57600080fd5b6110ae6000600b63ffffffff61135616565b600454909350600160a060020a0380851691634f1347af918b918b911660008b60405160e060020a63ffffffff881602815260248101859052600160a060020a038416604482015282151560648201526084810182905260a06004820190815290819060a40187818151815260200191508051906020019060200280838360005b8381101561114757808201518382015260200161112f565b505050509050019650505050505050602060405180830381600087803b151561116f57600080fd5b5af1151561117c57600080fd5b505050604051805190509150611190610e55565b600160a060020a031663b6a5d7de8360405160e060020a63ffffffff8416028152600160a060020a039091166004820152602401602060405180830381600087803b15156111dd57600080fd5b5af115156111ea57600080fd5b5050506040518051905015156111ff57600080fd5b611212600060068463ffffffff611a5416565b61121c8233611a68565b600180865293508381511480156112c757506001611238611a29565b600160a060020a03166384509ca83330600035600160e060020a03191660405160e060020a63ffffffff8616028152600160a060020a039384166004820152919092166024820152600160e060020a03199091166044820152606401602060405180830381600087803b15156112ad57600080fd5b5af115156112ba57600080fd5b5050506040518051905014155b156112d157600080fd5b505050949350505050565b815460018301548254600092600160a060020a0316916353aa3f5e9160405160e060020a63ffffffff851602815260048101929092526024820152604401602060405180830381600087803b1515610e3857600080fd5b60025433600160a060020a039081169116141561093d5733600160a060020a0316ff5b815460018301548254600092600160a060020a03169163d3a396869160405160e060020a63ffffffff851602815260048101929092526024820152604401602060405180830381600087803b1515610e3857600080fd5b825460018401548354600160a060020a03909216916353e7168b91908460405160e060020a63ffffffff8616028152600481019390935260248301919091526044820152606401600060405180830381600087803b1515610fcd57600080fd5b6000806114186120af565b600084611423611a29565b600160a060020a031663709586c13330600035600160e060020a03191660405160e060020a63ffffffff8616028152600160a060020a039384166004820152919092166024820152600160e060020a03199091166044820152606401602060405180830381600087803b151561149857600080fd5b5af115156114a557600080fd5b5050506040518051905015156114c1576155f060005260206000f35b6114c96109b8565b600160a060020a031615156114ea576114e36136b0610e7a565b94506116db565b6114fc6000600b63ffffffff61135616565b9350600260405180591061150d5750595b90808252806020026020018201604052509250338360008151811061152e57fe5b600160a060020a0390921660209283029091019091015261154d6109b8565b8360018151811061155a57fe5b600160a060020a039283166020918202909201015260045485821691634f1347af9186916002911660018c60405160e060020a63ffffffff881602815260248101859052600160a060020a038416604482015282151560648201526084810182905260a06004820190815290819060a40187818151815260200191508051906020019060200280838360005b838110156115fe5780820151838201526020016115e6565b505050509050019650505050505050602060405180830381600087803b151561162657600080fd5b5af1151561163357600080fd5b505050604051805190509150611647610e55565b600160a060020a031663b6a5d7de8360405160e060020a63ffffffff8416028152600160a060020a039091166004820152602401602060405180830381600087803b151561169457600080fd5b5af115156116a157600080fd5b5050506040518051905015156116b657600080fd5b6116c9600060068463ffffffff611a5416565b6116d38233611a68565b600180875294505b60018151148015611780575060016116f1611a29565b600160a060020a03166384509ca83330600035600160e060020a03191660405160e060020a63ffffffff8616028152600160a060020a039384166004820152919092166024820152600160e060020a03199091166044820152606401602060405180830381600087803b151561176657600080fd5b5af1151561177357600080fd5b5050506040518051905014155b1561178a57600080fd5b5050505092915050565b61179c6120c1565b6108608383611ad9565b60006108608383611afa565b600061085d848484611b15565b600061085d848484611b50565b600082600160a060020a0316632f54bf6e8360405160e060020a63ffffffff8416028152600160a060020a039091166004820152602401602060405180830381600087803b1515610e3857600080fd5b60025460009081908190819033600160a060020a0390811691161461184057600080fd5b600160a060020a038616151561185557600080fd5b600454600160a060020a031615801593508061187f5750600454600160a060020a03878116911614155b156118a05760048054600160a060020a031916600160a060020a0388161790555b600454600160a060020a031691508163bc65792760405160e060020a63ffffffff83160281527f4d756c74694576656e7473486973746f727900000000000000000000000000006004820152602401602060405180830381600087803b151561190857600080fd5b5af1151561191557600080fd5b5050506040518051915050600160a060020a038116158015906119465750600554600160a060020a03828116911614155b156119675760058054600160a060020a031916600160a060020a0383161790555b84156119e15781600160a060020a031663b7c46cd5308760405160e060020a63ffffffff8516028152600160a060020a0390921660048301526024820152604401602060405180830381600087803b15156119c157600080fd5b5af115156119ce57600080fd5b505050604051805160011490506119e157fe5b8215610b975760069695505050505050565b600061085d84846000805160206122b483398151915285611b9c565b610ef383836000805160206122b483398151915284611bd9565b60006108b17f466561747572654665654d616e6167657200000000000000000000000000000061071e565b610ef38383600160a060020a038416611cd9565b611a70610e55565b600160a060020a031663250aa1a1838360405160e060020a63ffffffff8516028152600160a060020a03928316600482015291166024820152604401600060405180830381600087803b1515611ac557600080fd5b5af11515611ad257600080fd5b5050505050565b611ae16120c1565b61086083836000805160206122b4833981519152611cf3565b600061086083836000805160206122b4833981519152611d11565b600081602001511580611b395750611b37848484606001518560400151611b9c565b155b15611b4657506000610860565b5060019392505050565b6000611b5d848484611b15565b1515611b6857600080fd5b81604001519050611b83848484606001518560400151611d1e565b6040830152600160208301818151039052509392505050565b60008115801590611bd05750611bb785856003018585611d2b565b151580611bd0575081611bce866002870186611d4c565b145b95945050505050565b611be584848484611b9c565b1515611bf057610f5a565b611c1c848460030184611c0888886004018888611d2b565b611c1789896003018989611d2b565b611dd9565b611c43848460040184611c3488886003018888611d2b565b611c1789896004018989611d2b565b611c51848460010184611d4c565b811415611c7557611c75848460010184611c7088886003018888611d2b565b611dec565b611c83848460020184611d4c565b811415611ca257611ca2848460020184611c7088886004018888611d2b565b611cb184846003018484611e7a565b611cc084846004018484611e7a565b610f5a8484846001611cd3848484611e8e565b03611efd565b610ef383836000805160206122b483398151915284611f75565b611cfb6120c1565b61085d848484611d0c838383611e8e565b612038565b600061085d848484611e8e565b6000611bd0858560030185855b6000611bd08585858560405191825260208201526040908101905180910390205b825460018401548354600092600160a060020a0316916337d9d7fc9185604051918252602082015260409081019051809103902060405160e060020a63ffffffff851602815260048101929092526024820152604401602060405180830381600087803b1515611dbb57600080fd5b5af11515611dc857600080fd5b505050604051805195945050505050565b8115611ad257611ad28585858585612058565b835460018501548454600160a060020a039092169163a14ff85791908560405191825260208201526040908101905180910390208460405160e060020a63ffffffff8616028152600481019390935260248301919091526044820152606401600060405180830381600087803b1515611e6457600080fd5b5af11515611e7157600080fd5b50505050505050565b8015610f5a57610f5a848484846000612058565b825460018401548354600092600160a060020a0316916353aa3f5e9185604051918252602082015260409081019051809103902060405160e060020a63ffffffff851602815260048101929092526024820152604401602060405180830381600087803b1515611dbb57600080fd5b835460018501548454600160a060020a03909216916353e7168b91908560405191825260208201526040908101905180910390208460405160e060020a63ffffffff8616028152600481019390935260248301919091526044820152606401600060405180830381600087803b1515611e6457600080fd5b801515611f8157600080fd5b611f8d84848484611b9c565b15611f9757610f5a565b611fa2848484611d11565b1515611fb757611fb784846001018484611dec565b611fc5848460020184611d4c565b15611fff57611fe7848460030184611fe1888860020188611d4c565b85611dd9565b611fff84846004018484611c17898960020189611d4c565b612010846003850184846000611dd9565b61201f84846002018484611dec565b610f5a848484612030838383611e8e565b600101611efd565b6120406120c1565b611bd083612052878760010187611d4c565b8461207c565b611ad285858585604051918252602082015260409081019051809103902084611dec565b6120846120c1565b6080604051908101604090815283825260208201939093529182019290925260608101929092525090565b60206040519081016040526000815290565b60806040519081016040908152600080835260208301819052908201819052606082015290565b8254600160a060020a031916600160a060020a0392909216919091178255600190910155565b815461211a9082612134565b9055565b612128828261214a565b5050565b815461211a90825b81151580612140575080155b1561212857600080fd5b61218b82826040519081527f75696e742f636f756e74000000000000000000000000000000000000000000006020820152602a01604051809103902061210e565b6121cf82600101826040519081527f75696e742f6669727374000000000000000000000000000000000000000000006020820152602a01604051809103902061210e565b61221382600201826040519081527f75696e742f6c61737400000000000000000000000000000000000000000000006020820152602901604051809103902061210e565b61225782600301826040519081527f75696e742f6e65787400000000000000000000000000000000000000000000006020820152602901604051809103902061210e565b61212882600401826040519081527f75696e742f7072657600000000000000000000000000000000000000000000006020820152602901604051809103902061210e565b815461211a9082612134565b815461211a908261213456006f7264657265645f736574000000000000000000000000000000000000000000a165627a7a7230582001b5299d7caa47594f13bc25fd92cb6cc4d5d2450a01aa35843592d5cbf9e08a0029",
  "source": "pragma solidity ^0.4.11;\n\nimport \"../core/common/BaseManager.sol\";\nimport \"./WalletsManagerEmitter.sol\";\nimport \"../timeholder/FeatureFeeAdapter.sol\";\nimport \"../core/event/MultiEventsHistory.sol\";\n\ncontract WalletsFactoryInterface {\n    function createWallet(address[] _owners, uint _required, address _contractsManager, bool _use2FA, uint _releaseTime) public returns (address);\n}\n\ncontract WalletInterface {\n    bool public use2FA;\n    function isOwner(address _addr) public view returns (bool);\n}\n\ncontract WalletsManager is WalletsManagerEmitter, FeatureFeeAdapter, BaseManager {\n    uint constant ERROR_WALLET_INVALID_INVOCATION = 14000;\n    uint constant ERROR_WALLET_EXISTS = 14001;\n    uint constant ERROR_WALLET_OWNER_ONLY = 14002;\n    uint constant ERROR_WALLET_CANNOT_ADD_TO_REGISTRY = 14003;\n    uint constant ERROR_WALLET_UNKNOWN = 14004;\n\n    StorageInterface.OrderedAddressesSet wallets;\n    StorageInterface.Address walletsFactory;\n    StorageInterface.Address oracleAddress;\n    StorageInterface.UInt oraclePrice;\n\n    function WalletsManager(Storage _store, bytes32 _crate) BaseManager(_store, _crate) public {\n        walletsFactory.init(\"walletsFactory\");\n        wallets.init('wallets');\n        oracleAddress.init('oracleAddress');\n        oraclePrice.init('oraclePrice');\n    }\n\n    function init(address _contractsManager, address _walletsFactory)\n    public\n    onlyContractOwner\n    returns (uint)\n    {\n        BaseManager.init(_contractsManager, \"WalletsManager\");\n        store.set(walletsFactory, _walletsFactory);\n        return OK;\n    }\n\n    function kill(address[] tokens)\n    public\n    onlyContractOwner\n    returns (uint)\n    {\n        withdrawnTokens(tokens,msg.sender);\n        selfdestruct(msg.sender);\n        return OK;\n    }\n\n    function getOraclePrice() public constant returns (uint) {\n        return store.get(oraclePrice);\n    }\n\n    function getOracleAddress() public constant returns (address) {\n        return store.get(oracleAddress);\n    }\n\n    function getWallets() public constant returns (address[] result, bool[] result2) {\n        StorageInterface.Iterator memory iterator = store.listIterator(wallets);\n        address wallet;\n        result = new address[](store.count(wallets));\n        result2 = new bool[](store.count(wallets));\n        for(uint j = 0; store.canGetNextWithIterator(wallets, iterator);) {\n            wallet = store.getNextWithIterator(wallets, iterator);\n            if (isWalletOwner(wallet,msg.sender)) {\n                result[j] = wallet;\n                result2[j++] = WalletInterface(wallet).use2FA();\n            }\n        }\n        return (result,result2);\n    }\n\n    function setOraclePrice(uint _price) external onlyAuthorized returns (uint) {\n        store.set(oraclePrice,_price);\n        return OK;\n    }\n\n    function setOracleAddress(address _address) external onlyAuthorized returns (uint) {\n        store.set(oracleAddress,_address);\n        return OK;\n    }\n\n    function createWallet(address[] _owners, uint _required, uint _releaseTime)\n    public\n    returns (uint errorCode)\n    {\n        return _createWallet(_owners, _required, _releaseTime, [uint(0)]);\n    }\n\n    function create2FAWallet(uint _releaseTime)\n    public\n    returns (uint errorCode)\n    {\n        return _create2FAWallet(_releaseTime, [uint(0)]);\n    }\n\n    /**\n    *  Deletes sender from a list of wallets if present.\n    *  Designed to be called only by wallet.\n    */\n    function removeWallet() public returns (uint) {\n        if(!store.includes(wallets, msg.sender)) {\n            return _emitError(ERROR_WALLET_UNKNOWN);\n        }\n\n        MultiEventsHistory(getEventsHistory()).reject(msg.sender);\n\n        store.remove(wallets, msg.sender);\n        _emitWalletDeleted(msg.sender);\n        return OK;\n    }\n\n    function isWalletOwner(address _wallet, address _owner) internal view returns (bool) {\n        return WalletInterface(_wallet).isOwner(_owner);\n    }\n\n    function _createWallet(address[] _owners, uint _required, uint _releaseTime, uint[1] memory _result)\n    private\n    featured(_result)\n    returns (uint errorCode)\n    {\n        require(_owners.length >= _required);\n\n        WalletsFactoryInterface factory = WalletsFactoryInterface(store.get(walletsFactory));\n        address _wallet = factory.createWallet(_owners, _required, contractsManager, false, _releaseTime);\n        if (!MultiEventsHistory(getEventsHistory()).authorize(_wallet)) {\n            revert();\n        }\n\n        store.add(wallets, _wallet);\n\n        _emitWalletCreated(_wallet, msg.sender);\n\n        _result[0] = OK;\n        return OK;\n    }\n\n    function _create2FAWallet(uint _releaseTime, uint[1] memory _result)\n    private\n    featured(_result)\n    returns (uint errorCode)\n    {\n        if (getOracleAddress() == 0x0) {\n            return _emitError(ERROR_WALLET_INVALID_INVOCATION);\n        }\n\n        WalletsFactoryInterface factory = WalletsFactoryInterface(store.get(walletsFactory));\n\n        address[] memory _owners = new address[](2);\n        _owners[0] = msg.sender;\n        _owners[1] = getOracleAddress();\n\n        address _wallet = factory.createWallet(_owners,2,contractsManager, true, _releaseTime);\n        if (!MultiEventsHistory(getEventsHistory()).authorize(_wallet)) {\n            revert();\n        }\n\n        store.add(wallets, _wallet);\n\n        _emitWalletCreated(_wallet, msg.sender);\n\n        _result[0] = OK;\n        return OK;\n    }\n\n    function _emitError(uint error) internal returns (uint) {\n        WalletsManager(getEventsHistory()).emitError(error);\n        return error;\n    }\n\n    function _emitWalletCreated(address wallet, address by) internal {\n        WalletsManager(getEventsHistory()).emitWalletCreated(wallet, by);\n    }\n\n    function _emitWalletDeleted(address wallet) internal {\n        WalletsManager(getEventsHistory()).emitWalletDeleted(wallet);\n    }\n\n    function () public {\n        revert();\n    }\n}\n",
  "sourcePath": "/Users/ahiatsevich/Development/chronobank/SmartContracts/contracts/wallet/WalletsManager.sol",
  "compiler": {
    "name": "solc",
    "version": "0.4.21+commit.dfe3193c.Emscripten.clang"
  },
  "schemaVersion": "2.0.0",
  "updatedAt": "2018-04-05T14:52:04.178Z"
}