{
  "contractName": "WalletsManager",
  "abi": [
    {
      "constant": false,
      "inputs": [],
      "name": "removeWallet",
      "outputs": [
        {
          "name": "",
          "type": "uint256"
        }
      ],
      "payable": false,
      "stateMutability": "nonpayable",
      "type": "function"
    },
    {
      "constant": false,
      "inputs": [
        {
          "name": "wallet",
          "type": "address"
        },
        {
          "name": "by",
          "type": "address"
        }
      ],
      "name": "emitWalletCreated",
      "outputs": [],
      "payable": false,
      "stateMutability": "nonpayable",
      "type": "function"
    },
    {
      "constant": false,
      "inputs": [
        {
          "name": "tokens",
          "type": "address[]"
        }
      ],
      "name": "kill",
      "outputs": [
        {
          "name": "",
          "type": "uint256"
        }
      ],
      "payable": false,
      "stateMutability": "nonpayable",
      "type": "function"
    },
    {
      "constant": false,
      "inputs": [],
      "name": "claimContractOwnership",
      "outputs": [
        {
          "name": "",
          "type": "bool"
        }
      ],
      "payable": false,
      "stateMutability": "nonpayable",
      "type": "function"
    },
    {
      "constant": false,
      "inputs": [
        {
          "name": "_address",
          "type": "address"
        }
      ],
      "name": "setOracleAddress",
      "outputs": [
        {
          "name": "",
          "type": "uint256"
        }
      ],
      "payable": false,
      "stateMutability": "nonpayable",
      "type": "function"
    },
    {
      "constant": true,
      "inputs": [
        {
          "name": "_identifier",
          "type": "bytes32"
        }
      ],
      "name": "lookupManager",
      "outputs": [
        {
          "name": "manager",
          "type": "address"
        }
      ],
      "payable": false,
      "stateMutability": "view",
      "type": "function"
    },
    {
      "constant": true,
      "inputs": [],
      "name": "contractsManager",
      "outputs": [
        {
          "name": "",
          "type": "address"
        }
      ],
      "payable": false,
      "stateMutability": "view",
      "type": "function"
    },
    {
      "constant": false,
      "inputs": [
        {
          "name": "_to",
          "type": "address"
        }
      ],
      "name": "changeContractOwnership",
      "outputs": [
        {
          "name": "",
          "type": "bool"
        }
      ],
      "payable": false,
      "stateMutability": "nonpayable",
      "type": "function"
    },
    {
      "constant": true,
      "inputs": [],
      "name": "pendingContractOwner",
      "outputs": [
        {
          "name": "",
          "type": "address"
        }
      ],
      "payable": false,
      "stateMutability": "view",
      "type": "function"
    },
    {
      "constant": false,
      "inputs": [
        {
          "name": "_eventsHistory",
          "type": "address"
        }
      ],
      "name": "setEventsHistory",
      "outputs": [],
      "payable": false,
      "stateMutability": "nonpayable",
      "type": "function"
    },
    {
      "constant": false,
      "inputs": [
        {
          "name": "_contractsManager",
          "type": "address"
        }
      ],
      "name": "setContractsManager",
      "outputs": [],
      "payable": false,
      "stateMutability": "nonpayable",
      "type": "function"
    },
    {
      "constant": true,
      "inputs": [],
      "name": "getOraclePrice",
      "outputs": [
        {
          "name": "",
          "type": "uint256"
        }
      ],
      "payable": false,
      "stateMutability": "view",
      "type": "function"
    },
    {
      "constant": false,
      "inputs": [],
      "name": "destroy",
      "outputs": [],
      "payable": false,
      "stateMutability": "nonpayable",
      "type": "function"
    },
    {
      "constant": false,
      "inputs": [
        {
          "name": "_to",
          "type": "address"
        }
      ],
      "name": "transferContractOwnership",
      "outputs": [
        {
          "name": "",
          "type": "bool"
        }
      ],
      "payable": false,
      "stateMutability": "nonpayable",
      "type": "function"
    },
    {
      "constant": true,
      "inputs": [],
      "name": "getOracleAddress",
      "outputs": [
        {
          "name": "",
          "type": "address"
        }
      ],
      "payable": false,
      "stateMutability": "view",
      "type": "function"
    },
    {
      "constant": false,
      "inputs": [
        {
          "name": "wallet",
          "type": "address"
        }
      ],
      "name": "emitWalletDeleted",
      "outputs": [],
      "payable": false,
      "stateMutability": "nonpayable",
      "type": "function"
    },
    {
      "constant": false,
      "inputs": [
        {
          "name": "_price",
          "type": "uint256"
        }
      ],
      "name": "setOraclePrice",
      "outputs": [
        {
          "name": "",
          "type": "uint256"
        }
      ],
      "payable": false,
      "stateMutability": "nonpayable",
      "type": "function"
    },
    {
      "constant": true,
      "inputs": [],
      "name": "contractOwner",
      "outputs": [
        {
          "name": "",
          "type": "address"
        }
      ],
      "payable": false,
      "stateMutability": "view",
      "type": "function"
    },
    {
      "constant": false,
      "inputs": [
        {
          "name": "_releaseTime",
          "type": "uint256"
        }
      ],
      "name": "create2FAWallet",
      "outputs": [
        {
          "name": "errorCode",
          "type": "uint256"
        }
      ],
      "payable": false,
      "stateMutability": "nonpayable",
      "type": "function"
    },
    {
      "constant": false,
      "inputs": [
        {
          "name": "tokens",
          "type": "address[]"
        },
        {
          "name": "_to",
          "type": "address"
        }
      ],
      "name": "withdrawnTokens",
      "outputs": [
        {
          "name": "",
          "type": "uint256"
        }
      ],
      "payable": false,
      "stateMutability": "nonpayable",
      "type": "function"
    },
    {
      "constant": true,
      "inputs": [],
      "name": "getWallets",
      "outputs": [
        {
          "name": "result",
          "type": "address[]"
        },
        {
          "name": "result2",
          "type": "bool[]"
        }
      ],
      "payable": false,
      "stateMutability": "view",
      "type": "function"
    },
    {
      "constant": false,
      "inputs": [
        {
          "name": "errorCode",
          "type": "uint256"
        }
      ],
      "name": "emitError",
      "outputs": [],
      "payable": false,
      "stateMutability": "nonpayable",
      "type": "function"
    },
    {
      "constant": false,
      "inputs": [
        {
          "name": "_contractsManager",
          "type": "address"
        },
        {
          "name": "_walletsFactory",
          "type": "address"
        }
      ],
      "name": "init",
      "outputs": [
        {
          "name": "",
          "type": "uint256"
        }
      ],
      "payable": false,
      "stateMutability": "nonpayable",
      "type": "function"
    },
    {
      "constant": true,
      "inputs": [
        {
          "name": "key",
          "type": "address"
        }
      ],
      "name": "isAuthorized",
      "outputs": [
        {
          "name": "",
          "type": "bool"
        }
      ],
      "payable": false,
      "stateMutability": "view",
      "type": "function"
    },
    {
      "constant": true,
      "inputs": [],
      "name": "getEventsHistory",
      "outputs": [
        {
          "name": "",
          "type": "address"
        }
      ],
      "payable": false,
      "stateMutability": "view",
      "type": "function"
    },
    {
      "inputs": [
        {
          "name": "_store",
          "type": "address"
        },
        {
          "name": "_crate",
          "type": "bytes32"
        }
      ],
      "payable": false,
      "stateMutability": "nonpayable",
      "type": "constructor"
    },
    {
      "payable": false,
      "stateMutability": "nonpayable",
      "type": "fallback"
    },
    {
      "anonymous": false,
      "inputs": [
        {
          "indexed": true,
          "name": "self",
          "type": "address"
        },
        {
          "indexed": false,
          "name": "errorCode",
          "type": "uint256"
        }
      ],
      "name": "Error",
      "type": "event"
    },
    {
      "anonymous": false,
      "inputs": [
        {
          "indexed": true,
          "name": "self",
          "type": "address"
        },
        {
          "indexed": false,
          "name": "wallet",
          "type": "address"
        },
        {
          "indexed": true,
          "name": "by",
          "type": "address"
        }
      ],
      "name": "WalletCreated",
      "type": "event"
    },
    {
      "anonymous": false,
      "inputs": [
        {
          "indexed": true,
          "name": "self",
          "type": "address"
        },
        {
          "indexed": false,
          "name": "wallet",
          "type": "address"
        }
      ],
      "name": "WalletDeleted",
      "type": "event"
    },
    {
      "constant": false,
      "inputs": [
        {
          "name": "_owners",
          "type": "address[]"
        },
        {
          "name": "_required",
          "type": "uint256"
        },
        {
          "name": "_releaseTime",
          "type": "uint256"
        }
      ],
      "name": "createWallet",
      "outputs": [
        {
          "name": "errorCode",
          "type": "uint256"
        }
      ],
      "payable": false,
      "stateMutability": "nonpayable",
      "type": "function"
    }
  ],
  "bytecode": "0x606060405234156200001057600080fd5b604051604080620027de8339810160405280805191906020018051915082905081818181816200005160008383640100000000620021fd6200017f82021704565b505060028054600160a060020a03338116600160a060020a03199283161790925560058054309093169290911691909117905550620000c69250600b91507f77616c6c657473466163746f7279000000000000000000000000000000000000905064010000000062002223620001a582021704565b6200010160067f77616c6c6574730000000000000000000000000000000000000000000000000064010000000062002233620001c582021704565b6200013c600c7f6f7261636c65416464726573730000000000000000000000000000000000000064010000000062002223620001a582021704565b62000177600d7f6f7261636c65507269636500000000000000000000000000000000000000000064010000000062002223620001a582021704565b5050620003ba565b8254600160a060020a031916600160a060020a0392909216919091178255600190910155565b8154620001c1908264010000000062002249620001e382021704565b9055565b620001df82826401000000006200225f620001fb82021704565b5050565b81151580620001f0575080155b15620001df57600080fd5b6200025282826040519081527f75696e742f636f756e74000000000000000000000000000000000000000000006020820152602a016040518091039020620001a56401000000000262002223176401000000009004565b620002ac82600101826040519081527f75696e742f6669727374000000000000000000000000000000000000000000006020820152602a016040518091039020620001a56401000000000262002223176401000000009004565b6200030682600201826040519081527f75696e742f6c617374000000000000000000000000000000000000000000000060208201526029016040518091039020620001a56401000000000262002223176401000000009004565b6200036082600301826040519081527f75696e742f6e657874000000000000000000000000000000000000000000000060208201526029016040518091039020620001a56401000000000262002223176401000000009004565b620001df82600401826040519081527f75696e742f70726576000000000000000000000000000000000000000000000060208201526029016040518091039020620001a56401000000000262002223176401000000009004565b61241480620003ca6000396000f30060606040526004361061013a5763ffffffff60e060020a6000350416632286975c811461014a578063250aa1a11461016f5780633c0fc6ea146101965780634592cd1d146101e55780634c69c00f1461020c5780634fe590121461022b57806353253d311461025d578063557f4bc9146102705780635aa77d3c1461028f5780636521afd7146102a25780636830bcf0146102c157806371d3b57314610317578063796da7af1461033657806383197ef014610349578063a843c51f1461035c578063b18b78dd1461037b578063bea995661461038e578063c65cd86d146103ad578063ce606ee0146103c3578063d06c6566146103d6578063d8f9659b146103ec578063db7a460514610446578063df26ca08146104f2578063f09a401614610508578063fe9fbb801461052d578063fff10aba1461054c575b341561014557600080fd5b600080fd5b341561015557600080fd5b61015d61055f565b60405190815260200160405180910390f35b341561017a57600080fd5b610194600160a060020a0360043581169060243516610619565b005b34156101a157600080fd5b61015d600460248135818101908301358060208181020160405190810160405280939291908181526020018383602002808284375094965061067595505050505050565b34156101f057600080fd5b6101f86106ab565b604051901515815260200160405180910390f35b341561021757600080fd5b61015d600160a060020a03600435166106f7565b341561023657600080fd5b610241600435610722565b604051600160a060020a03909116815260200160405180910390f35b341561026857600080fd5b6102416107a6565b341561027b57600080fd5b6101f8600160a060020a03600435166107b5565b341561029a57600080fd5b61024161080c565b34156102ad57600080fd5b610194600160a060020a036004351661081b565b34156102cc57600080fd5b61015d60046024813581810190830135806020818102016040519081016040528093929190818152602001838360200280828437509496505084359460200135935061085192505050565b341561032257600080fd5b610194600160a060020a0360043516610877565b341561034157600080fd5b61015d6108ae565b341561035457600080fd5b6101946108c6565b341561036757600080fd5b6101f8600160a060020a036004351661095c565b341561038657600080fd5b6102416109d5565b341561039957600080fd5b610194600160a060020a03600435166109e8565b34156103b857600080fd5b61015d600435610a39565b34156103ce57600080fd5b610241610a5c565b34156103e157600080fd5b61015d600435610a6b565b34156103f757600080fd5b61015d600460248135818101908301358060208181020160405190810160405280939291908181526020018383602002808284375094965050509235600160a060020a03169250610a8b915050565b341561045157600080fd5b610459610bdc565b604051808060200180602001838103835285818151815260200191508051906020019060200280838360005b8381101561049d578082015183820152602001610485565b50505050905001838103825284818151815260200191508051906020019060200280838360005b838110156104dc5780820151838201526020016104c4565b5050505090500194505050505060405180910390f35b34156104fd57600080fd5b610194600435610d58565b341561051357600080fd5b61015d600160a060020a0360043581169060243516610d9f565b341561053857600080fd5b6101f8600160a060020a0360043516610e00565b341561055757600080fd5b610241610ea6565b60006105738160063363ffffffff610eb516565b151561058b576105846136b4610ecb565b9050610616565b610593610ea6565b600160a060020a031663ab0da5a93360405160e060020a63ffffffff8416028152600160a060020a039091166004820152602401600060405180830381600087803b15156105e057600080fd5b6102c65a03f115156105f157600080fd5b5061060991506000905060063363ffffffff610f3416565b61061233610f4d565b5060015b90565b80600160a060020a031661062b610fb9565b600160a060020a03167fca0b7dde26052d34217ef1a0cee48085a07ca32da0a918609937a307d496bbf584604051600160a060020a03909116815260200160405180910390a35050565b60025460009033600160a060020a03908116911614156106a6576106998233610a8b565b5033600160a060020a0316ff5b919050565b60035460009033600160a060020a039081169116146106cc57506000610616565b506003805460028054600160a060020a0319908116600160a060020a03841617909155169055600190565b600061070233610e00565b156106a65761071a6000600c8463ffffffff610fbd16565b506001919050565b600454600090600160a060020a031663bc65792783836040516020015260405160e060020a63ffffffff84160281526004810191909152602401602060405180830381600087803b151561077557600080fd5b6102c65a03f1151561078657600080fd5b5050506040518051915050600160a060020a03811615156106a657600080fd5b600454600160a060020a031681565b60025460009033600160a060020a03908116911614156106a657600160a060020a03821615156107e7575060006106a6565b5060038054600160a060020a038316600160a060020a03199091161790556001919050565b600354600160a060020a031681565b60025433600160a060020a039081169116141561084e5760058054600160a060020a031916600160a060020a0383161790555b50565b600061086d84848460206040519081016040526000815261103f565b90505b9392505050565b60025433600160a060020a039081169116141561084e5760048054600160a060020a038316600160a060020a031990911617905550565b60006108c181600d63ffffffff61136c16565b905090565b60025433600160a060020a039081169116141561095a57600454600160a060020a031663c375c2ef3060006040516020015260405160e060020a63ffffffff8416028152600160a060020a039091166004820152602401602060405180830381600087803b151561093657600080fd5b6102c65a03f1151561094757600080fd5b505050604051805190505061095a6113cb565b565b60025460009033600160a060020a03908116911614156106a657600160a060020a038216151561098e575060006106a6565b600354600160a060020a0316156109b05760038054600160a060020a03191690555b5060028054600160a060020a038316600160a060020a03199091161790556001919050565b60006108c181600c63ffffffff6113ee16565b6109f0610fb9565b600160a060020a03167f49de411f58cbd9799f63088434ff82d488c93ad291d4844de5c68b6bc6704cdd82604051600160a060020a03909116815260200160405180910390a250565b6000610a4433610e00565b156106a65761071a6000600d8463ffffffff61144d16565b600254600160a060020a031681565b6000610a85826020604051908101604052600081526114ad565b92915050565b60025460009081908190819033600160a060020a0390811691161415610bd357600092505b8551831015610bce57858381518110610ac557fe5b90602001906020020151915081600160a060020a03166370a082313060006040516020015260405160e060020a63ffffffff8416028152600160a060020a039091166004820152602401602060405180830381600087803b1515610b2857600080fd5b6102c65a03f11515610b3957600080fd5b50505060405180519150508015610bc35781600160a060020a031663a9059cbb868360006040516020015260405160e060020a63ffffffff8516028152600160a060020a0390921660048301526024820152604401602060405180830381600087803b1515610ba757600080fd5b6102c65a03f11515610bb857600080fd5b505050604051805150505b600190920191610ab0565b600193505b50505092915050565b610be46121c4565b610bec6121c4565b610bf46121d6565b600080610c0881600663ffffffff61186816565b9250610c1c6000600663ffffffff61187a16565b604051805910610c295750595b90808252806020026020018201604052509450610c4e6000600663ffffffff61187a16565b604051805910610c5b5750595b90808252806020026020018201604052509350600090505b610c86600060068563ffffffff61188616565b15610d5157610c9e600060068563ffffffff61189316565b9150610caa82336118a0565b15610d4c5781858281518110610cbc57fe5b600160a060020a03928316602091820290920101528216639d2a43ad6000604051602001526040518163ffffffff1660e060020a028152600401602060405180830381600087803b1515610d0f57600080fd5b6102c65a03f11515610d2057600080fd5b50505060405180519050848280600101935081518110610d3c57fe5b9115156020928302909101909101525b610c73565b5050509091565b610d60610fb9565b600160a060020a03167f9cf38cf2dbf9139f5c32639950507b10775fbbe0421f3e168bc2d1bb1ae3208c8260405190815260200160405180910390a250565b60025460009033600160a060020a0390811691161415610a8557610de3837f57616c6c6574734d616e616765720000000000000000000000000000000000006118f9565b50610df76000600b8463ffffffff610fbd16565b50600192915050565b600080610e2c7f557365724d616e61676572000000000000000000000000000000000000000000610722565b905080600160a060020a0316632aa09e5a8460006040516020015260405160e060020a63ffffffff8416028152600160a060020a039091166004820152602401602060405180830381600087803b1515610e8557600080fd5b6102c65a03f11515610e9657600080fd5b5050506040518051949350505050565b600554600160a060020a031690565b600061086d8484600160a060020a038516611aea565b6000610ed5610ea6565b600160a060020a031663df26ca088360405160e060020a63ffffffff84160281526004810191909152602401600060405180830381600087803b1515610f1a57600080fd5b6102c65a03f11515610f2b57600080fd5b50929392505050565b610f488383600160a060020a038416611b06565b505050565b610f55610ea6565b600160a060020a031663bea995668260405160e060020a63ffffffff8416028152600160a060020a039091166004820152602401600060405180830381600087803b1515610fa257600080fd5b6102c65a03f11515610fb357600080fd5b50505050565b3390565b825460018401548354600160a060020a03909216916379a7cfee91908460405160e060020a63ffffffff861602815260048101939093526024830191909152600160a060020a03166044820152606401600060405180830381600087803b151561102657600080fd5b6102c65a03f1151561103757600080fd5b505050505050565b60008060008361104d611b20565b600160a060020a031663709586c13330600035600160e060020a03191660006040516020015260405160e060020a63ffffffff8616028152600160a060020a039384166004820152919092166024820152600160e060020a03199091166044820152606401602060405180830381600087803b15156110cb57600080fd5b6102c65a03f115156110dc57600080fd5b5050506040518051905015156110f8576155f060005260206000f35b868851101561110657600080fd5b6111186000600b63ffffffff6113ee16565b600454909350600160a060020a0380851691634f1347af918b918b911660008b816040516020015260405160e060020a63ffffffff881602815260248101859052600160a060020a038416604482015282151560648201526084810182905260a06004820190815290819060a40187818151815260200191508051906020019060200280838360005b838110156111b95780820151838201526020016111a1565b505050509050019650505050505050602060405180830381600087803b15156111e157600080fd5b6102c65a03f115156111f257600080fd5b505050604051805190509150611206610ea6565b600160a060020a031663b6a5d7de8360006040516020015260405160e060020a63ffffffff8416028152600160a060020a039091166004820152602401602060405180830381600087803b151561125c57600080fd5b6102c65a03f1151561126d57600080fd5b50505060405180519050151561128257600080fd5b611295600060068463ffffffff611b4b16565b61129f8233611b5f565b60018086529350838151148015611357575060016112bb611b20565b600160a060020a03166384509ca83330600035600160e060020a03191660006040516020015260405160e060020a63ffffffff8616028152600160a060020a039384166004820152919092166024820152600160e060020a03199091166044820152606401602060405180830381600087803b151561133957600080fd5b6102c65a03f1151561134a57600080fd5b5050506040518051905014155b1561136157600080fd5b505050949350505050565b815460018301548254600092600160a060020a0316916353aa3f5e91846040516020015260405160e060020a63ffffffff851602815260048101929092526024820152604401602060405180830381600087803b1515610e8557600080fd5b60025433600160a060020a039081169116141561095a5733600160a060020a0316ff5b815460018301548254600092600160a060020a03169163d3a3968691846040516020015260405160e060020a63ffffffff851602815260048101929092526024820152604401602060405180830381600087803b1515610e8557600080fd5b825460018401548354600160a060020a03909216916353e7168b91908460405160e060020a63ffffffff8616028152600481019390935260248301919091526044820152606401600060405180830381600087803b151561102657600080fd5b6000806114b86121c4565b6000846114c3611b20565b600160a060020a031663709586c13330600035600160e060020a03191660006040516020015260405160e060020a63ffffffff8616028152600160a060020a039384166004820152919092166024820152600160e060020a03199091166044820152606401602060405180830381600087803b151561154157600080fd5b6102c65a03f1151561155257600080fd5b50505060405180519050151561156e576155f060005260206000f35b6115766109d5565b600160a060020a03161515611597576115906136b0610ecb565b94506117a2565b6115a96000600b63ffffffff6113ee16565b935060026040518059106115ba5750595b9080825280602002602001820160405250925033836000815181106115db57fe5b600160a060020a039092166020928302909101909101526115fa6109d5565b8360018151811061160757fe5b600160a060020a039283166020918202909201015260045485821691634f1347af9186916002911660018c60006040516020015260405160e060020a63ffffffff881602815260248101859052600160a060020a038416604482015282151560648201526084810182905260a06004820190815290819060a40187818151815260200191508051906020019060200280838360005b838110156116b457808201518382015260200161169c565b505050509050019650505050505050602060405180830381600087803b15156116dc57600080fd5b6102c65a03f115156116ed57600080fd5b505050604051805190509150611701610ea6565b600160a060020a031663b6a5d7de8360006040516020015260405160e060020a63ffffffff8416028152600160a060020a039091166004820152602401602060405180830381600087803b151561175757600080fd5b6102c65a03f1151561176857600080fd5b50505060405180519050151561177d57600080fd5b611790600060068463ffffffff611b4b16565b61179a8233611b5f565b600180875294505b60018151148015611854575060016117b8611b20565b600160a060020a03166384509ca83330600035600160e060020a03191660006040516020015260405160e060020a63ffffffff8616028152600160a060020a039384166004820152919092166024820152600160e060020a03199091166044820152606401602060405180830381600087803b151561183657600080fd5b6102c65a03f1151561184757600080fd5b5050506040518051905014155b1561185e57600080fd5b5050505092915050565b6118706121d6565b6108708383611bd4565b60006108708383611bf5565b600061086d848484611c10565b600061086d848484611c4b565b600082600160a060020a0316632f54bf6e8360006040516020015260405160e060020a63ffffffff8416028152600160a060020a039091166004820152602401602060405180830381600087803b1515610e8557600080fd5b60025460009081908190819033600160a060020a0390811691161461191d57600080fd5b600160a060020a038616151561193257600080fd5b600454600160a060020a031615801593508061195c5750600454600160a060020a03878116911614155b1561197d5760048054600160a060020a031916600160a060020a0388161790555b600454600160a060020a031691508163bc65792760006040516020015260405160e060020a63ffffffff83160281527f4d756c74694576656e7473486973746f727900000000000000000000000000006004820152602401602060405180830381600087803b15156119ee57600080fd5b6102c65a03f115156119ff57600080fd5b5050506040518051915050600160a060020a03811615801590611a305750600554600160a060020a03828116911614155b15611a515760058054600160a060020a031916600160a060020a0383161790555b8415611ad85781600160a060020a031663b7c46cd5308760006040516020015260405160e060020a63ffffffff8516028152600160a060020a0390921660048301526024820152604401602060405180830381600087803b1515611ab457600080fd5b6102c65a03f11515611ac557600080fd5b50505060405180516001149050611ad857fe5b8215610bce5760069695505050505050565b600061086d84846000805160206123c983398151915285611c97565b610f4883836000805160206123c983398151915284611cd4565b60006108c17f466561747572654665654d616e61676572000000000000000000000000000000610722565b610f488383600160a060020a038416611dd4565b611b67610ea6565b600160a060020a031663250aa1a1838360405160e060020a63ffffffff8516028152600160a060020a03928316600482015291166024820152604401600060405180830381600087803b1515611bbc57600080fd5b6102c65a03f11515611bcd57600080fd5b5050505050565b611bdc6121d6565b61087083836000805160206123c9833981519152611dee565b600061087083836000805160206123c9833981519152611e0c565b600081602001511580611c345750611c32848484606001518560400151611c97565b155b15611c4157506000610870565b5060019392505050565b6000611c58848484611c10565b1515611c6357600080fd5b81604001519050611c7e848484606001518560400151611e19565b6040830152600160208301818151039052509392505050565b60008115801590611ccb5750611cb285856003018585611e26565b151580611ccb575081611cc9866002870186611e47565b145b95945050505050565b611ce084848484611c97565b1515611ceb57610fb3565b611d17848460030184611d0388886004018888611e26565b611d1289896003018989611e26565b611ee1565b611d3e848460040184611d2f88886003018888611e26565b611d1289896004018989611e26565b611d4c848460010184611e47565b811415611d7057611d70848460010184611d6b88886003018888611e26565b611ef4565b611d7e848460020184611e47565b811415611d9d57611d9d848460020184611d6b88886004018888611e26565b611dac84846003018484611f86565b611dbb84846004018484611f86565b610fb38484846001611dce848484611f9a565b03612012565b610f4883836000805160206123c98339815191528461208a565b611df66121d6565b61086d848484611e07838383611f9a565b61214d565b600061086d848484611f9a565b6000611ccb858560030185855b6000611ccb8585858560405191825260208201526040908101905180910390205b825460018401548354600092600160a060020a0316916337d9d7fc9185604051918252602082015260409081019051809103902060006040516020015260405160e060020a63ffffffff851602815260048101929092526024820152604401602060405180830381600087803b1515611ebf57600080fd5b6102c65a03f11515611ed057600080fd5b505050604051805195945050505050565b8115611bcd57611bcd858585858561216d565b835460018501548454600160a060020a039092169163a14ff85791908560405191825260208201526040908101905180910390208460405160e060020a63ffffffff8616028152600481019390935260248301919091526044820152606401600060405180830381600087803b1515611f6c57600080fd5b6102c65a03f11515611f7d57600080fd5b50505050505050565b8015610fb357610fb384848484600061216d565b825460018401548354600092600160a060020a0316916353aa3f5e9185604051918252602082015260409081019051809103902060006040516020015260405160e060020a63ffffffff851602815260048101929092526024820152604401602060405180830381600087803b1515611ebf57600080fd5b835460018501548454600160a060020a03909216916353e7168b91908560405191825260208201526040908101905180910390208460405160e060020a63ffffffff8616028152600481019390935260248301919091526044820152606401600060405180830381600087803b1515611f6c57600080fd5b80151561209657600080fd5b6120a284848484611c97565b156120ac57610fb3565b6120b7848484611e0c565b15156120cc576120cc84846001018484611ef4565b6120da848460020184611e47565b15612114576120fc8484600301846120f6888860020188611e47565b85611ee1565b61211484846004018484611d12898960020189611e47565b612125846003850184846000611ee1565b61213484846002018484611ef4565b610fb3848484612145838383611f9a565b600101612012565b6121556121d6565b611ccb83612167878760010187611e47565b84612191565b611bcd85858585604051918252602082015260409081019051809103902084611ef4565b6121996121d6565b6080604051908101604090815283825260208201939093529182019290925260608101929092525090565b60206040519081016040526000815290565b60806040519081016040908152600080835260208301819052908201819052606082015290565b8254600160a060020a031916600160a060020a0392909216919091178255600190910155565b815461222f9082612249565b9055565b61223d828261225f565b5050565b815461222f90825b81151580612255575080155b1561223d57600080fd5b6122a082826040519081527f75696e742f636f756e74000000000000000000000000000000000000000000006020820152602a016040518091039020612223565b6122e482600101826040519081527f75696e742f6669727374000000000000000000000000000000000000000000006020820152602a016040518091039020612223565b61232882600201826040519081527f75696e742f6c617374000000000000000000000000000000000000000000000060208201526029016040518091039020612223565b61236c82600301826040519081527f75696e742f6e657874000000000000000000000000000000000000000000000060208201526029016040518091039020612223565b61223d82600401826040519081527f75696e742f70726576000000000000000000000000000000000000000000000060208201526029016040518091039020612223565b815461222f9082612249565b815461222f908261224956006f7264657265645f736574000000000000000000000000000000000000000000a165627a7a72305820e01bd51dfb62497c81689f10078e7c747aeda9e9aae5310cf2768c6225ee035e0029",
  "source": "pragma solidity ^0.4.11;\n\nimport \"../core/common/BaseManager.sol\";\nimport \"./WalletsManagerEmitter.sol\";\nimport \"../timeholder/FeatureFeeAdapter.sol\";\nimport \"../core/event/MultiEventsHistory.sol\";\n\ncontract WalletsFactoryInterface {\n    function createWallet(address[] _owners, uint _required, address _contractsManager, bool _use2FA, uint _releaseTime) public returns (address);\n}\n\ncontract WalletInterface {\n    bool public use2FA;\n    function isOwner(address _addr) public view returns (bool);\n}\n\ncontract WalletsManager is WalletsManagerEmitter, FeatureFeeAdapter, BaseManager {\n    uint constant ERROR_WALLET_INVALID_INVOCATION = 14000;\n    uint constant ERROR_WALLET_EXISTS = 14001;\n    uint constant ERROR_WALLET_OWNER_ONLY = 14002;\n    uint constant ERROR_WALLET_CANNOT_ADD_TO_REGISTRY = 14003;\n    uint constant ERROR_WALLET_UNKNOWN = 14004;\n\n    StorageInterface.OrderedAddressesSet wallets;\n    StorageInterface.Address walletsFactory;\n    StorageInterface.Address oracleAddress;\n    StorageInterface.UInt oraclePrice;\n\n    function WalletsManager(Storage _store, bytes32 _crate) BaseManager(_store, _crate) public {\n        walletsFactory.init(\"walletsFactory\");\n        wallets.init('wallets');\n        oracleAddress.init('oracleAddress');\n        oraclePrice.init('oraclePrice');\n    }\n\n    function init(address _contractsManager, address _walletsFactory)\n    public\n    onlyContractOwner\n    returns (uint)\n    {\n        BaseManager.init(_contractsManager, \"WalletsManager\");\n        store.set(walletsFactory, _walletsFactory);\n        return OK;\n    }\n\n    function kill(address[] tokens)\n    public\n    onlyContractOwner\n    returns (uint)\n    {\n        withdrawnTokens(tokens,msg.sender);\n        selfdestruct(msg.sender);\n        return OK;\n    }\n\n    function getOraclePrice() public constant returns (uint) {\n        return store.get(oraclePrice);\n    }\n\n    function getOracleAddress() public constant returns (address) {\n        return store.get(oracleAddress);\n    }\n\n    function getWallets() public constant returns (address[] result, bool[] result2) {\n        StorageInterface.Iterator memory iterator = store.listIterator(wallets);\n        address wallet;\n        result = new address[](store.count(wallets));\n        result2 = new bool[](store.count(wallets));\n        for(uint j = 0; store.canGetNextWithIterator(wallets, iterator);) {\n            wallet = store.getNextWithIterator(wallets, iterator);\n            if (isWalletOwner(wallet,msg.sender)) {\n                result[j] = wallet;\n                result2[j++] = WalletInterface(wallet).use2FA();\n            }\n        }\n        return (result,result2);\n    }\n\n    function setOraclePrice(uint _price) external onlyAuthorized returns (uint) {\n        store.set(oraclePrice,_price);\n        return OK;\n    }\n\n    function setOracleAddress(address _address) external onlyAuthorized returns (uint) {\n        store.set(oracleAddress,_address);\n        return OK;\n    }\n\n    function createWallet(address[] _owners, uint _required, uint _releaseTime)\n    public\n    returns (uint errorCode)\n    {\n        return _createWallet(_owners, _required, _releaseTime, [uint(0)]);\n    }\n\n    function create2FAWallet(uint _releaseTime)\n    public\n    returns (uint errorCode)\n    {\n        return _create2FAWallet(_releaseTime, [uint(0)]);\n    }\n\n    /**\n    *  Deletes sender from a list of wallets if present.\n    *  Designed to be called only by wallet.\n    */\n    function removeWallet() public returns (uint) {\n        if(!store.includes(wallets, msg.sender)) {\n            return _emitError(ERROR_WALLET_UNKNOWN);\n        }\n\n        MultiEventsHistory(getEventsHistory()).reject(msg.sender);\n\n        store.remove(wallets, msg.sender);\n        _emitWalletDeleted(msg.sender);\n        return OK;\n    }\n\n    function isWalletOwner(address _wallet, address _owner) internal view returns (bool) {\n        return WalletInterface(_wallet).isOwner(_owner);\n    }\n\n    function _createWallet(address[] _owners, uint _required, uint _releaseTime, uint[1] memory _result)\n    private\n    featured(_result)\n    returns (uint errorCode)\n    {\n        require(_owners.length >= _required);\n\n        WalletsFactoryInterface factory = WalletsFactoryInterface(store.get(walletsFactory));\n        address _wallet = factory.createWallet(_owners, _required, contractsManager, false, _releaseTime);\n        if (!MultiEventsHistory(getEventsHistory()).authorize(_wallet)) {\n            revert();\n        }\n\n        store.add(wallets, _wallet);\n\n        _emitWalletCreated(_wallet, msg.sender);\n\n        _result[0] = OK;\n        return OK;\n    }\n\n    function _create2FAWallet(uint _releaseTime, uint[1] memory _result)\n    private\n    featured(_result)\n    returns (uint errorCode)\n    {\n        if (getOracleAddress() == 0x0) {\n            return _emitError(ERROR_WALLET_INVALID_INVOCATION);\n        }\n\n        WalletsFactoryInterface factory = WalletsFactoryInterface(store.get(walletsFactory));\n\n        address[] memory _owners = new address[](2);\n        _owners[0] = msg.sender;\n        _owners[1] = getOracleAddress();\n\n        address _wallet = factory.createWallet(_owners,2,contractsManager, true, _releaseTime);\n        if (!MultiEventsHistory(getEventsHistory()).authorize(_wallet)) {\n            revert();\n        }\n\n        store.add(wallets, _wallet);\n\n        _emitWalletCreated(_wallet, msg.sender);\n\n        _result[0] = OK;\n        return OK;\n    }\n\n    function _emitError(uint error) internal returns (uint) {\n        WalletsManager(getEventsHistory()).emitError(error);\n        return error;\n    }\n\n    function _emitWalletCreated(address wallet, address by) internal {\n        WalletsManager(getEventsHistory()).emitWalletCreated(wallet, by);\n    }\n\n    function _emitWalletDeleted(address wallet) internal {\n        WalletsManager(getEventsHistory()).emitWalletDeleted(wallet);\n    }\n\n    function () public {\n        revert();\n    }\n}\n",
  "sourcePath": "/Users/ahiatsevich/Development/chronobank/SmartContracts/contracts/wallet/WalletsManager.sol",
  "compiler": {
    "name": "solc",
    "version": "0.4.19+commit.c4cbbb05.Emscripten.clang"
  },
  "schemaVersion": "1.0.1",
  "updatedAt": "2018-02-19T16:01:35.875Z"
}