{
  "contractName": "WalletsManagerEmitter",
  "abi": [
    {
      "anonymous": false,
      "inputs": [
        {
          "indexed": true,
          "name": "self",
          "type": "address"
        },
        {
          "indexed": false,
          "name": "errorCode",
          "type": "uint256"
        }
      ],
      "name": "Error",
      "type": "event"
    },
    {
      "anonymous": false,
      "inputs": [
        {
          "indexed": true,
          "name": "self",
          "type": "address"
        },
        {
          "indexed": false,
          "name": "wallet",
          "type": "address"
        },
        {
          "indexed": true,
          "name": "by",
          "type": "address"
        }
      ],
      "name": "WalletCreated",
      "type": "event"
    },
    {
      "anonymous": false,
      "inputs": [
        {
          "indexed": true,
          "name": "self",
          "type": "address"
        },
        {
          "indexed": false,
          "name": "wallet",
          "type": "address"
        }
      ],
      "name": "WalletDeleted",
      "type": "event"
    },
    {
      "constant": false,
      "inputs": [
        {
          "name": "errorCode",
          "type": "uint256"
        }
      ],
      "name": "emitError",
      "outputs": [],
      "payable": false,
      "stateMutability": "nonpayable",
      "type": "function"
    },
    {
      "constant": false,
      "inputs": [
        {
          "name": "wallet",
          "type": "address"
        },
        {
          "name": "by",
          "type": "address"
        }
      ],
      "name": "emitWalletCreated",
      "outputs": [],
      "payable": false,
      "stateMutability": "nonpayable",
      "type": "function"
    },
    {
      "constant": false,
      "inputs": [
        {
          "name": "wallet",
          "type": "address"
        }
      ],
      "name": "emitWalletDeleted",
      "outputs": [],
      "payable": false,
      "stateMutability": "nonpayable",
      "type": "function"
    }
  ],
  "bytecode": "0x6060604052341561000f57600080fd5b6101db8061001e6000396000f3006060604052600436106100565763ffffffff7c0100000000000000000000000000000000000000000000000000000000600035041663250aa1a1811461005b578063bea9956614610082578063df26ca08146100a1575b600080fd5b341561006657600080fd5b610080600160a060020a03600435811690602435166100b7565b005b341561008d57600080fd5b610080600160a060020a0360043516610113565b34156100ac57600080fd5b610080600435610164565b80600160a060020a03166100c96101ab565b600160a060020a03167fca0b7dde26052d34217ef1a0cee48085a07ca32da0a918609937a307d496bbf584604051600160a060020a03909116815260200160405180910390a35050565b61011b6101ab565b600160a060020a03167f49de411f58cbd9799f63088434ff82d488c93ad291d4844de5c68b6bc6704cdd82604051600160a060020a03909116815260200160405180910390a250565b61016c6101ab565b600160a060020a03167f9cf38cf2dbf9139f5c32639950507b10775fbbe0421f3e168bc2d1bb1ae3208c8260405190815260200160405180910390a250565b33905600a165627a7a72305820e66176fdcae91f90986a1c7c8471f915301f62c0839d87f79a91786541a63f090029",
  "source": "/**\n * Copyright 2017–2018, LaborX PTY\n * Licensed under the AGPL Version 3 license.\n */\n\npragma solidity ^0.4.11;\n\nimport '../core/event/MultiEventsHistoryAdapter.sol';\n\ncontract WalletsManagerEmitter is MultiEventsHistoryAdapter {\n    event Error(address indexed self, uint errorCode);    \n    event WalletCreated(address indexed self, address wallet, address indexed by);\n    event WalletDeleted(address indexed self, address wallet);\n\n    function emitError(uint errorCode) public {\n        Error(_self(), errorCode);\n    }\n\n    function emitWalletCreated(address wallet, address by) public {\n        WalletCreated(_self(), wallet, by);\n    }\n\n    function emitWalletDeleted(address wallet) public {\n        WalletDeleted(_self(), wallet);\n    }\n}\n",
  "sourcePath": "/Users/mikefluff/Documents/Programming/Chronobank/test/SmartContracts/contracts/wallet/WalletsManagerEmitter.sol",
  "compiler": {
    "name": "solc",
    "version": "0.4.21+commit.dfe3193c.Emscripten.clang"
  },
  "schemaVersion": "2.0.0",
  "updatedAt": "2018-04-11T07:40:06.067Z"
}