{
  "contractName": "Wallet",
  "abi": [
    {
      "constant": false,
      "inputs": [
        {
          "name": "newOwner",
          "type": "address"
        }
      ],
      "name": "emitOwnerAdded",
      "outputs": [],
      "payable": false,
      "stateMutability": "nonpayable",
      "type": "function"
    },
    {
      "constant": false,
      "inputs": [
        {
          "name": "owner",
          "type": "address"
        },
        {
          "name": "operation",
          "type": "bytes32"
        },
        {
          "name": "value",
          "type": "uint256"
        },
        {
          "name": "to",
          "type": "address"
        },
        {
          "name": "data",
          "type": "bytes"
        }
      ],
      "name": "emitMultiTransact",
      "outputs": [],
      "payable": false,
      "stateMutability": "nonpayable",
      "type": "function"
    },
    {
      "constant": false,
      "inputs": [
        {
          "name": "owner",
          "type": "address"
        },
        {
          "name": "operation",
          "type": "bytes32"
        }
      ],
      "name": "emitConfirmation",
      "outputs": [],
      "payable": false,
      "stateMutability": "nonpayable",
      "type": "function"
    },
    {
      "constant": false,
      "inputs": [
        {
          "name": "_owner",
          "type": "address"
        }
      ],
      "name": "removeOwner",
      "outputs": [
        {
          "name": "errorCode",
          "type": "uint256"
        }
      ],
      "payable": false,
      "stateMutability": "nonpayable",
      "type": "function"
    },
    {
      "constant": false,
      "inputs": [
        {
          "name": "from",
          "type": "address"
        },
        {
          "name": "value",
          "type": "uint256"
        }
      ],
      "name": "emitDeposit",
      "outputs": [],
      "payable": false,
      "stateMutability": "nonpayable",
      "type": "function"
    },
    {
      "constant": true,
      "inputs": [
        {
          "name": "_address",
          "type": "address"
        }
      ],
      "name": "isOwner",
      "outputs": [
        {
          "name": "",
          "type": "bool"
        }
      ],
      "payable": false,
      "stateMutability": "view",
      "type": "function"
    },
    {
      "constant": false,
      "inputs": [],
      "name": "toggle2FA",
      "outputs": [
        {
          "name": "",
          "type": "uint256"
        }
      ],
      "payable": false,
      "stateMutability": "nonpayable",
      "type": "function"
    },
    {
      "constant": true,
      "inputs": [],
      "name": "m_numOwners",
      "outputs": [
        {
          "name": "",
          "type": "uint256"
        }
      ],
      "payable": false,
      "stateMutability": "view",
      "type": "function"
    },
    {
      "constant": false,
      "inputs": [
        {
          "name": "newRequirement",
          "type": "uint256"
        }
      ],
      "name": "emitRequirementChanged",
      "outputs": [],
      "payable": false,
      "stateMutability": "nonpayable",
      "type": "function"
    },
    {
      "constant": false,
      "inputs": [
        {
          "name": "enabled",
          "type": "bool"
        }
      ],
      "name": "emit2FAChanged",
      "outputs": [],
      "payable": false,
      "stateMutability": "nonpayable",
      "type": "function"
    },
    {
      "constant": false,
      "inputs": [
        {
          "name": "operation",
          "type": "bytes32"
        },
        {
          "name": "initiator",
          "type": "address"
        },
        {
          "name": "value",
          "type": "uint256"
        },
        {
          "name": "to",
          "type": "address"
        },
        {
          "name": "data",
          "type": "bytes"
        }
      ],
      "name": "emitConfirmationNeeded",
      "outputs": [],
      "payable": false,
      "stateMutability": "nonpayable",
      "type": "function"
    },
    {
      "constant": true,
      "inputs": [],
      "name": "version",
      "outputs": [
        {
          "name": "",
          "type": "bytes32"
        }
      ],
      "payable": false,
      "stateMutability": "view",
      "type": "function"
    },
    {
      "constant": false,
      "inputs": [
        {
          "name": "oldOwner",
          "type": "address"
        },
        {
          "name": "newOwner",
          "type": "address"
        }
      ],
      "name": "emitOwnerChanged",
      "outputs": [],
      "payable": false,
      "stateMutability": "nonpayable",
      "type": "function"
    },
    {
      "constant": false,
      "inputs": [
        {
          "name": "oldOwner",
          "type": "address"
        }
      ],
      "name": "emitOwnerRemoved",
      "outputs": [],
      "payable": false,
      "stateMutability": "nonpayable",
      "type": "function"
    },
    {
      "constant": false,
      "inputs": [
        {
          "name": "_owner",
          "type": "address"
        }
      ],
      "name": "addOwner",
      "outputs": [
        {
          "name": "errorCode",
          "type": "uint256"
        }
      ],
      "payable": false,
      "stateMutability": "nonpayable",
      "type": "function"
    },
    {
      "constant": true,
      "inputs": [],
      "name": "m_required",
      "outputs": [
        {
          "name": "",
          "type": "uint256"
        }
      ],
      "payable": false,
      "stateMutability": "view",
      "type": "function"
    },
    {
      "constant": false,
      "inputs": [
        {
          "name": "owner",
          "type": "address"
        },
        {
          "name": "value",
          "type": "uint256"
        },
        {
          "name": "to",
          "type": "address"
        },
        {
          "name": "symbol",
          "type": "bytes32"
        }
      ],
      "name": "emitSingleTransact",
      "outputs": [],
      "payable": false,
      "stateMutability": "nonpayable",
      "type": "function"
    },
    {
      "constant": true,
      "inputs": [],
      "name": "use2FA",
      "outputs": [
        {
          "name": "",
          "type": "bool"
        }
      ],
      "payable": false,
      "stateMutability": "view",
      "type": "function"
    },
    {
      "constant": false,
      "inputs": [
        {
          "name": "_operation",
          "type": "bytes32"
        }
      ],
      "name": "revoke",
      "outputs": [
        {
          "name": "",
          "type": "uint256"
        }
      ],
      "payable": false,
      "stateMutability": "nonpayable",
      "type": "function"
    },
    {
      "constant": true,
      "inputs": [],
      "name": "releaseTime",
      "outputs": [
        {
          "name": "",
          "type": "uint256"
        }
      ],
      "payable": false,
      "stateMutability": "view",
      "type": "function"
    },
    {
      "constant": false,
      "inputs": [
        {
          "name": "_newRequired",
          "type": "uint256"
        }
      ],
      "name": "changeRequirement",
      "outputs": [
        {
          "name": "errorCode",
          "type": "uint256"
        }
      ],
      "payable": false,
      "stateMutability": "nonpayable",
      "type": "function"
    },
    {
      "constant": true,
      "inputs": [
        {
          "name": "_operation",
          "type": "bytes32"
        },
        {
          "name": "_owner",
          "type": "address"
        }
      ],
      "name": "hasConfirmed",
      "outputs": [
        {
          "name": "",
          "type": "bool"
        }
      ],
      "payable": false,
      "stateMutability": "view",
      "type": "function"
    },
    {
      "constant": true,
      "inputs": [
        {
          "name": "ownerIndex",
          "type": "uint256"
        }
      ],
      "name": "getOwner",
      "outputs": [
        {
          "name": "",
          "type": "address"
        }
      ],
      "payable": false,
      "stateMutability": "view",
      "type": "function"
    },
    {
      "constant": false,
      "inputs": [
        {
          "name": "owner",
          "type": "address"
        },
        {
          "name": "operation",
          "type": "bytes32"
        }
      ],
      "name": "emitRevoke",
      "outputs": [],
      "payable": false,
      "stateMutability": "nonpayable",
      "type": "function"
    },
    {
      "constant": false,
      "inputs": [
        {
          "name": "errorCode",
          "type": "uint256"
        }
      ],
      "name": "emitError",
      "outputs": [],
      "payable": false,
      "stateMutability": "nonpayable",
      "type": "function"
    },
    {
      "constant": false,
      "inputs": [
        {
          "name": "_from",
          "type": "address"
        },
        {
          "name": "_to",
          "type": "address"
        }
      ],
      "name": "changeOwner",
      "outputs": [
        {
          "name": "resultCode",
          "type": "uint256"
        }
      ],
      "payable": false,
      "stateMutability": "nonpayable",
      "type": "function"
    },
    {
      "constant": true,
      "inputs": [],
      "name": "getEventsHistory",
      "outputs": [
        {
          "name": "",
          "type": "address"
        }
      ],
      "payable": false,
      "stateMutability": "view",
      "type": "function"
    },
    {
      "inputs": [
        {
          "name": "_owners",
          "type": "address[]"
        },
        {
          "name": "_required",
          "type": "uint256"
        },
        {
          "name": "_contractsManager",
          "type": "address"
        },
        {
          "name": "_use2FA",
          "type": "bool"
        },
        {
          "name": "_releaseTime",
          "type": "uint256"
        }
      ],
      "payable": false,
      "stateMutability": "nonpayable",
      "type": "constructor"
    },
    {
      "payable": true,
      "stateMutability": "payable",
      "type": "fallback"
    },
    {
      "anonymous": false,
      "inputs": [
        {
          "indexed": true,
          "name": "self",
          "type": "address"
        },
        {
          "indexed": false,
          "name": "from",
          "type": "address"
        },
        {
          "indexed": false,
          "name": "value",
          "type": "uint256"
        }
      ],
      "name": "MultisigWalletDeposit",
      "type": "event"
    },
    {
      "anonymous": false,
      "inputs": [
        {
          "indexed": true,
          "name": "self",
          "type": "address"
        },
        {
          "indexed": true,
          "name": "owner",
          "type": "address"
        },
        {
          "indexed": false,
          "name": "value",
          "type": "uint256"
        },
        {
          "indexed": false,
          "name": "to",
          "type": "address"
        },
        {
          "indexed": false,
          "name": "symbol",
          "type": "bytes32"
        }
      ],
      "name": "MultisigWalletSingleTransact",
      "type": "event"
    },
    {
      "anonymous": false,
      "inputs": [
        {
          "indexed": true,
          "name": "self",
          "type": "address"
        },
        {
          "indexed": true,
          "name": "owner",
          "type": "address"
        },
        {
          "indexed": false,
          "name": "operation",
          "type": "bytes32"
        },
        {
          "indexed": false,
          "name": "value",
          "type": "uint256"
        },
        {
          "indexed": false,
          "name": "to",
          "type": "address"
        },
        {
          "indexed": false,
          "name": "data",
          "type": "bytes"
        }
      ],
      "name": "MultisigWalletMultiTransact",
      "type": "event"
    },
    {
      "anonymous": false,
      "inputs": [
        {
          "indexed": true,
          "name": "self",
          "type": "address"
        },
        {
          "indexed": false,
          "name": "operation",
          "type": "bytes32"
        },
        {
          "indexed": true,
          "name": "initiator",
          "type": "address"
        },
        {
          "indexed": false,
          "name": "value",
          "type": "uint256"
        },
        {
          "indexed": false,
          "name": "to",
          "type": "address"
        },
        {
          "indexed": false,
          "name": "data",
          "type": "bytes"
        }
      ],
      "name": "MultisigWalletConfirmationNeeded",
      "type": "event"
    },
    {
      "anonymous": false,
      "inputs": [
        {
          "indexed": true,
          "name": "self",
          "type": "address"
        },
        {
          "indexed": true,
          "name": "owner",
          "type": "address"
        },
        {
          "indexed": false,
          "name": "operation",
          "type": "bytes32"
        }
      ],
      "name": "MultisigWalletConfirmation",
      "type": "event"
    },
    {
      "anonymous": false,
      "inputs": [
        {
          "indexed": true,
          "name": "self",
          "type": "address"
        },
        {
          "indexed": true,
          "name": "owner",
          "type": "address"
        },
        {
          "indexed": false,
          "name": "operation",
          "type": "bytes32"
        }
      ],
      "name": "MultisigWalletRevoke",
      "type": "event"
    },
    {
      "anonymous": false,
      "inputs": [
        {
          "indexed": true,
          "name": "self",
          "type": "address"
        },
        {
          "indexed": true,
          "name": "oldOwner",
          "type": "address"
        },
        {
          "indexed": true,
          "name": "newOwner",
          "type": "address"
        }
      ],
      "name": "MultisigWalletOwnerChanged",
      "type": "event"
    },
    {
      "anonymous": false,
      "inputs": [
        {
          "indexed": true,
          "name": "self",
          "type": "address"
        },
        {
          "indexed": true,
          "name": "newOwner",
          "type": "address"
        }
      ],
      "name": "MultisigWalletOwnerAdded",
      "type": "event"
    },
    {
      "anonymous": false,
      "inputs": [
        {
          "indexed": true,
          "name": "self",
          "type": "address"
        },
        {
          "indexed": true,
          "name": "oldOwner",
          "type": "address"
        }
      ],
      "name": "MultisigWalletOwnerRemoved",
      "type": "event"
    },
    {
      "anonymous": false,
      "inputs": [
        {
          "indexed": true,
          "name": "self",
          "type": "address"
        },
        {
          "indexed": false,
          "name": "newRequirement",
          "type": "uint256"
        }
      ],
      "name": "MultisigWalletRequirementChanged",
      "type": "event"
    },
    {
      "anonymous": false,
      "inputs": [
        {
          "indexed": true,
          "name": "self",
          "type": "address"
        },
        {
          "indexed": false,
          "name": "enabled",
          "type": "bool"
        }
      ],
      "name": "MultisigWallet2FAChanged",
      "type": "event"
    },
    {
      "anonymous": false,
      "inputs": [
        {
          "indexed": true,
          "name": "self",
          "type": "address"
        },
        {
          "indexed": false,
          "name": "errorCode",
          "type": "uint256"
        }
      ],
      "name": "Error",
      "type": "event"
    },
    {
      "constant": true,
      "inputs": [],
      "name": "getPendings",
      "outputs": [
        {
          "name": "values",
          "type": "uint256[]"
        },
        {
          "name": "operations",
          "type": "bytes32[]"
        },
        {
          "name": "isConfirmed",
          "type": "bool[]"
        }
      ],
      "payable": false,
      "stateMutability": "view",
      "type": "function"
    },
    {
      "constant": true,
      "inputs": [
        {
          "name": "_h",
          "type": "bytes32"
        }
      ],
      "name": "getData",
      "outputs": [
        {
          "name": "",
          "type": "bytes"
        }
      ],
      "payable": false,
      "stateMutability": "view",
      "type": "function"
    },
    {
      "constant": false,
      "inputs": [
        {
          "name": "_to",
          "type": "address"
        }
      ],
      "name": "kill",
      "outputs": [
        {
          "name": "errorCode",
          "type": "uint256"
        }
      ],
      "payable": false,
      "stateMutability": "nonpayable",
      "type": "function"
    },
    {
      "constant": false,
      "inputs": [
        {
          "name": "_to",
          "type": "address"
        },
        {
          "name": "_value",
          "type": "uint256"
        },
        {
          "name": "_symbol",
          "type": "bytes32"
        }
      ],
      "name": "transfer",
      "outputs": [
        {
          "name": "",
          "type": "uint256"
        }
      ],
      "payable": true,
      "stateMutability": "payable",
      "type": "function"
    },
    {
      "constant": false,
      "inputs": [
        {
          "name": "_tokens",
          "type": "address[]"
        },
        {
          "name": "_to",
          "type": "address"
        }
      ],
      "name": "withdrawnTokens",
      "outputs": [
        {
          "name": "",
          "type": "uint256"
        }
      ],
      "payable": true,
      "stateMutability": "payable",
      "type": "function"
    },
    {
      "constant": false,
      "inputs": [
        {
          "name": "_h",
          "type": "bytes32"
        }
      ],
      "name": "confirm",
      "outputs": [
        {
          "name": "errorCode",
          "type": "uint256"
        }
      ],
      "payable": false,
      "stateMutability": "nonpayable",
      "type": "function"
    }
  ],
  "bytecode": "0x60606040527f312e302e3000000000000000000000000000000000000000000000000000000060035534156200003457600080fd5b60405162002d8738038062002d87833981016040528080518201919060200180519190602001805191906020018051919060200180519150859050846000825115156200008057600080fd5b81835110156200008f57600080fd5b5060005b82518110156200011e57828181518110620000aa57fe5b90602001906020020151600160a060020a03166004600183016101008110620000cf57fe5b0155600181016101046000858481518110620000e757fe5b90602001906020020151600160a060020a031681526020810191909152604001600020556002805460019081019091550162000093565b5060015550600160a060020a03831615156200013957600080fd5b6101078054600160a060020a03909416600160a060020a0319909416939093179092556000805491151560ff19909216919091179055610109555050612c0280620001856000396000f3006060604052600436106101875763ffffffff60e060020a60003504166311673db9811461019c57806313de3d2b146101bb57806314da079714610229578063173825d91461024b57806328ba84ca1461027c5780632f54bf6e1461029e5780633311f99a146102d15780634123cb6b146102e4578063418cbda9146102f75780634367f19a1461030d57806349a008581461032557806354f6127f1461039357806354fd4d501461042057806357cfeeee146104335780635b0b6f661461044d578063660918ca146104725780637065cb4814610491578063746c9171146104b057806376583f66146104c3578063797af627146104ef5780639d2a43ad14610505578063b75c7dc614610518578063b91d40011461052e578063ba51a6df14610541578063c2cf732614610557578063c41a360a14610579578063cbf0b0c0146105ab578063d4554737146105ca578063d8f9659b146105ec578063df26ca081461060d578063f00d4b5d14610623578063fd8cd80614610648578063fff10aba14610739575b600034111561019a5761019a333461074c565b005b34156101a757600080fd5b61019a600160a060020a03600435166107bb565b34156101c657600080fd5b61019a600160a060020a0360048035821691602480359260443592606435169160a49060843590810190830135806020601f8201819004810201604051908101604052818152929190602084018383808284375094965061080595505050505050565b341561023457600080fd5b61019a600160a060020a03600435166024356108e1565b341561025657600080fd5b61026a600160a060020a0360043516610933565b60405190815260200160405180910390f35b341561028757600080fd5b61019a600160a060020a0360043516602435610b7c565b34156102a957600080fd5b6102bd600160a060020a0360043516610bd5565b604051901515815260200160405180910390f35b34156102dc57600080fd5b61026a610bf6565b34156102ef57600080fd5b61026a610e32565b341561030257600080fd5b61019a600435610e38565b341561031857600080fd5b61019a6004351515610e7f565b341561033057600080fd5b61019a6004803590600160a060020a036024803582169260443592606435169160a49060843590810190830135806020601f82018190048102016040519081016040528181529291906020840183838082843750949650610ec895505050505050565b341561039e57600080fd5b6103a9600435610f5f565b60405160208082528190810183818151815260200191508051906020019080838360005b838110156103e55780820151838201526020016103cd565b50505050905090810190601f1680156104125780820380516001836020036101000a031916815260200191505b509250505060405180910390f35b341561042b57600080fd5b61026a611026565b61026a600160a060020a036004351660243560443561102c565b341561045857600080fd5b61019a600160a060020a03600435811690602435166113b4565b341561047d57600080fd5b61019a600160a060020a0360043516611409565b341561049c57600080fd5b61026a600160a060020a0360043516611452565b34156104bb57600080fd5b61026a611572565b34156104ce57600080fd5b61019a600160a060020a036004358116906024359060443516606435611578565b34156104fa57600080fd5b61026a6004356115e8565b341561051057600080fd5b6102bd611806565b341561052357600080fd5b61026a60043561180f565b341561053957600080fd5b61026a6118b6565b341561054c57600080fd5b61026a6004356118bd565b341561056257600080fd5b6102bd600435600160a060020a036024351661195f565b341561058457600080fd5b61058f6004356119b4565b604051600160a060020a03909116815260200160405180910390f35b34156105b657600080fd5b61026a600160a060020a03600435166119cf565b34156105d557600080fd5b61019a600160a060020a0360043516602435611cb0565b61026a6024600480358281019291013590600160a060020a03903516611d02565b341561061857600080fd5b61019a600435611ea3565b341561062e57600080fd5b61026a600160a060020a0360043581169060243516611eea565b341561065357600080fd5b61065b61200a565b60405180806020018060200180602001848103845287818151815260200191508051906020019060200280838360005b838110156106a357808201518382015260200161068b565b50505050905001848103835286818151815260200191508051906020019060200280838360005b838110156106e25780820151838201526020016106ca565b50505050905001848103825285818151815260200191508051906020019060200280838360005b83811015610721578082015183820152602001610709565b50505050905001965050505050505060405180910390f35b341561074457600080fd5b61058f61216a565b61075461216a565b600160a060020a03166328ba84ca838360405160e060020a63ffffffff8516028152600160a060020a0390921660048301526024820152604401600060405180830381600087803b15156107a757600080fd5b5af115156107b457600080fd5b5050505050565b80600160a060020a03166107cd61219b565b600160a060020a03167ffda769962711e3e34f112435e5900b6f209a31363e82cdbb4bf28ef0fe810baf60405160405180910390a350565b84600160a060020a031661081761219b565b600160a060020a03167f4610c27e2d78ce09675d82db64898d8c008a50f8db6d18e49835fc4bafce645f8686868660405184815260208101849052600160a060020a038316604082015260806060820181815290820183818151815260200191508051906020019080838360005b8381101561089d578082015183820152602001610885565b50505050905090810190601f1680156108ca5780820380516001836020036101000a031916815260200191505b509550505050505060405180910390a35050505050565b81600160a060020a03166108f361219b565b600160a060020a03167f619980af4e2d2067d8772c53365a0449d1bdd2ccd48b6e504ea1cab5a50ca7528360405190815260200160405180910390a35050565b600080548190819060ff1615610952576136ba90508060005260206000f35b60005460ff161561095f57fe5b60008061096b33610bd5565b15610abf5760005460ff1615610a7957610992600080516020612bb783398151915261219f565b915081600160a060020a031663796da7af6040518163ffffffff1660e060020a028152600401602060405180830381600087803b15156109d157600080fd5b5af115156109de57600080fd5b505050604051805190503410156109f457600080fd5b81600160a060020a031663b18b78dd6040518163ffffffff1660e060020a028152600401602060405180830381600087803b1515610a3157600080fd5b5af11515610a3e57600080fd5b5050506040518051600160a060020a031690503480156108fc0290604051600060405180830381858888f193505050501515610a7957600080fd5b610ab3346000368080601f016020809104026020016040519081016040528181529291906020840183838082843750612218945050505050565b90508060005260206000f35b30600160a060020a031633600160a060020a03161415610b6e57600160a060020a038616600090815261010460205260409020549350831515610afe57fe5b6001600254036001541115610b1f57610b186136ba612303565b9450610b69565b60006004856101008110610b2f57fe5b0155600160a060020a03861660009081526101046020526040812055610b53612368565b610b5b6123ce565b610b64866124e8565b600194505b610b73565b600080fd5b50505050919050565b610b8461219b565b600160a060020a03167fbee6d2975bcdff8dc26bc64942959415ca30aff94e84977a5954a760da30fbfe8383604051600160a060020a03909216825260208201526040908101905180910390a25050565b600160a060020a03811660009081526101046020526040812054115b919050565b600080600080610c0533610bd5565b80610c21575030600160a060020a031633600160a060020a0316145b1515610c2c57600080fd5b600160a060020a033316600090815261010460205260409020541515610c4e57fe5b610c65600080516020612bb783398151915261219f565b925082600160a060020a031663b18b78dd6040518163ffffffff1660e060020a028152600401602060405180830381600087803b1515610ca457600080fd5b5af11515610cb157600080fd5b5050506040518051925050600160a060020a0382161515610cde57610cd76136ba612303565b9350610e2c565b60005460ff16158015610cf357506001546001145b15610d70576000805460ff1916600190811790915560029055610d14612368565b6002805460010190819055600160a060020a038316906004906101008110610d3857fe5b0155600254600160a060020a0383166000908152610104602052604081209190915554610d679060ff16612550565b60019350610e2c565b60005460ff168015610d8457506001546002145b8015610da95750600160a060020a038216600090815261010460205260409020546001145b15610e1e57506000805460ff1916815560018055600160a060020a03821681526101046020526040812054906004826101008110610de357fe5b0155600160a060020a03821660009081526101046020526040812055610e07612368565b610e0f6123ce565b600054610d679060ff16612550565b610e296136ba612303565b93505b50505090565b60025481565b610e4061219b565b600160a060020a03167fb26123dbf7a81d26e5f647fcaabebe1583079e0c43904aae3954496eba952c4a8260405190815260200160405180910390a250565b610e8761219b565b600160a060020a03167f3c05c875f0fe54dcedd51664a7ceb9a463f3b1f1bbf04bdd0a1c15c1758967b182604051901515815260200160405180910390a250565b83600160a060020a0316610eda61219b565b600160a060020a03167fb34e114caca0a1485cad8d85fe392613f827825cf9135035e78500a4f8aed4398786868660405184815260208101849052600160a060020a038316604082015260806060820181815290820183818151815260200191508051906020019080838360008381101561089d578082015183820152602001610885565b610f67612a85565b610108600083600019166000191681526020019081526020016000206001018054600181600116156101000203166002900480601f01602080910402602001604051908101604052809291908181526020018280546001816001161561010002031660029004801561101a5780601f10610fef5761010080835404028352916020019161101a565b820191906000526020600020905b815481529060010190602001808311610ffd57829003601f168201915b50505050509050919050565b60035481565b60008060004261010954111561104757610ab36136c4612303565b610109544290111561105557fe5b8484600080807f4554480000000000000000000000000000000000000000000000000000000000841480611087575083155b156110af578430600160a060020a031631106110a45760016110a8565b6136c35b92506111cb565b6110d87f45524332304d616e61676572000000000000000000000000000000000000000061219f565b915081600160a060020a031663fa7fdeb78560405160e060020a63ffffffff84160281526004810191909152602401602060405180830381600087803b151561112057600080fd5b5af1151561112d57600080fd5b5050506040518051915050600160a060020a0381161515611152576136c192506111cb565b8481600160a060020a03166370a082313060405160e060020a63ffffffff8416028152600160a060020a039091166004820152602401602060405180830381600087803b15156111a157600080fd5b5af115156111ae57600080fd5b50505060405180519050106111c45760016111c8565b6136c35b92505b600183146111e7576111dc83612303565b508260005260206000f35b600183146111f157fe5b6000806111fd33610bd5565b156112245760005460ff1615610a7957610992600080516020612bb783398151915261219f565b30600160a060020a031633600160a060020a03161415610b6e577f45544800000000000000000000000000000000000000000000000000000000008b148061126a57508a155b156112a557600160a060020a038d168c156108fc028d604051600060405180830381858888f1935050505015156112a057600080fd5b6113a1565b6112ce7f45524332304d616e61676572000000000000000000000000000000000000000061219f565b600160a060020a031663fa7fdeb78c60405160e060020a63ffffffff84160281526004810191909152602401602060405180830381600087803b151561131357600080fd5b5af1151561132057600080fd5b5050506040518051995050600160a060020a03891663a9059cbb8e8e60405160e060020a63ffffffff8516028152600160a060020a0390921660048301526024820152604401602060405180830381600087803b151561137f57600080fd5b5af1151561138c57600080fd5b5050506040518051905015156113a157600080fd5b5060019c9b505050505050505050505050565b80600160a060020a031682600160a060020a03166113d061219b565b600160a060020a03167ff326492b55079c92d5144c6c5e02fe1f6cb1ec9064e12de0d269f0615171e8df60405160405180910390a45050565b80600160a060020a031661141b61219b565b600160a060020a03167ed0db01d039330b725890e8de587ddb67d2c41528c68f07057500e4026c487760405160405180910390a350565b60008054819060ff161561146f576136ba90508060005260206000f35b60005460ff161561147c57fe5b60008061148833610bd5565b156114af5760005460ff1615610a7957610992600080516020612bb783398151915261219f565b30600160a060020a031633600160a060020a03161415610b6e576114d285610bd5565b156114e9576114e26136bd612303565b935061156a565b6114f1612368565b60025460fa9010611504576115046123ce565b60025460fa9010611519576136c0935061156a565b6002805460010190819055600160a060020a03861690600490610100811061153d57fe5b0155600254600160a060020a038616600090815261010460205260409020556115658561259d565b600193505b505050919050565b60015481565b83600160a060020a031661158a61219b565b600160a060020a03167f113341d7c6797c7fd2ab72bb6f21014dc77b4bfaaffde795ad5f9b5fd70c76f0858585604051928352600160a060020a0390911660208301526040808301919091526060909101905180910390a350505050565b60006115f333610bd5565b8061160f575030600160a060020a031633600160a060020a0316145b151561161a57600080fd5b60008281526101086020526040902060019081015460026101009282161592909202600019011604151561165a576116536136bf612303565b9050610bf1565b611663826125f2565b90506001811461167257610bf1565b6000828152610108602052604090819020600160a060020a033016916001909101905180828054600181600116156101000203166002900480156116f75780601f106116cc576101008083540402835291602001916116f7565b820191906000526020600020905b8154815290600101906020018083116116da57829003601f168201915b50509150506000604051808303816000865af1915050151561171857600080fd5b600082815261010860205260408120818155906117386001830182612a97565b5050600082815261010860209081526040918290208054600191820180546117fe95339589953094936002610100928216159290920260001901160491601f83018290048202909101905190810160405280929190818152602001828054600181600116156101000203166002900480156117f45780601f106117c9576101008083540402835291602001916117f4565b820191906000526020600020905b8154815290600101906020018083116117d757829003601f168201915b505050505061271a565b506001919050565b60005460ff1681565b60008060008061181e33610bd5565b8061183a575030600160a060020a031633600160a060020a0316145b151561184557600080fd5b600160a060020a03331660009081526101046020526040902054925082151561186a57fe5b50506000838152610105602052604090206001810154600283900a91908216151561189a576114e26136ba612303565b8054600190810182558101805483900390556115653386612813565b6101095481565b60008054819060ff16156118da576136ba90508060005260206000f35b60005460ff16156118e757fe5b6000806118f333610bd5565b1561191a5760005460ff1615610a7957610992600080516020612bb783398151915261219f565b30600160a060020a031633600160a060020a03161415610b6e57600254851115611949576114e26136ba612303565b6001859055611956612368565b6115658561286e565b600082815261010560209081526040808320600160a060020a03851684526101049092528220548281151561199757600093506119ab565b8160020a9050808360010154166000141593505b50505092915050565b600060046001830161010081106119c757fe5b015492915050565b60008060008060008060008060006119e633610bd5565b15611a0d5760005460ff1615610a7957610992600080516020612bb783398151915261219f565b30600160a060020a031633600160a060020a03161415610b6e5742610109541115611a4457611a3d6136c4612303565b9850611ca3565b611a6d7f45524332304d616e61676572000000000000000000000000000000000000000061219f565b975087600160a060020a031663a64ed8ba6040518163ffffffff1660e060020a028152600401602060405180830381600087803b1515611aac57600080fd5b5af11515611ab957600080fd5b5050506040518051975060009650505b86861015611c1c5787600160a060020a0316638d80c9228760405160e060020a63ffffffff84160281526004810191909152602401602060405180830381600087803b1515611b1757600080fd5b5af11515611b2457600080fd5b5050506040518051955050600160a060020a0385166370a082313060405160e060020a63ffffffff8416028152600160a060020a039091166004820152602401602060405180830381600087803b1515611b7d57600080fd5b5af11515611b8a57600080fd5b50505060405180519450508315611c115784600160a060020a031663a9059cbb8b8660405160e060020a63ffffffff8516028152600160a060020a0390921660048301526024820152604401602060405180830381600087803b1515611bef57600080fd5b5af11515611bfc57600080fd5b505050604051805190501515611c1157600080fd5b600190950194611ac9565b611c33600080516020612bb783398151915261219f565b9250600183600160a060020a0316632286975c6040518163ffffffff1660e060020a028152600401602060405180830381600087803b1515611c7457600080fd5b5af11515611c8157600080fd5b50505060405180519050141515611c9757600080fd5b89600160a060020a0316ff5b5050505050505050919050565b81600160a060020a0316611cc261219b565b600160a060020a03167f19488fab9001d4fd32730335b6e16f41b8d0fffe8f210fe291016d939f8290528360405190815260200160405180910390a35050565b600080600080600042610109541115611d2057610ab36136c4612303565b6101095442901115611d2e57fe5b600080611d3a33610bd5565b15611d615760005460ff1615610a7957610992600080516020612bb783398151915261219f565b30600160a060020a031633600160a060020a03161415610b6e57600095505b88861015611e9357898987818110611d9457fe5b90506020020135600160a060020a0316945084600160a060020a03166370a082313060405160e060020a63ffffffff8416028152600160a060020a039091166004820152602401602060405180830381600087803b1515611df457600080fd5b5af11515611e0157600080fd5b50505060405180519450508315611e885784600160a060020a031663a9059cbb898660405160e060020a63ffffffff8516028152600160a060020a0390921660048301526024820152604401602060405180830381600087803b1515611e6657600080fd5b5af11515611e7357600080fd5b505050604051805190501515611e8857600080fd5b600190950194611d80565b5060019998505050505050505050565b611eab61219b565b600160a060020a03167f9cf38cf2dbf9139f5c32639950507b10775fbbe0421f3e168bc2d1bb1ae3208c8260405190815260200160405180910390a250565b600080548190819060ff1615611f09576136ba90508060005260206000f35b60005460ff1615611f1657fe5b600080611f2233610bd5565b15611f495760005460ff1615610a7957610992600080516020612bb783398151915261219f565b30600160a060020a031633600160a060020a03161415610b6e57600160a060020a038716600090815261010460205260409020549350831515611f8857fe5b611f9186610bd5565b15611fa857611fa16136bd612303565b9450612000565b611fb0612368565b600160a060020a0386166004856101008110611fc857fe5b0155600160a060020a0380881660009081526101046020526040808220829055918816815220849055611ffb87876128bb565b600194505b5050505092915050565b612012612a85565b61201a612a85565b612022612a85565b610106546000906040518059106120365750595b90808252806020026020018201604052506101065490945060405180591061205b5750595b9080825280602002602001820160405250610106549093506040518059106120805750595b90808252806020026020018201604052509150600090505b61010654811015612164576101086000610106838154811015156120b857fe5b600091825260208083209091015483528201929092526040019020548482815181106120e057fe5b602090810290910101526101068054829081106120f957fe5b90600052602060002090015483828151811061211157fe5b60209081029091010152610106805461214191908390811061212f57fe5b9060005260206000209001543361195f565b82828151811061214d57fe5b911515602092830290910190910152600101612098565b50909192565b60006121957f4d756c74694576656e7473486973746f7279000000000000000000000000000061219f565b90505b90565b3390565b61010754600090600160a060020a031663bc6579278360405160e060020a63ffffffff84160281526004810191909152602401602060405180830381600087803b15156121eb57600080fd5b5af115156121f857600080fd5b5050506040518051915050600160a060020a0381161515610bf157600080fd5b6000806000364360405180848480828437909101928352505060200191506040905051908190039020600081815261010860205260409020600190810154919250600261010091831615919091026000190190911604156122855761227e6136c2612303565b91506122fc565b6000818152610108602052604090206001018380516122a8929160200190612adb565b506000818152610108602052604090208490556122c4816115e8565b9150600182146122f7576136be82146122e05761227e82612303565b6122ed8133863087612918565b6136be91506122fc565b600191505b5092915050565b600061230d61216a565b600160a060020a031663df26ca088360405160e060020a63ffffffff84160281526004810191909152602401600060405180830381600087803b151561235257600080fd5b5af1151561235f57600080fd5b50929392505050565b6101065460005b818110156123c25761010860006101068381548110151561238c57fe5b600091825260208083209091015483528201929092526040018120818155906123b86001830182612a97565b505060010161236f565b6123ca6129a7565b5050565b60015b6002548110156124e5575b600254811080156123fb575060048161010081106123f657fe5b015415155b15612408576001016123dc565b600160025411801561242a5750600254600490610100811061242657fe5b0154155b1561243e5760028054600019019055612408565b600254811080156124605750600254600490610100811061245b57fe5b015415155b80156124795750600481610100811061247557fe5b0154155b156124e057600254600490610100811061248f57fe5b0154600482610100811061249f57fe5b015580610104600060048361010081106124b557fe5b015481526020019081526020016000208190555060006004600254610100811015156124dd57fe5b01555b6123d1565b50565b6124f061216a565b600160a060020a031663660918ca8260405160e060020a63ffffffff8416028152600160a060020a039091166004820152602401600060405180830381600087803b151561253d57600080fd5b5af1151561254a57600080fd5b50505050565b61255861216a565b600160a060020a0316634367f19a8260405160e060020a63ffffffff84160281529015156004820152602401600060405180830381600087803b151561253d57600080fd5b6125a561216a565b600160a060020a03166311673db98260405160e060020a63ffffffff8416028152600160a060020a039091166004820152602401600060405180830381600087803b151561253d57600080fd5b600160a060020a03331660009081526101046020526040812054818082151561261757fe5b600085815261010560205260409020805490925015156126735760018054835560008382015561010680549161264f91908301612b59565b600283018190556101068054879290811061266657fe5b6000918252602090912001555b506001810154600283900a90811615612690576136ba935061156a565b61269a3386612a2a565b8154600190116126fe5760008581526101056020526040902060020154610106805490919081106126c757fe5b600091825260208083209091018290558682526101059052604081208181556001808201839055600290910191909155935061156a565b8154600019018255600182018054821790556136be935061156a565b61272261216a565b600160a060020a03166313de3d2b868686868660405160e060020a63ffffffff8816028152600160a060020a03808716600483019081526024830187905260448301869052908416606483015260a060848301908152909160a40183818151815260200191508051906020019080838360005b838110156127ad578082015183820152602001612795565b50505050905090810190601f1680156127da5780820380516001836020036101000a031916815260200191505b509650505050505050600060405180830381600087803b15156127fc57600080fd5b5af1151561280957600080fd5b5050505050505050565b61281b61216a565b600160a060020a031663d4554737838360405160e060020a63ffffffff8516028152600160a060020a0390921660048301526024820152604401600060405180830381600087803b15156107a757600080fd5b61287661216a565b600160a060020a031663418cbda98260405160e060020a63ffffffff84160281526004810191909152602401600060405180830381600087803b151561253d57600080fd5b6128c361216a565b600160a060020a0316635b0b6f66838360405160e060020a63ffffffff8516028152600160a060020a03928316600482015291166024820152604401600060405180830381600087803b15156107a757600080fd5b61292061216a565b600160a060020a03166349a00858868686868660405160e060020a63ffffffff881602815260048101868152600160a060020a038087166024840152604483018690528416606483015260a060848301908152909160a4018381815181526020019150805190602001908083836000838110156127ad578082015183820152602001612795565b6101065460005b81811015612a1d576101068054829081106129c557fe5b60009182526020909120015415612a15576101056000610106838154811015156129eb57fe5b60009182526020808320909101548352820192909252604001812081815560018101829055600201555b6001016129ae565b6123ca6101066000612b82565b612a3261216a565b600160a060020a03166314da0797838360405160e060020a63ffffffff8516028152600160a060020a0390921660048301526024820152604401600060405180830381600087803b15156107a757600080fd5b60206040519081016040526000815290565b50805460018160011615610100020316600290046000825580601f10612abd57506124e5565b601f0160209004906000526020600020908101906124e59190612b9c565b828054600181600116156101000203166002900490600052602060002090601f016020900481019282601f10612b1c57805160ff1916838001178555612b49565b82800160010185558215612b49579182015b82811115612b49578251825591602001919060010190612b2e565b50612b55929150612b9c565b5090565b815481835581811511612b7d57600083815260209020612b7d918101908301612b9c565b505050565b50805460008255906000526020600020908101906124e591905b61219891905b80821115612b555760008155600101612ba2560057616c6c6574734d616e61676572000000000000000000000000000000000000a165627a7a7230582099a570aafec664fd813423f1e6537caf3aac4a6af7088dbfe271b32c60d19d990029",
  "source": "//sol Wallet\n// Multi-sig, daily-limited account proxy/wallet.\n// @authors:\n// Gav Wood <g@ethdev.com>\n// inheritable \"property\" contract that enables methods to be protected by requiring the acquiescence of either a\n// single, or, crucially, each of a number of, designated owners.\n// usage:\n// use modifiers onlyowner (just own owned) or onlymanyowners(hash), whereby the same hash must be provided by\n// some number (specified in constructor) of the set of owners (specified in the constructor, modifiable) before the\n// interior is executed.\n\npragma solidity ^0.4.11;\n\nimport \"../core/erc20/ERC20Manager.sol\";\nimport {ContractsManagerInterface as ContractsManager} from \"../core/contracts/ContractsManagerInterface.sol\";\nimport \"../core/erc20/ERC20Interface.sol\";\nimport \"./WalletEmitter.sol\";\n\ncontract WalletsManagerInterface {\n    function removeWallet() public returns (uint);\n    function getOracleAddress() view public returns (address);\n    function getOraclePrice() view public returns (uint);\n}\n\ncontract multiowned is WalletEmitter {\n    uint constant OK = 1;\n    uint constant WALLET_INVALID_INVOCATION = 14010;\n    uint constant WALLET_OWNER_ALREADY_EXISTS = 14013;\n    uint constant WALLET_CONFIRMATION_NEEDED = 14014;\n    uint constant WALLET_UNKNOWN_OPERATION = 14015;\n    uint constant WALLET_OWNERS_LIMIT_EXIDED = 14016;\n    uint constant WALLET_UNKNOWN_TOKEN_TRANSFER = 14017;\n    uint constant WALLET_OPERATION_ALREADY_REGISTERED = 14018;\n    uint constant WALLET_INSUFFICIENT_BALANCE = 14019;\n    uint constant WALLET_RELEASE_TIME_ERROR = 14020;\n\n    // struct for the status of a pending operation.\n    struct PendingState {\n        uint yetNeeded;\n        uint ownersDone;\n        uint index;\n    }\n\n    // Execute only if Two-factor authentication (2FA) is disabled\n    modifier only2FADisabled() {\n        if(use2FA) {\n            uint errorCode = WALLET_INVALID_INVOCATION;\n            assembly {\n                mstore(0, errorCode)\n                return(0, 32)\n            }\n        }\n        assert(!use2FA);\n\n        _;\n    }\n\n    // Allowed only for owner\n    modifier onlyowner {\n        require(isOwner(msg.sender) || msg.sender == address(this));\n        _;\n    }\n\n    // Multisig operation\n    modifier onlymanyowners() {\n        if (isOwner(msg.sender)) {\n            if (use2FA) {\n              // send some eth to oracle\n              address walletsManager = lookupManager(\"WalletsManager\");\n              if(msg.value < WalletsManagerInterface(walletsManager).getOraclePrice()) {\n                  revert();\n              }\n\n              if(!WalletsManagerInterface(walletsManager).getOracleAddress().send(msg.value)) {\n                  revert();\n              }\n            }\n\n            uint errorCode = registerTx(msg.value, msg.data);\n\n            assembly {\n                mstore(0, errorCode)\n                return(0, 32)\n            }\n        } else if (msg.sender == address(this)) {\n            _;\n        } else {\n            revert();\n        }\n    }\n\n    // Constructor is given number of sigs required to do protected \"onlymanyowners\" transactions\n    // as well as the selection of addresses capable of confirming them.\n    //\n    // Note, msg.sender will not be added to owners by default.\n    function multiowned(address[] _owners, uint _required) {\n        require(_owners.length != 0);\n        require(_owners.length >= _required);\n\n        for (uint i = 0; i < _owners.length; i++) {\n            m_owners[1 + i] = uint(_owners[i]);\n            m_ownerIndex[uint(_owners[i])] = 1 + i;\n            m_numOwners++;\n        }\n\n        m_required = _required;\n    }\n\n    // Revokes a prior confirmation of the given operation\n    function revoke(bytes32 _operation)\n    external\n    onlyowner\n    returns (uint)\n    {\n        uint ownerIndex = m_ownerIndex[uint(msg.sender)];\n        assert(ownerIndex != 0);\n\n        uint ownerIndexBit = 2**ownerIndex;\n        var pending = m_pending[_operation];\n\n        // TODO\n        if (pending.ownersDone & ownerIndexBit == 0) {\n            return _emitError(WALLET_INVALID_INVOCATION);\n        }\n\n        pending.yetNeeded++;\n        pending.ownersDone -= ownerIndexBit;\n\n        _emitRevoke(msg.sender, _operation);\n        return OK;\n    }\n\n    // Replaces an owner `_from` with another `_to`.\n    // Multisig operation.\n    function changeOwner(address _from, address _to)\n    external\n    only2FADisabled\n    onlymanyowners()\n    returns (uint resultCode)\n    {\n        uint ownerIndex = m_ownerIndex[uint(_from)];\n        assert (ownerIndex != 0);\n\n        if (isOwner(_to)) {\n            return _emitError(WALLET_OWNER_ALREADY_EXISTS);\n        }\n\n        clearPending();\n\n        m_owners[ownerIndex] = uint(_to);\n        m_ownerIndex[uint(_from)] = 0;\n        m_ownerIndex[uint(_to)] = ownerIndex;\n\n        _emitOwnerChanged(_from, _to);\n        return OK;\n    }\n\n    // Add the a `_owner` to the wallet's owners\n    // Multisig operation.\n    function addOwner(address _owner)\n    external\n    only2FADisabled\n    onlymanyowners()\n    returns (uint errorCode)\n    {\n        if (isOwner(_owner)) {\n            return _emitError(WALLET_OWNER_ALREADY_EXISTS);\n        }\n\n        clearPending();\n\n        if (m_numOwners >= c_maxOwners) {\n            reorganizeOwners();\n        }\n\n        if (m_numOwners >= c_maxOwners) {\n            return WALLET_OWNERS_LIMIT_EXIDED;\n        }\n\n        m_numOwners++;\n        m_owners[m_numOwners] = uint(_owner);\n        m_ownerIndex[uint(_owner)] = m_numOwners;\n\n        _emitOwnerAdded(_owner);\n        return OK;\n    }\n\n    // Remove owner. Multisig operation.\n    // Multisig operation.\n    function removeOwner(address _owner)\n    external\n    only2FADisabled\n    onlymanyowners()\n    returns (uint errorCode)\n    {\n        uint ownerIndex = m_ownerIndex[uint(_owner)];\n        assert(ownerIndex != 0);\n\n        if (m_required > m_numOwners - 1) {\n            return _emitError(WALLET_INVALID_INVOCATION);\n        }\n\n        m_owners[ownerIndex] = 0;\n        m_ownerIndex[uint(_owner)] = 0;\n        clearPending();\n        reorganizeOwners();\n\n        _emitOwnerRemoved(_owner);\n        return OK;\n    }\n\n    // Changes the number of owners that must confirm the same operation\n    // before it is run.\n    //\n    // `_newRequired` must be greater than the current number of owners.\n    //\n    // Multisig operation.\n    function changeRequirement(uint _newRequired)\n    external\n    only2FADisabled\n    onlymanyowners()\n    returns (uint errorCode)\n    {\n        if (_newRequired > m_numOwners) {\n            return _emitError(WALLET_INVALID_INVOCATION);\n        }\n\n        m_required = _newRequired;\n        clearPending();\n\n        _emitRequirementChanged(_newRequired);\n        return OK;\n    }\n\n    //\n    //  Toogles Two-factor authentication (2FA) mode.\n    //\n    // TODO: multisig?\n    function toggle2FA() external onlyowner returns (uint) {\n        assert (m_ownerIndex[uint(msg.sender)] != 0);\n\n        address walletsManager = lookupManager(\"WalletsManager\");\n        address oracleAddress = WalletsManagerInterface(walletsManager).getOracleAddress();\n\n        if(oracleAddress == address(0)) {\n            return _emitError(WALLET_INVALID_INVOCATION);\n        }\n\n        if(!use2FA && m_required == 1) {\n            use2FA = true;\n            m_required = 2;\n            clearPending();\n            m_numOwners++;\n            m_owners[m_numOwners] = uint(oracleAddress);\n            m_ownerIndex[uint(oracleAddress)] = m_numOwners;\n\n            _emit2FAChanged(use2FA);\n            return OK;\n        } else {\n            if(use2FA && m_required == 2 && m_ownerIndex[uint(oracleAddress)] == 1) {\n                use2FA = false;\n                m_required = 1;\n                uint ownerIndex = m_ownerIndex[uint(oracleAddress)];\n                m_owners[ownerIndex] = 0;\n                m_ownerIndex[uint(oracleAddress)] = 0;\n                clearPending();\n                reorganizeOwners();\n\n                _emit2FAChanged(use2FA);\n                return OK;\n            }\n        }\n\n        return _emitError(WALLET_INVALID_INVOCATION);\n    }\n\n    // Gets an owner by 0-indexed position (using numOwners as the count)\n    function getOwner(uint ownerIndex) public view returns (address) {\n        return address(m_owners[ownerIndex + 1]);\n    }\n\n    // Tells whether the given `_address` is owner of this wallet or not.\n    function isOwner(address _address) public view returns (bool) {\n        return m_ownerIndex[uint(_address)] > 0;\n    }\n\n    // Tells whether the passed `_operation` is alredy confirmed by `_owner`.\n    function hasConfirmed(bytes32 _operation, address _owner)\n    public\n    view\n    returns (bool)\n    {\n        var pending = m_pending[_operation];\n        uint ownerIndex = m_ownerIndex[uint(_owner)];\n\n        // make sure they're an owner\n        if (ownerIndex == 0) return false;\n\n        // determine the bit to set for this owner.\n        uint ownerIndexBit = 2**ownerIndex;\n        return !(pending.ownersDone & ownerIndexBit == 0);\n    }\n\n    // Confirms operation\n    function confirmAndCheck(bytes32 _operation) internal returns (uint) {\n        // determine what index the present sender is:\n        uint ownerIndex = m_ownerIndex[uint(msg.sender)];\n        // make sure they're an owner\n        assert(ownerIndex != 0);\n\n        var pending = m_pending[_operation];\n        // if we're not yet working on this operation, switch over and reset the confirmation status.\n        if (pending.yetNeeded == 0) {\n            // reset count of confirmations needed.\n            pending.yetNeeded = m_required;\n            // reset which owners have confirmed (none) - set our bitmap to 0.\n            pending.ownersDone = 0;\n            pending.index = m_pendingIndex.length++;\n            m_pendingIndex[pending.index] = _operation;\n        }\n        // determine the bit to set for this owner.\n        uint ownerIndexBit = 2**ownerIndex;\n        // make sure we (the message sender) haven't confirmed this operation previously.\n        if (pending.ownersDone & ownerIndexBit != 0) {\n            return WALLET_INVALID_INVOCATION;\n        }\n\n        _emitConfirmation(msg.sender, _operation);\n\n        // ok - check if count is enough to go ahead.\n        if (pending.yetNeeded <= 1) {\n          // enough confirmations: reset and run interior.\n            delete m_pendingIndex[m_pending[_operation].index];\n            delete m_pending[_operation];\n\n            return OK;\n        } else {\n            // not enough: record that this owner in particular confirmed.\n            pending.yetNeeded--;\n            pending.ownersDone |= ownerIndexBit;\n\n            return WALLET_CONFIRMATION_NEEDED;\n        }\n    }\n\n    // Make sure m_numOwner is equal to the number of owners\n    // and always points to the optimal free slot.\n    function reorganizeOwners() private {\n        uint free = 1;\n        while (free < m_numOwners)\n        {\n            while (free < m_numOwners && m_owners[free] != 0) free++;\n            while (m_numOwners > 1 && m_owners[m_numOwners] == 0) m_numOwners--;\n            if (free < m_numOwners && m_owners[m_numOwners] != 0 && m_owners[free] == 0)\n            {\n                m_owners[free] = m_owners[m_numOwners];\n                m_ownerIndex[m_owners[free]] = free;\n                m_owners[m_numOwners] = 0;\n            }\n        }\n    }\n\n    function clearPending() internal {\n        uint length = m_pendingIndex.length;\n        for (uint i = 0; i < length; ++i) {\n            if (m_pendingIndex[i] != 0) {\n                delete m_pending[m_pendingIndex[i]];\n            }\n        }\n\n        delete m_pendingIndex;\n    }\n\n    // Virtual function.\n    function registerTx(uint _value, bytes _data) internal returns (uint resultCode);\n\n    // Returns service by the given `type`\n    function lookupManager(bytes32 _identifier) internal view returns (address manager) {\n        manager = ContractsManager(contractsManager).getContractAddressByType(_identifier);\n        require(manager != 0x0);\n    }\n\n    // Returns events history contract\n    function getEventsHistory() public view returns (address) {\n        return lookupManager(\"MultiEventsHistory\");\n    }\n\n    function _emitError(uint errorCode) internal returns (uint) {\n        Wallet(getEventsHistory()).emitError(errorCode);\n        return errorCode;\n    }\n\n    function _emitDeposit(address from, uint value) internal {\n        Wallet(getEventsHistory()).emitDeposit(from, value);\n    }\n\n    function _emitSingleTransact(address owner, uint value, address to, bytes32 symbol) internal {\n        Wallet(getEventsHistory()).emitSingleTransact(owner, value, to, symbol);\n    }\n\n    function _emitMultiTransact(address owner, bytes32 operation, uint value, address to, bytes data) internal {\n        Wallet(getEventsHistory()).emitMultiTransact(owner, operation, value, to, data);\n    }\n\n    function _emitConfirmationNeeded(bytes32 operation, address initiator, uint value, address to, bytes data) internal {\n        Wallet(getEventsHistory()).emitConfirmationNeeded(operation, initiator, value, to, data);\n    }\n\n    function _emitConfirmation(address owner, bytes32 operation) internal {\n        Wallet(getEventsHistory()).emitConfirmation(owner, operation);\n    }\n\n    function _emitRevoke(address owner, bytes32 operation) internal {\n        Wallet(getEventsHistory()).emitRevoke(owner, operation);\n    }\n\n    function _emitOwnerChanged(address oldOwner, address newOwner) internal {\n        Wallet(getEventsHistory()).emitOwnerChanged(oldOwner, newOwner);\n    }\n\n    function _emitOwnerAdded(address newOwner) internal {\n        Wallet(getEventsHistory()).emitOwnerAdded(newOwner);\n    }\n\n    function _emitOwnerRemoved(address oldOwner) internal {\n        Wallet(getEventsHistory()).emitOwnerRemoved(oldOwner);\n    }\n\n    function _emitRequirementChanged(uint newRequirement) internal {\n        Wallet(getEventsHistory()).emitRequirementChanged(newRequirement);\n    }\n\n    function _emit2FAChanged(bool enabled) internal {\n        Wallet(getEventsHistory()).emit2FAChanged(enabled);\n    }\n\n    // wallets use 2FA oracle\n    bool public use2FA;\n    // the number of owners that must confirm the same operation before it is run.\n    uint public m_required;\n    // pointer used to find a free slot in m_owners\n    uint public m_numOwners;\n    // version\n    bytes32 public version = \"1.0.0\";\n    // list of owners\n    uint[256] m_owners;\n    uint constant c_maxOwners = 250;\n    // index on the list of owners to allow reverse lookup\n    mapping(uint => uint) m_ownerIndex;\n    // the ongoing operations.\n    mapping(bytes32 => PendingState) m_pending;\n    bytes32[] m_pendingIndex;\n    // service provider\n    address contractsManager;\n}\n\n/**\n* TODO\n*/\ncontract Wallet is multiowned {\n    // Transaction structure to remember details of transaction lest\n    // it need be saved for a later call.\n    struct Transaction {\n        uint value;\n        bytes data;\n    }\n\n    modifier ensureReleaseTime() {\n      if(releaseTime > now) {\n          uint errorCode = _emitError(WALLET_RELEASE_TIME_ERROR);\n          assembly {\n              mstore(0, errorCode)\n              return(0, 32)\n          }\n      }\n\n      assert(releaseTime <= now);\n      _;\n    }\n\n    modifier ensureBalance(uint _value, bytes32 _symbol) {\n      uint errorCode;\n      if(_symbol == bytes32('ETH') || _symbol == bytes32(0)) {\n          errorCode = this.balance < _value ? WALLET_INSUFFICIENT_BALANCE : OK;\n      } else {\n          ERC20Manager erc20Manager = ERC20Manager(lookupManager(\"ERC20Manager\"));\n          address token = erc20Manager.getTokenAddressBySymbol(_symbol);\n          if(token == 0x0) {\n              errorCode = WALLET_UNKNOWN_TOKEN_TRANSFER;\n          } else {\n              errorCode = ERC20Interface(token).balanceOf(this) < _value ? WALLET_INSUFFICIENT_BALANCE : OK;\n          }\n      }\n\n      if (errorCode != OK) {\n          _emitError(errorCode);\n          assembly {\n              mstore(0, errorCode)\n              return(0, 32)\n          }\n      }\n\n      assert(errorCode == OK);\n      _;\n    }\n\n    // Constructor\n    function Wallet(address[] _owners,\n        uint _required,\n        address _contractsManager,\n        bool _use2FA,\n        uint _releaseTime)\n    multiowned(_owners, _required)\n    {\n        require(_contractsManager != 0x0);        \n\n        contractsManager = _contractsManager;\n        use2FA = _use2FA;\n        releaseTime = _releaseTime;\n    }\n\n    // Returns pending operations\n    function getPendings()\n    external\n    view\n    returns (\n      uint[] values,\n      bytes32[] operations,\n      bool[] isConfirmed)\n    {\n        values = new uint[](m_pendingIndex.length);\n        operations = new bytes32[](m_pendingIndex.length);\n        isConfirmed = new bool[](m_pendingIndex.length);\n        for(uint i=0; i<m_pendingIndex.length; i++) {\n            values[i] = m_txs[m_pendingIndex[i]].value;\n            operations[i] = m_pendingIndex[i];\n            isConfirmed[i] = hasConfirmed(m_pendingIndex[i], msg.sender);\n        }\n        return (values, operations, isConfirmed);\n    }\n\n    // Returns a data associated with given operation hash `_h`.\n    //\n    // @param _h operation hash\n    // @return _data associated with _h\n    function getData(bytes32 _h) public view returns (bytes) {\n        return m_txs[_h].data;\n    }\n\n    // Kills the contract sending everything to `_to`.\n    function kill(address _to)\n    external\n    onlymanyowners()\n    returns (uint errorCode)\n    {\n        if(releaseTime > now) {\n            return _emitError(WALLET_RELEASE_TIME_ERROR);\n        }\n\n        address erc20Manager = lookupManager(\"ERC20Manager\");\n        uint tokenCount = ERC20Manager(erc20Manager).tokensCount();\n\n        // TODO: oog\n        for(uint i = 0; i < tokenCount; i++) {\n            address token = ERC20Manager(erc20Manager).getAddressById(i);\n            uint balance = ERC20Interface(token).balanceOf(this);\n            if(balance != 0) {\n                require(ERC20Interface(token).transfer(_to,balance));\n            }\n        }\n\n        address walletsManager = lookupManager(\"WalletsManager\");\n        if (WalletsManagerInterface(walletsManager).removeWallet() != OK) {\n            revert();\n        }\n\n        selfdestruct(_to);\n        return OK;\n    }\n\n    // Gets called when no other function matches\n    function() public payable {\n        if (msg.value > 0) {\n            _emitDeposit(msg.sender, msg.value);\n        }\n    }\n\n\n    // Send _value amount of tokens/eth to address _to from this wallet\n    function transfer(address _to, uint _value, bytes32 _symbol)\n    external\n    ensureReleaseTime\n    ensureBalance(_value, _symbol)\n    onlymanyowners()\n    payable\n    returns (uint)\n    {\n        if(_symbol == bytes32('ETH') || _symbol == bytes32(0)) {\n            require(_to.send(_value));\n        } else {\n            address token = ERC20Manager(lookupManager(\"ERC20Manager\")).getTokenAddressBySymbol(_symbol);\n            require(ERC20Interface(token).transfer(_to, _value));\n        }\n\n        return OK;\n    }\n\n    // Just withdraws the `tokens` of the `_to`\n    function withdrawnTokens(address[] _tokens, address _to)\n    external\n    ensureReleaseTime\n    onlymanyowners()\n    payable\n    returns(uint) {\n        for(uint i=0; i<_tokens.length; i++) {\n            address token = _tokens[i];\n            uint balance = ERC20Interface(token).balanceOf(this);\n            if(balance != 0) {\n                require(ERC20Interface(token).transfer(_to, balance));\n            }\n\n        }\n        return OK;\n    }\n\n    // Transact entry point. Goes into multisig process. Only for internal usage.\n    function registerTx(uint _value, bytes _data)\n    internal\n    returns (uint resultCode)\n    {\n        bytes32 _r = keccak256(msg.data, block.number);\n\n        if (m_txs[_r].data.length != 0) {\n            return _emitError(WALLET_OPERATION_ALREADY_REGISTERED);\n        }\n\n        m_txs[_r].data = _data;\n        m_txs[_r].value = _value;\n\n        resultCode = confirm(_r);\n        if (resultCode != OK) {\n            if (resultCode != WALLET_CONFIRMATION_NEEDED) {\n                return _emitError(resultCode);\n            }\n            _emitConfirmationNeeded(_r, msg.sender, _value, this, _data);\n            return WALLET_CONFIRMATION_NEEDED;\n        }\n        return OK;\n    }\n\n    // Confirm a transaction through just the hash.\n    // We use the previous transactions map, m_txs, in order\n    // to determine the body of the transaction from the hash provided.\n    //\n    // @param _h operation which should be confirmed\n    // @return errorCode indicates what happened\n    function confirm(bytes32 _h) public onlyowner returns (uint errorCode) {\n       if (m_txs[_h].data.length == 0) {\n          return _emitError(WALLET_UNKNOWN_OPERATION);\n       }\n\n       errorCode = confirmAndCheck(_h);\n       if (OK != errorCode) {\n           return errorCode;\n       }\n\n       require(this.call(m_txs[_h].data));\n       delete m_txs[_h];\n\n       _emitMultiTransact(msg.sender, _h, m_txs[_h].value, this, m_txs[_h].data);\n       return OK;\n   }\n\n\n    // Clears pending transactions.\n    function clearPending() internal {\n        uint length = m_pendingIndex.length;\n        for (uint i = 0; i < length; ++i) {\n            delete m_txs[m_pendingIndex[i]];\n        }\n\n        super.clearPending();\n    }\n\n    // pending transactions we have at present.\n    mapping (bytes32 => Transaction) m_txs;\n    // the time when ETH/ERC20 transfer will be allowed\n    uint public releaseTime;\n}\n",
  "sourcePath": "/Users/alesanro/Documents/Projects/ChronoBank/SmartContracts/contracts/wallet/Wallet.sol",
  "compiler": {
    "name": "solc",
    "version": "0.4.21+commit.dfe3193c.Emscripten.clang"
  },
  "schemaVersion": "2.0.0",
  "updatedAt": "2018-04-06T09:20:58.937Z"
}