{
  "contractName": "WalletEmitter",
  "abi": [
    {
      "anonymous": false,
      "inputs": [
        {
          "indexed": true,
          "name": "self",
          "type": "address"
        },
        {
          "indexed": false,
          "name": "from",
          "type": "address"
        },
        {
          "indexed": false,
          "name": "value",
          "type": "uint256"
        }
      ],
      "name": "MultisigWalletDeposit",
      "type": "event"
    },
    {
      "anonymous": false,
      "inputs": [
        {
          "indexed": true,
          "name": "self",
          "type": "address"
        },
        {
          "indexed": true,
          "name": "owner",
          "type": "address"
        },
        {
          "indexed": false,
          "name": "value",
          "type": "uint256"
        },
        {
          "indexed": false,
          "name": "to",
          "type": "address"
        },
        {
          "indexed": false,
          "name": "symbol",
          "type": "bytes32"
        }
      ],
      "name": "MultisigWalletSingleTransact",
      "type": "event"
    },
    {
      "anonymous": false,
      "inputs": [
        {
          "indexed": true,
          "name": "self",
          "type": "address"
        },
        {
          "indexed": true,
          "name": "owner",
          "type": "address"
        },
        {
          "indexed": false,
          "name": "operation",
          "type": "bytes32"
        },
        {
          "indexed": false,
          "name": "value",
          "type": "uint256"
        },
        {
          "indexed": false,
          "name": "to",
          "type": "address"
        },
        {
          "indexed": false,
          "name": "data",
          "type": "bytes"
        }
      ],
      "name": "MultisigWalletMultiTransact",
      "type": "event"
    },
    {
      "anonymous": false,
      "inputs": [
        {
          "indexed": true,
          "name": "self",
          "type": "address"
        },
        {
          "indexed": false,
          "name": "operation",
          "type": "bytes32"
        },
        {
          "indexed": true,
          "name": "initiator",
          "type": "address"
        },
        {
          "indexed": false,
          "name": "value",
          "type": "uint256"
        },
        {
          "indexed": false,
          "name": "to",
          "type": "address"
        },
        {
          "indexed": false,
          "name": "data",
          "type": "bytes"
        }
      ],
      "name": "MultisigWalletConfirmationNeeded",
      "type": "event"
    },
    {
      "anonymous": false,
      "inputs": [
        {
          "indexed": true,
          "name": "self",
          "type": "address"
        },
        {
          "indexed": true,
          "name": "owner",
          "type": "address"
        },
        {
          "indexed": false,
          "name": "operation",
          "type": "bytes32"
        }
      ],
      "name": "MultisigWalletConfirmation",
      "type": "event"
    },
    {
      "anonymous": false,
      "inputs": [
        {
          "indexed": true,
          "name": "self",
          "type": "address"
        },
        {
          "indexed": true,
          "name": "owner",
          "type": "address"
        },
        {
          "indexed": false,
          "name": "operation",
          "type": "bytes32"
        }
      ],
      "name": "MultisigWalletRevoke",
      "type": "event"
    },
    {
      "anonymous": false,
      "inputs": [
        {
          "indexed": true,
          "name": "self",
          "type": "address"
        },
        {
          "indexed": true,
          "name": "oldOwner",
          "type": "address"
        },
        {
          "indexed": true,
          "name": "newOwner",
          "type": "address"
        }
      ],
      "name": "MultisigWalletOwnerChanged",
      "type": "event"
    },
    {
      "anonymous": false,
      "inputs": [
        {
          "indexed": true,
          "name": "self",
          "type": "address"
        },
        {
          "indexed": true,
          "name": "newOwner",
          "type": "address"
        }
      ],
      "name": "MultisigWalletOwnerAdded",
      "type": "event"
    },
    {
      "anonymous": false,
      "inputs": [
        {
          "indexed": true,
          "name": "self",
          "type": "address"
        },
        {
          "indexed": true,
          "name": "oldOwner",
          "type": "address"
        }
      ],
      "name": "MultisigWalletOwnerRemoved",
      "type": "event"
    },
    {
      "anonymous": false,
      "inputs": [
        {
          "indexed": true,
          "name": "self",
          "type": "address"
        },
        {
          "indexed": false,
          "name": "newRequirement",
          "type": "uint256"
        }
      ],
      "name": "MultisigWalletRequirementChanged",
      "type": "event"
    },
    {
      "anonymous": false,
      "inputs": [
        {
          "indexed": true,
          "name": "self",
          "type": "address"
        },
        {
          "indexed": false,
          "name": "enabled",
          "type": "bool"
        }
      ],
      "name": "MultisigWallet2FAChanged",
      "type": "event"
    },
    {
      "anonymous": false,
      "inputs": [
        {
          "indexed": true,
          "name": "self",
          "type": "address"
        },
        {
          "indexed": false,
          "name": "errorCode",
          "type": "uint256"
        }
      ],
      "name": "Error",
      "type": "event"
    },
    {
      "constant": false,
      "inputs": [
        {
          "name": "errorCode",
          "type": "uint256"
        }
      ],
      "name": "emitError",
      "outputs": [],
      "payable": false,
      "stateMutability": "nonpayable",
      "type": "function"
    },
    {
      "constant": false,
      "inputs": [
        {
          "name": "from",
          "type": "address"
        },
        {
          "name": "value",
          "type": "uint256"
        }
      ],
      "name": "emitDeposit",
      "outputs": [],
      "payable": false,
      "stateMutability": "nonpayable",
      "type": "function"
    },
    {
      "constant": false,
      "inputs": [
        {
          "name": "owner",
          "type": "address"
        },
        {
          "name": "value",
          "type": "uint256"
        },
        {
          "name": "to",
          "type": "address"
        },
        {
          "name": "symbol",
          "type": "bytes32"
        }
      ],
      "name": "emitSingleTransact",
      "outputs": [],
      "payable": false,
      "stateMutability": "nonpayable",
      "type": "function"
    },
    {
      "constant": false,
      "inputs": [
        {
          "name": "owner",
          "type": "address"
        },
        {
          "name": "operation",
          "type": "bytes32"
        },
        {
          "name": "value",
          "type": "uint256"
        },
        {
          "name": "to",
          "type": "address"
        },
        {
          "name": "data",
          "type": "bytes"
        }
      ],
      "name": "emitMultiTransact",
      "outputs": [],
      "payable": false,
      "stateMutability": "nonpayable",
      "type": "function"
    },
    {
      "constant": false,
      "inputs": [
        {
          "name": "operation",
          "type": "bytes32"
        },
        {
          "name": "initiator",
          "type": "address"
        },
        {
          "name": "value",
          "type": "uint256"
        },
        {
          "name": "to",
          "type": "address"
        },
        {
          "name": "data",
          "type": "bytes"
        }
      ],
      "name": "emitConfirmationNeeded",
      "outputs": [],
      "payable": false,
      "stateMutability": "nonpayable",
      "type": "function"
    },
    {
      "constant": false,
      "inputs": [
        {
          "name": "owner",
          "type": "address"
        },
        {
          "name": "operation",
          "type": "bytes32"
        }
      ],
      "name": "emitConfirmation",
      "outputs": [],
      "payable": false,
      "stateMutability": "nonpayable",
      "type": "function"
    },
    {
      "constant": false,
      "inputs": [
        {
          "name": "owner",
          "type": "address"
        },
        {
          "name": "operation",
          "type": "bytes32"
        }
      ],
      "name": "emitRevoke",
      "outputs": [],
      "payable": false,
      "stateMutability": "nonpayable",
      "type": "function"
    },
    {
      "constant": false,
      "inputs": [
        {
          "name": "oldOwner",
          "type": "address"
        },
        {
          "name": "newOwner",
          "type": "address"
        }
      ],
      "name": "emitOwnerChanged",
      "outputs": [],
      "payable": false,
      "stateMutability": "nonpayable",
      "type": "function"
    },
    {
      "constant": false,
      "inputs": [
        {
          "name": "newOwner",
          "type": "address"
        }
      ],
      "name": "emitOwnerAdded",
      "outputs": [],
      "payable": false,
      "stateMutability": "nonpayable",
      "type": "function"
    },
    {
      "constant": false,
      "inputs": [
        {
          "name": "oldOwner",
          "type": "address"
        }
      ],
      "name": "emitOwnerRemoved",
      "outputs": [],
      "payable": false,
      "stateMutability": "nonpayable",
      "type": "function"
    },
    {
      "constant": false,
      "inputs": [
        {
          "name": "newRequirement",
          "type": "uint256"
        }
      ],
      "name": "emitRequirementChanged",
      "outputs": [],
      "payable": false,
      "stateMutability": "nonpayable",
      "type": "function"
    },
    {
      "constant": false,
      "inputs": [
        {
          "name": "enabled",
          "type": "bool"
        }
      ],
      "name": "emit2FAChanged",
      "outputs": [],
      "payable": false,
      "stateMutability": "nonpayable",
      "type": "function"
    }
  ],
  "bytecode": "0x6060604052341561000f57600080fd5b6107a48061001e6000396000f3006060604052600436106100b95763ffffffff7c010000000000000000000000000000000000000000000000000000000060003504166311673db981146100be57806313de3d2b146100df57806314da07971461014d57806328ba84ca1461016f578063418cbda9146101915780634367f19a146101a757806349a00858146101bf5780635b0b6f661461022d578063660918ca1461025257806376583f6614610271578063d45547371461029d578063df26ca08146102bf575b600080fd5b34156100c957600080fd5b6100dd600160a060020a03600435166102d5565b005b34156100ea57600080fd5b6100dd600160a060020a0360048035821691602480359260443592606435169160a49060843590810190830135806020601f8201819004810201604051908101604052818152929190602084018383808284375094965061031f95505050505050565b341561015857600080fd5b6100dd600160a060020a03600435166024356103fb565b341561017a57600080fd5b6100dd600160a060020a036004351660243561044d565b341561019c57600080fd5b6100dd6004356104a6565b34156101b257600080fd5b6100dd60043515156104ed565b34156101ca57600080fd5b6100dd6004803590600160a060020a036024803582169260443592606435169160a49060843590810190830135806020601f8201819004810201604051908101604052818152929190602084018383808284375094965061053695505050505050565b341561023857600080fd5b6100dd600160a060020a03600435811690602435166105cd565b341561025d57600080fd5b6100dd600160a060020a0360043516610622565b341561027c57600080fd5b6100dd600160a060020a03600435811690602435906044351660643561066b565b34156102a857600080fd5b6100dd600160a060020a03600435166024356106db565b34156102ca57600080fd5b6100dd60043561072d565b80600160a060020a03166102e7610774565b600160a060020a03167ffda769962711e3e34f112435e5900b6f209a31363e82cdbb4bf28ef0fe810baf60405160405180910390a350565b84600160a060020a0316610331610774565b600160a060020a03167f4610c27e2d78ce09675d82db64898d8c008a50f8db6d18e49835fc4bafce645f8686868660405184815260208101849052600160a060020a038316604082015260806060820181815290820183818151815260200191508051906020019080838360005b838110156103b757808201518382015260200161039f565b50505050905090810190601f1680156103e45780820380516001836020036101000a031916815260200191505b509550505050505060405180910390a35050505050565b81600160a060020a031661040d610774565b600160a060020a03167f619980af4e2d2067d8772c53365a0449d1bdd2ccd48b6e504ea1cab5a50ca7528360405190815260200160405180910390a35050565b610455610774565b600160a060020a03167fbee6d2975bcdff8dc26bc64942959415ca30aff94e84977a5954a760da30fbfe8383604051600160a060020a03909216825260208201526040908101905180910390a25050565b6104ae610774565b600160a060020a03167fb26123dbf7a81d26e5f647fcaabebe1583079e0c43904aae3954496eba952c4a8260405190815260200160405180910390a250565b6104f5610774565b600160a060020a03167f3c05c875f0fe54dcedd51664a7ceb9a463f3b1f1bbf04bdd0a1c15c1758967b182604051901515815260200160405180910390a250565b83600160a060020a0316610548610774565b600160a060020a03167fb34e114caca0a1485cad8d85fe392613f827825cf9135035e78500a4f8aed4398786868660405184815260208101849052600160a060020a03831660408201526080606082018181529082018381815181526020019150805190602001908083836000838110156103b757808201518382015260200161039f565b80600160a060020a031682600160a060020a03166105e9610774565b600160a060020a03167ff326492b55079c92d5144c6c5e02fe1f6cb1ec9064e12de0d269f0615171e8df60405160405180910390a45050565b80600160a060020a0316610634610774565b600160a060020a03167ed0db01d039330b725890e8de587ddb67d2c41528c68f07057500e4026c487760405160405180910390a350565b83600160a060020a031661067d610774565b600160a060020a03167f113341d7c6797c7fd2ab72bb6f21014dc77b4bfaaffde795ad5f9b5fd70c76f0858585604051928352600160a060020a0390911660208301526040808301919091526060909101905180910390a350505050565b81600160a060020a03166106ed610774565b600160a060020a03167f19488fab9001d4fd32730335b6e16f41b8d0fffe8f210fe291016d939f8290528360405190815260200160405180910390a35050565b610735610774565b600160a060020a03167f9cf38cf2dbf9139f5c32639950507b10775fbbe0421f3e168bc2d1bb1ae3208c8260405190815260200160405180910390a250565b33905600a165627a7a72305820f4bf40c2e26965f3a13e5e49e24f201be89f17d7a6e5930f7094188db3d445f40029",
  "source": "pragma solidity ^0.4.11;\n\nimport '../core/event/MultiEventsHistoryAdapter.sol';\n\ncontract WalletEmitter is MultiEventsHistoryAdapter {\n\n    // EVENTS\n\n    // Funds has arrived into the wallet (record how much).\n    event MultisigWalletDeposit(address indexed self, address from, uint value);\n    // Single transaction going out of the wallet (record who signed for it, how much, and to whom it's going).\n    event MultisigWalletSingleTransact(address indexed self, address indexed owner, uint value, address to, bytes32 symbol);\n    // Multi-sig transaction going out of the wallet (record who signed for it last, the operation hash, how much, and to whom it's going).\n    event MultisigWalletMultiTransact(address indexed self, address indexed owner, bytes32 operation, uint value, address to, bytes data);\n    // Confirmation still needed for a transaction.\n    event MultisigWalletConfirmationNeeded(address indexed self, bytes32 operation, address indexed initiator, uint value, address to, bytes data);\n\n    event MultisigWalletConfirmation(address indexed self, address indexed owner, bytes32 operation);\n\n    event MultisigWalletRevoke(address indexed self, address indexed owner, bytes32 operation);\n    // some others are in the case of an owner changing.\n    event MultisigWalletOwnerChanged(address indexed self, address indexed oldOwner, address indexed newOwner);\n\n    event MultisigWalletOwnerAdded(address indexed self, address indexed newOwner);\n\n    event MultisigWalletOwnerRemoved(address indexed self, address indexed oldOwner);\n    // the last one is emitted if the required signatures change\n    event MultisigWalletRequirementChanged(address indexed self, uint newRequirement);\n\n    event MultisigWallet2FAChanged(address indexed self, bool enabled);\n\n    event Error(address indexed self, uint errorCode);\n\n    function emitError(uint errorCode) public {\n        Error(_self(), errorCode);\n    }\n\n    function emitDeposit(address from, uint value) public {\n        MultisigWalletDeposit(_self(), from, value);\n    }\n\n    function emitSingleTransact(address owner, uint value, address to, bytes32 symbol) public {\n        MultisigWalletSingleTransact(_self(), owner, value, to, symbol);\n    }\n\n    function emitMultiTransact(address owner, bytes32 operation, uint value, address to, bytes data) public {\n        MultisigWalletMultiTransact(_self(), owner, operation, value, to, data);\n    }\n\n    function emitConfirmationNeeded(bytes32 operation, address initiator, uint value, address to, bytes data) public {\n        MultisigWalletConfirmationNeeded(_self(), operation, initiator, value, to, data);\n    }\n\n    function emitConfirmation(address owner, bytes32 operation) public {\n        MultisigWalletConfirmation(_self(), owner, operation);\n    }\n\n    function emitRevoke(address owner, bytes32 operation) public {\n        MultisigWalletRevoke(_self(), owner, operation);\n    }\n\n    function emitOwnerChanged(address oldOwner, address newOwner) public {\n        MultisigWalletOwnerChanged(_self(), oldOwner, newOwner);\n    }\n\n    function emitOwnerAdded(address newOwner) public {\n        MultisigWalletOwnerAdded(_self(), newOwner);\n    }\n\n    function emitOwnerRemoved(address oldOwner) public {\n        MultisigWalletOwnerRemoved(_self(), oldOwner);\n    }\n\n    function emitRequirementChanged(uint newRequirement) public {\n        MultisigWalletRequirementChanged(_self(), newRequirement);\n    }\n\n    function emit2FAChanged(bool enabled) public {\n        MultisigWallet2FAChanged(_self(), enabled);\n    }\n}\n",
  "sourcePath": "/Users/alesanro/Documents/Projects/ChronoBank/SmartContracts/contracts/wallet/WalletEmitter.sol",
  "compiler": {
    "name": "solc",
    "version": "0.4.19+commit.c4cbbb05.Emscripten.clang"
  },
  "schemaVersion": "2.0.0",
  "updatedAt": "2018-04-02T14:47:31.455Z"
}